{
	"contracts/KipuBank.sol": {
		"KipuBank": {
			"abi": [
				{
					"inputs": [
						{
							"internalType": "uint256",
							"name": "_limite",
							"type": "uint256"
						},
						{
							"internalType": "uint256",
							"name": "_umbral",
							"type": "uint256"
						},
						{
							"internalType": "address",
							"name": "_owner",
							"type": "address"
						},
						{
							"internalType": "address",
							"name": "_feed",
							"type": "address"
						},
						{
							"internalType": "address",
							"name": "_tokenERC20",
							"type": "address"
						}
					],
					"stateMutability": "nonpayable",
					"type": "constructor"
				},
				{
					"inputs": [],
					"name": "AccessControlBadConfirmation",
					"type": "error"
				},
				{
					"inputs": [
						{
							"internalType": "address",
							"name": "account",
							"type": "address"
						},
						{
							"internalType": "bytes32",
							"name": "neededRole",
							"type": "bytes32"
						}
					],
					"name": "AccessControlUnauthorizedAccount",
					"type": "error"
				},
				{
					"inputs": [],
					"name": "EnforcedPause",
					"type": "error"
				},
				{
					"inputs": [],
					"name": "ExpectedPause",
					"type": "error"
				},
				{
					"inputs": [],
					"name": "KipuBank_DireccionInvalida",
					"type": "error"
				},
				{
					"inputs": [
						{
							"internalType": "address",
							"name": "titular",
							"type": "address"
						},
						{
							"internalType": "uint256",
							"name": "monto",
							"type": "uint256"
						}
					],
					"name": "KipuBank_ExtraccionRechazada",
					"type": "error"
				},
				{
					"inputs": [
						{
							"internalType": "address",
							"name": "nuevoFeed",
							"type": "address"
						}
					],
					"name": "KipuBank_FeedInvalido",
					"type": "error"
				},
				{
					"inputs": [
						{
							"internalType": "uint256",
							"name": "limite",
							"type": "uint256"
						},
						{
							"internalType": "uint256",
							"name": "umbral",
							"type": "uint256"
						}
					],
					"name": "KipuBank_InicializacionInvalida",
					"type": "error"
				},
				{
					"inputs": [
						{
							"internalType": "uint256",
							"name": "monto",
							"type": "uint256"
						}
					],
					"name": "KipuBank_LimiteExcedido",
					"type": "error"
				},
				{
					"inputs": [
						{
							"internalType": "uint256",
							"name": "limite",
							"type": "uint256"
						}
					],
					"name": "KipuBank_LimiteInvalido",
					"type": "error"
				},
				{
					"inputs": [
						{
							"internalType": "address",
							"name": "titular",
							"type": "address"
						}
					],
					"name": "KipuBank_MontoCero",
					"type": "error"
				},
				{
					"inputs": [
						{
							"internalType": "address",
							"name": "sender",
							"type": "address"
						}
					],
					"name": "KipuBank_NoAutorizado",
					"type": "error"
				},
				{
					"inputs": [
						{
							"internalType": "address",
							"name": "titular",
							"type": "address"
						}
					],
					"name": "KipuBank_OperacionNoPermitida",
					"type": "error"
				},
				{
					"inputs": [
						{
							"internalType": "uint256",
							"name": "precio",
							"type": "uint256"
						}
					],
					"name": "KipuBank_OraculoComprometido",
					"type": "error"
				},
				{
					"inputs": [
						{
							"internalType": "uint256",
							"name": "precio",
							"type": "uint256"
						}
					],
					"name": "KipuBank_PrecioDesactualizado",
					"type": "error"
				},
				{
					"inputs": [
						{
							"internalType": "address",
							"name": "titular",
							"type": "address"
						},
						{
							"internalType": "uint256",
							"name": "monto",
							"type": "uint256"
						}
					],
					"name": "KipuBank_SaldoInsuficiente",
					"type": "error"
				},
				{
					"inputs": [
						{
							"internalType": "uint256",
							"name": "monto",
							"type": "uint256"
						}
					],
					"name": "KipuBank_UmbralExcedido",
					"type": "error"
				},
				{
					"inputs": [
						{
							"internalType": "uint256",
							"name": "umbral",
							"type": "uint256"
						}
					],
					"name": "KipuBank_UmbralInvalido",
					"type": "error"
				},
				{
					"inputs": [
						{
							"internalType": "address",
							"name": "owner",
							"type": "address"
						}
					],
					"name": "OwnableInvalidOwner",
					"type": "error"
				},
				{
					"inputs": [
						{
							"internalType": "address",
							"name": "account",
							"type": "address"
						}
					],
					"name": "OwnableUnauthorizedAccount",
					"type": "error"
				},
				{
					"inputs": [
						{
							"internalType": "address",
							"name": "token",
							"type": "address"
						}
					],
					"name": "SafeERC20FailedOperation",
					"type": "error"
				},
				{
					"anonymous": false,
					"inputs": [
						{
							"indexed": true,
							"internalType": "address",
							"name": "sender",
							"type": "address"
						},
						{
							"indexed": false,
							"internalType": "uint256",
							"name": "tiempo",
							"type": "uint256"
						}
					],
					"name": "KipuBank_ContratoDespausado",
					"type": "event"
				},
				{
					"anonymous": false,
					"inputs": [
						{
							"indexed": true,
							"internalType": "address",
							"name": "sender",
							"type": "address"
						},
						{
							"indexed": false,
							"internalType": "uint256",
							"name": "tiempo",
							"type": "uint256"
						}
					],
					"name": "KipuBank_ContratoPausado",
					"type": "event"
				},
				{
					"anonymous": false,
					"inputs": [
						{
							"indexed": true,
							"internalType": "address",
							"name": "titular",
							"type": "address"
						},
						{
							"indexed": false,
							"internalType": "uint256",
							"name": "monto",
							"type": "uint256"
						}
					],
					"name": "KipuBank_DepositoRealizado",
					"type": "event"
				},
				{
					"anonymous": false,
					"inputs": [
						{
							"indexed": true,
							"internalType": "address",
							"name": "titular",
							"type": "address"
						},
						{
							"indexed": false,
							"internalType": "uint256",
							"name": "monto",
							"type": "uint256"
						}
					],
					"name": "KipuBank_ExtraccionRealizada",
					"type": "event"
				},
				{
					"anonymous": false,
					"inputs": [
						{
							"indexed": true,
							"internalType": "address",
							"name": "antiguoFeed",
							"type": "address"
						},
						{
							"indexed": true,
							"internalType": "address",
							"name": "nuevoFeed",
							"type": "address"
						}
					],
					"name": "KipuBank_FeedActualizado",
					"type": "event"
				},
				{
					"anonymous": false,
					"inputs": [
						{
							"indexed": true,
							"internalType": "address",
							"name": "ownerViejo",
							"type": "address"
						},
						{
							"indexed": true,
							"internalType": "address",
							"name": "ownerNuevo",
							"type": "address"
						}
					],
					"name": "KipuBank_OwnerTransferido",
					"type": "event"
				},
				{
					"anonymous": false,
					"inputs": [
						{
							"indexed": true,
							"internalType": "address",
							"name": "cuenta",
							"type": "address"
						},
						{
							"indexed": false,
							"internalType": "bytes32",
							"name": "rol",
							"type": "bytes32"
						}
					],
					"name": "KipuBank_RolDado",
					"type": "event"
				},
				{
					"anonymous": false,
					"inputs": [
						{
							"indexed": true,
							"internalType": "address",
							"name": "cuenta",
							"type": "address"
						},
						{
							"indexed": false,
							"internalType": "bytes32",
							"name": "rol",
							"type": "bytes32"
						}
					],
					"name": "KipuBank_RolRevocado",
					"type": "event"
				},
				{
					"anonymous": false,
					"inputs": [
						{
							"indexed": true,
							"internalType": "address",
							"name": "previousOwner",
							"type": "address"
						},
						{
							"indexed": true,
							"internalType": "address",
							"name": "newOwner",
							"type": "address"
						}
					],
					"name": "OwnershipTransferred",
					"type": "event"
				},
				{
					"anonymous": false,
					"inputs": [
						{
							"indexed": false,
							"internalType": "address",
							"name": "account",
							"type": "address"
						}
					],
					"name": "Paused",
					"type": "event"
				},
				{
					"anonymous": false,
					"inputs": [
						{
							"indexed": true,
							"internalType": "bytes32",
							"name": "role",
							"type": "bytes32"
						},
						{
							"indexed": true,
							"internalType": "bytes32",
							"name": "previousAdminRole",
							"type": "bytes32"
						},
						{
							"indexed": true,
							"internalType": "bytes32",
							"name": "newAdminRole",
							"type": "bytes32"
						}
					],
					"name": "RoleAdminChanged",
					"type": "event"
				},
				{
					"anonymous": false,
					"inputs": [
						{
							"indexed": true,
							"internalType": "bytes32",
							"name": "role",
							"type": "bytes32"
						},
						{
							"indexed": true,
							"internalType": "address",
							"name": "account",
							"type": "address"
						},
						{
							"indexed": true,
							"internalType": "address",
							"name": "sender",
							"type": "address"
						}
					],
					"name": "RoleGranted",
					"type": "event"
				},
				{
					"anonymous": false,
					"inputs": [
						{
							"indexed": true,
							"internalType": "bytes32",
							"name": "role",
							"type": "bytes32"
						},
						{
							"indexed": true,
							"internalType": "address",
							"name": "account",
							"type": "address"
						},
						{
							"indexed": true,
							"internalType": "address",
							"name": "sender",
							"type": "address"
						}
					],
					"name": "RoleRevoked",
					"type": "event"
				},
				{
					"anonymous": false,
					"inputs": [
						{
							"indexed": false,
							"internalType": "address",
							"name": "account",
							"type": "address"
						}
					],
					"name": "Unpaused",
					"type": "event"
				},
				{
					"stateMutability": "payable",
					"type": "fallback"
				},
				{
					"inputs": [],
					"name": "DEFAULT_ADMIN_ROLE",
					"outputs": [
						{
							"internalType": "bytes32",
							"name": "",
							"type": "bytes32"
						}
					],
					"stateMutability": "view",
					"type": "function"
				},
				{
					"inputs": [],
					"name": "FEED_MANAGER",
					"outputs": [
						{
							"internalType": "bytes32",
							"name": "",
							"type": "bytes32"
						}
					],
					"stateMutability": "view",
					"type": "function"
				},
				{
					"inputs": [],
					"name": "PAUSER",
					"outputs": [
						{
							"internalType": "bytes32",
							"name": "",
							"type": "bytes32"
						}
					],
					"stateMutability": "view",
					"type": "function"
				},
				{
					"inputs": [
						{
							"internalType": "address",
							"name": "titular",
							"type": "address"
						},
						{
							"internalType": "address",
							"name": "token",
							"type": "address"
						}
					],
					"name": "balanceOf",
					"outputs": [
						{
							"internalType": "uint256",
							"name": "",
							"type": "uint256"
						}
					],
					"stateMutability": "view",
					"type": "function"
				},
				{
					"inputs": [
						{
							"internalType": "address",
							"name": "cuenta",
							"type": "address"
						},
						{
							"internalType": "bytes32",
							"name": "rol",
							"type": "bytes32"
						}
					],
					"name": "darRol",
					"outputs": [],
					"stateMutability": "nonpayable",
					"type": "function"
				},
				{
					"inputs": [],
					"name": "depositarETH",
					"outputs": [],
					"stateMutability": "payable",
					"type": "function"
				},
				{
					"inputs": [
						{
							"internalType": "uint256",
							"name": "_monto",
							"type": "uint256"
						}
					],
					"name": "depositarUSDC",
					"outputs": [],
					"stateMutability": "nonpayable",
					"type": "function"
				},
				{
					"inputs": [],
					"name": "despausarContrato",
					"outputs": [],
					"stateMutability": "nonpayable",
					"type": "function"
				},
				{
					"inputs": [],
					"name": "estadoDelContrato",
					"outputs": [
						{
							"internalType": "bool",
							"name": "pausado",
							"type": "bool"
						},
						{
							"internalType": "uint256",
							"name": "totalContrato",
							"type": "uint256"
						},
						{
							"internalType": "uint256",
							"name": "limite",
							"type": "uint256"
						},
						{
							"internalType": "uint256",
							"name": "umbral",
							"type": "uint256"
						},
						{
							"internalType": "address",
							"name": "feedActual",
							"type": "address"
						}
					],
					"stateMutability": "view",
					"type": "function"
				},
				{
					"inputs": [
						{
							"internalType": "bytes32",
							"name": "role",
							"type": "bytes32"
						}
					],
					"name": "getRoleAdmin",
					"outputs": [
						{
							"internalType": "bytes32",
							"name": "",
							"type": "bytes32"
						}
					],
					"stateMutability": "view",
					"type": "function"
				},
				{
					"inputs": [
						{
							"internalType": "bytes32",
							"name": "role",
							"type": "bytes32"
						},
						{
							"internalType": "address",
							"name": "account",
							"type": "address"
						}
					],
					"name": "grantRole",
					"outputs": [],
					"stateMutability": "nonpayable",
					"type": "function"
				},
				{
					"inputs": [
						{
							"internalType": "bytes32",
							"name": "role",
							"type": "bytes32"
						},
						{
							"internalType": "address",
							"name": "account",
							"type": "address"
						}
					],
					"name": "hasRole",
					"outputs": [
						{
							"internalType": "bool",
							"name": "",
							"type": "bool"
						}
					],
					"stateMutability": "view",
					"type": "function"
				},
				{
					"inputs": [],
					"name": "owner",
					"outputs": [
						{
							"internalType": "address",
							"name": "",
							"type": "address"
						}
					],
					"stateMutability": "view",
					"type": "function"
				},
				{
					"inputs": [],
					"name": "pausarContrato",
					"outputs": [],
					"stateMutability": "nonpayable",
					"type": "function"
				},
				{
					"inputs": [],
					"name": "paused",
					"outputs": [
						{
							"internalType": "bool",
							"name": "",
							"type": "bool"
						}
					],
					"stateMutability": "view",
					"type": "function"
				},
				{
					"inputs": [],
					"name": "renounceOwnership",
					"outputs": [],
					"stateMutability": "nonpayable",
					"type": "function"
				},
				{
					"inputs": [
						{
							"internalType": "bytes32",
							"name": "role",
							"type": "bytes32"
						},
						{
							"internalType": "address",
							"name": "callerConfirmation",
							"type": "address"
						}
					],
					"name": "renounceRole",
					"outputs": [],
					"stateMutability": "nonpayable",
					"type": "function"
				},
				{
					"inputs": [
						{
							"internalType": "uint256",
							"name": "_monto",
							"type": "uint256"
						}
					],
					"name": "retirarETH",
					"outputs": [],
					"stateMutability": "nonpayable",
					"type": "function"
				},
				{
					"inputs": [
						{
							"internalType": "uint256",
							"name": "_monto",
							"type": "uint256"
						}
					],
					"name": "retirarUSDC",
					"outputs": [],
					"stateMutability": "nonpayable",
					"type": "function"
				},
				{
					"inputs": [
						{
							"internalType": "address",
							"name": "cuenta",
							"type": "address"
						},
						{
							"internalType": "bytes32",
							"name": "rol",
							"type": "bytes32"
						}
					],
					"name": "revocarRol",
					"outputs": [],
					"stateMutability": "nonpayable",
					"type": "function"
				},
				{
					"inputs": [
						{
							"internalType": "bytes32",
							"name": "role",
							"type": "bytes32"
						},
						{
							"internalType": "address",
							"name": "account",
							"type": "address"
						}
					],
					"name": "revokeRole",
					"outputs": [],
					"stateMutability": "nonpayable",
					"type": "function"
				},
				{
					"inputs": [],
					"name": "s_feed",
					"outputs": [
						{
							"internalType": "contract AggregatorV3Interface",
							"name": "",
							"type": "address"
						}
					],
					"stateMutability": "view",
					"type": "function"
				},
				{
					"inputs": [
						{
							"internalType": "address",
							"name": "_nuevoFeed",
							"type": "address"
						}
					],
					"name": "setFeeds",
					"outputs": [],
					"stateMutability": "nonpayable",
					"type": "function"
				},
				{
					"inputs": [
						{
							"internalType": "bytes4",
							"name": "interfaceId",
							"type": "bytes4"
						}
					],
					"name": "supportsInterface",
					"outputs": [
						{
							"internalType": "bool",
							"name": "",
							"type": "bool"
						}
					],
					"stateMutability": "view",
					"type": "function"
				},
				{
					"inputs": [
						{
							"internalType": "address",
							"name": "newOwner",
							"type": "address"
						}
					],
					"name": "transferOwnership",
					"outputs": [],
					"stateMutability": "nonpayable",
					"type": "function"
				},
				{
					"inputs": [
						{
							"internalType": "address",
							"name": "_nuevoOwner",
							"type": "address"
						}
					],
					"name": "transferirOwner",
					"outputs": [],
					"stateMutability": "nonpayable",
					"type": "function"
				},
				{
					"inputs": [],
					"name": "verBoveda",
					"outputs": [
						{
							"internalType": "uint256",
							"name": "monto_",
							"type": "uint256"
						}
					],
					"stateMutability": "view",
					"type": "function"
				},
				{
					"inputs": [],
					"name": "verSaldoETH",
					"outputs": [
						{
							"internalType": "uint256",
							"name": "saldo_",
							"type": "uint256"
						}
					],
					"stateMutability": "view",
					"type": "function"
				},
				{
					"inputs": [],
					"name": "verSaldoUSDC",
					"outputs": [
						{
							"internalType": "uint256",
							"name": "saldo_",
							"type": "uint256"
						}
					],
					"stateMutability": "view",
					"type": "function"
				},
				{
					"inputs": [],
					"name": "verTotalContrato",
					"outputs": [
						{
							"internalType": "uint256",
							"name": "",
							"type": "uint256"
						}
					],
					"stateMutability": "view",
					"type": "function"
				},
				{
					"inputs": [],
					"name": "verTotalDepositos",
					"outputs": [
						{
							"internalType": "uint256",
							"name": "",
							"type": "uint256"
						}
					],
					"stateMutability": "view",
					"type": "function"
				},
				{
					"inputs": [],
					"name": "verTotalRetiros",
					"outputs": [
						{
							"internalType": "uint256",
							"name": "",
							"type": "uint256"
						}
					],
					"stateMutability": "view",
					"type": "function"
				},
				{
					"stateMutability": "payable",
					"type": "receive"
				}
			],
			"devdoc": {
				"errors": {
					"AccessControlBadConfirmation()": [
						{
							"details": "The caller of a function is not the expected one. NOTE: Don't confuse with {AccessControlUnauthorizedAccount}."
						}
					],
					"AccessControlUnauthorizedAccount(address,bytes32)": [
						{
							"details": "The `account` is missing a role."
						}
					],
					"EnforcedPause()": [
						{
							"details": "The operation failed because the contract is paused."
						}
					],
					"ExpectedPause()": [
						{
							"details": "The operation failed because the contract is not paused."
						}
					],
					"KipuBank_ExtraccionRechazada(address,uint256)": [
						{
							"params": {
								"monto": "monto a extraer de la boveda",
								"titular": "titular de la cuenta a realizar la extracción"
							}
						}
					],
					"KipuBank_FeedInvalido(address)": [
						{
							"params": {
								"nuevoFeed": "Es el data feed erroneo que quiso ser ingresado"
							}
						}
					],
					"KipuBank_InicializacionInvalida(uint256,uint256)": [
						{
							"params": {
								"limite": "limite del contrato",
								"umbral": "umbral del contrato"
							}
						}
					],
					"KipuBank_LimiteExcedido(uint256)": [
						{
							"params": {
								"monto": "monto que excede el limite a depositar"
							}
						}
					],
					"KipuBank_LimiteInvalido(uint256)": [
						{
							"params": {
								"limite": "limite que es invalido"
							}
						}
					],
					"KipuBank_MontoCero(address)": [
						{
							"params": {
								"titular": "titular que emite una transaccion con valor nulo"
							}
						}
					],
					"KipuBank_NoAutorizado(address)": [
						{
							"params": {
								"sender": "Es la cuenta que quiso acceder a la función"
							}
						}
					],
					"KipuBank_OperacionNoPermitida(address)": [
						{
							"params": {
								"titular": "titular que realizo la operacion no permitida"
							}
						}
					],
					"KipuBank_OraculoComprometido(uint256)": [
						{
							"params": {
								"precio": "Precio que dió el óraculo"
							}
						}
					],
					"KipuBank_PrecioDesactualizado(uint256)": [
						{
							"params": {
								"precio": "Es el precio que quedó desactualizado"
							}
						}
					],
					"KipuBank_SaldoInsuficiente(address,uint256)": [
						{
							"params": {
								"monto": "monto a retirar",
								"titular": "titular con saldo insuficiente"
							}
						}
					],
					"KipuBank_UmbralExcedido(uint256)": [
						{
							"params": {
								"monto": "que excede el umbral establecido"
							}
						}
					],
					"KipuBank_UmbralInvalido(uint256)": [
						{
							"params": {
								"umbral": "umbral que es invalido"
							}
						}
					],
					"OwnableInvalidOwner(address)": [
						{
							"details": "The owner is not a valid owner account. (eg. `address(0)`)"
						}
					],
					"OwnableUnauthorizedAccount(address)": [
						{
							"details": "The caller account is not authorized to perform an operation."
						}
					],
					"SafeERC20FailedOperation(address)": [
						{
							"details": "An operation with an ERC-20 token failed."
						}
					]
				},
				"events": {
					"KipuBank_ContratoDespausado(address,uint256)": {
						"params": {
							"sender": "Es la direccion que despausó el contrato",
							"tiempo": "Es el tiempo en el que fue despausado"
						}
					},
					"KipuBank_ContratoPausado(address,uint256)": {
						"params": {
							"sender": "Es la dirección que pauso el contrato",
							"tiempo": "Es el tiempo en el que fue pausado el contrato"
						}
					},
					"KipuBank_DepositoRealizado(address,uint256)": {
						"params": {
							"monto": "monto que se desea depositar",
							"titular": "titular que realiza el detposito"
						}
					},
					"KipuBank_ExtraccionRealizada(address,uint256)": {
						"params": {
							"monto": "monto que se desea extraer",
							"titular": "titular que desea realizar la extracción"
						}
					},
					"KipuBank_FeedActualizado(address,address)": {
						"params": {
							"antiguoFeed": "Es el antiguo data feed utilizado",
							"nuevoFeed": "Es el nuevo data feed a ser utilizado"
						}
					},
					"KipuBank_OwnerTransferido(address,address)": {
						"params": {
							"ownerNuevo": "Es el nuevo owner del contrato",
							"ownerViejo": "Es el anterior owner del contrato"
						}
					},
					"KipuBank_RolDado(address,bytes32)": {
						"params": {
							"cuenta": "Es la cuenta que recibe el nuevo rol",
							"rol": "Es el rol que se le asigna a la cuenta"
						}
					},
					"KipuBank_RolRevocado(address,bytes32)": {
						"params": {
							"cuenta": "Es la cuenta a la que se revoca el rol",
							"rol": "Es el rol que se elimina de la cuenta"
						}
					},
					"Paused(address)": {
						"details": "Emitted when the pause is triggered by `account`."
					},
					"RoleAdminChanged(bytes32,bytes32,bytes32)": {
						"details": "Emitted when `newAdminRole` is set as ``role``'s admin role, replacing `previousAdminRole` `DEFAULT_ADMIN_ROLE` is the starting admin for all roles, despite {RoleAdminChanged} not being emitted to signal this."
					},
					"RoleGranted(bytes32,address,address)": {
						"details": "Emitted when `account` is granted `role`. `sender` is the account that originated the contract call. This account bears the admin role (for the granted role). Expected in cases where the role was granted using the internal {AccessControl-_grantRole}."
					},
					"RoleRevoked(bytes32,address,address)": {
						"details": "Emitted when `account` is revoked `role`. `sender` is the account that originated the contract call:   - if using `revokeRole`, it is the admin role bearer   - if using `renounceRole`, it is the role bearer (i.e. `account`)"
					},
					"Unpaused(address)": {
						"details": "Emitted when the pause is lifted by `account`."
					}
				},
				"kind": "dev",
				"methods": {
					"balanceOf(address,address)": {
						"params": {
							"titular": "Es el titular de la cuenta",
							"token": "Es el token que se desea consultar"
						},
						"returns": {
							"_0": "Retorna un entero sin signo, que es el saldo correspondiente"
						}
					},
					"constructor": {
						"details": "Se deben generar el limite, umbral y las direcciones del data feed y el token a utilizar al momento de desplegar el contrato",
						"params": {
							"_feed": "Direccion del data feed a utlizar",
							"_limite": "Limite global que se permite por transaccion",
							"_tokenERC20": "Direccion del token ERC20 a utilizar",
							"_umbral": "Umbral de limite de retiros"
						}
					},
					"darRol(address,bytes32)": {
						"params": {
							"cuenta": "Es la cuenta que recibe el rol",
							"rol": "Es el rol dado a la cuenta"
						}
					},
					"depositarETH()": {
						"details": "Es payable y usa el modificador de verificarDepositos"
					},
					"depositarUSDC(uint256)": {
						"details": "Es payable y usa el modificador de verificarDepositosSe utiliza la interfaz SafeIERC20 para realizar la transferencia de token ERC20No se marca como payable ya que es un token ERC20 y no EtherNecesitamos la aprobación del dueño de los USDC para depositar"
					},
					"despausarContrato()": {
						"details": "Solo pueden acceder a ella el owner el aquellos que tengan rol PAUSER"
					},
					"getRoleAdmin(bytes32)": {
						"details": "Returns the admin role that controls `role`. See {grantRole} and {revokeRole}. To change a role's admin, use {_setRoleAdmin}."
					},
					"grantRole(bytes32,address)": {
						"details": "Grants `role` to `account`. If `account` had not been already granted `role`, emits a {RoleGranted} event. Requirements: - the caller must have ``role``'s admin role. May emit a {RoleGranted} event."
					},
					"hasRole(bytes32,address)": {
						"details": "Returns `true` if `account` has been granted `role`."
					},
					"owner()": {
						"details": "Returns the address of the current owner."
					},
					"pausarContrato()": {
						"details": "Solo pueden acceder a ella el owner el aquellos que tengan rol PAUSER"
					},
					"paused()": {
						"details": "Returns true if the contract is paused, and false otherwise."
					},
					"renounceOwnership()": {
						"details": "Leaves the contract without owner. It will not be possible to call `onlyOwner` functions. Can only be called by the current owner. NOTE: Renouncing ownership will leave the contract without an owner, thereby disabling any functionality that is only available to the owner."
					},
					"renounceRole(bytes32,address)": {
						"details": "Revokes `role` from the calling account. Roles are often managed via {grantRole} and {revokeRole}: this function's purpose is to provide a mechanism for accounts to lose their privileges if they are compromised (such as when a trusted device is misplaced). If the calling account had been revoked `role`, emits a {RoleRevoked} event. Requirements: - the caller must be `callerConfirmation`. May emit a {RoleRevoked} event."
					},
					"retirarETH(uint256)": {
						"params": {
							"_monto": "es el monto a retirar de la boveda"
						}
					},
					"retirarUSDC(uint256)": {
						"params": {
							"_monto": "es el monto a retirar de la boveda"
						}
					},
					"revocarRol(address,bytes32)": {
						"params": {
							"cuenta": "Es la cuenta a la que se le revoca el rol",
							"rol": "Es el rol revocado de la cuenta"
						}
					},
					"revokeRole(bytes32,address)": {
						"details": "Revokes `role` from `account`. If `account` had been granted `role`, emits a {RoleRevoked} event. Requirements: - the caller must have ``role``'s admin role. May emit a {RoleRevoked} event."
					},
					"setFeeds(address)": {
						"details": "Solo pueden acceder a ella el owner o los que tengan el rol FEED_MANAGER",
						"params": {
							"_nuevoFeed": "Será la dirección del nuevo data feed del contrato"
						}
					},
					"transferOwnership(address)": {
						"details": "Transfers ownership of the contract to a new account (`newOwner`). Can only be called by the current owner."
					},
					"transferirOwner(address)": {
						"details": "El modificador de onlyOwner es necesario para seguridad",
						"params": {
							"_nuevoOwner": "Será la dirección del nuevo propietario del contrato"
						}
					},
					"verBoveda()": {
						"returns": {
							"monto_": "devuelve el saldo depositado total en USD depositado por cada titular"
						}
					},
					"verSaldoETH()": {
						"returns": {
							"saldo_": "Retornal el saldo en ETH"
						}
					},
					"verSaldoUSDC()": {
						"returns": {
							"saldo_": "Retorna el saldo en USDC"
						}
					},
					"verTotalContrato()": {
						"returns": {
							"_0": "Devuelve el saldo del contrato en USD"
						}
					},
					"verTotalDepositos()": {
						"returns": {
							"_0": "Devuelve la cantidad de depositos"
						}
					},
					"verTotalRetiros()": {
						"returns": {
							"_0": "Devuelve la cantidad de retiros"
						}
					}
				},
				"stateVariables": {
					"DECIMAL_FACTOR": {
						"details": "Se hace la suma de los decimales de ethereum y de los decimales de la conversión de chainlink para restarles los decimales de USDC, nos da la base igualitaria"
					},
					"HEARTBEAT": {
						"details": "Por convención se establece en 3600"
					},
					"_cuentasMultiToken": {
						"details": "En el primer mapping tenemos la direcciones del token, en el segundo mapping tenemos las direcciones de los titulares"
					},
					"_totalContrato": {
						"details": "El total del contrato es en USD"
					},
					"i_bankCap": {
						"details": "Tener en cuenta que el limite global será en USD"
					},
					"i_usdc": {
						"details": "Es especifico para el token USDC"
					},
					"s_feed": {
						"details": "Utilizamos el data feed de Chainlink"
					}
				},
				"version": 1
			},
			"evm": {
				"assembly": "    /* \"contracts/KipuBank.sol\":872:21050  contract KipuBank is ReentrancyGuard, Ownable, Pausable, AccessControl {... */\n  mstore(0x40, 0xe0)\n    /* \"contracts/KipuBank.sol\":2333:2334  0 */\n  0x00\n    /* \"contracts/KipuBank.sol\":2307:2334  uint private _depositos = 0 */\n  0x04\n  sstore\n    /* \"contracts/KipuBank.sol\":2414:2415  0 */\n  0x00\n    /* \"contracts/KipuBank.sol\":2390:2415  uint private _retiros = 0 */\n  0x05\n  sstore\n    /* \"contracts/KipuBank.sol\":2554:2555  0 */\n  0x00\n    /* \"contracts/KipuBank.sol\":2524:2555  uint private _totalContrato = 0 */\n  0x06\n  sstore\n    /* \"contracts/KipuBank.sol\":7712:8523  constructor(... */\n  callvalue\n  dup1\n  iszero\n  tag_1\n  jumpi\n  revert(0x00, 0x00)\ntag_1:\n  pop\n  mload(0x40)\n  sub(codesize, bytecodeSize)\n  dup1\n  bytecodeSize\n  dup4\n  codecopy\n  dup2\n  dup2\n  add\n  0x40\n  mstore\n  dup2\n  add\n  swap1\n  tag_2\n  swap2\n  swap1\n  tag_3\n  jump\t// in\ntag_2:\n    /* \"contracts/KipuBank.sol\":7866:7872  _owner */\n  dup3\n    /* \"@openzeppelin/contracts/security/ReentrancyGuard.sol\":1716:1717  1 */\n  0x01\n    /* \"@openzeppelin/contracts/security/ReentrancyGuard.sol\":1821:1828  _status */\n  0x00\n    /* \"@openzeppelin/contracts/security/ReentrancyGuard.sol\":1821:1843  _status = _NOT_ENTERED */\n  dup2\n  swap1\n  sstore\n  pop\n    /* \"@openzeppelin/contracts/access/Ownable.sol\":1297:1298  0 */\n  0x00\n    /* \"@openzeppelin/contracts/access/Ownable.sol\":1273:1299  initialOwner == address(0) */\n  0xffffffffffffffffffffffffffffffffffffffff\n  and\n    /* \"@openzeppelin/contracts/access/Ownable.sol\":1273:1285  initialOwner */\n  dup2\n    /* \"@openzeppelin/contracts/access/Ownable.sol\":1273:1299  initialOwner == address(0) */\n  0xffffffffffffffffffffffffffffffffffffffff\n  and\n  sub\n    /* \"@openzeppelin/contracts/access/Ownable.sol\":1269:1364  if (initialOwner == address(0)) {... */\n  tag_9\n  jumpi\n    /* \"@openzeppelin/contracts/access/Ownable.sol\":1350:1351  0 */\n  0x00\n    /* \"@openzeppelin/contracts/access/Ownable.sol\":1322:1353  OwnableInvalidOwner(address(0)) */\n  mload(0x40)\n  0x1e4fbdf700000000000000000000000000000000000000000000000000000000\n  dup2\n  mstore\n  0x04\n  add\n  tag_10\n  swap2\n  swap1\n  tag_11\n  jump\t// in\ntag_10:\n  mload(0x40)\n  dup1\n  swap2\n  sub\n  swap1\n  revert\n    /* \"@openzeppelin/contracts/access/Ownable.sol\":1269:1364  if (initialOwner == address(0)) {... */\ntag_9:\n    /* \"@openzeppelin/contracts/access/Ownable.sol\":1373:1405  _transferOwnership(initialOwner) */\n  tag_12\n    /* \"@openzeppelin/contracts/access/Ownable.sol\":1392:1404  initialOwner */\n  dup2\n    /* \"@openzeppelin/contracts/access/Ownable.sol\":1373:1391  _transferOwnership */\n  shl(0x20, tag_13)\n    /* \"@openzeppelin/contracts/access/Ownable.sol\":1373:1405  _transferOwnership(initialOwner) */\n  0x20\n  shr\n  jump\t// in\ntag_12:\n    /* \"@openzeppelin/contracts/access/Ownable.sol\":1225:1412  constructor(address initialOwner) {... */\n  pop\n    /* \"contracts/KipuBank.sol\":7898:7899  0 */\n  0x00\n    /* \"contracts/KipuBank.sol\":7887:7894  _limite */\n  dup6\n    /* \"contracts/KipuBank.sol\":7887:7899  _limite == 0 */\n  sub\n    /* \"contracts/KipuBank.sol\":7884:7940  if(_limite == 0) revert KipuBank_LimiteInvalido(_limite) */\n  tag_15\n  jumpi\n    /* \"contracts/KipuBank.sol\":7932:7939  _limite */\n  dup5\n    /* \"contracts/KipuBank.sol\":7908:7940  KipuBank_LimiteInvalido(_limite) */\n  mload(0x40)\n  0xf1fdfd2b00000000000000000000000000000000000000000000000000000000\n  dup2\n  mstore\n  0x04\n  add\n  tag_16\n  swap2\n  swap1\n  tag_17\n  jump\t// in\ntag_16:\n  mload(0x40)\n  dup1\n  swap2\n  sub\n  swap1\n  revert\n    /* \"contracts/KipuBank.sol\":7884:7940  if(_limite == 0) revert KipuBank_LimiteInvalido(_limite) */\ntag_15:\n    /* \"contracts/KipuBank.sol\":7964:7965  0 */\n  0x00\n    /* \"contracts/KipuBank.sol\":7953:7960  _umbral */\n  dup5\n    /* \"contracts/KipuBank.sol\":7953:7965  _umbral == 0 */\n  sub\n    /* \"contracts/KipuBank.sol\":7950:8006  if(_umbral == 0) revert KipuBank_UmbralInvalido(_umbral) */\n  tag_18\n  jumpi\n    /* \"contracts/KipuBank.sol\":7998:8005  _umbral */\n  dup4\n    /* \"contracts/KipuBank.sol\":7974:8006  KipuBank_UmbralInvalido(_umbral) */\n  mload(0x40)\n  0x5052fe8e00000000000000000000000000000000000000000000000000000000\n  dup2\n  mstore\n  0x04\n  add\n  tag_19\n  swap2\n  swap1\n  tag_17\n  jump\t// in\ntag_19:\n  mload(0x40)\n  dup1\n  swap2\n  sub\n  swap1\n  revert\n    /* \"contracts/KipuBank.sol\":7950:8006  if(_umbral == 0) revert KipuBank_UmbralInvalido(_umbral) */\ntag_18:\n    /* \"contracts/KipuBank.sol\":8029:8036  _limite */\n  dup5\n    /* \"contracts/KipuBank.sol\":8019:8026  _umbral */\n  dup5\n    /* \"contracts/KipuBank.sol\":8019:8036  _umbral > _limite */\n  gt\n    /* \"contracts/KipuBank.sol\":8016:8094  if(_umbral > _limite) revert KipuBank_InicializacionInvalida(_limite, _umbral) */\n  iszero\n  tag_20\n  jumpi\n    /* \"contracts/KipuBank.sol\":8077:8084  _limite */\n  dup5\n    /* \"contracts/KipuBank.sol\":8086:8093  _umbral */\n  dup5\n    /* \"contracts/KipuBank.sol\":8045:8094  KipuBank_InicializacionInvalida(_limite, _umbral) */\n  mload(0x40)\n  0x3122626300000000000000000000000000000000000000000000000000000000\n  dup2\n  mstore\n  0x04\n  add\n  tag_21\n  swap3\n  swap2\n  swap1\n  tag_22\n  jump\t// in\ntag_21:\n  mload(0x40)\n  dup1\n  swap2\n  sub\n  swap1\n  revert\n    /* \"contracts/KipuBank.sol\":8016:8094  if(_umbral > _limite) revert KipuBank_InicializacionInvalida(_limite, _umbral) */\ntag_20:\n    /* \"contracts/KipuBank.sol\":8124:8125  0 */\n  0x00\n    /* \"contracts/KipuBank.sol\":8107:8126  _feed == address(0) */\n  0xffffffffffffffffffffffffffffffffffffffff\n  and\n    /* \"contracts/KipuBank.sol\":8107:8112  _feed */\n  dup3\n    /* \"contracts/KipuBank.sol\":8107:8126  _feed == address(0) */\n  0xffffffffffffffffffffffffffffffffffffffff\n  and\n  sub\n    /* \"contracts/KipuBank.sol\":8104:8163  if(_feed == address(0)) revert KipuBank_DireccionInvalida() */\n  tag_23\n  jumpi\n    /* \"contracts/KipuBank.sol\":8135:8163  KipuBank_DireccionInvalida() */\n  mload(0x40)\n  0x463858d600000000000000000000000000000000000000000000000000000000\n  dup2\n  mstore\n  0x04\n  add\n  mload(0x40)\n  dup1\n  swap2\n  sub\n  swap1\n  revert\n    /* \"contracts/KipuBank.sol\":8104:8163  if(_feed == address(0)) revert KipuBank_DireccionInvalida() */\ntag_23:\n    /* \"contracts/KipuBank.sol\":8199:8200  0 */\n  0x00\n    /* \"contracts/KipuBank.sol\":8176:8201  _tokenERC20 == address(0) */\n  0xffffffffffffffffffffffffffffffffffffffff\n  and\n    /* \"contracts/KipuBank.sol\":8176:8187  _tokenERC20 */\n  dup2\n    /* \"contracts/KipuBank.sol\":8176:8201  _tokenERC20 == address(0) */\n  0xffffffffffffffffffffffffffffffffffffffff\n  and\n  sub\n    /* \"contracts/KipuBank.sol\":8173:8238  if(_tokenERC20 == address(0)) revert KipuBank_DireccionInvalida() */\n  tag_24\n  jumpi\n    /* \"contracts/KipuBank.sol\":8210:8238  KipuBank_DireccionInvalida() */\n  mload(0x40)\n  0x463858d600000000000000000000000000000000000000000000000000000000\n  dup2\n  mstore\n  0x04\n  add\n  mload(0x40)\n  dup1\n  swap2\n  sub\n  swap1\n  revert\n    /* \"contracts/KipuBank.sol\":8173:8238  if(_tokenERC20 == address(0)) revert KipuBank_DireccionInvalida() */\ntag_24:\n    /* \"contracts/KipuBank.sol\":8257:8295  _grantRole(DEFAULT_ADMIN_ROLE, _owner) */\n  tag_25\n    /* \"@openzeppelin/contracts/access/AccessControl.sol\":2241:2245  0x00 */\n  0x00\n    /* \"contracts/KipuBank.sol\":8268:8286  DEFAULT_ADMIN_ROLE */\n  0x00\n  shl\n    /* \"contracts/KipuBank.sol\":8288:8294  _owner */\n  dup5\n    /* \"contracts/KipuBank.sol\":8257:8267  _grantRole */\n  shl(0x20, tag_26)\n    /* \"contracts/KipuBank.sol\":8257:8295  _grantRole(DEFAULT_ADMIN_ROLE, _owner) */\n  0x20\n  shr\n  jump\t// in\ntag_25:\n  pop\n    /* \"contracts/KipuBank.sol\":8305:8331  _grantRole(PAUSER, _owner) */\n  tag_27\n    /* \"contracts/KipuBank.sol\":1028:1047  keccak256(\"PAUSER\") */\n  0x539440820030c4994db4e31b6b800deafd503688728f932addfe7a410515c14c\n    /* \"contracts/KipuBank.sol\":8324:8330  _owner */\n  dup5\n    /* \"contracts/KipuBank.sol\":8305:8315  _grantRole */\n  shl(0x20, tag_26)\n    /* \"contracts/KipuBank.sol\":8305:8331  _grantRole(PAUSER, _owner) */\n  0x20\n  shr\n  jump\t// in\ntag_27:\n  pop\n    /* \"contracts/KipuBank.sol\":8341:8373  _grantRole(FEED_MANAGER, _owner) */\n  tag_28\n    /* \"contracts/KipuBank.sol\":1142:1167  keccak256(\"FEED_MANAGER\") */\n  0x9bbb3ee3bdfbe971682b08854a620ca4bf696f8e0c269e5c5b129a18e64d29df\n    /* \"contracts/KipuBank.sol\":8366:8372  _owner */\n  dup5\n    /* \"contracts/KipuBank.sol\":8341:8351  _grantRole */\n  shl(0x20, tag_26)\n    /* \"contracts/KipuBank.sol\":8341:8373  _grantRole(FEED_MANAGER, _owner) */\n  0x20\n  shr\n  jump\t// in\ntag_28:\n  pop\n    /* \"contracts/KipuBank.sol\":8400:8411  _tokenERC20 */\n  dup1\n    /* \"contracts/KipuBank.sol\":8384:8412  i_usdc = IERC20(_tokenERC20) */\n  0xffffffffffffffffffffffffffffffffffffffff\n  and\n  0x80\n  dup2\n  0xffffffffffffffffffffffffffffffffffffffff\n  and\n  dup2\n  mstore\n  pop\n  pop\n    /* \"contracts/KipuBank.sol\":8453:8458  _feed */\n  dup2\n    /* \"contracts/KipuBank.sol\":8422:8428  s_feed */\n  0x03\n  0x00\n    /* \"contracts/KipuBank.sol\":8422:8459  s_feed = AggregatorV3Interface(_feed) */\n  0x0100\n  exp\n  dup2\n  sload\n  dup2\n  0xffffffffffffffffffffffffffffffffffffffff\n  mul\n  not\n  and\n  swap1\n  dup4\n  0xffffffffffffffffffffffffffffffffffffffff\n  and\n  mul\n  or\n  swap1\n  sstore\n  pop\n    /* \"contracts/KipuBank.sol\":8481:8488  _limite */\n  dup5\n    /* \"contracts/KipuBank.sol\":8469:8488  i_bankCap = _limite */\n  0xc0\n  dup2\n  dup2\n  mstore\n  pop\n  pop\n    /* \"contracts/KipuBank.sol\":8509:8516  _umbral */\n  dup4\n    /* \"contracts/KipuBank.sol\":8498:8516  i_umbral = _umbral */\n  0xa0\n  dup2\n  dup2\n  mstore\n  pop\n  pop\n    /* \"contracts/KipuBank.sol\":7712:8523  constructor(... */\n  pop\n  pop\n  pop\n  pop\n  pop\n    /* \"contracts/KipuBank.sol\":872:21050  contract KipuBank is ReentrancyGuard, Ownable, Pausable, AccessControl {... */\n  jump(tag_29)\n    /* \"@openzeppelin/contracts/access/Ownable.sol\":2912:3099  function _transferOwnership(address newOwner) internal virtual {... */\ntag_13:\n    /* \"@openzeppelin/contracts/access/Ownable.sol\":2985:3001  address oldOwner */\n  0x00\n    /* \"@openzeppelin/contracts/access/Ownable.sol\":3004:3010  _owner */\n  0x01\n  0x00\n  swap1\n  sload\n  swap1\n  0x0100\n  exp\n  swap1\n  div\n  0xffffffffffffffffffffffffffffffffffffffff\n  and\n    /* \"@openzeppelin/contracts/access/Ownable.sol\":2985:3010  address oldOwner = _owner */\n  swap1\n  pop\n    /* \"@openzeppelin/contracts/access/Ownable.sol\":3029:3037  newOwner */\n  dup2\n    /* \"@openzeppelin/contracts/access/Ownable.sol\":3020:3026  _owner */\n  0x01\n  0x00\n    /* \"@openzeppelin/contracts/access/Ownable.sol\":3020:3037  _owner = newOwner */\n  0x0100\n  exp\n  dup2\n  sload\n  dup2\n  0xffffffffffffffffffffffffffffffffffffffff\n  mul\n  not\n  and\n  swap1\n  dup4\n  0xffffffffffffffffffffffffffffffffffffffff\n  and\n  mul\n  or\n  swap1\n  sstore\n  pop\n    /* \"@openzeppelin/contracts/access/Ownable.sol\":3083:3091  newOwner */\n  dup2\n    /* \"@openzeppelin/contracts/access/Ownable.sol\":3052:3092  OwnershipTransferred(oldOwner, newOwner) */\n  0xffffffffffffffffffffffffffffffffffffffff\n  and\n    /* \"@openzeppelin/contracts/access/Ownable.sol\":3073:3081  oldOwner */\n  dup2\n    /* \"@openzeppelin/contracts/access/Ownable.sol\":3052:3092  OwnershipTransferred(oldOwner, newOwner) */\n  0xffffffffffffffffffffffffffffffffffffffff\n  and\n  0x8be0079c531659141344cd1fd0a4f28419497f9722a3daafe3b4186f6b6457e0\n  mload(0x40)\n  mload(0x40)\n  dup1\n  swap2\n  sub\n  swap1\n  log3\n    /* \"@openzeppelin/contracts/access/Ownable.sol\":2975:3099  {... */\n  pop\n    /* \"@openzeppelin/contracts/access/Ownable.sol\":2912:3099  function _transferOwnership(address newOwner) internal virtual {... */\n  pop\n  jump\t// out\n    /* \"@openzeppelin/contracts/access/AccessControl.sol\":6155:6471  function _grantRole(bytes32 role, address account) internal virtual returns (bool) {... */\ntag_26:\n    /* \"@openzeppelin/contracts/access/AccessControl.sol\":6232:6236  bool */\n  0x00\n    /* \"@openzeppelin/contracts/access/AccessControl.sol\":6253:6275  hasRole(role, account) */\n  tag_32\n    /* \"@openzeppelin/contracts/access/AccessControl.sol\":6261:6265  role */\n  dup4\n    /* \"@openzeppelin/contracts/access/AccessControl.sol\":6267:6274  account */\n  dup4\n    /* \"@openzeppelin/contracts/access/AccessControl.sol\":6253:6260  hasRole */\n  shl(0x20, tag_33)\n    /* \"@openzeppelin/contracts/access/AccessControl.sol\":6253:6275  hasRole(role, account) */\n  0x20\n  shr\n  jump\t// in\ntag_32:\n    /* \"@openzeppelin/contracts/access/AccessControl.sol\":6248:6465  if (!hasRole(role, account)) {... */\n  tag_34\n  jumpi\n    /* \"@openzeppelin/contracts/access/AccessControl.sol\":6323:6327  true */\n  0x01\n    /* \"@openzeppelin/contracts/access/AccessControl.sol\":6291:6297  _roles */\n  0x02\n    /* \"@openzeppelin/contracts/access/AccessControl.sol\":6291:6303  _roles[role] */\n  0x00\n    /* \"@openzeppelin/contracts/access/AccessControl.sol\":6298:6302  role */\n  dup6\n    /* \"@openzeppelin/contracts/access/AccessControl.sol\":6291:6303  _roles[role] */\n  dup2\n  mstore\n  0x20\n  add\n  swap1\n  dup2\n  mstore\n  0x20\n  add\n  0x00\n  keccak256\n    /* \"@openzeppelin/contracts/access/AccessControl.sol\":6291:6311  _roles[role].hasRole */\n  0x00\n  add\n    /* \"@openzeppelin/contracts/access/AccessControl.sol\":6291:6320  _roles[role].hasRole[account] */\n  0x00\n    /* \"@openzeppelin/contracts/access/AccessControl.sol\":6312:6319  account */\n  dup5\n    /* \"@openzeppelin/contracts/access/AccessControl.sol\":6291:6320  _roles[role].hasRole[account] */\n  0xffffffffffffffffffffffffffffffffffffffff\n  and\n  0xffffffffffffffffffffffffffffffffffffffff\n  and\n  dup2\n  mstore\n  0x20\n  add\n  swap1\n  dup2\n  mstore\n  0x20\n  add\n  0x00\n  keccak256\n  0x00\n    /* \"@openzeppelin/contracts/access/AccessControl.sol\":6291:6327  _roles[role].hasRole[account] = true */\n  0x0100\n  exp\n  dup2\n  sload\n  dup2\n  0xff\n  mul\n  not\n  and\n  swap1\n  dup4\n  iszero\n  iszero\n  mul\n  or\n  swap1\n  sstore\n  pop\n    /* \"@openzeppelin/contracts/access/AccessControl.sol\":6373:6385  _msgSender() */\n  tag_35\n    /* \"@openzeppelin/contracts/access/AccessControl.sol\":6373:6383  _msgSender */\n  shl(0x20, tag_36)\n    /* \"@openzeppelin/contracts/access/AccessControl.sol\":6373:6385  _msgSender() */\n  0x20\n  shr\n  jump\t// in\ntag_35:\n    /* \"@openzeppelin/contracts/access/AccessControl.sol\":6346:6386  RoleGranted(role, account, _msgSender()) */\n  0xffffffffffffffffffffffffffffffffffffffff\n  and\n    /* \"@openzeppelin/contracts/access/AccessControl.sol\":6364:6371  account */\n  dup3\n    /* \"@openzeppelin/contracts/access/AccessControl.sol\":6346:6386  RoleGranted(role, account, _msgSender()) */\n  0xffffffffffffffffffffffffffffffffffffffff\n  and\n    /* \"@openzeppelin/contracts/access/AccessControl.sol\":6358:6362  role */\n  dup5\n    /* \"@openzeppelin/contracts/access/AccessControl.sol\":6346:6386  RoleGranted(role, account, _msgSender()) */\n  0x2f8788117e7eff1d82e926ec794901d17c78024a50270940304540a733656f0d\n  mload(0x40)\n  mload(0x40)\n  dup1\n  swap2\n  sub\n  swap1\n  log4\n    /* \"@openzeppelin/contracts/access/AccessControl.sol\":6407:6411  true */\n  0x01\n    /* \"@openzeppelin/contracts/access/AccessControl.sol\":6400:6411  return true */\n  swap1\n  pop\n  jump(tag_31)\n    /* \"@openzeppelin/contracts/access/AccessControl.sol\":6248:6465  if (!hasRole(role, account)) {... */\ntag_34:\n    /* \"@openzeppelin/contracts/access/AccessControl.sol\":6449:6454  false */\n  0x00\n    /* \"@openzeppelin/contracts/access/AccessControl.sol\":6442:6454  return false */\n  swap1\n  pop\n    /* \"@openzeppelin/contracts/access/AccessControl.sol\":6155:6471  function _grantRole(bytes32 role, address account) internal virtual returns (bool) {... */\ntag_31:\n  swap3\n  swap2\n  pop\n  pop\n  jump\t// out\n    /* \"@openzeppelin/contracts/access/AccessControl.sol\":2830:2966  function hasRole(bytes32 role, address account) public view virtual returns (bool) {... */\ntag_33:\n    /* \"@openzeppelin/contracts/access/AccessControl.sol\":2907:2911  bool */\n  0x00\n    /* \"@openzeppelin/contracts/access/AccessControl.sol\":2930:2936  _roles */\n  0x02\n    /* \"@openzeppelin/contracts/access/AccessControl.sol\":2930:2942  _roles[role] */\n  0x00\n    /* \"@openzeppelin/contracts/access/AccessControl.sol\":2937:2941  role */\n  dup5\n    /* \"@openzeppelin/contracts/access/AccessControl.sol\":2930:2942  _roles[role] */\n  dup2\n  mstore\n  0x20\n  add\n  swap1\n  dup2\n  mstore\n  0x20\n  add\n  0x00\n  keccak256\n    /* \"@openzeppelin/contracts/access/AccessControl.sol\":2930:2950  _roles[role].hasRole */\n  0x00\n  add\n    /* \"@openzeppelin/contracts/access/AccessControl.sol\":2930:2959  _roles[role].hasRole[account] */\n  0x00\n    /* \"@openzeppelin/contracts/access/AccessControl.sol\":2951:2958  account */\n  dup4\n    /* \"@openzeppelin/contracts/access/AccessControl.sol\":2930:2959  _roles[role].hasRole[account] */\n  0xffffffffffffffffffffffffffffffffffffffff\n  and\n  0xffffffffffffffffffffffffffffffffffffffff\n  and\n  dup2\n  mstore\n  0x20\n  add\n  swap1\n  dup2\n  mstore\n  0x20\n  add\n  0x00\n  keccak256\n  0x00\n  swap1\n  sload\n  swap1\n  0x0100\n  exp\n  swap1\n  div\n  0xff\n  and\n    /* \"@openzeppelin/contracts/access/AccessControl.sol\":2923:2959  return _roles[role].hasRole[account] */\n  swap1\n  pop\n    /* \"@openzeppelin/contracts/access/AccessControl.sol\":2830:2966  function hasRole(bytes32 role, address account) public view virtual returns (bool) {... */\n  swap3\n  swap2\n  pop\n  pop\n  jump\t// out\n    /* \"@openzeppelin/contracts/utils/Context.sol\":656:752  function _msgSender() internal view virtual returns (address) {... */\ntag_36:\n    /* \"@openzeppelin/contracts/utils/Context.sol\":709:716  address */\n  0x00\n    /* \"@openzeppelin/contracts/utils/Context.sol\":735:745  msg.sender */\n  caller\n    /* \"@openzeppelin/contracts/utils/Context.sol\":728:745  return msg.sender */\n  swap1\n  pop\n    /* \"@openzeppelin/contracts/utils/Context.sol\":656:752  function _msgSender() internal view virtual returns (address) {... */\n  swap1\n  jump\t// out\n    /* \"#utility.yul\":88:205   */\ntag_41:\n    /* \"#utility.yul\":197:198   */\n  0x00\n    /* \"#utility.yul\":194:195   */\n  0x00\n    /* \"#utility.yul\":187:199   */\n  revert\n    /* \"#utility.yul\":334:411   */\ntag_43:\n    /* \"#utility.yul\":371:378   */\n  0x00\n    /* \"#utility.yul\":400:405   */\n  dup2\n    /* \"#utility.yul\":389:405   */\n  swap1\n  pop\n    /* \"#utility.yul\":334:411   */\n  swap2\n  swap1\n  pop\n  jump\t// out\n    /* \"#utility.yul\":417:539   */\ntag_44:\n    /* \"#utility.yul\":490:514   */\n  tag_58\n    /* \"#utility.yul\":508:513   */\n  dup2\n    /* \"#utility.yul\":490:514   */\n  tag_43\n  jump\t// in\ntag_58:\n    /* \"#utility.yul\":483:488   */\n  dup2\n    /* \"#utility.yul\":480:515   */\n  eq\n    /* \"#utility.yul\":470:533   */\n  tag_59\n  jumpi\n    /* \"#utility.yul\":529:530   */\n  0x00\n    /* \"#utility.yul\":526:527   */\n  0x00\n    /* \"#utility.yul\":519:531   */\n  revert\n    /* \"#utility.yul\":470:533   */\ntag_59:\n    /* \"#utility.yul\":417:539   */\n  pop\n  jump\t// out\n    /* \"#utility.yul\":545:688   */\ntag_45:\n    /* \"#utility.yul\":602:607   */\n  0x00\n    /* \"#utility.yul\":633:639   */\n  dup2\n    /* \"#utility.yul\":627:640   */\n  mload\n    /* \"#utility.yul\":618:640   */\n  swap1\n  pop\n    /* \"#utility.yul\":649:682   */\n  tag_61\n    /* \"#utility.yul\":676:681   */\n  dup2\n    /* \"#utility.yul\":649:682   */\n  tag_44\n  jump\t// in\ntag_61:\n    /* \"#utility.yul\":545:688   */\n  swap3\n  swap2\n  pop\n  pop\n  jump\t// out\n    /* \"#utility.yul\":694:820   */\ntag_46:\n    /* \"#utility.yul\":731:738   */\n  0x00\n    /* \"#utility.yul\":771:813   */\n  0xffffffffffffffffffffffffffffffffffffffff\n    /* \"#utility.yul\":764:769   */\n  dup3\n    /* \"#utility.yul\":760:814   */\n  and\n    /* \"#utility.yul\":749:814   */\n  swap1\n  pop\n    /* \"#utility.yul\":694:820   */\n  swap2\n  swap1\n  pop\n  jump\t// out\n    /* \"#utility.yul\":826:922   */\ntag_47:\n    /* \"#utility.yul\":863:870   */\n  0x00\n    /* \"#utility.yul\":892:916   */\n  tag_64\n    /* \"#utility.yul\":910:915   */\n  dup3\n    /* \"#utility.yul\":892:916   */\n  tag_46\n  jump\t// in\ntag_64:\n    /* \"#utility.yul\":881:916   */\n  swap1\n  pop\n    /* \"#utility.yul\":826:922   */\n  swap2\n  swap1\n  pop\n  jump\t// out\n    /* \"#utility.yul\":928:1050   */\ntag_48:\n    /* \"#utility.yul\":1001:1025   */\n  tag_66\n    /* \"#utility.yul\":1019:1024   */\n  dup2\n    /* \"#utility.yul\":1001:1025   */\n  tag_47\n  jump\t// in\ntag_66:\n    /* \"#utility.yul\":994:999   */\n  dup2\n    /* \"#utility.yul\":991:1026   */\n  eq\n    /* \"#utility.yul\":981:1044   */\n  tag_67\n  jumpi\n    /* \"#utility.yul\":1040:1041   */\n  0x00\n    /* \"#utility.yul\":1037:1038   */\n  0x00\n    /* \"#utility.yul\":1030:1042   */\n  revert\n    /* \"#utility.yul\":981:1044   */\ntag_67:\n    /* \"#utility.yul\":928:1050   */\n  pop\n  jump\t// out\n    /* \"#utility.yul\":1056:1199   */\ntag_49:\n    /* \"#utility.yul\":1113:1118   */\n  0x00\n    /* \"#utility.yul\":1144:1150   */\n  dup2\n    /* \"#utility.yul\":1138:1151   */\n  mload\n    /* \"#utility.yul\":1129:1151   */\n  swap1\n  pop\n    /* \"#utility.yul\":1160:1193   */\n  tag_69\n    /* \"#utility.yul\":1187:1192   */\n  dup2\n    /* \"#utility.yul\":1160:1193   */\n  tag_48\n  jump\t// in\ntag_69:\n    /* \"#utility.yul\":1056:1199   */\n  swap3\n  swap2\n  pop\n  pop\n  jump\t// out\n    /* \"#utility.yul\":1205:2182   */\ntag_3:\n    /* \"#utility.yul\":1311:1317   */\n  0x00\n    /* \"#utility.yul\":1319:1325   */\n  0x00\n    /* \"#utility.yul\":1327:1333   */\n  0x00\n    /* \"#utility.yul\":1335:1341   */\n  0x00\n    /* \"#utility.yul\":1343:1349   */\n  0x00\n    /* \"#utility.yul\":1392:1395   */\n  0xa0\n    /* \"#utility.yul\":1380:1389   */\n  dup7\n    /* \"#utility.yul\":1371:1378   */\n  dup9\n    /* \"#utility.yul\":1367:1390   */\n  sub\n    /* \"#utility.yul\":1363:1396   */\n  slt\n    /* \"#utility.yul\":1360:1480   */\n  iszero\n  tag_71\n  jumpi\n    /* \"#utility.yul\":1399:1478   */\n  tag_72\n  tag_41\n  jump\t// in\ntag_72:\n    /* \"#utility.yul\":1360:1480   */\ntag_71:\n    /* \"#utility.yul\":1519:1520   */\n  0x00\n    /* \"#utility.yul\":1544:1608   */\n  tag_73\n    /* \"#utility.yul\":1600:1607   */\n  dup9\n    /* \"#utility.yul\":1591:1597   */\n  dup3\n    /* \"#utility.yul\":1580:1589   */\n  dup10\n    /* \"#utility.yul\":1576:1598   */\n  add\n    /* \"#utility.yul\":1544:1608   */\n  tag_45\n  jump\t// in\ntag_73:\n    /* \"#utility.yul\":1534:1608   */\n  swap6\n  pop\n    /* \"#utility.yul\":1490:1618   */\n  pop\n    /* \"#utility.yul\":1657:1659   */\n  0x20\n    /* \"#utility.yul\":1683:1747   */\n  tag_74\n    /* \"#utility.yul\":1739:1746   */\n  dup9\n    /* \"#utility.yul\":1730:1736   */\n  dup3\n    /* \"#utility.yul\":1719:1728   */\n  dup10\n    /* \"#utility.yul\":1715:1737   */\n  add\n    /* \"#utility.yul\":1683:1747   */\n  tag_45\n  jump\t// in\ntag_74:\n    /* \"#utility.yul\":1673:1747   */\n  swap5\n  pop\n    /* \"#utility.yul\":1628:1757   */\n  pop\n    /* \"#utility.yul\":1796:1798   */\n  0x40\n    /* \"#utility.yul\":1822:1886   */\n  tag_75\n    /* \"#utility.yul\":1878:1885   */\n  dup9\n    /* \"#utility.yul\":1869:1875   */\n  dup3\n    /* \"#utility.yul\":1858:1867   */\n  dup10\n    /* \"#utility.yul\":1854:1876   */\n  add\n    /* \"#utility.yul\":1822:1886   */\n  tag_49\n  jump\t// in\ntag_75:\n    /* \"#utility.yul\":1812:1886   */\n  swap4\n  pop\n    /* \"#utility.yul\":1767:1896   */\n  pop\n    /* \"#utility.yul\":1935:1937   */\n  0x60\n    /* \"#utility.yul\":1961:2025   */\n  tag_76\n    /* \"#utility.yul\":2017:2024   */\n  dup9\n    /* \"#utility.yul\":2008:2014   */\n  dup3\n    /* \"#utility.yul\":1997:2006   */\n  dup10\n    /* \"#utility.yul\":1993:2015   */\n  add\n    /* \"#utility.yul\":1961:2025   */\n  tag_49\n  jump\t// in\ntag_76:\n    /* \"#utility.yul\":1951:2025   */\n  swap3\n  pop\n    /* \"#utility.yul\":1906:2035   */\n  pop\n    /* \"#utility.yul\":2074:2077   */\n  0x80\n    /* \"#utility.yul\":2101:2165   */\n  tag_77\n    /* \"#utility.yul\":2157:2164   */\n  dup9\n    /* \"#utility.yul\":2148:2154   */\n  dup3\n    /* \"#utility.yul\":2137:2146   */\n  dup10\n    /* \"#utility.yul\":2133:2155   */\n  add\n    /* \"#utility.yul\":2101:2165   */\n  tag_49\n  jump\t// in\ntag_77:\n    /* \"#utility.yul\":2091:2165   */\n  swap2\n  pop\n    /* \"#utility.yul\":2045:2175   */\n  pop\n    /* \"#utility.yul\":1205:2182   */\n  swap3\n  swap6\n  pop\n  swap3\n  swap6\n  swap1\n  swap4\n  pop\n  jump\t// out\n    /* \"#utility.yul\":2188:2306   */\ntag_50:\n    /* \"#utility.yul\":2275:2299   */\n  tag_79\n    /* \"#utility.yul\":2293:2298   */\n  dup2\n    /* \"#utility.yul\":2275:2299   */\n  tag_47\n  jump\t// in\ntag_79:\n    /* \"#utility.yul\":2270:2273   */\n  dup3\n    /* \"#utility.yul\":2263:2300   */\n  mstore\n    /* \"#utility.yul\":2188:2306   */\n  pop\n  pop\n  jump\t// out\n    /* \"#utility.yul\":2312:2534   */\ntag_11:\n    /* \"#utility.yul\":2405:2409   */\n  0x00\n    /* \"#utility.yul\":2443:2445   */\n  0x20\n    /* \"#utility.yul\":2432:2441   */\n  dup3\n    /* \"#utility.yul\":2428:2446   */\n  add\n    /* \"#utility.yul\":2420:2446   */\n  swap1\n  pop\n    /* \"#utility.yul\":2456:2527   */\n  tag_81\n    /* \"#utility.yul\":2524:2525   */\n  0x00\n    /* \"#utility.yul\":2513:2522   */\n  dup4\n    /* \"#utility.yul\":2509:2526   */\n  add\n    /* \"#utility.yul\":2500:2506   */\n  dup5\n    /* \"#utility.yul\":2456:2527   */\n  tag_50\n  jump\t// in\ntag_81:\n    /* \"#utility.yul\":2312:2534   */\n  swap3\n  swap2\n  pop\n  pop\n  jump\t// out\n    /* \"#utility.yul\":2540:2658   */\ntag_51:\n    /* \"#utility.yul\":2627:2651   */\n  tag_83\n    /* \"#utility.yul\":2645:2650   */\n  dup2\n    /* \"#utility.yul\":2627:2651   */\n  tag_43\n  jump\t// in\ntag_83:\n    /* \"#utility.yul\":2622:2625   */\n  dup3\n    /* \"#utility.yul\":2615:2652   */\n  mstore\n    /* \"#utility.yul\":2540:2658   */\n  pop\n  pop\n  jump\t// out\n    /* \"#utility.yul\":2664:2886   */\ntag_17:\n    /* \"#utility.yul\":2757:2761   */\n  0x00\n    /* \"#utility.yul\":2795:2797   */\n  0x20\n    /* \"#utility.yul\":2784:2793   */\n  dup3\n    /* \"#utility.yul\":2780:2798   */\n  add\n    /* \"#utility.yul\":2772:2798   */\n  swap1\n  pop\n    /* \"#utility.yul\":2808:2879   */\n  tag_85\n    /* \"#utility.yul\":2876:2877   */\n  0x00\n    /* \"#utility.yul\":2865:2874   */\n  dup4\n    /* \"#utility.yul\":2861:2878   */\n  add\n    /* \"#utility.yul\":2852:2858   */\n  dup5\n    /* \"#utility.yul\":2808:2879   */\n  tag_51\n  jump\t// in\ntag_85:\n    /* \"#utility.yul\":2664:2886   */\n  swap3\n  swap2\n  pop\n  pop\n  jump\t// out\n    /* \"#utility.yul\":2892:3224   */\ntag_22:\n    /* \"#utility.yul\":3013:3017   */\n  0x00\n    /* \"#utility.yul\":3051:3053   */\n  0x40\n    /* \"#utility.yul\":3040:3049   */\n  dup3\n    /* \"#utility.yul\":3036:3054   */\n  add\n    /* \"#utility.yul\":3028:3054   */\n  swap1\n  pop\n    /* \"#utility.yul\":3064:3135   */\n  tag_87\n    /* \"#utility.yul\":3132:3133   */\n  0x00\n    /* \"#utility.yul\":3121:3130   */\n  dup4\n    /* \"#utility.yul\":3117:3134   */\n  add\n    /* \"#utility.yul\":3108:3114   */\n  dup6\n    /* \"#utility.yul\":3064:3135   */\n  tag_51\n  jump\t// in\ntag_87:\n    /* \"#utility.yul\":3145:3217   */\n  tag_88\n    /* \"#utility.yul\":3213:3215   */\n  0x20\n    /* \"#utility.yul\":3202:3211   */\n  dup4\n    /* \"#utility.yul\":3198:3216   */\n  add\n    /* \"#utility.yul\":3189:3195   */\n  dup5\n    /* \"#utility.yul\":3145:3217   */\n  tag_51\n  jump\t// in\ntag_88:\n    /* \"#utility.yul\":2892:3224   */\n  swap4\n  swap3\n  pop\n  pop\n  pop\n  jump\t// out\n    /* \"contracts/KipuBank.sol\":872:21050  contract KipuBank is ReentrancyGuard, Ownable, Pausable, AccessControl {... */\ntag_29:\n  mload(0x80)\n  mload(0xa0)\n  mload(0xc0)\n  codecopy(0x00, dataOffset(sub_0), dataSize(sub_0))\n  0x00\n  assignImmutable(\"0x56af87718ac6246bac727726c33ea64d0935502347b4fd185bbadeb5f3fb92bd\")\n  0x00\n  assignImmutable(\"0xcf2f0ed1818444aa7134f6644eb342f5da11c7b70eee1c41201e997b4c62f0a7\")\n  0x00\n  assignImmutable(\"0x70ebf73cb6f1a1207279604d754513a029c2ff46f9198374b0ad04887dd2881e\")\n  return(0x00, dataSize(sub_0))\nstop\n\nsub_0: assembly {\n        /* \"contracts/KipuBank.sol\":872:21050  contract KipuBank is ReentrancyGuard, Ownable, Pausable, AccessControl {... */\n      mstore(0x40, 0x80)\n      jumpi(tag_1, lt(calldatasize, 0x04))\n      shr(0xe0, calldataload(0x00))\n      dup1\n      0x8648840a\n      gt\n      tag_35\n      jumpi\n      dup1\n      0xcb398eb3\n      gt\n      tag_36\n      jumpi\n      dup1\n      0xf0e00dc8\n      gt\n      tag_37\n      jumpi\n      dup1\n      0xf0e00dc8\n      eq\n      tag_31\n      jumpi\n      dup1\n      0xf2fde38b\n      eq\n      tag_32\n      jumpi\n      dup1\n      0xf39b1809\n      eq\n      tag_33\n      jumpi\n      dup1\n      0xf7888aec\n      eq\n      tag_34\n      jumpi\n      jump(tag_2)\n    tag_37:\n      dup1\n      0xcb398eb3\n      eq\n      tag_27\n      jumpi\n      dup1\n      0xccd6b020\n      eq\n      tag_28\n      jumpi\n      dup1\n      0xd547741f\n      eq\n      tag_29\n      jumpi\n      dup1\n      0xd9dc8694\n      eq\n      tag_30\n      jumpi\n      jump(tag_2)\n    tag_36:\n      dup1\n      0x93295c1c\n      gt\n      tag_38\n      jumpi\n      dup1\n      0x93295c1c\n      eq\n      tag_23\n      jumpi\n      dup1\n      0x939495bd\n      eq\n      tag_24\n      jumpi\n      dup1\n      0xa217fddf\n      eq\n      tag_25\n      jumpi\n      dup1\n      0xc6aca33c\n      eq\n      tag_26\n      jumpi\n      jump(tag_2)\n    tag_38:\n      dup1\n      0x8648840a\n      eq\n      tag_19\n      jumpi\n      dup1\n      0x8da5cb5b\n      eq\n      tag_20\n      jumpi\n      dup1\n      0x91d14854\n      eq\n      tag_21\n      jumpi\n      dup1\n      0x931fb90e\n      eq\n      tag_22\n      jumpi\n      jump(tag_2)\n    tag_35:\n      dup1\n      0x5c975abb\n      gt\n      tag_39\n      jumpi\n      dup1\n      0x715018a6\n      gt\n      tag_40\n      jumpi\n      dup1\n      0x715018a6\n      eq\n      tag_15\n      jumpi\n      dup1\n      0x779bb136\n      eq\n      tag_16\n      jumpi\n      dup1\n      0x7dc532c5\n      eq\n      tag_17\n      jumpi\n      dup1\n      0x82fe54b5\n      eq\n      tag_18\n      jumpi\n      jump(tag_2)\n    tag_40:\n      dup1\n      0x5c975abb\n      eq\n      tag_11\n      jumpi\n      dup1\n      0x6900670c\n      eq\n      tag_12\n      jumpi\n      dup1\n      0x698b7241\n      eq\n      tag_13\n      jumpi\n      dup1\n      0x6f05c64c\n      eq\n      tag_14\n      jumpi\n      jump(tag_2)\n    tag_39:\n      dup1\n      0x248a9ca3\n      gt\n      tag_41\n      jumpi\n      dup1\n      0x248a9ca3\n      eq\n      tag_7\n      jumpi\n      dup1\n      0x2f2ff15d\n      eq\n      tag_8\n      jumpi\n      dup1\n      0x36568abe\n      eq\n      tag_9\n      jumpi\n      dup1\n      0x38d5c916\n      eq\n      tag_10\n      jumpi\n      jump(tag_2)\n    tag_41:\n      dup1\n      0x01ffc9a7\n      eq\n      tag_3\n      jumpi\n      dup1\n      0x0594cc69\n      eq\n      tag_4\n      jumpi\n      dup1\n      0x16a1930f\n      eq\n      tag_5\n      jumpi\n      dup1\n      0x1a003ecb\n      eq\n      tag_6\n      jumpi\n      jump(tag_2)\n    tag_1:\n      jumpi(tag_2, calldatasize)\n        /* \"contracts/KipuBank.sol\":8699:8709  msg.sender */\n      caller\n        /* \"contracts/KipuBank.sol\":8669:8710  KipuBank_OperacionNoPermitida(msg.sender) */\n      mload(0x40)\n      0xe1d158ff00000000000000000000000000000000000000000000000000000000\n      dup2\n      mstore\n      0x04\n      add\n      tag_44\n      swap2\n      swap1\n      tag_45\n      jump\t// in\n    tag_44:\n      mload(0x40)\n      dup1\n      swap2\n      sub\n      swap1\n      revert\n        /* \"contracts/KipuBank.sol\":872:21050  contract KipuBank is ReentrancyGuard, Ownable, Pausable, AccessControl {... */\n    tag_2:\n        /* \"contracts/KipuBank.sol\":8904:8914  msg.sender */\n      caller\n        /* \"contracts/KipuBank.sol\":8874:8915  KipuBank_OperacionNoPermitida(msg.sender) */\n      mload(0x40)\n      0xe1d158ff00000000000000000000000000000000000000000000000000000000\n      dup2\n      mstore\n      0x04\n      add\n      tag_48\n      swap2\n      swap1\n      tag_45\n      jump\t// in\n    tag_48:\n      mload(0x40)\n      dup1\n      swap2\n      sub\n      swap1\n      revert\n        /* \"contracts/KipuBank.sol\":20831:21047  function supportsInterface(bytes4 interfaceId) ... */\n    tag_3:\n      callvalue\n      dup1\n      iszero\n      tag_49\n      jumpi\n      revert(0x00, 0x00)\n    tag_49:\n      pop\n      tag_50\n      0x04\n      dup1\n      calldatasize\n      sub\n      dup2\n      add\n      swap1\n      tag_51\n      swap2\n      swap1\n      tag_52\n      jump\t// in\n    tag_51:\n      tag_53\n      jump\t// in\n    tag_50:\n      mload(0x40)\n      tag_54\n      swap2\n      swap1\n      tag_55\n      jump\t// in\n    tag_54:\n      mload(0x40)\n      dup1\n      swap2\n      sub\n      swap1\n      return\n        /* \"contracts/KipuBank.sol\":20004:20353  function estadoDelContrato() external view ... */\n    tag_4:\n      callvalue\n      dup1\n      iszero\n      tag_56\n      jumpi\n      revert(0x00, 0x00)\n    tag_56:\n      pop\n      tag_57\n      tag_58\n      jump\t// in\n    tag_57:\n      mload(0x40)\n      tag_59\n      swap6\n      swap5\n      swap4\n      swap3\n      swap2\n      swap1\n      tag_60\n      jump\t// in\n    tag_59:\n      mload(0x40)\n      dup1\n      swap2\n      sub\n      swap1\n      return\n        /* \"contracts/KipuBank.sol\":14239:14573  function depositarETH() external payable verificarDepositoETH(msg.value) whenNotPaused {... */\n    tag_5:\n      tag_61\n      tag_62\n      jump\t// in\n    tag_61:\n      stop\n        /* \"contracts/KipuBank.sol\":18825:18989  function pausarContrato() external soloOwnerORol(PAUSER) whenNotPaused {... */\n    tag_6:\n      callvalue\n      dup1\n      iszero\n      tag_63\n      jumpi\n      revert(0x00, 0x00)\n    tag_63:\n      pop\n      tag_64\n      tag_65\n      jump\t// in\n    tag_64:\n      stop\n        /* \"@openzeppelin/contracts/access/AccessControl.sol\":3786:3906  function getRoleAdmin(bytes32 role) public view virtual returns (bytes32) {... */\n    tag_7:\n      callvalue\n      dup1\n      iszero\n      tag_66\n      jumpi\n      revert(0x00, 0x00)\n    tag_66:\n      pop\n      tag_67\n      0x04\n      dup1\n      calldatasize\n      sub\n      dup2\n      add\n      swap1\n      tag_68\n      swap2\n      swap1\n      tag_69\n      jump\t// in\n    tag_68:\n      tag_70\n      jump\t// in\n    tag_67:\n      mload(0x40)\n      tag_71\n      swap2\n      swap1\n      tag_72\n      jump\t// in\n    tag_71:\n      mload(0x40)\n      dup1\n      swap2\n      sub\n      swap1\n      return\n        /* \"@openzeppelin/contracts/access/AccessControl.sol\":4202:4338  function grantRole(bytes32 role, address account) public virtual onlyRole(getRoleAdmin(role)) {... */\n    tag_8:\n      callvalue\n      dup1\n      iszero\n      tag_73\n      jumpi\n      revert(0x00, 0x00)\n    tag_73:\n      pop\n      tag_74\n      0x04\n      dup1\n      calldatasize\n      sub\n      dup2\n      add\n      swap1\n      tag_75\n      swap2\n      swap1\n      tag_76\n      jump\t// in\n    tag_75:\n      tag_77\n      jump\t// in\n    tag_74:\n      stop\n        /* \"@openzeppelin/contracts/access/AccessControl.sol\":5304:5549  function renounceRole(bytes32 role, address callerConfirmation) public virtual {... */\n    tag_9:\n      callvalue\n      dup1\n      iszero\n      tag_78\n      jumpi\n      revert(0x00, 0x00)\n    tag_78:\n      pop\n      tag_79\n      0x04\n      dup1\n      calldatasize\n      sub\n      dup2\n      add\n      swap1\n      tag_80\n      swap2\n      swap1\n      tag_76\n      jump\t// in\n    tag_80:\n      tag_81\n      jump\t// in\n    tag_79:\n      stop\n        /* \"contracts/KipuBank.sol\":19130:19299  function despausarContrato() external soloOwnerORol(PAUSER) whenPaused {... */\n    tag_10:\n      callvalue\n      dup1\n      iszero\n      tag_82\n      jumpi\n      revert(0x00, 0x00)\n    tag_82:\n      pop\n      tag_83\n      tag_84\n      jump\t// in\n    tag_83:\n      stop\n        /* \"@openzeppelin/contracts/utils/Pausable.sol\":1726:1810  function paused() public view virtual returns (bool) {... */\n    tag_11:\n      callvalue\n      dup1\n      iszero\n      tag_85\n      jumpi\n      revert(0x00, 0x00)\n    tag_85:\n      pop\n      tag_86\n      tag_87\n      jump\t// in\n    tag_86:\n      mload(0x40)\n      tag_88\n      swap2\n      swap1\n      tag_55\n      jump\t// in\n    tag_88:\n      mload(0x40)\n      dup1\n      swap2\n      sub\n      swap1\n      return\n        /* \"contracts/KipuBank.sol\":15572:15766  function verBoveda() external view returns (uint monto_) {... */\n    tag_12:\n      callvalue\n      dup1\n      iszero\n      tag_89\n      jumpi\n      revert(0x00, 0x00)\n    tag_89:\n      pop\n      tag_90\n      tag_91\n      jump\t// in\n    tag_90:\n      mload(0x40)\n      tag_92\n      swap2\n      swap1\n      tag_93\n      jump\t// in\n    tag_92:\n      mload(0x40)\n      dup1\n      swap2\n      sub\n      swap1\n      return\n        /* \"contracts/KipuBank.sol\":14943:15391  function depositarUSDC(uint _monto) external verificarDepositoUSDC(_monto) whenNotPaused {... */\n    tag_13:\n      callvalue\n      dup1\n      iszero\n      tag_94\n      jumpi\n      revert(0x00, 0x00)\n    tag_94:\n      pop\n      tag_95\n      0x04\n      dup1\n      calldatasize\n      sub\n      dup2\n      add\n      swap1\n      tag_96\n      swap2\n      swap1\n      tag_97\n      jump\t// in\n    tag_96:\n      tag_98\n      jump\t// in\n    tag_95:\n      stop\n        /* \"contracts/KipuBank.sol\":1569:1604  AggregatorV3Interface public s_feed */\n    tag_14:\n      callvalue\n      dup1\n      iszero\n      tag_99\n      jumpi\n      revert(0x00, 0x00)\n    tag_99:\n      pop\n      tag_100\n      tag_101\n      jump\t// in\n    tag_100:\n      mload(0x40)\n      tag_102\n      swap2\n      swap1\n      tag_103\n      jump\t// in\n    tag_102:\n      mload(0x40)\n      dup1\n      swap2\n      sub\n      swap1\n      return\n        /* \"@openzeppelin/contracts/access/Ownable.sol\":2293:2394  function renounceOwnership() public virtual onlyOwner {... */\n    tag_15:\n      callvalue\n      dup1\n      iszero\n      tag_104\n      jumpi\n      revert(0x00, 0x00)\n    tag_104:\n      pop\n      tag_105\n      tag_106\n      jump\t// in\n    tag_105:\n      stop\n        /* \"contracts/KipuBank.sol\":16128:16255  function verSaldoETH() external view returns (uint saldo_) {... */\n    tag_16:\n      callvalue\n      dup1\n      iszero\n      tag_107\n      jumpi\n      revert(0x00, 0x00)\n    tag_107:\n      pop\n      tag_108\n      tag_109\n      jump\t// in\n    tag_108:\n      mload(0x40)\n      tag_110\n      swap2\n      swap1\n      tag_93\n      jump\t// in\n    tag_110:\n      mload(0x40)\n      dup1\n      swap2\n      sub\n      swap1\n      return\n        /* \"contracts/KipuBank.sol\":17897:18687  function setFeeds(address _nuevoFeed) external soloOwnerORol(FEED_MANAGER) whenPaused {... */\n    tag_17:\n      callvalue\n      dup1\n      iszero\n      tag_111\n      jumpi\n      revert(0x00, 0x00)\n    tag_111:\n      pop\n      tag_112\n      0x04\n      dup1\n      calldatasize\n      sub\n      dup2\n      add\n      swap1\n      tag_113\n      swap2\n      swap1\n      tag_114\n      jump\t// in\n    tag_113:\n      tag_115\n      jump\t// in\n    tag_112:\n      stop\n        /* \"contracts/KipuBank.sol\":13776:13874  function retirarETH(uint _monto) external whenNotPaused {... */\n    tag_18:\n      callvalue\n      dup1\n      iszero\n      tag_116\n      jumpi\n      revert(0x00, 0x00)\n    tag_116:\n      pop\n      tag_117\n      0x04\n      dup1\n      calldatasize\n      sub\n      dup2\n      add\n      swap1\n      tag_118\n      swap2\n      swap1\n      tag_97\n      jump\t// in\n    tag_118:\n      tag_119\n      jump\t// in\n    tag_117:\n      stop\n        /* \"contracts/KipuBank.sol\":17147:17674  function transferirOwner(address _nuevoOwner) external onlyOwner whenPaused {... */\n    tag_19:\n      callvalue\n      dup1\n      iszero\n      tag_120\n      jumpi\n      revert(0x00, 0x00)\n    tag_120:\n      pop\n      tag_121\n      0x04\n      dup1\n      calldatasize\n      sub\n      dup2\n      add\n      swap1\n      tag_122\n      swap2\n      swap1\n      tag_114\n      jump\t// in\n    tag_122:\n      tag_123\n      jump\t// in\n    tag_121:\n      stop\n        /* \"@openzeppelin/contracts/access/Ownable.sol\":1638:1723  function owner() public view virtual returns (address) {... */\n    tag_20:\n      callvalue\n      dup1\n      iszero\n      tag_124\n      jumpi\n      revert(0x00, 0x00)\n    tag_124:\n      pop\n      tag_125\n      tag_126\n      jump\t// in\n    tag_125:\n      mload(0x40)\n      tag_127\n      swap2\n      swap1\n      tag_45\n      jump\t// in\n    tag_127:\n      mload(0x40)\n      dup1\n      swap2\n      sub\n      swap1\n      return\n        /* \"@openzeppelin/contracts/access/AccessControl.sol\":2830:2966  function hasRole(bytes32 role, address account) public view virtual returns (bool) {... */\n    tag_21:\n      callvalue\n      dup1\n      iszero\n      tag_128\n      jumpi\n      revert(0x00, 0x00)\n    tag_128:\n      pop\n      tag_129\n      0x04\n      dup1\n      calldatasize\n      sub\n      dup2\n      add\n      swap1\n      tag_130\n      swap2\n      swap1\n      tag_76\n      jump\t// in\n    tag_130:\n      tag_131\n      jump\t// in\n    tag_129:\n      mload(0x40)\n      tag_132\n      swap2\n      swap1\n      tag_55\n      jump\t// in\n    tag_132:\n      mload(0x40)\n      dup1\n      swap2\n      sub\n      swap1\n      return\n        /* \"contracts/KipuBank.sol\":14010:14110  function retirarUSDC(uint _monto) external whenNotPaused {... */\n    tag_22:\n      callvalue\n      dup1\n      iszero\n      tag_133\n      jumpi\n      revert(0x00, 0x00)\n    tag_133:\n      pop\n      tag_134\n      0x04\n      dup1\n      calldatasize\n      sub\n      dup2\n      add\n      swap1\n      tag_135\n      swap2\n      swap1\n      tag_97\n      jump\t// in\n    tag_135:\n      tag_136\n      jump\t// in\n    tag_134:\n      stop\n        /* \"contracts/KipuBank.sol\":16829:16924  function verTotalContrato() external view returns (uint) {... */\n    tag_23:\n      callvalue\n      dup1\n      iszero\n      tag_137\n      jumpi\n      revert(0x00, 0x00)\n    tag_137:\n      pop\n      tag_138\n      tag_139\n      jump\t// in\n    tag_138:\n      mload(0x40)\n      tag_140\n      swap2\n      swap1\n      tag_93\n      jump\t// in\n    tag_140:\n      mload(0x40)\n      dup1\n      swap2\n      sub\n      swap1\n      return\n        /* \"contracts/KipuBank.sol\":15883:16016  function verSaldoUSDC() external view returns (uint saldo_) {... */\n    tag_24:\n      callvalue\n      dup1\n      iszero\n      tag_141\n      jumpi\n      revert(0x00, 0x00)\n    tag_141:\n      pop\n      tag_142\n      tag_143\n      jump\t// in\n    tag_142:\n      mload(0x40)\n      tag_144\n      swap2\n      swap1\n      tag_93\n      jump\t// in\n    tag_144:\n      mload(0x40)\n      dup1\n      swap2\n      sub\n      swap1\n      return\n        /* \"@openzeppelin/contracts/access/AccessControl.sol\":2196:2245  bytes32 public constant DEFAULT_ADMIN_ROLE = 0x00 */\n    tag_25:\n      callvalue\n      dup1\n      iszero\n      tag_145\n      jumpi\n      revert(0x00, 0x00)\n    tag_145:\n      pop\n      tag_146\n      tag_147\n      jump\t// in\n    tag_146:\n      mload(0x40)\n      tag_148\n      swap2\n      swap1\n      tag_72\n      jump\t// in\n    tag_148:\n      mload(0x40)\n      dup1\n      swap2\n      sub\n      swap1\n      return\n        /* \"contracts/KipuBank.sol\":16613:16701  function verTotalRetiros() external view returns (uint) {... */\n    tag_26:\n      callvalue\n      dup1\n      iszero\n      tag_149\n      jumpi\n      revert(0x00, 0x00)\n    tag_149:\n      pop\n      tag_150\n      tag_151\n      jump\t// in\n    tag_150:\n      mload(0x40)\n      tag_152\n      swap2\n      swap1\n      tag_93\n      jump\t// in\n    tag_152:\n      mload(0x40)\n      dup1\n      swap2\n      sub\n      swap1\n      return\n        /* \"contracts/KipuBank.sol\":1103:1167  bytes32 public constant FEED_MANAGER = keccak256(\"FEED_MANAGER\") */\n    tag_27:\n      callvalue\n      dup1\n      iszero\n      tag_153\n      jumpi\n      revert(0x00, 0x00)\n    tag_153:\n      pop\n      tag_154\n      tag_155\n      jump\t// in\n    tag_154:\n      mload(0x40)\n      tag_156\n      swap2\n      swap1\n      tag_72\n      jump\t// in\n    tag_156:\n      mload(0x40)\n      dup1\n      swap2\n      sub\n      swap1\n      return\n        /* \"contracts/KipuBank.sol\":19458:19605  function darRol(address cuenta, bytes32 rol) external onlyOwner {... */\n    tag_28:\n      callvalue\n      dup1\n      iszero\n      tag_157\n      jumpi\n      revert(0x00, 0x00)\n    tag_157:\n      pop\n      tag_158\n      0x04\n      dup1\n      calldatasize\n      sub\n      dup2\n      add\n      swap1\n      tag_159\n      swap2\n      swap1\n      tag_160\n      jump\t// in\n    tag_159:\n      tag_161\n      jump\t// in\n    tag_158:\n      stop\n        /* \"@openzeppelin/contracts/access/AccessControl.sol\":4618:4756  function revokeRole(bytes32 role, address account) public virtual onlyRole(getRoleAdmin(role)) {... */\n    tag_29:\n      callvalue\n      dup1\n      iszero\n      tag_162\n      jumpi\n      revert(0x00, 0x00)\n    tag_162:\n      pop\n      tag_163\n      0x04\n      dup1\n      calldatasize\n      sub\n      dup2\n      add\n      swap1\n      tag_164\n      swap2\n      swap1\n      tag_76\n      jump\t// in\n    tag_164:\n      tag_165\n      jump\t// in\n    tag_163:\n      stop\n        /* \"contracts/KipuBank.sol\":995:1047  bytes32 public constant PAUSER = keccak256(\"PAUSER\") */\n    tag_30:\n      callvalue\n      dup1\n      iszero\n      tag_166\n      jumpi\n      revert(0x00, 0x00)\n    tag_166:\n      pop\n      tag_167\n      tag_168\n      jump\t// in\n    tag_167:\n      mload(0x40)\n      tag_169\n      swap2\n      swap1\n      tag_72\n      jump\t// in\n    tag_169:\n      mload(0x40)\n      dup1\n      swap2\n      sub\n      swap1\n      return\n        /* \"contracts/KipuBank.sol\":19784:19940  function revocarRol(address cuenta, bytes32 rol) external onlyOwner {... */\n    tag_31:\n      callvalue\n      dup1\n      iszero\n      tag_170\n      jumpi\n      revert(0x00, 0x00)\n    tag_170:\n      pop\n      tag_171\n      0x04\n      dup1\n      calldatasize\n      sub\n      dup2\n      add\n      swap1\n      tag_172\n      swap2\n      swap1\n      tag_160\n      jump\t// in\n    tag_172:\n      tag_173\n      jump\t// in\n    tag_171:\n      stop\n        /* \"@openzeppelin/contracts/access/Ownable.sol\":2543:2758  function transferOwnership(address newOwner) public virtual onlyOwner {... */\n    tag_32:\n      callvalue\n      dup1\n      iszero\n      tag_174\n      jumpi\n      revert(0x00, 0x00)\n    tag_174:\n      pop\n      tag_175\n      0x04\n      dup1\n      calldatasize\n      sub\n      dup2\n      add\n      swap1\n      tag_176\n      swap2\n      swap1\n      tag_114\n      jump\t// in\n    tag_176:\n      tag_177\n      jump\t// in\n    tag_175:\n      stop\n        /* \"contracts/KipuBank.sol\":16390:16482  function verTotalDepositos() external view returns (uint) {... */\n    tag_33:\n      callvalue\n      dup1\n      iszero\n      tag_178\n      jumpi\n      revert(0x00, 0x00)\n    tag_178:\n      pop\n      tag_179\n      tag_180\n      jump\t// in\n    tag_179:\n      mload(0x40)\n      tag_181\n      swap2\n      swap1\n      tag_93\n      jump\t// in\n    tag_181:\n      mload(0x40)\n      dup1\n      swap2\n      sub\n      swap1\n      return\n        /* \"contracts/KipuBank.sol\":20611:20749  function balanceOf(address titular, address token) external view returns (uint) {... */\n    tag_34:\n      callvalue\n      dup1\n      iszero\n      tag_182\n      jumpi\n      revert(0x00, 0x00)\n    tag_182:\n      pop\n      tag_183\n      0x04\n      dup1\n      calldatasize\n      sub\n      dup2\n      add\n      swap1\n      tag_184\n      swap2\n      swap1\n      tag_185\n      jump\t// in\n    tag_184:\n      tag_186\n      jump\t// in\n    tag_183:\n      mload(0x40)\n      tag_187\n      swap2\n      swap1\n      tag_93\n      jump\t// in\n    tag_187:\n      mload(0x40)\n      dup1\n      swap2\n      sub\n      swap1\n      return\n        /* \"contracts/KipuBank.sol\":20831:21047  function supportsInterface(bytes4 interfaceId) ... */\n    tag_53:\n        /* \"contracts/KipuBank.sol\":20976:20980  bool */\n      0x00\n        /* \"contracts/KipuBank.sol\":21004:21040  super.supportsInterface(interfaceId) */\n      tag_189\n        /* \"contracts/KipuBank.sol\":21028:21039  interfaceId */\n      dup3\n        /* \"contracts/KipuBank.sol\":21004:21027  super.supportsInterface */\n      tag_190\n        /* \"contracts/KipuBank.sol\":21004:21040  super.supportsInterface(interfaceId) */\n      jump\t// in\n    tag_189:\n        /* \"contracts/KipuBank.sol\":20997:21040  return super.supportsInterface(interfaceId) */\n      swap1\n      pop\n        /* \"contracts/KipuBank.sol\":20831:21047  function supportsInterface(bytes4 interfaceId) ... */\n      swap2\n      swap1\n      pop\n      jump\t// out\n        /* \"contracts/KipuBank.sol\":20004:20353  function estadoDelContrato() external view ... */\n    tag_58:\n        /* \"contracts/KipuBank.sol\":20070:20082  bool pausado */\n      0x00\n        /* \"contracts/KipuBank.sol\":20093:20111  uint totalContrato */\n      0x00\n        /* \"contracts/KipuBank.sol\":20122:20133  uint limite */\n      0x00\n        /* \"contracts/KipuBank.sol\":20144:20155  uint umbral */\n      0x00\n        /* \"contracts/KipuBank.sol\":20166:20184  address feedActual */\n      0x00\n        /* \"contracts/KipuBank.sol\":20226:20234  paused() */\n      tag_192\n        /* \"contracts/KipuBank.sol\":20226:20232  paused */\n      tag_87\n        /* \"contracts/KipuBank.sol\":20226:20234  paused() */\n      jump\t// in\n    tag_192:\n        /* \"contracts/KipuBank.sol\":20248:20262  _totalContrato */\n      sload(0x06)\n        /* \"contracts/KipuBank.sol\":20276:20285  i_bankCap */\n      immutable(\"0x56af87718ac6246bac727726c33ea64d0935502347b4fd185bbadeb5f3fb92bd\")\n        /* \"contracts/KipuBank.sol\":20299:20307  i_umbral */\n      immutable(\"0xcf2f0ed1818444aa7134f6644eb342f5da11c7b70eee1c41201e997b4c62f0a7\")\n        /* \"contracts/KipuBank.sol\":20329:20335  s_feed */\n      0x03\n      0x00\n      swap1\n      sload\n      swap1\n      0x0100\n      exp\n      swap1\n      div\n      0xffffffffffffffffffffffffffffffffffffffff\n      and\n        /* \"contracts/KipuBank.sol\":20205:20346  return (... */\n      swap5\n      pop\n      swap5\n      pop\n      swap5\n      pop\n      swap5\n      pop\n      swap5\n      pop\n        /* \"contracts/KipuBank.sol\":20004:20353  function estadoDelContrato() external view ... */\n      swap1\n      swap2\n      swap3\n      swap4\n      swap5\n      jump\t// out\n        /* \"contracts/KipuBank.sol\":14239:14573  function depositarETH() external payable verificarDepositoETH(msg.value) whenNotPaused {... */\n    tag_62:\n        /* \"contracts/KipuBank.sol\":14301:14310  msg.value */\n      callvalue\n        /* \"contracts/KipuBank.sol\":9444:9458  uint montoUSDC */\n      0x00\n        /* \"contracts/KipuBank.sol\":9461:9486  convertirEthEnUSD(_monto) */\n      tag_194\n        /* \"contracts/KipuBank.sol\":9479:9485  _monto */\n      dup3\n        /* \"contracts/KipuBank.sol\":9461:9478  convertirEthEnUSD */\n      tag_195\n        /* \"contracts/KipuBank.sol\":9461:9486  convertirEthEnUSD(_monto) */\n      jump\t// in\n    tag_194:\n        /* \"contracts/KipuBank.sol\":9444:9486  uint montoUSDC = convertirEthEnUSD(_monto) */\n      swap1\n      pop\n        /* \"contracts/KipuBank.sol\":9512:9513  0 */\n      0x00\n        /* \"contracts/KipuBank.sol\":9499:9508  montoUSDC */\n      dup2\n        /* \"contracts/KipuBank.sol\":9499:9513  montoUSDC == 0 */\n      sub\n        /* \"contracts/KipuBank.sol\":9496:9552  if(montoUSDC == 0) revert KipuBank_MontoCero(msg.sender) */\n      tag_196\n      jumpi\n        /* \"contracts/KipuBank.sol\":9541:9551  msg.sender */\n      caller\n        /* \"contracts/KipuBank.sol\":9522:9552  KipuBank_MontoCero(msg.sender) */\n      mload(0x40)\n      0xb2f0923100000000000000000000000000000000000000000000000000000000\n      dup2\n      mstore\n      0x04\n      add\n      tag_197\n      swap2\n      swap1\n      tag_45\n      jump\t// in\n    tag_197:\n      mload(0x40)\n      dup1\n      swap2\n      sub\n      swap1\n      revert\n        /* \"contracts/KipuBank.sol\":9496:9552  if(montoUSDC == 0) revert KipuBank_MontoCero(msg.sender) */\n    tag_196:\n        /* \"contracts/KipuBank.sol\":9595:9604  i_bankCap */\n      immutable(\"0x56af87718ac6246bac727726c33ea64d0935502347b4fd185bbadeb5f3fb92bd\")\n        /* \"contracts/KipuBank.sol\":9578:9592  _totalContrato */\n      sload(0x06)\n        /* \"contracts/KipuBank.sol\":9566:9575  montoUSDC */\n      dup3\n        /* \"contracts/KipuBank.sol\":9566:9592  montoUSDC + _totalContrato */\n      tag_198\n      swap2\n      swap1\n      tag_199\n      jump\t// in\n    tag_198:\n        /* \"contracts/KipuBank.sol\":9566:9604  montoUSDC + _totalContrato > i_bankCap */\n      gt\n        /* \"contracts/KipuBank.sol\":9562:9647  if (montoUSDC + _totalContrato > i_bankCap) revert KipuBank_LimiteExcedido(montoUSDC) */\n      iszero\n      tag_200\n      jumpi\n        /* \"contracts/KipuBank.sol\":9637:9646  montoUSDC */\n      dup1\n        /* \"contracts/KipuBank.sol\":9613:9647  KipuBank_LimiteExcedido(montoUSDC) */\n      mload(0x40)\n      0x2900b02c00000000000000000000000000000000000000000000000000000000\n      dup2\n      mstore\n      0x04\n      add\n      tag_201\n      swap2\n      swap1\n      tag_93\n      jump\t// in\n    tag_201:\n      mload(0x40)\n      dup1\n      swap2\n      sub\n      swap1\n      revert\n        /* \"contracts/KipuBank.sol\":9562:9647  if (montoUSDC + _totalContrato > i_bankCap) revert KipuBank_LimiteExcedido(montoUSDC) */\n    tag_200:\n        /* \"@openzeppelin/contracts/utils/Pausable.sol\":1350:1369  _requireNotPaused() */\n      tag_203\n        /* \"@openzeppelin/contracts/utils/Pausable.sol\":1350:1367  _requireNotPaused */\n      tag_204\n        /* \"@openzeppelin/contracts/utils/Pausable.sol\":1350:1369  _requireNotPaused() */\n      jump\t// in\n    tag_203:\n        /* \"contracts/KipuBank.sol\":14336:14349  uint montoUSD */\n      0x00\n        /* \"contracts/KipuBank.sol\":14352:14380  convertirEthEnUSD(msg.value) */\n      tag_206\n        /* \"contracts/KipuBank.sol\":14370:14379  msg.value */\n      callvalue\n        /* \"contracts/KipuBank.sol\":14352:14369  convertirEthEnUSD */\n      tag_195\n        /* \"contracts/KipuBank.sol\":14352:14380  convertirEthEnUSD(msg.value) */\n      jump\t// in\n    tag_206:\n        /* \"contracts/KipuBank.sol\":14336:14380  uint montoUSD = convertirEthEnUSD(msg.value) */\n      swap1\n      pop\n        /* \"contracts/KipuBank.sol\":14436:14445  msg.value */\n      callvalue\n        /* \"contracts/KipuBank.sol\":14390:14408  _cuentasMultiToken */\n      0x07\n        /* \"contracts/KipuBank.sol\":14390:14420  _cuentasMultiToken[address(0)] */\n      0x00\n        /* \"contracts/KipuBank.sol\":14417:14418  0 */\n      0x00\n        /* \"contracts/KipuBank.sol\":14390:14420  _cuentasMultiToken[address(0)] */\n      0xffffffffffffffffffffffffffffffffffffffff\n      and\n      0xffffffffffffffffffffffffffffffffffffffff\n      and\n      dup2\n      mstore\n      0x20\n      add\n      swap1\n      dup2\n      mstore\n      0x20\n      add\n      0x00\n      keccak256\n        /* \"contracts/KipuBank.sol\":14390:14432  _cuentasMultiToken[address(0)][msg.sender] */\n      0x00\n        /* \"contracts/KipuBank.sol\":14421:14431  msg.sender */\n      caller\n        /* \"contracts/KipuBank.sol\":14390:14432  _cuentasMultiToken[address(0)][msg.sender] */\n      0xffffffffffffffffffffffffffffffffffffffff\n      and\n      0xffffffffffffffffffffffffffffffffffffffff\n      and\n      dup2\n      mstore\n      0x20\n      add\n      swap1\n      dup2\n      mstore\n      0x20\n      add\n      0x00\n      keccak256\n      0x00\n        /* \"contracts/KipuBank.sol\":14390:14445  _cuentasMultiToken[address(0)][msg.sender] += msg.value */\n      dup3\n      dup3\n      sload\n      tag_207\n      swap2\n      swap1\n      tag_199\n      jump\t// in\n    tag_207:\n      swap3\n      pop\n      pop\n      dup2\n      swap1\n      sstore\n      pop\n        /* \"contracts/KipuBank.sol\":14455:14465  _depositos */\n      0x04\n      0x00\n        /* \"contracts/KipuBank.sol\":14455:14467  _depositos++ */\n      dup2\n      sload\n      dup1\n      swap3\n      swap2\n      swap1\n      tag_208\n      swap1\n      tag_209\n      jump\t// in\n    tag_208:\n      swap2\n      swap1\n      pop\n      sstore\n      pop\n        /* \"contracts/KipuBank.sol\":14495:14503  montoUSD */\n      dup1\n        /* \"contracts/KipuBank.sol\":14477:14491  _totalContrato */\n      0x06\n      0x00\n        /* \"contracts/KipuBank.sol\":14477:14503  _totalContrato += montoUSD */\n      dup3\n      dup3\n      sload\n      tag_210\n      swap2\n      swap1\n      tag_199\n      jump\t// in\n    tag_210:\n      swap3\n      pop\n      pop\n      dup2\n      swap1\n      sstore\n      pop\n        /* \"contracts/KipuBank.sol\":14545:14555  msg.sender */\n      caller\n        /* \"contracts/KipuBank.sol\":14518:14566  KipuBank_DepositoRealizado(msg.sender, montoUSD) */\n      0xffffffffffffffffffffffffffffffffffffffff\n      and\n      0x9d15693852bf60dc27bd5aa831d0351359b7d01d428ae1baae11f15cbcfebafd\n        /* \"contracts/KipuBank.sol\":14557:14565  montoUSD */\n      dup3\n        /* \"contracts/KipuBank.sol\":14518:14566  KipuBank_DepositoRealizado(msg.sender, montoUSD) */\n      mload(0x40)\n      tag_211\n      swap2\n      swap1\n      tag_93\n      jump\t// in\n    tag_211:\n      mload(0x40)\n      dup1\n      swap2\n      sub\n      swap1\n      log2\n        /* \"contracts/KipuBank.sol\":14326:14573  {... */\n      pop\n        /* \"contracts/KipuBank.sol\":9434:9665  {... */\n      pop\n        /* \"contracts/KipuBank.sol\":14239:14573  function depositarETH() external payable verificarDepositoETH(msg.value) whenNotPaused {... */\n      pop\n      jump\t// out\n        /* \"contracts/KipuBank.sol\":18825:18989  function pausarContrato() external soloOwnerORol(PAUSER) whenNotPaused {... */\n    tag_65:\n        /* \"contracts/KipuBank.sol\":1028:1047  keccak256(\"PAUSER\") */\n      0x539440820030c4994db4e31b6b800deafd503688728f932addfe7a410515c14c\n        /* \"contracts/KipuBank.sol\":9155:9165  msg.sender */\n      caller\n        /* \"contracts/KipuBank.sol\":9144:9165  owner() != msg.sender */\n      0xffffffffffffffffffffffffffffffffffffffff\n      and\n        /* \"contracts/KipuBank.sol\":9144:9151  owner() */\n      tag_213\n        /* \"contracts/KipuBank.sol\":9144:9149  owner */\n      tag_126\n        /* \"contracts/KipuBank.sol\":9144:9151  owner() */\n      jump\t// in\n    tag_213:\n        /* \"contracts/KipuBank.sol\":9144:9165  owner() != msg.sender */\n      0xffffffffffffffffffffffffffffffffffffffff\n      and\n      eq\n      iszero\n        /* \"contracts/KipuBank.sol\":9144:9194  owner() != msg.sender || !hasRole(rol, msg.sender) */\n      dup1\n      tag_214\n      jumpi\n      pop\n        /* \"contracts/KipuBank.sol\":9170:9194  hasRole(rol, msg.sender) */\n      tag_215\n        /* \"contracts/KipuBank.sol\":9178:9181  rol */\n      dup2\n        /* \"contracts/KipuBank.sol\":9183:9193  msg.sender */\n      caller\n        /* \"contracts/KipuBank.sol\":9170:9177  hasRole */\n      tag_131\n        /* \"contracts/KipuBank.sol\":9170:9194  hasRole(rol, msg.sender) */\n      jump\t// in\n    tag_215:\n        /* \"contracts/KipuBank.sol\":9169:9194  !hasRole(rol, msg.sender) */\n      iszero\n        /* \"contracts/KipuBank.sol\":9144:9194  owner() != msg.sender || !hasRole(rol, msg.sender) */\n    tag_214:\n        /* \"contracts/KipuBank.sol\":9141:9261  if(owner() != msg.sender || !hasRole(rol, msg.sender)) {... */\n      iszero\n      tag_216\n      jumpi\n        /* \"contracts/KipuBank.sol\":9239:9249  msg.sender */\n      caller\n        /* \"contracts/KipuBank.sol\":9217:9250  KipuBank_NoAutorizado(msg.sender) */\n      mload(0x40)\n      0x06286eaa00000000000000000000000000000000000000000000000000000000\n      dup2\n      mstore\n      0x04\n      add\n      tag_217\n      swap2\n      swap1\n      tag_45\n      jump\t// in\n    tag_217:\n      mload(0x40)\n      dup1\n      swap2\n      sub\n      swap1\n      revert\n        /* \"contracts/KipuBank.sol\":9141:9261  if(owner() != msg.sender || !hasRole(rol, msg.sender)) {... */\n    tag_216:\n        /* \"@openzeppelin/contracts/utils/Pausable.sol\":1350:1369  _requireNotPaused() */\n      tag_219\n        /* \"@openzeppelin/contracts/utils/Pausable.sol\":1350:1367  _requireNotPaused */\n      tag_204\n        /* \"@openzeppelin/contracts/utils/Pausable.sol\":1350:1369  _requireNotPaused() */\n      jump\t// in\n    tag_219:\n        /* \"contracts/KipuBank.sol\":18906:18914  _pause() */\n      tag_221\n        /* \"contracts/KipuBank.sol\":18906:18912  _pause */\n      tag_222\n        /* \"contracts/KipuBank.sol\":18906:18914  _pause() */\n      jump\t// in\n    tag_221:\n        /* \"contracts/KipuBank.sol\":18954:18964  msg.sender */\n      caller\n        /* \"contracts/KipuBank.sol\":18929:18982  KipuBank_ContratoPausado(msg.sender, block.timestamp) */\n      0xffffffffffffffffffffffffffffffffffffffff\n      and\n      0x65ab6adc87722a7acd973ffed16cba7cfdf07b5329157a7192434753ba9dac13\n        /* \"contracts/KipuBank.sol\":18966:18981  block.timestamp */\n      timestamp\n        /* \"contracts/KipuBank.sol\":18929:18982  KipuBank_ContratoPausado(msg.sender, block.timestamp) */\n      mload(0x40)\n      tag_223\n      swap2\n      swap1\n      tag_93\n      jump\t// in\n    tag_223:\n      mload(0x40)\n      dup1\n      swap2\n      sub\n      swap1\n      log2\n        /* \"contracts/KipuBank.sol\":18825:18989  function pausarContrato() external soloOwnerORol(PAUSER) whenNotPaused {... */\n      pop\n      jump\t// out\n        /* \"@openzeppelin/contracts/access/AccessControl.sol\":3786:3906  function getRoleAdmin(bytes32 role) public view virtual returns (bytes32) {... */\n    tag_70:\n        /* \"@openzeppelin/contracts/access/AccessControl.sol\":3851:3858  bytes32 */\n      0x00\n        /* \"@openzeppelin/contracts/access/AccessControl.sol\":3877:3883  _roles */\n      0x02\n        /* \"@openzeppelin/contracts/access/AccessControl.sol\":3877:3889  _roles[role] */\n      0x00\n        /* \"@openzeppelin/contracts/access/AccessControl.sol\":3884:3888  role */\n      dup4\n        /* \"@openzeppelin/contracts/access/AccessControl.sol\":3877:3889  _roles[role] */\n      dup2\n      mstore\n      0x20\n      add\n      swap1\n      dup2\n      mstore\n      0x20\n      add\n      0x00\n      keccak256\n        /* \"@openzeppelin/contracts/access/AccessControl.sol\":3877:3899  _roles[role].adminRole */\n      0x01\n      add\n      sload\n        /* \"@openzeppelin/contracts/access/AccessControl.sol\":3870:3899  return _roles[role].adminRole */\n      swap1\n      pop\n        /* \"@openzeppelin/contracts/access/AccessControl.sol\":3786:3906  function getRoleAdmin(bytes32 role) public view virtual returns (bytes32) {... */\n      swap2\n      swap1\n      pop\n      jump\t// out\n        /* \"@openzeppelin/contracts/access/AccessControl.sol\":4202:4338  function grantRole(bytes32 role, address account) public virtual onlyRole(getRoleAdmin(role)) {... */\n    tag_77:\n        /* \"@openzeppelin/contracts/access/AccessControl.sol\":4276:4294  getRoleAdmin(role) */\n      tag_225\n        /* \"@openzeppelin/contracts/access/AccessControl.sol\":4289:4293  role */\n      dup3\n        /* \"@openzeppelin/contracts/access/AccessControl.sol\":4276:4288  getRoleAdmin */\n      tag_70\n        /* \"@openzeppelin/contracts/access/AccessControl.sol\":4276:4294  getRoleAdmin(role) */\n      jump\t// in\n    tag_225:\n        /* \"@openzeppelin/contracts/access/AccessControl.sol\":2473:2489  _checkRole(role) */\n      tag_227\n        /* \"@openzeppelin/contracts/access/AccessControl.sol\":2484:2488  role */\n      dup2\n        /* \"@openzeppelin/contracts/access/AccessControl.sol\":2473:2483  _checkRole */\n      tag_228\n        /* \"@openzeppelin/contracts/access/AccessControl.sol\":2473:2489  _checkRole(role) */\n      jump\t// in\n    tag_227:\n        /* \"@openzeppelin/contracts/access/AccessControl.sol\":4306:4331  _grantRole(role, account) */\n      tag_230\n        /* \"@openzeppelin/contracts/access/AccessControl.sol\":4317:4321  role */\n      dup4\n        /* \"@openzeppelin/contracts/access/AccessControl.sol\":4323:4330  account */\n      dup4\n        /* \"@openzeppelin/contracts/access/AccessControl.sol\":4306:4316  _grantRole */\n      tag_231\n        /* \"@openzeppelin/contracts/access/AccessControl.sol\":4306:4331  _grantRole(role, account) */\n      jump\t// in\n    tag_230:\n      pop\n        /* \"@openzeppelin/contracts/access/AccessControl.sol\":4202:4338  function grantRole(bytes32 role, address account) public virtual onlyRole(getRoleAdmin(role)) {... */\n      pop\n      pop\n      pop\n      jump\t// out\n        /* \"@openzeppelin/contracts/access/AccessControl.sol\":5304:5549  function renounceRole(bytes32 role, address callerConfirmation) public virtual {... */\n    tag_81:\n        /* \"@openzeppelin/contracts/access/AccessControl.sol\":5419:5431  _msgSender() */\n      tag_233\n        /* \"@openzeppelin/contracts/access/AccessControl.sol\":5419:5429  _msgSender */\n      tag_234\n        /* \"@openzeppelin/contracts/access/AccessControl.sol\":5419:5431  _msgSender() */\n      jump\t// in\n    tag_233:\n        /* \"@openzeppelin/contracts/access/AccessControl.sol\":5397:5431  callerConfirmation != _msgSender() */\n      0xffffffffffffffffffffffffffffffffffffffff\n      and\n        /* \"@openzeppelin/contracts/access/AccessControl.sol\":5397:5415  callerConfirmation */\n      dup2\n        /* \"@openzeppelin/contracts/access/AccessControl.sol\":5397:5431  callerConfirmation != _msgSender() */\n      0xffffffffffffffffffffffffffffffffffffffff\n      and\n      eq\n        /* \"@openzeppelin/contracts/access/AccessControl.sol\":5393:5495  if (callerConfirmation != _msgSender()) {... */\n      tag_235\n      jumpi\n        /* \"@openzeppelin/contracts/access/AccessControl.sol\":5454:5484  AccessControlBadConfirmation() */\n      mload(0x40)\n      0x6697b23200000000000000000000000000000000000000000000000000000000\n      dup2\n      mstore\n      0x04\n      add\n      mload(0x40)\n      dup1\n      swap2\n      sub\n      swap1\n      revert\n        /* \"@openzeppelin/contracts/access/AccessControl.sol\":5393:5495  if (callerConfirmation != _msgSender()) {... */\n    tag_235:\n        /* \"@openzeppelin/contracts/access/AccessControl.sol\":5505:5542  _revokeRole(role, callerConfirmation) */\n      tag_236\n        /* \"@openzeppelin/contracts/access/AccessControl.sol\":5517:5521  role */\n      dup3\n        /* \"@openzeppelin/contracts/access/AccessControl.sol\":5523:5541  callerConfirmation */\n      dup3\n        /* \"@openzeppelin/contracts/access/AccessControl.sol\":5505:5516  _revokeRole */\n      tag_237\n        /* \"@openzeppelin/contracts/access/AccessControl.sol\":5505:5542  _revokeRole(role, callerConfirmation) */\n      jump\t// in\n    tag_236:\n      pop\n        /* \"@openzeppelin/contracts/access/AccessControl.sol\":5304:5549  function renounceRole(bytes32 role, address callerConfirmation) public virtual {... */\n      pop\n      pop\n      jump\t// out\n        /* \"contracts/KipuBank.sol\":19130:19299  function despausarContrato() external soloOwnerORol(PAUSER) whenPaused {... */\n    tag_84:\n        /* \"contracts/KipuBank.sol\":1028:1047  keccak256(\"PAUSER\") */\n      0x539440820030c4994db4e31b6b800deafd503688728f932addfe7a410515c14c\n        /* \"contracts/KipuBank.sol\":9155:9165  msg.sender */\n      caller\n        /* \"contracts/KipuBank.sol\":9144:9165  owner() != msg.sender */\n      0xffffffffffffffffffffffffffffffffffffffff\n      and\n        /* \"contracts/KipuBank.sol\":9144:9151  owner() */\n      tag_239\n        /* \"contracts/KipuBank.sol\":9144:9149  owner */\n      tag_126\n        /* \"contracts/KipuBank.sol\":9144:9151  owner() */\n      jump\t// in\n    tag_239:\n        /* \"contracts/KipuBank.sol\":9144:9165  owner() != msg.sender */\n      0xffffffffffffffffffffffffffffffffffffffff\n      and\n      eq\n      iszero\n        /* \"contracts/KipuBank.sol\":9144:9194  owner() != msg.sender || !hasRole(rol, msg.sender) */\n      dup1\n      tag_240\n      jumpi\n      pop\n        /* \"contracts/KipuBank.sol\":9170:9194  hasRole(rol, msg.sender) */\n      tag_241\n        /* \"contracts/KipuBank.sol\":9178:9181  rol */\n      dup2\n        /* \"contracts/KipuBank.sol\":9183:9193  msg.sender */\n      caller\n        /* \"contracts/KipuBank.sol\":9170:9177  hasRole */\n      tag_131\n        /* \"contracts/KipuBank.sol\":9170:9194  hasRole(rol, msg.sender) */\n      jump\t// in\n    tag_241:\n        /* \"contracts/KipuBank.sol\":9169:9194  !hasRole(rol, msg.sender) */\n      iszero\n        /* \"contracts/KipuBank.sol\":9144:9194  owner() != msg.sender || !hasRole(rol, msg.sender) */\n    tag_240:\n        /* \"contracts/KipuBank.sol\":9141:9261  if(owner() != msg.sender || !hasRole(rol, msg.sender)) {... */\n      iszero\n      tag_242\n      jumpi\n        /* \"contracts/KipuBank.sol\":9239:9249  msg.sender */\n      caller\n        /* \"contracts/KipuBank.sol\":9217:9250  KipuBank_NoAutorizado(msg.sender) */\n      mload(0x40)\n      0x06286eaa00000000000000000000000000000000000000000000000000000000\n      dup2\n      mstore\n      0x04\n      add\n      tag_243\n      swap2\n      swap1\n      tag_45\n      jump\t// in\n    tag_243:\n      mload(0x40)\n      dup1\n      swap2\n      sub\n      swap1\n      revert\n        /* \"contracts/KipuBank.sol\":9141:9261  if(owner() != msg.sender || !hasRole(rol, msg.sender)) {... */\n    tag_242:\n        /* \"@openzeppelin/contracts/utils/Pausable.sol\":1597:1613  _requirePaused() */\n      tag_245\n        /* \"@openzeppelin/contracts/utils/Pausable.sol\":1597:1611  _requirePaused */\n      tag_246\n        /* \"@openzeppelin/contracts/utils/Pausable.sol\":1597:1613  _requirePaused() */\n      jump\t// in\n    tag_245:\n        /* \"contracts/KipuBank.sol\":19211:19221  _unpause() */\n      tag_248\n        /* \"contracts/KipuBank.sol\":19211:19219  _unpause */\n      tag_249\n        /* \"contracts/KipuBank.sol\":19211:19221  _unpause() */\n      jump\t// in\n    tag_248:\n        /* \"contracts/KipuBank.sol\":19264:19274  msg.sender */\n      caller\n        /* \"contracts/KipuBank.sol\":19236:19292  KipuBank_ContratoDespausado(msg.sender, block.timestamp) */\n      0xffffffffffffffffffffffffffffffffffffffff\n      and\n      0x08af9cf236f4b3afb8d03262d5bef5d95db4da02aa57892cd6474e8097f4f2b7\n        /* \"contracts/KipuBank.sol\":19276:19291  block.timestamp */\n      timestamp\n        /* \"contracts/KipuBank.sol\":19236:19292  KipuBank_ContratoDespausado(msg.sender, block.timestamp) */\n      mload(0x40)\n      tag_250\n      swap2\n      swap1\n      tag_93\n      jump\t// in\n    tag_250:\n      mload(0x40)\n      dup1\n      swap2\n      sub\n      swap1\n      log2\n        /* \"contracts/KipuBank.sol\":19130:19299  function despausarContrato() external soloOwnerORol(PAUSER) whenPaused {... */\n      pop\n      jump\t// out\n        /* \"@openzeppelin/contracts/utils/Pausable.sol\":1726:1810  function paused() public view virtual returns (bool) {... */\n    tag_87:\n        /* \"@openzeppelin/contracts/utils/Pausable.sol\":1773:1777  bool */\n      0x00\n        /* \"@openzeppelin/contracts/utils/Pausable.sol\":1796:1803  _paused */\n      0x01\n      0x14\n      swap1\n      sload\n      swap1\n      0x0100\n      exp\n      swap1\n      div\n      0xff\n      and\n        /* \"@openzeppelin/contracts/utils/Pausable.sol\":1789:1803  return _paused */\n      swap1\n      pop\n        /* \"@openzeppelin/contracts/utils/Pausable.sol\":1726:1810  function paused() public view virtual returns (bool) {... */\n      swap1\n      jump\t// out\n        /* \"contracts/KipuBank.sol\":15572:15766  function verBoveda() external view returns (uint monto_) {... */\n    tag_91:\n        /* \"contracts/KipuBank.sol\":15616:15627  uint monto_ */\n      0x00\n        /* \"contracts/KipuBank.sol\":15712:15730  _cuentasMultiToken */\n      0x07\n        /* \"contracts/KipuBank.sol\":15712:15747  _cuentasMultiToken[address(i_usdc)] */\n      0x00\n        /* \"contracts/KipuBank.sol\":15739:15745  i_usdc */\n      immutable(\"0x70ebf73cb6f1a1207279604d754513a029c2ff46f9198374b0ad04887dd2881e\")\n        /* \"contracts/KipuBank.sol\":15712:15747  _cuentasMultiToken[address(i_usdc)] */\n      0xffffffffffffffffffffffffffffffffffffffff\n      and\n      0xffffffffffffffffffffffffffffffffffffffff\n      and\n      dup2\n      mstore\n      0x20\n      add\n      swap1\n      dup2\n      mstore\n      0x20\n      add\n      0x00\n      keccak256\n        /* \"contracts/KipuBank.sol\":15712:15759  _cuentasMultiToken[address(i_usdc)][msg.sender] */\n      0x00\n        /* \"contracts/KipuBank.sol\":15748:15758  msg.sender */\n      caller\n        /* \"contracts/KipuBank.sol\":15712:15759  _cuentasMultiToken[address(i_usdc)][msg.sender] */\n      0xffffffffffffffffffffffffffffffffffffffff\n      and\n      0xffffffffffffffffffffffffffffffffffffffff\n      and\n      dup2\n      mstore\n      0x20\n      add\n      swap1\n      dup2\n      mstore\n      0x20\n      add\n      0x00\n      keccak256\n      sload\n        /* \"contracts/KipuBank.sol\":15648:15709  convertirEthEnUSD(_cuentasMultiToken[address(0)][msg.sender]) */\n      tag_253\n        /* \"contracts/KipuBank.sol\":15666:15684  _cuentasMultiToken */\n      0x07\n        /* \"contracts/KipuBank.sol\":15666:15696  _cuentasMultiToken[address(0)] */\n      0x00\n        /* \"contracts/KipuBank.sol\":15693:15694  0 */\n      0x00\n        /* \"contracts/KipuBank.sol\":15666:15696  _cuentasMultiToken[address(0)] */\n      0xffffffffffffffffffffffffffffffffffffffff\n      and\n      0xffffffffffffffffffffffffffffffffffffffff\n      and\n      dup2\n      mstore\n      0x20\n      add\n      swap1\n      dup2\n      mstore\n      0x20\n      add\n      0x00\n      keccak256\n        /* \"contracts/KipuBank.sol\":15666:15708  _cuentasMultiToken[address(0)][msg.sender] */\n      0x00\n        /* \"contracts/KipuBank.sol\":15697:15707  msg.sender */\n      caller\n        /* \"contracts/KipuBank.sol\":15666:15708  _cuentasMultiToken[address(0)][msg.sender] */\n      0xffffffffffffffffffffffffffffffffffffffff\n      and\n      0xffffffffffffffffffffffffffffffffffffffff\n      and\n      dup2\n      mstore\n      0x20\n      add\n      swap1\n      dup2\n      mstore\n      0x20\n      add\n      0x00\n      keccak256\n      sload\n        /* \"contracts/KipuBank.sol\":15648:15665  convertirEthEnUSD */\n      tag_195\n        /* \"contracts/KipuBank.sol\":15648:15709  convertirEthEnUSD(_cuentasMultiToken[address(0)][msg.sender]) */\n      jump\t// in\n    tag_253:\n        /* \"contracts/KipuBank.sol\":15648:15759  convertirEthEnUSD(_cuentasMultiToken[address(0)][msg.sender]) + _cuentasMultiToken[address(i_usdc)][msg.sender] */\n      tag_254\n      swap2\n      swap1\n      tag_199\n      jump\t// in\n    tag_254:\n        /* \"contracts/KipuBank.sol\":15639:15759  monto_ = convertirEthEnUSD(_cuentasMultiToken[address(0)][msg.sender]) + _cuentasMultiToken[address(i_usdc)][msg.sender] */\n      swap1\n      pop\n        /* \"contracts/KipuBank.sol\":15572:15766  function verBoveda() external view returns (uint monto_) {... */\n      swap1\n      jump\t// out\n        /* \"contracts/KipuBank.sol\":14943:15391  function depositarUSDC(uint _monto) external verificarDepositoUSDC(_monto) whenNotPaused {... */\n    tag_98:\n        /* \"contracts/KipuBank.sol\":15010:15016  _monto */\n      dup1\n        /* \"contracts/KipuBank.sol\":9841:9842  0 */\n      0x00\n        /* \"contracts/KipuBank.sol\":9831:9837  _monto */\n      dup2\n        /* \"contracts/KipuBank.sol\":9831:9842  _monto == 0 */\n      sub\n        /* \"contracts/KipuBank.sol\":9828:9881  if(_monto == 0) revert KipuBank_MontoCero(msg.sender) */\n      tag_256\n      jumpi\n        /* \"contracts/KipuBank.sol\":9870:9880  msg.sender */\n      caller\n        /* \"contracts/KipuBank.sol\":9851:9881  KipuBank_MontoCero(msg.sender) */\n      mload(0x40)\n      0xb2f0923100000000000000000000000000000000000000000000000000000000\n      dup2\n      mstore\n      0x04\n      add\n      tag_257\n      swap2\n      swap1\n      tag_45\n      jump\t// in\n    tag_257:\n      mload(0x40)\n      dup1\n      swap2\n      sub\n      swap1\n      revert\n        /* \"contracts/KipuBank.sol\":9828:9881  if(_monto == 0) revert KipuBank_MontoCero(msg.sender) */\n    tag_256:\n        /* \"contracts/KipuBank.sol\":9921:9930  i_bankCap */\n      immutable(\"0x56af87718ac6246bac727726c33ea64d0935502347b4fd185bbadeb5f3fb92bd\")\n        /* \"contracts/KipuBank.sol\":9904:9918  _totalContrato */\n      sload(0x06)\n        /* \"contracts/KipuBank.sol\":9895:9901  _monto */\n      dup3\n        /* \"contracts/KipuBank.sol\":9895:9918  _monto + _totalContrato */\n      tag_258\n      swap2\n      swap1\n      tag_199\n      jump\t// in\n    tag_258:\n        /* \"contracts/KipuBank.sol\":9895:9930  _monto + _totalContrato > i_bankCap */\n      gt\n        /* \"contracts/KipuBank.sol\":9891:9970  if (_monto + _totalContrato > i_bankCap) revert KipuBank_LimiteExcedido(_monto) */\n      iszero\n      tag_259\n      jumpi\n        /* \"contracts/KipuBank.sol\":9963:9969  _monto */\n      dup1\n        /* \"contracts/KipuBank.sol\":9939:9970  KipuBank_LimiteExcedido(_monto) */\n      mload(0x40)\n      0x2900b02c00000000000000000000000000000000000000000000000000000000\n      dup2\n      mstore\n      0x04\n      add\n      tag_260\n      swap2\n      swap1\n      tag_93\n      jump\t// in\n    tag_260:\n      mload(0x40)\n      dup1\n      swap2\n      sub\n      swap1\n      revert\n        /* \"contracts/KipuBank.sol\":9891:9970  if (_monto + _totalContrato > i_bankCap) revert KipuBank_LimiteExcedido(_monto) */\n    tag_259:\n        /* \"@openzeppelin/contracts/utils/Pausable.sol\":1350:1369  _requireNotPaused() */\n      tag_262\n        /* \"@openzeppelin/contracts/utils/Pausable.sol\":1350:1367  _requireNotPaused */\n      tag_204\n        /* \"@openzeppelin/contracts/utils/Pausable.sol\":1350:1369  _requireNotPaused() */\n      jump\t// in\n    tag_262:\n        /* \"contracts/KipuBank.sol\":15042:15048  i_usdc */\n      immutable(\"0x70ebf73cb6f1a1207279604d754513a029c2ff46f9198374b0ad04887dd2881e\")\n        /* \"contracts/KipuBank.sol\":15042:15056  i_usdc.approve */\n      0xffffffffffffffffffffffffffffffffffffffff\n      and\n      0x095ea7b3\n        /* \"contracts/KipuBank.sol\":15065:15069  this */\n      address\n        /* \"contracts/KipuBank.sol\":15072:15078  _monto */\n      dup5\n        /* \"contracts/KipuBank.sol\":15042:15079  i_usdc.approve(address(this), _monto) */\n      mload(0x40)\n      dup4\n      0xffffffff\n      and\n      0xe0\n      shl\n      dup2\n      mstore\n      0x04\n      add\n      tag_264\n      swap3\n      swap2\n      swap1\n      tag_265\n      jump\t// in\n    tag_264:\n      0x20\n      mload(0x40)\n      dup1\n      dup4\n      sub\n      dup2\n      0x00\n      dup8\n      gas\n      call\n      iszero\n      dup1\n      iszero\n      tag_267\n      jumpi\n      returndatacopy(0x00, 0x00, returndatasize)\n      revert(0x00, returndatasize)\n    tag_267:\n      pop\n      pop\n      pop\n      pop\n      mload(0x40)\n      returndatasize\n      not(0x1f)\n      0x1f\n      dup3\n      add\n      and\n      dup3\n      add\n      dup1\n      0x40\n      mstore\n      pop\n      dup2\n      add\n      swap1\n      tag_268\n      swap2\n      swap1\n      tag_269\n      jump\t// in\n    tag_268:\n      pop\n        /* \"contracts/KipuBank.sol\":15089:15095  i_usdc */\n      immutable(\"0x70ebf73cb6f1a1207279604d754513a029c2ff46f9198374b0ad04887dd2881e\")\n        /* \"contracts/KipuBank.sol\":15089:15105  i_usdc.allowance */\n      0xffffffffffffffffffffffffffffffffffffffff\n      and\n      0xdd62ed3e\n        /* \"contracts/KipuBank.sol\":15106:15116  msg.sender */\n      caller\n        /* \"contracts/KipuBank.sol\":15126:15130  this */\n      address\n        /* \"contracts/KipuBank.sol\":15089:15132  i_usdc.allowance(msg.sender, address(this)) */\n      mload(0x40)\n      dup4\n      0xffffffff\n      and\n      0xe0\n      shl\n      dup2\n      mstore\n      0x04\n      add\n      tag_270\n      swap3\n      swap2\n      swap1\n      tag_271\n      jump\t// in\n    tag_270:\n      0x20\n      mload(0x40)\n      dup1\n      dup4\n      sub\n      dup2\n      dup7\n      gas\n      staticcall\n      iszero\n      dup1\n      iszero\n      tag_273\n      jumpi\n      returndatacopy(0x00, 0x00, returndatasize)\n      revert(0x00, returndatasize)\n    tag_273:\n      pop\n      pop\n      pop\n      pop\n      mload(0x40)\n      returndatasize\n      not(0x1f)\n      0x1f\n      dup3\n      add\n      and\n      dup3\n      add\n      dup1\n      0x40\n      mstore\n      pop\n      dup2\n      add\n      swap1\n      tag_274\n      swap2\n      swap1\n      tag_275\n      jump\t// in\n    tag_274:\n      pop\n        /* \"contracts/KipuBank.sol\":15193:15199  _monto */\n      dup2\n        /* \"contracts/KipuBank.sol\":15142:15160  _cuentasMultiToken */\n      0x07\n        /* \"contracts/KipuBank.sol\":15142:15177  _cuentasMultiToken[address(i_usdc)] */\n      0x00\n        /* \"contracts/KipuBank.sol\":15169:15175  i_usdc */\n      immutable(\"0x70ebf73cb6f1a1207279604d754513a029c2ff46f9198374b0ad04887dd2881e\")\n        /* \"contracts/KipuBank.sol\":15142:15177  _cuentasMultiToken[address(i_usdc)] */\n      0xffffffffffffffffffffffffffffffffffffffff\n      and\n      0xffffffffffffffffffffffffffffffffffffffff\n      and\n      dup2\n      mstore\n      0x20\n      add\n      swap1\n      dup2\n      mstore\n      0x20\n      add\n      0x00\n      keccak256\n        /* \"contracts/KipuBank.sol\":15142:15189  _cuentasMultiToken[address(i_usdc)][msg.sender] */\n      0x00\n        /* \"contracts/KipuBank.sol\":15178:15188  msg.sender */\n      caller\n        /* \"contracts/KipuBank.sol\":15142:15189  _cuentasMultiToken[address(i_usdc)][msg.sender] */\n      0xffffffffffffffffffffffffffffffffffffffff\n      and\n      0xffffffffffffffffffffffffffffffffffffffff\n      and\n      dup2\n      mstore\n      0x20\n      add\n      swap1\n      dup2\n      mstore\n      0x20\n      add\n      0x00\n      keccak256\n      0x00\n        /* \"contracts/KipuBank.sol\":15142:15199  _cuentasMultiToken[address(i_usdc)][msg.sender] += _monto */\n      dup3\n      dup3\n      sload\n      tag_276\n      swap2\n      swap1\n      tag_199\n      jump\t// in\n    tag_276:\n      swap3\n      pop\n      pop\n      dup2\n      swap1\n      sstore\n      pop\n        /* \"contracts/KipuBank.sol\":15209:15219  _depositos */\n      0x04\n      0x00\n        /* \"contracts/KipuBank.sol\":15209:15221  _depositos++ */\n      dup2\n      sload\n      dup1\n      swap3\n      swap2\n      swap1\n      tag_277\n      swap1\n      tag_209\n      jump\t// in\n    tag_277:\n      swap2\n      swap1\n      pop\n      sstore\n      pop\n        /* \"contracts/KipuBank.sol\":15249:15255  _monto */\n      dup2\n        /* \"contracts/KipuBank.sol\":15231:15245  _totalContrato */\n      0x06\n      0x00\n        /* \"contracts/KipuBank.sol\":15231:15255  _totalContrato += _monto */\n      dup3\n      dup3\n      sload\n      tag_278\n      swap2\n      swap1\n      tag_199\n      jump\t// in\n    tag_278:\n      swap3\n      pop\n      pop\n      dup2\n      swap1\n      sstore\n      pop\n        /* \"contracts/KipuBank.sol\":15297:15307  msg.sender */\n      caller\n        /* \"contracts/KipuBank.sol\":15270:15316  KipuBank_DepositoRealizado(msg.sender, _monto) */\n      0xffffffffffffffffffffffffffffffffffffffff\n      and\n      0x9d15693852bf60dc27bd5aa831d0351359b7d01d428ae1baae11f15cbcfebafd\n        /* \"contracts/KipuBank.sol\":15309:15315  _monto */\n      dup4\n        /* \"contracts/KipuBank.sol\":15270:15316  KipuBank_DepositoRealizado(msg.sender, _monto) */\n      mload(0x40)\n      tag_279\n      swap2\n      swap1\n      tag_93\n      jump\t// in\n    tag_279:\n      mload(0x40)\n      dup1\n      swap2\n      sub\n      swap1\n      log2\n        /* \"contracts/KipuBank.sol\":15326:15384  i_usdc.safeTransferFrom(msg.sender, address(this), _monto) */\n      tag_280\n        /* \"contracts/KipuBank.sol\":15350:15360  msg.sender */\n      caller\n        /* \"contracts/KipuBank.sol\":15370:15374  this */\n      address\n        /* \"contracts/KipuBank.sol\":15377:15383  _monto */\n      dup5\n        /* \"contracts/KipuBank.sol\":15326:15332  i_usdc */\n      immutable(\"0x70ebf73cb6f1a1207279604d754513a029c2ff46f9198374b0ad04887dd2881e\")\n        /* \"contracts/KipuBank.sol\":15326:15349  i_usdc.safeTransferFrom */\n      0xffffffffffffffffffffffffffffffffffffffff\n      and\n      tag_281\n      swap1\n        /* \"contracts/KipuBank.sol\":15326:15384  i_usdc.safeTransferFrom(msg.sender, address(this), _monto) */\n      swap4\n      swap3\n      swap2\n      swap1\n      0xffffffff\n      and\n      jump\t// in\n    tag_280:\n        /* \"contracts/KipuBank.sol\":14943:15391  function depositarUSDC(uint _monto) external verificarDepositoUSDC(_monto) whenNotPaused {... */\n      pop\n      pop\n      jump\t// out\n        /* \"contracts/KipuBank.sol\":1569:1604  AggregatorV3Interface public s_feed */\n    tag_101:\n      0x03\n      0x00\n      swap1\n      sload\n      swap1\n      0x0100\n      exp\n      swap1\n      div\n      0xffffffffffffffffffffffffffffffffffffffff\n      and\n      dup2\n      jump\t// out\n        /* \"@openzeppelin/contracts/access/Ownable.sol\":2293:2394  function renounceOwnership() public virtual onlyOwner {... */\n    tag_106:\n        /* \"@openzeppelin/contracts/access/Ownable.sol\":1531:1544  _checkOwner() */\n      tag_283\n        /* \"@openzeppelin/contracts/access/Ownable.sol\":1531:1542  _checkOwner */\n      tag_284\n        /* \"@openzeppelin/contracts/access/Ownable.sol\":1531:1544  _checkOwner() */\n      jump\t// in\n    tag_283:\n        /* \"@openzeppelin/contracts/access/Ownable.sol\":2357:2387  _transferOwnership(address(0)) */\n      tag_286\n        /* \"@openzeppelin/contracts/access/Ownable.sol\":2384:2385  0 */\n      0x00\n        /* \"@openzeppelin/contracts/access/Ownable.sol\":2357:2375  _transferOwnership */\n      tag_287\n        /* \"@openzeppelin/contracts/access/Ownable.sol\":2357:2387  _transferOwnership(address(0)) */\n      jump\t// in\n    tag_286:\n        /* \"@openzeppelin/contracts/access/Ownable.sol\":2293:2394  function renounceOwnership() public virtual onlyOwner {... */\n      jump\t// out\n        /* \"contracts/KipuBank.sol\":16128:16255  function verSaldoETH() external view returns (uint saldo_) {... */\n    tag_109:\n        /* \"contracts/KipuBank.sol\":16174:16185  uint saldo_ */\n      0x00\n        /* \"contracts/KipuBank.sol\":16206:16224  _cuentasMultiToken */\n      0x07\n        /* \"contracts/KipuBank.sol\":16206:16236  _cuentasMultiToken[address(0)] */\n      0x00\n        /* \"contracts/KipuBank.sol\":16233:16234  0 */\n      0x00\n        /* \"contracts/KipuBank.sol\":16206:16236  _cuentasMultiToken[address(0)] */\n      0xffffffffffffffffffffffffffffffffffffffff\n      and\n      0xffffffffffffffffffffffffffffffffffffffff\n      and\n      dup2\n      mstore\n      0x20\n      add\n      swap1\n      dup2\n      mstore\n      0x20\n      add\n      0x00\n      keccak256\n        /* \"contracts/KipuBank.sol\":16206:16248  _cuentasMultiToken[address(0)][msg.sender] */\n      0x00\n        /* \"contracts/KipuBank.sol\":16237:16247  msg.sender */\n      caller\n        /* \"contracts/KipuBank.sol\":16206:16248  _cuentasMultiToken[address(0)][msg.sender] */\n      0xffffffffffffffffffffffffffffffffffffffff\n      and\n      0xffffffffffffffffffffffffffffffffffffffff\n      and\n      dup2\n      mstore\n      0x20\n      add\n      swap1\n      dup2\n      mstore\n      0x20\n      add\n      0x00\n      keccak256\n      sload\n        /* \"contracts/KipuBank.sol\":16197:16248  saldo_ = _cuentasMultiToken[address(0)][msg.sender] */\n      swap1\n      pop\n        /* \"contracts/KipuBank.sol\":16128:16255  function verSaldoETH() external view returns (uint saldo_) {... */\n      swap1\n      jump\t// out\n        /* \"contracts/KipuBank.sol\":17897:18687  function setFeeds(address _nuevoFeed) external soloOwnerORol(FEED_MANAGER) whenPaused {... */\n    tag_115:\n        /* \"contracts/KipuBank.sol\":1142:1167  keccak256(\"FEED_MANAGER\") */\n      0x9bbb3ee3bdfbe971682b08854a620ca4bf696f8e0c269e5c5b129a18e64d29df\n        /* \"contracts/KipuBank.sol\":9155:9165  msg.sender */\n      caller\n        /* \"contracts/KipuBank.sol\":9144:9165  owner() != msg.sender */\n      0xffffffffffffffffffffffffffffffffffffffff\n      and\n        /* \"contracts/KipuBank.sol\":9144:9151  owner() */\n      tag_290\n        /* \"contracts/KipuBank.sol\":9144:9149  owner */\n      tag_126\n        /* \"contracts/KipuBank.sol\":9144:9151  owner() */\n      jump\t// in\n    tag_290:\n        /* \"contracts/KipuBank.sol\":9144:9165  owner() != msg.sender */\n      0xffffffffffffffffffffffffffffffffffffffff\n      and\n      eq\n      iszero\n        /* \"contracts/KipuBank.sol\":9144:9194  owner() != msg.sender || !hasRole(rol, msg.sender) */\n      dup1\n      tag_291\n      jumpi\n      pop\n        /* \"contracts/KipuBank.sol\":9170:9194  hasRole(rol, msg.sender) */\n      tag_292\n        /* \"contracts/KipuBank.sol\":9178:9181  rol */\n      dup2\n        /* \"contracts/KipuBank.sol\":9183:9193  msg.sender */\n      caller\n        /* \"contracts/KipuBank.sol\":9170:9177  hasRole */\n      tag_131\n        /* \"contracts/KipuBank.sol\":9170:9194  hasRole(rol, msg.sender) */\n      jump\t// in\n    tag_292:\n        /* \"contracts/KipuBank.sol\":9169:9194  !hasRole(rol, msg.sender) */\n      iszero\n        /* \"contracts/KipuBank.sol\":9144:9194  owner() != msg.sender || !hasRole(rol, msg.sender) */\n    tag_291:\n        /* \"contracts/KipuBank.sol\":9141:9261  if(owner() != msg.sender || !hasRole(rol, msg.sender)) {... */\n      iszero\n      tag_293\n      jumpi\n        /* \"contracts/KipuBank.sol\":9239:9249  msg.sender */\n      caller\n        /* \"contracts/KipuBank.sol\":9217:9250  KipuBank_NoAutorizado(msg.sender) */\n      mload(0x40)\n      0x06286eaa00000000000000000000000000000000000000000000000000000000\n      dup2\n      mstore\n      0x04\n      add\n      tag_294\n      swap2\n      swap1\n      tag_45\n      jump\t// in\n    tag_294:\n      mload(0x40)\n      dup1\n      swap2\n      sub\n      swap1\n      revert\n        /* \"contracts/KipuBank.sol\":9141:9261  if(owner() != msg.sender || !hasRole(rol, msg.sender)) {... */\n    tag_293:\n        /* \"@openzeppelin/contracts/utils/Pausable.sol\":1597:1613  _requirePaused() */\n      tag_296\n        /* \"@openzeppelin/contracts/utils/Pausable.sol\":1597:1611  _requirePaused */\n      tag_246\n        /* \"@openzeppelin/contracts/utils/Pausable.sol\":1597:1613  _requirePaused() */\n      jump\t// in\n    tag_296:\n        /* \"contracts/KipuBank.sol\":18019:18020  0 */\n      0x00\n        /* \"contracts/KipuBank.sol\":17997:18021  _nuevoFeed == address(0) */\n      0xffffffffffffffffffffffffffffffffffffffff\n      and\n        /* \"contracts/KipuBank.sol\":17997:18007  _nuevoFeed */\n      dup3\n        /* \"contracts/KipuBank.sol\":17997:18021  _nuevoFeed == address(0) */\n      0xffffffffffffffffffffffffffffffffffffffff\n      and\n      sub\n        /* \"contracts/KipuBank.sol\":17993:18058  if (_nuevoFeed == address(0)) revert KipuBank_DireccionInvalida() */\n      tag_298\n      jumpi\n        /* \"contracts/KipuBank.sol\":18030:18058  KipuBank_DireccionInvalida() */\n      mload(0x40)\n      0x463858d600000000000000000000000000000000000000000000000000000000\n      dup2\n      mstore\n      0x04\n      add\n      mload(0x40)\n      dup1\n      swap2\n      sub\n      swap1\n      revert\n        /* \"contracts/KipuBank.sol\":17993:18058  if (_nuevoFeed == address(0)) revert KipuBank_DireccionInvalida() */\n    tag_298:\n        /* \"contracts/KipuBank.sol\":18095:18105  _nuevoFeed */\n      dup2\n        /* \"contracts/KipuBank.sol\":18073:18122  AggregatorV3Interface(_nuevoFeed).latestRoundData */\n      0xffffffffffffffffffffffffffffffffffffffff\n      and\n      0xfeaf968c\n        /* \"contracts/KipuBank.sol\":18073:18124  AggregatorV3Interface(_nuevoFeed).latestRoundData() */\n      mload(0x40)\n      dup2\n      0xffffffff\n      and\n      0xe0\n      shl\n      dup2\n      mstore\n      0x04\n      add\n      0xa0\n      mload(0x40)\n      dup1\n      dup4\n      sub\n      dup2\n      dup7\n      gas\n      staticcall\n      swap3\n      pop\n      pop\n      pop\n      dup1\n      iszero\n      tag_299\n      jumpi\n      pop\n      mload(0x40)\n      returndatasize\n      not(0x1f)\n      0x1f\n      dup3\n      add\n      and\n      dup3\n      add\n      dup1\n      0x40\n      mstore\n      pop\n      dup2\n      add\n      swap1\n      tag_300\n      swap2\n      swap1\n      tag_301\n      jump\t// in\n    tag_300:\n      0x01\n    tag_299:\n        /* \"contracts/KipuBank.sol\":18069:18673  try AggregatorV3Interface(_nuevoFeed).latestRoundData() returns (... */\n      tag_302\n      jumpi\n        /* \"contracts/KipuBank.sol\":18651:18661  _nuevoFeed */\n      dup2\n        /* \"contracts/KipuBank.sol\":18629:18662  KipuBank_FeedInvalido(_nuevoFeed) */\n      mload(0x40)\n      0x59eea31500000000000000000000000000000000000000000000000000000000\n      dup2\n      mstore\n      0x04\n      add\n      tag_306\n      swap2\n      swap1\n      tag_45\n      jump\t// in\n    tag_306:\n      mload(0x40)\n      dup1\n      swap2\n      sub\n      swap1\n      revert\n        /* \"contracts/KipuBank.sol\":18069:18673  try AggregatorV3Interface(_nuevoFeed).latestRoundData() returns (... */\n    tag_302:\n        /* \"contracts/KipuBank.sol\":18239:18240  0 */\n      0x00\n        /* \"contracts/KipuBank.sol\":18230:18235  price */\n      dup5\n        /* \"contracts/KipuBank.sol\":18230:18240  price <= 0 */\n      sgt\n        /* \"contracts/KipuBank.sol\":18227:18282  if(price <= 0) revert KipuBank_FeedInvalido(_nuevoFeed) */\n      tag_308\n      jumpi\n        /* \"contracts/KipuBank.sol\":18271:18281  _nuevoFeed */\n      dup7\n        /* \"contracts/KipuBank.sol\":18249:18282  KipuBank_FeedInvalido(_nuevoFeed) */\n      mload(0x40)\n      0x59eea31500000000000000000000000000000000000000000000000000000000\n      dup2\n      mstore\n      0x04\n      add\n      tag_309\n      swap2\n      swap1\n      tag_45\n      jump\t// in\n    tag_309:\n      mload(0x40)\n      dup1\n      swap2\n      sub\n      swap1\n      revert\n        /* \"contracts/KipuBank.sol\":18227:18282  if(price <= 0) revert KipuBank_FeedInvalido(_nuevoFeed) */\n    tag_308:\n        /* \"contracts/KipuBank.sol\":1752:1756  3600 */\n      0x0e10\n        /* \"contracts/KipuBank.sol\":18311:18349  block.timestamp - updateAt > HEARTBEAT */\n      0xffff\n      and\n        /* \"contracts/KipuBank.sol\":18329:18337  updateAt */\n      dup3\n        /* \"contracts/KipuBank.sol\":18311:18326  block.timestamp */\n      timestamp\n        /* \"contracts/KipuBank.sol\":18311:18337  block.timestamp - updateAt */\n      tag_310\n      swap2\n      swap1\n      tag_311\n      jump\t// in\n    tag_310:\n        /* \"contracts/KipuBank.sol\":18311:18349  block.timestamp - updateAt > HEARTBEAT */\n      gt\n        /* \"contracts/KipuBank.sol\":18308:18400  if(block.timestamp - updateAt > HEARTBEAT) revert KipuBank_PrecioDesactualizado(uint(price)) */\n      iszero\n      tag_312\n      jumpi\n        /* \"contracts/KipuBank.sol\":18393:18398  price */\n      dup4\n        /* \"contracts/KipuBank.sol\":18358:18400  KipuBank_PrecioDesactualizado(uint(price)) */\n      mload(0x40)\n      0x2609a26500000000000000000000000000000000000000000000000000000000\n      dup2\n      mstore\n      0x04\n      add\n      tag_313\n      swap2\n      swap1\n      tag_93\n      jump\t// in\n    tag_313:\n      mload(0x40)\n      dup1\n      swap2\n      sub\n      swap1\n      revert\n        /* \"contracts/KipuBank.sol\":18308:18400  if(block.timestamp - updateAt > HEARTBEAT) revert KipuBank_PrecioDesactualizado(uint(price)) */\n    tag_312:\n        /* \"contracts/KipuBank.sol\":18427:18447  address feedAnterior */\n      0x00\n        /* \"contracts/KipuBank.sol\":18458:18464  s_feed */\n      0x03\n      0x00\n      swap1\n      sload\n      swap1\n      0x0100\n      exp\n      swap1\n      div\n      0xffffffffffffffffffffffffffffffffffffffff\n      and\n        /* \"contracts/KipuBank.sol\":18427:18465  address feedAnterior = address(s_feed) */\n      swap1\n      pop\n        /* \"contracts/KipuBank.sol\":18510:18520  _nuevoFeed */\n      dup8\n        /* \"contracts/KipuBank.sol\":18479:18485  s_feed */\n      0x03\n      0x00\n        /* \"contracts/KipuBank.sol\":18479:18521  s_feed = AggregatorV3Interface(_nuevoFeed) */\n      0x0100\n      exp\n      dup2\n      sload\n      dup2\n      0xffffffffffffffffffffffffffffffffffffffff\n      mul\n      not\n      and\n      swap1\n      dup4\n      0xffffffffffffffffffffffffffffffffffffffff\n      and\n      mul\n      or\n      swap1\n      sstore\n      pop\n        /* \"contracts/KipuBank.sol\":18579:18589  _nuevoFeed */\n      dup8\n        /* \"contracts/KipuBank.sol\":18540:18590  KipuBank_FeedActualizado(feedAnterior, _nuevoFeed) */\n      0xffffffffffffffffffffffffffffffffffffffff\n      and\n        /* \"contracts/KipuBank.sol\":18565:18577  feedAnterior */\n      dup2\n        /* \"contracts/KipuBank.sol\":18540:18590  KipuBank_FeedActualizado(feedAnterior, _nuevoFeed) */\n      0xffffffffffffffffffffffffffffffffffffffff\n      and\n      0x03028d95bd98a5ec8c81b55c2b61e734dde89bb773697b429bd195fd00582b30\n      mload(0x40)\n      mload(0x40)\n      dup1\n      swap2\n      sub\n      swap1\n      log3\n        /* \"contracts/KipuBank.sol\":18213:18601  {... */\n      pop\n        /* \"contracts/KipuBank.sol\":18125:18601  returns (... */\n      pop\n      pop\n      pop\n      pop\n      pop\n        /* \"contracts/KipuBank.sol\":17897:18687  function setFeeds(address _nuevoFeed) external soloOwnerORol(FEED_MANAGER) whenPaused {... */\n      pop\n      pop\n      jump\t// out\n        /* \"contracts/KipuBank.sol\":13776:13874  function retirarETH(uint _monto) external whenNotPaused {... */\n    tag_119:\n        /* \"@openzeppelin/contracts/utils/Pausable.sol\":1350:1369  _requireNotPaused() */\n      tag_315\n        /* \"@openzeppelin/contracts/utils/Pausable.sol\":1350:1367  _requireNotPaused */\n      tag_204\n        /* \"@openzeppelin/contracts/utils/Pausable.sol\":1350:1369  _requireNotPaused() */\n      jump\t// in\n    tag_315:\n        /* \"contracts/KipuBank.sol\":13842:13867  _retirarFondosETH(_monto) */\n      tag_317\n        /* \"contracts/KipuBank.sol\":13860:13866  _monto */\n      dup2\n        /* \"contracts/KipuBank.sol\":13842:13859  _retirarFondosETH */\n      tag_318\n        /* \"contracts/KipuBank.sol\":13842:13867  _retirarFondosETH(_monto) */\n      jump\t// in\n    tag_317:\n        /* \"contracts/KipuBank.sol\":13776:13874  function retirarETH(uint _monto) external whenNotPaused {... */\n      pop\n      jump\t// out\n        /* \"contracts/KipuBank.sol\":17147:17674  function transferirOwner(address _nuevoOwner) external onlyOwner whenPaused {... */\n    tag_123:\n        /* \"@openzeppelin/contracts/access/Ownable.sol\":1531:1544  _checkOwner() */\n      tag_320\n        /* \"@openzeppelin/contracts/access/Ownable.sol\":1531:1542  _checkOwner */\n      tag_284\n        /* \"@openzeppelin/contracts/access/Ownable.sol\":1531:1544  _checkOwner() */\n      jump\t// in\n    tag_320:\n        /* \"@openzeppelin/contracts/utils/Pausable.sol\":1597:1613  _requirePaused() */\n      tag_322\n        /* \"@openzeppelin/contracts/utils/Pausable.sol\":1597:1611  _requirePaused */\n      tag_246\n        /* \"@openzeppelin/contracts/utils/Pausable.sol\":1597:1613  _requirePaused() */\n      jump\t// in\n    tag_322:\n        /* \"contracts/KipuBank.sol\":17242:17261  address ownerActual */\n      0x00\n        /* \"contracts/KipuBank.sol\":17264:17271  owner() */\n      tag_324\n        /* \"contracts/KipuBank.sol\":17264:17269  owner */\n      tag_126\n        /* \"contracts/KipuBank.sol\":17264:17271  owner() */\n      jump\t// in\n    tag_324:\n        /* \"contracts/KipuBank.sol\":17242:17271  address ownerActual = owner() */\n      swap1\n      pop\n        /* \"contracts/KipuBank.sol\":17282:17326  _revokeRole(DEFAULT_ADMIN_ROLE, ownerActual) */\n      tag_325\n        /* \"@openzeppelin/contracts/access/AccessControl.sol\":2241:2245  0x00 */\n      0x00\n        /* \"contracts/KipuBank.sol\":17294:17312  DEFAULT_ADMIN_ROLE */\n      0x00\n      shl\n        /* \"contracts/KipuBank.sol\":17314:17325  ownerActual */\n      dup3\n        /* \"contracts/KipuBank.sol\":17282:17293  _revokeRole */\n      tag_237\n        /* \"contracts/KipuBank.sol\":17282:17326  _revokeRole(DEFAULT_ADMIN_ROLE, ownerActual) */\n      jump\t// in\n    tag_325:\n      pop\n        /* \"contracts/KipuBank.sol\":17336:17368  _revokeRole(PAUSER, ownerActual) */\n      tag_326\n        /* \"contracts/KipuBank.sol\":1028:1047  keccak256(\"PAUSER\") */\n      0x539440820030c4994db4e31b6b800deafd503688728f932addfe7a410515c14c\n        /* \"contracts/KipuBank.sol\":17356:17367  ownerActual */\n      dup3\n        /* \"contracts/KipuBank.sol\":17336:17347  _revokeRole */\n      tag_237\n        /* \"contracts/KipuBank.sol\":17336:17368  _revokeRole(PAUSER, ownerActual) */\n      jump\t// in\n    tag_326:\n      pop\n        /* \"contracts/KipuBank.sol\":17378:17416  _revokeRole(FEED_MANAGER, ownerActual) */\n      tag_327\n        /* \"contracts/KipuBank.sol\":1142:1167  keccak256(\"FEED_MANAGER\") */\n      0x9bbb3ee3bdfbe971682b08854a620ca4bf696f8e0c269e5c5b129a18e64d29df\n        /* \"contracts/KipuBank.sol\":17404:17415  ownerActual */\n      dup3\n        /* \"contracts/KipuBank.sol\":17378:17389  _revokeRole */\n      tag_237\n        /* \"contracts/KipuBank.sol\":17378:17416  _revokeRole(FEED_MANAGER, ownerActual) */\n      jump\t// in\n    tag_327:\n      pop\n        /* \"contracts/KipuBank.sol\":17427:17458  _transferOwnership(_nuevoOwner) */\n      tag_328\n        /* \"contracts/KipuBank.sol\":17446:17457  _nuevoOwner */\n      dup3\n        /* \"contracts/KipuBank.sol\":17427:17445  _transferOwnership */\n      tag_287\n        /* \"contracts/KipuBank.sol\":17427:17458  _transferOwnership(_nuevoOwner) */\n      jump\t// in\n    tag_328:\n        /* \"contracts/KipuBank.sol\":17469:17512  _grantRole(DEFAULT_ADMIN_ROLE, _nuevoOwner) */\n      tag_329\n        /* \"@openzeppelin/contracts/access/AccessControl.sol\":2241:2245  0x00 */\n      0x00\n        /* \"contracts/KipuBank.sol\":17480:17498  DEFAULT_ADMIN_ROLE */\n      0x00\n      shl\n        /* \"contracts/KipuBank.sol\":17500:17511  _nuevoOwner */\n      dup4\n        /* \"contracts/KipuBank.sol\":17469:17479  _grantRole */\n      tag_231\n        /* \"contracts/KipuBank.sol\":17469:17512  _grantRole(DEFAULT_ADMIN_ROLE, _nuevoOwner) */\n      jump\t// in\n    tag_329:\n      pop\n        /* \"contracts/KipuBank.sol\":17522:17559  _grantRole(FEED_MANAGER, _nuevoOwner) */\n      tag_330\n        /* \"contracts/KipuBank.sol\":1142:1167  keccak256(\"FEED_MANAGER\") */\n      0x9bbb3ee3bdfbe971682b08854a620ca4bf696f8e0c269e5c5b129a18e64d29df\n        /* \"contracts/KipuBank.sol\":17547:17558  _nuevoOwner */\n      dup4\n        /* \"contracts/KipuBank.sol\":17522:17532  _grantRole */\n      tag_231\n        /* \"contracts/KipuBank.sol\":17522:17559  _grantRole(FEED_MANAGER, _nuevoOwner) */\n      jump\t// in\n    tag_330:\n      pop\n        /* \"contracts/KipuBank.sol\":17569:17600  _grantRole(PAUSER, _nuevoOwner) */\n      tag_331\n        /* \"contracts/KipuBank.sol\":1028:1047  keccak256(\"PAUSER\") */\n      0x539440820030c4994db4e31b6b800deafd503688728f932addfe7a410515c14c\n        /* \"contracts/KipuBank.sol\":17588:17599  _nuevoOwner */\n      dup4\n        /* \"contracts/KipuBank.sol\":17569:17579  _grantRole */\n      tag_231\n        /* \"contracts/KipuBank.sol\":17569:17600  _grantRole(PAUSER, _nuevoOwner) */\n      jump\t// in\n    tag_331:\n      pop\n        /* \"contracts/KipuBank.sol\":17655:17666  _nuevoOwner */\n      dup2\n        /* \"contracts/KipuBank.sol\":17616:17667  KipuBank_OwnerTransferido(ownerActual, _nuevoOwner) */\n      0xffffffffffffffffffffffffffffffffffffffff\n      and\n        /* \"contracts/KipuBank.sol\":17642:17653  ownerActual */\n      dup2\n        /* \"contracts/KipuBank.sol\":17616:17667  KipuBank_OwnerTransferido(ownerActual, _nuevoOwner) */\n      0xffffffffffffffffffffffffffffffffffffffff\n      and\n      0x2ed8931cd5c0d36856a21c6245bf2e305f989a55c31be2b6cb7ec0a4da43c319\n      mload(0x40)\n      mload(0x40)\n      dup1\n      swap2\n      sub\n      swap1\n      log3\n        /* \"contracts/KipuBank.sol\":17223:17674  {... */\n      pop\n        /* \"contracts/KipuBank.sol\":17147:17674  function transferirOwner(address _nuevoOwner) external onlyOwner whenPaused {... */\n      pop\n      jump\t// out\n        /* \"@openzeppelin/contracts/access/Ownable.sol\":1638:1723  function owner() public view virtual returns (address) {... */\n    tag_126:\n        /* \"@openzeppelin/contracts/access/Ownable.sol\":1684:1691  address */\n      0x00\n        /* \"@openzeppelin/contracts/access/Ownable.sol\":1710:1716  _owner */\n      0x01\n      0x00\n      swap1\n      sload\n      swap1\n      0x0100\n      exp\n      swap1\n      div\n      0xffffffffffffffffffffffffffffffffffffffff\n      and\n        /* \"@openzeppelin/contracts/access/Ownable.sol\":1703:1716  return _owner */\n      swap1\n      pop\n        /* \"@openzeppelin/contracts/access/Ownable.sol\":1638:1723  function owner() public view virtual returns (address) {... */\n      swap1\n      jump\t// out\n        /* \"@openzeppelin/contracts/access/AccessControl.sol\":2830:2966  function hasRole(bytes32 role, address account) public view virtual returns (bool) {... */\n    tag_131:\n        /* \"@openzeppelin/contracts/access/AccessControl.sol\":2907:2911  bool */\n      0x00\n        /* \"@openzeppelin/contracts/access/AccessControl.sol\":2930:2936  _roles */\n      0x02\n        /* \"@openzeppelin/contracts/access/AccessControl.sol\":2930:2942  _roles[role] */\n      0x00\n        /* \"@openzeppelin/contracts/access/AccessControl.sol\":2937:2941  role */\n      dup5\n        /* \"@openzeppelin/contracts/access/AccessControl.sol\":2930:2942  _roles[role] */\n      dup2\n      mstore\n      0x20\n      add\n      swap1\n      dup2\n      mstore\n      0x20\n      add\n      0x00\n      keccak256\n        /* \"@openzeppelin/contracts/access/AccessControl.sol\":2930:2950  _roles[role].hasRole */\n      0x00\n      add\n        /* \"@openzeppelin/contracts/access/AccessControl.sol\":2930:2959  _roles[role].hasRole[account] */\n      0x00\n        /* \"@openzeppelin/contracts/access/AccessControl.sol\":2951:2958  account */\n      dup4\n        /* \"@openzeppelin/contracts/access/AccessControl.sol\":2930:2959  _roles[role].hasRole[account] */\n      0xffffffffffffffffffffffffffffffffffffffff\n      and\n      0xffffffffffffffffffffffffffffffffffffffff\n      and\n      dup2\n      mstore\n      0x20\n      add\n      swap1\n      dup2\n      mstore\n      0x20\n      add\n      0x00\n      keccak256\n      0x00\n      swap1\n      sload\n      swap1\n      0x0100\n      exp\n      swap1\n      div\n      0xff\n      and\n        /* \"@openzeppelin/contracts/access/AccessControl.sol\":2923:2959  return _roles[role].hasRole[account] */\n      swap1\n      pop\n        /* \"@openzeppelin/contracts/access/AccessControl.sol\":2830:2966  function hasRole(bytes32 role, address account) public view virtual returns (bool) {... */\n      swap3\n      swap2\n      pop\n      pop\n      jump\t// out\n        /* \"contracts/KipuBank.sol\":14010:14110  function retirarUSDC(uint _monto) external whenNotPaused {... */\n    tag_136:\n        /* \"@openzeppelin/contracts/utils/Pausable.sol\":1350:1369  _requireNotPaused() */\n      tag_335\n        /* \"@openzeppelin/contracts/utils/Pausable.sol\":1350:1367  _requireNotPaused */\n      tag_204\n        /* \"@openzeppelin/contracts/utils/Pausable.sol\":1350:1369  _requireNotPaused() */\n      jump\t// in\n    tag_335:\n        /* \"contracts/KipuBank.sol\":14077:14103  _retirarFondosUSDC(_monto) */\n      tag_337\n        /* \"contracts/KipuBank.sol\":14096:14102  _monto */\n      dup2\n        /* \"contracts/KipuBank.sol\":14077:14095  _retirarFondosUSDC */\n      tag_338\n        /* \"contracts/KipuBank.sol\":14077:14103  _retirarFondosUSDC(_monto) */\n      jump\t// in\n    tag_337:\n        /* \"contracts/KipuBank.sol\":14010:14110  function retirarUSDC(uint _monto) external whenNotPaused {... */\n      pop\n      jump\t// out\n        /* \"contracts/KipuBank.sol\":16829:16924  function verTotalContrato() external view returns (uint) {... */\n    tag_139:\n        /* \"contracts/KipuBank.sol\":16880:16884  uint */\n      0x00\n        /* \"contracts/KipuBank.sol\":16903:16917  _totalContrato */\n      sload(0x06)\n        /* \"contracts/KipuBank.sol\":16896:16917  return _totalContrato */\n      swap1\n      pop\n        /* \"contracts/KipuBank.sol\":16829:16924  function verTotalContrato() external view returns (uint) {... */\n      swap1\n      jump\t// out\n        /* \"contracts/KipuBank.sol\":15883:16016  function verSaldoUSDC() external view returns (uint saldo_) {... */\n    tag_143:\n        /* \"contracts/KipuBank.sol\":15930:15941  uint saldo_ */\n      0x00\n        /* \"contracts/KipuBank.sol\":15962:15980  _cuentasMultiToken */\n      0x07\n        /* \"contracts/KipuBank.sol\":15962:15997  _cuentasMultiToken[address(i_usdc)] */\n      0x00\n        /* \"contracts/KipuBank.sol\":15989:15995  i_usdc */\n      immutable(\"0x70ebf73cb6f1a1207279604d754513a029c2ff46f9198374b0ad04887dd2881e\")\n        /* \"contracts/KipuBank.sol\":15962:15997  _cuentasMultiToken[address(i_usdc)] */\n      0xffffffffffffffffffffffffffffffffffffffff\n      and\n      0xffffffffffffffffffffffffffffffffffffffff\n      and\n      dup2\n      mstore\n      0x20\n      add\n      swap1\n      dup2\n      mstore\n      0x20\n      add\n      0x00\n      keccak256\n        /* \"contracts/KipuBank.sol\":15962:16009  _cuentasMultiToken[address(i_usdc)][msg.sender] */\n      0x00\n        /* \"contracts/KipuBank.sol\":15998:16008  msg.sender */\n      caller\n        /* \"contracts/KipuBank.sol\":15962:16009  _cuentasMultiToken[address(i_usdc)][msg.sender] */\n      0xffffffffffffffffffffffffffffffffffffffff\n      and\n      0xffffffffffffffffffffffffffffffffffffffff\n      and\n      dup2\n      mstore\n      0x20\n      add\n      swap1\n      dup2\n      mstore\n      0x20\n      add\n      0x00\n      keccak256\n      sload\n        /* \"contracts/KipuBank.sol\":15953:16009  saldo_ = _cuentasMultiToken[address(i_usdc)][msg.sender] */\n      swap1\n      pop\n        /* \"contracts/KipuBank.sol\":15883:16016  function verSaldoUSDC() external view returns (uint saldo_) {... */\n      swap1\n      jump\t// out\n        /* \"@openzeppelin/contracts/access/AccessControl.sol\":2196:2245  bytes32 public constant DEFAULT_ADMIN_ROLE = 0x00 */\n    tag_147:\n        /* \"@openzeppelin/contracts/access/AccessControl.sol\":2241:2245  0x00 */\n      0x00\n        /* \"@openzeppelin/contracts/access/AccessControl.sol\":2196:2245  bytes32 public constant DEFAULT_ADMIN_ROLE = 0x00 */\n      0x00\n      shl\n      dup2\n      jump\t// out\n        /* \"contracts/KipuBank.sol\":16613:16701  function verTotalRetiros() external view returns (uint) {... */\n    tag_151:\n        /* \"contracts/KipuBank.sol\":16663:16667  uint */\n      0x00\n        /* \"contracts/KipuBank.sol\":16686:16694  _retiros */\n      sload(0x05)\n        /* \"contracts/KipuBank.sol\":16679:16694  return _retiros */\n      swap1\n      pop\n        /* \"contracts/KipuBank.sol\":16613:16701  function verTotalRetiros() external view returns (uint) {... */\n      swap1\n      jump\t// out\n        /* \"contracts/KipuBank.sol\":1103:1167  bytes32 public constant FEED_MANAGER = keccak256(\"FEED_MANAGER\") */\n    tag_155:\n        /* \"contracts/KipuBank.sol\":1142:1167  keccak256(\"FEED_MANAGER\") */\n      0x9bbb3ee3bdfbe971682b08854a620ca4bf696f8e0c269e5c5b129a18e64d29df\n        /* \"contracts/KipuBank.sol\":1103:1167  bytes32 public constant FEED_MANAGER = keccak256(\"FEED_MANAGER\") */\n      dup2\n      jump\t// out\n        /* \"contracts/KipuBank.sol\":19458:19605  function darRol(address cuenta, bytes32 rol) external onlyOwner {... */\n    tag_161:\n        /* \"@openzeppelin/contracts/access/Ownable.sol\":1531:1544  _checkOwner() */\n      tag_343\n        /* \"@openzeppelin/contracts/access/Ownable.sol\":1531:1542  _checkOwner */\n      tag_284\n        /* \"@openzeppelin/contracts/access/Ownable.sol\":1531:1544  _checkOwner() */\n      jump\t// in\n    tag_343:\n        /* \"contracts/KipuBank.sol\":19532:19554  grantRole(rol, cuenta) */\n      tag_345\n        /* \"contracts/KipuBank.sol\":19542:19545  rol */\n      dup2\n        /* \"contracts/KipuBank.sol\":19547:19553  cuenta */\n      dup4\n        /* \"contracts/KipuBank.sol\":19532:19541  grantRole */\n      tag_77\n        /* \"contracts/KipuBank.sol\":19532:19554  grantRole(rol, cuenta) */\n      jump\t// in\n    tag_345:\n        /* \"contracts/KipuBank.sol\":19586:19592  cuenta */\n      dup2\n        /* \"contracts/KipuBank.sol\":19569:19598  KipuBank_RolDado(cuenta, rol) */\n      0xffffffffffffffffffffffffffffffffffffffff\n      and\n      0x56a39044e0e7ad5c8db0abdb4925f3d610d0f66ab2d22536712afd06e6aa6032\n        /* \"contracts/KipuBank.sol\":19594:19597  rol */\n      dup3\n        /* \"contracts/KipuBank.sol\":19569:19598  KipuBank_RolDado(cuenta, rol) */\n      mload(0x40)\n      tag_346\n      swap2\n      swap1\n      tag_72\n      jump\t// in\n    tag_346:\n      mload(0x40)\n      dup1\n      swap2\n      sub\n      swap1\n      log2\n        /* \"contracts/KipuBank.sol\":19458:19605  function darRol(address cuenta, bytes32 rol) external onlyOwner {... */\n      pop\n      pop\n      jump\t// out\n        /* \"@openzeppelin/contracts/access/AccessControl.sol\":4618:4756  function revokeRole(bytes32 role, address account) public virtual onlyRole(getRoleAdmin(role)) {... */\n    tag_165:\n        /* \"@openzeppelin/contracts/access/AccessControl.sol\":4693:4711  getRoleAdmin(role) */\n      tag_347\n        /* \"@openzeppelin/contracts/access/AccessControl.sol\":4706:4710  role */\n      dup3\n        /* \"@openzeppelin/contracts/access/AccessControl.sol\":4693:4705  getRoleAdmin */\n      tag_70\n        /* \"@openzeppelin/contracts/access/AccessControl.sol\":4693:4711  getRoleAdmin(role) */\n      jump\t// in\n    tag_347:\n        /* \"@openzeppelin/contracts/access/AccessControl.sol\":2473:2489  _checkRole(role) */\n      tag_349\n        /* \"@openzeppelin/contracts/access/AccessControl.sol\":2484:2488  role */\n      dup2\n        /* \"@openzeppelin/contracts/access/AccessControl.sol\":2473:2483  _checkRole */\n      tag_228\n        /* \"@openzeppelin/contracts/access/AccessControl.sol\":2473:2489  _checkRole(role) */\n      jump\t// in\n    tag_349:\n        /* \"@openzeppelin/contracts/access/AccessControl.sol\":4723:4749  _revokeRole(role, account) */\n      tag_351\n        /* \"@openzeppelin/contracts/access/AccessControl.sol\":4735:4739  role */\n      dup4\n        /* \"@openzeppelin/contracts/access/AccessControl.sol\":4741:4748  account */\n      dup4\n        /* \"@openzeppelin/contracts/access/AccessControl.sol\":4723:4734  _revokeRole */\n      tag_237\n        /* \"@openzeppelin/contracts/access/AccessControl.sol\":4723:4749  _revokeRole(role, account) */\n      jump\t// in\n    tag_351:\n      pop\n        /* \"@openzeppelin/contracts/access/AccessControl.sol\":4618:4756  function revokeRole(bytes32 role, address account) public virtual onlyRole(getRoleAdmin(role)) {... */\n      pop\n      pop\n      pop\n      jump\t// out\n        /* \"contracts/KipuBank.sol\":995:1047  bytes32 public constant PAUSER = keccak256(\"PAUSER\") */\n    tag_168:\n        /* \"contracts/KipuBank.sol\":1028:1047  keccak256(\"PAUSER\") */\n      0x539440820030c4994db4e31b6b800deafd503688728f932addfe7a410515c14c\n        /* \"contracts/KipuBank.sol\":995:1047  bytes32 public constant PAUSER = keccak256(\"PAUSER\") */\n      dup2\n      jump\t// out\n        /* \"contracts/KipuBank.sol\":19784:19940  function revocarRol(address cuenta, bytes32 rol) external onlyOwner {... */\n    tag_173:\n        /* \"@openzeppelin/contracts/access/Ownable.sol\":1531:1544  _checkOwner() */\n      tag_353\n        /* \"@openzeppelin/contracts/access/Ownable.sol\":1531:1542  _checkOwner */\n      tag_284\n        /* \"@openzeppelin/contracts/access/Ownable.sol\":1531:1544  _checkOwner() */\n      jump\t// in\n    tag_353:\n        /* \"contracts/KipuBank.sol\":19862:19885  revokeRole(rol, cuenta) */\n      tag_355\n        /* \"contracts/KipuBank.sol\":19873:19876  rol */\n      dup2\n        /* \"contracts/KipuBank.sol\":19878:19884  cuenta */\n      dup4\n        /* \"contracts/KipuBank.sol\":19862:19872  revokeRole */\n      tag_165\n        /* \"contracts/KipuBank.sol\":19862:19885  revokeRole(rol, cuenta) */\n      jump\t// in\n    tag_355:\n        /* \"contracts/KipuBank.sol\":19921:19927  cuenta */\n      dup2\n        /* \"contracts/KipuBank.sol\":19900:19933  KipuBank_RolRevocado(cuenta, rol) */\n      0xffffffffffffffffffffffffffffffffffffffff\n      and\n      0x2a235e73fbdf449db29391f00a41fd53e24c96816320a25a710415e2c05370f0\n        /* \"contracts/KipuBank.sol\":19929:19932  rol */\n      dup3\n        /* \"contracts/KipuBank.sol\":19900:19933  KipuBank_RolRevocado(cuenta, rol) */\n      mload(0x40)\n      tag_356\n      swap2\n      swap1\n      tag_72\n      jump\t// in\n    tag_356:\n      mload(0x40)\n      dup1\n      swap2\n      sub\n      swap1\n      log2\n        /* \"contracts/KipuBank.sol\":19784:19940  function revocarRol(address cuenta, bytes32 rol) external onlyOwner {... */\n      pop\n      pop\n      jump\t// out\n        /* \"@openzeppelin/contracts/access/Ownable.sol\":2543:2758  function transferOwnership(address newOwner) public virtual onlyOwner {... */\n    tag_177:\n        /* \"@openzeppelin/contracts/access/Ownable.sol\":1531:1544  _checkOwner() */\n      tag_358\n        /* \"@openzeppelin/contracts/access/Ownable.sol\":1531:1542  _checkOwner */\n      tag_284\n        /* \"@openzeppelin/contracts/access/Ownable.sol\":1531:1544  _checkOwner() */\n      jump\t// in\n    tag_358:\n        /* \"@openzeppelin/contracts/access/Ownable.sol\":2647:2648  0 */\n      0x00\n        /* \"@openzeppelin/contracts/access/Ownable.sol\":2627:2649  newOwner == address(0) */\n      0xffffffffffffffffffffffffffffffffffffffff\n      and\n        /* \"@openzeppelin/contracts/access/Ownable.sol\":2627:2635  newOwner */\n      dup2\n        /* \"@openzeppelin/contracts/access/Ownable.sol\":2627:2649  newOwner == address(0) */\n      0xffffffffffffffffffffffffffffffffffffffff\n      and\n      sub\n        /* \"@openzeppelin/contracts/access/Ownable.sol\":2623:2714  if (newOwner == address(0)) {... */\n      tag_360\n      jumpi\n        /* \"@openzeppelin/contracts/access/Ownable.sol\":2700:2701  0 */\n      0x00\n        /* \"@openzeppelin/contracts/access/Ownable.sol\":2672:2703  OwnableInvalidOwner(address(0)) */\n      mload(0x40)\n      0x1e4fbdf700000000000000000000000000000000000000000000000000000000\n      dup2\n      mstore\n      0x04\n      add\n      tag_361\n      swap2\n      swap1\n      tag_45\n      jump\t// in\n    tag_361:\n      mload(0x40)\n      dup1\n      swap2\n      sub\n      swap1\n      revert\n        /* \"@openzeppelin/contracts/access/Ownable.sol\":2623:2714  if (newOwner == address(0)) {... */\n    tag_360:\n        /* \"@openzeppelin/contracts/access/Ownable.sol\":2723:2751  _transferOwnership(newOwner) */\n      tag_362\n        /* \"@openzeppelin/contracts/access/Ownable.sol\":2742:2750  newOwner */\n      dup2\n        /* \"@openzeppelin/contracts/access/Ownable.sol\":2723:2741  _transferOwnership */\n      tag_287\n        /* \"@openzeppelin/contracts/access/Ownable.sol\":2723:2751  _transferOwnership(newOwner) */\n      jump\t// in\n    tag_362:\n        /* \"@openzeppelin/contracts/access/Ownable.sol\":2543:2758  function transferOwnership(address newOwner) public virtual onlyOwner {... */\n      pop\n      jump\t// out\n        /* \"contracts/KipuBank.sol\":16390:16482  function verTotalDepositos() external view returns (uint) {... */\n    tag_180:\n        /* \"contracts/KipuBank.sol\":16442:16446  uint */\n      0x00\n        /* \"contracts/KipuBank.sol\":16465:16475  _depositos */\n      sload(0x04)\n        /* \"contracts/KipuBank.sol\":16458:16475  return _depositos */\n      swap1\n      pop\n        /* \"contracts/KipuBank.sol\":16390:16482  function verTotalDepositos() external view returns (uint) {... */\n      swap1\n      jump\t// out\n        /* \"contracts/KipuBank.sol\":20611:20749  function balanceOf(address titular, address token) external view returns (uint) {... */\n    tag_186:\n        /* \"contracts/KipuBank.sol\":20685:20689  uint */\n      0x00\n        /* \"contracts/KipuBank.sol\":20708:20726  _cuentasMultiToken */\n      0x07\n        /* \"contracts/KipuBank.sol\":20708:20733  _cuentasMultiToken[token] */\n      0x00\n        /* \"contracts/KipuBank.sol\":20727:20732  token */\n      dup4\n        /* \"contracts/KipuBank.sol\":20708:20733  _cuentasMultiToken[token] */\n      0xffffffffffffffffffffffffffffffffffffffff\n      and\n      0xffffffffffffffffffffffffffffffffffffffff\n      and\n      dup2\n      mstore\n      0x20\n      add\n      swap1\n      dup2\n      mstore\n      0x20\n      add\n      0x00\n      keccak256\n        /* \"contracts/KipuBank.sol\":20708:20742  _cuentasMultiToken[token][titular] */\n      0x00\n        /* \"contracts/KipuBank.sol\":20734:20741  titular */\n      dup5\n        /* \"contracts/KipuBank.sol\":20708:20742  _cuentasMultiToken[token][titular] */\n      0xffffffffffffffffffffffffffffffffffffffff\n      and\n      0xffffffffffffffffffffffffffffffffffffffff\n      and\n      dup2\n      mstore\n      0x20\n      add\n      swap1\n      dup2\n      mstore\n      0x20\n      add\n      0x00\n      keccak256\n      sload\n        /* \"contracts/KipuBank.sol\":20701:20742  return _cuentasMultiToken[token][titular] */\n      swap1\n      pop\n        /* \"contracts/KipuBank.sol\":20611:20749  function balanceOf(address titular, address token) external view returns (uint) {... */\n      swap3\n      swap2\n      pop\n      pop\n      jump\t// out\n        /* \"@openzeppelin/contracts/access/AccessControl.sol\":2541:2743  function supportsInterface(bytes4 interfaceId) public view virtual override returns (bool) {... */\n    tag_190:\n        /* \"@openzeppelin/contracts/access/AccessControl.sol\":2626:2630  bool */\n      0x00\n        /* \"@openzeppelin/contracts/access/AccessControl.sol\":2664:2696  type(IAccessControl).interfaceId */\n      0x7965db0b00000000000000000000000000000000000000000000000000000000\n        /* \"@openzeppelin/contracts/access/AccessControl.sol\":2649:2696  interfaceId == type(IAccessControl).interfaceId */\n      not(0xffffffffffffffffffffffffffffffffffffffffffffffffffffffff)\n      and\n        /* \"@openzeppelin/contracts/access/AccessControl.sol\":2649:2660  interfaceId */\n      dup3\n        /* \"@openzeppelin/contracts/access/AccessControl.sol\":2649:2696  interfaceId == type(IAccessControl).interfaceId */\n      not(0xffffffffffffffffffffffffffffffffffffffffffffffffffffffff)\n      and\n      eq\n        /* \"@openzeppelin/contracts/access/AccessControl.sol\":2649:2736  interfaceId == type(IAccessControl).interfaceId || super.supportsInterface(interfaceId) */\n      dup1\n      tag_366\n      jumpi\n      pop\n        /* \"@openzeppelin/contracts/access/AccessControl.sol\":2700:2736  super.supportsInterface(interfaceId) */\n      tag_367\n        /* \"@openzeppelin/contracts/access/AccessControl.sol\":2724:2735  interfaceId */\n      dup3\n        /* \"@openzeppelin/contracts/access/AccessControl.sol\":2700:2723  super.supportsInterface */\n      tag_368\n        /* \"@openzeppelin/contracts/access/AccessControl.sol\":2700:2736  super.supportsInterface(interfaceId) */\n      jump\t// in\n    tag_367:\n        /* \"@openzeppelin/contracts/access/AccessControl.sol\":2649:2736  interfaceId == type(IAccessControl).interfaceId || super.supportsInterface(interfaceId) */\n    tag_366:\n        /* \"@openzeppelin/contracts/access/AccessControl.sol\":2642:2736  return interfaceId == type(IAccessControl).interfaceId || super.supportsInterface(interfaceId) */\n      swap1\n      pop\n        /* \"@openzeppelin/contracts/access/AccessControl.sol\":2541:2743  function supportsInterface(bytes4 interfaceId) public view virtual override returns (bool) {... */\n      swap2\n      swap1\n      pop\n      jump\t// out\n        /* \"contracts/KipuBank.sol\":11931:12101  function convertirEthEnUSD(uint _monto) internal view returns (uint montoConvertido_) {... */\n    tag_195:\n        /* \"contracts/KipuBank.sol\":11994:12015  uint montoConvertido_ */\n      0x00\n        /* \"contracts/KipuBank.sol\":2021:2033  1 * 10 ** 20 */\n      0x056bc75e2d63100000\n        /* \"contracts/KipuBank.sol\":12060:12076  chainLinkFeeds() */\n      tag_370\n        /* \"contracts/KipuBank.sol\":12060:12074  chainLinkFeeds */\n      tag_371\n        /* \"contracts/KipuBank.sol\":12060:12076  chainLinkFeeds() */\n      jump\t// in\n    tag_370:\n        /* \"contracts/KipuBank.sol\":12051:12057  _monto */\n      dup4\n        /* \"contracts/KipuBank.sol\":12051:12076  _monto * chainLinkFeeds() */\n      tag_372\n      swap2\n      swap1\n      tag_373\n      jump\t// in\n    tag_372:\n        /* \"contracts/KipuBank.sol\":12050:12094  (_monto * chainLinkFeeds()) / DECIMAL_FACTOR */\n      tag_374\n      swap2\n      swap1\n      tag_375\n      jump\t// in\n    tag_374:\n        /* \"contracts/KipuBank.sol\":12031:12094  montoConvertido_ = (_monto * chainLinkFeeds()) / DECIMAL_FACTOR */\n      swap1\n      pop\n        /* \"contracts/KipuBank.sol\":11931:12101  function convertirEthEnUSD(uint _monto) internal view returns (uint montoConvertido_) {... */\n      swap2\n      swap1\n      pop\n      jump\t// out\n        /* \"@openzeppelin/contracts/utils/Pausable.sol\":1878:2006  function _requireNotPaused() internal view virtual {... */\n    tag_204:\n        /* \"@openzeppelin/contracts/utils/Pausable.sol\":1943:1951  paused() */\n      tag_377\n        /* \"@openzeppelin/contracts/utils/Pausable.sol\":1943:1949  paused */\n      tag_87\n        /* \"@openzeppelin/contracts/utils/Pausable.sol\":1943:1951  paused() */\n      jump\t// in\n    tag_377:\n        /* \"@openzeppelin/contracts/utils/Pausable.sol\":1939:2000  if (paused()) {... */\n      iszero\n      tag_378\n      jumpi\n        /* \"@openzeppelin/contracts/utils/Pausable.sol\":1974:1989  EnforcedPause() */\n      mload(0x40)\n      0xd93c066500000000000000000000000000000000000000000000000000000000\n      dup2\n      mstore\n      0x04\n      add\n      mload(0x40)\n      dup1\n      swap2\n      sub\n      swap1\n      revert\n        /* \"@openzeppelin/contracts/utils/Pausable.sol\":1939:2000  if (paused()) {... */\n    tag_378:\n        /* \"@openzeppelin/contracts/utils/Pausable.sol\":1878:2006  function _requireNotPaused() internal view virtual {... */\n      jump\t// out\n        /* \"@openzeppelin/contracts/utils/Pausable.sol\":2339:2454  function _pause() internal virtual whenNotPaused {... */\n    tag_222:\n        /* \"@openzeppelin/contracts/utils/Pausable.sol\":1350:1369  _requireNotPaused() */\n      tag_380\n        /* \"@openzeppelin/contracts/utils/Pausable.sol\":1350:1367  _requireNotPaused */\n      tag_204\n        /* \"@openzeppelin/contracts/utils/Pausable.sol\":1350:1369  _requireNotPaused() */\n      jump\t// in\n    tag_380:\n        /* \"@openzeppelin/contracts/utils/Pausable.sol\":2408:2412  true */\n      0x01\n        /* \"@openzeppelin/contracts/utils/Pausable.sol\":2398:2405  _paused */\n      dup1\n      0x14\n        /* \"@openzeppelin/contracts/utils/Pausable.sol\":2398:2412  _paused = true */\n      0x0100\n      exp\n      dup2\n      sload\n      dup2\n      0xff\n      mul\n      not\n      and\n      swap1\n      dup4\n      iszero\n      iszero\n      mul\n      or\n      swap1\n      sstore\n      pop\n        /* \"@openzeppelin/contracts/utils/Pausable.sol\":2427:2447  Paused(_msgSender()) */\n      0x62e78cea01bee320cd4e420270b5ea74000d11b0c9f74754ebdbfc544b05a258\n        /* \"@openzeppelin/contracts/utils/Pausable.sol\":2434:2446  _msgSender() */\n      tag_382\n        /* \"@openzeppelin/contracts/utils/Pausable.sol\":2434:2444  _msgSender */\n      tag_234\n        /* \"@openzeppelin/contracts/utils/Pausable.sol\":2434:2446  _msgSender() */\n      jump\t// in\n    tag_382:\n        /* \"@openzeppelin/contracts/utils/Pausable.sol\":2427:2447  Paused(_msgSender()) */\n      mload(0x40)\n      tag_383\n      swap2\n      swap1\n      tag_45\n      jump\t// in\n    tag_383:\n      mload(0x40)\n      dup1\n      swap2\n      sub\n      swap1\n      log1\n        /* \"@openzeppelin/contracts/utils/Pausable.sol\":2339:2454  function _pause() internal virtual whenNotPaused {... */\n      jump\t// out\n        /* \"@openzeppelin/contracts/access/AccessControl.sol\":3175:3278  function _checkRole(bytes32 role) internal view virtual {... */\n    tag_228:\n        /* \"@openzeppelin/contracts/access/AccessControl.sol\":3241:3271  _checkRole(role, _msgSender()) */\n      tag_385\n        /* \"@openzeppelin/contracts/access/AccessControl.sol\":3252:3256  role */\n      dup2\n        /* \"@openzeppelin/contracts/access/AccessControl.sol\":3258:3270  _msgSender() */\n      tag_386\n        /* \"@openzeppelin/contracts/access/AccessControl.sol\":3258:3268  _msgSender */\n      tag_234\n        /* \"@openzeppelin/contracts/access/AccessControl.sol\":3258:3270  _msgSender() */\n      jump\t// in\n    tag_386:\n        /* \"@openzeppelin/contracts/access/AccessControl.sol\":3241:3251  _checkRole */\n      tag_387\n        /* \"@openzeppelin/contracts/access/AccessControl.sol\":3241:3271  _checkRole(role, _msgSender()) */\n      jump\t// in\n    tag_385:\n        /* \"@openzeppelin/contracts/access/AccessControl.sol\":3175:3278  function _checkRole(bytes32 role) internal view virtual {... */\n      pop\n      jump\t// out\n        /* \"@openzeppelin/contracts/access/AccessControl.sol\":6155:6471  function _grantRole(bytes32 role, address account) internal virtual returns (bool) {... */\n    tag_231:\n        /* \"@openzeppelin/contracts/access/AccessControl.sol\":6232:6236  bool */\n      0x00\n        /* \"@openzeppelin/contracts/access/AccessControl.sol\":6253:6275  hasRole(role, account) */\n      tag_389\n        /* \"@openzeppelin/contracts/access/AccessControl.sol\":6261:6265  role */\n      dup4\n        /* \"@openzeppelin/contracts/access/AccessControl.sol\":6267:6274  account */\n      dup4\n        /* \"@openzeppelin/contracts/access/AccessControl.sol\":6253:6260  hasRole */\n      tag_131\n        /* \"@openzeppelin/contracts/access/AccessControl.sol\":6253:6275  hasRole(role, account) */\n      jump\t// in\n    tag_389:\n        /* \"@openzeppelin/contracts/access/AccessControl.sol\":6248:6465  if (!hasRole(role, account)) {... */\n      tag_390\n      jumpi\n        /* \"@openzeppelin/contracts/access/AccessControl.sol\":6323:6327  true */\n      0x01\n        /* \"@openzeppelin/contracts/access/AccessControl.sol\":6291:6297  _roles */\n      0x02\n        /* \"@openzeppelin/contracts/access/AccessControl.sol\":6291:6303  _roles[role] */\n      0x00\n        /* \"@openzeppelin/contracts/access/AccessControl.sol\":6298:6302  role */\n      dup6\n        /* \"@openzeppelin/contracts/access/AccessControl.sol\":6291:6303  _roles[role] */\n      dup2\n      mstore\n      0x20\n      add\n      swap1\n      dup2\n      mstore\n      0x20\n      add\n      0x00\n      keccak256\n        /* \"@openzeppelin/contracts/access/AccessControl.sol\":6291:6311  _roles[role].hasRole */\n      0x00\n      add\n        /* \"@openzeppelin/contracts/access/AccessControl.sol\":6291:6320  _roles[role].hasRole[account] */\n      0x00\n        /* \"@openzeppelin/contracts/access/AccessControl.sol\":6312:6319  account */\n      dup5\n        /* \"@openzeppelin/contracts/access/AccessControl.sol\":6291:6320  _roles[role].hasRole[account] */\n      0xffffffffffffffffffffffffffffffffffffffff\n      and\n      0xffffffffffffffffffffffffffffffffffffffff\n      and\n      dup2\n      mstore\n      0x20\n      add\n      swap1\n      dup2\n      mstore\n      0x20\n      add\n      0x00\n      keccak256\n      0x00\n        /* \"@openzeppelin/contracts/access/AccessControl.sol\":6291:6327  _roles[role].hasRole[account] = true */\n      0x0100\n      exp\n      dup2\n      sload\n      dup2\n      0xff\n      mul\n      not\n      and\n      swap1\n      dup4\n      iszero\n      iszero\n      mul\n      or\n      swap1\n      sstore\n      pop\n        /* \"@openzeppelin/contracts/access/AccessControl.sol\":6373:6385  _msgSender() */\n      tag_391\n        /* \"@openzeppelin/contracts/access/AccessControl.sol\":6373:6383  _msgSender */\n      tag_234\n        /* \"@openzeppelin/contracts/access/AccessControl.sol\":6373:6385  _msgSender() */\n      jump\t// in\n    tag_391:\n        /* \"@openzeppelin/contracts/access/AccessControl.sol\":6346:6386  RoleGranted(role, account, _msgSender()) */\n      0xffffffffffffffffffffffffffffffffffffffff\n      and\n        /* \"@openzeppelin/contracts/access/AccessControl.sol\":6364:6371  account */\n      dup3\n        /* \"@openzeppelin/contracts/access/AccessControl.sol\":6346:6386  RoleGranted(role, account, _msgSender()) */\n      0xffffffffffffffffffffffffffffffffffffffff\n      and\n        /* \"@openzeppelin/contracts/access/AccessControl.sol\":6358:6362  role */\n      dup5\n        /* \"@openzeppelin/contracts/access/AccessControl.sol\":6346:6386  RoleGranted(role, account, _msgSender()) */\n      0x2f8788117e7eff1d82e926ec794901d17c78024a50270940304540a733656f0d\n      mload(0x40)\n      mload(0x40)\n      dup1\n      swap2\n      sub\n      swap1\n      log4\n        /* \"@openzeppelin/contracts/access/AccessControl.sol\":6407:6411  true */\n      0x01\n        /* \"@openzeppelin/contracts/access/AccessControl.sol\":6400:6411  return true */\n      swap1\n      pop\n      jump(tag_388)\n        /* \"@openzeppelin/contracts/access/AccessControl.sol\":6248:6465  if (!hasRole(role, account)) {... */\n    tag_390:\n        /* \"@openzeppelin/contracts/access/AccessControl.sol\":6449:6454  false */\n      0x00\n        /* \"@openzeppelin/contracts/access/AccessControl.sol\":6442:6454  return false */\n      swap1\n      pop\n        /* \"@openzeppelin/contracts/access/AccessControl.sol\":6155:6471  function _grantRole(bytes32 role, address account) internal virtual returns (bool) {... */\n    tag_388:\n      swap3\n      swap2\n      pop\n      pop\n      jump\t// out\n        /* \"@openzeppelin/contracts/utils/Context.sol\":656:752  function _msgSender() internal view virtual returns (address) {... */\n    tag_234:\n        /* \"@openzeppelin/contracts/utils/Context.sol\":709:716  address */\n      0x00\n        /* \"@openzeppelin/contracts/utils/Context.sol\":735:745  msg.sender */\n      caller\n        /* \"@openzeppelin/contracts/utils/Context.sol\":728:745  return msg.sender */\n      swap1\n      pop\n        /* \"@openzeppelin/contracts/utils/Context.sol\":656:752  function _msgSender() internal view virtual returns (address) {... */\n      swap1\n      jump\t// out\n        /* \"@openzeppelin/contracts/access/AccessControl.sol\":6708:7025  function _revokeRole(bytes32 role, address account) internal virtual returns (bool) {... */\n    tag_237:\n        /* \"@openzeppelin/contracts/access/AccessControl.sol\":6786:6790  bool */\n      0x00\n        /* \"@openzeppelin/contracts/access/AccessControl.sol\":6806:6828  hasRole(role, account) */\n      tag_395\n        /* \"@openzeppelin/contracts/access/AccessControl.sol\":6814:6818  role */\n      dup4\n        /* \"@openzeppelin/contracts/access/AccessControl.sol\":6820:6827  account */\n      dup4\n        /* \"@openzeppelin/contracts/access/AccessControl.sol\":6806:6813  hasRole */\n      tag_131\n        /* \"@openzeppelin/contracts/access/AccessControl.sol\":6806:6828  hasRole(role, account) */\n      jump\t// in\n    tag_395:\n        /* \"@openzeppelin/contracts/access/AccessControl.sol\":6802:7019  if (hasRole(role, account)) {... */\n      iszero\n      tag_396\n      jumpi\n        /* \"@openzeppelin/contracts/access/AccessControl.sol\":6876:6881  false */\n      0x00\n        /* \"@openzeppelin/contracts/access/AccessControl.sol\":6844:6850  _roles */\n      0x02\n        /* \"@openzeppelin/contracts/access/AccessControl.sol\":6844:6856  _roles[role] */\n      0x00\n        /* \"@openzeppelin/contracts/access/AccessControl.sol\":6851:6855  role */\n      dup6\n        /* \"@openzeppelin/contracts/access/AccessControl.sol\":6844:6856  _roles[role] */\n      dup2\n      mstore\n      0x20\n      add\n      swap1\n      dup2\n      mstore\n      0x20\n      add\n      0x00\n      keccak256\n        /* \"@openzeppelin/contracts/access/AccessControl.sol\":6844:6864  _roles[role].hasRole */\n      0x00\n      add\n        /* \"@openzeppelin/contracts/access/AccessControl.sol\":6844:6873  _roles[role].hasRole[account] */\n      0x00\n        /* \"@openzeppelin/contracts/access/AccessControl.sol\":6865:6872  account */\n      dup5\n        /* \"@openzeppelin/contracts/access/AccessControl.sol\":6844:6873  _roles[role].hasRole[account] */\n      0xffffffffffffffffffffffffffffffffffffffff\n      and\n      0xffffffffffffffffffffffffffffffffffffffff\n      and\n      dup2\n      mstore\n      0x20\n      add\n      swap1\n      dup2\n      mstore\n      0x20\n      add\n      0x00\n      keccak256\n      0x00\n        /* \"@openzeppelin/contracts/access/AccessControl.sol\":6844:6881  _roles[role].hasRole[account] = false */\n      0x0100\n      exp\n      dup2\n      sload\n      dup2\n      0xff\n      mul\n      not\n      and\n      swap1\n      dup4\n      iszero\n      iszero\n      mul\n      or\n      swap1\n      sstore\n      pop\n        /* \"@openzeppelin/contracts/access/AccessControl.sol\":6927:6939  _msgSender() */\n      tag_397\n        /* \"@openzeppelin/contracts/access/AccessControl.sol\":6927:6937  _msgSender */\n      tag_234\n        /* \"@openzeppelin/contracts/access/AccessControl.sol\":6927:6939  _msgSender() */\n      jump\t// in\n    tag_397:\n        /* \"@openzeppelin/contracts/access/AccessControl.sol\":6900:6940  RoleRevoked(role, account, _msgSender()) */\n      0xffffffffffffffffffffffffffffffffffffffff\n      and\n        /* \"@openzeppelin/contracts/access/AccessControl.sol\":6918:6925  account */\n      dup3\n        /* \"@openzeppelin/contracts/access/AccessControl.sol\":6900:6940  RoleRevoked(role, account, _msgSender()) */\n      0xffffffffffffffffffffffffffffffffffffffff\n      and\n        /* \"@openzeppelin/contracts/access/AccessControl.sol\":6912:6916  role */\n      dup5\n        /* \"@openzeppelin/contracts/access/AccessControl.sol\":6900:6940  RoleRevoked(role, account, _msgSender()) */\n      0xf6391f5c32d9c69d2a47ea670b442974b53935d1edc7fd64eb21e047a839171b\n      mload(0x40)\n      mload(0x40)\n      dup1\n      swap2\n      sub\n      swap1\n      log4\n        /* \"@openzeppelin/contracts/access/AccessControl.sol\":6961:6965  true */\n      0x01\n        /* \"@openzeppelin/contracts/access/AccessControl.sol\":6954:6965  return true */\n      swap1\n      pop\n      jump(tag_394)\n        /* \"@openzeppelin/contracts/access/AccessControl.sol\":6802:7019  if (hasRole(role, account)) {... */\n    tag_396:\n        /* \"@openzeppelin/contracts/access/AccessControl.sol\":7003:7008  false */\n      0x00\n        /* \"@openzeppelin/contracts/access/AccessControl.sol\":6996:7008  return false */\n      swap1\n      pop\n        /* \"@openzeppelin/contracts/access/AccessControl.sol\":6708:7025  function _revokeRole(bytes32 role, address account) internal virtual returns (bool) {... */\n    tag_394:\n      swap3\n      swap2\n      pop\n      pop\n      jump\t// out\n        /* \"@openzeppelin/contracts/utils/Pausable.sol\":2078:2204  function _requirePaused() internal view virtual {... */\n    tag_246:\n        /* \"@openzeppelin/contracts/utils/Pausable.sol\":2141:2149  paused() */\n      tag_400\n        /* \"@openzeppelin/contracts/utils/Pausable.sol\":2141:2147  paused */\n      tag_87\n        /* \"@openzeppelin/contracts/utils/Pausable.sol\":2141:2149  paused() */\n      jump\t// in\n    tag_400:\n        /* \"@openzeppelin/contracts/utils/Pausable.sol\":2136:2198  if (!paused()) {... */\n      tag_401\n      jumpi\n        /* \"@openzeppelin/contracts/utils/Pausable.sol\":2172:2187  ExpectedPause() */\n      mload(0x40)\n      0x8dfc202b00000000000000000000000000000000000000000000000000000000\n      dup2\n      mstore\n      0x04\n      add\n      mload(0x40)\n      dup1\n      swap2\n      sub\n      swap1\n      revert\n        /* \"@openzeppelin/contracts/utils/Pausable.sol\":2136:2198  if (!paused()) {... */\n    tag_401:\n        /* \"@openzeppelin/contracts/utils/Pausable.sol\":2078:2204  function _requirePaused() internal view virtual {... */\n      jump\t// out\n        /* \"@openzeppelin/contracts/utils/Pausable.sol\":2586:2703  function _unpause() internal virtual whenPaused {... */\n    tag_249:\n        /* \"@openzeppelin/contracts/utils/Pausable.sol\":1597:1613  _requirePaused() */\n      tag_403\n        /* \"@openzeppelin/contracts/utils/Pausable.sol\":1597:1611  _requirePaused */\n      tag_246\n        /* \"@openzeppelin/contracts/utils/Pausable.sol\":1597:1613  _requirePaused() */\n      jump\t// in\n    tag_403:\n        /* \"@openzeppelin/contracts/utils/Pausable.sol\":2654:2659  false */\n      0x00\n        /* \"@openzeppelin/contracts/utils/Pausable.sol\":2644:2651  _paused */\n      0x01\n      0x14\n        /* \"@openzeppelin/contracts/utils/Pausable.sol\":2644:2659  _paused = false */\n      0x0100\n      exp\n      dup2\n      sload\n      dup2\n      0xff\n      mul\n      not\n      and\n      swap1\n      dup4\n      iszero\n      iszero\n      mul\n      or\n      swap1\n      sstore\n      pop\n        /* \"@openzeppelin/contracts/utils/Pausable.sol\":2674:2696  Unpaused(_msgSender()) */\n      0x5db9ee0a495bf2e6ff9c91a7834c1ba4fdd244a5e8aa4e537bd38aeae4b073aa\n        /* \"@openzeppelin/contracts/utils/Pausable.sol\":2683:2695  _msgSender() */\n      tag_405\n        /* \"@openzeppelin/contracts/utils/Pausable.sol\":2683:2693  _msgSender */\n      tag_234\n        /* \"@openzeppelin/contracts/utils/Pausable.sol\":2683:2695  _msgSender() */\n      jump\t// in\n    tag_405:\n        /* \"@openzeppelin/contracts/utils/Pausable.sol\":2674:2696  Unpaused(_msgSender()) */\n      mload(0x40)\n      tag_406\n      swap2\n      swap1\n      tag_45\n      jump\t// in\n    tag_406:\n      mload(0x40)\n      dup1\n      swap2\n      sub\n      swap1\n      log1\n        /* \"@openzeppelin/contracts/utils/Pausable.sol\":2586:2703  function _unpause() internal virtual whenPaused {... */\n      jump\t// out\n        /* \"@openzeppelin/contracts/token/ERC20/utils/SafeERC20.sol\":1618:1806  function safeTransferFrom(IERC20 token, address from, address to, uint256 value) internal {... */\n    tag_281:\n        /* \"@openzeppelin/contracts/token/ERC20/utils/SafeERC20.sol\":1718:1799  _callOptionalReturn(token, abi.encodeCall(token.transferFrom, (from, to, value))) */\n      tag_408\n        /* \"@openzeppelin/contracts/token/ERC20/utils/SafeERC20.sol\":1738:1743  token */\n      dup5\n        /* \"@openzeppelin/contracts/token/ERC20/utils/SafeERC20.sol\":1760:1765  token */\n      dup6\n        /* \"@openzeppelin/contracts/token/ERC20/utils/SafeERC20.sol\":1760:1778  token.transferFrom */\n      0xffffffffffffffffffffffffffffffffffffffff\n      and\n      0x23b872dd\n        /* \"@openzeppelin/contracts/token/ERC20/utils/SafeERC20.sol\":1781:1785  from */\n      dup7\n        /* \"@openzeppelin/contracts/token/ERC20/utils/SafeERC20.sol\":1787:1789  to */\n      dup7\n        /* \"@openzeppelin/contracts/token/ERC20/utils/SafeERC20.sol\":1791:1796  value */\n      dup7\n        /* \"@openzeppelin/contracts/token/ERC20/utils/SafeERC20.sol\":1745:1798  abi.encodeCall(token.transferFrom, (from, to, value)) */\n      add(0x24, mload(0x40))\n      tag_409\n      swap4\n      swap3\n      swap2\n      swap1\n      tag_410\n      jump\t// in\n    tag_409:\n      mload(0x40)\n      0x20\n      dup2\n      dup4\n      sub\n      sub\n      dup2\n      mstore\n      swap1\n      0x40\n      mstore\n      swap2\n      pop\n      0xe0\n      shl\n      0x20\n      dup3\n      add\n      dup1\n      mload\n      0xffffffffffffffffffffffffffffffffffffffffffffffffffffffff\n      dup4\n      dup2\n      dup4\n      and\n      or\n      dup4\n      mstore\n      pop\n      pop\n      pop\n      pop\n        /* \"@openzeppelin/contracts/token/ERC20/utils/SafeERC20.sol\":1718:1737  _callOptionalReturn */\n      tag_411\n        /* \"@openzeppelin/contracts/token/ERC20/utils/SafeERC20.sol\":1718:1799  _callOptionalReturn(token, abi.encodeCall(token.transferFrom, (from, to, value))) */\n      jump\t// in\n    tag_408:\n        /* \"@openzeppelin/contracts/token/ERC20/utils/SafeERC20.sol\":1618:1806  function safeTransferFrom(IERC20 token, address from, address to, uint256 value) internal {... */\n      pop\n      pop\n      pop\n      pop\n      jump\t// out\n        /* \"@openzeppelin/contracts/access/Ownable.sol\":1796:1958  function _checkOwner() internal view virtual {... */\n    tag_284:\n        /* \"@openzeppelin/contracts/access/Ownable.sol\":1866:1878  _msgSender() */\n      tag_413\n        /* \"@openzeppelin/contracts/access/Ownable.sol\":1866:1876  _msgSender */\n      tag_234\n        /* \"@openzeppelin/contracts/access/Ownable.sol\":1866:1878  _msgSender() */\n      jump\t// in\n    tag_413:\n        /* \"@openzeppelin/contracts/access/Ownable.sol\":1855:1878  owner() != _msgSender() */\n      0xffffffffffffffffffffffffffffffffffffffff\n      and\n        /* \"@openzeppelin/contracts/access/Ownable.sol\":1855:1862  owner() */\n      tag_414\n        /* \"@openzeppelin/contracts/access/Ownable.sol\":1855:1860  owner */\n      tag_126\n        /* \"@openzeppelin/contracts/access/Ownable.sol\":1855:1862  owner() */\n      jump\t// in\n    tag_414:\n        /* \"@openzeppelin/contracts/access/Ownable.sol\":1855:1878  owner() != _msgSender() */\n      0xffffffffffffffffffffffffffffffffffffffff\n      and\n      eq\n        /* \"@openzeppelin/contracts/access/Ownable.sol\":1851:1952  if (owner() != _msgSender()) {... */\n      tag_415\n      jumpi\n        /* \"@openzeppelin/contracts/access/Ownable.sol\":1928:1940  _msgSender() */\n      tag_416\n        /* \"@openzeppelin/contracts/access/Ownable.sol\":1928:1938  _msgSender */\n      tag_234\n        /* \"@openzeppelin/contracts/access/Ownable.sol\":1928:1940  _msgSender() */\n      jump\t// in\n    tag_416:\n        /* \"@openzeppelin/contracts/access/Ownable.sol\":1901:1941  OwnableUnauthorizedAccount(_msgSender()) */\n      mload(0x40)\n      0x118cdaa700000000000000000000000000000000000000000000000000000000\n      dup2\n      mstore\n      0x04\n      add\n      tag_417\n      swap2\n      swap1\n      tag_45\n      jump\t// in\n    tag_417:\n      mload(0x40)\n      dup1\n      swap2\n      sub\n      swap1\n      revert\n        /* \"@openzeppelin/contracts/access/Ownable.sol\":1851:1952  if (owner() != _msgSender()) {... */\n    tag_415:\n        /* \"@openzeppelin/contracts/access/Ownable.sol\":1796:1958  function _checkOwner() internal view virtual {... */\n      jump\t// out\n        /* \"@openzeppelin/contracts/access/Ownable.sol\":2912:3099  function _transferOwnership(address newOwner) internal virtual {... */\n    tag_287:\n        /* \"@openzeppelin/contracts/access/Ownable.sol\":2985:3001  address oldOwner */\n      0x00\n        /* \"@openzeppelin/contracts/access/Ownable.sol\":3004:3010  _owner */\n      0x01\n      0x00\n      swap1\n      sload\n      swap1\n      0x0100\n      exp\n      swap1\n      div\n      0xffffffffffffffffffffffffffffffffffffffff\n      and\n        /* \"@openzeppelin/contracts/access/Ownable.sol\":2985:3010  address oldOwner = _owner */\n      swap1\n      pop\n        /* \"@openzeppelin/contracts/access/Ownable.sol\":3029:3037  newOwner */\n      dup2\n        /* \"@openzeppelin/contracts/access/Ownable.sol\":3020:3026  _owner */\n      0x01\n      0x00\n        /* \"@openzeppelin/contracts/access/Ownable.sol\":3020:3037  _owner = newOwner */\n      0x0100\n      exp\n      dup2\n      sload\n      dup2\n      0xffffffffffffffffffffffffffffffffffffffff\n      mul\n      not\n      and\n      swap1\n      dup4\n      0xffffffffffffffffffffffffffffffffffffffff\n      and\n      mul\n      or\n      swap1\n      sstore\n      pop\n        /* \"@openzeppelin/contracts/access/Ownable.sol\":3083:3091  newOwner */\n      dup2\n        /* \"@openzeppelin/contracts/access/Ownable.sol\":3052:3092  OwnershipTransferred(oldOwner, newOwner) */\n      0xffffffffffffffffffffffffffffffffffffffff\n      and\n        /* \"@openzeppelin/contracts/access/Ownable.sol\":3073:3081  oldOwner */\n      dup2\n        /* \"@openzeppelin/contracts/access/Ownable.sol\":3052:3092  OwnershipTransferred(oldOwner, newOwner) */\n      0xffffffffffffffffffffffffffffffffffffffff\n      and\n      0x8be0079c531659141344cd1fd0a4f28419497f9722a3daafe3b4186f6b6457e0\n      mload(0x40)\n      mload(0x40)\n      dup1\n      swap2\n      sub\n      swap1\n      log3\n        /* \"@openzeppelin/contracts/access/Ownable.sol\":2975:3099  {... */\n      pop\n        /* \"@openzeppelin/contracts/access/Ownable.sol\":2912:3099  function _transferOwnership(address newOwner) internal virtual {... */\n      pop\n      jump\t// out\n        /* \"contracts/KipuBank.sol\":12416:12906  function _retirarFondosETH(uint _monto) private nonReentrant verificarRetiroETH(_monto) {... */\n    tag_318:\n        /* \"@openzeppelin/contracts/security/ReentrancyGuard.sol\":2261:2282  _nonReentrantBefore() */\n      tag_420\n        /* \"@openzeppelin/contracts/security/ReentrancyGuard.sol\":2261:2280  _nonReentrantBefore */\n      tag_421\n        /* \"@openzeppelin/contracts/security/ReentrancyGuard.sol\":2261:2282  _nonReentrantBefore() */\n      jump\t// in\n    tag_420:\n        /* \"contracts/KipuBank.sol\":12496:12502  _monto */\n      dup1\n        /* \"contracts/KipuBank.sol\":10221:10235  uint montoUSDC */\n      0x00\n        /* \"contracts/KipuBank.sol\":10238:10263  convertirEthEnUSD(_monto) */\n      tag_423\n        /* \"contracts/KipuBank.sol\":10256:10262  _monto */\n      dup3\n        /* \"contracts/KipuBank.sol\":10238:10255  convertirEthEnUSD */\n      tag_195\n        /* \"contracts/KipuBank.sol\":10238:10263  convertirEthEnUSD(_monto) */\n      jump\t// in\n    tag_423:\n        /* \"contracts/KipuBank.sol\":10221:10263  uint montoUSDC = convertirEthEnUSD(_monto) */\n      swap1\n      pop\n        /* \"contracts/KipuBank.sol\":10289:10290  0 */\n      0x00\n        /* \"contracts/KipuBank.sol\":10276:10285  montoUSDC */\n      dup2\n        /* \"contracts/KipuBank.sol\":10276:10290  montoUSDC == 0 */\n      sub\n        /* \"contracts/KipuBank.sol\":10273:10329  if(montoUSDC == 0) revert KipuBank_MontoCero(msg.sender) */\n      tag_424\n      jumpi\n        /* \"contracts/KipuBank.sol\":10318:10328  msg.sender */\n      caller\n        /* \"contracts/KipuBank.sol\":10299:10329  KipuBank_MontoCero(msg.sender) */\n      mload(0x40)\n      0xb2f0923100000000000000000000000000000000000000000000000000000000\n      dup2\n      mstore\n      0x04\n      add\n      tag_425\n      swap2\n      swap1\n      tag_45\n      jump\t// in\n    tag_425:\n      mload(0x40)\n      dup1\n      swap2\n      sub\n      swap1\n      revert\n        /* \"contracts/KipuBank.sol\":10273:10329  if(montoUSDC == 0) revert KipuBank_MontoCero(msg.sender) */\n    tag_424:\n        /* \"contracts/KipuBank.sol\":10355:10363  i_umbral */\n      immutable(\"0xcf2f0ed1818444aa7134f6644eb342f5da11c7b70eee1c41201e997b4c62f0a7\")\n        /* \"contracts/KipuBank.sol\":10343:10352  montoUSDC */\n      dup2\n        /* \"contracts/KipuBank.sol\":10343:10363  montoUSDC > i_umbral */\n      gt\n        /* \"contracts/KipuBank.sol\":10339:10406  if (montoUSDC > i_umbral) revert KipuBank_UmbralExcedido(montoUSDC) */\n      iszero\n      tag_426\n      jumpi\n        /* \"contracts/KipuBank.sol\":10396:10405  montoUSDC */\n      dup1\n        /* \"contracts/KipuBank.sol\":10372:10406  KipuBank_UmbralExcedido(montoUSDC) */\n      mload(0x40)\n      0xc399356500000000000000000000000000000000000000000000000000000000\n      dup2\n      mstore\n      0x04\n      add\n      tag_427\n      swap2\n      swap1\n      tag_93\n      jump\t// in\n    tag_427:\n      mload(0x40)\n      dup1\n      swap2\n      sub\n      swap1\n      revert\n        /* \"contracts/KipuBank.sol\":10339:10406  if (montoUSDC > i_umbral) revert KipuBank_UmbralExcedido(montoUSDC) */\n    tag_426:\n        /* \"contracts/KipuBank.sol\":10429:10447  _cuentasMultiToken */\n      0x07\n        /* \"contracts/KipuBank.sol\":10429:10459  _cuentasMultiToken[address(0)] */\n      0x00\n        /* \"contracts/KipuBank.sol\":10456:10457  0 */\n      0x00\n        /* \"contracts/KipuBank.sol\":10429:10459  _cuentasMultiToken[address(0)] */\n      0xffffffffffffffffffffffffffffffffffffffff\n      and\n      0xffffffffffffffffffffffffffffffffffffffff\n      and\n      dup2\n      mstore\n      0x20\n      add\n      swap1\n      dup2\n      mstore\n      0x20\n      add\n      0x00\n      keccak256\n        /* \"contracts/KipuBank.sol\":10429:10471  _cuentasMultiToken[address(0)][msg.sender] */\n      0x00\n        /* \"contracts/KipuBank.sol\":10460:10470  msg.sender */\n      caller\n        /* \"contracts/KipuBank.sol\":10429:10471  _cuentasMultiToken[address(0)][msg.sender] */\n      0xffffffffffffffffffffffffffffffffffffffff\n      and\n      0xffffffffffffffffffffffffffffffffffffffff\n      and\n      dup2\n      mstore\n      0x20\n      add\n      swap1\n      dup2\n      mstore\n      0x20\n      add\n      0x00\n      keccak256\n      sload\n        /* \"contracts/KipuBank.sol\":10420:10426  _monto */\n      dup3\n        /* \"contracts/KipuBank.sol\":10420:10471  _monto > _cuentasMultiToken[address(0)][msg.sender] */\n      gt\n        /* \"contracts/KipuBank.sol\":10416:10529  if (_monto > _cuentasMultiToken[address(0)][msg.sender]) revert KipuBank_SaldoInsuficiente(msg.sender, montoUSDC) */\n      iszero\n      tag_428\n      jumpi\n        /* \"contracts/KipuBank.sol\":10507:10517  msg.sender */\n      caller\n        /* \"contracts/KipuBank.sol\":10519:10528  montoUSDC */\n      dup2\n        /* \"contracts/KipuBank.sol\":10480:10529  KipuBank_SaldoInsuficiente(msg.sender, montoUSDC) */\n      mload(0x40)\n      0x51a7314200000000000000000000000000000000000000000000000000000000\n      dup2\n      mstore\n      0x04\n      add\n      tag_429\n      swap3\n      swap2\n      swap1\n      tag_265\n      jump\t// in\n    tag_429:\n      mload(0x40)\n      dup1\n      swap2\n      sub\n      swap1\n      revert\n        /* \"contracts/KipuBank.sol\":10416:10529  if (_monto > _cuentasMultiToken[address(0)][msg.sender]) revert KipuBank_SaldoInsuficiente(msg.sender, montoUSDC) */\n    tag_428:\n        /* \"contracts/KipuBank.sol\":12514:12527  uint montoUSD */\n      0x00\n        /* \"contracts/KipuBank.sol\":12530:12555  convertirEthEnUSD(_monto) */\n      tag_431\n        /* \"contracts/KipuBank.sol\":12548:12554  _monto */\n      dup5\n        /* \"contracts/KipuBank.sol\":12530:12547  convertirEthEnUSD */\n      tag_195\n        /* \"contracts/KipuBank.sol\":12530:12555  convertirEthEnUSD(_monto) */\n      jump\t// in\n    tag_431:\n        /* \"contracts/KipuBank.sol\":12514:12555  uint montoUSD = convertirEthEnUSD(_monto) */\n      swap1\n      pop\n        /* \"contracts/KipuBank.sol\":12611:12617  _monto */\n      dup4\n        /* \"contracts/KipuBank.sol\":12565:12583  _cuentasMultiToken */\n      0x07\n        /* \"contracts/KipuBank.sol\":12565:12595  _cuentasMultiToken[address(0)] */\n      0x00\n        /* \"contracts/KipuBank.sol\":12592:12593  0 */\n      0x00\n        /* \"contracts/KipuBank.sol\":12565:12595  _cuentasMultiToken[address(0)] */\n      0xffffffffffffffffffffffffffffffffffffffff\n      and\n      0xffffffffffffffffffffffffffffffffffffffff\n      and\n      dup2\n      mstore\n      0x20\n      add\n      swap1\n      dup2\n      mstore\n      0x20\n      add\n      0x00\n      keccak256\n        /* \"contracts/KipuBank.sol\":12565:12607  _cuentasMultiToken[address(0)][msg.sender] */\n      0x00\n        /* \"contracts/KipuBank.sol\":12596:12606  msg.sender */\n      caller\n        /* \"contracts/KipuBank.sol\":12565:12607  _cuentasMultiToken[address(0)][msg.sender] */\n      0xffffffffffffffffffffffffffffffffffffffff\n      and\n      0xffffffffffffffffffffffffffffffffffffffff\n      and\n      dup2\n      mstore\n      0x20\n      add\n      swap1\n      dup2\n      mstore\n      0x20\n      add\n      0x00\n      keccak256\n      0x00\n        /* \"contracts/KipuBank.sol\":12565:12617  _cuentasMultiToken[address(0)][msg.sender] -= _monto */\n      dup3\n      dup3\n      sload\n      tag_432\n      swap2\n      swap1\n      tag_311\n      jump\t// in\n    tag_432:\n      swap3\n      pop\n      pop\n      dup2\n      swap1\n      sstore\n      pop\n        /* \"contracts/KipuBank.sol\":12627:12635  _retiros */\n      0x05\n      0x00\n        /* \"contracts/KipuBank.sol\":12627:12637  _retiros++ */\n      dup2\n      sload\n      dup1\n      swap3\n      swap2\n      swap1\n      tag_433\n      swap1\n      tag_209\n      jump\t// in\n    tag_433:\n      swap2\n      swap1\n      pop\n      sstore\n      pop\n        /* \"contracts/KipuBank.sol\":12665:12673  montoUSD */\n      dup1\n        /* \"contracts/KipuBank.sol\":12647:12661  _totalContrato */\n      0x06\n      0x00\n        /* \"contracts/KipuBank.sol\":12647:12673  _totalContrato -= montoUSD */\n      dup3\n      dup3\n      sload\n      tag_434\n      swap2\n      swap1\n      tag_311\n      jump\t// in\n    tag_434:\n      swap3\n      pop\n      pop\n      dup2\n      swap1\n      sstore\n      pop\n        /* \"contracts/KipuBank.sol\":12726:12736  msg.sender */\n      caller\n        /* \"contracts/KipuBank.sol\":12697:12747  KipuBank_ExtraccionRealizada(msg.sender, montoUSD) */\n      0xffffffffffffffffffffffffffffffffffffffff\n      and\n      0x9cde449504e4972ffddec09813e0c252a1462d76bef1864b9e7520dadb7183e8\n        /* \"contracts/KipuBank.sol\":12738:12746  montoUSD */\n      dup3\n        /* \"contracts/KipuBank.sol\":12697:12747  KipuBank_ExtraccionRealizada(msg.sender, montoUSD) */\n      mload(0x40)\n      tag_435\n      swap2\n      swap1\n      tag_93\n      jump\t// in\n    tag_435:\n      mload(0x40)\n      dup1\n      swap2\n      sub\n      swap1\n      log2\n        /* \"contracts/KipuBank.sol\":12759:12771  bool success */\n      0x00\n        /* \"contracts/KipuBank.sol\":12785:12795  msg.sender */\n      caller\n        /* \"contracts/KipuBank.sol\":12777:12801  payable(msg.sender).call */\n      0xffffffffffffffffffffffffffffffffffffffff\n      and\n        /* \"contracts/KipuBank.sol\":12809:12815  _monto */\n      dup6\n        /* \"contracts/KipuBank.sol\":12777:12820  payable(msg.sender).call{value: _monto}(\"\") */\n      mload(0x40)\n      tag_436\n      swap1\n      tag_437\n      jump\t// in\n    tag_436:\n      0x00\n      mload(0x40)\n      dup1\n      dup4\n      sub\n      dup2\n      dup6\n      dup8\n      gas\n      call\n      swap3\n      pop\n      pop\n      pop\n      returndatasize\n      dup1\n      0x00\n      dup2\n      eq\n      tag_440\n      jumpi\n      mload(0x40)\n      swap2\n      pop\n      and(add(returndatasize, 0x3f), not(0x1f))\n      dup3\n      add\n      0x40\n      mstore\n      returndatasize\n      dup3\n      mstore\n      returndatasize\n      0x00\n      0x20\n      dup5\n      add\n      returndatacopy\n      jump(tag_439)\n    tag_440:\n      0x60\n      swap2\n      pop\n    tag_439:\n      pop\n        /* \"contracts/KipuBank.sol\":12758:12820  (bool success, ) = payable(msg.sender).call{value: _monto}(\"\") */\n      pop\n      swap1\n      pop\n        /* \"contracts/KipuBank.sol\":12835:12842  success */\n      dup1\n        /* \"contracts/KipuBank.sol\":12830:12899  if (!success) revert KipuBank_ExtraccionRechazada(msg.sender, _monto) */\n      tag_441\n      jumpi\n        /* \"contracts/KipuBank.sol\":12880:12890  msg.sender */\n      caller\n        /* \"contracts/KipuBank.sol\":12892:12898  _monto */\n      dup6\n        /* \"contracts/KipuBank.sol\":12851:12899  KipuBank_ExtraccionRechazada(msg.sender, _monto) */\n      mload(0x40)\n      0x6c5e1a1400000000000000000000000000000000000000000000000000000000\n      dup2\n      mstore\n      0x04\n      add\n      tag_442\n      swap3\n      swap2\n      swap1\n      tag_265\n      jump\t// in\n    tag_442:\n      mload(0x40)\n      dup1\n      swap2\n      sub\n      swap1\n      revert\n        /* \"contracts/KipuBank.sol\":12830:12899  if (!success) revert KipuBank_ExtraccionRechazada(msg.sender, _monto) */\n    tag_441:\n        /* \"contracts/KipuBank.sol\":12504:12906  {... */\n      pop\n      pop\n        /* \"contracts/KipuBank.sol\":10211:10547  {... */\n      pop\n        /* \"@openzeppelin/contracts/security/ReentrancyGuard.sol\":2292:2293  _ */\n      pop\n        /* \"@openzeppelin/contracts/security/ReentrancyGuard.sol\":2303:2323  _nonReentrantAfter() */\n      tag_443\n        /* \"@openzeppelin/contracts/security/ReentrancyGuard.sol\":2303:2321  _nonReentrantAfter */\n      tag_444\n        /* \"@openzeppelin/contracts/security/ReentrancyGuard.sol\":2303:2323  _nonReentrantAfter() */\n      jump\t// in\n    tag_443:\n        /* \"contracts/KipuBank.sol\":12416:12906  function _retirarFondosETH(uint _monto) private nonReentrant verificarRetiroETH(_monto) {... */\n      pop\n      jump\t// out\n        /* \"contracts/KipuBank.sol\":13311:13641  function _retirarFondosUSDC(uint _monto) private nonReentrant verificarRetiroUSDC(_monto) {... */\n    tag_338:\n        /* \"@openzeppelin/contracts/security/ReentrancyGuard.sol\":2261:2282  _nonReentrantBefore() */\n      tag_446\n        /* \"@openzeppelin/contracts/security/ReentrancyGuard.sol\":2261:2280  _nonReentrantBefore */\n      tag_421\n        /* \"@openzeppelin/contracts/security/ReentrancyGuard.sol\":2261:2282  _nonReentrantBefore() */\n      jump\t// in\n    tag_446:\n        /* \"contracts/KipuBank.sol\":13393:13399  _monto */\n      dup1\n        /* \"contracts/KipuBank.sol\":10790:10791  0 */\n      0x00\n        /* \"contracts/KipuBank.sol\":10780:10786  _monto */\n      dup2\n        /* \"contracts/KipuBank.sol\":10780:10791  _monto == 0 */\n      sub\n        /* \"contracts/KipuBank.sol\":10777:10830  if(_monto == 0) revert KipuBank_MontoCero(msg.sender) */\n      tag_448\n      jumpi\n        /* \"contracts/KipuBank.sol\":10819:10829  msg.sender */\n      caller\n        /* \"contracts/KipuBank.sol\":10800:10830  KipuBank_MontoCero(msg.sender) */\n      mload(0x40)\n      0xb2f0923100000000000000000000000000000000000000000000000000000000\n      dup2\n      mstore\n      0x04\n      add\n      tag_449\n      swap2\n      swap1\n      tag_45\n      jump\t// in\n    tag_449:\n      mload(0x40)\n      dup1\n      swap2\n      sub\n      swap1\n      revert\n        /* \"contracts/KipuBank.sol\":10777:10830  if(_monto == 0) revert KipuBank_MontoCero(msg.sender) */\n    tag_448:\n        /* \"contracts/KipuBank.sol\":10853:10861  i_umbral */\n      immutable(\"0xcf2f0ed1818444aa7134f6644eb342f5da11c7b70eee1c41201e997b4c62f0a7\")\n        /* \"contracts/KipuBank.sol\":10844:10850  _monto */\n      dup2\n        /* \"contracts/KipuBank.sol\":10844:10861  _monto > i_umbral */\n      gt\n        /* \"contracts/KipuBank.sol\":10840:10901  if (_monto > i_umbral) revert KipuBank_UmbralExcedido(_monto) */\n      iszero\n      tag_450\n      jumpi\n        /* \"contracts/KipuBank.sol\":10894:10900  _monto */\n      dup1\n        /* \"contracts/KipuBank.sol\":10870:10901  KipuBank_UmbralExcedido(_monto) */\n      mload(0x40)\n      0xc399356500000000000000000000000000000000000000000000000000000000\n      dup2\n      mstore\n      0x04\n      add\n      tag_451\n      swap2\n      swap1\n      tag_93\n      jump\t// in\n    tag_451:\n      mload(0x40)\n      dup1\n      swap2\n      sub\n      swap1\n      revert\n        /* \"contracts/KipuBank.sol\":10840:10901  if (_monto > i_umbral) revert KipuBank_UmbralExcedido(_monto) */\n    tag_450:\n        /* \"contracts/KipuBank.sol\":10924:10942  _cuentasMultiToken */\n      0x07\n        /* \"contracts/KipuBank.sol\":10924:10959  _cuentasMultiToken[address(i_usdc)] */\n      0x00\n        /* \"contracts/KipuBank.sol\":10951:10957  i_usdc */\n      immutable(\"0x70ebf73cb6f1a1207279604d754513a029c2ff46f9198374b0ad04887dd2881e\")\n        /* \"contracts/KipuBank.sol\":10924:10959  _cuentasMultiToken[address(i_usdc)] */\n      0xffffffffffffffffffffffffffffffffffffffff\n      and\n      0xffffffffffffffffffffffffffffffffffffffff\n      and\n      dup2\n      mstore\n      0x20\n      add\n      swap1\n      dup2\n      mstore\n      0x20\n      add\n      0x00\n      keccak256\n        /* \"contracts/KipuBank.sol\":10924:10971  _cuentasMultiToken[address(i_usdc)][msg.sender] */\n      0x00\n        /* \"contracts/KipuBank.sol\":10960:10970  msg.sender */\n      caller\n        /* \"contracts/KipuBank.sol\":10924:10971  _cuentasMultiToken[address(i_usdc)][msg.sender] */\n      0xffffffffffffffffffffffffffffffffffffffff\n      and\n      0xffffffffffffffffffffffffffffffffffffffff\n      and\n      dup2\n      mstore\n      0x20\n      add\n      swap1\n      dup2\n      mstore\n      0x20\n      add\n      0x00\n      keccak256\n      sload\n        /* \"contracts/KipuBank.sol\":10915:10921  _monto */\n      dup2\n        /* \"contracts/KipuBank.sol\":10915:10971  _monto > _cuentasMultiToken[address(i_usdc)][msg.sender] */\n      gt\n        /* \"contracts/KipuBank.sol\":10911:11026  if (_monto > _cuentasMultiToken[address(i_usdc)][msg.sender]) revert KipuBank_SaldoInsuficiente(msg.sender, _monto) */\n      iszero\n      tag_452\n      jumpi\n        /* \"contracts/KipuBank.sol\":11007:11017  msg.sender */\n      caller\n        /* \"contracts/KipuBank.sol\":11019:11025  _monto */\n      dup2\n        /* \"contracts/KipuBank.sol\":10980:11026  KipuBank_SaldoInsuficiente(msg.sender, _monto) */\n      mload(0x40)\n      0x51a7314200000000000000000000000000000000000000000000000000000000\n      dup2\n      mstore\n      0x04\n      add\n      tag_453\n      swap3\n      swap2\n      swap1\n      tag_265\n      jump\t// in\n    tag_453:\n      mload(0x40)\n      dup1\n      swap2\n      sub\n      swap1\n      revert\n        /* \"contracts/KipuBank.sol\":10911:11026  if (_monto > _cuentasMultiToken[address(i_usdc)][msg.sender]) revert KipuBank_SaldoInsuficiente(msg.sender, _monto) */\n    tag_452:\n        /* \"contracts/KipuBank.sol\":13462:13468  _monto */\n      dup2\n        /* \"contracts/KipuBank.sol\":13411:13429  _cuentasMultiToken */\n      0x07\n        /* \"contracts/KipuBank.sol\":13411:13446  _cuentasMultiToken[address(i_usdc)] */\n      0x00\n        /* \"contracts/KipuBank.sol\":13438:13444  i_usdc */\n      immutable(\"0x70ebf73cb6f1a1207279604d754513a029c2ff46f9198374b0ad04887dd2881e\")\n        /* \"contracts/KipuBank.sol\":13411:13446  _cuentasMultiToken[address(i_usdc)] */\n      0xffffffffffffffffffffffffffffffffffffffff\n      and\n      0xffffffffffffffffffffffffffffffffffffffff\n      and\n      dup2\n      mstore\n      0x20\n      add\n      swap1\n      dup2\n      mstore\n      0x20\n      add\n      0x00\n      keccak256\n        /* \"contracts/KipuBank.sol\":13411:13458  _cuentasMultiToken[address(i_usdc)][msg.sender] */\n      0x00\n        /* \"contracts/KipuBank.sol\":13447:13457  msg.sender */\n      caller\n        /* \"contracts/KipuBank.sol\":13411:13458  _cuentasMultiToken[address(i_usdc)][msg.sender] */\n      0xffffffffffffffffffffffffffffffffffffffff\n      and\n      0xffffffffffffffffffffffffffffffffffffffff\n      and\n      dup2\n      mstore\n      0x20\n      add\n      swap1\n      dup2\n      mstore\n      0x20\n      add\n      0x00\n      keccak256\n      0x00\n        /* \"contracts/KipuBank.sol\":13411:13468  _cuentasMultiToken[address(i_usdc)][msg.sender] -= _monto */\n      dup3\n      dup3\n      sload\n      tag_455\n      swap2\n      swap1\n      tag_311\n      jump\t// in\n    tag_455:\n      swap3\n      pop\n      pop\n      dup2\n      swap1\n      sstore\n      pop\n        /* \"contracts/KipuBank.sol\":13478:13486  _retiros */\n      0x05\n      0x00\n        /* \"contracts/KipuBank.sol\":13478:13488  _retiros++ */\n      dup2\n      sload\n      dup1\n      swap3\n      swap2\n      swap1\n      tag_456\n      swap1\n      tag_209\n      jump\t// in\n    tag_456:\n      swap2\n      swap1\n      pop\n      sstore\n      pop\n        /* \"contracts/KipuBank.sol\":13516:13522  _monto */\n      dup2\n        /* \"contracts/KipuBank.sol\":13498:13512  _totalContrato */\n      0x06\n      0x00\n        /* \"contracts/KipuBank.sol\":13498:13522  _totalContrato -= _monto */\n      dup3\n      dup3\n      sload\n      tag_457\n      swap2\n      swap1\n      tag_311\n      jump\t// in\n    tag_457:\n      swap3\n      pop\n      pop\n      dup2\n      swap1\n      sstore\n      pop\n        /* \"contracts/KipuBank.sol\":13566:13576  msg.sender */\n      caller\n        /* \"contracts/KipuBank.sol\":13537:13585  KipuBank_ExtraccionRealizada(msg.sender, _monto) */\n      0xffffffffffffffffffffffffffffffffffffffff\n      and\n      0x9cde449504e4972ffddec09813e0c252a1462d76bef1864b9e7520dadb7183e8\n        /* \"contracts/KipuBank.sol\":13578:13584  _monto */\n      dup4\n        /* \"contracts/KipuBank.sol\":13537:13585  KipuBank_ExtraccionRealizada(msg.sender, _monto) */\n      mload(0x40)\n      tag_458\n      swap2\n      swap1\n      tag_93\n      jump\t// in\n    tag_458:\n      mload(0x40)\n      dup1\n      swap2\n      sub\n      swap1\n      log2\n        /* \"contracts/KipuBank.sol\":13595:13634  i_usdc.safeTransfer(msg.sender, _monto) */\n      tag_459\n        /* \"contracts/KipuBank.sol\":13615:13625  msg.sender */\n      caller\n        /* \"contracts/KipuBank.sol\":13627:13633  _monto */\n      dup4\n        /* \"contracts/KipuBank.sol\":13595:13601  i_usdc */\n      immutable(\"0x70ebf73cb6f1a1207279604d754513a029c2ff46f9198374b0ad04887dd2881e\")\n        /* \"contracts/KipuBank.sol\":13595:13614  i_usdc.safeTransfer */\n      0xffffffffffffffffffffffffffffffffffffffff\n      and\n      tag_460\n      swap1\n        /* \"contracts/KipuBank.sol\":13595:13634  i_usdc.safeTransfer(msg.sender, _monto) */\n      swap3\n      swap2\n      swap1\n      0xffffffff\n      and\n      jump\t// in\n    tag_459:\n        /* \"@openzeppelin/contracts/security/ReentrancyGuard.sol\":2292:2293  _ */\n      pop\n        /* \"@openzeppelin/contracts/security/ReentrancyGuard.sol\":2303:2323  _nonReentrantAfter() */\n      tag_461\n        /* \"@openzeppelin/contracts/security/ReentrancyGuard.sol\":2303:2321  _nonReentrantAfter */\n      tag_444\n        /* \"@openzeppelin/contracts/security/ReentrancyGuard.sol\":2303:2323  _nonReentrantAfter() */\n      jump\t// in\n    tag_461:\n        /* \"contracts/KipuBank.sol\":13311:13641  function _retirarFondosUSDC(uint _monto) private nonReentrant verificarRetiroUSDC(_monto) {... */\n      pop\n      jump\t// out\n        /* \"@openzeppelin/contracts/utils/introspection/ERC165.sol\":730:876  function supportsInterface(bytes4 interfaceId) public view virtual returns (bool) {... */\n    tag_368:\n        /* \"@openzeppelin/contracts/utils/introspection/ERC165.sol\":806:810  bool */\n      0x00\n        /* \"@openzeppelin/contracts/utils/introspection/ERC165.sol\":844:869  type(IERC165).interfaceId */\n      0x01ffc9a700000000000000000000000000000000000000000000000000000000\n        /* \"@openzeppelin/contracts/utils/introspection/ERC165.sol\":829:869  interfaceId == type(IERC165).interfaceId */\n      not(0xffffffffffffffffffffffffffffffffffffffffffffffffffffffff)\n      and\n        /* \"@openzeppelin/contracts/utils/introspection/ERC165.sol\":829:840  interfaceId */\n      dup3\n        /* \"@openzeppelin/contracts/utils/introspection/ERC165.sol\":829:869  interfaceId == type(IERC165).interfaceId */\n      not(0xffffffffffffffffffffffffffffffffffffffffffffffffffffffff)\n      and\n      eq\n        /* \"@openzeppelin/contracts/utils/introspection/ERC165.sol\":822:869  return interfaceId == type(IERC165).interfaceId */\n      swap1\n      pop\n        /* \"@openzeppelin/contracts/utils/introspection/ERC165.sol\":730:876  function supportsInterface(bytes4 interfaceId) public view virtual returns (bool) {... */\n      swap2\n      swap1\n      pop\n      jump\t// out\n        /* \"contracts/KipuBank.sol\":11231:11617  function chainLinkFeeds() internal view returns(uint precioUSD_) {... */\n    tag_371:\n        /* \"contracts/KipuBank.sol\":11279:11294  uint precioUSD_ */\n      0x00\n        /* \"contracts/KipuBank.sol\":11309:11327  int256 ethUSDPrice */\n      0x00\n        /* \"contracts/KipuBank.sol\":11330:11346  uint256 updateAt */\n      0x00\n        /* \"contracts/KipuBank.sol\":11351:11357  s_feed */\n      0x03\n      0x00\n      swap1\n      sload\n      swap1\n      0x0100\n      exp\n      swap1\n      div\n      0xffffffffffffffffffffffffffffffffffffffff\n      and\n        /* \"contracts/KipuBank.sol\":11351:11373  s_feed.latestRoundData */\n      0xffffffffffffffffffffffffffffffffffffffff\n      and\n      0xfeaf968c\n        /* \"contracts/KipuBank.sol\":11351:11375  s_feed.latestRoundData() */\n      mload(0x40)\n      dup2\n      0xffffffff\n      and\n      0xe0\n      shl\n      dup2\n      mstore\n      0x04\n      add\n      0xa0\n      mload(0x40)\n      dup1\n      dup4\n      sub\n      dup2\n      dup7\n      gas\n      staticcall\n      iszero\n      dup1\n      iszero\n      tag_465\n      jumpi\n      returndatacopy(0x00, 0x00, returndatasize)\n      revert(0x00, returndatasize)\n    tag_465:\n      pop\n      pop\n      pop\n      pop\n      mload(0x40)\n      returndatasize\n      not(0x1f)\n      0x1f\n      dup3\n      add\n      and\n      dup3\n      add\n      dup1\n      0x40\n      mstore\n      pop\n      dup2\n      add\n      swap1\n      tag_466\n      swap2\n      swap1\n      tag_301\n      jump\t// in\n    tag_466:\n        /* \"contracts/KipuBank.sol\":11306:11375  (, int256 ethUSDPrice,, uint256 updateAt,) = s_feed.latestRoundData() */\n      pop\n      swap4\n      pop\n      pop\n      swap3\n      pop\n      pop\n        /* \"contracts/KipuBank.sol\":11404:11405  0 */\n      0x00\n        /* \"contracts/KipuBank.sol\":11389:11400  ethUSDPrice */\n      dup3\n        /* \"contracts/KipuBank.sol\":11389:11405  ethUSDPrice <= 0 */\n      sgt\n        /* \"contracts/KipuBank.sol\":11385:11461  if( ethUSDPrice <= 0) revert KipuBank_OraculoComprometido(uint(ethUSDPrice)) */\n      tag_467\n      jumpi\n        /* \"contracts/KipuBank.sol\":11448:11459  ethUSDPrice */\n      dup2\n        /* \"contracts/KipuBank.sol\":11414:11461  KipuBank_OraculoComprometido(uint(ethUSDPrice)) */\n      mload(0x40)\n      0x3654402900000000000000000000000000000000000000000000000000000000\n      dup2\n      mstore\n      0x04\n      add\n      tag_468\n      swap2\n      swap1\n      tag_93\n      jump\t// in\n    tag_468:\n      mload(0x40)\n      dup1\n      swap2\n      sub\n      swap1\n      revert\n        /* \"contracts/KipuBank.sol\":11385:11461  if( ethUSDPrice <= 0) revert KipuBank_OraculoComprometido(uint(ethUSDPrice)) */\n    tag_467:\n        /* \"contracts/KipuBank.sol\":1752:1756  3600 */\n      0x0e10\n        /* \"contracts/KipuBank.sol\":11474:11512  block.timestamp - updateAt > HEARTBEAT */\n      0xffff\n      and\n        /* \"contracts/KipuBank.sol\":11492:11500  updateAt */\n      dup2\n        /* \"contracts/KipuBank.sol\":11474:11489  block.timestamp */\n      timestamp\n        /* \"contracts/KipuBank.sol\":11474:11500  block.timestamp - updateAt */\n      tag_469\n      swap2\n      swap1\n      tag_311\n      jump\t// in\n    tag_469:\n        /* \"contracts/KipuBank.sol\":11474:11512  block.timestamp - updateAt > HEARTBEAT */\n      gt\n        /* \"contracts/KipuBank.sol\":11471:11569  if(block.timestamp - updateAt > HEARTBEAT) revert KipuBank_PrecioDesactualizado(uint(ethUSDPrice)) */\n      iszero\n      tag_470\n      jumpi\n        /* \"contracts/KipuBank.sol\":11556:11567  ethUSDPrice */\n      dup2\n        /* \"contracts/KipuBank.sol\":11521:11569  KipuBank_PrecioDesactualizado(uint(ethUSDPrice)) */\n      mload(0x40)\n      0x2609a26500000000000000000000000000000000000000000000000000000000\n      dup2\n      mstore\n      0x04\n      add\n      tag_471\n      swap2\n      swap1\n      tag_93\n      jump\t// in\n    tag_471:\n      mload(0x40)\n      dup1\n      swap2\n      sub\n      swap1\n      revert\n        /* \"contracts/KipuBank.sol\":11471:11569  if(block.timestamp - updateAt > HEARTBEAT) revert KipuBank_PrecioDesactualizado(uint(ethUSDPrice)) */\n    tag_470:\n        /* \"contracts/KipuBank.sol\":11598:11609  ethUSDPrice */\n      dup2\n        /* \"contracts/KipuBank.sol\":11580:11610  precioUSD_ = uint(ethUSDPrice) */\n      swap3\n      pop\n        /* \"contracts/KipuBank.sol\":11296:11617  {... */\n      pop\n      pop\n        /* \"contracts/KipuBank.sol\":11231:11617  function chainLinkFeeds() internal view returns(uint precioUSD_) {... */\n      swap1\n      jump\t// out\n        /* \"@openzeppelin/contracts/access/AccessControl.sol\":3408:3605  function _checkRole(bytes32 role, address account) internal view virtual {... */\n    tag_387:\n        /* \"@openzeppelin/contracts/access/AccessControl.sol\":3496:3518  hasRole(role, account) */\n      tag_473\n        /* \"@openzeppelin/contracts/access/AccessControl.sol\":3504:3508  role */\n      dup3\n        /* \"@openzeppelin/contracts/access/AccessControl.sol\":3510:3517  account */\n      dup3\n        /* \"@openzeppelin/contracts/access/AccessControl.sol\":3496:3503  hasRole */\n      tag_131\n        /* \"@openzeppelin/contracts/access/AccessControl.sol\":3496:3518  hasRole(role, account) */\n      jump\t// in\n    tag_473:\n        /* \"@openzeppelin/contracts/access/AccessControl.sol\":3491:3599  if (!hasRole(role, account)) {... */\n      tag_474\n      jumpi\n        /* \"@openzeppelin/contracts/access/AccessControl.sol\":3574:3581  account */\n      dup1\n        /* \"@openzeppelin/contracts/access/AccessControl.sol\":3583:3587  role */\n      dup3\n        /* \"@openzeppelin/contracts/access/AccessControl.sol\":3541:3588  AccessControlUnauthorizedAccount(account, role) */\n      mload(0x40)\n      0xe2517d3f00000000000000000000000000000000000000000000000000000000\n      dup2\n      mstore\n      0x04\n      add\n      tag_475\n      swap3\n      swap2\n      swap1\n      tag_476\n      jump\t// in\n    tag_475:\n      mload(0x40)\n      dup1\n      swap2\n      sub\n      swap1\n      revert\n        /* \"@openzeppelin/contracts/access/AccessControl.sol\":3491:3599  if (!hasRole(role, account)) {... */\n    tag_474:\n        /* \"@openzeppelin/contracts/access/AccessControl.sol\":3408:3605  function _checkRole(bytes32 role, address account) internal view virtual {... */\n      pop\n      pop\n      jump\t// out\n        /* \"@openzeppelin/contracts/token/ERC20/utils/SafeERC20.sol\":8370:9090  function _callOptionalReturn(IERC20 token, bytes memory data) private {... */\n    tag_411:\n        /* \"@openzeppelin/contracts/token/ERC20/utils/SafeERC20.sol\":8450:8468  uint256 returnSize */\n      0x00\n        /* \"@openzeppelin/contracts/token/ERC20/utils/SafeERC20.sol\":8478:8497  uint256 returnValue */\n      0x00\n        /* \"@openzeppelin/contracts/token/ERC20/utils/SafeERC20.sol\":8616:8620  0x20 */\n      0x20\n        /* \"@openzeppelin/contracts/token/ERC20/utils/SafeERC20.sol\":8613:8614  0 */\n      0x00\n        /* \"@openzeppelin/contracts/token/ERC20/utils/SafeERC20.sol\":8606:8610  data */\n      dup5\n        /* \"@openzeppelin/contracts/token/ERC20/utils/SafeERC20.sol\":8600:8611  mload(data) */\n      mload\n        /* \"@openzeppelin/contracts/token/ERC20/utils/SafeERC20.sol\":8593:8597  0x20 */\n      0x20\n        /* \"@openzeppelin/contracts/token/ERC20/utils/SafeERC20.sol\":8587:8591  data */\n      dup7\n        /* \"@openzeppelin/contracts/token/ERC20/utils/SafeERC20.sol\":8583:8598  add(data, 0x20) */\n      add\n        /* \"@openzeppelin/contracts/token/ERC20/utils/SafeERC20.sol\":8580:8581  0 */\n      0x00\n        /* \"@openzeppelin/contracts/token/ERC20/utils/SafeERC20.sol\":8573:8578  token */\n      dup9\n        /* \"@openzeppelin/contracts/token/ERC20/utils/SafeERC20.sol\":8566:8571  gas() */\n      gas\n        /* \"@openzeppelin/contracts/token/ERC20/utils/SafeERC20.sol\":8561:8621  call(gas(), token, 0, add(data, 0x20), mload(data), 0, 0x20) */\n      call\n        /* \"@openzeppelin/contracts/token/ERC20/utils/SafeERC20.sol\":8673:8680  success */\n      dup1\n        /* \"@openzeppelin/contracts/token/ERC20/utils/SafeERC20.sol\":8663:8839  if iszero(success) {... */\n      tag_478\n      jumpi\n        /* \"@openzeppelin/contracts/token/ERC20/utils/SafeERC20.sol\":8717:8721  0x40 */\n      0x40\n        /* \"@openzeppelin/contracts/token/ERC20/utils/SafeERC20.sol\":8711:8722  mload(0x40) */\n      mload\n        /* \"@openzeppelin/contracts/token/ERC20/utils/SafeERC20.sol\":8762:8778  returndatasize() */\n      returndatasize\n        /* \"@openzeppelin/contracts/token/ERC20/utils/SafeERC20.sol\":8759:8760  0 */\n      0x00\n        /* \"@openzeppelin/contracts/token/ERC20/utils/SafeERC20.sol\":8754:8757  ptr */\n      dup3\n        /* \"@openzeppelin/contracts/token/ERC20/utils/SafeERC20.sol\":8739:8779  returndatacopy(ptr, 0, returndatasize()) */\n      returndatacopy\n        /* \"@openzeppelin/contracts/token/ERC20/utils/SafeERC20.sol\":8808:8824  returndatasize() */\n      returndatasize\n        /* \"@openzeppelin/contracts/token/ERC20/utils/SafeERC20.sol\":8803:8806  ptr */\n      dup2\n        /* \"@openzeppelin/contracts/token/ERC20/utils/SafeERC20.sol\":8796:8825  revert(ptr, returndatasize()) */\n      revert\n        /* \"@openzeppelin/contracts/token/ERC20/utils/SafeERC20.sol\":8663:8839  if iszero(success) {... */\n    tag_478:\n        /* \"@openzeppelin/contracts/token/ERC20/utils/SafeERC20.sol\":8866:8882  returndatasize() */\n      returndatasize\n        /* \"@openzeppelin/contracts/token/ERC20/utils/SafeERC20.sol\":8852:8882  returnSize := returndatasize() */\n      swap3\n      pop\n        /* \"@openzeppelin/contracts/token/ERC20/utils/SafeERC20.sol\":8916:8917  0 */\n      0x00\n        /* \"@openzeppelin/contracts/token/ERC20/utils/SafeERC20.sol\":8910:8918  mload(0) */\n      mload\n        /* \"@openzeppelin/contracts/token/ERC20/utils/SafeERC20.sol\":8895:8918  returnValue := mload(0) */\n      swap2\n      pop\n        /* \"@openzeppelin/contracts/token/ERC20/utils/SafeERC20.sol\":8532:8928  {... */\n      pop\n        /* \"@openzeppelin/contracts/token/ERC20/utils/SafeERC20.sol\":8956:8957  0 */\n      0x00\n        /* \"@openzeppelin/contracts/token/ERC20/utils/SafeERC20.sol\":8942:8952  returnSize */\n      dup3\n        /* \"@openzeppelin/contracts/token/ERC20/utils/SafeERC20.sol\":8942:8957  returnSize == 0 */\n      eq\n        /* \"@openzeppelin/contracts/token/ERC20/utils/SafeERC20.sol\":8942:9010  returnSize == 0 ? address(token).code.length == 0 : returnValue != 1 */\n      tag_479\n      jumpi\n        /* \"@openzeppelin/contracts/token/ERC20/utils/SafeERC20.sol\":9009:9010  1 */\n      0x01\n        /* \"@openzeppelin/contracts/token/ERC20/utils/SafeERC20.sol\":8994:9005  returnValue */\n      dup2\n        /* \"@openzeppelin/contracts/token/ERC20/utils/SafeERC20.sol\":8994:9010  returnValue != 1 */\n      eq\n      iszero\n        /* \"@openzeppelin/contracts/token/ERC20/utils/SafeERC20.sol\":8942:9010  returnSize == 0 ? address(token).code.length == 0 : returnValue != 1 */\n      jump(tag_480)\n    tag_479:\n        /* \"@openzeppelin/contracts/token/ERC20/utils/SafeERC20.sol\":8990:8991  0 */\n      0x00\n        /* \"@openzeppelin/contracts/token/ERC20/utils/SafeERC20.sol\":8968:8973  token */\n      dup5\n        /* \"@openzeppelin/contracts/token/ERC20/utils/SafeERC20.sol\":8960:8986  address(token).code.length */\n      0xffffffffffffffffffffffffffffffffffffffff\n      and\n      extcodesize\n        /* \"@openzeppelin/contracts/token/ERC20/utils/SafeERC20.sol\":8960:8991  address(token).code.length == 0 */\n      eq\n        /* \"@openzeppelin/contracts/token/ERC20/utils/SafeERC20.sol\":8942:9010  returnSize == 0 ? address(token).code.length == 0 : returnValue != 1 */\n    tag_480:\n        /* \"@openzeppelin/contracts/token/ERC20/utils/SafeERC20.sol\":8938:9084  if (returnSize == 0 ? address(token).code.length == 0 : returnValue != 1) {... */\n      iszero\n      tag_481\n      jumpi\n        /* \"@openzeppelin/contracts/token/ERC20/utils/SafeERC20.sol\":9066:9071  token */\n      dup4\n        /* \"@openzeppelin/contracts/token/ERC20/utils/SafeERC20.sol\":9033:9073  SafeERC20FailedOperation(address(token)) */\n      mload(0x40)\n      0x5274afe700000000000000000000000000000000000000000000000000000000\n      dup2\n      mstore\n      0x04\n      add\n      tag_482\n      swap2\n      swap1\n      tag_45\n      jump\t// in\n    tag_482:\n      mload(0x40)\n      dup1\n      swap2\n      sub\n      swap1\n      revert\n        /* \"@openzeppelin/contracts/token/ERC20/utils/SafeERC20.sol\":8938:9084  if (returnSize == 0 ? address(token).code.length == 0 : returnValue != 1) {... */\n    tag_481:\n        /* \"@openzeppelin/contracts/token/ERC20/utils/SafeERC20.sol\":8440:9090  {... */\n      pop\n      pop\n        /* \"@openzeppelin/contracts/token/ERC20/utils/SafeERC20.sol\":8370:9090  function _callOptionalReturn(IERC20 token, bytes memory data) private {... */\n      pop\n      pop\n      jump\t// out\n        /* \"@openzeppelin/contracts/security/ReentrancyGuard.sol\":2336:2623  function _nonReentrantBefore() private {... */\n    tag_421:\n        /* \"@openzeppelin/contracts/security/ReentrancyGuard.sol\":1759:1760  2 */\n      0x02\n        /* \"@openzeppelin/contracts/security/ReentrancyGuard.sol\":2468:2475  _status */\n      sload(0x00)\n        /* \"@openzeppelin/contracts/security/ReentrancyGuard.sol\":2468:2487  _status != _ENTERED */\n      sub\n        /* \"@openzeppelin/contracts/security/ReentrancyGuard.sol\":2460:2523  require(_status != _ENTERED, \"ReentrancyGuard: reentrant call\") */\n      tag_484\n      jumpi\n      mload(0x40)\n      0x08c379a000000000000000000000000000000000000000000000000000000000\n      dup2\n      mstore\n      0x04\n      add\n      tag_485\n      swap1\n      tag_486\n      jump\t// in\n    tag_485:\n      mload(0x40)\n      dup1\n      swap2\n      sub\n      swap1\n      revert\n    tag_484:\n        /* \"@openzeppelin/contracts/security/ReentrancyGuard.sol\":1759:1760  2 */\n      0x02\n        /* \"@openzeppelin/contracts/security/ReentrancyGuard.sol\":2598:2605  _status */\n      0x00\n        /* \"@openzeppelin/contracts/security/ReentrancyGuard.sol\":2598:2616  _status = _ENTERED */\n      dup2\n      swap1\n      sstore\n      pop\n        /* \"@openzeppelin/contracts/security/ReentrancyGuard.sol\":2336:2623  function _nonReentrantBefore() private {... */\n      jump\t// out\n        /* \"@openzeppelin/contracts/security/ReentrancyGuard.sol\":2629:2838  function _nonReentrantAfter() private {... */\n    tag_444:\n        /* \"@openzeppelin/contracts/security/ReentrancyGuard.sol\":1716:1717  1 */\n      0x01\n        /* \"@openzeppelin/contracts/security/ReentrancyGuard.sol\":2809:2816  _status */\n      0x00\n        /* \"@openzeppelin/contracts/security/ReentrancyGuard.sol\":2809:2831  _status = _NOT_ENTERED */\n      dup2\n      swap1\n      sstore\n      pop\n        /* \"@openzeppelin/contracts/security/ReentrancyGuard.sol\":2629:2838  function _nonReentrantAfter() private {... */\n      jump\t// out\n        /* \"@openzeppelin/contracts/token/ERC20/utils/SafeERC20.sol\":1219:1379  function safeTransfer(IERC20 token, address to, uint256 value) internal {... */\n    tag_460:\n        /* \"@openzeppelin/contracts/token/ERC20/utils/SafeERC20.sol\":1301:1372  _callOptionalReturn(token, abi.encodeCall(token.transfer, (to, value))) */\n      tag_489\n        /* \"@openzeppelin/contracts/token/ERC20/utils/SafeERC20.sol\":1321:1326  token */\n      dup4\n        /* \"@openzeppelin/contracts/token/ERC20/utils/SafeERC20.sol\":1343:1348  token */\n      dup5\n        /* \"@openzeppelin/contracts/token/ERC20/utils/SafeERC20.sol\":1343:1357  token.transfer */\n      0xffffffffffffffffffffffffffffffffffffffff\n      and\n      0xa9059cbb\n        /* \"@openzeppelin/contracts/token/ERC20/utils/SafeERC20.sol\":1360:1362  to */\n      dup6\n        /* \"@openzeppelin/contracts/token/ERC20/utils/SafeERC20.sol\":1364:1369  value */\n      dup6\n        /* \"@openzeppelin/contracts/token/ERC20/utils/SafeERC20.sol\":1328:1371  abi.encodeCall(token.transfer, (to, value)) */\n      add(0x24, mload(0x40))\n      tag_490\n      swap3\n      swap2\n      swap1\n      tag_265\n      jump\t// in\n    tag_490:\n      mload(0x40)\n      0x20\n      dup2\n      dup4\n      sub\n      sub\n      dup2\n      mstore\n      swap1\n      0x40\n      mstore\n      swap2\n      pop\n      0xe0\n      shl\n      0x20\n      dup3\n      add\n      dup1\n      mload\n      0xffffffffffffffffffffffffffffffffffffffffffffffffffffffff\n      dup4\n      dup2\n      dup4\n      and\n      or\n      dup4\n      mstore\n      pop\n      pop\n      pop\n      pop\n        /* \"@openzeppelin/contracts/token/ERC20/utils/SafeERC20.sol\":1301:1320  _callOptionalReturn */\n      tag_411\n        /* \"@openzeppelin/contracts/token/ERC20/utils/SafeERC20.sol\":1301:1372  _callOptionalReturn(token, abi.encodeCall(token.transfer, (to, value))) */\n      jump\t// in\n    tag_489:\n        /* \"@openzeppelin/contracts/token/ERC20/utils/SafeERC20.sol\":1219:1379  function safeTransfer(IERC20 token, address to, uint256 value) internal {... */\n      pop\n      pop\n      pop\n      jump\t// out\n        /* \"#utility.yul\":7:133   */\n    tag_491:\n        /* \"#utility.yul\":44:51   */\n      0x00\n        /* \"#utility.yul\":84:126   */\n      0xffffffffffffffffffffffffffffffffffffffff\n        /* \"#utility.yul\":77:82   */\n      dup3\n        /* \"#utility.yul\":73:127   */\n      and\n        /* \"#utility.yul\":62:127   */\n      swap1\n      pop\n        /* \"#utility.yul\":7:133   */\n      swap2\n      swap1\n      pop\n      jump\t// out\n        /* \"#utility.yul\":139:235   */\n    tag_492:\n        /* \"#utility.yul\":176:183   */\n      0x00\n        /* \"#utility.yul\":205:229   */\n      tag_537\n        /* \"#utility.yul\":223:228   */\n      dup3\n        /* \"#utility.yul\":205:229   */\n      tag_491\n      jump\t// in\n    tag_537:\n        /* \"#utility.yul\":194:229   */\n      swap1\n      pop\n        /* \"#utility.yul\":139:235   */\n      swap2\n      swap1\n      pop\n      jump\t// out\n        /* \"#utility.yul\":241:359   */\n    tag_493:\n        /* \"#utility.yul\":328:352   */\n      tag_539\n        /* \"#utility.yul\":346:351   */\n      dup2\n        /* \"#utility.yul\":328:352   */\n      tag_492\n      jump\t// in\n    tag_539:\n        /* \"#utility.yul\":323:326   */\n      dup3\n        /* \"#utility.yul\":316:353   */\n      mstore\n        /* \"#utility.yul\":241:359   */\n      pop\n      pop\n      jump\t// out\n        /* \"#utility.yul\":365:587   */\n    tag_45:\n        /* \"#utility.yul\":458:462   */\n      0x00\n        /* \"#utility.yul\":496:498   */\n      0x20\n        /* \"#utility.yul\":485:494   */\n      dup3\n        /* \"#utility.yul\":481:499   */\n      add\n        /* \"#utility.yul\":473:499   */\n      swap1\n      pop\n        /* \"#utility.yul\":509:580   */\n      tag_541\n        /* \"#utility.yul\":577:578   */\n      0x00\n        /* \"#utility.yul\":566:575   */\n      dup4\n        /* \"#utility.yul\":562:579   */\n      add\n        /* \"#utility.yul\":553:559   */\n      dup5\n        /* \"#utility.yul\":509:580   */\n      tag_493\n      jump\t// in\n    tag_541:\n        /* \"#utility.yul\":365:587   */\n      swap3\n      swap2\n      pop\n      pop\n      jump\t// out\n        /* \"#utility.yul\":674:791   */\n    tag_495:\n        /* \"#utility.yul\":783:784   */\n      0x00\n        /* \"#utility.yul\":780:781   */\n      0x00\n        /* \"#utility.yul\":773:785   */\n      revert\n        /* \"#utility.yul\":920:1069   */\n    tag_497:\n        /* \"#utility.yul\":956:963   */\n      0x00\n        /* \"#utility.yul\":996:1062   */\n      0xffffffff00000000000000000000000000000000000000000000000000000000\n        /* \"#utility.yul\":989:994   */\n      dup3\n        /* \"#utility.yul\":985:1063   */\n      and\n        /* \"#utility.yul\":974:1063   */\n      swap1\n      pop\n        /* \"#utility.yul\":920:1069   */\n      swap2\n      swap1\n      pop\n      jump\t// out\n        /* \"#utility.yul\":1075:1195   */\n    tag_498:\n        /* \"#utility.yul\":1147:1170   */\n      tag_547\n        /* \"#utility.yul\":1164:1169   */\n      dup2\n        /* \"#utility.yul\":1147:1170   */\n      tag_497\n      jump\t// in\n    tag_547:\n        /* \"#utility.yul\":1140:1145   */\n      dup2\n        /* \"#utility.yul\":1137:1171   */\n      eq\n        /* \"#utility.yul\":1127:1189   */\n      tag_548\n      jumpi\n        /* \"#utility.yul\":1185:1186   */\n      0x00\n        /* \"#utility.yul\":1182:1183   */\n      0x00\n        /* \"#utility.yul\":1175:1187   */\n      revert\n        /* \"#utility.yul\":1127:1189   */\n    tag_548:\n        /* \"#utility.yul\":1075:1195   */\n      pop\n      jump\t// out\n        /* \"#utility.yul\":1201:1338   */\n    tag_499:\n        /* \"#utility.yul\":1246:1251   */\n      0x00\n        /* \"#utility.yul\":1284:1290   */\n      dup2\n        /* \"#utility.yul\":1271:1291   */\n      calldataload\n        /* \"#utility.yul\":1262:1291   */\n      swap1\n      pop\n        /* \"#utility.yul\":1300:1332   */\n      tag_550\n        /* \"#utility.yul\":1326:1331   */\n      dup2\n        /* \"#utility.yul\":1300:1332   */\n      tag_498\n      jump\t// in\n    tag_550:\n        /* \"#utility.yul\":1201:1338   */\n      swap3\n      swap2\n      pop\n      pop\n      jump\t// out\n        /* \"#utility.yul\":1344:1671   */\n    tag_52:\n        /* \"#utility.yul\":1402:1408   */\n      0x00\n        /* \"#utility.yul\":1451:1453   */\n      0x20\n        /* \"#utility.yul\":1439:1448   */\n      dup3\n        /* \"#utility.yul\":1430:1437   */\n      dup5\n        /* \"#utility.yul\":1426:1449   */\n      sub\n        /* \"#utility.yul\":1422:1454   */\n      slt\n        /* \"#utility.yul\":1419:1538   */\n      iszero\n      tag_552\n      jumpi\n        /* \"#utility.yul\":1457:1536   */\n      tag_553\n      tag_495\n      jump\t// in\n    tag_553:\n        /* \"#utility.yul\":1419:1538   */\n    tag_552:\n        /* \"#utility.yul\":1577:1578   */\n      0x00\n        /* \"#utility.yul\":1602:1654   */\n      tag_554\n        /* \"#utility.yul\":1646:1653   */\n      dup5\n        /* \"#utility.yul\":1637:1643   */\n      dup3\n        /* \"#utility.yul\":1626:1635   */\n      dup6\n        /* \"#utility.yul\":1622:1644   */\n      add\n        /* \"#utility.yul\":1602:1654   */\n      tag_499\n      jump\t// in\n    tag_554:\n        /* \"#utility.yul\":1592:1654   */\n      swap2\n      pop\n        /* \"#utility.yul\":1548:1664   */\n      pop\n        /* \"#utility.yul\":1344:1671   */\n      swap3\n      swap2\n      pop\n      pop\n      jump\t// out\n        /* \"#utility.yul\":1677:1767   */\n    tag_500:\n        /* \"#utility.yul\":1711:1718   */\n      0x00\n        /* \"#utility.yul\":1754:1759   */\n      dup2\n        /* \"#utility.yul\":1747:1760   */\n      iszero\n        /* \"#utility.yul\":1740:1761   */\n      iszero\n        /* \"#utility.yul\":1729:1761   */\n      swap1\n      pop\n        /* \"#utility.yul\":1677:1767   */\n      swap2\n      swap1\n      pop\n      jump\t// out\n        /* \"#utility.yul\":1773:1882   */\n    tag_501:\n        /* \"#utility.yul\":1854:1875   */\n      tag_557\n        /* \"#utility.yul\":1869:1874   */\n      dup2\n        /* \"#utility.yul\":1854:1875   */\n      tag_500\n      jump\t// in\n    tag_557:\n        /* \"#utility.yul\":1849:1852   */\n      dup3\n        /* \"#utility.yul\":1842:1876   */\n      mstore\n        /* \"#utility.yul\":1773:1882   */\n      pop\n      pop\n      jump\t// out\n        /* \"#utility.yul\":1888:2098   */\n    tag_55:\n        /* \"#utility.yul\":1975:1979   */\n      0x00\n        /* \"#utility.yul\":2013:2015   */\n      0x20\n        /* \"#utility.yul\":2002:2011   */\n      dup3\n        /* \"#utility.yul\":1998:2016   */\n      add\n        /* \"#utility.yul\":1990:2016   */\n      swap1\n      pop\n        /* \"#utility.yul\":2026:2091   */\n      tag_559\n        /* \"#utility.yul\":2088:2089   */\n      0x00\n        /* \"#utility.yul\":2077:2086   */\n      dup4\n        /* \"#utility.yul\":2073:2090   */\n      add\n        /* \"#utility.yul\":2064:2070   */\n      dup5\n        /* \"#utility.yul\":2026:2091   */\n      tag_501\n      jump\t// in\n    tag_559:\n        /* \"#utility.yul\":1888:2098   */\n      swap3\n      swap2\n      pop\n      pop\n      jump\t// out\n        /* \"#utility.yul\":2104:2181   */\n    tag_502:\n        /* \"#utility.yul\":2141:2148   */\n      0x00\n        /* \"#utility.yul\":2170:2175   */\n      dup2\n        /* \"#utility.yul\":2159:2175   */\n      swap1\n      pop\n        /* \"#utility.yul\":2104:2181   */\n      swap2\n      swap1\n      pop\n      jump\t// out\n        /* \"#utility.yul\":2187:2305   */\n    tag_503:\n        /* \"#utility.yul\":2274:2298   */\n      tag_562\n        /* \"#utility.yul\":2292:2297   */\n      dup2\n        /* \"#utility.yul\":2274:2298   */\n      tag_502\n      jump\t// in\n    tag_562:\n        /* \"#utility.yul\":2269:2272   */\n      dup3\n        /* \"#utility.yul\":2262:2299   */\n      mstore\n        /* \"#utility.yul\":2187:2305   */\n      pop\n      pop\n      jump\t// out\n        /* \"#utility.yul\":2311:2963   */\n    tag_60:\n        /* \"#utility.yul\":2510:2514   */\n      0x00\n        /* \"#utility.yul\":2548:2551   */\n      0xa0\n        /* \"#utility.yul\":2537:2546   */\n      dup3\n        /* \"#utility.yul\":2533:2552   */\n      add\n        /* \"#utility.yul\":2525:2552   */\n      swap1\n      pop\n        /* \"#utility.yul\":2562:2627   */\n      tag_564\n        /* \"#utility.yul\":2624:2625   */\n      0x00\n        /* \"#utility.yul\":2613:2622   */\n      dup4\n        /* \"#utility.yul\":2609:2626   */\n      add\n        /* \"#utility.yul\":2600:2606   */\n      dup9\n        /* \"#utility.yul\":2562:2627   */\n      tag_501\n      jump\t// in\n    tag_564:\n        /* \"#utility.yul\":2637:2709   */\n      tag_565\n        /* \"#utility.yul\":2705:2707   */\n      0x20\n        /* \"#utility.yul\":2694:2703   */\n      dup4\n        /* \"#utility.yul\":2690:2708   */\n      add\n        /* \"#utility.yul\":2681:2687   */\n      dup8\n        /* \"#utility.yul\":2637:2709   */\n      tag_503\n      jump\t// in\n    tag_565:\n        /* \"#utility.yul\":2719:2791   */\n      tag_566\n        /* \"#utility.yul\":2787:2789   */\n      0x40\n        /* \"#utility.yul\":2776:2785   */\n      dup4\n        /* \"#utility.yul\":2772:2790   */\n      add\n        /* \"#utility.yul\":2763:2769   */\n      dup7\n        /* \"#utility.yul\":2719:2791   */\n      tag_503\n      jump\t// in\n    tag_566:\n        /* \"#utility.yul\":2801:2873   */\n      tag_567\n        /* \"#utility.yul\":2869:2871   */\n      0x60\n        /* \"#utility.yul\":2858:2867   */\n      dup4\n        /* \"#utility.yul\":2854:2872   */\n      add\n        /* \"#utility.yul\":2845:2851   */\n      dup6\n        /* \"#utility.yul\":2801:2873   */\n      tag_503\n      jump\t// in\n    tag_567:\n        /* \"#utility.yul\":2883:2956   */\n      tag_568\n        /* \"#utility.yul\":2951:2954   */\n      0x80\n        /* \"#utility.yul\":2940:2949   */\n      dup4\n        /* \"#utility.yul\":2936:2955   */\n      add\n        /* \"#utility.yul\":2927:2933   */\n      dup5\n        /* \"#utility.yul\":2883:2956   */\n      tag_493\n      jump\t// in\n    tag_568:\n        /* \"#utility.yul\":2311:2963   */\n      swap7\n      swap6\n      pop\n      pop\n      pop\n      pop\n      pop\n      pop\n      jump\t// out\n        /* \"#utility.yul\":2969:3046   */\n    tag_504:\n        /* \"#utility.yul\":3006:3013   */\n      0x00\n        /* \"#utility.yul\":3035:3040   */\n      dup2\n        /* \"#utility.yul\":3024:3040   */\n      swap1\n      pop\n        /* \"#utility.yul\":2969:3046   */\n      swap2\n      swap1\n      pop\n      jump\t// out\n        /* \"#utility.yul\":3052:3174   */\n    tag_505:\n        /* \"#utility.yul\":3125:3149   */\n      tag_571\n        /* \"#utility.yul\":3143:3148   */\n      dup2\n        /* \"#utility.yul\":3125:3149   */\n      tag_504\n      jump\t// in\n    tag_571:\n        /* \"#utility.yul\":3118:3123   */\n      dup2\n        /* \"#utility.yul\":3115:3150   */\n      eq\n        /* \"#utility.yul\":3105:3168   */\n      tag_572\n      jumpi\n        /* \"#utility.yul\":3164:3165   */\n      0x00\n        /* \"#utility.yul\":3161:3162   */\n      0x00\n        /* \"#utility.yul\":3154:3166   */\n      revert\n        /* \"#utility.yul\":3105:3168   */\n    tag_572:\n        /* \"#utility.yul\":3052:3174   */\n      pop\n      jump\t// out\n        /* \"#utility.yul\":3180:3319   */\n    tag_506:\n        /* \"#utility.yul\":3226:3231   */\n      0x00\n        /* \"#utility.yul\":3264:3270   */\n      dup2\n        /* \"#utility.yul\":3251:3271   */\n      calldataload\n        /* \"#utility.yul\":3242:3271   */\n      swap1\n      pop\n        /* \"#utility.yul\":3280:3313   */\n      tag_574\n        /* \"#utility.yul\":3307:3312   */\n      dup2\n        /* \"#utility.yul\":3280:3313   */\n      tag_505\n      jump\t// in\n    tag_574:\n        /* \"#utility.yul\":3180:3319   */\n      swap3\n      swap2\n      pop\n      pop\n      jump\t// out\n        /* \"#utility.yul\":3325:3654   */\n    tag_69:\n        /* \"#utility.yul\":3384:3390   */\n      0x00\n        /* \"#utility.yul\":3433:3435   */\n      0x20\n        /* \"#utility.yul\":3421:3430   */\n      dup3\n        /* \"#utility.yul\":3412:3419   */\n      dup5\n        /* \"#utility.yul\":3408:3431   */\n      sub\n        /* \"#utility.yul\":3404:3436   */\n      slt\n        /* \"#utility.yul\":3401:3520   */\n      iszero\n      tag_576\n      jumpi\n        /* \"#utility.yul\":3439:3518   */\n      tag_577\n      tag_495\n      jump\t// in\n    tag_577:\n        /* \"#utility.yul\":3401:3520   */\n    tag_576:\n        /* \"#utility.yul\":3559:3560   */\n      0x00\n        /* \"#utility.yul\":3584:3637   */\n      tag_578\n        /* \"#utility.yul\":3629:3636   */\n      dup5\n        /* \"#utility.yul\":3620:3626   */\n      dup3\n        /* \"#utility.yul\":3609:3618   */\n      dup6\n        /* \"#utility.yul\":3605:3627   */\n      add\n        /* \"#utility.yul\":3584:3637   */\n      tag_506\n      jump\t// in\n    tag_578:\n        /* \"#utility.yul\":3574:3637   */\n      swap2\n      pop\n        /* \"#utility.yul\":3530:3647   */\n      pop\n        /* \"#utility.yul\":3325:3654   */\n      swap3\n      swap2\n      pop\n      pop\n      jump\t// out\n        /* \"#utility.yul\":3660:3778   */\n    tag_507:\n        /* \"#utility.yul\":3747:3771   */\n      tag_580\n        /* \"#utility.yul\":3765:3770   */\n      dup2\n        /* \"#utility.yul\":3747:3771   */\n      tag_504\n      jump\t// in\n    tag_580:\n        /* \"#utility.yul\":3742:3745   */\n      dup3\n        /* \"#utility.yul\":3735:3772   */\n      mstore\n        /* \"#utility.yul\":3660:3778   */\n      pop\n      pop\n      jump\t// out\n        /* \"#utility.yul\":3784:4006   */\n    tag_72:\n        /* \"#utility.yul\":3877:3881   */\n      0x00\n        /* \"#utility.yul\":3915:3917   */\n      0x20\n        /* \"#utility.yul\":3904:3913   */\n      dup3\n        /* \"#utility.yul\":3900:3918   */\n      add\n        /* \"#utility.yul\":3892:3918   */\n      swap1\n      pop\n        /* \"#utility.yul\":3928:3999   */\n      tag_582\n        /* \"#utility.yul\":3996:3997   */\n      0x00\n        /* \"#utility.yul\":3985:3994   */\n      dup4\n        /* \"#utility.yul\":3981:3998   */\n      add\n        /* \"#utility.yul\":3972:3978   */\n      dup5\n        /* \"#utility.yul\":3928:3999   */\n      tag_507\n      jump\t// in\n    tag_582:\n        /* \"#utility.yul\":3784:4006   */\n      swap3\n      swap2\n      pop\n      pop\n      jump\t// out\n        /* \"#utility.yul\":4012:4134   */\n    tag_508:\n        /* \"#utility.yul\":4085:4109   */\n      tag_584\n        /* \"#utility.yul\":4103:4108   */\n      dup2\n        /* \"#utility.yul\":4085:4109   */\n      tag_492\n      jump\t// in\n    tag_584:\n        /* \"#utility.yul\":4078:4083   */\n      dup2\n        /* \"#utility.yul\":4075:4110   */\n      eq\n        /* \"#utility.yul\":4065:4128   */\n      tag_585\n      jumpi\n        /* \"#utility.yul\":4124:4125   */\n      0x00\n        /* \"#utility.yul\":4121:4122   */\n      0x00\n        /* \"#utility.yul\":4114:4126   */\n      revert\n        /* \"#utility.yul\":4065:4128   */\n    tag_585:\n        /* \"#utility.yul\":4012:4134   */\n      pop\n      jump\t// out\n        /* \"#utility.yul\":4140:4279   */\n    tag_509:\n        /* \"#utility.yul\":4186:4191   */\n      0x00\n        /* \"#utility.yul\":4224:4230   */\n      dup2\n        /* \"#utility.yul\":4211:4231   */\n      calldataload\n        /* \"#utility.yul\":4202:4231   */\n      swap1\n      pop\n        /* \"#utility.yul\":4240:4273   */\n      tag_587\n        /* \"#utility.yul\":4267:4272   */\n      dup2\n        /* \"#utility.yul\":4240:4273   */\n      tag_508\n      jump\t// in\n    tag_587:\n        /* \"#utility.yul\":4140:4279   */\n      swap3\n      swap2\n      pop\n      pop\n      jump\t// out\n        /* \"#utility.yul\":4285:4759   */\n    tag_76:\n        /* \"#utility.yul\":4353:4359   */\n      0x00\n        /* \"#utility.yul\":4361:4367   */\n      0x00\n        /* \"#utility.yul\":4410:4412   */\n      0x40\n        /* \"#utility.yul\":4398:4407   */\n      dup4\n        /* \"#utility.yul\":4389:4396   */\n      dup6\n        /* \"#utility.yul\":4385:4408   */\n      sub\n        /* \"#utility.yul\":4381:4413   */\n      slt\n        /* \"#utility.yul\":4378:4497   */\n      iszero\n      tag_589\n      jumpi\n        /* \"#utility.yul\":4416:4495   */\n      tag_590\n      tag_495\n      jump\t// in\n    tag_590:\n        /* \"#utility.yul\":4378:4497   */\n    tag_589:\n        /* \"#utility.yul\":4536:4537   */\n      0x00\n        /* \"#utility.yul\":4561:4614   */\n      tag_591\n        /* \"#utility.yul\":4606:4613   */\n      dup6\n        /* \"#utility.yul\":4597:4603   */\n      dup3\n        /* \"#utility.yul\":4586:4595   */\n      dup7\n        /* \"#utility.yul\":4582:4604   */\n      add\n        /* \"#utility.yul\":4561:4614   */\n      tag_506\n      jump\t// in\n    tag_591:\n        /* \"#utility.yul\":4551:4614   */\n      swap3\n      pop\n        /* \"#utility.yul\":4507:4624   */\n      pop\n        /* \"#utility.yul\":4663:4665   */\n      0x20\n        /* \"#utility.yul\":4689:4742   */\n      tag_592\n        /* \"#utility.yul\":4734:4741   */\n      dup6\n        /* \"#utility.yul\":4725:4731   */\n      dup3\n        /* \"#utility.yul\":4714:4723   */\n      dup7\n        /* \"#utility.yul\":4710:4732   */\n      add\n        /* \"#utility.yul\":4689:4742   */\n      tag_509\n      jump\t// in\n    tag_592:\n        /* \"#utility.yul\":4679:4742   */\n      swap2\n      pop\n        /* \"#utility.yul\":4634:4752   */\n      pop\n        /* \"#utility.yul\":4285:4759   */\n      swap3\n      pop\n      swap3\n      swap1\n      pop\n      jump\t// out\n        /* \"#utility.yul\":4765:4987   */\n    tag_93:\n        /* \"#utility.yul\":4858:4862   */\n      0x00\n        /* \"#utility.yul\":4896:4898   */\n      0x20\n        /* \"#utility.yul\":4885:4894   */\n      dup3\n        /* \"#utility.yul\":4881:4899   */\n      add\n        /* \"#utility.yul\":4873:4899   */\n      swap1\n      pop\n        /* \"#utility.yul\":4909:4980   */\n      tag_594\n        /* \"#utility.yul\":4977:4978   */\n      0x00\n        /* \"#utility.yul\":4966:4975   */\n      dup4\n        /* \"#utility.yul\":4962:4979   */\n      add\n        /* \"#utility.yul\":4953:4959   */\n      dup5\n        /* \"#utility.yul\":4909:4980   */\n      tag_503\n      jump\t// in\n    tag_594:\n        /* \"#utility.yul\":4765:4987   */\n      swap3\n      swap2\n      pop\n      pop\n      jump\t// out\n        /* \"#utility.yul\":4993:5115   */\n    tag_510:\n        /* \"#utility.yul\":5066:5090   */\n      tag_596\n        /* \"#utility.yul\":5084:5089   */\n      dup2\n        /* \"#utility.yul\":5066:5090   */\n      tag_502\n      jump\t// in\n    tag_596:\n        /* \"#utility.yul\":5059:5064   */\n      dup2\n        /* \"#utility.yul\":5056:5091   */\n      eq\n        /* \"#utility.yul\":5046:5109   */\n      tag_597\n      jumpi\n        /* \"#utility.yul\":5105:5106   */\n      0x00\n        /* \"#utility.yul\":5102:5103   */\n      0x00\n        /* \"#utility.yul\":5095:5107   */\n      revert\n        /* \"#utility.yul\":5046:5109   */\n    tag_597:\n        /* \"#utility.yul\":4993:5115   */\n      pop\n      jump\t// out\n        /* \"#utility.yul\":5121:5260   */\n    tag_511:\n        /* \"#utility.yul\":5167:5172   */\n      0x00\n        /* \"#utility.yul\":5205:5211   */\n      dup2\n        /* \"#utility.yul\":5192:5212   */\n      calldataload\n        /* \"#utility.yul\":5183:5212   */\n      swap1\n      pop\n        /* \"#utility.yul\":5221:5254   */\n      tag_599\n        /* \"#utility.yul\":5248:5253   */\n      dup2\n        /* \"#utility.yul\":5221:5254   */\n      tag_510\n      jump\t// in\n    tag_599:\n        /* \"#utility.yul\":5121:5260   */\n      swap3\n      swap2\n      pop\n      pop\n      jump\t// out\n        /* \"#utility.yul\":5266:5595   */\n    tag_97:\n        /* \"#utility.yul\":5325:5331   */\n      0x00\n        /* \"#utility.yul\":5374:5376   */\n      0x20\n        /* \"#utility.yul\":5362:5371   */\n      dup3\n        /* \"#utility.yul\":5353:5360   */\n      dup5\n        /* \"#utility.yul\":5349:5372   */\n      sub\n        /* \"#utility.yul\":5345:5377   */\n      slt\n        /* \"#utility.yul\":5342:5461   */\n      iszero\n      tag_601\n      jumpi\n        /* \"#utility.yul\":5380:5459   */\n      tag_602\n      tag_495\n      jump\t// in\n    tag_602:\n        /* \"#utility.yul\":5342:5461   */\n    tag_601:\n        /* \"#utility.yul\":5500:5501   */\n      0x00\n        /* \"#utility.yul\":5525:5578   */\n      tag_603\n        /* \"#utility.yul\":5570:5577   */\n      dup5\n        /* \"#utility.yul\":5561:5567   */\n      dup3\n        /* \"#utility.yul\":5550:5559   */\n      dup6\n        /* \"#utility.yul\":5546:5568   */\n      add\n        /* \"#utility.yul\":5525:5578   */\n      tag_511\n      jump\t// in\n    tag_603:\n        /* \"#utility.yul\":5515:5578   */\n      swap2\n      pop\n        /* \"#utility.yul\":5471:5588   */\n      pop\n        /* \"#utility.yul\":5266:5595   */\n      swap3\n      swap2\n      pop\n      pop\n      jump\t// out\n        /* \"#utility.yul\":5601:5661   */\n    tag_512:\n        /* \"#utility.yul\":5629:5632   */\n      0x00\n        /* \"#utility.yul\":5650:5655   */\n      dup2\n        /* \"#utility.yul\":5643:5655   */\n      swap1\n      pop\n        /* \"#utility.yul\":5601:5661   */\n      swap2\n      swap1\n      pop\n      jump\t// out\n        /* \"#utility.yul\":5667:5809   */\n    tag_513:\n        /* \"#utility.yul\":5717:5726   */\n      0x00\n        /* \"#utility.yul\":5750:5803   */\n      tag_606\n        /* \"#utility.yul\":5768:5802   */\n      tag_607\n        /* \"#utility.yul\":5777:5801   */\n      tag_608\n        /* \"#utility.yul\":5795:5800   */\n      dup5\n        /* \"#utility.yul\":5777:5801   */\n      tag_491\n      jump\t// in\n    tag_608:\n        /* \"#utility.yul\":5768:5802   */\n      tag_512\n      jump\t// in\n    tag_607:\n        /* \"#utility.yul\":5750:5803   */\n      tag_491\n      jump\t// in\n    tag_606:\n        /* \"#utility.yul\":5737:5803   */\n      swap1\n      pop\n        /* \"#utility.yul\":5667:5809   */\n      swap2\n      swap1\n      pop\n      jump\t// out\n        /* \"#utility.yul\":5815:5941   */\n    tag_514:\n        /* \"#utility.yul\":5865:5874   */\n      0x00\n        /* \"#utility.yul\":5898:5935   */\n      tag_610\n        /* \"#utility.yul\":5929:5934   */\n      dup3\n        /* \"#utility.yul\":5898:5935   */\n      tag_513\n      jump\t// in\n    tag_610:\n        /* \"#utility.yul\":5885:5935   */\n      swap1\n      pop\n        /* \"#utility.yul\":5815:5941   */\n      swap2\n      swap1\n      pop\n      jump\t// out\n        /* \"#utility.yul\":5947:6101   */\n    tag_515:\n        /* \"#utility.yul\":6025:6034   */\n      0x00\n        /* \"#utility.yul\":6058:6095   */\n      tag_612\n        /* \"#utility.yul\":6089:6094   */\n      dup3\n        /* \"#utility.yul\":6058:6095   */\n      tag_514\n      jump\t// in\n    tag_612:\n        /* \"#utility.yul\":6045:6095   */\n      swap1\n      pop\n        /* \"#utility.yul\":5947:6101   */\n      swap2\n      swap1\n      pop\n      jump\t// out\n        /* \"#utility.yul\":6107:6294   */\n    tag_516:\n        /* \"#utility.yul\":6222:6287   */\n      tag_614\n        /* \"#utility.yul\":6281:6286   */\n      dup2\n        /* \"#utility.yul\":6222:6287   */\n      tag_515\n      jump\t// in\n    tag_614:\n        /* \"#utility.yul\":6217:6220   */\n      dup3\n        /* \"#utility.yul\":6210:6288   */\n      mstore\n        /* \"#utility.yul\":6107:6294   */\n      pop\n      pop\n      jump\t// out\n        /* \"#utility.yul\":6300:6578   */\n    tag_103:\n        /* \"#utility.yul\":6421:6425   */\n      0x00\n        /* \"#utility.yul\":6459:6461   */\n      0x20\n        /* \"#utility.yul\":6448:6457   */\n      dup3\n        /* \"#utility.yul\":6444:6462   */\n      add\n        /* \"#utility.yul\":6436:6462   */\n      swap1\n      pop\n        /* \"#utility.yul\":6472:6571   */\n      tag_616\n        /* \"#utility.yul\":6568:6569   */\n      0x00\n        /* \"#utility.yul\":6557:6566   */\n      dup4\n        /* \"#utility.yul\":6553:6570   */\n      add\n        /* \"#utility.yul\":6544:6550   */\n      dup5\n        /* \"#utility.yul\":6472:6571   */\n      tag_516\n      jump\t// in\n    tag_616:\n        /* \"#utility.yul\":6300:6578   */\n      swap3\n      swap2\n      pop\n      pop\n      jump\t// out\n        /* \"#utility.yul\":6584:6913   */\n    tag_114:\n        /* \"#utility.yul\":6643:6649   */\n      0x00\n        /* \"#utility.yul\":6692:6694   */\n      0x20\n        /* \"#utility.yul\":6680:6689   */\n      dup3\n        /* \"#utility.yul\":6671:6678   */\n      dup5\n        /* \"#utility.yul\":6667:6690   */\n      sub\n        /* \"#utility.yul\":6663:6695   */\n      slt\n        /* \"#utility.yul\":6660:6779   */\n      iszero\n      tag_618\n      jumpi\n        /* \"#utility.yul\":6698:6777   */\n      tag_619\n      tag_495\n      jump\t// in\n    tag_619:\n        /* \"#utility.yul\":6660:6779   */\n    tag_618:\n        /* \"#utility.yul\":6818:6819   */\n      0x00\n        /* \"#utility.yul\":6843:6896   */\n      tag_620\n        /* \"#utility.yul\":6888:6895   */\n      dup5\n        /* \"#utility.yul\":6879:6885   */\n      dup3\n        /* \"#utility.yul\":6868:6877   */\n      dup6\n        /* \"#utility.yul\":6864:6886   */\n      add\n        /* \"#utility.yul\":6843:6896   */\n      tag_509\n      jump\t// in\n    tag_620:\n        /* \"#utility.yul\":6833:6896   */\n      swap2\n      pop\n        /* \"#utility.yul\":6789:6906   */\n      pop\n        /* \"#utility.yul\":6584:6913   */\n      swap3\n      swap2\n      pop\n      pop\n      jump\t// out\n        /* \"#utility.yul\":6919:7393   */\n    tag_160:\n        /* \"#utility.yul\":6987:6993   */\n      0x00\n        /* \"#utility.yul\":6995:7001   */\n      0x00\n        /* \"#utility.yul\":7044:7046   */\n      0x40\n        /* \"#utility.yul\":7032:7041   */\n      dup4\n        /* \"#utility.yul\":7023:7030   */\n      dup6\n        /* \"#utility.yul\":7019:7042   */\n      sub\n        /* \"#utility.yul\":7015:7047   */\n      slt\n        /* \"#utility.yul\":7012:7131   */\n      iszero\n      tag_622\n      jumpi\n        /* \"#utility.yul\":7050:7129   */\n      tag_623\n      tag_495\n      jump\t// in\n    tag_623:\n        /* \"#utility.yul\":7012:7131   */\n    tag_622:\n        /* \"#utility.yul\":7170:7171   */\n      0x00\n        /* \"#utility.yul\":7195:7248   */\n      tag_624\n        /* \"#utility.yul\":7240:7247   */\n      dup6\n        /* \"#utility.yul\":7231:7237   */\n      dup3\n        /* \"#utility.yul\":7220:7229   */\n      dup7\n        /* \"#utility.yul\":7216:7238   */\n      add\n        /* \"#utility.yul\":7195:7248   */\n      tag_509\n      jump\t// in\n    tag_624:\n        /* \"#utility.yul\":7185:7248   */\n      swap3\n      pop\n        /* \"#utility.yul\":7141:7258   */\n      pop\n        /* \"#utility.yul\":7297:7299   */\n      0x20\n        /* \"#utility.yul\":7323:7376   */\n      tag_625\n        /* \"#utility.yul\":7368:7375   */\n      dup6\n        /* \"#utility.yul\":7359:7365   */\n      dup3\n        /* \"#utility.yul\":7348:7357   */\n      dup7\n        /* \"#utility.yul\":7344:7366   */\n      add\n        /* \"#utility.yul\":7323:7376   */\n      tag_506\n      jump\t// in\n    tag_625:\n        /* \"#utility.yul\":7313:7376   */\n      swap2\n      pop\n        /* \"#utility.yul\":7268:7386   */\n      pop\n        /* \"#utility.yul\":6919:7393   */\n      swap3\n      pop\n      swap3\n      swap1\n      pop\n      jump\t// out\n        /* \"#utility.yul\":7399:7873   */\n    tag_185:\n        /* \"#utility.yul\":7467:7473   */\n      0x00\n        /* \"#utility.yul\":7475:7481   */\n      0x00\n        /* \"#utility.yul\":7524:7526   */\n      0x40\n        /* \"#utility.yul\":7512:7521   */\n      dup4\n        /* \"#utility.yul\":7503:7510   */\n      dup6\n        /* \"#utility.yul\":7499:7522   */\n      sub\n        /* \"#utility.yul\":7495:7527   */\n      slt\n        /* \"#utility.yul\":7492:7611   */\n      iszero\n      tag_627\n      jumpi\n        /* \"#utility.yul\":7530:7609   */\n      tag_628\n      tag_495\n      jump\t// in\n    tag_628:\n        /* \"#utility.yul\":7492:7611   */\n    tag_627:\n        /* \"#utility.yul\":7650:7651   */\n      0x00\n        /* \"#utility.yul\":7675:7728   */\n      tag_629\n        /* \"#utility.yul\":7720:7727   */\n      dup6\n        /* \"#utility.yul\":7711:7717   */\n      dup3\n        /* \"#utility.yul\":7700:7709   */\n      dup7\n        /* \"#utility.yul\":7696:7718   */\n      add\n        /* \"#utility.yul\":7675:7728   */\n      tag_509\n      jump\t// in\n    tag_629:\n        /* \"#utility.yul\":7665:7728   */\n      swap3\n      pop\n        /* \"#utility.yul\":7621:7738   */\n      pop\n        /* \"#utility.yul\":7777:7779   */\n      0x20\n        /* \"#utility.yul\":7803:7856   */\n      tag_630\n        /* \"#utility.yul\":7848:7855   */\n      dup6\n        /* \"#utility.yul\":7839:7845   */\n      dup3\n        /* \"#utility.yul\":7828:7837   */\n      dup7\n        /* \"#utility.yul\":7824:7846   */\n      add\n        /* \"#utility.yul\":7803:7856   */\n      tag_509\n      jump\t// in\n    tag_630:\n        /* \"#utility.yul\":7793:7856   */\n      swap2\n      pop\n        /* \"#utility.yul\":7748:7866   */\n      pop\n        /* \"#utility.yul\":7399:7873   */\n      swap3\n      pop\n      swap3\n      swap1\n      pop\n      jump\t// out\n        /* \"#utility.yul\":7879:8059   */\n    tag_517:\n        /* \"#utility.yul\":7927:8004   */\n      0x4e487b7100000000000000000000000000000000000000000000000000000000\n        /* \"#utility.yul\":7924:7925   */\n      0x00\n        /* \"#utility.yul\":7917:8005   */\n      mstore\n        /* \"#utility.yul\":8024:8028   */\n      0x11\n        /* \"#utility.yul\":8021:8022   */\n      0x04\n        /* \"#utility.yul\":8014:8029   */\n      mstore\n        /* \"#utility.yul\":8048:8052   */\n      0x24\n        /* \"#utility.yul\":8045:8046   */\n      0x00\n        /* \"#utility.yul\":8038:8053   */\n      revert\n        /* \"#utility.yul\":8065:8256   */\n    tag_199:\n        /* \"#utility.yul\":8105:8108   */\n      0x00\n        /* \"#utility.yul\":8124:8144   */\n      tag_633\n        /* \"#utility.yul\":8142:8143   */\n      dup3\n        /* \"#utility.yul\":8124:8144   */\n      tag_502\n      jump\t// in\n    tag_633:\n        /* \"#utility.yul\":8119:8144   */\n      swap2\n      pop\n        /* \"#utility.yul\":8158:8178   */\n      tag_634\n        /* \"#utility.yul\":8176:8177   */\n      dup4\n        /* \"#utility.yul\":8158:8178   */\n      tag_502\n      jump\t// in\n    tag_634:\n        /* \"#utility.yul\":8153:8178   */\n      swap3\n      pop\n        /* \"#utility.yul\":8201:8202   */\n      dup3\n        /* \"#utility.yul\":8198:8199   */\n      dup3\n        /* \"#utility.yul\":8194:8203   */\n      add\n        /* \"#utility.yul\":8187:8203   */\n      swap1\n      pop\n        /* \"#utility.yul\":8222:8225   */\n      dup1\n        /* \"#utility.yul\":8219:8220   */\n      dup3\n        /* \"#utility.yul\":8216:8226   */\n      gt\n        /* \"#utility.yul\":8213:8249   */\n      iszero\n      tag_635\n      jumpi\n        /* \"#utility.yul\":8229:8247   */\n      tag_636\n      tag_517\n      jump\t// in\n    tag_636:\n        /* \"#utility.yul\":8213:8249   */\n    tag_635:\n        /* \"#utility.yul\":8065:8256   */\n      swap3\n      swap2\n      pop\n      pop\n      jump\t// out\n        /* \"#utility.yul\":8262:8495   */\n    tag_209:\n        /* \"#utility.yul\":8301:8304   */\n      0x00\n        /* \"#utility.yul\":8324:8348   */\n      tag_638\n        /* \"#utility.yul\":8342:8347   */\n      dup3\n        /* \"#utility.yul\":8324:8348   */\n      tag_502\n      jump\t// in\n    tag_638:\n        /* \"#utility.yul\":8315:8348   */\n      swap2\n      pop\n        /* \"#utility.yul\":8370:8436   */\n      0xffffffffffffffffffffffffffffffffffffffffffffffffffffffffffffffff\n        /* \"#utility.yul\":8363:8368   */\n      dup3\n        /* \"#utility.yul\":8360:8437   */\n      sub\n        /* \"#utility.yul\":8357:8460   */\n      tag_639\n      jumpi\n        /* \"#utility.yul\":8440:8458   */\n      tag_640\n      tag_517\n      jump\t// in\n    tag_640:\n        /* \"#utility.yul\":8357:8460   */\n    tag_639:\n        /* \"#utility.yul\":8487:8488   */\n      0x01\n        /* \"#utility.yul\":8480:8485   */\n      dup3\n        /* \"#utility.yul\":8476:8489   */\n      add\n        /* \"#utility.yul\":8469:8489   */\n      swap1\n      pop\n        /* \"#utility.yul\":8262:8495   */\n      swap2\n      swap1\n      pop\n      jump\t// out\n        /* \"#utility.yul\":8501:8833   */\n    tag_265:\n        /* \"#utility.yul\":8622:8626   */\n      0x00\n        /* \"#utility.yul\":8660:8662   */\n      0x40\n        /* \"#utility.yul\":8649:8658   */\n      dup3\n        /* \"#utility.yul\":8645:8663   */\n      add\n        /* \"#utility.yul\":8637:8663   */\n      swap1\n      pop\n        /* \"#utility.yul\":8673:8744   */\n      tag_642\n        /* \"#utility.yul\":8741:8742   */\n      0x00\n        /* \"#utility.yul\":8730:8739   */\n      dup4\n        /* \"#utility.yul\":8726:8743   */\n      add\n        /* \"#utility.yul\":8717:8723   */\n      dup6\n        /* \"#utility.yul\":8673:8744   */\n      tag_493\n      jump\t// in\n    tag_642:\n        /* \"#utility.yul\":8754:8826   */\n      tag_643\n        /* \"#utility.yul\":8822:8824   */\n      0x20\n        /* \"#utility.yul\":8811:8820   */\n      dup4\n        /* \"#utility.yul\":8807:8825   */\n      add\n        /* \"#utility.yul\":8798:8804   */\n      dup5\n        /* \"#utility.yul\":8754:8826   */\n      tag_503\n      jump\t// in\n    tag_643:\n        /* \"#utility.yul\":8501:8833   */\n      swap4\n      swap3\n      pop\n      pop\n      pop\n      jump\t// out\n        /* \"#utility.yul\":8839:8955   */\n    tag_518:\n        /* \"#utility.yul\":8909:8930   */\n      tag_645\n        /* \"#utility.yul\":8924:8929   */\n      dup2\n        /* \"#utility.yul\":8909:8930   */\n      tag_500\n      jump\t// in\n    tag_645:\n        /* \"#utility.yul\":8902:8907   */\n      dup2\n        /* \"#utility.yul\":8899:8931   */\n      eq\n        /* \"#utility.yul\":8889:8949   */\n      tag_646\n      jumpi\n        /* \"#utility.yul\":8945:8946   */\n      0x00\n        /* \"#utility.yul\":8942:8943   */\n      0x00\n        /* \"#utility.yul\":8935:8947   */\n      revert\n        /* \"#utility.yul\":8889:8949   */\n    tag_646:\n        /* \"#utility.yul\":8839:8955   */\n      pop\n      jump\t// out\n        /* \"#utility.yul\":8961:9098   */\n    tag_519:\n        /* \"#utility.yul\":9015:9020   */\n      0x00\n        /* \"#utility.yul\":9046:9052   */\n      dup2\n        /* \"#utility.yul\":9040:9053   */\n      mload\n        /* \"#utility.yul\":9031:9053   */\n      swap1\n      pop\n        /* \"#utility.yul\":9062:9092   */\n      tag_648\n        /* \"#utility.yul\":9086:9091   */\n      dup2\n        /* \"#utility.yul\":9062:9092   */\n      tag_518\n      jump\t// in\n    tag_648:\n        /* \"#utility.yul\":8961:9098   */\n      swap3\n      swap2\n      pop\n      pop\n      jump\t// out\n        /* \"#utility.yul\":9104:9449   */\n    tag_269:\n        /* \"#utility.yul\":9171:9177   */\n      0x00\n        /* \"#utility.yul\":9220:9222   */\n      0x20\n        /* \"#utility.yul\":9208:9217   */\n      dup3\n        /* \"#utility.yul\":9199:9206   */\n      dup5\n        /* \"#utility.yul\":9195:9218   */\n      sub\n        /* \"#utility.yul\":9191:9223   */\n      slt\n        /* \"#utility.yul\":9188:9307   */\n      iszero\n      tag_650\n      jumpi\n        /* \"#utility.yul\":9226:9305   */\n      tag_651\n      tag_495\n      jump\t// in\n    tag_651:\n        /* \"#utility.yul\":9188:9307   */\n    tag_650:\n        /* \"#utility.yul\":9346:9347   */\n      0x00\n        /* \"#utility.yul\":9371:9432   */\n      tag_652\n        /* \"#utility.yul\":9424:9431   */\n      dup5\n        /* \"#utility.yul\":9415:9421   */\n      dup3\n        /* \"#utility.yul\":9404:9413   */\n      dup6\n        /* \"#utility.yul\":9400:9422   */\n      add\n        /* \"#utility.yul\":9371:9432   */\n      tag_519\n      jump\t// in\n    tag_652:\n        /* \"#utility.yul\":9361:9432   */\n      swap2\n      pop\n        /* \"#utility.yul\":9317:9442   */\n      pop\n        /* \"#utility.yul\":9104:9449   */\n      swap3\n      swap2\n      pop\n      pop\n      jump\t// out\n        /* \"#utility.yul\":9455:9787   */\n    tag_271:\n        /* \"#utility.yul\":9576:9580   */\n      0x00\n        /* \"#utility.yul\":9614:9616   */\n      0x40\n        /* \"#utility.yul\":9603:9612   */\n      dup3\n        /* \"#utility.yul\":9599:9617   */\n      add\n        /* \"#utility.yul\":9591:9617   */\n      swap1\n      pop\n        /* \"#utility.yul\":9627:9698   */\n      tag_654\n        /* \"#utility.yul\":9695:9696   */\n      0x00\n        /* \"#utility.yul\":9684:9693   */\n      dup4\n        /* \"#utility.yul\":9680:9697   */\n      add\n        /* \"#utility.yul\":9671:9677   */\n      dup6\n        /* \"#utility.yul\":9627:9698   */\n      tag_493\n      jump\t// in\n    tag_654:\n        /* \"#utility.yul\":9708:9780   */\n      tag_655\n        /* \"#utility.yul\":9776:9778   */\n      0x20\n        /* \"#utility.yul\":9765:9774   */\n      dup4\n        /* \"#utility.yul\":9761:9779   */\n      add\n        /* \"#utility.yul\":9752:9758   */\n      dup5\n        /* \"#utility.yul\":9708:9780   */\n      tag_493\n      jump\t// in\n    tag_655:\n        /* \"#utility.yul\":9455:9787   */\n      swap4\n      swap3\n      pop\n      pop\n      pop\n      jump\t// out\n        /* \"#utility.yul\":9793:9936   */\n    tag_520:\n        /* \"#utility.yul\":9850:9855   */\n      0x00\n        /* \"#utility.yul\":9881:9887   */\n      dup2\n        /* \"#utility.yul\":9875:9888   */\n      mload\n        /* \"#utility.yul\":9866:9888   */\n      swap1\n      pop\n        /* \"#utility.yul\":9897:9930   */\n      tag_657\n        /* \"#utility.yul\":9924:9929   */\n      dup2\n        /* \"#utility.yul\":9897:9930   */\n      tag_510\n      jump\t// in\n    tag_657:\n        /* \"#utility.yul\":9793:9936   */\n      swap3\n      swap2\n      pop\n      pop\n      jump\t// out\n        /* \"#utility.yul\":9942:10293   */\n    tag_275:\n        /* \"#utility.yul\":10012:10018   */\n      0x00\n        /* \"#utility.yul\":10061:10063   */\n      0x20\n        /* \"#utility.yul\":10049:10058   */\n      dup3\n        /* \"#utility.yul\":10040:10047   */\n      dup5\n        /* \"#utility.yul\":10036:10059   */\n      sub\n        /* \"#utility.yul\":10032:10064   */\n      slt\n        /* \"#utility.yul\":10029:10148   */\n      iszero\n      tag_659\n      jumpi\n        /* \"#utility.yul\":10067:10146   */\n      tag_660\n      tag_495\n      jump\t// in\n    tag_660:\n        /* \"#utility.yul\":10029:10148   */\n    tag_659:\n        /* \"#utility.yul\":10187:10188   */\n      0x00\n        /* \"#utility.yul\":10212:10276   */\n      tag_661\n        /* \"#utility.yul\":10268:10275   */\n      dup5\n        /* \"#utility.yul\":10259:10265   */\n      dup3\n        /* \"#utility.yul\":10248:10257   */\n      dup6\n        /* \"#utility.yul\":10244:10266   */\n      add\n        /* \"#utility.yul\":10212:10276   */\n      tag_520\n      jump\t// in\n    tag_661:\n        /* \"#utility.yul\":10202:10276   */\n      swap2\n      pop\n        /* \"#utility.yul\":10158:10286   */\n      pop\n        /* \"#utility.yul\":9942:10293   */\n      swap3\n      swap2\n      pop\n      pop\n      jump\t// out\n        /* \"#utility.yul\":10299:10404   */\n    tag_521:\n        /* \"#utility.yul\":10335:10342   */\n      0x00\n        /* \"#utility.yul\":10375:10397   */\n      0xffffffffffffffffffff\n        /* \"#utility.yul\":10368:10373   */\n      dup3\n        /* \"#utility.yul\":10364:10398   */\n      and\n        /* \"#utility.yul\":10353:10398   */\n      swap1\n      pop\n        /* \"#utility.yul\":10299:10404   */\n      swap2\n      swap1\n      pop\n      jump\t// out\n        /* \"#utility.yul\":10410:10530   */\n    tag_522:\n        /* \"#utility.yul\":10482:10505   */\n      tag_664\n        /* \"#utility.yul\":10499:10504   */\n      dup2\n        /* \"#utility.yul\":10482:10505   */\n      tag_521\n      jump\t// in\n    tag_664:\n        /* \"#utility.yul\":10475:10480   */\n      dup2\n        /* \"#utility.yul\":10472:10506   */\n      eq\n        /* \"#utility.yul\":10462:10524   */\n      tag_665\n      jumpi\n        /* \"#utility.yul\":10520:10521   */\n      0x00\n        /* \"#utility.yul\":10517:10518   */\n      0x00\n        /* \"#utility.yul\":10510:10522   */\n      revert\n        /* \"#utility.yul\":10462:10524   */\n    tag_665:\n        /* \"#utility.yul\":10410:10530   */\n      pop\n      jump\t// out\n        /* \"#utility.yul\":10536:10677   */\n    tag_523:\n        /* \"#utility.yul\":10592:10597   */\n      0x00\n        /* \"#utility.yul\":10623:10629   */\n      dup2\n        /* \"#utility.yul\":10617:10630   */\n      mload\n        /* \"#utility.yul\":10608:10630   */\n      swap1\n      pop\n        /* \"#utility.yul\":10639:10671   */\n      tag_667\n        /* \"#utility.yul\":10665:10670   */\n      dup2\n        /* \"#utility.yul\":10639:10671   */\n      tag_522\n      jump\t// in\n    tag_667:\n        /* \"#utility.yul\":10536:10677   */\n      swap3\n      swap2\n      pop\n      pop\n      jump\t// out\n        /* \"#utility.yul\":10683:10759   */\n    tag_524:\n        /* \"#utility.yul\":10719:10726   */\n      0x00\n        /* \"#utility.yul\":10748:10753   */\n      dup2\n        /* \"#utility.yul\":10737:10753   */\n      swap1\n      pop\n        /* \"#utility.yul\":10683:10759   */\n      swap2\n      swap1\n      pop\n      jump\t// out\n        /* \"#utility.yul\":10765:10885   */\n    tag_525:\n        /* \"#utility.yul\":10837:10860   */\n      tag_670\n        /* \"#utility.yul\":10854:10859   */\n      dup2\n        /* \"#utility.yul\":10837:10860   */\n      tag_524\n      jump\t// in\n    tag_670:\n        /* \"#utility.yul\":10830:10835   */\n      dup2\n        /* \"#utility.yul\":10827:10861   */\n      eq\n        /* \"#utility.yul\":10817:10879   */\n      tag_671\n      jumpi\n        /* \"#utility.yul\":10875:10876   */\n      0x00\n        /* \"#utility.yul\":10872:10873   */\n      0x00\n        /* \"#utility.yul\":10865:10877   */\n      revert\n        /* \"#utility.yul\":10817:10879   */\n    tag_671:\n        /* \"#utility.yul\":10765:10885   */\n      pop\n      jump\t// out\n        /* \"#utility.yul\":10891:11032   */\n    tag_526:\n        /* \"#utility.yul\":10947:10952   */\n      0x00\n        /* \"#utility.yul\":10978:10984   */\n      dup2\n        /* \"#utility.yul\":10972:10985   */\n      mload\n        /* \"#utility.yul\":10963:10985   */\n      swap1\n      pop\n        /* \"#utility.yul\":10994:11026   */\n      tag_673\n        /* \"#utility.yul\":11020:11025   */\n      dup2\n        /* \"#utility.yul\":10994:11026   */\n      tag_525\n      jump\t// in\n    tag_673:\n        /* \"#utility.yul\":10891:11032   */\n      swap3\n      swap2\n      pop\n      pop\n      jump\t// out\n        /* \"#utility.yul\":11038:12009   */\n    tag_301:\n        /* \"#utility.yul\":11141:11147   */\n      0x00\n        /* \"#utility.yul\":11149:11155   */\n      0x00\n        /* \"#utility.yul\":11157:11163   */\n      0x00\n        /* \"#utility.yul\":11165:11171   */\n      0x00\n        /* \"#utility.yul\":11173:11179   */\n      0x00\n        /* \"#utility.yul\":11222:11225   */\n      0xa0\n        /* \"#utility.yul\":11210:11219   */\n      dup7\n        /* \"#utility.yul\":11201:11208   */\n      dup9\n        /* \"#utility.yul\":11197:11220   */\n      sub\n        /* \"#utility.yul\":11193:11226   */\n      slt\n        /* \"#utility.yul\":11190:11310   */\n      iszero\n      tag_675\n      jumpi\n        /* \"#utility.yul\":11229:11308   */\n      tag_676\n      tag_495\n      jump\t// in\n    tag_676:\n        /* \"#utility.yul\":11190:11310   */\n    tag_675:\n        /* \"#utility.yul\":11349:11350   */\n      0x00\n        /* \"#utility.yul\":11374:11437   */\n      tag_677\n        /* \"#utility.yul\":11429:11436   */\n      dup9\n        /* \"#utility.yul\":11420:11426   */\n      dup3\n        /* \"#utility.yul\":11409:11418   */\n      dup10\n        /* \"#utility.yul\":11405:11427   */\n      add\n        /* \"#utility.yul\":11374:11437   */\n      tag_523\n      jump\t// in\n    tag_677:\n        /* \"#utility.yul\":11364:11437   */\n      swap6\n      pop\n        /* \"#utility.yul\":11320:11447   */\n      pop\n        /* \"#utility.yul\":11486:11488   */\n      0x20\n        /* \"#utility.yul\":11512:11575   */\n      tag_678\n        /* \"#utility.yul\":11567:11574   */\n      dup9\n        /* \"#utility.yul\":11558:11564   */\n      dup3\n        /* \"#utility.yul\":11547:11556   */\n      dup10\n        /* \"#utility.yul\":11543:11565   */\n      add\n        /* \"#utility.yul\":11512:11575   */\n      tag_526\n      jump\t// in\n    tag_678:\n        /* \"#utility.yul\":11502:11575   */\n      swap5\n      pop\n        /* \"#utility.yul\":11457:11585   */\n      pop\n        /* \"#utility.yul\":11624:11626   */\n      0x40\n        /* \"#utility.yul\":11650:11714   */\n      tag_679\n        /* \"#utility.yul\":11706:11713   */\n      dup9\n        /* \"#utility.yul\":11697:11703   */\n      dup3\n        /* \"#utility.yul\":11686:11695   */\n      dup10\n        /* \"#utility.yul\":11682:11704   */\n      add\n        /* \"#utility.yul\":11650:11714   */\n      tag_520\n      jump\t// in\n    tag_679:\n        /* \"#utility.yul\":11640:11714   */\n      swap4\n      pop\n        /* \"#utility.yul\":11595:11724   */\n      pop\n        /* \"#utility.yul\":11763:11765   */\n      0x60\n        /* \"#utility.yul\":11789:11853   */\n      tag_680\n        /* \"#utility.yul\":11845:11852   */\n      dup9\n        /* \"#utility.yul\":11836:11842   */\n      dup3\n        /* \"#utility.yul\":11825:11834   */\n      dup10\n        /* \"#utility.yul\":11821:11843   */\n      add\n        /* \"#utility.yul\":11789:11853   */\n      tag_520\n      jump\t// in\n    tag_680:\n        /* \"#utility.yul\":11779:11853   */\n      swap3\n      pop\n        /* \"#utility.yul\":11734:11863   */\n      pop\n        /* \"#utility.yul\":11902:11905   */\n      0x80\n        /* \"#utility.yul\":11929:11992   */\n      tag_681\n        /* \"#utility.yul\":11984:11991   */\n      dup9\n        /* \"#utility.yul\":11975:11981   */\n      dup3\n        /* \"#utility.yul\":11964:11973   */\n      dup10\n        /* \"#utility.yul\":11960:11982   */\n      add\n        /* \"#utility.yul\":11929:11992   */\n      tag_523\n      jump\t// in\n    tag_681:\n        /* \"#utility.yul\":11919:11992   */\n      swap2\n      pop\n        /* \"#utility.yul\":11873:12002   */\n      pop\n        /* \"#utility.yul\":11038:12009   */\n      swap3\n      swap6\n      pop\n      swap3\n      swap6\n      swap1\n      swap4\n      pop\n      jump\t// out\n        /* \"#utility.yul\":12015:12209   */\n    tag_311:\n        /* \"#utility.yul\":12055:12059   */\n      0x00\n        /* \"#utility.yul\":12075:12095   */\n      tag_683\n        /* \"#utility.yul\":12093:12094   */\n      dup3\n        /* \"#utility.yul\":12075:12095   */\n      tag_502\n      jump\t// in\n    tag_683:\n        /* \"#utility.yul\":12070:12095   */\n      swap2\n      pop\n        /* \"#utility.yul\":12109:12129   */\n      tag_684\n        /* \"#utility.yul\":12127:12128   */\n      dup4\n        /* \"#utility.yul\":12109:12129   */\n      tag_502\n      jump\t// in\n    tag_684:\n        /* \"#utility.yul\":12104:12129   */\n      swap3\n      pop\n        /* \"#utility.yul\":12153:12154   */\n      dup3\n        /* \"#utility.yul\":12150:12151   */\n      dup3\n        /* \"#utility.yul\":12146:12155   */\n      sub\n        /* \"#utility.yul\":12138:12155   */\n      swap1\n      pop\n        /* \"#utility.yul\":12177:12178   */\n      dup2\n        /* \"#utility.yul\":12171:12175   */\n      dup2\n        /* \"#utility.yul\":12168:12179   */\n      gt\n        /* \"#utility.yul\":12165:12202   */\n      iszero\n      tag_685\n      jumpi\n        /* \"#utility.yul\":12182:12200   */\n      tag_686\n      tag_517\n      jump\t// in\n    tag_686:\n        /* \"#utility.yul\":12165:12202   */\n    tag_685:\n        /* \"#utility.yul\":12015:12209   */\n      swap3\n      swap2\n      pop\n      pop\n      jump\t// out\n        /* \"#utility.yul\":12215:12625   */\n    tag_373:\n        /* \"#utility.yul\":12255:12262   */\n      0x00\n        /* \"#utility.yul\":12278:12298   */\n      tag_688\n        /* \"#utility.yul\":12296:12297   */\n      dup3\n        /* \"#utility.yul\":12278:12298   */\n      tag_502\n      jump\t// in\n    tag_688:\n        /* \"#utility.yul\":12273:12298   */\n      swap2\n      pop\n        /* \"#utility.yul\":12312:12332   */\n      tag_689\n        /* \"#utility.yul\":12330:12331   */\n      dup4\n        /* \"#utility.yul\":12312:12332   */\n      tag_502\n      jump\t// in\n    tag_689:\n        /* \"#utility.yul\":12307:12332   */\n      swap3\n      pop\n        /* \"#utility.yul\":12367:12368   */\n      dup3\n        /* \"#utility.yul\":12364:12365   */\n      dup3\n        /* \"#utility.yul\":12360:12369   */\n      mul\n        /* \"#utility.yul\":12389:12419   */\n      tag_690\n        /* \"#utility.yul\":12407:12418   */\n      dup2\n        /* \"#utility.yul\":12389:12419   */\n      tag_502\n      jump\t// in\n    tag_690:\n        /* \"#utility.yul\":12378:12419   */\n      swap2\n      pop\n        /* \"#utility.yul\":12568:12569   */\n      dup3\n        /* \"#utility.yul\":12559:12566   */\n      dup3\n        /* \"#utility.yul\":12555:12570   */\n      div\n        /* \"#utility.yul\":12552:12553   */\n      dup5\n        /* \"#utility.yul\":12549:12571   */\n      eq\n        /* \"#utility.yul\":12529:12530   */\n      dup4\n        /* \"#utility.yul\":12522:12531   */\n      iszero\n        /* \"#utility.yul\":12502:12585   */\n      or\n        /* \"#utility.yul\":12479:12618   */\n      tag_691\n      jumpi\n        /* \"#utility.yul\":12598:12616   */\n      tag_692\n      tag_517\n      jump\t// in\n    tag_692:\n        /* \"#utility.yul\":12479:12618   */\n    tag_691:\n        /* \"#utility.yul\":12263:12625   */\n      pop\n        /* \"#utility.yul\":12215:12625   */\n      swap3\n      swap2\n      pop\n      pop\n      jump\t// out\n        /* \"#utility.yul\":12631:12811   */\n    tag_527:\n        /* \"#utility.yul\":12679:12756   */\n      0x4e487b7100000000000000000000000000000000000000000000000000000000\n        /* \"#utility.yul\":12676:12677   */\n      0x00\n        /* \"#utility.yul\":12669:12757   */\n      mstore\n        /* \"#utility.yul\":12776:12780   */\n      0x12\n        /* \"#utility.yul\":12773:12774   */\n      0x04\n        /* \"#utility.yul\":12766:12781   */\n      mstore\n        /* \"#utility.yul\":12800:12804   */\n      0x24\n        /* \"#utility.yul\":12797:12798   */\n      0x00\n        /* \"#utility.yul\":12790:12805   */\n      revert\n        /* \"#utility.yul\":12817:13002   */\n    tag_375:\n        /* \"#utility.yul\":12857:12858   */\n      0x00\n        /* \"#utility.yul\":12874:12894   */\n      tag_695\n        /* \"#utility.yul\":12892:12893   */\n      dup3\n        /* \"#utility.yul\":12874:12894   */\n      tag_502\n      jump\t// in\n    tag_695:\n        /* \"#utility.yul\":12869:12894   */\n      swap2\n      pop\n        /* \"#utility.yul\":12908:12928   */\n      tag_696\n        /* \"#utility.yul\":12926:12927   */\n      dup4\n        /* \"#utility.yul\":12908:12928   */\n      tag_502\n      jump\t// in\n    tag_696:\n        /* \"#utility.yul\":12903:12928   */\n      swap3\n      pop\n        /* \"#utility.yul\":12947:12948   */\n      dup3\n        /* \"#utility.yul\":12937:12972   */\n      tag_697\n      jumpi\n        /* \"#utility.yul\":12952:12970   */\n      tag_698\n      tag_527\n      jump\t// in\n    tag_698:\n        /* \"#utility.yul\":12937:12972   */\n    tag_697:\n        /* \"#utility.yul\":12994:12995   */\n      dup3\n        /* \"#utility.yul\":12991:12992   */\n      dup3\n        /* \"#utility.yul\":12987:12996   */\n      div\n        /* \"#utility.yul\":12982:12996   */\n      swap1\n      pop\n        /* \"#utility.yul\":12817:13002   */\n      swap3\n      swap2\n      pop\n      pop\n      jump\t// out\n        /* \"#utility.yul\":13008:13450   */\n    tag_410:\n        /* \"#utility.yul\":13157:13161   */\n      0x00\n        /* \"#utility.yul\":13195:13197   */\n      0x60\n        /* \"#utility.yul\":13184:13193   */\n      dup3\n        /* \"#utility.yul\":13180:13198   */\n      add\n        /* \"#utility.yul\":13172:13198   */\n      swap1\n      pop\n        /* \"#utility.yul\":13208:13279   */\n      tag_700\n        /* \"#utility.yul\":13276:13277   */\n      0x00\n        /* \"#utility.yul\":13265:13274   */\n      dup4\n        /* \"#utility.yul\":13261:13278   */\n      add\n        /* \"#utility.yul\":13252:13258   */\n      dup7\n        /* \"#utility.yul\":13208:13279   */\n      tag_493\n      jump\t// in\n    tag_700:\n        /* \"#utility.yul\":13289:13361   */\n      tag_701\n        /* \"#utility.yul\":13357:13359   */\n      0x20\n        /* \"#utility.yul\":13346:13355   */\n      dup4\n        /* \"#utility.yul\":13342:13360   */\n      add\n        /* \"#utility.yul\":13333:13339   */\n      dup6\n        /* \"#utility.yul\":13289:13361   */\n      tag_493\n      jump\t// in\n    tag_701:\n        /* \"#utility.yul\":13371:13443   */\n      tag_702\n        /* \"#utility.yul\":13439:13441   */\n      0x40\n        /* \"#utility.yul\":13428:13437   */\n      dup4\n        /* \"#utility.yul\":13424:13442   */\n      add\n        /* \"#utility.yul\":13415:13421   */\n      dup5\n        /* \"#utility.yul\":13371:13443   */\n      tag_503\n      jump\t// in\n    tag_702:\n        /* \"#utility.yul\":13008:13450   */\n      swap5\n      swap4\n      pop\n      pop\n      pop\n      pop\n      jump\t// out\n        /* \"#utility.yul\":13456:13603   */\n    tag_528:\n        /* \"#utility.yul\":13557:13568   */\n      0x00\n        /* \"#utility.yul\":13594:13597   */\n      dup2\n        /* \"#utility.yul\":13579:13597   */\n      swap1\n      pop\n        /* \"#utility.yul\":13456:13603   */\n      swap3\n      swap2\n      pop\n      pop\n      jump\t// out\n        /* \"#utility.yul\":13609:13723   */\n    tag_529:\n      pop\n      jump\t// out\n        /* \"#utility.yul\":13729:14127   */\n    tag_530:\n        /* \"#utility.yul\":13888:13891   */\n      0x00\n        /* \"#utility.yul\":13909:13992   */\n      tag_706\n        /* \"#utility.yul\":13990:13991   */\n      0x00\n        /* \"#utility.yul\":13985:13988   */\n      dup4\n        /* \"#utility.yul\":13909:13992   */\n      tag_528\n      jump\t// in\n    tag_706:\n        /* \"#utility.yul\":13902:13992   */\n      swap2\n      pop\n        /* \"#utility.yul\":14001:14094   */\n      tag_707\n        /* \"#utility.yul\":14090:14093   */\n      dup3\n        /* \"#utility.yul\":14001:14094   */\n      tag_529\n      jump\t// in\n    tag_707:\n        /* \"#utility.yul\":14119:14120   */\n      0x00\n        /* \"#utility.yul\":14114:14117   */\n      dup3\n        /* \"#utility.yul\":14110:14121   */\n      add\n        /* \"#utility.yul\":14103:14121   */\n      swap1\n      pop\n        /* \"#utility.yul\":13729:14127   */\n      swap2\n      swap1\n      pop\n      jump\t// out\n        /* \"#utility.yul\":14133:14512   */\n    tag_437:\n        /* \"#utility.yul\":14317:14320   */\n      0x00\n        /* \"#utility.yul\":14339:14486   */\n      tag_709\n        /* \"#utility.yul\":14482:14485   */\n      dup3\n        /* \"#utility.yul\":14339:14486   */\n      tag_530\n      jump\t// in\n    tag_709:\n        /* \"#utility.yul\":14332:14486   */\n      swap2\n      pop\n        /* \"#utility.yul\":14503:14506   */\n      dup2\n        /* \"#utility.yul\":14496:14506   */\n      swap1\n      pop\n        /* \"#utility.yul\":14133:14512   */\n      swap2\n      swap1\n      pop\n      jump\t// out\n        /* \"#utility.yul\":14518:14850   */\n    tag_476:\n        /* \"#utility.yul\":14639:14643   */\n      0x00\n        /* \"#utility.yul\":14677:14679   */\n      0x40\n        /* \"#utility.yul\":14666:14675   */\n      dup3\n        /* \"#utility.yul\":14662:14680   */\n      add\n        /* \"#utility.yul\":14654:14680   */\n      swap1\n      pop\n        /* \"#utility.yul\":14690:14761   */\n      tag_711\n        /* \"#utility.yul\":14758:14759   */\n      0x00\n        /* \"#utility.yul\":14747:14756   */\n      dup4\n        /* \"#utility.yul\":14743:14760   */\n      add\n        /* \"#utility.yul\":14734:14740   */\n      dup6\n        /* \"#utility.yul\":14690:14761   */\n      tag_493\n      jump\t// in\n    tag_711:\n        /* \"#utility.yul\":14771:14843   */\n      tag_712\n        /* \"#utility.yul\":14839:14841   */\n      0x20\n        /* \"#utility.yul\":14828:14837   */\n      dup4\n        /* \"#utility.yul\":14824:14842   */\n      add\n        /* \"#utility.yul\":14815:14821   */\n      dup5\n        /* \"#utility.yul\":14771:14843   */\n      tag_507\n      jump\t// in\n    tag_712:\n        /* \"#utility.yul\":14518:14850   */\n      swap4\n      swap3\n      pop\n      pop\n      pop\n      jump\t// out\n        /* \"#utility.yul\":14856:15025   */\n    tag_531:\n        /* \"#utility.yul\":14940:14951   */\n      0x00\n        /* \"#utility.yul\":14974:14980   */\n      dup3\n        /* \"#utility.yul\":14969:14972   */\n      dup3\n        /* \"#utility.yul\":14962:14981   */\n      mstore\n        /* \"#utility.yul\":15014:15018   */\n      0x20\n        /* \"#utility.yul\":15009:15012   */\n      dup3\n        /* \"#utility.yul\":15005:15019   */\n      add\n        /* \"#utility.yul\":14990:15019   */\n      swap1\n      pop\n        /* \"#utility.yul\":14856:15025   */\n      swap3\n      swap2\n      pop\n      pop\n      jump\t// out\n        /* \"#utility.yul\":15031:15212   */\n    tag_532:\n        /* \"#utility.yul\":15171:15204   */\n      0x5265656e7472616e637947756172643a207265656e7472616e742063616c6c00\n        /* \"#utility.yul\":15167:15168   */\n      0x00\n        /* \"#utility.yul\":15159:15165   */\n      dup3\n        /* \"#utility.yul\":15155:15169   */\n      add\n        /* \"#utility.yul\":15148:15205   */\n      mstore\n        /* \"#utility.yul\":15031:15212   */\n      pop\n      jump\t// out\n        /* \"#utility.yul\":15218:15584   */\n    tag_533:\n        /* \"#utility.yul\":15360:15363   */\n      0x00\n        /* \"#utility.yul\":15381:15448   */\n      tag_716\n        /* \"#utility.yul\":15445:15447   */\n      0x1f\n        /* \"#utility.yul\":15440:15443   */\n      dup4\n        /* \"#utility.yul\":15381:15448   */\n      tag_531\n      jump\t// in\n    tag_716:\n        /* \"#utility.yul\":15374:15448   */\n      swap2\n      pop\n        /* \"#utility.yul\":15457:15550   */\n      tag_717\n        /* \"#utility.yul\":15546:15549   */\n      dup3\n        /* \"#utility.yul\":15457:15550   */\n      tag_532\n      jump\t// in\n    tag_717:\n        /* \"#utility.yul\":15575:15577   */\n      0x20\n        /* \"#utility.yul\":15570:15573   */\n      dup3\n        /* \"#utility.yul\":15566:15578   */\n      add\n        /* \"#utility.yul\":15559:15578   */\n      swap1\n      pop\n        /* \"#utility.yul\":15218:15584   */\n      swap2\n      swap1\n      pop\n      jump\t// out\n        /* \"#utility.yul\":15590:16009   */\n    tag_486:\n        /* \"#utility.yul\":15756:15760   */\n      0x00\n        /* \"#utility.yul\":15794:15796   */\n      0x20\n        /* \"#utility.yul\":15783:15792   */\n      dup3\n        /* \"#utility.yul\":15779:15797   */\n      add\n        /* \"#utility.yul\":15771:15797   */\n      swap1\n      pop\n        /* \"#utility.yul\":15843:15852   */\n      dup2\n        /* \"#utility.yul\":15837:15841   */\n      dup2\n        /* \"#utility.yul\":15833:15853   */\n      sub\n        /* \"#utility.yul\":15829:15830   */\n      0x00\n        /* \"#utility.yul\":15818:15827   */\n      dup4\n        /* \"#utility.yul\":15814:15831   */\n      add\n        /* \"#utility.yul\":15807:15854   */\n      mstore\n        /* \"#utility.yul\":15871:16002   */\n      tag_719\n        /* \"#utility.yul\":15997:16001   */\n      dup2\n        /* \"#utility.yul\":15871:16002   */\n      tag_533\n      jump\t// in\n    tag_719:\n        /* \"#utility.yul\":15863:16002   */\n      swap1\n      pop\n        /* \"#utility.yul\":15590:16009   */\n      swap2\n      swap1\n      pop\n      jump\t// out\n\n    auxdata: 0xa2646970667358221220201d60410ba2bab6ea02ae8866bbe39653171a7984e9180b7fbd9088e2fa5a8c64736f6c634300081e0033\n}\n",
				"bytecode": {
					"linkReferences": {},
					"object": "60e06040525f6004555f6005555f60065534801561001b575f5ffd5b506040516139bf3803806139bf833981810160405281019061003d9190610616565b8260015f819055505f73ffffffffffffffffffffffffffffffffffffffff168173ffffffffffffffffffffffffffffffffffffffff16036100b5575f6040517f1e4fbdf70000000000000000000000000000000000000000000000000000000081526004016100ac919061069c565b60405180910390fd5b6100c48161036160201b60201c565b505f850361010957846040517ff1fdfd2b00000000000000000000000000000000000000000000000000000000815260040161010091906106c4565b60405180910390fd5b5f840361014d57836040517f5052fe8e00000000000000000000000000000000000000000000000000000000815260040161014491906106c4565b60405180910390fd5b848411156101945784846040517f3122626300000000000000000000000000000000000000000000000000000000815260040161018b9291906106dd565b60405180910390fd5b5f73ffffffffffffffffffffffffffffffffffffffff168273ffffffffffffffffffffffffffffffffffffffff16036101f9576040517f463858d600000000000000000000000000000000000000000000000000000000815260040160405180910390fd5b5f73ffffffffffffffffffffffffffffffffffffffff168173ffffffffffffffffffffffffffffffffffffffff160361025e576040517f463858d600000000000000000000000000000000000000000000000000000000815260040160405180910390fd5b6102705f5f1b8461042460201b60201c565b506102a17f539440820030c4994db4e31b6b800deafd503688728f932addfe7a410515c14c8461042460201b60201c565b506102d27f9bbb3ee3bdfbe971682b08854a620ca4bf696f8e0c269e5c5b129a18e64d29df8461042460201b60201c565b508073ffffffffffffffffffffffffffffffffffffffff1660808173ffffffffffffffffffffffffffffffffffffffff16815250508160035f6101000a81548173ffffffffffffffffffffffffffffffffffffffff021916908373ffffffffffffffffffffffffffffffffffffffff1602179055508460c081815250508360a081815250505050505050610704565b5f60015f9054906101000a900473ffffffffffffffffffffffffffffffffffffffff1690508160015f6101000a81548173ffffffffffffffffffffffffffffffffffffffff021916908373ffffffffffffffffffffffffffffffffffffffff1602179055508173ffffffffffffffffffffffffffffffffffffffff168173ffffffffffffffffffffffffffffffffffffffff167f8be0079c531659141344cd1fd0a4f28419497f9722a3daafe3b4186f6b6457e060405160405180910390a35050565b5f610435838361051a60201b60201c565b61051057600160025f8581526020019081526020015f205f015f8473ffffffffffffffffffffffffffffffffffffffff1673ffffffffffffffffffffffffffffffffffffffff1681526020019081526020015f205f6101000a81548160ff0219169083151502179055506104ad61057e60201b60201c565b73ffffffffffffffffffffffffffffffffffffffff168273ffffffffffffffffffffffffffffffffffffffff16847f2f8788117e7eff1d82e926ec794901d17c78024a50270940304540a733656f0d60405160405180910390a460019050610514565b5f90505b92915050565b5f60025f8481526020019081526020015f205f015f8373ffffffffffffffffffffffffffffffffffffffff1673ffffffffffffffffffffffffffffffffffffffff1681526020019081526020015f205f9054906101000a900460ff16905092915050565b5f33905090565b5f5ffd5b5f819050919050565b61059b81610589565b81146105a5575f5ffd5b50565b5f815190506105b681610592565b92915050565b5f73ffffffffffffffffffffffffffffffffffffffff82169050919050565b5f6105e5826105bc565b9050919050565b6105f5816105db565b81146105ff575f5ffd5b50565b5f81519050610610816105ec565b92915050565b5f5f5f5f5f60a0868803121561062f5761062e610585565b5b5f61063c888289016105a8565b955050602061064d888289016105a8565b945050604061065e88828901610602565b935050606061066f88828901610602565b925050608061068088828901610602565b9150509295509295909350565b610696816105db565b82525050565b5f6020820190506106af5f83018461068d565b92915050565b6106be81610589565b82525050565b5f6020820190506106d75f8301846106b5565b92915050565b5f6040820190506106f05f8301856106b5565b6106fd60208301846106b5565b9392505050565b60805160a05160c05161323d6107825f395f81816107a2015281816108680152610e5701525f81816107c301528181612055015261239801525f8181610cec01528181610ed101528181610f6d0152818161100c015281816111390152818161176901528181612400015281816124e0015261260c015261323d5ff3fe6080604052600436106101e6575f3560e01c80638648840a11610101578063cb398eb311610094578063f0e00dc811610063578063f0e00dc8146106c9578063f2fde38b146106f1578063f39b180914610719578063f7888aec1461074357610228565b8063cb398eb314610625578063ccd6b0201461064f578063d547741f14610677578063d9dc86941461069f57610228565b806393295c1c116100d057806393295c1c1461057d578063939495bd146105a7578063a217fddf146105d1578063c6aca33c146105fb57610228565b80638648840a146104c75780638da5cb5b146104ef57806391d1485414610519578063931fb90e1461055557610228565b80635c975abb11610179578063715018a611610148578063715018a614610437578063779bb1361461044d5780637dc532c51461047757806382fe54b51461049f57610228565b80635c975abb146103915780636900670c146103bb578063698b7241146103e55780636f05c64c1461040d57610228565b8063248a9ca3116101b5578063248a9ca3146102ef5780632f2ff15d1461032b57806336568abe1461035357806338d5c9161461037b57610228565b806301ffc9a7146102655780630594cc69146102a157806316a1930f146102cf5780631a003ecb146102d957610228565b3661022857336040517fe1d158ff00000000000000000000000000000000000000000000000000000000815260040161021f91906129ff565b60405180910390fd5b336040517fe1d158ff00000000000000000000000000000000000000000000000000000000815260040161025c91906129ff565b60405180910390fd5b348015610270575f5ffd5b5061028b60048036038101906102869190612a71565b61077f565b6040516102989190612ab6565b60405180910390f35b3480156102ac575f5ffd5b506102b5610790565b6040516102c6959493929190612ae7565b60405180910390f35b6102d7610815565b005b3480156102e4575f5ffd5b506102ed6109fc565b005b3480156102fa575f5ffd5b5061031560048036038101906103109190612b6b565b610b09565b6040516103229190612ba5565b60405180910390f35b348015610336575f5ffd5b50610351600480360381019061034c9190612be8565b610b26565b005b34801561035e575f5ffd5b5061037960048036038101906103749190612be8565b610b48565b005b348015610386575f5ffd5b5061038f610bc3565b005b34801561039c575f5ffd5b506103a5610cd0565b6040516103b29190612ab6565b60405180910390f35b3480156103c6575f5ffd5b506103cf610ce6565b6040516103dc9190612c26565b60405180910390f35b3480156103f0575f5ffd5b5061040b60048036038101906104069190612c69565b610e10565b005b348015610418575f5ffd5b50610421611182565b60405161042e9190612cef565b60405180910390f35b348015610442575f5ffd5b5061044b6111a7565b005b348015610458575f5ffd5b506104616111ba565b60405161046e9190612c26565b60405180910390f35b348015610482575f5ffd5b5061049d60048036038101906104989190612d08565b611239565b005b3480156104aa575f5ffd5b506104c560048036038101906104c09190612c69565b61155e565b005b3480156104d2575f5ffd5b506104ed60048036038101906104e89190612d08565b611572565b005b3480156104fa575f5ffd5b506105036116ba565b60405161051091906129ff565b60405180910390f35b348015610524575f5ffd5b5061053f600480360381019061053a9190612be8565b6116e2565b60405161054c9190612ab6565b60405180910390f35b348015610560575f5ffd5b5061057b60048036038101906105769190612c69565b611746565b005b348015610588575f5ffd5b5061059161175a565b60405161059e9190612c26565b60405180910390f35b3480156105b2575f5ffd5b506105bb611763565b6040516105c89190612c26565b60405180910390f35b3480156105dc575f5ffd5b506105e5611802565b6040516105f29190612ba5565b60405180910390f35b348015610606575f5ffd5b5061060f611808565b60405161061c9190612c26565b60405180910390f35b348015610630575f5ffd5b50610639611811565b6040516106469190612ba5565b60405180910390f35b34801561065a575f5ffd5b5061067560048036038101906106709190612d33565b611835565b005b348015610682575f5ffd5b5061069d60048036038101906106989190612be8565b611899565b005b3480156106aa575f5ffd5b506106b36118bb565b6040516106c09190612ba5565b60405180910390f35b3480156106d4575f5ffd5b506106ef60048036038101906106ea9190612d33565b6118df565b005b3480156106fc575f5ffd5b5061071760048036038101906107129190612d08565b611943565b005b348015610724575f5ffd5b5061072d6119c7565b60405161073a9190612c26565b60405180910390f35b34801561074e575f5ffd5b5061076960048036038101906107649190612d71565b6119d0565b6040516107769190612c26565b60405180910390f35b5f61078982611a52565b9050919050565b5f5f5f5f5f61079d610cd0565b6006547f00000000000000000000000000000000000000000000000000000000000000007f000000000000000000000000000000000000000000000000000000000000000060035f9054906101000a900473ffffffffffffffffffffffffffffffffffffffff16945094509450945094509091929394565b345f61082082611acb565b90505f810361086657336040517fb2f0923100000000000000000000000000000000000000000000000000000000815260040161085d91906129ff565b60405180910390fd5b7f0000000000000000000000000000000000000000000000000000000000000000600654826108959190612ddc565b11156108d857806040517f2900b02c0000000000000000000000000000000000000000000000000000000081526004016108cf9190612c26565b60405180910390fd5b6108e0611afa565b5f6108ea34611acb565b90503460075f5f73ffffffffffffffffffffffffffffffffffffffff1673ffffffffffffffffffffffffffffffffffffffff1681526020019081526020015f205f3373ffffffffffffffffffffffffffffffffffffffff1673ffffffffffffffffffffffffffffffffffffffff1681526020019081526020015f205f8282546109739190612ddc565b9250508190555060045f81548092919061098c90612e0f565b91905055508060065f8282546109a29190612ddc565b925050819055503373ffffffffffffffffffffffffffffffffffffffff167f9d15693852bf60dc27bd5aa831d0351359b7d01d428ae1baae11f15cbcfebafd826040516109ef9190612c26565b60405180910390a2505050565b7f539440820030c4994db4e31b6b800deafd503688728f932addfe7a410515c14c3373ffffffffffffffffffffffffffffffffffffffff16610a3c6116ba565b73ffffffffffffffffffffffffffffffffffffffff16141580610a665750610a6481336116e2565b155b15610aa857336040517f06286eaa000000000000000000000000000000000000000000000000000000008152600401610a9f91906129ff565b60405180910390fd5b610ab0611afa565b610ab8611b3b565b3373ffffffffffffffffffffffffffffffffffffffff167f65ab6adc87722a7acd973ffed16cba7cfdf07b5329157a7192434753ba9dac1342604051610afe9190612c26565b60405180910390a250565b5f60025f8381526020019081526020015f20600101549050919050565b610b2f82610b09565b610b3881611b9d565b610b428383611bb1565b50505050565b610b50611c9b565b73ffffffffffffffffffffffffffffffffffffffff168173ffffffffffffffffffffffffffffffffffffffff1614610bb4576040517f6697b23200000000000000000000000000000000000000000000000000000000815260040160405180910390fd5b610bbe8282611ca2565b505050565b7f539440820030c4994db4e31b6b800deafd503688728f932addfe7a410515c14c3373ffffffffffffffffffffffffffffffffffffffff16610c036116ba565b73ffffffffffffffffffffffffffffffffffffffff16141580610c2d5750610c2b81336116e2565b155b15610c6f57336040517f06286eaa000000000000000000000000000000000000000000000000000000008152600401610c6691906129ff565b60405180910390fd5b610c77611d8c565b610c7f611dcc565b3373ffffffffffffffffffffffffffffffffffffffff167f08af9cf236f4b3afb8d03262d5bef5d95db4da02aa57892cd6474e8097f4f2b742604051610cc59190612c26565b60405180910390a250565b5f600160149054906101000a900460ff16905090565b5f60075f7f000000000000000000000000000000000000000000000000000000000000000073ffffffffffffffffffffffffffffffffffffffff1673ffffffffffffffffffffffffffffffffffffffff1681526020019081526020015f205f3373ffffffffffffffffffffffffffffffffffffffff1673ffffffffffffffffffffffffffffffffffffffff1681526020019081526020015f2054610e0160075f5f73ffffffffffffffffffffffffffffffffffffffff1673ffffffffffffffffffffffffffffffffffffffff1681526020019081526020015f205f3373ffffffffffffffffffffffffffffffffffffffff1673ffffffffffffffffffffffffffffffffffffffff1681526020019081526020015f2054611acb565b610e0b9190612ddc565b905090565b805f8103610e5557336040517fb2f09231000000000000000000000000000000000000000000000000000000008152600401610e4c91906129ff565b60405180910390fd5b7f000000000000000000000000000000000000000000000000000000000000000060065482610e849190612ddc565b1115610ec757806040517f2900b02c000000000000000000000000000000000000000000000000000000008152600401610ebe9190612c26565b60405180910390fd5b610ecf611afa565b7f000000000000000000000000000000000000000000000000000000000000000073ffffffffffffffffffffffffffffffffffffffff1663095ea7b330846040518363ffffffff1660e01b8152600401610f2a929190612e56565b6020604051808303815f875af1158015610f46573d5f5f3e3d5ffd5b505050506040513d601f19601f82011682018060405250810190610f6a9190612ea7565b507f000000000000000000000000000000000000000000000000000000000000000073ffffffffffffffffffffffffffffffffffffffff1663dd62ed3e33306040518363ffffffff1660e01b8152600401610fc6929190612ed2565b602060405180830381865afa158015610fe1573d5f5f3e3d5ffd5b505050506040513d601f19601f820116820180604052508101906110059190612f0d565b508160075f7f000000000000000000000000000000000000000000000000000000000000000073ffffffffffffffffffffffffffffffffffffffff1673ffffffffffffffffffffffffffffffffffffffff1681526020019081526020015f205f3373ffffffffffffffffffffffffffffffffffffffff1673ffffffffffffffffffffffffffffffffffffffff1681526020019081526020015f205f8282546110ad9190612ddc565b9250508190555060045f8154809291906110c690612e0f565b91905055508160065f8282546110dc9190612ddc565b925050819055503373ffffffffffffffffffffffffffffffffffffffff167f9d15693852bf60dc27bd5aa831d0351359b7d01d428ae1baae11f15cbcfebafd836040516111299190612c26565b60405180910390a261117e3330847f000000000000000000000000000000000000000000000000000000000000000073ffffffffffffffffffffffffffffffffffffffff16611e2e909392919063ffffffff16565b5050565b60035f9054906101000a900473ffffffffffffffffffffffffffffffffffffffff1681565b6111af611eb0565b6111b85f611f37565b565b5f60075f5f73ffffffffffffffffffffffffffffffffffffffff1673ffffffffffffffffffffffffffffffffffffffff1681526020019081526020015f205f3373ffffffffffffffffffffffffffffffffffffffff1673ffffffffffffffffffffffffffffffffffffffff1681526020019081526020015f2054905090565b7f9bbb3ee3bdfbe971682b08854a620ca4bf696f8e0c269e5c5b129a18e64d29df3373ffffffffffffffffffffffffffffffffffffffff166112796116ba565b73ffffffffffffffffffffffffffffffffffffffff161415806112a357506112a181336116e2565b155b156112e557336040517f06286eaa0000000000000000000000000000000000000000000000000000000081526004016112dc91906129ff565b60405180910390fd5b6112ed611d8c565b5f73ffffffffffffffffffffffffffffffffffffffff168273ffffffffffffffffffffffffffffffffffffffff1603611352576040517f463858d600000000000000000000000000000000000000000000000000000000815260040160405180910390fd5b8173ffffffffffffffffffffffffffffffffffffffff1663feaf968c6040518163ffffffff1660e01b815260040160a060405180830381865afa9250505080156113ba57506040513d601f19601f820116820180604052508101906113b79190612faa565b60015b6113fb57816040517f59eea3150000000000000000000000000000000000000000000000000000000081526004016113f291906129ff565b60405180910390fd5b5f841361143f57866040517f59eea31500000000000000000000000000000000000000000000000000000000815260040161143691906129ff565b60405180910390fd5b610e1061ffff1682426114529190613021565b111561149557836040517f2609a26500000000000000000000000000000000000000000000000000000000815260040161148c9190612c26565b60405180910390fd5b5f60035f9054906101000a900473ffffffffffffffffffffffffffffffffffffffff1690508760035f6101000a81548173ffffffffffffffffffffffffffffffffffffffff021916908373ffffffffffffffffffffffffffffffffffffffff1602179055508773ffffffffffffffffffffffffffffffffffffffff168173ffffffffffffffffffffffffffffffffffffffff167f03028d95bd98a5ec8c81b55c2b61e734dde89bb773697b429bd195fd00582b3060405160405180910390a35050505050505050565b611566611afa565b61156f81611ffa565b50565b61157a611eb0565b611582611d8c565b5f61158b6116ba565b90506115995f5f1b82611ca2565b506115c47f539440820030c4994db4e31b6b800deafd503688728f932addfe7a410515c14c82611ca2565b506115ef7f9bbb3ee3bdfbe971682b08854a620ca4bf696f8e0c269e5c5b129a18e64d29df82611ca2565b506115f982611f37565b6116055f5f1b83611bb1565b506116307f9bbb3ee3bdfbe971682b08854a620ca4bf696f8e0c269e5c5b129a18e64d29df83611bb1565b5061165b7f539440820030c4994db4e31b6b800deafd503688728f932addfe7a410515c14c83611bb1565b508173ffffffffffffffffffffffffffffffffffffffff168173ffffffffffffffffffffffffffffffffffffffff167f2ed8931cd5c0d36856a21c6245bf2e305f989a55c31be2b6cb7ec0a4da43c31960405160405180910390a35050565b5f60015f9054906101000a900473ffffffffffffffffffffffffffffffffffffffff16905090565b5f60025f8481526020019081526020015f205f015f8373ffffffffffffffffffffffffffffffffffffffff1673ffffffffffffffffffffffffffffffffffffffff1681526020019081526020015f205f9054906101000a900460ff16905092915050565b61174e611afa565b61175781612349565b50565b5f600654905090565b5f60075f7f000000000000000000000000000000000000000000000000000000000000000073ffffffffffffffffffffffffffffffffffffffff1673ffffffffffffffffffffffffffffffffffffffff1681526020019081526020015f205f3373ffffffffffffffffffffffffffffffffffffffff1673ffffffffffffffffffffffffffffffffffffffff1681526020019081526020015f2054905090565b5f5f1b81565b5f600554905090565b7f9bbb3ee3bdfbe971682b08854a620ca4bf696f8e0c269e5c5b129a18e64d29df81565b61183d611eb0565b6118478183610b26565b8173ffffffffffffffffffffffffffffffffffffffff167f56a39044e0e7ad5c8db0abdb4925f3d610d0f66ab2d22536712afd06e6aa60328260405161188d9190612ba5565b60405180910390a25050565b6118a282610b09565b6118ab81611b9d565b6118b58383611ca2565b50505050565b7f539440820030c4994db4e31b6b800deafd503688728f932addfe7a410515c14c81565b6118e7611eb0565b6118f18183611899565b8173ffffffffffffffffffffffffffffffffffffffff167f2a235e73fbdf449db29391f00a41fd53e24c96816320a25a710415e2c05370f0826040516119379190612ba5565b60405180910390a25050565b61194b611eb0565b5f73ffffffffffffffffffffffffffffffffffffffff168173ffffffffffffffffffffffffffffffffffffffff16036119bb575f6040517f1e4fbdf70000000000000000000000000000000000000000000000000000000081526004016119b291906129ff565b60405180910390fd5b6119c481611f37565b50565b5f600454905090565b5f60075f8373ffffffffffffffffffffffffffffffffffffffff1673ffffffffffffffffffffffffffffffffffffffff1681526020019081526020015f205f8473ffffffffffffffffffffffffffffffffffffffff1673ffffffffffffffffffffffffffffffffffffffff1681526020019081526020015f2054905092915050565b5f7f7965db0b000000000000000000000000000000000000000000000000000000007bffffffffffffffffffffffffffffffffffffffffffffffffffffffff1916827bffffffffffffffffffffffffffffffffffffffffffffffffffffffff19161480611ac45750611ac38261265c565b5b9050919050565b5f68056bc75e2d63100000611ade6126c5565b83611ae99190613054565b611af391906130c2565b9050919050565b611b02610cd0565b15611b39576040517fd93c066500000000000000000000000000000000000000000000000000000000815260040160405180910390fd5b565b611b43611afa565b60018060146101000a81548160ff0219169083151502179055507f62e78cea01bee320cd4e420270b5ea74000d11b0c9f74754ebdbfc544b05a258611b86611c9b565b604051611b9391906129ff565b60405180910390a1565b611bae81611ba9611c9b565b6127ff565b50565b5f611bbc83836116e2565b611c9157600160025f8581526020019081526020015f205f015f8473ffffffffffffffffffffffffffffffffffffffff1673ffffffffffffffffffffffffffffffffffffffff1681526020019081526020015f205f6101000a81548160ff021916908315150217905550611c2e611c9b565b73ffffffffffffffffffffffffffffffffffffffff168273ffffffffffffffffffffffffffffffffffffffff16847f2f8788117e7eff1d82e926ec794901d17c78024a50270940304540a733656f0d60405160405180910390a460019050611c95565b5f90505b92915050565b5f33905090565b5f611cad83836116e2565b15611d82575f60025f8581526020019081526020015f205f015f8473ffffffffffffffffffffffffffffffffffffffff1673ffffffffffffffffffffffffffffffffffffffff1681526020019081526020015f205f6101000a81548160ff021916908315150217905550611d1f611c9b565b73ffffffffffffffffffffffffffffffffffffffff168273ffffffffffffffffffffffffffffffffffffffff16847ff6391f5c32d9c69d2a47ea670b442974b53935d1edc7fd64eb21e047a839171b60405160405180910390a460019050611d86565b5f90505b92915050565b611d94610cd0565b611dca576040517f8dfc202b00000000000000000000000000000000000000000000000000000000815260040160405180910390fd5b565b611dd4611d8c565b5f600160146101000a81548160ff0219169083151502179055507f5db9ee0a495bf2e6ff9c91a7834c1ba4fdd244a5e8aa4e537bd38aeae4b073aa611e17611c9b565b604051611e2491906129ff565b60405180910390a1565b611eaa848573ffffffffffffffffffffffffffffffffffffffff166323b872dd868686604051602401611e63939291906130f2565b604051602081830303815290604052915060e01b6020820180517bffffffffffffffffffffffffffffffffffffffffffffffffffffffff8381831617835250505050612850565b50505050565b611eb8611c9b565b73ffffffffffffffffffffffffffffffffffffffff16611ed66116ba565b73ffffffffffffffffffffffffffffffffffffffff1614611f3557611ef9611c9b565b6040517f118cdaa7000000000000000000000000000000000000000000000000000000008152600401611f2c91906129ff565b60405180910390fd5b565b5f60015f9054906101000a900473ffffffffffffffffffffffffffffffffffffffff1690508160015f6101000a81548173ffffffffffffffffffffffffffffffffffffffff021916908373ffffffffffffffffffffffffffffffffffffffff1602179055508173ffffffffffffffffffffffffffffffffffffffff168173ffffffffffffffffffffffffffffffffffffffff167f8be0079c531659141344cd1fd0a4f28419497f9722a3daafe3b4186f6b6457e060405160405180910390a35050565b6120026128eb565b805f61200d82611acb565b90505f810361205357336040517fb2f0923100000000000000000000000000000000000000000000000000000000815260040161204a91906129ff565b60405180910390fd5b7f00000000000000000000000000000000000000000000000000000000000000008111156120b857806040517fc39935650000000000000000000000000000000000000000000000000000000081526004016120af9190612c26565b60405180910390fd5b60075f5f73ffffffffffffffffffffffffffffffffffffffff1673ffffffffffffffffffffffffffffffffffffffff1681526020019081526020015f205f3373ffffffffffffffffffffffffffffffffffffffff1673ffffffffffffffffffffffffffffffffffffffff1681526020019081526020015f20548211156121775733816040517f51a7314200000000000000000000000000000000000000000000000000000000815260040161216e929190612e56565b60405180910390fd5b5f61218184611acb565b90508360075f5f73ffffffffffffffffffffffffffffffffffffffff1673ffffffffffffffffffffffffffffffffffffffff1681526020019081526020015f205f3373ffffffffffffffffffffffffffffffffffffffff1673ffffffffffffffffffffffffffffffffffffffff1681526020019081526020015f205f82825461220a9190613021565b9250508190555060055f81548092919061222390612e0f565b91905055508060065f8282546122399190613021565b925050819055503373ffffffffffffffffffffffffffffffffffffffff167f9cde449504e4972ffddec09813e0c252a1462d76bef1864b9e7520dadb7183e8826040516122869190612c26565b60405180910390a25f3373ffffffffffffffffffffffffffffffffffffffff16856040516122b390613154565b5f6040518083038185875af1925050503d805f81146122ed576040519150601f19603f3d011682016040523d82523d5f602084013e6122f2565b606091505b505090508061233a5733856040517f6c5e1a14000000000000000000000000000000000000000000000000000000008152600401612331929190612e56565b60405180910390fd5b50505050612346612938565b50565b6123516128eb565b805f810361239657336040517fb2f0923100000000000000000000000000000000000000000000000000000000815260040161238d91906129ff565b60405180910390fd5b7f00000000000000000000000000000000000000000000000000000000000000008111156123fb57806040517fc39935650000000000000000000000000000000000000000000000000000000081526004016123f29190612c26565b60405180910390fd5b60075f7f000000000000000000000000000000000000000000000000000000000000000073ffffffffffffffffffffffffffffffffffffffff1673ffffffffffffffffffffffffffffffffffffffff1681526020019081526020015f205f3373ffffffffffffffffffffffffffffffffffffffff1673ffffffffffffffffffffffffffffffffffffffff1681526020019081526020015f20548111156124da5733816040517f51a731420000000000000000000000000000000000000000000000000000000081526004016124d1929190612e56565b60405180910390fd5b8160075f7f000000000000000000000000000000000000000000000000000000000000000073ffffffffffffffffffffffffffffffffffffffff1673ffffffffffffffffffffffffffffffffffffffff1681526020019081526020015f205f3373ffffffffffffffffffffffffffffffffffffffff1673ffffffffffffffffffffffffffffffffffffffff1681526020019081526020015f205f8282546125819190613021565b9250508190555060055f81548092919061259a90612e0f565b91905055508160065f8282546125b09190613021565b925050819055503373ffffffffffffffffffffffffffffffffffffffff167f9cde449504e4972ffddec09813e0c252a1462d76bef1864b9e7520dadb7183e8836040516125fd9190612c26565b60405180910390a261265033837f000000000000000000000000000000000000000000000000000000000000000073ffffffffffffffffffffffffffffffffffffffff166129419092919063ffffffff16565b50612659612938565b50565b5f7f01ffc9a7000000000000000000000000000000000000000000000000000000007bffffffffffffffffffffffffffffffffffffffffffffffffffffffff1916827bffffffffffffffffffffffffffffffffffffffffffffffffffffffff1916149050919050565b5f5f5f60035f9054906101000a900473ffffffffffffffffffffffffffffffffffffffff1673ffffffffffffffffffffffffffffffffffffffff1663feaf968c6040518163ffffffff1660e01b815260040160a060405180830381865afa158015612732573d5f5f3e3d5ffd5b505050506040513d601f19601f820116820180604052508101906127569190612faa565b509350509250505f82136127a157816040517f365440290000000000000000000000000000000000000000000000000000000081526004016127989190612c26565b60405180910390fd5b610e1061ffff1681426127b49190613021565b11156127f757816040517f2609a2650000000000000000000000000000000000000000000000000000000081526004016127ee9190612c26565b60405180910390fd5b819250505090565b61280982826116e2565b61284c5780826040517fe2517d3f000000000000000000000000000000000000000000000000000000008152600401612843929190613168565b60405180910390fd5b5050565b5f5f60205f8451602086015f885af18061286f576040513d5f823e3d81fd5b3d92505f519150505f82146128885760018114156128a3565b5f8473ffffffffffffffffffffffffffffffffffffffff163b145b156128e557836040517f5274afe70000000000000000000000000000000000000000000000000000000081526004016128dc91906129ff565b60405180910390fd5b50505050565b60025f540361292f576040517f08c379a0000000000000000000000000000000000000000000000000000000008152600401612926906131e9565b60405180910390fd5b60025f81905550565b60015f81905550565b6129bb838473ffffffffffffffffffffffffffffffffffffffff1663a9059cbb8585604051602401612974929190612e56565b604051602081830303815290604052915060e01b6020820180517bffffffffffffffffffffffffffffffffffffffffffffffffffffffff8381831617835250505050612850565b505050565b5f73ffffffffffffffffffffffffffffffffffffffff82169050919050565b5f6129e9826129c0565b9050919050565b6129f9816129df565b82525050565b5f602082019050612a125f8301846129f0565b92915050565b5f5ffd5b5f7fffffffff0000000000000000000000000000000000000000000000000000000082169050919050565b612a5081612a1c565b8114612a5a575f5ffd5b50565b5f81359050612a6b81612a47565b92915050565b5f60208284031215612a8657612a85612a18565b5b5f612a9384828501612a5d565b91505092915050565b5f8115159050919050565b612ab081612a9c565b82525050565b5f602082019050612ac95f830184612aa7565b92915050565b5f819050919050565b612ae181612acf565b82525050565b5f60a082019050612afa5f830188612aa7565b612b076020830187612ad8565b612b146040830186612ad8565b612b216060830185612ad8565b612b2e60808301846129f0565b9695505050505050565b5f819050919050565b612b4a81612b38565b8114612b54575f5ffd5b50565b5f81359050612b6581612b41565b92915050565b5f60208284031215612b8057612b7f612a18565b5b5f612b8d84828501612b57565b91505092915050565b612b9f81612b38565b82525050565b5f602082019050612bb85f830184612b96565b92915050565b612bc7816129df565b8114612bd1575f5ffd5b50565b5f81359050612be281612bbe565b92915050565b5f5f60408385031215612bfe57612bfd612a18565b5b5f612c0b85828601612b57565b9250506020612c1c85828601612bd4565b9150509250929050565b5f602082019050612c395f830184612ad8565b92915050565b612c4881612acf565b8114612c52575f5ffd5b50565b5f81359050612c6381612c3f565b92915050565b5f60208284031215612c7e57612c7d612a18565b5b5f612c8b84828501612c55565b91505092915050565b5f819050919050565b5f612cb7612cb2612cad846129c0565b612c94565b6129c0565b9050919050565b5f612cc882612c9d565b9050919050565b5f612cd982612cbe565b9050919050565b612ce981612ccf565b82525050565b5f602082019050612d025f830184612ce0565b92915050565b5f60208284031215612d1d57612d1c612a18565b5b5f612d2a84828501612bd4565b91505092915050565b5f5f60408385031215612d4957612d48612a18565b5b5f612d5685828601612bd4565b9250506020612d6785828601612b57565b9150509250929050565b5f5f60408385031215612d8757612d86612a18565b5b5f612d9485828601612bd4565b9250506020612da585828601612bd4565b9150509250929050565b7f4e487b71000000000000000000000000000000000000000000000000000000005f52601160045260245ffd5b5f612de682612acf565b9150612df183612acf565b9250828201905080821115612e0957612e08612daf565b5b92915050565b5f612e1982612acf565b91507fffffffffffffffffffffffffffffffffffffffffffffffffffffffffffffffff8203612e4b57612e4a612daf565b5b600182019050919050565b5f604082019050612e695f8301856129f0565b612e766020830184612ad8565b9392505050565b612e8681612a9c565b8114612e90575f5ffd5b50565b5f81519050612ea181612e7d565b92915050565b5f60208284031215612ebc57612ebb612a18565b5b5f612ec984828501612e93565b91505092915050565b5f604082019050612ee55f8301856129f0565b612ef260208301846129f0565b9392505050565b5f81519050612f0781612c3f565b92915050565b5f60208284031215612f2257612f21612a18565b5b5f612f2f84828501612ef9565b91505092915050565b5f69ffffffffffffffffffff82169050919050565b612f5681612f38565b8114612f60575f5ffd5b50565b5f81519050612f7181612f4d565b92915050565b5f819050919050565b612f8981612f77565b8114612f93575f5ffd5b50565b5f81519050612fa481612f80565b92915050565b5f5f5f5f5f60a08688031215612fc357612fc2612a18565b5b5f612fd088828901612f63565b9550506020612fe188828901612f96565b9450506040612ff288828901612ef9565b935050606061300388828901612ef9565b925050608061301488828901612f63565b9150509295509295909350565b5f61302b82612acf565b915061303683612acf565b925082820390508181111561304e5761304d612daf565b5b92915050565b5f61305e82612acf565b915061306983612acf565b925082820261307781612acf565b9150828204841483151761308e5761308d612daf565b5b5092915050565b7f4e487b71000000000000000000000000000000000000000000000000000000005f52601260045260245ffd5b5f6130cc82612acf565b91506130d783612acf565b9250826130e7576130e6613095565b5b828204905092915050565b5f6060820190506131055f8301866129f0565b61311260208301856129f0565b61311f6040830184612ad8565b949350505050565b5f81905092915050565b50565b5f61313f5f83613127565b915061314a82613131565b5f82019050919050565b5f61315e82613134565b9150819050919050565b5f60408201905061317b5f8301856129f0565b6131886020830184612b96565b9392505050565b5f82825260208201905092915050565b7f5265656e7472616e637947756172643a207265656e7472616e742063616c6c005f82015250565b5f6131d3601f8361318f565b91506131de8261319f565b602082019050919050565b5f6020820190508181035f830152613200816131c7565b905091905056fea2646970667358221220201d60410ba2bab6ea02ae8866bbe39653171a7984e9180b7fbd9088e2fa5a8c64736f6c634300081e0033",
					"opcodes": "PUSH1 0xE0 PUSH1 0x40 MSTORE PUSH0 PUSH1 0x4 SSTORE PUSH0 PUSH1 0x5 SSTORE PUSH0 PUSH1 0x6 SSTORE CALLVALUE DUP1 ISZERO PUSH2 0x1B JUMPI PUSH0 PUSH0 REVERT JUMPDEST POP PUSH1 0x40 MLOAD PUSH2 0x39BF CODESIZE SUB DUP1 PUSH2 0x39BF DUP4 CODECOPY DUP2 DUP2 ADD PUSH1 0x40 MSTORE DUP2 ADD SWAP1 PUSH2 0x3D SWAP2 SWAP1 PUSH2 0x616 JUMP JUMPDEST DUP3 PUSH1 0x1 PUSH0 DUP2 SWAP1 SSTORE POP PUSH0 PUSH20 0xFFFFFFFFFFFFFFFFFFFFFFFFFFFFFFFFFFFFFFFF AND DUP2 PUSH20 0xFFFFFFFFFFFFFFFFFFFFFFFFFFFFFFFFFFFFFFFF AND SUB PUSH2 0xB5 JUMPI PUSH0 PUSH1 0x40 MLOAD PUSH32 0x1E4FBDF700000000000000000000000000000000000000000000000000000000 DUP2 MSTORE PUSH1 0x4 ADD PUSH2 0xAC SWAP2 SWAP1 PUSH2 0x69C JUMP JUMPDEST PUSH1 0x40 MLOAD DUP1 SWAP2 SUB SWAP1 REVERT JUMPDEST PUSH2 0xC4 DUP2 PUSH2 0x361 PUSH1 0x20 SHL PUSH1 0x20 SHR JUMP JUMPDEST POP PUSH0 DUP6 SUB PUSH2 0x109 JUMPI DUP5 PUSH1 0x40 MLOAD PUSH32 0xF1FDFD2B00000000000000000000000000000000000000000000000000000000 DUP2 MSTORE PUSH1 0x4 ADD PUSH2 0x100 SWAP2 SWAP1 PUSH2 0x6C4 JUMP JUMPDEST PUSH1 0x40 MLOAD DUP1 SWAP2 SUB SWAP1 REVERT JUMPDEST PUSH0 DUP5 SUB PUSH2 0x14D JUMPI DUP4 PUSH1 0x40 MLOAD PUSH32 0x5052FE8E00000000000000000000000000000000000000000000000000000000 DUP2 MSTORE PUSH1 0x4 ADD PUSH2 0x144 SWAP2 SWAP1 PUSH2 0x6C4 JUMP JUMPDEST PUSH1 0x40 MLOAD DUP1 SWAP2 SUB SWAP1 REVERT JUMPDEST DUP5 DUP5 GT ISZERO PUSH2 0x194 JUMPI DUP5 DUP5 PUSH1 0x40 MLOAD PUSH32 0x3122626300000000000000000000000000000000000000000000000000000000 DUP2 MSTORE PUSH1 0x4 ADD PUSH2 0x18B SWAP3 SWAP2 SWAP1 PUSH2 0x6DD JUMP JUMPDEST PUSH1 0x40 MLOAD DUP1 SWAP2 SUB SWAP1 REVERT JUMPDEST PUSH0 PUSH20 0xFFFFFFFFFFFFFFFFFFFFFFFFFFFFFFFFFFFFFFFF AND DUP3 PUSH20 0xFFFFFFFFFFFFFFFFFFFFFFFFFFFFFFFFFFFFFFFF AND SUB PUSH2 0x1F9 JUMPI PUSH1 0x40 MLOAD PUSH32 0x463858D600000000000000000000000000000000000000000000000000000000 DUP2 MSTORE PUSH1 0x4 ADD PUSH1 0x40 MLOAD DUP1 SWAP2 SUB SWAP1 REVERT JUMPDEST PUSH0 PUSH20 0xFFFFFFFFFFFFFFFFFFFFFFFFFFFFFFFFFFFFFFFF AND DUP2 PUSH20 0xFFFFFFFFFFFFFFFFFFFFFFFFFFFFFFFFFFFFFFFF AND SUB PUSH2 0x25E JUMPI PUSH1 0x40 MLOAD PUSH32 0x463858D600000000000000000000000000000000000000000000000000000000 DUP2 MSTORE PUSH1 0x4 ADD PUSH1 0x40 MLOAD DUP1 SWAP2 SUB SWAP1 REVERT JUMPDEST PUSH2 0x270 PUSH0 PUSH0 SHL DUP5 PUSH2 0x424 PUSH1 0x20 SHL PUSH1 0x20 SHR JUMP JUMPDEST POP PUSH2 0x2A1 PUSH32 0x539440820030C4994DB4E31B6B800DEAFD503688728F932ADDFE7A410515C14C DUP5 PUSH2 0x424 PUSH1 0x20 SHL PUSH1 0x20 SHR JUMP JUMPDEST POP PUSH2 0x2D2 PUSH32 0x9BBB3EE3BDFBE971682B08854A620CA4BF696F8E0C269E5C5B129A18E64D29DF DUP5 PUSH2 0x424 PUSH1 0x20 SHL PUSH1 0x20 SHR JUMP JUMPDEST POP DUP1 PUSH20 0xFFFFFFFFFFFFFFFFFFFFFFFFFFFFFFFFFFFFFFFF AND PUSH1 0x80 DUP2 PUSH20 0xFFFFFFFFFFFFFFFFFFFFFFFFFFFFFFFFFFFFFFFF AND DUP2 MSTORE POP POP DUP2 PUSH1 0x3 PUSH0 PUSH2 0x100 EXP DUP2 SLOAD DUP2 PUSH20 0xFFFFFFFFFFFFFFFFFFFFFFFFFFFFFFFFFFFFFFFF MUL NOT AND SWAP1 DUP4 PUSH20 0xFFFFFFFFFFFFFFFFFFFFFFFFFFFFFFFFFFFFFFFF AND MUL OR SWAP1 SSTORE POP DUP5 PUSH1 0xC0 DUP2 DUP2 MSTORE POP POP DUP4 PUSH1 0xA0 DUP2 DUP2 MSTORE POP POP POP POP POP POP POP PUSH2 0x704 JUMP JUMPDEST PUSH0 PUSH1 0x1 PUSH0 SWAP1 SLOAD SWAP1 PUSH2 0x100 EXP SWAP1 DIV PUSH20 0xFFFFFFFFFFFFFFFFFFFFFFFFFFFFFFFFFFFFFFFF AND SWAP1 POP DUP2 PUSH1 0x1 PUSH0 PUSH2 0x100 EXP DUP2 SLOAD DUP2 PUSH20 0xFFFFFFFFFFFFFFFFFFFFFFFFFFFFFFFFFFFFFFFF MUL NOT AND SWAP1 DUP4 PUSH20 0xFFFFFFFFFFFFFFFFFFFFFFFFFFFFFFFFFFFFFFFF AND MUL OR SWAP1 SSTORE POP DUP2 PUSH20 0xFFFFFFFFFFFFFFFFFFFFFFFFFFFFFFFFFFFFFFFF AND DUP2 PUSH20 0xFFFFFFFFFFFFFFFFFFFFFFFFFFFFFFFFFFFFFFFF AND PUSH32 0x8BE0079C531659141344CD1FD0A4F28419497F9722A3DAAFE3B4186F6B6457E0 PUSH1 0x40 MLOAD PUSH1 0x40 MLOAD DUP1 SWAP2 SUB SWAP1 LOG3 POP POP JUMP JUMPDEST PUSH0 PUSH2 0x435 DUP4 DUP4 PUSH2 0x51A PUSH1 0x20 SHL PUSH1 0x20 SHR JUMP JUMPDEST PUSH2 0x510 JUMPI PUSH1 0x1 PUSH1 0x2 PUSH0 DUP6 DUP2 MSTORE PUSH1 0x20 ADD SWAP1 DUP2 MSTORE PUSH1 0x20 ADD PUSH0 KECCAK256 PUSH0 ADD PUSH0 DUP5 PUSH20 0xFFFFFFFFFFFFFFFFFFFFFFFFFFFFFFFFFFFFFFFF AND PUSH20 0xFFFFFFFFFFFFFFFFFFFFFFFFFFFFFFFFFFFFFFFF AND DUP2 MSTORE PUSH1 0x20 ADD SWAP1 DUP2 MSTORE PUSH1 0x20 ADD PUSH0 KECCAK256 PUSH0 PUSH2 0x100 EXP DUP2 SLOAD DUP2 PUSH1 0xFF MUL NOT AND SWAP1 DUP4 ISZERO ISZERO MUL OR SWAP1 SSTORE POP PUSH2 0x4AD PUSH2 0x57E PUSH1 0x20 SHL PUSH1 0x20 SHR JUMP JUMPDEST PUSH20 0xFFFFFFFFFFFFFFFFFFFFFFFFFFFFFFFFFFFFFFFF AND DUP3 PUSH20 0xFFFFFFFFFFFFFFFFFFFFFFFFFFFFFFFFFFFFFFFF AND DUP5 PUSH32 0x2F8788117E7EFF1D82E926EC794901D17C78024A50270940304540A733656F0D PUSH1 0x40 MLOAD PUSH1 0x40 MLOAD DUP1 SWAP2 SUB SWAP1 LOG4 PUSH1 0x1 SWAP1 POP PUSH2 0x514 JUMP JUMPDEST PUSH0 SWAP1 POP JUMPDEST SWAP3 SWAP2 POP POP JUMP JUMPDEST PUSH0 PUSH1 0x2 PUSH0 DUP5 DUP2 MSTORE PUSH1 0x20 ADD SWAP1 DUP2 MSTORE PUSH1 0x20 ADD PUSH0 KECCAK256 PUSH0 ADD PUSH0 DUP4 PUSH20 0xFFFFFFFFFFFFFFFFFFFFFFFFFFFFFFFFFFFFFFFF AND PUSH20 0xFFFFFFFFFFFFFFFFFFFFFFFFFFFFFFFFFFFFFFFF AND DUP2 MSTORE PUSH1 0x20 ADD SWAP1 DUP2 MSTORE PUSH1 0x20 ADD PUSH0 KECCAK256 PUSH0 SWAP1 SLOAD SWAP1 PUSH2 0x100 EXP SWAP1 DIV PUSH1 0xFF AND SWAP1 POP SWAP3 SWAP2 POP POP JUMP JUMPDEST PUSH0 CALLER SWAP1 POP SWAP1 JUMP JUMPDEST PUSH0 PUSH0 REVERT JUMPDEST PUSH0 DUP2 SWAP1 POP SWAP2 SWAP1 POP JUMP JUMPDEST PUSH2 0x59B DUP2 PUSH2 0x589 JUMP JUMPDEST DUP2 EQ PUSH2 0x5A5 JUMPI PUSH0 PUSH0 REVERT JUMPDEST POP JUMP JUMPDEST PUSH0 DUP2 MLOAD SWAP1 POP PUSH2 0x5B6 DUP2 PUSH2 0x592 JUMP JUMPDEST SWAP3 SWAP2 POP POP JUMP JUMPDEST PUSH0 PUSH20 0xFFFFFFFFFFFFFFFFFFFFFFFFFFFFFFFFFFFFFFFF DUP3 AND SWAP1 POP SWAP2 SWAP1 POP JUMP JUMPDEST PUSH0 PUSH2 0x5E5 DUP3 PUSH2 0x5BC JUMP JUMPDEST SWAP1 POP SWAP2 SWAP1 POP JUMP JUMPDEST PUSH2 0x5F5 DUP2 PUSH2 0x5DB JUMP JUMPDEST DUP2 EQ PUSH2 0x5FF JUMPI PUSH0 PUSH0 REVERT JUMPDEST POP JUMP JUMPDEST PUSH0 DUP2 MLOAD SWAP1 POP PUSH2 0x610 DUP2 PUSH2 0x5EC JUMP JUMPDEST SWAP3 SWAP2 POP POP JUMP JUMPDEST PUSH0 PUSH0 PUSH0 PUSH0 PUSH0 PUSH1 0xA0 DUP7 DUP9 SUB SLT ISZERO PUSH2 0x62F JUMPI PUSH2 0x62E PUSH2 0x585 JUMP JUMPDEST JUMPDEST PUSH0 PUSH2 0x63C DUP9 DUP3 DUP10 ADD PUSH2 0x5A8 JUMP JUMPDEST SWAP6 POP POP PUSH1 0x20 PUSH2 0x64D DUP9 DUP3 DUP10 ADD PUSH2 0x5A8 JUMP JUMPDEST SWAP5 POP POP PUSH1 0x40 PUSH2 0x65E DUP9 DUP3 DUP10 ADD PUSH2 0x602 JUMP JUMPDEST SWAP4 POP POP PUSH1 0x60 PUSH2 0x66F DUP9 DUP3 DUP10 ADD PUSH2 0x602 JUMP JUMPDEST SWAP3 POP POP PUSH1 0x80 PUSH2 0x680 DUP9 DUP3 DUP10 ADD PUSH2 0x602 JUMP JUMPDEST SWAP2 POP POP SWAP3 SWAP6 POP SWAP3 SWAP6 SWAP1 SWAP4 POP JUMP JUMPDEST PUSH2 0x696 DUP2 PUSH2 0x5DB JUMP JUMPDEST DUP3 MSTORE POP POP JUMP JUMPDEST PUSH0 PUSH1 0x20 DUP3 ADD SWAP1 POP PUSH2 0x6AF PUSH0 DUP4 ADD DUP5 PUSH2 0x68D JUMP JUMPDEST SWAP3 SWAP2 POP POP JUMP JUMPDEST PUSH2 0x6BE DUP2 PUSH2 0x589 JUMP JUMPDEST DUP3 MSTORE POP POP JUMP JUMPDEST PUSH0 PUSH1 0x20 DUP3 ADD SWAP1 POP PUSH2 0x6D7 PUSH0 DUP4 ADD DUP5 PUSH2 0x6B5 JUMP JUMPDEST SWAP3 SWAP2 POP POP JUMP JUMPDEST PUSH0 PUSH1 0x40 DUP3 ADD SWAP1 POP PUSH2 0x6F0 PUSH0 DUP4 ADD DUP6 PUSH2 0x6B5 JUMP JUMPDEST PUSH2 0x6FD PUSH1 0x20 DUP4 ADD DUP5 PUSH2 0x6B5 JUMP JUMPDEST SWAP4 SWAP3 POP POP POP JUMP JUMPDEST PUSH1 0x80 MLOAD PUSH1 0xA0 MLOAD PUSH1 0xC0 MLOAD PUSH2 0x323D PUSH2 0x782 PUSH0 CODECOPY PUSH0 DUP2 DUP2 PUSH2 0x7A2 ADD MSTORE DUP2 DUP2 PUSH2 0x868 ADD MSTORE PUSH2 0xE57 ADD MSTORE PUSH0 DUP2 DUP2 PUSH2 0x7C3 ADD MSTORE DUP2 DUP2 PUSH2 0x2055 ADD MSTORE PUSH2 0x2398 ADD MSTORE PUSH0 DUP2 DUP2 PUSH2 0xCEC ADD MSTORE DUP2 DUP2 PUSH2 0xED1 ADD MSTORE DUP2 DUP2 PUSH2 0xF6D ADD MSTORE DUP2 DUP2 PUSH2 0x100C ADD MSTORE DUP2 DUP2 PUSH2 0x1139 ADD MSTORE DUP2 DUP2 PUSH2 0x1769 ADD MSTORE DUP2 DUP2 PUSH2 0x2400 ADD MSTORE DUP2 DUP2 PUSH2 0x24E0 ADD MSTORE PUSH2 0x260C ADD MSTORE PUSH2 0x323D PUSH0 RETURN INVALID PUSH1 0x80 PUSH1 0x40 MSTORE PUSH1 0x4 CALLDATASIZE LT PUSH2 0x1E6 JUMPI PUSH0 CALLDATALOAD PUSH1 0xE0 SHR DUP1 PUSH4 0x8648840A GT PUSH2 0x101 JUMPI DUP1 PUSH4 0xCB398EB3 GT PUSH2 0x94 JUMPI DUP1 PUSH4 0xF0E00DC8 GT PUSH2 0x63 JUMPI DUP1 PUSH4 0xF0E00DC8 EQ PUSH2 0x6C9 JUMPI DUP1 PUSH4 0xF2FDE38B EQ PUSH2 0x6F1 JUMPI DUP1 PUSH4 0xF39B1809 EQ PUSH2 0x719 JUMPI DUP1 PUSH4 0xF7888AEC EQ PUSH2 0x743 JUMPI PUSH2 0x228 JUMP JUMPDEST DUP1 PUSH4 0xCB398EB3 EQ PUSH2 0x625 JUMPI DUP1 PUSH4 0xCCD6B020 EQ PUSH2 0x64F JUMPI DUP1 PUSH4 0xD547741F EQ PUSH2 0x677 JUMPI DUP1 PUSH4 0xD9DC8694 EQ PUSH2 0x69F JUMPI PUSH2 0x228 JUMP JUMPDEST DUP1 PUSH4 0x93295C1C GT PUSH2 0xD0 JUMPI DUP1 PUSH4 0x93295C1C EQ PUSH2 0x57D JUMPI DUP1 PUSH4 0x939495BD EQ PUSH2 0x5A7 JUMPI DUP1 PUSH4 0xA217FDDF EQ PUSH2 0x5D1 JUMPI DUP1 PUSH4 0xC6ACA33C EQ PUSH2 0x5FB JUMPI PUSH2 0x228 JUMP JUMPDEST DUP1 PUSH4 0x8648840A EQ PUSH2 0x4C7 JUMPI DUP1 PUSH4 0x8DA5CB5B EQ PUSH2 0x4EF JUMPI DUP1 PUSH4 0x91D14854 EQ PUSH2 0x519 JUMPI DUP1 PUSH4 0x931FB90E EQ PUSH2 0x555 JUMPI PUSH2 0x228 JUMP JUMPDEST DUP1 PUSH4 0x5C975ABB GT PUSH2 0x179 JUMPI DUP1 PUSH4 0x715018A6 GT PUSH2 0x148 JUMPI DUP1 PUSH4 0x715018A6 EQ PUSH2 0x437 JUMPI DUP1 PUSH4 0x779BB136 EQ PUSH2 0x44D JUMPI DUP1 PUSH4 0x7DC532C5 EQ PUSH2 0x477 JUMPI DUP1 PUSH4 0x82FE54B5 EQ PUSH2 0x49F JUMPI PUSH2 0x228 JUMP JUMPDEST DUP1 PUSH4 0x5C975ABB EQ PUSH2 0x391 JUMPI DUP1 PUSH4 0x6900670C EQ PUSH2 0x3BB JUMPI DUP1 PUSH4 0x698B7241 EQ PUSH2 0x3E5 JUMPI DUP1 PUSH4 0x6F05C64C EQ PUSH2 0x40D JUMPI PUSH2 0x228 JUMP JUMPDEST DUP1 PUSH4 0x248A9CA3 GT PUSH2 0x1B5 JUMPI DUP1 PUSH4 0x248A9CA3 EQ PUSH2 0x2EF JUMPI DUP1 PUSH4 0x2F2FF15D EQ PUSH2 0x32B JUMPI DUP1 PUSH4 0x36568ABE EQ PUSH2 0x353 JUMPI DUP1 PUSH4 0x38D5C916 EQ PUSH2 0x37B JUMPI PUSH2 0x228 JUMP JUMPDEST DUP1 PUSH4 0x1FFC9A7 EQ PUSH2 0x265 JUMPI DUP1 PUSH4 0x594CC69 EQ PUSH2 0x2A1 JUMPI DUP1 PUSH4 0x16A1930F EQ PUSH2 0x2CF JUMPI DUP1 PUSH4 0x1A003ECB EQ PUSH2 0x2D9 JUMPI PUSH2 0x228 JUMP JUMPDEST CALLDATASIZE PUSH2 0x228 JUMPI CALLER PUSH1 0x40 MLOAD PUSH32 0xE1D158FF00000000000000000000000000000000000000000000000000000000 DUP2 MSTORE PUSH1 0x4 ADD PUSH2 0x21F SWAP2 SWAP1 PUSH2 0x29FF JUMP JUMPDEST PUSH1 0x40 MLOAD DUP1 SWAP2 SUB SWAP1 REVERT JUMPDEST CALLER PUSH1 0x40 MLOAD PUSH32 0xE1D158FF00000000000000000000000000000000000000000000000000000000 DUP2 MSTORE PUSH1 0x4 ADD PUSH2 0x25C SWAP2 SWAP1 PUSH2 0x29FF JUMP JUMPDEST PUSH1 0x40 MLOAD DUP1 SWAP2 SUB SWAP1 REVERT JUMPDEST CALLVALUE DUP1 ISZERO PUSH2 0x270 JUMPI PUSH0 PUSH0 REVERT JUMPDEST POP PUSH2 0x28B PUSH1 0x4 DUP1 CALLDATASIZE SUB DUP2 ADD SWAP1 PUSH2 0x286 SWAP2 SWAP1 PUSH2 0x2A71 JUMP JUMPDEST PUSH2 0x77F JUMP JUMPDEST PUSH1 0x40 MLOAD PUSH2 0x298 SWAP2 SWAP1 PUSH2 0x2AB6 JUMP JUMPDEST PUSH1 0x40 MLOAD DUP1 SWAP2 SUB SWAP1 RETURN JUMPDEST CALLVALUE DUP1 ISZERO PUSH2 0x2AC JUMPI PUSH0 PUSH0 REVERT JUMPDEST POP PUSH2 0x2B5 PUSH2 0x790 JUMP JUMPDEST PUSH1 0x40 MLOAD PUSH2 0x2C6 SWAP6 SWAP5 SWAP4 SWAP3 SWAP2 SWAP1 PUSH2 0x2AE7 JUMP JUMPDEST PUSH1 0x40 MLOAD DUP1 SWAP2 SUB SWAP1 RETURN JUMPDEST PUSH2 0x2D7 PUSH2 0x815 JUMP JUMPDEST STOP JUMPDEST CALLVALUE DUP1 ISZERO PUSH2 0x2E4 JUMPI PUSH0 PUSH0 REVERT JUMPDEST POP PUSH2 0x2ED PUSH2 0x9FC JUMP JUMPDEST STOP JUMPDEST CALLVALUE DUP1 ISZERO PUSH2 0x2FA JUMPI PUSH0 PUSH0 REVERT JUMPDEST POP PUSH2 0x315 PUSH1 0x4 DUP1 CALLDATASIZE SUB DUP2 ADD SWAP1 PUSH2 0x310 SWAP2 SWAP1 PUSH2 0x2B6B JUMP JUMPDEST PUSH2 0xB09 JUMP JUMPDEST PUSH1 0x40 MLOAD PUSH2 0x322 SWAP2 SWAP1 PUSH2 0x2BA5 JUMP JUMPDEST PUSH1 0x40 MLOAD DUP1 SWAP2 SUB SWAP1 RETURN JUMPDEST CALLVALUE DUP1 ISZERO PUSH2 0x336 JUMPI PUSH0 PUSH0 REVERT JUMPDEST POP PUSH2 0x351 PUSH1 0x4 DUP1 CALLDATASIZE SUB DUP2 ADD SWAP1 PUSH2 0x34C SWAP2 SWAP1 PUSH2 0x2BE8 JUMP JUMPDEST PUSH2 0xB26 JUMP JUMPDEST STOP JUMPDEST CALLVALUE DUP1 ISZERO PUSH2 0x35E JUMPI PUSH0 PUSH0 REVERT JUMPDEST POP PUSH2 0x379 PUSH1 0x4 DUP1 CALLDATASIZE SUB DUP2 ADD SWAP1 PUSH2 0x374 SWAP2 SWAP1 PUSH2 0x2BE8 JUMP JUMPDEST PUSH2 0xB48 JUMP JUMPDEST STOP JUMPDEST CALLVALUE DUP1 ISZERO PUSH2 0x386 JUMPI PUSH0 PUSH0 REVERT JUMPDEST POP PUSH2 0x38F PUSH2 0xBC3 JUMP JUMPDEST STOP JUMPDEST CALLVALUE DUP1 ISZERO PUSH2 0x39C JUMPI PUSH0 PUSH0 REVERT JUMPDEST POP PUSH2 0x3A5 PUSH2 0xCD0 JUMP JUMPDEST PUSH1 0x40 MLOAD PUSH2 0x3B2 SWAP2 SWAP1 PUSH2 0x2AB6 JUMP JUMPDEST PUSH1 0x40 MLOAD DUP1 SWAP2 SUB SWAP1 RETURN JUMPDEST CALLVALUE DUP1 ISZERO PUSH2 0x3C6 JUMPI PUSH0 PUSH0 REVERT JUMPDEST POP PUSH2 0x3CF PUSH2 0xCE6 JUMP JUMPDEST PUSH1 0x40 MLOAD PUSH2 0x3DC SWAP2 SWAP1 PUSH2 0x2C26 JUMP JUMPDEST PUSH1 0x40 MLOAD DUP1 SWAP2 SUB SWAP1 RETURN JUMPDEST CALLVALUE DUP1 ISZERO PUSH2 0x3F0 JUMPI PUSH0 PUSH0 REVERT JUMPDEST POP PUSH2 0x40B PUSH1 0x4 DUP1 CALLDATASIZE SUB DUP2 ADD SWAP1 PUSH2 0x406 SWAP2 SWAP1 PUSH2 0x2C69 JUMP JUMPDEST PUSH2 0xE10 JUMP JUMPDEST STOP JUMPDEST CALLVALUE DUP1 ISZERO PUSH2 0x418 JUMPI PUSH0 PUSH0 REVERT JUMPDEST POP PUSH2 0x421 PUSH2 0x1182 JUMP JUMPDEST PUSH1 0x40 MLOAD PUSH2 0x42E SWAP2 SWAP1 PUSH2 0x2CEF JUMP JUMPDEST PUSH1 0x40 MLOAD DUP1 SWAP2 SUB SWAP1 RETURN JUMPDEST CALLVALUE DUP1 ISZERO PUSH2 0x442 JUMPI PUSH0 PUSH0 REVERT JUMPDEST POP PUSH2 0x44B PUSH2 0x11A7 JUMP JUMPDEST STOP JUMPDEST CALLVALUE DUP1 ISZERO PUSH2 0x458 JUMPI PUSH0 PUSH0 REVERT JUMPDEST POP PUSH2 0x461 PUSH2 0x11BA JUMP JUMPDEST PUSH1 0x40 MLOAD PUSH2 0x46E SWAP2 SWAP1 PUSH2 0x2C26 JUMP JUMPDEST PUSH1 0x40 MLOAD DUP1 SWAP2 SUB SWAP1 RETURN JUMPDEST CALLVALUE DUP1 ISZERO PUSH2 0x482 JUMPI PUSH0 PUSH0 REVERT JUMPDEST POP PUSH2 0x49D PUSH1 0x4 DUP1 CALLDATASIZE SUB DUP2 ADD SWAP1 PUSH2 0x498 SWAP2 SWAP1 PUSH2 0x2D08 JUMP JUMPDEST PUSH2 0x1239 JUMP JUMPDEST STOP JUMPDEST CALLVALUE DUP1 ISZERO PUSH2 0x4AA JUMPI PUSH0 PUSH0 REVERT JUMPDEST POP PUSH2 0x4C5 PUSH1 0x4 DUP1 CALLDATASIZE SUB DUP2 ADD SWAP1 PUSH2 0x4C0 SWAP2 SWAP1 PUSH2 0x2C69 JUMP JUMPDEST PUSH2 0x155E JUMP JUMPDEST STOP JUMPDEST CALLVALUE DUP1 ISZERO PUSH2 0x4D2 JUMPI PUSH0 PUSH0 REVERT JUMPDEST POP PUSH2 0x4ED PUSH1 0x4 DUP1 CALLDATASIZE SUB DUP2 ADD SWAP1 PUSH2 0x4E8 SWAP2 SWAP1 PUSH2 0x2D08 JUMP JUMPDEST PUSH2 0x1572 JUMP JUMPDEST STOP JUMPDEST CALLVALUE DUP1 ISZERO PUSH2 0x4FA JUMPI PUSH0 PUSH0 REVERT JUMPDEST POP PUSH2 0x503 PUSH2 0x16BA JUMP JUMPDEST PUSH1 0x40 MLOAD PUSH2 0x510 SWAP2 SWAP1 PUSH2 0x29FF JUMP JUMPDEST PUSH1 0x40 MLOAD DUP1 SWAP2 SUB SWAP1 RETURN JUMPDEST CALLVALUE DUP1 ISZERO PUSH2 0x524 JUMPI PUSH0 PUSH0 REVERT JUMPDEST POP PUSH2 0x53F PUSH1 0x4 DUP1 CALLDATASIZE SUB DUP2 ADD SWAP1 PUSH2 0x53A SWAP2 SWAP1 PUSH2 0x2BE8 JUMP JUMPDEST PUSH2 0x16E2 JUMP JUMPDEST PUSH1 0x40 MLOAD PUSH2 0x54C SWAP2 SWAP1 PUSH2 0x2AB6 JUMP JUMPDEST PUSH1 0x40 MLOAD DUP1 SWAP2 SUB SWAP1 RETURN JUMPDEST CALLVALUE DUP1 ISZERO PUSH2 0x560 JUMPI PUSH0 PUSH0 REVERT JUMPDEST POP PUSH2 0x57B PUSH1 0x4 DUP1 CALLDATASIZE SUB DUP2 ADD SWAP1 PUSH2 0x576 SWAP2 SWAP1 PUSH2 0x2C69 JUMP JUMPDEST PUSH2 0x1746 JUMP JUMPDEST STOP JUMPDEST CALLVALUE DUP1 ISZERO PUSH2 0x588 JUMPI PUSH0 PUSH0 REVERT JUMPDEST POP PUSH2 0x591 PUSH2 0x175A JUMP JUMPDEST PUSH1 0x40 MLOAD PUSH2 0x59E SWAP2 SWAP1 PUSH2 0x2C26 JUMP JUMPDEST PUSH1 0x40 MLOAD DUP1 SWAP2 SUB SWAP1 RETURN JUMPDEST CALLVALUE DUP1 ISZERO PUSH2 0x5B2 JUMPI PUSH0 PUSH0 REVERT JUMPDEST POP PUSH2 0x5BB PUSH2 0x1763 JUMP JUMPDEST PUSH1 0x40 MLOAD PUSH2 0x5C8 SWAP2 SWAP1 PUSH2 0x2C26 JUMP JUMPDEST PUSH1 0x40 MLOAD DUP1 SWAP2 SUB SWAP1 RETURN JUMPDEST CALLVALUE DUP1 ISZERO PUSH2 0x5DC JUMPI PUSH0 PUSH0 REVERT JUMPDEST POP PUSH2 0x5E5 PUSH2 0x1802 JUMP JUMPDEST PUSH1 0x40 MLOAD PUSH2 0x5F2 SWAP2 SWAP1 PUSH2 0x2BA5 JUMP JUMPDEST PUSH1 0x40 MLOAD DUP1 SWAP2 SUB SWAP1 RETURN JUMPDEST CALLVALUE DUP1 ISZERO PUSH2 0x606 JUMPI PUSH0 PUSH0 REVERT JUMPDEST POP PUSH2 0x60F PUSH2 0x1808 JUMP JUMPDEST PUSH1 0x40 MLOAD PUSH2 0x61C SWAP2 SWAP1 PUSH2 0x2C26 JUMP JUMPDEST PUSH1 0x40 MLOAD DUP1 SWAP2 SUB SWAP1 RETURN JUMPDEST CALLVALUE DUP1 ISZERO PUSH2 0x630 JUMPI PUSH0 PUSH0 REVERT JUMPDEST POP PUSH2 0x639 PUSH2 0x1811 JUMP JUMPDEST PUSH1 0x40 MLOAD PUSH2 0x646 SWAP2 SWAP1 PUSH2 0x2BA5 JUMP JUMPDEST PUSH1 0x40 MLOAD DUP1 SWAP2 SUB SWAP1 RETURN JUMPDEST CALLVALUE DUP1 ISZERO PUSH2 0x65A JUMPI PUSH0 PUSH0 REVERT JUMPDEST POP PUSH2 0x675 PUSH1 0x4 DUP1 CALLDATASIZE SUB DUP2 ADD SWAP1 PUSH2 0x670 SWAP2 SWAP1 PUSH2 0x2D33 JUMP JUMPDEST PUSH2 0x1835 JUMP JUMPDEST STOP JUMPDEST CALLVALUE DUP1 ISZERO PUSH2 0x682 JUMPI PUSH0 PUSH0 REVERT JUMPDEST POP PUSH2 0x69D PUSH1 0x4 DUP1 CALLDATASIZE SUB DUP2 ADD SWAP1 PUSH2 0x698 SWAP2 SWAP1 PUSH2 0x2BE8 JUMP JUMPDEST PUSH2 0x1899 JUMP JUMPDEST STOP JUMPDEST CALLVALUE DUP1 ISZERO PUSH2 0x6AA JUMPI PUSH0 PUSH0 REVERT JUMPDEST POP PUSH2 0x6B3 PUSH2 0x18BB JUMP JUMPDEST PUSH1 0x40 MLOAD PUSH2 0x6C0 SWAP2 SWAP1 PUSH2 0x2BA5 JUMP JUMPDEST PUSH1 0x40 MLOAD DUP1 SWAP2 SUB SWAP1 RETURN JUMPDEST CALLVALUE DUP1 ISZERO PUSH2 0x6D4 JUMPI PUSH0 PUSH0 REVERT JUMPDEST POP PUSH2 0x6EF PUSH1 0x4 DUP1 CALLDATASIZE SUB DUP2 ADD SWAP1 PUSH2 0x6EA SWAP2 SWAP1 PUSH2 0x2D33 JUMP JUMPDEST PUSH2 0x18DF JUMP JUMPDEST STOP JUMPDEST CALLVALUE DUP1 ISZERO PUSH2 0x6FC JUMPI PUSH0 PUSH0 REVERT JUMPDEST POP PUSH2 0x717 PUSH1 0x4 DUP1 CALLDATASIZE SUB DUP2 ADD SWAP1 PUSH2 0x712 SWAP2 SWAP1 PUSH2 0x2D08 JUMP JUMPDEST PUSH2 0x1943 JUMP JUMPDEST STOP JUMPDEST CALLVALUE DUP1 ISZERO PUSH2 0x724 JUMPI PUSH0 PUSH0 REVERT JUMPDEST POP PUSH2 0x72D PUSH2 0x19C7 JUMP JUMPDEST PUSH1 0x40 MLOAD PUSH2 0x73A SWAP2 SWAP1 PUSH2 0x2C26 JUMP JUMPDEST PUSH1 0x40 MLOAD DUP1 SWAP2 SUB SWAP1 RETURN JUMPDEST CALLVALUE DUP1 ISZERO PUSH2 0x74E JUMPI PUSH0 PUSH0 REVERT JUMPDEST POP PUSH2 0x769 PUSH1 0x4 DUP1 CALLDATASIZE SUB DUP2 ADD SWAP1 PUSH2 0x764 SWAP2 SWAP1 PUSH2 0x2D71 JUMP JUMPDEST PUSH2 0x19D0 JUMP JUMPDEST PUSH1 0x40 MLOAD PUSH2 0x776 SWAP2 SWAP1 PUSH2 0x2C26 JUMP JUMPDEST PUSH1 0x40 MLOAD DUP1 SWAP2 SUB SWAP1 RETURN JUMPDEST PUSH0 PUSH2 0x789 DUP3 PUSH2 0x1A52 JUMP JUMPDEST SWAP1 POP SWAP2 SWAP1 POP JUMP JUMPDEST PUSH0 PUSH0 PUSH0 PUSH0 PUSH0 PUSH2 0x79D PUSH2 0xCD0 JUMP JUMPDEST PUSH1 0x6 SLOAD PUSH32 0x0 PUSH32 0x0 PUSH1 0x3 PUSH0 SWAP1 SLOAD SWAP1 PUSH2 0x100 EXP SWAP1 DIV PUSH20 0xFFFFFFFFFFFFFFFFFFFFFFFFFFFFFFFFFFFFFFFF AND SWAP5 POP SWAP5 POP SWAP5 POP SWAP5 POP SWAP5 POP SWAP1 SWAP2 SWAP3 SWAP4 SWAP5 JUMP JUMPDEST CALLVALUE PUSH0 PUSH2 0x820 DUP3 PUSH2 0x1ACB JUMP JUMPDEST SWAP1 POP PUSH0 DUP2 SUB PUSH2 0x866 JUMPI CALLER PUSH1 0x40 MLOAD PUSH32 0xB2F0923100000000000000000000000000000000000000000000000000000000 DUP2 MSTORE PUSH1 0x4 ADD PUSH2 0x85D SWAP2 SWAP1 PUSH2 0x29FF JUMP JUMPDEST PUSH1 0x40 MLOAD DUP1 SWAP2 SUB SWAP1 REVERT JUMPDEST PUSH32 0x0 PUSH1 0x6 SLOAD DUP3 PUSH2 0x895 SWAP2 SWAP1 PUSH2 0x2DDC JUMP JUMPDEST GT ISZERO PUSH2 0x8D8 JUMPI DUP1 PUSH1 0x40 MLOAD PUSH32 0x2900B02C00000000000000000000000000000000000000000000000000000000 DUP2 MSTORE PUSH1 0x4 ADD PUSH2 0x8CF SWAP2 SWAP1 PUSH2 0x2C26 JUMP JUMPDEST PUSH1 0x40 MLOAD DUP1 SWAP2 SUB SWAP1 REVERT JUMPDEST PUSH2 0x8E0 PUSH2 0x1AFA JUMP JUMPDEST PUSH0 PUSH2 0x8EA CALLVALUE PUSH2 0x1ACB JUMP JUMPDEST SWAP1 POP CALLVALUE PUSH1 0x7 PUSH0 PUSH0 PUSH20 0xFFFFFFFFFFFFFFFFFFFFFFFFFFFFFFFFFFFFFFFF AND PUSH20 0xFFFFFFFFFFFFFFFFFFFFFFFFFFFFFFFFFFFFFFFF AND DUP2 MSTORE PUSH1 0x20 ADD SWAP1 DUP2 MSTORE PUSH1 0x20 ADD PUSH0 KECCAK256 PUSH0 CALLER PUSH20 0xFFFFFFFFFFFFFFFFFFFFFFFFFFFFFFFFFFFFFFFF AND PUSH20 0xFFFFFFFFFFFFFFFFFFFFFFFFFFFFFFFFFFFFFFFF AND DUP2 MSTORE PUSH1 0x20 ADD SWAP1 DUP2 MSTORE PUSH1 0x20 ADD PUSH0 KECCAK256 PUSH0 DUP3 DUP3 SLOAD PUSH2 0x973 SWAP2 SWAP1 PUSH2 0x2DDC JUMP JUMPDEST SWAP3 POP POP DUP2 SWAP1 SSTORE POP PUSH1 0x4 PUSH0 DUP2 SLOAD DUP1 SWAP3 SWAP2 SWAP1 PUSH2 0x98C SWAP1 PUSH2 0x2E0F JUMP JUMPDEST SWAP2 SWAP1 POP SSTORE POP DUP1 PUSH1 0x6 PUSH0 DUP3 DUP3 SLOAD PUSH2 0x9A2 SWAP2 SWAP1 PUSH2 0x2DDC JUMP JUMPDEST SWAP3 POP POP DUP2 SWAP1 SSTORE POP CALLER PUSH20 0xFFFFFFFFFFFFFFFFFFFFFFFFFFFFFFFFFFFFFFFF AND PUSH32 0x9D15693852BF60DC27BD5AA831D0351359B7D01D428AE1BAAE11F15CBCFEBAFD DUP3 PUSH1 0x40 MLOAD PUSH2 0x9EF SWAP2 SWAP1 PUSH2 0x2C26 JUMP JUMPDEST PUSH1 0x40 MLOAD DUP1 SWAP2 SUB SWAP1 LOG2 POP POP POP JUMP JUMPDEST PUSH32 0x539440820030C4994DB4E31B6B800DEAFD503688728F932ADDFE7A410515C14C CALLER PUSH20 0xFFFFFFFFFFFFFFFFFFFFFFFFFFFFFFFFFFFFFFFF AND PUSH2 0xA3C PUSH2 0x16BA JUMP JUMPDEST PUSH20 0xFFFFFFFFFFFFFFFFFFFFFFFFFFFFFFFFFFFFFFFF AND EQ ISZERO DUP1 PUSH2 0xA66 JUMPI POP PUSH2 0xA64 DUP2 CALLER PUSH2 0x16E2 JUMP JUMPDEST ISZERO JUMPDEST ISZERO PUSH2 0xAA8 JUMPI CALLER PUSH1 0x40 MLOAD PUSH32 0x6286EAA00000000000000000000000000000000000000000000000000000000 DUP2 MSTORE PUSH1 0x4 ADD PUSH2 0xA9F SWAP2 SWAP1 PUSH2 0x29FF JUMP JUMPDEST PUSH1 0x40 MLOAD DUP1 SWAP2 SUB SWAP1 REVERT JUMPDEST PUSH2 0xAB0 PUSH2 0x1AFA JUMP JUMPDEST PUSH2 0xAB8 PUSH2 0x1B3B JUMP JUMPDEST CALLER PUSH20 0xFFFFFFFFFFFFFFFFFFFFFFFFFFFFFFFFFFFFFFFF AND PUSH32 0x65AB6ADC87722A7ACD973FFED16CBA7CFDF07B5329157A7192434753BA9DAC13 TIMESTAMP PUSH1 0x40 MLOAD PUSH2 0xAFE SWAP2 SWAP1 PUSH2 0x2C26 JUMP JUMPDEST PUSH1 0x40 MLOAD DUP1 SWAP2 SUB SWAP1 LOG2 POP JUMP JUMPDEST PUSH0 PUSH1 0x2 PUSH0 DUP4 DUP2 MSTORE PUSH1 0x20 ADD SWAP1 DUP2 MSTORE PUSH1 0x20 ADD PUSH0 KECCAK256 PUSH1 0x1 ADD SLOAD SWAP1 POP SWAP2 SWAP1 POP JUMP JUMPDEST PUSH2 0xB2F DUP3 PUSH2 0xB09 JUMP JUMPDEST PUSH2 0xB38 DUP2 PUSH2 0x1B9D JUMP JUMPDEST PUSH2 0xB42 DUP4 DUP4 PUSH2 0x1BB1 JUMP JUMPDEST POP POP POP POP JUMP JUMPDEST PUSH2 0xB50 PUSH2 0x1C9B JUMP JUMPDEST PUSH20 0xFFFFFFFFFFFFFFFFFFFFFFFFFFFFFFFFFFFFFFFF AND DUP2 PUSH20 0xFFFFFFFFFFFFFFFFFFFFFFFFFFFFFFFFFFFFFFFF AND EQ PUSH2 0xBB4 JUMPI PUSH1 0x40 MLOAD PUSH32 0x6697B23200000000000000000000000000000000000000000000000000000000 DUP2 MSTORE PUSH1 0x4 ADD PUSH1 0x40 MLOAD DUP1 SWAP2 SUB SWAP1 REVERT JUMPDEST PUSH2 0xBBE DUP3 DUP3 PUSH2 0x1CA2 JUMP JUMPDEST POP POP POP JUMP JUMPDEST PUSH32 0x539440820030C4994DB4E31B6B800DEAFD503688728F932ADDFE7A410515C14C CALLER PUSH20 0xFFFFFFFFFFFFFFFFFFFFFFFFFFFFFFFFFFFFFFFF AND PUSH2 0xC03 PUSH2 0x16BA JUMP JUMPDEST PUSH20 0xFFFFFFFFFFFFFFFFFFFFFFFFFFFFFFFFFFFFFFFF AND EQ ISZERO DUP1 PUSH2 0xC2D JUMPI POP PUSH2 0xC2B DUP2 CALLER PUSH2 0x16E2 JUMP JUMPDEST ISZERO JUMPDEST ISZERO PUSH2 0xC6F JUMPI CALLER PUSH1 0x40 MLOAD PUSH32 0x6286EAA00000000000000000000000000000000000000000000000000000000 DUP2 MSTORE PUSH1 0x4 ADD PUSH2 0xC66 SWAP2 SWAP1 PUSH2 0x29FF JUMP JUMPDEST PUSH1 0x40 MLOAD DUP1 SWAP2 SUB SWAP1 REVERT JUMPDEST PUSH2 0xC77 PUSH2 0x1D8C JUMP JUMPDEST PUSH2 0xC7F PUSH2 0x1DCC JUMP JUMPDEST CALLER PUSH20 0xFFFFFFFFFFFFFFFFFFFFFFFFFFFFFFFFFFFFFFFF AND PUSH32 0x8AF9CF236F4B3AFB8D03262D5BEF5D95DB4DA02AA57892CD6474E8097F4F2B7 TIMESTAMP PUSH1 0x40 MLOAD PUSH2 0xCC5 SWAP2 SWAP1 PUSH2 0x2C26 JUMP JUMPDEST PUSH1 0x40 MLOAD DUP1 SWAP2 SUB SWAP1 LOG2 POP JUMP JUMPDEST PUSH0 PUSH1 0x1 PUSH1 0x14 SWAP1 SLOAD SWAP1 PUSH2 0x100 EXP SWAP1 DIV PUSH1 0xFF AND SWAP1 POP SWAP1 JUMP JUMPDEST PUSH0 PUSH1 0x7 PUSH0 PUSH32 0x0 PUSH20 0xFFFFFFFFFFFFFFFFFFFFFFFFFFFFFFFFFFFFFFFF AND PUSH20 0xFFFFFFFFFFFFFFFFFFFFFFFFFFFFFFFFFFFFFFFF AND DUP2 MSTORE PUSH1 0x20 ADD SWAP1 DUP2 MSTORE PUSH1 0x20 ADD PUSH0 KECCAK256 PUSH0 CALLER PUSH20 0xFFFFFFFFFFFFFFFFFFFFFFFFFFFFFFFFFFFFFFFF AND PUSH20 0xFFFFFFFFFFFFFFFFFFFFFFFFFFFFFFFFFFFFFFFF AND DUP2 MSTORE PUSH1 0x20 ADD SWAP1 DUP2 MSTORE PUSH1 0x20 ADD PUSH0 KECCAK256 SLOAD PUSH2 0xE01 PUSH1 0x7 PUSH0 PUSH0 PUSH20 0xFFFFFFFFFFFFFFFFFFFFFFFFFFFFFFFFFFFFFFFF AND PUSH20 0xFFFFFFFFFFFFFFFFFFFFFFFFFFFFFFFFFFFFFFFF AND DUP2 MSTORE PUSH1 0x20 ADD SWAP1 DUP2 MSTORE PUSH1 0x20 ADD PUSH0 KECCAK256 PUSH0 CALLER PUSH20 0xFFFFFFFFFFFFFFFFFFFFFFFFFFFFFFFFFFFFFFFF AND PUSH20 0xFFFFFFFFFFFFFFFFFFFFFFFFFFFFFFFFFFFFFFFF AND DUP2 MSTORE PUSH1 0x20 ADD SWAP1 DUP2 MSTORE PUSH1 0x20 ADD PUSH0 KECCAK256 SLOAD PUSH2 0x1ACB JUMP JUMPDEST PUSH2 0xE0B SWAP2 SWAP1 PUSH2 0x2DDC JUMP JUMPDEST SWAP1 POP SWAP1 JUMP JUMPDEST DUP1 PUSH0 DUP2 SUB PUSH2 0xE55 JUMPI CALLER PUSH1 0x40 MLOAD PUSH32 0xB2F0923100000000000000000000000000000000000000000000000000000000 DUP2 MSTORE PUSH1 0x4 ADD PUSH2 0xE4C SWAP2 SWAP1 PUSH2 0x29FF JUMP JUMPDEST PUSH1 0x40 MLOAD DUP1 SWAP2 SUB SWAP1 REVERT JUMPDEST PUSH32 0x0 PUSH1 0x6 SLOAD DUP3 PUSH2 0xE84 SWAP2 SWAP1 PUSH2 0x2DDC JUMP JUMPDEST GT ISZERO PUSH2 0xEC7 JUMPI DUP1 PUSH1 0x40 MLOAD PUSH32 0x2900B02C00000000000000000000000000000000000000000000000000000000 DUP2 MSTORE PUSH1 0x4 ADD PUSH2 0xEBE SWAP2 SWAP1 PUSH2 0x2C26 JUMP JUMPDEST PUSH1 0x40 MLOAD DUP1 SWAP2 SUB SWAP1 REVERT JUMPDEST PUSH2 0xECF PUSH2 0x1AFA JUMP JUMPDEST PUSH32 0x0 PUSH20 0xFFFFFFFFFFFFFFFFFFFFFFFFFFFFFFFFFFFFFFFF AND PUSH4 0x95EA7B3 ADDRESS DUP5 PUSH1 0x40 MLOAD DUP4 PUSH4 0xFFFFFFFF AND PUSH1 0xE0 SHL DUP2 MSTORE PUSH1 0x4 ADD PUSH2 0xF2A SWAP3 SWAP2 SWAP1 PUSH2 0x2E56 JUMP JUMPDEST PUSH1 0x20 PUSH1 0x40 MLOAD DUP1 DUP4 SUB DUP2 PUSH0 DUP8 GAS CALL ISZERO DUP1 ISZERO PUSH2 0xF46 JUMPI RETURNDATASIZE PUSH0 PUSH0 RETURNDATACOPY RETURNDATASIZE PUSH0 REVERT JUMPDEST POP POP POP POP PUSH1 0x40 MLOAD RETURNDATASIZE PUSH1 0x1F NOT PUSH1 0x1F DUP3 ADD AND DUP3 ADD DUP1 PUSH1 0x40 MSTORE POP DUP2 ADD SWAP1 PUSH2 0xF6A SWAP2 SWAP1 PUSH2 0x2EA7 JUMP JUMPDEST POP PUSH32 0x0 PUSH20 0xFFFFFFFFFFFFFFFFFFFFFFFFFFFFFFFFFFFFFFFF AND PUSH4 0xDD62ED3E CALLER ADDRESS PUSH1 0x40 MLOAD DUP4 PUSH4 0xFFFFFFFF AND PUSH1 0xE0 SHL DUP2 MSTORE PUSH1 0x4 ADD PUSH2 0xFC6 SWAP3 SWAP2 SWAP1 PUSH2 0x2ED2 JUMP JUMPDEST PUSH1 0x20 PUSH1 0x40 MLOAD DUP1 DUP4 SUB DUP2 DUP7 GAS STATICCALL ISZERO DUP1 ISZERO PUSH2 0xFE1 JUMPI RETURNDATASIZE PUSH0 PUSH0 RETURNDATACOPY RETURNDATASIZE PUSH0 REVERT JUMPDEST POP POP POP POP PUSH1 0x40 MLOAD RETURNDATASIZE PUSH1 0x1F NOT PUSH1 0x1F DUP3 ADD AND DUP3 ADD DUP1 PUSH1 0x40 MSTORE POP DUP2 ADD SWAP1 PUSH2 0x1005 SWAP2 SWAP1 PUSH2 0x2F0D JUMP JUMPDEST POP DUP2 PUSH1 0x7 PUSH0 PUSH32 0x0 PUSH20 0xFFFFFFFFFFFFFFFFFFFFFFFFFFFFFFFFFFFFFFFF AND PUSH20 0xFFFFFFFFFFFFFFFFFFFFFFFFFFFFFFFFFFFFFFFF AND DUP2 MSTORE PUSH1 0x20 ADD SWAP1 DUP2 MSTORE PUSH1 0x20 ADD PUSH0 KECCAK256 PUSH0 CALLER PUSH20 0xFFFFFFFFFFFFFFFFFFFFFFFFFFFFFFFFFFFFFFFF AND PUSH20 0xFFFFFFFFFFFFFFFFFFFFFFFFFFFFFFFFFFFFFFFF AND DUP2 MSTORE PUSH1 0x20 ADD SWAP1 DUP2 MSTORE PUSH1 0x20 ADD PUSH0 KECCAK256 PUSH0 DUP3 DUP3 SLOAD PUSH2 0x10AD SWAP2 SWAP1 PUSH2 0x2DDC JUMP JUMPDEST SWAP3 POP POP DUP2 SWAP1 SSTORE POP PUSH1 0x4 PUSH0 DUP2 SLOAD DUP1 SWAP3 SWAP2 SWAP1 PUSH2 0x10C6 SWAP1 PUSH2 0x2E0F JUMP JUMPDEST SWAP2 SWAP1 POP SSTORE POP DUP2 PUSH1 0x6 PUSH0 DUP3 DUP3 SLOAD PUSH2 0x10DC SWAP2 SWAP1 PUSH2 0x2DDC JUMP JUMPDEST SWAP3 POP POP DUP2 SWAP1 SSTORE POP CALLER PUSH20 0xFFFFFFFFFFFFFFFFFFFFFFFFFFFFFFFFFFFFFFFF AND PUSH32 0x9D15693852BF60DC27BD5AA831D0351359B7D01D428AE1BAAE11F15CBCFEBAFD DUP4 PUSH1 0x40 MLOAD PUSH2 0x1129 SWAP2 SWAP1 PUSH2 0x2C26 JUMP JUMPDEST PUSH1 0x40 MLOAD DUP1 SWAP2 SUB SWAP1 LOG2 PUSH2 0x117E CALLER ADDRESS DUP5 PUSH32 0x0 PUSH20 0xFFFFFFFFFFFFFFFFFFFFFFFFFFFFFFFFFFFFFFFF AND PUSH2 0x1E2E SWAP1 SWAP4 SWAP3 SWAP2 SWAP1 PUSH4 0xFFFFFFFF AND JUMP JUMPDEST POP POP JUMP JUMPDEST PUSH1 0x3 PUSH0 SWAP1 SLOAD SWAP1 PUSH2 0x100 EXP SWAP1 DIV PUSH20 0xFFFFFFFFFFFFFFFFFFFFFFFFFFFFFFFFFFFFFFFF AND DUP2 JUMP JUMPDEST PUSH2 0x11AF PUSH2 0x1EB0 JUMP JUMPDEST PUSH2 0x11B8 PUSH0 PUSH2 0x1F37 JUMP JUMPDEST JUMP JUMPDEST PUSH0 PUSH1 0x7 PUSH0 PUSH0 PUSH20 0xFFFFFFFFFFFFFFFFFFFFFFFFFFFFFFFFFFFFFFFF AND PUSH20 0xFFFFFFFFFFFFFFFFFFFFFFFFFFFFFFFFFFFFFFFF AND DUP2 MSTORE PUSH1 0x20 ADD SWAP1 DUP2 MSTORE PUSH1 0x20 ADD PUSH0 KECCAK256 PUSH0 CALLER PUSH20 0xFFFFFFFFFFFFFFFFFFFFFFFFFFFFFFFFFFFFFFFF AND PUSH20 0xFFFFFFFFFFFFFFFFFFFFFFFFFFFFFFFFFFFFFFFF AND DUP2 MSTORE PUSH1 0x20 ADD SWAP1 DUP2 MSTORE PUSH1 0x20 ADD PUSH0 KECCAK256 SLOAD SWAP1 POP SWAP1 JUMP JUMPDEST PUSH32 0x9BBB3EE3BDFBE971682B08854A620CA4BF696F8E0C269E5C5B129A18E64D29DF CALLER PUSH20 0xFFFFFFFFFFFFFFFFFFFFFFFFFFFFFFFFFFFFFFFF AND PUSH2 0x1279 PUSH2 0x16BA JUMP JUMPDEST PUSH20 0xFFFFFFFFFFFFFFFFFFFFFFFFFFFFFFFFFFFFFFFF AND EQ ISZERO DUP1 PUSH2 0x12A3 JUMPI POP PUSH2 0x12A1 DUP2 CALLER PUSH2 0x16E2 JUMP JUMPDEST ISZERO JUMPDEST ISZERO PUSH2 0x12E5 JUMPI CALLER PUSH1 0x40 MLOAD PUSH32 0x6286EAA00000000000000000000000000000000000000000000000000000000 DUP2 MSTORE PUSH1 0x4 ADD PUSH2 0x12DC SWAP2 SWAP1 PUSH2 0x29FF JUMP JUMPDEST PUSH1 0x40 MLOAD DUP1 SWAP2 SUB SWAP1 REVERT JUMPDEST PUSH2 0x12ED PUSH2 0x1D8C JUMP JUMPDEST PUSH0 PUSH20 0xFFFFFFFFFFFFFFFFFFFFFFFFFFFFFFFFFFFFFFFF AND DUP3 PUSH20 0xFFFFFFFFFFFFFFFFFFFFFFFFFFFFFFFFFFFFFFFF AND SUB PUSH2 0x1352 JUMPI PUSH1 0x40 MLOAD PUSH32 0x463858D600000000000000000000000000000000000000000000000000000000 DUP2 MSTORE PUSH1 0x4 ADD PUSH1 0x40 MLOAD DUP1 SWAP2 SUB SWAP1 REVERT JUMPDEST DUP2 PUSH20 0xFFFFFFFFFFFFFFFFFFFFFFFFFFFFFFFFFFFFFFFF AND PUSH4 0xFEAF968C PUSH1 0x40 MLOAD DUP2 PUSH4 0xFFFFFFFF AND PUSH1 0xE0 SHL DUP2 MSTORE PUSH1 0x4 ADD PUSH1 0xA0 PUSH1 0x40 MLOAD DUP1 DUP4 SUB DUP2 DUP7 GAS STATICCALL SWAP3 POP POP POP DUP1 ISZERO PUSH2 0x13BA JUMPI POP PUSH1 0x40 MLOAD RETURNDATASIZE PUSH1 0x1F NOT PUSH1 0x1F DUP3 ADD AND DUP3 ADD DUP1 PUSH1 0x40 MSTORE POP DUP2 ADD SWAP1 PUSH2 0x13B7 SWAP2 SWAP1 PUSH2 0x2FAA JUMP JUMPDEST PUSH1 0x1 JUMPDEST PUSH2 0x13FB JUMPI DUP2 PUSH1 0x40 MLOAD PUSH32 0x59EEA31500000000000000000000000000000000000000000000000000000000 DUP2 MSTORE PUSH1 0x4 ADD PUSH2 0x13F2 SWAP2 SWAP1 PUSH2 0x29FF JUMP JUMPDEST PUSH1 0x40 MLOAD DUP1 SWAP2 SUB SWAP1 REVERT JUMPDEST PUSH0 DUP5 SGT PUSH2 0x143F JUMPI DUP7 PUSH1 0x40 MLOAD PUSH32 0x59EEA31500000000000000000000000000000000000000000000000000000000 DUP2 MSTORE PUSH1 0x4 ADD PUSH2 0x1436 SWAP2 SWAP1 PUSH2 0x29FF JUMP JUMPDEST PUSH1 0x40 MLOAD DUP1 SWAP2 SUB SWAP1 REVERT JUMPDEST PUSH2 0xE10 PUSH2 0xFFFF AND DUP3 TIMESTAMP PUSH2 0x1452 SWAP2 SWAP1 PUSH2 0x3021 JUMP JUMPDEST GT ISZERO PUSH2 0x1495 JUMPI DUP4 PUSH1 0x40 MLOAD PUSH32 0x2609A26500000000000000000000000000000000000000000000000000000000 DUP2 MSTORE PUSH1 0x4 ADD PUSH2 0x148C SWAP2 SWAP1 PUSH2 0x2C26 JUMP JUMPDEST PUSH1 0x40 MLOAD DUP1 SWAP2 SUB SWAP1 REVERT JUMPDEST PUSH0 PUSH1 0x3 PUSH0 SWAP1 SLOAD SWAP1 PUSH2 0x100 EXP SWAP1 DIV PUSH20 0xFFFFFFFFFFFFFFFFFFFFFFFFFFFFFFFFFFFFFFFF AND SWAP1 POP DUP8 PUSH1 0x3 PUSH0 PUSH2 0x100 EXP DUP2 SLOAD DUP2 PUSH20 0xFFFFFFFFFFFFFFFFFFFFFFFFFFFFFFFFFFFFFFFF MUL NOT AND SWAP1 DUP4 PUSH20 0xFFFFFFFFFFFFFFFFFFFFFFFFFFFFFFFFFFFFFFFF AND MUL OR SWAP1 SSTORE POP DUP8 PUSH20 0xFFFFFFFFFFFFFFFFFFFFFFFFFFFFFFFFFFFFFFFF AND DUP2 PUSH20 0xFFFFFFFFFFFFFFFFFFFFFFFFFFFFFFFFFFFFFFFF AND PUSH32 0x3028D95BD98A5EC8C81B55C2B61E734DDE89BB773697B429BD195FD00582B30 PUSH1 0x40 MLOAD PUSH1 0x40 MLOAD DUP1 SWAP2 SUB SWAP1 LOG3 POP POP POP POP POP POP POP POP JUMP JUMPDEST PUSH2 0x1566 PUSH2 0x1AFA JUMP JUMPDEST PUSH2 0x156F DUP2 PUSH2 0x1FFA JUMP JUMPDEST POP JUMP JUMPDEST PUSH2 0x157A PUSH2 0x1EB0 JUMP JUMPDEST PUSH2 0x1582 PUSH2 0x1D8C JUMP JUMPDEST PUSH0 PUSH2 0x158B PUSH2 0x16BA JUMP JUMPDEST SWAP1 POP PUSH2 0x1599 PUSH0 PUSH0 SHL DUP3 PUSH2 0x1CA2 JUMP JUMPDEST POP PUSH2 0x15C4 PUSH32 0x539440820030C4994DB4E31B6B800DEAFD503688728F932ADDFE7A410515C14C DUP3 PUSH2 0x1CA2 JUMP JUMPDEST POP PUSH2 0x15EF PUSH32 0x9BBB3EE3BDFBE971682B08854A620CA4BF696F8E0C269E5C5B129A18E64D29DF DUP3 PUSH2 0x1CA2 JUMP JUMPDEST POP PUSH2 0x15F9 DUP3 PUSH2 0x1F37 JUMP JUMPDEST PUSH2 0x1605 PUSH0 PUSH0 SHL DUP4 PUSH2 0x1BB1 JUMP JUMPDEST POP PUSH2 0x1630 PUSH32 0x9BBB3EE3BDFBE971682B08854A620CA4BF696F8E0C269E5C5B129A18E64D29DF DUP4 PUSH2 0x1BB1 JUMP JUMPDEST POP PUSH2 0x165B PUSH32 0x539440820030C4994DB4E31B6B800DEAFD503688728F932ADDFE7A410515C14C DUP4 PUSH2 0x1BB1 JUMP JUMPDEST POP DUP2 PUSH20 0xFFFFFFFFFFFFFFFFFFFFFFFFFFFFFFFFFFFFFFFF AND DUP2 PUSH20 0xFFFFFFFFFFFFFFFFFFFFFFFFFFFFFFFFFFFFFFFF AND PUSH32 0x2ED8931CD5C0D36856A21C6245BF2E305F989A55C31BE2B6CB7EC0A4DA43C319 PUSH1 0x40 MLOAD PUSH1 0x40 MLOAD DUP1 SWAP2 SUB SWAP1 LOG3 POP POP JUMP JUMPDEST PUSH0 PUSH1 0x1 PUSH0 SWAP1 SLOAD SWAP1 PUSH2 0x100 EXP SWAP1 DIV PUSH20 0xFFFFFFFFFFFFFFFFFFFFFFFFFFFFFFFFFFFFFFFF AND SWAP1 POP SWAP1 JUMP JUMPDEST PUSH0 PUSH1 0x2 PUSH0 DUP5 DUP2 MSTORE PUSH1 0x20 ADD SWAP1 DUP2 MSTORE PUSH1 0x20 ADD PUSH0 KECCAK256 PUSH0 ADD PUSH0 DUP4 PUSH20 0xFFFFFFFFFFFFFFFFFFFFFFFFFFFFFFFFFFFFFFFF AND PUSH20 0xFFFFFFFFFFFFFFFFFFFFFFFFFFFFFFFFFFFFFFFF AND DUP2 MSTORE PUSH1 0x20 ADD SWAP1 DUP2 MSTORE PUSH1 0x20 ADD PUSH0 KECCAK256 PUSH0 SWAP1 SLOAD SWAP1 PUSH2 0x100 EXP SWAP1 DIV PUSH1 0xFF AND SWAP1 POP SWAP3 SWAP2 POP POP JUMP JUMPDEST PUSH2 0x174E PUSH2 0x1AFA JUMP JUMPDEST PUSH2 0x1757 DUP2 PUSH2 0x2349 JUMP JUMPDEST POP JUMP JUMPDEST PUSH0 PUSH1 0x6 SLOAD SWAP1 POP SWAP1 JUMP JUMPDEST PUSH0 PUSH1 0x7 PUSH0 PUSH32 0x0 PUSH20 0xFFFFFFFFFFFFFFFFFFFFFFFFFFFFFFFFFFFFFFFF AND PUSH20 0xFFFFFFFFFFFFFFFFFFFFFFFFFFFFFFFFFFFFFFFF AND DUP2 MSTORE PUSH1 0x20 ADD SWAP1 DUP2 MSTORE PUSH1 0x20 ADD PUSH0 KECCAK256 PUSH0 CALLER PUSH20 0xFFFFFFFFFFFFFFFFFFFFFFFFFFFFFFFFFFFFFFFF AND PUSH20 0xFFFFFFFFFFFFFFFFFFFFFFFFFFFFFFFFFFFFFFFF AND DUP2 MSTORE PUSH1 0x20 ADD SWAP1 DUP2 MSTORE PUSH1 0x20 ADD PUSH0 KECCAK256 SLOAD SWAP1 POP SWAP1 JUMP JUMPDEST PUSH0 PUSH0 SHL DUP2 JUMP JUMPDEST PUSH0 PUSH1 0x5 SLOAD SWAP1 POP SWAP1 JUMP JUMPDEST PUSH32 0x9BBB3EE3BDFBE971682B08854A620CA4BF696F8E0C269E5C5B129A18E64D29DF DUP2 JUMP JUMPDEST PUSH2 0x183D PUSH2 0x1EB0 JUMP JUMPDEST PUSH2 0x1847 DUP2 DUP4 PUSH2 0xB26 JUMP JUMPDEST DUP2 PUSH20 0xFFFFFFFFFFFFFFFFFFFFFFFFFFFFFFFFFFFFFFFF AND PUSH32 0x56A39044E0E7AD5C8DB0ABDB4925F3D610D0F66AB2D22536712AFD06E6AA6032 DUP3 PUSH1 0x40 MLOAD PUSH2 0x188D SWAP2 SWAP1 PUSH2 0x2BA5 JUMP JUMPDEST PUSH1 0x40 MLOAD DUP1 SWAP2 SUB SWAP1 LOG2 POP POP JUMP JUMPDEST PUSH2 0x18A2 DUP3 PUSH2 0xB09 JUMP JUMPDEST PUSH2 0x18AB DUP2 PUSH2 0x1B9D JUMP JUMPDEST PUSH2 0x18B5 DUP4 DUP4 PUSH2 0x1CA2 JUMP JUMPDEST POP POP POP POP JUMP JUMPDEST PUSH32 0x539440820030C4994DB4E31B6B800DEAFD503688728F932ADDFE7A410515C14C DUP2 JUMP JUMPDEST PUSH2 0x18E7 PUSH2 0x1EB0 JUMP JUMPDEST PUSH2 0x18F1 DUP2 DUP4 PUSH2 0x1899 JUMP JUMPDEST DUP2 PUSH20 0xFFFFFFFFFFFFFFFFFFFFFFFFFFFFFFFFFFFFFFFF AND PUSH32 0x2A235E73FBDF449DB29391F00A41FD53E24C96816320A25A710415E2C05370F0 DUP3 PUSH1 0x40 MLOAD PUSH2 0x1937 SWAP2 SWAP1 PUSH2 0x2BA5 JUMP JUMPDEST PUSH1 0x40 MLOAD DUP1 SWAP2 SUB SWAP1 LOG2 POP POP JUMP JUMPDEST PUSH2 0x194B PUSH2 0x1EB0 JUMP JUMPDEST PUSH0 PUSH20 0xFFFFFFFFFFFFFFFFFFFFFFFFFFFFFFFFFFFFFFFF AND DUP2 PUSH20 0xFFFFFFFFFFFFFFFFFFFFFFFFFFFFFFFFFFFFFFFF AND SUB PUSH2 0x19BB JUMPI PUSH0 PUSH1 0x40 MLOAD PUSH32 0x1E4FBDF700000000000000000000000000000000000000000000000000000000 DUP2 MSTORE PUSH1 0x4 ADD PUSH2 0x19B2 SWAP2 SWAP1 PUSH2 0x29FF JUMP JUMPDEST PUSH1 0x40 MLOAD DUP1 SWAP2 SUB SWAP1 REVERT JUMPDEST PUSH2 0x19C4 DUP2 PUSH2 0x1F37 JUMP JUMPDEST POP JUMP JUMPDEST PUSH0 PUSH1 0x4 SLOAD SWAP1 POP SWAP1 JUMP JUMPDEST PUSH0 PUSH1 0x7 PUSH0 DUP4 PUSH20 0xFFFFFFFFFFFFFFFFFFFFFFFFFFFFFFFFFFFFFFFF AND PUSH20 0xFFFFFFFFFFFFFFFFFFFFFFFFFFFFFFFFFFFFFFFF AND DUP2 MSTORE PUSH1 0x20 ADD SWAP1 DUP2 MSTORE PUSH1 0x20 ADD PUSH0 KECCAK256 PUSH0 DUP5 PUSH20 0xFFFFFFFFFFFFFFFFFFFFFFFFFFFFFFFFFFFFFFFF AND PUSH20 0xFFFFFFFFFFFFFFFFFFFFFFFFFFFFFFFFFFFFFFFF AND DUP2 MSTORE PUSH1 0x20 ADD SWAP1 DUP2 MSTORE PUSH1 0x20 ADD PUSH0 KECCAK256 SLOAD SWAP1 POP SWAP3 SWAP2 POP POP JUMP JUMPDEST PUSH0 PUSH32 0x7965DB0B00000000000000000000000000000000000000000000000000000000 PUSH28 0xFFFFFFFFFFFFFFFFFFFFFFFFFFFFFFFFFFFFFFFFFFFFFFFFFFFFFFFF NOT AND DUP3 PUSH28 0xFFFFFFFFFFFFFFFFFFFFFFFFFFFFFFFFFFFFFFFFFFFFFFFFFFFFFFFF NOT AND EQ DUP1 PUSH2 0x1AC4 JUMPI POP PUSH2 0x1AC3 DUP3 PUSH2 0x265C JUMP JUMPDEST JUMPDEST SWAP1 POP SWAP2 SWAP1 POP JUMP JUMPDEST PUSH0 PUSH9 0x56BC75E2D63100000 PUSH2 0x1ADE PUSH2 0x26C5 JUMP JUMPDEST DUP4 PUSH2 0x1AE9 SWAP2 SWAP1 PUSH2 0x3054 JUMP JUMPDEST PUSH2 0x1AF3 SWAP2 SWAP1 PUSH2 0x30C2 JUMP JUMPDEST SWAP1 POP SWAP2 SWAP1 POP JUMP JUMPDEST PUSH2 0x1B02 PUSH2 0xCD0 JUMP JUMPDEST ISZERO PUSH2 0x1B39 JUMPI PUSH1 0x40 MLOAD PUSH32 0xD93C066500000000000000000000000000000000000000000000000000000000 DUP2 MSTORE PUSH1 0x4 ADD PUSH1 0x40 MLOAD DUP1 SWAP2 SUB SWAP1 REVERT JUMPDEST JUMP JUMPDEST PUSH2 0x1B43 PUSH2 0x1AFA JUMP JUMPDEST PUSH1 0x1 DUP1 PUSH1 0x14 PUSH2 0x100 EXP DUP2 SLOAD DUP2 PUSH1 0xFF MUL NOT AND SWAP1 DUP4 ISZERO ISZERO MUL OR SWAP1 SSTORE POP PUSH32 0x62E78CEA01BEE320CD4E420270B5EA74000D11B0C9F74754EBDBFC544B05A258 PUSH2 0x1B86 PUSH2 0x1C9B JUMP JUMPDEST PUSH1 0x40 MLOAD PUSH2 0x1B93 SWAP2 SWAP1 PUSH2 0x29FF JUMP JUMPDEST PUSH1 0x40 MLOAD DUP1 SWAP2 SUB SWAP1 LOG1 JUMP JUMPDEST PUSH2 0x1BAE DUP2 PUSH2 0x1BA9 PUSH2 0x1C9B JUMP JUMPDEST PUSH2 0x27FF JUMP JUMPDEST POP JUMP JUMPDEST PUSH0 PUSH2 0x1BBC DUP4 DUP4 PUSH2 0x16E2 JUMP JUMPDEST PUSH2 0x1C91 JUMPI PUSH1 0x1 PUSH1 0x2 PUSH0 DUP6 DUP2 MSTORE PUSH1 0x20 ADD SWAP1 DUP2 MSTORE PUSH1 0x20 ADD PUSH0 KECCAK256 PUSH0 ADD PUSH0 DUP5 PUSH20 0xFFFFFFFFFFFFFFFFFFFFFFFFFFFFFFFFFFFFFFFF AND PUSH20 0xFFFFFFFFFFFFFFFFFFFFFFFFFFFFFFFFFFFFFFFF AND DUP2 MSTORE PUSH1 0x20 ADD SWAP1 DUP2 MSTORE PUSH1 0x20 ADD PUSH0 KECCAK256 PUSH0 PUSH2 0x100 EXP DUP2 SLOAD DUP2 PUSH1 0xFF MUL NOT AND SWAP1 DUP4 ISZERO ISZERO MUL OR SWAP1 SSTORE POP PUSH2 0x1C2E PUSH2 0x1C9B JUMP JUMPDEST PUSH20 0xFFFFFFFFFFFFFFFFFFFFFFFFFFFFFFFFFFFFFFFF AND DUP3 PUSH20 0xFFFFFFFFFFFFFFFFFFFFFFFFFFFFFFFFFFFFFFFF AND DUP5 PUSH32 0x2F8788117E7EFF1D82E926EC794901D17C78024A50270940304540A733656F0D PUSH1 0x40 MLOAD PUSH1 0x40 MLOAD DUP1 SWAP2 SUB SWAP1 LOG4 PUSH1 0x1 SWAP1 POP PUSH2 0x1C95 JUMP JUMPDEST PUSH0 SWAP1 POP JUMPDEST SWAP3 SWAP2 POP POP JUMP JUMPDEST PUSH0 CALLER SWAP1 POP SWAP1 JUMP JUMPDEST PUSH0 PUSH2 0x1CAD DUP4 DUP4 PUSH2 0x16E2 JUMP JUMPDEST ISZERO PUSH2 0x1D82 JUMPI PUSH0 PUSH1 0x2 PUSH0 DUP6 DUP2 MSTORE PUSH1 0x20 ADD SWAP1 DUP2 MSTORE PUSH1 0x20 ADD PUSH0 KECCAK256 PUSH0 ADD PUSH0 DUP5 PUSH20 0xFFFFFFFFFFFFFFFFFFFFFFFFFFFFFFFFFFFFFFFF AND PUSH20 0xFFFFFFFFFFFFFFFFFFFFFFFFFFFFFFFFFFFFFFFF AND DUP2 MSTORE PUSH1 0x20 ADD SWAP1 DUP2 MSTORE PUSH1 0x20 ADD PUSH0 KECCAK256 PUSH0 PUSH2 0x100 EXP DUP2 SLOAD DUP2 PUSH1 0xFF MUL NOT AND SWAP1 DUP4 ISZERO ISZERO MUL OR SWAP1 SSTORE POP PUSH2 0x1D1F PUSH2 0x1C9B JUMP JUMPDEST PUSH20 0xFFFFFFFFFFFFFFFFFFFFFFFFFFFFFFFFFFFFFFFF AND DUP3 PUSH20 0xFFFFFFFFFFFFFFFFFFFFFFFFFFFFFFFFFFFFFFFF AND DUP5 PUSH32 0xF6391F5C32D9C69D2A47EA670B442974B53935D1EDC7FD64EB21E047A839171B PUSH1 0x40 MLOAD PUSH1 0x40 MLOAD DUP1 SWAP2 SUB SWAP1 LOG4 PUSH1 0x1 SWAP1 POP PUSH2 0x1D86 JUMP JUMPDEST PUSH0 SWAP1 POP JUMPDEST SWAP3 SWAP2 POP POP JUMP JUMPDEST PUSH2 0x1D94 PUSH2 0xCD0 JUMP JUMPDEST PUSH2 0x1DCA JUMPI PUSH1 0x40 MLOAD PUSH32 0x8DFC202B00000000000000000000000000000000000000000000000000000000 DUP2 MSTORE PUSH1 0x4 ADD PUSH1 0x40 MLOAD DUP1 SWAP2 SUB SWAP1 REVERT JUMPDEST JUMP JUMPDEST PUSH2 0x1DD4 PUSH2 0x1D8C JUMP JUMPDEST PUSH0 PUSH1 0x1 PUSH1 0x14 PUSH2 0x100 EXP DUP2 SLOAD DUP2 PUSH1 0xFF MUL NOT AND SWAP1 DUP4 ISZERO ISZERO MUL OR SWAP1 SSTORE POP PUSH32 0x5DB9EE0A495BF2E6FF9C91A7834C1BA4FDD244A5E8AA4E537BD38AEAE4B073AA PUSH2 0x1E17 PUSH2 0x1C9B JUMP JUMPDEST PUSH1 0x40 MLOAD PUSH2 0x1E24 SWAP2 SWAP1 PUSH2 0x29FF JUMP JUMPDEST PUSH1 0x40 MLOAD DUP1 SWAP2 SUB SWAP1 LOG1 JUMP JUMPDEST PUSH2 0x1EAA DUP5 DUP6 PUSH20 0xFFFFFFFFFFFFFFFFFFFFFFFFFFFFFFFFFFFFFFFF AND PUSH4 0x23B872DD DUP7 DUP7 DUP7 PUSH1 0x40 MLOAD PUSH1 0x24 ADD PUSH2 0x1E63 SWAP4 SWAP3 SWAP2 SWAP1 PUSH2 0x30F2 JUMP JUMPDEST PUSH1 0x40 MLOAD PUSH1 0x20 DUP2 DUP4 SUB SUB DUP2 MSTORE SWAP1 PUSH1 0x40 MSTORE SWAP2 POP PUSH1 0xE0 SHL PUSH1 0x20 DUP3 ADD DUP1 MLOAD PUSH28 0xFFFFFFFFFFFFFFFFFFFFFFFFFFFFFFFFFFFFFFFFFFFFFFFFFFFFFFFF DUP4 DUP2 DUP4 AND OR DUP4 MSTORE POP POP POP POP PUSH2 0x2850 JUMP JUMPDEST POP POP POP POP JUMP JUMPDEST PUSH2 0x1EB8 PUSH2 0x1C9B JUMP JUMPDEST PUSH20 0xFFFFFFFFFFFFFFFFFFFFFFFFFFFFFFFFFFFFFFFF AND PUSH2 0x1ED6 PUSH2 0x16BA JUMP JUMPDEST PUSH20 0xFFFFFFFFFFFFFFFFFFFFFFFFFFFFFFFFFFFFFFFF AND EQ PUSH2 0x1F35 JUMPI PUSH2 0x1EF9 PUSH2 0x1C9B JUMP JUMPDEST PUSH1 0x40 MLOAD PUSH32 0x118CDAA700000000000000000000000000000000000000000000000000000000 DUP2 MSTORE PUSH1 0x4 ADD PUSH2 0x1F2C SWAP2 SWAP1 PUSH2 0x29FF JUMP JUMPDEST PUSH1 0x40 MLOAD DUP1 SWAP2 SUB SWAP1 REVERT JUMPDEST JUMP JUMPDEST PUSH0 PUSH1 0x1 PUSH0 SWAP1 SLOAD SWAP1 PUSH2 0x100 EXP SWAP1 DIV PUSH20 0xFFFFFFFFFFFFFFFFFFFFFFFFFFFFFFFFFFFFFFFF AND SWAP1 POP DUP2 PUSH1 0x1 PUSH0 PUSH2 0x100 EXP DUP2 SLOAD DUP2 PUSH20 0xFFFFFFFFFFFFFFFFFFFFFFFFFFFFFFFFFFFFFFFF MUL NOT AND SWAP1 DUP4 PUSH20 0xFFFFFFFFFFFFFFFFFFFFFFFFFFFFFFFFFFFFFFFF AND MUL OR SWAP1 SSTORE POP DUP2 PUSH20 0xFFFFFFFFFFFFFFFFFFFFFFFFFFFFFFFFFFFFFFFF AND DUP2 PUSH20 0xFFFFFFFFFFFFFFFFFFFFFFFFFFFFFFFFFFFFFFFF AND PUSH32 0x8BE0079C531659141344CD1FD0A4F28419497F9722A3DAAFE3B4186F6B6457E0 PUSH1 0x40 MLOAD PUSH1 0x40 MLOAD DUP1 SWAP2 SUB SWAP1 LOG3 POP POP JUMP JUMPDEST PUSH2 0x2002 PUSH2 0x28EB JUMP JUMPDEST DUP1 PUSH0 PUSH2 0x200D DUP3 PUSH2 0x1ACB JUMP JUMPDEST SWAP1 POP PUSH0 DUP2 SUB PUSH2 0x2053 JUMPI CALLER PUSH1 0x40 MLOAD PUSH32 0xB2F0923100000000000000000000000000000000000000000000000000000000 DUP2 MSTORE PUSH1 0x4 ADD PUSH2 0x204A SWAP2 SWAP1 PUSH2 0x29FF JUMP JUMPDEST PUSH1 0x40 MLOAD DUP1 SWAP2 SUB SWAP1 REVERT JUMPDEST PUSH32 0x0 DUP2 GT ISZERO PUSH2 0x20B8 JUMPI DUP1 PUSH1 0x40 MLOAD PUSH32 0xC399356500000000000000000000000000000000000000000000000000000000 DUP2 MSTORE PUSH1 0x4 ADD PUSH2 0x20AF SWAP2 SWAP1 PUSH2 0x2C26 JUMP JUMPDEST PUSH1 0x40 MLOAD DUP1 SWAP2 SUB SWAP1 REVERT JUMPDEST PUSH1 0x7 PUSH0 PUSH0 PUSH20 0xFFFFFFFFFFFFFFFFFFFFFFFFFFFFFFFFFFFFFFFF AND PUSH20 0xFFFFFFFFFFFFFFFFFFFFFFFFFFFFFFFFFFFFFFFF AND DUP2 MSTORE PUSH1 0x20 ADD SWAP1 DUP2 MSTORE PUSH1 0x20 ADD PUSH0 KECCAK256 PUSH0 CALLER PUSH20 0xFFFFFFFFFFFFFFFFFFFFFFFFFFFFFFFFFFFFFFFF AND PUSH20 0xFFFFFFFFFFFFFFFFFFFFFFFFFFFFFFFFFFFFFFFF AND DUP2 MSTORE PUSH1 0x20 ADD SWAP1 DUP2 MSTORE PUSH1 0x20 ADD PUSH0 KECCAK256 SLOAD DUP3 GT ISZERO PUSH2 0x2177 JUMPI CALLER DUP2 PUSH1 0x40 MLOAD PUSH32 0x51A7314200000000000000000000000000000000000000000000000000000000 DUP2 MSTORE PUSH1 0x4 ADD PUSH2 0x216E SWAP3 SWAP2 SWAP1 PUSH2 0x2E56 JUMP JUMPDEST PUSH1 0x40 MLOAD DUP1 SWAP2 SUB SWAP1 REVERT JUMPDEST PUSH0 PUSH2 0x2181 DUP5 PUSH2 0x1ACB JUMP JUMPDEST SWAP1 POP DUP4 PUSH1 0x7 PUSH0 PUSH0 PUSH20 0xFFFFFFFFFFFFFFFFFFFFFFFFFFFFFFFFFFFFFFFF AND PUSH20 0xFFFFFFFFFFFFFFFFFFFFFFFFFFFFFFFFFFFFFFFF AND DUP2 MSTORE PUSH1 0x20 ADD SWAP1 DUP2 MSTORE PUSH1 0x20 ADD PUSH0 KECCAK256 PUSH0 CALLER PUSH20 0xFFFFFFFFFFFFFFFFFFFFFFFFFFFFFFFFFFFFFFFF AND PUSH20 0xFFFFFFFFFFFFFFFFFFFFFFFFFFFFFFFFFFFFFFFF AND DUP2 MSTORE PUSH1 0x20 ADD SWAP1 DUP2 MSTORE PUSH1 0x20 ADD PUSH0 KECCAK256 PUSH0 DUP3 DUP3 SLOAD PUSH2 0x220A SWAP2 SWAP1 PUSH2 0x3021 JUMP JUMPDEST SWAP3 POP POP DUP2 SWAP1 SSTORE POP PUSH1 0x5 PUSH0 DUP2 SLOAD DUP1 SWAP3 SWAP2 SWAP1 PUSH2 0x2223 SWAP1 PUSH2 0x2E0F JUMP JUMPDEST SWAP2 SWAP1 POP SSTORE POP DUP1 PUSH1 0x6 PUSH0 DUP3 DUP3 SLOAD PUSH2 0x2239 SWAP2 SWAP1 PUSH2 0x3021 JUMP JUMPDEST SWAP3 POP POP DUP2 SWAP1 SSTORE POP CALLER PUSH20 0xFFFFFFFFFFFFFFFFFFFFFFFFFFFFFFFFFFFFFFFF AND PUSH32 0x9CDE449504E4972FFDDEC09813E0C252A1462D76BEF1864B9E7520DADB7183E8 DUP3 PUSH1 0x40 MLOAD PUSH2 0x2286 SWAP2 SWAP1 PUSH2 0x2C26 JUMP JUMPDEST PUSH1 0x40 MLOAD DUP1 SWAP2 SUB SWAP1 LOG2 PUSH0 CALLER PUSH20 0xFFFFFFFFFFFFFFFFFFFFFFFFFFFFFFFFFFFFFFFF AND DUP6 PUSH1 0x40 MLOAD PUSH2 0x22B3 SWAP1 PUSH2 0x3154 JUMP JUMPDEST PUSH0 PUSH1 0x40 MLOAD DUP1 DUP4 SUB DUP2 DUP6 DUP8 GAS CALL SWAP3 POP POP POP RETURNDATASIZE DUP1 PUSH0 DUP2 EQ PUSH2 0x22ED JUMPI PUSH1 0x40 MLOAD SWAP2 POP PUSH1 0x1F NOT PUSH1 0x3F RETURNDATASIZE ADD AND DUP3 ADD PUSH1 0x40 MSTORE RETURNDATASIZE DUP3 MSTORE RETURNDATASIZE PUSH0 PUSH1 0x20 DUP5 ADD RETURNDATACOPY PUSH2 0x22F2 JUMP JUMPDEST PUSH1 0x60 SWAP2 POP JUMPDEST POP POP SWAP1 POP DUP1 PUSH2 0x233A JUMPI CALLER DUP6 PUSH1 0x40 MLOAD PUSH32 0x6C5E1A1400000000000000000000000000000000000000000000000000000000 DUP2 MSTORE PUSH1 0x4 ADD PUSH2 0x2331 SWAP3 SWAP2 SWAP1 PUSH2 0x2E56 JUMP JUMPDEST PUSH1 0x40 MLOAD DUP1 SWAP2 SUB SWAP1 REVERT JUMPDEST POP POP POP POP PUSH2 0x2346 PUSH2 0x2938 JUMP JUMPDEST POP JUMP JUMPDEST PUSH2 0x2351 PUSH2 0x28EB JUMP JUMPDEST DUP1 PUSH0 DUP2 SUB PUSH2 0x2396 JUMPI CALLER PUSH1 0x40 MLOAD PUSH32 0xB2F0923100000000000000000000000000000000000000000000000000000000 DUP2 MSTORE PUSH1 0x4 ADD PUSH2 0x238D SWAP2 SWAP1 PUSH2 0x29FF JUMP JUMPDEST PUSH1 0x40 MLOAD DUP1 SWAP2 SUB SWAP1 REVERT JUMPDEST PUSH32 0x0 DUP2 GT ISZERO PUSH2 0x23FB JUMPI DUP1 PUSH1 0x40 MLOAD PUSH32 0xC399356500000000000000000000000000000000000000000000000000000000 DUP2 MSTORE PUSH1 0x4 ADD PUSH2 0x23F2 SWAP2 SWAP1 PUSH2 0x2C26 JUMP JUMPDEST PUSH1 0x40 MLOAD DUP1 SWAP2 SUB SWAP1 REVERT JUMPDEST PUSH1 0x7 PUSH0 PUSH32 0x0 PUSH20 0xFFFFFFFFFFFFFFFFFFFFFFFFFFFFFFFFFFFFFFFF AND PUSH20 0xFFFFFFFFFFFFFFFFFFFFFFFFFFFFFFFFFFFFFFFF AND DUP2 MSTORE PUSH1 0x20 ADD SWAP1 DUP2 MSTORE PUSH1 0x20 ADD PUSH0 KECCAK256 PUSH0 CALLER PUSH20 0xFFFFFFFFFFFFFFFFFFFFFFFFFFFFFFFFFFFFFFFF AND PUSH20 0xFFFFFFFFFFFFFFFFFFFFFFFFFFFFFFFFFFFFFFFF AND DUP2 MSTORE PUSH1 0x20 ADD SWAP1 DUP2 MSTORE PUSH1 0x20 ADD PUSH0 KECCAK256 SLOAD DUP2 GT ISZERO PUSH2 0x24DA JUMPI CALLER DUP2 PUSH1 0x40 MLOAD PUSH32 0x51A7314200000000000000000000000000000000000000000000000000000000 DUP2 MSTORE PUSH1 0x4 ADD PUSH2 0x24D1 SWAP3 SWAP2 SWAP1 PUSH2 0x2E56 JUMP JUMPDEST PUSH1 0x40 MLOAD DUP1 SWAP2 SUB SWAP1 REVERT JUMPDEST DUP2 PUSH1 0x7 PUSH0 PUSH32 0x0 PUSH20 0xFFFFFFFFFFFFFFFFFFFFFFFFFFFFFFFFFFFFFFFF AND PUSH20 0xFFFFFFFFFFFFFFFFFFFFFFFFFFFFFFFFFFFFFFFF AND DUP2 MSTORE PUSH1 0x20 ADD SWAP1 DUP2 MSTORE PUSH1 0x20 ADD PUSH0 KECCAK256 PUSH0 CALLER PUSH20 0xFFFFFFFFFFFFFFFFFFFFFFFFFFFFFFFFFFFFFFFF AND PUSH20 0xFFFFFFFFFFFFFFFFFFFFFFFFFFFFFFFFFFFFFFFF AND DUP2 MSTORE PUSH1 0x20 ADD SWAP1 DUP2 MSTORE PUSH1 0x20 ADD PUSH0 KECCAK256 PUSH0 DUP3 DUP3 SLOAD PUSH2 0x2581 SWAP2 SWAP1 PUSH2 0x3021 JUMP JUMPDEST SWAP3 POP POP DUP2 SWAP1 SSTORE POP PUSH1 0x5 PUSH0 DUP2 SLOAD DUP1 SWAP3 SWAP2 SWAP1 PUSH2 0x259A SWAP1 PUSH2 0x2E0F JUMP JUMPDEST SWAP2 SWAP1 POP SSTORE POP DUP2 PUSH1 0x6 PUSH0 DUP3 DUP3 SLOAD PUSH2 0x25B0 SWAP2 SWAP1 PUSH2 0x3021 JUMP JUMPDEST SWAP3 POP POP DUP2 SWAP1 SSTORE POP CALLER PUSH20 0xFFFFFFFFFFFFFFFFFFFFFFFFFFFFFFFFFFFFFFFF AND PUSH32 0x9CDE449504E4972FFDDEC09813E0C252A1462D76BEF1864B9E7520DADB7183E8 DUP4 PUSH1 0x40 MLOAD PUSH2 0x25FD SWAP2 SWAP1 PUSH2 0x2C26 JUMP JUMPDEST PUSH1 0x40 MLOAD DUP1 SWAP2 SUB SWAP1 LOG2 PUSH2 0x2650 CALLER DUP4 PUSH32 0x0 PUSH20 0xFFFFFFFFFFFFFFFFFFFFFFFFFFFFFFFFFFFFFFFF AND PUSH2 0x2941 SWAP1 SWAP3 SWAP2 SWAP1 PUSH4 0xFFFFFFFF AND JUMP JUMPDEST POP PUSH2 0x2659 PUSH2 0x2938 JUMP JUMPDEST POP JUMP JUMPDEST PUSH0 PUSH32 0x1FFC9A700000000000000000000000000000000000000000000000000000000 PUSH28 0xFFFFFFFFFFFFFFFFFFFFFFFFFFFFFFFFFFFFFFFFFFFFFFFFFFFFFFFF NOT AND DUP3 PUSH28 0xFFFFFFFFFFFFFFFFFFFFFFFFFFFFFFFFFFFFFFFFFFFFFFFFFFFFFFFF NOT AND EQ SWAP1 POP SWAP2 SWAP1 POP JUMP JUMPDEST PUSH0 PUSH0 PUSH0 PUSH1 0x3 PUSH0 SWAP1 SLOAD SWAP1 PUSH2 0x100 EXP SWAP1 DIV PUSH20 0xFFFFFFFFFFFFFFFFFFFFFFFFFFFFFFFFFFFFFFFF AND PUSH20 0xFFFFFFFFFFFFFFFFFFFFFFFFFFFFFFFFFFFFFFFF AND PUSH4 0xFEAF968C PUSH1 0x40 MLOAD DUP2 PUSH4 0xFFFFFFFF AND PUSH1 0xE0 SHL DUP2 MSTORE PUSH1 0x4 ADD PUSH1 0xA0 PUSH1 0x40 MLOAD DUP1 DUP4 SUB DUP2 DUP7 GAS STATICCALL ISZERO DUP1 ISZERO PUSH2 0x2732 JUMPI RETURNDATASIZE PUSH0 PUSH0 RETURNDATACOPY RETURNDATASIZE PUSH0 REVERT JUMPDEST POP POP POP POP PUSH1 0x40 MLOAD RETURNDATASIZE PUSH1 0x1F NOT PUSH1 0x1F DUP3 ADD AND DUP3 ADD DUP1 PUSH1 0x40 MSTORE POP DUP2 ADD SWAP1 PUSH2 0x2756 SWAP2 SWAP1 PUSH2 0x2FAA JUMP JUMPDEST POP SWAP4 POP POP SWAP3 POP POP PUSH0 DUP3 SGT PUSH2 0x27A1 JUMPI DUP2 PUSH1 0x40 MLOAD PUSH32 0x3654402900000000000000000000000000000000000000000000000000000000 DUP2 MSTORE PUSH1 0x4 ADD PUSH2 0x2798 SWAP2 SWAP1 PUSH2 0x2C26 JUMP JUMPDEST PUSH1 0x40 MLOAD DUP1 SWAP2 SUB SWAP1 REVERT JUMPDEST PUSH2 0xE10 PUSH2 0xFFFF AND DUP2 TIMESTAMP PUSH2 0x27B4 SWAP2 SWAP1 PUSH2 0x3021 JUMP JUMPDEST GT ISZERO PUSH2 0x27F7 JUMPI DUP2 PUSH1 0x40 MLOAD PUSH32 0x2609A26500000000000000000000000000000000000000000000000000000000 DUP2 MSTORE PUSH1 0x4 ADD PUSH2 0x27EE SWAP2 SWAP1 PUSH2 0x2C26 JUMP JUMPDEST PUSH1 0x40 MLOAD DUP1 SWAP2 SUB SWAP1 REVERT JUMPDEST DUP2 SWAP3 POP POP POP SWAP1 JUMP JUMPDEST PUSH2 0x2809 DUP3 DUP3 PUSH2 0x16E2 JUMP JUMPDEST PUSH2 0x284C JUMPI DUP1 DUP3 PUSH1 0x40 MLOAD PUSH32 0xE2517D3F00000000000000000000000000000000000000000000000000000000 DUP2 MSTORE PUSH1 0x4 ADD PUSH2 0x2843 SWAP3 SWAP2 SWAP1 PUSH2 0x3168 JUMP JUMPDEST PUSH1 0x40 MLOAD DUP1 SWAP2 SUB SWAP1 REVERT JUMPDEST POP POP JUMP JUMPDEST PUSH0 PUSH0 PUSH1 0x20 PUSH0 DUP5 MLOAD PUSH1 0x20 DUP7 ADD PUSH0 DUP9 GAS CALL DUP1 PUSH2 0x286F JUMPI PUSH1 0x40 MLOAD RETURNDATASIZE PUSH0 DUP3 RETURNDATACOPY RETURNDATASIZE DUP2 REVERT JUMPDEST RETURNDATASIZE SWAP3 POP PUSH0 MLOAD SWAP2 POP POP PUSH0 DUP3 EQ PUSH2 0x2888 JUMPI PUSH1 0x1 DUP2 EQ ISZERO PUSH2 0x28A3 JUMP JUMPDEST PUSH0 DUP5 PUSH20 0xFFFFFFFFFFFFFFFFFFFFFFFFFFFFFFFFFFFFFFFF AND EXTCODESIZE EQ JUMPDEST ISZERO PUSH2 0x28E5 JUMPI DUP4 PUSH1 0x40 MLOAD PUSH32 0x5274AFE700000000000000000000000000000000000000000000000000000000 DUP2 MSTORE PUSH1 0x4 ADD PUSH2 0x28DC SWAP2 SWAP1 PUSH2 0x29FF JUMP JUMPDEST PUSH1 0x40 MLOAD DUP1 SWAP2 SUB SWAP1 REVERT JUMPDEST POP POP POP POP JUMP JUMPDEST PUSH1 0x2 PUSH0 SLOAD SUB PUSH2 0x292F JUMPI PUSH1 0x40 MLOAD PUSH32 0x8C379A000000000000000000000000000000000000000000000000000000000 DUP2 MSTORE PUSH1 0x4 ADD PUSH2 0x2926 SWAP1 PUSH2 0x31E9 JUMP JUMPDEST PUSH1 0x40 MLOAD DUP1 SWAP2 SUB SWAP1 REVERT JUMPDEST PUSH1 0x2 PUSH0 DUP2 SWAP1 SSTORE POP JUMP JUMPDEST PUSH1 0x1 PUSH0 DUP2 SWAP1 SSTORE POP JUMP JUMPDEST PUSH2 0x29BB DUP4 DUP5 PUSH20 0xFFFFFFFFFFFFFFFFFFFFFFFFFFFFFFFFFFFFFFFF AND PUSH4 0xA9059CBB DUP6 DUP6 PUSH1 0x40 MLOAD PUSH1 0x24 ADD PUSH2 0x2974 SWAP3 SWAP2 SWAP1 PUSH2 0x2E56 JUMP JUMPDEST PUSH1 0x40 MLOAD PUSH1 0x20 DUP2 DUP4 SUB SUB DUP2 MSTORE SWAP1 PUSH1 0x40 MSTORE SWAP2 POP PUSH1 0xE0 SHL PUSH1 0x20 DUP3 ADD DUP1 MLOAD PUSH28 0xFFFFFFFFFFFFFFFFFFFFFFFFFFFFFFFFFFFFFFFFFFFFFFFFFFFFFFFF DUP4 DUP2 DUP4 AND OR DUP4 MSTORE POP POP POP POP PUSH2 0x2850 JUMP JUMPDEST POP POP POP JUMP JUMPDEST PUSH0 PUSH20 0xFFFFFFFFFFFFFFFFFFFFFFFFFFFFFFFFFFFFFFFF DUP3 AND SWAP1 POP SWAP2 SWAP1 POP JUMP JUMPDEST PUSH0 PUSH2 0x29E9 DUP3 PUSH2 0x29C0 JUMP JUMPDEST SWAP1 POP SWAP2 SWAP1 POP JUMP JUMPDEST PUSH2 0x29F9 DUP2 PUSH2 0x29DF JUMP JUMPDEST DUP3 MSTORE POP POP JUMP JUMPDEST PUSH0 PUSH1 0x20 DUP3 ADD SWAP1 POP PUSH2 0x2A12 PUSH0 DUP4 ADD DUP5 PUSH2 0x29F0 JUMP JUMPDEST SWAP3 SWAP2 POP POP JUMP JUMPDEST PUSH0 PUSH0 REVERT JUMPDEST PUSH0 PUSH32 0xFFFFFFFF00000000000000000000000000000000000000000000000000000000 DUP3 AND SWAP1 POP SWAP2 SWAP1 POP JUMP JUMPDEST PUSH2 0x2A50 DUP2 PUSH2 0x2A1C JUMP JUMPDEST DUP2 EQ PUSH2 0x2A5A JUMPI PUSH0 PUSH0 REVERT JUMPDEST POP JUMP JUMPDEST PUSH0 DUP2 CALLDATALOAD SWAP1 POP PUSH2 0x2A6B DUP2 PUSH2 0x2A47 JUMP JUMPDEST SWAP3 SWAP2 POP POP JUMP JUMPDEST PUSH0 PUSH1 0x20 DUP3 DUP5 SUB SLT ISZERO PUSH2 0x2A86 JUMPI PUSH2 0x2A85 PUSH2 0x2A18 JUMP JUMPDEST JUMPDEST PUSH0 PUSH2 0x2A93 DUP5 DUP3 DUP6 ADD PUSH2 0x2A5D JUMP JUMPDEST SWAP2 POP POP SWAP3 SWAP2 POP POP JUMP JUMPDEST PUSH0 DUP2 ISZERO ISZERO SWAP1 POP SWAP2 SWAP1 POP JUMP JUMPDEST PUSH2 0x2AB0 DUP2 PUSH2 0x2A9C JUMP JUMPDEST DUP3 MSTORE POP POP JUMP JUMPDEST PUSH0 PUSH1 0x20 DUP3 ADD SWAP1 POP PUSH2 0x2AC9 PUSH0 DUP4 ADD DUP5 PUSH2 0x2AA7 JUMP JUMPDEST SWAP3 SWAP2 POP POP JUMP JUMPDEST PUSH0 DUP2 SWAP1 POP SWAP2 SWAP1 POP JUMP JUMPDEST PUSH2 0x2AE1 DUP2 PUSH2 0x2ACF JUMP JUMPDEST DUP3 MSTORE POP POP JUMP JUMPDEST PUSH0 PUSH1 0xA0 DUP3 ADD SWAP1 POP PUSH2 0x2AFA PUSH0 DUP4 ADD DUP9 PUSH2 0x2AA7 JUMP JUMPDEST PUSH2 0x2B07 PUSH1 0x20 DUP4 ADD DUP8 PUSH2 0x2AD8 JUMP JUMPDEST PUSH2 0x2B14 PUSH1 0x40 DUP4 ADD DUP7 PUSH2 0x2AD8 JUMP JUMPDEST PUSH2 0x2B21 PUSH1 0x60 DUP4 ADD DUP6 PUSH2 0x2AD8 JUMP JUMPDEST PUSH2 0x2B2E PUSH1 0x80 DUP4 ADD DUP5 PUSH2 0x29F0 JUMP JUMPDEST SWAP7 SWAP6 POP POP POP POP POP POP JUMP JUMPDEST PUSH0 DUP2 SWAP1 POP SWAP2 SWAP1 POP JUMP JUMPDEST PUSH2 0x2B4A DUP2 PUSH2 0x2B38 JUMP JUMPDEST DUP2 EQ PUSH2 0x2B54 JUMPI PUSH0 PUSH0 REVERT JUMPDEST POP JUMP JUMPDEST PUSH0 DUP2 CALLDATALOAD SWAP1 POP PUSH2 0x2B65 DUP2 PUSH2 0x2B41 JUMP JUMPDEST SWAP3 SWAP2 POP POP JUMP JUMPDEST PUSH0 PUSH1 0x20 DUP3 DUP5 SUB SLT ISZERO PUSH2 0x2B80 JUMPI PUSH2 0x2B7F PUSH2 0x2A18 JUMP JUMPDEST JUMPDEST PUSH0 PUSH2 0x2B8D DUP5 DUP3 DUP6 ADD PUSH2 0x2B57 JUMP JUMPDEST SWAP2 POP POP SWAP3 SWAP2 POP POP JUMP JUMPDEST PUSH2 0x2B9F DUP2 PUSH2 0x2B38 JUMP JUMPDEST DUP3 MSTORE POP POP JUMP JUMPDEST PUSH0 PUSH1 0x20 DUP3 ADD SWAP1 POP PUSH2 0x2BB8 PUSH0 DUP4 ADD DUP5 PUSH2 0x2B96 JUMP JUMPDEST SWAP3 SWAP2 POP POP JUMP JUMPDEST PUSH2 0x2BC7 DUP2 PUSH2 0x29DF JUMP JUMPDEST DUP2 EQ PUSH2 0x2BD1 JUMPI PUSH0 PUSH0 REVERT JUMPDEST POP JUMP JUMPDEST PUSH0 DUP2 CALLDATALOAD SWAP1 POP PUSH2 0x2BE2 DUP2 PUSH2 0x2BBE JUMP JUMPDEST SWAP3 SWAP2 POP POP JUMP JUMPDEST PUSH0 PUSH0 PUSH1 0x40 DUP4 DUP6 SUB SLT ISZERO PUSH2 0x2BFE JUMPI PUSH2 0x2BFD PUSH2 0x2A18 JUMP JUMPDEST JUMPDEST PUSH0 PUSH2 0x2C0B DUP6 DUP3 DUP7 ADD PUSH2 0x2B57 JUMP JUMPDEST SWAP3 POP POP PUSH1 0x20 PUSH2 0x2C1C DUP6 DUP3 DUP7 ADD PUSH2 0x2BD4 JUMP JUMPDEST SWAP2 POP POP SWAP3 POP SWAP3 SWAP1 POP JUMP JUMPDEST PUSH0 PUSH1 0x20 DUP3 ADD SWAP1 POP PUSH2 0x2C39 PUSH0 DUP4 ADD DUP5 PUSH2 0x2AD8 JUMP JUMPDEST SWAP3 SWAP2 POP POP JUMP JUMPDEST PUSH2 0x2C48 DUP2 PUSH2 0x2ACF JUMP JUMPDEST DUP2 EQ PUSH2 0x2C52 JUMPI PUSH0 PUSH0 REVERT JUMPDEST POP JUMP JUMPDEST PUSH0 DUP2 CALLDATALOAD SWAP1 POP PUSH2 0x2C63 DUP2 PUSH2 0x2C3F JUMP JUMPDEST SWAP3 SWAP2 POP POP JUMP JUMPDEST PUSH0 PUSH1 0x20 DUP3 DUP5 SUB SLT ISZERO PUSH2 0x2C7E JUMPI PUSH2 0x2C7D PUSH2 0x2A18 JUMP JUMPDEST JUMPDEST PUSH0 PUSH2 0x2C8B DUP5 DUP3 DUP6 ADD PUSH2 0x2C55 JUMP JUMPDEST SWAP2 POP POP SWAP3 SWAP2 POP POP JUMP JUMPDEST PUSH0 DUP2 SWAP1 POP SWAP2 SWAP1 POP JUMP JUMPDEST PUSH0 PUSH2 0x2CB7 PUSH2 0x2CB2 PUSH2 0x2CAD DUP5 PUSH2 0x29C0 JUMP JUMPDEST PUSH2 0x2C94 JUMP JUMPDEST PUSH2 0x29C0 JUMP JUMPDEST SWAP1 POP SWAP2 SWAP1 POP JUMP JUMPDEST PUSH0 PUSH2 0x2CC8 DUP3 PUSH2 0x2C9D JUMP JUMPDEST SWAP1 POP SWAP2 SWAP1 POP JUMP JUMPDEST PUSH0 PUSH2 0x2CD9 DUP3 PUSH2 0x2CBE JUMP JUMPDEST SWAP1 POP SWAP2 SWAP1 POP JUMP JUMPDEST PUSH2 0x2CE9 DUP2 PUSH2 0x2CCF JUMP JUMPDEST DUP3 MSTORE POP POP JUMP JUMPDEST PUSH0 PUSH1 0x20 DUP3 ADD SWAP1 POP PUSH2 0x2D02 PUSH0 DUP4 ADD DUP5 PUSH2 0x2CE0 JUMP JUMPDEST SWAP3 SWAP2 POP POP JUMP JUMPDEST PUSH0 PUSH1 0x20 DUP3 DUP5 SUB SLT ISZERO PUSH2 0x2D1D JUMPI PUSH2 0x2D1C PUSH2 0x2A18 JUMP JUMPDEST JUMPDEST PUSH0 PUSH2 0x2D2A DUP5 DUP3 DUP6 ADD PUSH2 0x2BD4 JUMP JUMPDEST SWAP2 POP POP SWAP3 SWAP2 POP POP JUMP JUMPDEST PUSH0 PUSH0 PUSH1 0x40 DUP4 DUP6 SUB SLT ISZERO PUSH2 0x2D49 JUMPI PUSH2 0x2D48 PUSH2 0x2A18 JUMP JUMPDEST JUMPDEST PUSH0 PUSH2 0x2D56 DUP6 DUP3 DUP7 ADD PUSH2 0x2BD4 JUMP JUMPDEST SWAP3 POP POP PUSH1 0x20 PUSH2 0x2D67 DUP6 DUP3 DUP7 ADD PUSH2 0x2B57 JUMP JUMPDEST SWAP2 POP POP SWAP3 POP SWAP3 SWAP1 POP JUMP JUMPDEST PUSH0 PUSH0 PUSH1 0x40 DUP4 DUP6 SUB SLT ISZERO PUSH2 0x2D87 JUMPI PUSH2 0x2D86 PUSH2 0x2A18 JUMP JUMPDEST JUMPDEST PUSH0 PUSH2 0x2D94 DUP6 DUP3 DUP7 ADD PUSH2 0x2BD4 JUMP JUMPDEST SWAP3 POP POP PUSH1 0x20 PUSH2 0x2DA5 DUP6 DUP3 DUP7 ADD PUSH2 0x2BD4 JUMP JUMPDEST SWAP2 POP POP SWAP3 POP SWAP3 SWAP1 POP JUMP JUMPDEST PUSH32 0x4E487B7100000000000000000000000000000000000000000000000000000000 PUSH0 MSTORE PUSH1 0x11 PUSH1 0x4 MSTORE PUSH1 0x24 PUSH0 REVERT JUMPDEST PUSH0 PUSH2 0x2DE6 DUP3 PUSH2 0x2ACF JUMP JUMPDEST SWAP2 POP PUSH2 0x2DF1 DUP4 PUSH2 0x2ACF JUMP JUMPDEST SWAP3 POP DUP3 DUP3 ADD SWAP1 POP DUP1 DUP3 GT ISZERO PUSH2 0x2E09 JUMPI PUSH2 0x2E08 PUSH2 0x2DAF JUMP JUMPDEST JUMPDEST SWAP3 SWAP2 POP POP JUMP JUMPDEST PUSH0 PUSH2 0x2E19 DUP3 PUSH2 0x2ACF JUMP JUMPDEST SWAP2 POP PUSH32 0xFFFFFFFFFFFFFFFFFFFFFFFFFFFFFFFFFFFFFFFFFFFFFFFFFFFFFFFFFFFFFFFF DUP3 SUB PUSH2 0x2E4B JUMPI PUSH2 0x2E4A PUSH2 0x2DAF JUMP JUMPDEST JUMPDEST PUSH1 0x1 DUP3 ADD SWAP1 POP SWAP2 SWAP1 POP JUMP JUMPDEST PUSH0 PUSH1 0x40 DUP3 ADD SWAP1 POP PUSH2 0x2E69 PUSH0 DUP4 ADD DUP6 PUSH2 0x29F0 JUMP JUMPDEST PUSH2 0x2E76 PUSH1 0x20 DUP4 ADD DUP5 PUSH2 0x2AD8 JUMP JUMPDEST SWAP4 SWAP3 POP POP POP JUMP JUMPDEST PUSH2 0x2E86 DUP2 PUSH2 0x2A9C JUMP JUMPDEST DUP2 EQ PUSH2 0x2E90 JUMPI PUSH0 PUSH0 REVERT JUMPDEST POP JUMP JUMPDEST PUSH0 DUP2 MLOAD SWAP1 POP PUSH2 0x2EA1 DUP2 PUSH2 0x2E7D JUMP JUMPDEST SWAP3 SWAP2 POP POP JUMP JUMPDEST PUSH0 PUSH1 0x20 DUP3 DUP5 SUB SLT ISZERO PUSH2 0x2EBC JUMPI PUSH2 0x2EBB PUSH2 0x2A18 JUMP JUMPDEST JUMPDEST PUSH0 PUSH2 0x2EC9 DUP5 DUP3 DUP6 ADD PUSH2 0x2E93 JUMP JUMPDEST SWAP2 POP POP SWAP3 SWAP2 POP POP JUMP JUMPDEST PUSH0 PUSH1 0x40 DUP3 ADD SWAP1 POP PUSH2 0x2EE5 PUSH0 DUP4 ADD DUP6 PUSH2 0x29F0 JUMP JUMPDEST PUSH2 0x2EF2 PUSH1 0x20 DUP4 ADD DUP5 PUSH2 0x29F0 JUMP JUMPDEST SWAP4 SWAP3 POP POP POP JUMP JUMPDEST PUSH0 DUP2 MLOAD SWAP1 POP PUSH2 0x2F07 DUP2 PUSH2 0x2C3F JUMP JUMPDEST SWAP3 SWAP2 POP POP JUMP JUMPDEST PUSH0 PUSH1 0x20 DUP3 DUP5 SUB SLT ISZERO PUSH2 0x2F22 JUMPI PUSH2 0x2F21 PUSH2 0x2A18 JUMP JUMPDEST JUMPDEST PUSH0 PUSH2 0x2F2F DUP5 DUP3 DUP6 ADD PUSH2 0x2EF9 JUMP JUMPDEST SWAP2 POP POP SWAP3 SWAP2 POP POP JUMP JUMPDEST PUSH0 PUSH10 0xFFFFFFFFFFFFFFFFFFFF DUP3 AND SWAP1 POP SWAP2 SWAP1 POP JUMP JUMPDEST PUSH2 0x2F56 DUP2 PUSH2 0x2F38 JUMP JUMPDEST DUP2 EQ PUSH2 0x2F60 JUMPI PUSH0 PUSH0 REVERT JUMPDEST POP JUMP JUMPDEST PUSH0 DUP2 MLOAD SWAP1 POP PUSH2 0x2F71 DUP2 PUSH2 0x2F4D JUMP JUMPDEST SWAP3 SWAP2 POP POP JUMP JUMPDEST PUSH0 DUP2 SWAP1 POP SWAP2 SWAP1 POP JUMP JUMPDEST PUSH2 0x2F89 DUP2 PUSH2 0x2F77 JUMP JUMPDEST DUP2 EQ PUSH2 0x2F93 JUMPI PUSH0 PUSH0 REVERT JUMPDEST POP JUMP JUMPDEST PUSH0 DUP2 MLOAD SWAP1 POP PUSH2 0x2FA4 DUP2 PUSH2 0x2F80 JUMP JUMPDEST SWAP3 SWAP2 POP POP JUMP JUMPDEST PUSH0 PUSH0 PUSH0 PUSH0 PUSH0 PUSH1 0xA0 DUP7 DUP9 SUB SLT ISZERO PUSH2 0x2FC3 JUMPI PUSH2 0x2FC2 PUSH2 0x2A18 JUMP JUMPDEST JUMPDEST PUSH0 PUSH2 0x2FD0 DUP9 DUP3 DUP10 ADD PUSH2 0x2F63 JUMP JUMPDEST SWAP6 POP POP PUSH1 0x20 PUSH2 0x2FE1 DUP9 DUP3 DUP10 ADD PUSH2 0x2F96 JUMP JUMPDEST SWAP5 POP POP PUSH1 0x40 PUSH2 0x2FF2 DUP9 DUP3 DUP10 ADD PUSH2 0x2EF9 JUMP JUMPDEST SWAP4 POP POP PUSH1 0x60 PUSH2 0x3003 DUP9 DUP3 DUP10 ADD PUSH2 0x2EF9 JUMP JUMPDEST SWAP3 POP POP PUSH1 0x80 PUSH2 0x3014 DUP9 DUP3 DUP10 ADD PUSH2 0x2F63 JUMP JUMPDEST SWAP2 POP POP SWAP3 SWAP6 POP SWAP3 SWAP6 SWAP1 SWAP4 POP JUMP JUMPDEST PUSH0 PUSH2 0x302B DUP3 PUSH2 0x2ACF JUMP JUMPDEST SWAP2 POP PUSH2 0x3036 DUP4 PUSH2 0x2ACF JUMP JUMPDEST SWAP3 POP DUP3 DUP3 SUB SWAP1 POP DUP2 DUP2 GT ISZERO PUSH2 0x304E JUMPI PUSH2 0x304D PUSH2 0x2DAF JUMP JUMPDEST JUMPDEST SWAP3 SWAP2 POP POP JUMP JUMPDEST PUSH0 PUSH2 0x305E DUP3 PUSH2 0x2ACF JUMP JUMPDEST SWAP2 POP PUSH2 0x3069 DUP4 PUSH2 0x2ACF JUMP JUMPDEST SWAP3 POP DUP3 DUP3 MUL PUSH2 0x3077 DUP2 PUSH2 0x2ACF JUMP JUMPDEST SWAP2 POP DUP3 DUP3 DIV DUP5 EQ DUP4 ISZERO OR PUSH2 0x308E JUMPI PUSH2 0x308D PUSH2 0x2DAF JUMP JUMPDEST JUMPDEST POP SWAP3 SWAP2 POP POP JUMP JUMPDEST PUSH32 0x4E487B7100000000000000000000000000000000000000000000000000000000 PUSH0 MSTORE PUSH1 0x12 PUSH1 0x4 MSTORE PUSH1 0x24 PUSH0 REVERT JUMPDEST PUSH0 PUSH2 0x30CC DUP3 PUSH2 0x2ACF JUMP JUMPDEST SWAP2 POP PUSH2 0x30D7 DUP4 PUSH2 0x2ACF JUMP JUMPDEST SWAP3 POP DUP3 PUSH2 0x30E7 JUMPI PUSH2 0x30E6 PUSH2 0x3095 JUMP JUMPDEST JUMPDEST DUP3 DUP3 DIV SWAP1 POP SWAP3 SWAP2 POP POP JUMP JUMPDEST PUSH0 PUSH1 0x60 DUP3 ADD SWAP1 POP PUSH2 0x3105 PUSH0 DUP4 ADD DUP7 PUSH2 0x29F0 JUMP JUMPDEST PUSH2 0x3112 PUSH1 0x20 DUP4 ADD DUP6 PUSH2 0x29F0 JUMP JUMPDEST PUSH2 0x311F PUSH1 0x40 DUP4 ADD DUP5 PUSH2 0x2AD8 JUMP JUMPDEST SWAP5 SWAP4 POP POP POP POP JUMP JUMPDEST PUSH0 DUP2 SWAP1 POP SWAP3 SWAP2 POP POP JUMP JUMPDEST POP JUMP JUMPDEST PUSH0 PUSH2 0x313F PUSH0 DUP4 PUSH2 0x3127 JUMP JUMPDEST SWAP2 POP PUSH2 0x314A DUP3 PUSH2 0x3131 JUMP JUMPDEST PUSH0 DUP3 ADD SWAP1 POP SWAP2 SWAP1 POP JUMP JUMPDEST PUSH0 PUSH2 0x315E DUP3 PUSH2 0x3134 JUMP JUMPDEST SWAP2 POP DUP2 SWAP1 POP SWAP2 SWAP1 POP JUMP JUMPDEST PUSH0 PUSH1 0x40 DUP3 ADD SWAP1 POP PUSH2 0x317B PUSH0 DUP4 ADD DUP6 PUSH2 0x29F0 JUMP JUMPDEST PUSH2 0x3188 PUSH1 0x20 DUP4 ADD DUP5 PUSH2 0x2B96 JUMP JUMPDEST SWAP4 SWAP3 POP POP POP JUMP JUMPDEST PUSH0 DUP3 DUP3 MSTORE PUSH1 0x20 DUP3 ADD SWAP1 POP SWAP3 SWAP2 POP POP JUMP JUMPDEST PUSH32 0x5265656E7472616E637947756172643A207265656E7472616E742063616C6C00 PUSH0 DUP3 ADD MSTORE POP JUMP JUMPDEST PUSH0 PUSH2 0x31D3 PUSH1 0x1F DUP4 PUSH2 0x318F JUMP JUMPDEST SWAP2 POP PUSH2 0x31DE DUP3 PUSH2 0x319F JUMP JUMPDEST PUSH1 0x20 DUP3 ADD SWAP1 POP SWAP2 SWAP1 POP JUMP JUMPDEST PUSH0 PUSH1 0x20 DUP3 ADD SWAP1 POP DUP2 DUP2 SUB PUSH0 DUP4 ADD MSTORE PUSH2 0x3200 DUP2 PUSH2 0x31C7 JUMP JUMPDEST SWAP1 POP SWAP2 SWAP1 POP JUMP INVALID LOG2 PUSH5 0x6970667358 0x22 SLT KECCAK256 KECCAK256 SAR PUSH1 0x41 SIGNEXTEND LOG2 0xBA 0xB6 0xEA MUL 0xAE DUP9 PUSH7 0xBBE39653171A79 DUP5 0xE9 XOR SIGNEXTEND PUSH32 0xBD9088E2FA5A8C64736F6C634300081E00330000000000000000000000000000 "
				},
				"gasEstimates": {
					"creation": {
						"codeDepositCost": "2572200",
						"executionCost": "infinite",
						"totalCost": "infinite"
					},
					"external": {
						"": "463",
						"DEFAULT_ADMIN_ROLE()": "418",
						"FEED_MANAGER()": "370",
						"PAUSER()": "436",
						"balanceOf(address,address)": "infinite",
						"darRol(address,bytes32)": "infinite",
						"depositarETH()": "infinite",
						"depositarUSDC(uint256)": "infinite",
						"despausarContrato()": "infinite",
						"estadoDelContrato()": "infinite",
						"getRoleAdmin(bytes32)": "infinite",
						"grantRole(bytes32,address)": "infinite",
						"hasRole(bytes32,address)": "3211",
						"owner()": "2583",
						"pausarContrato()": "infinite",
						"paused()": "2570",
						"renounceOwnership()": "infinite",
						"renounceRole(bytes32,address)": "infinite",
						"retirarETH(uint256)": "infinite",
						"retirarUSDC(uint256)": "infinite",
						"revocarRol(address,bytes32)": "infinite",
						"revokeRole(bytes32,address)": "infinite",
						"s_feed()": "infinite",
						"setFeeds(address)": "infinite",
						"supportsInterface(bytes4)": "806",
						"transferOwnership(address)": "infinite",
						"transferirOwner(address)": "infinite",
						"verBoveda()": "infinite",
						"verSaldoETH()": "2673",
						"verSaldoUSDC()": "infinite",
						"verTotalContrato()": "2477",
						"verTotalDepositos()": "2520",
						"verTotalRetiros()": "2543"
					},
					"internal": {
						"_retirarFondosETH(uint256)": "infinite",
						"_retirarFondosUSDC(uint256)": "infinite",
						"chainLinkFeeds()": "infinite",
						"convertirEthEnUSD(uint256)": "infinite"
					}
				},
				"methodIdentifiers": {
					"DEFAULT_ADMIN_ROLE()": "a217fddf",
					"FEED_MANAGER()": "cb398eb3",
					"PAUSER()": "d9dc8694",
					"balanceOf(address,address)": "f7888aec",
					"darRol(address,bytes32)": "ccd6b020",
					"depositarETH()": "16a1930f",
					"depositarUSDC(uint256)": "698b7241",
					"despausarContrato()": "38d5c916",
					"estadoDelContrato()": "0594cc69",
					"getRoleAdmin(bytes32)": "248a9ca3",
					"grantRole(bytes32,address)": "2f2ff15d",
					"hasRole(bytes32,address)": "91d14854",
					"owner()": "8da5cb5b",
					"pausarContrato()": "1a003ecb",
					"paused()": "5c975abb",
					"renounceOwnership()": "715018a6",
					"renounceRole(bytes32,address)": "36568abe",
					"retirarETH(uint256)": "82fe54b5",
					"retirarUSDC(uint256)": "931fb90e",
					"revocarRol(address,bytes32)": "f0e00dc8",
					"revokeRole(bytes32,address)": "d547741f",
					"s_feed()": "6f05c64c",
					"setFeeds(address)": "7dc532c5",
					"supportsInterface(bytes4)": "01ffc9a7",
					"transferOwnership(address)": "f2fde38b",
					"transferirOwner(address)": "8648840a",
					"verBoveda()": "6900670c",
					"verSaldoETH()": "779bb136",
					"verSaldoUSDC()": "939495bd",
					"verTotalContrato()": "93295c1c",
					"verTotalDepositos()": "f39b1809",
					"verTotalRetiros()": "c6aca33c"
				}
			},
			"storageLayout": {
				"storage": [
					{
						"astId": 674,
						"contract": "contracts/KipuBank.sol:KipuBank",
						"label": "_status",
						"offset": 0,
						"slot": "0",
						"type": "t_uint256"
					},
					{
						"astId": 434,
						"contract": "contracts/KipuBank.sol:KipuBank",
						"label": "_owner",
						"offset": 0,
						"slot": "1",
						"type": "t_address"
					},
					{
						"astId": 1309,
						"contract": "contracts/KipuBank.sol:KipuBank",
						"label": "_paused",
						"offset": 20,
						"slot": "1",
						"type": "t_bool"
					},
					{
						"astId": 73,
						"contract": "contracts/KipuBank.sol:KipuBank",
						"label": "_roles",
						"offset": 0,
						"slot": "2",
						"type": "t_mapping(t_bytes32,t_struct(RoleData)68_storage)"
					},
					{
						"astId": 1486,
						"contract": "contracts/KipuBank.sol:KipuBank",
						"label": "s_feed",
						"offset": 0,
						"slot": "3",
						"type": "t_contract(AggregatorV3Interface)45"
					},
					{
						"astId": 1508,
						"contract": "contracts/KipuBank.sol:KipuBank",
						"label": "_depositos",
						"offset": 0,
						"slot": "4",
						"type": "t_uint256"
					},
					{
						"astId": 1512,
						"contract": "contracts/KipuBank.sol:KipuBank",
						"label": "_retiros",
						"offset": 0,
						"slot": "5",
						"type": "t_uint256"
					},
					{
						"astId": 1516,
						"contract": "contracts/KipuBank.sol:KipuBank",
						"label": "_totalContrato",
						"offset": 0,
						"slot": "6",
						"type": "t_uint256"
					},
					{
						"astId": 1523,
						"contract": "contracts/KipuBank.sol:KipuBank",
						"label": "_cuentasMultiToken",
						"offset": 0,
						"slot": "7",
						"type": "t_mapping(t_address,t_mapping(t_address,t_uint256))"
					}
				],
				"types": {
					"t_address": {
						"encoding": "inplace",
						"label": "address",
						"numberOfBytes": "20"
					},
					"t_bool": {
						"encoding": "inplace",
						"label": "bool",
						"numberOfBytes": "1"
					},
					"t_bytes32": {
						"encoding": "inplace",
						"label": "bytes32",
						"numberOfBytes": "32"
					},
					"t_contract(AggregatorV3Interface)45": {
						"encoding": "inplace",
						"label": "contract AggregatorV3Interface",
						"numberOfBytes": "20"
					},
					"t_mapping(t_address,t_bool)": {
						"encoding": "mapping",
						"key": "t_address",
						"label": "mapping(address => bool)",
						"numberOfBytes": "32",
						"value": "t_bool"
					},
					"t_mapping(t_address,t_mapping(t_address,t_uint256))": {
						"encoding": "mapping",
						"key": "t_address",
						"label": "mapping(address => mapping(address => uint256))",
						"numberOfBytes": "32",
						"value": "t_mapping(t_address,t_uint256)"
					},
					"t_mapping(t_address,t_uint256)": {
						"encoding": "mapping",
						"key": "t_address",
						"label": "mapping(address => uint256)",
						"numberOfBytes": "32",
						"value": "t_uint256"
					},
					"t_mapping(t_bytes32,t_struct(RoleData)68_storage)": {
						"encoding": "mapping",
						"key": "t_bytes32",
						"label": "mapping(bytes32 => struct AccessControl.RoleData)",
						"numberOfBytes": "32",
						"value": "t_struct(RoleData)68_storage"
					},
					"t_struct(RoleData)68_storage": {
						"encoding": "inplace",
						"label": "struct AccessControl.RoleData",
						"members": [
							{
								"astId": 65,
								"contract": "contracts/KipuBank.sol:KipuBank",
								"label": "hasRole",
								"offset": 0,
								"slot": "0",
								"type": "t_mapping(t_address,t_bool)"
							},
							{
								"astId": 67,
								"contract": "contracts/KipuBank.sol:KipuBank",
								"label": "adminRole",
								"offset": 0,
								"slot": "1",
								"type": "t_bytes32"
							}
						],
						"numberOfBytes": "64"
					},
					"t_uint256": {
						"encoding": "inplace",
						"label": "uint256",
						"numberOfBytes": "32"
					}
				}
			},
			"userdoc": {
				"errors": {
					"KipuBank_DireccionInvalida()": [
						{
							"notice": "Error por querer hacer un \"set\" de una dirección invalida"
						}
					],
					"KipuBank_ExtraccionRechazada(address,uint256)": [
						{
							"notice": "Error de extraccion"
						}
					],
					"KipuBank_FeedInvalido(address)": [
						{
							"notice": "Error por querer ingresar un data feed invalido"
						}
					],
					"KipuBank_InicializacionInvalida(uint256,uint256)": [
						{
							"notice": "Error de umbral mayor al limite"
						}
					],
					"KipuBank_LimiteExcedido(uint256)": [
						{
							"notice": "Error por sobrepasarse del limite"
						}
					],
					"KipuBank_LimiteInvalido(uint256)": [
						{
							"notice": "Error por limite invalido"
						}
					],
					"KipuBank_MontoCero(address)": [
						{
							"notice": "Error monto cero"
						}
					],
					"KipuBank_NoAutorizado(address)": [
						{
							"notice": "Error cuando alguien no autorizado quiere acceder a una función"
						}
					],
					"KipuBank_OperacionNoPermitida(address)": [
						{
							"notice": "Error por operacion no permitida"
						}
					],
					"KipuBank_OraculoComprometido(uint256)": [
						{
							"notice": "Error por óraculo dando un precio equivoco"
						}
					],
					"KipuBank_PrecioDesactualizado(uint256)": [
						{
							"notice": "Error por precio desactualizado"
						}
					],
					"KipuBank_SaldoInsuficiente(address,uint256)": [
						{
							"notice": "Error por saldo insuficiente"
						}
					],
					"KipuBank_UmbralExcedido(uint256)": [
						{
							"notice": "Error por umbral excedido"
						}
					],
					"KipuBank_UmbralInvalido(uint256)": [
						{
							"notice": "Error por umbral invalido"
						}
					]
				},
				"events": {
					"KipuBank_ContratoDespausado(address,uint256)": {
						"notice": "Evento para despausar el contrato"
					},
					"KipuBank_ContratoPausado(address,uint256)": {
						"notice": "Evento para pausar el contrato"
					},
					"KipuBank_DepositoRealizado(address,uint256)": {
						"notice": "Evento para depositos realizado exitosamente"
					},
					"KipuBank_ExtraccionRealizada(address,uint256)": {
						"notice": "Evento para extracciones realizadas exitosamente"
					},
					"KipuBank_FeedActualizado(address,address)": {
						"notice": "Evento para la actualización del feed"
					},
					"KipuBank_OwnerTransferido(address,address)": {
						"notice": "Evento para cuando el owner del contrato es transferido"
					},
					"KipuBank_RolDado(address,bytes32)": {
						"notice": "Evento para cuando un rol es otorgado"
					},
					"KipuBank_RolRevocado(address,bytes32)": {
						"notice": "Evento para cuando un rol es revocado"
					}
				},
				"kind": "user",
				"methods": {
					"FEED_MANAGER()": {
						"notice": "Rol de Manager de los data feeds"
					},
					"PAUSER()": {
						"notice": "Rol de pausador del contrato"
					},
					"balanceOf(address,address)": {
						"notice": "Función para ver el saldo por token del titular"
					},
					"constructor": {
						"notice": "Constructor del contrato"
					},
					"darRol(address,bytes32)": {
						"notice": "Función para dar un rol a una cuenta"
					},
					"depositarETH()": {
						"notice": "Funcion para depositar en la boveda"
					},
					"depositarUSDC(uint256)": {
						"notice": "Funcion para depositar en la boveda"
					},
					"despausarContrato()": {
						"notice": "Función para despausar el contrato"
					},
					"estadoDelContrato()": {
						"notice": "Función para ver el estado del contrato"
					},
					"pausarContrato()": {
						"notice": "Función para pausar el contrato"
					},
					"retirarETH(uint256)": {
						"notice": "Funcion externa para realizar el retiro de saldo en ETH"
					},
					"retirarUSDC(uint256)": {
						"notice": "Funcion externa para realizar el retiro de saldo en USDC"
					},
					"revocarRol(address,bytes32)": {
						"notice": "Función para revocar el rol a una cuenta"
					},
					"s_feed()": {
						"notice": "Interfaz publica del data feed"
					},
					"setFeeds(address)": {
						"notice": "Función para cambiar el data feeds"
					},
					"supportsInterface(bytes4)": {
						"notice": "Override requerido por Solidity para la múltiple herencia"
					},
					"transferirOwner(address)": {
						"notice": "Función para traspasar el contrato a otro dueño"
					},
					"verBoveda()": {
						"notice": "Funcion para ver el saldo total guardado en el boveda en USD"
					},
					"verSaldoETH()": {
						"notice": "Función para el saldo en ETH del titular"
					},
					"verSaldoUSDC()": {
						"notice": "Función para ver el saldo en USDC del titular"
					},
					"verTotalContrato()": {
						"notice": "Funcion para ver el saldo total del contrato en USD"
					},
					"verTotalDepositos()": {
						"notice": "Funcion para ver la cantidad total de los depositos realizados"
					},
					"verTotalRetiros()": {
						"notice": "Funcion para ver la cantidad total de los retiros realizados"
					}
				},
				"version": 1
			}
		}
	}
}