{
	"contracts/KipuBank.sol": {
		"KipuBank": {
			"abi": [
				{
					"inputs": [
						{
							"internalType": "uint256",
							"name": "_limite",
							"type": "uint256"
						},
						{
							"internalType": "uint256",
							"name": "_umbral",
							"type": "uint256"
						},
						{
							"internalType": "address",
							"name": "_owner",
							"type": "address"
						},
						{
							"internalType": "address",
							"name": "_feed",
							"type": "address"
						},
						{
							"internalType": "address",
							"name": "_tokenERC20",
							"type": "address"
						}
					],
					"stateMutability": "nonpayable",
					"type": "constructor"
				},
				{
					"inputs": [],
					"name": "AccessControlBadConfirmation",
					"type": "error"
				},
				{
					"inputs": [
						{
							"internalType": "address",
							"name": "account",
							"type": "address"
						},
						{
							"internalType": "bytes32",
							"name": "neededRole",
							"type": "bytes32"
						}
					],
					"name": "AccessControlUnauthorizedAccount",
					"type": "error"
				},
				{
					"inputs": [],
					"name": "EnforcedPause",
					"type": "error"
				},
				{
					"inputs": [],
					"name": "ExpectedPause",
					"type": "error"
				},
				{
					"inputs": [],
					"name": "KipuBank_DireccionInvalida",
					"type": "error"
				},
				{
					"inputs": [
						{
							"internalType": "address",
							"name": "titular",
							"type": "address"
						},
						{
							"internalType": "uint256",
							"name": "monto",
							"type": "uint256"
						}
					],
					"name": "KipuBank_ExtraccionRechazada",
					"type": "error"
				},
				{
					"inputs": [
						{
							"internalType": "address",
							"name": "nuevoFeed",
							"type": "address"
						}
					],
					"name": "KipuBank_FeedInvalido",
					"type": "error"
				},
				{
					"inputs": [
						{
							"internalType": "uint256",
							"name": "limite",
							"type": "uint256"
						},
						{
							"internalType": "uint256",
							"name": "umbral",
							"type": "uint256"
						}
					],
					"name": "KipuBank_InicializacionInvalida",
					"type": "error"
				},
				{
					"inputs": [
						{
							"internalType": "uint256",
							"name": "monto",
							"type": "uint256"
						}
					],
					"name": "KipuBank_LimiteExcedido",
					"type": "error"
				},
				{
					"inputs": [
						{
							"internalType": "uint256",
							"name": "limite",
							"type": "uint256"
						}
					],
					"name": "KipuBank_LimiteInvalido",
					"type": "error"
				},
				{
					"inputs": [
						{
							"internalType": "address",
							"name": "titular",
							"type": "address"
						}
					],
					"name": "KipuBank_MontoCero",
					"type": "error"
				},
				{
					"inputs": [
						{
							"internalType": "address",
							"name": "sender",
							"type": "address"
						}
					],
					"name": "KipuBank_NoAutorizado",
					"type": "error"
				},
				{
					"inputs": [
						{
							"internalType": "address",
							"name": "titular",
							"type": "address"
						}
					],
					"name": "KipuBank_OperacionNoPermitida",
					"type": "error"
				},
				{
					"inputs": [
						{
							"internalType": "uint256",
							"name": "precio",
							"type": "uint256"
						}
					],
					"name": "KipuBank_OraculoComprometido",
					"type": "error"
				},
				{
					"inputs": [
						{
							"internalType": "uint256",
							"name": "precio",
							"type": "uint256"
						}
					],
					"name": "KipuBank_PrecioDesactualizado",
					"type": "error"
				},
				{
					"inputs": [
						{
							"internalType": "address",
							"name": "titular",
							"type": "address"
						},
						{
							"internalType": "uint256",
							"name": "monto",
							"type": "uint256"
						}
					],
					"name": "KipuBank_SaldoInsuficiente",
					"type": "error"
				},
				{
					"inputs": [
						{
							"internalType": "uint256",
							"name": "monto",
							"type": "uint256"
						}
					],
					"name": "KipuBank_UmbralExcedido",
					"type": "error"
				},
				{
					"inputs": [
						{
							"internalType": "uint256",
							"name": "umbral",
							"type": "uint256"
						}
					],
					"name": "KipuBank_UmbralInvalido",
					"type": "error"
				},
				{
					"inputs": [
						{
							"internalType": "address",
							"name": "owner",
							"type": "address"
						}
					],
					"name": "OwnableInvalidOwner",
					"type": "error"
				},
				{
					"inputs": [
						{
							"internalType": "address",
							"name": "account",
							"type": "address"
						}
					],
					"name": "OwnableUnauthorizedAccount",
					"type": "error"
				},
				{
					"inputs": [
						{
							"internalType": "address",
							"name": "token",
							"type": "address"
						}
					],
					"name": "SafeERC20FailedOperation",
					"type": "error"
				},
				{
					"anonymous": false,
					"inputs": [
						{
							"indexed": true,
							"internalType": "address",
							"name": "sender",
							"type": "address"
						},
						{
							"indexed": false,
							"internalType": "uint256",
							"name": "tiempo",
							"type": "uint256"
						}
					],
					"name": "KipuBank_ContratoDespausado",
					"type": "event"
				},
				{
					"anonymous": false,
					"inputs": [
						{
							"indexed": true,
							"internalType": "address",
							"name": "sender",
							"type": "address"
						},
						{
							"indexed": false,
							"internalType": "uint256",
							"name": "tiempo",
							"type": "uint256"
						}
					],
					"name": "KipuBank_ContratoPausado",
					"type": "event"
				},
				{
					"anonymous": false,
					"inputs": [
						{
							"indexed": true,
							"internalType": "address",
							"name": "titular",
							"type": "address"
						},
						{
							"indexed": false,
							"internalType": "uint256",
							"name": "monto",
							"type": "uint256"
						}
					],
					"name": "KipuBank_DepositoRealizado",
					"type": "event"
				},
				{
					"anonymous": false,
					"inputs": [
						{
							"indexed": true,
							"internalType": "address",
							"name": "titular",
							"type": "address"
						},
						{
							"indexed": false,
							"internalType": "uint256",
							"name": "monto",
							"type": "uint256"
						}
					],
					"name": "KipuBank_ExtraccionRealizada",
					"type": "event"
				},
				{
					"anonymous": false,
					"inputs": [
						{
							"indexed": true,
							"internalType": "address",
							"name": "antiguoFeed",
							"type": "address"
						},
						{
							"indexed": true,
							"internalType": "address",
							"name": "nuevoFeed",
							"type": "address"
						}
					],
					"name": "KipuBank_FeedActualizado",
					"type": "event"
				},
				{
					"anonymous": false,
					"inputs": [
						{
							"indexed": true,
							"internalType": "address",
							"name": "cuenta",
							"type": "address"
						},
						{
							"indexed": false,
							"internalType": "uint256",
							"name": "monto",
							"type": "uint256"
						}
					],
					"name": "KipuBank_MontoAprobado",
					"type": "event"
				},
				{
					"anonymous": false,
					"inputs": [
						{
							"indexed": true,
							"internalType": "address",
							"name": "ownerViejo",
							"type": "address"
						},
						{
							"indexed": true,
							"internalType": "address",
							"name": "ownerNuevo",
							"type": "address"
						}
					],
					"name": "KipuBank_OwnerTransferido",
					"type": "event"
				},
				{
					"anonymous": false,
					"inputs": [
						{
							"indexed": true,
							"internalType": "address",
							"name": "cuenta",
							"type": "address"
						},
						{
							"indexed": false,
							"internalType": "bytes32",
							"name": "rol",
							"type": "bytes32"
						}
					],
					"name": "KipuBank_RolDado",
					"type": "event"
				},
				{
					"anonymous": false,
					"inputs": [
						{
							"indexed": true,
							"internalType": "address",
							"name": "cuenta",
							"type": "address"
						},
						{
							"indexed": false,
							"internalType": "bytes32",
							"name": "rol",
							"type": "bytes32"
						}
					],
					"name": "KipuBank_RolRevocado",
					"type": "event"
				},
				{
					"anonymous": false,
					"inputs": [
						{
							"indexed": true,
							"internalType": "address",
							"name": "previousOwner",
							"type": "address"
						},
						{
							"indexed": true,
							"internalType": "address",
							"name": "newOwner",
							"type": "address"
						}
					],
					"name": "OwnershipTransferred",
					"type": "event"
				},
				{
					"anonymous": false,
					"inputs": [
						{
							"indexed": false,
							"internalType": "address",
							"name": "account",
							"type": "address"
						}
					],
					"name": "Paused",
					"type": "event"
				},
				{
					"anonymous": false,
					"inputs": [
						{
							"indexed": true,
							"internalType": "bytes32",
							"name": "role",
							"type": "bytes32"
						},
						{
							"indexed": true,
							"internalType": "bytes32",
							"name": "previousAdminRole",
							"type": "bytes32"
						},
						{
							"indexed": true,
							"internalType": "bytes32",
							"name": "newAdminRole",
							"type": "bytes32"
						}
					],
					"name": "RoleAdminChanged",
					"type": "event"
				},
				{
					"anonymous": false,
					"inputs": [
						{
							"indexed": true,
							"internalType": "bytes32",
							"name": "role",
							"type": "bytes32"
						},
						{
							"indexed": true,
							"internalType": "address",
							"name": "account",
							"type": "address"
						},
						{
							"indexed": true,
							"internalType": "address",
							"name": "sender",
							"type": "address"
						}
					],
					"name": "RoleGranted",
					"type": "event"
				},
				{
					"anonymous": false,
					"inputs": [
						{
							"indexed": true,
							"internalType": "bytes32",
							"name": "role",
							"type": "bytes32"
						},
						{
							"indexed": true,
							"internalType": "address",
							"name": "account",
							"type": "address"
						},
						{
							"indexed": true,
							"internalType": "address",
							"name": "sender",
							"type": "address"
						}
					],
					"name": "RoleRevoked",
					"type": "event"
				},
				{
					"anonymous": false,
					"inputs": [
						{
							"indexed": false,
							"internalType": "address",
							"name": "account",
							"type": "address"
						}
					],
					"name": "Unpaused",
					"type": "event"
				},
				{
					"stateMutability": "payable",
					"type": "fallback"
				},
				{
					"inputs": [],
					"name": "DEFAULT_ADMIN_ROLE",
					"outputs": [
						{
							"internalType": "bytes32",
							"name": "",
							"type": "bytes32"
						}
					],
					"stateMutability": "view",
					"type": "function"
				},
				{
					"inputs": [],
					"name": "FEED_MANAGER",
					"outputs": [
						{
							"internalType": "bytes32",
							"name": "",
							"type": "bytes32"
						}
					],
					"stateMutability": "view",
					"type": "function"
				},
				{
					"inputs": [],
					"name": "PAUSER",
					"outputs": [
						{
							"internalType": "bytes32",
							"name": "",
							"type": "bytes32"
						}
					],
					"stateMutability": "view",
					"type": "function"
				},
				{
					"inputs": [
						{
							"internalType": "uint256",
							"name": "_monto",
							"type": "uint256"
						}
					],
					"name": "aprobarMontoUSDC",
					"outputs": [],
					"stateMutability": "nonpayable",
					"type": "function"
				},
				{
					"inputs": [
						{
							"internalType": "address",
							"name": "titular",
							"type": "address"
						},
						{
							"internalType": "address",
							"name": "token",
							"type": "address"
						}
					],
					"name": "balanceOf",
					"outputs": [
						{
							"internalType": "uint256",
							"name": "",
							"type": "uint256"
						}
					],
					"stateMutability": "view",
					"type": "function"
				},
				{
					"inputs": [
						{
							"internalType": "address",
							"name": "cuenta",
							"type": "address"
						},
						{
							"internalType": "bytes32",
							"name": "rol",
							"type": "bytes32"
						}
					],
					"name": "darRol",
					"outputs": [],
					"stateMutability": "nonpayable",
					"type": "function"
				},
				{
					"inputs": [],
					"name": "depositarETH",
					"outputs": [],
					"stateMutability": "payable",
					"type": "function"
				},
				{
					"inputs": [
						{
							"internalType": "uint256",
							"name": "_monto",
							"type": "uint256"
						}
					],
					"name": "depositarUSDC",
					"outputs": [],
					"stateMutability": "nonpayable",
					"type": "function"
				},
				{
					"inputs": [],
					"name": "despausarContrato",
					"outputs": [],
					"stateMutability": "nonpayable",
					"type": "function"
				},
				{
					"inputs": [],
					"name": "estadoDelContrato",
					"outputs": [
						{
							"internalType": "bool",
							"name": "pausado",
							"type": "bool"
						},
						{
							"internalType": "uint256",
							"name": "totalContrato",
							"type": "uint256"
						},
						{
							"internalType": "uint256",
							"name": "limite",
							"type": "uint256"
						},
						{
							"internalType": "uint256",
							"name": "umbral",
							"type": "uint256"
						},
						{
							"internalType": "address",
							"name": "feedActual",
							"type": "address"
						}
					],
					"stateMutability": "view",
					"type": "function"
				},
				{
					"inputs": [
						{
							"internalType": "bytes32",
							"name": "role",
							"type": "bytes32"
						}
					],
					"name": "getRoleAdmin",
					"outputs": [
						{
							"internalType": "bytes32",
							"name": "",
							"type": "bytes32"
						}
					],
					"stateMutability": "view",
					"type": "function"
				},
				{
					"inputs": [
						{
							"internalType": "bytes32",
							"name": "role",
							"type": "bytes32"
						},
						{
							"internalType": "address",
							"name": "account",
							"type": "address"
						}
					],
					"name": "grantRole",
					"outputs": [],
					"stateMutability": "nonpayable",
					"type": "function"
				},
				{
					"inputs": [
						{
							"internalType": "bytes32",
							"name": "role",
							"type": "bytes32"
						},
						{
							"internalType": "address",
							"name": "account",
							"type": "address"
						}
					],
					"name": "hasRole",
					"outputs": [
						{
							"internalType": "bool",
							"name": "",
							"type": "bool"
						}
					],
					"stateMutability": "view",
					"type": "function"
				},
				{
					"inputs": [],
					"name": "owner",
					"outputs": [
						{
							"internalType": "address",
							"name": "",
							"type": "address"
						}
					],
					"stateMutability": "view",
					"type": "function"
				},
				{
					"inputs": [],
					"name": "pausarContrato",
					"outputs": [],
					"stateMutability": "nonpayable",
					"type": "function"
				},
				{
					"inputs": [],
					"name": "paused",
					"outputs": [
						{
							"internalType": "bool",
							"name": "",
							"type": "bool"
						}
					],
					"stateMutability": "view",
					"type": "function"
				},
				{
					"inputs": [],
					"name": "renounceOwnership",
					"outputs": [],
					"stateMutability": "nonpayable",
					"type": "function"
				},
				{
					"inputs": [
						{
							"internalType": "bytes32",
							"name": "role",
							"type": "bytes32"
						},
						{
							"internalType": "address",
							"name": "callerConfirmation",
							"type": "address"
						}
					],
					"name": "renounceRole",
					"outputs": [],
					"stateMutability": "nonpayable",
					"type": "function"
				},
				{
					"inputs": [
						{
							"internalType": "uint256",
							"name": "_monto",
							"type": "uint256"
						}
					],
					"name": "retirarETH",
					"outputs": [],
					"stateMutability": "nonpayable",
					"type": "function"
				},
				{
					"inputs": [
						{
							"internalType": "uint256",
							"name": "_monto",
							"type": "uint256"
						}
					],
					"name": "retirarUSDC",
					"outputs": [],
					"stateMutability": "nonpayable",
					"type": "function"
				},
				{
					"inputs": [
						{
							"internalType": "address",
							"name": "cuenta",
							"type": "address"
						},
						{
							"internalType": "bytes32",
							"name": "rol",
							"type": "bytes32"
						}
					],
					"name": "revocarRol",
					"outputs": [],
					"stateMutability": "nonpayable",
					"type": "function"
				},
				{
					"inputs": [
						{
							"internalType": "bytes32",
							"name": "role",
							"type": "bytes32"
						},
						{
							"internalType": "address",
							"name": "account",
							"type": "address"
						}
					],
					"name": "revokeRole",
					"outputs": [],
					"stateMutability": "nonpayable",
					"type": "function"
				},
				{
					"inputs": [],
					"name": "s_feed",
					"outputs": [
						{
							"internalType": "contract AggregatorV3Interface",
							"name": "",
							"type": "address"
						}
					],
					"stateMutability": "view",
					"type": "function"
				},
				{
					"inputs": [
						{
							"internalType": "address",
							"name": "_nuevoFeed",
							"type": "address"
						}
					],
					"name": "setFeeds",
					"outputs": [],
					"stateMutability": "nonpayable",
					"type": "function"
				},
				{
					"inputs": [
						{
							"internalType": "bytes4",
							"name": "interfaceId",
							"type": "bytes4"
						}
					],
					"name": "supportsInterface",
					"outputs": [
						{
							"internalType": "bool",
							"name": "",
							"type": "bool"
						}
					],
					"stateMutability": "view",
					"type": "function"
				},
				{
					"inputs": [
						{
							"internalType": "address",
							"name": "newOwner",
							"type": "address"
						}
					],
					"name": "transferOwnership",
					"outputs": [],
					"stateMutability": "nonpayable",
					"type": "function"
				},
				{
					"inputs": [
						{
							"internalType": "address",
							"name": "_nuevoOwner",
							"type": "address"
						}
					],
					"name": "transferirOwner",
					"outputs": [],
					"stateMutability": "nonpayable",
					"type": "function"
				},
				{
					"inputs": [],
					"name": "verBoveda",
					"outputs": [
						{
							"internalType": "uint256",
							"name": "monto_",
							"type": "uint256"
						}
					],
					"stateMutability": "view",
					"type": "function"
				},
				{
					"inputs": [],
					"name": "verSaldoETH",
					"outputs": [
						{
							"internalType": "uint256",
							"name": "saldo_",
							"type": "uint256"
						}
					],
					"stateMutability": "view",
					"type": "function"
				},
				{
					"inputs": [],
					"name": "verSaldoUSDC",
					"outputs": [
						{
							"internalType": "uint256",
							"name": "saldo_",
							"type": "uint256"
						}
					],
					"stateMutability": "view",
					"type": "function"
				},
				{
					"inputs": [],
					"name": "verTotalContrato",
					"outputs": [
						{
							"internalType": "uint256",
							"name": "",
							"type": "uint256"
						}
					],
					"stateMutability": "view",
					"type": "function"
				},
				{
					"inputs": [],
					"name": "verTotalDepositos",
					"outputs": [
						{
							"internalType": "uint256",
							"name": "",
							"type": "uint256"
						}
					],
					"stateMutability": "view",
					"type": "function"
				},
				{
					"inputs": [],
					"name": "verTotalRetiros",
					"outputs": [
						{
							"internalType": "uint256",
							"name": "",
							"type": "uint256"
						}
					],
					"stateMutability": "view",
					"type": "function"
				},
				{
					"stateMutability": "payable",
					"type": "receive"
				}
			],
			"devdoc": {
				"errors": {
					"AccessControlBadConfirmation()": [
						{
							"details": "The caller of a function is not the expected one. NOTE: Don't confuse with {AccessControlUnauthorizedAccount}."
						}
					],
					"AccessControlUnauthorizedAccount(address,bytes32)": [
						{
							"details": "The `account` is missing a role."
						}
					],
					"EnforcedPause()": [
						{
							"details": "The operation failed because the contract is paused."
						}
					],
					"ExpectedPause()": [
						{
							"details": "The operation failed because the contract is not paused."
						}
					],
					"KipuBank_ExtraccionRechazada(address,uint256)": [
						{
							"params": {
								"monto": "monto a extraer de la boveda",
								"titular": "titular de la cuenta a realizar la extracción"
							}
						}
					],
					"KipuBank_FeedInvalido(address)": [
						{
							"params": {
								"nuevoFeed": "Es el data feed erroneo que quiso ser ingresado"
							}
						}
					],
					"KipuBank_InicializacionInvalida(uint256,uint256)": [
						{
							"params": {
								"limite": "limite del contrato",
								"umbral": "umbral del contrato"
							}
						}
					],
					"KipuBank_LimiteExcedido(uint256)": [
						{
							"params": {
								"monto": "monto que excede el limite a depositar"
							}
						}
					],
					"KipuBank_LimiteInvalido(uint256)": [
						{
							"params": {
								"limite": "limite que es invalido"
							}
						}
					],
					"KipuBank_MontoCero(address)": [
						{
							"params": {
								"titular": "titular que emite una transaccion con valor nulo"
							}
						}
					],
					"KipuBank_NoAutorizado(address)": [
						{
							"params": {
								"sender": "Es la cuenta que quiso acceder a la función"
							}
						}
					],
					"KipuBank_OperacionNoPermitida(address)": [
						{
							"params": {
								"titular": "titular que realizo la operacion no permitida"
							}
						}
					],
					"KipuBank_OraculoComprometido(uint256)": [
						{
							"params": {
								"precio": "Precio que dió el óraculo"
							}
						}
					],
					"KipuBank_PrecioDesactualizado(uint256)": [
						{
							"params": {
								"precio": "Es el precio que quedó desactualizado"
							}
						}
					],
					"KipuBank_SaldoInsuficiente(address,uint256)": [
						{
							"params": {
								"monto": "monto a retirar",
								"titular": "titular con saldo insuficiente"
							}
						}
					],
					"KipuBank_UmbralExcedido(uint256)": [
						{
							"params": {
								"monto": "que excede el umbral establecido"
							}
						}
					],
					"KipuBank_UmbralInvalido(uint256)": [
						{
							"params": {
								"umbral": "umbral que es invalido"
							}
						}
					],
					"OwnableInvalidOwner(address)": [
						{
							"details": "The owner is not a valid owner account. (eg. `address(0)`)"
						}
					],
					"OwnableUnauthorizedAccount(address)": [
						{
							"details": "The caller account is not authorized to perform an operation."
						}
					],
					"SafeERC20FailedOperation(address)": [
						{
							"details": "An operation with an ERC-20 token failed."
						}
					]
				},
				"events": {
					"KipuBank_ContratoDespausado(address,uint256)": {
						"params": {
							"sender": "Es la direccion que despausó el contrato",
							"tiempo": "Es el tiempo en el que fue despausado"
						}
					},
					"KipuBank_ContratoPausado(address,uint256)": {
						"params": {
							"sender": "Es la dirección que pauso el contrato",
							"tiempo": "Es el tiempo en el que fue pausado el contrato"
						}
					},
					"KipuBank_DepositoRealizado(address,uint256)": {
						"params": {
							"monto": "monto que se desea depositar",
							"titular": "titular que realiza el detposito"
						}
					},
					"KipuBank_ExtraccionRealizada(address,uint256)": {
						"params": {
							"monto": "monto que se desea extraer",
							"titular": "titular que desea realizar la extracción"
						}
					},
					"KipuBank_FeedActualizado(address,address)": {
						"params": {
							"antiguoFeed": "Es el antiguo data feed utilizado",
							"nuevoFeed": "Es el nuevo data feed a ser utilizado"
						}
					},
					"KipuBank_MontoAprobado(address,uint256)": {
						"params": {
							"cuenta": "Es la cuenta que va a autorizar",
							"monto": "Es el monto autorizado"
						}
					},
					"KipuBank_OwnerTransferido(address,address)": {
						"params": {
							"ownerNuevo": "Es el nuevo owner del contrato",
							"ownerViejo": "Es el anterior owner del contrato"
						}
					},
					"KipuBank_RolDado(address,bytes32)": {
						"params": {
							"cuenta": "Es la cuenta que recibe el nuevo rol",
							"rol": "Es el rol que se le asigna a la cuenta"
						}
					},
					"KipuBank_RolRevocado(address,bytes32)": {
						"params": {
							"cuenta": "Es la cuenta a la que se revoca el rol",
							"rol": "Es el rol que se elimina de la cuenta"
						}
					},
					"Paused(address)": {
						"details": "Emitted when the pause is triggered by `account`."
					},
					"RoleAdminChanged(bytes32,bytes32,bytes32)": {
						"details": "Emitted when `newAdminRole` is set as ``role``'s admin role, replacing `previousAdminRole` `DEFAULT_ADMIN_ROLE` is the starting admin for all roles, despite {RoleAdminChanged} not being emitted to signal this."
					},
					"RoleGranted(bytes32,address,address)": {
						"details": "Emitted when `account` is granted `role`. `sender` is the account that originated the contract call. This account bears the admin role (for the granted role). Expected in cases where the role was granted using the internal {AccessControl-_grantRole}."
					},
					"RoleRevoked(bytes32,address,address)": {
						"details": "Emitted when `account` is revoked `role`. `sender` is the account that originated the contract call:   - if using `revokeRole`, it is the admin role bearer   - if using `renounceRole`, it is the role bearer (i.e. `account`)"
					},
					"Unpaused(address)": {
						"details": "Emitted when the pause is lifted by `account`."
					}
				},
				"kind": "dev",
				"methods": {
					"aprobarMontoUSDC(uint256)": {
						"params": {
							"_monto": "Es el monto a aprobar"
						}
					},
					"balanceOf(address,address)": {
						"params": {
							"titular": "Es el titular de la cuenta",
							"token": "Es el token que se desea consultar"
						},
						"returns": {
							"_0": "Retorna un entero sin signo, que es el saldo correspondiente"
						}
					},
					"constructor": {
						"details": "Se deben generar el limite, umbral y las direcciones del data feed y el token a utilizar al momento de desplegar el contrato",
						"params": {
							"_feed": "Direccion del data feed a utlizar",
							"_limite": "Limite global que se permite por transaccion",
							"_tokenERC20": "Direccion del token ERC20 a utilizar",
							"_umbral": "Umbral de limite de retiros"
						}
					},
					"darRol(address,bytes32)": {
						"params": {
							"cuenta": "Es la cuenta que recibe el rol",
							"rol": "Es el rol dado a la cuenta"
						}
					},
					"depositarETH()": {
						"details": "Es payable y usa el modificador de verificarDepositos"
					},
					"depositarUSDC(uint256)": {
						"details": "Es payable y usa el modificador de verificarDepositosSe utiliza la interfaz SafeIERC20 para realizar la transferencia de token ERC20No se marca como payable ya que es un token ERC20 y no EtherNecesitamos la aprobación del dueño de los USDC para depositar"
					},
					"despausarContrato()": {
						"details": "Solo pueden acceder a ella el owner el aquellos que tengan rol PAUSER"
					},
					"getRoleAdmin(bytes32)": {
						"details": "Returns the admin role that controls `role`. See {grantRole} and {revokeRole}. To change a role's admin, use {_setRoleAdmin}."
					},
					"grantRole(bytes32,address)": {
						"details": "Grants `role` to `account`. If `account` had not been already granted `role`, emits a {RoleGranted} event. Requirements: - the caller must have ``role``'s admin role. May emit a {RoleGranted} event."
					},
					"hasRole(bytes32,address)": {
						"details": "Returns `true` if `account` has been granted `role`."
					},
					"owner()": {
						"details": "Returns the address of the current owner."
					},
					"pausarContrato()": {
						"details": "Solo pueden acceder a ella el owner el aquellos que tengan rol PAUSER"
					},
					"paused()": {
						"details": "Returns true if the contract is paused, and false otherwise."
					},
					"renounceOwnership()": {
						"details": "Leaves the contract without owner. It will not be possible to call `onlyOwner` functions. Can only be called by the current owner. NOTE: Renouncing ownership will leave the contract without an owner, thereby disabling any functionality that is only available to the owner."
					},
					"renounceRole(bytes32,address)": {
						"details": "Revokes `role` from the calling account. Roles are often managed via {grantRole} and {revokeRole}: this function's purpose is to provide a mechanism for accounts to lose their privileges if they are compromised (such as when a trusted device is misplaced). If the calling account had been revoked `role`, emits a {RoleRevoked} event. Requirements: - the caller must be `callerConfirmation`. May emit a {RoleRevoked} event."
					},
					"retirarETH(uint256)": {
						"params": {
							"_monto": "es el monto a retirar de la boveda"
						}
					},
					"retirarUSDC(uint256)": {
						"params": {
							"_monto": "es el monto a retirar de la boveda"
						}
					},
					"revocarRol(address,bytes32)": {
						"params": {
							"cuenta": "Es la cuenta a la que se le revoca el rol",
							"rol": "Es el rol revocado de la cuenta"
						}
					},
					"revokeRole(bytes32,address)": {
						"details": "Revokes `role` from `account`. If `account` had been granted `role`, emits a {RoleRevoked} event. Requirements: - the caller must have ``role``'s admin role. May emit a {RoleRevoked} event."
					},
					"setFeeds(address)": {
						"details": "Solo pueden acceder a ella el owner o los que tengan el rol FEED_MANAGER",
						"params": {
							"_nuevoFeed": "Será la dirección del nuevo data feed del contrato"
						}
					},
					"transferOwnership(address)": {
						"details": "Transfers ownership of the contract to a new account (`newOwner`). Can only be called by the current owner."
					},
					"transferirOwner(address)": {
						"details": "El modificador de onlyOwner es necesario para seguridad",
						"params": {
							"_nuevoOwner": "Será la dirección del nuevo propietario del contrato"
						}
					},
					"verBoveda()": {
						"returns": {
							"monto_": "devuelve el saldo depositado total en USD depositado por cada titular"
						}
					},
					"verSaldoETH()": {
						"returns": {
							"saldo_": "Retornal el saldo en ETH"
						}
					},
					"verSaldoUSDC()": {
						"returns": {
							"saldo_": "Retorna el saldo en USDC"
						}
					},
					"verTotalContrato()": {
						"returns": {
							"_0": "Devuelve el saldo del contrato en USD"
						}
					},
					"verTotalDepositos()": {
						"returns": {
							"_0": "Devuelve la cantidad de depositos"
						}
					},
					"verTotalRetiros()": {
						"returns": {
							"_0": "Devuelve la cantidad de retiros"
						}
					}
				},
				"stateVariables": {
					"DECIMAL_FACTOR": {
						"details": "Se hace la suma de los decimales de ethereum y de los decimales de la conversión de chainlink para restarles los decimales de USDC, nos da la base igualitaria"
					},
					"HEARTBEAT": {
						"details": "Por convención se establece en 3600"
					},
					"_cuentasMultiToken": {
						"details": "En el primer mapping tenemos la direcciones del token, en el segundo mapping tenemos las direcciones de los titulares"
					},
					"_totalContrato": {
						"details": "El total del contrato es en USD"
					},
					"i_bankCap": {
						"details": "Tener en cuenta que el limite global será en USD"
					},
					"i_usdc": {
						"details": "Es especifico para el token USDC"
					},
					"s_feed": {
						"details": "Utilizamos el data feed de Chainlink"
					}
				},
				"version": 1
			},
			"evm": {
				"assembly": "    /* \"contracts/KipuBank.sol\":872:21507  contract KipuBank is ReentrancyGuard, Ownable, Pausable, AccessControl {... */\n  mstore(0x40, 0xe0)\n    /* \"contracts/KipuBank.sol\":2333:2334  0 */\n  0x00\n    /* \"contracts/KipuBank.sol\":2307:2334  uint private _depositos = 0 */\n  0x04\n  sstore\n    /* \"contracts/KipuBank.sol\":2414:2415  0 */\n  0x00\n    /* \"contracts/KipuBank.sol\":2390:2415  uint private _retiros = 0 */\n  0x05\n  sstore\n    /* \"contracts/KipuBank.sol\":2554:2555  0 */\n  0x00\n    /* \"contracts/KipuBank.sol\":2524:2555  uint private _totalContrato = 0 */\n  0x06\n  sstore\n    /* \"contracts/KipuBank.sol\":7944:8755  constructor(... */\n  callvalue\n  dup1\n  iszero\n  tag_1\n  jumpi\n  revert(0x00, 0x00)\ntag_1:\n  pop\n  mload(0x40)\n  sub(codesize, bytecodeSize)\n  dup1\n  bytecodeSize\n  dup4\n  codecopy\n  dup2\n  dup2\n  add\n  0x40\n  mstore\n  dup2\n  add\n  swap1\n  tag_2\n  swap2\n  swap1\n  tag_3\n  jump\t// in\ntag_2:\n    /* \"contracts/KipuBank.sol\":8098:8104  _owner */\n  dup3\n    /* \"@openzeppelin/contracts/security/ReentrancyGuard.sol\":1716:1717  1 */\n  0x01\n    /* \"@openzeppelin/contracts/security/ReentrancyGuard.sol\":1821:1828  _status */\n  0x00\n    /* \"@openzeppelin/contracts/security/ReentrancyGuard.sol\":1821:1843  _status = _NOT_ENTERED */\n  dup2\n  swap1\n  sstore\n  pop\n    /* \"@openzeppelin/contracts/access/Ownable.sol\":1297:1298  0 */\n  0x00\n    /* \"@openzeppelin/contracts/access/Ownable.sol\":1273:1299  initialOwner == address(0) */\n  0xffffffffffffffffffffffffffffffffffffffff\n  and\n    /* \"@openzeppelin/contracts/access/Ownable.sol\":1273:1285  initialOwner */\n  dup2\n    /* \"@openzeppelin/contracts/access/Ownable.sol\":1273:1299  initialOwner == address(0) */\n  0xffffffffffffffffffffffffffffffffffffffff\n  and\n  sub\n    /* \"@openzeppelin/contracts/access/Ownable.sol\":1269:1364  if (initialOwner == address(0)) {... */\n  tag_9\n  jumpi\n    /* \"@openzeppelin/contracts/access/Ownable.sol\":1350:1351  0 */\n  0x00\n    /* \"@openzeppelin/contracts/access/Ownable.sol\":1322:1353  OwnableInvalidOwner(address(0)) */\n  mload(0x40)\n  0x1e4fbdf700000000000000000000000000000000000000000000000000000000\n  dup2\n  mstore\n  0x04\n  add\n  tag_10\n  swap2\n  swap1\n  tag_11\n  jump\t// in\ntag_10:\n  mload(0x40)\n  dup1\n  swap2\n  sub\n  swap1\n  revert\n    /* \"@openzeppelin/contracts/access/Ownable.sol\":1269:1364  if (initialOwner == address(0)) {... */\ntag_9:\n    /* \"@openzeppelin/contracts/access/Ownable.sol\":1373:1405  _transferOwnership(initialOwner) */\n  tag_12\n    /* \"@openzeppelin/contracts/access/Ownable.sol\":1392:1404  initialOwner */\n  dup2\n    /* \"@openzeppelin/contracts/access/Ownable.sol\":1373:1391  _transferOwnership */\n  shl(0x20, tag_13)\n    /* \"@openzeppelin/contracts/access/Ownable.sol\":1373:1405  _transferOwnership(initialOwner) */\n  0x20\n  shr\n  jump\t// in\ntag_12:\n    /* \"@openzeppelin/contracts/access/Ownable.sol\":1225:1412  constructor(address initialOwner) {... */\n  pop\n    /* \"contracts/KipuBank.sol\":8130:8131  0 */\n  0x00\n    /* \"contracts/KipuBank.sol\":8119:8126  _limite */\n  dup6\n    /* \"contracts/KipuBank.sol\":8119:8131  _limite == 0 */\n  sub\n    /* \"contracts/KipuBank.sol\":8116:8172  if(_limite == 0) revert KipuBank_LimiteInvalido(_limite) */\n  tag_15\n  jumpi\n    /* \"contracts/KipuBank.sol\":8164:8171  _limite */\n  dup5\n    /* \"contracts/KipuBank.sol\":8140:8172  KipuBank_LimiteInvalido(_limite) */\n  mload(0x40)\n  0xf1fdfd2b00000000000000000000000000000000000000000000000000000000\n  dup2\n  mstore\n  0x04\n  add\n  tag_16\n  swap2\n  swap1\n  tag_17\n  jump\t// in\ntag_16:\n  mload(0x40)\n  dup1\n  swap2\n  sub\n  swap1\n  revert\n    /* \"contracts/KipuBank.sol\":8116:8172  if(_limite == 0) revert KipuBank_LimiteInvalido(_limite) */\ntag_15:\n    /* \"contracts/KipuBank.sol\":8196:8197  0 */\n  0x00\n    /* \"contracts/KipuBank.sol\":8185:8192  _umbral */\n  dup5\n    /* \"contracts/KipuBank.sol\":8185:8197  _umbral == 0 */\n  sub\n    /* \"contracts/KipuBank.sol\":8182:8238  if(_umbral == 0) revert KipuBank_UmbralInvalido(_umbral) */\n  tag_18\n  jumpi\n    /* \"contracts/KipuBank.sol\":8230:8237  _umbral */\n  dup4\n    /* \"contracts/KipuBank.sol\":8206:8238  KipuBank_UmbralInvalido(_umbral) */\n  mload(0x40)\n  0x5052fe8e00000000000000000000000000000000000000000000000000000000\n  dup2\n  mstore\n  0x04\n  add\n  tag_19\n  swap2\n  swap1\n  tag_17\n  jump\t// in\ntag_19:\n  mload(0x40)\n  dup1\n  swap2\n  sub\n  swap1\n  revert\n    /* \"contracts/KipuBank.sol\":8182:8238  if(_umbral == 0) revert KipuBank_UmbralInvalido(_umbral) */\ntag_18:\n    /* \"contracts/KipuBank.sol\":8261:8268  _limite */\n  dup5\n    /* \"contracts/KipuBank.sol\":8251:8258  _umbral */\n  dup5\n    /* \"contracts/KipuBank.sol\":8251:8268  _umbral > _limite */\n  gt\n    /* \"contracts/KipuBank.sol\":8248:8326  if(_umbral > _limite) revert KipuBank_InicializacionInvalida(_limite, _umbral) */\n  iszero\n  tag_20\n  jumpi\n    /* \"contracts/KipuBank.sol\":8309:8316  _limite */\n  dup5\n    /* \"contracts/KipuBank.sol\":8318:8325  _umbral */\n  dup5\n    /* \"contracts/KipuBank.sol\":8277:8326  KipuBank_InicializacionInvalida(_limite, _umbral) */\n  mload(0x40)\n  0x3122626300000000000000000000000000000000000000000000000000000000\n  dup2\n  mstore\n  0x04\n  add\n  tag_21\n  swap3\n  swap2\n  swap1\n  tag_22\n  jump\t// in\ntag_21:\n  mload(0x40)\n  dup1\n  swap2\n  sub\n  swap1\n  revert\n    /* \"contracts/KipuBank.sol\":8248:8326  if(_umbral > _limite) revert KipuBank_InicializacionInvalida(_limite, _umbral) */\ntag_20:\n    /* \"contracts/KipuBank.sol\":8356:8357  0 */\n  0x00\n    /* \"contracts/KipuBank.sol\":8339:8358  _feed == address(0) */\n  0xffffffffffffffffffffffffffffffffffffffff\n  and\n    /* \"contracts/KipuBank.sol\":8339:8344  _feed */\n  dup3\n    /* \"contracts/KipuBank.sol\":8339:8358  _feed == address(0) */\n  0xffffffffffffffffffffffffffffffffffffffff\n  and\n  sub\n    /* \"contracts/KipuBank.sol\":8336:8395  if(_feed == address(0)) revert KipuBank_DireccionInvalida() */\n  tag_23\n  jumpi\n    /* \"contracts/KipuBank.sol\":8367:8395  KipuBank_DireccionInvalida() */\n  mload(0x40)\n  0x463858d600000000000000000000000000000000000000000000000000000000\n  dup2\n  mstore\n  0x04\n  add\n  mload(0x40)\n  dup1\n  swap2\n  sub\n  swap1\n  revert\n    /* \"contracts/KipuBank.sol\":8336:8395  if(_feed == address(0)) revert KipuBank_DireccionInvalida() */\ntag_23:\n    /* \"contracts/KipuBank.sol\":8431:8432  0 */\n  0x00\n    /* \"contracts/KipuBank.sol\":8408:8433  _tokenERC20 == address(0) */\n  0xffffffffffffffffffffffffffffffffffffffff\n  and\n    /* \"contracts/KipuBank.sol\":8408:8419  _tokenERC20 */\n  dup2\n    /* \"contracts/KipuBank.sol\":8408:8433  _tokenERC20 == address(0) */\n  0xffffffffffffffffffffffffffffffffffffffff\n  and\n  sub\n    /* \"contracts/KipuBank.sol\":8405:8470  if(_tokenERC20 == address(0)) revert KipuBank_DireccionInvalida() */\n  tag_24\n  jumpi\n    /* \"contracts/KipuBank.sol\":8442:8470  KipuBank_DireccionInvalida() */\n  mload(0x40)\n  0x463858d600000000000000000000000000000000000000000000000000000000\n  dup2\n  mstore\n  0x04\n  add\n  mload(0x40)\n  dup1\n  swap2\n  sub\n  swap1\n  revert\n    /* \"contracts/KipuBank.sol\":8405:8470  if(_tokenERC20 == address(0)) revert KipuBank_DireccionInvalida() */\ntag_24:\n    /* \"contracts/KipuBank.sol\":8489:8527  _grantRole(DEFAULT_ADMIN_ROLE, _owner) */\n  tag_25\n    /* \"@openzeppelin/contracts/access/AccessControl.sol\":2241:2245  0x00 */\n  0x00\n    /* \"contracts/KipuBank.sol\":8500:8518  DEFAULT_ADMIN_ROLE */\n  0x00\n  shl\n    /* \"contracts/KipuBank.sol\":8520:8526  _owner */\n  dup5\n    /* \"contracts/KipuBank.sol\":8489:8499  _grantRole */\n  shl(0x20, tag_26)\n    /* \"contracts/KipuBank.sol\":8489:8527  _grantRole(DEFAULT_ADMIN_ROLE, _owner) */\n  0x20\n  shr\n  jump\t// in\ntag_25:\n  pop\n    /* \"contracts/KipuBank.sol\":8537:8563  _grantRole(PAUSER, _owner) */\n  tag_27\n    /* \"contracts/KipuBank.sol\":1028:1047  keccak256(\"PAUSER\") */\n  0x539440820030c4994db4e31b6b800deafd503688728f932addfe7a410515c14c\n    /* \"contracts/KipuBank.sol\":8556:8562  _owner */\n  dup5\n    /* \"contracts/KipuBank.sol\":8537:8547  _grantRole */\n  shl(0x20, tag_26)\n    /* \"contracts/KipuBank.sol\":8537:8563  _grantRole(PAUSER, _owner) */\n  0x20\n  shr\n  jump\t// in\ntag_27:\n  pop\n    /* \"contracts/KipuBank.sol\":8573:8605  _grantRole(FEED_MANAGER, _owner) */\n  tag_28\n    /* \"contracts/KipuBank.sol\":1142:1167  keccak256(\"FEED_MANAGER\") */\n  0x9bbb3ee3bdfbe971682b08854a620ca4bf696f8e0c269e5c5b129a18e64d29df\n    /* \"contracts/KipuBank.sol\":8598:8604  _owner */\n  dup5\n    /* \"contracts/KipuBank.sol\":8573:8583  _grantRole */\n  shl(0x20, tag_26)\n    /* \"contracts/KipuBank.sol\":8573:8605  _grantRole(FEED_MANAGER, _owner) */\n  0x20\n  shr\n  jump\t// in\ntag_28:\n  pop\n    /* \"contracts/KipuBank.sol\":8632:8643  _tokenERC20 */\n  dup1\n    /* \"contracts/KipuBank.sol\":8616:8644  i_usdc = IERC20(_tokenERC20) */\n  0xffffffffffffffffffffffffffffffffffffffff\n  and\n  0x80\n  dup2\n  0xffffffffffffffffffffffffffffffffffffffff\n  and\n  dup2\n  mstore\n  pop\n  pop\n    /* \"contracts/KipuBank.sol\":8685:8690  _feed */\n  dup2\n    /* \"contracts/KipuBank.sol\":8654:8660  s_feed */\n  0x03\n  0x00\n    /* \"contracts/KipuBank.sol\":8654:8691  s_feed = AggregatorV3Interface(_feed) */\n  0x0100\n  exp\n  dup2\n  sload\n  dup2\n  0xffffffffffffffffffffffffffffffffffffffff\n  mul\n  not\n  and\n  swap1\n  dup4\n  0xffffffffffffffffffffffffffffffffffffffff\n  and\n  mul\n  or\n  swap1\n  sstore\n  pop\n    /* \"contracts/KipuBank.sol\":8713:8720  _limite */\n  dup5\n    /* \"contracts/KipuBank.sol\":8701:8720  i_bankCap = _limite */\n  0xc0\n  dup2\n  dup2\n  mstore\n  pop\n  pop\n    /* \"contracts/KipuBank.sol\":8741:8748  _umbral */\n  dup4\n    /* \"contracts/KipuBank.sol\":8730:8748  i_umbral = _umbral */\n  0xa0\n  dup2\n  dup2\n  mstore\n  pop\n  pop\n    /* \"contracts/KipuBank.sol\":7944:8755  constructor(... */\n  pop\n  pop\n  pop\n  pop\n  pop\n    /* \"contracts/KipuBank.sol\":872:21507  contract KipuBank is ReentrancyGuard, Ownable, Pausable, AccessControl {... */\n  jump(tag_29)\n    /* \"@openzeppelin/contracts/access/Ownable.sol\":2912:3099  function _transferOwnership(address newOwner) internal virtual {... */\ntag_13:\n    /* \"@openzeppelin/contracts/access/Ownable.sol\":2985:3001  address oldOwner */\n  0x00\n    /* \"@openzeppelin/contracts/access/Ownable.sol\":3004:3010  _owner */\n  0x01\n  0x00\n  swap1\n  sload\n  swap1\n  0x0100\n  exp\n  swap1\n  div\n  0xffffffffffffffffffffffffffffffffffffffff\n  and\n    /* \"@openzeppelin/contracts/access/Ownable.sol\":2985:3010  address oldOwner = _owner */\n  swap1\n  pop\n    /* \"@openzeppelin/contracts/access/Ownable.sol\":3029:3037  newOwner */\n  dup2\n    /* \"@openzeppelin/contracts/access/Ownable.sol\":3020:3026  _owner */\n  0x01\n  0x00\n    /* \"@openzeppelin/contracts/access/Ownable.sol\":3020:3037  _owner = newOwner */\n  0x0100\n  exp\n  dup2\n  sload\n  dup2\n  0xffffffffffffffffffffffffffffffffffffffff\n  mul\n  not\n  and\n  swap1\n  dup4\n  0xffffffffffffffffffffffffffffffffffffffff\n  and\n  mul\n  or\n  swap1\n  sstore\n  pop\n    /* \"@openzeppelin/contracts/access/Ownable.sol\":3083:3091  newOwner */\n  dup2\n    /* \"@openzeppelin/contracts/access/Ownable.sol\":3052:3092  OwnershipTransferred(oldOwner, newOwner) */\n  0xffffffffffffffffffffffffffffffffffffffff\n  and\n    /* \"@openzeppelin/contracts/access/Ownable.sol\":3073:3081  oldOwner */\n  dup2\n    /* \"@openzeppelin/contracts/access/Ownable.sol\":3052:3092  OwnershipTransferred(oldOwner, newOwner) */\n  0xffffffffffffffffffffffffffffffffffffffff\n  and\n  0x8be0079c531659141344cd1fd0a4f28419497f9722a3daafe3b4186f6b6457e0\n  mload(0x40)\n  mload(0x40)\n  dup1\n  swap2\n  sub\n  swap1\n  log3\n    /* \"@openzeppelin/contracts/access/Ownable.sol\":2975:3099  {... */\n  pop\n    /* \"@openzeppelin/contracts/access/Ownable.sol\":2912:3099  function _transferOwnership(address newOwner) internal virtual {... */\n  pop\n  jump\t// out\n    /* \"@openzeppelin/contracts/access/AccessControl.sol\":6155:6471  function _grantRole(bytes32 role, address account) internal virtual returns (bool) {... */\ntag_26:\n    /* \"@openzeppelin/contracts/access/AccessControl.sol\":6232:6236  bool */\n  0x00\n    /* \"@openzeppelin/contracts/access/AccessControl.sol\":6253:6275  hasRole(role, account) */\n  tag_32\n    /* \"@openzeppelin/contracts/access/AccessControl.sol\":6261:6265  role */\n  dup4\n    /* \"@openzeppelin/contracts/access/AccessControl.sol\":6267:6274  account */\n  dup4\n    /* \"@openzeppelin/contracts/access/AccessControl.sol\":6253:6260  hasRole */\n  shl(0x20, tag_33)\n    /* \"@openzeppelin/contracts/access/AccessControl.sol\":6253:6275  hasRole(role, account) */\n  0x20\n  shr\n  jump\t// in\ntag_32:\n    /* \"@openzeppelin/contracts/access/AccessControl.sol\":6248:6465  if (!hasRole(role, account)) {... */\n  tag_34\n  jumpi\n    /* \"@openzeppelin/contracts/access/AccessControl.sol\":6323:6327  true */\n  0x01\n    /* \"@openzeppelin/contracts/access/AccessControl.sol\":6291:6297  _roles */\n  0x02\n    /* \"@openzeppelin/contracts/access/AccessControl.sol\":6291:6303  _roles[role] */\n  0x00\n    /* \"@openzeppelin/contracts/access/AccessControl.sol\":6298:6302  role */\n  dup6\n    /* \"@openzeppelin/contracts/access/AccessControl.sol\":6291:6303  _roles[role] */\n  dup2\n  mstore\n  0x20\n  add\n  swap1\n  dup2\n  mstore\n  0x20\n  add\n  0x00\n  keccak256\n    /* \"@openzeppelin/contracts/access/AccessControl.sol\":6291:6311  _roles[role].hasRole */\n  0x00\n  add\n    /* \"@openzeppelin/contracts/access/AccessControl.sol\":6291:6320  _roles[role].hasRole[account] */\n  0x00\n    /* \"@openzeppelin/contracts/access/AccessControl.sol\":6312:6319  account */\n  dup5\n    /* \"@openzeppelin/contracts/access/AccessControl.sol\":6291:6320  _roles[role].hasRole[account] */\n  0xffffffffffffffffffffffffffffffffffffffff\n  and\n  0xffffffffffffffffffffffffffffffffffffffff\n  and\n  dup2\n  mstore\n  0x20\n  add\n  swap1\n  dup2\n  mstore\n  0x20\n  add\n  0x00\n  keccak256\n  0x00\n    /* \"@openzeppelin/contracts/access/AccessControl.sol\":6291:6327  _roles[role].hasRole[account] = true */\n  0x0100\n  exp\n  dup2\n  sload\n  dup2\n  0xff\n  mul\n  not\n  and\n  swap1\n  dup4\n  iszero\n  iszero\n  mul\n  or\n  swap1\n  sstore\n  pop\n    /* \"@openzeppelin/contracts/access/AccessControl.sol\":6373:6385  _msgSender() */\n  tag_35\n    /* \"@openzeppelin/contracts/access/AccessControl.sol\":6373:6383  _msgSender */\n  shl(0x20, tag_36)\n    /* \"@openzeppelin/contracts/access/AccessControl.sol\":6373:6385  _msgSender() */\n  0x20\n  shr\n  jump\t// in\ntag_35:\n    /* \"@openzeppelin/contracts/access/AccessControl.sol\":6346:6386  RoleGranted(role, account, _msgSender()) */\n  0xffffffffffffffffffffffffffffffffffffffff\n  and\n    /* \"@openzeppelin/contracts/access/AccessControl.sol\":6364:6371  account */\n  dup3\n    /* \"@openzeppelin/contracts/access/AccessControl.sol\":6346:6386  RoleGranted(role, account, _msgSender()) */\n  0xffffffffffffffffffffffffffffffffffffffff\n  and\n    /* \"@openzeppelin/contracts/access/AccessControl.sol\":6358:6362  role */\n  dup5\n    /* \"@openzeppelin/contracts/access/AccessControl.sol\":6346:6386  RoleGranted(role, account, _msgSender()) */\n  0x2f8788117e7eff1d82e926ec794901d17c78024a50270940304540a733656f0d\n  mload(0x40)\n  mload(0x40)\n  dup1\n  swap2\n  sub\n  swap1\n  log4\n    /* \"@openzeppelin/contracts/access/AccessControl.sol\":6407:6411  true */\n  0x01\n    /* \"@openzeppelin/contracts/access/AccessControl.sol\":6400:6411  return true */\n  swap1\n  pop\n  jump(tag_31)\n    /* \"@openzeppelin/contracts/access/AccessControl.sol\":6248:6465  if (!hasRole(role, account)) {... */\ntag_34:\n    /* \"@openzeppelin/contracts/access/AccessControl.sol\":6449:6454  false */\n  0x00\n    /* \"@openzeppelin/contracts/access/AccessControl.sol\":6442:6454  return false */\n  swap1\n  pop\n    /* \"@openzeppelin/contracts/access/AccessControl.sol\":6155:6471  function _grantRole(bytes32 role, address account) internal virtual returns (bool) {... */\ntag_31:\n  swap3\n  swap2\n  pop\n  pop\n  jump\t// out\n    /* \"@openzeppelin/contracts/access/AccessControl.sol\":2830:2966  function hasRole(bytes32 role, address account) public view virtual returns (bool) {... */\ntag_33:\n    /* \"@openzeppelin/contracts/access/AccessControl.sol\":2907:2911  bool */\n  0x00\n    /* \"@openzeppelin/contracts/access/AccessControl.sol\":2930:2936  _roles */\n  0x02\n    /* \"@openzeppelin/contracts/access/AccessControl.sol\":2930:2942  _roles[role] */\n  0x00\n    /* \"@openzeppelin/contracts/access/AccessControl.sol\":2937:2941  role */\n  dup5\n    /* \"@openzeppelin/contracts/access/AccessControl.sol\":2930:2942  _roles[role] */\n  dup2\n  mstore\n  0x20\n  add\n  swap1\n  dup2\n  mstore\n  0x20\n  add\n  0x00\n  keccak256\n    /* \"@openzeppelin/contracts/access/AccessControl.sol\":2930:2950  _roles[role].hasRole */\n  0x00\n  add\n    /* \"@openzeppelin/contracts/access/AccessControl.sol\":2930:2959  _roles[role].hasRole[account] */\n  0x00\n    /* \"@openzeppelin/contracts/access/AccessControl.sol\":2951:2958  account */\n  dup4\n    /* \"@openzeppelin/contracts/access/AccessControl.sol\":2930:2959  _roles[role].hasRole[account] */\n  0xffffffffffffffffffffffffffffffffffffffff\n  and\n  0xffffffffffffffffffffffffffffffffffffffff\n  and\n  dup2\n  mstore\n  0x20\n  add\n  swap1\n  dup2\n  mstore\n  0x20\n  add\n  0x00\n  keccak256\n  0x00\n  swap1\n  sload\n  swap1\n  0x0100\n  exp\n  swap1\n  div\n  0xff\n  and\n    /* \"@openzeppelin/contracts/access/AccessControl.sol\":2923:2959  return _roles[role].hasRole[account] */\n  swap1\n  pop\n    /* \"@openzeppelin/contracts/access/AccessControl.sol\":2830:2966  function hasRole(bytes32 role, address account) public view virtual returns (bool) {... */\n  swap3\n  swap2\n  pop\n  pop\n  jump\t// out\n    /* \"@openzeppelin/contracts/utils/Context.sol\":656:752  function _msgSender() internal view virtual returns (address) {... */\ntag_36:\n    /* \"@openzeppelin/contracts/utils/Context.sol\":709:716  address */\n  0x00\n    /* \"@openzeppelin/contracts/utils/Context.sol\":735:745  msg.sender */\n  caller\n    /* \"@openzeppelin/contracts/utils/Context.sol\":728:745  return msg.sender */\n  swap1\n  pop\n    /* \"@openzeppelin/contracts/utils/Context.sol\":656:752  function _msgSender() internal view virtual returns (address) {... */\n  swap1\n  jump\t// out\n    /* \"#utility.yul\":88:205   */\ntag_41:\n    /* \"#utility.yul\":197:198   */\n  0x00\n    /* \"#utility.yul\":194:195   */\n  0x00\n    /* \"#utility.yul\":187:199   */\n  revert\n    /* \"#utility.yul\":334:411   */\ntag_43:\n    /* \"#utility.yul\":371:378   */\n  0x00\n    /* \"#utility.yul\":400:405   */\n  dup2\n    /* \"#utility.yul\":389:405   */\n  swap1\n  pop\n    /* \"#utility.yul\":334:411   */\n  swap2\n  swap1\n  pop\n  jump\t// out\n    /* \"#utility.yul\":417:539   */\ntag_44:\n    /* \"#utility.yul\":490:514   */\n  tag_58\n    /* \"#utility.yul\":508:513   */\n  dup2\n    /* \"#utility.yul\":490:514   */\n  tag_43\n  jump\t// in\ntag_58:\n    /* \"#utility.yul\":483:488   */\n  dup2\n    /* \"#utility.yul\":480:515   */\n  eq\n    /* \"#utility.yul\":470:533   */\n  tag_59\n  jumpi\n    /* \"#utility.yul\":529:530   */\n  0x00\n    /* \"#utility.yul\":526:527   */\n  0x00\n    /* \"#utility.yul\":519:531   */\n  revert\n    /* \"#utility.yul\":470:533   */\ntag_59:\n    /* \"#utility.yul\":417:539   */\n  pop\n  jump\t// out\n    /* \"#utility.yul\":545:688   */\ntag_45:\n    /* \"#utility.yul\":602:607   */\n  0x00\n    /* \"#utility.yul\":633:639   */\n  dup2\n    /* \"#utility.yul\":627:640   */\n  mload\n    /* \"#utility.yul\":618:640   */\n  swap1\n  pop\n    /* \"#utility.yul\":649:682   */\n  tag_61\n    /* \"#utility.yul\":676:681   */\n  dup2\n    /* \"#utility.yul\":649:682   */\n  tag_44\n  jump\t// in\ntag_61:\n    /* \"#utility.yul\":545:688   */\n  swap3\n  swap2\n  pop\n  pop\n  jump\t// out\n    /* \"#utility.yul\":694:820   */\ntag_46:\n    /* \"#utility.yul\":731:738   */\n  0x00\n    /* \"#utility.yul\":771:813   */\n  0xffffffffffffffffffffffffffffffffffffffff\n    /* \"#utility.yul\":764:769   */\n  dup3\n    /* \"#utility.yul\":760:814   */\n  and\n    /* \"#utility.yul\":749:814   */\n  swap1\n  pop\n    /* \"#utility.yul\":694:820   */\n  swap2\n  swap1\n  pop\n  jump\t// out\n    /* \"#utility.yul\":826:922   */\ntag_47:\n    /* \"#utility.yul\":863:870   */\n  0x00\n    /* \"#utility.yul\":892:916   */\n  tag_64\n    /* \"#utility.yul\":910:915   */\n  dup3\n    /* \"#utility.yul\":892:916   */\n  tag_46\n  jump\t// in\ntag_64:\n    /* \"#utility.yul\":881:916   */\n  swap1\n  pop\n    /* \"#utility.yul\":826:922   */\n  swap2\n  swap1\n  pop\n  jump\t// out\n    /* \"#utility.yul\":928:1050   */\ntag_48:\n    /* \"#utility.yul\":1001:1025   */\n  tag_66\n    /* \"#utility.yul\":1019:1024   */\n  dup2\n    /* \"#utility.yul\":1001:1025   */\n  tag_47\n  jump\t// in\ntag_66:\n    /* \"#utility.yul\":994:999   */\n  dup2\n    /* \"#utility.yul\":991:1026   */\n  eq\n    /* \"#utility.yul\":981:1044   */\n  tag_67\n  jumpi\n    /* \"#utility.yul\":1040:1041   */\n  0x00\n    /* \"#utility.yul\":1037:1038   */\n  0x00\n    /* \"#utility.yul\":1030:1042   */\n  revert\n    /* \"#utility.yul\":981:1044   */\ntag_67:\n    /* \"#utility.yul\":928:1050   */\n  pop\n  jump\t// out\n    /* \"#utility.yul\":1056:1199   */\ntag_49:\n    /* \"#utility.yul\":1113:1118   */\n  0x00\n    /* \"#utility.yul\":1144:1150   */\n  dup2\n    /* \"#utility.yul\":1138:1151   */\n  mload\n    /* \"#utility.yul\":1129:1151   */\n  swap1\n  pop\n    /* \"#utility.yul\":1160:1193   */\n  tag_69\n    /* \"#utility.yul\":1187:1192   */\n  dup2\n    /* \"#utility.yul\":1160:1193   */\n  tag_48\n  jump\t// in\ntag_69:\n    /* \"#utility.yul\":1056:1199   */\n  swap3\n  swap2\n  pop\n  pop\n  jump\t// out\n    /* \"#utility.yul\":1205:2182   */\ntag_3:\n    /* \"#utility.yul\":1311:1317   */\n  0x00\n    /* \"#utility.yul\":1319:1325   */\n  0x00\n    /* \"#utility.yul\":1327:1333   */\n  0x00\n    /* \"#utility.yul\":1335:1341   */\n  0x00\n    /* \"#utility.yul\":1343:1349   */\n  0x00\n    /* \"#utility.yul\":1392:1395   */\n  0xa0\n    /* \"#utility.yul\":1380:1389   */\n  dup7\n    /* \"#utility.yul\":1371:1378   */\n  dup9\n    /* \"#utility.yul\":1367:1390   */\n  sub\n    /* \"#utility.yul\":1363:1396   */\n  slt\n    /* \"#utility.yul\":1360:1480   */\n  iszero\n  tag_71\n  jumpi\n    /* \"#utility.yul\":1399:1478   */\n  tag_72\n  tag_41\n  jump\t// in\ntag_72:\n    /* \"#utility.yul\":1360:1480   */\ntag_71:\n    /* \"#utility.yul\":1519:1520   */\n  0x00\n    /* \"#utility.yul\":1544:1608   */\n  tag_73\n    /* \"#utility.yul\":1600:1607   */\n  dup9\n    /* \"#utility.yul\":1591:1597   */\n  dup3\n    /* \"#utility.yul\":1580:1589   */\n  dup10\n    /* \"#utility.yul\":1576:1598   */\n  add\n    /* \"#utility.yul\":1544:1608   */\n  tag_45\n  jump\t// in\ntag_73:\n    /* \"#utility.yul\":1534:1608   */\n  swap6\n  pop\n    /* \"#utility.yul\":1490:1618   */\n  pop\n    /* \"#utility.yul\":1657:1659   */\n  0x20\n    /* \"#utility.yul\":1683:1747   */\n  tag_74\n    /* \"#utility.yul\":1739:1746   */\n  dup9\n    /* \"#utility.yul\":1730:1736   */\n  dup3\n    /* \"#utility.yul\":1719:1728   */\n  dup10\n    /* \"#utility.yul\":1715:1737   */\n  add\n    /* \"#utility.yul\":1683:1747   */\n  tag_45\n  jump\t// in\ntag_74:\n    /* \"#utility.yul\":1673:1747   */\n  swap5\n  pop\n    /* \"#utility.yul\":1628:1757   */\n  pop\n    /* \"#utility.yul\":1796:1798   */\n  0x40\n    /* \"#utility.yul\":1822:1886   */\n  tag_75\n    /* \"#utility.yul\":1878:1885   */\n  dup9\n    /* \"#utility.yul\":1869:1875   */\n  dup3\n    /* \"#utility.yul\":1858:1867   */\n  dup10\n    /* \"#utility.yul\":1854:1876   */\n  add\n    /* \"#utility.yul\":1822:1886   */\n  tag_49\n  jump\t// in\ntag_75:\n    /* \"#utility.yul\":1812:1886   */\n  swap4\n  pop\n    /* \"#utility.yul\":1767:1896   */\n  pop\n    /* \"#utility.yul\":1935:1937   */\n  0x60\n    /* \"#utility.yul\":1961:2025   */\n  tag_76\n    /* \"#utility.yul\":2017:2024   */\n  dup9\n    /* \"#utility.yul\":2008:2014   */\n  dup3\n    /* \"#utility.yul\":1997:2006   */\n  dup10\n    /* \"#utility.yul\":1993:2015   */\n  add\n    /* \"#utility.yul\":1961:2025   */\n  tag_49\n  jump\t// in\ntag_76:\n    /* \"#utility.yul\":1951:2025   */\n  swap3\n  pop\n    /* \"#utility.yul\":1906:2035   */\n  pop\n    /* \"#utility.yul\":2074:2077   */\n  0x80\n    /* \"#utility.yul\":2101:2165   */\n  tag_77\n    /* \"#utility.yul\":2157:2164   */\n  dup9\n    /* \"#utility.yul\":2148:2154   */\n  dup3\n    /* \"#utility.yul\":2137:2146   */\n  dup10\n    /* \"#utility.yul\":2133:2155   */\n  add\n    /* \"#utility.yul\":2101:2165   */\n  tag_49\n  jump\t// in\ntag_77:\n    /* \"#utility.yul\":2091:2165   */\n  swap2\n  pop\n    /* \"#utility.yul\":2045:2175   */\n  pop\n    /* \"#utility.yul\":1205:2182   */\n  swap3\n  swap6\n  pop\n  swap3\n  swap6\n  swap1\n  swap4\n  pop\n  jump\t// out\n    /* \"#utility.yul\":2188:2306   */\ntag_50:\n    /* \"#utility.yul\":2275:2299   */\n  tag_79\n    /* \"#utility.yul\":2293:2298   */\n  dup2\n    /* \"#utility.yul\":2275:2299   */\n  tag_47\n  jump\t// in\ntag_79:\n    /* \"#utility.yul\":2270:2273   */\n  dup3\n    /* \"#utility.yul\":2263:2300   */\n  mstore\n    /* \"#utility.yul\":2188:2306   */\n  pop\n  pop\n  jump\t// out\n    /* \"#utility.yul\":2312:2534   */\ntag_11:\n    /* \"#utility.yul\":2405:2409   */\n  0x00\n    /* \"#utility.yul\":2443:2445   */\n  0x20\n    /* \"#utility.yul\":2432:2441   */\n  dup3\n    /* \"#utility.yul\":2428:2446   */\n  add\n    /* \"#utility.yul\":2420:2446   */\n  swap1\n  pop\n    /* \"#utility.yul\":2456:2527   */\n  tag_81\n    /* \"#utility.yul\":2524:2525   */\n  0x00\n    /* \"#utility.yul\":2513:2522   */\n  dup4\n    /* \"#utility.yul\":2509:2526   */\n  add\n    /* \"#utility.yul\":2500:2506   */\n  dup5\n    /* \"#utility.yul\":2456:2527   */\n  tag_50\n  jump\t// in\ntag_81:\n    /* \"#utility.yul\":2312:2534   */\n  swap3\n  swap2\n  pop\n  pop\n  jump\t// out\n    /* \"#utility.yul\":2540:2658   */\ntag_51:\n    /* \"#utility.yul\":2627:2651   */\n  tag_83\n    /* \"#utility.yul\":2645:2650   */\n  dup2\n    /* \"#utility.yul\":2627:2651   */\n  tag_43\n  jump\t// in\ntag_83:\n    /* \"#utility.yul\":2622:2625   */\n  dup3\n    /* \"#utility.yul\":2615:2652   */\n  mstore\n    /* \"#utility.yul\":2540:2658   */\n  pop\n  pop\n  jump\t// out\n    /* \"#utility.yul\":2664:2886   */\ntag_17:\n    /* \"#utility.yul\":2757:2761   */\n  0x00\n    /* \"#utility.yul\":2795:2797   */\n  0x20\n    /* \"#utility.yul\":2784:2793   */\n  dup3\n    /* \"#utility.yul\":2780:2798   */\n  add\n    /* \"#utility.yul\":2772:2798   */\n  swap1\n  pop\n    /* \"#utility.yul\":2808:2879   */\n  tag_85\n    /* \"#utility.yul\":2876:2877   */\n  0x00\n    /* \"#utility.yul\":2865:2874   */\n  dup4\n    /* \"#utility.yul\":2861:2878   */\n  add\n    /* \"#utility.yul\":2852:2858   */\n  dup5\n    /* \"#utility.yul\":2808:2879   */\n  tag_51\n  jump\t// in\ntag_85:\n    /* \"#utility.yul\":2664:2886   */\n  swap3\n  swap2\n  pop\n  pop\n  jump\t// out\n    /* \"#utility.yul\":2892:3224   */\ntag_22:\n    /* \"#utility.yul\":3013:3017   */\n  0x00\n    /* \"#utility.yul\":3051:3053   */\n  0x40\n    /* \"#utility.yul\":3040:3049   */\n  dup3\n    /* \"#utility.yul\":3036:3054   */\n  add\n    /* \"#utility.yul\":3028:3054   */\n  swap1\n  pop\n    /* \"#utility.yul\":3064:3135   */\n  tag_87\n    /* \"#utility.yul\":3132:3133   */\n  0x00\n    /* \"#utility.yul\":3121:3130   */\n  dup4\n    /* \"#utility.yul\":3117:3134   */\n  add\n    /* \"#utility.yul\":3108:3114   */\n  dup6\n    /* \"#utility.yul\":3064:3135   */\n  tag_51\n  jump\t// in\ntag_87:\n    /* \"#utility.yul\":3145:3217   */\n  tag_88\n    /* \"#utility.yul\":3213:3215   */\n  0x20\n    /* \"#utility.yul\":3202:3211   */\n  dup4\n    /* \"#utility.yul\":3198:3216   */\n  add\n    /* \"#utility.yul\":3189:3195   */\n  dup5\n    /* \"#utility.yul\":3145:3217   */\n  tag_51\n  jump\t// in\ntag_88:\n    /* \"#utility.yul\":2892:3224   */\n  swap4\n  swap3\n  pop\n  pop\n  pop\n  jump\t// out\n    /* \"contracts/KipuBank.sol\":872:21507  contract KipuBank is ReentrancyGuard, Ownable, Pausable, AccessControl {... */\ntag_29:\n  mload(0x80)\n  mload(0xa0)\n  mload(0xc0)\n  codecopy(0x00, dataOffset(sub_0), dataSize(sub_0))\n  0x00\n  assignImmutable(\"0x56af87718ac6246bac727726c33ea64d0935502347b4fd185bbadeb5f3fb92bd\")\n  0x00\n  assignImmutable(\"0xcf2f0ed1818444aa7134f6644eb342f5da11c7b70eee1c41201e997b4c62f0a7\")\n  0x00\n  assignImmutable(\"0x70ebf73cb6f1a1207279604d754513a029c2ff46f9198374b0ad04887dd2881e\")\n  return(0x00, dataSize(sub_0))\nstop\n\nsub_0: assembly {\n        /* \"contracts/KipuBank.sol\":872:21507  contract KipuBank is ReentrancyGuard, Ownable, Pausable, AccessControl {... */\n      mstore(0x40, 0x80)\n      jumpi(tag_1, lt(calldatasize, 0x04))\n      shr(0xe0, calldataload(0x00))\n      dup1\n      0x82fe54b5\n      gt\n      tag_36\n      jumpi\n      dup1\n      0xc6aca33c\n      gt\n      tag_37\n      jumpi\n      dup1\n      0xd9dc8694\n      gt\n      tag_38\n      jumpi\n      dup1\n      0xd9dc8694\n      eq\n      tag_31\n      jumpi\n      dup1\n      0xf0e00dc8\n      eq\n      tag_32\n      jumpi\n      dup1\n      0xf2fde38b\n      eq\n      tag_33\n      jumpi\n      dup1\n      0xf39b1809\n      eq\n      tag_34\n      jumpi\n      dup1\n      0xf7888aec\n      eq\n      tag_35\n      jumpi\n      jump(tag_2)\n    tag_38:\n      dup1\n      0xc6aca33c\n      eq\n      tag_27\n      jumpi\n      dup1\n      0xcb398eb3\n      eq\n      tag_28\n      jumpi\n      dup1\n      0xccd6b020\n      eq\n      tag_29\n      jumpi\n      dup1\n      0xd547741f\n      eq\n      tag_30\n      jumpi\n      jump(tag_2)\n    tag_37:\n      dup1\n      0x931fb90e\n      gt\n      tag_39\n      jumpi\n      dup1\n      0x931fb90e\n      eq\n      tag_23\n      jumpi\n      dup1\n      0x93295c1c\n      eq\n      tag_24\n      jumpi\n      dup1\n      0x939495bd\n      eq\n      tag_25\n      jumpi\n      dup1\n      0xa217fddf\n      eq\n      tag_26\n      jumpi\n      jump(tag_2)\n    tag_39:\n      dup1\n      0x82fe54b5\n      eq\n      tag_19\n      jumpi\n      dup1\n      0x8648840a\n      eq\n      tag_20\n      jumpi\n      dup1\n      0x8da5cb5b\n      eq\n      tag_21\n      jumpi\n      dup1\n      0x91d14854\n      eq\n      tag_22\n      jumpi\n      jump(tag_2)\n    tag_36:\n      dup1\n      0x3d6da78e\n      gt\n      tag_40\n      jumpi\n      dup1\n      0x6f05c64c\n      gt\n      tag_41\n      jumpi\n      dup1\n      0x6f05c64c\n      eq\n      tag_15\n      jumpi\n      dup1\n      0x715018a6\n      eq\n      tag_16\n      jumpi\n      dup1\n      0x779bb136\n      eq\n      tag_17\n      jumpi\n      dup1\n      0x7dc532c5\n      eq\n      tag_18\n      jumpi\n      jump(tag_2)\n    tag_41:\n      dup1\n      0x3d6da78e\n      eq\n      tag_11\n      jumpi\n      dup1\n      0x5c975abb\n      eq\n      tag_12\n      jumpi\n      dup1\n      0x6900670c\n      eq\n      tag_13\n      jumpi\n      dup1\n      0x698b7241\n      eq\n      tag_14\n      jumpi\n      jump(tag_2)\n    tag_40:\n      dup1\n      0x248a9ca3\n      gt\n      tag_42\n      jumpi\n      dup1\n      0x248a9ca3\n      eq\n      tag_7\n      jumpi\n      dup1\n      0x2f2ff15d\n      eq\n      tag_8\n      jumpi\n      dup1\n      0x36568abe\n      eq\n      tag_9\n      jumpi\n      dup1\n      0x38d5c916\n      eq\n      tag_10\n      jumpi\n      jump(tag_2)\n    tag_42:\n      dup1\n      0x01ffc9a7\n      eq\n      tag_3\n      jumpi\n      dup1\n      0x0594cc69\n      eq\n      tag_4\n      jumpi\n      dup1\n      0x16a1930f\n      eq\n      tag_5\n      jumpi\n      dup1\n      0x1a003ecb\n      eq\n      tag_6\n      jumpi\n      jump(tag_2)\n    tag_1:\n      jumpi(tag_2, calldatasize)\n        /* \"contracts/KipuBank.sol\":8931:8941  msg.sender */\n      caller\n        /* \"contracts/KipuBank.sol\":8901:8942  KipuBank_OperacionNoPermitida(msg.sender) */\n      mload(0x40)\n      0xe1d158ff00000000000000000000000000000000000000000000000000000000\n      dup2\n      mstore\n      0x04\n      add\n      tag_45\n      swap2\n      swap1\n      tag_46\n      jump\t// in\n    tag_45:\n      mload(0x40)\n      dup1\n      swap2\n      sub\n      swap1\n      revert\n        /* \"contracts/KipuBank.sol\":872:21507  contract KipuBank is ReentrancyGuard, Ownable, Pausable, AccessControl {... */\n    tag_2:\n        /* \"contracts/KipuBank.sol\":9136:9146  msg.sender */\n      caller\n        /* \"contracts/KipuBank.sol\":9106:9147  KipuBank_OperacionNoPermitida(msg.sender) */\n      mload(0x40)\n      0xe1d158ff00000000000000000000000000000000000000000000000000000000\n      dup2\n      mstore\n      0x04\n      add\n      tag_49\n      swap2\n      swap1\n      tag_46\n      jump\t// in\n    tag_49:\n      mload(0x40)\n      dup1\n      swap2\n      sub\n      swap1\n      revert\n        /* \"contracts/KipuBank.sol\":21288:21504  function supportsInterface(bytes4 interfaceId) ... */\n    tag_3:\n      callvalue\n      dup1\n      iszero\n      tag_50\n      jumpi\n      revert(0x00, 0x00)\n    tag_50:\n      pop\n      tag_51\n      0x04\n      dup1\n      calldatasize\n      sub\n      dup2\n      add\n      swap1\n      tag_52\n      swap2\n      swap1\n      tag_53\n      jump\t// in\n    tag_52:\n      tag_54\n      jump\t// in\n    tag_51:\n      mload(0x40)\n      tag_55\n      swap2\n      swap1\n      tag_56\n      jump\t// in\n    tag_55:\n      mload(0x40)\n      dup1\n      swap2\n      sub\n      swap1\n      return\n        /* \"contracts/KipuBank.sol\":20461:20810  function estadoDelContrato() external view ... */\n    tag_4:\n      callvalue\n      dup1\n      iszero\n      tag_57\n      jumpi\n      revert(0x00, 0x00)\n    tag_57:\n      pop\n      tag_58\n      tag_59\n      jump\t// in\n    tag_58:\n      mload(0x40)\n      tag_60\n      swap6\n      swap5\n      swap4\n      swap3\n      swap2\n      swap1\n      tag_61\n      jump\t// in\n    tag_60:\n      mload(0x40)\n      dup1\n      swap2\n      sub\n      swap1\n      return\n        /* \"contracts/KipuBank.sol\":14471:14805  function depositarETH() external payable verificarDepositoETH(msg.value) whenNotPaused {... */\n    tag_5:\n      tag_62\n      tag_63\n      jump\t// in\n    tag_62:\n      stop\n        /* \"contracts/KipuBank.sol\":19282:19446  function pausarContrato() external soloOwnerORol(PAUSER) whenNotPaused {... */\n    tag_6:\n      callvalue\n      dup1\n      iszero\n      tag_64\n      jumpi\n      revert(0x00, 0x00)\n    tag_64:\n      pop\n      tag_65\n      tag_66\n      jump\t// in\n    tag_65:\n      stop\n        /* \"@openzeppelin/contracts/access/AccessControl.sol\":3786:3906  function getRoleAdmin(bytes32 role) public view virtual returns (bytes32) {... */\n    tag_7:\n      callvalue\n      dup1\n      iszero\n      tag_67\n      jumpi\n      revert(0x00, 0x00)\n    tag_67:\n      pop\n      tag_68\n      0x04\n      dup1\n      calldatasize\n      sub\n      dup2\n      add\n      swap1\n      tag_69\n      swap2\n      swap1\n      tag_70\n      jump\t// in\n    tag_69:\n      tag_71\n      jump\t// in\n    tag_68:\n      mload(0x40)\n      tag_72\n      swap2\n      swap1\n      tag_73\n      jump\t// in\n    tag_72:\n      mload(0x40)\n      dup1\n      swap2\n      sub\n      swap1\n      return\n        /* \"@openzeppelin/contracts/access/AccessControl.sol\":4202:4338  function grantRole(bytes32 role, address account) public virtual onlyRole(getRoleAdmin(role)) {... */\n    tag_8:\n      callvalue\n      dup1\n      iszero\n      tag_74\n      jumpi\n      revert(0x00, 0x00)\n    tag_74:\n      pop\n      tag_75\n      0x04\n      dup1\n      calldatasize\n      sub\n      dup2\n      add\n      swap1\n      tag_76\n      swap2\n      swap1\n      tag_77\n      jump\t// in\n    tag_76:\n      tag_78\n      jump\t// in\n    tag_75:\n      stop\n        /* \"@openzeppelin/contracts/access/AccessControl.sol\":5304:5549  function renounceRole(bytes32 role, address callerConfirmation) public virtual {... */\n    tag_9:\n      callvalue\n      dup1\n      iszero\n      tag_79\n      jumpi\n      revert(0x00, 0x00)\n    tag_79:\n      pop\n      tag_80\n      0x04\n      dup1\n      calldatasize\n      sub\n      dup2\n      add\n      swap1\n      tag_81\n      swap2\n      swap1\n      tag_77\n      jump\t// in\n    tag_81:\n      tag_82\n      jump\t// in\n    tag_80:\n      stop\n        /* \"contracts/KipuBank.sol\":19587:19756  function despausarContrato() external soloOwnerORol(PAUSER) whenPaused {... */\n    tag_10:\n      callvalue\n      dup1\n      iszero\n      tag_83\n      jumpi\n      revert(0x00, 0x00)\n    tag_83:\n      pop\n      tag_84\n      tag_85\n      jump\t// in\n    tag_84:\n      stop\n        /* \"contracts/KipuBank.sol\":15648:15848  function aprobarMontoUSDC(uint _monto) external verificarDepositoUSDC(_monto) whenNotPaused {... */\n    tag_11:\n      callvalue\n      dup1\n      iszero\n      tag_86\n      jumpi\n      revert(0x00, 0x00)\n    tag_86:\n      pop\n      tag_87\n      0x04\n      dup1\n      calldatasize\n      sub\n      dup2\n      add\n      swap1\n      tag_88\n      swap2\n      swap1\n      tag_89\n      jump\t// in\n    tag_88:\n      tag_90\n      jump\t// in\n    tag_87:\n      stop\n        /* \"@openzeppelin/contracts/utils/Pausable.sol\":1726:1810  function paused() public view virtual returns (bool) {... */\n    tag_12:\n      callvalue\n      dup1\n      iszero\n      tag_91\n      jumpi\n      revert(0x00, 0x00)\n    tag_91:\n      pop\n      tag_92\n      tag_93\n      jump\t// in\n    tag_92:\n      mload(0x40)\n      tag_94\n      swap2\n      swap1\n      tag_56\n      jump\t// in\n    tag_94:\n      mload(0x40)\n      dup1\n      swap2\n      sub\n      swap1\n      return\n        /* \"contracts/KipuBank.sol\":16029:16223  function verBoveda() external view returns (uint monto_) {... */\n    tag_13:\n      callvalue\n      dup1\n      iszero\n      tag_95\n      jumpi\n      revert(0x00, 0x00)\n    tag_95:\n      pop\n      tag_96\n      tag_97\n      jump\t// in\n    tag_96:\n      mload(0x40)\n      tag_98\n      swap2\n      swap1\n      tag_99\n      jump\t// in\n    tag_98:\n      mload(0x40)\n      dup1\n      swap2\n      sub\n      swap1\n      return\n        /* \"contracts/KipuBank.sol\":15175:15523  function depositarUSDC(uint _monto) external verificarDepositoUSDC(_monto) whenNotPaused {... */\n    tag_14:\n      callvalue\n      dup1\n      iszero\n      tag_100\n      jumpi\n      revert(0x00, 0x00)\n    tag_100:\n      pop\n      tag_101\n      0x04\n      dup1\n      calldatasize\n      sub\n      dup2\n      add\n      swap1\n      tag_102\n      swap2\n      swap1\n      tag_89\n      jump\t// in\n    tag_102:\n      tag_103\n      jump\t// in\n    tag_101:\n      stop\n        /* \"contracts/KipuBank.sol\":1569:1604  AggregatorV3Interface public s_feed */\n    tag_15:\n      callvalue\n      dup1\n      iszero\n      tag_104\n      jumpi\n      revert(0x00, 0x00)\n    tag_104:\n      pop\n      tag_105\n      tag_106\n      jump\t// in\n    tag_105:\n      mload(0x40)\n      tag_107\n      swap2\n      swap1\n      tag_108\n      jump\t// in\n    tag_107:\n      mload(0x40)\n      dup1\n      swap2\n      sub\n      swap1\n      return\n        /* \"@openzeppelin/contracts/access/Ownable.sol\":2293:2394  function renounceOwnership() public virtual onlyOwner {... */\n    tag_16:\n      callvalue\n      dup1\n      iszero\n      tag_109\n      jumpi\n      revert(0x00, 0x00)\n    tag_109:\n      pop\n      tag_110\n      tag_111\n      jump\t// in\n    tag_110:\n      stop\n        /* \"contracts/KipuBank.sol\":16585:16712  function verSaldoETH() external view returns (uint saldo_) {... */\n    tag_17:\n      callvalue\n      dup1\n      iszero\n      tag_112\n      jumpi\n      revert(0x00, 0x00)\n    tag_112:\n      pop\n      tag_113\n      tag_114\n      jump\t// in\n    tag_113:\n      mload(0x40)\n      tag_115\n      swap2\n      swap1\n      tag_99\n      jump\t// in\n    tag_115:\n      mload(0x40)\n      dup1\n      swap2\n      sub\n      swap1\n      return\n        /* \"contracts/KipuBank.sol\":18354:19144  function setFeeds(address _nuevoFeed) external soloOwnerORol(FEED_MANAGER) whenPaused {... */\n    tag_18:\n      callvalue\n      dup1\n      iszero\n      tag_116\n      jumpi\n      revert(0x00, 0x00)\n    tag_116:\n      pop\n      tag_117\n      0x04\n      dup1\n      calldatasize\n      sub\n      dup2\n      add\n      swap1\n      tag_118\n      swap2\n      swap1\n      tag_119\n      jump\t// in\n    tag_118:\n      tag_120\n      jump\t// in\n    tag_117:\n      stop\n        /* \"contracts/KipuBank.sol\":14008:14106  function retirarETH(uint _monto) external whenNotPaused {... */\n    tag_19:\n      callvalue\n      dup1\n      iszero\n      tag_121\n      jumpi\n      revert(0x00, 0x00)\n    tag_121:\n      pop\n      tag_122\n      0x04\n      dup1\n      calldatasize\n      sub\n      dup2\n      add\n      swap1\n      tag_123\n      swap2\n      swap1\n      tag_89\n      jump\t// in\n    tag_123:\n      tag_124\n      jump\t// in\n    tag_122:\n      stop\n        /* \"contracts/KipuBank.sol\":17604:18131  function transferirOwner(address _nuevoOwner) external onlyOwner whenPaused {... */\n    tag_20:\n      callvalue\n      dup1\n      iszero\n      tag_125\n      jumpi\n      revert(0x00, 0x00)\n    tag_125:\n      pop\n      tag_126\n      0x04\n      dup1\n      calldatasize\n      sub\n      dup2\n      add\n      swap1\n      tag_127\n      swap2\n      swap1\n      tag_119\n      jump\t// in\n    tag_127:\n      tag_128\n      jump\t// in\n    tag_126:\n      stop\n        /* \"@openzeppelin/contracts/access/Ownable.sol\":1638:1723  function owner() public view virtual returns (address) {... */\n    tag_21:\n      callvalue\n      dup1\n      iszero\n      tag_129\n      jumpi\n      revert(0x00, 0x00)\n    tag_129:\n      pop\n      tag_130\n      tag_131\n      jump\t// in\n    tag_130:\n      mload(0x40)\n      tag_132\n      swap2\n      swap1\n      tag_46\n      jump\t// in\n    tag_132:\n      mload(0x40)\n      dup1\n      swap2\n      sub\n      swap1\n      return\n        /* \"@openzeppelin/contracts/access/AccessControl.sol\":2830:2966  function hasRole(bytes32 role, address account) public view virtual returns (bool) {... */\n    tag_22:\n      callvalue\n      dup1\n      iszero\n      tag_133\n      jumpi\n      revert(0x00, 0x00)\n    tag_133:\n      pop\n      tag_134\n      0x04\n      dup1\n      calldatasize\n      sub\n      dup2\n      add\n      swap1\n      tag_135\n      swap2\n      swap1\n      tag_77\n      jump\t// in\n    tag_135:\n      tag_136\n      jump\t// in\n    tag_134:\n      mload(0x40)\n      tag_137\n      swap2\n      swap1\n      tag_56\n      jump\t// in\n    tag_137:\n      mload(0x40)\n      dup1\n      swap2\n      sub\n      swap1\n      return\n        /* \"contracts/KipuBank.sol\":14242:14342  function retirarUSDC(uint _monto) external whenNotPaused {... */\n    tag_23:\n      callvalue\n      dup1\n      iszero\n      tag_138\n      jumpi\n      revert(0x00, 0x00)\n    tag_138:\n      pop\n      tag_139\n      0x04\n      dup1\n      calldatasize\n      sub\n      dup2\n      add\n      swap1\n      tag_140\n      swap2\n      swap1\n      tag_89\n      jump\t// in\n    tag_140:\n      tag_141\n      jump\t// in\n    tag_139:\n      stop\n        /* \"contracts/KipuBank.sol\":17286:17381  function verTotalContrato() external view returns (uint) {... */\n    tag_24:\n      callvalue\n      dup1\n      iszero\n      tag_142\n      jumpi\n      revert(0x00, 0x00)\n    tag_142:\n      pop\n      tag_143\n      tag_144\n      jump\t// in\n    tag_143:\n      mload(0x40)\n      tag_145\n      swap2\n      swap1\n      tag_99\n      jump\t// in\n    tag_145:\n      mload(0x40)\n      dup1\n      swap2\n      sub\n      swap1\n      return\n        /* \"contracts/KipuBank.sol\":16340:16473  function verSaldoUSDC() external view returns (uint saldo_) {... */\n    tag_25:\n      callvalue\n      dup1\n      iszero\n      tag_146\n      jumpi\n      revert(0x00, 0x00)\n    tag_146:\n      pop\n      tag_147\n      tag_148\n      jump\t// in\n    tag_147:\n      mload(0x40)\n      tag_149\n      swap2\n      swap1\n      tag_99\n      jump\t// in\n    tag_149:\n      mload(0x40)\n      dup1\n      swap2\n      sub\n      swap1\n      return\n        /* \"@openzeppelin/contracts/access/AccessControl.sol\":2196:2245  bytes32 public constant DEFAULT_ADMIN_ROLE = 0x00 */\n    tag_26:\n      callvalue\n      dup1\n      iszero\n      tag_150\n      jumpi\n      revert(0x00, 0x00)\n    tag_150:\n      pop\n      tag_151\n      tag_152\n      jump\t// in\n    tag_151:\n      mload(0x40)\n      tag_153\n      swap2\n      swap1\n      tag_73\n      jump\t// in\n    tag_153:\n      mload(0x40)\n      dup1\n      swap2\n      sub\n      swap1\n      return\n        /* \"contracts/KipuBank.sol\":17070:17158  function verTotalRetiros() external view returns (uint) {... */\n    tag_27:\n      callvalue\n      dup1\n      iszero\n      tag_154\n      jumpi\n      revert(0x00, 0x00)\n    tag_154:\n      pop\n      tag_155\n      tag_156\n      jump\t// in\n    tag_155:\n      mload(0x40)\n      tag_157\n      swap2\n      swap1\n      tag_99\n      jump\t// in\n    tag_157:\n      mload(0x40)\n      dup1\n      swap2\n      sub\n      swap1\n      return\n        /* \"contracts/KipuBank.sol\":1103:1167  bytes32 public constant FEED_MANAGER = keccak256(\"FEED_MANAGER\") */\n    tag_28:\n      callvalue\n      dup1\n      iszero\n      tag_158\n      jumpi\n      revert(0x00, 0x00)\n    tag_158:\n      pop\n      tag_159\n      tag_160\n      jump\t// in\n    tag_159:\n      mload(0x40)\n      tag_161\n      swap2\n      swap1\n      tag_73\n      jump\t// in\n    tag_161:\n      mload(0x40)\n      dup1\n      swap2\n      sub\n      swap1\n      return\n        /* \"contracts/KipuBank.sol\":19915:20062  function darRol(address cuenta, bytes32 rol) external onlyOwner {... */\n    tag_29:\n      callvalue\n      dup1\n      iszero\n      tag_162\n      jumpi\n      revert(0x00, 0x00)\n    tag_162:\n      pop\n      tag_163\n      0x04\n      dup1\n      calldatasize\n      sub\n      dup2\n      add\n      swap1\n      tag_164\n      swap2\n      swap1\n      tag_165\n      jump\t// in\n    tag_164:\n      tag_166\n      jump\t// in\n    tag_163:\n      stop\n        /* \"@openzeppelin/contracts/access/AccessControl.sol\":4618:4756  function revokeRole(bytes32 role, address account) public virtual onlyRole(getRoleAdmin(role)) {... */\n    tag_30:\n      callvalue\n      dup1\n      iszero\n      tag_167\n      jumpi\n      revert(0x00, 0x00)\n    tag_167:\n      pop\n      tag_168\n      0x04\n      dup1\n      calldatasize\n      sub\n      dup2\n      add\n      swap1\n      tag_169\n      swap2\n      swap1\n      tag_77\n      jump\t// in\n    tag_169:\n      tag_170\n      jump\t// in\n    tag_168:\n      stop\n        /* \"contracts/KipuBank.sol\":995:1047  bytes32 public constant PAUSER = keccak256(\"PAUSER\") */\n    tag_31:\n      callvalue\n      dup1\n      iszero\n      tag_171\n      jumpi\n      revert(0x00, 0x00)\n    tag_171:\n      pop\n      tag_172\n      tag_173\n      jump\t// in\n    tag_172:\n      mload(0x40)\n      tag_174\n      swap2\n      swap1\n      tag_73\n      jump\t// in\n    tag_174:\n      mload(0x40)\n      dup1\n      swap2\n      sub\n      swap1\n      return\n        /* \"contracts/KipuBank.sol\":20241:20397  function revocarRol(address cuenta, bytes32 rol) external onlyOwner {... */\n    tag_32:\n      callvalue\n      dup1\n      iszero\n      tag_175\n      jumpi\n      revert(0x00, 0x00)\n    tag_175:\n      pop\n      tag_176\n      0x04\n      dup1\n      calldatasize\n      sub\n      dup2\n      add\n      swap1\n      tag_177\n      swap2\n      swap1\n      tag_165\n      jump\t// in\n    tag_177:\n      tag_178\n      jump\t// in\n    tag_176:\n      stop\n        /* \"@openzeppelin/contracts/access/Ownable.sol\":2543:2758  function transferOwnership(address newOwner) public virtual onlyOwner {... */\n    tag_33:\n      callvalue\n      dup1\n      iszero\n      tag_179\n      jumpi\n      revert(0x00, 0x00)\n    tag_179:\n      pop\n      tag_180\n      0x04\n      dup1\n      calldatasize\n      sub\n      dup2\n      add\n      swap1\n      tag_181\n      swap2\n      swap1\n      tag_119\n      jump\t// in\n    tag_181:\n      tag_182\n      jump\t// in\n    tag_180:\n      stop\n        /* \"contracts/KipuBank.sol\":16847:16939  function verTotalDepositos() external view returns (uint) {... */\n    tag_34:\n      callvalue\n      dup1\n      iszero\n      tag_183\n      jumpi\n      revert(0x00, 0x00)\n    tag_183:\n      pop\n      tag_184\n      tag_185\n      jump\t// in\n    tag_184:\n      mload(0x40)\n      tag_186\n      swap2\n      swap1\n      tag_99\n      jump\t// in\n    tag_186:\n      mload(0x40)\n      dup1\n      swap2\n      sub\n      swap1\n      return\n        /* \"contracts/KipuBank.sol\":21068:21206  function balanceOf(address titular, address token) external view returns (uint) {... */\n    tag_35:\n      callvalue\n      dup1\n      iszero\n      tag_187\n      jumpi\n      revert(0x00, 0x00)\n    tag_187:\n      pop\n      tag_188\n      0x04\n      dup1\n      calldatasize\n      sub\n      dup2\n      add\n      swap1\n      tag_189\n      swap2\n      swap1\n      tag_190\n      jump\t// in\n    tag_189:\n      tag_191\n      jump\t// in\n    tag_188:\n      mload(0x40)\n      tag_192\n      swap2\n      swap1\n      tag_99\n      jump\t// in\n    tag_192:\n      mload(0x40)\n      dup1\n      swap2\n      sub\n      swap1\n      return\n        /* \"contracts/KipuBank.sol\":21288:21504  function supportsInterface(bytes4 interfaceId) ... */\n    tag_54:\n        /* \"contracts/KipuBank.sol\":21433:21437  bool */\n      0x00\n        /* \"contracts/KipuBank.sol\":21461:21497  super.supportsInterface(interfaceId) */\n      tag_194\n        /* \"contracts/KipuBank.sol\":21485:21496  interfaceId */\n      dup3\n        /* \"contracts/KipuBank.sol\":21461:21484  super.supportsInterface */\n      tag_195\n        /* \"contracts/KipuBank.sol\":21461:21497  super.supportsInterface(interfaceId) */\n      jump\t// in\n    tag_194:\n        /* \"contracts/KipuBank.sol\":21454:21497  return super.supportsInterface(interfaceId) */\n      swap1\n      pop\n        /* \"contracts/KipuBank.sol\":21288:21504  function supportsInterface(bytes4 interfaceId) ... */\n      swap2\n      swap1\n      pop\n      jump\t// out\n        /* \"contracts/KipuBank.sol\":20461:20810  function estadoDelContrato() external view ... */\n    tag_59:\n        /* \"contracts/KipuBank.sol\":20527:20539  bool pausado */\n      0x00\n        /* \"contracts/KipuBank.sol\":20550:20568  uint totalContrato */\n      0x00\n        /* \"contracts/KipuBank.sol\":20579:20590  uint limite */\n      0x00\n        /* \"contracts/KipuBank.sol\":20601:20612  uint umbral */\n      0x00\n        /* \"contracts/KipuBank.sol\":20623:20641  address feedActual */\n      0x00\n        /* \"contracts/KipuBank.sol\":20683:20691  paused() */\n      tag_197\n        /* \"contracts/KipuBank.sol\":20683:20689  paused */\n      tag_93\n        /* \"contracts/KipuBank.sol\":20683:20691  paused() */\n      jump\t// in\n    tag_197:\n        /* \"contracts/KipuBank.sol\":20705:20719  _totalContrato */\n      sload(0x06)\n        /* \"contracts/KipuBank.sol\":20733:20742  i_bankCap */\n      immutable(\"0x56af87718ac6246bac727726c33ea64d0935502347b4fd185bbadeb5f3fb92bd\")\n        /* \"contracts/KipuBank.sol\":20756:20764  i_umbral */\n      immutable(\"0xcf2f0ed1818444aa7134f6644eb342f5da11c7b70eee1c41201e997b4c62f0a7\")\n        /* \"contracts/KipuBank.sol\":20786:20792  s_feed */\n      0x03\n      0x00\n      swap1\n      sload\n      swap1\n      0x0100\n      exp\n      swap1\n      div\n      0xffffffffffffffffffffffffffffffffffffffff\n      and\n        /* \"contracts/KipuBank.sol\":20662:20803  return (... */\n      swap5\n      pop\n      swap5\n      pop\n      swap5\n      pop\n      swap5\n      pop\n      swap5\n      pop\n        /* \"contracts/KipuBank.sol\":20461:20810  function estadoDelContrato() external view ... */\n      swap1\n      swap2\n      swap3\n      swap4\n      swap5\n      jump\t// out\n        /* \"contracts/KipuBank.sol\":14471:14805  function depositarETH() external payable verificarDepositoETH(msg.value) whenNotPaused {... */\n    tag_63:\n        /* \"contracts/KipuBank.sol\":14533:14542  msg.value */\n      callvalue\n        /* \"contracts/KipuBank.sol\":9676:9690  uint montoUSDC */\n      0x00\n        /* \"contracts/KipuBank.sol\":9693:9718  convertirEthEnUSD(_monto) */\n      tag_199\n        /* \"contracts/KipuBank.sol\":9711:9717  _monto */\n      dup3\n        /* \"contracts/KipuBank.sol\":9693:9710  convertirEthEnUSD */\n      tag_200\n        /* \"contracts/KipuBank.sol\":9693:9718  convertirEthEnUSD(_monto) */\n      jump\t// in\n    tag_199:\n        /* \"contracts/KipuBank.sol\":9676:9718  uint montoUSDC = convertirEthEnUSD(_monto) */\n      swap1\n      pop\n        /* \"contracts/KipuBank.sol\":9744:9745  0 */\n      0x00\n        /* \"contracts/KipuBank.sol\":9731:9740  montoUSDC */\n      dup2\n        /* \"contracts/KipuBank.sol\":9731:9745  montoUSDC == 0 */\n      sub\n        /* \"contracts/KipuBank.sol\":9728:9784  if(montoUSDC == 0) revert KipuBank_MontoCero(msg.sender) */\n      tag_201\n      jumpi\n        /* \"contracts/KipuBank.sol\":9773:9783  msg.sender */\n      caller\n        /* \"contracts/KipuBank.sol\":9754:9784  KipuBank_MontoCero(msg.sender) */\n      mload(0x40)\n      0xb2f0923100000000000000000000000000000000000000000000000000000000\n      dup2\n      mstore\n      0x04\n      add\n      tag_202\n      swap2\n      swap1\n      tag_46\n      jump\t// in\n    tag_202:\n      mload(0x40)\n      dup1\n      swap2\n      sub\n      swap1\n      revert\n        /* \"contracts/KipuBank.sol\":9728:9784  if(montoUSDC == 0) revert KipuBank_MontoCero(msg.sender) */\n    tag_201:\n        /* \"contracts/KipuBank.sol\":9827:9836  i_bankCap */\n      immutable(\"0x56af87718ac6246bac727726c33ea64d0935502347b4fd185bbadeb5f3fb92bd\")\n        /* \"contracts/KipuBank.sol\":9810:9824  _totalContrato */\n      sload(0x06)\n        /* \"contracts/KipuBank.sol\":9798:9807  montoUSDC */\n      dup3\n        /* \"contracts/KipuBank.sol\":9798:9824  montoUSDC + _totalContrato */\n      tag_203\n      swap2\n      swap1\n      tag_204\n      jump\t// in\n    tag_203:\n        /* \"contracts/KipuBank.sol\":9798:9836  montoUSDC + _totalContrato > i_bankCap */\n      gt\n        /* \"contracts/KipuBank.sol\":9794:9879  if (montoUSDC + _totalContrato > i_bankCap) revert KipuBank_LimiteExcedido(montoUSDC) */\n      iszero\n      tag_205\n      jumpi\n        /* \"contracts/KipuBank.sol\":9869:9878  montoUSDC */\n      dup1\n        /* \"contracts/KipuBank.sol\":9845:9879  KipuBank_LimiteExcedido(montoUSDC) */\n      mload(0x40)\n      0x2900b02c00000000000000000000000000000000000000000000000000000000\n      dup2\n      mstore\n      0x04\n      add\n      tag_206\n      swap2\n      swap1\n      tag_99\n      jump\t// in\n    tag_206:\n      mload(0x40)\n      dup1\n      swap2\n      sub\n      swap1\n      revert\n        /* \"contracts/KipuBank.sol\":9794:9879  if (montoUSDC + _totalContrato > i_bankCap) revert KipuBank_LimiteExcedido(montoUSDC) */\n    tag_205:\n        /* \"@openzeppelin/contracts/utils/Pausable.sol\":1350:1369  _requireNotPaused() */\n      tag_208\n        /* \"@openzeppelin/contracts/utils/Pausable.sol\":1350:1367  _requireNotPaused */\n      tag_209\n        /* \"@openzeppelin/contracts/utils/Pausable.sol\":1350:1369  _requireNotPaused() */\n      jump\t// in\n    tag_208:\n        /* \"contracts/KipuBank.sol\":14568:14581  uint montoUSD */\n      0x00\n        /* \"contracts/KipuBank.sol\":14584:14612  convertirEthEnUSD(msg.value) */\n      tag_211\n        /* \"contracts/KipuBank.sol\":14602:14611  msg.value */\n      callvalue\n        /* \"contracts/KipuBank.sol\":14584:14601  convertirEthEnUSD */\n      tag_200\n        /* \"contracts/KipuBank.sol\":14584:14612  convertirEthEnUSD(msg.value) */\n      jump\t// in\n    tag_211:\n        /* \"contracts/KipuBank.sol\":14568:14612  uint montoUSD = convertirEthEnUSD(msg.value) */\n      swap1\n      pop\n        /* \"contracts/KipuBank.sol\":14668:14677  msg.value */\n      callvalue\n        /* \"contracts/KipuBank.sol\":14622:14640  _cuentasMultiToken */\n      0x07\n        /* \"contracts/KipuBank.sol\":14622:14652  _cuentasMultiToken[address(0)] */\n      0x00\n        /* \"contracts/KipuBank.sol\":14649:14650  0 */\n      0x00\n        /* \"contracts/KipuBank.sol\":14622:14652  _cuentasMultiToken[address(0)] */\n      0xffffffffffffffffffffffffffffffffffffffff\n      and\n      0xffffffffffffffffffffffffffffffffffffffff\n      and\n      dup2\n      mstore\n      0x20\n      add\n      swap1\n      dup2\n      mstore\n      0x20\n      add\n      0x00\n      keccak256\n        /* \"contracts/KipuBank.sol\":14622:14664  _cuentasMultiToken[address(0)][msg.sender] */\n      0x00\n        /* \"contracts/KipuBank.sol\":14653:14663  msg.sender */\n      caller\n        /* \"contracts/KipuBank.sol\":14622:14664  _cuentasMultiToken[address(0)][msg.sender] */\n      0xffffffffffffffffffffffffffffffffffffffff\n      and\n      0xffffffffffffffffffffffffffffffffffffffff\n      and\n      dup2\n      mstore\n      0x20\n      add\n      swap1\n      dup2\n      mstore\n      0x20\n      add\n      0x00\n      keccak256\n      0x00\n        /* \"contracts/KipuBank.sol\":14622:14677  _cuentasMultiToken[address(0)][msg.sender] += msg.value */\n      dup3\n      dup3\n      sload\n      tag_212\n      swap2\n      swap1\n      tag_204\n      jump\t// in\n    tag_212:\n      swap3\n      pop\n      pop\n      dup2\n      swap1\n      sstore\n      pop\n        /* \"contracts/KipuBank.sol\":14687:14697  _depositos */\n      0x04\n      0x00\n        /* \"contracts/KipuBank.sol\":14687:14699  _depositos++ */\n      dup2\n      sload\n      dup1\n      swap3\n      swap2\n      swap1\n      tag_213\n      swap1\n      tag_214\n      jump\t// in\n    tag_213:\n      swap2\n      swap1\n      pop\n      sstore\n      pop\n        /* \"contracts/KipuBank.sol\":14727:14735  montoUSD */\n      dup1\n        /* \"contracts/KipuBank.sol\":14709:14723  _totalContrato */\n      0x06\n      0x00\n        /* \"contracts/KipuBank.sol\":14709:14735  _totalContrato += montoUSD */\n      dup3\n      dup3\n      sload\n      tag_215\n      swap2\n      swap1\n      tag_204\n      jump\t// in\n    tag_215:\n      swap3\n      pop\n      pop\n      dup2\n      swap1\n      sstore\n      pop\n        /* \"contracts/KipuBank.sol\":14777:14787  msg.sender */\n      caller\n        /* \"contracts/KipuBank.sol\":14750:14798  KipuBank_DepositoRealizado(msg.sender, montoUSD) */\n      0xffffffffffffffffffffffffffffffffffffffff\n      and\n      0x9d15693852bf60dc27bd5aa831d0351359b7d01d428ae1baae11f15cbcfebafd\n        /* \"contracts/KipuBank.sol\":14789:14797  montoUSD */\n      dup3\n        /* \"contracts/KipuBank.sol\":14750:14798  KipuBank_DepositoRealizado(msg.sender, montoUSD) */\n      mload(0x40)\n      tag_216\n      swap2\n      swap1\n      tag_99\n      jump\t// in\n    tag_216:\n      mload(0x40)\n      dup1\n      swap2\n      sub\n      swap1\n      log2\n        /* \"contracts/KipuBank.sol\":14558:14805  {... */\n      pop\n        /* \"contracts/KipuBank.sol\":9666:9897  {... */\n      pop\n        /* \"contracts/KipuBank.sol\":14471:14805  function depositarETH() external payable verificarDepositoETH(msg.value) whenNotPaused {... */\n      pop\n      jump\t// out\n        /* \"contracts/KipuBank.sol\":19282:19446  function pausarContrato() external soloOwnerORol(PAUSER) whenNotPaused {... */\n    tag_66:\n        /* \"contracts/KipuBank.sol\":1028:1047  keccak256(\"PAUSER\") */\n      0x539440820030c4994db4e31b6b800deafd503688728f932addfe7a410515c14c\n        /* \"contracts/KipuBank.sol\":9387:9397  msg.sender */\n      caller\n        /* \"contracts/KipuBank.sol\":9376:9397  owner() != msg.sender */\n      0xffffffffffffffffffffffffffffffffffffffff\n      and\n        /* \"contracts/KipuBank.sol\":9376:9383  owner() */\n      tag_218\n        /* \"contracts/KipuBank.sol\":9376:9381  owner */\n      tag_131\n        /* \"contracts/KipuBank.sol\":9376:9383  owner() */\n      jump\t// in\n    tag_218:\n        /* \"contracts/KipuBank.sol\":9376:9397  owner() != msg.sender */\n      0xffffffffffffffffffffffffffffffffffffffff\n      and\n      eq\n      iszero\n        /* \"contracts/KipuBank.sol\":9376:9426  owner() != msg.sender || !hasRole(rol, msg.sender) */\n      dup1\n      tag_219\n      jumpi\n      pop\n        /* \"contracts/KipuBank.sol\":9402:9426  hasRole(rol, msg.sender) */\n      tag_220\n        /* \"contracts/KipuBank.sol\":9410:9413  rol */\n      dup2\n        /* \"contracts/KipuBank.sol\":9415:9425  msg.sender */\n      caller\n        /* \"contracts/KipuBank.sol\":9402:9409  hasRole */\n      tag_136\n        /* \"contracts/KipuBank.sol\":9402:9426  hasRole(rol, msg.sender) */\n      jump\t// in\n    tag_220:\n        /* \"contracts/KipuBank.sol\":9401:9426  !hasRole(rol, msg.sender) */\n      iszero\n        /* \"contracts/KipuBank.sol\":9376:9426  owner() != msg.sender || !hasRole(rol, msg.sender) */\n    tag_219:\n        /* \"contracts/KipuBank.sol\":9373:9493  if(owner() != msg.sender || !hasRole(rol, msg.sender)) {... */\n      iszero\n      tag_221\n      jumpi\n        /* \"contracts/KipuBank.sol\":9471:9481  msg.sender */\n      caller\n        /* \"contracts/KipuBank.sol\":9449:9482  KipuBank_NoAutorizado(msg.sender) */\n      mload(0x40)\n      0x06286eaa00000000000000000000000000000000000000000000000000000000\n      dup2\n      mstore\n      0x04\n      add\n      tag_222\n      swap2\n      swap1\n      tag_46\n      jump\t// in\n    tag_222:\n      mload(0x40)\n      dup1\n      swap2\n      sub\n      swap1\n      revert\n        /* \"contracts/KipuBank.sol\":9373:9493  if(owner() != msg.sender || !hasRole(rol, msg.sender)) {... */\n    tag_221:\n        /* \"@openzeppelin/contracts/utils/Pausable.sol\":1350:1369  _requireNotPaused() */\n      tag_224\n        /* \"@openzeppelin/contracts/utils/Pausable.sol\":1350:1367  _requireNotPaused */\n      tag_209\n        /* \"@openzeppelin/contracts/utils/Pausable.sol\":1350:1369  _requireNotPaused() */\n      jump\t// in\n    tag_224:\n        /* \"contracts/KipuBank.sol\":19363:19371  _pause() */\n      tag_226\n        /* \"contracts/KipuBank.sol\":19363:19369  _pause */\n      tag_227\n        /* \"contracts/KipuBank.sol\":19363:19371  _pause() */\n      jump\t// in\n    tag_226:\n        /* \"contracts/KipuBank.sol\":19411:19421  msg.sender */\n      caller\n        /* \"contracts/KipuBank.sol\":19386:19439  KipuBank_ContratoPausado(msg.sender, block.timestamp) */\n      0xffffffffffffffffffffffffffffffffffffffff\n      and\n      0x65ab6adc87722a7acd973ffed16cba7cfdf07b5329157a7192434753ba9dac13\n        /* \"contracts/KipuBank.sol\":19423:19438  block.timestamp */\n      timestamp\n        /* \"contracts/KipuBank.sol\":19386:19439  KipuBank_ContratoPausado(msg.sender, block.timestamp) */\n      mload(0x40)\n      tag_228\n      swap2\n      swap1\n      tag_99\n      jump\t// in\n    tag_228:\n      mload(0x40)\n      dup1\n      swap2\n      sub\n      swap1\n      log2\n        /* \"contracts/KipuBank.sol\":19282:19446  function pausarContrato() external soloOwnerORol(PAUSER) whenNotPaused {... */\n      pop\n      jump\t// out\n        /* \"@openzeppelin/contracts/access/AccessControl.sol\":3786:3906  function getRoleAdmin(bytes32 role) public view virtual returns (bytes32) {... */\n    tag_71:\n        /* \"@openzeppelin/contracts/access/AccessControl.sol\":3851:3858  bytes32 */\n      0x00\n        /* \"@openzeppelin/contracts/access/AccessControl.sol\":3877:3883  _roles */\n      0x02\n        /* \"@openzeppelin/contracts/access/AccessControl.sol\":3877:3889  _roles[role] */\n      0x00\n        /* \"@openzeppelin/contracts/access/AccessControl.sol\":3884:3888  role */\n      dup4\n        /* \"@openzeppelin/contracts/access/AccessControl.sol\":3877:3889  _roles[role] */\n      dup2\n      mstore\n      0x20\n      add\n      swap1\n      dup2\n      mstore\n      0x20\n      add\n      0x00\n      keccak256\n        /* \"@openzeppelin/contracts/access/AccessControl.sol\":3877:3899  _roles[role].adminRole */\n      0x01\n      add\n      sload\n        /* \"@openzeppelin/contracts/access/AccessControl.sol\":3870:3899  return _roles[role].adminRole */\n      swap1\n      pop\n        /* \"@openzeppelin/contracts/access/AccessControl.sol\":3786:3906  function getRoleAdmin(bytes32 role) public view virtual returns (bytes32) {... */\n      swap2\n      swap1\n      pop\n      jump\t// out\n        /* \"@openzeppelin/contracts/access/AccessControl.sol\":4202:4338  function grantRole(bytes32 role, address account) public virtual onlyRole(getRoleAdmin(role)) {... */\n    tag_78:\n        /* \"@openzeppelin/contracts/access/AccessControl.sol\":4276:4294  getRoleAdmin(role) */\n      tag_230\n        /* \"@openzeppelin/contracts/access/AccessControl.sol\":4289:4293  role */\n      dup3\n        /* \"@openzeppelin/contracts/access/AccessControl.sol\":4276:4288  getRoleAdmin */\n      tag_71\n        /* \"@openzeppelin/contracts/access/AccessControl.sol\":4276:4294  getRoleAdmin(role) */\n      jump\t// in\n    tag_230:\n        /* \"@openzeppelin/contracts/access/AccessControl.sol\":2473:2489  _checkRole(role) */\n      tag_232\n        /* \"@openzeppelin/contracts/access/AccessControl.sol\":2484:2488  role */\n      dup2\n        /* \"@openzeppelin/contracts/access/AccessControl.sol\":2473:2483  _checkRole */\n      tag_233\n        /* \"@openzeppelin/contracts/access/AccessControl.sol\":2473:2489  _checkRole(role) */\n      jump\t// in\n    tag_232:\n        /* \"@openzeppelin/contracts/access/AccessControl.sol\":4306:4331  _grantRole(role, account) */\n      tag_235\n        /* \"@openzeppelin/contracts/access/AccessControl.sol\":4317:4321  role */\n      dup4\n        /* \"@openzeppelin/contracts/access/AccessControl.sol\":4323:4330  account */\n      dup4\n        /* \"@openzeppelin/contracts/access/AccessControl.sol\":4306:4316  _grantRole */\n      tag_236\n        /* \"@openzeppelin/contracts/access/AccessControl.sol\":4306:4331  _grantRole(role, account) */\n      jump\t// in\n    tag_235:\n      pop\n        /* \"@openzeppelin/contracts/access/AccessControl.sol\":4202:4338  function grantRole(bytes32 role, address account) public virtual onlyRole(getRoleAdmin(role)) {... */\n      pop\n      pop\n      pop\n      jump\t// out\n        /* \"@openzeppelin/contracts/access/AccessControl.sol\":5304:5549  function renounceRole(bytes32 role, address callerConfirmation) public virtual {... */\n    tag_82:\n        /* \"@openzeppelin/contracts/access/AccessControl.sol\":5419:5431  _msgSender() */\n      tag_238\n        /* \"@openzeppelin/contracts/access/AccessControl.sol\":5419:5429  _msgSender */\n      tag_239\n        /* \"@openzeppelin/contracts/access/AccessControl.sol\":5419:5431  _msgSender() */\n      jump\t// in\n    tag_238:\n        /* \"@openzeppelin/contracts/access/AccessControl.sol\":5397:5431  callerConfirmation != _msgSender() */\n      0xffffffffffffffffffffffffffffffffffffffff\n      and\n        /* \"@openzeppelin/contracts/access/AccessControl.sol\":5397:5415  callerConfirmation */\n      dup2\n        /* \"@openzeppelin/contracts/access/AccessControl.sol\":5397:5431  callerConfirmation != _msgSender() */\n      0xffffffffffffffffffffffffffffffffffffffff\n      and\n      eq\n        /* \"@openzeppelin/contracts/access/AccessControl.sol\":5393:5495  if (callerConfirmation != _msgSender()) {... */\n      tag_240\n      jumpi\n        /* \"@openzeppelin/contracts/access/AccessControl.sol\":5454:5484  AccessControlBadConfirmation() */\n      mload(0x40)\n      0x6697b23200000000000000000000000000000000000000000000000000000000\n      dup2\n      mstore\n      0x04\n      add\n      mload(0x40)\n      dup1\n      swap2\n      sub\n      swap1\n      revert\n        /* \"@openzeppelin/contracts/access/AccessControl.sol\":5393:5495  if (callerConfirmation != _msgSender()) {... */\n    tag_240:\n        /* \"@openzeppelin/contracts/access/AccessControl.sol\":5505:5542  _revokeRole(role, callerConfirmation) */\n      tag_241\n        /* \"@openzeppelin/contracts/access/AccessControl.sol\":5517:5521  role */\n      dup3\n        /* \"@openzeppelin/contracts/access/AccessControl.sol\":5523:5541  callerConfirmation */\n      dup3\n        /* \"@openzeppelin/contracts/access/AccessControl.sol\":5505:5516  _revokeRole */\n      tag_242\n        /* \"@openzeppelin/contracts/access/AccessControl.sol\":5505:5542  _revokeRole(role, callerConfirmation) */\n      jump\t// in\n    tag_241:\n      pop\n        /* \"@openzeppelin/contracts/access/AccessControl.sol\":5304:5549  function renounceRole(bytes32 role, address callerConfirmation) public virtual {... */\n      pop\n      pop\n      jump\t// out\n        /* \"contracts/KipuBank.sol\":19587:19756  function despausarContrato() external soloOwnerORol(PAUSER) whenPaused {... */\n    tag_85:\n        /* \"contracts/KipuBank.sol\":1028:1047  keccak256(\"PAUSER\") */\n      0x539440820030c4994db4e31b6b800deafd503688728f932addfe7a410515c14c\n        /* \"contracts/KipuBank.sol\":9387:9397  msg.sender */\n      caller\n        /* \"contracts/KipuBank.sol\":9376:9397  owner() != msg.sender */\n      0xffffffffffffffffffffffffffffffffffffffff\n      and\n        /* \"contracts/KipuBank.sol\":9376:9383  owner() */\n      tag_244\n        /* \"contracts/KipuBank.sol\":9376:9381  owner */\n      tag_131\n        /* \"contracts/KipuBank.sol\":9376:9383  owner() */\n      jump\t// in\n    tag_244:\n        /* \"contracts/KipuBank.sol\":9376:9397  owner() != msg.sender */\n      0xffffffffffffffffffffffffffffffffffffffff\n      and\n      eq\n      iszero\n        /* \"contracts/KipuBank.sol\":9376:9426  owner() != msg.sender || !hasRole(rol, msg.sender) */\n      dup1\n      tag_245\n      jumpi\n      pop\n        /* \"contracts/KipuBank.sol\":9402:9426  hasRole(rol, msg.sender) */\n      tag_246\n        /* \"contracts/KipuBank.sol\":9410:9413  rol */\n      dup2\n        /* \"contracts/KipuBank.sol\":9415:9425  msg.sender */\n      caller\n        /* \"contracts/KipuBank.sol\":9402:9409  hasRole */\n      tag_136\n        /* \"contracts/KipuBank.sol\":9402:9426  hasRole(rol, msg.sender) */\n      jump\t// in\n    tag_246:\n        /* \"contracts/KipuBank.sol\":9401:9426  !hasRole(rol, msg.sender) */\n      iszero\n        /* \"contracts/KipuBank.sol\":9376:9426  owner() != msg.sender || !hasRole(rol, msg.sender) */\n    tag_245:\n        /* \"contracts/KipuBank.sol\":9373:9493  if(owner() != msg.sender || !hasRole(rol, msg.sender)) {... */\n      iszero\n      tag_247\n      jumpi\n        /* \"contracts/KipuBank.sol\":9471:9481  msg.sender */\n      caller\n        /* \"contracts/KipuBank.sol\":9449:9482  KipuBank_NoAutorizado(msg.sender) */\n      mload(0x40)\n      0x06286eaa00000000000000000000000000000000000000000000000000000000\n      dup2\n      mstore\n      0x04\n      add\n      tag_248\n      swap2\n      swap1\n      tag_46\n      jump\t// in\n    tag_248:\n      mload(0x40)\n      dup1\n      swap2\n      sub\n      swap1\n      revert\n        /* \"contracts/KipuBank.sol\":9373:9493  if(owner() != msg.sender || !hasRole(rol, msg.sender)) {... */\n    tag_247:\n        /* \"@openzeppelin/contracts/utils/Pausable.sol\":1597:1613  _requirePaused() */\n      tag_250\n        /* \"@openzeppelin/contracts/utils/Pausable.sol\":1597:1611  _requirePaused */\n      tag_251\n        /* \"@openzeppelin/contracts/utils/Pausable.sol\":1597:1613  _requirePaused() */\n      jump\t// in\n    tag_250:\n        /* \"contracts/KipuBank.sol\":19668:19678  _unpause() */\n      tag_253\n        /* \"contracts/KipuBank.sol\":19668:19676  _unpause */\n      tag_254\n        /* \"contracts/KipuBank.sol\":19668:19678  _unpause() */\n      jump\t// in\n    tag_253:\n        /* \"contracts/KipuBank.sol\":19721:19731  msg.sender */\n      caller\n        /* \"contracts/KipuBank.sol\":19693:19749  KipuBank_ContratoDespausado(msg.sender, block.timestamp) */\n      0xffffffffffffffffffffffffffffffffffffffff\n      and\n      0x08af9cf236f4b3afb8d03262d5bef5d95db4da02aa57892cd6474e8097f4f2b7\n        /* \"contracts/KipuBank.sol\":19733:19748  block.timestamp */\n      timestamp\n        /* \"contracts/KipuBank.sol\":19693:19749  KipuBank_ContratoDespausado(msg.sender, block.timestamp) */\n      mload(0x40)\n      tag_255\n      swap2\n      swap1\n      tag_99\n      jump\t// in\n    tag_255:\n      mload(0x40)\n      dup1\n      swap2\n      sub\n      swap1\n      log2\n        /* \"contracts/KipuBank.sol\":19587:19756  function despausarContrato() external soloOwnerORol(PAUSER) whenPaused {... */\n      pop\n      jump\t// out\n        /* \"contracts/KipuBank.sol\":15648:15848  function aprobarMontoUSDC(uint _monto) external verificarDepositoUSDC(_monto) whenNotPaused {... */\n    tag_90:\n        /* \"contracts/KipuBank.sol\":15718:15724  _monto */\n      dup1\n        /* \"contracts/KipuBank.sol\":10073:10074  0 */\n      0x00\n        /* \"contracts/KipuBank.sol\":10063:10069  _monto */\n      dup2\n        /* \"contracts/KipuBank.sol\":10063:10074  _monto == 0 */\n      sub\n        /* \"contracts/KipuBank.sol\":10060:10113  if(_monto == 0) revert KipuBank_MontoCero(msg.sender) */\n      tag_257\n      jumpi\n        /* \"contracts/KipuBank.sol\":10102:10112  msg.sender */\n      caller\n        /* \"contracts/KipuBank.sol\":10083:10113  KipuBank_MontoCero(msg.sender) */\n      mload(0x40)\n      0xb2f0923100000000000000000000000000000000000000000000000000000000\n      dup2\n      mstore\n      0x04\n      add\n      tag_258\n      swap2\n      swap1\n      tag_46\n      jump\t// in\n    tag_258:\n      mload(0x40)\n      dup1\n      swap2\n      sub\n      swap1\n      revert\n        /* \"contracts/KipuBank.sol\":10060:10113  if(_monto == 0) revert KipuBank_MontoCero(msg.sender) */\n    tag_257:\n        /* \"contracts/KipuBank.sol\":10153:10162  i_bankCap */\n      immutable(\"0x56af87718ac6246bac727726c33ea64d0935502347b4fd185bbadeb5f3fb92bd\")\n        /* \"contracts/KipuBank.sol\":10136:10150  _totalContrato */\n      sload(0x06)\n        /* \"contracts/KipuBank.sol\":10127:10133  _monto */\n      dup3\n        /* \"contracts/KipuBank.sol\":10127:10150  _monto + _totalContrato */\n      tag_259\n      swap2\n      swap1\n      tag_204\n      jump\t// in\n    tag_259:\n        /* \"contracts/KipuBank.sol\":10127:10162  _monto + _totalContrato > i_bankCap */\n      gt\n        /* \"contracts/KipuBank.sol\":10123:10202  if (_monto + _totalContrato > i_bankCap) revert KipuBank_LimiteExcedido(_monto) */\n      iszero\n      tag_260\n      jumpi\n        /* \"contracts/KipuBank.sol\":10195:10201  _monto */\n      dup1\n        /* \"contracts/KipuBank.sol\":10171:10202  KipuBank_LimiteExcedido(_monto) */\n      mload(0x40)\n      0x2900b02c00000000000000000000000000000000000000000000000000000000\n      dup2\n      mstore\n      0x04\n      add\n      tag_261\n      swap2\n      swap1\n      tag_99\n      jump\t// in\n    tag_261:\n      mload(0x40)\n      dup1\n      swap2\n      sub\n      swap1\n      revert\n        /* \"contracts/KipuBank.sol\":10123:10202  if (_monto + _totalContrato > i_bankCap) revert KipuBank_LimiteExcedido(_monto) */\n    tag_260:\n        /* \"@openzeppelin/contracts/utils/Pausable.sol\":1350:1369  _requireNotPaused() */\n      tag_263\n        /* \"@openzeppelin/contracts/utils/Pausable.sol\":1350:1367  _requireNotPaused */\n      tag_209\n        /* \"@openzeppelin/contracts/utils/Pausable.sol\":1350:1369  _requireNotPaused() */\n      jump\t// in\n    tag_263:\n        /* \"contracts/KipuBank.sol\":15750:15756  i_usdc */\n      immutable(\"0x70ebf73cb6f1a1207279604d754513a029c2ff46f9198374b0ad04887dd2881e\")\n        /* \"contracts/KipuBank.sol\":15750:15764  i_usdc.approve */\n      0xffffffffffffffffffffffffffffffffffffffff\n      and\n      0x095ea7b3\n        /* \"contracts/KipuBank.sol\":15765:15775  msg.sender */\n      caller\n        /* \"contracts/KipuBank.sol\":15777:15783  _monto */\n      dup5\n        /* \"contracts/KipuBank.sol\":15750:15784  i_usdc.approve(msg.sender, _monto) */\n      mload(0x40)\n      dup4\n      0xffffffff\n      and\n      0xe0\n      shl\n      dup2\n      mstore\n      0x04\n      add\n      tag_265\n      swap3\n      swap2\n      swap1\n      tag_266\n      jump\t// in\n    tag_265:\n      0x20\n      mload(0x40)\n      dup1\n      dup4\n      sub\n      dup2\n      0x00\n      dup8\n      gas\n      call\n      iszero\n      dup1\n      iszero\n      tag_268\n      jumpi\n      returndatacopy(0x00, 0x00, returndatasize)\n      revert(0x00, returndatasize)\n    tag_268:\n      pop\n      pop\n      pop\n      pop\n      mload(0x40)\n      returndatasize\n      not(0x1f)\n      0x1f\n      dup3\n      add\n      and\n      dup3\n      add\n      dup1\n      0x40\n      mstore\n      pop\n      dup2\n      add\n      swap1\n      tag_269\n      swap2\n      swap1\n      tag_270\n      jump\t// in\n    tag_269:\n      pop\n        /* \"contracts/KipuBank.sol\":15822:15832  msg.sender */\n      caller\n        /* \"contracts/KipuBank.sol\":15799:15841  KipuBank_MontoAprobado(msg.sender, _monto) */\n      0xffffffffffffffffffffffffffffffffffffffff\n      and\n      0x3745e4a117764b16ddef1b44d7ce39fc18cade55ad54851763bcadb295fde9a8\n        /* \"contracts/KipuBank.sol\":15834:15840  _monto */\n      dup4\n        /* \"contracts/KipuBank.sol\":15799:15841  KipuBank_MontoAprobado(msg.sender, _monto) */\n      mload(0x40)\n      tag_271\n      swap2\n      swap1\n      tag_99\n      jump\t// in\n    tag_271:\n      mload(0x40)\n      dup1\n      swap2\n      sub\n      swap1\n      log2\n        /* \"contracts/KipuBank.sol\":15648:15848  function aprobarMontoUSDC(uint _monto) external verificarDepositoUSDC(_monto) whenNotPaused {... */\n      pop\n      pop\n      jump\t// out\n        /* \"@openzeppelin/contracts/utils/Pausable.sol\":1726:1810  function paused() public view virtual returns (bool) {... */\n    tag_93:\n        /* \"@openzeppelin/contracts/utils/Pausable.sol\":1773:1777  bool */\n      0x00\n        /* \"@openzeppelin/contracts/utils/Pausable.sol\":1796:1803  _paused */\n      0x01\n      0x14\n      swap1\n      sload\n      swap1\n      0x0100\n      exp\n      swap1\n      div\n      0xff\n      and\n        /* \"@openzeppelin/contracts/utils/Pausable.sol\":1789:1803  return _paused */\n      swap1\n      pop\n        /* \"@openzeppelin/contracts/utils/Pausable.sol\":1726:1810  function paused() public view virtual returns (bool) {... */\n      swap1\n      jump\t// out\n        /* \"contracts/KipuBank.sol\":16029:16223  function verBoveda() external view returns (uint monto_) {... */\n    tag_97:\n        /* \"contracts/KipuBank.sol\":16073:16084  uint monto_ */\n      0x00\n        /* \"contracts/KipuBank.sol\":16169:16187  _cuentasMultiToken */\n      0x07\n        /* \"contracts/KipuBank.sol\":16169:16204  _cuentasMultiToken[address(i_usdc)] */\n      0x00\n        /* \"contracts/KipuBank.sol\":16196:16202  i_usdc */\n      immutable(\"0x70ebf73cb6f1a1207279604d754513a029c2ff46f9198374b0ad04887dd2881e\")\n        /* \"contracts/KipuBank.sol\":16169:16204  _cuentasMultiToken[address(i_usdc)] */\n      0xffffffffffffffffffffffffffffffffffffffff\n      and\n      0xffffffffffffffffffffffffffffffffffffffff\n      and\n      dup2\n      mstore\n      0x20\n      add\n      swap1\n      dup2\n      mstore\n      0x20\n      add\n      0x00\n      keccak256\n        /* \"contracts/KipuBank.sol\":16169:16216  _cuentasMultiToken[address(i_usdc)][msg.sender] */\n      0x00\n        /* \"contracts/KipuBank.sol\":16205:16215  msg.sender */\n      caller\n        /* \"contracts/KipuBank.sol\":16169:16216  _cuentasMultiToken[address(i_usdc)][msg.sender] */\n      0xffffffffffffffffffffffffffffffffffffffff\n      and\n      0xffffffffffffffffffffffffffffffffffffffff\n      and\n      dup2\n      mstore\n      0x20\n      add\n      swap1\n      dup2\n      mstore\n      0x20\n      add\n      0x00\n      keccak256\n      sload\n        /* \"contracts/KipuBank.sol\":16105:16166  convertirEthEnUSD(_cuentasMultiToken[address(0)][msg.sender]) */\n      tag_274\n        /* \"contracts/KipuBank.sol\":16123:16141  _cuentasMultiToken */\n      0x07\n        /* \"contracts/KipuBank.sol\":16123:16153  _cuentasMultiToken[address(0)] */\n      0x00\n        /* \"contracts/KipuBank.sol\":16150:16151  0 */\n      0x00\n        /* \"contracts/KipuBank.sol\":16123:16153  _cuentasMultiToken[address(0)] */\n      0xffffffffffffffffffffffffffffffffffffffff\n      and\n      0xffffffffffffffffffffffffffffffffffffffff\n      and\n      dup2\n      mstore\n      0x20\n      add\n      swap1\n      dup2\n      mstore\n      0x20\n      add\n      0x00\n      keccak256\n        /* \"contracts/KipuBank.sol\":16123:16165  _cuentasMultiToken[address(0)][msg.sender] */\n      0x00\n        /* \"contracts/KipuBank.sol\":16154:16164  msg.sender */\n      caller\n        /* \"contracts/KipuBank.sol\":16123:16165  _cuentasMultiToken[address(0)][msg.sender] */\n      0xffffffffffffffffffffffffffffffffffffffff\n      and\n      0xffffffffffffffffffffffffffffffffffffffff\n      and\n      dup2\n      mstore\n      0x20\n      add\n      swap1\n      dup2\n      mstore\n      0x20\n      add\n      0x00\n      keccak256\n      sload\n        /* \"contracts/KipuBank.sol\":16105:16122  convertirEthEnUSD */\n      tag_200\n        /* \"contracts/KipuBank.sol\":16105:16166  convertirEthEnUSD(_cuentasMultiToken[address(0)][msg.sender]) */\n      jump\t// in\n    tag_274:\n        /* \"contracts/KipuBank.sol\":16105:16216  convertirEthEnUSD(_cuentasMultiToken[address(0)][msg.sender]) + _cuentasMultiToken[address(i_usdc)][msg.sender] */\n      tag_275\n      swap2\n      swap1\n      tag_204\n      jump\t// in\n    tag_275:\n        /* \"contracts/KipuBank.sol\":16096:16216  monto_ = convertirEthEnUSD(_cuentasMultiToken[address(0)][msg.sender]) + _cuentasMultiToken[address(i_usdc)][msg.sender] */\n      swap1\n      pop\n        /* \"contracts/KipuBank.sol\":16029:16223  function verBoveda() external view returns (uint monto_) {... */\n      swap1\n      jump\t// out\n        /* \"contracts/KipuBank.sol\":15175:15523  function depositarUSDC(uint _monto) external verificarDepositoUSDC(_monto) whenNotPaused {... */\n    tag_103:\n        /* \"contracts/KipuBank.sol\":15242:15248  _monto */\n      dup1\n        /* \"contracts/KipuBank.sol\":10073:10074  0 */\n      0x00\n        /* \"contracts/KipuBank.sol\":10063:10069  _monto */\n      dup2\n        /* \"contracts/KipuBank.sol\":10063:10074  _monto == 0 */\n      sub\n        /* \"contracts/KipuBank.sol\":10060:10113  if(_monto == 0) revert KipuBank_MontoCero(msg.sender) */\n      tag_277\n      jumpi\n        /* \"contracts/KipuBank.sol\":10102:10112  msg.sender */\n      caller\n        /* \"contracts/KipuBank.sol\":10083:10113  KipuBank_MontoCero(msg.sender) */\n      mload(0x40)\n      0xb2f0923100000000000000000000000000000000000000000000000000000000\n      dup2\n      mstore\n      0x04\n      add\n      tag_278\n      swap2\n      swap1\n      tag_46\n      jump\t// in\n    tag_278:\n      mload(0x40)\n      dup1\n      swap2\n      sub\n      swap1\n      revert\n        /* \"contracts/KipuBank.sol\":10060:10113  if(_monto == 0) revert KipuBank_MontoCero(msg.sender) */\n    tag_277:\n        /* \"contracts/KipuBank.sol\":10153:10162  i_bankCap */\n      immutable(\"0x56af87718ac6246bac727726c33ea64d0935502347b4fd185bbadeb5f3fb92bd\")\n        /* \"contracts/KipuBank.sol\":10136:10150  _totalContrato */\n      sload(0x06)\n        /* \"contracts/KipuBank.sol\":10127:10133  _monto */\n      dup3\n        /* \"contracts/KipuBank.sol\":10127:10150  _monto + _totalContrato */\n      tag_279\n      swap2\n      swap1\n      tag_204\n      jump\t// in\n    tag_279:\n        /* \"contracts/KipuBank.sol\":10127:10162  _monto + _totalContrato > i_bankCap */\n      gt\n        /* \"contracts/KipuBank.sol\":10123:10202  if (_monto + _totalContrato > i_bankCap) revert KipuBank_LimiteExcedido(_monto) */\n      iszero\n      tag_280\n      jumpi\n        /* \"contracts/KipuBank.sol\":10195:10201  _monto */\n      dup1\n        /* \"contracts/KipuBank.sol\":10171:10202  KipuBank_LimiteExcedido(_monto) */\n      mload(0x40)\n      0x2900b02c00000000000000000000000000000000000000000000000000000000\n      dup2\n      mstore\n      0x04\n      add\n      tag_281\n      swap2\n      swap1\n      tag_99\n      jump\t// in\n    tag_281:\n      mload(0x40)\n      dup1\n      swap2\n      sub\n      swap1\n      revert\n        /* \"contracts/KipuBank.sol\":10123:10202  if (_monto + _totalContrato > i_bankCap) revert KipuBank_LimiteExcedido(_monto) */\n    tag_280:\n        /* \"@openzeppelin/contracts/utils/Pausable.sol\":1350:1369  _requireNotPaused() */\n      tag_283\n        /* \"@openzeppelin/contracts/utils/Pausable.sol\":1350:1367  _requireNotPaused */\n      tag_209\n        /* \"@openzeppelin/contracts/utils/Pausable.sol\":1350:1369  _requireNotPaused() */\n      jump\t// in\n    tag_283:\n        /* \"contracts/KipuBank.sol\":15325:15331  _monto */\n      dup2\n        /* \"contracts/KipuBank.sol\":15274:15292  _cuentasMultiToken */\n      0x07\n        /* \"contracts/KipuBank.sol\":15274:15309  _cuentasMultiToken[address(i_usdc)] */\n      0x00\n        /* \"contracts/KipuBank.sol\":15301:15307  i_usdc */\n      immutable(\"0x70ebf73cb6f1a1207279604d754513a029c2ff46f9198374b0ad04887dd2881e\")\n        /* \"contracts/KipuBank.sol\":15274:15309  _cuentasMultiToken[address(i_usdc)] */\n      0xffffffffffffffffffffffffffffffffffffffff\n      and\n      0xffffffffffffffffffffffffffffffffffffffff\n      and\n      dup2\n      mstore\n      0x20\n      add\n      swap1\n      dup2\n      mstore\n      0x20\n      add\n      0x00\n      keccak256\n        /* \"contracts/KipuBank.sol\":15274:15321  _cuentasMultiToken[address(i_usdc)][msg.sender] */\n      0x00\n        /* \"contracts/KipuBank.sol\":15310:15320  msg.sender */\n      caller\n        /* \"contracts/KipuBank.sol\":15274:15321  _cuentasMultiToken[address(i_usdc)][msg.sender] */\n      0xffffffffffffffffffffffffffffffffffffffff\n      and\n      0xffffffffffffffffffffffffffffffffffffffff\n      and\n      dup2\n      mstore\n      0x20\n      add\n      swap1\n      dup2\n      mstore\n      0x20\n      add\n      0x00\n      keccak256\n      0x00\n        /* \"contracts/KipuBank.sol\":15274:15331  _cuentasMultiToken[address(i_usdc)][msg.sender] += _monto */\n      dup3\n      dup3\n      sload\n      tag_285\n      swap2\n      swap1\n      tag_204\n      jump\t// in\n    tag_285:\n      swap3\n      pop\n      pop\n      dup2\n      swap1\n      sstore\n      pop\n        /* \"contracts/KipuBank.sol\":15341:15351  _depositos */\n      0x04\n      0x00\n        /* \"contracts/KipuBank.sol\":15341:15353  _depositos++ */\n      dup2\n      sload\n      dup1\n      swap3\n      swap2\n      swap1\n      tag_286\n      swap1\n      tag_214\n      jump\t// in\n    tag_286:\n      swap2\n      swap1\n      pop\n      sstore\n      pop\n        /* \"contracts/KipuBank.sol\":15381:15387  _monto */\n      dup2\n        /* \"contracts/KipuBank.sol\":15363:15377  _totalContrato */\n      0x06\n      0x00\n        /* \"contracts/KipuBank.sol\":15363:15387  _totalContrato += _monto */\n      dup3\n      dup3\n      sload\n      tag_287\n      swap2\n      swap1\n      tag_204\n      jump\t// in\n    tag_287:\n      swap3\n      pop\n      pop\n      dup2\n      swap1\n      sstore\n      pop\n        /* \"contracts/KipuBank.sol\":15429:15439  msg.sender */\n      caller\n        /* \"contracts/KipuBank.sol\":15402:15448  KipuBank_DepositoRealizado(msg.sender, _monto) */\n      0xffffffffffffffffffffffffffffffffffffffff\n      and\n      0x9d15693852bf60dc27bd5aa831d0351359b7d01d428ae1baae11f15cbcfebafd\n        /* \"contracts/KipuBank.sol\":15441:15447  _monto */\n      dup4\n        /* \"contracts/KipuBank.sol\":15402:15448  KipuBank_DepositoRealizado(msg.sender, _monto) */\n      mload(0x40)\n      tag_288\n      swap2\n      swap1\n      tag_99\n      jump\t// in\n    tag_288:\n      mload(0x40)\n      dup1\n      swap2\n      sub\n      swap1\n      log2\n        /* \"contracts/KipuBank.sol\":15458:15516  i_usdc.safeTransferFrom(msg.sender, address(this), _monto) */\n      tag_289\n        /* \"contracts/KipuBank.sol\":15482:15492  msg.sender */\n      caller\n        /* \"contracts/KipuBank.sol\":15502:15506  this */\n      address\n        /* \"contracts/KipuBank.sol\":15509:15515  _monto */\n      dup5\n        /* \"contracts/KipuBank.sol\":15458:15464  i_usdc */\n      immutable(\"0x70ebf73cb6f1a1207279604d754513a029c2ff46f9198374b0ad04887dd2881e\")\n        /* \"contracts/KipuBank.sol\":15458:15481  i_usdc.safeTransferFrom */\n      0xffffffffffffffffffffffffffffffffffffffff\n      and\n      tag_290\n      swap1\n        /* \"contracts/KipuBank.sol\":15458:15516  i_usdc.safeTransferFrom(msg.sender, address(this), _monto) */\n      swap4\n      swap3\n      swap2\n      swap1\n      0xffffffff\n      and\n      jump\t// in\n    tag_289:\n        /* \"contracts/KipuBank.sol\":15175:15523  function depositarUSDC(uint _monto) external verificarDepositoUSDC(_monto) whenNotPaused {... */\n      pop\n      pop\n      jump\t// out\n        /* \"contracts/KipuBank.sol\":1569:1604  AggregatorV3Interface public s_feed */\n    tag_106:\n      0x03\n      0x00\n      swap1\n      sload\n      swap1\n      0x0100\n      exp\n      swap1\n      div\n      0xffffffffffffffffffffffffffffffffffffffff\n      and\n      dup2\n      jump\t// out\n        /* \"@openzeppelin/contracts/access/Ownable.sol\":2293:2394  function renounceOwnership() public virtual onlyOwner {... */\n    tag_111:\n        /* \"@openzeppelin/contracts/access/Ownable.sol\":1531:1544  _checkOwner() */\n      tag_292\n        /* \"@openzeppelin/contracts/access/Ownable.sol\":1531:1542  _checkOwner */\n      tag_293\n        /* \"@openzeppelin/contracts/access/Ownable.sol\":1531:1544  _checkOwner() */\n      jump\t// in\n    tag_292:\n        /* \"@openzeppelin/contracts/access/Ownable.sol\":2357:2387  _transferOwnership(address(0)) */\n      tag_295\n        /* \"@openzeppelin/contracts/access/Ownable.sol\":2384:2385  0 */\n      0x00\n        /* \"@openzeppelin/contracts/access/Ownable.sol\":2357:2375  _transferOwnership */\n      tag_296\n        /* \"@openzeppelin/contracts/access/Ownable.sol\":2357:2387  _transferOwnership(address(0)) */\n      jump\t// in\n    tag_295:\n        /* \"@openzeppelin/contracts/access/Ownable.sol\":2293:2394  function renounceOwnership() public virtual onlyOwner {... */\n      jump\t// out\n        /* \"contracts/KipuBank.sol\":16585:16712  function verSaldoETH() external view returns (uint saldo_) {... */\n    tag_114:\n        /* \"contracts/KipuBank.sol\":16631:16642  uint saldo_ */\n      0x00\n        /* \"contracts/KipuBank.sol\":16663:16681  _cuentasMultiToken */\n      0x07\n        /* \"contracts/KipuBank.sol\":16663:16693  _cuentasMultiToken[address(0)] */\n      0x00\n        /* \"contracts/KipuBank.sol\":16690:16691  0 */\n      0x00\n        /* \"contracts/KipuBank.sol\":16663:16693  _cuentasMultiToken[address(0)] */\n      0xffffffffffffffffffffffffffffffffffffffff\n      and\n      0xffffffffffffffffffffffffffffffffffffffff\n      and\n      dup2\n      mstore\n      0x20\n      add\n      swap1\n      dup2\n      mstore\n      0x20\n      add\n      0x00\n      keccak256\n        /* \"contracts/KipuBank.sol\":16663:16705  _cuentasMultiToken[address(0)][msg.sender] */\n      0x00\n        /* \"contracts/KipuBank.sol\":16694:16704  msg.sender */\n      caller\n        /* \"contracts/KipuBank.sol\":16663:16705  _cuentasMultiToken[address(0)][msg.sender] */\n      0xffffffffffffffffffffffffffffffffffffffff\n      and\n      0xffffffffffffffffffffffffffffffffffffffff\n      and\n      dup2\n      mstore\n      0x20\n      add\n      swap1\n      dup2\n      mstore\n      0x20\n      add\n      0x00\n      keccak256\n      sload\n        /* \"contracts/KipuBank.sol\":16654:16705  saldo_ = _cuentasMultiToken[address(0)][msg.sender] */\n      swap1\n      pop\n        /* \"contracts/KipuBank.sol\":16585:16712  function verSaldoETH() external view returns (uint saldo_) {... */\n      swap1\n      jump\t// out\n        /* \"contracts/KipuBank.sol\":18354:19144  function setFeeds(address _nuevoFeed) external soloOwnerORol(FEED_MANAGER) whenPaused {... */\n    tag_120:\n        /* \"contracts/KipuBank.sol\":1142:1167  keccak256(\"FEED_MANAGER\") */\n      0x9bbb3ee3bdfbe971682b08854a620ca4bf696f8e0c269e5c5b129a18e64d29df\n        /* \"contracts/KipuBank.sol\":9387:9397  msg.sender */\n      caller\n        /* \"contracts/KipuBank.sol\":9376:9397  owner() != msg.sender */\n      0xffffffffffffffffffffffffffffffffffffffff\n      and\n        /* \"contracts/KipuBank.sol\":9376:9383  owner() */\n      tag_299\n        /* \"contracts/KipuBank.sol\":9376:9381  owner */\n      tag_131\n        /* \"contracts/KipuBank.sol\":9376:9383  owner() */\n      jump\t// in\n    tag_299:\n        /* \"contracts/KipuBank.sol\":9376:9397  owner() != msg.sender */\n      0xffffffffffffffffffffffffffffffffffffffff\n      and\n      eq\n      iszero\n        /* \"contracts/KipuBank.sol\":9376:9426  owner() != msg.sender || !hasRole(rol, msg.sender) */\n      dup1\n      tag_300\n      jumpi\n      pop\n        /* \"contracts/KipuBank.sol\":9402:9426  hasRole(rol, msg.sender) */\n      tag_301\n        /* \"contracts/KipuBank.sol\":9410:9413  rol */\n      dup2\n        /* \"contracts/KipuBank.sol\":9415:9425  msg.sender */\n      caller\n        /* \"contracts/KipuBank.sol\":9402:9409  hasRole */\n      tag_136\n        /* \"contracts/KipuBank.sol\":9402:9426  hasRole(rol, msg.sender) */\n      jump\t// in\n    tag_301:\n        /* \"contracts/KipuBank.sol\":9401:9426  !hasRole(rol, msg.sender) */\n      iszero\n        /* \"contracts/KipuBank.sol\":9376:9426  owner() != msg.sender || !hasRole(rol, msg.sender) */\n    tag_300:\n        /* \"contracts/KipuBank.sol\":9373:9493  if(owner() != msg.sender || !hasRole(rol, msg.sender)) {... */\n      iszero\n      tag_302\n      jumpi\n        /* \"contracts/KipuBank.sol\":9471:9481  msg.sender */\n      caller\n        /* \"contracts/KipuBank.sol\":9449:9482  KipuBank_NoAutorizado(msg.sender) */\n      mload(0x40)\n      0x06286eaa00000000000000000000000000000000000000000000000000000000\n      dup2\n      mstore\n      0x04\n      add\n      tag_303\n      swap2\n      swap1\n      tag_46\n      jump\t// in\n    tag_303:\n      mload(0x40)\n      dup1\n      swap2\n      sub\n      swap1\n      revert\n        /* \"contracts/KipuBank.sol\":9373:9493  if(owner() != msg.sender || !hasRole(rol, msg.sender)) {... */\n    tag_302:\n        /* \"@openzeppelin/contracts/utils/Pausable.sol\":1597:1613  _requirePaused() */\n      tag_305\n        /* \"@openzeppelin/contracts/utils/Pausable.sol\":1597:1611  _requirePaused */\n      tag_251\n        /* \"@openzeppelin/contracts/utils/Pausable.sol\":1597:1613  _requirePaused() */\n      jump\t// in\n    tag_305:\n        /* \"contracts/KipuBank.sol\":18476:18477  0 */\n      0x00\n        /* \"contracts/KipuBank.sol\":18454:18478  _nuevoFeed == address(0) */\n      0xffffffffffffffffffffffffffffffffffffffff\n      and\n        /* \"contracts/KipuBank.sol\":18454:18464  _nuevoFeed */\n      dup3\n        /* \"contracts/KipuBank.sol\":18454:18478  _nuevoFeed == address(0) */\n      0xffffffffffffffffffffffffffffffffffffffff\n      and\n      sub\n        /* \"contracts/KipuBank.sol\":18450:18515  if (_nuevoFeed == address(0)) revert KipuBank_DireccionInvalida() */\n      tag_307\n      jumpi\n        /* \"contracts/KipuBank.sol\":18487:18515  KipuBank_DireccionInvalida() */\n      mload(0x40)\n      0x463858d600000000000000000000000000000000000000000000000000000000\n      dup2\n      mstore\n      0x04\n      add\n      mload(0x40)\n      dup1\n      swap2\n      sub\n      swap1\n      revert\n        /* \"contracts/KipuBank.sol\":18450:18515  if (_nuevoFeed == address(0)) revert KipuBank_DireccionInvalida() */\n    tag_307:\n        /* \"contracts/KipuBank.sol\":18552:18562  _nuevoFeed */\n      dup2\n        /* \"contracts/KipuBank.sol\":18530:18579  AggregatorV3Interface(_nuevoFeed).latestRoundData */\n      0xffffffffffffffffffffffffffffffffffffffff\n      and\n      0xfeaf968c\n        /* \"contracts/KipuBank.sol\":18530:18581  AggregatorV3Interface(_nuevoFeed).latestRoundData() */\n      mload(0x40)\n      dup2\n      0xffffffff\n      and\n      0xe0\n      shl\n      dup2\n      mstore\n      0x04\n      add\n      0xa0\n      mload(0x40)\n      dup1\n      dup4\n      sub\n      dup2\n      dup7\n      gas\n      staticcall\n      swap3\n      pop\n      pop\n      pop\n      dup1\n      iszero\n      tag_308\n      jumpi\n      pop\n      mload(0x40)\n      returndatasize\n      not(0x1f)\n      0x1f\n      dup3\n      add\n      and\n      dup3\n      add\n      dup1\n      0x40\n      mstore\n      pop\n      dup2\n      add\n      swap1\n      tag_309\n      swap2\n      swap1\n      tag_310\n      jump\t// in\n    tag_309:\n      0x01\n    tag_308:\n        /* \"contracts/KipuBank.sol\":18526:19130  try AggregatorV3Interface(_nuevoFeed).latestRoundData() returns (... */\n      tag_311\n      jumpi\n        /* \"contracts/KipuBank.sol\":19108:19118  _nuevoFeed */\n      dup2\n        /* \"contracts/KipuBank.sol\":19086:19119  KipuBank_FeedInvalido(_nuevoFeed) */\n      mload(0x40)\n      0x59eea31500000000000000000000000000000000000000000000000000000000\n      dup2\n      mstore\n      0x04\n      add\n      tag_315\n      swap2\n      swap1\n      tag_46\n      jump\t// in\n    tag_315:\n      mload(0x40)\n      dup1\n      swap2\n      sub\n      swap1\n      revert\n        /* \"contracts/KipuBank.sol\":18526:19130  try AggregatorV3Interface(_nuevoFeed).latestRoundData() returns (... */\n    tag_311:\n        /* \"contracts/KipuBank.sol\":18696:18697  0 */\n      0x00\n        /* \"contracts/KipuBank.sol\":18687:18692  price */\n      dup5\n        /* \"contracts/KipuBank.sol\":18687:18697  price <= 0 */\n      sgt\n        /* \"contracts/KipuBank.sol\":18684:18739  if(price <= 0) revert KipuBank_FeedInvalido(_nuevoFeed) */\n      tag_317\n      jumpi\n        /* \"contracts/KipuBank.sol\":18728:18738  _nuevoFeed */\n      dup7\n        /* \"contracts/KipuBank.sol\":18706:18739  KipuBank_FeedInvalido(_nuevoFeed) */\n      mload(0x40)\n      0x59eea31500000000000000000000000000000000000000000000000000000000\n      dup2\n      mstore\n      0x04\n      add\n      tag_318\n      swap2\n      swap1\n      tag_46\n      jump\t// in\n    tag_318:\n      mload(0x40)\n      dup1\n      swap2\n      sub\n      swap1\n      revert\n        /* \"contracts/KipuBank.sol\":18684:18739  if(price <= 0) revert KipuBank_FeedInvalido(_nuevoFeed) */\n    tag_317:\n        /* \"contracts/KipuBank.sol\":1752:1756  3600 */\n      0x0e10\n        /* \"contracts/KipuBank.sol\":18768:18806  block.timestamp - updateAt > HEARTBEAT */\n      0xffff\n      and\n        /* \"contracts/KipuBank.sol\":18786:18794  updateAt */\n      dup3\n        /* \"contracts/KipuBank.sol\":18768:18783  block.timestamp */\n      timestamp\n        /* \"contracts/KipuBank.sol\":18768:18794  block.timestamp - updateAt */\n      tag_319\n      swap2\n      swap1\n      tag_320\n      jump\t// in\n    tag_319:\n        /* \"contracts/KipuBank.sol\":18768:18806  block.timestamp - updateAt > HEARTBEAT */\n      gt\n        /* \"contracts/KipuBank.sol\":18765:18857  if(block.timestamp - updateAt > HEARTBEAT) revert KipuBank_PrecioDesactualizado(uint(price)) */\n      iszero\n      tag_321\n      jumpi\n        /* \"contracts/KipuBank.sol\":18850:18855  price */\n      dup4\n        /* \"contracts/KipuBank.sol\":18815:18857  KipuBank_PrecioDesactualizado(uint(price)) */\n      mload(0x40)\n      0x2609a26500000000000000000000000000000000000000000000000000000000\n      dup2\n      mstore\n      0x04\n      add\n      tag_322\n      swap2\n      swap1\n      tag_99\n      jump\t// in\n    tag_322:\n      mload(0x40)\n      dup1\n      swap2\n      sub\n      swap1\n      revert\n        /* \"contracts/KipuBank.sol\":18765:18857  if(block.timestamp - updateAt > HEARTBEAT) revert KipuBank_PrecioDesactualizado(uint(price)) */\n    tag_321:\n        /* \"contracts/KipuBank.sol\":18884:18904  address feedAnterior */\n      0x00\n        /* \"contracts/KipuBank.sol\":18915:18921  s_feed */\n      0x03\n      0x00\n      swap1\n      sload\n      swap1\n      0x0100\n      exp\n      swap1\n      div\n      0xffffffffffffffffffffffffffffffffffffffff\n      and\n        /* \"contracts/KipuBank.sol\":18884:18922  address feedAnterior = address(s_feed) */\n      swap1\n      pop\n        /* \"contracts/KipuBank.sol\":18967:18977  _nuevoFeed */\n      dup8\n        /* \"contracts/KipuBank.sol\":18936:18942  s_feed */\n      0x03\n      0x00\n        /* \"contracts/KipuBank.sol\":18936:18978  s_feed = AggregatorV3Interface(_nuevoFeed) */\n      0x0100\n      exp\n      dup2\n      sload\n      dup2\n      0xffffffffffffffffffffffffffffffffffffffff\n      mul\n      not\n      and\n      swap1\n      dup4\n      0xffffffffffffffffffffffffffffffffffffffff\n      and\n      mul\n      or\n      swap1\n      sstore\n      pop\n        /* \"contracts/KipuBank.sol\":19036:19046  _nuevoFeed */\n      dup8\n        /* \"contracts/KipuBank.sol\":18997:19047  KipuBank_FeedActualizado(feedAnterior, _nuevoFeed) */\n      0xffffffffffffffffffffffffffffffffffffffff\n      and\n        /* \"contracts/KipuBank.sol\":19022:19034  feedAnterior */\n      dup2\n        /* \"contracts/KipuBank.sol\":18997:19047  KipuBank_FeedActualizado(feedAnterior, _nuevoFeed) */\n      0xffffffffffffffffffffffffffffffffffffffff\n      and\n      0x03028d95bd98a5ec8c81b55c2b61e734dde89bb773697b429bd195fd00582b30\n      mload(0x40)\n      mload(0x40)\n      dup1\n      swap2\n      sub\n      swap1\n      log3\n        /* \"contracts/KipuBank.sol\":18670:19058  {... */\n      pop\n        /* \"contracts/KipuBank.sol\":18582:19058  returns (... */\n      pop\n      pop\n      pop\n      pop\n      pop\n        /* \"contracts/KipuBank.sol\":18354:19144  function setFeeds(address _nuevoFeed) external soloOwnerORol(FEED_MANAGER) whenPaused {... */\n      pop\n      pop\n      jump\t// out\n        /* \"contracts/KipuBank.sol\":14008:14106  function retirarETH(uint _monto) external whenNotPaused {... */\n    tag_124:\n        /* \"@openzeppelin/contracts/utils/Pausable.sol\":1350:1369  _requireNotPaused() */\n      tag_324\n        /* \"@openzeppelin/contracts/utils/Pausable.sol\":1350:1367  _requireNotPaused */\n      tag_209\n        /* \"@openzeppelin/contracts/utils/Pausable.sol\":1350:1369  _requireNotPaused() */\n      jump\t// in\n    tag_324:\n        /* \"contracts/KipuBank.sol\":14074:14099  _retirarFondosETH(_monto) */\n      tag_326\n        /* \"contracts/KipuBank.sol\":14092:14098  _monto */\n      dup2\n        /* \"contracts/KipuBank.sol\":14074:14091  _retirarFondosETH */\n      tag_327\n        /* \"contracts/KipuBank.sol\":14074:14099  _retirarFondosETH(_monto) */\n      jump\t// in\n    tag_326:\n        /* \"contracts/KipuBank.sol\":14008:14106  function retirarETH(uint _monto) external whenNotPaused {... */\n      pop\n      jump\t// out\n        /* \"contracts/KipuBank.sol\":17604:18131  function transferirOwner(address _nuevoOwner) external onlyOwner whenPaused {... */\n    tag_128:\n        /* \"@openzeppelin/contracts/access/Ownable.sol\":1531:1544  _checkOwner() */\n      tag_329\n        /* \"@openzeppelin/contracts/access/Ownable.sol\":1531:1542  _checkOwner */\n      tag_293\n        /* \"@openzeppelin/contracts/access/Ownable.sol\":1531:1544  _checkOwner() */\n      jump\t// in\n    tag_329:\n        /* \"@openzeppelin/contracts/utils/Pausable.sol\":1597:1613  _requirePaused() */\n      tag_331\n        /* \"@openzeppelin/contracts/utils/Pausable.sol\":1597:1611  _requirePaused */\n      tag_251\n        /* \"@openzeppelin/contracts/utils/Pausable.sol\":1597:1613  _requirePaused() */\n      jump\t// in\n    tag_331:\n        /* \"contracts/KipuBank.sol\":17699:17718  address ownerActual */\n      0x00\n        /* \"contracts/KipuBank.sol\":17721:17728  owner() */\n      tag_333\n        /* \"contracts/KipuBank.sol\":17721:17726  owner */\n      tag_131\n        /* \"contracts/KipuBank.sol\":17721:17728  owner() */\n      jump\t// in\n    tag_333:\n        /* \"contracts/KipuBank.sol\":17699:17728  address ownerActual = owner() */\n      swap1\n      pop\n        /* \"contracts/KipuBank.sol\":17739:17783  _revokeRole(DEFAULT_ADMIN_ROLE, ownerActual) */\n      tag_334\n        /* \"@openzeppelin/contracts/access/AccessControl.sol\":2241:2245  0x00 */\n      0x00\n        /* \"contracts/KipuBank.sol\":17751:17769  DEFAULT_ADMIN_ROLE */\n      0x00\n      shl\n        /* \"contracts/KipuBank.sol\":17771:17782  ownerActual */\n      dup3\n        /* \"contracts/KipuBank.sol\":17739:17750  _revokeRole */\n      tag_242\n        /* \"contracts/KipuBank.sol\":17739:17783  _revokeRole(DEFAULT_ADMIN_ROLE, ownerActual) */\n      jump\t// in\n    tag_334:\n      pop\n        /* \"contracts/KipuBank.sol\":17793:17825  _revokeRole(PAUSER, ownerActual) */\n      tag_335\n        /* \"contracts/KipuBank.sol\":1028:1047  keccak256(\"PAUSER\") */\n      0x539440820030c4994db4e31b6b800deafd503688728f932addfe7a410515c14c\n        /* \"contracts/KipuBank.sol\":17813:17824  ownerActual */\n      dup3\n        /* \"contracts/KipuBank.sol\":17793:17804  _revokeRole */\n      tag_242\n        /* \"contracts/KipuBank.sol\":17793:17825  _revokeRole(PAUSER, ownerActual) */\n      jump\t// in\n    tag_335:\n      pop\n        /* \"contracts/KipuBank.sol\":17835:17873  _revokeRole(FEED_MANAGER, ownerActual) */\n      tag_336\n        /* \"contracts/KipuBank.sol\":1142:1167  keccak256(\"FEED_MANAGER\") */\n      0x9bbb3ee3bdfbe971682b08854a620ca4bf696f8e0c269e5c5b129a18e64d29df\n        /* \"contracts/KipuBank.sol\":17861:17872  ownerActual */\n      dup3\n        /* \"contracts/KipuBank.sol\":17835:17846  _revokeRole */\n      tag_242\n        /* \"contracts/KipuBank.sol\":17835:17873  _revokeRole(FEED_MANAGER, ownerActual) */\n      jump\t// in\n    tag_336:\n      pop\n        /* \"contracts/KipuBank.sol\":17884:17915  _transferOwnership(_nuevoOwner) */\n      tag_337\n        /* \"contracts/KipuBank.sol\":17903:17914  _nuevoOwner */\n      dup3\n        /* \"contracts/KipuBank.sol\":17884:17902  _transferOwnership */\n      tag_296\n        /* \"contracts/KipuBank.sol\":17884:17915  _transferOwnership(_nuevoOwner) */\n      jump\t// in\n    tag_337:\n        /* \"contracts/KipuBank.sol\":17926:17969  _grantRole(DEFAULT_ADMIN_ROLE, _nuevoOwner) */\n      tag_338\n        /* \"@openzeppelin/contracts/access/AccessControl.sol\":2241:2245  0x00 */\n      0x00\n        /* \"contracts/KipuBank.sol\":17937:17955  DEFAULT_ADMIN_ROLE */\n      0x00\n      shl\n        /* \"contracts/KipuBank.sol\":17957:17968  _nuevoOwner */\n      dup4\n        /* \"contracts/KipuBank.sol\":17926:17936  _grantRole */\n      tag_236\n        /* \"contracts/KipuBank.sol\":17926:17969  _grantRole(DEFAULT_ADMIN_ROLE, _nuevoOwner) */\n      jump\t// in\n    tag_338:\n      pop\n        /* \"contracts/KipuBank.sol\":17979:18016  _grantRole(FEED_MANAGER, _nuevoOwner) */\n      tag_339\n        /* \"contracts/KipuBank.sol\":1142:1167  keccak256(\"FEED_MANAGER\") */\n      0x9bbb3ee3bdfbe971682b08854a620ca4bf696f8e0c269e5c5b129a18e64d29df\n        /* \"contracts/KipuBank.sol\":18004:18015  _nuevoOwner */\n      dup4\n        /* \"contracts/KipuBank.sol\":17979:17989  _grantRole */\n      tag_236\n        /* \"contracts/KipuBank.sol\":17979:18016  _grantRole(FEED_MANAGER, _nuevoOwner) */\n      jump\t// in\n    tag_339:\n      pop\n        /* \"contracts/KipuBank.sol\":18026:18057  _grantRole(PAUSER, _nuevoOwner) */\n      tag_340\n        /* \"contracts/KipuBank.sol\":1028:1047  keccak256(\"PAUSER\") */\n      0x539440820030c4994db4e31b6b800deafd503688728f932addfe7a410515c14c\n        /* \"contracts/KipuBank.sol\":18045:18056  _nuevoOwner */\n      dup4\n        /* \"contracts/KipuBank.sol\":18026:18036  _grantRole */\n      tag_236\n        /* \"contracts/KipuBank.sol\":18026:18057  _grantRole(PAUSER, _nuevoOwner) */\n      jump\t// in\n    tag_340:\n      pop\n        /* \"contracts/KipuBank.sol\":18112:18123  _nuevoOwner */\n      dup2\n        /* \"contracts/KipuBank.sol\":18073:18124  KipuBank_OwnerTransferido(ownerActual, _nuevoOwner) */\n      0xffffffffffffffffffffffffffffffffffffffff\n      and\n        /* \"contracts/KipuBank.sol\":18099:18110  ownerActual */\n      dup2\n        /* \"contracts/KipuBank.sol\":18073:18124  KipuBank_OwnerTransferido(ownerActual, _nuevoOwner) */\n      0xffffffffffffffffffffffffffffffffffffffff\n      and\n      0x2ed8931cd5c0d36856a21c6245bf2e305f989a55c31be2b6cb7ec0a4da43c319\n      mload(0x40)\n      mload(0x40)\n      dup1\n      swap2\n      sub\n      swap1\n      log3\n        /* \"contracts/KipuBank.sol\":17680:18131  {... */\n      pop\n        /* \"contracts/KipuBank.sol\":17604:18131  function transferirOwner(address _nuevoOwner) external onlyOwner whenPaused {... */\n      pop\n      jump\t// out\n        /* \"@openzeppelin/contracts/access/Ownable.sol\":1638:1723  function owner() public view virtual returns (address) {... */\n    tag_131:\n        /* \"@openzeppelin/contracts/access/Ownable.sol\":1684:1691  address */\n      0x00\n        /* \"@openzeppelin/contracts/access/Ownable.sol\":1710:1716  _owner */\n      0x01\n      0x00\n      swap1\n      sload\n      swap1\n      0x0100\n      exp\n      swap1\n      div\n      0xffffffffffffffffffffffffffffffffffffffff\n      and\n        /* \"@openzeppelin/contracts/access/Ownable.sol\":1703:1716  return _owner */\n      swap1\n      pop\n        /* \"@openzeppelin/contracts/access/Ownable.sol\":1638:1723  function owner() public view virtual returns (address) {... */\n      swap1\n      jump\t// out\n        /* \"@openzeppelin/contracts/access/AccessControl.sol\":2830:2966  function hasRole(bytes32 role, address account) public view virtual returns (bool) {... */\n    tag_136:\n        /* \"@openzeppelin/contracts/access/AccessControl.sol\":2907:2911  bool */\n      0x00\n        /* \"@openzeppelin/contracts/access/AccessControl.sol\":2930:2936  _roles */\n      0x02\n        /* \"@openzeppelin/contracts/access/AccessControl.sol\":2930:2942  _roles[role] */\n      0x00\n        /* \"@openzeppelin/contracts/access/AccessControl.sol\":2937:2941  role */\n      dup5\n        /* \"@openzeppelin/contracts/access/AccessControl.sol\":2930:2942  _roles[role] */\n      dup2\n      mstore\n      0x20\n      add\n      swap1\n      dup2\n      mstore\n      0x20\n      add\n      0x00\n      keccak256\n        /* \"@openzeppelin/contracts/access/AccessControl.sol\":2930:2950  _roles[role].hasRole */\n      0x00\n      add\n        /* \"@openzeppelin/contracts/access/AccessControl.sol\":2930:2959  _roles[role].hasRole[account] */\n      0x00\n        /* \"@openzeppelin/contracts/access/AccessControl.sol\":2951:2958  account */\n      dup4\n        /* \"@openzeppelin/contracts/access/AccessControl.sol\":2930:2959  _roles[role].hasRole[account] */\n      0xffffffffffffffffffffffffffffffffffffffff\n      and\n      0xffffffffffffffffffffffffffffffffffffffff\n      and\n      dup2\n      mstore\n      0x20\n      add\n      swap1\n      dup2\n      mstore\n      0x20\n      add\n      0x00\n      keccak256\n      0x00\n      swap1\n      sload\n      swap1\n      0x0100\n      exp\n      swap1\n      div\n      0xff\n      and\n        /* \"@openzeppelin/contracts/access/AccessControl.sol\":2923:2959  return _roles[role].hasRole[account] */\n      swap1\n      pop\n        /* \"@openzeppelin/contracts/access/AccessControl.sol\":2830:2966  function hasRole(bytes32 role, address account) public view virtual returns (bool) {... */\n      swap3\n      swap2\n      pop\n      pop\n      jump\t// out\n        /* \"contracts/KipuBank.sol\":14242:14342  function retirarUSDC(uint _monto) external whenNotPaused {... */\n    tag_141:\n        /* \"@openzeppelin/contracts/utils/Pausable.sol\":1350:1369  _requireNotPaused() */\n      tag_344\n        /* \"@openzeppelin/contracts/utils/Pausable.sol\":1350:1367  _requireNotPaused */\n      tag_209\n        /* \"@openzeppelin/contracts/utils/Pausable.sol\":1350:1369  _requireNotPaused() */\n      jump\t// in\n    tag_344:\n        /* \"contracts/KipuBank.sol\":14309:14335  _retirarFondosUSDC(_monto) */\n      tag_346\n        /* \"contracts/KipuBank.sol\":14328:14334  _monto */\n      dup2\n        /* \"contracts/KipuBank.sol\":14309:14327  _retirarFondosUSDC */\n      tag_347\n        /* \"contracts/KipuBank.sol\":14309:14335  _retirarFondosUSDC(_monto) */\n      jump\t// in\n    tag_346:\n        /* \"contracts/KipuBank.sol\":14242:14342  function retirarUSDC(uint _monto) external whenNotPaused {... */\n      pop\n      jump\t// out\n        /* \"contracts/KipuBank.sol\":17286:17381  function verTotalContrato() external view returns (uint) {... */\n    tag_144:\n        /* \"contracts/KipuBank.sol\":17337:17341  uint */\n      0x00\n        /* \"contracts/KipuBank.sol\":17360:17374  _totalContrato */\n      sload(0x06)\n        /* \"contracts/KipuBank.sol\":17353:17374  return _totalContrato */\n      swap1\n      pop\n        /* \"contracts/KipuBank.sol\":17286:17381  function verTotalContrato() external view returns (uint) {... */\n      swap1\n      jump\t// out\n        /* \"contracts/KipuBank.sol\":16340:16473  function verSaldoUSDC() external view returns (uint saldo_) {... */\n    tag_148:\n        /* \"contracts/KipuBank.sol\":16387:16398  uint saldo_ */\n      0x00\n        /* \"contracts/KipuBank.sol\":16419:16437  _cuentasMultiToken */\n      0x07\n        /* \"contracts/KipuBank.sol\":16419:16454  _cuentasMultiToken[address(i_usdc)] */\n      0x00\n        /* \"contracts/KipuBank.sol\":16446:16452  i_usdc */\n      immutable(\"0x70ebf73cb6f1a1207279604d754513a029c2ff46f9198374b0ad04887dd2881e\")\n        /* \"contracts/KipuBank.sol\":16419:16454  _cuentasMultiToken[address(i_usdc)] */\n      0xffffffffffffffffffffffffffffffffffffffff\n      and\n      0xffffffffffffffffffffffffffffffffffffffff\n      and\n      dup2\n      mstore\n      0x20\n      add\n      swap1\n      dup2\n      mstore\n      0x20\n      add\n      0x00\n      keccak256\n        /* \"contracts/KipuBank.sol\":16419:16466  _cuentasMultiToken[address(i_usdc)][msg.sender] */\n      0x00\n        /* \"contracts/KipuBank.sol\":16455:16465  msg.sender */\n      caller\n        /* \"contracts/KipuBank.sol\":16419:16466  _cuentasMultiToken[address(i_usdc)][msg.sender] */\n      0xffffffffffffffffffffffffffffffffffffffff\n      and\n      0xffffffffffffffffffffffffffffffffffffffff\n      and\n      dup2\n      mstore\n      0x20\n      add\n      swap1\n      dup2\n      mstore\n      0x20\n      add\n      0x00\n      keccak256\n      sload\n        /* \"contracts/KipuBank.sol\":16410:16466  saldo_ = _cuentasMultiToken[address(i_usdc)][msg.sender] */\n      swap1\n      pop\n        /* \"contracts/KipuBank.sol\":16340:16473  function verSaldoUSDC() external view returns (uint saldo_) {... */\n      swap1\n      jump\t// out\n        /* \"@openzeppelin/contracts/access/AccessControl.sol\":2196:2245  bytes32 public constant DEFAULT_ADMIN_ROLE = 0x00 */\n    tag_152:\n        /* \"@openzeppelin/contracts/access/AccessControl.sol\":2241:2245  0x00 */\n      0x00\n        /* \"@openzeppelin/contracts/access/AccessControl.sol\":2196:2245  bytes32 public constant DEFAULT_ADMIN_ROLE = 0x00 */\n      0x00\n      shl\n      dup2\n      jump\t// out\n        /* \"contracts/KipuBank.sol\":17070:17158  function verTotalRetiros() external view returns (uint) {... */\n    tag_156:\n        /* \"contracts/KipuBank.sol\":17120:17124  uint */\n      0x00\n        /* \"contracts/KipuBank.sol\":17143:17151  _retiros */\n      sload(0x05)\n        /* \"contracts/KipuBank.sol\":17136:17151  return _retiros */\n      swap1\n      pop\n        /* \"contracts/KipuBank.sol\":17070:17158  function verTotalRetiros() external view returns (uint) {... */\n      swap1\n      jump\t// out\n        /* \"contracts/KipuBank.sol\":1103:1167  bytes32 public constant FEED_MANAGER = keccak256(\"FEED_MANAGER\") */\n    tag_160:\n        /* \"contracts/KipuBank.sol\":1142:1167  keccak256(\"FEED_MANAGER\") */\n      0x9bbb3ee3bdfbe971682b08854a620ca4bf696f8e0c269e5c5b129a18e64d29df\n        /* \"contracts/KipuBank.sol\":1103:1167  bytes32 public constant FEED_MANAGER = keccak256(\"FEED_MANAGER\") */\n      dup2\n      jump\t// out\n        /* \"contracts/KipuBank.sol\":19915:20062  function darRol(address cuenta, bytes32 rol) external onlyOwner {... */\n    tag_166:\n        /* \"@openzeppelin/contracts/access/Ownable.sol\":1531:1544  _checkOwner() */\n      tag_352\n        /* \"@openzeppelin/contracts/access/Ownable.sol\":1531:1542  _checkOwner */\n      tag_293\n        /* \"@openzeppelin/contracts/access/Ownable.sol\":1531:1544  _checkOwner() */\n      jump\t// in\n    tag_352:\n        /* \"contracts/KipuBank.sol\":19989:20011  grantRole(rol, cuenta) */\n      tag_354\n        /* \"contracts/KipuBank.sol\":19999:20002  rol */\n      dup2\n        /* \"contracts/KipuBank.sol\":20004:20010  cuenta */\n      dup4\n        /* \"contracts/KipuBank.sol\":19989:19998  grantRole */\n      tag_78\n        /* \"contracts/KipuBank.sol\":19989:20011  grantRole(rol, cuenta) */\n      jump\t// in\n    tag_354:\n        /* \"contracts/KipuBank.sol\":20043:20049  cuenta */\n      dup2\n        /* \"contracts/KipuBank.sol\":20026:20055  KipuBank_RolDado(cuenta, rol) */\n      0xffffffffffffffffffffffffffffffffffffffff\n      and\n      0x56a39044e0e7ad5c8db0abdb4925f3d610d0f66ab2d22536712afd06e6aa6032\n        /* \"contracts/KipuBank.sol\":20051:20054  rol */\n      dup3\n        /* \"contracts/KipuBank.sol\":20026:20055  KipuBank_RolDado(cuenta, rol) */\n      mload(0x40)\n      tag_355\n      swap2\n      swap1\n      tag_73\n      jump\t// in\n    tag_355:\n      mload(0x40)\n      dup1\n      swap2\n      sub\n      swap1\n      log2\n        /* \"contracts/KipuBank.sol\":19915:20062  function darRol(address cuenta, bytes32 rol) external onlyOwner {... */\n      pop\n      pop\n      jump\t// out\n        /* \"@openzeppelin/contracts/access/AccessControl.sol\":4618:4756  function revokeRole(bytes32 role, address account) public virtual onlyRole(getRoleAdmin(role)) {... */\n    tag_170:\n        /* \"@openzeppelin/contracts/access/AccessControl.sol\":4693:4711  getRoleAdmin(role) */\n      tag_356\n        /* \"@openzeppelin/contracts/access/AccessControl.sol\":4706:4710  role */\n      dup3\n        /* \"@openzeppelin/contracts/access/AccessControl.sol\":4693:4705  getRoleAdmin */\n      tag_71\n        /* \"@openzeppelin/contracts/access/AccessControl.sol\":4693:4711  getRoleAdmin(role) */\n      jump\t// in\n    tag_356:\n        /* \"@openzeppelin/contracts/access/AccessControl.sol\":2473:2489  _checkRole(role) */\n      tag_358\n        /* \"@openzeppelin/contracts/access/AccessControl.sol\":2484:2488  role */\n      dup2\n        /* \"@openzeppelin/contracts/access/AccessControl.sol\":2473:2483  _checkRole */\n      tag_233\n        /* \"@openzeppelin/contracts/access/AccessControl.sol\":2473:2489  _checkRole(role) */\n      jump\t// in\n    tag_358:\n        /* \"@openzeppelin/contracts/access/AccessControl.sol\":4723:4749  _revokeRole(role, account) */\n      tag_360\n        /* \"@openzeppelin/contracts/access/AccessControl.sol\":4735:4739  role */\n      dup4\n        /* \"@openzeppelin/contracts/access/AccessControl.sol\":4741:4748  account */\n      dup4\n        /* \"@openzeppelin/contracts/access/AccessControl.sol\":4723:4734  _revokeRole */\n      tag_242\n        /* \"@openzeppelin/contracts/access/AccessControl.sol\":4723:4749  _revokeRole(role, account) */\n      jump\t// in\n    tag_360:\n      pop\n        /* \"@openzeppelin/contracts/access/AccessControl.sol\":4618:4756  function revokeRole(bytes32 role, address account) public virtual onlyRole(getRoleAdmin(role)) {... */\n      pop\n      pop\n      pop\n      jump\t// out\n        /* \"contracts/KipuBank.sol\":995:1047  bytes32 public constant PAUSER = keccak256(\"PAUSER\") */\n    tag_173:\n        /* \"contracts/KipuBank.sol\":1028:1047  keccak256(\"PAUSER\") */\n      0x539440820030c4994db4e31b6b800deafd503688728f932addfe7a410515c14c\n        /* \"contracts/KipuBank.sol\":995:1047  bytes32 public constant PAUSER = keccak256(\"PAUSER\") */\n      dup2\n      jump\t// out\n        /* \"contracts/KipuBank.sol\":20241:20397  function revocarRol(address cuenta, bytes32 rol) external onlyOwner {... */\n    tag_178:\n        /* \"@openzeppelin/contracts/access/Ownable.sol\":1531:1544  _checkOwner() */\n      tag_362\n        /* \"@openzeppelin/contracts/access/Ownable.sol\":1531:1542  _checkOwner */\n      tag_293\n        /* \"@openzeppelin/contracts/access/Ownable.sol\":1531:1544  _checkOwner() */\n      jump\t// in\n    tag_362:\n        /* \"contracts/KipuBank.sol\":20319:20342  revokeRole(rol, cuenta) */\n      tag_364\n        /* \"contracts/KipuBank.sol\":20330:20333  rol */\n      dup2\n        /* \"contracts/KipuBank.sol\":20335:20341  cuenta */\n      dup4\n        /* \"contracts/KipuBank.sol\":20319:20329  revokeRole */\n      tag_170\n        /* \"contracts/KipuBank.sol\":20319:20342  revokeRole(rol, cuenta) */\n      jump\t// in\n    tag_364:\n        /* \"contracts/KipuBank.sol\":20378:20384  cuenta */\n      dup2\n        /* \"contracts/KipuBank.sol\":20357:20390  KipuBank_RolRevocado(cuenta, rol) */\n      0xffffffffffffffffffffffffffffffffffffffff\n      and\n      0x2a235e73fbdf449db29391f00a41fd53e24c96816320a25a710415e2c05370f0\n        /* \"contracts/KipuBank.sol\":20386:20389  rol */\n      dup3\n        /* \"contracts/KipuBank.sol\":20357:20390  KipuBank_RolRevocado(cuenta, rol) */\n      mload(0x40)\n      tag_365\n      swap2\n      swap1\n      tag_73\n      jump\t// in\n    tag_365:\n      mload(0x40)\n      dup1\n      swap2\n      sub\n      swap1\n      log2\n        /* \"contracts/KipuBank.sol\":20241:20397  function revocarRol(address cuenta, bytes32 rol) external onlyOwner {... */\n      pop\n      pop\n      jump\t// out\n        /* \"@openzeppelin/contracts/access/Ownable.sol\":2543:2758  function transferOwnership(address newOwner) public virtual onlyOwner {... */\n    tag_182:\n        /* \"@openzeppelin/contracts/access/Ownable.sol\":1531:1544  _checkOwner() */\n      tag_367\n        /* \"@openzeppelin/contracts/access/Ownable.sol\":1531:1542  _checkOwner */\n      tag_293\n        /* \"@openzeppelin/contracts/access/Ownable.sol\":1531:1544  _checkOwner() */\n      jump\t// in\n    tag_367:\n        /* \"@openzeppelin/contracts/access/Ownable.sol\":2647:2648  0 */\n      0x00\n        /* \"@openzeppelin/contracts/access/Ownable.sol\":2627:2649  newOwner == address(0) */\n      0xffffffffffffffffffffffffffffffffffffffff\n      and\n        /* \"@openzeppelin/contracts/access/Ownable.sol\":2627:2635  newOwner */\n      dup2\n        /* \"@openzeppelin/contracts/access/Ownable.sol\":2627:2649  newOwner == address(0) */\n      0xffffffffffffffffffffffffffffffffffffffff\n      and\n      sub\n        /* \"@openzeppelin/contracts/access/Ownable.sol\":2623:2714  if (newOwner == address(0)) {... */\n      tag_369\n      jumpi\n        /* \"@openzeppelin/contracts/access/Ownable.sol\":2700:2701  0 */\n      0x00\n        /* \"@openzeppelin/contracts/access/Ownable.sol\":2672:2703  OwnableInvalidOwner(address(0)) */\n      mload(0x40)\n      0x1e4fbdf700000000000000000000000000000000000000000000000000000000\n      dup2\n      mstore\n      0x04\n      add\n      tag_370\n      swap2\n      swap1\n      tag_46\n      jump\t// in\n    tag_370:\n      mload(0x40)\n      dup1\n      swap2\n      sub\n      swap1\n      revert\n        /* \"@openzeppelin/contracts/access/Ownable.sol\":2623:2714  if (newOwner == address(0)) {... */\n    tag_369:\n        /* \"@openzeppelin/contracts/access/Ownable.sol\":2723:2751  _transferOwnership(newOwner) */\n      tag_371\n        /* \"@openzeppelin/contracts/access/Ownable.sol\":2742:2750  newOwner */\n      dup2\n        /* \"@openzeppelin/contracts/access/Ownable.sol\":2723:2741  _transferOwnership */\n      tag_296\n        /* \"@openzeppelin/contracts/access/Ownable.sol\":2723:2751  _transferOwnership(newOwner) */\n      jump\t// in\n    tag_371:\n        /* \"@openzeppelin/contracts/access/Ownable.sol\":2543:2758  function transferOwnership(address newOwner) public virtual onlyOwner {... */\n      pop\n      jump\t// out\n        /* \"contracts/KipuBank.sol\":16847:16939  function verTotalDepositos() external view returns (uint) {... */\n    tag_185:\n        /* \"contracts/KipuBank.sol\":16899:16903  uint */\n      0x00\n        /* \"contracts/KipuBank.sol\":16922:16932  _depositos */\n      sload(0x04)\n        /* \"contracts/KipuBank.sol\":16915:16932  return _depositos */\n      swap1\n      pop\n        /* \"contracts/KipuBank.sol\":16847:16939  function verTotalDepositos() external view returns (uint) {... */\n      swap1\n      jump\t// out\n        /* \"contracts/KipuBank.sol\":21068:21206  function balanceOf(address titular, address token) external view returns (uint) {... */\n    tag_191:\n        /* \"contracts/KipuBank.sol\":21142:21146  uint */\n      0x00\n        /* \"contracts/KipuBank.sol\":21165:21183  _cuentasMultiToken */\n      0x07\n        /* \"contracts/KipuBank.sol\":21165:21190  _cuentasMultiToken[token] */\n      0x00\n        /* \"contracts/KipuBank.sol\":21184:21189  token */\n      dup4\n        /* \"contracts/KipuBank.sol\":21165:21190  _cuentasMultiToken[token] */\n      0xffffffffffffffffffffffffffffffffffffffff\n      and\n      0xffffffffffffffffffffffffffffffffffffffff\n      and\n      dup2\n      mstore\n      0x20\n      add\n      swap1\n      dup2\n      mstore\n      0x20\n      add\n      0x00\n      keccak256\n        /* \"contracts/KipuBank.sol\":21165:21199  _cuentasMultiToken[token][titular] */\n      0x00\n        /* \"contracts/KipuBank.sol\":21191:21198  titular */\n      dup5\n        /* \"contracts/KipuBank.sol\":21165:21199  _cuentasMultiToken[token][titular] */\n      0xffffffffffffffffffffffffffffffffffffffff\n      and\n      0xffffffffffffffffffffffffffffffffffffffff\n      and\n      dup2\n      mstore\n      0x20\n      add\n      swap1\n      dup2\n      mstore\n      0x20\n      add\n      0x00\n      keccak256\n      sload\n        /* \"contracts/KipuBank.sol\":21158:21199  return _cuentasMultiToken[token][titular] */\n      swap1\n      pop\n        /* \"contracts/KipuBank.sol\":21068:21206  function balanceOf(address titular, address token) external view returns (uint) {... */\n      swap3\n      swap2\n      pop\n      pop\n      jump\t// out\n        /* \"@openzeppelin/contracts/access/AccessControl.sol\":2541:2743  function supportsInterface(bytes4 interfaceId) public view virtual override returns (bool) {... */\n    tag_195:\n        /* \"@openzeppelin/contracts/access/AccessControl.sol\":2626:2630  bool */\n      0x00\n        /* \"@openzeppelin/contracts/access/AccessControl.sol\":2664:2696  type(IAccessControl).interfaceId */\n      0x7965db0b00000000000000000000000000000000000000000000000000000000\n        /* \"@openzeppelin/contracts/access/AccessControl.sol\":2649:2696  interfaceId == type(IAccessControl).interfaceId */\n      not(0xffffffffffffffffffffffffffffffffffffffffffffffffffffffff)\n      and\n        /* \"@openzeppelin/contracts/access/AccessControl.sol\":2649:2660  interfaceId */\n      dup3\n        /* \"@openzeppelin/contracts/access/AccessControl.sol\":2649:2696  interfaceId == type(IAccessControl).interfaceId */\n      not(0xffffffffffffffffffffffffffffffffffffffffffffffffffffffff)\n      and\n      eq\n        /* \"@openzeppelin/contracts/access/AccessControl.sol\":2649:2736  interfaceId == type(IAccessControl).interfaceId || super.supportsInterface(interfaceId) */\n      dup1\n      tag_375\n      jumpi\n      pop\n        /* \"@openzeppelin/contracts/access/AccessControl.sol\":2700:2736  super.supportsInterface(interfaceId) */\n      tag_376\n        /* \"@openzeppelin/contracts/access/AccessControl.sol\":2724:2735  interfaceId */\n      dup3\n        /* \"@openzeppelin/contracts/access/AccessControl.sol\":2700:2723  super.supportsInterface */\n      tag_377\n        /* \"@openzeppelin/contracts/access/AccessControl.sol\":2700:2736  super.supportsInterface(interfaceId) */\n      jump\t// in\n    tag_376:\n        /* \"@openzeppelin/contracts/access/AccessControl.sol\":2649:2736  interfaceId == type(IAccessControl).interfaceId || super.supportsInterface(interfaceId) */\n    tag_375:\n        /* \"@openzeppelin/contracts/access/AccessControl.sol\":2642:2736  return interfaceId == type(IAccessControl).interfaceId || super.supportsInterface(interfaceId) */\n      swap1\n      pop\n        /* \"@openzeppelin/contracts/access/AccessControl.sol\":2541:2743  function supportsInterface(bytes4 interfaceId) public view virtual override returns (bool) {... */\n      swap2\n      swap1\n      pop\n      jump\t// out\n        /* \"contracts/KipuBank.sol\":12163:12333  function convertirEthEnUSD(uint _monto) internal view returns (uint montoConvertido_) {... */\n    tag_200:\n        /* \"contracts/KipuBank.sol\":12226:12247  uint montoConvertido_ */\n      0x00\n        /* \"contracts/KipuBank.sol\":2021:2033  1 * 10 ** 20 */\n      0x056bc75e2d63100000\n        /* \"contracts/KipuBank.sol\":12292:12308  chainLinkFeeds() */\n      tag_379\n        /* \"contracts/KipuBank.sol\":12292:12306  chainLinkFeeds */\n      tag_380\n        /* \"contracts/KipuBank.sol\":12292:12308  chainLinkFeeds() */\n      jump\t// in\n    tag_379:\n        /* \"contracts/KipuBank.sol\":12283:12289  _monto */\n      dup4\n        /* \"contracts/KipuBank.sol\":12283:12308  _monto * chainLinkFeeds() */\n      tag_381\n      swap2\n      swap1\n      tag_382\n      jump\t// in\n    tag_381:\n        /* \"contracts/KipuBank.sol\":12282:12326  (_monto * chainLinkFeeds()) / DECIMAL_FACTOR */\n      tag_383\n      swap2\n      swap1\n      tag_384\n      jump\t// in\n    tag_383:\n        /* \"contracts/KipuBank.sol\":12263:12326  montoConvertido_ = (_monto * chainLinkFeeds()) / DECIMAL_FACTOR */\n      swap1\n      pop\n        /* \"contracts/KipuBank.sol\":12163:12333  function convertirEthEnUSD(uint _monto) internal view returns (uint montoConvertido_) {... */\n      swap2\n      swap1\n      pop\n      jump\t// out\n        /* \"@openzeppelin/contracts/utils/Pausable.sol\":1878:2006  function _requireNotPaused() internal view virtual {... */\n    tag_209:\n        /* \"@openzeppelin/contracts/utils/Pausable.sol\":1943:1951  paused() */\n      tag_386\n        /* \"@openzeppelin/contracts/utils/Pausable.sol\":1943:1949  paused */\n      tag_93\n        /* \"@openzeppelin/contracts/utils/Pausable.sol\":1943:1951  paused() */\n      jump\t// in\n    tag_386:\n        /* \"@openzeppelin/contracts/utils/Pausable.sol\":1939:2000  if (paused()) {... */\n      iszero\n      tag_387\n      jumpi\n        /* \"@openzeppelin/contracts/utils/Pausable.sol\":1974:1989  EnforcedPause() */\n      mload(0x40)\n      0xd93c066500000000000000000000000000000000000000000000000000000000\n      dup2\n      mstore\n      0x04\n      add\n      mload(0x40)\n      dup1\n      swap2\n      sub\n      swap1\n      revert\n        /* \"@openzeppelin/contracts/utils/Pausable.sol\":1939:2000  if (paused()) {... */\n    tag_387:\n        /* \"@openzeppelin/contracts/utils/Pausable.sol\":1878:2006  function _requireNotPaused() internal view virtual {... */\n      jump\t// out\n        /* \"@openzeppelin/contracts/utils/Pausable.sol\":2339:2454  function _pause() internal virtual whenNotPaused {... */\n    tag_227:\n        /* \"@openzeppelin/contracts/utils/Pausable.sol\":1350:1369  _requireNotPaused() */\n      tag_389\n        /* \"@openzeppelin/contracts/utils/Pausable.sol\":1350:1367  _requireNotPaused */\n      tag_209\n        /* \"@openzeppelin/contracts/utils/Pausable.sol\":1350:1369  _requireNotPaused() */\n      jump\t// in\n    tag_389:\n        /* \"@openzeppelin/contracts/utils/Pausable.sol\":2408:2412  true */\n      0x01\n        /* \"@openzeppelin/contracts/utils/Pausable.sol\":2398:2405  _paused */\n      dup1\n      0x14\n        /* \"@openzeppelin/contracts/utils/Pausable.sol\":2398:2412  _paused = true */\n      0x0100\n      exp\n      dup2\n      sload\n      dup2\n      0xff\n      mul\n      not\n      and\n      swap1\n      dup4\n      iszero\n      iszero\n      mul\n      or\n      swap1\n      sstore\n      pop\n        /* \"@openzeppelin/contracts/utils/Pausable.sol\":2427:2447  Paused(_msgSender()) */\n      0x62e78cea01bee320cd4e420270b5ea74000d11b0c9f74754ebdbfc544b05a258\n        /* \"@openzeppelin/contracts/utils/Pausable.sol\":2434:2446  _msgSender() */\n      tag_391\n        /* \"@openzeppelin/contracts/utils/Pausable.sol\":2434:2444  _msgSender */\n      tag_239\n        /* \"@openzeppelin/contracts/utils/Pausable.sol\":2434:2446  _msgSender() */\n      jump\t// in\n    tag_391:\n        /* \"@openzeppelin/contracts/utils/Pausable.sol\":2427:2447  Paused(_msgSender()) */\n      mload(0x40)\n      tag_392\n      swap2\n      swap1\n      tag_46\n      jump\t// in\n    tag_392:\n      mload(0x40)\n      dup1\n      swap2\n      sub\n      swap1\n      log1\n        /* \"@openzeppelin/contracts/utils/Pausable.sol\":2339:2454  function _pause() internal virtual whenNotPaused {... */\n      jump\t// out\n        /* \"@openzeppelin/contracts/access/AccessControl.sol\":3175:3278  function _checkRole(bytes32 role) internal view virtual {... */\n    tag_233:\n        /* \"@openzeppelin/contracts/access/AccessControl.sol\":3241:3271  _checkRole(role, _msgSender()) */\n      tag_394\n        /* \"@openzeppelin/contracts/access/AccessControl.sol\":3252:3256  role */\n      dup2\n        /* \"@openzeppelin/contracts/access/AccessControl.sol\":3258:3270  _msgSender() */\n      tag_395\n        /* \"@openzeppelin/contracts/access/AccessControl.sol\":3258:3268  _msgSender */\n      tag_239\n        /* \"@openzeppelin/contracts/access/AccessControl.sol\":3258:3270  _msgSender() */\n      jump\t// in\n    tag_395:\n        /* \"@openzeppelin/contracts/access/AccessControl.sol\":3241:3251  _checkRole */\n      tag_396\n        /* \"@openzeppelin/contracts/access/AccessControl.sol\":3241:3271  _checkRole(role, _msgSender()) */\n      jump\t// in\n    tag_394:\n        /* \"@openzeppelin/contracts/access/AccessControl.sol\":3175:3278  function _checkRole(bytes32 role) internal view virtual {... */\n      pop\n      jump\t// out\n        /* \"@openzeppelin/contracts/access/AccessControl.sol\":6155:6471  function _grantRole(bytes32 role, address account) internal virtual returns (bool) {... */\n    tag_236:\n        /* \"@openzeppelin/contracts/access/AccessControl.sol\":6232:6236  bool */\n      0x00\n        /* \"@openzeppelin/contracts/access/AccessControl.sol\":6253:6275  hasRole(role, account) */\n      tag_398\n        /* \"@openzeppelin/contracts/access/AccessControl.sol\":6261:6265  role */\n      dup4\n        /* \"@openzeppelin/contracts/access/AccessControl.sol\":6267:6274  account */\n      dup4\n        /* \"@openzeppelin/contracts/access/AccessControl.sol\":6253:6260  hasRole */\n      tag_136\n        /* \"@openzeppelin/contracts/access/AccessControl.sol\":6253:6275  hasRole(role, account) */\n      jump\t// in\n    tag_398:\n        /* \"@openzeppelin/contracts/access/AccessControl.sol\":6248:6465  if (!hasRole(role, account)) {... */\n      tag_399\n      jumpi\n        /* \"@openzeppelin/contracts/access/AccessControl.sol\":6323:6327  true */\n      0x01\n        /* \"@openzeppelin/contracts/access/AccessControl.sol\":6291:6297  _roles */\n      0x02\n        /* \"@openzeppelin/contracts/access/AccessControl.sol\":6291:6303  _roles[role] */\n      0x00\n        /* \"@openzeppelin/contracts/access/AccessControl.sol\":6298:6302  role */\n      dup6\n        /* \"@openzeppelin/contracts/access/AccessControl.sol\":6291:6303  _roles[role] */\n      dup2\n      mstore\n      0x20\n      add\n      swap1\n      dup2\n      mstore\n      0x20\n      add\n      0x00\n      keccak256\n        /* \"@openzeppelin/contracts/access/AccessControl.sol\":6291:6311  _roles[role].hasRole */\n      0x00\n      add\n        /* \"@openzeppelin/contracts/access/AccessControl.sol\":6291:6320  _roles[role].hasRole[account] */\n      0x00\n        /* \"@openzeppelin/contracts/access/AccessControl.sol\":6312:6319  account */\n      dup5\n        /* \"@openzeppelin/contracts/access/AccessControl.sol\":6291:6320  _roles[role].hasRole[account] */\n      0xffffffffffffffffffffffffffffffffffffffff\n      and\n      0xffffffffffffffffffffffffffffffffffffffff\n      and\n      dup2\n      mstore\n      0x20\n      add\n      swap1\n      dup2\n      mstore\n      0x20\n      add\n      0x00\n      keccak256\n      0x00\n        /* \"@openzeppelin/contracts/access/AccessControl.sol\":6291:6327  _roles[role].hasRole[account] = true */\n      0x0100\n      exp\n      dup2\n      sload\n      dup2\n      0xff\n      mul\n      not\n      and\n      swap1\n      dup4\n      iszero\n      iszero\n      mul\n      or\n      swap1\n      sstore\n      pop\n        /* \"@openzeppelin/contracts/access/AccessControl.sol\":6373:6385  _msgSender() */\n      tag_400\n        /* \"@openzeppelin/contracts/access/AccessControl.sol\":6373:6383  _msgSender */\n      tag_239\n        /* \"@openzeppelin/contracts/access/AccessControl.sol\":6373:6385  _msgSender() */\n      jump\t// in\n    tag_400:\n        /* \"@openzeppelin/contracts/access/AccessControl.sol\":6346:6386  RoleGranted(role, account, _msgSender()) */\n      0xffffffffffffffffffffffffffffffffffffffff\n      and\n        /* \"@openzeppelin/contracts/access/AccessControl.sol\":6364:6371  account */\n      dup3\n        /* \"@openzeppelin/contracts/access/AccessControl.sol\":6346:6386  RoleGranted(role, account, _msgSender()) */\n      0xffffffffffffffffffffffffffffffffffffffff\n      and\n        /* \"@openzeppelin/contracts/access/AccessControl.sol\":6358:6362  role */\n      dup5\n        /* \"@openzeppelin/contracts/access/AccessControl.sol\":6346:6386  RoleGranted(role, account, _msgSender()) */\n      0x2f8788117e7eff1d82e926ec794901d17c78024a50270940304540a733656f0d\n      mload(0x40)\n      mload(0x40)\n      dup1\n      swap2\n      sub\n      swap1\n      log4\n        /* \"@openzeppelin/contracts/access/AccessControl.sol\":6407:6411  true */\n      0x01\n        /* \"@openzeppelin/contracts/access/AccessControl.sol\":6400:6411  return true */\n      swap1\n      pop\n      jump(tag_397)\n        /* \"@openzeppelin/contracts/access/AccessControl.sol\":6248:6465  if (!hasRole(role, account)) {... */\n    tag_399:\n        /* \"@openzeppelin/contracts/access/AccessControl.sol\":6449:6454  false */\n      0x00\n        /* \"@openzeppelin/contracts/access/AccessControl.sol\":6442:6454  return false */\n      swap1\n      pop\n        /* \"@openzeppelin/contracts/access/AccessControl.sol\":6155:6471  function _grantRole(bytes32 role, address account) internal virtual returns (bool) {... */\n    tag_397:\n      swap3\n      swap2\n      pop\n      pop\n      jump\t// out\n        /* \"@openzeppelin/contracts/utils/Context.sol\":656:752  function _msgSender() internal view virtual returns (address) {... */\n    tag_239:\n        /* \"@openzeppelin/contracts/utils/Context.sol\":709:716  address */\n      0x00\n        /* \"@openzeppelin/contracts/utils/Context.sol\":735:745  msg.sender */\n      caller\n        /* \"@openzeppelin/contracts/utils/Context.sol\":728:745  return msg.sender */\n      swap1\n      pop\n        /* \"@openzeppelin/contracts/utils/Context.sol\":656:752  function _msgSender() internal view virtual returns (address) {... */\n      swap1\n      jump\t// out\n        /* \"@openzeppelin/contracts/access/AccessControl.sol\":6708:7025  function _revokeRole(bytes32 role, address account) internal virtual returns (bool) {... */\n    tag_242:\n        /* \"@openzeppelin/contracts/access/AccessControl.sol\":6786:6790  bool */\n      0x00\n        /* \"@openzeppelin/contracts/access/AccessControl.sol\":6806:6828  hasRole(role, account) */\n      tag_404\n        /* \"@openzeppelin/contracts/access/AccessControl.sol\":6814:6818  role */\n      dup4\n        /* \"@openzeppelin/contracts/access/AccessControl.sol\":6820:6827  account */\n      dup4\n        /* \"@openzeppelin/contracts/access/AccessControl.sol\":6806:6813  hasRole */\n      tag_136\n        /* \"@openzeppelin/contracts/access/AccessControl.sol\":6806:6828  hasRole(role, account) */\n      jump\t// in\n    tag_404:\n        /* \"@openzeppelin/contracts/access/AccessControl.sol\":6802:7019  if (hasRole(role, account)) {... */\n      iszero\n      tag_405\n      jumpi\n        /* \"@openzeppelin/contracts/access/AccessControl.sol\":6876:6881  false */\n      0x00\n        /* \"@openzeppelin/contracts/access/AccessControl.sol\":6844:6850  _roles */\n      0x02\n        /* \"@openzeppelin/contracts/access/AccessControl.sol\":6844:6856  _roles[role] */\n      0x00\n        /* \"@openzeppelin/contracts/access/AccessControl.sol\":6851:6855  role */\n      dup6\n        /* \"@openzeppelin/contracts/access/AccessControl.sol\":6844:6856  _roles[role] */\n      dup2\n      mstore\n      0x20\n      add\n      swap1\n      dup2\n      mstore\n      0x20\n      add\n      0x00\n      keccak256\n        /* \"@openzeppelin/contracts/access/AccessControl.sol\":6844:6864  _roles[role].hasRole */\n      0x00\n      add\n        /* \"@openzeppelin/contracts/access/AccessControl.sol\":6844:6873  _roles[role].hasRole[account] */\n      0x00\n        /* \"@openzeppelin/contracts/access/AccessControl.sol\":6865:6872  account */\n      dup5\n        /* \"@openzeppelin/contracts/access/AccessControl.sol\":6844:6873  _roles[role].hasRole[account] */\n      0xffffffffffffffffffffffffffffffffffffffff\n      and\n      0xffffffffffffffffffffffffffffffffffffffff\n      and\n      dup2\n      mstore\n      0x20\n      add\n      swap1\n      dup2\n      mstore\n      0x20\n      add\n      0x00\n      keccak256\n      0x00\n        /* \"@openzeppelin/contracts/access/AccessControl.sol\":6844:6881  _roles[role].hasRole[account] = false */\n      0x0100\n      exp\n      dup2\n      sload\n      dup2\n      0xff\n      mul\n      not\n      and\n      swap1\n      dup4\n      iszero\n      iszero\n      mul\n      or\n      swap1\n      sstore\n      pop\n        /* \"@openzeppelin/contracts/access/AccessControl.sol\":6927:6939  _msgSender() */\n      tag_406\n        /* \"@openzeppelin/contracts/access/AccessControl.sol\":6927:6937  _msgSender */\n      tag_239\n        /* \"@openzeppelin/contracts/access/AccessControl.sol\":6927:6939  _msgSender() */\n      jump\t// in\n    tag_406:\n        /* \"@openzeppelin/contracts/access/AccessControl.sol\":6900:6940  RoleRevoked(role, account, _msgSender()) */\n      0xffffffffffffffffffffffffffffffffffffffff\n      and\n        /* \"@openzeppelin/contracts/access/AccessControl.sol\":6918:6925  account */\n      dup3\n        /* \"@openzeppelin/contracts/access/AccessControl.sol\":6900:6940  RoleRevoked(role, account, _msgSender()) */\n      0xffffffffffffffffffffffffffffffffffffffff\n      and\n        /* \"@openzeppelin/contracts/access/AccessControl.sol\":6912:6916  role */\n      dup5\n        /* \"@openzeppelin/contracts/access/AccessControl.sol\":6900:6940  RoleRevoked(role, account, _msgSender()) */\n      0xf6391f5c32d9c69d2a47ea670b442974b53935d1edc7fd64eb21e047a839171b\n      mload(0x40)\n      mload(0x40)\n      dup1\n      swap2\n      sub\n      swap1\n      log4\n        /* \"@openzeppelin/contracts/access/AccessControl.sol\":6961:6965  true */\n      0x01\n        /* \"@openzeppelin/contracts/access/AccessControl.sol\":6954:6965  return true */\n      swap1\n      pop\n      jump(tag_403)\n        /* \"@openzeppelin/contracts/access/AccessControl.sol\":6802:7019  if (hasRole(role, account)) {... */\n    tag_405:\n        /* \"@openzeppelin/contracts/access/AccessControl.sol\":7003:7008  false */\n      0x00\n        /* \"@openzeppelin/contracts/access/AccessControl.sol\":6996:7008  return false */\n      swap1\n      pop\n        /* \"@openzeppelin/contracts/access/AccessControl.sol\":6708:7025  function _revokeRole(bytes32 role, address account) internal virtual returns (bool) {... */\n    tag_403:\n      swap3\n      swap2\n      pop\n      pop\n      jump\t// out\n        /* \"@openzeppelin/contracts/utils/Pausable.sol\":2078:2204  function _requirePaused() internal view virtual {... */\n    tag_251:\n        /* \"@openzeppelin/contracts/utils/Pausable.sol\":2141:2149  paused() */\n      tag_409\n        /* \"@openzeppelin/contracts/utils/Pausable.sol\":2141:2147  paused */\n      tag_93\n        /* \"@openzeppelin/contracts/utils/Pausable.sol\":2141:2149  paused() */\n      jump\t// in\n    tag_409:\n        /* \"@openzeppelin/contracts/utils/Pausable.sol\":2136:2198  if (!paused()) {... */\n      tag_410\n      jumpi\n        /* \"@openzeppelin/contracts/utils/Pausable.sol\":2172:2187  ExpectedPause() */\n      mload(0x40)\n      0x8dfc202b00000000000000000000000000000000000000000000000000000000\n      dup2\n      mstore\n      0x04\n      add\n      mload(0x40)\n      dup1\n      swap2\n      sub\n      swap1\n      revert\n        /* \"@openzeppelin/contracts/utils/Pausable.sol\":2136:2198  if (!paused()) {... */\n    tag_410:\n        /* \"@openzeppelin/contracts/utils/Pausable.sol\":2078:2204  function _requirePaused() internal view virtual {... */\n      jump\t// out\n        /* \"@openzeppelin/contracts/utils/Pausable.sol\":2586:2703  function _unpause() internal virtual whenPaused {... */\n    tag_254:\n        /* \"@openzeppelin/contracts/utils/Pausable.sol\":1597:1613  _requirePaused() */\n      tag_412\n        /* \"@openzeppelin/contracts/utils/Pausable.sol\":1597:1611  _requirePaused */\n      tag_251\n        /* \"@openzeppelin/contracts/utils/Pausable.sol\":1597:1613  _requirePaused() */\n      jump\t// in\n    tag_412:\n        /* \"@openzeppelin/contracts/utils/Pausable.sol\":2654:2659  false */\n      0x00\n        /* \"@openzeppelin/contracts/utils/Pausable.sol\":2644:2651  _paused */\n      0x01\n      0x14\n        /* \"@openzeppelin/contracts/utils/Pausable.sol\":2644:2659  _paused = false */\n      0x0100\n      exp\n      dup2\n      sload\n      dup2\n      0xff\n      mul\n      not\n      and\n      swap1\n      dup4\n      iszero\n      iszero\n      mul\n      or\n      swap1\n      sstore\n      pop\n        /* \"@openzeppelin/contracts/utils/Pausable.sol\":2674:2696  Unpaused(_msgSender()) */\n      0x5db9ee0a495bf2e6ff9c91a7834c1ba4fdd244a5e8aa4e537bd38aeae4b073aa\n        /* \"@openzeppelin/contracts/utils/Pausable.sol\":2683:2695  _msgSender() */\n      tag_414\n        /* \"@openzeppelin/contracts/utils/Pausable.sol\":2683:2693  _msgSender */\n      tag_239\n        /* \"@openzeppelin/contracts/utils/Pausable.sol\":2683:2695  _msgSender() */\n      jump\t// in\n    tag_414:\n        /* \"@openzeppelin/contracts/utils/Pausable.sol\":2674:2696  Unpaused(_msgSender()) */\n      mload(0x40)\n      tag_415\n      swap2\n      swap1\n      tag_46\n      jump\t// in\n    tag_415:\n      mload(0x40)\n      dup1\n      swap2\n      sub\n      swap1\n      log1\n        /* \"@openzeppelin/contracts/utils/Pausable.sol\":2586:2703  function _unpause() internal virtual whenPaused {... */\n      jump\t// out\n        /* \"@openzeppelin/contracts/token/ERC20/utils/SafeERC20.sol\":1618:1806  function safeTransferFrom(IERC20 token, address from, address to, uint256 value) internal {... */\n    tag_290:\n        /* \"@openzeppelin/contracts/token/ERC20/utils/SafeERC20.sol\":1718:1799  _callOptionalReturn(token, abi.encodeCall(token.transferFrom, (from, to, value))) */\n      tag_417\n        /* \"@openzeppelin/contracts/token/ERC20/utils/SafeERC20.sol\":1738:1743  token */\n      dup5\n        /* \"@openzeppelin/contracts/token/ERC20/utils/SafeERC20.sol\":1760:1765  token */\n      dup6\n        /* \"@openzeppelin/contracts/token/ERC20/utils/SafeERC20.sol\":1760:1778  token.transferFrom */\n      0xffffffffffffffffffffffffffffffffffffffff\n      and\n      0x23b872dd\n        /* \"@openzeppelin/contracts/token/ERC20/utils/SafeERC20.sol\":1781:1785  from */\n      dup7\n        /* \"@openzeppelin/contracts/token/ERC20/utils/SafeERC20.sol\":1787:1789  to */\n      dup7\n        /* \"@openzeppelin/contracts/token/ERC20/utils/SafeERC20.sol\":1791:1796  value */\n      dup7\n        /* \"@openzeppelin/contracts/token/ERC20/utils/SafeERC20.sol\":1745:1798  abi.encodeCall(token.transferFrom, (from, to, value)) */\n      add(0x24, mload(0x40))\n      tag_418\n      swap4\n      swap3\n      swap2\n      swap1\n      tag_419\n      jump\t// in\n    tag_418:\n      mload(0x40)\n      0x20\n      dup2\n      dup4\n      sub\n      sub\n      dup2\n      mstore\n      swap1\n      0x40\n      mstore\n      swap2\n      pop\n      0xe0\n      shl\n      0x20\n      dup3\n      add\n      dup1\n      mload\n      0xffffffffffffffffffffffffffffffffffffffffffffffffffffffff\n      dup4\n      dup2\n      dup4\n      and\n      or\n      dup4\n      mstore\n      pop\n      pop\n      pop\n      pop\n        /* \"@openzeppelin/contracts/token/ERC20/utils/SafeERC20.sol\":1718:1737  _callOptionalReturn */\n      tag_420\n        /* \"@openzeppelin/contracts/token/ERC20/utils/SafeERC20.sol\":1718:1799  _callOptionalReturn(token, abi.encodeCall(token.transferFrom, (from, to, value))) */\n      jump\t// in\n    tag_417:\n        /* \"@openzeppelin/contracts/token/ERC20/utils/SafeERC20.sol\":1618:1806  function safeTransferFrom(IERC20 token, address from, address to, uint256 value) internal {... */\n      pop\n      pop\n      pop\n      pop\n      jump\t// out\n        /* \"@openzeppelin/contracts/access/Ownable.sol\":1796:1958  function _checkOwner() internal view virtual {... */\n    tag_293:\n        /* \"@openzeppelin/contracts/access/Ownable.sol\":1866:1878  _msgSender() */\n      tag_422\n        /* \"@openzeppelin/contracts/access/Ownable.sol\":1866:1876  _msgSender */\n      tag_239\n        /* \"@openzeppelin/contracts/access/Ownable.sol\":1866:1878  _msgSender() */\n      jump\t// in\n    tag_422:\n        /* \"@openzeppelin/contracts/access/Ownable.sol\":1855:1878  owner() != _msgSender() */\n      0xffffffffffffffffffffffffffffffffffffffff\n      and\n        /* \"@openzeppelin/contracts/access/Ownable.sol\":1855:1862  owner() */\n      tag_423\n        /* \"@openzeppelin/contracts/access/Ownable.sol\":1855:1860  owner */\n      tag_131\n        /* \"@openzeppelin/contracts/access/Ownable.sol\":1855:1862  owner() */\n      jump\t// in\n    tag_423:\n        /* \"@openzeppelin/contracts/access/Ownable.sol\":1855:1878  owner() != _msgSender() */\n      0xffffffffffffffffffffffffffffffffffffffff\n      and\n      eq\n        /* \"@openzeppelin/contracts/access/Ownable.sol\":1851:1952  if (owner() != _msgSender()) {... */\n      tag_424\n      jumpi\n        /* \"@openzeppelin/contracts/access/Ownable.sol\":1928:1940  _msgSender() */\n      tag_425\n        /* \"@openzeppelin/contracts/access/Ownable.sol\":1928:1938  _msgSender */\n      tag_239\n        /* \"@openzeppelin/contracts/access/Ownable.sol\":1928:1940  _msgSender() */\n      jump\t// in\n    tag_425:\n        /* \"@openzeppelin/contracts/access/Ownable.sol\":1901:1941  OwnableUnauthorizedAccount(_msgSender()) */\n      mload(0x40)\n      0x118cdaa700000000000000000000000000000000000000000000000000000000\n      dup2\n      mstore\n      0x04\n      add\n      tag_426\n      swap2\n      swap1\n      tag_46\n      jump\t// in\n    tag_426:\n      mload(0x40)\n      dup1\n      swap2\n      sub\n      swap1\n      revert\n        /* \"@openzeppelin/contracts/access/Ownable.sol\":1851:1952  if (owner() != _msgSender()) {... */\n    tag_424:\n        /* \"@openzeppelin/contracts/access/Ownable.sol\":1796:1958  function _checkOwner() internal view virtual {... */\n      jump\t// out\n        /* \"@openzeppelin/contracts/access/Ownable.sol\":2912:3099  function _transferOwnership(address newOwner) internal virtual {... */\n    tag_296:\n        /* \"@openzeppelin/contracts/access/Ownable.sol\":2985:3001  address oldOwner */\n      0x00\n        /* \"@openzeppelin/contracts/access/Ownable.sol\":3004:3010  _owner */\n      0x01\n      0x00\n      swap1\n      sload\n      swap1\n      0x0100\n      exp\n      swap1\n      div\n      0xffffffffffffffffffffffffffffffffffffffff\n      and\n        /* \"@openzeppelin/contracts/access/Ownable.sol\":2985:3010  address oldOwner = _owner */\n      swap1\n      pop\n        /* \"@openzeppelin/contracts/access/Ownable.sol\":3029:3037  newOwner */\n      dup2\n        /* \"@openzeppelin/contracts/access/Ownable.sol\":3020:3026  _owner */\n      0x01\n      0x00\n        /* \"@openzeppelin/contracts/access/Ownable.sol\":3020:3037  _owner = newOwner */\n      0x0100\n      exp\n      dup2\n      sload\n      dup2\n      0xffffffffffffffffffffffffffffffffffffffff\n      mul\n      not\n      and\n      swap1\n      dup4\n      0xffffffffffffffffffffffffffffffffffffffff\n      and\n      mul\n      or\n      swap1\n      sstore\n      pop\n        /* \"@openzeppelin/contracts/access/Ownable.sol\":3083:3091  newOwner */\n      dup2\n        /* \"@openzeppelin/contracts/access/Ownable.sol\":3052:3092  OwnershipTransferred(oldOwner, newOwner) */\n      0xffffffffffffffffffffffffffffffffffffffff\n      and\n        /* \"@openzeppelin/contracts/access/Ownable.sol\":3073:3081  oldOwner */\n      dup2\n        /* \"@openzeppelin/contracts/access/Ownable.sol\":3052:3092  OwnershipTransferred(oldOwner, newOwner) */\n      0xffffffffffffffffffffffffffffffffffffffff\n      and\n      0x8be0079c531659141344cd1fd0a4f28419497f9722a3daafe3b4186f6b6457e0\n      mload(0x40)\n      mload(0x40)\n      dup1\n      swap2\n      sub\n      swap1\n      log3\n        /* \"@openzeppelin/contracts/access/Ownable.sol\":2975:3099  {... */\n      pop\n        /* \"@openzeppelin/contracts/access/Ownable.sol\":2912:3099  function _transferOwnership(address newOwner) internal virtual {... */\n      pop\n      jump\t// out\n        /* \"contracts/KipuBank.sol\":12648:13138  function _retirarFondosETH(uint _monto) private nonReentrant verificarRetiroETH(_monto) {... */\n    tag_327:\n        /* \"@openzeppelin/contracts/security/ReentrancyGuard.sol\":2261:2282  _nonReentrantBefore() */\n      tag_429\n        /* \"@openzeppelin/contracts/security/ReentrancyGuard.sol\":2261:2280  _nonReentrantBefore */\n      tag_430\n        /* \"@openzeppelin/contracts/security/ReentrancyGuard.sol\":2261:2282  _nonReentrantBefore() */\n      jump\t// in\n    tag_429:\n        /* \"contracts/KipuBank.sol\":12728:12734  _monto */\n      dup1\n        /* \"contracts/KipuBank.sol\":10453:10467  uint montoUSDC */\n      0x00\n        /* \"contracts/KipuBank.sol\":10470:10495  convertirEthEnUSD(_monto) */\n      tag_432\n        /* \"contracts/KipuBank.sol\":10488:10494  _monto */\n      dup3\n        /* \"contracts/KipuBank.sol\":10470:10487  convertirEthEnUSD */\n      tag_200\n        /* \"contracts/KipuBank.sol\":10470:10495  convertirEthEnUSD(_monto) */\n      jump\t// in\n    tag_432:\n        /* \"contracts/KipuBank.sol\":10453:10495  uint montoUSDC = convertirEthEnUSD(_monto) */\n      swap1\n      pop\n        /* \"contracts/KipuBank.sol\":10521:10522  0 */\n      0x00\n        /* \"contracts/KipuBank.sol\":10508:10517  montoUSDC */\n      dup2\n        /* \"contracts/KipuBank.sol\":10508:10522  montoUSDC == 0 */\n      sub\n        /* \"contracts/KipuBank.sol\":10505:10561  if(montoUSDC == 0) revert KipuBank_MontoCero(msg.sender) */\n      tag_433\n      jumpi\n        /* \"contracts/KipuBank.sol\":10550:10560  msg.sender */\n      caller\n        /* \"contracts/KipuBank.sol\":10531:10561  KipuBank_MontoCero(msg.sender) */\n      mload(0x40)\n      0xb2f0923100000000000000000000000000000000000000000000000000000000\n      dup2\n      mstore\n      0x04\n      add\n      tag_434\n      swap2\n      swap1\n      tag_46\n      jump\t// in\n    tag_434:\n      mload(0x40)\n      dup1\n      swap2\n      sub\n      swap1\n      revert\n        /* \"contracts/KipuBank.sol\":10505:10561  if(montoUSDC == 0) revert KipuBank_MontoCero(msg.sender) */\n    tag_433:\n        /* \"contracts/KipuBank.sol\":10587:10595  i_umbral */\n      immutable(\"0xcf2f0ed1818444aa7134f6644eb342f5da11c7b70eee1c41201e997b4c62f0a7\")\n        /* \"contracts/KipuBank.sol\":10575:10584  montoUSDC */\n      dup2\n        /* \"contracts/KipuBank.sol\":10575:10595  montoUSDC > i_umbral */\n      gt\n        /* \"contracts/KipuBank.sol\":10571:10638  if (montoUSDC > i_umbral) revert KipuBank_UmbralExcedido(montoUSDC) */\n      iszero\n      tag_435\n      jumpi\n        /* \"contracts/KipuBank.sol\":10628:10637  montoUSDC */\n      dup1\n        /* \"contracts/KipuBank.sol\":10604:10638  KipuBank_UmbralExcedido(montoUSDC) */\n      mload(0x40)\n      0xc399356500000000000000000000000000000000000000000000000000000000\n      dup2\n      mstore\n      0x04\n      add\n      tag_436\n      swap2\n      swap1\n      tag_99\n      jump\t// in\n    tag_436:\n      mload(0x40)\n      dup1\n      swap2\n      sub\n      swap1\n      revert\n        /* \"contracts/KipuBank.sol\":10571:10638  if (montoUSDC > i_umbral) revert KipuBank_UmbralExcedido(montoUSDC) */\n    tag_435:\n        /* \"contracts/KipuBank.sol\":10661:10679  _cuentasMultiToken */\n      0x07\n        /* \"contracts/KipuBank.sol\":10661:10691  _cuentasMultiToken[address(0)] */\n      0x00\n        /* \"contracts/KipuBank.sol\":10688:10689  0 */\n      0x00\n        /* \"contracts/KipuBank.sol\":10661:10691  _cuentasMultiToken[address(0)] */\n      0xffffffffffffffffffffffffffffffffffffffff\n      and\n      0xffffffffffffffffffffffffffffffffffffffff\n      and\n      dup2\n      mstore\n      0x20\n      add\n      swap1\n      dup2\n      mstore\n      0x20\n      add\n      0x00\n      keccak256\n        /* \"contracts/KipuBank.sol\":10661:10703  _cuentasMultiToken[address(0)][msg.sender] */\n      0x00\n        /* \"contracts/KipuBank.sol\":10692:10702  msg.sender */\n      caller\n        /* \"contracts/KipuBank.sol\":10661:10703  _cuentasMultiToken[address(0)][msg.sender] */\n      0xffffffffffffffffffffffffffffffffffffffff\n      and\n      0xffffffffffffffffffffffffffffffffffffffff\n      and\n      dup2\n      mstore\n      0x20\n      add\n      swap1\n      dup2\n      mstore\n      0x20\n      add\n      0x00\n      keccak256\n      sload\n        /* \"contracts/KipuBank.sol\":10652:10658  _monto */\n      dup3\n        /* \"contracts/KipuBank.sol\":10652:10703  _monto > _cuentasMultiToken[address(0)][msg.sender] */\n      gt\n        /* \"contracts/KipuBank.sol\":10648:10761  if (_monto > _cuentasMultiToken[address(0)][msg.sender]) revert KipuBank_SaldoInsuficiente(msg.sender, montoUSDC) */\n      iszero\n      tag_437\n      jumpi\n        /* \"contracts/KipuBank.sol\":10739:10749  msg.sender */\n      caller\n        /* \"contracts/KipuBank.sol\":10751:10760  montoUSDC */\n      dup2\n        /* \"contracts/KipuBank.sol\":10712:10761  KipuBank_SaldoInsuficiente(msg.sender, montoUSDC) */\n      mload(0x40)\n      0x51a7314200000000000000000000000000000000000000000000000000000000\n      dup2\n      mstore\n      0x04\n      add\n      tag_438\n      swap3\n      swap2\n      swap1\n      tag_266\n      jump\t// in\n    tag_438:\n      mload(0x40)\n      dup1\n      swap2\n      sub\n      swap1\n      revert\n        /* \"contracts/KipuBank.sol\":10648:10761  if (_monto > _cuentasMultiToken[address(0)][msg.sender]) revert KipuBank_SaldoInsuficiente(msg.sender, montoUSDC) */\n    tag_437:\n        /* \"contracts/KipuBank.sol\":12746:12759  uint montoUSD */\n      0x00\n        /* \"contracts/KipuBank.sol\":12762:12787  convertirEthEnUSD(_monto) */\n      tag_440\n        /* \"contracts/KipuBank.sol\":12780:12786  _monto */\n      dup5\n        /* \"contracts/KipuBank.sol\":12762:12779  convertirEthEnUSD */\n      tag_200\n        /* \"contracts/KipuBank.sol\":12762:12787  convertirEthEnUSD(_monto) */\n      jump\t// in\n    tag_440:\n        /* \"contracts/KipuBank.sol\":12746:12787  uint montoUSD = convertirEthEnUSD(_monto) */\n      swap1\n      pop\n        /* \"contracts/KipuBank.sol\":12843:12849  _monto */\n      dup4\n        /* \"contracts/KipuBank.sol\":12797:12815  _cuentasMultiToken */\n      0x07\n        /* \"contracts/KipuBank.sol\":12797:12827  _cuentasMultiToken[address(0)] */\n      0x00\n        /* \"contracts/KipuBank.sol\":12824:12825  0 */\n      0x00\n        /* \"contracts/KipuBank.sol\":12797:12827  _cuentasMultiToken[address(0)] */\n      0xffffffffffffffffffffffffffffffffffffffff\n      and\n      0xffffffffffffffffffffffffffffffffffffffff\n      and\n      dup2\n      mstore\n      0x20\n      add\n      swap1\n      dup2\n      mstore\n      0x20\n      add\n      0x00\n      keccak256\n        /* \"contracts/KipuBank.sol\":12797:12839  _cuentasMultiToken[address(0)][msg.sender] */\n      0x00\n        /* \"contracts/KipuBank.sol\":12828:12838  msg.sender */\n      caller\n        /* \"contracts/KipuBank.sol\":12797:12839  _cuentasMultiToken[address(0)][msg.sender] */\n      0xffffffffffffffffffffffffffffffffffffffff\n      and\n      0xffffffffffffffffffffffffffffffffffffffff\n      and\n      dup2\n      mstore\n      0x20\n      add\n      swap1\n      dup2\n      mstore\n      0x20\n      add\n      0x00\n      keccak256\n      0x00\n        /* \"contracts/KipuBank.sol\":12797:12849  _cuentasMultiToken[address(0)][msg.sender] -= _monto */\n      dup3\n      dup3\n      sload\n      tag_441\n      swap2\n      swap1\n      tag_320\n      jump\t// in\n    tag_441:\n      swap3\n      pop\n      pop\n      dup2\n      swap1\n      sstore\n      pop\n        /* \"contracts/KipuBank.sol\":12859:12867  _retiros */\n      0x05\n      0x00\n        /* \"contracts/KipuBank.sol\":12859:12869  _retiros++ */\n      dup2\n      sload\n      dup1\n      swap3\n      swap2\n      swap1\n      tag_442\n      swap1\n      tag_214\n      jump\t// in\n    tag_442:\n      swap2\n      swap1\n      pop\n      sstore\n      pop\n        /* \"contracts/KipuBank.sol\":12897:12905  montoUSD */\n      dup1\n        /* \"contracts/KipuBank.sol\":12879:12893  _totalContrato */\n      0x06\n      0x00\n        /* \"contracts/KipuBank.sol\":12879:12905  _totalContrato -= montoUSD */\n      dup3\n      dup3\n      sload\n      tag_443\n      swap2\n      swap1\n      tag_320\n      jump\t// in\n    tag_443:\n      swap3\n      pop\n      pop\n      dup2\n      swap1\n      sstore\n      pop\n        /* \"contracts/KipuBank.sol\":12958:12968  msg.sender */\n      caller\n        /* \"contracts/KipuBank.sol\":12929:12979  KipuBank_ExtraccionRealizada(msg.sender, montoUSD) */\n      0xffffffffffffffffffffffffffffffffffffffff\n      and\n      0x9cde449504e4972ffddec09813e0c252a1462d76bef1864b9e7520dadb7183e8\n        /* \"contracts/KipuBank.sol\":12970:12978  montoUSD */\n      dup3\n        /* \"contracts/KipuBank.sol\":12929:12979  KipuBank_ExtraccionRealizada(msg.sender, montoUSD) */\n      mload(0x40)\n      tag_444\n      swap2\n      swap1\n      tag_99\n      jump\t// in\n    tag_444:\n      mload(0x40)\n      dup1\n      swap2\n      sub\n      swap1\n      log2\n        /* \"contracts/KipuBank.sol\":12991:13003  bool success */\n      0x00\n        /* \"contracts/KipuBank.sol\":13017:13027  msg.sender */\n      caller\n        /* \"contracts/KipuBank.sol\":13009:13033  payable(msg.sender).call */\n      0xffffffffffffffffffffffffffffffffffffffff\n      and\n        /* \"contracts/KipuBank.sol\":13041:13047  _monto */\n      dup6\n        /* \"contracts/KipuBank.sol\":13009:13052  payable(msg.sender).call{value: _monto}(\"\") */\n      mload(0x40)\n      tag_445\n      swap1\n      tag_446\n      jump\t// in\n    tag_445:\n      0x00\n      mload(0x40)\n      dup1\n      dup4\n      sub\n      dup2\n      dup6\n      dup8\n      gas\n      call\n      swap3\n      pop\n      pop\n      pop\n      returndatasize\n      dup1\n      0x00\n      dup2\n      eq\n      tag_449\n      jumpi\n      mload(0x40)\n      swap2\n      pop\n      and(add(returndatasize, 0x3f), not(0x1f))\n      dup3\n      add\n      0x40\n      mstore\n      returndatasize\n      dup3\n      mstore\n      returndatasize\n      0x00\n      0x20\n      dup5\n      add\n      returndatacopy\n      jump(tag_448)\n    tag_449:\n      0x60\n      swap2\n      pop\n    tag_448:\n      pop\n        /* \"contracts/KipuBank.sol\":12990:13052  (bool success, ) = payable(msg.sender).call{value: _monto}(\"\") */\n      pop\n      swap1\n      pop\n        /* \"contracts/KipuBank.sol\":13067:13074  success */\n      dup1\n        /* \"contracts/KipuBank.sol\":13062:13131  if (!success) revert KipuBank_ExtraccionRechazada(msg.sender, _monto) */\n      tag_450\n      jumpi\n        /* \"contracts/KipuBank.sol\":13112:13122  msg.sender */\n      caller\n        /* \"contracts/KipuBank.sol\":13124:13130  _monto */\n      dup6\n        /* \"contracts/KipuBank.sol\":13083:13131  KipuBank_ExtraccionRechazada(msg.sender, _monto) */\n      mload(0x40)\n      0x6c5e1a1400000000000000000000000000000000000000000000000000000000\n      dup2\n      mstore\n      0x04\n      add\n      tag_451\n      swap3\n      swap2\n      swap1\n      tag_266\n      jump\t// in\n    tag_451:\n      mload(0x40)\n      dup1\n      swap2\n      sub\n      swap1\n      revert\n        /* \"contracts/KipuBank.sol\":13062:13131  if (!success) revert KipuBank_ExtraccionRechazada(msg.sender, _monto) */\n    tag_450:\n        /* \"contracts/KipuBank.sol\":12736:13138  {... */\n      pop\n      pop\n        /* \"contracts/KipuBank.sol\":10443:10779  {... */\n      pop\n        /* \"@openzeppelin/contracts/security/ReentrancyGuard.sol\":2292:2293  _ */\n      pop\n        /* \"@openzeppelin/contracts/security/ReentrancyGuard.sol\":2303:2323  _nonReentrantAfter() */\n      tag_452\n        /* \"@openzeppelin/contracts/security/ReentrancyGuard.sol\":2303:2321  _nonReentrantAfter */\n      tag_453\n        /* \"@openzeppelin/contracts/security/ReentrancyGuard.sol\":2303:2323  _nonReentrantAfter() */\n      jump\t// in\n    tag_452:\n        /* \"contracts/KipuBank.sol\":12648:13138  function _retirarFondosETH(uint _monto) private nonReentrant verificarRetiroETH(_monto) {... */\n      pop\n      jump\t// out\n        /* \"contracts/KipuBank.sol\":13543:13873  function _retirarFondosUSDC(uint _monto) private nonReentrant verificarRetiroUSDC(_monto) {... */\n    tag_347:\n        /* \"@openzeppelin/contracts/security/ReentrancyGuard.sol\":2261:2282  _nonReentrantBefore() */\n      tag_455\n        /* \"@openzeppelin/contracts/security/ReentrancyGuard.sol\":2261:2280  _nonReentrantBefore */\n      tag_430\n        /* \"@openzeppelin/contracts/security/ReentrancyGuard.sol\":2261:2282  _nonReentrantBefore() */\n      jump\t// in\n    tag_455:\n        /* \"contracts/KipuBank.sol\":13625:13631  _monto */\n      dup1\n        /* \"contracts/KipuBank.sol\":11022:11023  0 */\n      0x00\n        /* \"contracts/KipuBank.sol\":11012:11018  _monto */\n      dup2\n        /* \"contracts/KipuBank.sol\":11012:11023  _monto == 0 */\n      sub\n        /* \"contracts/KipuBank.sol\":11009:11062  if(_monto == 0) revert KipuBank_MontoCero(msg.sender) */\n      tag_457\n      jumpi\n        /* \"contracts/KipuBank.sol\":11051:11061  msg.sender */\n      caller\n        /* \"contracts/KipuBank.sol\":11032:11062  KipuBank_MontoCero(msg.sender) */\n      mload(0x40)\n      0xb2f0923100000000000000000000000000000000000000000000000000000000\n      dup2\n      mstore\n      0x04\n      add\n      tag_458\n      swap2\n      swap1\n      tag_46\n      jump\t// in\n    tag_458:\n      mload(0x40)\n      dup1\n      swap2\n      sub\n      swap1\n      revert\n        /* \"contracts/KipuBank.sol\":11009:11062  if(_monto == 0) revert KipuBank_MontoCero(msg.sender) */\n    tag_457:\n        /* \"contracts/KipuBank.sol\":11085:11093  i_umbral */\n      immutable(\"0xcf2f0ed1818444aa7134f6644eb342f5da11c7b70eee1c41201e997b4c62f0a7\")\n        /* \"contracts/KipuBank.sol\":11076:11082  _monto */\n      dup2\n        /* \"contracts/KipuBank.sol\":11076:11093  _monto > i_umbral */\n      gt\n        /* \"contracts/KipuBank.sol\":11072:11133  if (_monto > i_umbral) revert KipuBank_UmbralExcedido(_monto) */\n      iszero\n      tag_459\n      jumpi\n        /* \"contracts/KipuBank.sol\":11126:11132  _monto */\n      dup1\n        /* \"contracts/KipuBank.sol\":11102:11133  KipuBank_UmbralExcedido(_monto) */\n      mload(0x40)\n      0xc399356500000000000000000000000000000000000000000000000000000000\n      dup2\n      mstore\n      0x04\n      add\n      tag_460\n      swap2\n      swap1\n      tag_99\n      jump\t// in\n    tag_460:\n      mload(0x40)\n      dup1\n      swap2\n      sub\n      swap1\n      revert\n        /* \"contracts/KipuBank.sol\":11072:11133  if (_monto > i_umbral) revert KipuBank_UmbralExcedido(_monto) */\n    tag_459:\n        /* \"contracts/KipuBank.sol\":11156:11174  _cuentasMultiToken */\n      0x07\n        /* \"contracts/KipuBank.sol\":11156:11191  _cuentasMultiToken[address(i_usdc)] */\n      0x00\n        /* \"contracts/KipuBank.sol\":11183:11189  i_usdc */\n      immutable(\"0x70ebf73cb6f1a1207279604d754513a029c2ff46f9198374b0ad04887dd2881e\")\n        /* \"contracts/KipuBank.sol\":11156:11191  _cuentasMultiToken[address(i_usdc)] */\n      0xffffffffffffffffffffffffffffffffffffffff\n      and\n      0xffffffffffffffffffffffffffffffffffffffff\n      and\n      dup2\n      mstore\n      0x20\n      add\n      swap1\n      dup2\n      mstore\n      0x20\n      add\n      0x00\n      keccak256\n        /* \"contracts/KipuBank.sol\":11156:11203  _cuentasMultiToken[address(i_usdc)][msg.sender] */\n      0x00\n        /* \"contracts/KipuBank.sol\":11192:11202  msg.sender */\n      caller\n        /* \"contracts/KipuBank.sol\":11156:11203  _cuentasMultiToken[address(i_usdc)][msg.sender] */\n      0xffffffffffffffffffffffffffffffffffffffff\n      and\n      0xffffffffffffffffffffffffffffffffffffffff\n      and\n      dup2\n      mstore\n      0x20\n      add\n      swap1\n      dup2\n      mstore\n      0x20\n      add\n      0x00\n      keccak256\n      sload\n        /* \"contracts/KipuBank.sol\":11147:11153  _monto */\n      dup2\n        /* \"contracts/KipuBank.sol\":11147:11203  _monto > _cuentasMultiToken[address(i_usdc)][msg.sender] */\n      gt\n        /* \"contracts/KipuBank.sol\":11143:11258  if (_monto > _cuentasMultiToken[address(i_usdc)][msg.sender]) revert KipuBank_SaldoInsuficiente(msg.sender, _monto) */\n      iszero\n      tag_461\n      jumpi\n        /* \"contracts/KipuBank.sol\":11239:11249  msg.sender */\n      caller\n        /* \"contracts/KipuBank.sol\":11251:11257  _monto */\n      dup2\n        /* \"contracts/KipuBank.sol\":11212:11258  KipuBank_SaldoInsuficiente(msg.sender, _monto) */\n      mload(0x40)\n      0x51a7314200000000000000000000000000000000000000000000000000000000\n      dup2\n      mstore\n      0x04\n      add\n      tag_462\n      swap3\n      swap2\n      swap1\n      tag_266\n      jump\t// in\n    tag_462:\n      mload(0x40)\n      dup1\n      swap2\n      sub\n      swap1\n      revert\n        /* \"contracts/KipuBank.sol\":11143:11258  if (_monto > _cuentasMultiToken[address(i_usdc)][msg.sender]) revert KipuBank_SaldoInsuficiente(msg.sender, _monto) */\n    tag_461:\n        /* \"contracts/KipuBank.sol\":13694:13700  _monto */\n      dup2\n        /* \"contracts/KipuBank.sol\":13643:13661  _cuentasMultiToken */\n      0x07\n        /* \"contracts/KipuBank.sol\":13643:13678  _cuentasMultiToken[address(i_usdc)] */\n      0x00\n        /* \"contracts/KipuBank.sol\":13670:13676  i_usdc */\n      immutable(\"0x70ebf73cb6f1a1207279604d754513a029c2ff46f9198374b0ad04887dd2881e\")\n        /* \"contracts/KipuBank.sol\":13643:13678  _cuentasMultiToken[address(i_usdc)] */\n      0xffffffffffffffffffffffffffffffffffffffff\n      and\n      0xffffffffffffffffffffffffffffffffffffffff\n      and\n      dup2\n      mstore\n      0x20\n      add\n      swap1\n      dup2\n      mstore\n      0x20\n      add\n      0x00\n      keccak256\n        /* \"contracts/KipuBank.sol\":13643:13690  _cuentasMultiToken[address(i_usdc)][msg.sender] */\n      0x00\n        /* \"contracts/KipuBank.sol\":13679:13689  msg.sender */\n      caller\n        /* \"contracts/KipuBank.sol\":13643:13690  _cuentasMultiToken[address(i_usdc)][msg.sender] */\n      0xffffffffffffffffffffffffffffffffffffffff\n      and\n      0xffffffffffffffffffffffffffffffffffffffff\n      and\n      dup2\n      mstore\n      0x20\n      add\n      swap1\n      dup2\n      mstore\n      0x20\n      add\n      0x00\n      keccak256\n      0x00\n        /* \"contracts/KipuBank.sol\":13643:13700  _cuentasMultiToken[address(i_usdc)][msg.sender] -= _monto */\n      dup3\n      dup3\n      sload\n      tag_464\n      swap2\n      swap1\n      tag_320\n      jump\t// in\n    tag_464:\n      swap3\n      pop\n      pop\n      dup2\n      swap1\n      sstore\n      pop\n        /* \"contracts/KipuBank.sol\":13710:13718  _retiros */\n      0x05\n      0x00\n        /* \"contracts/KipuBank.sol\":13710:13720  _retiros++ */\n      dup2\n      sload\n      dup1\n      swap3\n      swap2\n      swap1\n      tag_465\n      swap1\n      tag_214\n      jump\t// in\n    tag_465:\n      swap2\n      swap1\n      pop\n      sstore\n      pop\n        /* \"contracts/KipuBank.sol\":13748:13754  _monto */\n      dup2\n        /* \"contracts/KipuBank.sol\":13730:13744  _totalContrato */\n      0x06\n      0x00\n        /* \"contracts/KipuBank.sol\":13730:13754  _totalContrato -= _monto */\n      dup3\n      dup3\n      sload\n      tag_466\n      swap2\n      swap1\n      tag_320\n      jump\t// in\n    tag_466:\n      swap3\n      pop\n      pop\n      dup2\n      swap1\n      sstore\n      pop\n        /* \"contracts/KipuBank.sol\":13798:13808  msg.sender */\n      caller\n        /* \"contracts/KipuBank.sol\":13769:13817  KipuBank_ExtraccionRealizada(msg.sender, _monto) */\n      0xffffffffffffffffffffffffffffffffffffffff\n      and\n      0x9cde449504e4972ffddec09813e0c252a1462d76bef1864b9e7520dadb7183e8\n        /* \"contracts/KipuBank.sol\":13810:13816  _monto */\n      dup4\n        /* \"contracts/KipuBank.sol\":13769:13817  KipuBank_ExtraccionRealizada(msg.sender, _monto) */\n      mload(0x40)\n      tag_467\n      swap2\n      swap1\n      tag_99\n      jump\t// in\n    tag_467:\n      mload(0x40)\n      dup1\n      swap2\n      sub\n      swap1\n      log2\n        /* \"contracts/KipuBank.sol\":13827:13866  i_usdc.safeTransfer(msg.sender, _monto) */\n      tag_468\n        /* \"contracts/KipuBank.sol\":13847:13857  msg.sender */\n      caller\n        /* \"contracts/KipuBank.sol\":13859:13865  _monto */\n      dup4\n        /* \"contracts/KipuBank.sol\":13827:13833  i_usdc */\n      immutable(\"0x70ebf73cb6f1a1207279604d754513a029c2ff46f9198374b0ad04887dd2881e\")\n        /* \"contracts/KipuBank.sol\":13827:13846  i_usdc.safeTransfer */\n      0xffffffffffffffffffffffffffffffffffffffff\n      and\n      tag_469\n      swap1\n        /* \"contracts/KipuBank.sol\":13827:13866  i_usdc.safeTransfer(msg.sender, _monto) */\n      swap3\n      swap2\n      swap1\n      0xffffffff\n      and\n      jump\t// in\n    tag_468:\n        /* \"@openzeppelin/contracts/security/ReentrancyGuard.sol\":2292:2293  _ */\n      pop\n        /* \"@openzeppelin/contracts/security/ReentrancyGuard.sol\":2303:2323  _nonReentrantAfter() */\n      tag_470\n        /* \"@openzeppelin/contracts/security/ReentrancyGuard.sol\":2303:2321  _nonReentrantAfter */\n      tag_453\n        /* \"@openzeppelin/contracts/security/ReentrancyGuard.sol\":2303:2323  _nonReentrantAfter() */\n      jump\t// in\n    tag_470:\n        /* \"contracts/KipuBank.sol\":13543:13873  function _retirarFondosUSDC(uint _monto) private nonReentrant verificarRetiroUSDC(_monto) {... */\n      pop\n      jump\t// out\n        /* \"@openzeppelin/contracts/utils/introspection/ERC165.sol\":730:876  function supportsInterface(bytes4 interfaceId) public view virtual returns (bool) {... */\n    tag_377:\n        /* \"@openzeppelin/contracts/utils/introspection/ERC165.sol\":806:810  bool */\n      0x00\n        /* \"@openzeppelin/contracts/utils/introspection/ERC165.sol\":844:869  type(IERC165).interfaceId */\n      0x01ffc9a700000000000000000000000000000000000000000000000000000000\n        /* \"@openzeppelin/contracts/utils/introspection/ERC165.sol\":829:869  interfaceId == type(IERC165).interfaceId */\n      not(0xffffffffffffffffffffffffffffffffffffffffffffffffffffffff)\n      and\n        /* \"@openzeppelin/contracts/utils/introspection/ERC165.sol\":829:840  interfaceId */\n      dup3\n        /* \"@openzeppelin/contracts/utils/introspection/ERC165.sol\":829:869  interfaceId == type(IERC165).interfaceId */\n      not(0xffffffffffffffffffffffffffffffffffffffffffffffffffffffff)\n      and\n      eq\n        /* \"@openzeppelin/contracts/utils/introspection/ERC165.sol\":822:869  return interfaceId == type(IERC165).interfaceId */\n      swap1\n      pop\n        /* \"@openzeppelin/contracts/utils/introspection/ERC165.sol\":730:876  function supportsInterface(bytes4 interfaceId) public view virtual returns (bool) {... */\n      swap2\n      swap1\n      pop\n      jump\t// out\n        /* \"contracts/KipuBank.sol\":11463:11849  function chainLinkFeeds() internal view returns(uint precioUSD_) {... */\n    tag_380:\n        /* \"contracts/KipuBank.sol\":11511:11526  uint precioUSD_ */\n      0x00\n        /* \"contracts/KipuBank.sol\":11541:11559  int256 ethUSDPrice */\n      0x00\n        /* \"contracts/KipuBank.sol\":11562:11578  uint256 updateAt */\n      0x00\n        /* \"contracts/KipuBank.sol\":11583:11589  s_feed */\n      0x03\n      0x00\n      swap1\n      sload\n      swap1\n      0x0100\n      exp\n      swap1\n      div\n      0xffffffffffffffffffffffffffffffffffffffff\n      and\n        /* \"contracts/KipuBank.sol\":11583:11605  s_feed.latestRoundData */\n      0xffffffffffffffffffffffffffffffffffffffff\n      and\n      0xfeaf968c\n        /* \"contracts/KipuBank.sol\":11583:11607  s_feed.latestRoundData() */\n      mload(0x40)\n      dup2\n      0xffffffff\n      and\n      0xe0\n      shl\n      dup2\n      mstore\n      0x04\n      add\n      0xa0\n      mload(0x40)\n      dup1\n      dup4\n      sub\n      dup2\n      dup7\n      gas\n      staticcall\n      iszero\n      dup1\n      iszero\n      tag_474\n      jumpi\n      returndatacopy(0x00, 0x00, returndatasize)\n      revert(0x00, returndatasize)\n    tag_474:\n      pop\n      pop\n      pop\n      pop\n      mload(0x40)\n      returndatasize\n      not(0x1f)\n      0x1f\n      dup3\n      add\n      and\n      dup3\n      add\n      dup1\n      0x40\n      mstore\n      pop\n      dup2\n      add\n      swap1\n      tag_475\n      swap2\n      swap1\n      tag_310\n      jump\t// in\n    tag_475:\n        /* \"contracts/KipuBank.sol\":11538:11607  (, int256 ethUSDPrice,, uint256 updateAt,) = s_feed.latestRoundData() */\n      pop\n      swap4\n      pop\n      pop\n      swap3\n      pop\n      pop\n        /* \"contracts/KipuBank.sol\":11636:11637  0 */\n      0x00\n        /* \"contracts/KipuBank.sol\":11621:11632  ethUSDPrice */\n      dup3\n        /* \"contracts/KipuBank.sol\":11621:11637  ethUSDPrice <= 0 */\n      sgt\n        /* \"contracts/KipuBank.sol\":11617:11693  if( ethUSDPrice <= 0) revert KipuBank_OraculoComprometido(uint(ethUSDPrice)) */\n      tag_476\n      jumpi\n        /* \"contracts/KipuBank.sol\":11680:11691  ethUSDPrice */\n      dup2\n        /* \"contracts/KipuBank.sol\":11646:11693  KipuBank_OraculoComprometido(uint(ethUSDPrice)) */\n      mload(0x40)\n      0x3654402900000000000000000000000000000000000000000000000000000000\n      dup2\n      mstore\n      0x04\n      add\n      tag_477\n      swap2\n      swap1\n      tag_99\n      jump\t// in\n    tag_477:\n      mload(0x40)\n      dup1\n      swap2\n      sub\n      swap1\n      revert\n        /* \"contracts/KipuBank.sol\":11617:11693  if( ethUSDPrice <= 0) revert KipuBank_OraculoComprometido(uint(ethUSDPrice)) */\n    tag_476:\n        /* \"contracts/KipuBank.sol\":1752:1756  3600 */\n      0x0e10\n        /* \"contracts/KipuBank.sol\":11706:11744  block.timestamp - updateAt > HEARTBEAT */\n      0xffff\n      and\n        /* \"contracts/KipuBank.sol\":11724:11732  updateAt */\n      dup2\n        /* \"contracts/KipuBank.sol\":11706:11721  block.timestamp */\n      timestamp\n        /* \"contracts/KipuBank.sol\":11706:11732  block.timestamp - updateAt */\n      tag_478\n      swap2\n      swap1\n      tag_320\n      jump\t// in\n    tag_478:\n        /* \"contracts/KipuBank.sol\":11706:11744  block.timestamp - updateAt > HEARTBEAT */\n      gt\n        /* \"contracts/KipuBank.sol\":11703:11801  if(block.timestamp - updateAt > HEARTBEAT) revert KipuBank_PrecioDesactualizado(uint(ethUSDPrice)) */\n      iszero\n      tag_479\n      jumpi\n        /* \"contracts/KipuBank.sol\":11788:11799  ethUSDPrice */\n      dup2\n        /* \"contracts/KipuBank.sol\":11753:11801  KipuBank_PrecioDesactualizado(uint(ethUSDPrice)) */\n      mload(0x40)\n      0x2609a26500000000000000000000000000000000000000000000000000000000\n      dup2\n      mstore\n      0x04\n      add\n      tag_480\n      swap2\n      swap1\n      tag_99\n      jump\t// in\n    tag_480:\n      mload(0x40)\n      dup1\n      swap2\n      sub\n      swap1\n      revert\n        /* \"contracts/KipuBank.sol\":11703:11801  if(block.timestamp - updateAt > HEARTBEAT) revert KipuBank_PrecioDesactualizado(uint(ethUSDPrice)) */\n    tag_479:\n        /* \"contracts/KipuBank.sol\":11830:11841  ethUSDPrice */\n      dup2\n        /* \"contracts/KipuBank.sol\":11812:11842  precioUSD_ = uint(ethUSDPrice) */\n      swap3\n      pop\n        /* \"contracts/KipuBank.sol\":11528:11849  {... */\n      pop\n      pop\n        /* \"contracts/KipuBank.sol\":11463:11849  function chainLinkFeeds() internal view returns(uint precioUSD_) {... */\n      swap1\n      jump\t// out\n        /* \"@openzeppelin/contracts/access/AccessControl.sol\":3408:3605  function _checkRole(bytes32 role, address account) internal view virtual {... */\n    tag_396:\n        /* \"@openzeppelin/contracts/access/AccessControl.sol\":3496:3518  hasRole(role, account) */\n      tag_482\n        /* \"@openzeppelin/contracts/access/AccessControl.sol\":3504:3508  role */\n      dup3\n        /* \"@openzeppelin/contracts/access/AccessControl.sol\":3510:3517  account */\n      dup3\n        /* \"@openzeppelin/contracts/access/AccessControl.sol\":3496:3503  hasRole */\n      tag_136\n        /* \"@openzeppelin/contracts/access/AccessControl.sol\":3496:3518  hasRole(role, account) */\n      jump\t// in\n    tag_482:\n        /* \"@openzeppelin/contracts/access/AccessControl.sol\":3491:3599  if (!hasRole(role, account)) {... */\n      tag_483\n      jumpi\n        /* \"@openzeppelin/contracts/access/AccessControl.sol\":3574:3581  account */\n      dup1\n        /* \"@openzeppelin/contracts/access/AccessControl.sol\":3583:3587  role */\n      dup3\n        /* \"@openzeppelin/contracts/access/AccessControl.sol\":3541:3588  AccessControlUnauthorizedAccount(account, role) */\n      mload(0x40)\n      0xe2517d3f00000000000000000000000000000000000000000000000000000000\n      dup2\n      mstore\n      0x04\n      add\n      tag_484\n      swap3\n      swap2\n      swap1\n      tag_485\n      jump\t// in\n    tag_484:\n      mload(0x40)\n      dup1\n      swap2\n      sub\n      swap1\n      revert\n        /* \"@openzeppelin/contracts/access/AccessControl.sol\":3491:3599  if (!hasRole(role, account)) {... */\n    tag_483:\n        /* \"@openzeppelin/contracts/access/AccessControl.sol\":3408:3605  function _checkRole(bytes32 role, address account) internal view virtual {... */\n      pop\n      pop\n      jump\t// out\n        /* \"@openzeppelin/contracts/token/ERC20/utils/SafeERC20.sol\":8370:9090  function _callOptionalReturn(IERC20 token, bytes memory data) private {... */\n    tag_420:\n        /* \"@openzeppelin/contracts/token/ERC20/utils/SafeERC20.sol\":8450:8468  uint256 returnSize */\n      0x00\n        /* \"@openzeppelin/contracts/token/ERC20/utils/SafeERC20.sol\":8478:8497  uint256 returnValue */\n      0x00\n        /* \"@openzeppelin/contracts/token/ERC20/utils/SafeERC20.sol\":8616:8620  0x20 */\n      0x20\n        /* \"@openzeppelin/contracts/token/ERC20/utils/SafeERC20.sol\":8613:8614  0 */\n      0x00\n        /* \"@openzeppelin/contracts/token/ERC20/utils/SafeERC20.sol\":8606:8610  data */\n      dup5\n        /* \"@openzeppelin/contracts/token/ERC20/utils/SafeERC20.sol\":8600:8611  mload(data) */\n      mload\n        /* \"@openzeppelin/contracts/token/ERC20/utils/SafeERC20.sol\":8593:8597  0x20 */\n      0x20\n        /* \"@openzeppelin/contracts/token/ERC20/utils/SafeERC20.sol\":8587:8591  data */\n      dup7\n        /* \"@openzeppelin/contracts/token/ERC20/utils/SafeERC20.sol\":8583:8598  add(data, 0x20) */\n      add\n        /* \"@openzeppelin/contracts/token/ERC20/utils/SafeERC20.sol\":8580:8581  0 */\n      0x00\n        /* \"@openzeppelin/contracts/token/ERC20/utils/SafeERC20.sol\":8573:8578  token */\n      dup9\n        /* \"@openzeppelin/contracts/token/ERC20/utils/SafeERC20.sol\":8566:8571  gas() */\n      gas\n        /* \"@openzeppelin/contracts/token/ERC20/utils/SafeERC20.sol\":8561:8621  call(gas(), token, 0, add(data, 0x20), mload(data), 0, 0x20) */\n      call\n        /* \"@openzeppelin/contracts/token/ERC20/utils/SafeERC20.sol\":8673:8680  success */\n      dup1\n        /* \"@openzeppelin/contracts/token/ERC20/utils/SafeERC20.sol\":8663:8839  if iszero(success) {... */\n      tag_487\n      jumpi\n        /* \"@openzeppelin/contracts/token/ERC20/utils/SafeERC20.sol\":8717:8721  0x40 */\n      0x40\n        /* \"@openzeppelin/contracts/token/ERC20/utils/SafeERC20.sol\":8711:8722  mload(0x40) */\n      mload\n        /* \"@openzeppelin/contracts/token/ERC20/utils/SafeERC20.sol\":8762:8778  returndatasize() */\n      returndatasize\n        /* \"@openzeppelin/contracts/token/ERC20/utils/SafeERC20.sol\":8759:8760  0 */\n      0x00\n        /* \"@openzeppelin/contracts/token/ERC20/utils/SafeERC20.sol\":8754:8757  ptr */\n      dup3\n        /* \"@openzeppelin/contracts/token/ERC20/utils/SafeERC20.sol\":8739:8779  returndatacopy(ptr, 0, returndatasize()) */\n      returndatacopy\n        /* \"@openzeppelin/contracts/token/ERC20/utils/SafeERC20.sol\":8808:8824  returndatasize() */\n      returndatasize\n        /* \"@openzeppelin/contracts/token/ERC20/utils/SafeERC20.sol\":8803:8806  ptr */\n      dup2\n        /* \"@openzeppelin/contracts/token/ERC20/utils/SafeERC20.sol\":8796:8825  revert(ptr, returndatasize()) */\n      revert\n        /* \"@openzeppelin/contracts/token/ERC20/utils/SafeERC20.sol\":8663:8839  if iszero(success) {... */\n    tag_487:\n        /* \"@openzeppelin/contracts/token/ERC20/utils/SafeERC20.sol\":8866:8882  returndatasize() */\n      returndatasize\n        /* \"@openzeppelin/contracts/token/ERC20/utils/SafeERC20.sol\":8852:8882  returnSize := returndatasize() */\n      swap3\n      pop\n        /* \"@openzeppelin/contracts/token/ERC20/utils/SafeERC20.sol\":8916:8917  0 */\n      0x00\n        /* \"@openzeppelin/contracts/token/ERC20/utils/SafeERC20.sol\":8910:8918  mload(0) */\n      mload\n        /* \"@openzeppelin/contracts/token/ERC20/utils/SafeERC20.sol\":8895:8918  returnValue := mload(0) */\n      swap2\n      pop\n        /* \"@openzeppelin/contracts/token/ERC20/utils/SafeERC20.sol\":8532:8928  {... */\n      pop\n        /* \"@openzeppelin/contracts/token/ERC20/utils/SafeERC20.sol\":8956:8957  0 */\n      0x00\n        /* \"@openzeppelin/contracts/token/ERC20/utils/SafeERC20.sol\":8942:8952  returnSize */\n      dup3\n        /* \"@openzeppelin/contracts/token/ERC20/utils/SafeERC20.sol\":8942:8957  returnSize == 0 */\n      eq\n        /* \"@openzeppelin/contracts/token/ERC20/utils/SafeERC20.sol\":8942:9010  returnSize == 0 ? address(token).code.length == 0 : returnValue != 1 */\n      tag_488\n      jumpi\n        /* \"@openzeppelin/contracts/token/ERC20/utils/SafeERC20.sol\":9009:9010  1 */\n      0x01\n        /* \"@openzeppelin/contracts/token/ERC20/utils/SafeERC20.sol\":8994:9005  returnValue */\n      dup2\n        /* \"@openzeppelin/contracts/token/ERC20/utils/SafeERC20.sol\":8994:9010  returnValue != 1 */\n      eq\n      iszero\n        /* \"@openzeppelin/contracts/token/ERC20/utils/SafeERC20.sol\":8942:9010  returnSize == 0 ? address(token).code.length == 0 : returnValue != 1 */\n      jump(tag_489)\n    tag_488:\n        /* \"@openzeppelin/contracts/token/ERC20/utils/SafeERC20.sol\":8990:8991  0 */\n      0x00\n        /* \"@openzeppelin/contracts/token/ERC20/utils/SafeERC20.sol\":8968:8973  token */\n      dup5\n        /* \"@openzeppelin/contracts/token/ERC20/utils/SafeERC20.sol\":8960:8986  address(token).code.length */\n      0xffffffffffffffffffffffffffffffffffffffff\n      and\n      extcodesize\n        /* \"@openzeppelin/contracts/token/ERC20/utils/SafeERC20.sol\":8960:8991  address(token).code.length == 0 */\n      eq\n        /* \"@openzeppelin/contracts/token/ERC20/utils/SafeERC20.sol\":8942:9010  returnSize == 0 ? address(token).code.length == 0 : returnValue != 1 */\n    tag_489:\n        /* \"@openzeppelin/contracts/token/ERC20/utils/SafeERC20.sol\":8938:9084  if (returnSize == 0 ? address(token).code.length == 0 : returnValue != 1) {... */\n      iszero\n      tag_490\n      jumpi\n        /* \"@openzeppelin/contracts/token/ERC20/utils/SafeERC20.sol\":9066:9071  token */\n      dup4\n        /* \"@openzeppelin/contracts/token/ERC20/utils/SafeERC20.sol\":9033:9073  SafeERC20FailedOperation(address(token)) */\n      mload(0x40)\n      0x5274afe700000000000000000000000000000000000000000000000000000000\n      dup2\n      mstore\n      0x04\n      add\n      tag_491\n      swap2\n      swap1\n      tag_46\n      jump\t// in\n    tag_491:\n      mload(0x40)\n      dup1\n      swap2\n      sub\n      swap1\n      revert\n        /* \"@openzeppelin/contracts/token/ERC20/utils/SafeERC20.sol\":8938:9084  if (returnSize == 0 ? address(token).code.length == 0 : returnValue != 1) {... */\n    tag_490:\n        /* \"@openzeppelin/contracts/token/ERC20/utils/SafeERC20.sol\":8440:9090  {... */\n      pop\n      pop\n        /* \"@openzeppelin/contracts/token/ERC20/utils/SafeERC20.sol\":8370:9090  function _callOptionalReturn(IERC20 token, bytes memory data) private {... */\n      pop\n      pop\n      jump\t// out\n        /* \"@openzeppelin/contracts/security/ReentrancyGuard.sol\":2336:2623  function _nonReentrantBefore() private {... */\n    tag_430:\n        /* \"@openzeppelin/contracts/security/ReentrancyGuard.sol\":1759:1760  2 */\n      0x02\n        /* \"@openzeppelin/contracts/security/ReentrancyGuard.sol\":2468:2475  _status */\n      sload(0x00)\n        /* \"@openzeppelin/contracts/security/ReentrancyGuard.sol\":2468:2487  _status != _ENTERED */\n      sub\n        /* \"@openzeppelin/contracts/security/ReentrancyGuard.sol\":2460:2523  require(_status != _ENTERED, \"ReentrancyGuard: reentrant call\") */\n      tag_493\n      jumpi\n      mload(0x40)\n      0x08c379a000000000000000000000000000000000000000000000000000000000\n      dup2\n      mstore\n      0x04\n      add\n      tag_494\n      swap1\n      tag_495\n      jump\t// in\n    tag_494:\n      mload(0x40)\n      dup1\n      swap2\n      sub\n      swap1\n      revert\n    tag_493:\n        /* \"@openzeppelin/contracts/security/ReentrancyGuard.sol\":1759:1760  2 */\n      0x02\n        /* \"@openzeppelin/contracts/security/ReentrancyGuard.sol\":2598:2605  _status */\n      0x00\n        /* \"@openzeppelin/contracts/security/ReentrancyGuard.sol\":2598:2616  _status = _ENTERED */\n      dup2\n      swap1\n      sstore\n      pop\n        /* \"@openzeppelin/contracts/security/ReentrancyGuard.sol\":2336:2623  function _nonReentrantBefore() private {... */\n      jump\t// out\n        /* \"@openzeppelin/contracts/security/ReentrancyGuard.sol\":2629:2838  function _nonReentrantAfter() private {... */\n    tag_453:\n        /* \"@openzeppelin/contracts/security/ReentrancyGuard.sol\":1716:1717  1 */\n      0x01\n        /* \"@openzeppelin/contracts/security/ReentrancyGuard.sol\":2809:2816  _status */\n      0x00\n        /* \"@openzeppelin/contracts/security/ReentrancyGuard.sol\":2809:2831  _status = _NOT_ENTERED */\n      dup2\n      swap1\n      sstore\n      pop\n        /* \"@openzeppelin/contracts/security/ReentrancyGuard.sol\":2629:2838  function _nonReentrantAfter() private {... */\n      jump\t// out\n        /* \"@openzeppelin/contracts/token/ERC20/utils/SafeERC20.sol\":1219:1379  function safeTransfer(IERC20 token, address to, uint256 value) internal {... */\n    tag_469:\n        /* \"@openzeppelin/contracts/token/ERC20/utils/SafeERC20.sol\":1301:1372  _callOptionalReturn(token, abi.encodeCall(token.transfer, (to, value))) */\n      tag_498\n        /* \"@openzeppelin/contracts/token/ERC20/utils/SafeERC20.sol\":1321:1326  token */\n      dup4\n        /* \"@openzeppelin/contracts/token/ERC20/utils/SafeERC20.sol\":1343:1348  token */\n      dup5\n        /* \"@openzeppelin/contracts/token/ERC20/utils/SafeERC20.sol\":1343:1357  token.transfer */\n      0xffffffffffffffffffffffffffffffffffffffff\n      and\n      0xa9059cbb\n        /* \"@openzeppelin/contracts/token/ERC20/utils/SafeERC20.sol\":1360:1362  to */\n      dup6\n        /* \"@openzeppelin/contracts/token/ERC20/utils/SafeERC20.sol\":1364:1369  value */\n      dup6\n        /* \"@openzeppelin/contracts/token/ERC20/utils/SafeERC20.sol\":1328:1371  abi.encodeCall(token.transfer, (to, value)) */\n      add(0x24, mload(0x40))\n      tag_499\n      swap3\n      swap2\n      swap1\n      tag_266\n      jump\t// in\n    tag_499:\n      mload(0x40)\n      0x20\n      dup2\n      dup4\n      sub\n      sub\n      dup2\n      mstore\n      swap1\n      0x40\n      mstore\n      swap2\n      pop\n      0xe0\n      shl\n      0x20\n      dup3\n      add\n      dup1\n      mload\n      0xffffffffffffffffffffffffffffffffffffffffffffffffffffffff\n      dup4\n      dup2\n      dup4\n      and\n      or\n      dup4\n      mstore\n      pop\n      pop\n      pop\n      pop\n        /* \"@openzeppelin/contracts/token/ERC20/utils/SafeERC20.sol\":1301:1320  _callOptionalReturn */\n      tag_420\n        /* \"@openzeppelin/contracts/token/ERC20/utils/SafeERC20.sol\":1301:1372  _callOptionalReturn(token, abi.encodeCall(token.transfer, (to, value))) */\n      jump\t// in\n    tag_498:\n        /* \"@openzeppelin/contracts/token/ERC20/utils/SafeERC20.sol\":1219:1379  function safeTransfer(IERC20 token, address to, uint256 value) internal {... */\n      pop\n      pop\n      pop\n      jump\t// out\n        /* \"#utility.yul\":7:133   */\n    tag_500:\n        /* \"#utility.yul\":44:51   */\n      0x00\n        /* \"#utility.yul\":84:126   */\n      0xffffffffffffffffffffffffffffffffffffffff\n        /* \"#utility.yul\":77:82   */\n      dup3\n        /* \"#utility.yul\":73:127   */\n      and\n        /* \"#utility.yul\":62:127   */\n      swap1\n      pop\n        /* \"#utility.yul\":7:133   */\n      swap2\n      swap1\n      pop\n      jump\t// out\n        /* \"#utility.yul\":139:235   */\n    tag_501:\n        /* \"#utility.yul\":176:183   */\n      0x00\n        /* \"#utility.yul\":205:229   */\n      tag_546\n        /* \"#utility.yul\":223:228   */\n      dup3\n        /* \"#utility.yul\":205:229   */\n      tag_500\n      jump\t// in\n    tag_546:\n        /* \"#utility.yul\":194:229   */\n      swap1\n      pop\n        /* \"#utility.yul\":139:235   */\n      swap2\n      swap1\n      pop\n      jump\t// out\n        /* \"#utility.yul\":241:359   */\n    tag_502:\n        /* \"#utility.yul\":328:352   */\n      tag_548\n        /* \"#utility.yul\":346:351   */\n      dup2\n        /* \"#utility.yul\":328:352   */\n      tag_501\n      jump\t// in\n    tag_548:\n        /* \"#utility.yul\":323:326   */\n      dup3\n        /* \"#utility.yul\":316:353   */\n      mstore\n        /* \"#utility.yul\":241:359   */\n      pop\n      pop\n      jump\t// out\n        /* \"#utility.yul\":365:587   */\n    tag_46:\n        /* \"#utility.yul\":458:462   */\n      0x00\n        /* \"#utility.yul\":496:498   */\n      0x20\n        /* \"#utility.yul\":485:494   */\n      dup3\n        /* \"#utility.yul\":481:499   */\n      add\n        /* \"#utility.yul\":473:499   */\n      swap1\n      pop\n        /* \"#utility.yul\":509:580   */\n      tag_550\n        /* \"#utility.yul\":577:578   */\n      0x00\n        /* \"#utility.yul\":566:575   */\n      dup4\n        /* \"#utility.yul\":562:579   */\n      add\n        /* \"#utility.yul\":553:559   */\n      dup5\n        /* \"#utility.yul\":509:580   */\n      tag_502\n      jump\t// in\n    tag_550:\n        /* \"#utility.yul\":365:587   */\n      swap3\n      swap2\n      pop\n      pop\n      jump\t// out\n        /* \"#utility.yul\":674:791   */\n    tag_504:\n        /* \"#utility.yul\":783:784   */\n      0x00\n        /* \"#utility.yul\":780:781   */\n      0x00\n        /* \"#utility.yul\":773:785   */\n      revert\n        /* \"#utility.yul\":920:1069   */\n    tag_506:\n        /* \"#utility.yul\":956:963   */\n      0x00\n        /* \"#utility.yul\":996:1062   */\n      0xffffffff00000000000000000000000000000000000000000000000000000000\n        /* \"#utility.yul\":989:994   */\n      dup3\n        /* \"#utility.yul\":985:1063   */\n      and\n        /* \"#utility.yul\":974:1063   */\n      swap1\n      pop\n        /* \"#utility.yul\":920:1069   */\n      swap2\n      swap1\n      pop\n      jump\t// out\n        /* \"#utility.yul\":1075:1195   */\n    tag_507:\n        /* \"#utility.yul\":1147:1170   */\n      tag_556\n        /* \"#utility.yul\":1164:1169   */\n      dup2\n        /* \"#utility.yul\":1147:1170   */\n      tag_506\n      jump\t// in\n    tag_556:\n        /* \"#utility.yul\":1140:1145   */\n      dup2\n        /* \"#utility.yul\":1137:1171   */\n      eq\n        /* \"#utility.yul\":1127:1189   */\n      tag_557\n      jumpi\n        /* \"#utility.yul\":1185:1186   */\n      0x00\n        /* \"#utility.yul\":1182:1183   */\n      0x00\n        /* \"#utility.yul\":1175:1187   */\n      revert\n        /* \"#utility.yul\":1127:1189   */\n    tag_557:\n        /* \"#utility.yul\":1075:1195   */\n      pop\n      jump\t// out\n        /* \"#utility.yul\":1201:1338   */\n    tag_508:\n        /* \"#utility.yul\":1246:1251   */\n      0x00\n        /* \"#utility.yul\":1284:1290   */\n      dup2\n        /* \"#utility.yul\":1271:1291   */\n      calldataload\n        /* \"#utility.yul\":1262:1291   */\n      swap1\n      pop\n        /* \"#utility.yul\":1300:1332   */\n      tag_559\n        /* \"#utility.yul\":1326:1331   */\n      dup2\n        /* \"#utility.yul\":1300:1332   */\n      tag_507\n      jump\t// in\n    tag_559:\n        /* \"#utility.yul\":1201:1338   */\n      swap3\n      swap2\n      pop\n      pop\n      jump\t// out\n        /* \"#utility.yul\":1344:1671   */\n    tag_53:\n        /* \"#utility.yul\":1402:1408   */\n      0x00\n        /* \"#utility.yul\":1451:1453   */\n      0x20\n        /* \"#utility.yul\":1439:1448   */\n      dup3\n        /* \"#utility.yul\":1430:1437   */\n      dup5\n        /* \"#utility.yul\":1426:1449   */\n      sub\n        /* \"#utility.yul\":1422:1454   */\n      slt\n        /* \"#utility.yul\":1419:1538   */\n      iszero\n      tag_561\n      jumpi\n        /* \"#utility.yul\":1457:1536   */\n      tag_562\n      tag_504\n      jump\t// in\n    tag_562:\n        /* \"#utility.yul\":1419:1538   */\n    tag_561:\n        /* \"#utility.yul\":1577:1578   */\n      0x00\n        /* \"#utility.yul\":1602:1654   */\n      tag_563\n        /* \"#utility.yul\":1646:1653   */\n      dup5\n        /* \"#utility.yul\":1637:1643   */\n      dup3\n        /* \"#utility.yul\":1626:1635   */\n      dup6\n        /* \"#utility.yul\":1622:1644   */\n      add\n        /* \"#utility.yul\":1602:1654   */\n      tag_508\n      jump\t// in\n    tag_563:\n        /* \"#utility.yul\":1592:1654   */\n      swap2\n      pop\n        /* \"#utility.yul\":1548:1664   */\n      pop\n        /* \"#utility.yul\":1344:1671   */\n      swap3\n      swap2\n      pop\n      pop\n      jump\t// out\n        /* \"#utility.yul\":1677:1767   */\n    tag_509:\n        /* \"#utility.yul\":1711:1718   */\n      0x00\n        /* \"#utility.yul\":1754:1759   */\n      dup2\n        /* \"#utility.yul\":1747:1760   */\n      iszero\n        /* \"#utility.yul\":1740:1761   */\n      iszero\n        /* \"#utility.yul\":1729:1761   */\n      swap1\n      pop\n        /* \"#utility.yul\":1677:1767   */\n      swap2\n      swap1\n      pop\n      jump\t// out\n        /* \"#utility.yul\":1773:1882   */\n    tag_510:\n        /* \"#utility.yul\":1854:1875   */\n      tag_566\n        /* \"#utility.yul\":1869:1874   */\n      dup2\n        /* \"#utility.yul\":1854:1875   */\n      tag_509\n      jump\t// in\n    tag_566:\n        /* \"#utility.yul\":1849:1852   */\n      dup3\n        /* \"#utility.yul\":1842:1876   */\n      mstore\n        /* \"#utility.yul\":1773:1882   */\n      pop\n      pop\n      jump\t// out\n        /* \"#utility.yul\":1888:2098   */\n    tag_56:\n        /* \"#utility.yul\":1975:1979   */\n      0x00\n        /* \"#utility.yul\":2013:2015   */\n      0x20\n        /* \"#utility.yul\":2002:2011   */\n      dup3\n        /* \"#utility.yul\":1998:2016   */\n      add\n        /* \"#utility.yul\":1990:2016   */\n      swap1\n      pop\n        /* \"#utility.yul\":2026:2091   */\n      tag_568\n        /* \"#utility.yul\":2088:2089   */\n      0x00\n        /* \"#utility.yul\":2077:2086   */\n      dup4\n        /* \"#utility.yul\":2073:2090   */\n      add\n        /* \"#utility.yul\":2064:2070   */\n      dup5\n        /* \"#utility.yul\":2026:2091   */\n      tag_510\n      jump\t// in\n    tag_568:\n        /* \"#utility.yul\":1888:2098   */\n      swap3\n      swap2\n      pop\n      pop\n      jump\t// out\n        /* \"#utility.yul\":2104:2181   */\n    tag_511:\n        /* \"#utility.yul\":2141:2148   */\n      0x00\n        /* \"#utility.yul\":2170:2175   */\n      dup2\n        /* \"#utility.yul\":2159:2175   */\n      swap1\n      pop\n        /* \"#utility.yul\":2104:2181   */\n      swap2\n      swap1\n      pop\n      jump\t// out\n        /* \"#utility.yul\":2187:2305   */\n    tag_512:\n        /* \"#utility.yul\":2274:2298   */\n      tag_571\n        /* \"#utility.yul\":2292:2297   */\n      dup2\n        /* \"#utility.yul\":2274:2298   */\n      tag_511\n      jump\t// in\n    tag_571:\n        /* \"#utility.yul\":2269:2272   */\n      dup3\n        /* \"#utility.yul\":2262:2299   */\n      mstore\n        /* \"#utility.yul\":2187:2305   */\n      pop\n      pop\n      jump\t// out\n        /* \"#utility.yul\":2311:2963   */\n    tag_61:\n        /* \"#utility.yul\":2510:2514   */\n      0x00\n        /* \"#utility.yul\":2548:2551   */\n      0xa0\n        /* \"#utility.yul\":2537:2546   */\n      dup3\n        /* \"#utility.yul\":2533:2552   */\n      add\n        /* \"#utility.yul\":2525:2552   */\n      swap1\n      pop\n        /* \"#utility.yul\":2562:2627   */\n      tag_573\n        /* \"#utility.yul\":2624:2625   */\n      0x00\n        /* \"#utility.yul\":2613:2622   */\n      dup4\n        /* \"#utility.yul\":2609:2626   */\n      add\n        /* \"#utility.yul\":2600:2606   */\n      dup9\n        /* \"#utility.yul\":2562:2627   */\n      tag_510\n      jump\t// in\n    tag_573:\n        /* \"#utility.yul\":2637:2709   */\n      tag_574\n        /* \"#utility.yul\":2705:2707   */\n      0x20\n        /* \"#utility.yul\":2694:2703   */\n      dup4\n        /* \"#utility.yul\":2690:2708   */\n      add\n        /* \"#utility.yul\":2681:2687   */\n      dup8\n        /* \"#utility.yul\":2637:2709   */\n      tag_512\n      jump\t// in\n    tag_574:\n        /* \"#utility.yul\":2719:2791   */\n      tag_575\n        /* \"#utility.yul\":2787:2789   */\n      0x40\n        /* \"#utility.yul\":2776:2785   */\n      dup4\n        /* \"#utility.yul\":2772:2790   */\n      add\n        /* \"#utility.yul\":2763:2769   */\n      dup7\n        /* \"#utility.yul\":2719:2791   */\n      tag_512\n      jump\t// in\n    tag_575:\n        /* \"#utility.yul\":2801:2873   */\n      tag_576\n        /* \"#utility.yul\":2869:2871   */\n      0x60\n        /* \"#utility.yul\":2858:2867   */\n      dup4\n        /* \"#utility.yul\":2854:2872   */\n      add\n        /* \"#utility.yul\":2845:2851   */\n      dup6\n        /* \"#utility.yul\":2801:2873   */\n      tag_512\n      jump\t// in\n    tag_576:\n        /* \"#utility.yul\":2883:2956   */\n      tag_577\n        /* \"#utility.yul\":2951:2954   */\n      0x80\n        /* \"#utility.yul\":2940:2949   */\n      dup4\n        /* \"#utility.yul\":2936:2955   */\n      add\n        /* \"#utility.yul\":2927:2933   */\n      dup5\n        /* \"#utility.yul\":2883:2956   */\n      tag_502\n      jump\t// in\n    tag_577:\n        /* \"#utility.yul\":2311:2963   */\n      swap7\n      swap6\n      pop\n      pop\n      pop\n      pop\n      pop\n      pop\n      jump\t// out\n        /* \"#utility.yul\":2969:3046   */\n    tag_513:\n        /* \"#utility.yul\":3006:3013   */\n      0x00\n        /* \"#utility.yul\":3035:3040   */\n      dup2\n        /* \"#utility.yul\":3024:3040   */\n      swap1\n      pop\n        /* \"#utility.yul\":2969:3046   */\n      swap2\n      swap1\n      pop\n      jump\t// out\n        /* \"#utility.yul\":3052:3174   */\n    tag_514:\n        /* \"#utility.yul\":3125:3149   */\n      tag_580\n        /* \"#utility.yul\":3143:3148   */\n      dup2\n        /* \"#utility.yul\":3125:3149   */\n      tag_513\n      jump\t// in\n    tag_580:\n        /* \"#utility.yul\":3118:3123   */\n      dup2\n        /* \"#utility.yul\":3115:3150   */\n      eq\n        /* \"#utility.yul\":3105:3168   */\n      tag_581\n      jumpi\n        /* \"#utility.yul\":3164:3165   */\n      0x00\n        /* \"#utility.yul\":3161:3162   */\n      0x00\n        /* \"#utility.yul\":3154:3166   */\n      revert\n        /* \"#utility.yul\":3105:3168   */\n    tag_581:\n        /* \"#utility.yul\":3052:3174   */\n      pop\n      jump\t// out\n        /* \"#utility.yul\":3180:3319   */\n    tag_515:\n        /* \"#utility.yul\":3226:3231   */\n      0x00\n        /* \"#utility.yul\":3264:3270   */\n      dup2\n        /* \"#utility.yul\":3251:3271   */\n      calldataload\n        /* \"#utility.yul\":3242:3271   */\n      swap1\n      pop\n        /* \"#utility.yul\":3280:3313   */\n      tag_583\n        /* \"#utility.yul\":3307:3312   */\n      dup2\n        /* \"#utility.yul\":3280:3313   */\n      tag_514\n      jump\t// in\n    tag_583:\n        /* \"#utility.yul\":3180:3319   */\n      swap3\n      swap2\n      pop\n      pop\n      jump\t// out\n        /* \"#utility.yul\":3325:3654   */\n    tag_70:\n        /* \"#utility.yul\":3384:3390   */\n      0x00\n        /* \"#utility.yul\":3433:3435   */\n      0x20\n        /* \"#utility.yul\":3421:3430   */\n      dup3\n        /* \"#utility.yul\":3412:3419   */\n      dup5\n        /* \"#utility.yul\":3408:3431   */\n      sub\n        /* \"#utility.yul\":3404:3436   */\n      slt\n        /* \"#utility.yul\":3401:3520   */\n      iszero\n      tag_585\n      jumpi\n        /* \"#utility.yul\":3439:3518   */\n      tag_586\n      tag_504\n      jump\t// in\n    tag_586:\n        /* \"#utility.yul\":3401:3520   */\n    tag_585:\n        /* \"#utility.yul\":3559:3560   */\n      0x00\n        /* \"#utility.yul\":3584:3637   */\n      tag_587\n        /* \"#utility.yul\":3629:3636   */\n      dup5\n        /* \"#utility.yul\":3620:3626   */\n      dup3\n        /* \"#utility.yul\":3609:3618   */\n      dup6\n        /* \"#utility.yul\":3605:3627   */\n      add\n        /* \"#utility.yul\":3584:3637   */\n      tag_515\n      jump\t// in\n    tag_587:\n        /* \"#utility.yul\":3574:3637   */\n      swap2\n      pop\n        /* \"#utility.yul\":3530:3647   */\n      pop\n        /* \"#utility.yul\":3325:3654   */\n      swap3\n      swap2\n      pop\n      pop\n      jump\t// out\n        /* \"#utility.yul\":3660:3778   */\n    tag_516:\n        /* \"#utility.yul\":3747:3771   */\n      tag_589\n        /* \"#utility.yul\":3765:3770   */\n      dup2\n        /* \"#utility.yul\":3747:3771   */\n      tag_513\n      jump\t// in\n    tag_589:\n        /* \"#utility.yul\":3742:3745   */\n      dup3\n        /* \"#utility.yul\":3735:3772   */\n      mstore\n        /* \"#utility.yul\":3660:3778   */\n      pop\n      pop\n      jump\t// out\n        /* \"#utility.yul\":3784:4006   */\n    tag_73:\n        /* \"#utility.yul\":3877:3881   */\n      0x00\n        /* \"#utility.yul\":3915:3917   */\n      0x20\n        /* \"#utility.yul\":3904:3913   */\n      dup3\n        /* \"#utility.yul\":3900:3918   */\n      add\n        /* \"#utility.yul\":3892:3918   */\n      swap1\n      pop\n        /* \"#utility.yul\":3928:3999   */\n      tag_591\n        /* \"#utility.yul\":3996:3997   */\n      0x00\n        /* \"#utility.yul\":3985:3994   */\n      dup4\n        /* \"#utility.yul\":3981:3998   */\n      add\n        /* \"#utility.yul\":3972:3978   */\n      dup5\n        /* \"#utility.yul\":3928:3999   */\n      tag_516\n      jump\t// in\n    tag_591:\n        /* \"#utility.yul\":3784:4006   */\n      swap3\n      swap2\n      pop\n      pop\n      jump\t// out\n        /* \"#utility.yul\":4012:4134   */\n    tag_517:\n        /* \"#utility.yul\":4085:4109   */\n      tag_593\n        /* \"#utility.yul\":4103:4108   */\n      dup2\n        /* \"#utility.yul\":4085:4109   */\n      tag_501\n      jump\t// in\n    tag_593:\n        /* \"#utility.yul\":4078:4083   */\n      dup2\n        /* \"#utility.yul\":4075:4110   */\n      eq\n        /* \"#utility.yul\":4065:4128   */\n      tag_594\n      jumpi\n        /* \"#utility.yul\":4124:4125   */\n      0x00\n        /* \"#utility.yul\":4121:4122   */\n      0x00\n        /* \"#utility.yul\":4114:4126   */\n      revert\n        /* \"#utility.yul\":4065:4128   */\n    tag_594:\n        /* \"#utility.yul\":4012:4134   */\n      pop\n      jump\t// out\n        /* \"#utility.yul\":4140:4279   */\n    tag_518:\n        /* \"#utility.yul\":4186:4191   */\n      0x00\n        /* \"#utility.yul\":4224:4230   */\n      dup2\n        /* \"#utility.yul\":4211:4231   */\n      calldataload\n        /* \"#utility.yul\":4202:4231   */\n      swap1\n      pop\n        /* \"#utility.yul\":4240:4273   */\n      tag_596\n        /* \"#utility.yul\":4267:4272   */\n      dup2\n        /* \"#utility.yul\":4240:4273   */\n      tag_517\n      jump\t// in\n    tag_596:\n        /* \"#utility.yul\":4140:4279   */\n      swap3\n      swap2\n      pop\n      pop\n      jump\t// out\n        /* \"#utility.yul\":4285:4759   */\n    tag_77:\n        /* \"#utility.yul\":4353:4359   */\n      0x00\n        /* \"#utility.yul\":4361:4367   */\n      0x00\n        /* \"#utility.yul\":4410:4412   */\n      0x40\n        /* \"#utility.yul\":4398:4407   */\n      dup4\n        /* \"#utility.yul\":4389:4396   */\n      dup6\n        /* \"#utility.yul\":4385:4408   */\n      sub\n        /* \"#utility.yul\":4381:4413   */\n      slt\n        /* \"#utility.yul\":4378:4497   */\n      iszero\n      tag_598\n      jumpi\n        /* \"#utility.yul\":4416:4495   */\n      tag_599\n      tag_504\n      jump\t// in\n    tag_599:\n        /* \"#utility.yul\":4378:4497   */\n    tag_598:\n        /* \"#utility.yul\":4536:4537   */\n      0x00\n        /* \"#utility.yul\":4561:4614   */\n      tag_600\n        /* \"#utility.yul\":4606:4613   */\n      dup6\n        /* \"#utility.yul\":4597:4603   */\n      dup3\n        /* \"#utility.yul\":4586:4595   */\n      dup7\n        /* \"#utility.yul\":4582:4604   */\n      add\n        /* \"#utility.yul\":4561:4614   */\n      tag_515\n      jump\t// in\n    tag_600:\n        /* \"#utility.yul\":4551:4614   */\n      swap3\n      pop\n        /* \"#utility.yul\":4507:4624   */\n      pop\n        /* \"#utility.yul\":4663:4665   */\n      0x20\n        /* \"#utility.yul\":4689:4742   */\n      tag_601\n        /* \"#utility.yul\":4734:4741   */\n      dup6\n        /* \"#utility.yul\":4725:4731   */\n      dup3\n        /* \"#utility.yul\":4714:4723   */\n      dup7\n        /* \"#utility.yul\":4710:4732   */\n      add\n        /* \"#utility.yul\":4689:4742   */\n      tag_518\n      jump\t// in\n    tag_601:\n        /* \"#utility.yul\":4679:4742   */\n      swap2\n      pop\n        /* \"#utility.yul\":4634:4752   */\n      pop\n        /* \"#utility.yul\":4285:4759   */\n      swap3\n      pop\n      swap3\n      swap1\n      pop\n      jump\t// out\n        /* \"#utility.yul\":4765:4887   */\n    tag_519:\n        /* \"#utility.yul\":4838:4862   */\n      tag_603\n        /* \"#utility.yul\":4856:4861   */\n      dup2\n        /* \"#utility.yul\":4838:4862   */\n      tag_511\n      jump\t// in\n    tag_603:\n        /* \"#utility.yul\":4831:4836   */\n      dup2\n        /* \"#utility.yul\":4828:4863   */\n      eq\n        /* \"#utility.yul\":4818:4881   */\n      tag_604\n      jumpi\n        /* \"#utility.yul\":4877:4878   */\n      0x00\n        /* \"#utility.yul\":4874:4875   */\n      0x00\n        /* \"#utility.yul\":4867:4879   */\n      revert\n        /* \"#utility.yul\":4818:4881   */\n    tag_604:\n        /* \"#utility.yul\":4765:4887   */\n      pop\n      jump\t// out\n        /* \"#utility.yul\":4893:5032   */\n    tag_520:\n        /* \"#utility.yul\":4939:4944   */\n      0x00\n        /* \"#utility.yul\":4977:4983   */\n      dup2\n        /* \"#utility.yul\":4964:4984   */\n      calldataload\n        /* \"#utility.yul\":4955:4984   */\n      swap1\n      pop\n        /* \"#utility.yul\":4993:5026   */\n      tag_606\n        /* \"#utility.yul\":5020:5025   */\n      dup2\n        /* \"#utility.yul\":4993:5026   */\n      tag_519\n      jump\t// in\n    tag_606:\n        /* \"#utility.yul\":4893:5032   */\n      swap3\n      swap2\n      pop\n      pop\n      jump\t// out\n        /* \"#utility.yul\":5038:5367   */\n    tag_89:\n        /* \"#utility.yul\":5097:5103   */\n      0x00\n        /* \"#utility.yul\":5146:5148   */\n      0x20\n        /* \"#utility.yul\":5134:5143   */\n      dup3\n        /* \"#utility.yul\":5125:5132   */\n      dup5\n        /* \"#utility.yul\":5121:5144   */\n      sub\n        /* \"#utility.yul\":5117:5149   */\n      slt\n        /* \"#utility.yul\":5114:5233   */\n      iszero\n      tag_608\n      jumpi\n        /* \"#utility.yul\":5152:5231   */\n      tag_609\n      tag_504\n      jump\t// in\n    tag_609:\n        /* \"#utility.yul\":5114:5233   */\n    tag_608:\n        /* \"#utility.yul\":5272:5273   */\n      0x00\n        /* \"#utility.yul\":5297:5350   */\n      tag_610\n        /* \"#utility.yul\":5342:5349   */\n      dup5\n        /* \"#utility.yul\":5333:5339   */\n      dup3\n        /* \"#utility.yul\":5322:5331   */\n      dup6\n        /* \"#utility.yul\":5318:5340   */\n      add\n        /* \"#utility.yul\":5297:5350   */\n      tag_520\n      jump\t// in\n    tag_610:\n        /* \"#utility.yul\":5287:5350   */\n      swap2\n      pop\n        /* \"#utility.yul\":5243:5360   */\n      pop\n        /* \"#utility.yul\":5038:5367   */\n      swap3\n      swap2\n      pop\n      pop\n      jump\t// out\n        /* \"#utility.yul\":5373:5595   */\n    tag_99:\n        /* \"#utility.yul\":5466:5470   */\n      0x00\n        /* \"#utility.yul\":5504:5506   */\n      0x20\n        /* \"#utility.yul\":5493:5502   */\n      dup3\n        /* \"#utility.yul\":5489:5507   */\n      add\n        /* \"#utility.yul\":5481:5507   */\n      swap1\n      pop\n        /* \"#utility.yul\":5517:5588   */\n      tag_612\n        /* \"#utility.yul\":5585:5586   */\n      0x00\n        /* \"#utility.yul\":5574:5583   */\n      dup4\n        /* \"#utility.yul\":5570:5587   */\n      add\n        /* \"#utility.yul\":5561:5567   */\n      dup5\n        /* \"#utility.yul\":5517:5588   */\n      tag_512\n      jump\t// in\n    tag_612:\n        /* \"#utility.yul\":5373:5595   */\n      swap3\n      swap2\n      pop\n      pop\n      jump\t// out\n        /* \"#utility.yul\":5601:5661   */\n    tag_521:\n        /* \"#utility.yul\":5629:5632   */\n      0x00\n        /* \"#utility.yul\":5650:5655   */\n      dup2\n        /* \"#utility.yul\":5643:5655   */\n      swap1\n      pop\n        /* \"#utility.yul\":5601:5661   */\n      swap2\n      swap1\n      pop\n      jump\t// out\n        /* \"#utility.yul\":5667:5809   */\n    tag_522:\n        /* \"#utility.yul\":5717:5726   */\n      0x00\n        /* \"#utility.yul\":5750:5803   */\n      tag_615\n        /* \"#utility.yul\":5768:5802   */\n      tag_616\n        /* \"#utility.yul\":5777:5801   */\n      tag_617\n        /* \"#utility.yul\":5795:5800   */\n      dup5\n        /* \"#utility.yul\":5777:5801   */\n      tag_500\n      jump\t// in\n    tag_617:\n        /* \"#utility.yul\":5768:5802   */\n      tag_521\n      jump\t// in\n    tag_616:\n        /* \"#utility.yul\":5750:5803   */\n      tag_500\n      jump\t// in\n    tag_615:\n        /* \"#utility.yul\":5737:5803   */\n      swap1\n      pop\n        /* \"#utility.yul\":5667:5809   */\n      swap2\n      swap1\n      pop\n      jump\t// out\n        /* \"#utility.yul\":5815:5941   */\n    tag_523:\n        /* \"#utility.yul\":5865:5874   */\n      0x00\n        /* \"#utility.yul\":5898:5935   */\n      tag_619\n        /* \"#utility.yul\":5929:5934   */\n      dup3\n        /* \"#utility.yul\":5898:5935   */\n      tag_522\n      jump\t// in\n    tag_619:\n        /* \"#utility.yul\":5885:5935   */\n      swap1\n      pop\n        /* \"#utility.yul\":5815:5941   */\n      swap2\n      swap1\n      pop\n      jump\t// out\n        /* \"#utility.yul\":5947:6101   */\n    tag_524:\n        /* \"#utility.yul\":6025:6034   */\n      0x00\n        /* \"#utility.yul\":6058:6095   */\n      tag_621\n        /* \"#utility.yul\":6089:6094   */\n      dup3\n        /* \"#utility.yul\":6058:6095   */\n      tag_523\n      jump\t// in\n    tag_621:\n        /* \"#utility.yul\":6045:6095   */\n      swap1\n      pop\n        /* \"#utility.yul\":5947:6101   */\n      swap2\n      swap1\n      pop\n      jump\t// out\n        /* \"#utility.yul\":6107:6294   */\n    tag_525:\n        /* \"#utility.yul\":6222:6287   */\n      tag_623\n        /* \"#utility.yul\":6281:6286   */\n      dup2\n        /* \"#utility.yul\":6222:6287   */\n      tag_524\n      jump\t// in\n    tag_623:\n        /* \"#utility.yul\":6217:6220   */\n      dup3\n        /* \"#utility.yul\":6210:6288   */\n      mstore\n        /* \"#utility.yul\":6107:6294   */\n      pop\n      pop\n      jump\t// out\n        /* \"#utility.yul\":6300:6578   */\n    tag_108:\n        /* \"#utility.yul\":6421:6425   */\n      0x00\n        /* \"#utility.yul\":6459:6461   */\n      0x20\n        /* \"#utility.yul\":6448:6457   */\n      dup3\n        /* \"#utility.yul\":6444:6462   */\n      add\n        /* \"#utility.yul\":6436:6462   */\n      swap1\n      pop\n        /* \"#utility.yul\":6472:6571   */\n      tag_625\n        /* \"#utility.yul\":6568:6569   */\n      0x00\n        /* \"#utility.yul\":6557:6566   */\n      dup4\n        /* \"#utility.yul\":6553:6570   */\n      add\n        /* \"#utility.yul\":6544:6550   */\n      dup5\n        /* \"#utility.yul\":6472:6571   */\n      tag_525\n      jump\t// in\n    tag_625:\n        /* \"#utility.yul\":6300:6578   */\n      swap3\n      swap2\n      pop\n      pop\n      jump\t// out\n        /* \"#utility.yul\":6584:6913   */\n    tag_119:\n        /* \"#utility.yul\":6643:6649   */\n      0x00\n        /* \"#utility.yul\":6692:6694   */\n      0x20\n        /* \"#utility.yul\":6680:6689   */\n      dup3\n        /* \"#utility.yul\":6671:6678   */\n      dup5\n        /* \"#utility.yul\":6667:6690   */\n      sub\n        /* \"#utility.yul\":6663:6695   */\n      slt\n        /* \"#utility.yul\":6660:6779   */\n      iszero\n      tag_627\n      jumpi\n        /* \"#utility.yul\":6698:6777   */\n      tag_628\n      tag_504\n      jump\t// in\n    tag_628:\n        /* \"#utility.yul\":6660:6779   */\n    tag_627:\n        /* \"#utility.yul\":6818:6819   */\n      0x00\n        /* \"#utility.yul\":6843:6896   */\n      tag_629\n        /* \"#utility.yul\":6888:6895   */\n      dup5\n        /* \"#utility.yul\":6879:6885   */\n      dup3\n        /* \"#utility.yul\":6868:6877   */\n      dup6\n        /* \"#utility.yul\":6864:6886   */\n      add\n        /* \"#utility.yul\":6843:6896   */\n      tag_518\n      jump\t// in\n    tag_629:\n        /* \"#utility.yul\":6833:6896   */\n      swap2\n      pop\n        /* \"#utility.yul\":6789:6906   */\n      pop\n        /* \"#utility.yul\":6584:6913   */\n      swap3\n      swap2\n      pop\n      pop\n      jump\t// out\n        /* \"#utility.yul\":6919:7393   */\n    tag_165:\n        /* \"#utility.yul\":6987:6993   */\n      0x00\n        /* \"#utility.yul\":6995:7001   */\n      0x00\n        /* \"#utility.yul\":7044:7046   */\n      0x40\n        /* \"#utility.yul\":7032:7041   */\n      dup4\n        /* \"#utility.yul\":7023:7030   */\n      dup6\n        /* \"#utility.yul\":7019:7042   */\n      sub\n        /* \"#utility.yul\":7015:7047   */\n      slt\n        /* \"#utility.yul\":7012:7131   */\n      iszero\n      tag_631\n      jumpi\n        /* \"#utility.yul\":7050:7129   */\n      tag_632\n      tag_504\n      jump\t// in\n    tag_632:\n        /* \"#utility.yul\":7012:7131   */\n    tag_631:\n        /* \"#utility.yul\":7170:7171   */\n      0x00\n        /* \"#utility.yul\":7195:7248   */\n      tag_633\n        /* \"#utility.yul\":7240:7247   */\n      dup6\n        /* \"#utility.yul\":7231:7237   */\n      dup3\n        /* \"#utility.yul\":7220:7229   */\n      dup7\n        /* \"#utility.yul\":7216:7238   */\n      add\n        /* \"#utility.yul\":7195:7248   */\n      tag_518\n      jump\t// in\n    tag_633:\n        /* \"#utility.yul\":7185:7248   */\n      swap3\n      pop\n        /* \"#utility.yul\":7141:7258   */\n      pop\n        /* \"#utility.yul\":7297:7299   */\n      0x20\n        /* \"#utility.yul\":7323:7376   */\n      tag_634\n        /* \"#utility.yul\":7368:7375   */\n      dup6\n        /* \"#utility.yul\":7359:7365   */\n      dup3\n        /* \"#utility.yul\":7348:7357   */\n      dup7\n        /* \"#utility.yul\":7344:7366   */\n      add\n        /* \"#utility.yul\":7323:7376   */\n      tag_515\n      jump\t// in\n    tag_634:\n        /* \"#utility.yul\":7313:7376   */\n      swap2\n      pop\n        /* \"#utility.yul\":7268:7386   */\n      pop\n        /* \"#utility.yul\":6919:7393   */\n      swap3\n      pop\n      swap3\n      swap1\n      pop\n      jump\t// out\n        /* \"#utility.yul\":7399:7873   */\n    tag_190:\n        /* \"#utility.yul\":7467:7473   */\n      0x00\n        /* \"#utility.yul\":7475:7481   */\n      0x00\n        /* \"#utility.yul\":7524:7526   */\n      0x40\n        /* \"#utility.yul\":7512:7521   */\n      dup4\n        /* \"#utility.yul\":7503:7510   */\n      dup6\n        /* \"#utility.yul\":7499:7522   */\n      sub\n        /* \"#utility.yul\":7495:7527   */\n      slt\n        /* \"#utility.yul\":7492:7611   */\n      iszero\n      tag_636\n      jumpi\n        /* \"#utility.yul\":7530:7609   */\n      tag_637\n      tag_504\n      jump\t// in\n    tag_637:\n        /* \"#utility.yul\":7492:7611   */\n    tag_636:\n        /* \"#utility.yul\":7650:7651   */\n      0x00\n        /* \"#utility.yul\":7675:7728   */\n      tag_638\n        /* \"#utility.yul\":7720:7727   */\n      dup6\n        /* \"#utility.yul\":7711:7717   */\n      dup3\n        /* \"#utility.yul\":7700:7709   */\n      dup7\n        /* \"#utility.yul\":7696:7718   */\n      add\n        /* \"#utility.yul\":7675:7728   */\n      tag_518\n      jump\t// in\n    tag_638:\n        /* \"#utility.yul\":7665:7728   */\n      swap3\n      pop\n        /* \"#utility.yul\":7621:7738   */\n      pop\n        /* \"#utility.yul\":7777:7779   */\n      0x20\n        /* \"#utility.yul\":7803:7856   */\n      tag_639\n        /* \"#utility.yul\":7848:7855   */\n      dup6\n        /* \"#utility.yul\":7839:7845   */\n      dup3\n        /* \"#utility.yul\":7828:7837   */\n      dup7\n        /* \"#utility.yul\":7824:7846   */\n      add\n        /* \"#utility.yul\":7803:7856   */\n      tag_518\n      jump\t// in\n    tag_639:\n        /* \"#utility.yul\":7793:7856   */\n      swap2\n      pop\n        /* \"#utility.yul\":7748:7866   */\n      pop\n        /* \"#utility.yul\":7399:7873   */\n      swap3\n      pop\n      swap3\n      swap1\n      pop\n      jump\t// out\n        /* \"#utility.yul\":7879:8059   */\n    tag_526:\n        /* \"#utility.yul\":7927:8004   */\n      0x4e487b7100000000000000000000000000000000000000000000000000000000\n        /* \"#utility.yul\":7924:7925   */\n      0x00\n        /* \"#utility.yul\":7917:8005   */\n      mstore\n        /* \"#utility.yul\":8024:8028   */\n      0x11\n        /* \"#utility.yul\":8021:8022   */\n      0x04\n        /* \"#utility.yul\":8014:8029   */\n      mstore\n        /* \"#utility.yul\":8048:8052   */\n      0x24\n        /* \"#utility.yul\":8045:8046   */\n      0x00\n        /* \"#utility.yul\":8038:8053   */\n      revert\n        /* \"#utility.yul\":8065:8256   */\n    tag_204:\n        /* \"#utility.yul\":8105:8108   */\n      0x00\n        /* \"#utility.yul\":8124:8144   */\n      tag_642\n        /* \"#utility.yul\":8142:8143   */\n      dup3\n        /* \"#utility.yul\":8124:8144   */\n      tag_511\n      jump\t// in\n    tag_642:\n        /* \"#utility.yul\":8119:8144   */\n      swap2\n      pop\n        /* \"#utility.yul\":8158:8178   */\n      tag_643\n        /* \"#utility.yul\":8176:8177   */\n      dup4\n        /* \"#utility.yul\":8158:8178   */\n      tag_511\n      jump\t// in\n    tag_643:\n        /* \"#utility.yul\":8153:8178   */\n      swap3\n      pop\n        /* \"#utility.yul\":8201:8202   */\n      dup3\n        /* \"#utility.yul\":8198:8199   */\n      dup3\n        /* \"#utility.yul\":8194:8203   */\n      add\n        /* \"#utility.yul\":8187:8203   */\n      swap1\n      pop\n        /* \"#utility.yul\":8222:8225   */\n      dup1\n        /* \"#utility.yul\":8219:8220   */\n      dup3\n        /* \"#utility.yul\":8216:8226   */\n      gt\n        /* \"#utility.yul\":8213:8249   */\n      iszero\n      tag_644\n      jumpi\n        /* \"#utility.yul\":8229:8247   */\n      tag_645\n      tag_526\n      jump\t// in\n    tag_645:\n        /* \"#utility.yul\":8213:8249   */\n    tag_644:\n        /* \"#utility.yul\":8065:8256   */\n      swap3\n      swap2\n      pop\n      pop\n      jump\t// out\n        /* \"#utility.yul\":8262:8495   */\n    tag_214:\n        /* \"#utility.yul\":8301:8304   */\n      0x00\n        /* \"#utility.yul\":8324:8348   */\n      tag_647\n        /* \"#utility.yul\":8342:8347   */\n      dup3\n        /* \"#utility.yul\":8324:8348   */\n      tag_511\n      jump\t// in\n    tag_647:\n        /* \"#utility.yul\":8315:8348   */\n      swap2\n      pop\n        /* \"#utility.yul\":8370:8436   */\n      0xffffffffffffffffffffffffffffffffffffffffffffffffffffffffffffffff\n        /* \"#utility.yul\":8363:8368   */\n      dup3\n        /* \"#utility.yul\":8360:8437   */\n      sub\n        /* \"#utility.yul\":8357:8460   */\n      tag_648\n      jumpi\n        /* \"#utility.yul\":8440:8458   */\n      tag_649\n      tag_526\n      jump\t// in\n    tag_649:\n        /* \"#utility.yul\":8357:8460   */\n    tag_648:\n        /* \"#utility.yul\":8487:8488   */\n      0x01\n        /* \"#utility.yul\":8480:8485   */\n      dup3\n        /* \"#utility.yul\":8476:8489   */\n      add\n        /* \"#utility.yul\":8469:8489   */\n      swap1\n      pop\n        /* \"#utility.yul\":8262:8495   */\n      swap2\n      swap1\n      pop\n      jump\t// out\n        /* \"#utility.yul\":8501:8833   */\n    tag_266:\n        /* \"#utility.yul\":8622:8626   */\n      0x00\n        /* \"#utility.yul\":8660:8662   */\n      0x40\n        /* \"#utility.yul\":8649:8658   */\n      dup3\n        /* \"#utility.yul\":8645:8663   */\n      add\n        /* \"#utility.yul\":8637:8663   */\n      swap1\n      pop\n        /* \"#utility.yul\":8673:8744   */\n      tag_651\n        /* \"#utility.yul\":8741:8742   */\n      0x00\n        /* \"#utility.yul\":8730:8739   */\n      dup4\n        /* \"#utility.yul\":8726:8743   */\n      add\n        /* \"#utility.yul\":8717:8723   */\n      dup6\n        /* \"#utility.yul\":8673:8744   */\n      tag_502\n      jump\t// in\n    tag_651:\n        /* \"#utility.yul\":8754:8826   */\n      tag_652\n        /* \"#utility.yul\":8822:8824   */\n      0x20\n        /* \"#utility.yul\":8811:8820   */\n      dup4\n        /* \"#utility.yul\":8807:8825   */\n      add\n        /* \"#utility.yul\":8798:8804   */\n      dup5\n        /* \"#utility.yul\":8754:8826   */\n      tag_512\n      jump\t// in\n    tag_652:\n        /* \"#utility.yul\":8501:8833   */\n      swap4\n      swap3\n      pop\n      pop\n      pop\n      jump\t// out\n        /* \"#utility.yul\":8839:8955   */\n    tag_527:\n        /* \"#utility.yul\":8909:8930   */\n      tag_654\n        /* \"#utility.yul\":8924:8929   */\n      dup2\n        /* \"#utility.yul\":8909:8930   */\n      tag_509\n      jump\t// in\n    tag_654:\n        /* \"#utility.yul\":8902:8907   */\n      dup2\n        /* \"#utility.yul\":8899:8931   */\n      eq\n        /* \"#utility.yul\":8889:8949   */\n      tag_655\n      jumpi\n        /* \"#utility.yul\":8945:8946   */\n      0x00\n        /* \"#utility.yul\":8942:8943   */\n      0x00\n        /* \"#utility.yul\":8935:8947   */\n      revert\n        /* \"#utility.yul\":8889:8949   */\n    tag_655:\n        /* \"#utility.yul\":8839:8955   */\n      pop\n      jump\t// out\n        /* \"#utility.yul\":8961:9098   */\n    tag_528:\n        /* \"#utility.yul\":9015:9020   */\n      0x00\n        /* \"#utility.yul\":9046:9052   */\n      dup2\n        /* \"#utility.yul\":9040:9053   */\n      mload\n        /* \"#utility.yul\":9031:9053   */\n      swap1\n      pop\n        /* \"#utility.yul\":9062:9092   */\n      tag_657\n        /* \"#utility.yul\":9086:9091   */\n      dup2\n        /* \"#utility.yul\":9062:9092   */\n      tag_527\n      jump\t// in\n    tag_657:\n        /* \"#utility.yul\":8961:9098   */\n      swap3\n      swap2\n      pop\n      pop\n      jump\t// out\n        /* \"#utility.yul\":9104:9449   */\n    tag_270:\n        /* \"#utility.yul\":9171:9177   */\n      0x00\n        /* \"#utility.yul\":9220:9222   */\n      0x20\n        /* \"#utility.yul\":9208:9217   */\n      dup3\n        /* \"#utility.yul\":9199:9206   */\n      dup5\n        /* \"#utility.yul\":9195:9218   */\n      sub\n        /* \"#utility.yul\":9191:9223   */\n      slt\n        /* \"#utility.yul\":9188:9307   */\n      iszero\n      tag_659\n      jumpi\n        /* \"#utility.yul\":9226:9305   */\n      tag_660\n      tag_504\n      jump\t// in\n    tag_660:\n        /* \"#utility.yul\":9188:9307   */\n    tag_659:\n        /* \"#utility.yul\":9346:9347   */\n      0x00\n        /* \"#utility.yul\":9371:9432   */\n      tag_661\n        /* \"#utility.yul\":9424:9431   */\n      dup5\n        /* \"#utility.yul\":9415:9421   */\n      dup3\n        /* \"#utility.yul\":9404:9413   */\n      dup6\n        /* \"#utility.yul\":9400:9422   */\n      add\n        /* \"#utility.yul\":9371:9432   */\n      tag_528\n      jump\t// in\n    tag_661:\n        /* \"#utility.yul\":9361:9432   */\n      swap2\n      pop\n        /* \"#utility.yul\":9317:9442   */\n      pop\n        /* \"#utility.yul\":9104:9449   */\n      swap3\n      swap2\n      pop\n      pop\n      jump\t// out\n        /* \"#utility.yul\":9455:9560   */\n    tag_529:\n        /* \"#utility.yul\":9491:9498   */\n      0x00\n        /* \"#utility.yul\":9531:9553   */\n      0xffffffffffffffffffff\n        /* \"#utility.yul\":9524:9529   */\n      dup3\n        /* \"#utility.yul\":9520:9554   */\n      and\n        /* \"#utility.yul\":9509:9554   */\n      swap1\n      pop\n        /* \"#utility.yul\":9455:9560   */\n      swap2\n      swap1\n      pop\n      jump\t// out\n        /* \"#utility.yul\":9566:9686   */\n    tag_530:\n        /* \"#utility.yul\":9638:9661   */\n      tag_664\n        /* \"#utility.yul\":9655:9660   */\n      dup2\n        /* \"#utility.yul\":9638:9661   */\n      tag_529\n      jump\t// in\n    tag_664:\n        /* \"#utility.yul\":9631:9636   */\n      dup2\n        /* \"#utility.yul\":9628:9662   */\n      eq\n        /* \"#utility.yul\":9618:9680   */\n      tag_665\n      jumpi\n        /* \"#utility.yul\":9676:9677   */\n      0x00\n        /* \"#utility.yul\":9673:9674   */\n      0x00\n        /* \"#utility.yul\":9666:9678   */\n      revert\n        /* \"#utility.yul\":9618:9680   */\n    tag_665:\n        /* \"#utility.yul\":9566:9686   */\n      pop\n      jump\t// out\n        /* \"#utility.yul\":9692:9833   */\n    tag_531:\n        /* \"#utility.yul\":9748:9753   */\n      0x00\n        /* \"#utility.yul\":9779:9785   */\n      dup2\n        /* \"#utility.yul\":9773:9786   */\n      mload\n        /* \"#utility.yul\":9764:9786   */\n      swap1\n      pop\n        /* \"#utility.yul\":9795:9827   */\n      tag_667\n        /* \"#utility.yul\":9821:9826   */\n      dup2\n        /* \"#utility.yul\":9795:9827   */\n      tag_530\n      jump\t// in\n    tag_667:\n        /* \"#utility.yul\":9692:9833   */\n      swap3\n      swap2\n      pop\n      pop\n      jump\t// out\n        /* \"#utility.yul\":9839:9915   */\n    tag_532:\n        /* \"#utility.yul\":9875:9882   */\n      0x00\n        /* \"#utility.yul\":9904:9909   */\n      dup2\n        /* \"#utility.yul\":9893:9909   */\n      swap1\n      pop\n        /* \"#utility.yul\":9839:9915   */\n      swap2\n      swap1\n      pop\n      jump\t// out\n        /* \"#utility.yul\":9921:10041   */\n    tag_533:\n        /* \"#utility.yul\":9993:10016   */\n      tag_670\n        /* \"#utility.yul\":10010:10015   */\n      dup2\n        /* \"#utility.yul\":9993:10016   */\n      tag_532\n      jump\t// in\n    tag_670:\n        /* \"#utility.yul\":9986:9991   */\n      dup2\n        /* \"#utility.yul\":9983:10017   */\n      eq\n        /* \"#utility.yul\":9973:10035   */\n      tag_671\n      jumpi\n        /* \"#utility.yul\":10031:10032   */\n      0x00\n        /* \"#utility.yul\":10028:10029   */\n      0x00\n        /* \"#utility.yul\":10021:10033   */\n      revert\n        /* \"#utility.yul\":9973:10035   */\n    tag_671:\n        /* \"#utility.yul\":9921:10041   */\n      pop\n      jump\t// out\n        /* \"#utility.yul\":10047:10188   */\n    tag_534:\n        /* \"#utility.yul\":10103:10108   */\n      0x00\n        /* \"#utility.yul\":10134:10140   */\n      dup2\n        /* \"#utility.yul\":10128:10141   */\n      mload\n        /* \"#utility.yul\":10119:10141   */\n      swap1\n      pop\n        /* \"#utility.yul\":10150:10182   */\n      tag_673\n        /* \"#utility.yul\":10176:10181   */\n      dup2\n        /* \"#utility.yul\":10150:10182   */\n      tag_533\n      jump\t// in\n    tag_673:\n        /* \"#utility.yul\":10047:10188   */\n      swap3\n      swap2\n      pop\n      pop\n      jump\t// out\n        /* \"#utility.yul\":10194:10337   */\n    tag_535:\n        /* \"#utility.yul\":10251:10256   */\n      0x00\n        /* \"#utility.yul\":10282:10288   */\n      dup2\n        /* \"#utility.yul\":10276:10289   */\n      mload\n        /* \"#utility.yul\":10267:10289   */\n      swap1\n      pop\n        /* \"#utility.yul\":10298:10331   */\n      tag_675\n        /* \"#utility.yul\":10325:10330   */\n      dup2\n        /* \"#utility.yul\":10298:10331   */\n      tag_519\n      jump\t// in\n    tag_675:\n        /* \"#utility.yul\":10194:10337   */\n      swap3\n      swap2\n      pop\n      pop\n      jump\t// out\n        /* \"#utility.yul\":10343:11314   */\n    tag_310:\n        /* \"#utility.yul\":10446:10452   */\n      0x00\n        /* \"#utility.yul\":10454:10460   */\n      0x00\n        /* \"#utility.yul\":10462:10468   */\n      0x00\n        /* \"#utility.yul\":10470:10476   */\n      0x00\n        /* \"#utility.yul\":10478:10484   */\n      0x00\n        /* \"#utility.yul\":10527:10530   */\n      0xa0\n        /* \"#utility.yul\":10515:10524   */\n      dup7\n        /* \"#utility.yul\":10506:10513   */\n      dup9\n        /* \"#utility.yul\":10502:10525   */\n      sub\n        /* \"#utility.yul\":10498:10531   */\n      slt\n        /* \"#utility.yul\":10495:10615   */\n      iszero\n      tag_677\n      jumpi\n        /* \"#utility.yul\":10534:10613   */\n      tag_678\n      tag_504\n      jump\t// in\n    tag_678:\n        /* \"#utility.yul\":10495:10615   */\n    tag_677:\n        /* \"#utility.yul\":10654:10655   */\n      0x00\n        /* \"#utility.yul\":10679:10742   */\n      tag_679\n        /* \"#utility.yul\":10734:10741   */\n      dup9\n        /* \"#utility.yul\":10725:10731   */\n      dup3\n        /* \"#utility.yul\":10714:10723   */\n      dup10\n        /* \"#utility.yul\":10710:10732   */\n      add\n        /* \"#utility.yul\":10679:10742   */\n      tag_531\n      jump\t// in\n    tag_679:\n        /* \"#utility.yul\":10669:10742   */\n      swap6\n      pop\n        /* \"#utility.yul\":10625:10752   */\n      pop\n        /* \"#utility.yul\":10791:10793   */\n      0x20\n        /* \"#utility.yul\":10817:10880   */\n      tag_680\n        /* \"#utility.yul\":10872:10879   */\n      dup9\n        /* \"#utility.yul\":10863:10869   */\n      dup3\n        /* \"#utility.yul\":10852:10861   */\n      dup10\n        /* \"#utility.yul\":10848:10870   */\n      add\n        /* \"#utility.yul\":10817:10880   */\n      tag_534\n      jump\t// in\n    tag_680:\n        /* \"#utility.yul\":10807:10880   */\n      swap5\n      pop\n        /* \"#utility.yul\":10762:10890   */\n      pop\n        /* \"#utility.yul\":10929:10931   */\n      0x40\n        /* \"#utility.yul\":10955:11019   */\n      tag_681\n        /* \"#utility.yul\":11011:11018   */\n      dup9\n        /* \"#utility.yul\":11002:11008   */\n      dup3\n        /* \"#utility.yul\":10991:11000   */\n      dup10\n        /* \"#utility.yul\":10987:11009   */\n      add\n        /* \"#utility.yul\":10955:11019   */\n      tag_535\n      jump\t// in\n    tag_681:\n        /* \"#utility.yul\":10945:11019   */\n      swap4\n      pop\n        /* \"#utility.yul\":10900:11029   */\n      pop\n        /* \"#utility.yul\":11068:11070   */\n      0x60\n        /* \"#utility.yul\":11094:11158   */\n      tag_682\n        /* \"#utility.yul\":11150:11157   */\n      dup9\n        /* \"#utility.yul\":11141:11147   */\n      dup3\n        /* \"#utility.yul\":11130:11139   */\n      dup10\n        /* \"#utility.yul\":11126:11148   */\n      add\n        /* \"#utility.yul\":11094:11158   */\n      tag_535\n      jump\t// in\n    tag_682:\n        /* \"#utility.yul\":11084:11158   */\n      swap3\n      pop\n        /* \"#utility.yul\":11039:11168   */\n      pop\n        /* \"#utility.yul\":11207:11210   */\n      0x80\n        /* \"#utility.yul\":11234:11297   */\n      tag_683\n        /* \"#utility.yul\":11289:11296   */\n      dup9\n        /* \"#utility.yul\":11280:11286   */\n      dup3\n        /* \"#utility.yul\":11269:11278   */\n      dup10\n        /* \"#utility.yul\":11265:11287   */\n      add\n        /* \"#utility.yul\":11234:11297   */\n      tag_531\n      jump\t// in\n    tag_683:\n        /* \"#utility.yul\":11224:11297   */\n      swap2\n      pop\n        /* \"#utility.yul\":11178:11307   */\n      pop\n        /* \"#utility.yul\":10343:11314   */\n      swap3\n      swap6\n      pop\n      swap3\n      swap6\n      swap1\n      swap4\n      pop\n      jump\t// out\n        /* \"#utility.yul\":11320:11514   */\n    tag_320:\n        /* \"#utility.yul\":11360:11364   */\n      0x00\n        /* \"#utility.yul\":11380:11400   */\n      tag_685\n        /* \"#utility.yul\":11398:11399   */\n      dup3\n        /* \"#utility.yul\":11380:11400   */\n      tag_511\n      jump\t// in\n    tag_685:\n        /* \"#utility.yul\":11375:11400   */\n      swap2\n      pop\n        /* \"#utility.yul\":11414:11434   */\n      tag_686\n        /* \"#utility.yul\":11432:11433   */\n      dup4\n        /* \"#utility.yul\":11414:11434   */\n      tag_511\n      jump\t// in\n    tag_686:\n        /* \"#utility.yul\":11409:11434   */\n      swap3\n      pop\n        /* \"#utility.yul\":11458:11459   */\n      dup3\n        /* \"#utility.yul\":11455:11456   */\n      dup3\n        /* \"#utility.yul\":11451:11460   */\n      sub\n        /* \"#utility.yul\":11443:11460   */\n      swap1\n      pop\n        /* \"#utility.yul\":11482:11483   */\n      dup2\n        /* \"#utility.yul\":11476:11480   */\n      dup2\n        /* \"#utility.yul\":11473:11484   */\n      gt\n        /* \"#utility.yul\":11470:11507   */\n      iszero\n      tag_687\n      jumpi\n        /* \"#utility.yul\":11487:11505   */\n      tag_688\n      tag_526\n      jump\t// in\n    tag_688:\n        /* \"#utility.yul\":11470:11507   */\n    tag_687:\n        /* \"#utility.yul\":11320:11514   */\n      swap3\n      swap2\n      pop\n      pop\n      jump\t// out\n        /* \"#utility.yul\":11520:11930   */\n    tag_382:\n        /* \"#utility.yul\":11560:11567   */\n      0x00\n        /* \"#utility.yul\":11583:11603   */\n      tag_690\n        /* \"#utility.yul\":11601:11602   */\n      dup3\n        /* \"#utility.yul\":11583:11603   */\n      tag_511\n      jump\t// in\n    tag_690:\n        /* \"#utility.yul\":11578:11603   */\n      swap2\n      pop\n        /* \"#utility.yul\":11617:11637   */\n      tag_691\n        /* \"#utility.yul\":11635:11636   */\n      dup4\n        /* \"#utility.yul\":11617:11637   */\n      tag_511\n      jump\t// in\n    tag_691:\n        /* \"#utility.yul\":11612:11637   */\n      swap3\n      pop\n        /* \"#utility.yul\":11672:11673   */\n      dup3\n        /* \"#utility.yul\":11669:11670   */\n      dup3\n        /* \"#utility.yul\":11665:11674   */\n      mul\n        /* \"#utility.yul\":11694:11724   */\n      tag_692\n        /* \"#utility.yul\":11712:11723   */\n      dup2\n        /* \"#utility.yul\":11694:11724   */\n      tag_511\n      jump\t// in\n    tag_692:\n        /* \"#utility.yul\":11683:11724   */\n      swap2\n      pop\n        /* \"#utility.yul\":11873:11874   */\n      dup3\n        /* \"#utility.yul\":11864:11871   */\n      dup3\n        /* \"#utility.yul\":11860:11875   */\n      div\n        /* \"#utility.yul\":11857:11858   */\n      dup5\n        /* \"#utility.yul\":11854:11876   */\n      eq\n        /* \"#utility.yul\":11834:11835   */\n      dup4\n        /* \"#utility.yul\":11827:11836   */\n      iszero\n        /* \"#utility.yul\":11807:11890   */\n      or\n        /* \"#utility.yul\":11784:11923   */\n      tag_693\n      jumpi\n        /* \"#utility.yul\":11903:11921   */\n      tag_694\n      tag_526\n      jump\t// in\n    tag_694:\n        /* \"#utility.yul\":11784:11923   */\n    tag_693:\n        /* \"#utility.yul\":11568:11930   */\n      pop\n        /* \"#utility.yul\":11520:11930   */\n      swap3\n      swap2\n      pop\n      pop\n      jump\t// out\n        /* \"#utility.yul\":11936:12116   */\n    tag_536:\n        /* \"#utility.yul\":11984:12061   */\n      0x4e487b7100000000000000000000000000000000000000000000000000000000\n        /* \"#utility.yul\":11981:11982   */\n      0x00\n        /* \"#utility.yul\":11974:12062   */\n      mstore\n        /* \"#utility.yul\":12081:12085   */\n      0x12\n        /* \"#utility.yul\":12078:12079   */\n      0x04\n        /* \"#utility.yul\":12071:12086   */\n      mstore\n        /* \"#utility.yul\":12105:12109   */\n      0x24\n        /* \"#utility.yul\":12102:12103   */\n      0x00\n        /* \"#utility.yul\":12095:12110   */\n      revert\n        /* \"#utility.yul\":12122:12307   */\n    tag_384:\n        /* \"#utility.yul\":12162:12163   */\n      0x00\n        /* \"#utility.yul\":12179:12199   */\n      tag_697\n        /* \"#utility.yul\":12197:12198   */\n      dup3\n        /* \"#utility.yul\":12179:12199   */\n      tag_511\n      jump\t// in\n    tag_697:\n        /* \"#utility.yul\":12174:12199   */\n      swap2\n      pop\n        /* \"#utility.yul\":12213:12233   */\n      tag_698\n        /* \"#utility.yul\":12231:12232   */\n      dup4\n        /* \"#utility.yul\":12213:12233   */\n      tag_511\n      jump\t// in\n    tag_698:\n        /* \"#utility.yul\":12208:12233   */\n      swap3\n      pop\n        /* \"#utility.yul\":12252:12253   */\n      dup3\n        /* \"#utility.yul\":12242:12277   */\n      tag_699\n      jumpi\n        /* \"#utility.yul\":12257:12275   */\n      tag_700\n      tag_536\n      jump\t// in\n    tag_700:\n        /* \"#utility.yul\":12242:12277   */\n    tag_699:\n        /* \"#utility.yul\":12299:12300   */\n      dup3\n        /* \"#utility.yul\":12296:12297   */\n      dup3\n        /* \"#utility.yul\":12292:12301   */\n      div\n        /* \"#utility.yul\":12287:12301   */\n      swap1\n      pop\n        /* \"#utility.yul\":12122:12307   */\n      swap3\n      swap2\n      pop\n      pop\n      jump\t// out\n        /* \"#utility.yul\":12313:12755   */\n    tag_419:\n        /* \"#utility.yul\":12462:12466   */\n      0x00\n        /* \"#utility.yul\":12500:12502   */\n      0x60\n        /* \"#utility.yul\":12489:12498   */\n      dup3\n        /* \"#utility.yul\":12485:12503   */\n      add\n        /* \"#utility.yul\":12477:12503   */\n      swap1\n      pop\n        /* \"#utility.yul\":12513:12584   */\n      tag_702\n        /* \"#utility.yul\":12581:12582   */\n      0x00\n        /* \"#utility.yul\":12570:12579   */\n      dup4\n        /* \"#utility.yul\":12566:12583   */\n      add\n        /* \"#utility.yul\":12557:12563   */\n      dup7\n        /* \"#utility.yul\":12513:12584   */\n      tag_502\n      jump\t// in\n    tag_702:\n        /* \"#utility.yul\":12594:12666   */\n      tag_703\n        /* \"#utility.yul\":12662:12664   */\n      0x20\n        /* \"#utility.yul\":12651:12660   */\n      dup4\n        /* \"#utility.yul\":12647:12665   */\n      add\n        /* \"#utility.yul\":12638:12644   */\n      dup6\n        /* \"#utility.yul\":12594:12666   */\n      tag_502\n      jump\t// in\n    tag_703:\n        /* \"#utility.yul\":12676:12748   */\n      tag_704\n        /* \"#utility.yul\":12744:12746   */\n      0x40\n        /* \"#utility.yul\":12733:12742   */\n      dup4\n        /* \"#utility.yul\":12729:12747   */\n      add\n        /* \"#utility.yul\":12720:12726   */\n      dup5\n        /* \"#utility.yul\":12676:12748   */\n      tag_512\n      jump\t// in\n    tag_704:\n        /* \"#utility.yul\":12313:12755   */\n      swap5\n      swap4\n      pop\n      pop\n      pop\n      pop\n      jump\t// out\n        /* \"#utility.yul\":12761:12908   */\n    tag_537:\n        /* \"#utility.yul\":12862:12873   */\n      0x00\n        /* \"#utility.yul\":12899:12902   */\n      dup2\n        /* \"#utility.yul\":12884:12902   */\n      swap1\n      pop\n        /* \"#utility.yul\":12761:12908   */\n      swap3\n      swap2\n      pop\n      pop\n      jump\t// out\n        /* \"#utility.yul\":12914:13028   */\n    tag_538:\n      pop\n      jump\t// out\n        /* \"#utility.yul\":13034:13432   */\n    tag_539:\n        /* \"#utility.yul\":13193:13196   */\n      0x00\n        /* \"#utility.yul\":13214:13297   */\n      tag_708\n        /* \"#utility.yul\":13295:13296   */\n      0x00\n        /* \"#utility.yul\":13290:13293   */\n      dup4\n        /* \"#utility.yul\":13214:13297   */\n      tag_537\n      jump\t// in\n    tag_708:\n        /* \"#utility.yul\":13207:13297   */\n      swap2\n      pop\n        /* \"#utility.yul\":13306:13399   */\n      tag_709\n        /* \"#utility.yul\":13395:13398   */\n      dup3\n        /* \"#utility.yul\":13306:13399   */\n      tag_538\n      jump\t// in\n    tag_709:\n        /* \"#utility.yul\":13424:13425   */\n      0x00\n        /* \"#utility.yul\":13419:13422   */\n      dup3\n        /* \"#utility.yul\":13415:13426   */\n      add\n        /* \"#utility.yul\":13408:13426   */\n      swap1\n      pop\n        /* \"#utility.yul\":13034:13432   */\n      swap2\n      swap1\n      pop\n      jump\t// out\n        /* \"#utility.yul\":13438:13817   */\n    tag_446:\n        /* \"#utility.yul\":13622:13625   */\n      0x00\n        /* \"#utility.yul\":13644:13791   */\n      tag_711\n        /* \"#utility.yul\":13787:13790   */\n      dup3\n        /* \"#utility.yul\":13644:13791   */\n      tag_539\n      jump\t// in\n    tag_711:\n        /* \"#utility.yul\":13637:13791   */\n      swap2\n      pop\n        /* \"#utility.yul\":13808:13811   */\n      dup2\n        /* \"#utility.yul\":13801:13811   */\n      swap1\n      pop\n        /* \"#utility.yul\":13438:13817   */\n      swap2\n      swap1\n      pop\n      jump\t// out\n        /* \"#utility.yul\":13823:14155   */\n    tag_485:\n        /* \"#utility.yul\":13944:13948   */\n      0x00\n        /* \"#utility.yul\":13982:13984   */\n      0x40\n        /* \"#utility.yul\":13971:13980   */\n      dup3\n        /* \"#utility.yul\":13967:13985   */\n      add\n        /* \"#utility.yul\":13959:13985   */\n      swap1\n      pop\n        /* \"#utility.yul\":13995:14066   */\n      tag_713\n        /* \"#utility.yul\":14063:14064   */\n      0x00\n        /* \"#utility.yul\":14052:14061   */\n      dup4\n        /* \"#utility.yul\":14048:14065   */\n      add\n        /* \"#utility.yul\":14039:14045   */\n      dup6\n        /* \"#utility.yul\":13995:14066   */\n      tag_502\n      jump\t// in\n    tag_713:\n        /* \"#utility.yul\":14076:14148   */\n      tag_714\n        /* \"#utility.yul\":14144:14146   */\n      0x20\n        /* \"#utility.yul\":14133:14142   */\n      dup4\n        /* \"#utility.yul\":14129:14147   */\n      add\n        /* \"#utility.yul\":14120:14126   */\n      dup5\n        /* \"#utility.yul\":14076:14148   */\n      tag_516\n      jump\t// in\n    tag_714:\n        /* \"#utility.yul\":13823:14155   */\n      swap4\n      swap3\n      pop\n      pop\n      pop\n      jump\t// out\n        /* \"#utility.yul\":14161:14330   */\n    tag_540:\n        /* \"#utility.yul\":14245:14256   */\n      0x00\n        /* \"#utility.yul\":14279:14285   */\n      dup3\n        /* \"#utility.yul\":14274:14277   */\n      dup3\n        /* \"#utility.yul\":14267:14286   */\n      mstore\n        /* \"#utility.yul\":14319:14323   */\n      0x20\n        /* \"#utility.yul\":14314:14317   */\n      dup3\n        /* \"#utility.yul\":14310:14324   */\n      add\n        /* \"#utility.yul\":14295:14324   */\n      swap1\n      pop\n        /* \"#utility.yul\":14161:14330   */\n      swap3\n      swap2\n      pop\n      pop\n      jump\t// out\n        /* \"#utility.yul\":14336:14517   */\n    tag_541:\n        /* \"#utility.yul\":14476:14509   */\n      0x5265656e7472616e637947756172643a207265656e7472616e742063616c6c00\n        /* \"#utility.yul\":14472:14473   */\n      0x00\n        /* \"#utility.yul\":14464:14470   */\n      dup3\n        /* \"#utility.yul\":14460:14474   */\n      add\n        /* \"#utility.yul\":14453:14510   */\n      mstore\n        /* \"#utility.yul\":14336:14517   */\n      pop\n      jump\t// out\n        /* \"#utility.yul\":14523:14889   */\n    tag_542:\n        /* \"#utility.yul\":14665:14668   */\n      0x00\n        /* \"#utility.yul\":14686:14753   */\n      tag_718\n        /* \"#utility.yul\":14750:14752   */\n      0x1f\n        /* \"#utility.yul\":14745:14748   */\n      dup4\n        /* \"#utility.yul\":14686:14753   */\n      tag_540\n      jump\t// in\n    tag_718:\n        /* \"#utility.yul\":14679:14753   */\n      swap2\n      pop\n        /* \"#utility.yul\":14762:14855   */\n      tag_719\n        /* \"#utility.yul\":14851:14854   */\n      dup3\n        /* \"#utility.yul\":14762:14855   */\n      tag_541\n      jump\t// in\n    tag_719:\n        /* \"#utility.yul\":14880:14882   */\n      0x20\n        /* \"#utility.yul\":14875:14878   */\n      dup3\n        /* \"#utility.yul\":14871:14883   */\n      add\n        /* \"#utility.yul\":14864:14883   */\n      swap1\n      pop\n        /* \"#utility.yul\":14523:14889   */\n      swap2\n      swap1\n      pop\n      jump\t// out\n        /* \"#utility.yul\":14895:15314   */\n    tag_495:\n        /* \"#utility.yul\":15061:15065   */\n      0x00\n        /* \"#utility.yul\":15099:15101   */\n      0x20\n        /* \"#utility.yul\":15088:15097   */\n      dup3\n        /* \"#utility.yul\":15084:15102   */\n      add\n        /* \"#utility.yul\":15076:15102   */\n      swap1\n      pop\n        /* \"#utility.yul\":15148:15157   */\n      dup2\n        /* \"#utility.yul\":15142:15146   */\n      dup2\n        /* \"#utility.yul\":15138:15158   */\n      sub\n        /* \"#utility.yul\":15134:15135   */\n      0x00\n        /* \"#utility.yul\":15123:15132   */\n      dup4\n        /* \"#utility.yul\":15119:15136   */\n      add\n        /* \"#utility.yul\":15112:15159   */\n      mstore\n        /* \"#utility.yul\":15176:15307   */\n      tag_721\n        /* \"#utility.yul\":15302:15306   */\n      dup2\n        /* \"#utility.yul\":15176:15307   */\n      tag_542\n      jump\t// in\n    tag_721:\n        /* \"#utility.yul\":15168:15307   */\n      swap1\n      pop\n        /* \"#utility.yul\":14895:15314   */\n      swap2\n      swap1\n      pop\n      jump\t// out\n\n    auxdata: 0xa264697066735822122028bdbe8b88102a8de15c11393486960464dee43d89bf69217cbd02903fbcf0b464736f6c634300081e0033\n}\n",
				"bytecode": {
					"linkReferences": {},
					"object": "60e06040525f6004555f6005555f60065534801561001b575f5ffd5b50604051613a16380380613a16833981810160405281019061003d9190610616565b8260015f819055505f73ffffffffffffffffffffffffffffffffffffffff168173ffffffffffffffffffffffffffffffffffffffff16036100b5575f6040517f1e4fbdf70000000000000000000000000000000000000000000000000000000081526004016100ac919061069c565b60405180910390fd5b6100c48161036160201b60201c565b505f850361010957846040517ff1fdfd2b00000000000000000000000000000000000000000000000000000000815260040161010091906106c4565b60405180910390fd5b5f840361014d57836040517f5052fe8e00000000000000000000000000000000000000000000000000000000815260040161014491906106c4565b60405180910390fd5b848411156101945784846040517f3122626300000000000000000000000000000000000000000000000000000000815260040161018b9291906106dd565b60405180910390fd5b5f73ffffffffffffffffffffffffffffffffffffffff168273ffffffffffffffffffffffffffffffffffffffff16036101f9576040517f463858d600000000000000000000000000000000000000000000000000000000815260040160405180910390fd5b5f73ffffffffffffffffffffffffffffffffffffffff168173ffffffffffffffffffffffffffffffffffffffff160361025e576040517f463858d600000000000000000000000000000000000000000000000000000000815260040160405180910390fd5b6102705f5f1b8461042460201b60201c565b506102a17f539440820030c4994db4e31b6b800deafd503688728f932addfe7a410515c14c8461042460201b60201c565b506102d27f9bbb3ee3bdfbe971682b08854a620ca4bf696f8e0c269e5c5b129a18e64d29df8461042460201b60201c565b508073ffffffffffffffffffffffffffffffffffffffff1660808173ffffffffffffffffffffffffffffffffffffffff16815250508160035f6101000a81548173ffffffffffffffffffffffffffffffffffffffff021916908373ffffffffffffffffffffffffffffffffffffffff1602179055508460c081815250508360a081815250505050505050610704565b5f60015f9054906101000a900473ffffffffffffffffffffffffffffffffffffffff1690508160015f6101000a81548173ffffffffffffffffffffffffffffffffffffffff021916908373ffffffffffffffffffffffffffffffffffffffff1602179055508173ffffffffffffffffffffffffffffffffffffffff168173ffffffffffffffffffffffffffffffffffffffff167f8be0079c531659141344cd1fd0a4f28419497f9722a3daafe3b4186f6b6457e060405160405180910390a35050565b5f610435838361051a60201b60201c565b61051057600160025f8581526020019081526020015f205f015f8473ffffffffffffffffffffffffffffffffffffffff1673ffffffffffffffffffffffffffffffffffffffff1681526020019081526020015f205f6101000a81548160ff0219169083151502179055506104ad61057e60201b60201c565b73ffffffffffffffffffffffffffffffffffffffff168273ffffffffffffffffffffffffffffffffffffffff16847f2f8788117e7eff1d82e926ec794901d17c78024a50270940304540a733656f0d60405160405180910390a460019050610514565b5f90505b92915050565b5f60025f8481526020019081526020015f205f015f8373ffffffffffffffffffffffffffffffffffffffff1673ffffffffffffffffffffffffffffffffffffffff1681526020019081526020015f205f9054906101000a900460ff16905092915050565b5f33905090565b5f5ffd5b5f819050919050565b61059b81610589565b81146105a5575f5ffd5b50565b5f815190506105b681610592565b92915050565b5f73ffffffffffffffffffffffffffffffffffffffff82169050919050565b5f6105e5826105bc565b9050919050565b6105f5816105db565b81146105ff575f5ffd5b50565b5f81519050610610816105ec565b92915050565b5f5f5f5f5f60a0868803121561062f5761062e610585565b5b5f61063c888289016105a8565b955050602061064d888289016105a8565b945050604061065e88828901610602565b935050606061066f88828901610602565b925050608061068088828901610602565b9150509295509295909350565b610696816105db565b82525050565b5f6020820190506106af5f83018461068d565b92915050565b6106be81610589565b82525050565b5f6020820190506106d75f8301846106b5565b92915050565b5f6040820190506106f05f8301856106b5565b6106fd60208301846106b5565b9392505050565b60805160a05160c0516132946107825f395f81816107d50152818161089b01528181610d4a015261103701525f81816107f6015281816120fe015261244101525f8181610dc401528181610ecc015281816110b5015281816111e201528181611812015281816124a90152818161258901526126b501526132945ff3fe6080604052600436106101f1575f3560e01c806382fe54b51161010c578063c6aca33c1161009f578063d9dc86941161006e578063d9dc8694146106d2578063f0e00dc8146106fc578063f2fde38b14610724578063f39b18091461074c578063f7888aec1461077657610233565b8063c6aca33c1461062e578063cb398eb314610658578063ccd6b02014610682578063d547741f146106aa57610233565b8063931fb90e116100db578063931fb90e1461058857806393295c1c146105b0578063939495bd146105da578063a217fddf1461060457610233565b806382fe54b5146104d25780638648840a146104fa5780638da5cb5b1461052257806391d148541461054c57610233565b80633d6da78e116101845780636f05c64c116101535780636f05c64c14610440578063715018a61461046a578063779bb136146104805780637dc532c5146104aa57610233565b80633d6da78e1461039c5780635c975abb146103c45780636900670c146103ee578063698b72411461041857610233565b8063248a9ca3116101c0578063248a9ca3146102fa5780632f2ff15d1461033657806336568abe1461035e57806338d5c9161461038657610233565b806301ffc9a7146102705780630594cc69146102ac57806316a1930f146102da5780631a003ecb146102e457610233565b3661023357336040517fe1d158ff00000000000000000000000000000000000000000000000000000000815260040161022a9190612aa8565b60405180910390fd5b336040517fe1d158ff0000000000000000000000000000000000000000000000000000000081526004016102679190612aa8565b60405180910390fd5b34801561027b575f5ffd5b5061029660048036038101906102919190612b1a565b6107b2565b6040516102a39190612b5f565b60405180910390f35b3480156102b7575f5ffd5b506102c06107c3565b6040516102d1959493929190612b90565b60405180910390f35b6102e2610848565b005b3480156102ef575f5ffd5b506102f8610a2f565b005b348015610305575f5ffd5b50610320600480360381019061031b9190612c14565b610b3c565b60405161032d9190612c4e565b60405180910390f35b348015610341575f5ffd5b5061035c60048036038101906103579190612c91565b610b59565b005b348015610369575f5ffd5b50610384600480360381019061037f9190612c91565b610b7b565b005b348015610391575f5ffd5b5061039a610bf6565b005b3480156103a7575f5ffd5b506103c260048036038101906103bd9190612cf9565b610d03565b005b3480156103cf575f5ffd5b506103d8610eb0565b6040516103e59190612b5f565b60405180910390f35b3480156103f9575f5ffd5b50610402610ec6565b60405161040f9190612d24565b60405180910390f35b348015610423575f5ffd5b5061043e60048036038101906104399190612cf9565b610ff0565b005b34801561044b575f5ffd5b5061045461122b565b6040516104619190612d98565b60405180910390f35b348015610475575f5ffd5b5061047e611250565b005b34801561048b575f5ffd5b50610494611263565b6040516104a19190612d24565b60405180910390f35b3480156104b5575f5ffd5b506104d060048036038101906104cb9190612db1565b6112e2565b005b3480156104dd575f5ffd5b506104f860048036038101906104f39190612cf9565b611607565b005b348015610505575f5ffd5b50610520600480360381019061051b9190612db1565b61161b565b005b34801561052d575f5ffd5b50610536611763565b6040516105439190612aa8565b60405180910390f35b348015610557575f5ffd5b50610572600480360381019061056d9190612c91565b61178b565b60405161057f9190612b5f565b60405180910390f35b348015610593575f5ffd5b506105ae60048036038101906105a99190612cf9565b6117ef565b005b3480156105bb575f5ffd5b506105c4611803565b6040516105d19190612d24565b60405180910390f35b3480156105e5575f5ffd5b506105ee61180c565b6040516105fb9190612d24565b60405180910390f35b34801561060f575f5ffd5b506106186118ab565b6040516106259190612c4e565b60405180910390f35b348015610639575f5ffd5b506106426118b1565b60405161064f9190612d24565b60405180910390f35b348015610663575f5ffd5b5061066c6118ba565b6040516106799190612c4e565b60405180910390f35b34801561068d575f5ffd5b506106a860048036038101906106a39190612ddc565b6118de565b005b3480156106b5575f5ffd5b506106d060048036038101906106cb9190612c91565b611942565b005b3480156106dd575f5ffd5b506106e6611964565b6040516106f39190612c4e565b60405180910390f35b348015610707575f5ffd5b50610722600480360381019061071d9190612ddc565b611988565b005b34801561072f575f5ffd5b5061074a60048036038101906107459190612db1565b6119ec565b005b348015610757575f5ffd5b50610760611a70565b60405161076d9190612d24565b60405180910390f35b348015610781575f5ffd5b5061079c60048036038101906107979190612e1a565b611a79565b6040516107a99190612d24565b60405180910390f35b5f6107bc82611afb565b9050919050565b5f5f5f5f5f6107d0610eb0565b6006547f00000000000000000000000000000000000000000000000000000000000000007f000000000000000000000000000000000000000000000000000000000000000060035f9054906101000a900473ffffffffffffffffffffffffffffffffffffffff16945094509450945094509091929394565b345f61085382611b74565b90505f810361089957336040517fb2f092310000000000000000000000000000000000000000000000000000000081526004016108909190612aa8565b60405180910390fd5b7f0000000000000000000000000000000000000000000000000000000000000000600654826108c89190612e85565b111561090b57806040517f2900b02c0000000000000000000000000000000000000000000000000000000081526004016109029190612d24565b60405180910390fd5b610913611ba3565b5f61091d34611b74565b90503460075f5f73ffffffffffffffffffffffffffffffffffffffff1673ffffffffffffffffffffffffffffffffffffffff1681526020019081526020015f205f3373ffffffffffffffffffffffffffffffffffffffff1673ffffffffffffffffffffffffffffffffffffffff1681526020019081526020015f205f8282546109a69190612e85565b9250508190555060045f8154809291906109bf90612eb8565b91905055508060065f8282546109d59190612e85565b925050819055503373ffffffffffffffffffffffffffffffffffffffff167f9d15693852bf60dc27bd5aa831d0351359b7d01d428ae1baae11f15cbcfebafd82604051610a229190612d24565b60405180910390a2505050565b7f539440820030c4994db4e31b6b800deafd503688728f932addfe7a410515c14c3373ffffffffffffffffffffffffffffffffffffffff16610a6f611763565b73ffffffffffffffffffffffffffffffffffffffff16141580610a995750610a97813361178b565b155b15610adb57336040517f06286eaa000000000000000000000000000000000000000000000000000000008152600401610ad29190612aa8565b60405180910390fd5b610ae3611ba3565b610aeb611be4565b3373ffffffffffffffffffffffffffffffffffffffff167f65ab6adc87722a7acd973ffed16cba7cfdf07b5329157a7192434753ba9dac1342604051610b319190612d24565b60405180910390a250565b5f60025f8381526020019081526020015f20600101549050919050565b610b6282610b3c565b610b6b81611c46565b610b758383611c5a565b50505050565b610b83611d44565b73ffffffffffffffffffffffffffffffffffffffff168173ffffffffffffffffffffffffffffffffffffffff1614610be7576040517f6697b23200000000000000000000000000000000000000000000000000000000815260040160405180910390fd5b610bf18282611d4b565b505050565b7f539440820030c4994db4e31b6b800deafd503688728f932addfe7a410515c14c3373ffffffffffffffffffffffffffffffffffffffff16610c36611763565b73ffffffffffffffffffffffffffffffffffffffff16141580610c605750610c5e813361178b565b155b15610ca257336040517f06286eaa000000000000000000000000000000000000000000000000000000008152600401610c999190612aa8565b60405180910390fd5b610caa611e35565b610cb2611e75565b3373ffffffffffffffffffffffffffffffffffffffff167f08af9cf236f4b3afb8d03262d5bef5d95db4da02aa57892cd6474e8097f4f2b742604051610cf89190612d24565b60405180910390a250565b805f8103610d4857336040517fb2f09231000000000000000000000000000000000000000000000000000000008152600401610d3f9190612aa8565b60405180910390fd5b7f000000000000000000000000000000000000000000000000000000000000000060065482610d779190612e85565b1115610dba57806040517f2900b02c000000000000000000000000000000000000000000000000000000008152600401610db19190612d24565b60405180910390fd5b610dc2611ba3565b7f000000000000000000000000000000000000000000000000000000000000000073ffffffffffffffffffffffffffffffffffffffff1663095ea7b333846040518363ffffffff1660e01b8152600401610e1d929190612eff565b6020604051808303815f875af1158015610e39573d5f5f3e3d5ffd5b505050506040513d601f19601f82011682018060405250810190610e5d9190612f50565b503373ffffffffffffffffffffffffffffffffffffffff167f3745e4a117764b16ddef1b44d7ce39fc18cade55ad54851763bcadb295fde9a883604051610ea49190612d24565b60405180910390a25050565b5f600160149054906101000a900460ff16905090565b5f60075f7f000000000000000000000000000000000000000000000000000000000000000073ffffffffffffffffffffffffffffffffffffffff1673ffffffffffffffffffffffffffffffffffffffff1681526020019081526020015f205f3373ffffffffffffffffffffffffffffffffffffffff1673ffffffffffffffffffffffffffffffffffffffff1681526020019081526020015f2054610fe160075f5f73ffffffffffffffffffffffffffffffffffffffff1673ffffffffffffffffffffffffffffffffffffffff1681526020019081526020015f205f3373ffffffffffffffffffffffffffffffffffffffff1673ffffffffffffffffffffffffffffffffffffffff1681526020019081526020015f2054611b74565b610feb9190612e85565b905090565b805f810361103557336040517fb2f0923100000000000000000000000000000000000000000000000000000000815260040161102c9190612aa8565b60405180910390fd5b7f0000000000000000000000000000000000000000000000000000000000000000600654826110649190612e85565b11156110a757806040517f2900b02c00000000000000000000000000000000000000000000000000000000815260040161109e9190612d24565b60405180910390fd5b6110af611ba3565b8160075f7f000000000000000000000000000000000000000000000000000000000000000073ffffffffffffffffffffffffffffffffffffffff1673ffffffffffffffffffffffffffffffffffffffff1681526020019081526020015f205f3373ffffffffffffffffffffffffffffffffffffffff1673ffffffffffffffffffffffffffffffffffffffff1681526020019081526020015f205f8282546111569190612e85565b9250508190555060045f81548092919061116f90612eb8565b91905055508160065f8282546111859190612e85565b925050819055503373ffffffffffffffffffffffffffffffffffffffff167f9d15693852bf60dc27bd5aa831d0351359b7d01d428ae1baae11f15cbcfebafd836040516111d29190612d24565b60405180910390a26112273330847f000000000000000000000000000000000000000000000000000000000000000073ffffffffffffffffffffffffffffffffffffffff16611ed7909392919063ffffffff16565b5050565b60035f9054906101000a900473ffffffffffffffffffffffffffffffffffffffff1681565b611258611f59565b6112615f611fe0565b565b5f60075f5f73ffffffffffffffffffffffffffffffffffffffff1673ffffffffffffffffffffffffffffffffffffffff1681526020019081526020015f205f3373ffffffffffffffffffffffffffffffffffffffff1673ffffffffffffffffffffffffffffffffffffffff1681526020019081526020015f2054905090565b7f9bbb3ee3bdfbe971682b08854a620ca4bf696f8e0c269e5c5b129a18e64d29df3373ffffffffffffffffffffffffffffffffffffffff16611322611763565b73ffffffffffffffffffffffffffffffffffffffff1614158061134c575061134a813361178b565b155b1561138e57336040517f06286eaa0000000000000000000000000000000000000000000000000000000081526004016113859190612aa8565b60405180910390fd5b611396611e35565b5f73ffffffffffffffffffffffffffffffffffffffff168273ffffffffffffffffffffffffffffffffffffffff16036113fb576040517f463858d600000000000000000000000000000000000000000000000000000000815260040160405180910390fd5b8173ffffffffffffffffffffffffffffffffffffffff1663feaf968c6040518163ffffffff1660e01b815260040160a060405180830381865afa92505050801561146357506040513d601f19601f820116820180604052508101906114609190613001565b60015b6114a457816040517f59eea31500000000000000000000000000000000000000000000000000000000815260040161149b9190612aa8565b60405180910390fd5b5f84136114e857866040517f59eea3150000000000000000000000000000000000000000000000000000000081526004016114df9190612aa8565b60405180910390fd5b610e1061ffff1682426114fb9190613078565b111561153e57836040517f2609a2650000000000000000000000000000000000000000000000000000000081526004016115359190612d24565b60405180910390fd5b5f60035f9054906101000a900473ffffffffffffffffffffffffffffffffffffffff1690508760035f6101000a81548173ffffffffffffffffffffffffffffffffffffffff021916908373ffffffffffffffffffffffffffffffffffffffff1602179055508773ffffffffffffffffffffffffffffffffffffffff168173ffffffffffffffffffffffffffffffffffffffff167f03028d95bd98a5ec8c81b55c2b61e734dde89bb773697b429bd195fd00582b3060405160405180910390a35050505050505050565b61160f611ba3565b611618816120a3565b50565b611623611f59565b61162b611e35565b5f611634611763565b90506116425f5f1b82611d4b565b5061166d7f539440820030c4994db4e31b6b800deafd503688728f932addfe7a410515c14c82611d4b565b506116987f9bbb3ee3bdfbe971682b08854a620ca4bf696f8e0c269e5c5b129a18e64d29df82611d4b565b506116a282611fe0565b6116ae5f5f1b83611c5a565b506116d97f9bbb3ee3bdfbe971682b08854a620ca4bf696f8e0c269e5c5b129a18e64d29df83611c5a565b506117047f539440820030c4994db4e31b6b800deafd503688728f932addfe7a410515c14c83611c5a565b508173ffffffffffffffffffffffffffffffffffffffff168173ffffffffffffffffffffffffffffffffffffffff167f2ed8931cd5c0d36856a21c6245bf2e305f989a55c31be2b6cb7ec0a4da43c31960405160405180910390a35050565b5f60015f9054906101000a900473ffffffffffffffffffffffffffffffffffffffff16905090565b5f60025f8481526020019081526020015f205f015f8373ffffffffffffffffffffffffffffffffffffffff1673ffffffffffffffffffffffffffffffffffffffff1681526020019081526020015f205f9054906101000a900460ff16905092915050565b6117f7611ba3565b611800816123f2565b50565b5f600654905090565b5f60075f7f000000000000000000000000000000000000000000000000000000000000000073ffffffffffffffffffffffffffffffffffffffff1673ffffffffffffffffffffffffffffffffffffffff1681526020019081526020015f205f3373ffffffffffffffffffffffffffffffffffffffff1673ffffffffffffffffffffffffffffffffffffffff1681526020019081526020015f2054905090565b5f5f1b81565b5f600554905090565b7f9bbb3ee3bdfbe971682b08854a620ca4bf696f8e0c269e5c5b129a18e64d29df81565b6118e6611f59565b6118f08183610b59565b8173ffffffffffffffffffffffffffffffffffffffff167f56a39044e0e7ad5c8db0abdb4925f3d610d0f66ab2d22536712afd06e6aa6032826040516119369190612c4e565b60405180910390a25050565b61194b82610b3c565b61195481611c46565b61195e8383611d4b565b50505050565b7f539440820030c4994db4e31b6b800deafd503688728f932addfe7a410515c14c81565b611990611f59565b61199a8183611942565b8173ffffffffffffffffffffffffffffffffffffffff167f2a235e73fbdf449db29391f00a41fd53e24c96816320a25a710415e2c05370f0826040516119e09190612c4e565b60405180910390a25050565b6119f4611f59565b5f73ffffffffffffffffffffffffffffffffffffffff168173ffffffffffffffffffffffffffffffffffffffff1603611a64575f6040517f1e4fbdf7000000000000000000000000000000000000000000000000000000008152600401611a5b9190612aa8565b60405180910390fd5b611a6d81611fe0565b50565b5f600454905090565b5f60075f8373ffffffffffffffffffffffffffffffffffffffff1673ffffffffffffffffffffffffffffffffffffffff1681526020019081526020015f205f8473ffffffffffffffffffffffffffffffffffffffff1673ffffffffffffffffffffffffffffffffffffffff1681526020019081526020015f2054905092915050565b5f7f7965db0b000000000000000000000000000000000000000000000000000000007bffffffffffffffffffffffffffffffffffffffffffffffffffffffff1916827bffffffffffffffffffffffffffffffffffffffffffffffffffffffff19161480611b6d5750611b6c82612705565b5b9050919050565b5f68056bc75e2d63100000611b8761276e565b83611b9291906130ab565b611b9c9190613119565b9050919050565b611bab610eb0565b15611be2576040517fd93c066500000000000000000000000000000000000000000000000000000000815260040160405180910390fd5b565b611bec611ba3565b60018060146101000a81548160ff0219169083151502179055507f62e78cea01bee320cd4e420270b5ea74000d11b0c9f74754ebdbfc544b05a258611c2f611d44565b604051611c3c9190612aa8565b60405180910390a1565b611c5781611c52611d44565b6128a8565b50565b5f611c65838361178b565b611d3a57600160025f8581526020019081526020015f205f015f8473ffffffffffffffffffffffffffffffffffffffff1673ffffffffffffffffffffffffffffffffffffffff1681526020019081526020015f205f6101000a81548160ff021916908315150217905550611cd7611d44565b73ffffffffffffffffffffffffffffffffffffffff168273ffffffffffffffffffffffffffffffffffffffff16847f2f8788117e7eff1d82e926ec794901d17c78024a50270940304540a733656f0d60405160405180910390a460019050611d3e565b5f90505b92915050565b5f33905090565b5f611d56838361178b565b15611e2b575f60025f8581526020019081526020015f205f015f8473ffffffffffffffffffffffffffffffffffffffff1673ffffffffffffffffffffffffffffffffffffffff1681526020019081526020015f205f6101000a81548160ff021916908315150217905550611dc8611d44565b73ffffffffffffffffffffffffffffffffffffffff168273ffffffffffffffffffffffffffffffffffffffff16847ff6391f5c32d9c69d2a47ea670b442974b53935d1edc7fd64eb21e047a839171b60405160405180910390a460019050611e2f565b5f90505b92915050565b611e3d610eb0565b611e73576040517f8dfc202b00000000000000000000000000000000000000000000000000000000815260040160405180910390fd5b565b611e7d611e35565b5f600160146101000a81548160ff0219169083151502179055507f5db9ee0a495bf2e6ff9c91a7834c1ba4fdd244a5e8aa4e537bd38aeae4b073aa611ec0611d44565b604051611ecd9190612aa8565b60405180910390a1565b611f53848573ffffffffffffffffffffffffffffffffffffffff166323b872dd868686604051602401611f0c93929190613149565b604051602081830303815290604052915060e01b6020820180517bffffffffffffffffffffffffffffffffffffffffffffffffffffffff83818316178352505050506128f9565b50505050565b611f61611d44565b73ffffffffffffffffffffffffffffffffffffffff16611f7f611763565b73ffffffffffffffffffffffffffffffffffffffff1614611fde57611fa2611d44565b6040517f118cdaa7000000000000000000000000000000000000000000000000000000008152600401611fd59190612aa8565b60405180910390fd5b565b5f60015f9054906101000a900473ffffffffffffffffffffffffffffffffffffffff1690508160015f6101000a81548173ffffffffffffffffffffffffffffffffffffffff021916908373ffffffffffffffffffffffffffffffffffffffff1602179055508173ffffffffffffffffffffffffffffffffffffffff168173ffffffffffffffffffffffffffffffffffffffff167f8be0079c531659141344cd1fd0a4f28419497f9722a3daafe3b4186f6b6457e060405160405180910390a35050565b6120ab612994565b805f6120b682611b74565b90505f81036120fc57336040517fb2f092310000000000000000000000000000000000000000000000000000000081526004016120f39190612aa8565b60405180910390fd5b7f000000000000000000000000000000000000000000000000000000000000000081111561216157806040517fc39935650000000000000000000000000000000000000000000000000000000081526004016121589190612d24565b60405180910390fd5b60075f5f73ffffffffffffffffffffffffffffffffffffffff1673ffffffffffffffffffffffffffffffffffffffff1681526020019081526020015f205f3373ffffffffffffffffffffffffffffffffffffffff1673ffffffffffffffffffffffffffffffffffffffff1681526020019081526020015f20548211156122205733816040517f51a73142000000000000000000000000000000000000000000000000000000008152600401612217929190612eff565b60405180910390fd5b5f61222a84611b74565b90508360075f5f73ffffffffffffffffffffffffffffffffffffffff1673ffffffffffffffffffffffffffffffffffffffff1681526020019081526020015f205f3373ffffffffffffffffffffffffffffffffffffffff1673ffffffffffffffffffffffffffffffffffffffff1681526020019081526020015f205f8282546122b39190613078565b9250508190555060055f8154809291906122cc90612eb8565b91905055508060065f8282546122e29190613078565b925050819055503373ffffffffffffffffffffffffffffffffffffffff167f9cde449504e4972ffddec09813e0c252a1462d76bef1864b9e7520dadb7183e88260405161232f9190612d24565b60405180910390a25f3373ffffffffffffffffffffffffffffffffffffffff168560405161235c906131ab565b5f6040518083038185875af1925050503d805f8114612396576040519150601f19603f3d011682016040523d82523d5f602084013e61239b565b606091505b50509050806123e35733856040517f6c5e1a140000000000000000000000000000000000000000000000000000000081526004016123da929190612eff565b60405180910390fd5b505050506123ef6129e1565b50565b6123fa612994565b805f810361243f57336040517fb2f092310000000000000000000000000000000000000000000000000000000081526004016124369190612aa8565b60405180910390fd5b7f00000000000000000000000000000000000000000000000000000000000000008111156124a457806040517fc399356500000000000000000000000000000000000000000000000000000000815260040161249b9190612d24565b60405180910390fd5b60075f7f000000000000000000000000000000000000000000000000000000000000000073ffffffffffffffffffffffffffffffffffffffff1673ffffffffffffffffffffffffffffffffffffffff1681526020019081526020015f205f3373ffffffffffffffffffffffffffffffffffffffff1673ffffffffffffffffffffffffffffffffffffffff1681526020019081526020015f20548111156125835733816040517f51a7314200000000000000000000000000000000000000000000000000000000815260040161257a929190612eff565b60405180910390fd5b8160075f7f000000000000000000000000000000000000000000000000000000000000000073ffffffffffffffffffffffffffffffffffffffff1673ffffffffffffffffffffffffffffffffffffffff1681526020019081526020015f205f3373ffffffffffffffffffffffffffffffffffffffff1673ffffffffffffffffffffffffffffffffffffffff1681526020019081526020015f205f82825461262a9190613078565b9250508190555060055f81548092919061264390612eb8565b91905055508160065f8282546126599190613078565b925050819055503373ffffffffffffffffffffffffffffffffffffffff167f9cde449504e4972ffddec09813e0c252a1462d76bef1864b9e7520dadb7183e8836040516126a69190612d24565b60405180910390a26126f933837f000000000000000000000000000000000000000000000000000000000000000073ffffffffffffffffffffffffffffffffffffffff166129ea9092919063ffffffff16565b506127026129e1565b50565b5f7f01ffc9a7000000000000000000000000000000000000000000000000000000007bffffffffffffffffffffffffffffffffffffffffffffffffffffffff1916827bffffffffffffffffffffffffffffffffffffffffffffffffffffffff1916149050919050565b5f5f5f60035f9054906101000a900473ffffffffffffffffffffffffffffffffffffffff1673ffffffffffffffffffffffffffffffffffffffff1663feaf968c6040518163ffffffff1660e01b815260040160a060405180830381865afa1580156127db573d5f5f3e3d5ffd5b505050506040513d601f19601f820116820180604052508101906127ff9190613001565b509350509250505f821361284a57816040517f365440290000000000000000000000000000000000000000000000000000000081526004016128419190612d24565b60405180910390fd5b610e1061ffff16814261285d9190613078565b11156128a057816040517f2609a2650000000000000000000000000000000000000000000000000000000081526004016128979190612d24565b60405180910390fd5b819250505090565b6128b2828261178b565b6128f55780826040517fe2517d3f0000000000000000000000000000000000000000000000000000000081526004016128ec9291906131bf565b60405180910390fd5b5050565b5f5f60205f8451602086015f885af180612918576040513d5f823e3d81fd5b3d92505f519150505f821461293157600181141561294c565b5f8473ffffffffffffffffffffffffffffffffffffffff163b145b1561298e57836040517f5274afe70000000000000000000000000000000000000000000000000000000081526004016129859190612aa8565b60405180910390fd5b50505050565b60025f54036129d8576040517f08c379a00000000000000000000000000000000000000000000000000000000081526004016129cf90613240565b60405180910390fd5b60025f81905550565b60015f81905550565b612a64838473ffffffffffffffffffffffffffffffffffffffff1663a9059cbb8585604051602401612a1d929190612eff565b604051602081830303815290604052915060e01b6020820180517bffffffffffffffffffffffffffffffffffffffffffffffffffffffff83818316178352505050506128f9565b505050565b5f73ffffffffffffffffffffffffffffffffffffffff82169050919050565b5f612a9282612a69565b9050919050565b612aa281612a88565b82525050565b5f602082019050612abb5f830184612a99565b92915050565b5f5ffd5b5f7fffffffff0000000000000000000000000000000000000000000000000000000082169050919050565b612af981612ac5565b8114612b03575f5ffd5b50565b5f81359050612b1481612af0565b92915050565b5f60208284031215612b2f57612b2e612ac1565b5b5f612b3c84828501612b06565b91505092915050565b5f8115159050919050565b612b5981612b45565b82525050565b5f602082019050612b725f830184612b50565b92915050565b5f819050919050565b612b8a81612b78565b82525050565b5f60a082019050612ba35f830188612b50565b612bb06020830187612b81565b612bbd6040830186612b81565b612bca6060830185612b81565b612bd76080830184612a99565b9695505050505050565b5f819050919050565b612bf381612be1565b8114612bfd575f5ffd5b50565b5f81359050612c0e81612bea565b92915050565b5f60208284031215612c2957612c28612ac1565b5b5f612c3684828501612c00565b91505092915050565b612c4881612be1565b82525050565b5f602082019050612c615f830184612c3f565b92915050565b612c7081612a88565b8114612c7a575f5ffd5b50565b5f81359050612c8b81612c67565b92915050565b5f5f60408385031215612ca757612ca6612ac1565b5b5f612cb485828601612c00565b9250506020612cc585828601612c7d565b9150509250929050565b612cd881612b78565b8114612ce2575f5ffd5b50565b5f81359050612cf381612ccf565b92915050565b5f60208284031215612d0e57612d0d612ac1565b5b5f612d1b84828501612ce5565b91505092915050565b5f602082019050612d375f830184612b81565b92915050565b5f819050919050565b5f612d60612d5b612d5684612a69565b612d3d565b612a69565b9050919050565b5f612d7182612d46565b9050919050565b5f612d8282612d67565b9050919050565b612d9281612d78565b82525050565b5f602082019050612dab5f830184612d89565b92915050565b5f60208284031215612dc657612dc5612ac1565b5b5f612dd384828501612c7d565b91505092915050565b5f5f60408385031215612df257612df1612ac1565b5b5f612dff85828601612c7d565b9250506020612e1085828601612c00565b9150509250929050565b5f5f60408385031215612e3057612e2f612ac1565b5b5f612e3d85828601612c7d565b9250506020612e4e85828601612c7d565b9150509250929050565b7f4e487b71000000000000000000000000000000000000000000000000000000005f52601160045260245ffd5b5f612e8f82612b78565b9150612e9a83612b78565b9250828201905080821115612eb257612eb1612e58565b5b92915050565b5f612ec282612b78565b91507fffffffffffffffffffffffffffffffffffffffffffffffffffffffffffffffff8203612ef457612ef3612e58565b5b600182019050919050565b5f604082019050612f125f830185612a99565b612f1f6020830184612b81565b9392505050565b612f2f81612b45565b8114612f39575f5ffd5b50565b5f81519050612f4a81612f26565b92915050565b5f60208284031215612f6557612f64612ac1565b5b5f612f7284828501612f3c565b91505092915050565b5f69ffffffffffffffffffff82169050919050565b612f9981612f7b565b8114612fa3575f5ffd5b50565b5f81519050612fb481612f90565b92915050565b5f819050919050565b612fcc81612fba565b8114612fd6575f5ffd5b50565b5f81519050612fe781612fc3565b92915050565b5f81519050612ffb81612ccf565b92915050565b5f5f5f5f5f60a0868803121561301a57613019612ac1565b5b5f61302788828901612fa6565b955050602061303888828901612fd9565b945050604061304988828901612fed565b935050606061305a88828901612fed565b925050608061306b88828901612fa6565b9150509295509295909350565b5f61308282612b78565b915061308d83612b78565b92508282039050818111156130a5576130a4612e58565b5b92915050565b5f6130b582612b78565b91506130c083612b78565b92508282026130ce81612b78565b915082820484148315176130e5576130e4612e58565b5b5092915050565b7f4e487b71000000000000000000000000000000000000000000000000000000005f52601260045260245ffd5b5f61312382612b78565b915061312e83612b78565b92508261313e5761313d6130ec565b5b828204905092915050565b5f60608201905061315c5f830186612a99565b6131696020830185612a99565b6131766040830184612b81565b949350505050565b5f81905092915050565b50565b5f6131965f8361317e565b91506131a182613188565b5f82019050919050565b5f6131b58261318b565b9150819050919050565b5f6040820190506131d25f830185612a99565b6131df6020830184612c3f565b9392505050565b5f82825260208201905092915050565b7f5265656e7472616e637947756172643a207265656e7472616e742063616c6c005f82015250565b5f61322a601f836131e6565b9150613235826131f6565b602082019050919050565b5f6020820190508181035f8301526132578161321e565b905091905056fea264697066735822122028bdbe8b88102a8de15c11393486960464dee43d89bf69217cbd02903fbcf0b464736f6c634300081e0033",
					"opcodes": "PUSH1 0xE0 PUSH1 0x40 MSTORE PUSH0 PUSH1 0x4 SSTORE PUSH0 PUSH1 0x5 SSTORE PUSH0 PUSH1 0x6 SSTORE CALLVALUE DUP1 ISZERO PUSH2 0x1B JUMPI PUSH0 PUSH0 REVERT JUMPDEST POP PUSH1 0x40 MLOAD PUSH2 0x3A16 CODESIZE SUB DUP1 PUSH2 0x3A16 DUP4 CODECOPY DUP2 DUP2 ADD PUSH1 0x40 MSTORE DUP2 ADD SWAP1 PUSH2 0x3D SWAP2 SWAP1 PUSH2 0x616 JUMP JUMPDEST DUP3 PUSH1 0x1 PUSH0 DUP2 SWAP1 SSTORE POP PUSH0 PUSH20 0xFFFFFFFFFFFFFFFFFFFFFFFFFFFFFFFFFFFFFFFF AND DUP2 PUSH20 0xFFFFFFFFFFFFFFFFFFFFFFFFFFFFFFFFFFFFFFFF AND SUB PUSH2 0xB5 JUMPI PUSH0 PUSH1 0x40 MLOAD PUSH32 0x1E4FBDF700000000000000000000000000000000000000000000000000000000 DUP2 MSTORE PUSH1 0x4 ADD PUSH2 0xAC SWAP2 SWAP1 PUSH2 0x69C JUMP JUMPDEST PUSH1 0x40 MLOAD DUP1 SWAP2 SUB SWAP1 REVERT JUMPDEST PUSH2 0xC4 DUP2 PUSH2 0x361 PUSH1 0x20 SHL PUSH1 0x20 SHR JUMP JUMPDEST POP PUSH0 DUP6 SUB PUSH2 0x109 JUMPI DUP5 PUSH1 0x40 MLOAD PUSH32 0xF1FDFD2B00000000000000000000000000000000000000000000000000000000 DUP2 MSTORE PUSH1 0x4 ADD PUSH2 0x100 SWAP2 SWAP1 PUSH2 0x6C4 JUMP JUMPDEST PUSH1 0x40 MLOAD DUP1 SWAP2 SUB SWAP1 REVERT JUMPDEST PUSH0 DUP5 SUB PUSH2 0x14D JUMPI DUP4 PUSH1 0x40 MLOAD PUSH32 0x5052FE8E00000000000000000000000000000000000000000000000000000000 DUP2 MSTORE PUSH1 0x4 ADD PUSH2 0x144 SWAP2 SWAP1 PUSH2 0x6C4 JUMP JUMPDEST PUSH1 0x40 MLOAD DUP1 SWAP2 SUB SWAP1 REVERT JUMPDEST DUP5 DUP5 GT ISZERO PUSH2 0x194 JUMPI DUP5 DUP5 PUSH1 0x40 MLOAD PUSH32 0x3122626300000000000000000000000000000000000000000000000000000000 DUP2 MSTORE PUSH1 0x4 ADD PUSH2 0x18B SWAP3 SWAP2 SWAP1 PUSH2 0x6DD JUMP JUMPDEST PUSH1 0x40 MLOAD DUP1 SWAP2 SUB SWAP1 REVERT JUMPDEST PUSH0 PUSH20 0xFFFFFFFFFFFFFFFFFFFFFFFFFFFFFFFFFFFFFFFF AND DUP3 PUSH20 0xFFFFFFFFFFFFFFFFFFFFFFFFFFFFFFFFFFFFFFFF AND SUB PUSH2 0x1F9 JUMPI PUSH1 0x40 MLOAD PUSH32 0x463858D600000000000000000000000000000000000000000000000000000000 DUP2 MSTORE PUSH1 0x4 ADD PUSH1 0x40 MLOAD DUP1 SWAP2 SUB SWAP1 REVERT JUMPDEST PUSH0 PUSH20 0xFFFFFFFFFFFFFFFFFFFFFFFFFFFFFFFFFFFFFFFF AND DUP2 PUSH20 0xFFFFFFFFFFFFFFFFFFFFFFFFFFFFFFFFFFFFFFFF AND SUB PUSH2 0x25E JUMPI PUSH1 0x40 MLOAD PUSH32 0x463858D600000000000000000000000000000000000000000000000000000000 DUP2 MSTORE PUSH1 0x4 ADD PUSH1 0x40 MLOAD DUP1 SWAP2 SUB SWAP1 REVERT JUMPDEST PUSH2 0x270 PUSH0 PUSH0 SHL DUP5 PUSH2 0x424 PUSH1 0x20 SHL PUSH1 0x20 SHR JUMP JUMPDEST POP PUSH2 0x2A1 PUSH32 0x539440820030C4994DB4E31B6B800DEAFD503688728F932ADDFE7A410515C14C DUP5 PUSH2 0x424 PUSH1 0x20 SHL PUSH1 0x20 SHR JUMP JUMPDEST POP PUSH2 0x2D2 PUSH32 0x9BBB3EE3BDFBE971682B08854A620CA4BF696F8E0C269E5C5B129A18E64D29DF DUP5 PUSH2 0x424 PUSH1 0x20 SHL PUSH1 0x20 SHR JUMP JUMPDEST POP DUP1 PUSH20 0xFFFFFFFFFFFFFFFFFFFFFFFFFFFFFFFFFFFFFFFF AND PUSH1 0x80 DUP2 PUSH20 0xFFFFFFFFFFFFFFFFFFFFFFFFFFFFFFFFFFFFFFFF AND DUP2 MSTORE POP POP DUP2 PUSH1 0x3 PUSH0 PUSH2 0x100 EXP DUP2 SLOAD DUP2 PUSH20 0xFFFFFFFFFFFFFFFFFFFFFFFFFFFFFFFFFFFFFFFF MUL NOT AND SWAP1 DUP4 PUSH20 0xFFFFFFFFFFFFFFFFFFFFFFFFFFFFFFFFFFFFFFFF AND MUL OR SWAP1 SSTORE POP DUP5 PUSH1 0xC0 DUP2 DUP2 MSTORE POP POP DUP4 PUSH1 0xA0 DUP2 DUP2 MSTORE POP POP POP POP POP POP POP PUSH2 0x704 JUMP JUMPDEST PUSH0 PUSH1 0x1 PUSH0 SWAP1 SLOAD SWAP1 PUSH2 0x100 EXP SWAP1 DIV PUSH20 0xFFFFFFFFFFFFFFFFFFFFFFFFFFFFFFFFFFFFFFFF AND SWAP1 POP DUP2 PUSH1 0x1 PUSH0 PUSH2 0x100 EXP DUP2 SLOAD DUP2 PUSH20 0xFFFFFFFFFFFFFFFFFFFFFFFFFFFFFFFFFFFFFFFF MUL NOT AND SWAP1 DUP4 PUSH20 0xFFFFFFFFFFFFFFFFFFFFFFFFFFFFFFFFFFFFFFFF AND MUL OR SWAP1 SSTORE POP DUP2 PUSH20 0xFFFFFFFFFFFFFFFFFFFFFFFFFFFFFFFFFFFFFFFF AND DUP2 PUSH20 0xFFFFFFFFFFFFFFFFFFFFFFFFFFFFFFFFFFFFFFFF AND PUSH32 0x8BE0079C531659141344CD1FD0A4F28419497F9722A3DAAFE3B4186F6B6457E0 PUSH1 0x40 MLOAD PUSH1 0x40 MLOAD DUP1 SWAP2 SUB SWAP1 LOG3 POP POP JUMP JUMPDEST PUSH0 PUSH2 0x435 DUP4 DUP4 PUSH2 0x51A PUSH1 0x20 SHL PUSH1 0x20 SHR JUMP JUMPDEST PUSH2 0x510 JUMPI PUSH1 0x1 PUSH1 0x2 PUSH0 DUP6 DUP2 MSTORE PUSH1 0x20 ADD SWAP1 DUP2 MSTORE PUSH1 0x20 ADD PUSH0 KECCAK256 PUSH0 ADD PUSH0 DUP5 PUSH20 0xFFFFFFFFFFFFFFFFFFFFFFFFFFFFFFFFFFFFFFFF AND PUSH20 0xFFFFFFFFFFFFFFFFFFFFFFFFFFFFFFFFFFFFFFFF AND DUP2 MSTORE PUSH1 0x20 ADD SWAP1 DUP2 MSTORE PUSH1 0x20 ADD PUSH0 KECCAK256 PUSH0 PUSH2 0x100 EXP DUP2 SLOAD DUP2 PUSH1 0xFF MUL NOT AND SWAP1 DUP4 ISZERO ISZERO MUL OR SWAP1 SSTORE POP PUSH2 0x4AD PUSH2 0x57E PUSH1 0x20 SHL PUSH1 0x20 SHR JUMP JUMPDEST PUSH20 0xFFFFFFFFFFFFFFFFFFFFFFFFFFFFFFFFFFFFFFFF AND DUP3 PUSH20 0xFFFFFFFFFFFFFFFFFFFFFFFFFFFFFFFFFFFFFFFF AND DUP5 PUSH32 0x2F8788117E7EFF1D82E926EC794901D17C78024A50270940304540A733656F0D PUSH1 0x40 MLOAD PUSH1 0x40 MLOAD DUP1 SWAP2 SUB SWAP1 LOG4 PUSH1 0x1 SWAP1 POP PUSH2 0x514 JUMP JUMPDEST PUSH0 SWAP1 POP JUMPDEST SWAP3 SWAP2 POP POP JUMP JUMPDEST PUSH0 PUSH1 0x2 PUSH0 DUP5 DUP2 MSTORE PUSH1 0x20 ADD SWAP1 DUP2 MSTORE PUSH1 0x20 ADD PUSH0 KECCAK256 PUSH0 ADD PUSH0 DUP4 PUSH20 0xFFFFFFFFFFFFFFFFFFFFFFFFFFFFFFFFFFFFFFFF AND PUSH20 0xFFFFFFFFFFFFFFFFFFFFFFFFFFFFFFFFFFFFFFFF AND DUP2 MSTORE PUSH1 0x20 ADD SWAP1 DUP2 MSTORE PUSH1 0x20 ADD PUSH0 KECCAK256 PUSH0 SWAP1 SLOAD SWAP1 PUSH2 0x100 EXP SWAP1 DIV PUSH1 0xFF AND SWAP1 POP SWAP3 SWAP2 POP POP JUMP JUMPDEST PUSH0 CALLER SWAP1 POP SWAP1 JUMP JUMPDEST PUSH0 PUSH0 REVERT JUMPDEST PUSH0 DUP2 SWAP1 POP SWAP2 SWAP1 POP JUMP JUMPDEST PUSH2 0x59B DUP2 PUSH2 0x589 JUMP JUMPDEST DUP2 EQ PUSH2 0x5A5 JUMPI PUSH0 PUSH0 REVERT JUMPDEST POP JUMP JUMPDEST PUSH0 DUP2 MLOAD SWAP1 POP PUSH2 0x5B6 DUP2 PUSH2 0x592 JUMP JUMPDEST SWAP3 SWAP2 POP POP JUMP JUMPDEST PUSH0 PUSH20 0xFFFFFFFFFFFFFFFFFFFFFFFFFFFFFFFFFFFFFFFF DUP3 AND SWAP1 POP SWAP2 SWAP1 POP JUMP JUMPDEST PUSH0 PUSH2 0x5E5 DUP3 PUSH2 0x5BC JUMP JUMPDEST SWAP1 POP SWAP2 SWAP1 POP JUMP JUMPDEST PUSH2 0x5F5 DUP2 PUSH2 0x5DB JUMP JUMPDEST DUP2 EQ PUSH2 0x5FF JUMPI PUSH0 PUSH0 REVERT JUMPDEST POP JUMP JUMPDEST PUSH0 DUP2 MLOAD SWAP1 POP PUSH2 0x610 DUP2 PUSH2 0x5EC JUMP JUMPDEST SWAP3 SWAP2 POP POP JUMP JUMPDEST PUSH0 PUSH0 PUSH0 PUSH0 PUSH0 PUSH1 0xA0 DUP7 DUP9 SUB SLT ISZERO PUSH2 0x62F JUMPI PUSH2 0x62E PUSH2 0x585 JUMP JUMPDEST JUMPDEST PUSH0 PUSH2 0x63C DUP9 DUP3 DUP10 ADD PUSH2 0x5A8 JUMP JUMPDEST SWAP6 POP POP PUSH1 0x20 PUSH2 0x64D DUP9 DUP3 DUP10 ADD PUSH2 0x5A8 JUMP JUMPDEST SWAP5 POP POP PUSH1 0x40 PUSH2 0x65E DUP9 DUP3 DUP10 ADD PUSH2 0x602 JUMP JUMPDEST SWAP4 POP POP PUSH1 0x60 PUSH2 0x66F DUP9 DUP3 DUP10 ADD PUSH2 0x602 JUMP JUMPDEST SWAP3 POP POP PUSH1 0x80 PUSH2 0x680 DUP9 DUP3 DUP10 ADD PUSH2 0x602 JUMP JUMPDEST SWAP2 POP POP SWAP3 SWAP6 POP SWAP3 SWAP6 SWAP1 SWAP4 POP JUMP JUMPDEST PUSH2 0x696 DUP2 PUSH2 0x5DB JUMP JUMPDEST DUP3 MSTORE POP POP JUMP JUMPDEST PUSH0 PUSH1 0x20 DUP3 ADD SWAP1 POP PUSH2 0x6AF PUSH0 DUP4 ADD DUP5 PUSH2 0x68D JUMP JUMPDEST SWAP3 SWAP2 POP POP JUMP JUMPDEST PUSH2 0x6BE DUP2 PUSH2 0x589 JUMP JUMPDEST DUP3 MSTORE POP POP JUMP JUMPDEST PUSH0 PUSH1 0x20 DUP3 ADD SWAP1 POP PUSH2 0x6D7 PUSH0 DUP4 ADD DUP5 PUSH2 0x6B5 JUMP JUMPDEST SWAP3 SWAP2 POP POP JUMP JUMPDEST PUSH0 PUSH1 0x40 DUP3 ADD SWAP1 POP PUSH2 0x6F0 PUSH0 DUP4 ADD DUP6 PUSH2 0x6B5 JUMP JUMPDEST PUSH2 0x6FD PUSH1 0x20 DUP4 ADD DUP5 PUSH2 0x6B5 JUMP JUMPDEST SWAP4 SWAP3 POP POP POP JUMP JUMPDEST PUSH1 0x80 MLOAD PUSH1 0xA0 MLOAD PUSH1 0xC0 MLOAD PUSH2 0x3294 PUSH2 0x782 PUSH0 CODECOPY PUSH0 DUP2 DUP2 PUSH2 0x7D5 ADD MSTORE DUP2 DUP2 PUSH2 0x89B ADD MSTORE DUP2 DUP2 PUSH2 0xD4A ADD MSTORE PUSH2 0x1037 ADD MSTORE PUSH0 DUP2 DUP2 PUSH2 0x7F6 ADD MSTORE DUP2 DUP2 PUSH2 0x20FE ADD MSTORE PUSH2 0x2441 ADD MSTORE PUSH0 DUP2 DUP2 PUSH2 0xDC4 ADD MSTORE DUP2 DUP2 PUSH2 0xECC ADD MSTORE DUP2 DUP2 PUSH2 0x10B5 ADD MSTORE DUP2 DUP2 PUSH2 0x11E2 ADD MSTORE DUP2 DUP2 PUSH2 0x1812 ADD MSTORE DUP2 DUP2 PUSH2 0x24A9 ADD MSTORE DUP2 DUP2 PUSH2 0x2589 ADD MSTORE PUSH2 0x26B5 ADD MSTORE PUSH2 0x3294 PUSH0 RETURN INVALID PUSH1 0x80 PUSH1 0x40 MSTORE PUSH1 0x4 CALLDATASIZE LT PUSH2 0x1F1 JUMPI PUSH0 CALLDATALOAD PUSH1 0xE0 SHR DUP1 PUSH4 0x82FE54B5 GT PUSH2 0x10C JUMPI DUP1 PUSH4 0xC6ACA33C GT PUSH2 0x9F JUMPI DUP1 PUSH4 0xD9DC8694 GT PUSH2 0x6E JUMPI DUP1 PUSH4 0xD9DC8694 EQ PUSH2 0x6D2 JUMPI DUP1 PUSH4 0xF0E00DC8 EQ PUSH2 0x6FC JUMPI DUP1 PUSH4 0xF2FDE38B EQ PUSH2 0x724 JUMPI DUP1 PUSH4 0xF39B1809 EQ PUSH2 0x74C JUMPI DUP1 PUSH4 0xF7888AEC EQ PUSH2 0x776 JUMPI PUSH2 0x233 JUMP JUMPDEST DUP1 PUSH4 0xC6ACA33C EQ PUSH2 0x62E JUMPI DUP1 PUSH4 0xCB398EB3 EQ PUSH2 0x658 JUMPI DUP1 PUSH4 0xCCD6B020 EQ PUSH2 0x682 JUMPI DUP1 PUSH4 0xD547741F EQ PUSH2 0x6AA JUMPI PUSH2 0x233 JUMP JUMPDEST DUP1 PUSH4 0x931FB90E GT PUSH2 0xDB JUMPI DUP1 PUSH4 0x931FB90E EQ PUSH2 0x588 JUMPI DUP1 PUSH4 0x93295C1C EQ PUSH2 0x5B0 JUMPI DUP1 PUSH4 0x939495BD EQ PUSH2 0x5DA JUMPI DUP1 PUSH4 0xA217FDDF EQ PUSH2 0x604 JUMPI PUSH2 0x233 JUMP JUMPDEST DUP1 PUSH4 0x82FE54B5 EQ PUSH2 0x4D2 JUMPI DUP1 PUSH4 0x8648840A EQ PUSH2 0x4FA JUMPI DUP1 PUSH4 0x8DA5CB5B EQ PUSH2 0x522 JUMPI DUP1 PUSH4 0x91D14854 EQ PUSH2 0x54C JUMPI PUSH2 0x233 JUMP JUMPDEST DUP1 PUSH4 0x3D6DA78E GT PUSH2 0x184 JUMPI DUP1 PUSH4 0x6F05C64C GT PUSH2 0x153 JUMPI DUP1 PUSH4 0x6F05C64C EQ PUSH2 0x440 JUMPI DUP1 PUSH4 0x715018A6 EQ PUSH2 0x46A JUMPI DUP1 PUSH4 0x779BB136 EQ PUSH2 0x480 JUMPI DUP1 PUSH4 0x7DC532C5 EQ PUSH2 0x4AA JUMPI PUSH2 0x233 JUMP JUMPDEST DUP1 PUSH4 0x3D6DA78E EQ PUSH2 0x39C JUMPI DUP1 PUSH4 0x5C975ABB EQ PUSH2 0x3C4 JUMPI DUP1 PUSH4 0x6900670C EQ PUSH2 0x3EE JUMPI DUP1 PUSH4 0x698B7241 EQ PUSH2 0x418 JUMPI PUSH2 0x233 JUMP JUMPDEST DUP1 PUSH4 0x248A9CA3 GT PUSH2 0x1C0 JUMPI DUP1 PUSH4 0x248A9CA3 EQ PUSH2 0x2FA JUMPI DUP1 PUSH4 0x2F2FF15D EQ PUSH2 0x336 JUMPI DUP1 PUSH4 0x36568ABE EQ PUSH2 0x35E JUMPI DUP1 PUSH4 0x38D5C916 EQ PUSH2 0x386 JUMPI PUSH2 0x233 JUMP JUMPDEST DUP1 PUSH4 0x1FFC9A7 EQ PUSH2 0x270 JUMPI DUP1 PUSH4 0x594CC69 EQ PUSH2 0x2AC JUMPI DUP1 PUSH4 0x16A1930F EQ PUSH2 0x2DA JUMPI DUP1 PUSH4 0x1A003ECB EQ PUSH2 0x2E4 JUMPI PUSH2 0x233 JUMP JUMPDEST CALLDATASIZE PUSH2 0x233 JUMPI CALLER PUSH1 0x40 MLOAD PUSH32 0xE1D158FF00000000000000000000000000000000000000000000000000000000 DUP2 MSTORE PUSH1 0x4 ADD PUSH2 0x22A SWAP2 SWAP1 PUSH2 0x2AA8 JUMP JUMPDEST PUSH1 0x40 MLOAD DUP1 SWAP2 SUB SWAP1 REVERT JUMPDEST CALLER PUSH1 0x40 MLOAD PUSH32 0xE1D158FF00000000000000000000000000000000000000000000000000000000 DUP2 MSTORE PUSH1 0x4 ADD PUSH2 0x267 SWAP2 SWAP1 PUSH2 0x2AA8 JUMP JUMPDEST PUSH1 0x40 MLOAD DUP1 SWAP2 SUB SWAP1 REVERT JUMPDEST CALLVALUE DUP1 ISZERO PUSH2 0x27B JUMPI PUSH0 PUSH0 REVERT JUMPDEST POP PUSH2 0x296 PUSH1 0x4 DUP1 CALLDATASIZE SUB DUP2 ADD SWAP1 PUSH2 0x291 SWAP2 SWAP1 PUSH2 0x2B1A JUMP JUMPDEST PUSH2 0x7B2 JUMP JUMPDEST PUSH1 0x40 MLOAD PUSH2 0x2A3 SWAP2 SWAP1 PUSH2 0x2B5F JUMP JUMPDEST PUSH1 0x40 MLOAD DUP1 SWAP2 SUB SWAP1 RETURN JUMPDEST CALLVALUE DUP1 ISZERO PUSH2 0x2B7 JUMPI PUSH0 PUSH0 REVERT JUMPDEST POP PUSH2 0x2C0 PUSH2 0x7C3 JUMP JUMPDEST PUSH1 0x40 MLOAD PUSH2 0x2D1 SWAP6 SWAP5 SWAP4 SWAP3 SWAP2 SWAP1 PUSH2 0x2B90 JUMP JUMPDEST PUSH1 0x40 MLOAD DUP1 SWAP2 SUB SWAP1 RETURN JUMPDEST PUSH2 0x2E2 PUSH2 0x848 JUMP JUMPDEST STOP JUMPDEST CALLVALUE DUP1 ISZERO PUSH2 0x2EF JUMPI PUSH0 PUSH0 REVERT JUMPDEST POP PUSH2 0x2F8 PUSH2 0xA2F JUMP JUMPDEST STOP JUMPDEST CALLVALUE DUP1 ISZERO PUSH2 0x305 JUMPI PUSH0 PUSH0 REVERT JUMPDEST POP PUSH2 0x320 PUSH1 0x4 DUP1 CALLDATASIZE SUB DUP2 ADD SWAP1 PUSH2 0x31B SWAP2 SWAP1 PUSH2 0x2C14 JUMP JUMPDEST PUSH2 0xB3C JUMP JUMPDEST PUSH1 0x40 MLOAD PUSH2 0x32D SWAP2 SWAP1 PUSH2 0x2C4E JUMP JUMPDEST PUSH1 0x40 MLOAD DUP1 SWAP2 SUB SWAP1 RETURN JUMPDEST CALLVALUE DUP1 ISZERO PUSH2 0x341 JUMPI PUSH0 PUSH0 REVERT JUMPDEST POP PUSH2 0x35C PUSH1 0x4 DUP1 CALLDATASIZE SUB DUP2 ADD SWAP1 PUSH2 0x357 SWAP2 SWAP1 PUSH2 0x2C91 JUMP JUMPDEST PUSH2 0xB59 JUMP JUMPDEST STOP JUMPDEST CALLVALUE DUP1 ISZERO PUSH2 0x369 JUMPI PUSH0 PUSH0 REVERT JUMPDEST POP PUSH2 0x384 PUSH1 0x4 DUP1 CALLDATASIZE SUB DUP2 ADD SWAP1 PUSH2 0x37F SWAP2 SWAP1 PUSH2 0x2C91 JUMP JUMPDEST PUSH2 0xB7B JUMP JUMPDEST STOP JUMPDEST CALLVALUE DUP1 ISZERO PUSH2 0x391 JUMPI PUSH0 PUSH0 REVERT JUMPDEST POP PUSH2 0x39A PUSH2 0xBF6 JUMP JUMPDEST STOP JUMPDEST CALLVALUE DUP1 ISZERO PUSH2 0x3A7 JUMPI PUSH0 PUSH0 REVERT JUMPDEST POP PUSH2 0x3C2 PUSH1 0x4 DUP1 CALLDATASIZE SUB DUP2 ADD SWAP1 PUSH2 0x3BD SWAP2 SWAP1 PUSH2 0x2CF9 JUMP JUMPDEST PUSH2 0xD03 JUMP JUMPDEST STOP JUMPDEST CALLVALUE DUP1 ISZERO PUSH2 0x3CF JUMPI PUSH0 PUSH0 REVERT JUMPDEST POP PUSH2 0x3D8 PUSH2 0xEB0 JUMP JUMPDEST PUSH1 0x40 MLOAD PUSH2 0x3E5 SWAP2 SWAP1 PUSH2 0x2B5F JUMP JUMPDEST PUSH1 0x40 MLOAD DUP1 SWAP2 SUB SWAP1 RETURN JUMPDEST CALLVALUE DUP1 ISZERO PUSH2 0x3F9 JUMPI PUSH0 PUSH0 REVERT JUMPDEST POP PUSH2 0x402 PUSH2 0xEC6 JUMP JUMPDEST PUSH1 0x40 MLOAD PUSH2 0x40F SWAP2 SWAP1 PUSH2 0x2D24 JUMP JUMPDEST PUSH1 0x40 MLOAD DUP1 SWAP2 SUB SWAP1 RETURN JUMPDEST CALLVALUE DUP1 ISZERO PUSH2 0x423 JUMPI PUSH0 PUSH0 REVERT JUMPDEST POP PUSH2 0x43E PUSH1 0x4 DUP1 CALLDATASIZE SUB DUP2 ADD SWAP1 PUSH2 0x439 SWAP2 SWAP1 PUSH2 0x2CF9 JUMP JUMPDEST PUSH2 0xFF0 JUMP JUMPDEST STOP JUMPDEST CALLVALUE DUP1 ISZERO PUSH2 0x44B JUMPI PUSH0 PUSH0 REVERT JUMPDEST POP PUSH2 0x454 PUSH2 0x122B JUMP JUMPDEST PUSH1 0x40 MLOAD PUSH2 0x461 SWAP2 SWAP1 PUSH2 0x2D98 JUMP JUMPDEST PUSH1 0x40 MLOAD DUP1 SWAP2 SUB SWAP1 RETURN JUMPDEST CALLVALUE DUP1 ISZERO PUSH2 0x475 JUMPI PUSH0 PUSH0 REVERT JUMPDEST POP PUSH2 0x47E PUSH2 0x1250 JUMP JUMPDEST STOP JUMPDEST CALLVALUE DUP1 ISZERO PUSH2 0x48B JUMPI PUSH0 PUSH0 REVERT JUMPDEST POP PUSH2 0x494 PUSH2 0x1263 JUMP JUMPDEST PUSH1 0x40 MLOAD PUSH2 0x4A1 SWAP2 SWAP1 PUSH2 0x2D24 JUMP JUMPDEST PUSH1 0x40 MLOAD DUP1 SWAP2 SUB SWAP1 RETURN JUMPDEST CALLVALUE DUP1 ISZERO PUSH2 0x4B5 JUMPI PUSH0 PUSH0 REVERT JUMPDEST POP PUSH2 0x4D0 PUSH1 0x4 DUP1 CALLDATASIZE SUB DUP2 ADD SWAP1 PUSH2 0x4CB SWAP2 SWAP1 PUSH2 0x2DB1 JUMP JUMPDEST PUSH2 0x12E2 JUMP JUMPDEST STOP JUMPDEST CALLVALUE DUP1 ISZERO PUSH2 0x4DD JUMPI PUSH0 PUSH0 REVERT JUMPDEST POP PUSH2 0x4F8 PUSH1 0x4 DUP1 CALLDATASIZE SUB DUP2 ADD SWAP1 PUSH2 0x4F3 SWAP2 SWAP1 PUSH2 0x2CF9 JUMP JUMPDEST PUSH2 0x1607 JUMP JUMPDEST STOP JUMPDEST CALLVALUE DUP1 ISZERO PUSH2 0x505 JUMPI PUSH0 PUSH0 REVERT JUMPDEST POP PUSH2 0x520 PUSH1 0x4 DUP1 CALLDATASIZE SUB DUP2 ADD SWAP1 PUSH2 0x51B SWAP2 SWAP1 PUSH2 0x2DB1 JUMP JUMPDEST PUSH2 0x161B JUMP JUMPDEST STOP JUMPDEST CALLVALUE DUP1 ISZERO PUSH2 0x52D JUMPI PUSH0 PUSH0 REVERT JUMPDEST POP PUSH2 0x536 PUSH2 0x1763 JUMP JUMPDEST PUSH1 0x40 MLOAD PUSH2 0x543 SWAP2 SWAP1 PUSH2 0x2AA8 JUMP JUMPDEST PUSH1 0x40 MLOAD DUP1 SWAP2 SUB SWAP1 RETURN JUMPDEST CALLVALUE DUP1 ISZERO PUSH2 0x557 JUMPI PUSH0 PUSH0 REVERT JUMPDEST POP PUSH2 0x572 PUSH1 0x4 DUP1 CALLDATASIZE SUB DUP2 ADD SWAP1 PUSH2 0x56D SWAP2 SWAP1 PUSH2 0x2C91 JUMP JUMPDEST PUSH2 0x178B JUMP JUMPDEST PUSH1 0x40 MLOAD PUSH2 0x57F SWAP2 SWAP1 PUSH2 0x2B5F JUMP JUMPDEST PUSH1 0x40 MLOAD DUP1 SWAP2 SUB SWAP1 RETURN JUMPDEST CALLVALUE DUP1 ISZERO PUSH2 0x593 JUMPI PUSH0 PUSH0 REVERT JUMPDEST POP PUSH2 0x5AE PUSH1 0x4 DUP1 CALLDATASIZE SUB DUP2 ADD SWAP1 PUSH2 0x5A9 SWAP2 SWAP1 PUSH2 0x2CF9 JUMP JUMPDEST PUSH2 0x17EF JUMP JUMPDEST STOP JUMPDEST CALLVALUE DUP1 ISZERO PUSH2 0x5BB JUMPI PUSH0 PUSH0 REVERT JUMPDEST POP PUSH2 0x5C4 PUSH2 0x1803 JUMP JUMPDEST PUSH1 0x40 MLOAD PUSH2 0x5D1 SWAP2 SWAP1 PUSH2 0x2D24 JUMP JUMPDEST PUSH1 0x40 MLOAD DUP1 SWAP2 SUB SWAP1 RETURN JUMPDEST CALLVALUE DUP1 ISZERO PUSH2 0x5E5 JUMPI PUSH0 PUSH0 REVERT JUMPDEST POP PUSH2 0x5EE PUSH2 0x180C JUMP JUMPDEST PUSH1 0x40 MLOAD PUSH2 0x5FB SWAP2 SWAP1 PUSH2 0x2D24 JUMP JUMPDEST PUSH1 0x40 MLOAD DUP1 SWAP2 SUB SWAP1 RETURN JUMPDEST CALLVALUE DUP1 ISZERO PUSH2 0x60F JUMPI PUSH0 PUSH0 REVERT JUMPDEST POP PUSH2 0x618 PUSH2 0x18AB JUMP JUMPDEST PUSH1 0x40 MLOAD PUSH2 0x625 SWAP2 SWAP1 PUSH2 0x2C4E JUMP JUMPDEST PUSH1 0x40 MLOAD DUP1 SWAP2 SUB SWAP1 RETURN JUMPDEST CALLVALUE DUP1 ISZERO PUSH2 0x639 JUMPI PUSH0 PUSH0 REVERT JUMPDEST POP PUSH2 0x642 PUSH2 0x18B1 JUMP JUMPDEST PUSH1 0x40 MLOAD PUSH2 0x64F SWAP2 SWAP1 PUSH2 0x2D24 JUMP JUMPDEST PUSH1 0x40 MLOAD DUP1 SWAP2 SUB SWAP1 RETURN JUMPDEST CALLVALUE DUP1 ISZERO PUSH2 0x663 JUMPI PUSH0 PUSH0 REVERT JUMPDEST POP PUSH2 0x66C PUSH2 0x18BA JUMP JUMPDEST PUSH1 0x40 MLOAD PUSH2 0x679 SWAP2 SWAP1 PUSH2 0x2C4E JUMP JUMPDEST PUSH1 0x40 MLOAD DUP1 SWAP2 SUB SWAP1 RETURN JUMPDEST CALLVALUE DUP1 ISZERO PUSH2 0x68D JUMPI PUSH0 PUSH0 REVERT JUMPDEST POP PUSH2 0x6A8 PUSH1 0x4 DUP1 CALLDATASIZE SUB DUP2 ADD SWAP1 PUSH2 0x6A3 SWAP2 SWAP1 PUSH2 0x2DDC JUMP JUMPDEST PUSH2 0x18DE JUMP JUMPDEST STOP JUMPDEST CALLVALUE DUP1 ISZERO PUSH2 0x6B5 JUMPI PUSH0 PUSH0 REVERT JUMPDEST POP PUSH2 0x6D0 PUSH1 0x4 DUP1 CALLDATASIZE SUB DUP2 ADD SWAP1 PUSH2 0x6CB SWAP2 SWAP1 PUSH2 0x2C91 JUMP JUMPDEST PUSH2 0x1942 JUMP JUMPDEST STOP JUMPDEST CALLVALUE DUP1 ISZERO PUSH2 0x6DD JUMPI PUSH0 PUSH0 REVERT JUMPDEST POP PUSH2 0x6E6 PUSH2 0x1964 JUMP JUMPDEST PUSH1 0x40 MLOAD PUSH2 0x6F3 SWAP2 SWAP1 PUSH2 0x2C4E JUMP JUMPDEST PUSH1 0x40 MLOAD DUP1 SWAP2 SUB SWAP1 RETURN JUMPDEST CALLVALUE DUP1 ISZERO PUSH2 0x707 JUMPI PUSH0 PUSH0 REVERT JUMPDEST POP PUSH2 0x722 PUSH1 0x4 DUP1 CALLDATASIZE SUB DUP2 ADD SWAP1 PUSH2 0x71D SWAP2 SWAP1 PUSH2 0x2DDC JUMP JUMPDEST PUSH2 0x1988 JUMP JUMPDEST STOP JUMPDEST CALLVALUE DUP1 ISZERO PUSH2 0x72F JUMPI PUSH0 PUSH0 REVERT JUMPDEST POP PUSH2 0x74A PUSH1 0x4 DUP1 CALLDATASIZE SUB DUP2 ADD SWAP1 PUSH2 0x745 SWAP2 SWAP1 PUSH2 0x2DB1 JUMP JUMPDEST PUSH2 0x19EC JUMP JUMPDEST STOP JUMPDEST CALLVALUE DUP1 ISZERO PUSH2 0x757 JUMPI PUSH0 PUSH0 REVERT JUMPDEST POP PUSH2 0x760 PUSH2 0x1A70 JUMP JUMPDEST PUSH1 0x40 MLOAD PUSH2 0x76D SWAP2 SWAP1 PUSH2 0x2D24 JUMP JUMPDEST PUSH1 0x40 MLOAD DUP1 SWAP2 SUB SWAP1 RETURN JUMPDEST CALLVALUE DUP1 ISZERO PUSH2 0x781 JUMPI PUSH0 PUSH0 REVERT JUMPDEST POP PUSH2 0x79C PUSH1 0x4 DUP1 CALLDATASIZE SUB DUP2 ADD SWAP1 PUSH2 0x797 SWAP2 SWAP1 PUSH2 0x2E1A JUMP JUMPDEST PUSH2 0x1A79 JUMP JUMPDEST PUSH1 0x40 MLOAD PUSH2 0x7A9 SWAP2 SWAP1 PUSH2 0x2D24 JUMP JUMPDEST PUSH1 0x40 MLOAD DUP1 SWAP2 SUB SWAP1 RETURN JUMPDEST PUSH0 PUSH2 0x7BC DUP3 PUSH2 0x1AFB JUMP JUMPDEST SWAP1 POP SWAP2 SWAP1 POP JUMP JUMPDEST PUSH0 PUSH0 PUSH0 PUSH0 PUSH0 PUSH2 0x7D0 PUSH2 0xEB0 JUMP JUMPDEST PUSH1 0x6 SLOAD PUSH32 0x0 PUSH32 0x0 PUSH1 0x3 PUSH0 SWAP1 SLOAD SWAP1 PUSH2 0x100 EXP SWAP1 DIV PUSH20 0xFFFFFFFFFFFFFFFFFFFFFFFFFFFFFFFFFFFFFFFF AND SWAP5 POP SWAP5 POP SWAP5 POP SWAP5 POP SWAP5 POP SWAP1 SWAP2 SWAP3 SWAP4 SWAP5 JUMP JUMPDEST CALLVALUE PUSH0 PUSH2 0x853 DUP3 PUSH2 0x1B74 JUMP JUMPDEST SWAP1 POP PUSH0 DUP2 SUB PUSH2 0x899 JUMPI CALLER PUSH1 0x40 MLOAD PUSH32 0xB2F0923100000000000000000000000000000000000000000000000000000000 DUP2 MSTORE PUSH1 0x4 ADD PUSH2 0x890 SWAP2 SWAP1 PUSH2 0x2AA8 JUMP JUMPDEST PUSH1 0x40 MLOAD DUP1 SWAP2 SUB SWAP1 REVERT JUMPDEST PUSH32 0x0 PUSH1 0x6 SLOAD DUP3 PUSH2 0x8C8 SWAP2 SWAP1 PUSH2 0x2E85 JUMP JUMPDEST GT ISZERO PUSH2 0x90B JUMPI DUP1 PUSH1 0x40 MLOAD PUSH32 0x2900B02C00000000000000000000000000000000000000000000000000000000 DUP2 MSTORE PUSH1 0x4 ADD PUSH2 0x902 SWAP2 SWAP1 PUSH2 0x2D24 JUMP JUMPDEST PUSH1 0x40 MLOAD DUP1 SWAP2 SUB SWAP1 REVERT JUMPDEST PUSH2 0x913 PUSH2 0x1BA3 JUMP JUMPDEST PUSH0 PUSH2 0x91D CALLVALUE PUSH2 0x1B74 JUMP JUMPDEST SWAP1 POP CALLVALUE PUSH1 0x7 PUSH0 PUSH0 PUSH20 0xFFFFFFFFFFFFFFFFFFFFFFFFFFFFFFFFFFFFFFFF AND PUSH20 0xFFFFFFFFFFFFFFFFFFFFFFFFFFFFFFFFFFFFFFFF AND DUP2 MSTORE PUSH1 0x20 ADD SWAP1 DUP2 MSTORE PUSH1 0x20 ADD PUSH0 KECCAK256 PUSH0 CALLER PUSH20 0xFFFFFFFFFFFFFFFFFFFFFFFFFFFFFFFFFFFFFFFF AND PUSH20 0xFFFFFFFFFFFFFFFFFFFFFFFFFFFFFFFFFFFFFFFF AND DUP2 MSTORE PUSH1 0x20 ADD SWAP1 DUP2 MSTORE PUSH1 0x20 ADD PUSH0 KECCAK256 PUSH0 DUP3 DUP3 SLOAD PUSH2 0x9A6 SWAP2 SWAP1 PUSH2 0x2E85 JUMP JUMPDEST SWAP3 POP POP DUP2 SWAP1 SSTORE POP PUSH1 0x4 PUSH0 DUP2 SLOAD DUP1 SWAP3 SWAP2 SWAP1 PUSH2 0x9BF SWAP1 PUSH2 0x2EB8 JUMP JUMPDEST SWAP2 SWAP1 POP SSTORE POP DUP1 PUSH1 0x6 PUSH0 DUP3 DUP3 SLOAD PUSH2 0x9D5 SWAP2 SWAP1 PUSH2 0x2E85 JUMP JUMPDEST SWAP3 POP POP DUP2 SWAP1 SSTORE POP CALLER PUSH20 0xFFFFFFFFFFFFFFFFFFFFFFFFFFFFFFFFFFFFFFFF AND PUSH32 0x9D15693852BF60DC27BD5AA831D0351359B7D01D428AE1BAAE11F15CBCFEBAFD DUP3 PUSH1 0x40 MLOAD PUSH2 0xA22 SWAP2 SWAP1 PUSH2 0x2D24 JUMP JUMPDEST PUSH1 0x40 MLOAD DUP1 SWAP2 SUB SWAP1 LOG2 POP POP POP JUMP JUMPDEST PUSH32 0x539440820030C4994DB4E31B6B800DEAFD503688728F932ADDFE7A410515C14C CALLER PUSH20 0xFFFFFFFFFFFFFFFFFFFFFFFFFFFFFFFFFFFFFFFF AND PUSH2 0xA6F PUSH2 0x1763 JUMP JUMPDEST PUSH20 0xFFFFFFFFFFFFFFFFFFFFFFFFFFFFFFFFFFFFFFFF AND EQ ISZERO DUP1 PUSH2 0xA99 JUMPI POP PUSH2 0xA97 DUP2 CALLER PUSH2 0x178B JUMP JUMPDEST ISZERO JUMPDEST ISZERO PUSH2 0xADB JUMPI CALLER PUSH1 0x40 MLOAD PUSH32 0x6286EAA00000000000000000000000000000000000000000000000000000000 DUP2 MSTORE PUSH1 0x4 ADD PUSH2 0xAD2 SWAP2 SWAP1 PUSH2 0x2AA8 JUMP JUMPDEST PUSH1 0x40 MLOAD DUP1 SWAP2 SUB SWAP1 REVERT JUMPDEST PUSH2 0xAE3 PUSH2 0x1BA3 JUMP JUMPDEST PUSH2 0xAEB PUSH2 0x1BE4 JUMP JUMPDEST CALLER PUSH20 0xFFFFFFFFFFFFFFFFFFFFFFFFFFFFFFFFFFFFFFFF AND PUSH32 0x65AB6ADC87722A7ACD973FFED16CBA7CFDF07B5329157A7192434753BA9DAC13 TIMESTAMP PUSH1 0x40 MLOAD PUSH2 0xB31 SWAP2 SWAP1 PUSH2 0x2D24 JUMP JUMPDEST PUSH1 0x40 MLOAD DUP1 SWAP2 SUB SWAP1 LOG2 POP JUMP JUMPDEST PUSH0 PUSH1 0x2 PUSH0 DUP4 DUP2 MSTORE PUSH1 0x20 ADD SWAP1 DUP2 MSTORE PUSH1 0x20 ADD PUSH0 KECCAK256 PUSH1 0x1 ADD SLOAD SWAP1 POP SWAP2 SWAP1 POP JUMP JUMPDEST PUSH2 0xB62 DUP3 PUSH2 0xB3C JUMP JUMPDEST PUSH2 0xB6B DUP2 PUSH2 0x1C46 JUMP JUMPDEST PUSH2 0xB75 DUP4 DUP4 PUSH2 0x1C5A JUMP JUMPDEST POP POP POP POP JUMP JUMPDEST PUSH2 0xB83 PUSH2 0x1D44 JUMP JUMPDEST PUSH20 0xFFFFFFFFFFFFFFFFFFFFFFFFFFFFFFFFFFFFFFFF AND DUP2 PUSH20 0xFFFFFFFFFFFFFFFFFFFFFFFFFFFFFFFFFFFFFFFF AND EQ PUSH2 0xBE7 JUMPI PUSH1 0x40 MLOAD PUSH32 0x6697B23200000000000000000000000000000000000000000000000000000000 DUP2 MSTORE PUSH1 0x4 ADD PUSH1 0x40 MLOAD DUP1 SWAP2 SUB SWAP1 REVERT JUMPDEST PUSH2 0xBF1 DUP3 DUP3 PUSH2 0x1D4B JUMP JUMPDEST POP POP POP JUMP JUMPDEST PUSH32 0x539440820030C4994DB4E31B6B800DEAFD503688728F932ADDFE7A410515C14C CALLER PUSH20 0xFFFFFFFFFFFFFFFFFFFFFFFFFFFFFFFFFFFFFFFF AND PUSH2 0xC36 PUSH2 0x1763 JUMP JUMPDEST PUSH20 0xFFFFFFFFFFFFFFFFFFFFFFFFFFFFFFFFFFFFFFFF AND EQ ISZERO DUP1 PUSH2 0xC60 JUMPI POP PUSH2 0xC5E DUP2 CALLER PUSH2 0x178B JUMP JUMPDEST ISZERO JUMPDEST ISZERO PUSH2 0xCA2 JUMPI CALLER PUSH1 0x40 MLOAD PUSH32 0x6286EAA00000000000000000000000000000000000000000000000000000000 DUP2 MSTORE PUSH1 0x4 ADD PUSH2 0xC99 SWAP2 SWAP1 PUSH2 0x2AA8 JUMP JUMPDEST PUSH1 0x40 MLOAD DUP1 SWAP2 SUB SWAP1 REVERT JUMPDEST PUSH2 0xCAA PUSH2 0x1E35 JUMP JUMPDEST PUSH2 0xCB2 PUSH2 0x1E75 JUMP JUMPDEST CALLER PUSH20 0xFFFFFFFFFFFFFFFFFFFFFFFFFFFFFFFFFFFFFFFF AND PUSH32 0x8AF9CF236F4B3AFB8D03262D5BEF5D95DB4DA02AA57892CD6474E8097F4F2B7 TIMESTAMP PUSH1 0x40 MLOAD PUSH2 0xCF8 SWAP2 SWAP1 PUSH2 0x2D24 JUMP JUMPDEST PUSH1 0x40 MLOAD DUP1 SWAP2 SUB SWAP1 LOG2 POP JUMP JUMPDEST DUP1 PUSH0 DUP2 SUB PUSH2 0xD48 JUMPI CALLER PUSH1 0x40 MLOAD PUSH32 0xB2F0923100000000000000000000000000000000000000000000000000000000 DUP2 MSTORE PUSH1 0x4 ADD PUSH2 0xD3F SWAP2 SWAP1 PUSH2 0x2AA8 JUMP JUMPDEST PUSH1 0x40 MLOAD DUP1 SWAP2 SUB SWAP1 REVERT JUMPDEST PUSH32 0x0 PUSH1 0x6 SLOAD DUP3 PUSH2 0xD77 SWAP2 SWAP1 PUSH2 0x2E85 JUMP JUMPDEST GT ISZERO PUSH2 0xDBA JUMPI DUP1 PUSH1 0x40 MLOAD PUSH32 0x2900B02C00000000000000000000000000000000000000000000000000000000 DUP2 MSTORE PUSH1 0x4 ADD PUSH2 0xDB1 SWAP2 SWAP1 PUSH2 0x2D24 JUMP JUMPDEST PUSH1 0x40 MLOAD DUP1 SWAP2 SUB SWAP1 REVERT JUMPDEST PUSH2 0xDC2 PUSH2 0x1BA3 JUMP JUMPDEST PUSH32 0x0 PUSH20 0xFFFFFFFFFFFFFFFFFFFFFFFFFFFFFFFFFFFFFFFF AND PUSH4 0x95EA7B3 CALLER DUP5 PUSH1 0x40 MLOAD DUP4 PUSH4 0xFFFFFFFF AND PUSH1 0xE0 SHL DUP2 MSTORE PUSH1 0x4 ADD PUSH2 0xE1D SWAP3 SWAP2 SWAP1 PUSH2 0x2EFF JUMP JUMPDEST PUSH1 0x20 PUSH1 0x40 MLOAD DUP1 DUP4 SUB DUP2 PUSH0 DUP8 GAS CALL ISZERO DUP1 ISZERO PUSH2 0xE39 JUMPI RETURNDATASIZE PUSH0 PUSH0 RETURNDATACOPY RETURNDATASIZE PUSH0 REVERT JUMPDEST POP POP POP POP PUSH1 0x40 MLOAD RETURNDATASIZE PUSH1 0x1F NOT PUSH1 0x1F DUP3 ADD AND DUP3 ADD DUP1 PUSH1 0x40 MSTORE POP DUP2 ADD SWAP1 PUSH2 0xE5D SWAP2 SWAP1 PUSH2 0x2F50 JUMP JUMPDEST POP CALLER PUSH20 0xFFFFFFFFFFFFFFFFFFFFFFFFFFFFFFFFFFFFFFFF AND PUSH32 0x3745E4A117764B16DDEF1B44D7CE39FC18CADE55AD54851763BCADB295FDE9A8 DUP4 PUSH1 0x40 MLOAD PUSH2 0xEA4 SWAP2 SWAP1 PUSH2 0x2D24 JUMP JUMPDEST PUSH1 0x40 MLOAD DUP1 SWAP2 SUB SWAP1 LOG2 POP POP JUMP JUMPDEST PUSH0 PUSH1 0x1 PUSH1 0x14 SWAP1 SLOAD SWAP1 PUSH2 0x100 EXP SWAP1 DIV PUSH1 0xFF AND SWAP1 POP SWAP1 JUMP JUMPDEST PUSH0 PUSH1 0x7 PUSH0 PUSH32 0x0 PUSH20 0xFFFFFFFFFFFFFFFFFFFFFFFFFFFFFFFFFFFFFFFF AND PUSH20 0xFFFFFFFFFFFFFFFFFFFFFFFFFFFFFFFFFFFFFFFF AND DUP2 MSTORE PUSH1 0x20 ADD SWAP1 DUP2 MSTORE PUSH1 0x20 ADD PUSH0 KECCAK256 PUSH0 CALLER PUSH20 0xFFFFFFFFFFFFFFFFFFFFFFFFFFFFFFFFFFFFFFFF AND PUSH20 0xFFFFFFFFFFFFFFFFFFFFFFFFFFFFFFFFFFFFFFFF AND DUP2 MSTORE PUSH1 0x20 ADD SWAP1 DUP2 MSTORE PUSH1 0x20 ADD PUSH0 KECCAK256 SLOAD PUSH2 0xFE1 PUSH1 0x7 PUSH0 PUSH0 PUSH20 0xFFFFFFFFFFFFFFFFFFFFFFFFFFFFFFFFFFFFFFFF AND PUSH20 0xFFFFFFFFFFFFFFFFFFFFFFFFFFFFFFFFFFFFFFFF AND DUP2 MSTORE PUSH1 0x20 ADD SWAP1 DUP2 MSTORE PUSH1 0x20 ADD PUSH0 KECCAK256 PUSH0 CALLER PUSH20 0xFFFFFFFFFFFFFFFFFFFFFFFFFFFFFFFFFFFFFFFF AND PUSH20 0xFFFFFFFFFFFFFFFFFFFFFFFFFFFFFFFFFFFFFFFF AND DUP2 MSTORE PUSH1 0x20 ADD SWAP1 DUP2 MSTORE PUSH1 0x20 ADD PUSH0 KECCAK256 SLOAD PUSH2 0x1B74 JUMP JUMPDEST PUSH2 0xFEB SWAP2 SWAP1 PUSH2 0x2E85 JUMP JUMPDEST SWAP1 POP SWAP1 JUMP JUMPDEST DUP1 PUSH0 DUP2 SUB PUSH2 0x1035 JUMPI CALLER PUSH1 0x40 MLOAD PUSH32 0xB2F0923100000000000000000000000000000000000000000000000000000000 DUP2 MSTORE PUSH1 0x4 ADD PUSH2 0x102C SWAP2 SWAP1 PUSH2 0x2AA8 JUMP JUMPDEST PUSH1 0x40 MLOAD DUP1 SWAP2 SUB SWAP1 REVERT JUMPDEST PUSH32 0x0 PUSH1 0x6 SLOAD DUP3 PUSH2 0x1064 SWAP2 SWAP1 PUSH2 0x2E85 JUMP JUMPDEST GT ISZERO PUSH2 0x10A7 JUMPI DUP1 PUSH1 0x40 MLOAD PUSH32 0x2900B02C00000000000000000000000000000000000000000000000000000000 DUP2 MSTORE PUSH1 0x4 ADD PUSH2 0x109E SWAP2 SWAP1 PUSH2 0x2D24 JUMP JUMPDEST PUSH1 0x40 MLOAD DUP1 SWAP2 SUB SWAP1 REVERT JUMPDEST PUSH2 0x10AF PUSH2 0x1BA3 JUMP JUMPDEST DUP2 PUSH1 0x7 PUSH0 PUSH32 0x0 PUSH20 0xFFFFFFFFFFFFFFFFFFFFFFFFFFFFFFFFFFFFFFFF AND PUSH20 0xFFFFFFFFFFFFFFFFFFFFFFFFFFFFFFFFFFFFFFFF AND DUP2 MSTORE PUSH1 0x20 ADD SWAP1 DUP2 MSTORE PUSH1 0x20 ADD PUSH0 KECCAK256 PUSH0 CALLER PUSH20 0xFFFFFFFFFFFFFFFFFFFFFFFFFFFFFFFFFFFFFFFF AND PUSH20 0xFFFFFFFFFFFFFFFFFFFFFFFFFFFFFFFFFFFFFFFF AND DUP2 MSTORE PUSH1 0x20 ADD SWAP1 DUP2 MSTORE PUSH1 0x20 ADD PUSH0 KECCAK256 PUSH0 DUP3 DUP3 SLOAD PUSH2 0x1156 SWAP2 SWAP1 PUSH2 0x2E85 JUMP JUMPDEST SWAP3 POP POP DUP2 SWAP1 SSTORE POP PUSH1 0x4 PUSH0 DUP2 SLOAD DUP1 SWAP3 SWAP2 SWAP1 PUSH2 0x116F SWAP1 PUSH2 0x2EB8 JUMP JUMPDEST SWAP2 SWAP1 POP SSTORE POP DUP2 PUSH1 0x6 PUSH0 DUP3 DUP3 SLOAD PUSH2 0x1185 SWAP2 SWAP1 PUSH2 0x2E85 JUMP JUMPDEST SWAP3 POP POP DUP2 SWAP1 SSTORE POP CALLER PUSH20 0xFFFFFFFFFFFFFFFFFFFFFFFFFFFFFFFFFFFFFFFF AND PUSH32 0x9D15693852BF60DC27BD5AA831D0351359B7D01D428AE1BAAE11F15CBCFEBAFD DUP4 PUSH1 0x40 MLOAD PUSH2 0x11D2 SWAP2 SWAP1 PUSH2 0x2D24 JUMP JUMPDEST PUSH1 0x40 MLOAD DUP1 SWAP2 SUB SWAP1 LOG2 PUSH2 0x1227 CALLER ADDRESS DUP5 PUSH32 0x0 PUSH20 0xFFFFFFFFFFFFFFFFFFFFFFFFFFFFFFFFFFFFFFFF AND PUSH2 0x1ED7 SWAP1 SWAP4 SWAP3 SWAP2 SWAP1 PUSH4 0xFFFFFFFF AND JUMP JUMPDEST POP POP JUMP JUMPDEST PUSH1 0x3 PUSH0 SWAP1 SLOAD SWAP1 PUSH2 0x100 EXP SWAP1 DIV PUSH20 0xFFFFFFFFFFFFFFFFFFFFFFFFFFFFFFFFFFFFFFFF AND DUP2 JUMP JUMPDEST PUSH2 0x1258 PUSH2 0x1F59 JUMP JUMPDEST PUSH2 0x1261 PUSH0 PUSH2 0x1FE0 JUMP JUMPDEST JUMP JUMPDEST PUSH0 PUSH1 0x7 PUSH0 PUSH0 PUSH20 0xFFFFFFFFFFFFFFFFFFFFFFFFFFFFFFFFFFFFFFFF AND PUSH20 0xFFFFFFFFFFFFFFFFFFFFFFFFFFFFFFFFFFFFFFFF AND DUP2 MSTORE PUSH1 0x20 ADD SWAP1 DUP2 MSTORE PUSH1 0x20 ADD PUSH0 KECCAK256 PUSH0 CALLER PUSH20 0xFFFFFFFFFFFFFFFFFFFFFFFFFFFFFFFFFFFFFFFF AND PUSH20 0xFFFFFFFFFFFFFFFFFFFFFFFFFFFFFFFFFFFFFFFF AND DUP2 MSTORE PUSH1 0x20 ADD SWAP1 DUP2 MSTORE PUSH1 0x20 ADD PUSH0 KECCAK256 SLOAD SWAP1 POP SWAP1 JUMP JUMPDEST PUSH32 0x9BBB3EE3BDFBE971682B08854A620CA4BF696F8E0C269E5C5B129A18E64D29DF CALLER PUSH20 0xFFFFFFFFFFFFFFFFFFFFFFFFFFFFFFFFFFFFFFFF AND PUSH2 0x1322 PUSH2 0x1763 JUMP JUMPDEST PUSH20 0xFFFFFFFFFFFFFFFFFFFFFFFFFFFFFFFFFFFFFFFF AND EQ ISZERO DUP1 PUSH2 0x134C JUMPI POP PUSH2 0x134A DUP2 CALLER PUSH2 0x178B JUMP JUMPDEST ISZERO JUMPDEST ISZERO PUSH2 0x138E JUMPI CALLER PUSH1 0x40 MLOAD PUSH32 0x6286EAA00000000000000000000000000000000000000000000000000000000 DUP2 MSTORE PUSH1 0x4 ADD PUSH2 0x1385 SWAP2 SWAP1 PUSH2 0x2AA8 JUMP JUMPDEST PUSH1 0x40 MLOAD DUP1 SWAP2 SUB SWAP1 REVERT JUMPDEST PUSH2 0x1396 PUSH2 0x1E35 JUMP JUMPDEST PUSH0 PUSH20 0xFFFFFFFFFFFFFFFFFFFFFFFFFFFFFFFFFFFFFFFF AND DUP3 PUSH20 0xFFFFFFFFFFFFFFFFFFFFFFFFFFFFFFFFFFFFFFFF AND SUB PUSH2 0x13FB JUMPI PUSH1 0x40 MLOAD PUSH32 0x463858D600000000000000000000000000000000000000000000000000000000 DUP2 MSTORE PUSH1 0x4 ADD PUSH1 0x40 MLOAD DUP1 SWAP2 SUB SWAP1 REVERT JUMPDEST DUP2 PUSH20 0xFFFFFFFFFFFFFFFFFFFFFFFFFFFFFFFFFFFFFFFF AND PUSH4 0xFEAF968C PUSH1 0x40 MLOAD DUP2 PUSH4 0xFFFFFFFF AND PUSH1 0xE0 SHL DUP2 MSTORE PUSH1 0x4 ADD PUSH1 0xA0 PUSH1 0x40 MLOAD DUP1 DUP4 SUB DUP2 DUP7 GAS STATICCALL SWAP3 POP POP POP DUP1 ISZERO PUSH2 0x1463 JUMPI POP PUSH1 0x40 MLOAD RETURNDATASIZE PUSH1 0x1F NOT PUSH1 0x1F DUP3 ADD AND DUP3 ADD DUP1 PUSH1 0x40 MSTORE POP DUP2 ADD SWAP1 PUSH2 0x1460 SWAP2 SWAP1 PUSH2 0x3001 JUMP JUMPDEST PUSH1 0x1 JUMPDEST PUSH2 0x14A4 JUMPI DUP2 PUSH1 0x40 MLOAD PUSH32 0x59EEA31500000000000000000000000000000000000000000000000000000000 DUP2 MSTORE PUSH1 0x4 ADD PUSH2 0x149B SWAP2 SWAP1 PUSH2 0x2AA8 JUMP JUMPDEST PUSH1 0x40 MLOAD DUP1 SWAP2 SUB SWAP1 REVERT JUMPDEST PUSH0 DUP5 SGT PUSH2 0x14E8 JUMPI DUP7 PUSH1 0x40 MLOAD PUSH32 0x59EEA31500000000000000000000000000000000000000000000000000000000 DUP2 MSTORE PUSH1 0x4 ADD PUSH2 0x14DF SWAP2 SWAP1 PUSH2 0x2AA8 JUMP JUMPDEST PUSH1 0x40 MLOAD DUP1 SWAP2 SUB SWAP1 REVERT JUMPDEST PUSH2 0xE10 PUSH2 0xFFFF AND DUP3 TIMESTAMP PUSH2 0x14FB SWAP2 SWAP1 PUSH2 0x3078 JUMP JUMPDEST GT ISZERO PUSH2 0x153E JUMPI DUP4 PUSH1 0x40 MLOAD PUSH32 0x2609A26500000000000000000000000000000000000000000000000000000000 DUP2 MSTORE PUSH1 0x4 ADD PUSH2 0x1535 SWAP2 SWAP1 PUSH2 0x2D24 JUMP JUMPDEST PUSH1 0x40 MLOAD DUP1 SWAP2 SUB SWAP1 REVERT JUMPDEST PUSH0 PUSH1 0x3 PUSH0 SWAP1 SLOAD SWAP1 PUSH2 0x100 EXP SWAP1 DIV PUSH20 0xFFFFFFFFFFFFFFFFFFFFFFFFFFFFFFFFFFFFFFFF AND SWAP1 POP DUP8 PUSH1 0x3 PUSH0 PUSH2 0x100 EXP DUP2 SLOAD DUP2 PUSH20 0xFFFFFFFFFFFFFFFFFFFFFFFFFFFFFFFFFFFFFFFF MUL NOT AND SWAP1 DUP4 PUSH20 0xFFFFFFFFFFFFFFFFFFFFFFFFFFFFFFFFFFFFFFFF AND MUL OR SWAP1 SSTORE POP DUP8 PUSH20 0xFFFFFFFFFFFFFFFFFFFFFFFFFFFFFFFFFFFFFFFF AND DUP2 PUSH20 0xFFFFFFFFFFFFFFFFFFFFFFFFFFFFFFFFFFFFFFFF AND PUSH32 0x3028D95BD98A5EC8C81B55C2B61E734DDE89BB773697B429BD195FD00582B30 PUSH1 0x40 MLOAD PUSH1 0x40 MLOAD DUP1 SWAP2 SUB SWAP1 LOG3 POP POP POP POP POP POP POP POP JUMP JUMPDEST PUSH2 0x160F PUSH2 0x1BA3 JUMP JUMPDEST PUSH2 0x1618 DUP2 PUSH2 0x20A3 JUMP JUMPDEST POP JUMP JUMPDEST PUSH2 0x1623 PUSH2 0x1F59 JUMP JUMPDEST PUSH2 0x162B PUSH2 0x1E35 JUMP JUMPDEST PUSH0 PUSH2 0x1634 PUSH2 0x1763 JUMP JUMPDEST SWAP1 POP PUSH2 0x1642 PUSH0 PUSH0 SHL DUP3 PUSH2 0x1D4B JUMP JUMPDEST POP PUSH2 0x166D PUSH32 0x539440820030C4994DB4E31B6B800DEAFD503688728F932ADDFE7A410515C14C DUP3 PUSH2 0x1D4B JUMP JUMPDEST POP PUSH2 0x1698 PUSH32 0x9BBB3EE3BDFBE971682B08854A620CA4BF696F8E0C269E5C5B129A18E64D29DF DUP3 PUSH2 0x1D4B JUMP JUMPDEST POP PUSH2 0x16A2 DUP3 PUSH2 0x1FE0 JUMP JUMPDEST PUSH2 0x16AE PUSH0 PUSH0 SHL DUP4 PUSH2 0x1C5A JUMP JUMPDEST POP PUSH2 0x16D9 PUSH32 0x9BBB3EE3BDFBE971682B08854A620CA4BF696F8E0C269E5C5B129A18E64D29DF DUP4 PUSH2 0x1C5A JUMP JUMPDEST POP PUSH2 0x1704 PUSH32 0x539440820030C4994DB4E31B6B800DEAFD503688728F932ADDFE7A410515C14C DUP4 PUSH2 0x1C5A JUMP JUMPDEST POP DUP2 PUSH20 0xFFFFFFFFFFFFFFFFFFFFFFFFFFFFFFFFFFFFFFFF AND DUP2 PUSH20 0xFFFFFFFFFFFFFFFFFFFFFFFFFFFFFFFFFFFFFFFF AND PUSH32 0x2ED8931CD5C0D36856A21C6245BF2E305F989A55C31BE2B6CB7EC0A4DA43C319 PUSH1 0x40 MLOAD PUSH1 0x40 MLOAD DUP1 SWAP2 SUB SWAP1 LOG3 POP POP JUMP JUMPDEST PUSH0 PUSH1 0x1 PUSH0 SWAP1 SLOAD SWAP1 PUSH2 0x100 EXP SWAP1 DIV PUSH20 0xFFFFFFFFFFFFFFFFFFFFFFFFFFFFFFFFFFFFFFFF AND SWAP1 POP SWAP1 JUMP JUMPDEST PUSH0 PUSH1 0x2 PUSH0 DUP5 DUP2 MSTORE PUSH1 0x20 ADD SWAP1 DUP2 MSTORE PUSH1 0x20 ADD PUSH0 KECCAK256 PUSH0 ADD PUSH0 DUP4 PUSH20 0xFFFFFFFFFFFFFFFFFFFFFFFFFFFFFFFFFFFFFFFF AND PUSH20 0xFFFFFFFFFFFFFFFFFFFFFFFFFFFFFFFFFFFFFFFF AND DUP2 MSTORE PUSH1 0x20 ADD SWAP1 DUP2 MSTORE PUSH1 0x20 ADD PUSH0 KECCAK256 PUSH0 SWAP1 SLOAD SWAP1 PUSH2 0x100 EXP SWAP1 DIV PUSH1 0xFF AND SWAP1 POP SWAP3 SWAP2 POP POP JUMP JUMPDEST PUSH2 0x17F7 PUSH2 0x1BA3 JUMP JUMPDEST PUSH2 0x1800 DUP2 PUSH2 0x23F2 JUMP JUMPDEST POP JUMP JUMPDEST PUSH0 PUSH1 0x6 SLOAD SWAP1 POP SWAP1 JUMP JUMPDEST PUSH0 PUSH1 0x7 PUSH0 PUSH32 0x0 PUSH20 0xFFFFFFFFFFFFFFFFFFFFFFFFFFFFFFFFFFFFFFFF AND PUSH20 0xFFFFFFFFFFFFFFFFFFFFFFFFFFFFFFFFFFFFFFFF AND DUP2 MSTORE PUSH1 0x20 ADD SWAP1 DUP2 MSTORE PUSH1 0x20 ADD PUSH0 KECCAK256 PUSH0 CALLER PUSH20 0xFFFFFFFFFFFFFFFFFFFFFFFFFFFFFFFFFFFFFFFF AND PUSH20 0xFFFFFFFFFFFFFFFFFFFFFFFFFFFFFFFFFFFFFFFF AND DUP2 MSTORE PUSH1 0x20 ADD SWAP1 DUP2 MSTORE PUSH1 0x20 ADD PUSH0 KECCAK256 SLOAD SWAP1 POP SWAP1 JUMP JUMPDEST PUSH0 PUSH0 SHL DUP2 JUMP JUMPDEST PUSH0 PUSH1 0x5 SLOAD SWAP1 POP SWAP1 JUMP JUMPDEST PUSH32 0x9BBB3EE3BDFBE971682B08854A620CA4BF696F8E0C269E5C5B129A18E64D29DF DUP2 JUMP JUMPDEST PUSH2 0x18E6 PUSH2 0x1F59 JUMP JUMPDEST PUSH2 0x18F0 DUP2 DUP4 PUSH2 0xB59 JUMP JUMPDEST DUP2 PUSH20 0xFFFFFFFFFFFFFFFFFFFFFFFFFFFFFFFFFFFFFFFF AND PUSH32 0x56A39044E0E7AD5C8DB0ABDB4925F3D610D0F66AB2D22536712AFD06E6AA6032 DUP3 PUSH1 0x40 MLOAD PUSH2 0x1936 SWAP2 SWAP1 PUSH2 0x2C4E JUMP JUMPDEST PUSH1 0x40 MLOAD DUP1 SWAP2 SUB SWAP1 LOG2 POP POP JUMP JUMPDEST PUSH2 0x194B DUP3 PUSH2 0xB3C JUMP JUMPDEST PUSH2 0x1954 DUP2 PUSH2 0x1C46 JUMP JUMPDEST PUSH2 0x195E DUP4 DUP4 PUSH2 0x1D4B JUMP JUMPDEST POP POP POP POP JUMP JUMPDEST PUSH32 0x539440820030C4994DB4E31B6B800DEAFD503688728F932ADDFE7A410515C14C DUP2 JUMP JUMPDEST PUSH2 0x1990 PUSH2 0x1F59 JUMP JUMPDEST PUSH2 0x199A DUP2 DUP4 PUSH2 0x1942 JUMP JUMPDEST DUP2 PUSH20 0xFFFFFFFFFFFFFFFFFFFFFFFFFFFFFFFFFFFFFFFF AND PUSH32 0x2A235E73FBDF449DB29391F00A41FD53E24C96816320A25A710415E2C05370F0 DUP3 PUSH1 0x40 MLOAD PUSH2 0x19E0 SWAP2 SWAP1 PUSH2 0x2C4E JUMP JUMPDEST PUSH1 0x40 MLOAD DUP1 SWAP2 SUB SWAP1 LOG2 POP POP JUMP JUMPDEST PUSH2 0x19F4 PUSH2 0x1F59 JUMP JUMPDEST PUSH0 PUSH20 0xFFFFFFFFFFFFFFFFFFFFFFFFFFFFFFFFFFFFFFFF AND DUP2 PUSH20 0xFFFFFFFFFFFFFFFFFFFFFFFFFFFFFFFFFFFFFFFF AND SUB PUSH2 0x1A64 JUMPI PUSH0 PUSH1 0x40 MLOAD PUSH32 0x1E4FBDF700000000000000000000000000000000000000000000000000000000 DUP2 MSTORE PUSH1 0x4 ADD PUSH2 0x1A5B SWAP2 SWAP1 PUSH2 0x2AA8 JUMP JUMPDEST PUSH1 0x40 MLOAD DUP1 SWAP2 SUB SWAP1 REVERT JUMPDEST PUSH2 0x1A6D DUP2 PUSH2 0x1FE0 JUMP JUMPDEST POP JUMP JUMPDEST PUSH0 PUSH1 0x4 SLOAD SWAP1 POP SWAP1 JUMP JUMPDEST PUSH0 PUSH1 0x7 PUSH0 DUP4 PUSH20 0xFFFFFFFFFFFFFFFFFFFFFFFFFFFFFFFFFFFFFFFF AND PUSH20 0xFFFFFFFFFFFFFFFFFFFFFFFFFFFFFFFFFFFFFFFF AND DUP2 MSTORE PUSH1 0x20 ADD SWAP1 DUP2 MSTORE PUSH1 0x20 ADD PUSH0 KECCAK256 PUSH0 DUP5 PUSH20 0xFFFFFFFFFFFFFFFFFFFFFFFFFFFFFFFFFFFFFFFF AND PUSH20 0xFFFFFFFFFFFFFFFFFFFFFFFFFFFFFFFFFFFFFFFF AND DUP2 MSTORE PUSH1 0x20 ADD SWAP1 DUP2 MSTORE PUSH1 0x20 ADD PUSH0 KECCAK256 SLOAD SWAP1 POP SWAP3 SWAP2 POP POP JUMP JUMPDEST PUSH0 PUSH32 0x7965DB0B00000000000000000000000000000000000000000000000000000000 PUSH28 0xFFFFFFFFFFFFFFFFFFFFFFFFFFFFFFFFFFFFFFFFFFFFFFFFFFFFFFFF NOT AND DUP3 PUSH28 0xFFFFFFFFFFFFFFFFFFFFFFFFFFFFFFFFFFFFFFFFFFFFFFFFFFFFFFFF NOT AND EQ DUP1 PUSH2 0x1B6D JUMPI POP PUSH2 0x1B6C DUP3 PUSH2 0x2705 JUMP JUMPDEST JUMPDEST SWAP1 POP SWAP2 SWAP1 POP JUMP JUMPDEST PUSH0 PUSH9 0x56BC75E2D63100000 PUSH2 0x1B87 PUSH2 0x276E JUMP JUMPDEST DUP4 PUSH2 0x1B92 SWAP2 SWAP1 PUSH2 0x30AB JUMP JUMPDEST PUSH2 0x1B9C SWAP2 SWAP1 PUSH2 0x3119 JUMP JUMPDEST SWAP1 POP SWAP2 SWAP1 POP JUMP JUMPDEST PUSH2 0x1BAB PUSH2 0xEB0 JUMP JUMPDEST ISZERO PUSH2 0x1BE2 JUMPI PUSH1 0x40 MLOAD PUSH32 0xD93C066500000000000000000000000000000000000000000000000000000000 DUP2 MSTORE PUSH1 0x4 ADD PUSH1 0x40 MLOAD DUP1 SWAP2 SUB SWAP1 REVERT JUMPDEST JUMP JUMPDEST PUSH2 0x1BEC PUSH2 0x1BA3 JUMP JUMPDEST PUSH1 0x1 DUP1 PUSH1 0x14 PUSH2 0x100 EXP DUP2 SLOAD DUP2 PUSH1 0xFF MUL NOT AND SWAP1 DUP4 ISZERO ISZERO MUL OR SWAP1 SSTORE POP PUSH32 0x62E78CEA01BEE320CD4E420270B5EA74000D11B0C9F74754EBDBFC544B05A258 PUSH2 0x1C2F PUSH2 0x1D44 JUMP JUMPDEST PUSH1 0x40 MLOAD PUSH2 0x1C3C SWAP2 SWAP1 PUSH2 0x2AA8 JUMP JUMPDEST PUSH1 0x40 MLOAD DUP1 SWAP2 SUB SWAP1 LOG1 JUMP JUMPDEST PUSH2 0x1C57 DUP2 PUSH2 0x1C52 PUSH2 0x1D44 JUMP JUMPDEST PUSH2 0x28A8 JUMP JUMPDEST POP JUMP JUMPDEST PUSH0 PUSH2 0x1C65 DUP4 DUP4 PUSH2 0x178B JUMP JUMPDEST PUSH2 0x1D3A JUMPI PUSH1 0x1 PUSH1 0x2 PUSH0 DUP6 DUP2 MSTORE PUSH1 0x20 ADD SWAP1 DUP2 MSTORE PUSH1 0x20 ADD PUSH0 KECCAK256 PUSH0 ADD PUSH0 DUP5 PUSH20 0xFFFFFFFFFFFFFFFFFFFFFFFFFFFFFFFFFFFFFFFF AND PUSH20 0xFFFFFFFFFFFFFFFFFFFFFFFFFFFFFFFFFFFFFFFF AND DUP2 MSTORE PUSH1 0x20 ADD SWAP1 DUP2 MSTORE PUSH1 0x20 ADD PUSH0 KECCAK256 PUSH0 PUSH2 0x100 EXP DUP2 SLOAD DUP2 PUSH1 0xFF MUL NOT AND SWAP1 DUP4 ISZERO ISZERO MUL OR SWAP1 SSTORE POP PUSH2 0x1CD7 PUSH2 0x1D44 JUMP JUMPDEST PUSH20 0xFFFFFFFFFFFFFFFFFFFFFFFFFFFFFFFFFFFFFFFF AND DUP3 PUSH20 0xFFFFFFFFFFFFFFFFFFFFFFFFFFFFFFFFFFFFFFFF AND DUP5 PUSH32 0x2F8788117E7EFF1D82E926EC794901D17C78024A50270940304540A733656F0D PUSH1 0x40 MLOAD PUSH1 0x40 MLOAD DUP1 SWAP2 SUB SWAP1 LOG4 PUSH1 0x1 SWAP1 POP PUSH2 0x1D3E JUMP JUMPDEST PUSH0 SWAP1 POP JUMPDEST SWAP3 SWAP2 POP POP JUMP JUMPDEST PUSH0 CALLER SWAP1 POP SWAP1 JUMP JUMPDEST PUSH0 PUSH2 0x1D56 DUP4 DUP4 PUSH2 0x178B JUMP JUMPDEST ISZERO PUSH2 0x1E2B JUMPI PUSH0 PUSH1 0x2 PUSH0 DUP6 DUP2 MSTORE PUSH1 0x20 ADD SWAP1 DUP2 MSTORE PUSH1 0x20 ADD PUSH0 KECCAK256 PUSH0 ADD PUSH0 DUP5 PUSH20 0xFFFFFFFFFFFFFFFFFFFFFFFFFFFFFFFFFFFFFFFF AND PUSH20 0xFFFFFFFFFFFFFFFFFFFFFFFFFFFFFFFFFFFFFFFF AND DUP2 MSTORE PUSH1 0x20 ADD SWAP1 DUP2 MSTORE PUSH1 0x20 ADD PUSH0 KECCAK256 PUSH0 PUSH2 0x100 EXP DUP2 SLOAD DUP2 PUSH1 0xFF MUL NOT AND SWAP1 DUP4 ISZERO ISZERO MUL OR SWAP1 SSTORE POP PUSH2 0x1DC8 PUSH2 0x1D44 JUMP JUMPDEST PUSH20 0xFFFFFFFFFFFFFFFFFFFFFFFFFFFFFFFFFFFFFFFF AND DUP3 PUSH20 0xFFFFFFFFFFFFFFFFFFFFFFFFFFFFFFFFFFFFFFFF AND DUP5 PUSH32 0xF6391F5C32D9C69D2A47EA670B442974B53935D1EDC7FD64EB21E047A839171B PUSH1 0x40 MLOAD PUSH1 0x40 MLOAD DUP1 SWAP2 SUB SWAP1 LOG4 PUSH1 0x1 SWAP1 POP PUSH2 0x1E2F JUMP JUMPDEST PUSH0 SWAP1 POP JUMPDEST SWAP3 SWAP2 POP POP JUMP JUMPDEST PUSH2 0x1E3D PUSH2 0xEB0 JUMP JUMPDEST PUSH2 0x1E73 JUMPI PUSH1 0x40 MLOAD PUSH32 0x8DFC202B00000000000000000000000000000000000000000000000000000000 DUP2 MSTORE PUSH1 0x4 ADD PUSH1 0x40 MLOAD DUP1 SWAP2 SUB SWAP1 REVERT JUMPDEST JUMP JUMPDEST PUSH2 0x1E7D PUSH2 0x1E35 JUMP JUMPDEST PUSH0 PUSH1 0x1 PUSH1 0x14 PUSH2 0x100 EXP DUP2 SLOAD DUP2 PUSH1 0xFF MUL NOT AND SWAP1 DUP4 ISZERO ISZERO MUL OR SWAP1 SSTORE POP PUSH32 0x5DB9EE0A495BF2E6FF9C91A7834C1BA4FDD244A5E8AA4E537BD38AEAE4B073AA PUSH2 0x1EC0 PUSH2 0x1D44 JUMP JUMPDEST PUSH1 0x40 MLOAD PUSH2 0x1ECD SWAP2 SWAP1 PUSH2 0x2AA8 JUMP JUMPDEST PUSH1 0x40 MLOAD DUP1 SWAP2 SUB SWAP1 LOG1 JUMP JUMPDEST PUSH2 0x1F53 DUP5 DUP6 PUSH20 0xFFFFFFFFFFFFFFFFFFFFFFFFFFFFFFFFFFFFFFFF AND PUSH4 0x23B872DD DUP7 DUP7 DUP7 PUSH1 0x40 MLOAD PUSH1 0x24 ADD PUSH2 0x1F0C SWAP4 SWAP3 SWAP2 SWAP1 PUSH2 0x3149 JUMP JUMPDEST PUSH1 0x40 MLOAD PUSH1 0x20 DUP2 DUP4 SUB SUB DUP2 MSTORE SWAP1 PUSH1 0x40 MSTORE SWAP2 POP PUSH1 0xE0 SHL PUSH1 0x20 DUP3 ADD DUP1 MLOAD PUSH28 0xFFFFFFFFFFFFFFFFFFFFFFFFFFFFFFFFFFFFFFFFFFFFFFFFFFFFFFFF DUP4 DUP2 DUP4 AND OR DUP4 MSTORE POP POP POP POP PUSH2 0x28F9 JUMP JUMPDEST POP POP POP POP JUMP JUMPDEST PUSH2 0x1F61 PUSH2 0x1D44 JUMP JUMPDEST PUSH20 0xFFFFFFFFFFFFFFFFFFFFFFFFFFFFFFFFFFFFFFFF AND PUSH2 0x1F7F PUSH2 0x1763 JUMP JUMPDEST PUSH20 0xFFFFFFFFFFFFFFFFFFFFFFFFFFFFFFFFFFFFFFFF AND EQ PUSH2 0x1FDE JUMPI PUSH2 0x1FA2 PUSH2 0x1D44 JUMP JUMPDEST PUSH1 0x40 MLOAD PUSH32 0x118CDAA700000000000000000000000000000000000000000000000000000000 DUP2 MSTORE PUSH1 0x4 ADD PUSH2 0x1FD5 SWAP2 SWAP1 PUSH2 0x2AA8 JUMP JUMPDEST PUSH1 0x40 MLOAD DUP1 SWAP2 SUB SWAP1 REVERT JUMPDEST JUMP JUMPDEST PUSH0 PUSH1 0x1 PUSH0 SWAP1 SLOAD SWAP1 PUSH2 0x100 EXP SWAP1 DIV PUSH20 0xFFFFFFFFFFFFFFFFFFFFFFFFFFFFFFFFFFFFFFFF AND SWAP1 POP DUP2 PUSH1 0x1 PUSH0 PUSH2 0x100 EXP DUP2 SLOAD DUP2 PUSH20 0xFFFFFFFFFFFFFFFFFFFFFFFFFFFFFFFFFFFFFFFF MUL NOT AND SWAP1 DUP4 PUSH20 0xFFFFFFFFFFFFFFFFFFFFFFFFFFFFFFFFFFFFFFFF AND MUL OR SWAP1 SSTORE POP DUP2 PUSH20 0xFFFFFFFFFFFFFFFFFFFFFFFFFFFFFFFFFFFFFFFF AND DUP2 PUSH20 0xFFFFFFFFFFFFFFFFFFFFFFFFFFFFFFFFFFFFFFFF AND PUSH32 0x8BE0079C531659141344CD1FD0A4F28419497F9722A3DAAFE3B4186F6B6457E0 PUSH1 0x40 MLOAD PUSH1 0x40 MLOAD DUP1 SWAP2 SUB SWAP1 LOG3 POP POP JUMP JUMPDEST PUSH2 0x20AB PUSH2 0x2994 JUMP JUMPDEST DUP1 PUSH0 PUSH2 0x20B6 DUP3 PUSH2 0x1B74 JUMP JUMPDEST SWAP1 POP PUSH0 DUP2 SUB PUSH2 0x20FC JUMPI CALLER PUSH1 0x40 MLOAD PUSH32 0xB2F0923100000000000000000000000000000000000000000000000000000000 DUP2 MSTORE PUSH1 0x4 ADD PUSH2 0x20F3 SWAP2 SWAP1 PUSH2 0x2AA8 JUMP JUMPDEST PUSH1 0x40 MLOAD DUP1 SWAP2 SUB SWAP1 REVERT JUMPDEST PUSH32 0x0 DUP2 GT ISZERO PUSH2 0x2161 JUMPI DUP1 PUSH1 0x40 MLOAD PUSH32 0xC399356500000000000000000000000000000000000000000000000000000000 DUP2 MSTORE PUSH1 0x4 ADD PUSH2 0x2158 SWAP2 SWAP1 PUSH2 0x2D24 JUMP JUMPDEST PUSH1 0x40 MLOAD DUP1 SWAP2 SUB SWAP1 REVERT JUMPDEST PUSH1 0x7 PUSH0 PUSH0 PUSH20 0xFFFFFFFFFFFFFFFFFFFFFFFFFFFFFFFFFFFFFFFF AND PUSH20 0xFFFFFFFFFFFFFFFFFFFFFFFFFFFFFFFFFFFFFFFF AND DUP2 MSTORE PUSH1 0x20 ADD SWAP1 DUP2 MSTORE PUSH1 0x20 ADD PUSH0 KECCAK256 PUSH0 CALLER PUSH20 0xFFFFFFFFFFFFFFFFFFFFFFFFFFFFFFFFFFFFFFFF AND PUSH20 0xFFFFFFFFFFFFFFFFFFFFFFFFFFFFFFFFFFFFFFFF AND DUP2 MSTORE PUSH1 0x20 ADD SWAP1 DUP2 MSTORE PUSH1 0x20 ADD PUSH0 KECCAK256 SLOAD DUP3 GT ISZERO PUSH2 0x2220 JUMPI CALLER DUP2 PUSH1 0x40 MLOAD PUSH32 0x51A7314200000000000000000000000000000000000000000000000000000000 DUP2 MSTORE PUSH1 0x4 ADD PUSH2 0x2217 SWAP3 SWAP2 SWAP1 PUSH2 0x2EFF JUMP JUMPDEST PUSH1 0x40 MLOAD DUP1 SWAP2 SUB SWAP1 REVERT JUMPDEST PUSH0 PUSH2 0x222A DUP5 PUSH2 0x1B74 JUMP JUMPDEST SWAP1 POP DUP4 PUSH1 0x7 PUSH0 PUSH0 PUSH20 0xFFFFFFFFFFFFFFFFFFFFFFFFFFFFFFFFFFFFFFFF AND PUSH20 0xFFFFFFFFFFFFFFFFFFFFFFFFFFFFFFFFFFFFFFFF AND DUP2 MSTORE PUSH1 0x20 ADD SWAP1 DUP2 MSTORE PUSH1 0x20 ADD PUSH0 KECCAK256 PUSH0 CALLER PUSH20 0xFFFFFFFFFFFFFFFFFFFFFFFFFFFFFFFFFFFFFFFF AND PUSH20 0xFFFFFFFFFFFFFFFFFFFFFFFFFFFFFFFFFFFFFFFF AND DUP2 MSTORE PUSH1 0x20 ADD SWAP1 DUP2 MSTORE PUSH1 0x20 ADD PUSH0 KECCAK256 PUSH0 DUP3 DUP3 SLOAD PUSH2 0x22B3 SWAP2 SWAP1 PUSH2 0x3078 JUMP JUMPDEST SWAP3 POP POP DUP2 SWAP1 SSTORE POP PUSH1 0x5 PUSH0 DUP2 SLOAD DUP1 SWAP3 SWAP2 SWAP1 PUSH2 0x22CC SWAP1 PUSH2 0x2EB8 JUMP JUMPDEST SWAP2 SWAP1 POP SSTORE POP DUP1 PUSH1 0x6 PUSH0 DUP3 DUP3 SLOAD PUSH2 0x22E2 SWAP2 SWAP1 PUSH2 0x3078 JUMP JUMPDEST SWAP3 POP POP DUP2 SWAP1 SSTORE POP CALLER PUSH20 0xFFFFFFFFFFFFFFFFFFFFFFFFFFFFFFFFFFFFFFFF AND PUSH32 0x9CDE449504E4972FFDDEC09813E0C252A1462D76BEF1864B9E7520DADB7183E8 DUP3 PUSH1 0x40 MLOAD PUSH2 0x232F SWAP2 SWAP1 PUSH2 0x2D24 JUMP JUMPDEST PUSH1 0x40 MLOAD DUP1 SWAP2 SUB SWAP1 LOG2 PUSH0 CALLER PUSH20 0xFFFFFFFFFFFFFFFFFFFFFFFFFFFFFFFFFFFFFFFF AND DUP6 PUSH1 0x40 MLOAD PUSH2 0x235C SWAP1 PUSH2 0x31AB JUMP JUMPDEST PUSH0 PUSH1 0x40 MLOAD DUP1 DUP4 SUB DUP2 DUP6 DUP8 GAS CALL SWAP3 POP POP POP RETURNDATASIZE DUP1 PUSH0 DUP2 EQ PUSH2 0x2396 JUMPI PUSH1 0x40 MLOAD SWAP2 POP PUSH1 0x1F NOT PUSH1 0x3F RETURNDATASIZE ADD AND DUP3 ADD PUSH1 0x40 MSTORE RETURNDATASIZE DUP3 MSTORE RETURNDATASIZE PUSH0 PUSH1 0x20 DUP5 ADD RETURNDATACOPY PUSH2 0x239B JUMP JUMPDEST PUSH1 0x60 SWAP2 POP JUMPDEST POP POP SWAP1 POP DUP1 PUSH2 0x23E3 JUMPI CALLER DUP6 PUSH1 0x40 MLOAD PUSH32 0x6C5E1A1400000000000000000000000000000000000000000000000000000000 DUP2 MSTORE PUSH1 0x4 ADD PUSH2 0x23DA SWAP3 SWAP2 SWAP1 PUSH2 0x2EFF JUMP JUMPDEST PUSH1 0x40 MLOAD DUP1 SWAP2 SUB SWAP1 REVERT JUMPDEST POP POP POP POP PUSH2 0x23EF PUSH2 0x29E1 JUMP JUMPDEST POP JUMP JUMPDEST PUSH2 0x23FA PUSH2 0x2994 JUMP JUMPDEST DUP1 PUSH0 DUP2 SUB PUSH2 0x243F JUMPI CALLER PUSH1 0x40 MLOAD PUSH32 0xB2F0923100000000000000000000000000000000000000000000000000000000 DUP2 MSTORE PUSH1 0x4 ADD PUSH2 0x2436 SWAP2 SWAP1 PUSH2 0x2AA8 JUMP JUMPDEST PUSH1 0x40 MLOAD DUP1 SWAP2 SUB SWAP1 REVERT JUMPDEST PUSH32 0x0 DUP2 GT ISZERO PUSH2 0x24A4 JUMPI DUP1 PUSH1 0x40 MLOAD PUSH32 0xC399356500000000000000000000000000000000000000000000000000000000 DUP2 MSTORE PUSH1 0x4 ADD PUSH2 0x249B SWAP2 SWAP1 PUSH2 0x2D24 JUMP JUMPDEST PUSH1 0x40 MLOAD DUP1 SWAP2 SUB SWAP1 REVERT JUMPDEST PUSH1 0x7 PUSH0 PUSH32 0x0 PUSH20 0xFFFFFFFFFFFFFFFFFFFFFFFFFFFFFFFFFFFFFFFF AND PUSH20 0xFFFFFFFFFFFFFFFFFFFFFFFFFFFFFFFFFFFFFFFF AND DUP2 MSTORE PUSH1 0x20 ADD SWAP1 DUP2 MSTORE PUSH1 0x20 ADD PUSH0 KECCAK256 PUSH0 CALLER PUSH20 0xFFFFFFFFFFFFFFFFFFFFFFFFFFFFFFFFFFFFFFFF AND PUSH20 0xFFFFFFFFFFFFFFFFFFFFFFFFFFFFFFFFFFFFFFFF AND DUP2 MSTORE PUSH1 0x20 ADD SWAP1 DUP2 MSTORE PUSH1 0x20 ADD PUSH0 KECCAK256 SLOAD DUP2 GT ISZERO PUSH2 0x2583 JUMPI CALLER DUP2 PUSH1 0x40 MLOAD PUSH32 0x51A7314200000000000000000000000000000000000000000000000000000000 DUP2 MSTORE PUSH1 0x4 ADD PUSH2 0x257A SWAP3 SWAP2 SWAP1 PUSH2 0x2EFF JUMP JUMPDEST PUSH1 0x40 MLOAD DUP1 SWAP2 SUB SWAP1 REVERT JUMPDEST DUP2 PUSH1 0x7 PUSH0 PUSH32 0x0 PUSH20 0xFFFFFFFFFFFFFFFFFFFFFFFFFFFFFFFFFFFFFFFF AND PUSH20 0xFFFFFFFFFFFFFFFFFFFFFFFFFFFFFFFFFFFFFFFF AND DUP2 MSTORE PUSH1 0x20 ADD SWAP1 DUP2 MSTORE PUSH1 0x20 ADD PUSH0 KECCAK256 PUSH0 CALLER PUSH20 0xFFFFFFFFFFFFFFFFFFFFFFFFFFFFFFFFFFFFFFFF AND PUSH20 0xFFFFFFFFFFFFFFFFFFFFFFFFFFFFFFFFFFFFFFFF AND DUP2 MSTORE PUSH1 0x20 ADD SWAP1 DUP2 MSTORE PUSH1 0x20 ADD PUSH0 KECCAK256 PUSH0 DUP3 DUP3 SLOAD PUSH2 0x262A SWAP2 SWAP1 PUSH2 0x3078 JUMP JUMPDEST SWAP3 POP POP DUP2 SWAP1 SSTORE POP PUSH1 0x5 PUSH0 DUP2 SLOAD DUP1 SWAP3 SWAP2 SWAP1 PUSH2 0x2643 SWAP1 PUSH2 0x2EB8 JUMP JUMPDEST SWAP2 SWAP1 POP SSTORE POP DUP2 PUSH1 0x6 PUSH0 DUP3 DUP3 SLOAD PUSH2 0x2659 SWAP2 SWAP1 PUSH2 0x3078 JUMP JUMPDEST SWAP3 POP POP DUP2 SWAP1 SSTORE POP CALLER PUSH20 0xFFFFFFFFFFFFFFFFFFFFFFFFFFFFFFFFFFFFFFFF AND PUSH32 0x9CDE449504E4972FFDDEC09813E0C252A1462D76BEF1864B9E7520DADB7183E8 DUP4 PUSH1 0x40 MLOAD PUSH2 0x26A6 SWAP2 SWAP1 PUSH2 0x2D24 JUMP JUMPDEST PUSH1 0x40 MLOAD DUP1 SWAP2 SUB SWAP1 LOG2 PUSH2 0x26F9 CALLER DUP4 PUSH32 0x0 PUSH20 0xFFFFFFFFFFFFFFFFFFFFFFFFFFFFFFFFFFFFFFFF AND PUSH2 0x29EA SWAP1 SWAP3 SWAP2 SWAP1 PUSH4 0xFFFFFFFF AND JUMP JUMPDEST POP PUSH2 0x2702 PUSH2 0x29E1 JUMP JUMPDEST POP JUMP JUMPDEST PUSH0 PUSH32 0x1FFC9A700000000000000000000000000000000000000000000000000000000 PUSH28 0xFFFFFFFFFFFFFFFFFFFFFFFFFFFFFFFFFFFFFFFFFFFFFFFFFFFFFFFF NOT AND DUP3 PUSH28 0xFFFFFFFFFFFFFFFFFFFFFFFFFFFFFFFFFFFFFFFFFFFFFFFFFFFFFFFF NOT AND EQ SWAP1 POP SWAP2 SWAP1 POP JUMP JUMPDEST PUSH0 PUSH0 PUSH0 PUSH1 0x3 PUSH0 SWAP1 SLOAD SWAP1 PUSH2 0x100 EXP SWAP1 DIV PUSH20 0xFFFFFFFFFFFFFFFFFFFFFFFFFFFFFFFFFFFFFFFF AND PUSH20 0xFFFFFFFFFFFFFFFFFFFFFFFFFFFFFFFFFFFFFFFF AND PUSH4 0xFEAF968C PUSH1 0x40 MLOAD DUP2 PUSH4 0xFFFFFFFF AND PUSH1 0xE0 SHL DUP2 MSTORE PUSH1 0x4 ADD PUSH1 0xA0 PUSH1 0x40 MLOAD DUP1 DUP4 SUB DUP2 DUP7 GAS STATICCALL ISZERO DUP1 ISZERO PUSH2 0x27DB JUMPI RETURNDATASIZE PUSH0 PUSH0 RETURNDATACOPY RETURNDATASIZE PUSH0 REVERT JUMPDEST POP POP POP POP PUSH1 0x40 MLOAD RETURNDATASIZE PUSH1 0x1F NOT PUSH1 0x1F DUP3 ADD AND DUP3 ADD DUP1 PUSH1 0x40 MSTORE POP DUP2 ADD SWAP1 PUSH2 0x27FF SWAP2 SWAP1 PUSH2 0x3001 JUMP JUMPDEST POP SWAP4 POP POP SWAP3 POP POP PUSH0 DUP3 SGT PUSH2 0x284A JUMPI DUP2 PUSH1 0x40 MLOAD PUSH32 0x3654402900000000000000000000000000000000000000000000000000000000 DUP2 MSTORE PUSH1 0x4 ADD PUSH2 0x2841 SWAP2 SWAP1 PUSH2 0x2D24 JUMP JUMPDEST PUSH1 0x40 MLOAD DUP1 SWAP2 SUB SWAP1 REVERT JUMPDEST PUSH2 0xE10 PUSH2 0xFFFF AND DUP2 TIMESTAMP PUSH2 0x285D SWAP2 SWAP1 PUSH2 0x3078 JUMP JUMPDEST GT ISZERO PUSH2 0x28A0 JUMPI DUP2 PUSH1 0x40 MLOAD PUSH32 0x2609A26500000000000000000000000000000000000000000000000000000000 DUP2 MSTORE PUSH1 0x4 ADD PUSH2 0x2897 SWAP2 SWAP1 PUSH2 0x2D24 JUMP JUMPDEST PUSH1 0x40 MLOAD DUP1 SWAP2 SUB SWAP1 REVERT JUMPDEST DUP2 SWAP3 POP POP POP SWAP1 JUMP JUMPDEST PUSH2 0x28B2 DUP3 DUP3 PUSH2 0x178B JUMP JUMPDEST PUSH2 0x28F5 JUMPI DUP1 DUP3 PUSH1 0x40 MLOAD PUSH32 0xE2517D3F00000000000000000000000000000000000000000000000000000000 DUP2 MSTORE PUSH1 0x4 ADD PUSH2 0x28EC SWAP3 SWAP2 SWAP1 PUSH2 0x31BF JUMP JUMPDEST PUSH1 0x40 MLOAD DUP1 SWAP2 SUB SWAP1 REVERT JUMPDEST POP POP JUMP JUMPDEST PUSH0 PUSH0 PUSH1 0x20 PUSH0 DUP5 MLOAD PUSH1 0x20 DUP7 ADD PUSH0 DUP9 GAS CALL DUP1 PUSH2 0x2918 JUMPI PUSH1 0x40 MLOAD RETURNDATASIZE PUSH0 DUP3 RETURNDATACOPY RETURNDATASIZE DUP2 REVERT JUMPDEST RETURNDATASIZE SWAP3 POP PUSH0 MLOAD SWAP2 POP POP PUSH0 DUP3 EQ PUSH2 0x2931 JUMPI PUSH1 0x1 DUP2 EQ ISZERO PUSH2 0x294C JUMP JUMPDEST PUSH0 DUP5 PUSH20 0xFFFFFFFFFFFFFFFFFFFFFFFFFFFFFFFFFFFFFFFF AND EXTCODESIZE EQ JUMPDEST ISZERO PUSH2 0x298E JUMPI DUP4 PUSH1 0x40 MLOAD PUSH32 0x5274AFE700000000000000000000000000000000000000000000000000000000 DUP2 MSTORE PUSH1 0x4 ADD PUSH2 0x2985 SWAP2 SWAP1 PUSH2 0x2AA8 JUMP JUMPDEST PUSH1 0x40 MLOAD DUP1 SWAP2 SUB SWAP1 REVERT JUMPDEST POP POP POP POP JUMP JUMPDEST PUSH1 0x2 PUSH0 SLOAD SUB PUSH2 0x29D8 JUMPI PUSH1 0x40 MLOAD PUSH32 0x8C379A000000000000000000000000000000000000000000000000000000000 DUP2 MSTORE PUSH1 0x4 ADD PUSH2 0x29CF SWAP1 PUSH2 0x3240 JUMP JUMPDEST PUSH1 0x40 MLOAD DUP1 SWAP2 SUB SWAP1 REVERT JUMPDEST PUSH1 0x2 PUSH0 DUP2 SWAP1 SSTORE POP JUMP JUMPDEST PUSH1 0x1 PUSH0 DUP2 SWAP1 SSTORE POP JUMP JUMPDEST PUSH2 0x2A64 DUP4 DUP5 PUSH20 0xFFFFFFFFFFFFFFFFFFFFFFFFFFFFFFFFFFFFFFFF AND PUSH4 0xA9059CBB DUP6 DUP6 PUSH1 0x40 MLOAD PUSH1 0x24 ADD PUSH2 0x2A1D SWAP3 SWAP2 SWAP1 PUSH2 0x2EFF JUMP JUMPDEST PUSH1 0x40 MLOAD PUSH1 0x20 DUP2 DUP4 SUB SUB DUP2 MSTORE SWAP1 PUSH1 0x40 MSTORE SWAP2 POP PUSH1 0xE0 SHL PUSH1 0x20 DUP3 ADD DUP1 MLOAD PUSH28 0xFFFFFFFFFFFFFFFFFFFFFFFFFFFFFFFFFFFFFFFFFFFFFFFFFFFFFFFF DUP4 DUP2 DUP4 AND OR DUP4 MSTORE POP POP POP POP PUSH2 0x28F9 JUMP JUMPDEST POP POP POP JUMP JUMPDEST PUSH0 PUSH20 0xFFFFFFFFFFFFFFFFFFFFFFFFFFFFFFFFFFFFFFFF DUP3 AND SWAP1 POP SWAP2 SWAP1 POP JUMP JUMPDEST PUSH0 PUSH2 0x2A92 DUP3 PUSH2 0x2A69 JUMP JUMPDEST SWAP1 POP SWAP2 SWAP1 POP JUMP JUMPDEST PUSH2 0x2AA2 DUP2 PUSH2 0x2A88 JUMP JUMPDEST DUP3 MSTORE POP POP JUMP JUMPDEST PUSH0 PUSH1 0x20 DUP3 ADD SWAP1 POP PUSH2 0x2ABB PUSH0 DUP4 ADD DUP5 PUSH2 0x2A99 JUMP JUMPDEST SWAP3 SWAP2 POP POP JUMP JUMPDEST PUSH0 PUSH0 REVERT JUMPDEST PUSH0 PUSH32 0xFFFFFFFF00000000000000000000000000000000000000000000000000000000 DUP3 AND SWAP1 POP SWAP2 SWAP1 POP JUMP JUMPDEST PUSH2 0x2AF9 DUP2 PUSH2 0x2AC5 JUMP JUMPDEST DUP2 EQ PUSH2 0x2B03 JUMPI PUSH0 PUSH0 REVERT JUMPDEST POP JUMP JUMPDEST PUSH0 DUP2 CALLDATALOAD SWAP1 POP PUSH2 0x2B14 DUP2 PUSH2 0x2AF0 JUMP JUMPDEST SWAP3 SWAP2 POP POP JUMP JUMPDEST PUSH0 PUSH1 0x20 DUP3 DUP5 SUB SLT ISZERO PUSH2 0x2B2F JUMPI PUSH2 0x2B2E PUSH2 0x2AC1 JUMP JUMPDEST JUMPDEST PUSH0 PUSH2 0x2B3C DUP5 DUP3 DUP6 ADD PUSH2 0x2B06 JUMP JUMPDEST SWAP2 POP POP SWAP3 SWAP2 POP POP JUMP JUMPDEST PUSH0 DUP2 ISZERO ISZERO SWAP1 POP SWAP2 SWAP1 POP JUMP JUMPDEST PUSH2 0x2B59 DUP2 PUSH2 0x2B45 JUMP JUMPDEST DUP3 MSTORE POP POP JUMP JUMPDEST PUSH0 PUSH1 0x20 DUP3 ADD SWAP1 POP PUSH2 0x2B72 PUSH0 DUP4 ADD DUP5 PUSH2 0x2B50 JUMP JUMPDEST SWAP3 SWAP2 POP POP JUMP JUMPDEST PUSH0 DUP2 SWAP1 POP SWAP2 SWAP1 POP JUMP JUMPDEST PUSH2 0x2B8A DUP2 PUSH2 0x2B78 JUMP JUMPDEST DUP3 MSTORE POP POP JUMP JUMPDEST PUSH0 PUSH1 0xA0 DUP3 ADD SWAP1 POP PUSH2 0x2BA3 PUSH0 DUP4 ADD DUP9 PUSH2 0x2B50 JUMP JUMPDEST PUSH2 0x2BB0 PUSH1 0x20 DUP4 ADD DUP8 PUSH2 0x2B81 JUMP JUMPDEST PUSH2 0x2BBD PUSH1 0x40 DUP4 ADD DUP7 PUSH2 0x2B81 JUMP JUMPDEST PUSH2 0x2BCA PUSH1 0x60 DUP4 ADD DUP6 PUSH2 0x2B81 JUMP JUMPDEST PUSH2 0x2BD7 PUSH1 0x80 DUP4 ADD DUP5 PUSH2 0x2A99 JUMP JUMPDEST SWAP7 SWAP6 POP POP POP POP POP POP JUMP JUMPDEST PUSH0 DUP2 SWAP1 POP SWAP2 SWAP1 POP JUMP JUMPDEST PUSH2 0x2BF3 DUP2 PUSH2 0x2BE1 JUMP JUMPDEST DUP2 EQ PUSH2 0x2BFD JUMPI PUSH0 PUSH0 REVERT JUMPDEST POP JUMP JUMPDEST PUSH0 DUP2 CALLDATALOAD SWAP1 POP PUSH2 0x2C0E DUP2 PUSH2 0x2BEA JUMP JUMPDEST SWAP3 SWAP2 POP POP JUMP JUMPDEST PUSH0 PUSH1 0x20 DUP3 DUP5 SUB SLT ISZERO PUSH2 0x2C29 JUMPI PUSH2 0x2C28 PUSH2 0x2AC1 JUMP JUMPDEST JUMPDEST PUSH0 PUSH2 0x2C36 DUP5 DUP3 DUP6 ADD PUSH2 0x2C00 JUMP JUMPDEST SWAP2 POP POP SWAP3 SWAP2 POP POP JUMP JUMPDEST PUSH2 0x2C48 DUP2 PUSH2 0x2BE1 JUMP JUMPDEST DUP3 MSTORE POP POP JUMP JUMPDEST PUSH0 PUSH1 0x20 DUP3 ADD SWAP1 POP PUSH2 0x2C61 PUSH0 DUP4 ADD DUP5 PUSH2 0x2C3F JUMP JUMPDEST SWAP3 SWAP2 POP POP JUMP JUMPDEST PUSH2 0x2C70 DUP2 PUSH2 0x2A88 JUMP JUMPDEST DUP2 EQ PUSH2 0x2C7A JUMPI PUSH0 PUSH0 REVERT JUMPDEST POP JUMP JUMPDEST PUSH0 DUP2 CALLDATALOAD SWAP1 POP PUSH2 0x2C8B DUP2 PUSH2 0x2C67 JUMP JUMPDEST SWAP3 SWAP2 POP POP JUMP JUMPDEST PUSH0 PUSH0 PUSH1 0x40 DUP4 DUP6 SUB SLT ISZERO PUSH2 0x2CA7 JUMPI PUSH2 0x2CA6 PUSH2 0x2AC1 JUMP JUMPDEST JUMPDEST PUSH0 PUSH2 0x2CB4 DUP6 DUP3 DUP7 ADD PUSH2 0x2C00 JUMP JUMPDEST SWAP3 POP POP PUSH1 0x20 PUSH2 0x2CC5 DUP6 DUP3 DUP7 ADD PUSH2 0x2C7D JUMP JUMPDEST SWAP2 POP POP SWAP3 POP SWAP3 SWAP1 POP JUMP JUMPDEST PUSH2 0x2CD8 DUP2 PUSH2 0x2B78 JUMP JUMPDEST DUP2 EQ PUSH2 0x2CE2 JUMPI PUSH0 PUSH0 REVERT JUMPDEST POP JUMP JUMPDEST PUSH0 DUP2 CALLDATALOAD SWAP1 POP PUSH2 0x2CF3 DUP2 PUSH2 0x2CCF JUMP JUMPDEST SWAP3 SWAP2 POP POP JUMP JUMPDEST PUSH0 PUSH1 0x20 DUP3 DUP5 SUB SLT ISZERO PUSH2 0x2D0E JUMPI PUSH2 0x2D0D PUSH2 0x2AC1 JUMP JUMPDEST JUMPDEST PUSH0 PUSH2 0x2D1B DUP5 DUP3 DUP6 ADD PUSH2 0x2CE5 JUMP JUMPDEST SWAP2 POP POP SWAP3 SWAP2 POP POP JUMP JUMPDEST PUSH0 PUSH1 0x20 DUP3 ADD SWAP1 POP PUSH2 0x2D37 PUSH0 DUP4 ADD DUP5 PUSH2 0x2B81 JUMP JUMPDEST SWAP3 SWAP2 POP POP JUMP JUMPDEST PUSH0 DUP2 SWAP1 POP SWAP2 SWAP1 POP JUMP JUMPDEST PUSH0 PUSH2 0x2D60 PUSH2 0x2D5B PUSH2 0x2D56 DUP5 PUSH2 0x2A69 JUMP JUMPDEST PUSH2 0x2D3D JUMP JUMPDEST PUSH2 0x2A69 JUMP JUMPDEST SWAP1 POP SWAP2 SWAP1 POP JUMP JUMPDEST PUSH0 PUSH2 0x2D71 DUP3 PUSH2 0x2D46 JUMP JUMPDEST SWAP1 POP SWAP2 SWAP1 POP JUMP JUMPDEST PUSH0 PUSH2 0x2D82 DUP3 PUSH2 0x2D67 JUMP JUMPDEST SWAP1 POP SWAP2 SWAP1 POP JUMP JUMPDEST PUSH2 0x2D92 DUP2 PUSH2 0x2D78 JUMP JUMPDEST DUP3 MSTORE POP POP JUMP JUMPDEST PUSH0 PUSH1 0x20 DUP3 ADD SWAP1 POP PUSH2 0x2DAB PUSH0 DUP4 ADD DUP5 PUSH2 0x2D89 JUMP JUMPDEST SWAP3 SWAP2 POP POP JUMP JUMPDEST PUSH0 PUSH1 0x20 DUP3 DUP5 SUB SLT ISZERO PUSH2 0x2DC6 JUMPI PUSH2 0x2DC5 PUSH2 0x2AC1 JUMP JUMPDEST JUMPDEST PUSH0 PUSH2 0x2DD3 DUP5 DUP3 DUP6 ADD PUSH2 0x2C7D JUMP JUMPDEST SWAP2 POP POP SWAP3 SWAP2 POP POP JUMP JUMPDEST PUSH0 PUSH0 PUSH1 0x40 DUP4 DUP6 SUB SLT ISZERO PUSH2 0x2DF2 JUMPI PUSH2 0x2DF1 PUSH2 0x2AC1 JUMP JUMPDEST JUMPDEST PUSH0 PUSH2 0x2DFF DUP6 DUP3 DUP7 ADD PUSH2 0x2C7D JUMP JUMPDEST SWAP3 POP POP PUSH1 0x20 PUSH2 0x2E10 DUP6 DUP3 DUP7 ADD PUSH2 0x2C00 JUMP JUMPDEST SWAP2 POP POP SWAP3 POP SWAP3 SWAP1 POP JUMP JUMPDEST PUSH0 PUSH0 PUSH1 0x40 DUP4 DUP6 SUB SLT ISZERO PUSH2 0x2E30 JUMPI PUSH2 0x2E2F PUSH2 0x2AC1 JUMP JUMPDEST JUMPDEST PUSH0 PUSH2 0x2E3D DUP6 DUP3 DUP7 ADD PUSH2 0x2C7D JUMP JUMPDEST SWAP3 POP POP PUSH1 0x20 PUSH2 0x2E4E DUP6 DUP3 DUP7 ADD PUSH2 0x2C7D JUMP JUMPDEST SWAP2 POP POP SWAP3 POP SWAP3 SWAP1 POP JUMP JUMPDEST PUSH32 0x4E487B7100000000000000000000000000000000000000000000000000000000 PUSH0 MSTORE PUSH1 0x11 PUSH1 0x4 MSTORE PUSH1 0x24 PUSH0 REVERT JUMPDEST PUSH0 PUSH2 0x2E8F DUP3 PUSH2 0x2B78 JUMP JUMPDEST SWAP2 POP PUSH2 0x2E9A DUP4 PUSH2 0x2B78 JUMP JUMPDEST SWAP3 POP DUP3 DUP3 ADD SWAP1 POP DUP1 DUP3 GT ISZERO PUSH2 0x2EB2 JUMPI PUSH2 0x2EB1 PUSH2 0x2E58 JUMP JUMPDEST JUMPDEST SWAP3 SWAP2 POP POP JUMP JUMPDEST PUSH0 PUSH2 0x2EC2 DUP3 PUSH2 0x2B78 JUMP JUMPDEST SWAP2 POP PUSH32 0xFFFFFFFFFFFFFFFFFFFFFFFFFFFFFFFFFFFFFFFFFFFFFFFFFFFFFFFFFFFFFFFF DUP3 SUB PUSH2 0x2EF4 JUMPI PUSH2 0x2EF3 PUSH2 0x2E58 JUMP JUMPDEST JUMPDEST PUSH1 0x1 DUP3 ADD SWAP1 POP SWAP2 SWAP1 POP JUMP JUMPDEST PUSH0 PUSH1 0x40 DUP3 ADD SWAP1 POP PUSH2 0x2F12 PUSH0 DUP4 ADD DUP6 PUSH2 0x2A99 JUMP JUMPDEST PUSH2 0x2F1F PUSH1 0x20 DUP4 ADD DUP5 PUSH2 0x2B81 JUMP JUMPDEST SWAP4 SWAP3 POP POP POP JUMP JUMPDEST PUSH2 0x2F2F DUP2 PUSH2 0x2B45 JUMP JUMPDEST DUP2 EQ PUSH2 0x2F39 JUMPI PUSH0 PUSH0 REVERT JUMPDEST POP JUMP JUMPDEST PUSH0 DUP2 MLOAD SWAP1 POP PUSH2 0x2F4A DUP2 PUSH2 0x2F26 JUMP JUMPDEST SWAP3 SWAP2 POP POP JUMP JUMPDEST PUSH0 PUSH1 0x20 DUP3 DUP5 SUB SLT ISZERO PUSH2 0x2F65 JUMPI PUSH2 0x2F64 PUSH2 0x2AC1 JUMP JUMPDEST JUMPDEST PUSH0 PUSH2 0x2F72 DUP5 DUP3 DUP6 ADD PUSH2 0x2F3C JUMP JUMPDEST SWAP2 POP POP SWAP3 SWAP2 POP POP JUMP JUMPDEST PUSH0 PUSH10 0xFFFFFFFFFFFFFFFFFFFF DUP3 AND SWAP1 POP SWAP2 SWAP1 POP JUMP JUMPDEST PUSH2 0x2F99 DUP2 PUSH2 0x2F7B JUMP JUMPDEST DUP2 EQ PUSH2 0x2FA3 JUMPI PUSH0 PUSH0 REVERT JUMPDEST POP JUMP JUMPDEST PUSH0 DUP2 MLOAD SWAP1 POP PUSH2 0x2FB4 DUP2 PUSH2 0x2F90 JUMP JUMPDEST SWAP3 SWAP2 POP POP JUMP JUMPDEST PUSH0 DUP2 SWAP1 POP SWAP2 SWAP1 POP JUMP JUMPDEST PUSH2 0x2FCC DUP2 PUSH2 0x2FBA JUMP JUMPDEST DUP2 EQ PUSH2 0x2FD6 JUMPI PUSH0 PUSH0 REVERT JUMPDEST POP JUMP JUMPDEST PUSH0 DUP2 MLOAD SWAP1 POP PUSH2 0x2FE7 DUP2 PUSH2 0x2FC3 JUMP JUMPDEST SWAP3 SWAP2 POP POP JUMP JUMPDEST PUSH0 DUP2 MLOAD SWAP1 POP PUSH2 0x2FFB DUP2 PUSH2 0x2CCF JUMP JUMPDEST SWAP3 SWAP2 POP POP JUMP JUMPDEST PUSH0 PUSH0 PUSH0 PUSH0 PUSH0 PUSH1 0xA0 DUP7 DUP9 SUB SLT ISZERO PUSH2 0x301A JUMPI PUSH2 0x3019 PUSH2 0x2AC1 JUMP JUMPDEST JUMPDEST PUSH0 PUSH2 0x3027 DUP9 DUP3 DUP10 ADD PUSH2 0x2FA6 JUMP JUMPDEST SWAP6 POP POP PUSH1 0x20 PUSH2 0x3038 DUP9 DUP3 DUP10 ADD PUSH2 0x2FD9 JUMP JUMPDEST SWAP5 POP POP PUSH1 0x40 PUSH2 0x3049 DUP9 DUP3 DUP10 ADD PUSH2 0x2FED JUMP JUMPDEST SWAP4 POP POP PUSH1 0x60 PUSH2 0x305A DUP9 DUP3 DUP10 ADD PUSH2 0x2FED JUMP JUMPDEST SWAP3 POP POP PUSH1 0x80 PUSH2 0x306B DUP9 DUP3 DUP10 ADD PUSH2 0x2FA6 JUMP JUMPDEST SWAP2 POP POP SWAP3 SWAP6 POP SWAP3 SWAP6 SWAP1 SWAP4 POP JUMP JUMPDEST PUSH0 PUSH2 0x3082 DUP3 PUSH2 0x2B78 JUMP JUMPDEST SWAP2 POP PUSH2 0x308D DUP4 PUSH2 0x2B78 JUMP JUMPDEST SWAP3 POP DUP3 DUP3 SUB SWAP1 POP DUP2 DUP2 GT ISZERO PUSH2 0x30A5 JUMPI PUSH2 0x30A4 PUSH2 0x2E58 JUMP JUMPDEST JUMPDEST SWAP3 SWAP2 POP POP JUMP JUMPDEST PUSH0 PUSH2 0x30B5 DUP3 PUSH2 0x2B78 JUMP JUMPDEST SWAP2 POP PUSH2 0x30C0 DUP4 PUSH2 0x2B78 JUMP JUMPDEST SWAP3 POP DUP3 DUP3 MUL PUSH2 0x30CE DUP2 PUSH2 0x2B78 JUMP JUMPDEST SWAP2 POP DUP3 DUP3 DIV DUP5 EQ DUP4 ISZERO OR PUSH2 0x30E5 JUMPI PUSH2 0x30E4 PUSH2 0x2E58 JUMP JUMPDEST JUMPDEST POP SWAP3 SWAP2 POP POP JUMP JUMPDEST PUSH32 0x4E487B7100000000000000000000000000000000000000000000000000000000 PUSH0 MSTORE PUSH1 0x12 PUSH1 0x4 MSTORE PUSH1 0x24 PUSH0 REVERT JUMPDEST PUSH0 PUSH2 0x3123 DUP3 PUSH2 0x2B78 JUMP JUMPDEST SWAP2 POP PUSH2 0x312E DUP4 PUSH2 0x2B78 JUMP JUMPDEST SWAP3 POP DUP3 PUSH2 0x313E JUMPI PUSH2 0x313D PUSH2 0x30EC JUMP JUMPDEST JUMPDEST DUP3 DUP3 DIV SWAP1 POP SWAP3 SWAP2 POP POP JUMP JUMPDEST PUSH0 PUSH1 0x60 DUP3 ADD SWAP1 POP PUSH2 0x315C PUSH0 DUP4 ADD DUP7 PUSH2 0x2A99 JUMP JUMPDEST PUSH2 0x3169 PUSH1 0x20 DUP4 ADD DUP6 PUSH2 0x2A99 JUMP JUMPDEST PUSH2 0x3176 PUSH1 0x40 DUP4 ADD DUP5 PUSH2 0x2B81 JUMP JUMPDEST SWAP5 SWAP4 POP POP POP POP JUMP JUMPDEST PUSH0 DUP2 SWAP1 POP SWAP3 SWAP2 POP POP JUMP JUMPDEST POP JUMP JUMPDEST PUSH0 PUSH2 0x3196 PUSH0 DUP4 PUSH2 0x317E JUMP JUMPDEST SWAP2 POP PUSH2 0x31A1 DUP3 PUSH2 0x3188 JUMP JUMPDEST PUSH0 DUP3 ADD SWAP1 POP SWAP2 SWAP1 POP JUMP JUMPDEST PUSH0 PUSH2 0x31B5 DUP3 PUSH2 0x318B JUMP JUMPDEST SWAP2 POP DUP2 SWAP1 POP SWAP2 SWAP1 POP JUMP JUMPDEST PUSH0 PUSH1 0x40 DUP3 ADD SWAP1 POP PUSH2 0x31D2 PUSH0 DUP4 ADD DUP6 PUSH2 0x2A99 JUMP JUMPDEST PUSH2 0x31DF PUSH1 0x20 DUP4 ADD DUP5 PUSH2 0x2C3F JUMP JUMPDEST SWAP4 SWAP3 POP POP POP JUMP JUMPDEST PUSH0 DUP3 DUP3 MSTORE PUSH1 0x20 DUP3 ADD SWAP1 POP SWAP3 SWAP2 POP POP JUMP JUMPDEST PUSH32 0x5265656E7472616E637947756172643A207265656E7472616E742063616C6C00 PUSH0 DUP3 ADD MSTORE POP JUMP JUMPDEST PUSH0 PUSH2 0x322A PUSH1 0x1F DUP4 PUSH2 0x31E6 JUMP JUMPDEST SWAP2 POP PUSH2 0x3235 DUP3 PUSH2 0x31F6 JUMP JUMPDEST PUSH1 0x20 DUP3 ADD SWAP1 POP SWAP2 SWAP1 POP JUMP JUMPDEST PUSH0 PUSH1 0x20 DUP3 ADD SWAP1 POP DUP2 DUP2 SUB PUSH0 DUP4 ADD MSTORE PUSH2 0x3257 DUP2 PUSH2 0x321E JUMP JUMPDEST SWAP1 POP SWAP2 SWAP1 POP JUMP INVALID LOG2 PUSH5 0x6970667358 0x22 SLT KECCAK256 0x28 0xBD 0xBE DUP12 DUP9 LT 0x2A DUP14 RJUMPI 0x5C11 CODECOPY CALLVALUE DUP7 SWAP7 DIV PUSH5 0xDEE43D89BF PUSH10 0x217CBD02903FBCF0B464 PUSH20 0x6F6C634300081E00330000000000000000000000 "
				},
				"gasEstimates": {
					"creation": {
						"codeDepositCost": "2589600",
						"executionCost": "infinite",
						"totalCost": "infinite"
					},
					"external": {
						"": "463",
						"DEFAULT_ADMIN_ROLE()": "440",
						"FEED_MANAGER()": "392",
						"PAUSER()": "369",
						"aprobarMontoUSDC(uint256)": "infinite",
						"balanceOf(address,address)": "infinite",
						"darRol(address,bytes32)": "infinite",
						"depositarETH()": "infinite",
						"depositarUSDC(uint256)": "infinite",
						"despausarContrato()": "infinite",
						"estadoDelContrato()": "infinite",
						"getRoleAdmin(bytes32)": "infinite",
						"grantRole(bytes32,address)": "infinite",
						"hasRole(bytes32,address)": "3233",
						"owner()": "2605",
						"pausarContrato()": "infinite",
						"paused()": "2592",
						"renounceOwnership()": "infinite",
						"renounceRole(bytes32,address)": "infinite",
						"retirarETH(uint256)": "infinite",
						"retirarUSDC(uint256)": "infinite",
						"revocarRol(address,bytes32)": "infinite",
						"revokeRole(bytes32,address)": "infinite",
						"s_feed()": "infinite",
						"setFeeds(address)": "infinite",
						"supportsInterface(bytes4)": "806",
						"transferOwnership(address)": "infinite",
						"transferirOwner(address)": "infinite",
						"verBoveda()": "infinite",
						"verSaldoETH()": "2695",
						"verSaldoUSDC()": "infinite",
						"verTotalContrato()": "2499",
						"verTotalDepositos()": "2542",
						"verTotalRetiros()": "2477"
					},
					"internal": {
						"_retirarFondosETH(uint256)": "infinite",
						"_retirarFondosUSDC(uint256)": "infinite",
						"chainLinkFeeds()": "infinite",
						"convertirEthEnUSD(uint256)": "infinite"
					}
				},
				"methodIdentifiers": {
					"DEFAULT_ADMIN_ROLE()": "a217fddf",
					"FEED_MANAGER()": "cb398eb3",
					"PAUSER()": "d9dc8694",
					"aprobarMontoUSDC(uint256)": "3d6da78e",
					"balanceOf(address,address)": "f7888aec",
					"darRol(address,bytes32)": "ccd6b020",
					"depositarETH()": "16a1930f",
					"depositarUSDC(uint256)": "698b7241",
					"despausarContrato()": "38d5c916",
					"estadoDelContrato()": "0594cc69",
					"getRoleAdmin(bytes32)": "248a9ca3",
					"grantRole(bytes32,address)": "2f2ff15d",
					"hasRole(bytes32,address)": "91d14854",
					"owner()": "8da5cb5b",
					"pausarContrato()": "1a003ecb",
					"paused()": "5c975abb",
					"renounceOwnership()": "715018a6",
					"renounceRole(bytes32,address)": "36568abe",
					"retirarETH(uint256)": "82fe54b5",
					"retirarUSDC(uint256)": "931fb90e",
					"revocarRol(address,bytes32)": "f0e00dc8",
					"revokeRole(bytes32,address)": "d547741f",
					"s_feed()": "6f05c64c",
					"setFeeds(address)": "7dc532c5",
					"supportsInterface(bytes4)": "01ffc9a7",
					"transferOwnership(address)": "f2fde38b",
					"transferirOwner(address)": "8648840a",
					"verBoveda()": "6900670c",
					"verSaldoETH()": "779bb136",
					"verSaldoUSDC()": "939495bd",
					"verTotalContrato()": "93295c1c",
					"verTotalDepositos()": "f39b1809",
					"verTotalRetiros()": "c6aca33c"
				}
			},
			"storageLayout": {
				"storage": [
					{
						"astId": 674,
						"contract": "contracts/KipuBank.sol:KipuBank",
						"label": "_status",
						"offset": 0,
						"slot": "0",
						"type": "t_uint256"
					},
					{
						"astId": 434,
						"contract": "contracts/KipuBank.sol:KipuBank",
						"label": "_owner",
						"offset": 0,
						"slot": "1",
						"type": "t_address"
					},
					{
						"astId": 1309,
						"contract": "contracts/KipuBank.sol:KipuBank",
						"label": "_paused",
						"offset": 20,
						"slot": "1",
						"type": "t_bool"
					},
					{
						"astId": 73,
						"contract": "contracts/KipuBank.sol:KipuBank",
						"label": "_roles",
						"offset": 0,
						"slot": "2",
						"type": "t_mapping(t_bytes32,t_struct(RoleData)68_storage)"
					},
					{
						"astId": 1486,
						"contract": "contracts/KipuBank.sol:KipuBank",
						"label": "s_feed",
						"offset": 0,
						"slot": "3",
						"type": "t_contract(AggregatorV3Interface)45"
					},
					{
						"astId": 1508,
						"contract": "contracts/KipuBank.sol:KipuBank",
						"label": "_depositos",
						"offset": 0,
						"slot": "4",
						"type": "t_uint256"
					},
					{
						"astId": 1512,
						"contract": "contracts/KipuBank.sol:KipuBank",
						"label": "_retiros",
						"offset": 0,
						"slot": "5",
						"type": "t_uint256"
					},
					{
						"astId": 1516,
						"contract": "contracts/KipuBank.sol:KipuBank",
						"label": "_totalContrato",
						"offset": 0,
						"slot": "6",
						"type": "t_uint256"
					},
					{
						"astId": 1523,
						"contract": "contracts/KipuBank.sol:KipuBank",
						"label": "_cuentasMultiToken",
						"offset": 0,
						"slot": "7",
						"type": "t_mapping(t_address,t_mapping(t_address,t_uint256))"
					}
				],
				"types": {
					"t_address": {
						"encoding": "inplace",
						"label": "address",
						"numberOfBytes": "20"
					},
					"t_bool": {
						"encoding": "inplace",
						"label": "bool",
						"numberOfBytes": "1"
					},
					"t_bytes32": {
						"encoding": "inplace",
						"label": "bytes32",
						"numberOfBytes": "32"
					},
					"t_contract(AggregatorV3Interface)45": {
						"encoding": "inplace",
						"label": "contract AggregatorV3Interface",
						"numberOfBytes": "20"
					},
					"t_mapping(t_address,t_bool)": {
						"encoding": "mapping",
						"key": "t_address",
						"label": "mapping(address => bool)",
						"numberOfBytes": "32",
						"value": "t_bool"
					},
					"t_mapping(t_address,t_mapping(t_address,t_uint256))": {
						"encoding": "mapping",
						"key": "t_address",
						"label": "mapping(address => mapping(address => uint256))",
						"numberOfBytes": "32",
						"value": "t_mapping(t_address,t_uint256)"
					},
					"t_mapping(t_address,t_uint256)": {
						"encoding": "mapping",
						"key": "t_address",
						"label": "mapping(address => uint256)",
						"numberOfBytes": "32",
						"value": "t_uint256"
					},
					"t_mapping(t_bytes32,t_struct(RoleData)68_storage)": {
						"encoding": "mapping",
						"key": "t_bytes32",
						"label": "mapping(bytes32 => struct AccessControl.RoleData)",
						"numberOfBytes": "32",
						"value": "t_struct(RoleData)68_storage"
					},
					"t_struct(RoleData)68_storage": {
						"encoding": "inplace",
						"label": "struct AccessControl.RoleData",
						"members": [
							{
								"astId": 65,
								"contract": "contracts/KipuBank.sol:KipuBank",
								"label": "hasRole",
								"offset": 0,
								"slot": "0",
								"type": "t_mapping(t_address,t_bool)"
							},
							{
								"astId": 67,
								"contract": "contracts/KipuBank.sol:KipuBank",
								"label": "adminRole",
								"offset": 0,
								"slot": "1",
								"type": "t_bytes32"
							}
						],
						"numberOfBytes": "64"
					},
					"t_uint256": {
						"encoding": "inplace",
						"label": "uint256",
						"numberOfBytes": "32"
					}
				}
			},
			"userdoc": {
				"errors": {
					"KipuBank_DireccionInvalida()": [
						{
							"notice": "Error por querer hacer un \"set\" de una dirección invalida"
						}
					],
					"KipuBank_ExtraccionRechazada(address,uint256)": [
						{
							"notice": "Error de extraccion"
						}
					],
					"KipuBank_FeedInvalido(address)": [
						{
							"notice": "Error por querer ingresar un data feed invalido"
						}
					],
					"KipuBank_InicializacionInvalida(uint256,uint256)": [
						{
							"notice": "Error de umbral mayor al limite"
						}
					],
					"KipuBank_LimiteExcedido(uint256)": [
						{
							"notice": "Error por sobrepasarse del limite"
						}
					],
					"KipuBank_LimiteInvalido(uint256)": [
						{
							"notice": "Error por limite invalido"
						}
					],
					"KipuBank_MontoCero(address)": [
						{
							"notice": "Error monto cero"
						}
					],
					"KipuBank_NoAutorizado(address)": [
						{
							"notice": "Error cuando alguien no autorizado quiere acceder a una función"
						}
					],
					"KipuBank_OperacionNoPermitida(address)": [
						{
							"notice": "Error por operacion no permitida"
						}
					],
					"KipuBank_OraculoComprometido(uint256)": [
						{
							"notice": "Error por óraculo dando un precio equivoco"
						}
					],
					"KipuBank_PrecioDesactualizado(uint256)": [
						{
							"notice": "Error por precio desactualizado"
						}
					],
					"KipuBank_SaldoInsuficiente(address,uint256)": [
						{
							"notice": "Error por saldo insuficiente"
						}
					],
					"KipuBank_UmbralExcedido(uint256)": [
						{
							"notice": "Error por umbral excedido"
						}
					],
					"KipuBank_UmbralInvalido(uint256)": [
						{
							"notice": "Error por umbral invalido"
						}
					]
				},
				"events": {
					"KipuBank_ContratoDespausado(address,uint256)": {
						"notice": "Evento para despausar el contrato"
					},
					"KipuBank_ContratoPausado(address,uint256)": {
						"notice": "Evento para pausar el contrato"
					},
					"KipuBank_DepositoRealizado(address,uint256)": {
						"notice": "Evento para depositos realizado exitosamente"
					},
					"KipuBank_ExtraccionRealizada(address,uint256)": {
						"notice": "Evento para extracciones realizadas exitosamente"
					},
					"KipuBank_FeedActualizado(address,address)": {
						"notice": "Evento para la actualización del feed"
					},
					"KipuBank_MontoAprobado(address,uint256)": {
						"notice": "Evento para aprobar depósito de monto en USDC"
					},
					"KipuBank_OwnerTransferido(address,address)": {
						"notice": "Evento para cuando el owner del contrato es transferido"
					},
					"KipuBank_RolDado(address,bytes32)": {
						"notice": "Evento para cuando un rol es otorgado"
					},
					"KipuBank_RolRevocado(address,bytes32)": {
						"notice": "Evento para cuando un rol es revocado"
					}
				},
				"kind": "user",
				"methods": {
					"FEED_MANAGER()": {
						"notice": "Rol de Manager de los data feeds"
					},
					"PAUSER()": {
						"notice": "Rol de pausador del contrato"
					},
					"aprobarMontoUSDC(uint256)": {
						"notice": "Función para aprobar el depósito de un monto en KipuBank"
					},
					"balanceOf(address,address)": {
						"notice": "Función para ver el saldo por token del titular"
					},
					"constructor": {
						"notice": "Constructor del contrato"
					},
					"darRol(address,bytes32)": {
						"notice": "Función para dar un rol a una cuenta"
					},
					"depositarETH()": {
						"notice": "Funcion para depositar en la boveda"
					},
					"depositarUSDC(uint256)": {
						"notice": "Funcion para depositar en la boveda"
					},
					"despausarContrato()": {
						"notice": "Función para despausar el contrato"
					},
					"estadoDelContrato()": {
						"notice": "Función para ver el estado del contrato"
					},
					"pausarContrato()": {
						"notice": "Función para pausar el contrato"
					},
					"retirarETH(uint256)": {
						"notice": "Funcion externa para realizar el retiro de saldo en ETH"
					},
					"retirarUSDC(uint256)": {
						"notice": "Funcion externa para realizar el retiro de saldo en USDC"
					},
					"revocarRol(address,bytes32)": {
						"notice": "Función para revocar el rol a una cuenta"
					},
					"s_feed()": {
						"notice": "Interfaz publica del data feed"
					},
					"setFeeds(address)": {
						"notice": "Función para cambiar el data feeds"
					},
					"supportsInterface(bytes4)": {
						"notice": "Override requerido por Solidity para la múltiple herencia"
					},
					"transferirOwner(address)": {
						"notice": "Función para traspasar el contrato a otro dueño"
					},
					"verBoveda()": {
						"notice": "Funcion para ver el saldo total guardado en el boveda en USD"
					},
					"verSaldoETH()": {
						"notice": "Función para el saldo en ETH del titular"
					},
					"verSaldoUSDC()": {
						"notice": "Función para ver el saldo en USDC del titular"
					},
					"verTotalContrato()": {
						"notice": "Funcion para ver el saldo total del contrato en USD"
					},
					"verTotalDepositos()": {
						"notice": "Funcion para ver la cantidad total de los depositos realizados"
					},
					"verTotalRetiros()": {
						"notice": "Funcion para ver la cantidad total de los retiros realizados"
					}
				},
				"version": 1
			}
		}
	}
}