{
	"contracts/KipuBank.sol": {
		"KipuBank": {
			"abi": [
				{
					"inputs": [
						{
							"internalType": "uint256",
							"name": "_limite",
							"type": "uint256"
						},
						{
							"internalType": "uint256",
							"name": "_umbral",
							"type": "uint256"
						}
					],
					"stateMutability": "nonpayable",
					"type": "constructor"
				},
				{
					"inputs": [
						{
							"internalType": "address",
							"name": "titular",
							"type": "address"
						},
						{
							"internalType": "uint256",
							"name": "monto",
							"type": "uint256"
						}
					],
					"name": "KipuBank_ExtraccionRechazada",
					"type": "error"
				},
				{
					"inputs": [
						{
							"internalType": "uint256",
							"name": "limite",
							"type": "uint256"
						},
						{
							"internalType": "uint256",
							"name": "umbral",
							"type": "uint256"
						}
					],
					"name": "KipuBank_InicializacionInvalida",
					"type": "error"
				},
				{
					"inputs": [
						{
							"internalType": "uint256",
							"name": "monto",
							"type": "uint256"
						}
					],
					"name": "KipuBank_LimiteExcedido",
					"type": "error"
				},
				{
					"inputs": [
						{
							"internalType": "uint256",
							"name": "limite",
							"type": "uint256"
						}
					],
					"name": "KipuBank_LimiteInvalido",
					"type": "error"
				},
				{
					"inputs": [
						{
							"internalType": "address",
							"name": "titular",
							"type": "address"
						}
					],
					"name": "KipuBank_MontoCero",
					"type": "error"
				},
				{
					"inputs": [
						{
							"internalType": "address",
							"name": "titular",
							"type": "address"
						}
					],
					"name": "KipuBank_OperacionNoPermitida",
					"type": "error"
				},
				{
					"inputs": [
						{
							"internalType": "address",
							"name": "titular",
							"type": "address"
						},
						{
							"internalType": "uint256",
							"name": "monto",
							"type": "uint256"
						}
					],
					"name": "KipuBank_SaldoInsuficiente",
					"type": "error"
				},
				{
					"inputs": [
						{
							"internalType": "uint256",
							"name": "monto",
							"type": "uint256"
						}
					],
					"name": "KipuBank_UmbralExcedido",
					"type": "error"
				},
				{
					"inputs": [
						{
							"internalType": "uint256",
							"name": "umbral",
							"type": "uint256"
						}
					],
					"name": "KipuBank_UmbralInvalido",
					"type": "error"
				},
				{
					"anonymous": false,
					"inputs": [
						{
							"indexed": false,
							"internalType": "address",
							"name": "titular",
							"type": "address"
						},
						{
							"indexed": false,
							"internalType": "uint256",
							"name": "monto",
							"type": "uint256"
						}
					],
					"name": "KipuBank_DepositoRealizado",
					"type": "event"
				},
				{
					"anonymous": false,
					"inputs": [
						{
							"indexed": false,
							"internalType": "address",
							"name": "titular",
							"type": "address"
						},
						{
							"indexed": false,
							"internalType": "uint256",
							"name": "monto",
							"type": "uint256"
						}
					],
					"name": "KipuBank_ExtraccionRealizada",
					"type": "event"
				},
				{
					"stateMutability": "payable",
					"type": "fallback"
				},
				{
					"inputs": [],
					"name": "depositarEnBoveda",
					"outputs": [],
					"stateMutability": "payable",
					"type": "function"
				},
				{
					"inputs": [
						{
							"internalType": "uint256",
							"name": "_monto",
							"type": "uint256"
						}
					],
					"name": "retirarDeBoveda",
					"outputs": [],
					"stateMutability": "nonpayable",
					"type": "function"
				},
				{
					"inputs": [],
					"name": "verBoveda",
					"outputs": [
						{
							"internalType": "uint256",
							"name": "monto_",
							"type": "uint256"
						}
					],
					"stateMutability": "view",
					"type": "function"
				},
				{
					"inputs": [],
					"name": "verTotalContrato",
					"outputs": [
						{
							"internalType": "uint256",
							"name": "",
							"type": "uint256"
						}
					],
					"stateMutability": "view",
					"type": "function"
				},
				{
					"inputs": [],
					"name": "verTotalDepositos",
					"outputs": [
						{
							"internalType": "uint256",
							"name": "",
							"type": "uint256"
						}
					],
					"stateMutability": "view",
					"type": "function"
				},
				{
					"inputs": [],
					"name": "verTotalRetiros",
					"outputs": [
						{
							"internalType": "uint256",
							"name": "",
							"type": "uint256"
						}
					],
					"stateMutability": "view",
					"type": "function"
				},
				{
					"stateMutability": "payable",
					"type": "receive"
				}
			],
			"devdoc": {
				"errors": {
					"KipuBank_ExtraccionRechazada(address,uint256)": [
						{
							"params": {
								"monto": "monto a extraer de la boveda",
								"titular": "titular de la cuenta a realizar la extracción"
							}
						}
					],
					"KipuBank_InicializacionInvalida(uint256,uint256)": [
						{
							"params": {
								"limite": "limite del contrato",
								"umbral": "umbral del contrato"
							}
						}
					],
					"KipuBank_LimiteExcedido(uint256)": [
						{
							"params": {
								"monto": "monto que excede el limite a depositar"
							}
						}
					],
					"KipuBank_LimiteInvalido(uint256)": [
						{
							"params": {
								"limite": "limite que es invalido"
							}
						}
					],
					"KipuBank_MontoCero(address)": [
						{
							"params": {
								"titular": "titular que emite una transaccion con valor nulo"
							}
						}
					],
					"KipuBank_OperacionNoPermitida(address)": [
						{
							"params": {
								"titular": "titular que realizo la operacion no permitida"
							}
						}
					],
					"KipuBank_SaldoInsuficiente(address,uint256)": [
						{
							"params": {
								"monto": "monto a retirar",
								"titular": "titular con saldo insuficiente"
							}
						}
					],
					"KipuBank_UmbralExcedido(uint256)": [
						{
							"params": {
								"monto": "que excede el umbral establecido"
							}
						}
					],
					"KipuBank_UmbralInvalido(uint256)": [
						{
							"params": {
								"umbral": "umbral que es invalido"
							}
						}
					]
				},
				"events": {
					"KipuBank_DepositoRealizado(address,uint256)": {
						"params": {
							"monto": "monto que se desea depositar",
							"titular": "titular que realiza el deposito"
						}
					},
					"KipuBank_ExtraccionRealizada(address,uint256)": {
						"params": {
							"monto": "monto que se desea extraer",
							"titular": "titular que desea realizar la extracción"
						}
					}
				},
				"kind": "dev",
				"methods": {
					"constructor": {
						"details": "Se deben generar el limite, umbral y status al momento de desplegar el contrato",
						"params": {
							"_limite": "limite global que se permite por transaccion",
							"_umbral": "umbral de limite de retiros"
						}
					},
					"depositarEnBoveda()": {
						"details": "Es payable y usa el modificador de verificarDepositos"
					},
					"retirarDeBoveda(uint256)": {
						"params": {
							"_monto": "es el monto a retirar de la boveda"
						}
					},
					"verBoveda()": {
						"returns": {
							"monto_": "devuelve el saldo depositado por cada address"
						}
					},
					"verTotalContrato()": {
						"returns": {
							"_0": "Devuelve el saldo del contrato"
						}
					},
					"verTotalDepositos()": {
						"returns": {
							"_0": "Devuelve la cantidad de depositos"
						}
					},
					"verTotalRetiros()": {
						"returns": {
							"_0": "Devuelve la cantidad de retiros"
						}
					}
				},
				"version": 1
			},
			"evm": {
				"assembly": "    /* \"contracts/KipuBank.sol\":324:6864  contract KipuBank is ReentrancyGuard{... */\n  mstore(0x40, 0xc0)\n    /* \"contracts/KipuBank.sol\":591:592  0 */\n  0x00\n    /* \"contracts/KipuBank.sol\":565:592  uint private _depositos = 0 */\n  0x01\n  sstore\n    /* \"contracts/KipuBank.sol\":671:672  0 */\n  0x00\n    /* \"contracts/KipuBank.sol\":647:672  uint private _retiros = 0 */\n  0x02\n  sstore\n    /* \"contracts/KipuBank.sol\":765:766  0 */\n  0x00\n    /* \"contracts/KipuBank.sol\":735:766  uint private _totalContrato = 0 */\n  0x03\n  sstore\n    /* \"contracts/KipuBank.sol\":3191:3511  constructor(uint _limite, uint _umbral) {... */\n  callvalue\n  dup1\n  iszero\n  tag_1\n  jumpi\n  revert(0x00, 0x00)\ntag_1:\n  pop\n  mload(0x40)\n  sub(codesize, bytecodeSize)\n  dup1\n  bytecodeSize\n  dup4\n  codecopy\n  dup2\n  dup2\n  add\n  0x40\n  mstore\n  dup2\n  add\n  swap1\n  tag_2\n  swap2\n  swap1\n  tag_3\n  jump\t// in\ntag_2:\n    /* \"@openzeppelin/contracts/security/ReentrancyGuard.sol\":1716:1717  1 */\n  0x01\n    /* \"@openzeppelin/contracts/security/ReentrancyGuard.sol\":1821:1828  _status */\n  0x00\n    /* \"@openzeppelin/contracts/security/ReentrancyGuard.sol\":1821:1843  _status = _NOT_ENTERED */\n  dup2\n  swap1\n  sstore\n  pop\n    /* \"contracts/KipuBank.sol\":3255:3256  0 */\n  0x00\n    /* \"contracts/KipuBank.sol\":3244:3251  _limite */\n  dup3\n    /* \"contracts/KipuBank.sol\":3244:3256  _limite == 0 */\n  sub\n    /* \"contracts/KipuBank.sol\":3241:3297  if(_limite == 0) revert KipuBank_LimiteInvalido(_limite) */\n  tag_8\n  jumpi\n    /* \"contracts/KipuBank.sol\":3289:3296  _limite */\n  dup2\n    /* \"contracts/KipuBank.sol\":3265:3297  KipuBank_LimiteInvalido(_limite) */\n  mload(0x40)\n  0xf1fdfd2b00000000000000000000000000000000000000000000000000000000\n  dup2\n  mstore\n  0x04\n  add\n  tag_9\n  swap2\n  swap1\n  tag_10\n  jump\t// in\ntag_9:\n  mload(0x40)\n  dup1\n  swap2\n  sub\n  swap1\n  revert\n    /* \"contracts/KipuBank.sol\":3241:3297  if(_limite == 0) revert KipuBank_LimiteInvalido(_limite) */\ntag_8:\n    /* \"contracts/KipuBank.sol\":3321:3322  0 */\n  0x00\n    /* \"contracts/KipuBank.sol\":3310:3317  _umbral */\n  dup2\n    /* \"contracts/KipuBank.sol\":3310:3322  _umbral == 0 */\n  sub\n    /* \"contracts/KipuBank.sol\":3307:3363  if(_umbral == 0) revert KipuBank_UmbralInvalido(_umbral) */\n  tag_11\n  jumpi\n    /* \"contracts/KipuBank.sol\":3355:3362  _umbral */\n  dup1\n    /* \"contracts/KipuBank.sol\":3331:3363  KipuBank_UmbralInvalido(_umbral) */\n  mload(0x40)\n  0x5052fe8e00000000000000000000000000000000000000000000000000000000\n  dup2\n  mstore\n  0x04\n  add\n  tag_12\n  swap2\n  swap1\n  tag_10\n  jump\t// in\ntag_12:\n  mload(0x40)\n  dup1\n  swap2\n  sub\n  swap1\n  revert\n    /* \"contracts/KipuBank.sol\":3307:3363  if(_umbral == 0) revert KipuBank_UmbralInvalido(_umbral) */\ntag_11:\n    /* \"contracts/KipuBank.sol\":3386:3393  _limite */\n  dup2\n    /* \"contracts/KipuBank.sol\":3376:3383  _umbral */\n  dup2\n    /* \"contracts/KipuBank.sol\":3376:3393  _umbral > _limite */\n  gt\n    /* \"contracts/KipuBank.sol\":3373:3451  if(_umbral > _limite) revert KipuBank_InicializacionInvalida(_limite, _umbral) */\n  iszero\n  tag_13\n  jumpi\n    /* \"contracts/KipuBank.sol\":3434:3441  _limite */\n  dup2\n    /* \"contracts/KipuBank.sol\":3443:3450  _umbral */\n  dup2\n    /* \"contracts/KipuBank.sol\":3402:3451  KipuBank_InicializacionInvalida(_limite, _umbral) */\n  mload(0x40)\n  0x3122626300000000000000000000000000000000000000000000000000000000\n  dup2\n  mstore\n  0x04\n  add\n  tag_14\n  swap3\n  swap2\n  swap1\n  tag_15\n  jump\t// in\ntag_14:\n  mload(0x40)\n  dup1\n  swap2\n  sub\n  swap1\n  revert\n    /* \"contracts/KipuBank.sol\":3373:3451  if(_umbral > _limite) revert KipuBank_InicializacionInvalida(_limite, _umbral) */\ntag_13:\n    /* \"contracts/KipuBank.sol\":3471:3478  _limite */\n  dup2\n    /* \"contracts/KipuBank.sol\":3461:3478  bankCap = _limite */\n  0xa0\n  dup2\n  dup2\n  mstore\n  pop\n  pop\n    /* \"contracts/KipuBank.sol\":3497:3504  _umbral */\n  dup1\n    /* \"contracts/KipuBank.sol\":3488:3504  umbral = _umbral */\n  0x80\n  dup2\n  dup2\n  mstore\n  pop\n  pop\n    /* \"contracts/KipuBank.sol\":3191:3511  constructor(uint _limite, uint _umbral) {... */\n  pop\n  pop\n    /* \"contracts/KipuBank.sol\":324:6864  contract KipuBank is ReentrancyGuard{... */\n  jump(tag_16)\n    /* \"#utility.yul\":88:205   */\ntag_18:\n    /* \"#utility.yul\":197:198   */\n  0x00\n    /* \"#utility.yul\":194:195   */\n  0x00\n    /* \"#utility.yul\":187:199   */\n  revert\n    /* \"#utility.yul\":334:411   */\ntag_20:\n    /* \"#utility.yul\":371:378   */\n  0x00\n    /* \"#utility.yul\":400:405   */\n  dup2\n    /* \"#utility.yul\":389:405   */\n  swap1\n  pop\n    /* \"#utility.yul\":334:411   */\n  swap2\n  swap1\n  pop\n  jump\t// out\n    /* \"#utility.yul\":417:539   */\ntag_21:\n    /* \"#utility.yul\":490:514   */\n  tag_30\n    /* \"#utility.yul\":508:513   */\n  dup2\n    /* \"#utility.yul\":490:514   */\n  tag_20\n  jump\t// in\ntag_30:\n    /* \"#utility.yul\":483:488   */\n  dup2\n    /* \"#utility.yul\":480:515   */\n  eq\n    /* \"#utility.yul\":470:533   */\n  tag_31\n  jumpi\n    /* \"#utility.yul\":529:530   */\n  0x00\n    /* \"#utility.yul\":526:527   */\n  0x00\n    /* \"#utility.yul\":519:531   */\n  revert\n    /* \"#utility.yul\":470:533   */\ntag_31:\n    /* \"#utility.yul\":417:539   */\n  pop\n  jump\t// out\n    /* \"#utility.yul\":545:688   */\ntag_22:\n    /* \"#utility.yul\":602:607   */\n  0x00\n    /* \"#utility.yul\":633:639   */\n  dup2\n    /* \"#utility.yul\":627:640   */\n  mload\n    /* \"#utility.yul\":618:640   */\n  swap1\n  pop\n    /* \"#utility.yul\":649:682   */\n  tag_33\n    /* \"#utility.yul\":676:681   */\n  dup2\n    /* \"#utility.yul\":649:682   */\n  tag_21\n  jump\t// in\ntag_33:\n    /* \"#utility.yul\":545:688   */\n  swap3\n  swap2\n  pop\n  pop\n  jump\t// out\n    /* \"#utility.yul\":694:1201   */\ntag_3:\n    /* \"#utility.yul\":773:779   */\n  0x00\n    /* \"#utility.yul\":781:787   */\n  0x00\n    /* \"#utility.yul\":830:832   */\n  0x40\n    /* \"#utility.yul\":818:827   */\n  dup4\n    /* \"#utility.yul\":809:816   */\n  dup6\n    /* \"#utility.yul\":805:828   */\n  sub\n    /* \"#utility.yul\":801:833   */\n  slt\n    /* \"#utility.yul\":798:917   */\n  iszero\n  tag_35\n  jumpi\n    /* \"#utility.yul\":836:915   */\n  tag_36\n  tag_18\n  jump\t// in\ntag_36:\n    /* \"#utility.yul\":798:917   */\ntag_35:\n    /* \"#utility.yul\":956:957   */\n  0x00\n    /* \"#utility.yul\":981:1045   */\n  tag_37\n    /* \"#utility.yul\":1037:1044   */\n  dup6\n    /* \"#utility.yul\":1028:1034   */\n  dup3\n    /* \"#utility.yul\":1017:1026   */\n  dup7\n    /* \"#utility.yul\":1013:1035   */\n  add\n    /* \"#utility.yul\":981:1045   */\n  tag_22\n  jump\t// in\ntag_37:\n    /* \"#utility.yul\":971:1045   */\n  swap3\n  pop\n    /* \"#utility.yul\":927:1055   */\n  pop\n    /* \"#utility.yul\":1094:1096   */\n  0x20\n    /* \"#utility.yul\":1120:1184   */\n  tag_38\n    /* \"#utility.yul\":1176:1183   */\n  dup6\n    /* \"#utility.yul\":1167:1173   */\n  dup3\n    /* \"#utility.yul\":1156:1165   */\n  dup7\n    /* \"#utility.yul\":1152:1174   */\n  add\n    /* \"#utility.yul\":1120:1184   */\n  tag_22\n  jump\t// in\ntag_38:\n    /* \"#utility.yul\":1110:1184   */\n  swap2\n  pop\n    /* \"#utility.yul\":1065:1194   */\n  pop\n    /* \"#utility.yul\":694:1201   */\n  swap3\n  pop\n  swap3\n  swap1\n  pop\n  jump\t// out\n    /* \"#utility.yul\":1207:1325   */\ntag_23:\n    /* \"#utility.yul\":1294:1318   */\n  tag_40\n    /* \"#utility.yul\":1312:1317   */\n  dup2\n    /* \"#utility.yul\":1294:1318   */\n  tag_20\n  jump\t// in\ntag_40:\n    /* \"#utility.yul\":1289:1292   */\n  dup3\n    /* \"#utility.yul\":1282:1319   */\n  mstore\n    /* \"#utility.yul\":1207:1325   */\n  pop\n  pop\n  jump\t// out\n    /* \"#utility.yul\":1331:1553   */\ntag_10:\n    /* \"#utility.yul\":1424:1428   */\n  0x00\n    /* \"#utility.yul\":1462:1464   */\n  0x20\n    /* \"#utility.yul\":1451:1460   */\n  dup3\n    /* \"#utility.yul\":1447:1465   */\n  add\n    /* \"#utility.yul\":1439:1465   */\n  swap1\n  pop\n    /* \"#utility.yul\":1475:1546   */\n  tag_42\n    /* \"#utility.yul\":1543:1544   */\n  0x00\n    /* \"#utility.yul\":1532:1541   */\n  dup4\n    /* \"#utility.yul\":1528:1545   */\n  add\n    /* \"#utility.yul\":1519:1525   */\n  dup5\n    /* \"#utility.yul\":1475:1546   */\n  tag_23\n  jump\t// in\ntag_42:\n    /* \"#utility.yul\":1331:1553   */\n  swap3\n  swap2\n  pop\n  pop\n  jump\t// out\n    /* \"#utility.yul\":1559:1891   */\ntag_15:\n    /* \"#utility.yul\":1680:1684   */\n  0x00\n    /* \"#utility.yul\":1718:1720   */\n  0x40\n    /* \"#utility.yul\":1707:1716   */\n  dup3\n    /* \"#utility.yul\":1703:1721   */\n  add\n    /* \"#utility.yul\":1695:1721   */\n  swap1\n  pop\n    /* \"#utility.yul\":1731:1802   */\n  tag_44\n    /* \"#utility.yul\":1799:1800   */\n  0x00\n    /* \"#utility.yul\":1788:1797   */\n  dup4\n    /* \"#utility.yul\":1784:1801   */\n  add\n    /* \"#utility.yul\":1775:1781   */\n  dup6\n    /* \"#utility.yul\":1731:1802   */\n  tag_23\n  jump\t// in\ntag_44:\n    /* \"#utility.yul\":1812:1884   */\n  tag_45\n    /* \"#utility.yul\":1880:1882   */\n  0x20\n    /* \"#utility.yul\":1869:1878   */\n  dup4\n    /* \"#utility.yul\":1865:1883   */\n  add\n    /* \"#utility.yul\":1856:1862   */\n  dup5\n    /* \"#utility.yul\":1812:1884   */\n  tag_23\n  jump\t// in\ntag_45:\n    /* \"#utility.yul\":1559:1891   */\n  swap4\n  swap3\n  pop\n  pop\n  pop\n  jump\t// out\n    /* \"contracts/KipuBank.sol\":324:6864  contract KipuBank is ReentrancyGuard{... */\ntag_16:\n  mload(0x80)\n  mload(0xa0)\n  codecopy(0x00, dataOffset(sub_0), dataSize(sub_0))\n  0x00\n  assignImmutable(\"0x6dbb33232cde86c8a04f90a8bed9fc1c5ef520188a14538d96eb100d69bc2a94\")\n  0x00\n  assignImmutable(\"0x8fd0324b6a5df169e0aa0c7938ef0034d0e971a998f91b36eba211882d3617b1\")\n  return(0x00, dataSize(sub_0))\nstop\n\nsub_0: assembly {\n        /* \"contracts/KipuBank.sol\":324:6864  contract KipuBank is ReentrancyGuard{... */\n      mstore(0x40, 0x80)\n      jumpi(tag_1, lt(calldatasize, 0x04))\n      shr(0xe0, calldataload(0x00))\n      dup1\n      0x6900670c\n      eq\n      tag_3\n      jumpi\n      dup1\n      0x8debc4a8\n      eq\n      tag_4\n      jumpi\n      dup1\n      0x93295c1c\n      eq\n      tag_5\n      jumpi\n      dup1\n      0xacaf5a14\n      eq\n      tag_6\n      jumpi\n      dup1\n      0xc6aca33c\n      eq\n      tag_7\n      jumpi\n      dup1\n      0xf39b1809\n      eq\n      tag_8\n      jumpi\n      jump(tag_2)\n    tag_1:\n      jumpi(tag_2, calldatasize)\n        /* \"contracts/KipuBank.sol\":3687:3697  msg.sender */\n      caller\n        /* \"contracts/KipuBank.sol\":3657:3698  KipuBank_OperacionNoPermitida(msg.sender) */\n      mload(0x40)\n      0xe1d158ff00000000000000000000000000000000000000000000000000000000\n      dup2\n      mstore\n      0x04\n      add\n      tag_11\n      swap2\n      swap1\n      tag_12\n      jump\t// in\n    tag_11:\n      mload(0x40)\n      dup1\n      swap2\n      sub\n      swap1\n      revert\n        /* \"contracts/KipuBank.sol\":324:6864  contract KipuBank is ReentrancyGuard{... */\n    tag_2:\n        /* \"contracts/KipuBank.sol\":3891:3901  msg.sender */\n      caller\n        /* \"contracts/KipuBank.sol\":3861:3902  KipuBank_OperacionNoPermitida(msg.sender) */\n      mload(0x40)\n      0xe1d158ff00000000000000000000000000000000000000000000000000000000\n      dup2\n      mstore\n      0x04\n      add\n      tag_15\n      swap2\n      swap1\n      tag_12\n      jump\t// in\n    tag_15:\n      mload(0x40)\n      dup1\n      swap2\n      sub\n      swap1\n      revert\n        /* \"contracts/KipuBank.sol\":6139:6241  function verBoveda() external view returns (uint monto_) {... */\n    tag_3:\n      callvalue\n      dup1\n      iszero\n      tag_16\n      jumpi\n      revert(0x00, 0x00)\n    tag_16:\n      pop\n      tag_17\n      tag_18\n      jump\t// in\n    tag_17:\n      mload(0x40)\n      tag_19\n      swap2\n      swap1\n      tag_20\n      jump\t// in\n    tag_19:\n      mload(0x40)\n      dup1\n      swap2\n      sub\n      swap1\n      return\n        /* \"contracts/KipuBank.sol\":5510:5621  function retirarDeBoveda(uint _monto) external verificarRetiro(_monto)  {... */\n    tag_4:\n      callvalue\n      dup1\n      iszero\n      tag_21\n      jumpi\n      revert(0x00, 0x00)\n    tag_21:\n      pop\n      tag_22\n      0x04\n      dup1\n      calldatasize\n      sub\n      dup2\n      add\n      swap1\n      tag_23\n      swap2\n      swap1\n      tag_24\n      jump\t// in\n    tag_23:\n      tag_25\n      jump\t// in\n    tag_22:\n      stop\n        /* \"contracts/KipuBank.sol\":6766:6861  function verTotalContrato() external view returns (uint) {... */\n    tag_5:\n      callvalue\n      dup1\n      iszero\n      tag_26\n      jumpi\n      revert(0x00, 0x00)\n    tag_26:\n      pop\n      tag_27\n      tag_28\n      jump\t// in\n    tag_27:\n      mload(0x40)\n      tag_29\n      swap2\n      swap1\n      tag_20\n      jump\t// in\n    tag_29:\n      mload(0x40)\n      dup1\n      swap2\n      sub\n      swap1\n      return\n        /* \"contracts/KipuBank.sol\":5745:6001  function depositarEnBoveda() external payable verificarDepositos(msg.value) {... */\n    tag_6:\n      tag_30\n      tag_31\n      jump\t// in\n    tag_30:\n      stop\n        /* \"contracts/KipuBank.sol\":6565:6653  function verTotalRetiros() external view returns (uint) {... */\n    tag_7:\n      callvalue\n      dup1\n      iszero\n      tag_32\n      jumpi\n      revert(0x00, 0x00)\n    tag_32:\n      pop\n      tag_33\n      tag_34\n      jump\t// in\n    tag_33:\n      mload(0x40)\n      tag_35\n      swap2\n      swap1\n      tag_20\n      jump\t// in\n    tag_35:\n      mload(0x40)\n      dup1\n      swap2\n      sub\n      swap1\n      return\n        /* \"contracts/KipuBank.sol\":6359:6451  function verTotalDepositos() external view returns (uint) {... */\n    tag_8:\n      callvalue\n      dup1\n      iszero\n      tag_36\n      jumpi\n      revert(0x00, 0x00)\n    tag_36:\n      pop\n      tag_37\n      tag_38\n      jump\t// in\n    tag_37:\n      mload(0x40)\n      tag_39\n      swap2\n      swap1\n      tag_20\n      jump\t// in\n    tag_39:\n      mload(0x40)\n      dup1\n      swap2\n      sub\n      swap1\n      return\n        /* \"contracts/KipuBank.sol\":6139:6241  function verBoveda() external view returns (uint monto_) {... */\n    tag_18:\n        /* \"contracts/KipuBank.sol\":6183:6194  uint monto_ */\n      0x00\n        /* \"contracts/KipuBank.sol\":6215:6222  _boveda */\n      0x04\n        /* \"contracts/KipuBank.sol\":6215:6234  _boveda[msg.sender] */\n      0x00\n        /* \"contracts/KipuBank.sol\":6223:6233  msg.sender */\n      caller\n        /* \"contracts/KipuBank.sol\":6215:6234  _boveda[msg.sender] */\n      0xffffffffffffffffffffffffffffffffffffffff\n      and\n      0xffffffffffffffffffffffffffffffffffffffff\n      and\n      dup2\n      mstore\n      0x20\n      add\n      swap1\n      dup2\n      mstore\n      0x20\n      add\n      0x00\n      keccak256\n      sload\n        /* \"contracts/KipuBank.sol\":6206:6234  monto_ = _boveda[msg.sender] */\n      swap1\n      pop\n        /* \"contracts/KipuBank.sol\":6139:6241  function verBoveda() external view returns (uint monto_) {... */\n      swap1\n      jump\t// out\n        /* \"contracts/KipuBank.sol\":5510:5621  function retirarDeBoveda(uint _monto) external verificarRetiro(_monto)  {... */\n    tag_25:\n        /* \"contracts/KipuBank.sol\":5573:5579  _monto */\n      dup1\n        /* \"contracts/KipuBank.sol\":4474:4475  0 */\n      0x00\n        /* \"contracts/KipuBank.sol\":4464:4470  _monto */\n      dup2\n        /* \"contracts/KipuBank.sol\":4464:4475  _monto == 0 */\n      sub\n        /* \"contracts/KipuBank.sol\":4461:4514  if(_monto == 0) revert KipuBank_MontoCero(msg.sender) */\n      tag_42\n      jumpi\n        /* \"contracts/KipuBank.sol\":4503:4513  msg.sender */\n      caller\n        /* \"contracts/KipuBank.sol\":4484:4514  KipuBank_MontoCero(msg.sender) */\n      mload(0x40)\n      0xb2f0923100000000000000000000000000000000000000000000000000000000\n      dup2\n      mstore\n      0x04\n      add\n      tag_43\n      swap2\n      swap1\n      tag_12\n      jump\t// in\n    tag_43:\n      mload(0x40)\n      dup1\n      swap2\n      sub\n      swap1\n      revert\n        /* \"contracts/KipuBank.sol\":4461:4514  if(_monto == 0) revert KipuBank_MontoCero(msg.sender) */\n    tag_42:\n        /* \"contracts/KipuBank.sol\":4537:4543  umbral */\n      immutable(\"0x8fd0324b6a5df169e0aa0c7938ef0034d0e971a998f91b36eba211882d3617b1\")\n        /* \"contracts/KipuBank.sol\":4528:4534  _monto */\n      dup2\n        /* \"contracts/KipuBank.sol\":4528:4543  _monto > umbral */\n      gt\n        /* \"contracts/KipuBank.sol\":4524:4583  if (_monto > umbral) revert KipuBank_UmbralExcedido(_monto) */\n      iszero\n      tag_44\n      jumpi\n        /* \"contracts/KipuBank.sol\":4576:4582  _monto */\n      dup1\n        /* \"contracts/KipuBank.sol\":4552:4583  KipuBank_UmbralExcedido(_monto) */\n      mload(0x40)\n      0xc399356500000000000000000000000000000000000000000000000000000000\n      dup2\n      mstore\n      0x04\n      add\n      tag_45\n      swap2\n      swap1\n      tag_20\n      jump\t// in\n    tag_45:\n      mload(0x40)\n      dup1\n      swap2\n      sub\n      swap1\n      revert\n        /* \"contracts/KipuBank.sol\":4524:4583  if (_monto > umbral) revert KipuBank_UmbralExcedido(_monto) */\n    tag_44:\n        /* \"contracts/KipuBank.sol\":4606:4613  _boveda */\n      0x04\n        /* \"contracts/KipuBank.sol\":4606:4625  _boveda[msg.sender] */\n      0x00\n        /* \"contracts/KipuBank.sol\":4614:4624  msg.sender */\n      caller\n        /* \"contracts/KipuBank.sol\":4606:4625  _boveda[msg.sender] */\n      0xffffffffffffffffffffffffffffffffffffffff\n      and\n      0xffffffffffffffffffffffffffffffffffffffff\n      and\n      dup2\n      mstore\n      0x20\n      add\n      swap1\n      dup2\n      mstore\n      0x20\n      add\n      0x00\n      keccak256\n      sload\n        /* \"contracts/KipuBank.sol\":4597:4603  _monto */\n      dup2\n        /* \"contracts/KipuBank.sol\":4597:4625  _monto > _boveda[msg.sender] */\n      gt\n        /* \"contracts/KipuBank.sol\":4593:4680  if (_monto > _boveda[msg.sender]) revert KipuBank_SaldoInsuficiente(msg.sender, _monto) */\n      iszero\n      tag_46\n      jumpi\n        /* \"contracts/KipuBank.sol\":4661:4671  msg.sender */\n      caller\n        /* \"contracts/KipuBank.sol\":4673:4679  _monto */\n      dup2\n        /* \"contracts/KipuBank.sol\":4634:4680  KipuBank_SaldoInsuficiente(msg.sender, _monto) */\n      mload(0x40)\n      0x51a7314200000000000000000000000000000000000000000000000000000000\n      dup2\n      mstore\n      0x04\n      add\n      tag_47\n      swap3\n      swap2\n      swap1\n      tag_48\n      jump\t// in\n    tag_47:\n      mload(0x40)\n      dup1\n      swap2\n      sub\n      swap1\n      revert\n        /* \"contracts/KipuBank.sol\":4593:4680  if (_monto > _boveda[msg.sender]) revert KipuBank_SaldoInsuficiente(msg.sender, _monto) */\n    tag_46:\n        /* \"contracts/KipuBank.sol\":5592:5614  _retirarFondos(_monto) */\n      tag_50\n        /* \"contracts/KipuBank.sol\":5607:5613  _monto */\n      dup3\n        /* \"contracts/KipuBank.sol\":5592:5606  _retirarFondos */\n      tag_51\n        /* \"contracts/KipuBank.sol\":5592:5614  _retirarFondos(_monto) */\n      jump\t// in\n    tag_50:\n        /* \"contracts/KipuBank.sol\":5510:5621  function retirarDeBoveda(uint _monto) external verificarRetiro(_monto)  {... */\n      pop\n      pop\n      jump\t// out\n        /* \"contracts/KipuBank.sol\":6766:6861  function verTotalContrato() external view returns (uint) {... */\n    tag_28:\n        /* \"contracts/KipuBank.sol\":6817:6821  uint */\n      0x00\n        /* \"contracts/KipuBank.sol\":6840:6854  _totalContrato */\n      sload(0x03)\n        /* \"contracts/KipuBank.sol\":6833:6854  return _totalContrato */\n      swap1\n      pop\n        /* \"contracts/KipuBank.sol\":6766:6861  function verTotalContrato() external view returns (uint) {... */\n      swap1\n      jump\t// out\n        /* \"contracts/KipuBank.sol\":5745:6001  function depositarEnBoveda() external payable verificarDepositos(msg.value) {... */\n    tag_31:\n        /* \"contracts/KipuBank.sol\":5810:5819  msg.value */\n      callvalue\n        /* \"contracts/KipuBank.sol\":4091:4092  0 */\n      0x00\n        /* \"contracts/KipuBank.sol\":4081:4087  _monto */\n      dup2\n        /* \"contracts/KipuBank.sol\":4081:4092  _monto == 0 */\n      sub\n        /* \"contracts/KipuBank.sol\":4078:4131  if(_monto == 0) revert KipuBank_MontoCero(msg.sender) */\n      tag_54\n      jumpi\n        /* \"contracts/KipuBank.sol\":4120:4130  msg.sender */\n      caller\n        /* \"contracts/KipuBank.sol\":4101:4131  KipuBank_MontoCero(msg.sender) */\n      mload(0x40)\n      0xb2f0923100000000000000000000000000000000000000000000000000000000\n      dup2\n      mstore\n      0x04\n      add\n      tag_55\n      swap2\n      swap1\n      tag_12\n      jump\t// in\n    tag_55:\n      mload(0x40)\n      dup1\n      swap2\n      sub\n      swap1\n      revert\n        /* \"contracts/KipuBank.sol\":4078:4131  if(_monto == 0) revert KipuBank_MontoCero(msg.sender) */\n    tag_54:\n        /* \"contracts/KipuBank.sol\":4171:4178  bankCap */\n      immutable(\"0x6dbb33232cde86c8a04f90a8bed9fc1c5ef520188a14538d96eb100d69bc2a94\")\n        /* \"contracts/KipuBank.sol\":4154:4168  _totalContrato */\n      sload(0x03)\n        /* \"contracts/KipuBank.sol\":4145:4151  _monto */\n      dup3\n        /* \"contracts/KipuBank.sol\":4145:4168  _monto + _totalContrato */\n      tag_56\n      swap2\n      swap1\n      tag_57\n      jump\t// in\n    tag_56:\n        /* \"contracts/KipuBank.sol\":4145:4178  _monto + _totalContrato > bankCap */\n      gt\n        /* \"contracts/KipuBank.sol\":4141:4218  if (_monto + _totalContrato > bankCap) revert KipuBank_LimiteExcedido(_monto) */\n      iszero\n      tag_58\n      jumpi\n        /* \"contracts/KipuBank.sol\":4211:4217  _monto */\n      dup1\n        /* \"contracts/KipuBank.sol\":4187:4218  KipuBank_LimiteExcedido(_monto) */\n      mload(0x40)\n      0x2900b02c00000000000000000000000000000000000000000000000000000000\n      dup2\n      mstore\n      0x04\n      add\n      tag_59\n      swap2\n      swap1\n      tag_20\n      jump\t// in\n    tag_59:\n      mload(0x40)\n      dup1\n      swap2\n      sub\n      swap1\n      revert\n        /* \"contracts/KipuBank.sol\":4141:4218  if (_monto + _totalContrato > bankCap) revert KipuBank_LimiteExcedido(_monto) */\n    tag_58:\n        /* \"contracts/KipuBank.sol\":5854:5863  msg.value */\n      callvalue\n        /* \"contracts/KipuBank.sol\":5831:5838  _boveda */\n      0x04\n        /* \"contracts/KipuBank.sol\":5831:5850  _boveda[msg.sender] */\n      0x00\n        /* \"contracts/KipuBank.sol\":5839:5849  msg.sender */\n      caller\n        /* \"contracts/KipuBank.sol\":5831:5850  _boveda[msg.sender] */\n      0xffffffffffffffffffffffffffffffffffffffff\n      and\n      0xffffffffffffffffffffffffffffffffffffffff\n      and\n      dup2\n      mstore\n      0x20\n      add\n      swap1\n      dup2\n      mstore\n      0x20\n      add\n      0x00\n      keccak256\n      0x00\n        /* \"contracts/KipuBank.sol\":5831:5863  _boveda[msg.sender] += msg.value */\n      dup3\n      dup3\n      sload\n      tag_61\n      swap2\n      swap1\n      tag_57\n      jump\t// in\n    tag_61:\n      swap3\n      pop\n      pop\n      dup2\n      swap1\n      sstore\n      pop\n        /* \"contracts/KipuBank.sol\":5881:5891  _depositos */\n      0x01\n      0x00\n        /* \"contracts/KipuBank.sol\":5881:5893  _depositos++ */\n      dup2\n      sload\n      dup1\n      swap3\n      swap2\n      swap1\n      tag_62\n      swap1\n      tag_63\n      jump\t// in\n    tag_62:\n      swap2\n      swap1\n      pop\n      sstore\n      pop\n        /* \"contracts/KipuBank.sol\":5921:5930  msg.value */\n      callvalue\n        /* \"contracts/KipuBank.sol\":5903:5917  _totalContrato */\n      0x03\n      0x00\n        /* \"contracts/KipuBank.sol\":5903:5930  _totalContrato += msg.value */\n      dup3\n      dup3\n      sload\n      tag_64\n      swap2\n      swap1\n      tag_57\n      jump\t// in\n    tag_64:\n      swap3\n      pop\n      pop\n      dup2\n      swap1\n      sstore\n      pop\n        /* \"contracts/KipuBank.sol\":5945:5994  KipuBank_DepositoRealizado(msg.sender, msg.value) */\n      0x9d15693852bf60dc27bd5aa831d0351359b7d01d428ae1baae11f15cbcfebafd\n        /* \"contracts/KipuBank.sol\":5972:5982  msg.sender */\n      caller\n        /* \"contracts/KipuBank.sol\":5984:5993  msg.value */\n      callvalue\n        /* \"contracts/KipuBank.sol\":5945:5994  KipuBank_DepositoRealizado(msg.sender, msg.value) */\n      mload(0x40)\n      tag_65\n      swap3\n      swap2\n      swap1\n      tag_48\n      jump\t// in\n    tag_65:\n      mload(0x40)\n      dup1\n      swap2\n      sub\n      swap1\n      log1\n        /* \"contracts/KipuBank.sol\":5745:6001  function depositarEnBoveda() external payable verificarDepositos(msg.value) {... */\n      pop\n      jump\t// out\n        /* \"contracts/KipuBank.sol\":6565:6653  function verTotalRetiros() external view returns (uint) {... */\n    tag_34:\n        /* \"contracts/KipuBank.sol\":6615:6619  uint */\n      0x00\n        /* \"contracts/KipuBank.sol\":6638:6646  _retiros */\n      sload(0x02)\n        /* \"contracts/KipuBank.sol\":6631:6646  return _retiros */\n      swap1\n      pop\n        /* \"contracts/KipuBank.sol\":6565:6653  function verTotalRetiros() external view returns (uint) {... */\n      swap1\n      jump\t// out\n        /* \"contracts/KipuBank.sol\":6359:6451  function verTotalDepositos() external view returns (uint) {... */\n    tag_38:\n        /* \"contracts/KipuBank.sol\":6411:6415  uint */\n      0x00\n        /* \"contracts/KipuBank.sol\":6434:6444  _depositos */\n      sload(0x01)\n        /* \"contracts/KipuBank.sol\":6427:6444  return _depositos */\n      swap1\n      pop\n        /* \"contracts/KipuBank.sol\":6359:6451  function verTotalDepositos() external view returns (uint) {... */\n      swap1\n      jump\t// out\n        /* \"contracts/KipuBank.sol\":5001:5383  function _retirarFondos(uint _monto) private nonReentrant {... */\n    tag_51:\n        /* \"@openzeppelin/contracts/security/ReentrancyGuard.sol\":2261:2282  _nonReentrantBefore() */\n      tag_69\n        /* \"@openzeppelin/contracts/security/ReentrancyGuard.sol\":2261:2280  _nonReentrantBefore */\n      tag_70\n        /* \"@openzeppelin/contracts/security/ReentrancyGuard.sol\":2261:2282  _nonReentrantBefore() */\n      jump\t// in\n    tag_69:\n        /* \"contracts/KipuBank.sol\":5092:5098  _monto */\n      dup1\n        /* \"contracts/KipuBank.sol\":5069:5076  _boveda */\n      0x04\n        /* \"contracts/KipuBank.sol\":5069:5088  _boveda[msg.sender] */\n      0x00\n        /* \"contracts/KipuBank.sol\":5077:5087  msg.sender */\n      caller\n        /* \"contracts/KipuBank.sol\":5069:5088  _boveda[msg.sender] */\n      0xffffffffffffffffffffffffffffffffffffffff\n      and\n      0xffffffffffffffffffffffffffffffffffffffff\n      and\n      dup2\n      mstore\n      0x20\n      add\n      swap1\n      dup2\n      mstore\n      0x20\n      add\n      0x00\n      keccak256\n      0x00\n        /* \"contracts/KipuBank.sol\":5069:5098  _boveda[msg.sender] -= _monto */\n      dup3\n      dup3\n      sload\n      tag_72\n      swap2\n      swap1\n      tag_73\n      jump\t// in\n    tag_72:\n      swap3\n      pop\n      pop\n      dup2\n      swap1\n      sstore\n      pop\n        /* \"contracts/KipuBank.sol\":5108:5116  _retiros */\n      0x02\n      0x00\n        /* \"contracts/KipuBank.sol\":5108:5118  _retiros++ */\n      dup2\n      sload\n      dup1\n      swap3\n      swap2\n      swap1\n      tag_74\n      swap1\n      tag_63\n      jump\t// in\n    tag_74:\n      swap2\n      swap1\n      pop\n      sstore\n      pop\n        /* \"contracts/KipuBank.sol\":5146:5152  _monto */\n      dup1\n        /* \"contracts/KipuBank.sol\":5128:5142  _totalContrato */\n      0x03\n      0x00\n        /* \"contracts/KipuBank.sol\":5128:5152  _totalContrato -= _monto */\n      dup3\n      dup3\n      sload\n      tag_75\n      swap2\n      swap1\n      tag_73\n      jump\t// in\n    tag_75:\n      swap3\n      pop\n      pop\n      dup2\n      swap1\n      sstore\n      pop\n        /* \"contracts/KipuBank.sol\":5176:5224  KipuBank_ExtraccionRealizada(msg.sender, _monto) */\n      0x9cde449504e4972ffddec09813e0c252a1462d76bef1864b9e7520dadb7183e8\n        /* \"contracts/KipuBank.sol\":5205:5215  msg.sender */\n      caller\n        /* \"contracts/KipuBank.sol\":5217:5223  _monto */\n      dup3\n        /* \"contracts/KipuBank.sol\":5176:5224  KipuBank_ExtraccionRealizada(msg.sender, _monto) */\n      mload(0x40)\n      tag_76\n      swap3\n      swap2\n      swap1\n      tag_48\n      jump\t// in\n    tag_76:\n      mload(0x40)\n      dup1\n      swap2\n      sub\n      swap1\n      log1\n        /* \"contracts/KipuBank.sol\":5236:5248  bool success */\n      0x00\n        /* \"contracts/KipuBank.sol\":5262:5272  msg.sender */\n      caller\n        /* \"contracts/KipuBank.sol\":5254:5278  payable(msg.sender).call */\n      0xffffffffffffffffffffffffffffffffffffffff\n      and\n        /* \"contracts/KipuBank.sol\":5286:5292  _monto */\n      dup3\n        /* \"contracts/KipuBank.sol\":5254:5297  payable(msg.sender).call{value: _monto}(\"\") */\n      mload(0x40)\n      tag_77\n      swap1\n      tag_78\n      jump\t// in\n    tag_77:\n      0x00\n      mload(0x40)\n      dup1\n      dup4\n      sub\n      dup2\n      dup6\n      dup8\n      gas\n      call\n      swap3\n      pop\n      pop\n      pop\n      returndatasize\n      dup1\n      0x00\n      dup2\n      eq\n      tag_81\n      jumpi\n      mload(0x40)\n      swap2\n      pop\n      and(add(returndatasize, 0x3f), not(0x1f))\n      dup3\n      add\n      0x40\n      mstore\n      returndatasize\n      dup3\n      mstore\n      returndatasize\n      0x00\n      0x20\n      dup5\n      add\n      returndatacopy\n      jump(tag_80)\n    tag_81:\n      0x60\n      swap2\n      pop\n    tag_80:\n      pop\n        /* \"contracts/KipuBank.sol\":5235:5297  (bool success, ) = payable(msg.sender).call{value: _monto}(\"\") */\n      pop\n      swap1\n      pop\n        /* \"contracts/KipuBank.sol\":5312:5319  success */\n      dup1\n        /* \"contracts/KipuBank.sol\":5307:5376  if (!success) revert KipuBank_ExtraccionRechazada(msg.sender, _monto) */\n      tag_82\n      jumpi\n        /* \"contracts/KipuBank.sol\":5357:5367  msg.sender */\n      caller\n        /* \"contracts/KipuBank.sol\":5369:5375  _monto */\n      dup3\n        /* \"contracts/KipuBank.sol\":5328:5376  KipuBank_ExtraccionRechazada(msg.sender, _monto) */\n      mload(0x40)\n      0x6c5e1a1400000000000000000000000000000000000000000000000000000000\n      dup2\n      mstore\n      0x04\n      add\n      tag_83\n      swap3\n      swap2\n      swap1\n      tag_48\n      jump\t// in\n    tag_83:\n      mload(0x40)\n      dup1\n      swap2\n      sub\n      swap1\n      revert\n        /* \"contracts/KipuBank.sol\":5307:5376  if (!success) revert KipuBank_ExtraccionRechazada(msg.sender, _monto) */\n    tag_82:\n        /* \"contracts/KipuBank.sol\":5059:5383  {... */\n      pop\n        /* \"@openzeppelin/contracts/security/ReentrancyGuard.sol\":2303:2323  _nonReentrantAfter() */\n      tag_84\n        /* \"@openzeppelin/contracts/security/ReentrancyGuard.sol\":2303:2321  _nonReentrantAfter */\n      tag_85\n        /* \"@openzeppelin/contracts/security/ReentrancyGuard.sol\":2303:2323  _nonReentrantAfter() */\n      jump\t// in\n    tag_84:\n        /* \"contracts/KipuBank.sol\":5001:5383  function _retirarFondos(uint _monto) private nonReentrant {... */\n      pop\n      jump\t// out\n        /* \"@openzeppelin/contracts/security/ReentrancyGuard.sol\":2336:2623  function _nonReentrantBefore() private {... */\n    tag_70:\n        /* \"@openzeppelin/contracts/security/ReentrancyGuard.sol\":1759:1760  2 */\n      0x02\n        /* \"@openzeppelin/contracts/security/ReentrancyGuard.sol\":2468:2475  _status */\n      sload(0x00)\n        /* \"@openzeppelin/contracts/security/ReentrancyGuard.sol\":2468:2487  _status != _ENTERED */\n      sub\n        /* \"@openzeppelin/contracts/security/ReentrancyGuard.sol\":2460:2523  require(_status != _ENTERED, \"ReentrancyGuard: reentrant call\") */\n      tag_87\n      jumpi\n      mload(0x40)\n      0x08c379a000000000000000000000000000000000000000000000000000000000\n      dup2\n      mstore\n      0x04\n      add\n      tag_88\n      swap1\n      tag_89\n      jump\t// in\n    tag_88:\n      mload(0x40)\n      dup1\n      swap2\n      sub\n      swap1\n      revert\n    tag_87:\n        /* \"@openzeppelin/contracts/security/ReentrancyGuard.sol\":1759:1760  2 */\n      0x02\n        /* \"@openzeppelin/contracts/security/ReentrancyGuard.sol\":2598:2605  _status */\n      0x00\n        /* \"@openzeppelin/contracts/security/ReentrancyGuard.sol\":2598:2616  _status = _ENTERED */\n      dup2\n      swap1\n      sstore\n      pop\n        /* \"@openzeppelin/contracts/security/ReentrancyGuard.sol\":2336:2623  function _nonReentrantBefore() private {... */\n      jump\t// out\n        /* \"@openzeppelin/contracts/security/ReentrancyGuard.sol\":2629:2838  function _nonReentrantAfter() private {... */\n    tag_85:\n        /* \"@openzeppelin/contracts/security/ReentrancyGuard.sol\":1716:1717  1 */\n      0x01\n        /* \"@openzeppelin/contracts/security/ReentrancyGuard.sol\":2809:2816  _status */\n      0x00\n        /* \"@openzeppelin/contracts/security/ReentrancyGuard.sol\":2809:2831  _status = _NOT_ENTERED */\n      dup2\n      swap1\n      sstore\n      pop\n        /* \"@openzeppelin/contracts/security/ReentrancyGuard.sol\":2629:2838  function _nonReentrantAfter() private {... */\n      jump\t// out\n        /* \"#utility.yul\":7:133   */\n    tag_91:\n        /* \"#utility.yul\":44:51   */\n      0x00\n        /* \"#utility.yul\":84:126   */\n      0xffffffffffffffffffffffffffffffffffffffff\n        /* \"#utility.yul\":77:82   */\n      dup3\n        /* \"#utility.yul\":73:127   */\n      and\n        /* \"#utility.yul\":62:127   */\n      swap1\n      pop\n        /* \"#utility.yul\":7:133   */\n      swap2\n      swap1\n      pop\n      jump\t// out\n        /* \"#utility.yul\":139:235   */\n    tag_92:\n        /* \"#utility.yul\":176:183   */\n      0x00\n        /* \"#utility.yul\":205:229   */\n      tag_111\n        /* \"#utility.yul\":223:228   */\n      dup3\n        /* \"#utility.yul\":205:229   */\n      tag_91\n      jump\t// in\n    tag_111:\n        /* \"#utility.yul\":194:229   */\n      swap1\n      pop\n        /* \"#utility.yul\":139:235   */\n      swap2\n      swap1\n      pop\n      jump\t// out\n        /* \"#utility.yul\":241:359   */\n    tag_93:\n        /* \"#utility.yul\":328:352   */\n      tag_113\n        /* \"#utility.yul\":346:351   */\n      dup2\n        /* \"#utility.yul\":328:352   */\n      tag_92\n      jump\t// in\n    tag_113:\n        /* \"#utility.yul\":323:326   */\n      dup3\n        /* \"#utility.yul\":316:353   */\n      mstore\n        /* \"#utility.yul\":241:359   */\n      pop\n      pop\n      jump\t// out\n        /* \"#utility.yul\":365:587   */\n    tag_12:\n        /* \"#utility.yul\":458:462   */\n      0x00\n        /* \"#utility.yul\":496:498   */\n      0x20\n        /* \"#utility.yul\":485:494   */\n      dup3\n        /* \"#utility.yul\":481:499   */\n      add\n        /* \"#utility.yul\":473:499   */\n      swap1\n      pop\n        /* \"#utility.yul\":509:580   */\n      tag_115\n        /* \"#utility.yul\":577:578   */\n      0x00\n        /* \"#utility.yul\":566:575   */\n      dup4\n        /* \"#utility.yul\":562:579   */\n      add\n        /* \"#utility.yul\":553:559   */\n      dup5\n        /* \"#utility.yul\":509:580   */\n      tag_93\n      jump\t// in\n    tag_115:\n        /* \"#utility.yul\":365:587   */\n      swap3\n      swap2\n      pop\n      pop\n      jump\t// out\n        /* \"#utility.yul\":593:670   */\n    tag_94:\n        /* \"#utility.yul\":630:637   */\n      0x00\n        /* \"#utility.yul\":659:664   */\n      dup2\n        /* \"#utility.yul\":648:664   */\n      swap1\n      pop\n        /* \"#utility.yul\":593:670   */\n      swap2\n      swap1\n      pop\n      jump\t// out\n        /* \"#utility.yul\":676:794   */\n    tag_95:\n        /* \"#utility.yul\":763:787   */\n      tag_118\n        /* \"#utility.yul\":781:786   */\n      dup2\n        /* \"#utility.yul\":763:787   */\n      tag_94\n      jump\t// in\n    tag_118:\n        /* \"#utility.yul\":758:761   */\n      dup3\n        /* \"#utility.yul\":751:788   */\n      mstore\n        /* \"#utility.yul\":676:794   */\n      pop\n      pop\n      jump\t// out\n        /* \"#utility.yul\":800:1022   */\n    tag_20:\n        /* \"#utility.yul\":893:897   */\n      0x00\n        /* \"#utility.yul\":931:933   */\n      0x20\n        /* \"#utility.yul\":920:929   */\n      dup3\n        /* \"#utility.yul\":916:934   */\n      add\n        /* \"#utility.yul\":908:934   */\n      swap1\n      pop\n        /* \"#utility.yul\":944:1015   */\n      tag_120\n        /* \"#utility.yul\":1012:1013   */\n      0x00\n        /* \"#utility.yul\":1001:1010   */\n      dup4\n        /* \"#utility.yul\":997:1014   */\n      add\n        /* \"#utility.yul\":988:994   */\n      dup5\n        /* \"#utility.yul\":944:1015   */\n      tag_95\n      jump\t// in\n    tag_120:\n        /* \"#utility.yul\":800:1022   */\n      swap3\n      swap2\n      pop\n      pop\n      jump\t// out\n        /* \"#utility.yul\":1109:1226   */\n    tag_97:\n        /* \"#utility.yul\":1218:1219   */\n      0x00\n        /* \"#utility.yul\":1215:1216   */\n      0x00\n        /* \"#utility.yul\":1208:1220   */\n      revert\n        /* \"#utility.yul\":1355:1477   */\n    tag_99:\n        /* \"#utility.yul\":1428:1452   */\n      tag_125\n        /* \"#utility.yul\":1446:1451   */\n      dup2\n        /* \"#utility.yul\":1428:1452   */\n      tag_94\n      jump\t// in\n    tag_125:\n        /* \"#utility.yul\":1421:1426   */\n      dup2\n        /* \"#utility.yul\":1418:1453   */\n      eq\n        /* \"#utility.yul\":1408:1471   */\n      tag_126\n      jumpi\n        /* \"#utility.yul\":1467:1468   */\n      0x00\n        /* \"#utility.yul\":1464:1465   */\n      0x00\n        /* \"#utility.yul\":1457:1469   */\n      revert\n        /* \"#utility.yul\":1408:1471   */\n    tag_126:\n        /* \"#utility.yul\":1355:1477   */\n      pop\n      jump\t// out\n        /* \"#utility.yul\":1483:1622   */\n    tag_100:\n        /* \"#utility.yul\":1529:1534   */\n      0x00\n        /* \"#utility.yul\":1567:1573   */\n      dup2\n        /* \"#utility.yul\":1554:1574   */\n      calldataload\n        /* \"#utility.yul\":1545:1574   */\n      swap1\n      pop\n        /* \"#utility.yul\":1583:1616   */\n      tag_128\n        /* \"#utility.yul\":1610:1615   */\n      dup2\n        /* \"#utility.yul\":1583:1616   */\n      tag_99\n      jump\t// in\n    tag_128:\n        /* \"#utility.yul\":1483:1622   */\n      swap3\n      swap2\n      pop\n      pop\n      jump\t// out\n        /* \"#utility.yul\":1628:1957   */\n    tag_24:\n        /* \"#utility.yul\":1687:1693   */\n      0x00\n        /* \"#utility.yul\":1736:1738   */\n      0x20\n        /* \"#utility.yul\":1724:1733   */\n      dup3\n        /* \"#utility.yul\":1715:1722   */\n      dup5\n        /* \"#utility.yul\":1711:1734   */\n      sub\n        /* \"#utility.yul\":1707:1739   */\n      slt\n        /* \"#utility.yul\":1704:1823   */\n      iszero\n      tag_130\n      jumpi\n        /* \"#utility.yul\":1742:1821   */\n      tag_131\n      tag_97\n      jump\t// in\n    tag_131:\n        /* \"#utility.yul\":1704:1823   */\n    tag_130:\n        /* \"#utility.yul\":1862:1863   */\n      0x00\n        /* \"#utility.yul\":1887:1940   */\n      tag_132\n        /* \"#utility.yul\":1932:1939   */\n      dup5\n        /* \"#utility.yul\":1923:1929   */\n      dup3\n        /* \"#utility.yul\":1912:1921   */\n      dup6\n        /* \"#utility.yul\":1908:1930   */\n      add\n        /* \"#utility.yul\":1887:1940   */\n      tag_100\n      jump\t// in\n    tag_132:\n        /* \"#utility.yul\":1877:1940   */\n      swap2\n      pop\n        /* \"#utility.yul\":1833:1950   */\n      pop\n        /* \"#utility.yul\":1628:1957   */\n      swap3\n      swap2\n      pop\n      pop\n      jump\t// out\n        /* \"#utility.yul\":1963:2295   */\n    tag_48:\n        /* \"#utility.yul\":2084:2088   */\n      0x00\n        /* \"#utility.yul\":2122:2124   */\n      0x40\n        /* \"#utility.yul\":2111:2120   */\n      dup3\n        /* \"#utility.yul\":2107:2125   */\n      add\n        /* \"#utility.yul\":2099:2125   */\n      swap1\n      pop\n        /* \"#utility.yul\":2135:2206   */\n      tag_134\n        /* \"#utility.yul\":2203:2204   */\n      0x00\n        /* \"#utility.yul\":2192:2201   */\n      dup4\n        /* \"#utility.yul\":2188:2205   */\n      add\n        /* \"#utility.yul\":2179:2185   */\n      dup6\n        /* \"#utility.yul\":2135:2206   */\n      tag_93\n      jump\t// in\n    tag_134:\n        /* \"#utility.yul\":2216:2288   */\n      tag_135\n        /* \"#utility.yul\":2284:2286   */\n      0x20\n        /* \"#utility.yul\":2273:2282   */\n      dup4\n        /* \"#utility.yul\":2269:2287   */\n      add\n        /* \"#utility.yul\":2260:2266   */\n      dup5\n        /* \"#utility.yul\":2216:2288   */\n      tag_95\n      jump\t// in\n    tag_135:\n        /* \"#utility.yul\":1963:2295   */\n      swap4\n      swap3\n      pop\n      pop\n      pop\n      jump\t// out\n        /* \"#utility.yul\":2301:2481   */\n    tag_101:\n        /* \"#utility.yul\":2349:2426   */\n      0x4e487b7100000000000000000000000000000000000000000000000000000000\n        /* \"#utility.yul\":2346:2347   */\n      0x00\n        /* \"#utility.yul\":2339:2427   */\n      mstore\n        /* \"#utility.yul\":2446:2450   */\n      0x11\n        /* \"#utility.yul\":2443:2444   */\n      0x04\n        /* \"#utility.yul\":2436:2451   */\n      mstore\n        /* \"#utility.yul\":2470:2474   */\n      0x24\n        /* \"#utility.yul\":2467:2468   */\n      0x00\n        /* \"#utility.yul\":2460:2475   */\n      revert\n        /* \"#utility.yul\":2487:2678   */\n    tag_57:\n        /* \"#utility.yul\":2527:2530   */\n      0x00\n        /* \"#utility.yul\":2546:2566   */\n      tag_138\n        /* \"#utility.yul\":2564:2565   */\n      dup3\n        /* \"#utility.yul\":2546:2566   */\n      tag_94\n      jump\t// in\n    tag_138:\n        /* \"#utility.yul\":2541:2566   */\n      swap2\n      pop\n        /* \"#utility.yul\":2580:2600   */\n      tag_139\n        /* \"#utility.yul\":2598:2599   */\n      dup4\n        /* \"#utility.yul\":2580:2600   */\n      tag_94\n      jump\t// in\n    tag_139:\n        /* \"#utility.yul\":2575:2600   */\n      swap3\n      pop\n        /* \"#utility.yul\":2623:2624   */\n      dup3\n        /* \"#utility.yul\":2620:2621   */\n      dup3\n        /* \"#utility.yul\":2616:2625   */\n      add\n        /* \"#utility.yul\":2609:2625   */\n      swap1\n      pop\n        /* \"#utility.yul\":2644:2647   */\n      dup1\n        /* \"#utility.yul\":2641:2642   */\n      dup3\n        /* \"#utility.yul\":2638:2648   */\n      gt\n        /* \"#utility.yul\":2635:2671   */\n      iszero\n      tag_140\n      jumpi\n        /* \"#utility.yul\":2651:2669   */\n      tag_141\n      tag_101\n      jump\t// in\n    tag_141:\n        /* \"#utility.yul\":2635:2671   */\n    tag_140:\n        /* \"#utility.yul\":2487:2678   */\n      swap3\n      swap2\n      pop\n      pop\n      jump\t// out\n        /* \"#utility.yul\":2684:2917   */\n    tag_63:\n        /* \"#utility.yul\":2723:2726   */\n      0x00\n        /* \"#utility.yul\":2746:2770   */\n      tag_143\n        /* \"#utility.yul\":2764:2769   */\n      dup3\n        /* \"#utility.yul\":2746:2770   */\n      tag_94\n      jump\t// in\n    tag_143:\n        /* \"#utility.yul\":2737:2770   */\n      swap2\n      pop\n        /* \"#utility.yul\":2792:2858   */\n      0xffffffffffffffffffffffffffffffffffffffffffffffffffffffffffffffff\n        /* \"#utility.yul\":2785:2790   */\n      dup3\n        /* \"#utility.yul\":2782:2859   */\n      sub\n        /* \"#utility.yul\":2779:2882   */\n      tag_144\n      jumpi\n        /* \"#utility.yul\":2862:2880   */\n      tag_145\n      tag_101\n      jump\t// in\n    tag_145:\n        /* \"#utility.yul\":2779:2882   */\n    tag_144:\n        /* \"#utility.yul\":2909:2910   */\n      0x01\n        /* \"#utility.yul\":2902:2907   */\n      dup3\n        /* \"#utility.yul\":2898:2911   */\n      add\n        /* \"#utility.yul\":2891:2911   */\n      swap1\n      pop\n        /* \"#utility.yul\":2684:2917   */\n      swap2\n      swap1\n      pop\n      jump\t// out\n        /* \"#utility.yul\":2923:3117   */\n    tag_73:\n        /* \"#utility.yul\":2963:2967   */\n      0x00\n        /* \"#utility.yul\":2983:3003   */\n      tag_147\n        /* \"#utility.yul\":3001:3002   */\n      dup3\n        /* \"#utility.yul\":2983:3003   */\n      tag_94\n      jump\t// in\n    tag_147:\n        /* \"#utility.yul\":2978:3003   */\n      swap2\n      pop\n        /* \"#utility.yul\":3017:3037   */\n      tag_148\n        /* \"#utility.yul\":3035:3036   */\n      dup4\n        /* \"#utility.yul\":3017:3037   */\n      tag_94\n      jump\t// in\n    tag_148:\n        /* \"#utility.yul\":3012:3037   */\n      swap3\n      pop\n        /* \"#utility.yul\":3061:3062   */\n      dup3\n        /* \"#utility.yul\":3058:3059   */\n      dup3\n        /* \"#utility.yul\":3054:3063   */\n      sub\n        /* \"#utility.yul\":3046:3063   */\n      swap1\n      pop\n        /* \"#utility.yul\":3085:3086   */\n      dup2\n        /* \"#utility.yul\":3079:3083   */\n      dup2\n        /* \"#utility.yul\":3076:3087   */\n      gt\n        /* \"#utility.yul\":3073:3110   */\n      iszero\n      tag_149\n      jumpi\n        /* \"#utility.yul\":3090:3108   */\n      tag_150\n      tag_101\n      jump\t// in\n    tag_150:\n        /* \"#utility.yul\":3073:3110   */\n    tag_149:\n        /* \"#utility.yul\":2923:3117   */\n      swap3\n      swap2\n      pop\n      pop\n      jump\t// out\n        /* \"#utility.yul\":3123:3270   */\n    tag_102:\n        /* \"#utility.yul\":3224:3235   */\n      0x00\n        /* \"#utility.yul\":3261:3264   */\n      dup2\n        /* \"#utility.yul\":3246:3264   */\n      swap1\n      pop\n        /* \"#utility.yul\":3123:3270   */\n      swap3\n      swap2\n      pop\n      pop\n      jump\t// out\n        /* \"#utility.yul\":3276:3390   */\n    tag_103:\n      pop\n      jump\t// out\n        /* \"#utility.yul\":3396:3794   */\n    tag_104:\n        /* \"#utility.yul\":3555:3558   */\n      0x00\n        /* \"#utility.yul\":3576:3659   */\n      tag_154\n        /* \"#utility.yul\":3657:3658   */\n      0x00\n        /* \"#utility.yul\":3652:3655   */\n      dup4\n        /* \"#utility.yul\":3576:3659   */\n      tag_102\n      jump\t// in\n    tag_154:\n        /* \"#utility.yul\":3569:3659   */\n      swap2\n      pop\n        /* \"#utility.yul\":3668:3761   */\n      tag_155\n        /* \"#utility.yul\":3757:3760   */\n      dup3\n        /* \"#utility.yul\":3668:3761   */\n      tag_103\n      jump\t// in\n    tag_155:\n        /* \"#utility.yul\":3786:3787   */\n      0x00\n        /* \"#utility.yul\":3781:3784   */\n      dup3\n        /* \"#utility.yul\":3777:3788   */\n      add\n        /* \"#utility.yul\":3770:3788   */\n      swap1\n      pop\n        /* \"#utility.yul\":3396:3794   */\n      swap2\n      swap1\n      pop\n      jump\t// out\n        /* \"#utility.yul\":3800:4179   */\n    tag_78:\n        /* \"#utility.yul\":3984:3987   */\n      0x00\n        /* \"#utility.yul\":4006:4153   */\n      tag_157\n        /* \"#utility.yul\":4149:4152   */\n      dup3\n        /* \"#utility.yul\":4006:4153   */\n      tag_104\n      jump\t// in\n    tag_157:\n        /* \"#utility.yul\":3999:4153   */\n      swap2\n      pop\n        /* \"#utility.yul\":4170:4173   */\n      dup2\n        /* \"#utility.yul\":4163:4173   */\n      swap1\n      pop\n        /* \"#utility.yul\":3800:4179   */\n      swap2\n      swap1\n      pop\n      jump\t// out\n        /* \"#utility.yul\":4185:4354   */\n    tag_105:\n        /* \"#utility.yul\":4269:4280   */\n      0x00\n        /* \"#utility.yul\":4303:4309   */\n      dup3\n        /* \"#utility.yul\":4298:4301   */\n      dup3\n        /* \"#utility.yul\":4291:4310   */\n      mstore\n        /* \"#utility.yul\":4343:4347   */\n      0x20\n        /* \"#utility.yul\":4338:4341   */\n      dup3\n        /* \"#utility.yul\":4334:4348   */\n      add\n        /* \"#utility.yul\":4319:4348   */\n      swap1\n      pop\n        /* \"#utility.yul\":4185:4354   */\n      swap3\n      swap2\n      pop\n      pop\n      jump\t// out\n        /* \"#utility.yul\":4360:4541   */\n    tag_106:\n        /* \"#utility.yul\":4500:4533   */\n      0x5265656e7472616e637947756172643a207265656e7472616e742063616c6c00\n        /* \"#utility.yul\":4496:4497   */\n      0x00\n        /* \"#utility.yul\":4488:4494   */\n      dup3\n        /* \"#utility.yul\":4484:4498   */\n      add\n        /* \"#utility.yul\":4477:4534   */\n      mstore\n        /* \"#utility.yul\":4360:4541   */\n      pop\n      jump\t// out\n        /* \"#utility.yul\":4547:4913   */\n    tag_107:\n        /* \"#utility.yul\":4689:4692   */\n      0x00\n        /* \"#utility.yul\":4710:4777   */\n      tag_161\n        /* \"#utility.yul\":4774:4776   */\n      0x1f\n        /* \"#utility.yul\":4769:4772   */\n      dup4\n        /* \"#utility.yul\":4710:4777   */\n      tag_105\n      jump\t// in\n    tag_161:\n        /* \"#utility.yul\":4703:4777   */\n      swap2\n      pop\n        /* \"#utility.yul\":4786:4879   */\n      tag_162\n        /* \"#utility.yul\":4875:4878   */\n      dup3\n        /* \"#utility.yul\":4786:4879   */\n      tag_106\n      jump\t// in\n    tag_162:\n        /* \"#utility.yul\":4904:4906   */\n      0x20\n        /* \"#utility.yul\":4899:4902   */\n      dup3\n        /* \"#utility.yul\":4895:4907   */\n      add\n        /* \"#utility.yul\":4888:4907   */\n      swap1\n      pop\n        /* \"#utility.yul\":4547:4913   */\n      swap2\n      swap1\n      pop\n      jump\t// out\n        /* \"#utility.yul\":4919:5338   */\n    tag_89:\n        /* \"#utility.yul\":5085:5089   */\n      0x00\n        /* \"#utility.yul\":5123:5125   */\n      0x20\n        /* \"#utility.yul\":5112:5121   */\n      dup3\n        /* \"#utility.yul\":5108:5126   */\n      add\n        /* \"#utility.yul\":5100:5126   */\n      swap1\n      pop\n        /* \"#utility.yul\":5172:5181   */\n      dup2\n        /* \"#utility.yul\":5166:5170   */\n      dup2\n        /* \"#utility.yul\":5162:5182   */\n      sub\n        /* \"#utility.yul\":5158:5159   */\n      0x00\n        /* \"#utility.yul\":5147:5156   */\n      dup4\n        /* \"#utility.yul\":5143:5160   */\n      add\n        /* \"#utility.yul\":5136:5183   */\n      mstore\n        /* \"#utility.yul\":5200:5331   */\n      tag_164\n        /* \"#utility.yul\":5326:5330   */\n      dup2\n        /* \"#utility.yul\":5200:5331   */\n      tag_107\n      jump\t// in\n    tag_164:\n        /* \"#utility.yul\":5192:5331   */\n      swap1\n      pop\n        /* \"#utility.yul\":4919:5338   */\n      swap2\n      swap1\n      pop\n      jump\t// out\n\n    auxdata: 0xa26469706673582212209a749e50149f754ab16013fbb85ad1b4b3f8852fcf91e9d72f75efbe3928b99464736f6c634300081e0033\n}\n",
				"bytecode": {
					"linkReferences": {},
					"object": "60c06040525f6001555f6002555f60035534801561001b575f5ffd5b50604051610b72380380610b72833981810160405281019061003d9190610161565b60015f819055505f820361008857816040517ff1fdfd2b00000000000000000000000000000000000000000000000000000000815260040161007f91906101ae565b60405180910390fd5b5f81036100cc57806040517f5052fe8e0000000000000000000000000000000000000000000000000000000081526004016100c391906101ae565b60405180910390fd5b818111156101135781816040517f3122626300000000000000000000000000000000000000000000000000000000815260040161010a9291906101c7565b60405180910390fd5b8160a08181525050806080818152505050506101ee565b5f5ffd5b5f819050919050565b6101408161012e565b811461014a575f5ffd5b50565b5f8151905061015b81610137565b92915050565b5f5f604083850312156101775761017661012a565b5b5f6101848582860161014d565b92505060206101958582860161014d565b9150509250929050565b6101a88161012e565b82525050565b5f6020820190506101c15f83018461019f565b92915050565b5f6040820190506101da5f83018561019f565b6101e7602083018461019f565b9392505050565b60805160a05161096361020f5f395f61038001525f61023c01526109635ff3fe608060405260043610610058575f3560e01c80636900670c146100d75780638debc4a81461010157806393295c1c14610129578063acaf5a1414610153578063c6aca33c1461015d578063f39b1809146101875761009a565b3661009a57336040517fe1d158ff00000000000000000000000000000000000000000000000000000000815260040161009191906106d0565b60405180910390fd5b336040517fe1d158ff0000000000000000000000000000000000000000000000000000000081526004016100ce91906106d0565b60405180910390fd5b3480156100e2575f5ffd5b506100eb6101b1565b6040516100f89190610701565b60405180910390f35b34801561010c575f5ffd5b5061012760048036038101906101229190610748565b6101f5565b005b348015610134575f5ffd5b5061013d610330565b60405161014a9190610701565b60405180910390f35b61015b610339565b005b348015610168575f5ffd5b506101716104ae565b60405161017e9190610701565b60405180910390f35b348015610192575f5ffd5b5061019b6104b7565b6040516101a89190610701565b60405180910390f35b5f60045f3373ffffffffffffffffffffffffffffffffffffffff1673ffffffffffffffffffffffffffffffffffffffff1681526020019081526020015f2054905090565b805f810361023a57336040517fb2f0923100000000000000000000000000000000000000000000000000000000815260040161023191906106d0565b60405180910390fd5b7f000000000000000000000000000000000000000000000000000000000000000081111561029f57806040517fc39935650000000000000000000000000000000000000000000000000000000081526004016102969190610701565b60405180910390fd5b60045f3373ffffffffffffffffffffffffffffffffffffffff1673ffffffffffffffffffffffffffffffffffffffff1681526020019081526020015f20548111156103235733816040517f51a7314200000000000000000000000000000000000000000000000000000000815260040161031a929190610773565b60405180910390fd5b61032c826104c0565b5050565b5f600354905090565b345f810361037e57336040517fb2f0923100000000000000000000000000000000000000000000000000000000815260040161037591906106d0565b60405180910390fd5b7f0000000000000000000000000000000000000000000000000000000000000000600354826103ad91906107c7565b11156103f057806040517f2900b02c0000000000000000000000000000000000000000000000000000000081526004016103e79190610701565b60405180910390fd5b3460045f3373ffffffffffffffffffffffffffffffffffffffff1673ffffffffffffffffffffffffffffffffffffffff1681526020019081526020015f205f82825461043c91906107c7565b9250508190555060015f815480929190610455906107fa565b91905055503460035f82825461046b91906107c7565b925050819055507f9d15693852bf60dc27bd5aa831d0351359b7d01d428ae1baae11f15cbcfebafd33346040516104a3929190610773565b60405180910390a150565b5f600254905090565b5f600154905090565b6104c861063b565b8060045f3373ffffffffffffffffffffffffffffffffffffffff1673ffffffffffffffffffffffffffffffffffffffff1681526020019081526020015f205f8282546105149190610841565b9250508190555060025f81548092919061052d906107fa565b91905055508060035f8282546105439190610841565b925050819055507f9cde449504e4972ffddec09813e0c252a1462d76bef1864b9e7520dadb7183e8338260405161057b929190610773565b60405180910390a15f3373ffffffffffffffffffffffffffffffffffffffff16826040516105a8906108a1565b5f6040518083038185875af1925050503d805f81146105e2576040519150601f19603f3d011682016040523d82523d5f602084013e6105e7565b606091505b505090508061062f5733826040517f6c5e1a14000000000000000000000000000000000000000000000000000000008152600401610626929190610773565b60405180910390fd5b50610638610688565b50565b60025f540361067f576040517f08c379a00000000000000000000000000000000000000000000000000000000081526004016106769061090f565b60405180910390fd5b60025f81905550565b60015f81905550565b5f73ffffffffffffffffffffffffffffffffffffffff82169050919050565b5f6106ba82610691565b9050919050565b6106ca816106b0565b82525050565b5f6020820190506106e35f8301846106c1565b92915050565b5f819050919050565b6106fb816106e9565b82525050565b5f6020820190506107145f8301846106f2565b92915050565b5f5ffd5b610727816106e9565b8114610731575f5ffd5b50565b5f813590506107428161071e565b92915050565b5f6020828403121561075d5761075c61071a565b5b5f61076a84828501610734565b91505092915050565b5f6040820190506107865f8301856106c1565b61079360208301846106f2565b9392505050565b7f4e487b71000000000000000000000000000000000000000000000000000000005f52601160045260245ffd5b5f6107d1826106e9565b91506107dc836106e9565b92508282019050808211156107f4576107f361079a565b5b92915050565b5f610804826106e9565b91507fffffffffffffffffffffffffffffffffffffffffffffffffffffffffffffffff82036108365761083561079a565b5b600182019050919050565b5f61084b826106e9565b9150610856836106e9565b925082820390508181111561086e5761086d61079a565b5b92915050565b5f81905092915050565b50565b5f61088c5f83610874565b91506108978261087e565b5f82019050919050565b5f6108ab82610881565b9150819050919050565b5f82825260208201905092915050565b7f5265656e7472616e637947756172643a207265656e7472616e742063616c6c005f82015250565b5f6108f9601f836108b5565b9150610904826108c5565b602082019050919050565b5f6020820190508181035f830152610926816108ed565b905091905056fea26469706673582212209a749e50149f754ab16013fbb85ad1b4b3f8852fcf91e9d72f75efbe3928b99464736f6c634300081e0033",
					"opcodes": "PUSH1 0xC0 PUSH1 0x40 MSTORE PUSH0 PUSH1 0x1 SSTORE PUSH0 PUSH1 0x2 SSTORE PUSH0 PUSH1 0x3 SSTORE CALLVALUE DUP1 ISZERO PUSH2 0x1B JUMPI PUSH0 PUSH0 REVERT JUMPDEST POP PUSH1 0x40 MLOAD PUSH2 0xB72 CODESIZE SUB DUP1 PUSH2 0xB72 DUP4 CODECOPY DUP2 DUP2 ADD PUSH1 0x40 MSTORE DUP2 ADD SWAP1 PUSH2 0x3D SWAP2 SWAP1 PUSH2 0x161 JUMP JUMPDEST PUSH1 0x1 PUSH0 DUP2 SWAP1 SSTORE POP PUSH0 DUP3 SUB PUSH2 0x88 JUMPI DUP2 PUSH1 0x40 MLOAD PUSH32 0xF1FDFD2B00000000000000000000000000000000000000000000000000000000 DUP2 MSTORE PUSH1 0x4 ADD PUSH2 0x7F SWAP2 SWAP1 PUSH2 0x1AE JUMP JUMPDEST PUSH1 0x40 MLOAD DUP1 SWAP2 SUB SWAP1 REVERT JUMPDEST PUSH0 DUP2 SUB PUSH2 0xCC JUMPI DUP1 PUSH1 0x40 MLOAD PUSH32 0x5052FE8E00000000000000000000000000000000000000000000000000000000 DUP2 MSTORE PUSH1 0x4 ADD PUSH2 0xC3 SWAP2 SWAP1 PUSH2 0x1AE JUMP JUMPDEST PUSH1 0x40 MLOAD DUP1 SWAP2 SUB SWAP1 REVERT JUMPDEST DUP2 DUP2 GT ISZERO PUSH2 0x113 JUMPI DUP2 DUP2 PUSH1 0x40 MLOAD PUSH32 0x3122626300000000000000000000000000000000000000000000000000000000 DUP2 MSTORE PUSH1 0x4 ADD PUSH2 0x10A SWAP3 SWAP2 SWAP1 PUSH2 0x1C7 JUMP JUMPDEST PUSH1 0x40 MLOAD DUP1 SWAP2 SUB SWAP1 REVERT JUMPDEST DUP2 PUSH1 0xA0 DUP2 DUP2 MSTORE POP POP DUP1 PUSH1 0x80 DUP2 DUP2 MSTORE POP POP POP POP PUSH2 0x1EE JUMP JUMPDEST PUSH0 PUSH0 REVERT JUMPDEST PUSH0 DUP2 SWAP1 POP SWAP2 SWAP1 POP JUMP JUMPDEST PUSH2 0x140 DUP2 PUSH2 0x12E JUMP JUMPDEST DUP2 EQ PUSH2 0x14A JUMPI PUSH0 PUSH0 REVERT JUMPDEST POP JUMP JUMPDEST PUSH0 DUP2 MLOAD SWAP1 POP PUSH2 0x15B DUP2 PUSH2 0x137 JUMP JUMPDEST SWAP3 SWAP2 POP POP JUMP JUMPDEST PUSH0 PUSH0 PUSH1 0x40 DUP4 DUP6 SUB SLT ISZERO PUSH2 0x177 JUMPI PUSH2 0x176 PUSH2 0x12A JUMP JUMPDEST JUMPDEST PUSH0 PUSH2 0x184 DUP6 DUP3 DUP7 ADD PUSH2 0x14D JUMP JUMPDEST SWAP3 POP POP PUSH1 0x20 PUSH2 0x195 DUP6 DUP3 DUP7 ADD PUSH2 0x14D JUMP JUMPDEST SWAP2 POP POP SWAP3 POP SWAP3 SWAP1 POP JUMP JUMPDEST PUSH2 0x1A8 DUP2 PUSH2 0x12E JUMP JUMPDEST DUP3 MSTORE POP POP JUMP JUMPDEST PUSH0 PUSH1 0x20 DUP3 ADD SWAP1 POP PUSH2 0x1C1 PUSH0 DUP4 ADD DUP5 PUSH2 0x19F JUMP JUMPDEST SWAP3 SWAP2 POP POP JUMP JUMPDEST PUSH0 PUSH1 0x40 DUP3 ADD SWAP1 POP PUSH2 0x1DA PUSH0 DUP4 ADD DUP6 PUSH2 0x19F JUMP JUMPDEST PUSH2 0x1E7 PUSH1 0x20 DUP4 ADD DUP5 PUSH2 0x19F JUMP JUMPDEST SWAP4 SWAP3 POP POP POP JUMP JUMPDEST PUSH1 0x80 MLOAD PUSH1 0xA0 MLOAD PUSH2 0x963 PUSH2 0x20F PUSH0 CODECOPY PUSH0 PUSH2 0x380 ADD MSTORE PUSH0 PUSH2 0x23C ADD MSTORE PUSH2 0x963 PUSH0 RETURN INVALID PUSH1 0x80 PUSH1 0x40 MSTORE PUSH1 0x4 CALLDATASIZE LT PUSH2 0x58 JUMPI PUSH0 CALLDATALOAD PUSH1 0xE0 SHR DUP1 PUSH4 0x6900670C EQ PUSH2 0xD7 JUMPI DUP1 PUSH4 0x8DEBC4A8 EQ PUSH2 0x101 JUMPI DUP1 PUSH4 0x93295C1C EQ PUSH2 0x129 JUMPI DUP1 PUSH4 0xACAF5A14 EQ PUSH2 0x153 JUMPI DUP1 PUSH4 0xC6ACA33C EQ PUSH2 0x15D JUMPI DUP1 PUSH4 0xF39B1809 EQ PUSH2 0x187 JUMPI PUSH2 0x9A JUMP JUMPDEST CALLDATASIZE PUSH2 0x9A JUMPI CALLER PUSH1 0x40 MLOAD PUSH32 0xE1D158FF00000000000000000000000000000000000000000000000000000000 DUP2 MSTORE PUSH1 0x4 ADD PUSH2 0x91 SWAP2 SWAP1 PUSH2 0x6D0 JUMP JUMPDEST PUSH1 0x40 MLOAD DUP1 SWAP2 SUB SWAP1 REVERT JUMPDEST CALLER PUSH1 0x40 MLOAD PUSH32 0xE1D158FF00000000000000000000000000000000000000000000000000000000 DUP2 MSTORE PUSH1 0x4 ADD PUSH2 0xCE SWAP2 SWAP1 PUSH2 0x6D0 JUMP JUMPDEST PUSH1 0x40 MLOAD DUP1 SWAP2 SUB SWAP1 REVERT JUMPDEST CALLVALUE DUP1 ISZERO PUSH2 0xE2 JUMPI PUSH0 PUSH0 REVERT JUMPDEST POP PUSH2 0xEB PUSH2 0x1B1 JUMP JUMPDEST PUSH1 0x40 MLOAD PUSH2 0xF8 SWAP2 SWAP1 PUSH2 0x701 JUMP JUMPDEST PUSH1 0x40 MLOAD DUP1 SWAP2 SUB SWAP1 RETURN JUMPDEST CALLVALUE DUP1 ISZERO PUSH2 0x10C JUMPI PUSH0 PUSH0 REVERT JUMPDEST POP PUSH2 0x127 PUSH1 0x4 DUP1 CALLDATASIZE SUB DUP2 ADD SWAP1 PUSH2 0x122 SWAP2 SWAP1 PUSH2 0x748 JUMP JUMPDEST PUSH2 0x1F5 JUMP JUMPDEST STOP JUMPDEST CALLVALUE DUP1 ISZERO PUSH2 0x134 JUMPI PUSH0 PUSH0 REVERT JUMPDEST POP PUSH2 0x13D PUSH2 0x330 JUMP JUMPDEST PUSH1 0x40 MLOAD PUSH2 0x14A SWAP2 SWAP1 PUSH2 0x701 JUMP JUMPDEST PUSH1 0x40 MLOAD DUP1 SWAP2 SUB SWAP1 RETURN JUMPDEST PUSH2 0x15B PUSH2 0x339 JUMP JUMPDEST STOP JUMPDEST CALLVALUE DUP1 ISZERO PUSH2 0x168 JUMPI PUSH0 PUSH0 REVERT JUMPDEST POP PUSH2 0x171 PUSH2 0x4AE JUMP JUMPDEST PUSH1 0x40 MLOAD PUSH2 0x17E SWAP2 SWAP1 PUSH2 0x701 JUMP JUMPDEST PUSH1 0x40 MLOAD DUP1 SWAP2 SUB SWAP1 RETURN JUMPDEST CALLVALUE DUP1 ISZERO PUSH2 0x192 JUMPI PUSH0 PUSH0 REVERT JUMPDEST POP PUSH2 0x19B PUSH2 0x4B7 JUMP JUMPDEST PUSH1 0x40 MLOAD PUSH2 0x1A8 SWAP2 SWAP1 PUSH2 0x701 JUMP JUMPDEST PUSH1 0x40 MLOAD DUP1 SWAP2 SUB SWAP1 RETURN JUMPDEST PUSH0 PUSH1 0x4 PUSH0 CALLER PUSH20 0xFFFFFFFFFFFFFFFFFFFFFFFFFFFFFFFFFFFFFFFF AND PUSH20 0xFFFFFFFFFFFFFFFFFFFFFFFFFFFFFFFFFFFFFFFF AND DUP2 MSTORE PUSH1 0x20 ADD SWAP1 DUP2 MSTORE PUSH1 0x20 ADD PUSH0 KECCAK256 SLOAD SWAP1 POP SWAP1 JUMP JUMPDEST DUP1 PUSH0 DUP2 SUB PUSH2 0x23A JUMPI CALLER PUSH1 0x40 MLOAD PUSH32 0xB2F0923100000000000000000000000000000000000000000000000000000000 DUP2 MSTORE PUSH1 0x4 ADD PUSH2 0x231 SWAP2 SWAP1 PUSH2 0x6D0 JUMP JUMPDEST PUSH1 0x40 MLOAD DUP1 SWAP2 SUB SWAP1 REVERT JUMPDEST PUSH32 0x0 DUP2 GT ISZERO PUSH2 0x29F JUMPI DUP1 PUSH1 0x40 MLOAD PUSH32 0xC399356500000000000000000000000000000000000000000000000000000000 DUP2 MSTORE PUSH1 0x4 ADD PUSH2 0x296 SWAP2 SWAP1 PUSH2 0x701 JUMP JUMPDEST PUSH1 0x40 MLOAD DUP1 SWAP2 SUB SWAP1 REVERT JUMPDEST PUSH1 0x4 PUSH0 CALLER PUSH20 0xFFFFFFFFFFFFFFFFFFFFFFFFFFFFFFFFFFFFFFFF AND PUSH20 0xFFFFFFFFFFFFFFFFFFFFFFFFFFFFFFFFFFFFFFFF AND DUP2 MSTORE PUSH1 0x20 ADD SWAP1 DUP2 MSTORE PUSH1 0x20 ADD PUSH0 KECCAK256 SLOAD DUP2 GT ISZERO PUSH2 0x323 JUMPI CALLER DUP2 PUSH1 0x40 MLOAD PUSH32 0x51A7314200000000000000000000000000000000000000000000000000000000 DUP2 MSTORE PUSH1 0x4 ADD PUSH2 0x31A SWAP3 SWAP2 SWAP1 PUSH2 0x773 JUMP JUMPDEST PUSH1 0x40 MLOAD DUP1 SWAP2 SUB SWAP1 REVERT JUMPDEST PUSH2 0x32C DUP3 PUSH2 0x4C0 JUMP JUMPDEST POP POP JUMP JUMPDEST PUSH0 PUSH1 0x3 SLOAD SWAP1 POP SWAP1 JUMP JUMPDEST CALLVALUE PUSH0 DUP2 SUB PUSH2 0x37E JUMPI CALLER PUSH1 0x40 MLOAD PUSH32 0xB2F0923100000000000000000000000000000000000000000000000000000000 DUP2 MSTORE PUSH1 0x4 ADD PUSH2 0x375 SWAP2 SWAP1 PUSH2 0x6D0 JUMP JUMPDEST PUSH1 0x40 MLOAD DUP1 SWAP2 SUB SWAP1 REVERT JUMPDEST PUSH32 0x0 PUSH1 0x3 SLOAD DUP3 PUSH2 0x3AD SWAP2 SWAP1 PUSH2 0x7C7 JUMP JUMPDEST GT ISZERO PUSH2 0x3F0 JUMPI DUP1 PUSH1 0x40 MLOAD PUSH32 0x2900B02C00000000000000000000000000000000000000000000000000000000 DUP2 MSTORE PUSH1 0x4 ADD PUSH2 0x3E7 SWAP2 SWAP1 PUSH2 0x701 JUMP JUMPDEST PUSH1 0x40 MLOAD DUP1 SWAP2 SUB SWAP1 REVERT JUMPDEST CALLVALUE PUSH1 0x4 PUSH0 CALLER PUSH20 0xFFFFFFFFFFFFFFFFFFFFFFFFFFFFFFFFFFFFFFFF AND PUSH20 0xFFFFFFFFFFFFFFFFFFFFFFFFFFFFFFFFFFFFFFFF AND DUP2 MSTORE PUSH1 0x20 ADD SWAP1 DUP2 MSTORE PUSH1 0x20 ADD PUSH0 KECCAK256 PUSH0 DUP3 DUP3 SLOAD PUSH2 0x43C SWAP2 SWAP1 PUSH2 0x7C7 JUMP JUMPDEST SWAP3 POP POP DUP2 SWAP1 SSTORE POP PUSH1 0x1 PUSH0 DUP2 SLOAD DUP1 SWAP3 SWAP2 SWAP1 PUSH2 0x455 SWAP1 PUSH2 0x7FA JUMP JUMPDEST SWAP2 SWAP1 POP SSTORE POP CALLVALUE PUSH1 0x3 PUSH0 DUP3 DUP3 SLOAD PUSH2 0x46B SWAP2 SWAP1 PUSH2 0x7C7 JUMP JUMPDEST SWAP3 POP POP DUP2 SWAP1 SSTORE POP PUSH32 0x9D15693852BF60DC27BD5AA831D0351359B7D01D428AE1BAAE11F15CBCFEBAFD CALLER CALLVALUE PUSH1 0x40 MLOAD PUSH2 0x4A3 SWAP3 SWAP2 SWAP1 PUSH2 0x773 JUMP JUMPDEST PUSH1 0x40 MLOAD DUP1 SWAP2 SUB SWAP1 LOG1 POP JUMP JUMPDEST PUSH0 PUSH1 0x2 SLOAD SWAP1 POP SWAP1 JUMP JUMPDEST PUSH0 PUSH1 0x1 SLOAD SWAP1 POP SWAP1 JUMP JUMPDEST PUSH2 0x4C8 PUSH2 0x63B JUMP JUMPDEST DUP1 PUSH1 0x4 PUSH0 CALLER PUSH20 0xFFFFFFFFFFFFFFFFFFFFFFFFFFFFFFFFFFFFFFFF AND PUSH20 0xFFFFFFFFFFFFFFFFFFFFFFFFFFFFFFFFFFFFFFFF AND DUP2 MSTORE PUSH1 0x20 ADD SWAP1 DUP2 MSTORE PUSH1 0x20 ADD PUSH0 KECCAK256 PUSH0 DUP3 DUP3 SLOAD PUSH2 0x514 SWAP2 SWAP1 PUSH2 0x841 JUMP JUMPDEST SWAP3 POP POP DUP2 SWAP1 SSTORE POP PUSH1 0x2 PUSH0 DUP2 SLOAD DUP1 SWAP3 SWAP2 SWAP1 PUSH2 0x52D SWAP1 PUSH2 0x7FA JUMP JUMPDEST SWAP2 SWAP1 POP SSTORE POP DUP1 PUSH1 0x3 PUSH0 DUP3 DUP3 SLOAD PUSH2 0x543 SWAP2 SWAP1 PUSH2 0x841 JUMP JUMPDEST SWAP3 POP POP DUP2 SWAP1 SSTORE POP PUSH32 0x9CDE449504E4972FFDDEC09813E0C252A1462D76BEF1864B9E7520DADB7183E8 CALLER DUP3 PUSH1 0x40 MLOAD PUSH2 0x57B SWAP3 SWAP2 SWAP1 PUSH2 0x773 JUMP JUMPDEST PUSH1 0x40 MLOAD DUP1 SWAP2 SUB SWAP1 LOG1 PUSH0 CALLER PUSH20 0xFFFFFFFFFFFFFFFFFFFFFFFFFFFFFFFFFFFFFFFF AND DUP3 PUSH1 0x40 MLOAD PUSH2 0x5A8 SWAP1 PUSH2 0x8A1 JUMP JUMPDEST PUSH0 PUSH1 0x40 MLOAD DUP1 DUP4 SUB DUP2 DUP6 DUP8 GAS CALL SWAP3 POP POP POP RETURNDATASIZE DUP1 PUSH0 DUP2 EQ PUSH2 0x5E2 JUMPI PUSH1 0x40 MLOAD SWAP2 POP PUSH1 0x1F NOT PUSH1 0x3F RETURNDATASIZE ADD AND DUP3 ADD PUSH1 0x40 MSTORE RETURNDATASIZE DUP3 MSTORE RETURNDATASIZE PUSH0 PUSH1 0x20 DUP5 ADD RETURNDATACOPY PUSH2 0x5E7 JUMP JUMPDEST PUSH1 0x60 SWAP2 POP JUMPDEST POP POP SWAP1 POP DUP1 PUSH2 0x62F JUMPI CALLER DUP3 PUSH1 0x40 MLOAD PUSH32 0x6C5E1A1400000000000000000000000000000000000000000000000000000000 DUP2 MSTORE PUSH1 0x4 ADD PUSH2 0x626 SWAP3 SWAP2 SWAP1 PUSH2 0x773 JUMP JUMPDEST PUSH1 0x40 MLOAD DUP1 SWAP2 SUB SWAP1 REVERT JUMPDEST POP PUSH2 0x638 PUSH2 0x688 JUMP JUMPDEST POP JUMP JUMPDEST PUSH1 0x2 PUSH0 SLOAD SUB PUSH2 0x67F JUMPI PUSH1 0x40 MLOAD PUSH32 0x8C379A000000000000000000000000000000000000000000000000000000000 DUP2 MSTORE PUSH1 0x4 ADD PUSH2 0x676 SWAP1 PUSH2 0x90F JUMP JUMPDEST PUSH1 0x40 MLOAD DUP1 SWAP2 SUB SWAP1 REVERT JUMPDEST PUSH1 0x2 PUSH0 DUP2 SWAP1 SSTORE POP JUMP JUMPDEST PUSH1 0x1 PUSH0 DUP2 SWAP1 SSTORE POP JUMP JUMPDEST PUSH0 PUSH20 0xFFFFFFFFFFFFFFFFFFFFFFFFFFFFFFFFFFFFFFFF DUP3 AND SWAP1 POP SWAP2 SWAP1 POP JUMP JUMPDEST PUSH0 PUSH2 0x6BA DUP3 PUSH2 0x691 JUMP JUMPDEST SWAP1 POP SWAP2 SWAP1 POP JUMP JUMPDEST PUSH2 0x6CA DUP2 PUSH2 0x6B0 JUMP JUMPDEST DUP3 MSTORE POP POP JUMP JUMPDEST PUSH0 PUSH1 0x20 DUP3 ADD SWAP1 POP PUSH2 0x6E3 PUSH0 DUP4 ADD DUP5 PUSH2 0x6C1 JUMP JUMPDEST SWAP3 SWAP2 POP POP JUMP JUMPDEST PUSH0 DUP2 SWAP1 POP SWAP2 SWAP1 POP JUMP JUMPDEST PUSH2 0x6FB DUP2 PUSH2 0x6E9 JUMP JUMPDEST DUP3 MSTORE POP POP JUMP JUMPDEST PUSH0 PUSH1 0x20 DUP3 ADD SWAP1 POP PUSH2 0x714 PUSH0 DUP4 ADD DUP5 PUSH2 0x6F2 JUMP JUMPDEST SWAP3 SWAP2 POP POP JUMP JUMPDEST PUSH0 PUSH0 REVERT JUMPDEST PUSH2 0x727 DUP2 PUSH2 0x6E9 JUMP JUMPDEST DUP2 EQ PUSH2 0x731 JUMPI PUSH0 PUSH0 REVERT JUMPDEST POP JUMP JUMPDEST PUSH0 DUP2 CALLDATALOAD SWAP1 POP PUSH2 0x742 DUP2 PUSH2 0x71E JUMP JUMPDEST SWAP3 SWAP2 POP POP JUMP JUMPDEST PUSH0 PUSH1 0x20 DUP3 DUP5 SUB SLT ISZERO PUSH2 0x75D JUMPI PUSH2 0x75C PUSH2 0x71A JUMP JUMPDEST JUMPDEST PUSH0 PUSH2 0x76A DUP5 DUP3 DUP6 ADD PUSH2 0x734 JUMP JUMPDEST SWAP2 POP POP SWAP3 SWAP2 POP POP JUMP JUMPDEST PUSH0 PUSH1 0x40 DUP3 ADD SWAP1 POP PUSH2 0x786 PUSH0 DUP4 ADD DUP6 PUSH2 0x6C1 JUMP JUMPDEST PUSH2 0x793 PUSH1 0x20 DUP4 ADD DUP5 PUSH2 0x6F2 JUMP JUMPDEST SWAP4 SWAP3 POP POP POP JUMP JUMPDEST PUSH32 0x4E487B7100000000000000000000000000000000000000000000000000000000 PUSH0 MSTORE PUSH1 0x11 PUSH1 0x4 MSTORE PUSH1 0x24 PUSH0 REVERT JUMPDEST PUSH0 PUSH2 0x7D1 DUP3 PUSH2 0x6E9 JUMP JUMPDEST SWAP2 POP PUSH2 0x7DC DUP4 PUSH2 0x6E9 JUMP JUMPDEST SWAP3 POP DUP3 DUP3 ADD SWAP1 POP DUP1 DUP3 GT ISZERO PUSH2 0x7F4 JUMPI PUSH2 0x7F3 PUSH2 0x79A JUMP JUMPDEST JUMPDEST SWAP3 SWAP2 POP POP JUMP JUMPDEST PUSH0 PUSH2 0x804 DUP3 PUSH2 0x6E9 JUMP JUMPDEST SWAP2 POP PUSH32 0xFFFFFFFFFFFFFFFFFFFFFFFFFFFFFFFFFFFFFFFFFFFFFFFFFFFFFFFFFFFFFFFF DUP3 SUB PUSH2 0x836 JUMPI PUSH2 0x835 PUSH2 0x79A JUMP JUMPDEST JUMPDEST PUSH1 0x1 DUP3 ADD SWAP1 POP SWAP2 SWAP1 POP JUMP JUMPDEST PUSH0 PUSH2 0x84B DUP3 PUSH2 0x6E9 JUMP JUMPDEST SWAP2 POP PUSH2 0x856 DUP4 PUSH2 0x6E9 JUMP JUMPDEST SWAP3 POP DUP3 DUP3 SUB SWAP1 POP DUP2 DUP2 GT ISZERO PUSH2 0x86E JUMPI PUSH2 0x86D PUSH2 0x79A JUMP JUMPDEST JUMPDEST SWAP3 SWAP2 POP POP JUMP JUMPDEST PUSH0 DUP2 SWAP1 POP SWAP3 SWAP2 POP POP JUMP JUMPDEST POP JUMP JUMPDEST PUSH0 PUSH2 0x88C PUSH0 DUP4 PUSH2 0x874 JUMP JUMPDEST SWAP2 POP PUSH2 0x897 DUP3 PUSH2 0x87E JUMP JUMPDEST PUSH0 DUP3 ADD SWAP1 POP SWAP2 SWAP1 POP JUMP JUMPDEST PUSH0 PUSH2 0x8AB DUP3 PUSH2 0x881 JUMP JUMPDEST SWAP2 POP DUP2 SWAP1 POP SWAP2 SWAP1 POP JUMP JUMPDEST PUSH0 DUP3 DUP3 MSTORE PUSH1 0x20 DUP3 ADD SWAP1 POP SWAP3 SWAP2 POP POP JUMP JUMPDEST PUSH32 0x5265656E7472616E637947756172643A207265656E7472616E742063616C6C00 PUSH0 DUP3 ADD MSTORE POP JUMP JUMPDEST PUSH0 PUSH2 0x8F9 PUSH1 0x1F DUP4 PUSH2 0x8B5 JUMP JUMPDEST SWAP2 POP PUSH2 0x904 DUP3 PUSH2 0x8C5 JUMP JUMPDEST PUSH1 0x20 DUP3 ADD SWAP1 POP SWAP2 SWAP1 POP JUMP JUMPDEST PUSH0 PUSH1 0x20 DUP3 ADD SWAP1 POP DUP2 DUP2 SUB PUSH0 DUP4 ADD MSTORE PUSH2 0x926 DUP2 PUSH2 0x8ED JUMP JUMPDEST SWAP1 POP SWAP2 SWAP1 POP JUMP INVALID LOG2 PUSH5 0x6970667358 0x22 SLT KECCAK256 SWAP11 PUSH21 0x9E50149F754AB16013FBB85AD1B4B3F8852FCF91E9 0xD7 0x2F PUSH22 0xEFBE3928B99464736F6C634300081E00330000000000 "
				},
				"gasEstimates": {
					"creation": {
						"codeDepositCost": "480600",
						"executionCost": "infinite",
						"totalCost": "infinite"
					},
					"external": {
						"": "438",
						"depositarEnBoveda()": "infinite",
						"retirarDeBoveda(uint256)": "infinite",
						"verBoveda()": "2497",
						"verTotalContrato()": "2454",
						"verTotalDepositos()": "2520",
						"verTotalRetiros()": "2498"
					},
					"internal": {
						"_retirarFondos(uint256)": "infinite"
					}
				},
				"methodIdentifiers": {
					"depositarEnBoveda()": "acaf5a14",
					"retirarDeBoveda(uint256)": "8debc4a8",
					"verBoveda()": "6900670c",
					"verTotalContrato()": "93295c1c",
					"verTotalDepositos()": "f39b1809",
					"verTotalRetiros()": "c6aca33c"
				}
			},
			"storageLayout": {
				"storage": [
					{
						"astId": 10,
						"contract": "contracts/KipuBank.sol:KipuBank",
						"label": "_status",
						"offset": 0,
						"slot": "0",
						"type": "t_uint256"
					},
					{
						"astId": 79,
						"contract": "contracts/KipuBank.sol:KipuBank",
						"label": "_depositos",
						"offset": 0,
						"slot": "1",
						"type": "t_uint256"
					},
					{
						"astId": 83,
						"contract": "contracts/KipuBank.sol:KipuBank",
						"label": "_retiros",
						"offset": 0,
						"slot": "2",
						"type": "t_uint256"
					},
					{
						"astId": 87,
						"contract": "contracts/KipuBank.sol:KipuBank",
						"label": "_totalContrato",
						"offset": 0,
						"slot": "3",
						"type": "t_uint256"
					},
					{
						"astId": 92,
						"contract": "contracts/KipuBank.sol:KipuBank",
						"label": "_boveda",
						"offset": 0,
						"slot": "4",
						"type": "t_mapping(t_address,t_uint256)"
					}
				],
				"types": {
					"t_address": {
						"encoding": "inplace",
						"label": "address",
						"numberOfBytes": "20"
					},
					"t_mapping(t_address,t_uint256)": {
						"encoding": "mapping",
						"key": "t_address",
						"label": "mapping(address => uint256)",
						"numberOfBytes": "32",
						"value": "t_uint256"
					},
					"t_uint256": {
						"encoding": "inplace",
						"label": "uint256",
						"numberOfBytes": "32"
					}
				}
			},
			"userdoc": {
				"errors": {
					"KipuBank_ExtraccionRechazada(address,uint256)": [
						{
							"notice": "Error de extraccion"
						}
					],
					"KipuBank_InicializacionInvalida(uint256,uint256)": [
						{
							"notice": "Error de umbral mayor al limite"
						}
					],
					"KipuBank_LimiteExcedido(uint256)": [
						{
							"notice": "Error por sobrepasarse del limite"
						}
					],
					"KipuBank_LimiteInvalido(uint256)": [
						{
							"notice": "Error por limite invalido"
						}
					],
					"KipuBank_MontoCero(address)": [
						{
							"notice": "Error monto cero"
						}
					],
					"KipuBank_OperacionNoPermitida(address)": [
						{
							"notice": "Error por operacion no permitida"
						}
					],
					"KipuBank_SaldoInsuficiente(address,uint256)": [
						{
							"notice": "Error por saldo insuficiente"
						}
					],
					"KipuBank_UmbralExcedido(uint256)": [
						{
							"notice": "Error por umbral excedido"
						}
					],
					"KipuBank_UmbralInvalido(uint256)": [
						{
							"notice": "Error por umbral invalido"
						}
					]
				},
				"events": {
					"KipuBank_DepositoRealizado(address,uint256)": {
						"notice": "Evento para depositos realizado exitosamente"
					},
					"KipuBank_ExtraccionRealizada(address,uint256)": {
						"notice": "Evento para extracciones realizadas exitosamente"
					}
				},
				"kind": "user",
				"methods": {
					"constructor": {
						"notice": "Constructor del contrato"
					},
					"depositarEnBoveda()": {
						"notice": "Funcion para depositar en la boveda"
					},
					"retirarDeBoveda(uint256)": {
						"notice": "Funcion externa para realizar el retiro de saldo"
					},
					"verBoveda()": {
						"notice": "Funcion para ver el saldo guardado en el boveda"
					},
					"verTotalContrato()": {
						"notice": "Funcion para ver el saldo total del contrato"
					},
					"verTotalDepositos()": {
						"notice": "Funcion para ver la totalidad de los depositos"
					},
					"verTotalRetiros()": {
						"notice": "Funcion para ver la totalidad de los retiros"
					}
				},
				"version": 1
			}
		}
	}
}