{
	"contracts/KipuBank.sol": {
		"KipuBank": {
			"abi": [
				{
					"inputs": [
						{
							"internalType": "uint256",
							"name": "_limite",
							"type": "uint256"
						},
						{
							"internalType": "uint256",
							"name": "_umbral",
							"type": "uint256"
						},
						{
							"internalType": "address",
							"name": "_owner",
							"type": "address"
						},
						{
							"internalType": "address",
							"name": "_feed",
							"type": "address"
						},
						{
							"internalType": "address",
							"name": "_tokenERC20",
							"type": "address"
						}
					],
					"stateMutability": "nonpayable",
					"type": "constructor"
				},
				{
					"inputs": [],
					"name": "EnforcedPause",
					"type": "error"
				},
				{
					"inputs": [],
					"name": "ExpectedPause",
					"type": "error"
				},
				{
					"inputs": [],
					"name": "KipuBank_DireccionInvalida",
					"type": "error"
				},
				{
					"inputs": [
						{
							"internalType": "address",
							"name": "titular",
							"type": "address"
						},
						{
							"internalType": "uint256",
							"name": "monto",
							"type": "uint256"
						}
					],
					"name": "KipuBank_ExtraccionRechazada",
					"type": "error"
				},
				{
					"inputs": [
						{
							"internalType": "address",
							"name": "nuevoFeed",
							"type": "address"
						}
					],
					"name": "KipuBank_FeedInvalido",
					"type": "error"
				},
				{
					"inputs": [
						{
							"internalType": "uint256",
							"name": "limite",
							"type": "uint256"
						},
						{
							"internalType": "uint256",
							"name": "umbral",
							"type": "uint256"
						}
					],
					"name": "KipuBank_InicializacionInvalida",
					"type": "error"
				},
				{
					"inputs": [
						{
							"internalType": "uint256",
							"name": "monto",
							"type": "uint256"
						}
					],
					"name": "KipuBank_LimiteExcedido",
					"type": "error"
				},
				{
					"inputs": [
						{
							"internalType": "uint256",
							"name": "limite",
							"type": "uint256"
						}
					],
					"name": "KipuBank_LimiteInvalido",
					"type": "error"
				},
				{
					"inputs": [
						{
							"internalType": "address",
							"name": "titular",
							"type": "address"
						}
					],
					"name": "KipuBank_MontoCero",
					"type": "error"
				},
				{
					"inputs": [
						{
							"internalType": "address",
							"name": "titular",
							"type": "address"
						}
					],
					"name": "KipuBank_OperacionNoPermitida",
					"type": "error"
				},
				{
					"inputs": [
						{
							"internalType": "uint256",
							"name": "precio",
							"type": "uint256"
						}
					],
					"name": "KipuBank_OraculoComprometido",
					"type": "error"
				},
				{
					"inputs": [
						{
							"internalType": "uint256",
							"name": "precio",
							"type": "uint256"
						}
					],
					"name": "KipuBank_PrecioDesactualizado",
					"type": "error"
				},
				{
					"inputs": [
						{
							"internalType": "address",
							"name": "titular",
							"type": "address"
						},
						{
							"internalType": "uint256",
							"name": "monto",
							"type": "uint256"
						}
					],
					"name": "KipuBank_SaldoInsuficiente",
					"type": "error"
				},
				{
					"inputs": [
						{
							"internalType": "uint256",
							"name": "monto",
							"type": "uint256"
						}
					],
					"name": "KipuBank_UmbralExcedido",
					"type": "error"
				},
				{
					"inputs": [
						{
							"internalType": "uint256",
							"name": "umbral",
							"type": "uint256"
						}
					],
					"name": "KipuBank_UmbralInvalido",
					"type": "error"
				},
				{
					"inputs": [
						{
							"internalType": "address",
							"name": "owner",
							"type": "address"
						}
					],
					"name": "OwnableInvalidOwner",
					"type": "error"
				},
				{
					"inputs": [
						{
							"internalType": "address",
							"name": "account",
							"type": "address"
						}
					],
					"name": "OwnableUnauthorizedAccount",
					"type": "error"
				},
				{
					"inputs": [
						{
							"internalType": "address",
							"name": "token",
							"type": "address"
						}
					],
					"name": "SafeERC20FailedOperation",
					"type": "error"
				},
				{
					"anonymous": false,
					"inputs": [
						{
							"indexed": true,
							"internalType": "address",
							"name": "sender",
							"type": "address"
						},
						{
							"indexed": false,
							"internalType": "uint256",
							"name": "tiempo",
							"type": "uint256"
						}
					],
					"name": "KipuBank_ContratoDespausado",
					"type": "event"
				},
				{
					"anonymous": false,
					"inputs": [
						{
							"indexed": true,
							"internalType": "address",
							"name": "sender",
							"type": "address"
						},
						{
							"indexed": false,
							"internalType": "uint256",
							"name": "tiempo",
							"type": "uint256"
						}
					],
					"name": "KipuBank_ContratoPausado",
					"type": "event"
				},
				{
					"anonymous": false,
					"inputs": [
						{
							"indexed": true,
							"internalType": "address",
							"name": "titular",
							"type": "address"
						},
						{
							"indexed": false,
							"internalType": "uint256",
							"name": "monto",
							"type": "uint256"
						}
					],
					"name": "KipuBank_DepositoRealizado",
					"type": "event"
				},
				{
					"anonymous": false,
					"inputs": [
						{
							"indexed": true,
							"internalType": "address",
							"name": "titular",
							"type": "address"
						},
						{
							"indexed": false,
							"internalType": "uint256",
							"name": "monto",
							"type": "uint256"
						}
					],
					"name": "KipuBank_ExtraccionRealizada",
					"type": "event"
				},
				{
					"anonymous": false,
					"inputs": [
						{
							"indexed": true,
							"internalType": "address",
							"name": "antiguoFeed",
							"type": "address"
						},
						{
							"indexed": true,
							"internalType": "address",
							"name": "nuevoFeed",
							"type": "address"
						}
					],
					"name": "KipuBank_FeedActualizado",
					"type": "event"
				},
				{
					"anonymous": false,
					"inputs": [
						{
							"indexed": true,
							"internalType": "address",
							"name": "previousOwner",
							"type": "address"
						},
						{
							"indexed": true,
							"internalType": "address",
							"name": "newOwner",
							"type": "address"
						}
					],
					"name": "OwnershipTransferred",
					"type": "event"
				},
				{
					"anonymous": false,
					"inputs": [
						{
							"indexed": false,
							"internalType": "address",
							"name": "account",
							"type": "address"
						}
					],
					"name": "Paused",
					"type": "event"
				},
				{
					"anonymous": false,
					"inputs": [
						{
							"indexed": false,
							"internalType": "address",
							"name": "account",
							"type": "address"
						}
					],
					"name": "Unpaused",
					"type": "event"
				},
				{
					"stateMutability": "payable",
					"type": "fallback"
				},
				{
					"inputs": [],
					"name": "depositarETH",
					"outputs": [],
					"stateMutability": "payable",
					"type": "function"
				},
				{
					"inputs": [
						{
							"internalType": "uint256",
							"name": "_monto",
							"type": "uint256"
						}
					],
					"name": "depositarUSDC",
					"outputs": [],
					"stateMutability": "nonpayable",
					"type": "function"
				},
				{
					"inputs": [],
					"name": "despausarContrato",
					"outputs": [],
					"stateMutability": "nonpayable",
					"type": "function"
				},
				{
					"inputs": [],
					"name": "estadoDelContrato",
					"outputs": [
						{
							"internalType": "bool",
							"name": "pausado",
							"type": "bool"
						},
						{
							"internalType": "uint256",
							"name": "totalContrato",
							"type": "uint256"
						},
						{
							"internalType": "uint256",
							"name": "limite",
							"type": "uint256"
						},
						{
							"internalType": "uint256",
							"name": "umbral",
							"type": "uint256"
						},
						{
							"internalType": "address",
							"name": "feedActual",
							"type": "address"
						}
					],
					"stateMutability": "view",
					"type": "function"
				},
				{
					"inputs": [],
					"name": "owner",
					"outputs": [
						{
							"internalType": "address",
							"name": "",
							"type": "address"
						}
					],
					"stateMutability": "view",
					"type": "function"
				},
				{
					"inputs": [],
					"name": "pausarContrato",
					"outputs": [],
					"stateMutability": "nonpayable",
					"type": "function"
				},
				{
					"inputs": [],
					"name": "paused",
					"outputs": [
						{
							"internalType": "bool",
							"name": "",
							"type": "bool"
						}
					],
					"stateMutability": "view",
					"type": "function"
				},
				{
					"inputs": [],
					"name": "renounceOwnership",
					"outputs": [],
					"stateMutability": "nonpayable",
					"type": "function"
				},
				{
					"inputs": [
						{
							"internalType": "uint256",
							"name": "_monto",
							"type": "uint256"
						}
					],
					"name": "retirarETH",
					"outputs": [],
					"stateMutability": "nonpayable",
					"type": "function"
				},
				{
					"inputs": [
						{
							"internalType": "uint256",
							"name": "_monto",
							"type": "uint256"
						}
					],
					"name": "retirarUSDC",
					"outputs": [],
					"stateMutability": "nonpayable",
					"type": "function"
				},
				{
					"inputs": [],
					"name": "s_feed",
					"outputs": [
						{
							"internalType": "contract AggregatorV3Interface",
							"name": "",
							"type": "address"
						}
					],
					"stateMutability": "view",
					"type": "function"
				},
				{
					"inputs": [
						{
							"internalType": "address",
							"name": "_nuevoFeed",
							"type": "address"
						}
					],
					"name": "setFeeds",
					"outputs": [],
					"stateMutability": "nonpayable",
					"type": "function"
				},
				{
					"inputs": [
						{
							"internalType": "address",
							"name": "newOwner",
							"type": "address"
						}
					],
					"name": "transferOwnership",
					"outputs": [],
					"stateMutability": "nonpayable",
					"type": "function"
				},
				{
					"inputs": [
						{
							"internalType": "address",
							"name": "_nuevoOwner",
							"type": "address"
						}
					],
					"name": "transferirOwner",
					"outputs": [],
					"stateMutability": "nonpayable",
					"type": "function"
				},
				{
					"inputs": [],
					"name": "verBoveda",
					"outputs": [
						{
							"internalType": "uint256",
							"name": "monto_",
							"type": "uint256"
						}
					],
					"stateMutability": "view",
					"type": "function"
				},
				{
					"inputs": [],
					"name": "verSaldoETH",
					"outputs": [
						{
							"internalType": "uint256",
							"name": "saldo_",
							"type": "uint256"
						}
					],
					"stateMutability": "view",
					"type": "function"
				},
				{
					"inputs": [],
					"name": "verSaldoUSDC",
					"outputs": [
						{
							"internalType": "uint256",
							"name": "saldo_",
							"type": "uint256"
						}
					],
					"stateMutability": "view",
					"type": "function"
				},
				{
					"inputs": [],
					"name": "verTotalContrato",
					"outputs": [
						{
							"internalType": "uint256",
							"name": "",
							"type": "uint256"
						}
					],
					"stateMutability": "view",
					"type": "function"
				},
				{
					"inputs": [],
					"name": "verTotalDepositos",
					"outputs": [
						{
							"internalType": "uint256",
							"name": "",
							"type": "uint256"
						}
					],
					"stateMutability": "view",
					"type": "function"
				},
				{
					"inputs": [],
					"name": "verTotalRetiros",
					"outputs": [
						{
							"internalType": "uint256",
							"name": "",
							"type": "uint256"
						}
					],
					"stateMutability": "view",
					"type": "function"
				},
				{
					"stateMutability": "payable",
					"type": "receive"
				}
			],
			"devdoc": {
				"errors": {
					"EnforcedPause()": [
						{
							"details": "The operation failed because the contract is paused."
						}
					],
					"ExpectedPause()": [
						{
							"details": "The operation failed because the contract is not paused."
						}
					],
					"KipuBank_ExtraccionRechazada(address,uint256)": [
						{
							"params": {
								"monto": "monto a extraer de la boveda",
								"titular": "titular de la cuenta a realizar la extracción"
							}
						}
					],
					"KipuBank_InicializacionInvalida(uint256,uint256)": [
						{
							"params": {
								"limite": "limite del contrato",
								"umbral": "umbral del contrato"
							}
						}
					],
					"KipuBank_LimiteExcedido(uint256)": [
						{
							"params": {
								"monto": "monto que excede el limite a depositar"
							}
						}
					],
					"KipuBank_LimiteInvalido(uint256)": [
						{
							"params": {
								"limite": "limite que es invalido"
							}
						}
					],
					"KipuBank_MontoCero(address)": [
						{
							"params": {
								"titular": "titular que emite una transaccion con valor nulo"
							}
						}
					],
					"KipuBank_OperacionNoPermitida(address)": [
						{
							"params": {
								"titular": "titular que realizo la operacion no permitida"
							}
						}
					],
					"KipuBank_OraculoComprometido(uint256)": [
						{
							"params": {
								"precio": "Precio que dió el óraculo"
							}
						}
					],
					"KipuBank_PrecioDesactualizado(uint256)": [
						{
							"params": {
								"precio": "Es el precio que quedó desactualizado"
							}
						}
					],
					"KipuBank_SaldoInsuficiente(address,uint256)": [
						{
							"params": {
								"monto": "monto a retirar",
								"titular": "titular con saldo insuficiente"
							}
						}
					],
					"KipuBank_UmbralExcedido(uint256)": [
						{
							"params": {
								"monto": "que excede el umbral establecido"
							}
						}
					],
					"KipuBank_UmbralInvalido(uint256)": [
						{
							"params": {
								"umbral": "umbral que es invalido"
							}
						}
					],
					"OwnableInvalidOwner(address)": [
						{
							"details": "The owner is not a valid owner account. (eg. `address(0)`)"
						}
					],
					"OwnableUnauthorizedAccount(address)": [
						{
							"details": "The caller account is not authorized to perform an operation."
						}
					],
					"SafeERC20FailedOperation(address)": [
						{
							"details": "An operation with an ERC-20 token failed."
						}
					]
				},
				"events": {
					"KipuBank_DepositoRealizado(address,uint256)": {
						"params": {
							"monto": "monto que se desea depositar",
							"titular": "titular que realiza el detposito"
						}
					},
					"KipuBank_ExtraccionRealizada(address,uint256)": {
						"params": {
							"monto": "monto que se desea extraer",
							"titular": "titular que desea realizar la extracción"
						}
					},
					"Paused(address)": {
						"details": "Emitted when the pause is triggered by `account`."
					},
					"Unpaused(address)": {
						"details": "Emitted when the pause is lifted by `account`."
					}
				},
				"kind": "dev",
				"methods": {
					"constructor": {
						"details": "Se deben generar el limite, umbral y las direcciones del data feed y el token a utilizar al momento de desplegar el contrato",
						"params": {
							"_feed": "Direccion del data feed a utlizar",
							"_limite": "Limite global que se permite por transaccion",
							"_tokenERC20": "Direccion del token ERC20 a utilizar",
							"_umbral": "Umbral de limite de retiros"
						}
					},
					"depositarETH()": {
						"details": "Es payable y usa el modificador de verificarDepositos"
					},
					"depositarUSDC(uint256)": {
						"details": "Es payable y usa el modificador de verificarDepositosSe utiliza la interfaz SafeIERC20 para realizar la transferencia de token ERC20No se marca como payable ya que es un token ERC20 y no Ether"
					},
					"owner()": {
						"details": "Returns the address of the current owner."
					},
					"paused()": {
						"details": "Returns true if the contract is paused, and false otherwise."
					},
					"renounceOwnership()": {
						"details": "Leaves the contract without owner. It will not be possible to call `onlyOwner` functions. Can only be called by the current owner. NOTE: Renouncing ownership will leave the contract without an owner, thereby disabling any functionality that is only available to the owner."
					},
					"retirarETH(uint256)": {
						"params": {
							"_monto": "es el monto a retirar de la boveda"
						}
					},
					"retirarUSDC(uint256)": {
						"params": {
							"_monto": "es el monto a retirar de la boveda"
						}
					},
					"setFeeds(address)": {
						"params": {
							"_nuevoFeed": "Será la dirección del nuevo data feed del contrato"
						}
					},
					"transferOwnership(address)": {
						"details": "Transfers ownership of the contract to a new account (`newOwner`). Can only be called by the current owner."
					},
					"transferirOwner(address)": {
						"details": "El modificador de onlyOwner es necesario para seguridad",
						"params": {
							"_nuevoOwner": "Será la dirección del nuevo propietario del contrato"
						}
					},
					"verBoveda()": {
						"returns": {
							"monto_": "devuelve el saldo depositado total en USD depositado por cada titular"
						}
					},
					"verSaldoETH()": {
						"returns": {
							"saldo_": "Retornal el saldo en ETH"
						}
					},
					"verSaldoUSDC()": {
						"returns": {
							"saldo_": "Retorna el saldo en USDC"
						}
					},
					"verTotalContrato()": {
						"returns": {
							"_0": "Devuelve el saldo del contrato en USD"
						}
					},
					"verTotalDepositos()": {
						"returns": {
							"_0": "Devuelve la cantidad de depositos"
						}
					},
					"verTotalRetiros()": {
						"returns": {
							"_0": "Devuelve la cantidad de retiros"
						}
					}
				},
				"stateVariables": {
					"DECIMAL_FACTOR": {
						"details": "Se hace la suma de los decimales de ethereum y de los decimales de la conversión de chainlink para restarles los decimales de USDC, nos da la base igualitaria"
					},
					"HEARTBEAT": {
						"details": "Por convención se establece en 3600"
					},
					"_totalContrato": {
						"details": "El total del contrato es en USD"
					},
					"i_bankCap": {
						"details": "Tener en cuenta que el limite global será en USD"
					},
					"i_usdc": {
						"details": "Es especifico para el token USDC"
					},
					"s_feed": {
						"details": "Utilizamos el data feed de Chainlink"
					}
				},
				"version": 1
			},
			"evm": {
				"assembly": "    /* \"contracts/KipuBank.sol\":799:16092  contract KipuBank is ReentrancyGuard, Ownable, Pausable {... */\n  mstore(0x40, 0xe0)\n    /* \"contracts/KipuBank.sol\":1928:1929  0 */\n  0x00\n    /* \"contracts/KipuBank.sol\":1902:1929  uint private _depositos = 0 */\n  0x03\n  sstore\n    /* \"contracts/KipuBank.sol\":2009:2010  0 */\n  0x00\n    /* \"contracts/KipuBank.sol\":1985:2010  uint private _retiros = 0 */\n  0x04\n  sstore\n    /* \"contracts/KipuBank.sol\":2149:2150  0 */\n  0x00\n    /* \"contracts/KipuBank.sol\":2119:2150  uint private _totalContrato = 0 */\n  0x05\n  sstore\n    /* \"contracts/KipuBank.sol\":5472:6114  constructor(uint _limite, uint _umbral, address _owner, address _feed, address _tokenERC20) Ownable(_owner) {... */\n  callvalue\n  dup1\n  iszero\n  tag_1\n  jumpi\n  revert(0x00, 0x00)\ntag_1:\n  pop\n  mload(0x40)\n  sub(codesize, bytecodeSize)\n  dup1\n  bytecodeSize\n  dup4\n  codecopy\n  dup2\n  dup2\n  add\n  0x40\n  mstore\n  dup2\n  add\n  swap1\n  tag_2\n  swap2\n  swap1\n  tag_3\n  jump\t// in\ntag_2:\n    /* \"contracts/KipuBank.sol\":5572:5578  _owner */\n  dup3\n    /* \"@openzeppelin/contracts/security/ReentrancyGuard.sol\":1716:1717  1 */\n  0x01\n    /* \"@openzeppelin/contracts/security/ReentrancyGuard.sol\":1821:1828  _status */\n  0x00\n    /* \"@openzeppelin/contracts/security/ReentrancyGuard.sol\":1821:1843  _status = _NOT_ENTERED */\n  dup2\n  swap1\n  sstore\n  pop\n    /* \"@openzeppelin/contracts/access/Ownable.sol\":1297:1298  0 */\n  0x00\n    /* \"@openzeppelin/contracts/access/Ownable.sol\":1273:1299  initialOwner == address(0) */\n  0xffffffffffffffffffffffffffffffffffffffff\n  and\n    /* \"@openzeppelin/contracts/access/Ownable.sol\":1273:1285  initialOwner */\n  dup2\n    /* \"@openzeppelin/contracts/access/Ownable.sol\":1273:1299  initialOwner == address(0) */\n  0xffffffffffffffffffffffffffffffffffffffff\n  and\n  sub\n    /* \"@openzeppelin/contracts/access/Ownable.sol\":1269:1364  if (initialOwner == address(0)) {... */\n  tag_9\n  jumpi\n    /* \"@openzeppelin/contracts/access/Ownable.sol\":1350:1351  0 */\n  0x00\n    /* \"@openzeppelin/contracts/access/Ownable.sol\":1322:1353  OwnableInvalidOwner(address(0)) */\n  mload(0x40)\n  0x1e4fbdf700000000000000000000000000000000000000000000000000000000\n  dup2\n  mstore\n  0x04\n  add\n  tag_10\n  swap2\n  swap1\n  tag_11\n  jump\t// in\ntag_10:\n  mload(0x40)\n  dup1\n  swap2\n  sub\n  swap1\n  revert\n    /* \"@openzeppelin/contracts/access/Ownable.sol\":1269:1364  if (initialOwner == address(0)) {... */\ntag_9:\n    /* \"@openzeppelin/contracts/access/Ownable.sol\":1373:1405  _transferOwnership(initialOwner) */\n  tag_12\n    /* \"@openzeppelin/contracts/access/Ownable.sol\":1392:1404  initialOwner */\n  dup2\n    /* \"@openzeppelin/contracts/access/Ownable.sol\":1373:1391  _transferOwnership */\n  shl(0x20, tag_13)\n    /* \"@openzeppelin/contracts/access/Ownable.sol\":1373:1405  _transferOwnership(initialOwner) */\n  0x20\n  shr\n  jump\t// in\ntag_12:\n    /* \"@openzeppelin/contracts/access/Ownable.sol\":1225:1412  constructor(address initialOwner) {... */\n  pop\n    /* \"contracts/KipuBank.sol\":5604:5605  0 */\n  0x00\n    /* \"contracts/KipuBank.sol\":5593:5600  _limite */\n  dup6\n    /* \"contracts/KipuBank.sol\":5593:5605  _limite == 0 */\n  sub\n    /* \"contracts/KipuBank.sol\":5590:5646  if(_limite == 0) revert KipuBank_LimiteInvalido(_limite) */\n  tag_15\n  jumpi\n    /* \"contracts/KipuBank.sol\":5638:5645  _limite */\n  dup5\n    /* \"contracts/KipuBank.sol\":5614:5646  KipuBank_LimiteInvalido(_limite) */\n  mload(0x40)\n  0xf1fdfd2b00000000000000000000000000000000000000000000000000000000\n  dup2\n  mstore\n  0x04\n  add\n  tag_16\n  swap2\n  swap1\n  tag_17\n  jump\t// in\ntag_16:\n  mload(0x40)\n  dup1\n  swap2\n  sub\n  swap1\n  revert\n    /* \"contracts/KipuBank.sol\":5590:5646  if(_limite == 0) revert KipuBank_LimiteInvalido(_limite) */\ntag_15:\n    /* \"contracts/KipuBank.sol\":5670:5671  0 */\n  0x00\n    /* \"contracts/KipuBank.sol\":5659:5666  _umbral */\n  dup5\n    /* \"contracts/KipuBank.sol\":5659:5671  _umbral == 0 */\n  sub\n    /* \"contracts/KipuBank.sol\":5656:5712  if(_umbral == 0) revert KipuBank_UmbralInvalido(_umbral) */\n  tag_18\n  jumpi\n    /* \"contracts/KipuBank.sol\":5704:5711  _umbral */\n  dup4\n    /* \"contracts/KipuBank.sol\":5680:5712  KipuBank_UmbralInvalido(_umbral) */\n  mload(0x40)\n  0x5052fe8e00000000000000000000000000000000000000000000000000000000\n  dup2\n  mstore\n  0x04\n  add\n  tag_19\n  swap2\n  swap1\n  tag_17\n  jump\t// in\ntag_19:\n  mload(0x40)\n  dup1\n  swap2\n  sub\n  swap1\n  revert\n    /* \"contracts/KipuBank.sol\":5656:5712  if(_umbral == 0) revert KipuBank_UmbralInvalido(_umbral) */\ntag_18:\n    /* \"contracts/KipuBank.sol\":5735:5742  _limite */\n  dup5\n    /* \"contracts/KipuBank.sol\":5725:5732  _umbral */\n  dup5\n    /* \"contracts/KipuBank.sol\":5725:5742  _umbral > _limite */\n  gt\n    /* \"contracts/KipuBank.sol\":5722:5800  if(_umbral > _limite) revert KipuBank_InicializacionInvalida(_limite, _umbral) */\n  iszero\n  tag_20\n  jumpi\n    /* \"contracts/KipuBank.sol\":5783:5790  _limite */\n  dup5\n    /* \"contracts/KipuBank.sol\":5792:5799  _umbral */\n  dup5\n    /* \"contracts/KipuBank.sol\":5751:5800  KipuBank_InicializacionInvalida(_limite, _umbral) */\n  mload(0x40)\n  0x3122626300000000000000000000000000000000000000000000000000000000\n  dup2\n  mstore\n  0x04\n  add\n  tag_21\n  swap3\n  swap2\n  swap1\n  tag_22\n  jump\t// in\ntag_21:\n  mload(0x40)\n  dup1\n  swap2\n  sub\n  swap1\n  revert\n    /* \"contracts/KipuBank.sol\":5722:5800  if(_umbral > _limite) revert KipuBank_InicializacionInvalida(_limite, _umbral) */\ntag_20:\n    /* \"contracts/KipuBank.sol\":5830:5831  0 */\n  0x00\n    /* \"contracts/KipuBank.sol\":5813:5832  _feed == address(0) */\n  0xffffffffffffffffffffffffffffffffffffffff\n  and\n    /* \"contracts/KipuBank.sol\":5813:5818  _feed */\n  dup3\n    /* \"contracts/KipuBank.sol\":5813:5832  _feed == address(0) */\n  0xffffffffffffffffffffffffffffffffffffffff\n  and\n  sub\n    /* \"contracts/KipuBank.sol\":5810:5842  if(_feed == address(0)) revert() */\n  tag_23\n  jumpi\n    /* \"contracts/KipuBank.sol\":5834:5842  revert() */\n  revert(0x00, 0x00)\n    /* \"contracts/KipuBank.sol\":5810:5842  if(_feed == address(0)) revert() */\ntag_23:\n    /* \"contracts/KipuBank.sol\":5916:5917  0 */\n  0x00\n    /* \"contracts/KipuBank.sol\":5893:5918  _tokenERC20 == address(0) */\n  0xffffffffffffffffffffffffffffffffffffffff\n  and\n    /* \"contracts/KipuBank.sol\":5893:5904  _tokenERC20 */\n  dup2\n    /* \"contracts/KipuBank.sol\":5893:5918  _tokenERC20 == address(0) */\n  0xffffffffffffffffffffffffffffffffffffffff\n  and\n  sub\n    /* \"contracts/KipuBank.sol\":5890:5928  if(_tokenERC20 == address(0)) revert() */\n  tag_24\n  jumpi\n    /* \"contracts/KipuBank.sol\":5920:5928  revert() */\n  revert(0x00, 0x00)\n    /* \"contracts/KipuBank.sol\":5890:5928  if(_tokenERC20 == address(0)) revert() */\ntag_24:\n    /* \"contracts/KipuBank.sol\":5991:6002  _tokenERC20 */\n  dup1\n    /* \"contracts/KipuBank.sol\":5975:6003  i_usdc = IERC20(_tokenERC20) */\n  0xffffffffffffffffffffffffffffffffffffffff\n  and\n  0x80\n  dup2\n  0xffffffffffffffffffffffffffffffffffffffff\n  and\n  dup2\n  mstore\n  pop\n  pop\n    /* \"contracts/KipuBank.sol\":6044:6049  _feed */\n  dup2\n    /* \"contracts/KipuBank.sol\":6013:6019  s_feed */\n  0x02\n  0x00\n    /* \"contracts/KipuBank.sol\":6013:6050  s_feed = AggregatorV3Interface(_feed) */\n  0x0100\n  exp\n  dup2\n  sload\n  dup2\n  0xffffffffffffffffffffffffffffffffffffffff\n  mul\n  not\n  and\n  swap1\n  dup4\n  0xffffffffffffffffffffffffffffffffffffffff\n  and\n  mul\n  or\n  swap1\n  sstore\n  pop\n    /* \"contracts/KipuBank.sol\":6072:6079  _limite */\n  dup5\n    /* \"contracts/KipuBank.sol\":6060:6079  i_bankCap = _limite */\n  0xc0\n  dup2\n  dup2\n  mstore\n  pop\n  pop\n    /* \"contracts/KipuBank.sol\":6100:6107  _umbral */\n  dup4\n    /* \"contracts/KipuBank.sol\":6089:6107  i_umbral = _umbral */\n  0xa0\n  dup2\n  dup2\n  mstore\n  pop\n  pop\n    /* \"contracts/KipuBank.sol\":5472:6114  constructor(uint _limite, uint _umbral, address _owner, address _feed, address _tokenERC20) Ownable(_owner) {... */\n  pop\n  pop\n  pop\n  pop\n  pop\n    /* \"contracts/KipuBank.sol\":799:16092  contract KipuBank is ReentrancyGuard, Ownable, Pausable {... */\n  jump(tag_25)\n    /* \"@openzeppelin/contracts/access/Ownable.sol\":2912:3099  function _transferOwnership(address newOwner) internal virtual {... */\ntag_13:\n    /* \"@openzeppelin/contracts/access/Ownable.sol\":2985:3001  address oldOwner */\n  0x00\n    /* \"@openzeppelin/contracts/access/Ownable.sol\":3004:3010  _owner */\n  0x01\n  0x00\n  swap1\n  sload\n  swap1\n  0x0100\n  exp\n  swap1\n  div\n  0xffffffffffffffffffffffffffffffffffffffff\n  and\n    /* \"@openzeppelin/contracts/access/Ownable.sol\":2985:3010  address oldOwner = _owner */\n  swap1\n  pop\n    /* \"@openzeppelin/contracts/access/Ownable.sol\":3029:3037  newOwner */\n  dup2\n    /* \"@openzeppelin/contracts/access/Ownable.sol\":3020:3026  _owner */\n  0x01\n  0x00\n    /* \"@openzeppelin/contracts/access/Ownable.sol\":3020:3037  _owner = newOwner */\n  0x0100\n  exp\n  dup2\n  sload\n  dup2\n  0xffffffffffffffffffffffffffffffffffffffff\n  mul\n  not\n  and\n  swap1\n  dup4\n  0xffffffffffffffffffffffffffffffffffffffff\n  and\n  mul\n  or\n  swap1\n  sstore\n  pop\n    /* \"@openzeppelin/contracts/access/Ownable.sol\":3083:3091  newOwner */\n  dup2\n    /* \"@openzeppelin/contracts/access/Ownable.sol\":3052:3092  OwnershipTransferred(oldOwner, newOwner) */\n  0xffffffffffffffffffffffffffffffffffffffff\n  and\n    /* \"@openzeppelin/contracts/access/Ownable.sol\":3073:3081  oldOwner */\n  dup2\n    /* \"@openzeppelin/contracts/access/Ownable.sol\":3052:3092  OwnershipTransferred(oldOwner, newOwner) */\n  0xffffffffffffffffffffffffffffffffffffffff\n  and\n  0x8be0079c531659141344cd1fd0a4f28419497f9722a3daafe3b4186f6b6457e0\n  mload(0x40)\n  mload(0x40)\n  dup1\n  swap2\n  sub\n  swap1\n  log3\n    /* \"@openzeppelin/contracts/access/Ownable.sol\":2975:3099  {... */\n  pop\n    /* \"@openzeppelin/contracts/access/Ownable.sol\":2912:3099  function _transferOwnership(address newOwner) internal virtual {... */\n  pop\n  jump\t// out\n    /* \"#utility.yul\":88:205   */\ntag_28:\n    /* \"#utility.yul\":197:198   */\n  0x00\n    /* \"#utility.yul\":194:195   */\n  0x00\n    /* \"#utility.yul\":187:199   */\n  revert\n    /* \"#utility.yul\":334:411   */\ntag_30:\n    /* \"#utility.yul\":371:378   */\n  0x00\n    /* \"#utility.yul\":400:405   */\n  dup2\n    /* \"#utility.yul\":389:405   */\n  swap1\n  pop\n    /* \"#utility.yul\":334:411   */\n  swap2\n  swap1\n  pop\n  jump\t// out\n    /* \"#utility.yul\":417:539   */\ntag_31:\n    /* \"#utility.yul\":490:514   */\n  tag_45\n    /* \"#utility.yul\":508:513   */\n  dup2\n    /* \"#utility.yul\":490:514   */\n  tag_30\n  jump\t// in\ntag_45:\n    /* \"#utility.yul\":483:488   */\n  dup2\n    /* \"#utility.yul\":480:515   */\n  eq\n    /* \"#utility.yul\":470:533   */\n  tag_46\n  jumpi\n    /* \"#utility.yul\":529:530   */\n  0x00\n    /* \"#utility.yul\":526:527   */\n  0x00\n    /* \"#utility.yul\":519:531   */\n  revert\n    /* \"#utility.yul\":470:533   */\ntag_46:\n    /* \"#utility.yul\":417:539   */\n  pop\n  jump\t// out\n    /* \"#utility.yul\":545:688   */\ntag_32:\n    /* \"#utility.yul\":602:607   */\n  0x00\n    /* \"#utility.yul\":633:639   */\n  dup2\n    /* \"#utility.yul\":627:640   */\n  mload\n    /* \"#utility.yul\":618:640   */\n  swap1\n  pop\n    /* \"#utility.yul\":649:682   */\n  tag_48\n    /* \"#utility.yul\":676:681   */\n  dup2\n    /* \"#utility.yul\":649:682   */\n  tag_31\n  jump\t// in\ntag_48:\n    /* \"#utility.yul\":545:688   */\n  swap3\n  swap2\n  pop\n  pop\n  jump\t// out\n    /* \"#utility.yul\":694:820   */\ntag_33:\n    /* \"#utility.yul\":731:738   */\n  0x00\n    /* \"#utility.yul\":771:813   */\n  0xffffffffffffffffffffffffffffffffffffffff\n    /* \"#utility.yul\":764:769   */\n  dup3\n    /* \"#utility.yul\":760:814   */\n  and\n    /* \"#utility.yul\":749:814   */\n  swap1\n  pop\n    /* \"#utility.yul\":694:820   */\n  swap2\n  swap1\n  pop\n  jump\t// out\n    /* \"#utility.yul\":826:922   */\ntag_34:\n    /* \"#utility.yul\":863:870   */\n  0x00\n    /* \"#utility.yul\":892:916   */\n  tag_51\n    /* \"#utility.yul\":910:915   */\n  dup3\n    /* \"#utility.yul\":892:916   */\n  tag_33\n  jump\t// in\ntag_51:\n    /* \"#utility.yul\":881:916   */\n  swap1\n  pop\n    /* \"#utility.yul\":826:922   */\n  swap2\n  swap1\n  pop\n  jump\t// out\n    /* \"#utility.yul\":928:1050   */\ntag_35:\n    /* \"#utility.yul\":1001:1025   */\n  tag_53\n    /* \"#utility.yul\":1019:1024   */\n  dup2\n    /* \"#utility.yul\":1001:1025   */\n  tag_34\n  jump\t// in\ntag_53:\n    /* \"#utility.yul\":994:999   */\n  dup2\n    /* \"#utility.yul\":991:1026   */\n  eq\n    /* \"#utility.yul\":981:1044   */\n  tag_54\n  jumpi\n    /* \"#utility.yul\":1040:1041   */\n  0x00\n    /* \"#utility.yul\":1037:1038   */\n  0x00\n    /* \"#utility.yul\":1030:1042   */\n  revert\n    /* \"#utility.yul\":981:1044   */\ntag_54:\n    /* \"#utility.yul\":928:1050   */\n  pop\n  jump\t// out\n    /* \"#utility.yul\":1056:1199   */\ntag_36:\n    /* \"#utility.yul\":1113:1118   */\n  0x00\n    /* \"#utility.yul\":1144:1150   */\n  dup2\n    /* \"#utility.yul\":1138:1151   */\n  mload\n    /* \"#utility.yul\":1129:1151   */\n  swap1\n  pop\n    /* \"#utility.yul\":1160:1193   */\n  tag_56\n    /* \"#utility.yul\":1187:1192   */\n  dup2\n    /* \"#utility.yul\":1160:1193   */\n  tag_35\n  jump\t// in\ntag_56:\n    /* \"#utility.yul\":1056:1199   */\n  swap3\n  swap2\n  pop\n  pop\n  jump\t// out\n    /* \"#utility.yul\":1205:2182   */\ntag_3:\n    /* \"#utility.yul\":1311:1317   */\n  0x00\n    /* \"#utility.yul\":1319:1325   */\n  0x00\n    /* \"#utility.yul\":1327:1333   */\n  0x00\n    /* \"#utility.yul\":1335:1341   */\n  0x00\n    /* \"#utility.yul\":1343:1349   */\n  0x00\n    /* \"#utility.yul\":1392:1395   */\n  0xa0\n    /* \"#utility.yul\":1380:1389   */\n  dup7\n    /* \"#utility.yul\":1371:1378   */\n  dup9\n    /* \"#utility.yul\":1367:1390   */\n  sub\n    /* \"#utility.yul\":1363:1396   */\n  slt\n    /* \"#utility.yul\":1360:1480   */\n  iszero\n  tag_58\n  jumpi\n    /* \"#utility.yul\":1399:1478   */\n  tag_59\n  tag_28\n  jump\t// in\ntag_59:\n    /* \"#utility.yul\":1360:1480   */\ntag_58:\n    /* \"#utility.yul\":1519:1520   */\n  0x00\n    /* \"#utility.yul\":1544:1608   */\n  tag_60\n    /* \"#utility.yul\":1600:1607   */\n  dup9\n    /* \"#utility.yul\":1591:1597   */\n  dup3\n    /* \"#utility.yul\":1580:1589   */\n  dup10\n    /* \"#utility.yul\":1576:1598   */\n  add\n    /* \"#utility.yul\":1544:1608   */\n  tag_32\n  jump\t// in\ntag_60:\n    /* \"#utility.yul\":1534:1608   */\n  swap6\n  pop\n    /* \"#utility.yul\":1490:1618   */\n  pop\n    /* \"#utility.yul\":1657:1659   */\n  0x20\n    /* \"#utility.yul\":1683:1747   */\n  tag_61\n    /* \"#utility.yul\":1739:1746   */\n  dup9\n    /* \"#utility.yul\":1730:1736   */\n  dup3\n    /* \"#utility.yul\":1719:1728   */\n  dup10\n    /* \"#utility.yul\":1715:1737   */\n  add\n    /* \"#utility.yul\":1683:1747   */\n  tag_32\n  jump\t// in\ntag_61:\n    /* \"#utility.yul\":1673:1747   */\n  swap5\n  pop\n    /* \"#utility.yul\":1628:1757   */\n  pop\n    /* \"#utility.yul\":1796:1798   */\n  0x40\n    /* \"#utility.yul\":1822:1886   */\n  tag_62\n    /* \"#utility.yul\":1878:1885   */\n  dup9\n    /* \"#utility.yul\":1869:1875   */\n  dup3\n    /* \"#utility.yul\":1858:1867   */\n  dup10\n    /* \"#utility.yul\":1854:1876   */\n  add\n    /* \"#utility.yul\":1822:1886   */\n  tag_36\n  jump\t// in\ntag_62:\n    /* \"#utility.yul\":1812:1886   */\n  swap4\n  pop\n    /* \"#utility.yul\":1767:1896   */\n  pop\n    /* \"#utility.yul\":1935:1937   */\n  0x60\n    /* \"#utility.yul\":1961:2025   */\n  tag_63\n    /* \"#utility.yul\":2017:2024   */\n  dup9\n    /* \"#utility.yul\":2008:2014   */\n  dup3\n    /* \"#utility.yul\":1997:2006   */\n  dup10\n    /* \"#utility.yul\":1993:2015   */\n  add\n    /* \"#utility.yul\":1961:2025   */\n  tag_36\n  jump\t// in\ntag_63:\n    /* \"#utility.yul\":1951:2025   */\n  swap3\n  pop\n    /* \"#utility.yul\":1906:2035   */\n  pop\n    /* \"#utility.yul\":2074:2077   */\n  0x80\n    /* \"#utility.yul\":2101:2165   */\n  tag_64\n    /* \"#utility.yul\":2157:2164   */\n  dup9\n    /* \"#utility.yul\":2148:2154   */\n  dup3\n    /* \"#utility.yul\":2137:2146   */\n  dup10\n    /* \"#utility.yul\":2133:2155   */\n  add\n    /* \"#utility.yul\":2101:2165   */\n  tag_36\n  jump\t// in\ntag_64:\n    /* \"#utility.yul\":2091:2165   */\n  swap2\n  pop\n    /* \"#utility.yul\":2045:2175   */\n  pop\n    /* \"#utility.yul\":1205:2182   */\n  swap3\n  swap6\n  pop\n  swap3\n  swap6\n  swap1\n  swap4\n  pop\n  jump\t// out\n    /* \"#utility.yul\":2188:2306   */\ntag_37:\n    /* \"#utility.yul\":2275:2299   */\n  tag_66\n    /* \"#utility.yul\":2293:2298   */\n  dup2\n    /* \"#utility.yul\":2275:2299   */\n  tag_34\n  jump\t// in\ntag_66:\n    /* \"#utility.yul\":2270:2273   */\n  dup3\n    /* \"#utility.yul\":2263:2300   */\n  mstore\n    /* \"#utility.yul\":2188:2306   */\n  pop\n  pop\n  jump\t// out\n    /* \"#utility.yul\":2312:2534   */\ntag_11:\n    /* \"#utility.yul\":2405:2409   */\n  0x00\n    /* \"#utility.yul\":2443:2445   */\n  0x20\n    /* \"#utility.yul\":2432:2441   */\n  dup3\n    /* \"#utility.yul\":2428:2446   */\n  add\n    /* \"#utility.yul\":2420:2446   */\n  swap1\n  pop\n    /* \"#utility.yul\":2456:2527   */\n  tag_68\n    /* \"#utility.yul\":2524:2525   */\n  0x00\n    /* \"#utility.yul\":2513:2522   */\n  dup4\n    /* \"#utility.yul\":2509:2526   */\n  add\n    /* \"#utility.yul\":2500:2506   */\n  dup5\n    /* \"#utility.yul\":2456:2527   */\n  tag_37\n  jump\t// in\ntag_68:\n    /* \"#utility.yul\":2312:2534   */\n  swap3\n  swap2\n  pop\n  pop\n  jump\t// out\n    /* \"#utility.yul\":2540:2658   */\ntag_38:\n    /* \"#utility.yul\":2627:2651   */\n  tag_70\n    /* \"#utility.yul\":2645:2650   */\n  dup2\n    /* \"#utility.yul\":2627:2651   */\n  tag_30\n  jump\t// in\ntag_70:\n    /* \"#utility.yul\":2622:2625   */\n  dup3\n    /* \"#utility.yul\":2615:2652   */\n  mstore\n    /* \"#utility.yul\":2540:2658   */\n  pop\n  pop\n  jump\t// out\n    /* \"#utility.yul\":2664:2886   */\ntag_17:\n    /* \"#utility.yul\":2757:2761   */\n  0x00\n    /* \"#utility.yul\":2795:2797   */\n  0x20\n    /* \"#utility.yul\":2784:2793   */\n  dup3\n    /* \"#utility.yul\":2780:2798   */\n  add\n    /* \"#utility.yul\":2772:2798   */\n  swap1\n  pop\n    /* \"#utility.yul\":2808:2879   */\n  tag_72\n    /* \"#utility.yul\":2876:2877   */\n  0x00\n    /* \"#utility.yul\":2865:2874   */\n  dup4\n    /* \"#utility.yul\":2861:2878   */\n  add\n    /* \"#utility.yul\":2852:2858   */\n  dup5\n    /* \"#utility.yul\":2808:2879   */\n  tag_38\n  jump\t// in\ntag_72:\n    /* \"#utility.yul\":2664:2886   */\n  swap3\n  swap2\n  pop\n  pop\n  jump\t// out\n    /* \"#utility.yul\":2892:3224   */\ntag_22:\n    /* \"#utility.yul\":3013:3017   */\n  0x00\n    /* \"#utility.yul\":3051:3053   */\n  0x40\n    /* \"#utility.yul\":3040:3049   */\n  dup3\n    /* \"#utility.yul\":3036:3054   */\n  add\n    /* \"#utility.yul\":3028:3054   */\n  swap1\n  pop\n    /* \"#utility.yul\":3064:3135   */\n  tag_74\n    /* \"#utility.yul\":3132:3133   */\n  0x00\n    /* \"#utility.yul\":3121:3130   */\n  dup4\n    /* \"#utility.yul\":3117:3134   */\n  add\n    /* \"#utility.yul\":3108:3114   */\n  dup6\n    /* \"#utility.yul\":3064:3135   */\n  tag_38\n  jump\t// in\ntag_74:\n    /* \"#utility.yul\":3145:3217   */\n  tag_75\n    /* \"#utility.yul\":3213:3215   */\n  0x20\n    /* \"#utility.yul\":3202:3211   */\n  dup4\n    /* \"#utility.yul\":3198:3216   */\n  add\n    /* \"#utility.yul\":3189:3195   */\n  dup5\n    /* \"#utility.yul\":3145:3217   */\n  tag_38\n  jump\t// in\ntag_75:\n    /* \"#utility.yul\":2892:3224   */\n  swap4\n  swap3\n  pop\n  pop\n  pop\n  jump\t// out\n    /* \"contracts/KipuBank.sol\":799:16092  contract KipuBank is ReentrancyGuard, Ownable, Pausable {... */\ntag_25:\n  mload(0x80)\n  mload(0xa0)\n  mload(0xc0)\n  codecopy(0x00, dataOffset(sub_0), dataSize(sub_0))\n  0x00\n  assignImmutable(\"0x7accbde6ceb84317f73cf616046161b2827a9ee871490b0c927c2024ef305ecf\")\n  0x00\n  assignImmutable(\"0xb295767e4372fab13e4b033e3e01af68982526b3673a0d3e0a82574a5cefaf62\")\n  0x00\n  assignImmutable(\"0xfa230a08db286d2dcf7a434e55689b1255ce6dfbe94e606859a02f38464dfdbc\")\n  return(0x00, dataSize(sub_0))\nstop\n\nsub_0: assembly {\n        /* \"contracts/KipuBank.sol\":799:16092  contract KipuBank is ReentrancyGuard, Ownable, Pausable {... */\n      mstore(0x40, 0x80)\n      jumpi(tag_1, lt(calldatasize, 0x04))\n      shr(0xe0, calldataload(0x00))\n      dup1\n      0x7dc532c5\n      gt\n      tag_23\n      jumpi\n      dup1\n      0x93295c1c\n      gt\n      tag_24\n      jumpi\n      dup1\n      0x93295c1c\n      eq\n      tag_18\n      jumpi\n      dup1\n      0x939495bd\n      eq\n      tag_19\n      jumpi\n      dup1\n      0xc6aca33c\n      eq\n      tag_20\n      jumpi\n      dup1\n      0xf2fde38b\n      eq\n      tag_21\n      jumpi\n      dup1\n      0xf39b1809\n      eq\n      tag_22\n      jumpi\n      jump(tag_2)\n    tag_24:\n      dup1\n      0x7dc532c5\n      eq\n      tag_13\n      jumpi\n      dup1\n      0x82fe54b5\n      eq\n      tag_14\n      jumpi\n      dup1\n      0x8648840a\n      eq\n      tag_15\n      jumpi\n      dup1\n      0x8da5cb5b\n      eq\n      tag_16\n      jumpi\n      dup1\n      0x931fb90e\n      eq\n      tag_17\n      jumpi\n      jump(tag_2)\n    tag_23:\n      dup1\n      0x6900670c\n      gt\n      tag_25\n      jumpi\n      dup1\n      0x6900670c\n      eq\n      tag_8\n      jumpi\n      dup1\n      0x698b7241\n      eq\n      tag_9\n      jumpi\n      dup1\n      0x6f05c64c\n      eq\n      tag_10\n      jumpi\n      dup1\n      0x715018a6\n      eq\n      tag_11\n      jumpi\n      dup1\n      0x779bb136\n      eq\n      tag_12\n      jumpi\n      jump(tag_2)\n    tag_25:\n      dup1\n      0x0594cc69\n      eq\n      tag_3\n      jumpi\n      dup1\n      0x16a1930f\n      eq\n      tag_4\n      jumpi\n      dup1\n      0x1a003ecb\n      eq\n      tag_5\n      jumpi\n      dup1\n      0x38d5c916\n      eq\n      tag_6\n      jumpi\n      dup1\n      0x5c975abb\n      eq\n      tag_7\n      jumpi\n      jump(tag_2)\n    tag_1:\n      jumpi(tag_2, calldatasize)\n        /* \"contracts/KipuBank.sol\":6290:6300  msg.sender */\n      caller\n        /* \"contracts/KipuBank.sol\":6260:6301  KipuBank_OperacionNoPermitida(msg.sender) */\n      mload(0x40)\n      0xe1d158ff00000000000000000000000000000000000000000000000000000000\n      dup2\n      mstore\n      0x04\n      add\n      tag_28\n      swap2\n      swap1\n      tag_29\n      jump\t// in\n    tag_28:\n      mload(0x40)\n      dup1\n      swap2\n      sub\n      swap1\n      revert\n        /* \"contracts/KipuBank.sol\":799:16092  contract KipuBank is ReentrancyGuard, Ownable, Pausable {... */\n    tag_2:\n        /* \"contracts/KipuBank.sol\":6495:6505  msg.sender */\n      caller\n        /* \"contracts/KipuBank.sol\":6465:6506  KipuBank_OperacionNoPermitida(msg.sender) */\n      mload(0x40)\n      0xe1d158ff00000000000000000000000000000000000000000000000000000000\n      dup2\n      mstore\n      0x04\n      add\n      tag_32\n      swap2\n      swap1\n      tag_29\n      jump\t// in\n    tag_32:\n      mload(0x40)\n      dup1\n      swap2\n      sub\n      swap1\n      revert\n        /* \"contracts/KipuBank.sol\":15799:16089  function estadoDelContrato() external view returns (bool pausado, uint totalContrato, uint limite, uint umbral, address feedActual) {... */\n    tag_3:\n      callvalue\n      dup1\n      iszero\n      tag_33\n      jumpi\n      revert(0x00, 0x00)\n    tag_33:\n      pop\n      tag_34\n      tag_35\n      jump\t// in\n    tag_34:\n      mload(0x40)\n      tag_36\n      swap6\n      swap5\n      swap4\n      swap3\n      swap2\n      swap1\n      tag_37\n      jump\t// in\n    tag_36:\n      mload(0x40)\n      dup1\n      swap2\n      sub\n      swap1\n      return\n        /* \"contracts/KipuBank.sol\":10993:11331  function depositarETH() external payable verificarDepositoETH(msg.value) whenNotPaused {... */\n    tag_4:\n      tag_38\n      tag_39\n      jump\t// in\n    tag_38:\n      stop\n        /* \"contracts/KipuBank.sol\":15369:15521  function pausarContrato() external onlyOwner whenNotPaused {... */\n    tag_5:\n      callvalue\n      dup1\n      iszero\n      tag_40\n      jumpi\n      revert(0x00, 0x00)\n    tag_40:\n      pop\n      tag_41\n      tag_42\n      jump\t// in\n    tag_41:\n      stop\n        /* \"contracts/KipuBank.sol\":15579:15736  function despausarContrato() external onlyOwner whenPaused {... */\n    tag_6:\n      callvalue\n      dup1\n      iszero\n      tag_43\n      jumpi\n      revert(0x00, 0x00)\n    tag_43:\n      pop\n      tag_44\n      tag_45\n      jump\t// in\n    tag_44:\n      stop\n        /* \"@openzeppelin/contracts/utils/Pausable.sol\":1726:1810  function paused() public view virtual returns (bool) {... */\n    tag_7:\n      callvalue\n      dup1\n      iszero\n      tag_46\n      jumpi\n      revert(0x00, 0x00)\n    tag_46:\n      pop\n      tag_47\n      tag_48\n      jump\t// in\n    tag_47:\n      mload(0x40)\n      tag_49\n      swap2\n      swap1\n      tag_50\n      jump\t// in\n    tag_49:\n      mload(0x40)\n      dup1\n      swap2\n      sub\n      swap1\n      return\n        /* \"contracts/KipuBank.sol\":12636:12831  function verBoveda() external view returns (uint monto_) {... */\n    tag_8:\n      callvalue\n      dup1\n      iszero\n      tag_51\n      jumpi\n      revert(0x00, 0x00)\n    tag_51:\n      pop\n      tag_52\n      tag_53\n      jump\t// in\n    tag_52:\n      mload(0x40)\n      tag_54\n      swap2\n      swap1\n      tag_55\n      jump\t// in\n    tag_54:\n      mload(0x40)\n      dup1\n      swap2\n      sub\n      swap1\n      return\n        /* \"contracts/KipuBank.sol\":11623:11971  function depositarUSDC(uint _monto) external verificarDepositoUSDC(_monto) whenNotPaused {... */\n    tag_9:\n      callvalue\n      dup1\n      iszero\n      tag_56\n      jumpi\n      revert(0x00, 0x00)\n    tag_56:\n      pop\n      tag_57\n      0x04\n      dup1\n      calldatasize\n      sub\n      dup2\n      add\n      swap1\n      tag_58\n      swap2\n      swap1\n      tag_59\n      jump\t// in\n    tag_58:\n      tag_60\n      jump\t// in\n    tag_57:\n      stop\n        /* \"contracts/KipuBank.sol\":1164:1199  AggregatorV3Interface public s_feed */\n    tag_10:\n      callvalue\n      dup1\n      iszero\n      tag_61\n      jumpi\n      revert(0x00, 0x00)\n    tag_61:\n      pop\n      tag_62\n      tag_63\n      jump\t// in\n    tag_62:\n      mload(0x40)\n      tag_64\n      swap2\n      swap1\n      tag_65\n      jump\t// in\n    tag_64:\n      mload(0x40)\n      dup1\n      swap2\n      sub\n      swap1\n      return\n        /* \"@openzeppelin/contracts/access/Ownable.sol\":2293:2394  function renounceOwnership() public virtual onlyOwner {... */\n    tag_11:\n      callvalue\n      dup1\n      iszero\n      tag_66\n      jumpi\n      revert(0x00, 0x00)\n    tag_66:\n      pop\n      tag_67\n      tag_68\n      jump\t// in\n    tag_67:\n      stop\n        /* \"contracts/KipuBank.sol\":13193:13320  function verSaldoETH() external view returns (uint saldo_) {... */\n    tag_12:\n      callvalue\n      dup1\n      iszero\n      tag_69\n      jumpi\n      revert(0x00, 0x00)\n    tag_69:\n      pop\n      tag_70\n      tag_71\n      jump\t// in\n    tag_70:\n      mload(0x40)\n      tag_72\n      swap2\n      swap1\n      tag_55\n      jump\t// in\n    tag_72:\n      mload(0x40)\n      dup1\n      swap2\n      sub\n      swap1\n      return\n        /* \"contracts/KipuBank.sol\":14472:15314  function setFeeds(address _nuevoFeed) external onlyOwner whenPaused {... */\n    tag_13:\n      callvalue\n      dup1\n      iszero\n      tag_73\n      jumpi\n      revert(0x00, 0x00)\n    tag_73:\n      pop\n      tag_74\n      0x04\n      dup1\n      calldatasize\n      sub\n      dup2\n      add\n      swap1\n      tag_75\n      swap2\n      swap1\n      tag_76\n      jump\t// in\n    tag_75:\n      tag_77\n      jump\t// in\n    tag_74:\n      stop\n        /* \"contracts/KipuBank.sol\":10530:10628  function retirarETH(uint _monto) external whenNotPaused {... */\n    tag_14:\n      callvalue\n      dup1\n      iszero\n      tag_78\n      jumpi\n      revert(0x00, 0x00)\n    tag_78:\n      pop\n      tag_79\n      0x04\n      dup1\n      calldatasize\n      sub\n      dup2\n      add\n      swap1\n      tag_80\n      swap2\n      swap1\n      tag_59\n      jump\t// in\n    tag_80:\n      tag_81\n      jump\t// in\n    tag_79:\n      stop\n        /* \"contracts/KipuBank.sol\":14212:14335  function transferirOwner(address _nuevoOwner) external onlyOwner whenPaused {... */\n    tag_15:\n      callvalue\n      dup1\n      iszero\n      tag_82\n      jumpi\n      revert(0x00, 0x00)\n    tag_82:\n      pop\n      tag_83\n      0x04\n      dup1\n      calldatasize\n      sub\n      dup2\n      add\n      swap1\n      tag_84\n      swap2\n      swap1\n      tag_76\n      jump\t// in\n    tag_84:\n      tag_85\n      jump\t// in\n    tag_83:\n      stop\n        /* \"@openzeppelin/contracts/access/Ownable.sol\":1638:1723  function owner() public view virtual returns (address) {... */\n    tag_16:\n      callvalue\n      dup1\n      iszero\n      tag_86\n      jumpi\n      revert(0x00, 0x00)\n    tag_86:\n      pop\n      tag_87\n      tag_88\n      jump\t// in\n    tag_87:\n      mload(0x40)\n      tag_89\n      swap2\n      swap1\n      tag_29\n      jump\t// in\n    tag_89:\n      mload(0x40)\n      dup1\n      swap2\n      sub\n      swap1\n      return\n        /* \"contracts/KipuBank.sol\":10764:10864  function retirarUSDC(uint _monto) external whenNotPaused {... */\n    tag_17:\n      callvalue\n      dup1\n      iszero\n      tag_90\n      jumpi\n      revert(0x00, 0x00)\n    tag_90:\n      pop\n      tag_91\n      0x04\n      dup1\n      calldatasize\n      sub\n      dup2\n      add\n      swap1\n      tag_92\n      swap2\n      swap1\n      tag_59\n      jump\t// in\n    tag_92:\n      tag_93\n      jump\t// in\n    tag_91:\n      stop\n        /* \"contracts/KipuBank.sol\":13894:13989  function verTotalContrato() external view returns (uint) {... */\n    tag_18:\n      callvalue\n      dup1\n      iszero\n      tag_94\n      jumpi\n      revert(0x00, 0x00)\n    tag_94:\n      pop\n      tag_95\n      tag_96\n      jump\t// in\n    tag_95:\n      mload(0x40)\n      tag_97\n      swap2\n      swap1\n      tag_55\n      jump\t// in\n    tag_97:\n      mload(0x40)\n      dup1\n      swap2\n      sub\n      swap1\n      return\n        /* \"contracts/KipuBank.sol\":12948:13081  function verSaldoUSDC() external view returns (uint saldo_) {... */\n    tag_19:\n      callvalue\n      dup1\n      iszero\n      tag_98\n      jumpi\n      revert(0x00, 0x00)\n    tag_98:\n      pop\n      tag_99\n      tag_100\n      jump\t// in\n    tag_99:\n      mload(0x40)\n      tag_101\n      swap2\n      swap1\n      tag_55\n      jump\t// in\n    tag_101:\n      mload(0x40)\n      dup1\n      swap2\n      sub\n      swap1\n      return\n        /* \"contracts/KipuBank.sol\":13678:13766  function verTotalRetiros() external view returns (uint) {... */\n    tag_20:\n      callvalue\n      dup1\n      iszero\n      tag_102\n      jumpi\n      revert(0x00, 0x00)\n    tag_102:\n      pop\n      tag_103\n      tag_104\n      jump\t// in\n    tag_103:\n      mload(0x40)\n      tag_105\n      swap2\n      swap1\n      tag_55\n      jump\t// in\n    tag_105:\n      mload(0x40)\n      dup1\n      swap2\n      sub\n      swap1\n      return\n        /* \"@openzeppelin/contracts/access/Ownable.sol\":2543:2758  function transferOwnership(address newOwner) public virtual onlyOwner {... */\n    tag_21:\n      callvalue\n      dup1\n      iszero\n      tag_106\n      jumpi\n      revert(0x00, 0x00)\n    tag_106:\n      pop\n      tag_107\n      0x04\n      dup1\n      calldatasize\n      sub\n      dup2\n      add\n      swap1\n      tag_108\n      swap2\n      swap1\n      tag_76\n      jump\t// in\n    tag_108:\n      tag_109\n      jump\t// in\n    tag_107:\n      stop\n        /* \"contracts/KipuBank.sol\":13455:13547  function verTotalDepositos() external view returns (uint) {... */\n    tag_22:\n      callvalue\n      dup1\n      iszero\n      tag_110\n      jumpi\n      revert(0x00, 0x00)\n    tag_110:\n      pop\n      tag_111\n      tag_112\n      jump\t// in\n    tag_111:\n      mload(0x40)\n      tag_113\n      swap2\n      swap1\n      tag_55\n      jump\t// in\n    tag_113:\n      mload(0x40)\n      dup1\n      swap2\n      sub\n      swap1\n      return\n        /* \"contracts/KipuBank.sol\":15799:16089  function estadoDelContrato() external view returns (bool pausado, uint totalContrato, uint limite, uint umbral, address feedActual) {... */\n    tag_35:\n        /* \"contracts/KipuBank.sol\":15851:15863  bool pausado */\n      0x00\n        /* \"contracts/KipuBank.sol\":15865:15883  uint totalContrato */\n      0x00\n        /* \"contracts/KipuBank.sol\":15885:15896  uint limite */\n      0x00\n        /* \"contracts/KipuBank.sol\":15898:15909  uint umbral */\n      0x00\n        /* \"contracts/KipuBank.sol\":15911:15929  address feedActual */\n      0x00\n        /* \"contracts/KipuBank.sol\":15962:15970  paused() */\n      tag_115\n        /* \"contracts/KipuBank.sol\":15962:15968  paused */\n      tag_48\n        /* \"contracts/KipuBank.sol\":15962:15970  paused() */\n      jump\t// in\n    tag_115:\n        /* \"contracts/KipuBank.sol\":15984:15998  _totalContrato */\n      sload(0x05)\n        /* \"contracts/KipuBank.sol\":16012:16021  i_bankCap */\n      immutable(\"0x7accbde6ceb84317f73cf616046161b2827a9ee871490b0c927c2024ef305ecf\")\n        /* \"contracts/KipuBank.sol\":16035:16043  i_umbral */\n      immutable(\"0xb295767e4372fab13e4b033e3e01af68982526b3673a0d3e0a82574a5cefaf62\")\n        /* \"contracts/KipuBank.sol\":16065:16071  s_feed */\n      0x02\n      0x00\n      swap1\n      sload\n      swap1\n      0x0100\n      exp\n      swap1\n      div\n      0xffffffffffffffffffffffffffffffffffffffff\n      and\n        /* \"contracts/KipuBank.sol\":15941:16082  return (... */\n      swap5\n      pop\n      swap5\n      pop\n      swap5\n      pop\n      swap5\n      pop\n      swap5\n      pop\n        /* \"contracts/KipuBank.sol\":15799:16089  function estadoDelContrato() external view returns (bool pausado, uint totalContrato, uint limite, uint umbral, address feedActual) {... */\n      swap1\n      swap2\n      swap3\n      swap4\n      swap5\n      jump\t// out\n        /* \"contracts/KipuBank.sol\":10993:11331  function depositarETH() external payable verificarDepositoETH(msg.value) whenNotPaused {... */\n    tag_39:\n        /* \"contracts/KipuBank.sol\":11055:11064  msg.value */\n      callvalue\n        /* \"contracts/KipuBank.sol\":7240:7254  uint montoUSDC */\n      0x00\n        /* \"contracts/KipuBank.sol\":7257:7283  convertirEthEnUSDC(_monto) */\n      tag_117\n        /* \"contracts/KipuBank.sol\":7276:7282  _monto */\n      dup3\n        /* \"contracts/KipuBank.sol\":7257:7275  convertirEthEnUSDC */\n      tag_118\n        /* \"contracts/KipuBank.sol\":7257:7283  convertirEthEnUSDC(_monto) */\n      jump\t// in\n    tag_117:\n        /* \"contracts/KipuBank.sol\":7240:7283  uint montoUSDC = convertirEthEnUSDC(_monto) */\n      swap1\n      pop\n        /* \"contracts/KipuBank.sol\":7309:7310  0 */\n      0x00\n        /* \"contracts/KipuBank.sol\":7296:7305  montoUSDC */\n      dup2\n        /* \"contracts/KipuBank.sol\":7296:7310  montoUSDC == 0 */\n      sub\n        /* \"contracts/KipuBank.sol\":7293:7349  if(montoUSDC == 0) revert KipuBank_MontoCero(msg.sender) */\n      tag_119\n      jumpi\n        /* \"contracts/KipuBank.sol\":7338:7348  msg.sender */\n      caller\n        /* \"contracts/KipuBank.sol\":7319:7349  KipuBank_MontoCero(msg.sender) */\n      mload(0x40)\n      0xb2f0923100000000000000000000000000000000000000000000000000000000\n      dup2\n      mstore\n      0x04\n      add\n      tag_120\n      swap2\n      swap1\n      tag_29\n      jump\t// in\n    tag_120:\n      mload(0x40)\n      dup1\n      swap2\n      sub\n      swap1\n      revert\n        /* \"contracts/KipuBank.sol\":7293:7349  if(montoUSDC == 0) revert KipuBank_MontoCero(msg.sender) */\n    tag_119:\n        /* \"contracts/KipuBank.sol\":7392:7401  i_bankCap */\n      immutable(\"0x7accbde6ceb84317f73cf616046161b2827a9ee871490b0c927c2024ef305ecf\")\n        /* \"contracts/KipuBank.sol\":7375:7389  _totalContrato */\n      sload(0x05)\n        /* \"contracts/KipuBank.sol\":7363:7372  montoUSDC */\n      dup3\n        /* \"contracts/KipuBank.sol\":7363:7389  montoUSDC + _totalContrato */\n      tag_121\n      swap2\n      swap1\n      tag_122\n      jump\t// in\n    tag_121:\n        /* \"contracts/KipuBank.sol\":7363:7401  montoUSDC + _totalContrato > i_bankCap */\n      gt\n        /* \"contracts/KipuBank.sol\":7359:7444  if (montoUSDC + _totalContrato > i_bankCap) revert KipuBank_LimiteExcedido(montoUSDC) */\n      iszero\n      tag_123\n      jumpi\n        /* \"contracts/KipuBank.sol\":7434:7443  montoUSDC */\n      dup1\n        /* \"contracts/KipuBank.sol\":7410:7444  KipuBank_LimiteExcedido(montoUSDC) */\n      mload(0x40)\n      0x2900b02c00000000000000000000000000000000000000000000000000000000\n      dup2\n      mstore\n      0x04\n      add\n      tag_124\n      swap2\n      swap1\n      tag_55\n      jump\t// in\n    tag_124:\n      mload(0x40)\n      dup1\n      swap2\n      sub\n      swap1\n      revert\n        /* \"contracts/KipuBank.sol\":7359:7444  if (montoUSDC + _totalContrato > i_bankCap) revert KipuBank_LimiteExcedido(montoUSDC) */\n    tag_123:\n        /* \"@openzeppelin/contracts/utils/Pausable.sol\":1350:1369  _requireNotPaused() */\n      tag_126\n        /* \"@openzeppelin/contracts/utils/Pausable.sol\":1350:1367  _requireNotPaused */\n      tag_127\n        /* \"@openzeppelin/contracts/utils/Pausable.sol\":1350:1369  _requireNotPaused() */\n      jump\t// in\n    tag_126:\n        /* \"contracts/KipuBank.sol\":11090:11104  uint montoUSDC */\n      0x00\n        /* \"contracts/KipuBank.sol\":11107:11136  convertirEthEnUSDC(msg.value) */\n      tag_129\n        /* \"contracts/KipuBank.sol\":11126:11135  msg.value */\n      callvalue\n        /* \"contracts/KipuBank.sol\":11107:11125  convertirEthEnUSDC */\n      tag_118\n        /* \"contracts/KipuBank.sol\":11107:11136  convertirEthEnUSDC(msg.value) */\n      jump\t// in\n    tag_129:\n        /* \"contracts/KipuBank.sol\":11090:11136  uint montoUSDC = convertirEthEnUSDC(msg.value) */\n      swap1\n      pop\n        /* \"contracts/KipuBank.sol\":11192:11201  msg.value */\n      callvalue\n        /* \"contracts/KipuBank.sol\":11146:11164  _cuentasMultiToken */\n      0x06\n        /* \"contracts/KipuBank.sol\":11146:11176  _cuentasMultiToken[address(0)] */\n      0x00\n        /* \"contracts/KipuBank.sol\":11173:11174  0 */\n      0x00\n        /* \"contracts/KipuBank.sol\":11146:11176  _cuentasMultiToken[address(0)] */\n      0xffffffffffffffffffffffffffffffffffffffff\n      and\n      0xffffffffffffffffffffffffffffffffffffffff\n      and\n      dup2\n      mstore\n      0x20\n      add\n      swap1\n      dup2\n      mstore\n      0x20\n      add\n      0x00\n      keccak256\n        /* \"contracts/KipuBank.sol\":11146:11188  _cuentasMultiToken[address(0)][msg.sender] */\n      0x00\n        /* \"contracts/KipuBank.sol\":11177:11187  msg.sender */\n      caller\n        /* \"contracts/KipuBank.sol\":11146:11188  _cuentasMultiToken[address(0)][msg.sender] */\n      0xffffffffffffffffffffffffffffffffffffffff\n      and\n      0xffffffffffffffffffffffffffffffffffffffff\n      and\n      dup2\n      mstore\n      0x20\n      add\n      swap1\n      dup2\n      mstore\n      0x20\n      add\n      0x00\n      keccak256\n      0x00\n        /* \"contracts/KipuBank.sol\":11146:11201  _cuentasMultiToken[address(0)][msg.sender] += msg.value */\n      dup3\n      dup3\n      sload\n      tag_130\n      swap2\n      swap1\n      tag_122\n      jump\t// in\n    tag_130:\n      swap3\n      pop\n      pop\n      dup2\n      swap1\n      sstore\n      pop\n        /* \"contracts/KipuBank.sol\":11211:11221  _depositos */\n      0x03\n      0x00\n        /* \"contracts/KipuBank.sol\":11211:11223  _depositos++ */\n      dup2\n      sload\n      dup1\n      swap3\n      swap2\n      swap1\n      tag_131\n      swap1\n      tag_132\n      jump\t// in\n    tag_131:\n      swap2\n      swap1\n      pop\n      sstore\n      pop\n        /* \"contracts/KipuBank.sol\":11251:11260  montoUSDC */\n      dup1\n        /* \"contracts/KipuBank.sol\":11233:11247  _totalContrato */\n      0x05\n      0x00\n        /* \"contracts/KipuBank.sol\":11233:11260  _totalContrato += montoUSDC */\n      dup3\n      dup3\n      sload\n      tag_133\n      swap2\n      swap1\n      tag_122\n      jump\t// in\n    tag_133:\n      swap3\n      pop\n      pop\n      dup2\n      swap1\n      sstore\n      pop\n        /* \"contracts/KipuBank.sol\":11302:11312  msg.sender */\n      caller\n        /* \"contracts/KipuBank.sol\":11275:11324  KipuBank_DepositoRealizado(msg.sender, montoUSDC) */\n      0xffffffffffffffffffffffffffffffffffffffff\n      and\n      0x9d15693852bf60dc27bd5aa831d0351359b7d01d428ae1baae11f15cbcfebafd\n        /* \"contracts/KipuBank.sol\":11314:11323  montoUSDC */\n      dup3\n        /* \"contracts/KipuBank.sol\":11275:11324  KipuBank_DepositoRealizado(msg.sender, montoUSDC) */\n      mload(0x40)\n      tag_134\n      swap2\n      swap1\n      tag_55\n      jump\t// in\n    tag_134:\n      mload(0x40)\n      dup1\n      swap2\n      sub\n      swap1\n      log2\n        /* \"contracts/KipuBank.sol\":11080:11331  {... */\n      pop\n        /* \"contracts/KipuBank.sol\":7230:7462  {... */\n      pop\n        /* \"contracts/KipuBank.sol\":10993:11331  function depositarETH() external payable verificarDepositoETH(msg.value) whenNotPaused {... */\n      pop\n      jump\t// out\n        /* \"contracts/KipuBank.sol\":15369:15521  function pausarContrato() external onlyOwner whenNotPaused {... */\n    tag_42:\n        /* \"@openzeppelin/contracts/access/Ownable.sol\":1531:1544  _checkOwner() */\n      tag_136\n        /* \"@openzeppelin/contracts/access/Ownable.sol\":1531:1542  _checkOwner */\n      tag_137\n        /* \"@openzeppelin/contracts/access/Ownable.sol\":1531:1544  _checkOwner() */\n      jump\t// in\n    tag_136:\n        /* \"@openzeppelin/contracts/utils/Pausable.sol\":1350:1369  _requireNotPaused() */\n      tag_139\n        /* \"@openzeppelin/contracts/utils/Pausable.sol\":1350:1367  _requireNotPaused */\n      tag_127\n        /* \"@openzeppelin/contracts/utils/Pausable.sol\":1350:1369  _requireNotPaused() */\n      jump\t// in\n    tag_139:\n        /* \"contracts/KipuBank.sol\":15438:15446  _pause() */\n      tag_141\n        /* \"contracts/KipuBank.sol\":15438:15444  _pause */\n      tag_142\n        /* \"contracts/KipuBank.sol\":15438:15446  _pause() */\n      jump\t// in\n    tag_141:\n        /* \"contracts/KipuBank.sol\":15486:15496  msg.sender */\n      caller\n        /* \"contracts/KipuBank.sol\":15461:15514  KipuBank_ContratoPausado(msg.sender, block.timestamp) */\n      0xffffffffffffffffffffffffffffffffffffffff\n      and\n      0x65ab6adc87722a7acd973ffed16cba7cfdf07b5329157a7192434753ba9dac13\n        /* \"contracts/KipuBank.sol\":15498:15513  block.timestamp */\n      timestamp\n        /* \"contracts/KipuBank.sol\":15461:15514  KipuBank_ContratoPausado(msg.sender, block.timestamp) */\n      mload(0x40)\n      tag_143\n      swap2\n      swap1\n      tag_55\n      jump\t// in\n    tag_143:\n      mload(0x40)\n      dup1\n      swap2\n      sub\n      swap1\n      log2\n        /* \"contracts/KipuBank.sol\":15369:15521  function pausarContrato() external onlyOwner whenNotPaused {... */\n      jump\t// out\n        /* \"contracts/KipuBank.sol\":15579:15736  function despausarContrato() external onlyOwner whenPaused {... */\n    tag_45:\n        /* \"@openzeppelin/contracts/access/Ownable.sol\":1531:1544  _checkOwner() */\n      tag_145\n        /* \"@openzeppelin/contracts/access/Ownable.sol\":1531:1542  _checkOwner */\n      tag_137\n        /* \"@openzeppelin/contracts/access/Ownable.sol\":1531:1544  _checkOwner() */\n      jump\t// in\n    tag_145:\n        /* \"@openzeppelin/contracts/utils/Pausable.sol\":1597:1613  _requirePaused() */\n      tag_147\n        /* \"@openzeppelin/contracts/utils/Pausable.sol\":1597:1611  _requirePaused */\n      tag_148\n        /* \"@openzeppelin/contracts/utils/Pausable.sol\":1597:1613  _requirePaused() */\n      jump\t// in\n    tag_147:\n        /* \"contracts/KipuBank.sol\":15648:15658  _unpause() */\n      tag_150\n        /* \"contracts/KipuBank.sol\":15648:15656  _unpause */\n      tag_151\n        /* \"contracts/KipuBank.sol\":15648:15658  _unpause() */\n      jump\t// in\n    tag_150:\n        /* \"contracts/KipuBank.sol\":15701:15711  msg.sender */\n      caller\n        /* \"contracts/KipuBank.sol\":15673:15729  KipuBank_ContratoDespausado(msg.sender, block.timestamp) */\n      0xffffffffffffffffffffffffffffffffffffffff\n      and\n      0x08af9cf236f4b3afb8d03262d5bef5d95db4da02aa57892cd6474e8097f4f2b7\n        /* \"contracts/KipuBank.sol\":15713:15728  block.timestamp */\n      timestamp\n        /* \"contracts/KipuBank.sol\":15673:15729  KipuBank_ContratoDespausado(msg.sender, block.timestamp) */\n      mload(0x40)\n      tag_152\n      swap2\n      swap1\n      tag_55\n      jump\t// in\n    tag_152:\n      mload(0x40)\n      dup1\n      swap2\n      sub\n      swap1\n      log2\n        /* \"contracts/KipuBank.sol\":15579:15736  function despausarContrato() external onlyOwner whenPaused {... */\n      jump\t// out\n        /* \"@openzeppelin/contracts/utils/Pausable.sol\":1726:1810  function paused() public view virtual returns (bool) {... */\n    tag_48:\n        /* \"@openzeppelin/contracts/utils/Pausable.sol\":1773:1777  bool */\n      0x00\n        /* \"@openzeppelin/contracts/utils/Pausable.sol\":1796:1803  _paused */\n      0x01\n      0x14\n      swap1\n      sload\n      swap1\n      0x0100\n      exp\n      swap1\n      div\n      0xff\n      and\n        /* \"@openzeppelin/contracts/utils/Pausable.sol\":1789:1803  return _paused */\n      swap1\n      pop\n        /* \"@openzeppelin/contracts/utils/Pausable.sol\":1726:1810  function paused() public view virtual returns (bool) {... */\n      swap1\n      jump\t// out\n        /* \"contracts/KipuBank.sol\":12636:12831  function verBoveda() external view returns (uint monto_) {... */\n    tag_53:\n        /* \"contracts/KipuBank.sol\":12680:12691  uint monto_ */\n      0x00\n        /* \"contracts/KipuBank.sol\":12777:12795  _cuentasMultiToken */\n      0x06\n        /* \"contracts/KipuBank.sol\":12777:12812  _cuentasMultiToken[address(i_usdc)] */\n      0x00\n        /* \"contracts/KipuBank.sol\":12804:12810  i_usdc */\n      immutable(\"0xfa230a08db286d2dcf7a434e55689b1255ce6dfbe94e606859a02f38464dfdbc\")\n        /* \"contracts/KipuBank.sol\":12777:12812  _cuentasMultiToken[address(i_usdc)] */\n      0xffffffffffffffffffffffffffffffffffffffff\n      and\n      0xffffffffffffffffffffffffffffffffffffffff\n      and\n      dup2\n      mstore\n      0x20\n      add\n      swap1\n      dup2\n      mstore\n      0x20\n      add\n      0x00\n      keccak256\n        /* \"contracts/KipuBank.sol\":12777:12824  _cuentasMultiToken[address(i_usdc)][msg.sender] */\n      0x00\n        /* \"contracts/KipuBank.sol\":12813:12823  msg.sender */\n      caller\n        /* \"contracts/KipuBank.sol\":12777:12824  _cuentasMultiToken[address(i_usdc)][msg.sender] */\n      0xffffffffffffffffffffffffffffffffffffffff\n      and\n      0xffffffffffffffffffffffffffffffffffffffff\n      and\n      dup2\n      mstore\n      0x20\n      add\n      swap1\n      dup2\n      mstore\n      0x20\n      add\n      0x00\n      keccak256\n      sload\n        /* \"contracts/KipuBank.sol\":12712:12774  convertirEthEnUSDC(_cuentasMultiToken[address(0)][msg.sender]) */\n      tag_155\n        /* \"contracts/KipuBank.sol\":12731:12749  _cuentasMultiToken */\n      0x06\n        /* \"contracts/KipuBank.sol\":12731:12761  _cuentasMultiToken[address(0)] */\n      0x00\n        /* \"contracts/KipuBank.sol\":12758:12759  0 */\n      0x00\n        /* \"contracts/KipuBank.sol\":12731:12761  _cuentasMultiToken[address(0)] */\n      0xffffffffffffffffffffffffffffffffffffffff\n      and\n      0xffffffffffffffffffffffffffffffffffffffff\n      and\n      dup2\n      mstore\n      0x20\n      add\n      swap1\n      dup2\n      mstore\n      0x20\n      add\n      0x00\n      keccak256\n        /* \"contracts/KipuBank.sol\":12731:12773  _cuentasMultiToken[address(0)][msg.sender] */\n      0x00\n        /* \"contracts/KipuBank.sol\":12762:12772  msg.sender */\n      caller\n        /* \"contracts/KipuBank.sol\":12731:12773  _cuentasMultiToken[address(0)][msg.sender] */\n      0xffffffffffffffffffffffffffffffffffffffff\n      and\n      0xffffffffffffffffffffffffffffffffffffffff\n      and\n      dup2\n      mstore\n      0x20\n      add\n      swap1\n      dup2\n      mstore\n      0x20\n      add\n      0x00\n      keccak256\n      sload\n        /* \"contracts/KipuBank.sol\":12712:12730  convertirEthEnUSDC */\n      tag_118\n        /* \"contracts/KipuBank.sol\":12712:12774  convertirEthEnUSDC(_cuentasMultiToken[address(0)][msg.sender]) */\n      jump\t// in\n    tag_155:\n        /* \"contracts/KipuBank.sol\":12712:12824  convertirEthEnUSDC(_cuentasMultiToken[address(0)][msg.sender]) + _cuentasMultiToken[address(i_usdc)][msg.sender] */\n      tag_156\n      swap2\n      swap1\n      tag_122\n      jump\t// in\n    tag_156:\n        /* \"contracts/KipuBank.sol\":12703:12824  monto_ = convertirEthEnUSDC(_cuentasMultiToken[address(0)][msg.sender]) + _cuentasMultiToken[address(i_usdc)][msg.sender] */\n      swap1\n      pop\n        /* \"contracts/KipuBank.sol\":12636:12831  function verBoveda() external view returns (uint monto_) {... */\n      swap1\n      jump\t// out\n        /* \"contracts/KipuBank.sol\":11623:11971  function depositarUSDC(uint _monto) external verificarDepositoUSDC(_monto) whenNotPaused {... */\n    tag_60:\n        /* \"contracts/KipuBank.sol\":11690:11696  _monto */\n      dup1\n        /* \"contracts/KipuBank.sol\":7638:7639  0 */\n      0x00\n        /* \"contracts/KipuBank.sol\":7628:7634  _monto */\n      dup2\n        /* \"contracts/KipuBank.sol\":7628:7639  _monto == 0 */\n      sub\n        /* \"contracts/KipuBank.sol\":7625:7678  if(_monto == 0) revert KipuBank_MontoCero(msg.sender) */\n      tag_158\n      jumpi\n        /* \"contracts/KipuBank.sol\":7667:7677  msg.sender */\n      caller\n        /* \"contracts/KipuBank.sol\":7648:7678  KipuBank_MontoCero(msg.sender) */\n      mload(0x40)\n      0xb2f0923100000000000000000000000000000000000000000000000000000000\n      dup2\n      mstore\n      0x04\n      add\n      tag_159\n      swap2\n      swap1\n      tag_29\n      jump\t// in\n    tag_159:\n      mload(0x40)\n      dup1\n      swap2\n      sub\n      swap1\n      revert\n        /* \"contracts/KipuBank.sol\":7625:7678  if(_monto == 0) revert KipuBank_MontoCero(msg.sender) */\n    tag_158:\n        /* \"contracts/KipuBank.sol\":7718:7727  i_bankCap */\n      immutable(\"0x7accbde6ceb84317f73cf616046161b2827a9ee871490b0c927c2024ef305ecf\")\n        /* \"contracts/KipuBank.sol\":7701:7715  _totalContrato */\n      sload(0x05)\n        /* \"contracts/KipuBank.sol\":7692:7698  _monto */\n      dup3\n        /* \"contracts/KipuBank.sol\":7692:7715  _monto + _totalContrato */\n      tag_160\n      swap2\n      swap1\n      tag_122\n      jump\t// in\n    tag_160:\n        /* \"contracts/KipuBank.sol\":7692:7727  _monto + _totalContrato > i_bankCap */\n      gt\n        /* \"contracts/KipuBank.sol\":7688:7767  if (_monto + _totalContrato > i_bankCap) revert KipuBank_LimiteExcedido(_monto) */\n      iszero\n      tag_161\n      jumpi\n        /* \"contracts/KipuBank.sol\":7760:7766  _monto */\n      dup1\n        /* \"contracts/KipuBank.sol\":7736:7767  KipuBank_LimiteExcedido(_monto) */\n      mload(0x40)\n      0x2900b02c00000000000000000000000000000000000000000000000000000000\n      dup2\n      mstore\n      0x04\n      add\n      tag_162\n      swap2\n      swap1\n      tag_55\n      jump\t// in\n    tag_162:\n      mload(0x40)\n      dup1\n      swap2\n      sub\n      swap1\n      revert\n        /* \"contracts/KipuBank.sol\":7688:7767  if (_monto + _totalContrato > i_bankCap) revert KipuBank_LimiteExcedido(_monto) */\n    tag_161:\n        /* \"@openzeppelin/contracts/utils/Pausable.sol\":1350:1369  _requireNotPaused() */\n      tag_164\n        /* \"@openzeppelin/contracts/utils/Pausable.sol\":1350:1367  _requireNotPaused */\n      tag_127\n        /* \"@openzeppelin/contracts/utils/Pausable.sol\":1350:1369  _requireNotPaused() */\n      jump\t// in\n    tag_164:\n        /* \"contracts/KipuBank.sol\":11773:11779  _monto */\n      dup2\n        /* \"contracts/KipuBank.sol\":11722:11740  _cuentasMultiToken */\n      0x06\n        /* \"contracts/KipuBank.sol\":11722:11757  _cuentasMultiToken[address(i_usdc)] */\n      0x00\n        /* \"contracts/KipuBank.sol\":11749:11755  i_usdc */\n      immutable(\"0xfa230a08db286d2dcf7a434e55689b1255ce6dfbe94e606859a02f38464dfdbc\")\n        /* \"contracts/KipuBank.sol\":11722:11757  _cuentasMultiToken[address(i_usdc)] */\n      0xffffffffffffffffffffffffffffffffffffffff\n      and\n      0xffffffffffffffffffffffffffffffffffffffff\n      and\n      dup2\n      mstore\n      0x20\n      add\n      swap1\n      dup2\n      mstore\n      0x20\n      add\n      0x00\n      keccak256\n        /* \"contracts/KipuBank.sol\":11722:11769  _cuentasMultiToken[address(i_usdc)][msg.sender] */\n      0x00\n        /* \"contracts/KipuBank.sol\":11758:11768  msg.sender */\n      caller\n        /* \"contracts/KipuBank.sol\":11722:11769  _cuentasMultiToken[address(i_usdc)][msg.sender] */\n      0xffffffffffffffffffffffffffffffffffffffff\n      and\n      0xffffffffffffffffffffffffffffffffffffffff\n      and\n      dup2\n      mstore\n      0x20\n      add\n      swap1\n      dup2\n      mstore\n      0x20\n      add\n      0x00\n      keccak256\n      0x00\n        /* \"contracts/KipuBank.sol\":11722:11779  _cuentasMultiToken[address(i_usdc)][msg.sender] += _monto */\n      dup3\n      dup3\n      sload\n      tag_166\n      swap2\n      swap1\n      tag_122\n      jump\t// in\n    tag_166:\n      swap3\n      pop\n      pop\n      dup2\n      swap1\n      sstore\n      pop\n        /* \"contracts/KipuBank.sol\":11789:11799  _depositos */\n      0x03\n      0x00\n        /* \"contracts/KipuBank.sol\":11789:11801  _depositos++ */\n      dup2\n      sload\n      dup1\n      swap3\n      swap2\n      swap1\n      tag_167\n      swap1\n      tag_132\n      jump\t// in\n    tag_167:\n      swap2\n      swap1\n      pop\n      sstore\n      pop\n        /* \"contracts/KipuBank.sol\":11829:11835  _monto */\n      dup2\n        /* \"contracts/KipuBank.sol\":11811:11825  _totalContrato */\n      0x05\n      0x00\n        /* \"contracts/KipuBank.sol\":11811:11835  _totalContrato += _monto */\n      dup3\n      dup3\n      sload\n      tag_168\n      swap2\n      swap1\n      tag_122\n      jump\t// in\n    tag_168:\n      swap3\n      pop\n      pop\n      dup2\n      swap1\n      sstore\n      pop\n        /* \"contracts/KipuBank.sol\":11877:11887  msg.sender */\n      caller\n        /* \"contracts/KipuBank.sol\":11850:11896  KipuBank_DepositoRealizado(msg.sender, _monto) */\n      0xffffffffffffffffffffffffffffffffffffffff\n      and\n      0x9d15693852bf60dc27bd5aa831d0351359b7d01d428ae1baae11f15cbcfebafd\n        /* \"contracts/KipuBank.sol\":11889:11895  _monto */\n      dup4\n        /* \"contracts/KipuBank.sol\":11850:11896  KipuBank_DepositoRealizado(msg.sender, _monto) */\n      mload(0x40)\n      tag_169\n      swap2\n      swap1\n      tag_55\n      jump\t// in\n    tag_169:\n      mload(0x40)\n      dup1\n      swap2\n      sub\n      swap1\n      log2\n        /* \"contracts/KipuBank.sol\":11906:11964  i_usdc.safeTransferFrom(msg.sender, address(this), _monto) */\n      tag_170\n        /* \"contracts/KipuBank.sol\":11930:11940  msg.sender */\n      caller\n        /* \"contracts/KipuBank.sol\":11950:11954  this */\n      address\n        /* \"contracts/KipuBank.sol\":11957:11963  _monto */\n      dup5\n        /* \"contracts/KipuBank.sol\":11906:11912  i_usdc */\n      immutable(\"0xfa230a08db286d2dcf7a434e55689b1255ce6dfbe94e606859a02f38464dfdbc\")\n        /* \"contracts/KipuBank.sol\":11906:11929  i_usdc.safeTransferFrom */\n      0xffffffffffffffffffffffffffffffffffffffff\n      and\n      tag_171\n      swap1\n        /* \"contracts/KipuBank.sol\":11906:11964  i_usdc.safeTransferFrom(msg.sender, address(this), _monto) */\n      swap4\n      swap3\n      swap2\n      swap1\n      0xffffffff\n      and\n      jump\t// in\n    tag_170:\n        /* \"contracts/KipuBank.sol\":11623:11971  function depositarUSDC(uint _monto) external verificarDepositoUSDC(_monto) whenNotPaused {... */\n      pop\n      pop\n      jump\t// out\n        /* \"contracts/KipuBank.sol\":1164:1199  AggregatorV3Interface public s_feed */\n    tag_63:\n      0x02\n      0x00\n      swap1\n      sload\n      swap1\n      0x0100\n      exp\n      swap1\n      div\n      0xffffffffffffffffffffffffffffffffffffffff\n      and\n      dup2\n      jump\t// out\n        /* \"@openzeppelin/contracts/access/Ownable.sol\":2293:2394  function renounceOwnership() public virtual onlyOwner {... */\n    tag_68:\n        /* \"@openzeppelin/contracts/access/Ownable.sol\":1531:1544  _checkOwner() */\n      tag_173\n        /* \"@openzeppelin/contracts/access/Ownable.sol\":1531:1542  _checkOwner */\n      tag_137\n        /* \"@openzeppelin/contracts/access/Ownable.sol\":1531:1544  _checkOwner() */\n      jump\t// in\n    tag_173:\n        /* \"@openzeppelin/contracts/access/Ownable.sol\":2357:2387  _transferOwnership(address(0)) */\n      tag_175\n        /* \"@openzeppelin/contracts/access/Ownable.sol\":2384:2385  0 */\n      0x00\n        /* \"@openzeppelin/contracts/access/Ownable.sol\":2357:2375  _transferOwnership */\n      tag_176\n        /* \"@openzeppelin/contracts/access/Ownable.sol\":2357:2387  _transferOwnership(address(0)) */\n      jump\t// in\n    tag_175:\n        /* \"@openzeppelin/contracts/access/Ownable.sol\":2293:2394  function renounceOwnership() public virtual onlyOwner {... */\n      jump\t// out\n        /* \"contracts/KipuBank.sol\":13193:13320  function verSaldoETH() external view returns (uint saldo_) {... */\n    tag_71:\n        /* \"contracts/KipuBank.sol\":13239:13250  uint saldo_ */\n      0x00\n        /* \"contracts/KipuBank.sol\":13271:13289  _cuentasMultiToken */\n      0x06\n        /* \"contracts/KipuBank.sol\":13271:13301  _cuentasMultiToken[address(0)] */\n      0x00\n        /* \"contracts/KipuBank.sol\":13298:13299  0 */\n      0x00\n        /* \"contracts/KipuBank.sol\":13271:13301  _cuentasMultiToken[address(0)] */\n      0xffffffffffffffffffffffffffffffffffffffff\n      and\n      0xffffffffffffffffffffffffffffffffffffffff\n      and\n      dup2\n      mstore\n      0x20\n      add\n      swap1\n      dup2\n      mstore\n      0x20\n      add\n      0x00\n      keccak256\n        /* \"contracts/KipuBank.sol\":13271:13313  _cuentasMultiToken[address(0)][msg.sender] */\n      0x00\n        /* \"contracts/KipuBank.sol\":13302:13312  msg.sender */\n      caller\n        /* \"contracts/KipuBank.sol\":13271:13313  _cuentasMultiToken[address(0)][msg.sender] */\n      0xffffffffffffffffffffffffffffffffffffffff\n      and\n      0xffffffffffffffffffffffffffffffffffffffff\n      and\n      dup2\n      mstore\n      0x20\n      add\n      swap1\n      dup2\n      mstore\n      0x20\n      add\n      0x00\n      keccak256\n      sload\n        /* \"contracts/KipuBank.sol\":13262:13313  saldo_ = _cuentasMultiToken[address(0)][msg.sender] */\n      swap1\n      pop\n        /* \"contracts/KipuBank.sol\":13193:13320  function verSaldoETH() external view returns (uint saldo_) {... */\n      swap1\n      jump\t// out\n        /* \"contracts/KipuBank.sol\":14472:15314  function setFeeds(address _nuevoFeed) external onlyOwner whenPaused {... */\n    tag_77:\n        /* \"@openzeppelin/contracts/access/Ownable.sol\":1531:1544  _checkOwner() */\n      tag_179\n        /* \"@openzeppelin/contracts/access/Ownable.sol\":1531:1542  _checkOwner */\n      tag_137\n        /* \"@openzeppelin/contracts/access/Ownable.sol\":1531:1544  _checkOwner() */\n      jump\t// in\n    tag_179:\n        /* \"@openzeppelin/contracts/utils/Pausable.sol\":1597:1613  _requirePaused() */\n      tag_181\n        /* \"@openzeppelin/contracts/utils/Pausable.sol\":1597:1611  _requirePaused */\n      tag_148\n        /* \"@openzeppelin/contracts/utils/Pausable.sol\":1597:1613  _requirePaused() */\n      jump\t// in\n    tag_181:\n        /* \"contracts/KipuBank.sol\":14576:14577  0 */\n      0x00\n        /* \"contracts/KipuBank.sol\":14554:14578  _nuevoFeed == address(0) */\n      0xffffffffffffffffffffffffffffffffffffffff\n      and\n        /* \"contracts/KipuBank.sol\":14554:14564  _nuevoFeed */\n      dup2\n        /* \"contracts/KipuBank.sol\":14554:14578  _nuevoFeed == address(0) */\n      0xffffffffffffffffffffffffffffffffffffffff\n      and\n      sub\n        /* \"contracts/KipuBank.sol\":14550:14615  if (_nuevoFeed == address(0)) revert KipuBank_DireccionInvalida() */\n      tag_183\n      jumpi\n        /* \"contracts/KipuBank.sol\":14587:14615  KipuBank_DireccionInvalida() */\n      mload(0x40)\n      0x463858d600000000000000000000000000000000000000000000000000000000\n      dup2\n      mstore\n      0x04\n      add\n      mload(0x40)\n      dup1\n      swap2\n      sub\n      swap1\n      revert\n        /* \"contracts/KipuBank.sol\":14550:14615  if (_nuevoFeed == address(0)) revert KipuBank_DireccionInvalida() */\n    tag_183:\n        /* \"contracts/KipuBank.sol\":14722:14732  _nuevoFeed */\n      dup1\n        /* \"contracts/KipuBank.sol\":14700:14749  AggregatorV3Interface(_nuevoFeed).latestRoundData */\n      0xffffffffffffffffffffffffffffffffffffffff\n      and\n      0xfeaf968c\n        /* \"contracts/KipuBank.sol\":14700:14751  AggregatorV3Interface(_nuevoFeed).latestRoundData() */\n      mload(0x40)\n      dup2\n      0xffffffff\n      and\n      0xe0\n      shl\n      dup2\n      mstore\n      0x04\n      add\n      0xa0\n      mload(0x40)\n      dup1\n      dup4\n      sub\n      dup2\n      dup7\n      gas\n      staticcall\n      swap3\n      pop\n      pop\n      pop\n      dup1\n      iszero\n      tag_184\n      jumpi\n      pop\n      mload(0x40)\n      returndatasize\n      not(0x1f)\n      0x1f\n      dup3\n      add\n      and\n      dup3\n      add\n      dup1\n      0x40\n      mstore\n      pop\n      dup2\n      add\n      swap1\n      tag_185\n      swap2\n      swap1\n      tag_186\n      jump\t// in\n    tag_185:\n      0x01\n    tag_184:\n        /* \"contracts/KipuBank.sol\":14696:15300  try AggregatorV3Interface(_nuevoFeed).latestRoundData() returns (... */\n      tag_187\n      jumpi\n        /* \"contracts/KipuBank.sol\":15278:15288  _nuevoFeed */\n      dup1\n        /* \"contracts/KipuBank.sol\":15256:15289  KipuBank_FeedInvalido(_nuevoFeed) */\n      mload(0x40)\n      0x59eea31500000000000000000000000000000000000000000000000000000000\n      dup2\n      mstore\n      0x04\n      add\n      tag_191\n      swap2\n      swap1\n      tag_29\n      jump\t// in\n    tag_191:\n      mload(0x40)\n      dup1\n      swap2\n      sub\n      swap1\n      revert\n        /* \"contracts/KipuBank.sol\":14696:15300  try AggregatorV3Interface(_nuevoFeed).latestRoundData() returns (... */\n    tag_187:\n        /* \"contracts/KipuBank.sol\":14866:14867  0 */\n      0x00\n        /* \"contracts/KipuBank.sol\":14857:14862  price */\n      dup5\n        /* \"contracts/KipuBank.sol\":14857:14867  price <= 0 */\n      sgt\n        /* \"contracts/KipuBank.sol\":14854:14909  if(price <= 0) revert KipuBank_FeedInvalido(_nuevoFeed) */\n      tag_193\n      jumpi\n        /* \"contracts/KipuBank.sol\":14898:14908  _nuevoFeed */\n      dup6\n        /* \"contracts/KipuBank.sol\":14876:14909  KipuBank_FeedInvalido(_nuevoFeed) */\n      mload(0x40)\n      0x59eea31500000000000000000000000000000000000000000000000000000000\n      dup2\n      mstore\n      0x04\n      add\n      tag_194\n      swap2\n      swap1\n      tag_29\n      jump\t// in\n    tag_194:\n      mload(0x40)\n      dup1\n      swap2\n      sub\n      swap1\n      revert\n        /* \"contracts/KipuBank.sol\":14854:14909  if(price <= 0) revert KipuBank_FeedInvalido(_nuevoFeed) */\n    tag_193:\n        /* \"contracts/KipuBank.sol\":1347:1351  3600 */\n      0x0e10\n        /* \"contracts/KipuBank.sol\":14938:14976  block.timestamp - updateAt > HEARTBEAT */\n      0xffff\n      and\n        /* \"contracts/KipuBank.sol\":14956:14964  updateAt */\n      dup3\n        /* \"contracts/KipuBank.sol\":14938:14953  block.timestamp */\n      timestamp\n        /* \"contracts/KipuBank.sol\":14938:14964  block.timestamp - updateAt */\n      tag_195\n      swap2\n      swap1\n      tag_196\n      jump\t// in\n    tag_195:\n        /* \"contracts/KipuBank.sol\":14938:14976  block.timestamp - updateAt > HEARTBEAT */\n      gt\n        /* \"contracts/KipuBank.sol\":14935:15027  if(block.timestamp - updateAt > HEARTBEAT) revert KipuBank_PrecioDesactualizado(uint(price)) */\n      iszero\n      tag_197\n      jumpi\n        /* \"contracts/KipuBank.sol\":15020:15025  price */\n      dup4\n        /* \"contracts/KipuBank.sol\":14985:15027  KipuBank_PrecioDesactualizado(uint(price)) */\n      mload(0x40)\n      0x2609a26500000000000000000000000000000000000000000000000000000000\n      dup2\n      mstore\n      0x04\n      add\n      tag_198\n      swap2\n      swap1\n      tag_55\n      jump\t// in\n    tag_198:\n      mload(0x40)\n      dup1\n      swap2\n      sub\n      swap1\n      revert\n        /* \"contracts/KipuBank.sol\":14935:15027  if(block.timestamp - updateAt > HEARTBEAT) revert KipuBank_PrecioDesactualizado(uint(price)) */\n    tag_197:\n        /* \"contracts/KipuBank.sol\":15054:15074  address feedAnterior */\n      0x00\n        /* \"contracts/KipuBank.sol\":15085:15091  s_feed */\n      0x02\n      0x00\n      swap1\n      sload\n      swap1\n      0x0100\n      exp\n      swap1\n      div\n      0xffffffffffffffffffffffffffffffffffffffff\n      and\n        /* \"contracts/KipuBank.sol\":15054:15092  address feedAnterior = address(s_feed) */\n      swap1\n      pop\n        /* \"contracts/KipuBank.sol\":15137:15147  _nuevoFeed */\n      dup7\n        /* \"contracts/KipuBank.sol\":15106:15112  s_feed */\n      0x02\n      0x00\n        /* \"contracts/KipuBank.sol\":15106:15148  s_feed = AggregatorV3Interface(_nuevoFeed) */\n      0x0100\n      exp\n      dup2\n      sload\n      dup2\n      0xffffffffffffffffffffffffffffffffffffffff\n      mul\n      not\n      and\n      swap1\n      dup4\n      0xffffffffffffffffffffffffffffffffffffffff\n      and\n      mul\n      or\n      swap1\n      sstore\n      pop\n        /* \"contracts/KipuBank.sol\":15206:15216  _nuevoFeed */\n      dup7\n        /* \"contracts/KipuBank.sol\":15167:15217  KipuBank_FeedActualizado(feedAnterior, _nuevoFeed) */\n      0xffffffffffffffffffffffffffffffffffffffff\n      and\n        /* \"contracts/KipuBank.sol\":15192:15204  feedAnterior */\n      dup2\n        /* \"contracts/KipuBank.sol\":15167:15217  KipuBank_FeedActualizado(feedAnterior, _nuevoFeed) */\n      0xffffffffffffffffffffffffffffffffffffffff\n      and\n      0x03028d95bd98a5ec8c81b55c2b61e734dde89bb773697b429bd195fd00582b30\n      mload(0x40)\n      mload(0x40)\n      dup1\n      swap2\n      sub\n      swap1\n      log3\n        /* \"contracts/KipuBank.sol\":14840:15228  {... */\n      pop\n        /* \"contracts/KipuBank.sol\":14752:15228  returns (... */\n      pop\n      pop\n      pop\n      pop\n      pop\n        /* \"contracts/KipuBank.sol\":14472:15314  function setFeeds(address _nuevoFeed) external onlyOwner whenPaused {... */\n      pop\n      jump\t// out\n        /* \"contracts/KipuBank.sol\":10530:10628  function retirarETH(uint _monto) external whenNotPaused {... */\n    tag_81:\n        /* \"@openzeppelin/contracts/utils/Pausable.sol\":1350:1369  _requireNotPaused() */\n      tag_200\n        /* \"@openzeppelin/contracts/utils/Pausable.sol\":1350:1367  _requireNotPaused */\n      tag_127\n        /* \"@openzeppelin/contracts/utils/Pausable.sol\":1350:1369  _requireNotPaused() */\n      jump\t// in\n    tag_200:\n        /* \"contracts/KipuBank.sol\":10596:10621  _retirarFondosETH(_monto) */\n      tag_202\n        /* \"contracts/KipuBank.sol\":10614:10620  _monto */\n      dup2\n        /* \"contracts/KipuBank.sol\":10596:10613  _retirarFondosETH */\n      tag_203\n        /* \"contracts/KipuBank.sol\":10596:10621  _retirarFondosETH(_monto) */\n      jump\t// in\n    tag_202:\n        /* \"contracts/KipuBank.sol\":10530:10628  function retirarETH(uint _monto) external whenNotPaused {... */\n      pop\n      jump\t// out\n        /* \"contracts/KipuBank.sol\":14212:14335  function transferirOwner(address _nuevoOwner) external onlyOwner whenPaused {... */\n    tag_85:\n        /* \"@openzeppelin/contracts/access/Ownable.sol\":1531:1544  _checkOwner() */\n      tag_205\n        /* \"@openzeppelin/contracts/access/Ownable.sol\":1531:1542  _checkOwner */\n      tag_137\n        /* \"@openzeppelin/contracts/access/Ownable.sol\":1531:1544  _checkOwner() */\n      jump\t// in\n    tag_205:\n        /* \"@openzeppelin/contracts/utils/Pausable.sol\":1597:1613  _requirePaused() */\n      tag_207\n        /* \"@openzeppelin/contracts/utils/Pausable.sol\":1597:1611  _requirePaused */\n      tag_148\n        /* \"@openzeppelin/contracts/utils/Pausable.sol\":1597:1613  _requirePaused() */\n      jump\t// in\n    tag_207:\n        /* \"contracts/KipuBank.sol\":14298:14328  transferOwnership(_nuevoOwner) */\n      tag_209\n        /* \"contracts/KipuBank.sol\":14316:14327  _nuevoOwner */\n      dup2\n        /* \"contracts/KipuBank.sol\":14298:14315  transferOwnership */\n      tag_109\n        /* \"contracts/KipuBank.sol\":14298:14328  transferOwnership(_nuevoOwner) */\n      jump\t// in\n    tag_209:\n        /* \"contracts/KipuBank.sol\":14212:14335  function transferirOwner(address _nuevoOwner) external onlyOwner whenPaused {... */\n      pop\n      jump\t// out\n        /* \"@openzeppelin/contracts/access/Ownable.sol\":1638:1723  function owner() public view virtual returns (address) {... */\n    tag_88:\n        /* \"@openzeppelin/contracts/access/Ownable.sol\":1684:1691  address */\n      0x00\n        /* \"@openzeppelin/contracts/access/Ownable.sol\":1710:1716  _owner */\n      0x01\n      0x00\n      swap1\n      sload\n      swap1\n      0x0100\n      exp\n      swap1\n      div\n      0xffffffffffffffffffffffffffffffffffffffff\n      and\n        /* \"@openzeppelin/contracts/access/Ownable.sol\":1703:1716  return _owner */\n      swap1\n      pop\n        /* \"@openzeppelin/contracts/access/Ownable.sol\":1638:1723  function owner() public view virtual returns (address) {... */\n      swap1\n      jump\t// out\n        /* \"contracts/KipuBank.sol\":10764:10864  function retirarUSDC(uint _monto) external whenNotPaused {... */\n    tag_93:\n        /* \"@openzeppelin/contracts/utils/Pausable.sol\":1350:1369  _requireNotPaused() */\n      tag_212\n        /* \"@openzeppelin/contracts/utils/Pausable.sol\":1350:1367  _requireNotPaused */\n      tag_127\n        /* \"@openzeppelin/contracts/utils/Pausable.sol\":1350:1369  _requireNotPaused() */\n      jump\t// in\n    tag_212:\n        /* \"contracts/KipuBank.sol\":10831:10857  _retirarFondosUSDC(_monto) */\n      tag_214\n        /* \"contracts/KipuBank.sol\":10850:10856  _monto */\n      dup2\n        /* \"contracts/KipuBank.sol\":10831:10849  _retirarFondosUSDC */\n      tag_215\n        /* \"contracts/KipuBank.sol\":10831:10857  _retirarFondosUSDC(_monto) */\n      jump\t// in\n    tag_214:\n        /* \"contracts/KipuBank.sol\":10764:10864  function retirarUSDC(uint _monto) external whenNotPaused {... */\n      pop\n      jump\t// out\n        /* \"contracts/KipuBank.sol\":13894:13989  function verTotalContrato() external view returns (uint) {... */\n    tag_96:\n        /* \"contracts/KipuBank.sol\":13945:13949  uint */\n      0x00\n        /* \"contracts/KipuBank.sol\":13968:13982  _totalContrato */\n      sload(0x05)\n        /* \"contracts/KipuBank.sol\":13961:13982  return _totalContrato */\n      swap1\n      pop\n        /* \"contracts/KipuBank.sol\":13894:13989  function verTotalContrato() external view returns (uint) {... */\n      swap1\n      jump\t// out\n        /* \"contracts/KipuBank.sol\":12948:13081  function verSaldoUSDC() external view returns (uint saldo_) {... */\n    tag_100:\n        /* \"contracts/KipuBank.sol\":12995:13006  uint saldo_ */\n      0x00\n        /* \"contracts/KipuBank.sol\":13027:13045  _cuentasMultiToken */\n      0x06\n        /* \"contracts/KipuBank.sol\":13027:13062  _cuentasMultiToken[address(i_usdc)] */\n      0x00\n        /* \"contracts/KipuBank.sol\":13054:13060  i_usdc */\n      immutable(\"0xfa230a08db286d2dcf7a434e55689b1255ce6dfbe94e606859a02f38464dfdbc\")\n        /* \"contracts/KipuBank.sol\":13027:13062  _cuentasMultiToken[address(i_usdc)] */\n      0xffffffffffffffffffffffffffffffffffffffff\n      and\n      0xffffffffffffffffffffffffffffffffffffffff\n      and\n      dup2\n      mstore\n      0x20\n      add\n      swap1\n      dup2\n      mstore\n      0x20\n      add\n      0x00\n      keccak256\n        /* \"contracts/KipuBank.sol\":13027:13074  _cuentasMultiToken[address(i_usdc)][msg.sender] */\n      0x00\n        /* \"contracts/KipuBank.sol\":13063:13073  msg.sender */\n      caller\n        /* \"contracts/KipuBank.sol\":13027:13074  _cuentasMultiToken[address(i_usdc)][msg.sender] */\n      0xffffffffffffffffffffffffffffffffffffffff\n      and\n      0xffffffffffffffffffffffffffffffffffffffff\n      and\n      dup2\n      mstore\n      0x20\n      add\n      swap1\n      dup2\n      mstore\n      0x20\n      add\n      0x00\n      keccak256\n      sload\n        /* \"contracts/KipuBank.sol\":13018:13074  saldo_ = _cuentasMultiToken[address(i_usdc)][msg.sender] */\n      swap1\n      pop\n        /* \"contracts/KipuBank.sol\":12948:13081  function verSaldoUSDC() external view returns (uint saldo_) {... */\n      swap1\n      jump\t// out\n        /* \"contracts/KipuBank.sol\":13678:13766  function verTotalRetiros() external view returns (uint) {... */\n    tag_104:\n        /* \"contracts/KipuBank.sol\":13728:13732  uint */\n      0x00\n        /* \"contracts/KipuBank.sol\":13751:13759  _retiros */\n      sload(0x04)\n        /* \"contracts/KipuBank.sol\":13744:13759  return _retiros */\n      swap1\n      pop\n        /* \"contracts/KipuBank.sol\":13678:13766  function verTotalRetiros() external view returns (uint) {... */\n      swap1\n      jump\t// out\n        /* \"@openzeppelin/contracts/access/Ownable.sol\":2543:2758  function transferOwnership(address newOwner) public virtual onlyOwner {... */\n    tag_109:\n        /* \"@openzeppelin/contracts/access/Ownable.sol\":1531:1544  _checkOwner() */\n      tag_220\n        /* \"@openzeppelin/contracts/access/Ownable.sol\":1531:1542  _checkOwner */\n      tag_137\n        /* \"@openzeppelin/contracts/access/Ownable.sol\":1531:1544  _checkOwner() */\n      jump\t// in\n    tag_220:\n        /* \"@openzeppelin/contracts/access/Ownable.sol\":2647:2648  0 */\n      0x00\n        /* \"@openzeppelin/contracts/access/Ownable.sol\":2627:2649  newOwner == address(0) */\n      0xffffffffffffffffffffffffffffffffffffffff\n      and\n        /* \"@openzeppelin/contracts/access/Ownable.sol\":2627:2635  newOwner */\n      dup2\n        /* \"@openzeppelin/contracts/access/Ownable.sol\":2627:2649  newOwner == address(0) */\n      0xffffffffffffffffffffffffffffffffffffffff\n      and\n      sub\n        /* \"@openzeppelin/contracts/access/Ownable.sol\":2623:2714  if (newOwner == address(0)) {... */\n      tag_222\n      jumpi\n        /* \"@openzeppelin/contracts/access/Ownable.sol\":2700:2701  0 */\n      0x00\n        /* \"@openzeppelin/contracts/access/Ownable.sol\":2672:2703  OwnableInvalidOwner(address(0)) */\n      mload(0x40)\n      0x1e4fbdf700000000000000000000000000000000000000000000000000000000\n      dup2\n      mstore\n      0x04\n      add\n      tag_223\n      swap2\n      swap1\n      tag_29\n      jump\t// in\n    tag_223:\n      mload(0x40)\n      dup1\n      swap2\n      sub\n      swap1\n      revert\n        /* \"@openzeppelin/contracts/access/Ownable.sol\":2623:2714  if (newOwner == address(0)) {... */\n    tag_222:\n        /* \"@openzeppelin/contracts/access/Ownable.sol\":2723:2751  _transferOwnership(newOwner) */\n      tag_224\n        /* \"@openzeppelin/contracts/access/Ownable.sol\":2742:2750  newOwner */\n      dup2\n        /* \"@openzeppelin/contracts/access/Ownable.sol\":2723:2741  _transferOwnership */\n      tag_176\n        /* \"@openzeppelin/contracts/access/Ownable.sol\":2723:2751  _transferOwnership(newOwner) */\n      jump\t// in\n    tag_224:\n        /* \"@openzeppelin/contracts/access/Ownable.sol\":2543:2758  function transferOwnership(address newOwner) public virtual onlyOwner {... */\n      pop\n      jump\t// out\n        /* \"contracts/KipuBank.sol\":13455:13547  function verTotalDepositos() external view returns (uint) {... */\n    tag_112:\n        /* \"contracts/KipuBank.sol\":13507:13511  uint */\n      0x00\n        /* \"contracts/KipuBank.sol\":13530:13540  _depositos */\n      sload(0x03)\n        /* \"contracts/KipuBank.sol\":13523:13540  return _depositos */\n      swap1\n      pop\n        /* \"contracts/KipuBank.sol\":13455:13547  function verTotalDepositos() external view returns (uint) {... */\n      swap1\n      jump\t// out\n        /* \"contracts/KipuBank.sol\":12289:12460  function convertirEthEnUSDC(uint _monto) internal view returns (uint montoConvertido_) {... */\n    tag_118:\n        /* \"contracts/KipuBank.sol\":12353:12374  uint montoConvertido_ */\n      0x00\n        /* \"contracts/KipuBank.sol\":1616:1628  1 * 10 ** 20 */\n      0x056bc75e2d63100000\n        /* \"contracts/KipuBank.sol\":12419:12435  chainLinkFeeds() */\n      tag_227\n        /* \"contracts/KipuBank.sol\":12419:12433  chainLinkFeeds */\n      tag_228\n        /* \"contracts/KipuBank.sol\":12419:12435  chainLinkFeeds() */\n      jump\t// in\n    tag_227:\n        /* \"contracts/KipuBank.sol\":12410:12416  _monto */\n      dup4\n        /* \"contracts/KipuBank.sol\":12410:12435  _monto * chainLinkFeeds() */\n      tag_229\n      swap2\n      swap1\n      tag_230\n      jump\t// in\n    tag_229:\n        /* \"contracts/KipuBank.sol\":12409:12453  (_monto * chainLinkFeeds()) / DECIMAL_FACTOR */\n      tag_231\n      swap2\n      swap1\n      tag_232\n      jump\t// in\n    tag_231:\n        /* \"contracts/KipuBank.sol\":12390:12453  montoConvertido_ = (_monto * chainLinkFeeds()) / DECIMAL_FACTOR */\n      swap1\n      pop\n        /* \"contracts/KipuBank.sol\":12289:12460  function convertirEthEnUSDC(uint _monto) internal view returns (uint montoConvertido_) {... */\n      swap2\n      swap1\n      pop\n      jump\t// out\n        /* \"@openzeppelin/contracts/utils/Pausable.sol\":1878:2006  function _requireNotPaused() internal view virtual {... */\n    tag_127:\n        /* \"@openzeppelin/contracts/utils/Pausable.sol\":1943:1951  paused() */\n      tag_234\n        /* \"@openzeppelin/contracts/utils/Pausable.sol\":1943:1949  paused */\n      tag_48\n        /* \"@openzeppelin/contracts/utils/Pausable.sol\":1943:1951  paused() */\n      jump\t// in\n    tag_234:\n        /* \"@openzeppelin/contracts/utils/Pausable.sol\":1939:2000  if (paused()) {... */\n      iszero\n      tag_235\n      jumpi\n        /* \"@openzeppelin/contracts/utils/Pausable.sol\":1974:1989  EnforcedPause() */\n      mload(0x40)\n      0xd93c066500000000000000000000000000000000000000000000000000000000\n      dup2\n      mstore\n      0x04\n      add\n      mload(0x40)\n      dup1\n      swap2\n      sub\n      swap1\n      revert\n        /* \"@openzeppelin/contracts/utils/Pausable.sol\":1939:2000  if (paused()) {... */\n    tag_235:\n        /* \"@openzeppelin/contracts/utils/Pausable.sol\":1878:2006  function _requireNotPaused() internal view virtual {... */\n      jump\t// out\n        /* \"@openzeppelin/contracts/access/Ownable.sol\":1796:1958  function _checkOwner() internal view virtual {... */\n    tag_137:\n        /* \"@openzeppelin/contracts/access/Ownable.sol\":1866:1878  _msgSender() */\n      tag_237\n        /* \"@openzeppelin/contracts/access/Ownable.sol\":1866:1876  _msgSender */\n      tag_238\n        /* \"@openzeppelin/contracts/access/Ownable.sol\":1866:1878  _msgSender() */\n      jump\t// in\n    tag_237:\n        /* \"@openzeppelin/contracts/access/Ownable.sol\":1855:1878  owner() != _msgSender() */\n      0xffffffffffffffffffffffffffffffffffffffff\n      and\n        /* \"@openzeppelin/contracts/access/Ownable.sol\":1855:1862  owner() */\n      tag_239\n        /* \"@openzeppelin/contracts/access/Ownable.sol\":1855:1860  owner */\n      tag_88\n        /* \"@openzeppelin/contracts/access/Ownable.sol\":1855:1862  owner() */\n      jump\t// in\n    tag_239:\n        /* \"@openzeppelin/contracts/access/Ownable.sol\":1855:1878  owner() != _msgSender() */\n      0xffffffffffffffffffffffffffffffffffffffff\n      and\n      eq\n        /* \"@openzeppelin/contracts/access/Ownable.sol\":1851:1952  if (owner() != _msgSender()) {... */\n      tag_240\n      jumpi\n        /* \"@openzeppelin/contracts/access/Ownable.sol\":1928:1940  _msgSender() */\n      tag_241\n        /* \"@openzeppelin/contracts/access/Ownable.sol\":1928:1938  _msgSender */\n      tag_238\n        /* \"@openzeppelin/contracts/access/Ownable.sol\":1928:1940  _msgSender() */\n      jump\t// in\n    tag_241:\n        /* \"@openzeppelin/contracts/access/Ownable.sol\":1901:1941  OwnableUnauthorizedAccount(_msgSender()) */\n      mload(0x40)\n      0x118cdaa700000000000000000000000000000000000000000000000000000000\n      dup2\n      mstore\n      0x04\n      add\n      tag_242\n      swap2\n      swap1\n      tag_29\n      jump\t// in\n    tag_242:\n      mload(0x40)\n      dup1\n      swap2\n      sub\n      swap1\n      revert\n        /* \"@openzeppelin/contracts/access/Ownable.sol\":1851:1952  if (owner() != _msgSender()) {... */\n    tag_240:\n        /* \"@openzeppelin/contracts/access/Ownable.sol\":1796:1958  function _checkOwner() internal view virtual {... */\n      jump\t// out\n        /* \"@openzeppelin/contracts/utils/Pausable.sol\":2339:2454  function _pause() internal virtual whenNotPaused {... */\n    tag_142:\n        /* \"@openzeppelin/contracts/utils/Pausable.sol\":1350:1369  _requireNotPaused() */\n      tag_244\n        /* \"@openzeppelin/contracts/utils/Pausable.sol\":1350:1367  _requireNotPaused */\n      tag_127\n        /* \"@openzeppelin/contracts/utils/Pausable.sol\":1350:1369  _requireNotPaused() */\n      jump\t// in\n    tag_244:\n        /* \"@openzeppelin/contracts/utils/Pausable.sol\":2408:2412  true */\n      0x01\n        /* \"@openzeppelin/contracts/utils/Pausable.sol\":2398:2405  _paused */\n      dup1\n      0x14\n        /* \"@openzeppelin/contracts/utils/Pausable.sol\":2398:2412  _paused = true */\n      0x0100\n      exp\n      dup2\n      sload\n      dup2\n      0xff\n      mul\n      not\n      and\n      swap1\n      dup4\n      iszero\n      iszero\n      mul\n      or\n      swap1\n      sstore\n      pop\n        /* \"@openzeppelin/contracts/utils/Pausable.sol\":2427:2447  Paused(_msgSender()) */\n      0x62e78cea01bee320cd4e420270b5ea74000d11b0c9f74754ebdbfc544b05a258\n        /* \"@openzeppelin/contracts/utils/Pausable.sol\":2434:2446  _msgSender() */\n      tag_246\n        /* \"@openzeppelin/contracts/utils/Pausable.sol\":2434:2444  _msgSender */\n      tag_238\n        /* \"@openzeppelin/contracts/utils/Pausable.sol\":2434:2446  _msgSender() */\n      jump\t// in\n    tag_246:\n        /* \"@openzeppelin/contracts/utils/Pausable.sol\":2427:2447  Paused(_msgSender()) */\n      mload(0x40)\n      tag_247\n      swap2\n      swap1\n      tag_29\n      jump\t// in\n    tag_247:\n      mload(0x40)\n      dup1\n      swap2\n      sub\n      swap1\n      log1\n        /* \"@openzeppelin/contracts/utils/Pausable.sol\":2339:2454  function _pause() internal virtual whenNotPaused {... */\n      jump\t// out\n        /* \"@openzeppelin/contracts/utils/Pausable.sol\":2078:2204  function _requirePaused() internal view virtual {... */\n    tag_148:\n        /* \"@openzeppelin/contracts/utils/Pausable.sol\":2141:2149  paused() */\n      tag_249\n        /* \"@openzeppelin/contracts/utils/Pausable.sol\":2141:2147  paused */\n      tag_48\n        /* \"@openzeppelin/contracts/utils/Pausable.sol\":2141:2149  paused() */\n      jump\t// in\n    tag_249:\n        /* \"@openzeppelin/contracts/utils/Pausable.sol\":2136:2198  if (!paused()) {... */\n      tag_250\n      jumpi\n        /* \"@openzeppelin/contracts/utils/Pausable.sol\":2172:2187  ExpectedPause() */\n      mload(0x40)\n      0x8dfc202b00000000000000000000000000000000000000000000000000000000\n      dup2\n      mstore\n      0x04\n      add\n      mload(0x40)\n      dup1\n      swap2\n      sub\n      swap1\n      revert\n        /* \"@openzeppelin/contracts/utils/Pausable.sol\":2136:2198  if (!paused()) {... */\n    tag_250:\n        /* \"@openzeppelin/contracts/utils/Pausable.sol\":2078:2204  function _requirePaused() internal view virtual {... */\n      jump\t// out\n        /* \"@openzeppelin/contracts/utils/Pausable.sol\":2586:2703  function _unpause() internal virtual whenPaused {... */\n    tag_151:\n        /* \"@openzeppelin/contracts/utils/Pausable.sol\":1597:1613  _requirePaused() */\n      tag_252\n        /* \"@openzeppelin/contracts/utils/Pausable.sol\":1597:1611  _requirePaused */\n      tag_148\n        /* \"@openzeppelin/contracts/utils/Pausable.sol\":1597:1613  _requirePaused() */\n      jump\t// in\n    tag_252:\n        /* \"@openzeppelin/contracts/utils/Pausable.sol\":2654:2659  false */\n      0x00\n        /* \"@openzeppelin/contracts/utils/Pausable.sol\":2644:2651  _paused */\n      0x01\n      0x14\n        /* \"@openzeppelin/contracts/utils/Pausable.sol\":2644:2659  _paused = false */\n      0x0100\n      exp\n      dup2\n      sload\n      dup2\n      0xff\n      mul\n      not\n      and\n      swap1\n      dup4\n      iszero\n      iszero\n      mul\n      or\n      swap1\n      sstore\n      pop\n        /* \"@openzeppelin/contracts/utils/Pausable.sol\":2674:2696  Unpaused(_msgSender()) */\n      0x5db9ee0a495bf2e6ff9c91a7834c1ba4fdd244a5e8aa4e537bd38aeae4b073aa\n        /* \"@openzeppelin/contracts/utils/Pausable.sol\":2683:2695  _msgSender() */\n      tag_254\n        /* \"@openzeppelin/contracts/utils/Pausable.sol\":2683:2693  _msgSender */\n      tag_238\n        /* \"@openzeppelin/contracts/utils/Pausable.sol\":2683:2695  _msgSender() */\n      jump\t// in\n    tag_254:\n        /* \"@openzeppelin/contracts/utils/Pausable.sol\":2674:2696  Unpaused(_msgSender()) */\n      mload(0x40)\n      tag_255\n      swap2\n      swap1\n      tag_29\n      jump\t// in\n    tag_255:\n      mload(0x40)\n      dup1\n      swap2\n      sub\n      swap1\n      log1\n        /* \"@openzeppelin/contracts/utils/Pausable.sol\":2586:2703  function _unpause() internal virtual whenPaused {... */\n      jump\t// out\n        /* \"@openzeppelin/contracts/token/ERC20/utils/SafeERC20.sol\":1618:1806  function safeTransferFrom(IERC20 token, address from, address to, uint256 value) internal {... */\n    tag_171:\n        /* \"@openzeppelin/contracts/token/ERC20/utils/SafeERC20.sol\":1718:1799  _callOptionalReturn(token, abi.encodeCall(token.transferFrom, (from, to, value))) */\n      tag_257\n        /* \"@openzeppelin/contracts/token/ERC20/utils/SafeERC20.sol\":1738:1743  token */\n      dup5\n        /* \"@openzeppelin/contracts/token/ERC20/utils/SafeERC20.sol\":1760:1765  token */\n      dup6\n        /* \"@openzeppelin/contracts/token/ERC20/utils/SafeERC20.sol\":1760:1778  token.transferFrom */\n      0xffffffffffffffffffffffffffffffffffffffff\n      and\n      0x23b872dd\n        /* \"@openzeppelin/contracts/token/ERC20/utils/SafeERC20.sol\":1781:1785  from */\n      dup7\n        /* \"@openzeppelin/contracts/token/ERC20/utils/SafeERC20.sol\":1787:1789  to */\n      dup7\n        /* \"@openzeppelin/contracts/token/ERC20/utils/SafeERC20.sol\":1791:1796  value */\n      dup7\n        /* \"@openzeppelin/contracts/token/ERC20/utils/SafeERC20.sol\":1745:1798  abi.encodeCall(token.transferFrom, (from, to, value)) */\n      add(0x24, mload(0x40))\n      tag_258\n      swap4\n      swap3\n      swap2\n      swap1\n      tag_259\n      jump\t// in\n    tag_258:\n      mload(0x40)\n      0x20\n      dup2\n      dup4\n      sub\n      sub\n      dup2\n      mstore\n      swap1\n      0x40\n      mstore\n      swap2\n      pop\n      0xe0\n      shl\n      0x20\n      dup3\n      add\n      dup1\n      mload\n      0xffffffffffffffffffffffffffffffffffffffffffffffffffffffff\n      dup4\n      dup2\n      dup4\n      and\n      or\n      dup4\n      mstore\n      pop\n      pop\n      pop\n      pop\n        /* \"@openzeppelin/contracts/token/ERC20/utils/SafeERC20.sol\":1718:1737  _callOptionalReturn */\n      tag_260\n        /* \"@openzeppelin/contracts/token/ERC20/utils/SafeERC20.sol\":1718:1799  _callOptionalReturn(token, abi.encodeCall(token.transferFrom, (from, to, value))) */\n      jump\t// in\n    tag_257:\n        /* \"@openzeppelin/contracts/token/ERC20/utils/SafeERC20.sol\":1618:1806  function safeTransferFrom(IERC20 token, address from, address to, uint256 value) internal {... */\n      pop\n      pop\n      pop\n      pop\n      jump\t// out\n        /* \"@openzeppelin/contracts/access/Ownable.sol\":2912:3099  function _transferOwnership(address newOwner) internal virtual {... */\n    tag_176:\n        /* \"@openzeppelin/contracts/access/Ownable.sol\":2985:3001  address oldOwner */\n      0x00\n        /* \"@openzeppelin/contracts/access/Ownable.sol\":3004:3010  _owner */\n      0x01\n      0x00\n      swap1\n      sload\n      swap1\n      0x0100\n      exp\n      swap1\n      div\n      0xffffffffffffffffffffffffffffffffffffffff\n      and\n        /* \"@openzeppelin/contracts/access/Ownable.sol\":2985:3010  address oldOwner = _owner */\n      swap1\n      pop\n        /* \"@openzeppelin/contracts/access/Ownable.sol\":3029:3037  newOwner */\n      dup2\n        /* \"@openzeppelin/contracts/access/Ownable.sol\":3020:3026  _owner */\n      0x01\n      0x00\n        /* \"@openzeppelin/contracts/access/Ownable.sol\":3020:3037  _owner = newOwner */\n      0x0100\n      exp\n      dup2\n      sload\n      dup2\n      0xffffffffffffffffffffffffffffffffffffffff\n      mul\n      not\n      and\n      swap1\n      dup4\n      0xffffffffffffffffffffffffffffffffffffffff\n      and\n      mul\n      or\n      swap1\n      sstore\n      pop\n        /* \"@openzeppelin/contracts/access/Ownable.sol\":3083:3091  newOwner */\n      dup2\n        /* \"@openzeppelin/contracts/access/Ownable.sol\":3052:3092  OwnershipTransferred(oldOwner, newOwner) */\n      0xffffffffffffffffffffffffffffffffffffffff\n      and\n        /* \"@openzeppelin/contracts/access/Ownable.sol\":3073:3081  oldOwner */\n      dup2\n        /* \"@openzeppelin/contracts/access/Ownable.sol\":3052:3092  OwnershipTransferred(oldOwner, newOwner) */\n      0xffffffffffffffffffffffffffffffffffffffff\n      and\n      0x8be0079c531659141344cd1fd0a4f28419497f9722a3daafe3b4186f6b6457e0\n      mload(0x40)\n      mload(0x40)\n      dup1\n      swap2\n      sub\n      swap1\n      log3\n        /* \"@openzeppelin/contracts/access/Ownable.sol\":2975:3099  {... */\n      pop\n        /* \"@openzeppelin/contracts/access/Ownable.sol\":2912:3099  function _transferOwnership(address newOwner) internal virtual {... */\n      pop\n      jump\t// out\n        /* \"contracts/KipuBank.sol\":9157:9651  function _retirarFondosETH(uint _monto) private nonReentrant verificarRetiroETH(_monto) {... */\n    tag_203:\n        /* \"@openzeppelin/contracts/security/ReentrancyGuard.sol\":2261:2282  _nonReentrantBefore() */\n      tag_263\n        /* \"@openzeppelin/contracts/security/ReentrancyGuard.sol\":2261:2280  _nonReentrantBefore */\n      tag_264\n        /* \"@openzeppelin/contracts/security/ReentrancyGuard.sol\":2261:2282  _nonReentrantBefore() */\n      jump\t// in\n    tag_263:\n        /* \"contracts/KipuBank.sol\":9237:9243  _monto */\n      dup1\n        /* \"contracts/KipuBank.sol\":8018:8032  uint montoUSDC */\n      0x00\n        /* \"contracts/KipuBank.sol\":8035:8061  convertirEthEnUSDC(_monto) */\n      tag_266\n        /* \"contracts/KipuBank.sol\":8054:8060  _monto */\n      dup3\n        /* \"contracts/KipuBank.sol\":8035:8053  convertirEthEnUSDC */\n      tag_118\n        /* \"contracts/KipuBank.sol\":8035:8061  convertirEthEnUSDC(_monto) */\n      jump\t// in\n    tag_266:\n        /* \"contracts/KipuBank.sol\":8018:8061  uint montoUSDC = convertirEthEnUSDC(_monto) */\n      swap1\n      pop\n        /* \"contracts/KipuBank.sol\":8087:8088  0 */\n      0x00\n        /* \"contracts/KipuBank.sol\":8074:8083  montoUSDC */\n      dup2\n        /* \"contracts/KipuBank.sol\":8074:8088  montoUSDC == 0 */\n      sub\n        /* \"contracts/KipuBank.sol\":8071:8127  if(montoUSDC == 0) revert KipuBank_MontoCero(msg.sender) */\n      tag_267\n      jumpi\n        /* \"contracts/KipuBank.sol\":8116:8126  msg.sender */\n      caller\n        /* \"contracts/KipuBank.sol\":8097:8127  KipuBank_MontoCero(msg.sender) */\n      mload(0x40)\n      0xb2f0923100000000000000000000000000000000000000000000000000000000\n      dup2\n      mstore\n      0x04\n      add\n      tag_268\n      swap2\n      swap1\n      tag_29\n      jump\t// in\n    tag_268:\n      mload(0x40)\n      dup1\n      swap2\n      sub\n      swap1\n      revert\n        /* \"contracts/KipuBank.sol\":8071:8127  if(montoUSDC == 0) revert KipuBank_MontoCero(msg.sender) */\n    tag_267:\n        /* \"contracts/KipuBank.sol\":8153:8161  i_umbral */\n      immutable(\"0xb295767e4372fab13e4b033e3e01af68982526b3673a0d3e0a82574a5cefaf62\")\n        /* \"contracts/KipuBank.sol\":8141:8150  montoUSDC */\n      dup2\n        /* \"contracts/KipuBank.sol\":8141:8161  montoUSDC > i_umbral */\n      gt\n        /* \"contracts/KipuBank.sol\":8137:8204  if (montoUSDC > i_umbral) revert KipuBank_UmbralExcedido(montoUSDC) */\n      iszero\n      tag_269\n      jumpi\n        /* \"contracts/KipuBank.sol\":8194:8203  montoUSDC */\n      dup1\n        /* \"contracts/KipuBank.sol\":8170:8204  KipuBank_UmbralExcedido(montoUSDC) */\n      mload(0x40)\n      0xc399356500000000000000000000000000000000000000000000000000000000\n      dup2\n      mstore\n      0x04\n      add\n      tag_270\n      swap2\n      swap1\n      tag_55\n      jump\t// in\n    tag_270:\n      mload(0x40)\n      dup1\n      swap2\n      sub\n      swap1\n      revert\n        /* \"contracts/KipuBank.sol\":8137:8204  if (montoUSDC > i_umbral) revert KipuBank_UmbralExcedido(montoUSDC) */\n    tag_269:\n        /* \"contracts/KipuBank.sol\":8227:8245  _cuentasMultiToken */\n      0x06\n        /* \"contracts/KipuBank.sol\":8227:8257  _cuentasMultiToken[address(0)] */\n      0x00\n        /* \"contracts/KipuBank.sol\":8254:8255  0 */\n      0x00\n        /* \"contracts/KipuBank.sol\":8227:8257  _cuentasMultiToken[address(0)] */\n      0xffffffffffffffffffffffffffffffffffffffff\n      and\n      0xffffffffffffffffffffffffffffffffffffffff\n      and\n      dup2\n      mstore\n      0x20\n      add\n      swap1\n      dup2\n      mstore\n      0x20\n      add\n      0x00\n      keccak256\n        /* \"contracts/KipuBank.sol\":8227:8269  _cuentasMultiToken[address(0)][msg.sender] */\n      0x00\n        /* \"contracts/KipuBank.sol\":8258:8268  msg.sender */\n      caller\n        /* \"contracts/KipuBank.sol\":8227:8269  _cuentasMultiToken[address(0)][msg.sender] */\n      0xffffffffffffffffffffffffffffffffffffffff\n      and\n      0xffffffffffffffffffffffffffffffffffffffff\n      and\n      dup2\n      mstore\n      0x20\n      add\n      swap1\n      dup2\n      mstore\n      0x20\n      add\n      0x00\n      keccak256\n      sload\n        /* \"contracts/KipuBank.sol\":8218:8224  _monto */\n      dup3\n        /* \"contracts/KipuBank.sol\":8218:8269  _monto > _cuentasMultiToken[address(0)][msg.sender] */\n      gt\n        /* \"contracts/KipuBank.sol\":8214:8327  if (_monto > _cuentasMultiToken[address(0)][msg.sender]) revert KipuBank_SaldoInsuficiente(msg.sender, montoUSDC) */\n      iszero\n      tag_271\n      jumpi\n        /* \"contracts/KipuBank.sol\":8305:8315  msg.sender */\n      caller\n        /* \"contracts/KipuBank.sol\":8317:8326  montoUSDC */\n      dup2\n        /* \"contracts/KipuBank.sol\":8278:8327  KipuBank_SaldoInsuficiente(msg.sender, montoUSDC) */\n      mload(0x40)\n      0x51a7314200000000000000000000000000000000000000000000000000000000\n      dup2\n      mstore\n      0x04\n      add\n      tag_272\n      swap3\n      swap2\n      swap1\n      tag_273\n      jump\t// in\n    tag_272:\n      mload(0x40)\n      dup1\n      swap2\n      sub\n      swap1\n      revert\n        /* \"contracts/KipuBank.sol\":8214:8327  if (_monto > _cuentasMultiToken[address(0)][msg.sender]) revert KipuBank_SaldoInsuficiente(msg.sender, montoUSDC) */\n    tag_271:\n        /* \"contracts/KipuBank.sol\":9255:9269  uint montoUSDC */\n      0x00\n        /* \"contracts/KipuBank.sol\":9272:9298  convertirEthEnUSDC(_monto) */\n      tag_275\n        /* \"contracts/KipuBank.sol\":9291:9297  _monto */\n      dup5\n        /* \"contracts/KipuBank.sol\":9272:9290  convertirEthEnUSDC */\n      tag_118\n        /* \"contracts/KipuBank.sol\":9272:9298  convertirEthEnUSDC(_monto) */\n      jump\t// in\n    tag_275:\n        /* \"contracts/KipuBank.sol\":9255:9298  uint montoUSDC = convertirEthEnUSDC(_monto) */\n      swap1\n      pop\n        /* \"contracts/KipuBank.sol\":9354:9360  _monto */\n      dup4\n        /* \"contracts/KipuBank.sol\":9308:9326  _cuentasMultiToken */\n      0x06\n        /* \"contracts/KipuBank.sol\":9308:9338  _cuentasMultiToken[address(0)] */\n      0x00\n        /* \"contracts/KipuBank.sol\":9335:9336  0 */\n      0x00\n        /* \"contracts/KipuBank.sol\":9308:9338  _cuentasMultiToken[address(0)] */\n      0xffffffffffffffffffffffffffffffffffffffff\n      and\n      0xffffffffffffffffffffffffffffffffffffffff\n      and\n      dup2\n      mstore\n      0x20\n      add\n      swap1\n      dup2\n      mstore\n      0x20\n      add\n      0x00\n      keccak256\n        /* \"contracts/KipuBank.sol\":9308:9350  _cuentasMultiToken[address(0)][msg.sender] */\n      0x00\n        /* \"contracts/KipuBank.sol\":9339:9349  msg.sender */\n      caller\n        /* \"contracts/KipuBank.sol\":9308:9350  _cuentasMultiToken[address(0)][msg.sender] */\n      0xffffffffffffffffffffffffffffffffffffffff\n      and\n      0xffffffffffffffffffffffffffffffffffffffff\n      and\n      dup2\n      mstore\n      0x20\n      add\n      swap1\n      dup2\n      mstore\n      0x20\n      add\n      0x00\n      keccak256\n      0x00\n        /* \"contracts/KipuBank.sol\":9308:9360  _cuentasMultiToken[address(0)][msg.sender] -= _monto */\n      dup3\n      dup3\n      sload\n      tag_276\n      swap2\n      swap1\n      tag_196\n      jump\t// in\n    tag_276:\n      swap3\n      pop\n      pop\n      dup2\n      swap1\n      sstore\n      pop\n        /* \"contracts/KipuBank.sol\":9370:9378  _retiros */\n      0x04\n      0x00\n        /* \"contracts/KipuBank.sol\":9370:9380  _retiros++ */\n      dup2\n      sload\n      dup1\n      swap3\n      swap2\n      swap1\n      tag_277\n      swap1\n      tag_132\n      jump\t// in\n    tag_277:\n      swap2\n      swap1\n      pop\n      sstore\n      pop\n        /* \"contracts/KipuBank.sol\":9408:9417  montoUSDC */\n      dup1\n        /* \"contracts/KipuBank.sol\":9390:9404  _totalContrato */\n      0x05\n      0x00\n        /* \"contracts/KipuBank.sol\":9390:9417  _totalContrato -= montoUSDC */\n      dup3\n      dup3\n      sload\n      tag_278\n      swap2\n      swap1\n      tag_196\n      jump\t// in\n    tag_278:\n      swap3\n      pop\n      pop\n      dup2\n      swap1\n      sstore\n      pop\n        /* \"contracts/KipuBank.sol\":9470:9480  msg.sender */\n      caller\n        /* \"contracts/KipuBank.sol\":9441:9492  KipuBank_ExtraccionRealizada(msg.sender, montoUSDC) */\n      0xffffffffffffffffffffffffffffffffffffffff\n      and\n      0x9cde449504e4972ffddec09813e0c252a1462d76bef1864b9e7520dadb7183e8\n        /* \"contracts/KipuBank.sol\":9482:9491  montoUSDC */\n      dup3\n        /* \"contracts/KipuBank.sol\":9441:9492  KipuBank_ExtraccionRealizada(msg.sender, montoUSDC) */\n      mload(0x40)\n      tag_279\n      swap2\n      swap1\n      tag_55\n      jump\t// in\n    tag_279:\n      mload(0x40)\n      dup1\n      swap2\n      sub\n      swap1\n      log2\n        /* \"contracts/KipuBank.sol\":9504:9516  bool success */\n      0x00\n        /* \"contracts/KipuBank.sol\":9530:9540  msg.sender */\n      caller\n        /* \"contracts/KipuBank.sol\":9522:9546  payable(msg.sender).call */\n      0xffffffffffffffffffffffffffffffffffffffff\n      and\n        /* \"contracts/KipuBank.sol\":9554:9560  _monto */\n      dup6\n        /* \"contracts/KipuBank.sol\":9522:9565  payable(msg.sender).call{value: _monto}(\"\") */\n      mload(0x40)\n      tag_280\n      swap1\n      tag_281\n      jump\t// in\n    tag_280:\n      0x00\n      mload(0x40)\n      dup1\n      dup4\n      sub\n      dup2\n      dup6\n      dup8\n      gas\n      call\n      swap3\n      pop\n      pop\n      pop\n      returndatasize\n      dup1\n      0x00\n      dup2\n      eq\n      tag_284\n      jumpi\n      mload(0x40)\n      swap2\n      pop\n      and(add(returndatasize, 0x3f), not(0x1f))\n      dup3\n      add\n      0x40\n      mstore\n      returndatasize\n      dup3\n      mstore\n      returndatasize\n      0x00\n      0x20\n      dup5\n      add\n      returndatacopy\n      jump(tag_283)\n    tag_284:\n      0x60\n      swap2\n      pop\n    tag_283:\n      pop\n        /* \"contracts/KipuBank.sol\":9503:9565  (bool success, ) = payable(msg.sender).call{value: _monto}(\"\") */\n      pop\n      swap1\n      pop\n        /* \"contracts/KipuBank.sol\":9580:9587  success */\n      dup1\n        /* \"contracts/KipuBank.sol\":9575:9644  if (!success) revert KipuBank_ExtraccionRechazada(msg.sender, _monto) */\n      tag_285\n      jumpi\n        /* \"contracts/KipuBank.sol\":9625:9635  msg.sender */\n      caller\n        /* \"contracts/KipuBank.sol\":9637:9643  _monto */\n      dup6\n        /* \"contracts/KipuBank.sol\":9596:9644  KipuBank_ExtraccionRechazada(msg.sender, _monto) */\n      mload(0x40)\n      0x6c5e1a1400000000000000000000000000000000000000000000000000000000\n      dup2\n      mstore\n      0x04\n      add\n      tag_286\n      swap3\n      swap2\n      swap1\n      tag_273\n      jump\t// in\n    tag_286:\n      mload(0x40)\n      dup1\n      swap2\n      sub\n      swap1\n      revert\n        /* \"contracts/KipuBank.sol\":9575:9644  if (!success) revert KipuBank_ExtraccionRechazada(msg.sender, _monto) */\n    tag_285:\n        /* \"contracts/KipuBank.sol\":9245:9651  {... */\n      pop\n      pop\n        /* \"contracts/KipuBank.sol\":8008:8345  {... */\n      pop\n        /* \"@openzeppelin/contracts/security/ReentrancyGuard.sol\":2292:2293  _ */\n      pop\n        /* \"@openzeppelin/contracts/security/ReentrancyGuard.sol\":2303:2323  _nonReentrantAfter() */\n      tag_287\n        /* \"@openzeppelin/contracts/security/ReentrancyGuard.sol\":2303:2321  _nonReentrantAfter */\n      tag_288\n        /* \"@openzeppelin/contracts/security/ReentrancyGuard.sol\":2303:2323  _nonReentrantAfter() */\n      jump\t// in\n    tag_287:\n        /* \"contracts/KipuBank.sol\":9157:9651  function _retirarFondosETH(uint _monto) private nonReentrant verificarRetiroETH(_monto) {... */\n      pop\n      jump\t// out\n        /* \"contracts/KipuBank.sol\":10056:10395  function _retirarFondosUSDC(uint _monto) private nonReentrant verificarRetiroUSDC(_monto) {... */\n    tag_215:\n        /* \"@openzeppelin/contracts/security/ReentrancyGuard.sol\":2261:2282  _nonReentrantBefore() */\n      tag_290\n        /* \"@openzeppelin/contracts/security/ReentrancyGuard.sol\":2261:2280  _nonReentrantBefore */\n      tag_264\n        /* \"@openzeppelin/contracts/security/ReentrancyGuard.sol\":2261:2282  _nonReentrantBefore() */\n      jump\t// in\n    tag_290:\n        /* \"contracts/KipuBank.sol\":10138:10144  _monto */\n      dup1\n        /* \"contracts/KipuBank.sol\":8588:8589  0 */\n      0x00\n        /* \"contracts/KipuBank.sol\":8578:8584  _monto */\n      dup2\n        /* \"contracts/KipuBank.sol\":8578:8589  _monto == 0 */\n      sub\n        /* \"contracts/KipuBank.sol\":8575:8628  if(_monto == 0) revert KipuBank_MontoCero(msg.sender) */\n      tag_292\n      jumpi\n        /* \"contracts/KipuBank.sol\":8617:8627  msg.sender */\n      caller\n        /* \"contracts/KipuBank.sol\":8598:8628  KipuBank_MontoCero(msg.sender) */\n      mload(0x40)\n      0xb2f0923100000000000000000000000000000000000000000000000000000000\n      dup2\n      mstore\n      0x04\n      add\n      tag_293\n      swap2\n      swap1\n      tag_29\n      jump\t// in\n    tag_293:\n      mload(0x40)\n      dup1\n      swap2\n      sub\n      swap1\n      revert\n        /* \"contracts/KipuBank.sol\":8575:8628  if(_monto == 0) revert KipuBank_MontoCero(msg.sender) */\n    tag_292:\n        /* \"contracts/KipuBank.sol\":8651:8659  i_umbral */\n      immutable(\"0xb295767e4372fab13e4b033e3e01af68982526b3673a0d3e0a82574a5cefaf62\")\n        /* \"contracts/KipuBank.sol\":8642:8648  _monto */\n      dup2\n        /* \"contracts/KipuBank.sol\":8642:8659  _monto > i_umbral */\n      gt\n        /* \"contracts/KipuBank.sol\":8638:8699  if (_monto > i_umbral) revert KipuBank_UmbralExcedido(_monto) */\n      iszero\n      tag_294\n      jumpi\n        /* \"contracts/KipuBank.sol\":8692:8698  _monto */\n      dup1\n        /* \"contracts/KipuBank.sol\":8668:8699  KipuBank_UmbralExcedido(_monto) */\n      mload(0x40)\n      0xc399356500000000000000000000000000000000000000000000000000000000\n      dup2\n      mstore\n      0x04\n      add\n      tag_295\n      swap2\n      swap1\n      tag_55\n      jump\t// in\n    tag_295:\n      mload(0x40)\n      dup1\n      swap2\n      sub\n      swap1\n      revert\n        /* \"contracts/KipuBank.sol\":8638:8699  if (_monto > i_umbral) revert KipuBank_UmbralExcedido(_monto) */\n    tag_294:\n        /* \"contracts/KipuBank.sol\":8722:8740  _cuentasMultiToken */\n      0x06\n        /* \"contracts/KipuBank.sol\":8722:8757  _cuentasMultiToken[address(i_usdc)] */\n      0x00\n        /* \"contracts/KipuBank.sol\":8749:8755  i_usdc */\n      immutable(\"0xfa230a08db286d2dcf7a434e55689b1255ce6dfbe94e606859a02f38464dfdbc\")\n        /* \"contracts/KipuBank.sol\":8722:8757  _cuentasMultiToken[address(i_usdc)] */\n      0xffffffffffffffffffffffffffffffffffffffff\n      and\n      0xffffffffffffffffffffffffffffffffffffffff\n      and\n      dup2\n      mstore\n      0x20\n      add\n      swap1\n      dup2\n      mstore\n      0x20\n      add\n      0x00\n      keccak256\n        /* \"contracts/KipuBank.sol\":8722:8769  _cuentasMultiToken[address(i_usdc)][msg.sender] */\n      0x00\n        /* \"contracts/KipuBank.sol\":8758:8768  msg.sender */\n      caller\n        /* \"contracts/KipuBank.sol\":8722:8769  _cuentasMultiToken[address(i_usdc)][msg.sender] */\n      0xffffffffffffffffffffffffffffffffffffffff\n      and\n      0xffffffffffffffffffffffffffffffffffffffff\n      and\n      dup2\n      mstore\n      0x20\n      add\n      swap1\n      dup2\n      mstore\n      0x20\n      add\n      0x00\n      keccak256\n      sload\n        /* \"contracts/KipuBank.sol\":8713:8719  _monto */\n      dup2\n        /* \"contracts/KipuBank.sol\":8713:8769  _monto > _cuentasMultiToken[address(i_usdc)][msg.sender] */\n      gt\n        /* \"contracts/KipuBank.sol\":8709:8824  if (_monto > _cuentasMultiToken[address(i_usdc)][msg.sender]) revert KipuBank_SaldoInsuficiente(msg.sender, _monto) */\n      iszero\n      tag_296\n      jumpi\n        /* \"contracts/KipuBank.sol\":8805:8815  msg.sender */\n      caller\n        /* \"contracts/KipuBank.sol\":8817:8823  _monto */\n      dup2\n        /* \"contracts/KipuBank.sol\":8778:8824  KipuBank_SaldoInsuficiente(msg.sender, _monto) */\n      mload(0x40)\n      0x51a7314200000000000000000000000000000000000000000000000000000000\n      dup2\n      mstore\n      0x04\n      add\n      tag_297\n      swap3\n      swap2\n      swap1\n      tag_273\n      jump\t// in\n    tag_297:\n      mload(0x40)\n      dup1\n      swap2\n      sub\n      swap1\n      revert\n        /* \"contracts/KipuBank.sol\":8709:8824  if (_monto > _cuentasMultiToken[address(i_usdc)][msg.sender]) revert KipuBank_SaldoInsuficiente(msg.sender, _monto) */\n    tag_296:\n        /* \"contracts/KipuBank.sol\":10207:10213  _monto */\n      dup2\n        /* \"contracts/KipuBank.sol\":10156:10174  _cuentasMultiToken */\n      0x06\n        /* \"contracts/KipuBank.sol\":10156:10191  _cuentasMultiToken[address(i_usdc)] */\n      0x00\n        /* \"contracts/KipuBank.sol\":10183:10189  i_usdc */\n      immutable(\"0xfa230a08db286d2dcf7a434e55689b1255ce6dfbe94e606859a02f38464dfdbc\")\n        /* \"contracts/KipuBank.sol\":10156:10191  _cuentasMultiToken[address(i_usdc)] */\n      0xffffffffffffffffffffffffffffffffffffffff\n      and\n      0xffffffffffffffffffffffffffffffffffffffff\n      and\n      dup2\n      mstore\n      0x20\n      add\n      swap1\n      dup2\n      mstore\n      0x20\n      add\n      0x00\n      keccak256\n        /* \"contracts/KipuBank.sol\":10156:10203  _cuentasMultiToken[address(i_usdc)][msg.sender] */\n      0x00\n        /* \"contracts/KipuBank.sol\":10192:10202  msg.sender */\n      caller\n        /* \"contracts/KipuBank.sol\":10156:10203  _cuentasMultiToken[address(i_usdc)][msg.sender] */\n      0xffffffffffffffffffffffffffffffffffffffff\n      and\n      0xffffffffffffffffffffffffffffffffffffffff\n      and\n      dup2\n      mstore\n      0x20\n      add\n      swap1\n      dup2\n      mstore\n      0x20\n      add\n      0x00\n      keccak256\n      0x00\n        /* \"contracts/KipuBank.sol\":10156:10213  _cuentasMultiToken[address(i_usdc)][msg.sender] -= _monto */\n      dup3\n      dup3\n      sload\n      tag_299\n      swap2\n      swap1\n      tag_196\n      jump\t// in\n    tag_299:\n      swap3\n      pop\n      pop\n      dup2\n      swap1\n      sstore\n      pop\n        /* \"contracts/KipuBank.sol\":10223:10231  _retiros */\n      0x04\n      0x00\n        /* \"contracts/KipuBank.sol\":10223:10233  _retiros++ */\n      dup2\n      sload\n      dup1\n      swap3\n      swap2\n      swap1\n      tag_300\n      swap1\n      tag_132\n      jump\t// in\n    tag_300:\n      swap2\n      swap1\n      pop\n      sstore\n      pop\n        /* \"contracts/KipuBank.sol\":10261:10267  _monto */\n      dup2\n        /* \"contracts/KipuBank.sol\":10243:10257  _totalContrato */\n      0x05\n      0x00\n        /* \"contracts/KipuBank.sol\":10243:10267  _totalContrato -= _monto */\n      dup3\n      dup3\n      sload\n      tag_301\n      swap2\n      swap1\n      tag_196\n      jump\t// in\n    tag_301:\n      swap3\n      pop\n      pop\n      dup2\n      swap1\n      sstore\n      pop\n        /* \"contracts/KipuBank.sol\":10320:10330  msg.sender */\n      caller\n        /* \"contracts/KipuBank.sol\":10291:10339  KipuBank_ExtraccionRealizada(msg.sender, _monto) */\n      0xffffffffffffffffffffffffffffffffffffffff\n      and\n      0x9cde449504e4972ffddec09813e0c252a1462d76bef1864b9e7520dadb7183e8\n        /* \"contracts/KipuBank.sol\":10332:10338  _monto */\n      dup4\n        /* \"contracts/KipuBank.sol\":10291:10339  KipuBank_ExtraccionRealizada(msg.sender, _monto) */\n      mload(0x40)\n      tag_302\n      swap2\n      swap1\n      tag_55\n      jump\t// in\n    tag_302:\n      mload(0x40)\n      dup1\n      swap2\n      sub\n      swap1\n      log2\n        /* \"contracts/KipuBank.sol\":10349:10388  i_usdc.safeTransfer(msg.sender, _monto) */\n      tag_303\n        /* \"contracts/KipuBank.sol\":10369:10379  msg.sender */\n      caller\n        /* \"contracts/KipuBank.sol\":10381:10387  _monto */\n      dup4\n        /* \"contracts/KipuBank.sol\":10349:10355  i_usdc */\n      immutable(\"0xfa230a08db286d2dcf7a434e55689b1255ce6dfbe94e606859a02f38464dfdbc\")\n        /* \"contracts/KipuBank.sol\":10349:10368  i_usdc.safeTransfer */\n      0xffffffffffffffffffffffffffffffffffffffff\n      and\n      tag_304\n      swap1\n        /* \"contracts/KipuBank.sol\":10349:10388  i_usdc.safeTransfer(msg.sender, _monto) */\n      swap3\n      swap2\n      swap1\n      0xffffffff\n      and\n      jump\t// in\n    tag_303:\n        /* \"@openzeppelin/contracts/security/ReentrancyGuard.sol\":2292:2293  _ */\n      pop\n        /* \"@openzeppelin/contracts/security/ReentrancyGuard.sol\":2303:2323  _nonReentrantAfter() */\n      tag_305\n        /* \"@openzeppelin/contracts/security/ReentrancyGuard.sol\":2303:2321  _nonReentrantAfter */\n      tag_288\n        /* \"@openzeppelin/contracts/security/ReentrancyGuard.sol\":2303:2323  _nonReentrantAfter() */\n      jump\t// in\n    tag_305:\n        /* \"contracts/KipuBank.sol\":10056:10395  function _retirarFondosUSDC(uint _monto) private nonReentrant verificarRetiroUSDC(_monto) {... */\n      pop\n      jump\t// out\n        /* \"contracts/KipuBank.sol\":6692:7078  function chainLinkFeeds() internal view returns(uint precioUSD_) {... */\n    tag_228:\n        /* \"contracts/KipuBank.sol\":6740:6755  uint precioUSD_ */\n      0x00\n        /* \"contracts/KipuBank.sol\":6770:6788  int256 ethUSDPrice */\n      0x00\n        /* \"contracts/KipuBank.sol\":6791:6807  uint256 updateAt */\n      0x00\n        /* \"contracts/KipuBank.sol\":6812:6818  s_feed */\n      0x02\n      0x00\n      swap1\n      sload\n      swap1\n      0x0100\n      exp\n      swap1\n      div\n      0xffffffffffffffffffffffffffffffffffffffff\n      and\n        /* \"contracts/KipuBank.sol\":6812:6834  s_feed.latestRoundData */\n      0xffffffffffffffffffffffffffffffffffffffff\n      and\n      0xfeaf968c\n        /* \"contracts/KipuBank.sol\":6812:6836  s_feed.latestRoundData() */\n      mload(0x40)\n      dup2\n      0xffffffff\n      and\n      0xe0\n      shl\n      dup2\n      mstore\n      0x04\n      add\n      0xa0\n      mload(0x40)\n      dup1\n      dup4\n      sub\n      dup2\n      dup7\n      gas\n      staticcall\n      iszero\n      dup1\n      iszero\n      tag_308\n      jumpi\n      returndatacopy(0x00, 0x00, returndatasize)\n      revert(0x00, returndatasize)\n    tag_308:\n      pop\n      pop\n      pop\n      pop\n      mload(0x40)\n      returndatasize\n      not(0x1f)\n      0x1f\n      dup3\n      add\n      and\n      dup3\n      add\n      dup1\n      0x40\n      mstore\n      pop\n      dup2\n      add\n      swap1\n      tag_309\n      swap2\n      swap1\n      tag_186\n      jump\t// in\n    tag_309:\n        /* \"contracts/KipuBank.sol\":6767:6836  (, int256 ethUSDPrice,, uint256 updateAt,) = s_feed.latestRoundData() */\n      pop\n      swap4\n      pop\n      pop\n      swap3\n      pop\n      pop\n        /* \"contracts/KipuBank.sol\":6865:6866  0 */\n      0x00\n        /* \"contracts/KipuBank.sol\":6850:6861  ethUSDPrice */\n      dup3\n        /* \"contracts/KipuBank.sol\":6850:6866  ethUSDPrice <= 0 */\n      sgt\n        /* \"contracts/KipuBank.sol\":6846:6922  if( ethUSDPrice <= 0) revert KipuBank_OraculoComprometido(uint(ethUSDPrice)) */\n      tag_310\n      jumpi\n        /* \"contracts/KipuBank.sol\":6909:6920  ethUSDPrice */\n      dup2\n        /* \"contracts/KipuBank.sol\":6875:6922  KipuBank_OraculoComprometido(uint(ethUSDPrice)) */\n      mload(0x40)\n      0x3654402900000000000000000000000000000000000000000000000000000000\n      dup2\n      mstore\n      0x04\n      add\n      tag_311\n      swap2\n      swap1\n      tag_55\n      jump\t// in\n    tag_311:\n      mload(0x40)\n      dup1\n      swap2\n      sub\n      swap1\n      revert\n        /* \"contracts/KipuBank.sol\":6846:6922  if( ethUSDPrice <= 0) revert KipuBank_OraculoComprometido(uint(ethUSDPrice)) */\n    tag_310:\n        /* \"contracts/KipuBank.sol\":1347:1351  3600 */\n      0x0e10\n        /* \"contracts/KipuBank.sol\":6935:6973  block.timestamp - updateAt > HEARTBEAT */\n      0xffff\n      and\n        /* \"contracts/KipuBank.sol\":6953:6961  updateAt */\n      dup2\n        /* \"contracts/KipuBank.sol\":6935:6950  block.timestamp */\n      timestamp\n        /* \"contracts/KipuBank.sol\":6935:6961  block.timestamp - updateAt */\n      tag_312\n      swap2\n      swap1\n      tag_196\n      jump\t// in\n    tag_312:\n        /* \"contracts/KipuBank.sol\":6935:6973  block.timestamp - updateAt > HEARTBEAT */\n      gt\n        /* \"contracts/KipuBank.sol\":6932:7030  if(block.timestamp - updateAt > HEARTBEAT) revert KipuBank_PrecioDesactualizado(uint(ethUSDPrice)) */\n      iszero\n      tag_313\n      jumpi\n        /* \"contracts/KipuBank.sol\":7017:7028  ethUSDPrice */\n      dup2\n        /* \"contracts/KipuBank.sol\":6982:7030  KipuBank_PrecioDesactualizado(uint(ethUSDPrice)) */\n      mload(0x40)\n      0x2609a26500000000000000000000000000000000000000000000000000000000\n      dup2\n      mstore\n      0x04\n      add\n      tag_314\n      swap2\n      swap1\n      tag_55\n      jump\t// in\n    tag_314:\n      mload(0x40)\n      dup1\n      swap2\n      sub\n      swap1\n      revert\n        /* \"contracts/KipuBank.sol\":6932:7030  if(block.timestamp - updateAt > HEARTBEAT) revert KipuBank_PrecioDesactualizado(uint(ethUSDPrice)) */\n    tag_313:\n        /* \"contracts/KipuBank.sol\":7059:7070  ethUSDPrice */\n      dup2\n        /* \"contracts/KipuBank.sol\":7041:7071  precioUSD_ = uint(ethUSDPrice) */\n      swap3\n      pop\n        /* \"contracts/KipuBank.sol\":6757:7078  {... */\n      pop\n      pop\n        /* \"contracts/KipuBank.sol\":6692:7078  function chainLinkFeeds() internal view returns(uint precioUSD_) {... */\n      swap1\n      jump\t// out\n        /* \"@openzeppelin/contracts/utils/Context.sol\":656:752  function _msgSender() internal view virtual returns (address) {... */\n    tag_238:\n        /* \"@openzeppelin/contracts/utils/Context.sol\":709:716  address */\n      0x00\n        /* \"@openzeppelin/contracts/utils/Context.sol\":735:745  msg.sender */\n      caller\n        /* \"@openzeppelin/contracts/utils/Context.sol\":728:745  return msg.sender */\n      swap1\n      pop\n        /* \"@openzeppelin/contracts/utils/Context.sol\":656:752  function _msgSender() internal view virtual returns (address) {... */\n      swap1\n      jump\t// out\n        /* \"@openzeppelin/contracts/token/ERC20/utils/SafeERC20.sol\":8370:9090  function _callOptionalReturn(IERC20 token, bytes memory data) private {... */\n    tag_260:\n        /* \"@openzeppelin/contracts/token/ERC20/utils/SafeERC20.sol\":8450:8468  uint256 returnSize */\n      0x00\n        /* \"@openzeppelin/contracts/token/ERC20/utils/SafeERC20.sol\":8478:8497  uint256 returnValue */\n      0x00\n        /* \"@openzeppelin/contracts/token/ERC20/utils/SafeERC20.sol\":8616:8620  0x20 */\n      0x20\n        /* \"@openzeppelin/contracts/token/ERC20/utils/SafeERC20.sol\":8613:8614  0 */\n      0x00\n        /* \"@openzeppelin/contracts/token/ERC20/utils/SafeERC20.sol\":8606:8610  data */\n      dup5\n        /* \"@openzeppelin/contracts/token/ERC20/utils/SafeERC20.sol\":8600:8611  mload(data) */\n      mload\n        /* \"@openzeppelin/contracts/token/ERC20/utils/SafeERC20.sol\":8593:8597  0x20 */\n      0x20\n        /* \"@openzeppelin/contracts/token/ERC20/utils/SafeERC20.sol\":8587:8591  data */\n      dup7\n        /* \"@openzeppelin/contracts/token/ERC20/utils/SafeERC20.sol\":8583:8598  add(data, 0x20) */\n      add\n        /* \"@openzeppelin/contracts/token/ERC20/utils/SafeERC20.sol\":8580:8581  0 */\n      0x00\n        /* \"@openzeppelin/contracts/token/ERC20/utils/SafeERC20.sol\":8573:8578  token */\n      dup9\n        /* \"@openzeppelin/contracts/token/ERC20/utils/SafeERC20.sol\":8566:8571  gas() */\n      gas\n        /* \"@openzeppelin/contracts/token/ERC20/utils/SafeERC20.sol\":8561:8621  call(gas(), token, 0, add(data, 0x20), mload(data), 0, 0x20) */\n      call\n        /* \"@openzeppelin/contracts/token/ERC20/utils/SafeERC20.sol\":8673:8680  success */\n      dup1\n        /* \"@openzeppelin/contracts/token/ERC20/utils/SafeERC20.sol\":8663:8839  if iszero(success) {... */\n      tag_317\n      jumpi\n        /* \"@openzeppelin/contracts/token/ERC20/utils/SafeERC20.sol\":8717:8721  0x40 */\n      0x40\n        /* \"@openzeppelin/contracts/token/ERC20/utils/SafeERC20.sol\":8711:8722  mload(0x40) */\n      mload\n        /* \"@openzeppelin/contracts/token/ERC20/utils/SafeERC20.sol\":8762:8778  returndatasize() */\n      returndatasize\n        /* \"@openzeppelin/contracts/token/ERC20/utils/SafeERC20.sol\":8759:8760  0 */\n      0x00\n        /* \"@openzeppelin/contracts/token/ERC20/utils/SafeERC20.sol\":8754:8757  ptr */\n      dup3\n        /* \"@openzeppelin/contracts/token/ERC20/utils/SafeERC20.sol\":8739:8779  returndatacopy(ptr, 0, returndatasize()) */\n      returndatacopy\n        /* \"@openzeppelin/contracts/token/ERC20/utils/SafeERC20.sol\":8808:8824  returndatasize() */\n      returndatasize\n        /* \"@openzeppelin/contracts/token/ERC20/utils/SafeERC20.sol\":8803:8806  ptr */\n      dup2\n        /* \"@openzeppelin/contracts/token/ERC20/utils/SafeERC20.sol\":8796:8825  revert(ptr, returndatasize()) */\n      revert\n        /* \"@openzeppelin/contracts/token/ERC20/utils/SafeERC20.sol\":8663:8839  if iszero(success) {... */\n    tag_317:\n        /* \"@openzeppelin/contracts/token/ERC20/utils/SafeERC20.sol\":8866:8882  returndatasize() */\n      returndatasize\n        /* \"@openzeppelin/contracts/token/ERC20/utils/SafeERC20.sol\":8852:8882  returnSize := returndatasize() */\n      swap3\n      pop\n        /* \"@openzeppelin/contracts/token/ERC20/utils/SafeERC20.sol\":8916:8917  0 */\n      0x00\n        /* \"@openzeppelin/contracts/token/ERC20/utils/SafeERC20.sol\":8910:8918  mload(0) */\n      mload\n        /* \"@openzeppelin/contracts/token/ERC20/utils/SafeERC20.sol\":8895:8918  returnValue := mload(0) */\n      swap2\n      pop\n        /* \"@openzeppelin/contracts/token/ERC20/utils/SafeERC20.sol\":8532:8928  {... */\n      pop\n        /* \"@openzeppelin/contracts/token/ERC20/utils/SafeERC20.sol\":8956:8957  0 */\n      0x00\n        /* \"@openzeppelin/contracts/token/ERC20/utils/SafeERC20.sol\":8942:8952  returnSize */\n      dup3\n        /* \"@openzeppelin/contracts/token/ERC20/utils/SafeERC20.sol\":8942:8957  returnSize == 0 */\n      eq\n        /* \"@openzeppelin/contracts/token/ERC20/utils/SafeERC20.sol\":8942:9010  returnSize == 0 ? address(token).code.length == 0 : returnValue != 1 */\n      tag_318\n      jumpi\n        /* \"@openzeppelin/contracts/token/ERC20/utils/SafeERC20.sol\":9009:9010  1 */\n      0x01\n        /* \"@openzeppelin/contracts/token/ERC20/utils/SafeERC20.sol\":8994:9005  returnValue */\n      dup2\n        /* \"@openzeppelin/contracts/token/ERC20/utils/SafeERC20.sol\":8994:9010  returnValue != 1 */\n      eq\n      iszero\n        /* \"@openzeppelin/contracts/token/ERC20/utils/SafeERC20.sol\":8942:9010  returnSize == 0 ? address(token).code.length == 0 : returnValue != 1 */\n      jump(tag_319)\n    tag_318:\n        /* \"@openzeppelin/contracts/token/ERC20/utils/SafeERC20.sol\":8990:8991  0 */\n      0x00\n        /* \"@openzeppelin/contracts/token/ERC20/utils/SafeERC20.sol\":8968:8973  token */\n      dup5\n        /* \"@openzeppelin/contracts/token/ERC20/utils/SafeERC20.sol\":8960:8986  address(token).code.length */\n      0xffffffffffffffffffffffffffffffffffffffff\n      and\n      extcodesize\n        /* \"@openzeppelin/contracts/token/ERC20/utils/SafeERC20.sol\":8960:8991  address(token).code.length == 0 */\n      eq\n        /* \"@openzeppelin/contracts/token/ERC20/utils/SafeERC20.sol\":8942:9010  returnSize == 0 ? address(token).code.length == 0 : returnValue != 1 */\n    tag_319:\n        /* \"@openzeppelin/contracts/token/ERC20/utils/SafeERC20.sol\":8938:9084  if (returnSize == 0 ? address(token).code.length == 0 : returnValue != 1) {... */\n      iszero\n      tag_320\n      jumpi\n        /* \"@openzeppelin/contracts/token/ERC20/utils/SafeERC20.sol\":9066:9071  token */\n      dup4\n        /* \"@openzeppelin/contracts/token/ERC20/utils/SafeERC20.sol\":9033:9073  SafeERC20FailedOperation(address(token)) */\n      mload(0x40)\n      0x5274afe700000000000000000000000000000000000000000000000000000000\n      dup2\n      mstore\n      0x04\n      add\n      tag_321\n      swap2\n      swap1\n      tag_29\n      jump\t// in\n    tag_321:\n      mload(0x40)\n      dup1\n      swap2\n      sub\n      swap1\n      revert\n        /* \"@openzeppelin/contracts/token/ERC20/utils/SafeERC20.sol\":8938:9084  if (returnSize == 0 ? address(token).code.length == 0 : returnValue != 1) {... */\n    tag_320:\n        /* \"@openzeppelin/contracts/token/ERC20/utils/SafeERC20.sol\":8440:9090  {... */\n      pop\n      pop\n        /* \"@openzeppelin/contracts/token/ERC20/utils/SafeERC20.sol\":8370:9090  function _callOptionalReturn(IERC20 token, bytes memory data) private {... */\n      pop\n      pop\n      jump\t// out\n        /* \"@openzeppelin/contracts/security/ReentrancyGuard.sol\":2336:2623  function _nonReentrantBefore() private {... */\n    tag_264:\n        /* \"@openzeppelin/contracts/security/ReentrancyGuard.sol\":1759:1760  2 */\n      0x02\n        /* \"@openzeppelin/contracts/security/ReentrancyGuard.sol\":2468:2475  _status */\n      sload(0x00)\n        /* \"@openzeppelin/contracts/security/ReentrancyGuard.sol\":2468:2487  _status != _ENTERED */\n      sub\n        /* \"@openzeppelin/contracts/security/ReentrancyGuard.sol\":2460:2523  require(_status != _ENTERED, \"ReentrancyGuard: reentrant call\") */\n      tag_323\n      jumpi\n      mload(0x40)\n      0x08c379a000000000000000000000000000000000000000000000000000000000\n      dup2\n      mstore\n      0x04\n      add\n      tag_324\n      swap1\n      tag_325\n      jump\t// in\n    tag_324:\n      mload(0x40)\n      dup1\n      swap2\n      sub\n      swap1\n      revert\n    tag_323:\n        /* \"@openzeppelin/contracts/security/ReentrancyGuard.sol\":1759:1760  2 */\n      0x02\n        /* \"@openzeppelin/contracts/security/ReentrancyGuard.sol\":2598:2605  _status */\n      0x00\n        /* \"@openzeppelin/contracts/security/ReentrancyGuard.sol\":2598:2616  _status = _ENTERED */\n      dup2\n      swap1\n      sstore\n      pop\n        /* \"@openzeppelin/contracts/security/ReentrancyGuard.sol\":2336:2623  function _nonReentrantBefore() private {... */\n      jump\t// out\n        /* \"@openzeppelin/contracts/security/ReentrancyGuard.sol\":2629:2838  function _nonReentrantAfter() private {... */\n    tag_288:\n        /* \"@openzeppelin/contracts/security/ReentrancyGuard.sol\":1716:1717  1 */\n      0x01\n        /* \"@openzeppelin/contracts/security/ReentrancyGuard.sol\":2809:2816  _status */\n      0x00\n        /* \"@openzeppelin/contracts/security/ReentrancyGuard.sol\":2809:2831  _status = _NOT_ENTERED */\n      dup2\n      swap1\n      sstore\n      pop\n        /* \"@openzeppelin/contracts/security/ReentrancyGuard.sol\":2629:2838  function _nonReentrantAfter() private {... */\n      jump\t// out\n        /* \"@openzeppelin/contracts/token/ERC20/utils/SafeERC20.sol\":1219:1379  function safeTransfer(IERC20 token, address to, uint256 value) internal {... */\n    tag_304:\n        /* \"@openzeppelin/contracts/token/ERC20/utils/SafeERC20.sol\":1301:1372  _callOptionalReturn(token, abi.encodeCall(token.transfer, (to, value))) */\n      tag_328\n        /* \"@openzeppelin/contracts/token/ERC20/utils/SafeERC20.sol\":1321:1326  token */\n      dup4\n        /* \"@openzeppelin/contracts/token/ERC20/utils/SafeERC20.sol\":1343:1348  token */\n      dup5\n        /* \"@openzeppelin/contracts/token/ERC20/utils/SafeERC20.sol\":1343:1357  token.transfer */\n      0xffffffffffffffffffffffffffffffffffffffff\n      and\n      0xa9059cbb\n        /* \"@openzeppelin/contracts/token/ERC20/utils/SafeERC20.sol\":1360:1362  to */\n      dup6\n        /* \"@openzeppelin/contracts/token/ERC20/utils/SafeERC20.sol\":1364:1369  value */\n      dup6\n        /* \"@openzeppelin/contracts/token/ERC20/utils/SafeERC20.sol\":1328:1371  abi.encodeCall(token.transfer, (to, value)) */\n      add(0x24, mload(0x40))\n      tag_329\n      swap3\n      swap2\n      swap1\n      tag_273\n      jump\t// in\n    tag_329:\n      mload(0x40)\n      0x20\n      dup2\n      dup4\n      sub\n      sub\n      dup2\n      mstore\n      swap1\n      0x40\n      mstore\n      swap2\n      pop\n      0xe0\n      shl\n      0x20\n      dup3\n      add\n      dup1\n      mload\n      0xffffffffffffffffffffffffffffffffffffffffffffffffffffffff\n      dup4\n      dup2\n      dup4\n      and\n      or\n      dup4\n      mstore\n      pop\n      pop\n      pop\n      pop\n        /* \"@openzeppelin/contracts/token/ERC20/utils/SafeERC20.sol\":1301:1320  _callOptionalReturn */\n      tag_260\n        /* \"@openzeppelin/contracts/token/ERC20/utils/SafeERC20.sol\":1301:1372  _callOptionalReturn(token, abi.encodeCall(token.transfer, (to, value))) */\n      jump\t// in\n    tag_328:\n        /* \"@openzeppelin/contracts/token/ERC20/utils/SafeERC20.sol\":1219:1379  function safeTransfer(IERC20 token, address to, uint256 value) internal {... */\n      pop\n      pop\n      pop\n      jump\t// out\n        /* \"#utility.yul\":7:133   */\n    tag_330:\n        /* \"#utility.yul\":44:51   */\n      0x00\n        /* \"#utility.yul\":84:126   */\n      0xffffffffffffffffffffffffffffffffffffffff\n        /* \"#utility.yul\":77:82   */\n      dup3\n        /* \"#utility.yul\":73:127   */\n      and\n        /* \"#utility.yul\":62:127   */\n      swap1\n      pop\n        /* \"#utility.yul\":7:133   */\n      swap2\n      swap1\n      pop\n      jump\t// out\n        /* \"#utility.yul\":139:235   */\n    tag_331:\n        /* \"#utility.yul\":176:183   */\n      0x00\n        /* \"#utility.yul\":205:229   */\n      tag_367\n        /* \"#utility.yul\":223:228   */\n      dup3\n        /* \"#utility.yul\":205:229   */\n      tag_330\n      jump\t// in\n    tag_367:\n        /* \"#utility.yul\":194:229   */\n      swap1\n      pop\n        /* \"#utility.yul\":139:235   */\n      swap2\n      swap1\n      pop\n      jump\t// out\n        /* \"#utility.yul\":241:359   */\n    tag_332:\n        /* \"#utility.yul\":328:352   */\n      tag_369\n        /* \"#utility.yul\":346:351   */\n      dup2\n        /* \"#utility.yul\":328:352   */\n      tag_331\n      jump\t// in\n    tag_369:\n        /* \"#utility.yul\":323:326   */\n      dup3\n        /* \"#utility.yul\":316:353   */\n      mstore\n        /* \"#utility.yul\":241:359   */\n      pop\n      pop\n      jump\t// out\n        /* \"#utility.yul\":365:587   */\n    tag_29:\n        /* \"#utility.yul\":458:462   */\n      0x00\n        /* \"#utility.yul\":496:498   */\n      0x20\n        /* \"#utility.yul\":485:494   */\n      dup3\n        /* \"#utility.yul\":481:499   */\n      add\n        /* \"#utility.yul\":473:499   */\n      swap1\n      pop\n        /* \"#utility.yul\":509:580   */\n      tag_371\n        /* \"#utility.yul\":577:578   */\n      0x00\n        /* \"#utility.yul\":566:575   */\n      dup4\n        /* \"#utility.yul\":562:579   */\n      add\n        /* \"#utility.yul\":553:559   */\n      dup5\n        /* \"#utility.yul\":509:580   */\n      tag_332\n      jump\t// in\n    tag_371:\n        /* \"#utility.yul\":365:587   */\n      swap3\n      swap2\n      pop\n      pop\n      jump\t// out\n        /* \"#utility.yul\":593:683   */\n    tag_333:\n        /* \"#utility.yul\":627:634   */\n      0x00\n        /* \"#utility.yul\":670:675   */\n      dup2\n        /* \"#utility.yul\":663:676   */\n      iszero\n        /* \"#utility.yul\":656:677   */\n      iszero\n        /* \"#utility.yul\":645:677   */\n      swap1\n      pop\n        /* \"#utility.yul\":593:683   */\n      swap2\n      swap1\n      pop\n      jump\t// out\n        /* \"#utility.yul\":689:798   */\n    tag_334:\n        /* \"#utility.yul\":770:791   */\n      tag_374\n        /* \"#utility.yul\":785:790   */\n      dup2\n        /* \"#utility.yul\":770:791   */\n      tag_333\n      jump\t// in\n    tag_374:\n        /* \"#utility.yul\":765:768   */\n      dup3\n        /* \"#utility.yul\":758:792   */\n      mstore\n        /* \"#utility.yul\":689:798   */\n      pop\n      pop\n      jump\t// out\n        /* \"#utility.yul\":804:881   */\n    tag_335:\n        /* \"#utility.yul\":841:848   */\n      0x00\n        /* \"#utility.yul\":870:875   */\n      dup2\n        /* \"#utility.yul\":859:875   */\n      swap1\n      pop\n        /* \"#utility.yul\":804:881   */\n      swap2\n      swap1\n      pop\n      jump\t// out\n        /* \"#utility.yul\":887:1005   */\n    tag_336:\n        /* \"#utility.yul\":974:998   */\n      tag_377\n        /* \"#utility.yul\":992:997   */\n      dup2\n        /* \"#utility.yul\":974:998   */\n      tag_335\n      jump\t// in\n    tag_377:\n        /* \"#utility.yul\":969:972   */\n      dup3\n        /* \"#utility.yul\":962:999   */\n      mstore\n        /* \"#utility.yul\":887:1005   */\n      pop\n      pop\n      jump\t// out\n        /* \"#utility.yul\":1011:1663   */\n    tag_37:\n        /* \"#utility.yul\":1210:1214   */\n      0x00\n        /* \"#utility.yul\":1248:1251   */\n      0xa0\n        /* \"#utility.yul\":1237:1246   */\n      dup3\n        /* \"#utility.yul\":1233:1252   */\n      add\n        /* \"#utility.yul\":1225:1252   */\n      swap1\n      pop\n        /* \"#utility.yul\":1262:1327   */\n      tag_379\n        /* \"#utility.yul\":1324:1325   */\n      0x00\n        /* \"#utility.yul\":1313:1322   */\n      dup4\n        /* \"#utility.yul\":1309:1326   */\n      add\n        /* \"#utility.yul\":1300:1306   */\n      dup9\n        /* \"#utility.yul\":1262:1327   */\n      tag_334\n      jump\t// in\n    tag_379:\n        /* \"#utility.yul\":1337:1409   */\n      tag_380\n        /* \"#utility.yul\":1405:1407   */\n      0x20\n        /* \"#utility.yul\":1394:1403   */\n      dup4\n        /* \"#utility.yul\":1390:1408   */\n      add\n        /* \"#utility.yul\":1381:1387   */\n      dup8\n        /* \"#utility.yul\":1337:1409   */\n      tag_336\n      jump\t// in\n    tag_380:\n        /* \"#utility.yul\":1419:1491   */\n      tag_381\n        /* \"#utility.yul\":1487:1489   */\n      0x40\n        /* \"#utility.yul\":1476:1485   */\n      dup4\n        /* \"#utility.yul\":1472:1490   */\n      add\n        /* \"#utility.yul\":1463:1469   */\n      dup7\n        /* \"#utility.yul\":1419:1491   */\n      tag_336\n      jump\t// in\n    tag_381:\n        /* \"#utility.yul\":1501:1573   */\n      tag_382\n        /* \"#utility.yul\":1569:1571   */\n      0x60\n        /* \"#utility.yul\":1558:1567   */\n      dup4\n        /* \"#utility.yul\":1554:1572   */\n      add\n        /* \"#utility.yul\":1545:1551   */\n      dup6\n        /* \"#utility.yul\":1501:1573   */\n      tag_336\n      jump\t// in\n    tag_382:\n        /* \"#utility.yul\":1583:1656   */\n      tag_383\n        /* \"#utility.yul\":1651:1654   */\n      0x80\n        /* \"#utility.yul\":1640:1649   */\n      dup4\n        /* \"#utility.yul\":1636:1655   */\n      add\n        /* \"#utility.yul\":1627:1633   */\n      dup5\n        /* \"#utility.yul\":1583:1656   */\n      tag_332\n      jump\t// in\n    tag_383:\n        /* \"#utility.yul\":1011:1663   */\n      swap7\n      swap6\n      pop\n      pop\n      pop\n      pop\n      pop\n      pop\n      jump\t// out\n        /* \"#utility.yul\":1669:1879   */\n    tag_50:\n        /* \"#utility.yul\":1756:1760   */\n      0x00\n        /* \"#utility.yul\":1794:1796   */\n      0x20\n        /* \"#utility.yul\":1783:1792   */\n      dup3\n        /* \"#utility.yul\":1779:1797   */\n      add\n        /* \"#utility.yul\":1771:1797   */\n      swap1\n      pop\n        /* \"#utility.yul\":1807:1872   */\n      tag_385\n        /* \"#utility.yul\":1869:1870   */\n      0x00\n        /* \"#utility.yul\":1858:1867   */\n      dup4\n        /* \"#utility.yul\":1854:1871   */\n      add\n        /* \"#utility.yul\":1845:1851   */\n      dup5\n        /* \"#utility.yul\":1807:1872   */\n      tag_334\n      jump\t// in\n    tag_385:\n        /* \"#utility.yul\":1669:1879   */\n      swap3\n      swap2\n      pop\n      pop\n      jump\t// out\n        /* \"#utility.yul\":1885:2107   */\n    tag_55:\n        /* \"#utility.yul\":1978:1982   */\n      0x00\n        /* \"#utility.yul\":2016:2018   */\n      0x20\n        /* \"#utility.yul\":2005:2014   */\n      dup3\n        /* \"#utility.yul\":2001:2019   */\n      add\n        /* \"#utility.yul\":1993:2019   */\n      swap1\n      pop\n        /* \"#utility.yul\":2029:2100   */\n      tag_387\n        /* \"#utility.yul\":2097:2098   */\n      0x00\n        /* \"#utility.yul\":2086:2095   */\n      dup4\n        /* \"#utility.yul\":2082:2099   */\n      add\n        /* \"#utility.yul\":2073:2079   */\n      dup5\n        /* \"#utility.yul\":2029:2100   */\n      tag_336\n      jump\t// in\n    tag_387:\n        /* \"#utility.yul\":1885:2107   */\n      swap3\n      swap2\n      pop\n      pop\n      jump\t// out\n        /* \"#utility.yul\":2194:2311   */\n    tag_338:\n        /* \"#utility.yul\":2303:2304   */\n      0x00\n        /* \"#utility.yul\":2300:2301   */\n      0x00\n        /* \"#utility.yul\":2293:2305   */\n      revert\n        /* \"#utility.yul\":2440:2562   */\n    tag_340:\n        /* \"#utility.yul\":2513:2537   */\n      tag_392\n        /* \"#utility.yul\":2531:2536   */\n      dup2\n        /* \"#utility.yul\":2513:2537   */\n      tag_335\n      jump\t// in\n    tag_392:\n        /* \"#utility.yul\":2506:2511   */\n      dup2\n        /* \"#utility.yul\":2503:2538   */\n      eq\n        /* \"#utility.yul\":2493:2556   */\n      tag_393\n      jumpi\n        /* \"#utility.yul\":2552:2553   */\n      0x00\n        /* \"#utility.yul\":2549:2550   */\n      0x00\n        /* \"#utility.yul\":2542:2554   */\n      revert\n        /* \"#utility.yul\":2493:2556   */\n    tag_393:\n        /* \"#utility.yul\":2440:2562   */\n      pop\n      jump\t// out\n        /* \"#utility.yul\":2568:2707   */\n    tag_341:\n        /* \"#utility.yul\":2614:2619   */\n      0x00\n        /* \"#utility.yul\":2652:2658   */\n      dup2\n        /* \"#utility.yul\":2639:2659   */\n      calldataload\n        /* \"#utility.yul\":2630:2659   */\n      swap1\n      pop\n        /* \"#utility.yul\":2668:2701   */\n      tag_395\n        /* \"#utility.yul\":2695:2700   */\n      dup2\n        /* \"#utility.yul\":2668:2701   */\n      tag_340\n      jump\t// in\n    tag_395:\n        /* \"#utility.yul\":2568:2707   */\n      swap3\n      swap2\n      pop\n      pop\n      jump\t// out\n        /* \"#utility.yul\":2713:3042   */\n    tag_59:\n        /* \"#utility.yul\":2772:2778   */\n      0x00\n        /* \"#utility.yul\":2821:2823   */\n      0x20\n        /* \"#utility.yul\":2809:2818   */\n      dup3\n        /* \"#utility.yul\":2800:2807   */\n      dup5\n        /* \"#utility.yul\":2796:2819   */\n      sub\n        /* \"#utility.yul\":2792:2824   */\n      slt\n        /* \"#utility.yul\":2789:2908   */\n      iszero\n      tag_397\n      jumpi\n        /* \"#utility.yul\":2827:2906   */\n      tag_398\n      tag_338\n      jump\t// in\n    tag_398:\n        /* \"#utility.yul\":2789:2908   */\n    tag_397:\n        /* \"#utility.yul\":2947:2948   */\n      0x00\n        /* \"#utility.yul\":2972:3025   */\n      tag_399\n        /* \"#utility.yul\":3017:3024   */\n      dup5\n        /* \"#utility.yul\":3008:3014   */\n      dup3\n        /* \"#utility.yul\":2997:3006   */\n      dup6\n        /* \"#utility.yul\":2993:3015   */\n      add\n        /* \"#utility.yul\":2972:3025   */\n      tag_341\n      jump\t// in\n    tag_399:\n        /* \"#utility.yul\":2962:3025   */\n      swap2\n      pop\n        /* \"#utility.yul\":2918:3035   */\n      pop\n        /* \"#utility.yul\":2713:3042   */\n      swap3\n      swap2\n      pop\n      pop\n      jump\t// out\n        /* \"#utility.yul\":3048:3108   */\n    tag_342:\n        /* \"#utility.yul\":3076:3079   */\n      0x00\n        /* \"#utility.yul\":3097:3102   */\n      dup2\n        /* \"#utility.yul\":3090:3102   */\n      swap1\n      pop\n        /* \"#utility.yul\":3048:3108   */\n      swap2\n      swap1\n      pop\n      jump\t// out\n        /* \"#utility.yul\":3114:3256   */\n    tag_343:\n        /* \"#utility.yul\":3164:3173   */\n      0x00\n        /* \"#utility.yul\":3197:3250   */\n      tag_402\n        /* \"#utility.yul\":3215:3249   */\n      tag_403\n        /* \"#utility.yul\":3224:3248   */\n      tag_404\n        /* \"#utility.yul\":3242:3247   */\n      dup5\n        /* \"#utility.yul\":3224:3248   */\n      tag_330\n      jump\t// in\n    tag_404:\n        /* \"#utility.yul\":3215:3249   */\n      tag_342\n      jump\t// in\n    tag_403:\n        /* \"#utility.yul\":3197:3250   */\n      tag_330\n      jump\t// in\n    tag_402:\n        /* \"#utility.yul\":3184:3250   */\n      swap1\n      pop\n        /* \"#utility.yul\":3114:3256   */\n      swap2\n      swap1\n      pop\n      jump\t// out\n        /* \"#utility.yul\":3262:3388   */\n    tag_344:\n        /* \"#utility.yul\":3312:3321   */\n      0x00\n        /* \"#utility.yul\":3345:3382   */\n      tag_406\n        /* \"#utility.yul\":3376:3381   */\n      dup3\n        /* \"#utility.yul\":3345:3382   */\n      tag_343\n      jump\t// in\n    tag_406:\n        /* \"#utility.yul\":3332:3382   */\n      swap1\n      pop\n        /* \"#utility.yul\":3262:3388   */\n      swap2\n      swap1\n      pop\n      jump\t// out\n        /* \"#utility.yul\":3394:3548   */\n    tag_345:\n        /* \"#utility.yul\":3472:3481   */\n      0x00\n        /* \"#utility.yul\":3505:3542   */\n      tag_408\n        /* \"#utility.yul\":3536:3541   */\n      dup3\n        /* \"#utility.yul\":3505:3542   */\n      tag_344\n      jump\t// in\n    tag_408:\n        /* \"#utility.yul\":3492:3542   */\n      swap1\n      pop\n        /* \"#utility.yul\":3394:3548   */\n      swap2\n      swap1\n      pop\n      jump\t// out\n        /* \"#utility.yul\":3554:3741   */\n    tag_346:\n        /* \"#utility.yul\":3669:3734   */\n      tag_410\n        /* \"#utility.yul\":3728:3733   */\n      dup2\n        /* \"#utility.yul\":3669:3734   */\n      tag_345\n      jump\t// in\n    tag_410:\n        /* \"#utility.yul\":3664:3667   */\n      dup3\n        /* \"#utility.yul\":3657:3735   */\n      mstore\n        /* \"#utility.yul\":3554:3741   */\n      pop\n      pop\n      jump\t// out\n        /* \"#utility.yul\":3747:4025   */\n    tag_65:\n        /* \"#utility.yul\":3868:3872   */\n      0x00\n        /* \"#utility.yul\":3906:3908   */\n      0x20\n        /* \"#utility.yul\":3895:3904   */\n      dup3\n        /* \"#utility.yul\":3891:3909   */\n      add\n        /* \"#utility.yul\":3883:3909   */\n      swap1\n      pop\n        /* \"#utility.yul\":3919:4018   */\n      tag_412\n        /* \"#utility.yul\":4015:4016   */\n      0x00\n        /* \"#utility.yul\":4004:4013   */\n      dup4\n        /* \"#utility.yul\":4000:4017   */\n      add\n        /* \"#utility.yul\":3991:3997   */\n      dup5\n        /* \"#utility.yul\":3919:4018   */\n      tag_346\n      jump\t// in\n    tag_412:\n        /* \"#utility.yul\":3747:4025   */\n      swap3\n      swap2\n      pop\n      pop\n      jump\t// out\n        /* \"#utility.yul\":4031:4153   */\n    tag_347:\n        /* \"#utility.yul\":4104:4128   */\n      tag_414\n        /* \"#utility.yul\":4122:4127   */\n      dup2\n        /* \"#utility.yul\":4104:4128   */\n      tag_331\n      jump\t// in\n    tag_414:\n        /* \"#utility.yul\":4097:4102   */\n      dup2\n        /* \"#utility.yul\":4094:4129   */\n      eq\n        /* \"#utility.yul\":4084:4147   */\n      tag_415\n      jumpi\n        /* \"#utility.yul\":4143:4144   */\n      0x00\n        /* \"#utility.yul\":4140:4141   */\n      0x00\n        /* \"#utility.yul\":4133:4145   */\n      revert\n        /* \"#utility.yul\":4084:4147   */\n    tag_415:\n        /* \"#utility.yul\":4031:4153   */\n      pop\n      jump\t// out\n        /* \"#utility.yul\":4159:4298   */\n    tag_348:\n        /* \"#utility.yul\":4205:4210   */\n      0x00\n        /* \"#utility.yul\":4243:4249   */\n      dup2\n        /* \"#utility.yul\":4230:4250   */\n      calldataload\n        /* \"#utility.yul\":4221:4250   */\n      swap1\n      pop\n        /* \"#utility.yul\":4259:4292   */\n      tag_417\n        /* \"#utility.yul\":4286:4291   */\n      dup2\n        /* \"#utility.yul\":4259:4292   */\n      tag_347\n      jump\t// in\n    tag_417:\n        /* \"#utility.yul\":4159:4298   */\n      swap3\n      swap2\n      pop\n      pop\n      jump\t// out\n        /* \"#utility.yul\":4304:4633   */\n    tag_76:\n        /* \"#utility.yul\":4363:4369   */\n      0x00\n        /* \"#utility.yul\":4412:4414   */\n      0x20\n        /* \"#utility.yul\":4400:4409   */\n      dup3\n        /* \"#utility.yul\":4391:4398   */\n      dup5\n        /* \"#utility.yul\":4387:4410   */\n      sub\n        /* \"#utility.yul\":4383:4415   */\n      slt\n        /* \"#utility.yul\":4380:4499   */\n      iszero\n      tag_419\n      jumpi\n        /* \"#utility.yul\":4418:4497   */\n      tag_420\n      tag_338\n      jump\t// in\n    tag_420:\n        /* \"#utility.yul\":4380:4499   */\n    tag_419:\n        /* \"#utility.yul\":4538:4539   */\n      0x00\n        /* \"#utility.yul\":4563:4616   */\n      tag_421\n        /* \"#utility.yul\":4608:4615   */\n      dup5\n        /* \"#utility.yul\":4599:4605   */\n      dup3\n        /* \"#utility.yul\":4588:4597   */\n      dup6\n        /* \"#utility.yul\":4584:4606   */\n      add\n        /* \"#utility.yul\":4563:4616   */\n      tag_348\n      jump\t// in\n    tag_421:\n        /* \"#utility.yul\":4553:4616   */\n      swap2\n      pop\n        /* \"#utility.yul\":4509:4626   */\n      pop\n        /* \"#utility.yul\":4304:4633   */\n      swap3\n      swap2\n      pop\n      pop\n      jump\t// out\n        /* \"#utility.yul\":4639:4819   */\n    tag_349:\n        /* \"#utility.yul\":4687:4764   */\n      0x4e487b7100000000000000000000000000000000000000000000000000000000\n        /* \"#utility.yul\":4684:4685   */\n      0x00\n        /* \"#utility.yul\":4677:4765   */\n      mstore\n        /* \"#utility.yul\":4784:4788   */\n      0x11\n        /* \"#utility.yul\":4781:4782   */\n      0x04\n        /* \"#utility.yul\":4774:4789   */\n      mstore\n        /* \"#utility.yul\":4808:4812   */\n      0x24\n        /* \"#utility.yul\":4805:4806   */\n      0x00\n        /* \"#utility.yul\":4798:4813   */\n      revert\n        /* \"#utility.yul\":4825:5016   */\n    tag_122:\n        /* \"#utility.yul\":4865:4868   */\n      0x00\n        /* \"#utility.yul\":4884:4904   */\n      tag_424\n        /* \"#utility.yul\":4902:4903   */\n      dup3\n        /* \"#utility.yul\":4884:4904   */\n      tag_335\n      jump\t// in\n    tag_424:\n        /* \"#utility.yul\":4879:4904   */\n      swap2\n      pop\n        /* \"#utility.yul\":4918:4938   */\n      tag_425\n        /* \"#utility.yul\":4936:4937   */\n      dup4\n        /* \"#utility.yul\":4918:4938   */\n      tag_335\n      jump\t// in\n    tag_425:\n        /* \"#utility.yul\":4913:4938   */\n      swap3\n      pop\n        /* \"#utility.yul\":4961:4962   */\n      dup3\n        /* \"#utility.yul\":4958:4959   */\n      dup3\n        /* \"#utility.yul\":4954:4963   */\n      add\n        /* \"#utility.yul\":4947:4963   */\n      swap1\n      pop\n        /* \"#utility.yul\":4982:4985   */\n      dup1\n        /* \"#utility.yul\":4979:4980   */\n      dup3\n        /* \"#utility.yul\":4976:4986   */\n      gt\n        /* \"#utility.yul\":4973:5009   */\n      iszero\n      tag_426\n      jumpi\n        /* \"#utility.yul\":4989:5007   */\n      tag_427\n      tag_349\n      jump\t// in\n    tag_427:\n        /* \"#utility.yul\":4973:5009   */\n    tag_426:\n        /* \"#utility.yul\":4825:5016   */\n      swap3\n      swap2\n      pop\n      pop\n      jump\t// out\n        /* \"#utility.yul\":5022:5255   */\n    tag_132:\n        /* \"#utility.yul\":5061:5064   */\n      0x00\n        /* \"#utility.yul\":5084:5108   */\n      tag_429\n        /* \"#utility.yul\":5102:5107   */\n      dup3\n        /* \"#utility.yul\":5084:5108   */\n      tag_335\n      jump\t// in\n    tag_429:\n        /* \"#utility.yul\":5075:5108   */\n      swap2\n      pop\n        /* \"#utility.yul\":5130:5196   */\n      0xffffffffffffffffffffffffffffffffffffffffffffffffffffffffffffffff\n        /* \"#utility.yul\":5123:5128   */\n      dup3\n        /* \"#utility.yul\":5120:5197   */\n      sub\n        /* \"#utility.yul\":5117:5220   */\n      tag_430\n      jumpi\n        /* \"#utility.yul\":5200:5218   */\n      tag_431\n      tag_349\n      jump\t// in\n    tag_431:\n        /* \"#utility.yul\":5117:5220   */\n    tag_430:\n        /* \"#utility.yul\":5247:5248   */\n      0x01\n        /* \"#utility.yul\":5240:5245   */\n      dup3\n        /* \"#utility.yul\":5236:5249   */\n      add\n        /* \"#utility.yul\":5229:5249   */\n      swap1\n      pop\n        /* \"#utility.yul\":5022:5255   */\n      swap2\n      swap1\n      pop\n      jump\t// out\n        /* \"#utility.yul\":5261:5366   */\n    tag_350:\n        /* \"#utility.yul\":5297:5304   */\n      0x00\n        /* \"#utility.yul\":5337:5359   */\n      0xffffffffffffffffffff\n        /* \"#utility.yul\":5330:5335   */\n      dup3\n        /* \"#utility.yul\":5326:5360   */\n      and\n        /* \"#utility.yul\":5315:5360   */\n      swap1\n      pop\n        /* \"#utility.yul\":5261:5366   */\n      swap2\n      swap1\n      pop\n      jump\t// out\n        /* \"#utility.yul\":5372:5492   */\n    tag_351:\n        /* \"#utility.yul\":5444:5467   */\n      tag_434\n        /* \"#utility.yul\":5461:5466   */\n      dup2\n        /* \"#utility.yul\":5444:5467   */\n      tag_350\n      jump\t// in\n    tag_434:\n        /* \"#utility.yul\":5437:5442   */\n      dup2\n        /* \"#utility.yul\":5434:5468   */\n      eq\n        /* \"#utility.yul\":5424:5486   */\n      tag_435\n      jumpi\n        /* \"#utility.yul\":5482:5483   */\n      0x00\n        /* \"#utility.yul\":5479:5480   */\n      0x00\n        /* \"#utility.yul\":5472:5484   */\n      revert\n        /* \"#utility.yul\":5424:5486   */\n    tag_435:\n        /* \"#utility.yul\":5372:5492   */\n      pop\n      jump\t// out\n        /* \"#utility.yul\":5498:5639   */\n    tag_352:\n        /* \"#utility.yul\":5554:5559   */\n      0x00\n        /* \"#utility.yul\":5585:5591   */\n      dup2\n        /* \"#utility.yul\":5579:5592   */\n      mload\n        /* \"#utility.yul\":5570:5592   */\n      swap1\n      pop\n        /* \"#utility.yul\":5601:5633   */\n      tag_437\n        /* \"#utility.yul\":5627:5632   */\n      dup2\n        /* \"#utility.yul\":5601:5633   */\n      tag_351\n      jump\t// in\n    tag_437:\n        /* \"#utility.yul\":5498:5639   */\n      swap3\n      swap2\n      pop\n      pop\n      jump\t// out\n        /* \"#utility.yul\":5645:5721   */\n    tag_353:\n        /* \"#utility.yul\":5681:5688   */\n      0x00\n        /* \"#utility.yul\":5710:5715   */\n      dup2\n        /* \"#utility.yul\":5699:5715   */\n      swap1\n      pop\n        /* \"#utility.yul\":5645:5721   */\n      swap2\n      swap1\n      pop\n      jump\t// out\n        /* \"#utility.yul\":5727:5847   */\n    tag_354:\n        /* \"#utility.yul\":5799:5822   */\n      tag_440\n        /* \"#utility.yul\":5816:5821   */\n      dup2\n        /* \"#utility.yul\":5799:5822   */\n      tag_353\n      jump\t// in\n    tag_440:\n        /* \"#utility.yul\":5792:5797   */\n      dup2\n        /* \"#utility.yul\":5789:5823   */\n      eq\n        /* \"#utility.yul\":5779:5841   */\n      tag_441\n      jumpi\n        /* \"#utility.yul\":5837:5838   */\n      0x00\n        /* \"#utility.yul\":5834:5835   */\n      0x00\n        /* \"#utility.yul\":5827:5839   */\n      revert\n        /* \"#utility.yul\":5779:5841   */\n    tag_441:\n        /* \"#utility.yul\":5727:5847   */\n      pop\n      jump\t// out\n        /* \"#utility.yul\":5853:5994   */\n    tag_355:\n        /* \"#utility.yul\":5909:5914   */\n      0x00\n        /* \"#utility.yul\":5940:5946   */\n      dup2\n        /* \"#utility.yul\":5934:5947   */\n      mload\n        /* \"#utility.yul\":5925:5947   */\n      swap1\n      pop\n        /* \"#utility.yul\":5956:5988   */\n      tag_443\n        /* \"#utility.yul\":5982:5987   */\n      dup2\n        /* \"#utility.yul\":5956:5988   */\n      tag_354\n      jump\t// in\n    tag_443:\n        /* \"#utility.yul\":5853:5994   */\n      swap3\n      swap2\n      pop\n      pop\n      jump\t// out\n        /* \"#utility.yul\":6000:6143   */\n    tag_356:\n        /* \"#utility.yul\":6057:6062   */\n      0x00\n        /* \"#utility.yul\":6088:6094   */\n      dup2\n        /* \"#utility.yul\":6082:6095   */\n      mload\n        /* \"#utility.yul\":6073:6095   */\n      swap1\n      pop\n        /* \"#utility.yul\":6104:6137   */\n      tag_445\n        /* \"#utility.yul\":6131:6136   */\n      dup2\n        /* \"#utility.yul\":6104:6137   */\n      tag_340\n      jump\t// in\n    tag_445:\n        /* \"#utility.yul\":6000:6143   */\n      swap3\n      swap2\n      pop\n      pop\n      jump\t// out\n        /* \"#utility.yul\":6149:7120   */\n    tag_186:\n        /* \"#utility.yul\":6252:6258   */\n      0x00\n        /* \"#utility.yul\":6260:6266   */\n      0x00\n        /* \"#utility.yul\":6268:6274   */\n      0x00\n        /* \"#utility.yul\":6276:6282   */\n      0x00\n        /* \"#utility.yul\":6284:6290   */\n      0x00\n        /* \"#utility.yul\":6333:6336   */\n      0xa0\n        /* \"#utility.yul\":6321:6330   */\n      dup7\n        /* \"#utility.yul\":6312:6319   */\n      dup9\n        /* \"#utility.yul\":6308:6331   */\n      sub\n        /* \"#utility.yul\":6304:6337   */\n      slt\n        /* \"#utility.yul\":6301:6421   */\n      iszero\n      tag_447\n      jumpi\n        /* \"#utility.yul\":6340:6419   */\n      tag_448\n      tag_338\n      jump\t// in\n    tag_448:\n        /* \"#utility.yul\":6301:6421   */\n    tag_447:\n        /* \"#utility.yul\":6460:6461   */\n      0x00\n        /* \"#utility.yul\":6485:6548   */\n      tag_449\n        /* \"#utility.yul\":6540:6547   */\n      dup9\n        /* \"#utility.yul\":6531:6537   */\n      dup3\n        /* \"#utility.yul\":6520:6529   */\n      dup10\n        /* \"#utility.yul\":6516:6538   */\n      add\n        /* \"#utility.yul\":6485:6548   */\n      tag_352\n      jump\t// in\n    tag_449:\n        /* \"#utility.yul\":6475:6548   */\n      swap6\n      pop\n        /* \"#utility.yul\":6431:6558   */\n      pop\n        /* \"#utility.yul\":6597:6599   */\n      0x20\n        /* \"#utility.yul\":6623:6686   */\n      tag_450\n        /* \"#utility.yul\":6678:6685   */\n      dup9\n        /* \"#utility.yul\":6669:6675   */\n      dup3\n        /* \"#utility.yul\":6658:6667   */\n      dup10\n        /* \"#utility.yul\":6654:6676   */\n      add\n        /* \"#utility.yul\":6623:6686   */\n      tag_355\n      jump\t// in\n    tag_450:\n        /* \"#utility.yul\":6613:6686   */\n      swap5\n      pop\n        /* \"#utility.yul\":6568:6696   */\n      pop\n        /* \"#utility.yul\":6735:6737   */\n      0x40\n        /* \"#utility.yul\":6761:6825   */\n      tag_451\n        /* \"#utility.yul\":6817:6824   */\n      dup9\n        /* \"#utility.yul\":6808:6814   */\n      dup3\n        /* \"#utility.yul\":6797:6806   */\n      dup10\n        /* \"#utility.yul\":6793:6815   */\n      add\n        /* \"#utility.yul\":6761:6825   */\n      tag_356\n      jump\t// in\n    tag_451:\n        /* \"#utility.yul\":6751:6825   */\n      swap4\n      pop\n        /* \"#utility.yul\":6706:6835   */\n      pop\n        /* \"#utility.yul\":6874:6876   */\n      0x60\n        /* \"#utility.yul\":6900:6964   */\n      tag_452\n        /* \"#utility.yul\":6956:6963   */\n      dup9\n        /* \"#utility.yul\":6947:6953   */\n      dup3\n        /* \"#utility.yul\":6936:6945   */\n      dup10\n        /* \"#utility.yul\":6932:6954   */\n      add\n        /* \"#utility.yul\":6900:6964   */\n      tag_356\n      jump\t// in\n    tag_452:\n        /* \"#utility.yul\":6890:6964   */\n      swap3\n      pop\n        /* \"#utility.yul\":6845:6974   */\n      pop\n        /* \"#utility.yul\":7013:7016   */\n      0x80\n        /* \"#utility.yul\":7040:7103   */\n      tag_453\n        /* \"#utility.yul\":7095:7102   */\n      dup9\n        /* \"#utility.yul\":7086:7092   */\n      dup3\n        /* \"#utility.yul\":7075:7084   */\n      dup10\n        /* \"#utility.yul\":7071:7093   */\n      add\n        /* \"#utility.yul\":7040:7103   */\n      tag_352\n      jump\t// in\n    tag_453:\n        /* \"#utility.yul\":7030:7103   */\n      swap2\n      pop\n        /* \"#utility.yul\":6984:7113   */\n      pop\n        /* \"#utility.yul\":6149:7120   */\n      swap3\n      swap6\n      pop\n      swap3\n      swap6\n      swap1\n      swap4\n      pop\n      jump\t// out\n        /* \"#utility.yul\":7126:7320   */\n    tag_196:\n        /* \"#utility.yul\":7166:7170   */\n      0x00\n        /* \"#utility.yul\":7186:7206   */\n      tag_455\n        /* \"#utility.yul\":7204:7205   */\n      dup3\n        /* \"#utility.yul\":7186:7206   */\n      tag_335\n      jump\t// in\n    tag_455:\n        /* \"#utility.yul\":7181:7206   */\n      swap2\n      pop\n        /* \"#utility.yul\":7220:7240   */\n      tag_456\n        /* \"#utility.yul\":7238:7239   */\n      dup4\n        /* \"#utility.yul\":7220:7240   */\n      tag_335\n      jump\t// in\n    tag_456:\n        /* \"#utility.yul\":7215:7240   */\n      swap3\n      pop\n        /* \"#utility.yul\":7264:7265   */\n      dup3\n        /* \"#utility.yul\":7261:7262   */\n      dup3\n        /* \"#utility.yul\":7257:7266   */\n      sub\n        /* \"#utility.yul\":7249:7266   */\n      swap1\n      pop\n        /* \"#utility.yul\":7288:7289   */\n      dup2\n        /* \"#utility.yul\":7282:7286   */\n      dup2\n        /* \"#utility.yul\":7279:7290   */\n      gt\n        /* \"#utility.yul\":7276:7313   */\n      iszero\n      tag_457\n      jumpi\n        /* \"#utility.yul\":7293:7311   */\n      tag_458\n      tag_349\n      jump\t// in\n    tag_458:\n        /* \"#utility.yul\":7276:7313   */\n    tag_457:\n        /* \"#utility.yul\":7126:7320   */\n      swap3\n      swap2\n      pop\n      pop\n      jump\t// out\n        /* \"#utility.yul\":7326:7736   */\n    tag_230:\n        /* \"#utility.yul\":7366:7373   */\n      0x00\n        /* \"#utility.yul\":7389:7409   */\n      tag_460\n        /* \"#utility.yul\":7407:7408   */\n      dup3\n        /* \"#utility.yul\":7389:7409   */\n      tag_335\n      jump\t// in\n    tag_460:\n        /* \"#utility.yul\":7384:7409   */\n      swap2\n      pop\n        /* \"#utility.yul\":7423:7443   */\n      tag_461\n        /* \"#utility.yul\":7441:7442   */\n      dup4\n        /* \"#utility.yul\":7423:7443   */\n      tag_335\n      jump\t// in\n    tag_461:\n        /* \"#utility.yul\":7418:7443   */\n      swap3\n      pop\n        /* \"#utility.yul\":7478:7479   */\n      dup3\n        /* \"#utility.yul\":7475:7476   */\n      dup3\n        /* \"#utility.yul\":7471:7480   */\n      mul\n        /* \"#utility.yul\":7500:7530   */\n      tag_462\n        /* \"#utility.yul\":7518:7529   */\n      dup2\n        /* \"#utility.yul\":7500:7530   */\n      tag_335\n      jump\t// in\n    tag_462:\n        /* \"#utility.yul\":7489:7530   */\n      swap2\n      pop\n        /* \"#utility.yul\":7679:7680   */\n      dup3\n        /* \"#utility.yul\":7670:7677   */\n      dup3\n        /* \"#utility.yul\":7666:7681   */\n      div\n        /* \"#utility.yul\":7663:7664   */\n      dup5\n        /* \"#utility.yul\":7660:7682   */\n      eq\n        /* \"#utility.yul\":7640:7641   */\n      dup4\n        /* \"#utility.yul\":7633:7642   */\n      iszero\n        /* \"#utility.yul\":7613:7696   */\n      or\n        /* \"#utility.yul\":7590:7729   */\n      tag_463\n      jumpi\n        /* \"#utility.yul\":7709:7727   */\n      tag_464\n      tag_349\n      jump\t// in\n    tag_464:\n        /* \"#utility.yul\":7590:7729   */\n    tag_463:\n        /* \"#utility.yul\":7374:7736   */\n      pop\n        /* \"#utility.yul\":7326:7736   */\n      swap3\n      swap2\n      pop\n      pop\n      jump\t// out\n        /* \"#utility.yul\":7742:7922   */\n    tag_357:\n        /* \"#utility.yul\":7790:7867   */\n      0x4e487b7100000000000000000000000000000000000000000000000000000000\n        /* \"#utility.yul\":7787:7788   */\n      0x00\n        /* \"#utility.yul\":7780:7868   */\n      mstore\n        /* \"#utility.yul\":7887:7891   */\n      0x12\n        /* \"#utility.yul\":7884:7885   */\n      0x04\n        /* \"#utility.yul\":7877:7892   */\n      mstore\n        /* \"#utility.yul\":7911:7915   */\n      0x24\n        /* \"#utility.yul\":7908:7909   */\n      0x00\n        /* \"#utility.yul\":7901:7916   */\n      revert\n        /* \"#utility.yul\":7928:8113   */\n    tag_232:\n        /* \"#utility.yul\":7968:7969   */\n      0x00\n        /* \"#utility.yul\":7985:8005   */\n      tag_467\n        /* \"#utility.yul\":8003:8004   */\n      dup3\n        /* \"#utility.yul\":7985:8005   */\n      tag_335\n      jump\t// in\n    tag_467:\n        /* \"#utility.yul\":7980:8005   */\n      swap2\n      pop\n        /* \"#utility.yul\":8019:8039   */\n      tag_468\n        /* \"#utility.yul\":8037:8038   */\n      dup4\n        /* \"#utility.yul\":8019:8039   */\n      tag_335\n      jump\t// in\n    tag_468:\n        /* \"#utility.yul\":8014:8039   */\n      swap3\n      pop\n        /* \"#utility.yul\":8058:8059   */\n      dup3\n        /* \"#utility.yul\":8048:8083   */\n      tag_469\n      jumpi\n        /* \"#utility.yul\":8063:8081   */\n      tag_470\n      tag_357\n      jump\t// in\n    tag_470:\n        /* \"#utility.yul\":8048:8083   */\n    tag_469:\n        /* \"#utility.yul\":8105:8106   */\n      dup3\n        /* \"#utility.yul\":8102:8103   */\n      dup3\n        /* \"#utility.yul\":8098:8107   */\n      div\n        /* \"#utility.yul\":8093:8107   */\n      swap1\n      pop\n        /* \"#utility.yul\":7928:8113   */\n      swap3\n      swap2\n      pop\n      pop\n      jump\t// out\n        /* \"#utility.yul\":8119:8561   */\n    tag_259:\n        /* \"#utility.yul\":8268:8272   */\n      0x00\n        /* \"#utility.yul\":8306:8308   */\n      0x60\n        /* \"#utility.yul\":8295:8304   */\n      dup3\n        /* \"#utility.yul\":8291:8309   */\n      add\n        /* \"#utility.yul\":8283:8309   */\n      swap1\n      pop\n        /* \"#utility.yul\":8319:8390   */\n      tag_472\n        /* \"#utility.yul\":8387:8388   */\n      0x00\n        /* \"#utility.yul\":8376:8385   */\n      dup4\n        /* \"#utility.yul\":8372:8389   */\n      add\n        /* \"#utility.yul\":8363:8369   */\n      dup7\n        /* \"#utility.yul\":8319:8390   */\n      tag_332\n      jump\t// in\n    tag_472:\n        /* \"#utility.yul\":8400:8472   */\n      tag_473\n        /* \"#utility.yul\":8468:8470   */\n      0x20\n        /* \"#utility.yul\":8457:8466   */\n      dup4\n        /* \"#utility.yul\":8453:8471   */\n      add\n        /* \"#utility.yul\":8444:8450   */\n      dup6\n        /* \"#utility.yul\":8400:8472   */\n      tag_332\n      jump\t// in\n    tag_473:\n        /* \"#utility.yul\":8482:8554   */\n      tag_474\n        /* \"#utility.yul\":8550:8552   */\n      0x40\n        /* \"#utility.yul\":8539:8548   */\n      dup4\n        /* \"#utility.yul\":8535:8553   */\n      add\n        /* \"#utility.yul\":8526:8532   */\n      dup5\n        /* \"#utility.yul\":8482:8554   */\n      tag_336\n      jump\t// in\n    tag_474:\n        /* \"#utility.yul\":8119:8561   */\n      swap5\n      swap4\n      pop\n      pop\n      pop\n      pop\n      jump\t// out\n        /* \"#utility.yul\":8567:8899   */\n    tag_273:\n        /* \"#utility.yul\":8688:8692   */\n      0x00\n        /* \"#utility.yul\":8726:8728   */\n      0x40\n        /* \"#utility.yul\":8715:8724   */\n      dup3\n        /* \"#utility.yul\":8711:8729   */\n      add\n        /* \"#utility.yul\":8703:8729   */\n      swap1\n      pop\n        /* \"#utility.yul\":8739:8810   */\n      tag_476\n        /* \"#utility.yul\":8807:8808   */\n      0x00\n        /* \"#utility.yul\":8796:8805   */\n      dup4\n        /* \"#utility.yul\":8792:8809   */\n      add\n        /* \"#utility.yul\":8783:8789   */\n      dup6\n        /* \"#utility.yul\":8739:8810   */\n      tag_332\n      jump\t// in\n    tag_476:\n        /* \"#utility.yul\":8820:8892   */\n      tag_477\n        /* \"#utility.yul\":8888:8890   */\n      0x20\n        /* \"#utility.yul\":8877:8886   */\n      dup4\n        /* \"#utility.yul\":8873:8891   */\n      add\n        /* \"#utility.yul\":8864:8870   */\n      dup5\n        /* \"#utility.yul\":8820:8892   */\n      tag_336\n      jump\t// in\n    tag_477:\n        /* \"#utility.yul\":8567:8899   */\n      swap4\n      swap3\n      pop\n      pop\n      pop\n      jump\t// out\n        /* \"#utility.yul\":8905:9052   */\n    tag_358:\n        /* \"#utility.yul\":9006:9017   */\n      0x00\n        /* \"#utility.yul\":9043:9046   */\n      dup2\n        /* \"#utility.yul\":9028:9046   */\n      swap1\n      pop\n        /* \"#utility.yul\":8905:9052   */\n      swap3\n      swap2\n      pop\n      pop\n      jump\t// out\n        /* \"#utility.yul\":9058:9172   */\n    tag_359:\n      pop\n      jump\t// out\n        /* \"#utility.yul\":9178:9576   */\n    tag_360:\n        /* \"#utility.yul\":9337:9340   */\n      0x00\n        /* \"#utility.yul\":9358:9441   */\n      tag_481\n        /* \"#utility.yul\":9439:9440   */\n      0x00\n        /* \"#utility.yul\":9434:9437   */\n      dup4\n        /* \"#utility.yul\":9358:9441   */\n      tag_358\n      jump\t// in\n    tag_481:\n        /* \"#utility.yul\":9351:9441   */\n      swap2\n      pop\n        /* \"#utility.yul\":9450:9543   */\n      tag_482\n        /* \"#utility.yul\":9539:9542   */\n      dup3\n        /* \"#utility.yul\":9450:9543   */\n      tag_359\n      jump\t// in\n    tag_482:\n        /* \"#utility.yul\":9568:9569   */\n      0x00\n        /* \"#utility.yul\":9563:9566   */\n      dup3\n        /* \"#utility.yul\":9559:9570   */\n      add\n        /* \"#utility.yul\":9552:9570   */\n      swap1\n      pop\n        /* \"#utility.yul\":9178:9576   */\n      swap2\n      swap1\n      pop\n      jump\t// out\n        /* \"#utility.yul\":9582:9961   */\n    tag_281:\n        /* \"#utility.yul\":9766:9769   */\n      0x00\n        /* \"#utility.yul\":9788:9935   */\n      tag_484\n        /* \"#utility.yul\":9931:9934   */\n      dup3\n        /* \"#utility.yul\":9788:9935   */\n      tag_360\n      jump\t// in\n    tag_484:\n        /* \"#utility.yul\":9781:9935   */\n      swap2\n      pop\n        /* \"#utility.yul\":9952:9955   */\n      dup2\n        /* \"#utility.yul\":9945:9955   */\n      swap1\n      pop\n        /* \"#utility.yul\":9582:9961   */\n      swap2\n      swap1\n      pop\n      jump\t// out\n        /* \"#utility.yul\":9967:10136   */\n    tag_361:\n        /* \"#utility.yul\":10051:10062   */\n      0x00\n        /* \"#utility.yul\":10085:10091   */\n      dup3\n        /* \"#utility.yul\":10080:10083   */\n      dup3\n        /* \"#utility.yul\":10073:10092   */\n      mstore\n        /* \"#utility.yul\":10125:10129   */\n      0x20\n        /* \"#utility.yul\":10120:10123   */\n      dup3\n        /* \"#utility.yul\":10116:10130   */\n      add\n        /* \"#utility.yul\":10101:10130   */\n      swap1\n      pop\n        /* \"#utility.yul\":9967:10136   */\n      swap3\n      swap2\n      pop\n      pop\n      jump\t// out\n        /* \"#utility.yul\":10142:10323   */\n    tag_362:\n        /* \"#utility.yul\":10282:10315   */\n      0x5265656e7472616e637947756172643a207265656e7472616e742063616c6c00\n        /* \"#utility.yul\":10278:10279   */\n      0x00\n        /* \"#utility.yul\":10270:10276   */\n      dup3\n        /* \"#utility.yul\":10266:10280   */\n      add\n        /* \"#utility.yul\":10259:10316   */\n      mstore\n        /* \"#utility.yul\":10142:10323   */\n      pop\n      jump\t// out\n        /* \"#utility.yul\":10329:10695   */\n    tag_363:\n        /* \"#utility.yul\":10471:10474   */\n      0x00\n        /* \"#utility.yul\":10492:10559   */\n      tag_488\n        /* \"#utility.yul\":10556:10558   */\n      0x1f\n        /* \"#utility.yul\":10551:10554   */\n      dup4\n        /* \"#utility.yul\":10492:10559   */\n      tag_361\n      jump\t// in\n    tag_488:\n        /* \"#utility.yul\":10485:10559   */\n      swap2\n      pop\n        /* \"#utility.yul\":10568:10661   */\n      tag_489\n        /* \"#utility.yul\":10657:10660   */\n      dup3\n        /* \"#utility.yul\":10568:10661   */\n      tag_362\n      jump\t// in\n    tag_489:\n        /* \"#utility.yul\":10686:10688   */\n      0x20\n        /* \"#utility.yul\":10681:10684   */\n      dup3\n        /* \"#utility.yul\":10677:10689   */\n      add\n        /* \"#utility.yul\":10670:10689   */\n      swap1\n      pop\n        /* \"#utility.yul\":10329:10695   */\n      swap2\n      swap1\n      pop\n      jump\t// out\n        /* \"#utility.yul\":10701:11120   */\n    tag_325:\n        /* \"#utility.yul\":10867:10871   */\n      0x00\n        /* \"#utility.yul\":10905:10907   */\n      0x20\n        /* \"#utility.yul\":10894:10903   */\n      dup3\n        /* \"#utility.yul\":10890:10908   */\n      add\n        /* \"#utility.yul\":10882:10908   */\n      swap1\n      pop\n        /* \"#utility.yul\":10954:10963   */\n      dup2\n        /* \"#utility.yul\":10948:10952   */\n      dup2\n        /* \"#utility.yul\":10944:10964   */\n      sub\n        /* \"#utility.yul\":10940:10941   */\n      0x00\n        /* \"#utility.yul\":10929:10938   */\n      dup4\n        /* \"#utility.yul\":10925:10942   */\n      add\n        /* \"#utility.yul\":10918:10965   */\n      mstore\n        /* \"#utility.yul\":10982:11113   */\n      tag_491\n        /* \"#utility.yul\":11108:11112   */\n      dup2\n        /* \"#utility.yul\":10982:11113   */\n      tag_363\n      jump\t// in\n    tag_491:\n        /* \"#utility.yul\":10974:11113   */\n      swap1\n      pop\n        /* \"#utility.yul\":10701:11120   */\n      swap2\n      swap1\n      pop\n      jump\t// out\n\n    auxdata: 0xa26469706673582212208028806ecff4534f6b9967b3c88a3f1feb6f54f21d9b601611cf7a158a41af5664736f6c634300081e0033\n}\n",
				"bytecode": {
					"linkReferences": {},
					"object": "60e06040525f6003555f6004555f60055534801561001b575f5ffd5b506040516127a13803806127a1833981810160405281019061003d91906103e4565b8260015f819055505f73ffffffffffffffffffffffffffffffffffffffff168173ffffffffffffffffffffffffffffffffffffffff16036100b5575f6040517f1e4fbdf70000000000000000000000000000000000000000000000000000000081526004016100ac919061046a565b60405180910390fd5b6100c48161029060201b60201c565b505f850361010957846040517ff1fdfd2b0000000000000000000000000000000000000000000000000000000081526004016101009190610492565b60405180910390fd5b5f840361014d57836040517f5052fe8e0000000000000000000000000000000000000000000000000000000081526004016101449190610492565b60405180910390fd5b848411156101945784846040517f3122626300000000000000000000000000000000000000000000000000000000815260040161018b9291906104ab565b60405180910390fd5b5f73ffffffffffffffffffffffffffffffffffffffff168273ffffffffffffffffffffffffffffffffffffffff16036101cb575f5ffd5b5f73ffffffffffffffffffffffffffffffffffffffff168173ffffffffffffffffffffffffffffffffffffffff1603610202575f5ffd5b8073ffffffffffffffffffffffffffffffffffffffff1660808173ffffffffffffffffffffffffffffffffffffffff16815250508160025f6101000a81548173ffffffffffffffffffffffffffffffffffffffff021916908373ffffffffffffffffffffffffffffffffffffffff1602179055508460c081815250508360a0818152505050505050506104d2565b5f60015f9054906101000a900473ffffffffffffffffffffffffffffffffffffffff1690508160015f6101000a81548173ffffffffffffffffffffffffffffffffffffffff021916908373ffffffffffffffffffffffffffffffffffffffff1602179055508173ffffffffffffffffffffffffffffffffffffffff168173ffffffffffffffffffffffffffffffffffffffff167f8be0079c531659141344cd1fd0a4f28419497f9722a3daafe3b4186f6b6457e060405160405180910390a35050565b5f5ffd5b5f819050919050565b61036981610357565b8114610373575f5ffd5b50565b5f8151905061038481610360565b92915050565b5f73ffffffffffffffffffffffffffffffffffffffff82169050919050565b5f6103b38261038a565b9050919050565b6103c3816103a9565b81146103cd575f5ffd5b50565b5f815190506103de816103ba565b92915050565b5f5f5f5f5f60a086880312156103fd576103fc610353565b5b5f61040a88828901610376565b955050602061041b88828901610376565b945050604061042c888289016103d0565b935050606061043d888289016103d0565b925050608061044e888289016103d0565b9150509295509295909350565b610464816103a9565b82525050565b5f60208201905061047d5f83018461045b565b92915050565b61048c81610357565b82525050565b5f6020820190506104a55f830184610483565b92915050565b5f6040820190506104be5f830185610483565b6104cb6020830184610483565b9392505050565b60805160a05160c05161225f6105425f395f81816104970152818161055d015261094801525f81816104b8015281816113b801526116fb01525f81816107dd015281816109c601528181610af301528181610eee0152818161176301528181611843015261196f015261225f5ff3fe608060405260043610610122575f3560e01c80637dc532c51161009f57806393295c1c1161006357806393295c1c146103b5578063939495bd146103df578063c6aca33c14610409578063f2fde38b14610433578063f39b18091461045b57610164565b80637dc532c5146102eb57806382fe54b5146103135780638648840a1461033b5780638da5cb5b14610363578063931fb90e1461038d57610164565b80636900670c116100e65780636900670c1461022f578063698b7241146102595780636f05c64c14610281578063715018a6146102ab578063779bb136146102c157610164565b80630594cc69146101a157806316a1930f146101cf5780631a003ecb146101d957806338d5c916146101ef5780635c975abb1461020557610164565b3661016457336040517fe1d158ff00000000000000000000000000000000000000000000000000000000815260040161015b9190611caf565b60405180910390fd5b336040517fe1d158ff0000000000000000000000000000000000000000000000000000000081526004016101989190611caf565b60405180910390fd5b3480156101ac575f5ffd5b506101b5610485565b6040516101c6959493929190611cfa565b60405180910390f35b6101d761050a565b005b3480156101e4575f5ffd5b506101ed6106f1565b005b3480156101fa575f5ffd5b50610203610759565b005b348015610210575f5ffd5b506102196107c1565b6040516102269190611d4b565b60405180910390f35b34801561023a575f5ffd5b506102436107d7565b6040516102509190611d64565b60405180910390f35b348015610264575f5ffd5b5061027f600480360381019061027a9190611dab565b610901565b005b34801561028c575f5ffd5b50610295610b3c565b6040516102a29190611e31565b60405180910390f35b3480156102b6575f5ffd5b506102bf610b61565b005b3480156102cc575f5ffd5b506102d5610b74565b6040516102e29190611d64565b60405180910390f35b3480156102f6575f5ffd5b50610311600480360381019061030c9190611e74565b610bf3565b005b34801561031e575f5ffd5b5061033960048036038101906103349190611dab565b610e73565b005b348015610346575f5ffd5b50610361600480360381019061035c9190611e74565b610e87565b005b34801561036e575f5ffd5b50610377610ea3565b6040516103849190611caf565b60405180910390f35b348015610398575f5ffd5b506103b360048036038101906103ae9190611dab565b610ecb565b005b3480156103c0575f5ffd5b506103c9610edf565b6040516103d69190611d64565b60405180910390f35b3480156103ea575f5ffd5b506103f3610ee8565b6040516104009190611d64565b60405180910390f35b348015610414575f5ffd5b5061041d610f87565b60405161042a9190611d64565b60405180910390f35b34801561043e575f5ffd5b5061045960048036038101906104549190611e74565b610f90565b005b348015610466575f5ffd5b5061046f611014565b60405161047c9190611d64565b60405180910390f35b5f5f5f5f5f6104926107c1565b6005547f00000000000000000000000000000000000000000000000000000000000000007f000000000000000000000000000000000000000000000000000000000000000060025f9054906101000a900473ffffffffffffffffffffffffffffffffffffffff16945094509450945094509091929394565b345f6105158261101d565b90505f810361055b57336040517fb2f092310000000000000000000000000000000000000000000000000000000081526004016105529190611caf565b60405180910390fd5b7f00000000000000000000000000000000000000000000000000000000000000006005548261058a9190611ecc565b11156105cd57806040517f2900b02c0000000000000000000000000000000000000000000000000000000081526004016105c49190611d64565b60405180910390fd5b6105d561104c565b5f6105df3461101d565b90503460065f5f73ffffffffffffffffffffffffffffffffffffffff1673ffffffffffffffffffffffffffffffffffffffff1681526020019081526020015f205f3373ffffffffffffffffffffffffffffffffffffffff1673ffffffffffffffffffffffffffffffffffffffff1681526020019081526020015f205f8282546106689190611ecc565b9250508190555060035f81548092919061068190611eff565b91905055508060055f8282546106979190611ecc565b925050819055503373ffffffffffffffffffffffffffffffffffffffff167f9d15693852bf60dc27bd5aa831d0351359b7d01d428ae1baae11f15cbcfebafd826040516106e49190611d64565b60405180910390a2505050565b6106f961108d565b61070161104c565b610709611114565b3373ffffffffffffffffffffffffffffffffffffffff167f65ab6adc87722a7acd973ffed16cba7cfdf07b5329157a7192434753ba9dac134260405161074f9190611d64565b60405180910390a2565b61076161108d565b610769611176565b6107716111b6565b3373ffffffffffffffffffffffffffffffffffffffff167f08af9cf236f4b3afb8d03262d5bef5d95db4da02aa57892cd6474e8097f4f2b7426040516107b79190611d64565b60405180910390a2565b5f600160149054906101000a900460ff16905090565b5f60065f7f000000000000000000000000000000000000000000000000000000000000000073ffffffffffffffffffffffffffffffffffffffff1673ffffffffffffffffffffffffffffffffffffffff1681526020019081526020015f205f3373ffffffffffffffffffffffffffffffffffffffff1673ffffffffffffffffffffffffffffffffffffffff1681526020019081526020015f20546108f260065f5f73ffffffffffffffffffffffffffffffffffffffff1673ffffffffffffffffffffffffffffffffffffffff1681526020019081526020015f205f3373ffffffffffffffffffffffffffffffffffffffff1673ffffffffffffffffffffffffffffffffffffffff1681526020019081526020015f205461101d565b6108fc9190611ecc565b905090565b805f810361094657336040517fb2f0923100000000000000000000000000000000000000000000000000000000815260040161093d9190611caf565b60405180910390fd5b7f0000000000000000000000000000000000000000000000000000000000000000600554826109759190611ecc565b11156109b857806040517f2900b02c0000000000000000000000000000000000000000000000000000000081526004016109af9190611d64565b60405180910390fd5b6109c061104c565b8160065f7f000000000000000000000000000000000000000000000000000000000000000073ffffffffffffffffffffffffffffffffffffffff1673ffffffffffffffffffffffffffffffffffffffff1681526020019081526020015f205f3373ffffffffffffffffffffffffffffffffffffffff1673ffffffffffffffffffffffffffffffffffffffff1681526020019081526020015f205f828254610a679190611ecc565b9250508190555060035f815480929190610a8090611eff565b91905055508160055f828254610a969190611ecc565b925050819055503373ffffffffffffffffffffffffffffffffffffffff167f9d15693852bf60dc27bd5aa831d0351359b7d01d428ae1baae11f15cbcfebafd83604051610ae39190611d64565b60405180910390a2610b383330847f000000000000000000000000000000000000000000000000000000000000000073ffffffffffffffffffffffffffffffffffffffff16611218909392919063ffffffff16565b5050565b60025f9054906101000a900473ffffffffffffffffffffffffffffffffffffffff1681565b610b6961108d565b610b725f61129a565b565b5f60065f5f73ffffffffffffffffffffffffffffffffffffffff1673ffffffffffffffffffffffffffffffffffffffff1681526020019081526020015f205f3373ffffffffffffffffffffffffffffffffffffffff1673ffffffffffffffffffffffffffffffffffffffff1681526020019081526020015f2054905090565b610bfb61108d565b610c03611176565b5f73ffffffffffffffffffffffffffffffffffffffff168173ffffffffffffffffffffffffffffffffffffffff1603610c68576040517f463858d600000000000000000000000000000000000000000000000000000000815260040160405180910390fd5b8073ffffffffffffffffffffffffffffffffffffffff1663feaf968c6040518163ffffffff1660e01b815260040160a060405180830381865afa925050508015610cd057506040513d601f19601f82011682018060405250810190610ccd9190611fcc565b60015b610d1157806040517f59eea315000000000000000000000000000000000000000000000000000000008152600401610d089190611caf565b60405180910390fd5b5f8413610d5557856040517f59eea315000000000000000000000000000000000000000000000000000000008152600401610d4c9190611caf565b60405180910390fd5b610e1061ffff168242610d689190612043565b1115610dab57836040517f2609a265000000000000000000000000000000000000000000000000000000008152600401610da29190611d64565b60405180910390fd5b5f60025f9054906101000a900473ffffffffffffffffffffffffffffffffffffffff1690508660025f6101000a81548173ffffffffffffffffffffffffffffffffffffffff021916908373ffffffffffffffffffffffffffffffffffffffff1602179055508673ffffffffffffffffffffffffffffffffffffffff168173ffffffffffffffffffffffffffffffffffffffff167f03028d95bd98a5ec8c81b55c2b61e734dde89bb773697b429bd195fd00582b3060405160405180910390a350505050505050565b610e7b61104c565b610e848161135d565b50565b610e8f61108d565b610e97611176565b610ea081610f90565b50565b5f60015f9054906101000a900473ffffffffffffffffffffffffffffffffffffffff16905090565b610ed361104c565b610edc816116ac565b50565b5f600554905090565b5f60065f7f000000000000000000000000000000000000000000000000000000000000000073ffffffffffffffffffffffffffffffffffffffff1673ffffffffffffffffffffffffffffffffffffffff1681526020019081526020015f205f3373ffffffffffffffffffffffffffffffffffffffff1673ffffffffffffffffffffffffffffffffffffffff1681526020019081526020015f2054905090565b5f600454905090565b610f9861108d565b5f73ffffffffffffffffffffffffffffffffffffffff168173ffffffffffffffffffffffffffffffffffffffff1603611008575f6040517f1e4fbdf7000000000000000000000000000000000000000000000000000000008152600401610fff9190611caf565b60405180910390fd5b6110118161129a565b50565b5f600354905090565b5f68056bc75e2d631000006110306119bf565b8361103b9190612076565b61104591906120e4565b9050919050565b6110546107c1565b1561108b576040517fd93c066500000000000000000000000000000000000000000000000000000000815260040160405180910390fd5b565b611095611af9565b73ffffffffffffffffffffffffffffffffffffffff166110b3610ea3565b73ffffffffffffffffffffffffffffffffffffffff1614611112576110d6611af9565b6040517f118cdaa70000000000000000000000000000000000000000000000000000000081526004016111099190611caf565b60405180910390fd5b565b61111c61104c565b60018060146101000a81548160ff0219169083151502179055507f62e78cea01bee320cd4e420270b5ea74000d11b0c9f74754ebdbfc544b05a25861115f611af9565b60405161116c9190611caf565b60405180910390a1565b61117e6107c1565b6111b4576040517f8dfc202b00000000000000000000000000000000000000000000000000000000815260040160405180910390fd5b565b6111be611176565b5f600160146101000a81548160ff0219169083151502179055507f5db9ee0a495bf2e6ff9c91a7834c1ba4fdd244a5e8aa4e537bd38aeae4b073aa611201611af9565b60405161120e9190611caf565b60405180910390a1565b611294848573ffffffffffffffffffffffffffffffffffffffff166323b872dd86868660405160240161124d93929190612114565b604051602081830303815290604052915060e01b6020820180517bffffffffffffffffffffffffffffffffffffffffffffffffffffffff8381831617835250505050611b00565b50505050565b5f60015f9054906101000a900473ffffffffffffffffffffffffffffffffffffffff1690508160015f6101000a81548173ffffffffffffffffffffffffffffffffffffffff021916908373ffffffffffffffffffffffffffffffffffffffff1602179055508173ffffffffffffffffffffffffffffffffffffffff168173ffffffffffffffffffffffffffffffffffffffff167f8be0079c531659141344cd1fd0a4f28419497f9722a3daafe3b4186f6b6457e060405160405180910390a35050565b611365611b9b565b805f6113708261101d565b90505f81036113b657336040517fb2f092310000000000000000000000000000000000000000000000000000000081526004016113ad9190611caf565b60405180910390fd5b7f000000000000000000000000000000000000000000000000000000000000000081111561141b57806040517fc39935650000000000000000000000000000000000000000000000000000000081526004016114129190611d64565b60405180910390fd5b60065f5f73ffffffffffffffffffffffffffffffffffffffff1673ffffffffffffffffffffffffffffffffffffffff1681526020019081526020015f205f3373ffffffffffffffffffffffffffffffffffffffff1673ffffffffffffffffffffffffffffffffffffffff1681526020019081526020015f20548211156114da5733816040517f51a731420000000000000000000000000000000000000000000000000000000081526004016114d1929190612149565b60405180910390fd5b5f6114e48461101d565b90508360065f5f73ffffffffffffffffffffffffffffffffffffffff1673ffffffffffffffffffffffffffffffffffffffff1681526020019081526020015f205f3373ffffffffffffffffffffffffffffffffffffffff1673ffffffffffffffffffffffffffffffffffffffff1681526020019081526020015f205f82825461156d9190612043565b9250508190555060045f81548092919061158690611eff565b91905055508060055f82825461159c9190612043565b925050819055503373ffffffffffffffffffffffffffffffffffffffff167f9cde449504e4972ffddec09813e0c252a1462d76bef1864b9e7520dadb7183e8826040516115e99190611d64565b60405180910390a25f3373ffffffffffffffffffffffffffffffffffffffff16856040516116169061219d565b5f6040518083038185875af1925050503d805f8114611650576040519150601f19603f3d011682016040523d82523d5f602084013e611655565b606091505b505090508061169d5733856040517f6c5e1a14000000000000000000000000000000000000000000000000000000008152600401611694929190612149565b60405180910390fd5b505050506116a9611be8565b50565b6116b4611b9b565b805f81036116f957336040517fb2f092310000000000000000000000000000000000000000000000000000000081526004016116f09190611caf565b60405180910390fd5b7f000000000000000000000000000000000000000000000000000000000000000081111561175e57806040517fc39935650000000000000000000000000000000000000000000000000000000081526004016117559190611d64565b60405180910390fd5b60065f7f000000000000000000000000000000000000000000000000000000000000000073ffffffffffffffffffffffffffffffffffffffff1673ffffffffffffffffffffffffffffffffffffffff1681526020019081526020015f205f3373ffffffffffffffffffffffffffffffffffffffff1673ffffffffffffffffffffffffffffffffffffffff1681526020019081526020015f205481111561183d5733816040517f51a73142000000000000000000000000000000000000000000000000000000008152600401611834929190612149565b60405180910390fd5b8160065f7f000000000000000000000000000000000000000000000000000000000000000073ffffffffffffffffffffffffffffffffffffffff1673ffffffffffffffffffffffffffffffffffffffff1681526020019081526020015f205f3373ffffffffffffffffffffffffffffffffffffffff1673ffffffffffffffffffffffffffffffffffffffff1681526020019081526020015f205f8282546118e49190612043565b9250508190555060045f8154809291906118fd90611eff565b91905055508160055f8282546119139190612043565b925050819055503373ffffffffffffffffffffffffffffffffffffffff167f9cde449504e4972ffddec09813e0c252a1462d76bef1864b9e7520dadb7183e8836040516119609190611d64565b60405180910390a26119b333837f000000000000000000000000000000000000000000000000000000000000000073ffffffffffffffffffffffffffffffffffffffff16611bf19092919063ffffffff16565b506119bc611be8565b50565b5f5f5f60025f9054906101000a900473ffffffffffffffffffffffffffffffffffffffff1673ffffffffffffffffffffffffffffffffffffffff1663feaf968c6040518163ffffffff1660e01b815260040160a060405180830381865afa158015611a2c573d5f5f3e3d5ffd5b505050506040513d601f19601f82011682018060405250810190611a509190611fcc565b509350509250505f8213611a9b57816040517f36544029000000000000000000000000000000000000000000000000000000008152600401611a929190611d64565b60405180910390fd5b610e1061ffff168142611aae9190612043565b1115611af157816040517f2609a265000000000000000000000000000000000000000000000000000000008152600401611ae89190611d64565b60405180910390fd5b819250505090565b5f33905090565b5f5f60205f8451602086015f885af180611b1f576040513d5f823e3d81fd5b3d92505f519150505f8214611b38576001811415611b53565b5f8473ffffffffffffffffffffffffffffffffffffffff163b145b15611b9557836040517f5274afe7000000000000000000000000000000000000000000000000000000008152600401611b8c9190611caf565b60405180910390fd5b50505050565b60025f5403611bdf576040517f08c379a0000000000000000000000000000000000000000000000000000000008152600401611bd69061220b565b60405180910390fd5b60025f81905550565b60015f81905550565b611c6b838473ffffffffffffffffffffffffffffffffffffffff1663a9059cbb8585604051602401611c24929190612149565b604051602081830303815290604052915060e01b6020820180517bffffffffffffffffffffffffffffffffffffffffffffffffffffffff8381831617835250505050611b00565b505050565b5f73ffffffffffffffffffffffffffffffffffffffff82169050919050565b5f611c9982611c70565b9050919050565b611ca981611c8f565b82525050565b5f602082019050611cc25f830184611ca0565b92915050565b5f8115159050919050565b611cdc81611cc8565b82525050565b5f819050919050565b611cf481611ce2565b82525050565b5f60a082019050611d0d5f830188611cd3565b611d1a6020830187611ceb565b611d276040830186611ceb565b611d346060830185611ceb565b611d416080830184611ca0565b9695505050505050565b5f602082019050611d5e5f830184611cd3565b92915050565b5f602082019050611d775f830184611ceb565b92915050565b5f5ffd5b611d8a81611ce2565b8114611d94575f5ffd5b50565b5f81359050611da581611d81565b92915050565b5f60208284031215611dc057611dbf611d7d565b5b5f611dcd84828501611d97565b91505092915050565b5f819050919050565b5f611df9611df4611def84611c70565b611dd6565b611c70565b9050919050565b5f611e0a82611ddf565b9050919050565b5f611e1b82611e00565b9050919050565b611e2b81611e11565b82525050565b5f602082019050611e445f830184611e22565b92915050565b611e5381611c8f565b8114611e5d575f5ffd5b50565b5f81359050611e6e81611e4a565b92915050565b5f60208284031215611e8957611e88611d7d565b5b5f611e9684828501611e60565b91505092915050565b7f4e487b71000000000000000000000000000000000000000000000000000000005f52601160045260245ffd5b5f611ed682611ce2565b9150611ee183611ce2565b9250828201905080821115611ef957611ef8611e9f565b5b92915050565b5f611f0982611ce2565b91507fffffffffffffffffffffffffffffffffffffffffffffffffffffffffffffffff8203611f3b57611f3a611e9f565b5b600182019050919050565b5f69ffffffffffffffffffff82169050919050565b611f6481611f46565b8114611f6e575f5ffd5b50565b5f81519050611f7f81611f5b565b92915050565b5f819050919050565b611f9781611f85565b8114611fa1575f5ffd5b50565b5f81519050611fb281611f8e565b92915050565b5f81519050611fc681611d81565b92915050565b5f5f5f5f5f60a08688031215611fe557611fe4611d7d565b5b5f611ff288828901611f71565b955050602061200388828901611fa4565b945050604061201488828901611fb8565b935050606061202588828901611fb8565b925050608061203688828901611f71565b9150509295509295909350565b5f61204d82611ce2565b915061205883611ce2565b92508282039050818111156120705761206f611e9f565b5b92915050565b5f61208082611ce2565b915061208b83611ce2565b925082820261209981611ce2565b915082820484148315176120b0576120af611e9f565b5b5092915050565b7f4e487b71000000000000000000000000000000000000000000000000000000005f52601260045260245ffd5b5f6120ee82611ce2565b91506120f983611ce2565b925082612109576121086120b7565b5b828204905092915050565b5f6060820190506121275f830186611ca0565b6121346020830185611ca0565b6121416040830184611ceb565b949350505050565b5f60408201905061215c5f830185611ca0565b6121696020830184611ceb565b9392505050565b5f81905092915050565b50565b5f6121885f83612170565b91506121938261217a565b5f82019050919050565b5f6121a78261217d565b9150819050919050565b5f82825260208201905092915050565b7f5265656e7472616e637947756172643a207265656e7472616e742063616c6c005f82015250565b5f6121f5601f836121b1565b9150612200826121c1565b602082019050919050565b5f6020820190508181035f830152612222816121e9565b905091905056fea26469706673582212208028806ecff4534f6b9967b3c88a3f1feb6f54f21d9b601611cf7a158a41af5664736f6c634300081e0033",
					"opcodes": "PUSH1 0xE0 PUSH1 0x40 MSTORE PUSH0 PUSH1 0x3 SSTORE PUSH0 PUSH1 0x4 SSTORE PUSH0 PUSH1 0x5 SSTORE CALLVALUE DUP1 ISZERO PUSH2 0x1B JUMPI PUSH0 PUSH0 REVERT JUMPDEST POP PUSH1 0x40 MLOAD PUSH2 0x27A1 CODESIZE SUB DUP1 PUSH2 0x27A1 DUP4 CODECOPY DUP2 DUP2 ADD PUSH1 0x40 MSTORE DUP2 ADD SWAP1 PUSH2 0x3D SWAP2 SWAP1 PUSH2 0x3E4 JUMP JUMPDEST DUP3 PUSH1 0x1 PUSH0 DUP2 SWAP1 SSTORE POP PUSH0 PUSH20 0xFFFFFFFFFFFFFFFFFFFFFFFFFFFFFFFFFFFFFFFF AND DUP2 PUSH20 0xFFFFFFFFFFFFFFFFFFFFFFFFFFFFFFFFFFFFFFFF AND SUB PUSH2 0xB5 JUMPI PUSH0 PUSH1 0x40 MLOAD PUSH32 0x1E4FBDF700000000000000000000000000000000000000000000000000000000 DUP2 MSTORE PUSH1 0x4 ADD PUSH2 0xAC SWAP2 SWAP1 PUSH2 0x46A JUMP JUMPDEST PUSH1 0x40 MLOAD DUP1 SWAP2 SUB SWAP1 REVERT JUMPDEST PUSH2 0xC4 DUP2 PUSH2 0x290 PUSH1 0x20 SHL PUSH1 0x20 SHR JUMP JUMPDEST POP PUSH0 DUP6 SUB PUSH2 0x109 JUMPI DUP5 PUSH1 0x40 MLOAD PUSH32 0xF1FDFD2B00000000000000000000000000000000000000000000000000000000 DUP2 MSTORE PUSH1 0x4 ADD PUSH2 0x100 SWAP2 SWAP1 PUSH2 0x492 JUMP JUMPDEST PUSH1 0x40 MLOAD DUP1 SWAP2 SUB SWAP1 REVERT JUMPDEST PUSH0 DUP5 SUB PUSH2 0x14D JUMPI DUP4 PUSH1 0x40 MLOAD PUSH32 0x5052FE8E00000000000000000000000000000000000000000000000000000000 DUP2 MSTORE PUSH1 0x4 ADD PUSH2 0x144 SWAP2 SWAP1 PUSH2 0x492 JUMP JUMPDEST PUSH1 0x40 MLOAD DUP1 SWAP2 SUB SWAP1 REVERT JUMPDEST DUP5 DUP5 GT ISZERO PUSH2 0x194 JUMPI DUP5 DUP5 PUSH1 0x40 MLOAD PUSH32 0x3122626300000000000000000000000000000000000000000000000000000000 DUP2 MSTORE PUSH1 0x4 ADD PUSH2 0x18B SWAP3 SWAP2 SWAP1 PUSH2 0x4AB JUMP JUMPDEST PUSH1 0x40 MLOAD DUP1 SWAP2 SUB SWAP1 REVERT JUMPDEST PUSH0 PUSH20 0xFFFFFFFFFFFFFFFFFFFFFFFFFFFFFFFFFFFFFFFF AND DUP3 PUSH20 0xFFFFFFFFFFFFFFFFFFFFFFFFFFFFFFFFFFFFFFFF AND SUB PUSH2 0x1CB JUMPI PUSH0 PUSH0 REVERT JUMPDEST PUSH0 PUSH20 0xFFFFFFFFFFFFFFFFFFFFFFFFFFFFFFFFFFFFFFFF AND DUP2 PUSH20 0xFFFFFFFFFFFFFFFFFFFFFFFFFFFFFFFFFFFFFFFF AND SUB PUSH2 0x202 JUMPI PUSH0 PUSH0 REVERT JUMPDEST DUP1 PUSH20 0xFFFFFFFFFFFFFFFFFFFFFFFFFFFFFFFFFFFFFFFF AND PUSH1 0x80 DUP2 PUSH20 0xFFFFFFFFFFFFFFFFFFFFFFFFFFFFFFFFFFFFFFFF AND DUP2 MSTORE POP POP DUP2 PUSH1 0x2 PUSH0 PUSH2 0x100 EXP DUP2 SLOAD DUP2 PUSH20 0xFFFFFFFFFFFFFFFFFFFFFFFFFFFFFFFFFFFFFFFF MUL NOT AND SWAP1 DUP4 PUSH20 0xFFFFFFFFFFFFFFFFFFFFFFFFFFFFFFFFFFFFFFFF AND MUL OR SWAP1 SSTORE POP DUP5 PUSH1 0xC0 DUP2 DUP2 MSTORE POP POP DUP4 PUSH1 0xA0 DUP2 DUP2 MSTORE POP POP POP POP POP POP POP PUSH2 0x4D2 JUMP JUMPDEST PUSH0 PUSH1 0x1 PUSH0 SWAP1 SLOAD SWAP1 PUSH2 0x100 EXP SWAP1 DIV PUSH20 0xFFFFFFFFFFFFFFFFFFFFFFFFFFFFFFFFFFFFFFFF AND SWAP1 POP DUP2 PUSH1 0x1 PUSH0 PUSH2 0x100 EXP DUP2 SLOAD DUP2 PUSH20 0xFFFFFFFFFFFFFFFFFFFFFFFFFFFFFFFFFFFFFFFF MUL NOT AND SWAP1 DUP4 PUSH20 0xFFFFFFFFFFFFFFFFFFFFFFFFFFFFFFFFFFFFFFFF AND MUL OR SWAP1 SSTORE POP DUP2 PUSH20 0xFFFFFFFFFFFFFFFFFFFFFFFFFFFFFFFFFFFFFFFF AND DUP2 PUSH20 0xFFFFFFFFFFFFFFFFFFFFFFFFFFFFFFFFFFFFFFFF AND PUSH32 0x8BE0079C531659141344CD1FD0A4F28419497F9722A3DAAFE3B4186F6B6457E0 PUSH1 0x40 MLOAD PUSH1 0x40 MLOAD DUP1 SWAP2 SUB SWAP1 LOG3 POP POP JUMP JUMPDEST PUSH0 PUSH0 REVERT JUMPDEST PUSH0 DUP2 SWAP1 POP SWAP2 SWAP1 POP JUMP JUMPDEST PUSH2 0x369 DUP2 PUSH2 0x357 JUMP JUMPDEST DUP2 EQ PUSH2 0x373 JUMPI PUSH0 PUSH0 REVERT JUMPDEST POP JUMP JUMPDEST PUSH0 DUP2 MLOAD SWAP1 POP PUSH2 0x384 DUP2 PUSH2 0x360 JUMP JUMPDEST SWAP3 SWAP2 POP POP JUMP JUMPDEST PUSH0 PUSH20 0xFFFFFFFFFFFFFFFFFFFFFFFFFFFFFFFFFFFFFFFF DUP3 AND SWAP1 POP SWAP2 SWAP1 POP JUMP JUMPDEST PUSH0 PUSH2 0x3B3 DUP3 PUSH2 0x38A JUMP JUMPDEST SWAP1 POP SWAP2 SWAP1 POP JUMP JUMPDEST PUSH2 0x3C3 DUP2 PUSH2 0x3A9 JUMP JUMPDEST DUP2 EQ PUSH2 0x3CD JUMPI PUSH0 PUSH0 REVERT JUMPDEST POP JUMP JUMPDEST PUSH0 DUP2 MLOAD SWAP1 POP PUSH2 0x3DE DUP2 PUSH2 0x3BA JUMP JUMPDEST SWAP3 SWAP2 POP POP JUMP JUMPDEST PUSH0 PUSH0 PUSH0 PUSH0 PUSH0 PUSH1 0xA0 DUP7 DUP9 SUB SLT ISZERO PUSH2 0x3FD JUMPI PUSH2 0x3FC PUSH2 0x353 JUMP JUMPDEST JUMPDEST PUSH0 PUSH2 0x40A DUP9 DUP3 DUP10 ADD PUSH2 0x376 JUMP JUMPDEST SWAP6 POP POP PUSH1 0x20 PUSH2 0x41B DUP9 DUP3 DUP10 ADD PUSH2 0x376 JUMP JUMPDEST SWAP5 POP POP PUSH1 0x40 PUSH2 0x42C DUP9 DUP3 DUP10 ADD PUSH2 0x3D0 JUMP JUMPDEST SWAP4 POP POP PUSH1 0x60 PUSH2 0x43D DUP9 DUP3 DUP10 ADD PUSH2 0x3D0 JUMP JUMPDEST SWAP3 POP POP PUSH1 0x80 PUSH2 0x44E DUP9 DUP3 DUP10 ADD PUSH2 0x3D0 JUMP JUMPDEST SWAP2 POP POP SWAP3 SWAP6 POP SWAP3 SWAP6 SWAP1 SWAP4 POP JUMP JUMPDEST PUSH2 0x464 DUP2 PUSH2 0x3A9 JUMP JUMPDEST DUP3 MSTORE POP POP JUMP JUMPDEST PUSH0 PUSH1 0x20 DUP3 ADD SWAP1 POP PUSH2 0x47D PUSH0 DUP4 ADD DUP5 PUSH2 0x45B JUMP JUMPDEST SWAP3 SWAP2 POP POP JUMP JUMPDEST PUSH2 0x48C DUP2 PUSH2 0x357 JUMP JUMPDEST DUP3 MSTORE POP POP JUMP JUMPDEST PUSH0 PUSH1 0x20 DUP3 ADD SWAP1 POP PUSH2 0x4A5 PUSH0 DUP4 ADD DUP5 PUSH2 0x483 JUMP JUMPDEST SWAP3 SWAP2 POP POP JUMP JUMPDEST PUSH0 PUSH1 0x40 DUP3 ADD SWAP1 POP PUSH2 0x4BE PUSH0 DUP4 ADD DUP6 PUSH2 0x483 JUMP JUMPDEST PUSH2 0x4CB PUSH1 0x20 DUP4 ADD DUP5 PUSH2 0x483 JUMP JUMPDEST SWAP4 SWAP3 POP POP POP JUMP JUMPDEST PUSH1 0x80 MLOAD PUSH1 0xA0 MLOAD PUSH1 0xC0 MLOAD PUSH2 0x225F PUSH2 0x542 PUSH0 CODECOPY PUSH0 DUP2 DUP2 PUSH2 0x497 ADD MSTORE DUP2 DUP2 PUSH2 0x55D ADD MSTORE PUSH2 0x948 ADD MSTORE PUSH0 DUP2 DUP2 PUSH2 0x4B8 ADD MSTORE DUP2 DUP2 PUSH2 0x13B8 ADD MSTORE PUSH2 0x16FB ADD MSTORE PUSH0 DUP2 DUP2 PUSH2 0x7DD ADD MSTORE DUP2 DUP2 PUSH2 0x9C6 ADD MSTORE DUP2 DUP2 PUSH2 0xAF3 ADD MSTORE DUP2 DUP2 PUSH2 0xEEE ADD MSTORE DUP2 DUP2 PUSH2 0x1763 ADD MSTORE DUP2 DUP2 PUSH2 0x1843 ADD MSTORE PUSH2 0x196F ADD MSTORE PUSH2 0x225F PUSH0 RETURN INVALID PUSH1 0x80 PUSH1 0x40 MSTORE PUSH1 0x4 CALLDATASIZE LT PUSH2 0x122 JUMPI PUSH0 CALLDATALOAD PUSH1 0xE0 SHR DUP1 PUSH4 0x7DC532C5 GT PUSH2 0x9F JUMPI DUP1 PUSH4 0x93295C1C GT PUSH2 0x63 JUMPI DUP1 PUSH4 0x93295C1C EQ PUSH2 0x3B5 JUMPI DUP1 PUSH4 0x939495BD EQ PUSH2 0x3DF JUMPI DUP1 PUSH4 0xC6ACA33C EQ PUSH2 0x409 JUMPI DUP1 PUSH4 0xF2FDE38B EQ PUSH2 0x433 JUMPI DUP1 PUSH4 0xF39B1809 EQ PUSH2 0x45B JUMPI PUSH2 0x164 JUMP JUMPDEST DUP1 PUSH4 0x7DC532C5 EQ PUSH2 0x2EB JUMPI DUP1 PUSH4 0x82FE54B5 EQ PUSH2 0x313 JUMPI DUP1 PUSH4 0x8648840A EQ PUSH2 0x33B JUMPI DUP1 PUSH4 0x8DA5CB5B EQ PUSH2 0x363 JUMPI DUP1 PUSH4 0x931FB90E EQ PUSH2 0x38D JUMPI PUSH2 0x164 JUMP JUMPDEST DUP1 PUSH4 0x6900670C GT PUSH2 0xE6 JUMPI DUP1 PUSH4 0x6900670C EQ PUSH2 0x22F JUMPI DUP1 PUSH4 0x698B7241 EQ PUSH2 0x259 JUMPI DUP1 PUSH4 0x6F05C64C EQ PUSH2 0x281 JUMPI DUP1 PUSH4 0x715018A6 EQ PUSH2 0x2AB JUMPI DUP1 PUSH4 0x779BB136 EQ PUSH2 0x2C1 JUMPI PUSH2 0x164 JUMP JUMPDEST DUP1 PUSH4 0x594CC69 EQ PUSH2 0x1A1 JUMPI DUP1 PUSH4 0x16A1930F EQ PUSH2 0x1CF JUMPI DUP1 PUSH4 0x1A003ECB EQ PUSH2 0x1D9 JUMPI DUP1 PUSH4 0x38D5C916 EQ PUSH2 0x1EF JUMPI DUP1 PUSH4 0x5C975ABB EQ PUSH2 0x205 JUMPI PUSH2 0x164 JUMP JUMPDEST CALLDATASIZE PUSH2 0x164 JUMPI CALLER PUSH1 0x40 MLOAD PUSH32 0xE1D158FF00000000000000000000000000000000000000000000000000000000 DUP2 MSTORE PUSH1 0x4 ADD PUSH2 0x15B SWAP2 SWAP1 PUSH2 0x1CAF JUMP JUMPDEST PUSH1 0x40 MLOAD DUP1 SWAP2 SUB SWAP1 REVERT JUMPDEST CALLER PUSH1 0x40 MLOAD PUSH32 0xE1D158FF00000000000000000000000000000000000000000000000000000000 DUP2 MSTORE PUSH1 0x4 ADD PUSH2 0x198 SWAP2 SWAP1 PUSH2 0x1CAF JUMP JUMPDEST PUSH1 0x40 MLOAD DUP1 SWAP2 SUB SWAP1 REVERT JUMPDEST CALLVALUE DUP1 ISZERO PUSH2 0x1AC JUMPI PUSH0 PUSH0 REVERT JUMPDEST POP PUSH2 0x1B5 PUSH2 0x485 JUMP JUMPDEST PUSH1 0x40 MLOAD PUSH2 0x1C6 SWAP6 SWAP5 SWAP4 SWAP3 SWAP2 SWAP1 PUSH2 0x1CFA JUMP JUMPDEST PUSH1 0x40 MLOAD DUP1 SWAP2 SUB SWAP1 RETURN JUMPDEST PUSH2 0x1D7 PUSH2 0x50A JUMP JUMPDEST STOP JUMPDEST CALLVALUE DUP1 ISZERO PUSH2 0x1E4 JUMPI PUSH0 PUSH0 REVERT JUMPDEST POP PUSH2 0x1ED PUSH2 0x6F1 JUMP JUMPDEST STOP JUMPDEST CALLVALUE DUP1 ISZERO PUSH2 0x1FA JUMPI PUSH0 PUSH0 REVERT JUMPDEST POP PUSH2 0x203 PUSH2 0x759 JUMP JUMPDEST STOP JUMPDEST CALLVALUE DUP1 ISZERO PUSH2 0x210 JUMPI PUSH0 PUSH0 REVERT JUMPDEST POP PUSH2 0x219 PUSH2 0x7C1 JUMP JUMPDEST PUSH1 0x40 MLOAD PUSH2 0x226 SWAP2 SWAP1 PUSH2 0x1D4B JUMP JUMPDEST PUSH1 0x40 MLOAD DUP1 SWAP2 SUB SWAP1 RETURN JUMPDEST CALLVALUE DUP1 ISZERO PUSH2 0x23A JUMPI PUSH0 PUSH0 REVERT JUMPDEST POP PUSH2 0x243 PUSH2 0x7D7 JUMP JUMPDEST PUSH1 0x40 MLOAD PUSH2 0x250 SWAP2 SWAP1 PUSH2 0x1D64 JUMP JUMPDEST PUSH1 0x40 MLOAD DUP1 SWAP2 SUB SWAP1 RETURN JUMPDEST CALLVALUE DUP1 ISZERO PUSH2 0x264 JUMPI PUSH0 PUSH0 REVERT JUMPDEST POP PUSH2 0x27F PUSH1 0x4 DUP1 CALLDATASIZE SUB DUP2 ADD SWAP1 PUSH2 0x27A SWAP2 SWAP1 PUSH2 0x1DAB JUMP JUMPDEST PUSH2 0x901 JUMP JUMPDEST STOP JUMPDEST CALLVALUE DUP1 ISZERO PUSH2 0x28C JUMPI PUSH0 PUSH0 REVERT JUMPDEST POP PUSH2 0x295 PUSH2 0xB3C JUMP JUMPDEST PUSH1 0x40 MLOAD PUSH2 0x2A2 SWAP2 SWAP1 PUSH2 0x1E31 JUMP JUMPDEST PUSH1 0x40 MLOAD DUP1 SWAP2 SUB SWAP1 RETURN JUMPDEST CALLVALUE DUP1 ISZERO PUSH2 0x2B6 JUMPI PUSH0 PUSH0 REVERT JUMPDEST POP PUSH2 0x2BF PUSH2 0xB61 JUMP JUMPDEST STOP JUMPDEST CALLVALUE DUP1 ISZERO PUSH2 0x2CC JUMPI PUSH0 PUSH0 REVERT JUMPDEST POP PUSH2 0x2D5 PUSH2 0xB74 JUMP JUMPDEST PUSH1 0x40 MLOAD PUSH2 0x2E2 SWAP2 SWAP1 PUSH2 0x1D64 JUMP JUMPDEST PUSH1 0x40 MLOAD DUP1 SWAP2 SUB SWAP1 RETURN JUMPDEST CALLVALUE DUP1 ISZERO PUSH2 0x2F6 JUMPI PUSH0 PUSH0 REVERT JUMPDEST POP PUSH2 0x311 PUSH1 0x4 DUP1 CALLDATASIZE SUB DUP2 ADD SWAP1 PUSH2 0x30C SWAP2 SWAP1 PUSH2 0x1E74 JUMP JUMPDEST PUSH2 0xBF3 JUMP JUMPDEST STOP JUMPDEST CALLVALUE DUP1 ISZERO PUSH2 0x31E JUMPI PUSH0 PUSH0 REVERT JUMPDEST POP PUSH2 0x339 PUSH1 0x4 DUP1 CALLDATASIZE SUB DUP2 ADD SWAP1 PUSH2 0x334 SWAP2 SWAP1 PUSH2 0x1DAB JUMP JUMPDEST PUSH2 0xE73 JUMP JUMPDEST STOP JUMPDEST CALLVALUE DUP1 ISZERO PUSH2 0x346 JUMPI PUSH0 PUSH0 REVERT JUMPDEST POP PUSH2 0x361 PUSH1 0x4 DUP1 CALLDATASIZE SUB DUP2 ADD SWAP1 PUSH2 0x35C SWAP2 SWAP1 PUSH2 0x1E74 JUMP JUMPDEST PUSH2 0xE87 JUMP JUMPDEST STOP JUMPDEST CALLVALUE DUP1 ISZERO PUSH2 0x36E JUMPI PUSH0 PUSH0 REVERT JUMPDEST POP PUSH2 0x377 PUSH2 0xEA3 JUMP JUMPDEST PUSH1 0x40 MLOAD PUSH2 0x384 SWAP2 SWAP1 PUSH2 0x1CAF JUMP JUMPDEST PUSH1 0x40 MLOAD DUP1 SWAP2 SUB SWAP1 RETURN JUMPDEST CALLVALUE DUP1 ISZERO PUSH2 0x398 JUMPI PUSH0 PUSH0 REVERT JUMPDEST POP PUSH2 0x3B3 PUSH1 0x4 DUP1 CALLDATASIZE SUB DUP2 ADD SWAP1 PUSH2 0x3AE SWAP2 SWAP1 PUSH2 0x1DAB JUMP JUMPDEST PUSH2 0xECB JUMP JUMPDEST STOP JUMPDEST CALLVALUE DUP1 ISZERO PUSH2 0x3C0 JUMPI PUSH0 PUSH0 REVERT JUMPDEST POP PUSH2 0x3C9 PUSH2 0xEDF JUMP JUMPDEST PUSH1 0x40 MLOAD PUSH2 0x3D6 SWAP2 SWAP1 PUSH2 0x1D64 JUMP JUMPDEST PUSH1 0x40 MLOAD DUP1 SWAP2 SUB SWAP1 RETURN JUMPDEST CALLVALUE DUP1 ISZERO PUSH2 0x3EA JUMPI PUSH0 PUSH0 REVERT JUMPDEST POP PUSH2 0x3F3 PUSH2 0xEE8 JUMP JUMPDEST PUSH1 0x40 MLOAD PUSH2 0x400 SWAP2 SWAP1 PUSH2 0x1D64 JUMP JUMPDEST PUSH1 0x40 MLOAD DUP1 SWAP2 SUB SWAP1 RETURN JUMPDEST CALLVALUE DUP1 ISZERO PUSH2 0x414 JUMPI PUSH0 PUSH0 REVERT JUMPDEST POP PUSH2 0x41D PUSH2 0xF87 JUMP JUMPDEST PUSH1 0x40 MLOAD PUSH2 0x42A SWAP2 SWAP1 PUSH2 0x1D64 JUMP JUMPDEST PUSH1 0x40 MLOAD DUP1 SWAP2 SUB SWAP1 RETURN JUMPDEST CALLVALUE DUP1 ISZERO PUSH2 0x43E JUMPI PUSH0 PUSH0 REVERT JUMPDEST POP PUSH2 0x459 PUSH1 0x4 DUP1 CALLDATASIZE SUB DUP2 ADD SWAP1 PUSH2 0x454 SWAP2 SWAP1 PUSH2 0x1E74 JUMP JUMPDEST PUSH2 0xF90 JUMP JUMPDEST STOP JUMPDEST CALLVALUE DUP1 ISZERO PUSH2 0x466 JUMPI PUSH0 PUSH0 REVERT JUMPDEST POP PUSH2 0x46F PUSH2 0x1014 JUMP JUMPDEST PUSH1 0x40 MLOAD PUSH2 0x47C SWAP2 SWAP1 PUSH2 0x1D64 JUMP JUMPDEST PUSH1 0x40 MLOAD DUP1 SWAP2 SUB SWAP1 RETURN JUMPDEST PUSH0 PUSH0 PUSH0 PUSH0 PUSH0 PUSH2 0x492 PUSH2 0x7C1 JUMP JUMPDEST PUSH1 0x5 SLOAD PUSH32 0x0 PUSH32 0x0 PUSH1 0x2 PUSH0 SWAP1 SLOAD SWAP1 PUSH2 0x100 EXP SWAP1 DIV PUSH20 0xFFFFFFFFFFFFFFFFFFFFFFFFFFFFFFFFFFFFFFFF AND SWAP5 POP SWAP5 POP SWAP5 POP SWAP5 POP SWAP5 POP SWAP1 SWAP2 SWAP3 SWAP4 SWAP5 JUMP JUMPDEST CALLVALUE PUSH0 PUSH2 0x515 DUP3 PUSH2 0x101D JUMP JUMPDEST SWAP1 POP PUSH0 DUP2 SUB PUSH2 0x55B JUMPI CALLER PUSH1 0x40 MLOAD PUSH32 0xB2F0923100000000000000000000000000000000000000000000000000000000 DUP2 MSTORE PUSH1 0x4 ADD PUSH2 0x552 SWAP2 SWAP1 PUSH2 0x1CAF JUMP JUMPDEST PUSH1 0x40 MLOAD DUP1 SWAP2 SUB SWAP1 REVERT JUMPDEST PUSH32 0x0 PUSH1 0x5 SLOAD DUP3 PUSH2 0x58A SWAP2 SWAP1 PUSH2 0x1ECC JUMP JUMPDEST GT ISZERO PUSH2 0x5CD JUMPI DUP1 PUSH1 0x40 MLOAD PUSH32 0x2900B02C00000000000000000000000000000000000000000000000000000000 DUP2 MSTORE PUSH1 0x4 ADD PUSH2 0x5C4 SWAP2 SWAP1 PUSH2 0x1D64 JUMP JUMPDEST PUSH1 0x40 MLOAD DUP1 SWAP2 SUB SWAP1 REVERT JUMPDEST PUSH2 0x5D5 PUSH2 0x104C JUMP JUMPDEST PUSH0 PUSH2 0x5DF CALLVALUE PUSH2 0x101D JUMP JUMPDEST SWAP1 POP CALLVALUE PUSH1 0x6 PUSH0 PUSH0 PUSH20 0xFFFFFFFFFFFFFFFFFFFFFFFFFFFFFFFFFFFFFFFF AND PUSH20 0xFFFFFFFFFFFFFFFFFFFFFFFFFFFFFFFFFFFFFFFF AND DUP2 MSTORE PUSH1 0x20 ADD SWAP1 DUP2 MSTORE PUSH1 0x20 ADD PUSH0 KECCAK256 PUSH0 CALLER PUSH20 0xFFFFFFFFFFFFFFFFFFFFFFFFFFFFFFFFFFFFFFFF AND PUSH20 0xFFFFFFFFFFFFFFFFFFFFFFFFFFFFFFFFFFFFFFFF AND DUP2 MSTORE PUSH1 0x20 ADD SWAP1 DUP2 MSTORE PUSH1 0x20 ADD PUSH0 KECCAK256 PUSH0 DUP3 DUP3 SLOAD PUSH2 0x668 SWAP2 SWAP1 PUSH2 0x1ECC JUMP JUMPDEST SWAP3 POP POP DUP2 SWAP1 SSTORE POP PUSH1 0x3 PUSH0 DUP2 SLOAD DUP1 SWAP3 SWAP2 SWAP1 PUSH2 0x681 SWAP1 PUSH2 0x1EFF JUMP JUMPDEST SWAP2 SWAP1 POP SSTORE POP DUP1 PUSH1 0x5 PUSH0 DUP3 DUP3 SLOAD PUSH2 0x697 SWAP2 SWAP1 PUSH2 0x1ECC JUMP JUMPDEST SWAP3 POP POP DUP2 SWAP1 SSTORE POP CALLER PUSH20 0xFFFFFFFFFFFFFFFFFFFFFFFFFFFFFFFFFFFFFFFF AND PUSH32 0x9D15693852BF60DC27BD5AA831D0351359B7D01D428AE1BAAE11F15CBCFEBAFD DUP3 PUSH1 0x40 MLOAD PUSH2 0x6E4 SWAP2 SWAP1 PUSH2 0x1D64 JUMP JUMPDEST PUSH1 0x40 MLOAD DUP1 SWAP2 SUB SWAP1 LOG2 POP POP POP JUMP JUMPDEST PUSH2 0x6F9 PUSH2 0x108D JUMP JUMPDEST PUSH2 0x701 PUSH2 0x104C JUMP JUMPDEST PUSH2 0x709 PUSH2 0x1114 JUMP JUMPDEST CALLER PUSH20 0xFFFFFFFFFFFFFFFFFFFFFFFFFFFFFFFFFFFFFFFF AND PUSH32 0x65AB6ADC87722A7ACD973FFED16CBA7CFDF07B5329157A7192434753BA9DAC13 TIMESTAMP PUSH1 0x40 MLOAD PUSH2 0x74F SWAP2 SWAP1 PUSH2 0x1D64 JUMP JUMPDEST PUSH1 0x40 MLOAD DUP1 SWAP2 SUB SWAP1 LOG2 JUMP JUMPDEST PUSH2 0x761 PUSH2 0x108D JUMP JUMPDEST PUSH2 0x769 PUSH2 0x1176 JUMP JUMPDEST PUSH2 0x771 PUSH2 0x11B6 JUMP JUMPDEST CALLER PUSH20 0xFFFFFFFFFFFFFFFFFFFFFFFFFFFFFFFFFFFFFFFF AND PUSH32 0x8AF9CF236F4B3AFB8D03262D5BEF5D95DB4DA02AA57892CD6474E8097F4F2B7 TIMESTAMP PUSH1 0x40 MLOAD PUSH2 0x7B7 SWAP2 SWAP1 PUSH2 0x1D64 JUMP JUMPDEST PUSH1 0x40 MLOAD DUP1 SWAP2 SUB SWAP1 LOG2 JUMP JUMPDEST PUSH0 PUSH1 0x1 PUSH1 0x14 SWAP1 SLOAD SWAP1 PUSH2 0x100 EXP SWAP1 DIV PUSH1 0xFF AND SWAP1 POP SWAP1 JUMP JUMPDEST PUSH0 PUSH1 0x6 PUSH0 PUSH32 0x0 PUSH20 0xFFFFFFFFFFFFFFFFFFFFFFFFFFFFFFFFFFFFFFFF AND PUSH20 0xFFFFFFFFFFFFFFFFFFFFFFFFFFFFFFFFFFFFFFFF AND DUP2 MSTORE PUSH1 0x20 ADD SWAP1 DUP2 MSTORE PUSH1 0x20 ADD PUSH0 KECCAK256 PUSH0 CALLER PUSH20 0xFFFFFFFFFFFFFFFFFFFFFFFFFFFFFFFFFFFFFFFF AND PUSH20 0xFFFFFFFFFFFFFFFFFFFFFFFFFFFFFFFFFFFFFFFF AND DUP2 MSTORE PUSH1 0x20 ADD SWAP1 DUP2 MSTORE PUSH1 0x20 ADD PUSH0 KECCAK256 SLOAD PUSH2 0x8F2 PUSH1 0x6 PUSH0 PUSH0 PUSH20 0xFFFFFFFFFFFFFFFFFFFFFFFFFFFFFFFFFFFFFFFF AND PUSH20 0xFFFFFFFFFFFFFFFFFFFFFFFFFFFFFFFFFFFFFFFF AND DUP2 MSTORE PUSH1 0x20 ADD SWAP1 DUP2 MSTORE PUSH1 0x20 ADD PUSH0 KECCAK256 PUSH0 CALLER PUSH20 0xFFFFFFFFFFFFFFFFFFFFFFFFFFFFFFFFFFFFFFFF AND PUSH20 0xFFFFFFFFFFFFFFFFFFFFFFFFFFFFFFFFFFFFFFFF AND DUP2 MSTORE PUSH1 0x20 ADD SWAP1 DUP2 MSTORE PUSH1 0x20 ADD PUSH0 KECCAK256 SLOAD PUSH2 0x101D JUMP JUMPDEST PUSH2 0x8FC SWAP2 SWAP1 PUSH2 0x1ECC JUMP JUMPDEST SWAP1 POP SWAP1 JUMP JUMPDEST DUP1 PUSH0 DUP2 SUB PUSH2 0x946 JUMPI CALLER PUSH1 0x40 MLOAD PUSH32 0xB2F0923100000000000000000000000000000000000000000000000000000000 DUP2 MSTORE PUSH1 0x4 ADD PUSH2 0x93D SWAP2 SWAP1 PUSH2 0x1CAF JUMP JUMPDEST PUSH1 0x40 MLOAD DUP1 SWAP2 SUB SWAP1 REVERT JUMPDEST PUSH32 0x0 PUSH1 0x5 SLOAD DUP3 PUSH2 0x975 SWAP2 SWAP1 PUSH2 0x1ECC JUMP JUMPDEST GT ISZERO PUSH2 0x9B8 JUMPI DUP1 PUSH1 0x40 MLOAD PUSH32 0x2900B02C00000000000000000000000000000000000000000000000000000000 DUP2 MSTORE PUSH1 0x4 ADD PUSH2 0x9AF SWAP2 SWAP1 PUSH2 0x1D64 JUMP JUMPDEST PUSH1 0x40 MLOAD DUP1 SWAP2 SUB SWAP1 REVERT JUMPDEST PUSH2 0x9C0 PUSH2 0x104C JUMP JUMPDEST DUP2 PUSH1 0x6 PUSH0 PUSH32 0x0 PUSH20 0xFFFFFFFFFFFFFFFFFFFFFFFFFFFFFFFFFFFFFFFF AND PUSH20 0xFFFFFFFFFFFFFFFFFFFFFFFFFFFFFFFFFFFFFFFF AND DUP2 MSTORE PUSH1 0x20 ADD SWAP1 DUP2 MSTORE PUSH1 0x20 ADD PUSH0 KECCAK256 PUSH0 CALLER PUSH20 0xFFFFFFFFFFFFFFFFFFFFFFFFFFFFFFFFFFFFFFFF AND PUSH20 0xFFFFFFFFFFFFFFFFFFFFFFFFFFFFFFFFFFFFFFFF AND DUP2 MSTORE PUSH1 0x20 ADD SWAP1 DUP2 MSTORE PUSH1 0x20 ADD PUSH0 KECCAK256 PUSH0 DUP3 DUP3 SLOAD PUSH2 0xA67 SWAP2 SWAP1 PUSH2 0x1ECC JUMP JUMPDEST SWAP3 POP POP DUP2 SWAP1 SSTORE POP PUSH1 0x3 PUSH0 DUP2 SLOAD DUP1 SWAP3 SWAP2 SWAP1 PUSH2 0xA80 SWAP1 PUSH2 0x1EFF JUMP JUMPDEST SWAP2 SWAP1 POP SSTORE POP DUP2 PUSH1 0x5 PUSH0 DUP3 DUP3 SLOAD PUSH2 0xA96 SWAP2 SWAP1 PUSH2 0x1ECC JUMP JUMPDEST SWAP3 POP POP DUP2 SWAP1 SSTORE POP CALLER PUSH20 0xFFFFFFFFFFFFFFFFFFFFFFFFFFFFFFFFFFFFFFFF AND PUSH32 0x9D15693852BF60DC27BD5AA831D0351359B7D01D428AE1BAAE11F15CBCFEBAFD DUP4 PUSH1 0x40 MLOAD PUSH2 0xAE3 SWAP2 SWAP1 PUSH2 0x1D64 JUMP JUMPDEST PUSH1 0x40 MLOAD DUP1 SWAP2 SUB SWAP1 LOG2 PUSH2 0xB38 CALLER ADDRESS DUP5 PUSH32 0x0 PUSH20 0xFFFFFFFFFFFFFFFFFFFFFFFFFFFFFFFFFFFFFFFF AND PUSH2 0x1218 SWAP1 SWAP4 SWAP3 SWAP2 SWAP1 PUSH4 0xFFFFFFFF AND JUMP JUMPDEST POP POP JUMP JUMPDEST PUSH1 0x2 PUSH0 SWAP1 SLOAD SWAP1 PUSH2 0x100 EXP SWAP1 DIV PUSH20 0xFFFFFFFFFFFFFFFFFFFFFFFFFFFFFFFFFFFFFFFF AND DUP2 JUMP JUMPDEST PUSH2 0xB69 PUSH2 0x108D JUMP JUMPDEST PUSH2 0xB72 PUSH0 PUSH2 0x129A JUMP JUMPDEST JUMP JUMPDEST PUSH0 PUSH1 0x6 PUSH0 PUSH0 PUSH20 0xFFFFFFFFFFFFFFFFFFFFFFFFFFFFFFFFFFFFFFFF AND PUSH20 0xFFFFFFFFFFFFFFFFFFFFFFFFFFFFFFFFFFFFFFFF AND DUP2 MSTORE PUSH1 0x20 ADD SWAP1 DUP2 MSTORE PUSH1 0x20 ADD PUSH0 KECCAK256 PUSH0 CALLER PUSH20 0xFFFFFFFFFFFFFFFFFFFFFFFFFFFFFFFFFFFFFFFF AND PUSH20 0xFFFFFFFFFFFFFFFFFFFFFFFFFFFFFFFFFFFFFFFF AND DUP2 MSTORE PUSH1 0x20 ADD SWAP1 DUP2 MSTORE PUSH1 0x20 ADD PUSH0 KECCAK256 SLOAD SWAP1 POP SWAP1 JUMP JUMPDEST PUSH2 0xBFB PUSH2 0x108D JUMP JUMPDEST PUSH2 0xC03 PUSH2 0x1176 JUMP JUMPDEST PUSH0 PUSH20 0xFFFFFFFFFFFFFFFFFFFFFFFFFFFFFFFFFFFFFFFF AND DUP2 PUSH20 0xFFFFFFFFFFFFFFFFFFFFFFFFFFFFFFFFFFFFFFFF AND SUB PUSH2 0xC68 JUMPI PUSH1 0x40 MLOAD PUSH32 0x463858D600000000000000000000000000000000000000000000000000000000 DUP2 MSTORE PUSH1 0x4 ADD PUSH1 0x40 MLOAD DUP1 SWAP2 SUB SWAP1 REVERT JUMPDEST DUP1 PUSH20 0xFFFFFFFFFFFFFFFFFFFFFFFFFFFFFFFFFFFFFFFF AND PUSH4 0xFEAF968C PUSH1 0x40 MLOAD DUP2 PUSH4 0xFFFFFFFF AND PUSH1 0xE0 SHL DUP2 MSTORE PUSH1 0x4 ADD PUSH1 0xA0 PUSH1 0x40 MLOAD DUP1 DUP4 SUB DUP2 DUP7 GAS STATICCALL SWAP3 POP POP POP DUP1 ISZERO PUSH2 0xCD0 JUMPI POP PUSH1 0x40 MLOAD RETURNDATASIZE PUSH1 0x1F NOT PUSH1 0x1F DUP3 ADD AND DUP3 ADD DUP1 PUSH1 0x40 MSTORE POP DUP2 ADD SWAP1 PUSH2 0xCCD SWAP2 SWAP1 PUSH2 0x1FCC JUMP JUMPDEST PUSH1 0x1 JUMPDEST PUSH2 0xD11 JUMPI DUP1 PUSH1 0x40 MLOAD PUSH32 0x59EEA31500000000000000000000000000000000000000000000000000000000 DUP2 MSTORE PUSH1 0x4 ADD PUSH2 0xD08 SWAP2 SWAP1 PUSH2 0x1CAF JUMP JUMPDEST PUSH1 0x40 MLOAD DUP1 SWAP2 SUB SWAP1 REVERT JUMPDEST PUSH0 DUP5 SGT PUSH2 0xD55 JUMPI DUP6 PUSH1 0x40 MLOAD PUSH32 0x59EEA31500000000000000000000000000000000000000000000000000000000 DUP2 MSTORE PUSH1 0x4 ADD PUSH2 0xD4C SWAP2 SWAP1 PUSH2 0x1CAF JUMP JUMPDEST PUSH1 0x40 MLOAD DUP1 SWAP2 SUB SWAP1 REVERT JUMPDEST PUSH2 0xE10 PUSH2 0xFFFF AND DUP3 TIMESTAMP PUSH2 0xD68 SWAP2 SWAP1 PUSH2 0x2043 JUMP JUMPDEST GT ISZERO PUSH2 0xDAB JUMPI DUP4 PUSH1 0x40 MLOAD PUSH32 0x2609A26500000000000000000000000000000000000000000000000000000000 DUP2 MSTORE PUSH1 0x4 ADD PUSH2 0xDA2 SWAP2 SWAP1 PUSH2 0x1D64 JUMP JUMPDEST PUSH1 0x40 MLOAD DUP1 SWAP2 SUB SWAP1 REVERT JUMPDEST PUSH0 PUSH1 0x2 PUSH0 SWAP1 SLOAD SWAP1 PUSH2 0x100 EXP SWAP1 DIV PUSH20 0xFFFFFFFFFFFFFFFFFFFFFFFFFFFFFFFFFFFFFFFF AND SWAP1 POP DUP7 PUSH1 0x2 PUSH0 PUSH2 0x100 EXP DUP2 SLOAD DUP2 PUSH20 0xFFFFFFFFFFFFFFFFFFFFFFFFFFFFFFFFFFFFFFFF MUL NOT AND SWAP1 DUP4 PUSH20 0xFFFFFFFFFFFFFFFFFFFFFFFFFFFFFFFFFFFFFFFF AND MUL OR SWAP1 SSTORE POP DUP7 PUSH20 0xFFFFFFFFFFFFFFFFFFFFFFFFFFFFFFFFFFFFFFFF AND DUP2 PUSH20 0xFFFFFFFFFFFFFFFFFFFFFFFFFFFFFFFFFFFFFFFF AND PUSH32 0x3028D95BD98A5EC8C81B55C2B61E734DDE89BB773697B429BD195FD00582B30 PUSH1 0x40 MLOAD PUSH1 0x40 MLOAD DUP1 SWAP2 SUB SWAP1 LOG3 POP POP POP POP POP POP POP JUMP JUMPDEST PUSH2 0xE7B PUSH2 0x104C JUMP JUMPDEST PUSH2 0xE84 DUP2 PUSH2 0x135D JUMP JUMPDEST POP JUMP JUMPDEST PUSH2 0xE8F PUSH2 0x108D JUMP JUMPDEST PUSH2 0xE97 PUSH2 0x1176 JUMP JUMPDEST PUSH2 0xEA0 DUP2 PUSH2 0xF90 JUMP JUMPDEST POP JUMP JUMPDEST PUSH0 PUSH1 0x1 PUSH0 SWAP1 SLOAD SWAP1 PUSH2 0x100 EXP SWAP1 DIV PUSH20 0xFFFFFFFFFFFFFFFFFFFFFFFFFFFFFFFFFFFFFFFF AND SWAP1 POP SWAP1 JUMP JUMPDEST PUSH2 0xED3 PUSH2 0x104C JUMP JUMPDEST PUSH2 0xEDC DUP2 PUSH2 0x16AC JUMP JUMPDEST POP JUMP JUMPDEST PUSH0 PUSH1 0x5 SLOAD SWAP1 POP SWAP1 JUMP JUMPDEST PUSH0 PUSH1 0x6 PUSH0 PUSH32 0x0 PUSH20 0xFFFFFFFFFFFFFFFFFFFFFFFFFFFFFFFFFFFFFFFF AND PUSH20 0xFFFFFFFFFFFFFFFFFFFFFFFFFFFFFFFFFFFFFFFF AND DUP2 MSTORE PUSH1 0x20 ADD SWAP1 DUP2 MSTORE PUSH1 0x20 ADD PUSH0 KECCAK256 PUSH0 CALLER PUSH20 0xFFFFFFFFFFFFFFFFFFFFFFFFFFFFFFFFFFFFFFFF AND PUSH20 0xFFFFFFFFFFFFFFFFFFFFFFFFFFFFFFFFFFFFFFFF AND DUP2 MSTORE PUSH1 0x20 ADD SWAP1 DUP2 MSTORE PUSH1 0x20 ADD PUSH0 KECCAK256 SLOAD SWAP1 POP SWAP1 JUMP JUMPDEST PUSH0 PUSH1 0x4 SLOAD SWAP1 POP SWAP1 JUMP JUMPDEST PUSH2 0xF98 PUSH2 0x108D JUMP JUMPDEST PUSH0 PUSH20 0xFFFFFFFFFFFFFFFFFFFFFFFFFFFFFFFFFFFFFFFF AND DUP2 PUSH20 0xFFFFFFFFFFFFFFFFFFFFFFFFFFFFFFFFFFFFFFFF AND SUB PUSH2 0x1008 JUMPI PUSH0 PUSH1 0x40 MLOAD PUSH32 0x1E4FBDF700000000000000000000000000000000000000000000000000000000 DUP2 MSTORE PUSH1 0x4 ADD PUSH2 0xFFF SWAP2 SWAP1 PUSH2 0x1CAF JUMP JUMPDEST PUSH1 0x40 MLOAD DUP1 SWAP2 SUB SWAP1 REVERT JUMPDEST PUSH2 0x1011 DUP2 PUSH2 0x129A JUMP JUMPDEST POP JUMP JUMPDEST PUSH0 PUSH1 0x3 SLOAD SWAP1 POP SWAP1 JUMP JUMPDEST PUSH0 PUSH9 0x56BC75E2D63100000 PUSH2 0x1030 PUSH2 0x19BF JUMP JUMPDEST DUP4 PUSH2 0x103B SWAP2 SWAP1 PUSH2 0x2076 JUMP JUMPDEST PUSH2 0x1045 SWAP2 SWAP1 PUSH2 0x20E4 JUMP JUMPDEST SWAP1 POP SWAP2 SWAP1 POP JUMP JUMPDEST PUSH2 0x1054 PUSH2 0x7C1 JUMP JUMPDEST ISZERO PUSH2 0x108B JUMPI PUSH1 0x40 MLOAD PUSH32 0xD93C066500000000000000000000000000000000000000000000000000000000 DUP2 MSTORE PUSH1 0x4 ADD PUSH1 0x40 MLOAD DUP1 SWAP2 SUB SWAP1 REVERT JUMPDEST JUMP JUMPDEST PUSH2 0x1095 PUSH2 0x1AF9 JUMP JUMPDEST PUSH20 0xFFFFFFFFFFFFFFFFFFFFFFFFFFFFFFFFFFFFFFFF AND PUSH2 0x10B3 PUSH2 0xEA3 JUMP JUMPDEST PUSH20 0xFFFFFFFFFFFFFFFFFFFFFFFFFFFFFFFFFFFFFFFF AND EQ PUSH2 0x1112 JUMPI PUSH2 0x10D6 PUSH2 0x1AF9 JUMP JUMPDEST PUSH1 0x40 MLOAD PUSH32 0x118CDAA700000000000000000000000000000000000000000000000000000000 DUP2 MSTORE PUSH1 0x4 ADD PUSH2 0x1109 SWAP2 SWAP1 PUSH2 0x1CAF JUMP JUMPDEST PUSH1 0x40 MLOAD DUP1 SWAP2 SUB SWAP1 REVERT JUMPDEST JUMP JUMPDEST PUSH2 0x111C PUSH2 0x104C JUMP JUMPDEST PUSH1 0x1 DUP1 PUSH1 0x14 PUSH2 0x100 EXP DUP2 SLOAD DUP2 PUSH1 0xFF MUL NOT AND SWAP1 DUP4 ISZERO ISZERO MUL OR SWAP1 SSTORE POP PUSH32 0x62E78CEA01BEE320CD4E420270B5EA74000D11B0C9F74754EBDBFC544B05A258 PUSH2 0x115F PUSH2 0x1AF9 JUMP JUMPDEST PUSH1 0x40 MLOAD PUSH2 0x116C SWAP2 SWAP1 PUSH2 0x1CAF JUMP JUMPDEST PUSH1 0x40 MLOAD DUP1 SWAP2 SUB SWAP1 LOG1 JUMP JUMPDEST PUSH2 0x117E PUSH2 0x7C1 JUMP JUMPDEST PUSH2 0x11B4 JUMPI PUSH1 0x40 MLOAD PUSH32 0x8DFC202B00000000000000000000000000000000000000000000000000000000 DUP2 MSTORE PUSH1 0x4 ADD PUSH1 0x40 MLOAD DUP1 SWAP2 SUB SWAP1 REVERT JUMPDEST JUMP JUMPDEST PUSH2 0x11BE PUSH2 0x1176 JUMP JUMPDEST PUSH0 PUSH1 0x1 PUSH1 0x14 PUSH2 0x100 EXP DUP2 SLOAD DUP2 PUSH1 0xFF MUL NOT AND SWAP1 DUP4 ISZERO ISZERO MUL OR SWAP1 SSTORE POP PUSH32 0x5DB9EE0A495BF2E6FF9C91A7834C1BA4FDD244A5E8AA4E537BD38AEAE4B073AA PUSH2 0x1201 PUSH2 0x1AF9 JUMP JUMPDEST PUSH1 0x40 MLOAD PUSH2 0x120E SWAP2 SWAP1 PUSH2 0x1CAF JUMP JUMPDEST PUSH1 0x40 MLOAD DUP1 SWAP2 SUB SWAP1 LOG1 JUMP JUMPDEST PUSH2 0x1294 DUP5 DUP6 PUSH20 0xFFFFFFFFFFFFFFFFFFFFFFFFFFFFFFFFFFFFFFFF AND PUSH4 0x23B872DD DUP7 DUP7 DUP7 PUSH1 0x40 MLOAD PUSH1 0x24 ADD PUSH2 0x124D SWAP4 SWAP3 SWAP2 SWAP1 PUSH2 0x2114 JUMP JUMPDEST PUSH1 0x40 MLOAD PUSH1 0x20 DUP2 DUP4 SUB SUB DUP2 MSTORE SWAP1 PUSH1 0x40 MSTORE SWAP2 POP PUSH1 0xE0 SHL PUSH1 0x20 DUP3 ADD DUP1 MLOAD PUSH28 0xFFFFFFFFFFFFFFFFFFFFFFFFFFFFFFFFFFFFFFFFFFFFFFFFFFFFFFFF DUP4 DUP2 DUP4 AND OR DUP4 MSTORE POP POP POP POP PUSH2 0x1B00 JUMP JUMPDEST POP POP POP POP JUMP JUMPDEST PUSH0 PUSH1 0x1 PUSH0 SWAP1 SLOAD SWAP1 PUSH2 0x100 EXP SWAP1 DIV PUSH20 0xFFFFFFFFFFFFFFFFFFFFFFFFFFFFFFFFFFFFFFFF AND SWAP1 POP DUP2 PUSH1 0x1 PUSH0 PUSH2 0x100 EXP DUP2 SLOAD DUP2 PUSH20 0xFFFFFFFFFFFFFFFFFFFFFFFFFFFFFFFFFFFFFFFF MUL NOT AND SWAP1 DUP4 PUSH20 0xFFFFFFFFFFFFFFFFFFFFFFFFFFFFFFFFFFFFFFFF AND MUL OR SWAP1 SSTORE POP DUP2 PUSH20 0xFFFFFFFFFFFFFFFFFFFFFFFFFFFFFFFFFFFFFFFF AND DUP2 PUSH20 0xFFFFFFFFFFFFFFFFFFFFFFFFFFFFFFFFFFFFFFFF AND PUSH32 0x8BE0079C531659141344CD1FD0A4F28419497F9722A3DAAFE3B4186F6B6457E0 PUSH1 0x40 MLOAD PUSH1 0x40 MLOAD DUP1 SWAP2 SUB SWAP1 LOG3 POP POP JUMP JUMPDEST PUSH2 0x1365 PUSH2 0x1B9B JUMP JUMPDEST DUP1 PUSH0 PUSH2 0x1370 DUP3 PUSH2 0x101D JUMP JUMPDEST SWAP1 POP PUSH0 DUP2 SUB PUSH2 0x13B6 JUMPI CALLER PUSH1 0x40 MLOAD PUSH32 0xB2F0923100000000000000000000000000000000000000000000000000000000 DUP2 MSTORE PUSH1 0x4 ADD PUSH2 0x13AD SWAP2 SWAP1 PUSH2 0x1CAF JUMP JUMPDEST PUSH1 0x40 MLOAD DUP1 SWAP2 SUB SWAP1 REVERT JUMPDEST PUSH32 0x0 DUP2 GT ISZERO PUSH2 0x141B JUMPI DUP1 PUSH1 0x40 MLOAD PUSH32 0xC399356500000000000000000000000000000000000000000000000000000000 DUP2 MSTORE PUSH1 0x4 ADD PUSH2 0x1412 SWAP2 SWAP1 PUSH2 0x1D64 JUMP JUMPDEST PUSH1 0x40 MLOAD DUP1 SWAP2 SUB SWAP1 REVERT JUMPDEST PUSH1 0x6 PUSH0 PUSH0 PUSH20 0xFFFFFFFFFFFFFFFFFFFFFFFFFFFFFFFFFFFFFFFF AND PUSH20 0xFFFFFFFFFFFFFFFFFFFFFFFFFFFFFFFFFFFFFFFF AND DUP2 MSTORE PUSH1 0x20 ADD SWAP1 DUP2 MSTORE PUSH1 0x20 ADD PUSH0 KECCAK256 PUSH0 CALLER PUSH20 0xFFFFFFFFFFFFFFFFFFFFFFFFFFFFFFFFFFFFFFFF AND PUSH20 0xFFFFFFFFFFFFFFFFFFFFFFFFFFFFFFFFFFFFFFFF AND DUP2 MSTORE PUSH1 0x20 ADD SWAP1 DUP2 MSTORE PUSH1 0x20 ADD PUSH0 KECCAK256 SLOAD DUP3 GT ISZERO PUSH2 0x14DA JUMPI CALLER DUP2 PUSH1 0x40 MLOAD PUSH32 0x51A7314200000000000000000000000000000000000000000000000000000000 DUP2 MSTORE PUSH1 0x4 ADD PUSH2 0x14D1 SWAP3 SWAP2 SWAP1 PUSH2 0x2149 JUMP JUMPDEST PUSH1 0x40 MLOAD DUP1 SWAP2 SUB SWAP1 REVERT JUMPDEST PUSH0 PUSH2 0x14E4 DUP5 PUSH2 0x101D JUMP JUMPDEST SWAP1 POP DUP4 PUSH1 0x6 PUSH0 PUSH0 PUSH20 0xFFFFFFFFFFFFFFFFFFFFFFFFFFFFFFFFFFFFFFFF AND PUSH20 0xFFFFFFFFFFFFFFFFFFFFFFFFFFFFFFFFFFFFFFFF AND DUP2 MSTORE PUSH1 0x20 ADD SWAP1 DUP2 MSTORE PUSH1 0x20 ADD PUSH0 KECCAK256 PUSH0 CALLER PUSH20 0xFFFFFFFFFFFFFFFFFFFFFFFFFFFFFFFFFFFFFFFF AND PUSH20 0xFFFFFFFFFFFFFFFFFFFFFFFFFFFFFFFFFFFFFFFF AND DUP2 MSTORE PUSH1 0x20 ADD SWAP1 DUP2 MSTORE PUSH1 0x20 ADD PUSH0 KECCAK256 PUSH0 DUP3 DUP3 SLOAD PUSH2 0x156D SWAP2 SWAP1 PUSH2 0x2043 JUMP JUMPDEST SWAP3 POP POP DUP2 SWAP1 SSTORE POP PUSH1 0x4 PUSH0 DUP2 SLOAD DUP1 SWAP3 SWAP2 SWAP1 PUSH2 0x1586 SWAP1 PUSH2 0x1EFF JUMP JUMPDEST SWAP2 SWAP1 POP SSTORE POP DUP1 PUSH1 0x5 PUSH0 DUP3 DUP3 SLOAD PUSH2 0x159C SWAP2 SWAP1 PUSH2 0x2043 JUMP JUMPDEST SWAP3 POP POP DUP2 SWAP1 SSTORE POP CALLER PUSH20 0xFFFFFFFFFFFFFFFFFFFFFFFFFFFFFFFFFFFFFFFF AND PUSH32 0x9CDE449504E4972FFDDEC09813E0C252A1462D76BEF1864B9E7520DADB7183E8 DUP3 PUSH1 0x40 MLOAD PUSH2 0x15E9 SWAP2 SWAP1 PUSH2 0x1D64 JUMP JUMPDEST PUSH1 0x40 MLOAD DUP1 SWAP2 SUB SWAP1 LOG2 PUSH0 CALLER PUSH20 0xFFFFFFFFFFFFFFFFFFFFFFFFFFFFFFFFFFFFFFFF AND DUP6 PUSH1 0x40 MLOAD PUSH2 0x1616 SWAP1 PUSH2 0x219D JUMP JUMPDEST PUSH0 PUSH1 0x40 MLOAD DUP1 DUP4 SUB DUP2 DUP6 DUP8 GAS CALL SWAP3 POP POP POP RETURNDATASIZE DUP1 PUSH0 DUP2 EQ PUSH2 0x1650 JUMPI PUSH1 0x40 MLOAD SWAP2 POP PUSH1 0x1F NOT PUSH1 0x3F RETURNDATASIZE ADD AND DUP3 ADD PUSH1 0x40 MSTORE RETURNDATASIZE DUP3 MSTORE RETURNDATASIZE PUSH0 PUSH1 0x20 DUP5 ADD RETURNDATACOPY PUSH2 0x1655 JUMP JUMPDEST PUSH1 0x60 SWAP2 POP JUMPDEST POP POP SWAP1 POP DUP1 PUSH2 0x169D JUMPI CALLER DUP6 PUSH1 0x40 MLOAD PUSH32 0x6C5E1A1400000000000000000000000000000000000000000000000000000000 DUP2 MSTORE PUSH1 0x4 ADD PUSH2 0x1694 SWAP3 SWAP2 SWAP1 PUSH2 0x2149 JUMP JUMPDEST PUSH1 0x40 MLOAD DUP1 SWAP2 SUB SWAP1 REVERT JUMPDEST POP POP POP POP PUSH2 0x16A9 PUSH2 0x1BE8 JUMP JUMPDEST POP JUMP JUMPDEST PUSH2 0x16B4 PUSH2 0x1B9B JUMP JUMPDEST DUP1 PUSH0 DUP2 SUB PUSH2 0x16F9 JUMPI CALLER PUSH1 0x40 MLOAD PUSH32 0xB2F0923100000000000000000000000000000000000000000000000000000000 DUP2 MSTORE PUSH1 0x4 ADD PUSH2 0x16F0 SWAP2 SWAP1 PUSH2 0x1CAF JUMP JUMPDEST PUSH1 0x40 MLOAD DUP1 SWAP2 SUB SWAP1 REVERT JUMPDEST PUSH32 0x0 DUP2 GT ISZERO PUSH2 0x175E JUMPI DUP1 PUSH1 0x40 MLOAD PUSH32 0xC399356500000000000000000000000000000000000000000000000000000000 DUP2 MSTORE PUSH1 0x4 ADD PUSH2 0x1755 SWAP2 SWAP1 PUSH2 0x1D64 JUMP JUMPDEST PUSH1 0x40 MLOAD DUP1 SWAP2 SUB SWAP1 REVERT JUMPDEST PUSH1 0x6 PUSH0 PUSH32 0x0 PUSH20 0xFFFFFFFFFFFFFFFFFFFFFFFFFFFFFFFFFFFFFFFF AND PUSH20 0xFFFFFFFFFFFFFFFFFFFFFFFFFFFFFFFFFFFFFFFF AND DUP2 MSTORE PUSH1 0x20 ADD SWAP1 DUP2 MSTORE PUSH1 0x20 ADD PUSH0 KECCAK256 PUSH0 CALLER PUSH20 0xFFFFFFFFFFFFFFFFFFFFFFFFFFFFFFFFFFFFFFFF AND PUSH20 0xFFFFFFFFFFFFFFFFFFFFFFFFFFFFFFFFFFFFFFFF AND DUP2 MSTORE PUSH1 0x20 ADD SWAP1 DUP2 MSTORE PUSH1 0x20 ADD PUSH0 KECCAK256 SLOAD DUP2 GT ISZERO PUSH2 0x183D JUMPI CALLER DUP2 PUSH1 0x40 MLOAD PUSH32 0x51A7314200000000000000000000000000000000000000000000000000000000 DUP2 MSTORE PUSH1 0x4 ADD PUSH2 0x1834 SWAP3 SWAP2 SWAP1 PUSH2 0x2149 JUMP JUMPDEST PUSH1 0x40 MLOAD DUP1 SWAP2 SUB SWAP1 REVERT JUMPDEST DUP2 PUSH1 0x6 PUSH0 PUSH32 0x0 PUSH20 0xFFFFFFFFFFFFFFFFFFFFFFFFFFFFFFFFFFFFFFFF AND PUSH20 0xFFFFFFFFFFFFFFFFFFFFFFFFFFFFFFFFFFFFFFFF AND DUP2 MSTORE PUSH1 0x20 ADD SWAP1 DUP2 MSTORE PUSH1 0x20 ADD PUSH0 KECCAK256 PUSH0 CALLER PUSH20 0xFFFFFFFFFFFFFFFFFFFFFFFFFFFFFFFFFFFFFFFF AND PUSH20 0xFFFFFFFFFFFFFFFFFFFFFFFFFFFFFFFFFFFFFFFF AND DUP2 MSTORE PUSH1 0x20 ADD SWAP1 DUP2 MSTORE PUSH1 0x20 ADD PUSH0 KECCAK256 PUSH0 DUP3 DUP3 SLOAD PUSH2 0x18E4 SWAP2 SWAP1 PUSH2 0x2043 JUMP JUMPDEST SWAP3 POP POP DUP2 SWAP1 SSTORE POP PUSH1 0x4 PUSH0 DUP2 SLOAD DUP1 SWAP3 SWAP2 SWAP1 PUSH2 0x18FD SWAP1 PUSH2 0x1EFF JUMP JUMPDEST SWAP2 SWAP1 POP SSTORE POP DUP2 PUSH1 0x5 PUSH0 DUP3 DUP3 SLOAD PUSH2 0x1913 SWAP2 SWAP1 PUSH2 0x2043 JUMP JUMPDEST SWAP3 POP POP DUP2 SWAP1 SSTORE POP CALLER PUSH20 0xFFFFFFFFFFFFFFFFFFFFFFFFFFFFFFFFFFFFFFFF AND PUSH32 0x9CDE449504E4972FFDDEC09813E0C252A1462D76BEF1864B9E7520DADB7183E8 DUP4 PUSH1 0x40 MLOAD PUSH2 0x1960 SWAP2 SWAP1 PUSH2 0x1D64 JUMP JUMPDEST PUSH1 0x40 MLOAD DUP1 SWAP2 SUB SWAP1 LOG2 PUSH2 0x19B3 CALLER DUP4 PUSH32 0x0 PUSH20 0xFFFFFFFFFFFFFFFFFFFFFFFFFFFFFFFFFFFFFFFF AND PUSH2 0x1BF1 SWAP1 SWAP3 SWAP2 SWAP1 PUSH4 0xFFFFFFFF AND JUMP JUMPDEST POP PUSH2 0x19BC PUSH2 0x1BE8 JUMP JUMPDEST POP JUMP JUMPDEST PUSH0 PUSH0 PUSH0 PUSH1 0x2 PUSH0 SWAP1 SLOAD SWAP1 PUSH2 0x100 EXP SWAP1 DIV PUSH20 0xFFFFFFFFFFFFFFFFFFFFFFFFFFFFFFFFFFFFFFFF AND PUSH20 0xFFFFFFFFFFFFFFFFFFFFFFFFFFFFFFFFFFFFFFFF AND PUSH4 0xFEAF968C PUSH1 0x40 MLOAD DUP2 PUSH4 0xFFFFFFFF AND PUSH1 0xE0 SHL DUP2 MSTORE PUSH1 0x4 ADD PUSH1 0xA0 PUSH1 0x40 MLOAD DUP1 DUP4 SUB DUP2 DUP7 GAS STATICCALL ISZERO DUP1 ISZERO PUSH2 0x1A2C JUMPI RETURNDATASIZE PUSH0 PUSH0 RETURNDATACOPY RETURNDATASIZE PUSH0 REVERT JUMPDEST POP POP POP POP PUSH1 0x40 MLOAD RETURNDATASIZE PUSH1 0x1F NOT PUSH1 0x1F DUP3 ADD AND DUP3 ADD DUP1 PUSH1 0x40 MSTORE POP DUP2 ADD SWAP1 PUSH2 0x1A50 SWAP2 SWAP1 PUSH2 0x1FCC JUMP JUMPDEST POP SWAP4 POP POP SWAP3 POP POP PUSH0 DUP3 SGT PUSH2 0x1A9B JUMPI DUP2 PUSH1 0x40 MLOAD PUSH32 0x3654402900000000000000000000000000000000000000000000000000000000 DUP2 MSTORE PUSH1 0x4 ADD PUSH2 0x1A92 SWAP2 SWAP1 PUSH2 0x1D64 JUMP JUMPDEST PUSH1 0x40 MLOAD DUP1 SWAP2 SUB SWAP1 REVERT JUMPDEST PUSH2 0xE10 PUSH2 0xFFFF AND DUP2 TIMESTAMP PUSH2 0x1AAE SWAP2 SWAP1 PUSH2 0x2043 JUMP JUMPDEST GT ISZERO PUSH2 0x1AF1 JUMPI DUP2 PUSH1 0x40 MLOAD PUSH32 0x2609A26500000000000000000000000000000000000000000000000000000000 DUP2 MSTORE PUSH1 0x4 ADD PUSH2 0x1AE8 SWAP2 SWAP1 PUSH2 0x1D64 JUMP JUMPDEST PUSH1 0x40 MLOAD DUP1 SWAP2 SUB SWAP1 REVERT JUMPDEST DUP2 SWAP3 POP POP POP SWAP1 JUMP JUMPDEST PUSH0 CALLER SWAP1 POP SWAP1 JUMP JUMPDEST PUSH0 PUSH0 PUSH1 0x20 PUSH0 DUP5 MLOAD PUSH1 0x20 DUP7 ADD PUSH0 DUP9 GAS CALL DUP1 PUSH2 0x1B1F JUMPI PUSH1 0x40 MLOAD RETURNDATASIZE PUSH0 DUP3 RETURNDATACOPY RETURNDATASIZE DUP2 REVERT JUMPDEST RETURNDATASIZE SWAP3 POP PUSH0 MLOAD SWAP2 POP POP PUSH0 DUP3 EQ PUSH2 0x1B38 JUMPI PUSH1 0x1 DUP2 EQ ISZERO PUSH2 0x1B53 JUMP JUMPDEST PUSH0 DUP5 PUSH20 0xFFFFFFFFFFFFFFFFFFFFFFFFFFFFFFFFFFFFFFFF AND EXTCODESIZE EQ JUMPDEST ISZERO PUSH2 0x1B95 JUMPI DUP4 PUSH1 0x40 MLOAD PUSH32 0x5274AFE700000000000000000000000000000000000000000000000000000000 DUP2 MSTORE PUSH1 0x4 ADD PUSH2 0x1B8C SWAP2 SWAP1 PUSH2 0x1CAF JUMP JUMPDEST PUSH1 0x40 MLOAD DUP1 SWAP2 SUB SWAP1 REVERT JUMPDEST POP POP POP POP JUMP JUMPDEST PUSH1 0x2 PUSH0 SLOAD SUB PUSH2 0x1BDF JUMPI PUSH1 0x40 MLOAD PUSH32 0x8C379A000000000000000000000000000000000000000000000000000000000 DUP2 MSTORE PUSH1 0x4 ADD PUSH2 0x1BD6 SWAP1 PUSH2 0x220B JUMP JUMPDEST PUSH1 0x40 MLOAD DUP1 SWAP2 SUB SWAP1 REVERT JUMPDEST PUSH1 0x2 PUSH0 DUP2 SWAP1 SSTORE POP JUMP JUMPDEST PUSH1 0x1 PUSH0 DUP2 SWAP1 SSTORE POP JUMP JUMPDEST PUSH2 0x1C6B DUP4 DUP5 PUSH20 0xFFFFFFFFFFFFFFFFFFFFFFFFFFFFFFFFFFFFFFFF AND PUSH4 0xA9059CBB DUP6 DUP6 PUSH1 0x40 MLOAD PUSH1 0x24 ADD PUSH2 0x1C24 SWAP3 SWAP2 SWAP1 PUSH2 0x2149 JUMP JUMPDEST PUSH1 0x40 MLOAD PUSH1 0x20 DUP2 DUP4 SUB SUB DUP2 MSTORE SWAP1 PUSH1 0x40 MSTORE SWAP2 POP PUSH1 0xE0 SHL PUSH1 0x20 DUP3 ADD DUP1 MLOAD PUSH28 0xFFFFFFFFFFFFFFFFFFFFFFFFFFFFFFFFFFFFFFFFFFFFFFFFFFFFFFFF DUP4 DUP2 DUP4 AND OR DUP4 MSTORE POP POP POP POP PUSH2 0x1B00 JUMP JUMPDEST POP POP POP JUMP JUMPDEST PUSH0 PUSH20 0xFFFFFFFFFFFFFFFFFFFFFFFFFFFFFFFFFFFFFFFF DUP3 AND SWAP1 POP SWAP2 SWAP1 POP JUMP JUMPDEST PUSH0 PUSH2 0x1C99 DUP3 PUSH2 0x1C70 JUMP JUMPDEST SWAP1 POP SWAP2 SWAP1 POP JUMP JUMPDEST PUSH2 0x1CA9 DUP2 PUSH2 0x1C8F JUMP JUMPDEST DUP3 MSTORE POP POP JUMP JUMPDEST PUSH0 PUSH1 0x20 DUP3 ADD SWAP1 POP PUSH2 0x1CC2 PUSH0 DUP4 ADD DUP5 PUSH2 0x1CA0 JUMP JUMPDEST SWAP3 SWAP2 POP POP JUMP JUMPDEST PUSH0 DUP2 ISZERO ISZERO SWAP1 POP SWAP2 SWAP1 POP JUMP JUMPDEST PUSH2 0x1CDC DUP2 PUSH2 0x1CC8 JUMP JUMPDEST DUP3 MSTORE POP POP JUMP JUMPDEST PUSH0 DUP2 SWAP1 POP SWAP2 SWAP1 POP JUMP JUMPDEST PUSH2 0x1CF4 DUP2 PUSH2 0x1CE2 JUMP JUMPDEST DUP3 MSTORE POP POP JUMP JUMPDEST PUSH0 PUSH1 0xA0 DUP3 ADD SWAP1 POP PUSH2 0x1D0D PUSH0 DUP4 ADD DUP9 PUSH2 0x1CD3 JUMP JUMPDEST PUSH2 0x1D1A PUSH1 0x20 DUP4 ADD DUP8 PUSH2 0x1CEB JUMP JUMPDEST PUSH2 0x1D27 PUSH1 0x40 DUP4 ADD DUP7 PUSH2 0x1CEB JUMP JUMPDEST PUSH2 0x1D34 PUSH1 0x60 DUP4 ADD DUP6 PUSH2 0x1CEB JUMP JUMPDEST PUSH2 0x1D41 PUSH1 0x80 DUP4 ADD DUP5 PUSH2 0x1CA0 JUMP JUMPDEST SWAP7 SWAP6 POP POP POP POP POP POP JUMP JUMPDEST PUSH0 PUSH1 0x20 DUP3 ADD SWAP1 POP PUSH2 0x1D5E PUSH0 DUP4 ADD DUP5 PUSH2 0x1CD3 JUMP JUMPDEST SWAP3 SWAP2 POP POP JUMP JUMPDEST PUSH0 PUSH1 0x20 DUP3 ADD SWAP1 POP PUSH2 0x1D77 PUSH0 DUP4 ADD DUP5 PUSH2 0x1CEB JUMP JUMPDEST SWAP3 SWAP2 POP POP JUMP JUMPDEST PUSH0 PUSH0 REVERT JUMPDEST PUSH2 0x1D8A DUP2 PUSH2 0x1CE2 JUMP JUMPDEST DUP2 EQ PUSH2 0x1D94 JUMPI PUSH0 PUSH0 REVERT JUMPDEST POP JUMP JUMPDEST PUSH0 DUP2 CALLDATALOAD SWAP1 POP PUSH2 0x1DA5 DUP2 PUSH2 0x1D81 JUMP JUMPDEST SWAP3 SWAP2 POP POP JUMP JUMPDEST PUSH0 PUSH1 0x20 DUP3 DUP5 SUB SLT ISZERO PUSH2 0x1DC0 JUMPI PUSH2 0x1DBF PUSH2 0x1D7D JUMP JUMPDEST JUMPDEST PUSH0 PUSH2 0x1DCD DUP5 DUP3 DUP6 ADD PUSH2 0x1D97 JUMP JUMPDEST SWAP2 POP POP SWAP3 SWAP2 POP POP JUMP JUMPDEST PUSH0 DUP2 SWAP1 POP SWAP2 SWAP1 POP JUMP JUMPDEST PUSH0 PUSH2 0x1DF9 PUSH2 0x1DF4 PUSH2 0x1DEF DUP5 PUSH2 0x1C70 JUMP JUMPDEST PUSH2 0x1DD6 JUMP JUMPDEST PUSH2 0x1C70 JUMP JUMPDEST SWAP1 POP SWAP2 SWAP1 POP JUMP JUMPDEST PUSH0 PUSH2 0x1E0A DUP3 PUSH2 0x1DDF JUMP JUMPDEST SWAP1 POP SWAP2 SWAP1 POP JUMP JUMPDEST PUSH0 PUSH2 0x1E1B DUP3 PUSH2 0x1E00 JUMP JUMPDEST SWAP1 POP SWAP2 SWAP1 POP JUMP JUMPDEST PUSH2 0x1E2B DUP2 PUSH2 0x1E11 JUMP JUMPDEST DUP3 MSTORE POP POP JUMP JUMPDEST PUSH0 PUSH1 0x20 DUP3 ADD SWAP1 POP PUSH2 0x1E44 PUSH0 DUP4 ADD DUP5 PUSH2 0x1E22 JUMP JUMPDEST SWAP3 SWAP2 POP POP JUMP JUMPDEST PUSH2 0x1E53 DUP2 PUSH2 0x1C8F JUMP JUMPDEST DUP2 EQ PUSH2 0x1E5D JUMPI PUSH0 PUSH0 REVERT JUMPDEST POP JUMP JUMPDEST PUSH0 DUP2 CALLDATALOAD SWAP1 POP PUSH2 0x1E6E DUP2 PUSH2 0x1E4A JUMP JUMPDEST SWAP3 SWAP2 POP POP JUMP JUMPDEST PUSH0 PUSH1 0x20 DUP3 DUP5 SUB SLT ISZERO PUSH2 0x1E89 JUMPI PUSH2 0x1E88 PUSH2 0x1D7D JUMP JUMPDEST JUMPDEST PUSH0 PUSH2 0x1E96 DUP5 DUP3 DUP6 ADD PUSH2 0x1E60 JUMP JUMPDEST SWAP2 POP POP SWAP3 SWAP2 POP POP JUMP JUMPDEST PUSH32 0x4E487B7100000000000000000000000000000000000000000000000000000000 PUSH0 MSTORE PUSH1 0x11 PUSH1 0x4 MSTORE PUSH1 0x24 PUSH0 REVERT JUMPDEST PUSH0 PUSH2 0x1ED6 DUP3 PUSH2 0x1CE2 JUMP JUMPDEST SWAP2 POP PUSH2 0x1EE1 DUP4 PUSH2 0x1CE2 JUMP JUMPDEST SWAP3 POP DUP3 DUP3 ADD SWAP1 POP DUP1 DUP3 GT ISZERO PUSH2 0x1EF9 JUMPI PUSH2 0x1EF8 PUSH2 0x1E9F JUMP JUMPDEST JUMPDEST SWAP3 SWAP2 POP POP JUMP JUMPDEST PUSH0 PUSH2 0x1F09 DUP3 PUSH2 0x1CE2 JUMP JUMPDEST SWAP2 POP PUSH32 0xFFFFFFFFFFFFFFFFFFFFFFFFFFFFFFFFFFFFFFFFFFFFFFFFFFFFFFFFFFFFFFFF DUP3 SUB PUSH2 0x1F3B JUMPI PUSH2 0x1F3A PUSH2 0x1E9F JUMP JUMPDEST JUMPDEST PUSH1 0x1 DUP3 ADD SWAP1 POP SWAP2 SWAP1 POP JUMP JUMPDEST PUSH0 PUSH10 0xFFFFFFFFFFFFFFFFFFFF DUP3 AND SWAP1 POP SWAP2 SWAP1 POP JUMP JUMPDEST PUSH2 0x1F64 DUP2 PUSH2 0x1F46 JUMP JUMPDEST DUP2 EQ PUSH2 0x1F6E JUMPI PUSH0 PUSH0 REVERT JUMPDEST POP JUMP JUMPDEST PUSH0 DUP2 MLOAD SWAP1 POP PUSH2 0x1F7F DUP2 PUSH2 0x1F5B JUMP JUMPDEST SWAP3 SWAP2 POP POP JUMP JUMPDEST PUSH0 DUP2 SWAP1 POP SWAP2 SWAP1 POP JUMP JUMPDEST PUSH2 0x1F97 DUP2 PUSH2 0x1F85 JUMP JUMPDEST DUP2 EQ PUSH2 0x1FA1 JUMPI PUSH0 PUSH0 REVERT JUMPDEST POP JUMP JUMPDEST PUSH0 DUP2 MLOAD SWAP1 POP PUSH2 0x1FB2 DUP2 PUSH2 0x1F8E JUMP JUMPDEST SWAP3 SWAP2 POP POP JUMP JUMPDEST PUSH0 DUP2 MLOAD SWAP1 POP PUSH2 0x1FC6 DUP2 PUSH2 0x1D81 JUMP JUMPDEST SWAP3 SWAP2 POP POP JUMP JUMPDEST PUSH0 PUSH0 PUSH0 PUSH0 PUSH0 PUSH1 0xA0 DUP7 DUP9 SUB SLT ISZERO PUSH2 0x1FE5 JUMPI PUSH2 0x1FE4 PUSH2 0x1D7D JUMP JUMPDEST JUMPDEST PUSH0 PUSH2 0x1FF2 DUP9 DUP3 DUP10 ADD PUSH2 0x1F71 JUMP JUMPDEST SWAP6 POP POP PUSH1 0x20 PUSH2 0x2003 DUP9 DUP3 DUP10 ADD PUSH2 0x1FA4 JUMP JUMPDEST SWAP5 POP POP PUSH1 0x40 PUSH2 0x2014 DUP9 DUP3 DUP10 ADD PUSH2 0x1FB8 JUMP JUMPDEST SWAP4 POP POP PUSH1 0x60 PUSH2 0x2025 DUP9 DUP3 DUP10 ADD PUSH2 0x1FB8 JUMP JUMPDEST SWAP3 POP POP PUSH1 0x80 PUSH2 0x2036 DUP9 DUP3 DUP10 ADD PUSH2 0x1F71 JUMP JUMPDEST SWAP2 POP POP SWAP3 SWAP6 POP SWAP3 SWAP6 SWAP1 SWAP4 POP JUMP JUMPDEST PUSH0 PUSH2 0x204D DUP3 PUSH2 0x1CE2 JUMP JUMPDEST SWAP2 POP PUSH2 0x2058 DUP4 PUSH2 0x1CE2 JUMP JUMPDEST SWAP3 POP DUP3 DUP3 SUB SWAP1 POP DUP2 DUP2 GT ISZERO PUSH2 0x2070 JUMPI PUSH2 0x206F PUSH2 0x1E9F JUMP JUMPDEST JUMPDEST SWAP3 SWAP2 POP POP JUMP JUMPDEST PUSH0 PUSH2 0x2080 DUP3 PUSH2 0x1CE2 JUMP JUMPDEST SWAP2 POP PUSH2 0x208B DUP4 PUSH2 0x1CE2 JUMP JUMPDEST SWAP3 POP DUP3 DUP3 MUL PUSH2 0x2099 DUP2 PUSH2 0x1CE2 JUMP JUMPDEST SWAP2 POP DUP3 DUP3 DIV DUP5 EQ DUP4 ISZERO OR PUSH2 0x20B0 JUMPI PUSH2 0x20AF PUSH2 0x1E9F JUMP JUMPDEST JUMPDEST POP SWAP3 SWAP2 POP POP JUMP JUMPDEST PUSH32 0x4E487B7100000000000000000000000000000000000000000000000000000000 PUSH0 MSTORE PUSH1 0x12 PUSH1 0x4 MSTORE PUSH1 0x24 PUSH0 REVERT JUMPDEST PUSH0 PUSH2 0x20EE DUP3 PUSH2 0x1CE2 JUMP JUMPDEST SWAP2 POP PUSH2 0x20F9 DUP4 PUSH2 0x1CE2 JUMP JUMPDEST SWAP3 POP DUP3 PUSH2 0x2109 JUMPI PUSH2 0x2108 PUSH2 0x20B7 JUMP JUMPDEST JUMPDEST DUP3 DUP3 DIV SWAP1 POP SWAP3 SWAP2 POP POP JUMP JUMPDEST PUSH0 PUSH1 0x60 DUP3 ADD SWAP1 POP PUSH2 0x2127 PUSH0 DUP4 ADD DUP7 PUSH2 0x1CA0 JUMP JUMPDEST PUSH2 0x2134 PUSH1 0x20 DUP4 ADD DUP6 PUSH2 0x1CA0 JUMP JUMPDEST PUSH2 0x2141 PUSH1 0x40 DUP4 ADD DUP5 PUSH2 0x1CEB JUMP JUMPDEST SWAP5 SWAP4 POP POP POP POP JUMP JUMPDEST PUSH0 PUSH1 0x40 DUP3 ADD SWAP1 POP PUSH2 0x215C PUSH0 DUP4 ADD DUP6 PUSH2 0x1CA0 JUMP JUMPDEST PUSH2 0x2169 PUSH1 0x20 DUP4 ADD DUP5 PUSH2 0x1CEB JUMP JUMPDEST SWAP4 SWAP3 POP POP POP JUMP JUMPDEST PUSH0 DUP2 SWAP1 POP SWAP3 SWAP2 POP POP JUMP JUMPDEST POP JUMP JUMPDEST PUSH0 PUSH2 0x2188 PUSH0 DUP4 PUSH2 0x2170 JUMP JUMPDEST SWAP2 POP PUSH2 0x2193 DUP3 PUSH2 0x217A JUMP JUMPDEST PUSH0 DUP3 ADD SWAP1 POP SWAP2 SWAP1 POP JUMP JUMPDEST PUSH0 PUSH2 0x21A7 DUP3 PUSH2 0x217D JUMP JUMPDEST SWAP2 POP DUP2 SWAP1 POP SWAP2 SWAP1 POP JUMP JUMPDEST PUSH0 DUP3 DUP3 MSTORE PUSH1 0x20 DUP3 ADD SWAP1 POP SWAP3 SWAP2 POP POP JUMP JUMPDEST PUSH32 0x5265656E7472616E637947756172643A207265656E7472616E742063616C6C00 PUSH0 DUP3 ADD MSTORE POP JUMP JUMPDEST PUSH0 PUSH2 0x21F5 PUSH1 0x1F DUP4 PUSH2 0x21B1 JUMP JUMPDEST SWAP2 POP PUSH2 0x2200 DUP3 PUSH2 0x21C1 JUMP JUMPDEST PUSH1 0x20 DUP3 ADD SWAP1 POP SWAP2 SWAP1 POP JUMP JUMPDEST PUSH0 PUSH1 0x20 DUP3 ADD SWAP1 POP DUP2 DUP2 SUB PUSH0 DUP4 ADD MSTORE PUSH2 0x2222 DUP2 PUSH2 0x21E9 JUMP JUMPDEST SWAP1 POP SWAP2 SWAP1 POP JUMP INVALID LOG2 PUSH5 0x6970667358 0x22 SLT KECCAK256 DUP1 0x28 DUP1 PUSH15 0xCFF4534F6B9967B3C88A3F1FEB6F54 CALLCODE SAR SWAP12 PUSH1 0x16 GT 0xCF PUSH27 0x158A41AF5664736F6C634300081E00330000000000000000000000 "
				},
				"gasEstimates": {
					"creation": {
						"codeDepositCost": "1759800",
						"executionCost": "infinite",
						"totalCost": "infinite"
					},
					"external": {
						"": "462",
						"depositarETH()": "infinite",
						"depositarUSDC(uint256)": "infinite",
						"despausarContrato()": "infinite",
						"estadoDelContrato()": "infinite",
						"owner()": "2604",
						"pausarContrato()": "infinite",
						"paused()": "2636",
						"renounceOwnership()": "infinite",
						"retirarETH(uint256)": "infinite",
						"retirarUSDC(uint256)": "infinite",
						"s_feed()": "infinite",
						"setFeeds(address)": "infinite",
						"transferOwnership(address)": "infinite",
						"transferirOwner(address)": "infinite",
						"verBoveda()": "infinite",
						"verSaldoETH()": "2717",
						"verSaldoUSDC()": "infinite",
						"verTotalContrato()": "2454",
						"verTotalDepositos()": "2542",
						"verTotalRetiros()": "2498"
					},
					"internal": {
						"_retirarFondosETH(uint256)": "infinite",
						"_retirarFondosUSDC(uint256)": "infinite",
						"chainLinkFeeds()": "infinite",
						"convertirEthEnUSDC(uint256)": "infinite"
					}
				},
				"methodIdentifiers": {
					"depositarETH()": "16a1930f",
					"depositarUSDC(uint256)": "698b7241",
					"despausarContrato()": "38d5c916",
					"estadoDelContrato()": "0594cc69",
					"owner()": "8da5cb5b",
					"pausarContrato()": "1a003ecb",
					"paused()": "5c975abb",
					"renounceOwnership()": "715018a6",
					"retirarETH(uint256)": "82fe54b5",
					"retirarUSDC(uint256)": "931fb90e",
					"s_feed()": "6f05c64c",
					"setFeeds(address)": "7dc532c5",
					"transferOwnership(address)": "f2fde38b",
					"transferirOwner(address)": "8648840a",
					"verBoveda()": "6900670c",
					"verSaldoETH()": "779bb136",
					"verSaldoUSDC()": "939495bd",
					"verTotalContrato()": "93295c1c",
					"verTotalDepositos()": "f39b1809",
					"verTotalRetiros()": "c6aca33c"
				}
			},
			"storageLayout": {
				"storage": [
					{
						"astId": 294,
						"contract": "contracts/KipuBank.sol:KipuBank",
						"label": "_status",
						"offset": 0,
						"slot": "0",
						"type": "t_uint256"
					},
					{
						"astId": 54,
						"contract": "contracts/KipuBank.sol:KipuBank",
						"label": "_owner",
						"offset": 0,
						"slot": "1",
						"type": "t_address"
					},
					{
						"astId": 929,
						"contract": "contracts/KipuBank.sol:KipuBank",
						"label": "_paused",
						"offset": 20,
						"slot": "1",
						"type": "t_bool"
					},
					{
						"astId": 1067,
						"contract": "contracts/KipuBank.sol:KipuBank",
						"label": "s_feed",
						"offset": 0,
						"slot": "2",
						"type": "t_contract(AggregatorV3Interface)45"
					},
					{
						"astId": 1089,
						"contract": "contracts/KipuBank.sol:KipuBank",
						"label": "_depositos",
						"offset": 0,
						"slot": "3",
						"type": "t_uint256"
					},
					{
						"astId": 1093,
						"contract": "contracts/KipuBank.sol:KipuBank",
						"label": "_retiros",
						"offset": 0,
						"slot": "4",
						"type": "t_uint256"
					},
					{
						"astId": 1097,
						"contract": "contracts/KipuBank.sol:KipuBank",
						"label": "_totalContrato",
						"offset": 0,
						"slot": "5",
						"type": "t_uint256"
					},
					{
						"astId": 1104,
						"contract": "contracts/KipuBank.sol:KipuBank",
						"label": "_cuentasMultiToken",
						"offset": 0,
						"slot": "6",
						"type": "t_mapping(t_address,t_mapping(t_address,t_uint256))"
					}
				],
				"types": {
					"t_address": {
						"encoding": "inplace",
						"label": "address",
						"numberOfBytes": "20"
					},
					"t_bool": {
						"encoding": "inplace",
						"label": "bool",
						"numberOfBytes": "1"
					},
					"t_contract(AggregatorV3Interface)45": {
						"encoding": "inplace",
						"label": "contract AggregatorV3Interface",
						"numberOfBytes": "20"
					},
					"t_mapping(t_address,t_mapping(t_address,t_uint256))": {
						"encoding": "mapping",
						"key": "t_address",
						"label": "mapping(address => mapping(address => uint256))",
						"numberOfBytes": "32",
						"value": "t_mapping(t_address,t_uint256)"
					},
					"t_mapping(t_address,t_uint256)": {
						"encoding": "mapping",
						"key": "t_address",
						"label": "mapping(address => uint256)",
						"numberOfBytes": "32",
						"value": "t_uint256"
					},
					"t_uint256": {
						"encoding": "inplace",
						"label": "uint256",
						"numberOfBytes": "32"
					}
				}
			},
			"userdoc": {
				"errors": {
					"KipuBank_ExtraccionRechazada(address,uint256)": [
						{
							"notice": "Error de extraccion"
						}
					],
					"KipuBank_InicializacionInvalida(uint256,uint256)": [
						{
							"notice": "Error de umbral mayor al limite"
						}
					],
					"KipuBank_LimiteExcedido(uint256)": [
						{
							"notice": "Error por sobrepasarse del limite"
						}
					],
					"KipuBank_LimiteInvalido(uint256)": [
						{
							"notice": "Error por limite invalido"
						}
					],
					"KipuBank_MontoCero(address)": [
						{
							"notice": "Error monto cero"
						}
					],
					"KipuBank_OperacionNoPermitida(address)": [
						{
							"notice": "Error por operacion no permitida"
						}
					],
					"KipuBank_OraculoComprometido(uint256)": [
						{
							"notice": "Error por óraculo dando un precio equivoco"
						}
					],
					"KipuBank_PrecioDesactualizado(uint256)": [
						{
							"notice": "Error por precio desactualizado"
						}
					],
					"KipuBank_SaldoInsuficiente(address,uint256)": [
						{
							"notice": "Error por saldo insuficiente"
						}
					],
					"KipuBank_UmbralExcedido(uint256)": [
						{
							"notice": "Error por umbral excedido"
						}
					],
					"KipuBank_UmbralInvalido(uint256)": [
						{
							"notice": "Error por umbral invalido"
						}
					]
				},
				"events": {
					"KipuBank_DepositoRealizado(address,uint256)": {
						"notice": "Evento para depositos realizado exitosamente"
					},
					"KipuBank_ExtraccionRealizada(address,uint256)": {
						"notice": "Evento para extracciones realizadas exitosamente"
					}
				},
				"kind": "user",
				"methods": {
					"constructor": {
						"notice": "Constructor del contrato"
					},
					"depositarETH()": {
						"notice": "Funcion para depositar en la boveda"
					},
					"depositarUSDC(uint256)": {
						"notice": "Funcion para depositar en la boveda"
					},
					"despausarContrato()": {
						"notice": "Función para despausar el contrato"
					},
					"estadoDelContrato()": {
						"notice": "Función para ver el estado del contrato"
					},
					"pausarContrato()": {
						"notice": "Función para pausar el contrato"
					},
					"retirarETH(uint256)": {
						"notice": "Funcion externa para realizar el retiro de saldo en ETH"
					},
					"retirarUSDC(uint256)": {
						"notice": "Funcion externa para realizar el retiro de saldo en USDC"
					},
					"s_feed()": {
						"notice": "Interfaz publica del data feed"
					},
					"setFeeds(address)": {
						"notice": "Función para cambiar el data feeds"
					},
					"transferirOwner(address)": {
						"notice": "Función para traspasar el contrato a otro dueño"
					},
					"verBoveda()": {
						"notice": "Funcion para ver el saldo total guardado en el boveda en USD"
					},
					"verSaldoETH()": {
						"notice": "Función para el saldo en ETH del titular"
					},
					"verSaldoUSDC()": {
						"notice": "Función para ver el saldo en USDC del titular"
					},
					"verTotalContrato()": {
						"notice": "Funcion para ver el saldo total del contrato en USD"
					},
					"verTotalDepositos()": {
						"notice": "Funcion para ver la cantidad total de los depositos realizados"
					},
					"verTotalRetiros()": {
						"notice": "Funcion para ver la cantidad total de los retiros realizados"
					}
				},
				"version": 1
			}
		}
	}
}