{
	"contracts/KipuBank.sol": {
		"KipuBank": {
			"abi": [
				{
					"inputs": [
						{
							"internalType": "uint256",
							"name": "_limit",
							"type": "uint256"
						},
						{
							"internalType": "uint256",
							"name": "_threshold",
							"type": "uint256"
						},
						{
							"internalType": "address",
							"name": "_owner",
							"type": "address"
						},
						{
							"internalType": "address",
							"name": "_feed",
							"type": "address"
						},
						{
							"internalType": "address",
							"name": "_tokenERC20",
							"type": "address"
						}
					],
					"stateMutability": "nonpayable",
					"type": "constructor"
				},
				{
					"inputs": [],
					"name": "AccessControlBadConfirmation",
					"type": "error"
				},
				{
					"inputs": [
						{
							"internalType": "address",
							"name": "account",
							"type": "address"
						},
						{
							"internalType": "bytes32",
							"name": "neededRole",
							"type": "bytes32"
						}
					],
					"name": "AccessControlUnauthorizedAccount",
					"type": "error"
				},
				{
					"inputs": [],
					"name": "EnforcedPause",
					"type": "error"
				},
				{
					"inputs": [],
					"name": "ExpectedPause",
					"type": "error"
				},
				{
					"inputs": [
						{
							"internalType": "uint256",
							"name": "price",
							"type": "uint256"
						}
					],
					"name": "KipuBank_CommittedOracle",
					"type": "error"
				},
				{
					"inputs": [
						{
							"internalType": "uint256",
							"name": "amount",
							"type": "uint256"
						}
					],
					"name": "KipuBank_ExceededLimit",
					"type": "error"
				},
				{
					"inputs": [
						{
							"internalType": "uint256",
							"name": "amount",
							"type": "uint256"
						}
					],
					"name": "KipuBank_ExceededThreshold",
					"type": "error"
				},
				{
					"inputs": [
						{
							"internalType": "address",
							"name": "holder",
							"type": "address"
						},
						{
							"internalType": "uint256",
							"name": "amount",
							"type": "uint256"
						}
					],
					"name": "KipuBank_InsufficientsFunds",
					"type": "error"
				},
				{
					"inputs": [],
					"name": "KipuBank_InvalidAddress",
					"type": "error"
				},
				{
					"inputs": [
						{
							"internalType": "address",
							"name": "newFeed",
							"type": "address"
						}
					],
					"name": "KipuBank_InvalidFeed",
					"type": "error"
				},
				{
					"inputs": [
						{
							"internalType": "uint256",
							"name": "limit",
							"type": "uint256"
						},
						{
							"internalType": "uint256",
							"name": "threshold",
							"type": "uint256"
						}
					],
					"name": "KipuBank_InvalidInit",
					"type": "error"
				},
				{
					"inputs": [
						{
							"internalType": "uint256",
							"name": "limit",
							"type": "uint256"
						}
					],
					"name": "KipuBank_InvalidLimit",
					"type": "error"
				},
				{
					"inputs": [
						{
							"internalType": "uint256",
							"name": "threshold",
							"type": "uint256"
						}
					],
					"name": "KipuBank_InvalidThreshold",
					"type": "error"
				},
				{
					"inputs": [
						{
							"internalType": "uint256",
							"name": "amount",
							"type": "uint256"
						}
					],
					"name": "KipuBank_LowerMinimumAmount",
					"type": "error"
				},
				{
					"inputs": [
						{
							"internalType": "address",
							"name": "account",
							"type": "address"
						}
					],
					"name": "KipuBank_NonPermittedAccess",
					"type": "error"
				},
				{
					"inputs": [
						{
							"internalType": "uint256",
							"name": "amount",
							"type": "uint256"
						}
					],
					"name": "KipuBank_NonPermittedAmount",
					"type": "error"
				},
				{
					"inputs": [
						{
							"internalType": "address",
							"name": "holder",
							"type": "address"
						}
					],
					"name": "KipuBank_NonPermittedOperation",
					"type": "error"
				},
				{
					"inputs": [
						{
							"internalType": "uint256",
							"name": "price",
							"type": "uint256"
						}
					],
					"name": "KipuBank_OutdatedPrice",
					"type": "error"
				},
				{
					"inputs": [
						{
							"internalType": "address",
							"name": "holder",
							"type": "address"
						},
						{
							"internalType": "uint256",
							"name": "amount",
							"type": "uint256"
						}
					],
					"name": "KipuBank_RejectedWithdraw",
					"type": "error"
				},
				{
					"inputs": [
						{
							"internalType": "address",
							"name": "holder",
							"type": "address"
						}
					],
					"name": "KipuBank_ZeroAmount",
					"type": "error"
				},
				{
					"inputs": [
						{
							"internalType": "address",
							"name": "owner",
							"type": "address"
						}
					],
					"name": "OwnableInvalidOwner",
					"type": "error"
				},
				{
					"inputs": [
						{
							"internalType": "address",
							"name": "account",
							"type": "address"
						}
					],
					"name": "OwnableUnauthorizedAccount",
					"type": "error"
				},
				{
					"inputs": [
						{
							"internalType": "address",
							"name": "token",
							"type": "address"
						}
					],
					"name": "SafeERC20FailedOperation",
					"type": "error"
				},
				{
					"anonymous": false,
					"inputs": [
						{
							"indexed": true,
							"internalType": "address",
							"name": "pauser",
							"type": "address"
						},
						{
							"indexed": false,
							"internalType": "uint256",
							"name": "time",
							"type": "uint256"
						}
					],
					"name": "KipuBank_ContractPaused",
					"type": "event"
				},
				{
					"anonymous": false,
					"inputs": [
						{
							"indexed": true,
							"internalType": "address",
							"name": "unpauser",
							"type": "address"
						},
						{
							"indexed": false,
							"internalType": "uint256",
							"name": "time",
							"type": "uint256"
						}
					],
					"name": "KipuBank_ContractUnpaused",
					"type": "event"
				},
				{
					"anonymous": false,
					"inputs": [
						{
							"indexed": true,
							"internalType": "address",
							"name": "previousFeed",
							"type": "address"
						},
						{
							"indexed": true,
							"internalType": "address",
							"name": "newFeed",
							"type": "address"
						}
					],
					"name": "KipuBank_FeedUpdated",
					"type": "event"
				},
				{
					"anonymous": false,
					"inputs": [
						{
							"indexed": true,
							"internalType": "address",
							"name": "account",
							"type": "address"
						},
						{
							"indexed": false,
							"internalType": "bytes32",
							"name": "role",
							"type": "bytes32"
						}
					],
					"name": "KipuBank_GrantedRole",
					"type": "event"
				},
				{
					"anonymous": false,
					"inputs": [
						{
							"indexed": true,
							"internalType": "address",
							"name": "account",
							"type": "address"
						},
						{
							"indexed": false,
							"internalType": "bytes32",
							"name": "role",
							"type": "bytes32"
						}
					],
					"name": "KipuBank_RoleRevoked",
					"type": "event"
				},
				{
					"anonymous": false,
					"inputs": [
						{
							"indexed": true,
							"internalType": "address",
							"name": "holder",
							"type": "address"
						},
						{
							"indexed": false,
							"internalType": "uint256",
							"name": "amount",
							"type": "uint256"
						}
					],
					"name": "KipuBank_SuccessfulDeposit",
					"type": "event"
				},
				{
					"anonymous": false,
					"inputs": [
						{
							"indexed": true,
							"internalType": "address",
							"name": "holder",
							"type": "address"
						},
						{
							"indexed": false,
							"internalType": "uint256",
							"name": "amount",
							"type": "uint256"
						}
					],
					"name": "KipuBank_SuccessfulWithdrawal",
					"type": "event"
				},
				{
					"anonymous": false,
					"inputs": [
						{
							"indexed": true,
							"internalType": "address",
							"name": "previousOwner",
							"type": "address"
						},
						{
							"indexed": true,
							"internalType": "address",
							"name": "newOwner",
							"type": "address"
						}
					],
					"name": "KipuBank_TransferredOwner",
					"type": "event"
				},
				{
					"anonymous": false,
					"inputs": [
						{
							"indexed": true,
							"internalType": "address",
							"name": "previousOwner",
							"type": "address"
						},
						{
							"indexed": true,
							"internalType": "address",
							"name": "newOwner",
							"type": "address"
						}
					],
					"name": "OwnershipTransferred",
					"type": "event"
				},
				{
					"anonymous": false,
					"inputs": [
						{
							"indexed": false,
							"internalType": "address",
							"name": "account",
							"type": "address"
						}
					],
					"name": "Paused",
					"type": "event"
				},
				{
					"anonymous": false,
					"inputs": [
						{
							"indexed": true,
							"internalType": "bytes32",
							"name": "role",
							"type": "bytes32"
						},
						{
							"indexed": true,
							"internalType": "bytes32",
							"name": "previousAdminRole",
							"type": "bytes32"
						},
						{
							"indexed": true,
							"internalType": "bytes32",
							"name": "newAdminRole",
							"type": "bytes32"
						}
					],
					"name": "RoleAdminChanged",
					"type": "event"
				},
				{
					"anonymous": false,
					"inputs": [
						{
							"indexed": true,
							"internalType": "bytes32",
							"name": "role",
							"type": "bytes32"
						},
						{
							"indexed": true,
							"internalType": "address",
							"name": "account",
							"type": "address"
						},
						{
							"indexed": true,
							"internalType": "address",
							"name": "sender",
							"type": "address"
						}
					],
					"name": "RoleGranted",
					"type": "event"
				},
				{
					"anonymous": false,
					"inputs": [
						{
							"indexed": true,
							"internalType": "bytes32",
							"name": "role",
							"type": "bytes32"
						},
						{
							"indexed": true,
							"internalType": "address",
							"name": "account",
							"type": "address"
						},
						{
							"indexed": true,
							"internalType": "address",
							"name": "sender",
							"type": "address"
						}
					],
					"name": "RoleRevoked",
					"type": "event"
				},
				{
					"anonymous": false,
					"inputs": [
						{
							"indexed": false,
							"internalType": "address",
							"name": "account",
							"type": "address"
						}
					],
					"name": "Unpaused",
					"type": "event"
				},
				{
					"stateMutability": "payable",
					"type": "fallback"
				},
				{
					"inputs": [],
					"name": "DEFAULT_ADMIN_ROLE",
					"outputs": [
						{
							"internalType": "bytes32",
							"name": "",
							"type": "bytes32"
						}
					],
					"stateMutability": "view",
					"type": "function"
				},
				{
					"inputs": [],
					"name": "FEED_MANAGER",
					"outputs": [
						{
							"internalType": "bytes32",
							"name": "",
							"type": "bytes32"
						}
					],
					"stateMutability": "view",
					"type": "function"
				},
				{
					"inputs": [],
					"name": "MIN_DEPOSIT",
					"outputs": [
						{
							"internalType": "uint256",
							"name": "",
							"type": "uint256"
						}
					],
					"stateMutability": "view",
					"type": "function"
				},
				{
					"inputs": [],
					"name": "PAUSER",
					"outputs": [
						{
							"internalType": "bytes32",
							"name": "",
							"type": "bytes32"
						}
					],
					"stateMutability": "view",
					"type": "function"
				},
				{
					"inputs": [
						{
							"internalType": "address",
							"name": "_holder",
							"type": "address"
						},
						{
							"internalType": "address",
							"name": "_token",
							"type": "address"
						}
					],
					"name": "balanceOf",
					"outputs": [
						{
							"internalType": "uint256",
							"name": "",
							"type": "uint256"
						}
					],
					"stateMutability": "view",
					"type": "function"
				},
				{
					"inputs": [],
					"name": "depositETH",
					"outputs": [],
					"stateMutability": "payable",
					"type": "function"
				},
				{
					"inputs": [
						{
							"internalType": "uint256",
							"name": "_amount",
							"type": "uint256"
						}
					],
					"name": "depositarUSDC",
					"outputs": [],
					"stateMutability": "nonpayable",
					"type": "function"
				},
				{
					"inputs": [
						{
							"internalType": "bytes32",
							"name": "role",
							"type": "bytes32"
						}
					],
					"name": "getRoleAdmin",
					"outputs": [
						{
							"internalType": "bytes32",
							"name": "",
							"type": "bytes32"
						}
					],
					"stateMutability": "view",
					"type": "function"
				},
				{
					"inputs": [
						{
							"internalType": "bytes32",
							"name": "role",
							"type": "bytes32"
						},
						{
							"internalType": "address",
							"name": "account",
							"type": "address"
						}
					],
					"name": "grantRole",
					"outputs": [],
					"stateMutability": "nonpayable",
					"type": "function"
				},
				{
					"inputs": [
						{
							"internalType": "bytes32",
							"name": "role",
							"type": "bytes32"
						},
						{
							"internalType": "address",
							"name": "account",
							"type": "address"
						}
					],
					"name": "hasRole",
					"outputs": [
						{
							"internalType": "bool",
							"name": "",
							"type": "bool"
						}
					],
					"stateMutability": "view",
					"type": "function"
				},
				{
					"inputs": [],
					"name": "owner",
					"outputs": [
						{
							"internalType": "address",
							"name": "",
							"type": "address"
						}
					],
					"stateMutability": "view",
					"type": "function"
				},
				{
					"inputs": [],
					"name": "pauseContract",
					"outputs": [],
					"stateMutability": "nonpayable",
					"type": "function"
				},
				{
					"inputs": [],
					"name": "paused",
					"outputs": [
						{
							"internalType": "bool",
							"name": "",
							"type": "bool"
						}
					],
					"stateMutability": "view",
					"type": "function"
				},
				{
					"inputs": [],
					"name": "renounceOwnership",
					"outputs": [],
					"stateMutability": "nonpayable",
					"type": "function"
				},
				{
					"inputs": [
						{
							"internalType": "bytes32",
							"name": "role",
							"type": "bytes32"
						},
						{
							"internalType": "address",
							"name": "callerConfirmation",
							"type": "address"
						}
					],
					"name": "renounceRole",
					"outputs": [],
					"stateMutability": "nonpayable",
					"type": "function"
				},
				{
					"inputs": [
						{
							"internalType": "bytes32",
							"name": "role",
							"type": "bytes32"
						},
						{
							"internalType": "address",
							"name": "account",
							"type": "address"
						}
					],
					"name": "revokeRole",
					"outputs": [],
					"stateMutability": "nonpayable",
					"type": "function"
				},
				{
					"inputs": [],
					"name": "s_feed",
					"outputs": [
						{
							"internalType": "contract AggregatorV3Interface",
							"name": "",
							"type": "address"
						}
					],
					"stateMutability": "view",
					"type": "function"
				},
				{
					"inputs": [
						{
							"internalType": "address",
							"name": "_newFeed",
							"type": "address"
						}
					],
					"name": "setFeeds",
					"outputs": [],
					"stateMutability": "nonpayable",
					"type": "function"
				},
				{
					"inputs": [
						{
							"internalType": "bytes4",
							"name": "interfaceId",
							"type": "bytes4"
						}
					],
					"name": "supportsInterface",
					"outputs": [
						{
							"internalType": "bool",
							"name": "",
							"type": "bool"
						}
					],
					"stateMutability": "view",
					"type": "function"
				},
				{
					"inputs": [
						{
							"internalType": "address",
							"name": "newOwner",
							"type": "address"
						}
					],
					"name": "transferOwnership",
					"outputs": [],
					"stateMutability": "nonpayable",
					"type": "function"
				},
				{
					"inputs": [
						{
							"internalType": "address",
							"name": "_newOwner",
							"type": "address"
						}
					],
					"name": "transferTheOwnership",
					"outputs": [],
					"stateMutability": "nonpayable",
					"type": "function"
				},
				{
					"inputs": [],
					"name": "unpauseContract",
					"outputs": [],
					"stateMutability": "nonpayable",
					"type": "function"
				},
				{
					"inputs": [],
					"name": "viewAccountTotalBalance",
					"outputs": [
						{
							"internalType": "uint256",
							"name": "amount_",
							"type": "uint256"
						}
					],
					"stateMutability": "view",
					"type": "function"
				},
				{
					"inputs": [],
					"name": "viewContractBalance",
					"outputs": [
						{
							"internalType": "uint256",
							"name": "",
							"type": "uint256"
						}
					],
					"stateMutability": "view",
					"type": "function"
				},
				{
					"inputs": [],
					"name": "viewContractState",
					"outputs": [
						{
							"internalType": "bool",
							"name": "isPaused",
							"type": "bool"
						},
						{
							"internalType": "uint256",
							"name": "totalContract",
							"type": "uint256"
						},
						{
							"internalType": "uint256",
							"name": "limit",
							"type": "uint256"
						},
						{
							"internalType": "uint256",
							"name": "threshold",
							"type": "uint256"
						},
						{
							"internalType": "address",
							"name": "actualFeed",
							"type": "address"
						}
					],
					"stateMutability": "view",
					"type": "function"
				},
				{
					"inputs": [],
					"name": "viewDepositsCount",
					"outputs": [
						{
							"internalType": "uint256",
							"name": "",
							"type": "uint256"
						}
					],
					"stateMutability": "view",
					"type": "function"
				},
				{
					"inputs": [],
					"name": "viewWithdrawCount",
					"outputs": [
						{
							"internalType": "uint256",
							"name": "",
							"type": "uint256"
						}
					],
					"stateMutability": "view",
					"type": "function"
				},
				{
					"inputs": [
						{
							"internalType": "uint256",
							"name": "_amount",
							"type": "uint256"
						}
					],
					"name": "withdrawETH",
					"outputs": [],
					"stateMutability": "nonpayable",
					"type": "function"
				},
				{
					"inputs": [
						{
							"internalType": "uint256",
							"name": "_amount",
							"type": "uint256"
						}
					],
					"name": "withdrawUSDC",
					"outputs": [],
					"stateMutability": "nonpayable",
					"type": "function"
				},
				{
					"stateMutability": "payable",
					"type": "receive"
				}
			],
			"devdoc": {
				"errors": {
					"AccessControlBadConfirmation()": [
						{
							"details": "The caller of a function is not the expected one. NOTE: Don't confuse with {AccessControlUnauthorizedAccount}."
						}
					],
					"AccessControlUnauthorizedAccount(address,bytes32)": [
						{
							"details": "The `account` is missing a role."
						}
					],
					"EnforcedPause()": [
						{
							"details": "The operation failed because the contract is paused."
						}
					],
					"ExpectedPause()": [
						{
							"details": "The operation failed because the contract is not paused."
						}
					],
					"KipuBank_CommittedOracle(uint256)": [
						{
							"params": {
								"price": "The incorrect price"
							}
						}
					],
					"KipuBank_ExceededLimit(uint256)": [
						{
							"params": {
								"amount": "The amount that exceeded the limite"
							}
						}
					],
					"KipuBank_ExceededThreshold(uint256)": [
						{
							"params": {
								"amount": "The amount that exceeds the threshold"
							}
						}
					],
					"KipuBank_InsufficientsFunds(address,uint256)": [
						{
							"params": {
								"amount": "The amount to withdraw",
								"holder": "The holder with insufficient funds"
							}
						}
					],
					"KipuBank_InvalidFeed(address)": [
						{
							"params": {
								"newFeed": "The new data feed provider"
							}
						}
					],
					"KipuBank_InvalidInit(uint256,uint256)": [
						{
							"params": {
								"limit": "The limit of the contract",
								"threshold": "The attempted threshold of the contract"
							}
						}
					],
					"KipuBank_InvalidLimit(uint256)": [
						{
							"params": {
								"limit": "The limit that is invalid"
							}
						}
					],
					"KipuBank_InvalidThreshold(uint256)": [
						{
							"params": {
								"threshold": "The invalid threshold"
							}
						}
					],
					"KipuBank_LowerMinimumAmount(uint256)": [
						{
							"params": {
								"amount": "The amount that is below the minimum"
							}
						}
					],
					"KipuBank_NonPermittedAccess(address)": [
						{
							"params": {
								"account": "The account that attempted to access a non-permitted function"
							}
						}
					],
					"KipuBank_NonPermittedAmount(uint256)": [
						{
							"params": {
								"amount": "The exceeded amount"
							}
						}
					],
					"KipuBank_NonPermittedOperation(address)": [
						{
							"params": {
								"holder": "The holder who attempted a non-permitted operation"
							}
						}
					],
					"KipuBank_OutdatedPrice(uint256)": [
						{
							"params": {
								"price": "The outdate price"
							}
						}
					],
					"KipuBank_RejectedWithdraw(address,uint256)": [
						{
							"params": {
								"amount": "The amount to withdraw",
								"holder": "The holder that perfomed the withdrawal"
							}
						}
					],
					"KipuBank_ZeroAmount(address)": [
						{
							"params": {
								"holder": "The holder who attempted a transaction with zero value"
							}
						}
					],
					"OwnableInvalidOwner(address)": [
						{
							"details": "The owner is not a valid owner account. (eg. `address(0)`)"
						}
					],
					"OwnableUnauthorizedAccount(address)": [
						{
							"details": "The caller account is not authorized to perform an operation."
						}
					],
					"SafeERC20FailedOperation(address)": [
						{
							"details": "An operation with an ERC-20 token failed."
						}
					]
				},
				"events": {
					"KipuBank_ContractPaused(address,uint256)": {
						"params": {
							"pauser": "The address that paused the contract",
							"time": "The timestamp when was paused"
						}
					},
					"KipuBank_ContractUnpaused(address,uint256)": {
						"params": {
							"time": "The timestamp when was unpaused",
							"unpauser": "The address that unpaused the contract"
						}
					},
					"KipuBank_FeedUpdated(address,address)": {
						"params": {
							"newFeed": "The new feed address",
							"previousFeed": "Was the previous feed address"
						}
					},
					"KipuBank_GrantedRole(address,bytes32)": {
						"params": {
							"account": "The account that was granted the new role",
							"role": "The role was granted"
						}
					},
					"KipuBank_RoleRevoked(address,bytes32)": {
						"params": {
							"account": "The account that was revoked the role",
							"role": "The role that revoked"
						}
					},
					"KipuBank_SuccessfulDeposit(address,uint256)": {
						"params": {
							"amount": "The Deposited amount",
							"holder": "Holder who made the deposit"
						}
					},
					"KipuBank_SuccessfulWithdrawal(address,uint256)": {
						"params": {
							"amount": "The amount withdrawn",
							"holder": "The holder who perfomed the withdrawal"
						}
					},
					"KipuBank_TransferredOwner(address,address)": {
						"params": {
							"newOwner": "The new owner of the contract",
							"previousOwner": "The previous owner of the contract"
						}
					},
					"Paused(address)": {
						"details": "Emitted when the pause is triggered by `account`."
					},
					"RoleAdminChanged(bytes32,bytes32,bytes32)": {
						"details": "Emitted when `newAdminRole` is set as ``role``'s admin role, replacing `previousAdminRole` `DEFAULT_ADMIN_ROLE` is the starting admin for all roles, despite {RoleAdminChanged} not being emitted to signal this."
					},
					"RoleGranted(bytes32,address,address)": {
						"details": "Emitted when `account` is granted `role`. `sender` is the account that originated the contract call. This account bears the admin role (for the granted role). Expected in cases where the role was granted using the internal {AccessControl-_grantRole}."
					},
					"RoleRevoked(bytes32,address,address)": {
						"details": "Emitted when `account` is revoked `role`. `sender` is the account that originated the contract call:   - if using `revokeRole`, it is the admin role bearer   - if using `renounceRole`, it is the role bearer (i.e. `account`)"
					},
					"Unpaused(address)": {
						"details": "Emitted when the pause is lifted by `account`."
					}
				},
				"kind": "dev",
				"methods": {
					"balanceOf(address,address)": {
						"params": {
							"_holder": "The holder of the account",
							"_token": "The token to consult"
						}
					},
					"constructor": {
						"details": "They must be generated at the time of deployment",
						"params": {
							"_feed": "The feed address to use",
							"_limit": "The global limit for the contract",
							"_threshold": "The global threshold for the contract",
							"_tokenERC20": "The address of the ERC20 token to use"
						}
					},
					"depositETH()": {
						"details": "Must be payable"
					},
					"depositarUSDC(uint256)": {
						"details": "It is payable and use the verifyUsdcAmount modifierIt is used the SafeIERC20 interface to performWe need the aprobation of the owner tokens"
					},
					"getRoleAdmin(bytes32)": {
						"details": "Returns the admin role that controls `role`. See {grantRole} and {revokeRole}. To change a role's admin, use {_setRoleAdmin}."
					},
					"grantRole(bytes32,address)": {
						"params": {
							"account": "The account is granted with the new role",
							"role": "The role is granted"
						}
					},
					"hasRole(bytes32,address)": {
						"details": "Returns `true` if `account` has been granted `role`."
					},
					"owner()": {
						"details": "Returns the address of the current owner."
					},
					"pauseContract()": {
						"details": "Only the owner and the PAUSER role can access this function"
					},
					"paused()": {
						"details": "Returns true if the contract is paused, and false otherwise."
					},
					"renounceOwnership()": {
						"details": "Leaves the contract without owner. It will not be possible to call `onlyOwner` functions. Can only be called by the current owner. NOTE: Renouncing ownership will leave the contract without an owner, thereby disabling any functionality that is only available to the owner."
					},
					"renounceRole(bytes32,address)": {
						"details": "Revokes `role` from the calling account. Roles are often managed via {grantRole} and {revokeRole}: this function's purpose is to provide a mechanism for accounts to lose their privileges if they are compromised (such as when a trusted device is misplaced). If the calling account had been revoked `role`, emits a {RoleRevoked} event. Requirements: - the caller must be `callerConfirmation`. May emit a {RoleRevoked} event."
					},
					"revokeRole(bytes32,address)": {
						"params": {
							"account": "The account that is revoked",
							"role": "The role that is revoked"
						}
					},
					"setFeeds(address)": {
						"details": "Only the owner can access this function",
						"params": {
							"_newFeed": "The new data feed address"
						}
					},
					"transferOwnership(address)": {
						"details": "Transfers ownership of the contract to a new account (`newOwner`). Can only be called by the current owner."
					},
					"transferTheOwnership(address)": {
						"details": "It is used the onlyOwner modifier",
						"params": {
							"_newOwner": "The address of the new owner of the contract"
						}
					},
					"unpauseContract()": {
						"details": "Only the owner and the PAUSER role can access this function"
					},
					"viewAccountTotalBalance()": {
						"returns": {
							"amount_": "The amount of the total balance in USD"
						}
					},
					"withdrawETH(uint256)": {
						"params": {
							"_amount": "The amount to withdraw"
						}
					},
					"withdrawUSDC(uint256)": {
						"params": {
							"_amount": "The amount to withdraw"
						}
					}
				},
				"stateVariables": {
					"DECIMAL_FACTOR": {
						"details": "We do the sum of ethereum decimals y chainlink decimals, then we substraction of the USDC decimals, it gave us the basis for equalization"
					},
					"HEARTBEAT": {
						"details": "By convention we use 3600"
					},
					"MIN_DEPOSIT": {
						"details": "Will use 1 Gwei as minimun"
					},
					"i_bankCap": {
						"details": "Keep in mind, global limit will be in USD"
					},
					"i_usdc": {
						"details": "USDC specific token"
					},
					"s_balances": {
						"details": "In the first mapping we have token address, in the nested mapping we have the holder and their balance"
					},
					"s_feed": {
						"details": "We use data feeds of ChainkLink"
					},
					"s_totalContract": {
						"details": "Total of the contract it is counted in USD"
					}
				},
				"version": 1
			},
			"evm": {
				"assembly": "    /* \"contracts/KipuBank.sol\":817:20494  contract KipuBank is ReentrancyGuard, Ownable, Pausable, AccessControl {... */\n  mstore(0x40, 0xe0)\n    /* \"contracts/KipuBank.sol\":2209:2210  0 */\n  0x00\n    /* \"contracts/KipuBank.sol\":2178:2210  uint private s_totalContract = 0 */\n  0x04\n  sstore\n    /* \"contracts/KipuBank.sol\":2484:2485  0 */\n  0x00\n    /* \"contracts/KipuBank.sol\":2455:2485  uint128 private s_deposits = 0 */\n  0x05\n  exp(0x0100, 0x00)\n  dup2\n  sload\n  dup2\n  0xffffffffffffffffffffffffffffffff\n  mul\n  not\n  and\n  swap1\n  dup4\n  0xffffffffffffffffffffffffffffffff\n  and\n  mul\n  or\n  swap1\n  sstore\n  pop\n    /* \"contracts/KipuBank.sol\":2617:2618  0 */\n  0x00\n    /* \"contracts/KipuBank.sol\":2586:2618  uint128 private s_withdrawal = 0 */\n  0x05\n  exp(0x0100, 0x10)\n  dup2\n  sload\n  dup2\n  0xffffffffffffffffffffffffffffffff\n  mul\n  not\n  and\n  swap1\n  dup4\n  0xffffffffffffffffffffffffffffffff\n  and\n  mul\n  or\n  swap1\n  sstore\n  pop\n    /* \"contracts/KipuBank.sol\":7574:8392  constructor(... */\n  callvalue\n  dup1\n  iszero\n  tag_1\n  jumpi\n  revert(0x00, 0x00)\ntag_1:\n  pop\n  mload(0x40)\n  sub(codesize, bytecodeSize)\n  dup1\n  bytecodeSize\n  dup4\n  codecopy\n  dup2\n  dup2\n  add\n  0x40\n  mstore\n  dup2\n  add\n  swap1\n  tag_2\n  swap2\n  swap1\n  tag_3\n  jump\t// in\ntag_2:\n    /* \"contracts/KipuBank.sol\":7734:7740  _owner */\n  dup3\n    /* \"@openzeppelin/contracts/security/ReentrancyGuard.sol\":1716:1717  1 */\n  0x01\n    /* \"@openzeppelin/contracts/security/ReentrancyGuard.sol\":1821:1828  _status */\n  0x00\n    /* \"@openzeppelin/contracts/security/ReentrancyGuard.sol\":1821:1843  _status = _NOT_ENTERED */\n  dup2\n  swap1\n  sstore\n  pop\n    /* \"@openzeppelin/contracts/access/Ownable.sol\":1297:1298  0 */\n  0x00\n    /* \"@openzeppelin/contracts/access/Ownable.sol\":1273:1299  initialOwner == address(0) */\n  0xffffffffffffffffffffffffffffffffffffffff\n  and\n    /* \"@openzeppelin/contracts/access/Ownable.sol\":1273:1285  initialOwner */\n  dup2\n    /* \"@openzeppelin/contracts/access/Ownable.sol\":1273:1299  initialOwner == address(0) */\n  0xffffffffffffffffffffffffffffffffffffffff\n  and\n  sub\n    /* \"@openzeppelin/contracts/access/Ownable.sol\":1269:1364  if (initialOwner == address(0)) {... */\n  tag_9\n  jumpi\n    /* \"@openzeppelin/contracts/access/Ownable.sol\":1350:1351  0 */\n  0x00\n    /* \"@openzeppelin/contracts/access/Ownable.sol\":1322:1353  OwnableInvalidOwner(address(0)) */\n  mload(0x40)\n  0x1e4fbdf700000000000000000000000000000000000000000000000000000000\n  dup2\n  mstore\n  0x04\n  add\n  tag_10\n  swap2\n  swap1\n  tag_11\n  jump\t// in\ntag_10:\n  mload(0x40)\n  dup1\n  swap2\n  sub\n  swap1\n  revert\n    /* \"@openzeppelin/contracts/access/Ownable.sol\":1269:1364  if (initialOwner == address(0)) {... */\ntag_9:\n    /* \"@openzeppelin/contracts/access/Ownable.sol\":1373:1405  _transferOwnership(initialOwner) */\n  tag_12\n    /* \"@openzeppelin/contracts/access/Ownable.sol\":1392:1404  initialOwner */\n  dup2\n    /* \"@openzeppelin/contracts/access/Ownable.sol\":1373:1391  _transferOwnership */\n  shl(0x20, tag_13)\n    /* \"@openzeppelin/contracts/access/Ownable.sol\":1373:1405  _transferOwnership(initialOwner) */\n  0x20\n  shr\n  jump\t// in\ntag_12:\n    /* \"@openzeppelin/contracts/access/Ownable.sol\":1225:1412  constructor(address initialOwner) {... */\n  pop\n    /* \"contracts/KipuBank.sol\":7770:7771  0 */\n  0x00\n    /* \"contracts/KipuBank.sol\":7760:7766  _limit */\n  dup6\n    /* \"contracts/KipuBank.sol\":7760:7771  _limit == 0 */\n  sub\n    /* \"contracts/KipuBank.sol\":7757:7809  if(_limit == 0) revert KipuBank_InvalidLimit(_limit) */\n  tag_15\n  jumpi\n    /* \"contracts/KipuBank.sol\":7802:7808  _limit */\n  dup5\n    /* \"contracts/KipuBank.sol\":7780:7809  KipuBank_InvalidLimit(_limit) */\n  mload(0x40)\n  0x7fa42be200000000000000000000000000000000000000000000000000000000\n  dup2\n  mstore\n  0x04\n  add\n  tag_16\n  swap2\n  swap1\n  tag_17\n  jump\t// in\ntag_16:\n  mload(0x40)\n  dup1\n  swap2\n  sub\n  swap1\n  revert\n    /* \"contracts/KipuBank.sol\":7757:7809  if(_limit == 0) revert KipuBank_InvalidLimit(_limit) */\ntag_15:\n    /* \"contracts/KipuBank.sol\":7836:7837  0 */\n  0x00\n    /* \"contracts/KipuBank.sol\":7822:7832  _threshold */\n  dup5\n    /* \"contracts/KipuBank.sol\":7822:7837  _threshold == 0 */\n  sub\n    /* \"contracts/KipuBank.sol\":7819:7883  if(_threshold == 0) revert KipuBank_InvalidThreshold(_threshold) */\n  tag_18\n  jumpi\n    /* \"contracts/KipuBank.sol\":7872:7882  _threshold */\n  dup4\n    /* \"contracts/KipuBank.sol\":7846:7883  KipuBank_InvalidThreshold(_threshold) */\n  mload(0x40)\n  0xd71fe66c00000000000000000000000000000000000000000000000000000000\n  dup2\n  mstore\n  0x04\n  add\n  tag_19\n  swap2\n  swap1\n  tag_17\n  jump\t// in\ntag_19:\n  mload(0x40)\n  dup1\n  swap2\n  sub\n  swap1\n  revert\n    /* \"contracts/KipuBank.sol\":7819:7883  if(_threshold == 0) revert KipuBank_InvalidThreshold(_threshold) */\ntag_18:\n    /* \"contracts/KipuBank.sol\":7909:7915  _limit */\n  dup5\n    /* \"contracts/KipuBank.sol\":7896:7906  _threshold */\n  dup5\n    /* \"contracts/KipuBank.sol\":7896:7915  _threshold > _limit */\n  gt\n    /* \"contracts/KipuBank.sol\":7893:7964  if(_threshold > _limit) revert KipuBank_InvalidInit(_limit, _threshold) */\n  iszero\n  tag_20\n  jumpi\n    /* \"contracts/KipuBank.sol\":7945:7951  _limit */\n  dup5\n    /* \"contracts/KipuBank.sol\":7953:7963  _threshold */\n  dup5\n    /* \"contracts/KipuBank.sol\":7924:7964  KipuBank_InvalidInit(_limit, _threshold) */\n  mload(0x40)\n  0x359f62ab00000000000000000000000000000000000000000000000000000000\n  dup2\n  mstore\n  0x04\n  add\n  tag_21\n  swap3\n  swap2\n  swap1\n  tag_22\n  jump\t// in\ntag_21:\n  mload(0x40)\n  dup1\n  swap2\n  sub\n  swap1\n  revert\n    /* \"contracts/KipuBank.sol\":7893:7964  if(_threshold > _limit) revert KipuBank_InvalidInit(_limit, _threshold) */\ntag_20:\n    /* \"contracts/KipuBank.sol\":7994:7995  0 */\n  0x00\n    /* \"contracts/KipuBank.sol\":7977:7996  _feed == address(0) */\n  0xffffffffffffffffffffffffffffffffffffffff\n  and\n    /* \"contracts/KipuBank.sol\":7977:7982  _feed */\n  dup3\n    /* \"contracts/KipuBank.sol\":7977:7996  _feed == address(0) */\n  0xffffffffffffffffffffffffffffffffffffffff\n  and\n  sub\n    /* \"contracts/KipuBank.sol\":7974:8030  if(_feed == address(0)) revert KipuBank_InvalidAddress() */\n  tag_23\n  jumpi\n    /* \"contracts/KipuBank.sol\":8005:8030  KipuBank_InvalidAddress() */\n  mload(0x40)\n  0x4ab4914300000000000000000000000000000000000000000000000000000000\n  dup2\n  mstore\n  0x04\n  add\n  mload(0x40)\n  dup1\n  swap2\n  sub\n  swap1\n  revert\n    /* \"contracts/KipuBank.sol\":7974:8030  if(_feed == address(0)) revert KipuBank_InvalidAddress() */\ntag_23:\n    /* \"contracts/KipuBank.sol\":8066:8067  0 */\n  0x00\n    /* \"contracts/KipuBank.sol\":8043:8068  _tokenERC20 == address(0) */\n  0xffffffffffffffffffffffffffffffffffffffff\n  and\n    /* \"contracts/KipuBank.sol\":8043:8054  _tokenERC20 */\n  dup2\n    /* \"contracts/KipuBank.sol\":8043:8068  _tokenERC20 == address(0) */\n  0xffffffffffffffffffffffffffffffffffffffff\n  and\n  sub\n    /* \"contracts/KipuBank.sol\":8040:8102  if(_tokenERC20 == address(0)) revert KipuBank_InvalidAddress() */\n  tag_24\n  jumpi\n    /* \"contracts/KipuBank.sol\":8077:8102  KipuBank_InvalidAddress() */\n  mload(0x40)\n  0x4ab4914300000000000000000000000000000000000000000000000000000000\n  dup2\n  mstore\n  0x04\n  add\n  mload(0x40)\n  dup1\n  swap2\n  sub\n  swap1\n  revert\n    /* \"contracts/KipuBank.sol\":8040:8102  if(_tokenERC20 == address(0)) revert KipuBank_InvalidAddress() */\ntag_24:\n    /* \"contracts/KipuBank.sol\":8121:8159  _grantRole(DEFAULT_ADMIN_ROLE, _owner) */\n  tag_25\n    /* \"@openzeppelin/contracts/access/AccessControl.sol\":2241:2245  0x00 */\n  0x00\n    /* \"contracts/KipuBank.sol\":8132:8150  DEFAULT_ADMIN_ROLE */\n  0x00\n  shl\n    /* \"contracts/KipuBank.sol\":8152:8158  _owner */\n  dup5\n    /* \"contracts/KipuBank.sol\":8121:8131  _grantRole */\n  shl(0x20, tag_26)\n    /* \"contracts/KipuBank.sol\":8121:8159  _grantRole(DEFAULT_ADMIN_ROLE, _owner) */\n  0x20\n  shr\n  jump\t// in\ntag_25:\n  pop\n    /* \"contracts/KipuBank.sol\":8169:8195  _grantRole(PAUSER, _owner) */\n  tag_27\n    /* \"contracts/KipuBank.sol\":964:983  keccak256(\"PAUSER\") */\n  0x539440820030c4994db4e31b6b800deafd503688728f932addfe7a410515c14c\n    /* \"contracts/KipuBank.sol\":8188:8194  _owner */\n  dup5\n    /* \"contracts/KipuBank.sol\":8169:8179  _grantRole */\n  shl(0x20, tag_26)\n    /* \"contracts/KipuBank.sol\":8169:8195  _grantRole(PAUSER, _owner) */\n  0x20\n  shr\n  jump\t// in\ntag_27:\n  pop\n    /* \"contracts/KipuBank.sol\":8205:8237  _grantRole(FEED_MANAGER, _owner) */\n  tag_28\n    /* \"contracts/KipuBank.sol\":1068:1093  keccak256(\"FEED_MANAGER\") */\n  0x9bbb3ee3bdfbe971682b08854a620ca4bf696f8e0c269e5c5b129a18e64d29df\n    /* \"contracts/KipuBank.sol\":8230:8236  _owner */\n  dup5\n    /* \"contracts/KipuBank.sol\":8205:8215  _grantRole */\n  shl(0x20, tag_26)\n    /* \"contracts/KipuBank.sol\":8205:8237  _grantRole(FEED_MANAGER, _owner) */\n  0x20\n  shr\n  jump\t// in\ntag_28:\n  pop\n    /* \"contracts/KipuBank.sol\":8264:8275  _tokenERC20 */\n  dup1\n    /* \"contracts/KipuBank.sol\":8248:8276  i_usdc = IERC20(_tokenERC20) */\n  0xffffffffffffffffffffffffffffffffffffffff\n  and\n  0x80\n  dup2\n  0xffffffffffffffffffffffffffffffffffffffff\n  and\n  dup2\n  mstore\n  pop\n  pop\n    /* \"contracts/KipuBank.sol\":8317:8322  _feed */\n  dup2\n    /* \"contracts/KipuBank.sol\":8286:8292  s_feed */\n  0x03\n  0x00\n    /* \"contracts/KipuBank.sol\":8286:8323  s_feed = AggregatorV3Interface(_feed) */\n  0x0100\n  exp\n  dup2\n  sload\n  dup2\n  0xffffffffffffffffffffffffffffffffffffffff\n  mul\n  not\n  and\n  swap1\n  dup4\n  0xffffffffffffffffffffffffffffffffffffffff\n  and\n  mul\n  or\n  swap1\n  sstore\n  pop\n    /* \"contracts/KipuBank.sol\":8345:8351  _limit */\n  dup5\n    /* \"contracts/KipuBank.sol\":8333:8351  i_bankCap = _limit */\n  0xc0\n  dup2\n  dup2\n  mstore\n  pop\n  pop\n    /* \"contracts/KipuBank.sol\":8375:8385  _threshold */\n  dup4\n    /* \"contracts/KipuBank.sol\":8361:8385  i_threshold = _threshold */\n  0xa0\n  dup2\n  dup2\n  mstore\n  pop\n  pop\n    /* \"contracts/KipuBank.sol\":7574:8392  constructor(... */\n  pop\n  pop\n  pop\n  pop\n  pop\n    /* \"contracts/KipuBank.sol\":817:20494  contract KipuBank is ReentrancyGuard, Ownable, Pausable, AccessControl {... */\n  jump(tag_29)\n    /* \"@openzeppelin/contracts/access/Ownable.sol\":2912:3099  function _transferOwnership(address newOwner) internal virtual {... */\ntag_13:\n    /* \"@openzeppelin/contracts/access/Ownable.sol\":2985:3001  address oldOwner */\n  0x00\n    /* \"@openzeppelin/contracts/access/Ownable.sol\":3004:3010  _owner */\n  0x01\n  0x00\n  swap1\n  sload\n  swap1\n  0x0100\n  exp\n  swap1\n  div\n  0xffffffffffffffffffffffffffffffffffffffff\n  and\n    /* \"@openzeppelin/contracts/access/Ownable.sol\":2985:3010  address oldOwner = _owner */\n  swap1\n  pop\n    /* \"@openzeppelin/contracts/access/Ownable.sol\":3029:3037  newOwner */\n  dup2\n    /* \"@openzeppelin/contracts/access/Ownable.sol\":3020:3026  _owner */\n  0x01\n  0x00\n    /* \"@openzeppelin/contracts/access/Ownable.sol\":3020:3037  _owner = newOwner */\n  0x0100\n  exp\n  dup2\n  sload\n  dup2\n  0xffffffffffffffffffffffffffffffffffffffff\n  mul\n  not\n  and\n  swap1\n  dup4\n  0xffffffffffffffffffffffffffffffffffffffff\n  and\n  mul\n  or\n  swap1\n  sstore\n  pop\n    /* \"@openzeppelin/contracts/access/Ownable.sol\":3083:3091  newOwner */\n  dup2\n    /* \"@openzeppelin/contracts/access/Ownable.sol\":3052:3092  OwnershipTransferred(oldOwner, newOwner) */\n  0xffffffffffffffffffffffffffffffffffffffff\n  and\n    /* \"@openzeppelin/contracts/access/Ownable.sol\":3073:3081  oldOwner */\n  dup2\n    /* \"@openzeppelin/contracts/access/Ownable.sol\":3052:3092  OwnershipTransferred(oldOwner, newOwner) */\n  0xffffffffffffffffffffffffffffffffffffffff\n  and\n  0x8be0079c531659141344cd1fd0a4f28419497f9722a3daafe3b4186f6b6457e0\n  mload(0x40)\n  mload(0x40)\n  dup1\n  swap2\n  sub\n  swap1\n  log3\n    /* \"@openzeppelin/contracts/access/Ownable.sol\":2975:3099  {... */\n  pop\n    /* \"@openzeppelin/contracts/access/Ownable.sol\":2912:3099  function _transferOwnership(address newOwner) internal virtual {... */\n  pop\n  jump\t// out\n    /* \"@openzeppelin/contracts/access/AccessControl.sol\":6155:6471  function _grantRole(bytes32 role, address account) internal virtual returns (bool) {... */\ntag_26:\n    /* \"@openzeppelin/contracts/access/AccessControl.sol\":6232:6236  bool */\n  0x00\n    /* \"@openzeppelin/contracts/access/AccessControl.sol\":6253:6275  hasRole(role, account) */\n  tag_32\n    /* \"@openzeppelin/contracts/access/AccessControl.sol\":6261:6265  role */\n  dup4\n    /* \"@openzeppelin/contracts/access/AccessControl.sol\":6267:6274  account */\n  dup4\n    /* \"@openzeppelin/contracts/access/AccessControl.sol\":6253:6260  hasRole */\n  shl(0x20, tag_33)\n    /* \"@openzeppelin/contracts/access/AccessControl.sol\":6253:6275  hasRole(role, account) */\n  0x20\n  shr\n  jump\t// in\ntag_32:\n    /* \"@openzeppelin/contracts/access/AccessControl.sol\":6248:6465  if (!hasRole(role, account)) {... */\n  tag_34\n  jumpi\n    /* \"@openzeppelin/contracts/access/AccessControl.sol\":6323:6327  true */\n  0x01\n    /* \"@openzeppelin/contracts/access/AccessControl.sol\":6291:6297  _roles */\n  0x02\n    /* \"@openzeppelin/contracts/access/AccessControl.sol\":6291:6303  _roles[role] */\n  0x00\n    /* \"@openzeppelin/contracts/access/AccessControl.sol\":6298:6302  role */\n  dup6\n    /* \"@openzeppelin/contracts/access/AccessControl.sol\":6291:6303  _roles[role] */\n  dup2\n  mstore\n  0x20\n  add\n  swap1\n  dup2\n  mstore\n  0x20\n  add\n  0x00\n  keccak256\n    /* \"@openzeppelin/contracts/access/AccessControl.sol\":6291:6311  _roles[role].hasRole */\n  0x00\n  add\n    /* \"@openzeppelin/contracts/access/AccessControl.sol\":6291:6320  _roles[role].hasRole[account] */\n  0x00\n    /* \"@openzeppelin/contracts/access/AccessControl.sol\":6312:6319  account */\n  dup5\n    /* \"@openzeppelin/contracts/access/AccessControl.sol\":6291:6320  _roles[role].hasRole[account] */\n  0xffffffffffffffffffffffffffffffffffffffff\n  and\n  0xffffffffffffffffffffffffffffffffffffffff\n  and\n  dup2\n  mstore\n  0x20\n  add\n  swap1\n  dup2\n  mstore\n  0x20\n  add\n  0x00\n  keccak256\n  0x00\n    /* \"@openzeppelin/contracts/access/AccessControl.sol\":6291:6327  _roles[role].hasRole[account] = true */\n  0x0100\n  exp\n  dup2\n  sload\n  dup2\n  0xff\n  mul\n  not\n  and\n  swap1\n  dup4\n  iszero\n  iszero\n  mul\n  or\n  swap1\n  sstore\n  pop\n    /* \"@openzeppelin/contracts/access/AccessControl.sol\":6373:6385  _msgSender() */\n  tag_35\n    /* \"@openzeppelin/contracts/access/AccessControl.sol\":6373:6383  _msgSender */\n  shl(0x20, tag_36)\n    /* \"@openzeppelin/contracts/access/AccessControl.sol\":6373:6385  _msgSender() */\n  0x20\n  shr\n  jump\t// in\ntag_35:\n    /* \"@openzeppelin/contracts/access/AccessControl.sol\":6346:6386  RoleGranted(role, account, _msgSender()) */\n  0xffffffffffffffffffffffffffffffffffffffff\n  and\n    /* \"@openzeppelin/contracts/access/AccessControl.sol\":6364:6371  account */\n  dup3\n    /* \"@openzeppelin/contracts/access/AccessControl.sol\":6346:6386  RoleGranted(role, account, _msgSender()) */\n  0xffffffffffffffffffffffffffffffffffffffff\n  and\n    /* \"@openzeppelin/contracts/access/AccessControl.sol\":6358:6362  role */\n  dup5\n    /* \"@openzeppelin/contracts/access/AccessControl.sol\":6346:6386  RoleGranted(role, account, _msgSender()) */\n  0x2f8788117e7eff1d82e926ec794901d17c78024a50270940304540a733656f0d\n  mload(0x40)\n  mload(0x40)\n  dup1\n  swap2\n  sub\n  swap1\n  log4\n    /* \"@openzeppelin/contracts/access/AccessControl.sol\":6407:6411  true */\n  0x01\n    /* \"@openzeppelin/contracts/access/AccessControl.sol\":6400:6411  return true */\n  swap1\n  pop\n  jump(tag_31)\n    /* \"@openzeppelin/contracts/access/AccessControl.sol\":6248:6465  if (!hasRole(role, account)) {... */\ntag_34:\n    /* \"@openzeppelin/contracts/access/AccessControl.sol\":6449:6454  false */\n  0x00\n    /* \"@openzeppelin/contracts/access/AccessControl.sol\":6442:6454  return false */\n  swap1\n  pop\n    /* \"@openzeppelin/contracts/access/AccessControl.sol\":6155:6471  function _grantRole(bytes32 role, address account) internal virtual returns (bool) {... */\ntag_31:\n  swap3\n  swap2\n  pop\n  pop\n  jump\t// out\n    /* \"@openzeppelin/contracts/access/AccessControl.sol\":2830:2966  function hasRole(bytes32 role, address account) public view virtual returns (bool) {... */\ntag_33:\n    /* \"@openzeppelin/contracts/access/AccessControl.sol\":2907:2911  bool */\n  0x00\n    /* \"@openzeppelin/contracts/access/AccessControl.sol\":2930:2936  _roles */\n  0x02\n    /* \"@openzeppelin/contracts/access/AccessControl.sol\":2930:2942  _roles[role] */\n  0x00\n    /* \"@openzeppelin/contracts/access/AccessControl.sol\":2937:2941  role */\n  dup5\n    /* \"@openzeppelin/contracts/access/AccessControl.sol\":2930:2942  _roles[role] */\n  dup2\n  mstore\n  0x20\n  add\n  swap1\n  dup2\n  mstore\n  0x20\n  add\n  0x00\n  keccak256\n    /* \"@openzeppelin/contracts/access/AccessControl.sol\":2930:2950  _roles[role].hasRole */\n  0x00\n  add\n    /* \"@openzeppelin/contracts/access/AccessControl.sol\":2930:2959  _roles[role].hasRole[account] */\n  0x00\n    /* \"@openzeppelin/contracts/access/AccessControl.sol\":2951:2958  account */\n  dup4\n    /* \"@openzeppelin/contracts/access/AccessControl.sol\":2930:2959  _roles[role].hasRole[account] */\n  0xffffffffffffffffffffffffffffffffffffffff\n  and\n  0xffffffffffffffffffffffffffffffffffffffff\n  and\n  dup2\n  mstore\n  0x20\n  add\n  swap1\n  dup2\n  mstore\n  0x20\n  add\n  0x00\n  keccak256\n  0x00\n  swap1\n  sload\n  swap1\n  0x0100\n  exp\n  swap1\n  div\n  0xff\n  and\n    /* \"@openzeppelin/contracts/access/AccessControl.sol\":2923:2959  return _roles[role].hasRole[account] */\n  swap1\n  pop\n    /* \"@openzeppelin/contracts/access/AccessControl.sol\":2830:2966  function hasRole(bytes32 role, address account) public view virtual returns (bool) {... */\n  swap3\n  swap2\n  pop\n  pop\n  jump\t// out\n    /* \"@openzeppelin/contracts/utils/Context.sol\":656:752  function _msgSender() internal view virtual returns (address) {... */\ntag_36:\n    /* \"@openzeppelin/contracts/utils/Context.sol\":709:716  address */\n  0x00\n    /* \"@openzeppelin/contracts/utils/Context.sol\":735:745  msg.sender */\n  caller\n    /* \"@openzeppelin/contracts/utils/Context.sol\":728:745  return msg.sender */\n  swap1\n  pop\n    /* \"@openzeppelin/contracts/utils/Context.sol\":656:752  function _msgSender() internal view virtual returns (address) {... */\n  swap1\n  jump\t// out\n    /* \"#utility.yul\":88:205   */\ntag_41:\n    /* \"#utility.yul\":197:198   */\n  0x00\n    /* \"#utility.yul\":194:195   */\n  0x00\n    /* \"#utility.yul\":187:199   */\n  revert\n    /* \"#utility.yul\":334:411   */\ntag_43:\n    /* \"#utility.yul\":371:378   */\n  0x00\n    /* \"#utility.yul\":400:405   */\n  dup2\n    /* \"#utility.yul\":389:405   */\n  swap1\n  pop\n    /* \"#utility.yul\":334:411   */\n  swap2\n  swap1\n  pop\n  jump\t// out\n    /* \"#utility.yul\":417:539   */\ntag_44:\n    /* \"#utility.yul\":490:514   */\n  tag_58\n    /* \"#utility.yul\":508:513   */\n  dup2\n    /* \"#utility.yul\":490:514   */\n  tag_43\n  jump\t// in\ntag_58:\n    /* \"#utility.yul\":483:488   */\n  dup2\n    /* \"#utility.yul\":480:515   */\n  eq\n    /* \"#utility.yul\":470:533   */\n  tag_59\n  jumpi\n    /* \"#utility.yul\":529:530   */\n  0x00\n    /* \"#utility.yul\":526:527   */\n  0x00\n    /* \"#utility.yul\":519:531   */\n  revert\n    /* \"#utility.yul\":470:533   */\ntag_59:\n    /* \"#utility.yul\":417:539   */\n  pop\n  jump\t// out\n    /* \"#utility.yul\":545:688   */\ntag_45:\n    /* \"#utility.yul\":602:607   */\n  0x00\n    /* \"#utility.yul\":633:639   */\n  dup2\n    /* \"#utility.yul\":627:640   */\n  mload\n    /* \"#utility.yul\":618:640   */\n  swap1\n  pop\n    /* \"#utility.yul\":649:682   */\n  tag_61\n    /* \"#utility.yul\":676:681   */\n  dup2\n    /* \"#utility.yul\":649:682   */\n  tag_44\n  jump\t// in\ntag_61:\n    /* \"#utility.yul\":545:688   */\n  swap3\n  swap2\n  pop\n  pop\n  jump\t// out\n    /* \"#utility.yul\":694:820   */\ntag_46:\n    /* \"#utility.yul\":731:738   */\n  0x00\n    /* \"#utility.yul\":771:813   */\n  0xffffffffffffffffffffffffffffffffffffffff\n    /* \"#utility.yul\":764:769   */\n  dup3\n    /* \"#utility.yul\":760:814   */\n  and\n    /* \"#utility.yul\":749:814   */\n  swap1\n  pop\n    /* \"#utility.yul\":694:820   */\n  swap2\n  swap1\n  pop\n  jump\t// out\n    /* \"#utility.yul\":826:922   */\ntag_47:\n    /* \"#utility.yul\":863:870   */\n  0x00\n    /* \"#utility.yul\":892:916   */\n  tag_64\n    /* \"#utility.yul\":910:915   */\n  dup3\n    /* \"#utility.yul\":892:916   */\n  tag_46\n  jump\t// in\ntag_64:\n    /* \"#utility.yul\":881:916   */\n  swap1\n  pop\n    /* \"#utility.yul\":826:922   */\n  swap2\n  swap1\n  pop\n  jump\t// out\n    /* \"#utility.yul\":928:1050   */\ntag_48:\n    /* \"#utility.yul\":1001:1025   */\n  tag_66\n    /* \"#utility.yul\":1019:1024   */\n  dup2\n    /* \"#utility.yul\":1001:1025   */\n  tag_47\n  jump\t// in\ntag_66:\n    /* \"#utility.yul\":994:999   */\n  dup2\n    /* \"#utility.yul\":991:1026   */\n  eq\n    /* \"#utility.yul\":981:1044   */\n  tag_67\n  jumpi\n    /* \"#utility.yul\":1040:1041   */\n  0x00\n    /* \"#utility.yul\":1037:1038   */\n  0x00\n    /* \"#utility.yul\":1030:1042   */\n  revert\n    /* \"#utility.yul\":981:1044   */\ntag_67:\n    /* \"#utility.yul\":928:1050   */\n  pop\n  jump\t// out\n    /* \"#utility.yul\":1056:1199   */\ntag_49:\n    /* \"#utility.yul\":1113:1118   */\n  0x00\n    /* \"#utility.yul\":1144:1150   */\n  dup2\n    /* \"#utility.yul\":1138:1151   */\n  mload\n    /* \"#utility.yul\":1129:1151   */\n  swap1\n  pop\n    /* \"#utility.yul\":1160:1193   */\n  tag_69\n    /* \"#utility.yul\":1187:1192   */\n  dup2\n    /* \"#utility.yul\":1160:1193   */\n  tag_48\n  jump\t// in\ntag_69:\n    /* \"#utility.yul\":1056:1199   */\n  swap3\n  swap2\n  pop\n  pop\n  jump\t// out\n    /* \"#utility.yul\":1205:2182   */\ntag_3:\n    /* \"#utility.yul\":1311:1317   */\n  0x00\n    /* \"#utility.yul\":1319:1325   */\n  0x00\n    /* \"#utility.yul\":1327:1333   */\n  0x00\n    /* \"#utility.yul\":1335:1341   */\n  0x00\n    /* \"#utility.yul\":1343:1349   */\n  0x00\n    /* \"#utility.yul\":1392:1395   */\n  0xa0\n    /* \"#utility.yul\":1380:1389   */\n  dup7\n    /* \"#utility.yul\":1371:1378   */\n  dup9\n    /* \"#utility.yul\":1367:1390   */\n  sub\n    /* \"#utility.yul\":1363:1396   */\n  slt\n    /* \"#utility.yul\":1360:1480   */\n  iszero\n  tag_71\n  jumpi\n    /* \"#utility.yul\":1399:1478   */\n  tag_72\n  tag_41\n  jump\t// in\ntag_72:\n    /* \"#utility.yul\":1360:1480   */\ntag_71:\n    /* \"#utility.yul\":1519:1520   */\n  0x00\n    /* \"#utility.yul\":1544:1608   */\n  tag_73\n    /* \"#utility.yul\":1600:1607   */\n  dup9\n    /* \"#utility.yul\":1591:1597   */\n  dup3\n    /* \"#utility.yul\":1580:1589   */\n  dup10\n    /* \"#utility.yul\":1576:1598   */\n  add\n    /* \"#utility.yul\":1544:1608   */\n  tag_45\n  jump\t// in\ntag_73:\n    /* \"#utility.yul\":1534:1608   */\n  swap6\n  pop\n    /* \"#utility.yul\":1490:1618   */\n  pop\n    /* \"#utility.yul\":1657:1659   */\n  0x20\n    /* \"#utility.yul\":1683:1747   */\n  tag_74\n    /* \"#utility.yul\":1739:1746   */\n  dup9\n    /* \"#utility.yul\":1730:1736   */\n  dup3\n    /* \"#utility.yul\":1719:1728   */\n  dup10\n    /* \"#utility.yul\":1715:1737   */\n  add\n    /* \"#utility.yul\":1683:1747   */\n  tag_45\n  jump\t// in\ntag_74:\n    /* \"#utility.yul\":1673:1747   */\n  swap5\n  pop\n    /* \"#utility.yul\":1628:1757   */\n  pop\n    /* \"#utility.yul\":1796:1798   */\n  0x40\n    /* \"#utility.yul\":1822:1886   */\n  tag_75\n    /* \"#utility.yul\":1878:1885   */\n  dup9\n    /* \"#utility.yul\":1869:1875   */\n  dup3\n    /* \"#utility.yul\":1858:1867   */\n  dup10\n    /* \"#utility.yul\":1854:1876   */\n  add\n    /* \"#utility.yul\":1822:1886   */\n  tag_49\n  jump\t// in\ntag_75:\n    /* \"#utility.yul\":1812:1886   */\n  swap4\n  pop\n    /* \"#utility.yul\":1767:1896   */\n  pop\n    /* \"#utility.yul\":1935:1937   */\n  0x60\n    /* \"#utility.yul\":1961:2025   */\n  tag_76\n    /* \"#utility.yul\":2017:2024   */\n  dup9\n    /* \"#utility.yul\":2008:2014   */\n  dup3\n    /* \"#utility.yul\":1997:2006   */\n  dup10\n    /* \"#utility.yul\":1993:2015   */\n  add\n    /* \"#utility.yul\":1961:2025   */\n  tag_49\n  jump\t// in\ntag_76:\n    /* \"#utility.yul\":1951:2025   */\n  swap3\n  pop\n    /* \"#utility.yul\":1906:2035   */\n  pop\n    /* \"#utility.yul\":2074:2077   */\n  0x80\n    /* \"#utility.yul\":2101:2165   */\n  tag_77\n    /* \"#utility.yul\":2157:2164   */\n  dup9\n    /* \"#utility.yul\":2148:2154   */\n  dup3\n    /* \"#utility.yul\":2137:2146   */\n  dup10\n    /* \"#utility.yul\":2133:2155   */\n  add\n    /* \"#utility.yul\":2101:2165   */\n  tag_49\n  jump\t// in\ntag_77:\n    /* \"#utility.yul\":2091:2165   */\n  swap2\n  pop\n    /* \"#utility.yul\":2045:2175   */\n  pop\n    /* \"#utility.yul\":1205:2182   */\n  swap3\n  swap6\n  pop\n  swap3\n  swap6\n  swap1\n  swap4\n  pop\n  jump\t// out\n    /* \"#utility.yul\":2188:2306   */\ntag_50:\n    /* \"#utility.yul\":2275:2299   */\n  tag_79\n    /* \"#utility.yul\":2293:2298   */\n  dup2\n    /* \"#utility.yul\":2275:2299   */\n  tag_47\n  jump\t// in\ntag_79:\n    /* \"#utility.yul\":2270:2273   */\n  dup3\n    /* \"#utility.yul\":2263:2300   */\n  mstore\n    /* \"#utility.yul\":2188:2306   */\n  pop\n  pop\n  jump\t// out\n    /* \"#utility.yul\":2312:2534   */\ntag_11:\n    /* \"#utility.yul\":2405:2409   */\n  0x00\n    /* \"#utility.yul\":2443:2445   */\n  0x20\n    /* \"#utility.yul\":2432:2441   */\n  dup3\n    /* \"#utility.yul\":2428:2446   */\n  add\n    /* \"#utility.yul\":2420:2446   */\n  swap1\n  pop\n    /* \"#utility.yul\":2456:2527   */\n  tag_81\n    /* \"#utility.yul\":2524:2525   */\n  0x00\n    /* \"#utility.yul\":2513:2522   */\n  dup4\n    /* \"#utility.yul\":2509:2526   */\n  add\n    /* \"#utility.yul\":2500:2506   */\n  dup5\n    /* \"#utility.yul\":2456:2527   */\n  tag_50\n  jump\t// in\ntag_81:\n    /* \"#utility.yul\":2312:2534   */\n  swap3\n  swap2\n  pop\n  pop\n  jump\t// out\n    /* \"#utility.yul\":2540:2658   */\ntag_51:\n    /* \"#utility.yul\":2627:2651   */\n  tag_83\n    /* \"#utility.yul\":2645:2650   */\n  dup2\n    /* \"#utility.yul\":2627:2651   */\n  tag_43\n  jump\t// in\ntag_83:\n    /* \"#utility.yul\":2622:2625   */\n  dup3\n    /* \"#utility.yul\":2615:2652   */\n  mstore\n    /* \"#utility.yul\":2540:2658   */\n  pop\n  pop\n  jump\t// out\n    /* \"#utility.yul\":2664:2886   */\ntag_17:\n    /* \"#utility.yul\":2757:2761   */\n  0x00\n    /* \"#utility.yul\":2795:2797   */\n  0x20\n    /* \"#utility.yul\":2784:2793   */\n  dup3\n    /* \"#utility.yul\":2780:2798   */\n  add\n    /* \"#utility.yul\":2772:2798   */\n  swap1\n  pop\n    /* \"#utility.yul\":2808:2879   */\n  tag_85\n    /* \"#utility.yul\":2876:2877   */\n  0x00\n    /* \"#utility.yul\":2865:2874   */\n  dup4\n    /* \"#utility.yul\":2861:2878   */\n  add\n    /* \"#utility.yul\":2852:2858   */\n  dup5\n    /* \"#utility.yul\":2808:2879   */\n  tag_51\n  jump\t// in\ntag_85:\n    /* \"#utility.yul\":2664:2886   */\n  swap3\n  swap2\n  pop\n  pop\n  jump\t// out\n    /* \"#utility.yul\":2892:3224   */\ntag_22:\n    /* \"#utility.yul\":3013:3017   */\n  0x00\n    /* \"#utility.yul\":3051:3053   */\n  0x40\n    /* \"#utility.yul\":3040:3049   */\n  dup3\n    /* \"#utility.yul\":3036:3054   */\n  add\n    /* \"#utility.yul\":3028:3054   */\n  swap1\n  pop\n    /* \"#utility.yul\":3064:3135   */\n  tag_87\n    /* \"#utility.yul\":3132:3133   */\n  0x00\n    /* \"#utility.yul\":3121:3130   */\n  dup4\n    /* \"#utility.yul\":3117:3134   */\n  add\n    /* \"#utility.yul\":3108:3114   */\n  dup6\n    /* \"#utility.yul\":3064:3135   */\n  tag_51\n  jump\t// in\ntag_87:\n    /* \"#utility.yul\":3145:3217   */\n  tag_88\n    /* \"#utility.yul\":3213:3215   */\n  0x20\n    /* \"#utility.yul\":3202:3211   */\n  dup4\n    /* \"#utility.yul\":3198:3216   */\n  add\n    /* \"#utility.yul\":3189:3195   */\n  dup5\n    /* \"#utility.yul\":3145:3217   */\n  tag_51\n  jump\t// in\ntag_88:\n    /* \"#utility.yul\":2892:3224   */\n  swap4\n  swap3\n  pop\n  pop\n  pop\n  jump\t// out\n    /* \"contracts/KipuBank.sol\":817:20494  contract KipuBank is ReentrancyGuard, Ownable, Pausable, AccessControl {... */\ntag_29:\n  mload(0x80)\n  mload(0xa0)\n  mload(0xc0)\n  codecopy(0x00, dataOffset(sub_0), dataSize(sub_0))\n  0x00\n  assignImmutable(\"0x56af87718ac6246bac727726c33ea64d0935502347b4fd185bbadeb5f3fb92bd\")\n  0x00\n  assignImmutable(\"0xcf2f0ed1818444aa7134f6644eb342f5da11c7b70eee1c41201e997b4c62f0a7\")\n  0x00\n  assignImmutable(\"0x70ebf73cb6f1a1207279604d754513a029c2ff46f9198374b0ad04887dd2881e\")\n  return(0x00, dataSize(sub_0))\nstop\n\nsub_0: assembly {\n        /* \"contracts/KipuBank.sol\":817:20494  contract KipuBank is ReentrancyGuard, Ownable, Pausable, AccessControl {... */\n      mstore(0x40, 0x80)\n      jumpi(tag_1, lt(calldatasize, 0x04))\n      shr(0xe0, calldataload(0x00))\n      dup1\n      0x977ae0d1\n      gt\n      tag_32\n      jumpi\n      dup1\n      0xd6cb9ec2\n      gt\n      tag_33\n      jumpi\n      dup1\n      0xf14210a6\n      gt\n      tag_34\n      jumpi\n      dup1\n      0xf14210a6\n      eq\n      tag_28\n      jumpi\n      dup1\n      0xf2fde38b\n      eq\n      tag_29\n      jumpi\n      dup1\n      0xf6326fb3\n      eq\n      tag_30\n      jumpi\n      dup1\n      0xf7888aec\n      eq\n      tag_31\n      jumpi\n      jump(tag_2)\n    tag_34:\n      dup1\n      0xd6cb9ec2\n      eq\n      tag_24\n      jumpi\n      dup1\n      0xd9dc8694\n      eq\n      tag_25\n      jumpi\n      dup1\n      0xdb81f99b\n      eq\n      tag_26\n      jumpi\n      dup1\n      0xe1e158a5\n      eq\n      tag_27\n      jumpi\n      jump(tag_2)\n    tag_33:\n      dup1\n      0xc70a94e2\n      gt\n      tag_35\n      jumpi\n      dup1\n      0xc70a94e2\n      eq\n      tag_20\n      jumpi\n      dup1\n      0xcb14228a\n      eq\n      tag_21\n      jumpi\n      dup1\n      0xcb398eb3\n      eq\n      tag_22\n      jumpi\n      dup1\n      0xd547741f\n      eq\n      tag_23\n      jumpi\n      jump(tag_2)\n    tag_35:\n      dup1\n      0x977ae0d1\n      eq\n      tag_17\n      jumpi\n      dup1\n      0xa217fddf\n      eq\n      tag_18\n      jumpi\n      dup1\n      0xb33712c5\n      eq\n      tag_19\n      jumpi\n      jump(tag_2)\n    tag_32:\n      dup1\n      0x5c975abb\n      gt\n      tag_36\n      jumpi\n      dup1\n      0x715018a6\n      gt\n      tag_37\n      jumpi\n      dup1\n      0x715018a6\n      eq\n      tag_13\n      jumpi\n      dup1\n      0x7dc532c5\n      eq\n      tag_14\n      jumpi\n      dup1\n      0x8da5cb5b\n      eq\n      tag_15\n      jumpi\n      dup1\n      0x91d14854\n      eq\n      tag_16\n      jumpi\n      jump(tag_2)\n    tag_37:\n      dup1\n      0x5c975abb\n      eq\n      tag_10\n      jumpi\n      dup1\n      0x698b7241\n      eq\n      tag_11\n      jumpi\n      dup1\n      0x6f05c64c\n      eq\n      tag_12\n      jumpi\n      jump(tag_2)\n    tag_36:\n      dup1\n      0x2f2ff15d\n      gt\n      tag_38\n      jumpi\n      dup1\n      0x2f2ff15d\n      eq\n      tag_6\n      jumpi\n      dup1\n      0x36568abe\n      eq\n      tag_7\n      jumpi\n      dup1\n      0x439766ce\n      eq\n      tag_8\n      jumpi\n      dup1\n      0x5c8de34c\n      eq\n      tag_9\n      jumpi\n      jump(tag_2)\n    tag_38:\n      dup1\n      0x01ffc9a7\n      eq\n      tag_3\n      jumpi\n      dup1\n      0x0d3c6b34\n      eq\n      tag_4\n      jumpi\n      dup1\n      0x248a9ca3\n      eq\n      tag_5\n      jumpi\n      jump(tag_2)\n    tag_1:\n      jumpi(tag_2, calldatasize)\n        /* \"contracts/KipuBank.sol\":8572:8582  msg.sender */\n      caller\n        /* \"contracts/KipuBank.sol\":8541:8583  KipuBank_NonPermittedOperation(msg.sender) */\n      mload(0x40)\n      0x9f71e91600000000000000000000000000000000000000000000000000000000\n      dup2\n      mstore\n      0x04\n      add\n      tag_41\n      swap2\n      swap1\n      tag_42\n      jump\t// in\n    tag_41:\n      mload(0x40)\n      dup1\n      swap2\n      sub\n      swap1\n      revert\n        /* \"contracts/KipuBank.sol\":817:20494  contract KipuBank is ReentrancyGuard, Ownable, Pausable, AccessControl {... */\n    tag_2:\n        /* \"contracts/KipuBank.sol\":8785:8795  msg.sender */\n      caller\n        /* \"contracts/KipuBank.sol\":8754:8796  KipuBank_NonPermittedOperation(msg.sender) */\n      mload(0x40)\n      0x9f71e91600000000000000000000000000000000000000000000000000000000\n      dup2\n      mstore\n      0x04\n      add\n      tag_45\n      swap2\n      swap1\n      tag_42\n      jump\t// in\n    tag_45:\n      mload(0x40)\n      dup1\n      swap2\n      sub\n      swap1\n      revert\n        /* \"contracts/KipuBank.sol\":20275:20491  function supportsInterface(bytes4 interfaceId) ... */\n    tag_3:\n      callvalue\n      dup1\n      iszero\n      tag_46\n      jumpi\n      revert(0x00, 0x00)\n    tag_46:\n      pop\n      tag_47\n      0x04\n      dup1\n      calldatasize\n      sub\n      dup2\n      add\n      swap1\n      tag_48\n      swap2\n      swap1\n      tag_49\n      jump\t// in\n    tag_48:\n      tag_50\n      jump\t// in\n    tag_47:\n      mload(0x40)\n      tag_51\n      swap2\n      swap1\n      tag_52\n      jump\t// in\n    tag_51:\n      mload(0x40)\n      dup1\n      swap2\n      sub\n      swap1\n      return\n        /* \"contracts/KipuBank.sol\":16233:16327  function viewWithdrawCount() external view returns (uint) {... */\n    tag_4:\n      callvalue\n      dup1\n      iszero\n      tag_53\n      jumpi\n      revert(0x00, 0x00)\n    tag_53:\n      pop\n      tag_54\n      tag_55\n      jump\t// in\n    tag_54:\n      mload(0x40)\n      tag_56\n      swap2\n      swap1\n      tag_57\n      jump\t// in\n    tag_56:\n      mload(0x40)\n      dup1\n      swap2\n      sub\n      swap1\n      return\n        /* \"@openzeppelin/contracts/access/AccessControl.sol\":3786:3906  function getRoleAdmin(bytes32 role) public view virtual returns (bytes32) {... */\n    tag_5:\n      callvalue\n      dup1\n      iszero\n      tag_58\n      jumpi\n      revert(0x00, 0x00)\n    tag_58:\n      pop\n      tag_59\n      0x04\n      dup1\n      calldatasize\n      sub\n      dup2\n      add\n      swap1\n      tag_60\n      swap2\n      swap1\n      tag_61\n      jump\t// in\n    tag_60:\n      tag_62\n      jump\t// in\n    tag_59:\n      mload(0x40)\n      tag_63\n      swap2\n      swap1\n      tag_64\n      jump\t// in\n    tag_63:\n      mload(0x40)\n      dup1\n      swap2\n      sub\n      swap1\n      return\n        /* \"contracts/KipuBank.sol\":18855:19048  function grantRole(bytes32 role, address account) ... */\n    tag_6:\n      callvalue\n      dup1\n      iszero\n      tag_65\n      jumpi\n      revert(0x00, 0x00)\n    tag_65:\n      pop\n      tag_66\n      0x04\n      dup1\n      calldatasize\n      sub\n      dup2\n      add\n      swap1\n      tag_67\n      swap2\n      swap1\n      tag_68\n      jump\t// in\n    tag_67:\n      tag_69\n      jump\t// in\n    tag_66:\n      stop\n        /* \"@openzeppelin/contracts/access/AccessControl.sol\":5304:5549  function renounceRole(bytes32 role, address callerConfirmation) public virtual {... */\n    tag_7:\n      callvalue\n      dup1\n      iszero\n      tag_70\n      jumpi\n      revert(0x00, 0x00)\n    tag_70:\n      pop\n      tag_71\n      0x04\n      dup1\n      calldatasize\n      sub\n      dup2\n      add\n      swap1\n      tag_72\n      swap2\n      swap1\n      tag_68\n      jump\t// in\n    tag_72:\n      tag_73\n      jump\t// in\n    tag_71:\n      stop\n        /* \"contracts/KipuBank.sol\":18247:18410  function pauseContract() external onlyOwnerORole(PAUSER) whenNotPaused {... */\n    tag_8:\n      callvalue\n      dup1\n      iszero\n      tag_74\n      jumpi\n      revert(0x00, 0x00)\n    tag_74:\n      pop\n      tag_75\n      tag_76\n      jump\t// in\n    tag_75:\n      stop\n        /* \"contracts/KipuBank.sol\":16394:16493  function viewContractBalance() external view returns (uint) {... */\n    tag_9:\n      callvalue\n      dup1\n      iszero\n      tag_77\n      jumpi\n      revert(0x00, 0x00)\n    tag_77:\n      pop\n      tag_78\n      tag_79\n      jump\t// in\n    tag_78:\n      mload(0x40)\n      tag_80\n      swap2\n      swap1\n      tag_57\n      jump\t// in\n    tag_80:\n      mload(0x40)\n      dup1\n      swap2\n      sub\n      swap1\n      return\n        /* \"@openzeppelin/contracts/utils/Pausable.sol\":1726:1810  function paused() public view virtual returns (bool) {... */\n    tag_10:\n      callvalue\n      dup1\n      iszero\n      tag_81\n      jumpi\n      revert(0x00, 0x00)\n    tag_81:\n      pop\n      tag_82\n      tag_83\n      jump\t// in\n    tag_82:\n      mload(0x40)\n      tag_84\n      swap2\n      swap1\n      tag_52\n      jump\t// in\n    tag_84:\n      mload(0x40)\n      dup1\n      swap2\n      sub\n      swap1\n      return\n        /* \"contracts/KipuBank.sol\":14727:15183  function depositarUSDC(uint _amount) external verifyUsdcAmount(_amount) whenNotPaused {... */\n    tag_11:\n      callvalue\n      dup1\n      iszero\n      tag_85\n      jumpi\n      revert(0x00, 0x00)\n    tag_85:\n      pop\n      tag_86\n      0x04\n      dup1\n      calldatasize\n      sub\n      dup2\n      add\n      swap1\n      tag_87\n      swap2\n      swap1\n      tag_88\n      jump\t// in\n    tag_87:\n      tag_89\n      jump\t// in\n    tag_86:\n      stop\n        /* \"contracts/KipuBank.sol\":1189:1224  AggregatorV3Interface public s_feed */\n    tag_12:\n      callvalue\n      dup1\n      iszero\n      tag_90\n      jumpi\n      revert(0x00, 0x00)\n    tag_90:\n      pop\n      tag_91\n      tag_92\n      jump\t// in\n    tag_91:\n      mload(0x40)\n      tag_93\n      swap2\n      swap1\n      tag_94\n      jump\t// in\n    tag_93:\n      mload(0x40)\n      dup1\n      swap2\n      sub\n      swap1\n      return\n        /* \"@openzeppelin/contracts/access/Ownable.sol\":2293:2394  function renounceOwnership() public virtual onlyOwner {... */\n    tag_13:\n      callvalue\n      dup1\n      iszero\n      tag_95\n      jumpi\n      revert(0x00, 0x00)\n    tag_95:\n      pop\n      tag_96\n      tag_97\n      jump\t// in\n    tag_96:\n      stop\n        /* \"contracts/KipuBank.sol\":17372:18121  function setFeeds(address _newFeed) external onlyOwnerORole(FEED_MANAGER) whenPaused {... */\n    tag_14:\n      callvalue\n      dup1\n      iszero\n      tag_98\n      jumpi\n      revert(0x00, 0x00)\n    tag_98:\n      pop\n      tag_99\n      0x04\n      dup1\n      calldatasize\n      sub\n      dup2\n      add\n      swap1\n      tag_100\n      swap2\n      swap1\n      tag_101\n      jump\t// in\n    tag_100:\n      tag_102\n      jump\t// in\n    tag_99:\n      stop\n        /* \"@openzeppelin/contracts/access/Ownable.sol\":1638:1723  function owner() public view virtual returns (address) {... */\n    tag_15:\n      callvalue\n      dup1\n      iszero\n      tag_103\n      jumpi\n      revert(0x00, 0x00)\n    tag_103:\n      pop\n      tag_104\n      tag_105\n      jump\t// in\n    tag_104:\n      mload(0x40)\n      tag_106\n      swap2\n      swap1\n      tag_42\n      jump\t// in\n    tag_106:\n      mload(0x40)\n      dup1\n      swap2\n      sub\n      swap1\n      return\n        /* \"@openzeppelin/contracts/access/AccessControl.sol\":2830:2966  function hasRole(bytes32 role, address account) public view virtual returns (bool) {... */\n    tag_16:\n      callvalue\n      dup1\n      iszero\n      tag_107\n      jumpi\n      revert(0x00, 0x00)\n    tag_107:\n      pop\n      tag_108\n      0x04\n      dup1\n      calldatasize\n      sub\n      dup2\n      add\n      swap1\n      tag_109\n      swap2\n      swap1\n      tag_68\n      jump\t// in\n    tag_109:\n      tag_110\n      jump\t// in\n    tag_108:\n      mload(0x40)\n      tag_111\n      swap2\n      swap1\n      tag_52\n      jump\t// in\n    tag_111:\n      mload(0x40)\n      dup1\n      swap2\n      sub\n      swap1\n      return\n        /* \"contracts/KipuBank.sol\":16082:16174  function viewDepositsCount() external view returns (uint) {... */\n    tag_17:\n      callvalue\n      dup1\n      iszero\n      tag_112\n      jumpi\n      revert(0x00, 0x00)\n    tag_112:\n      pop\n      tag_113\n      tag_114\n      jump\t// in\n    tag_113:\n      mload(0x40)\n      tag_115\n      swap2\n      swap1\n      tag_57\n      jump\t// in\n    tag_115:\n      mload(0x40)\n      dup1\n      swap2\n      sub\n      swap1\n      return\n        /* \"@openzeppelin/contracts/access/AccessControl.sol\":2196:2245  bytes32 public constant DEFAULT_ADMIN_ROLE = 0x00 */\n    tag_18:\n      callvalue\n      dup1\n      iszero\n      tag_116\n      jumpi\n      revert(0x00, 0x00)\n    tag_116:\n      pop\n      tag_117\n      tag_118\n      jump\t// in\n    tag_117:\n      mload(0x40)\n      tag_119\n      swap2\n      swap1\n      tag_64\n      jump\t// in\n    tag_119:\n      mload(0x40)\n      dup1\n      swap2\n      sub\n      swap1\n      return\n        /* \"contracts/KipuBank.sol\":18538:18704  function unpauseContract() external onlyOwnerORole(PAUSER) whenPaused {... */\n    tag_19:\n      callvalue\n      dup1\n      iszero\n      tag_120\n      jumpi\n      revert(0x00, 0x00)\n    tag_120:\n      pop\n      tag_121\n      tag_122\n      jump\t// in\n    tag_121:\n      stop\n        /* \"contracts/KipuBank.sol\":15304:15496  function viewAccountTotalBalance() external view returns (uint amount_) {... */\n    tag_20:\n      callvalue\n      dup1\n      iszero\n      tag_123\n      jumpi\n      revert(0x00, 0x00)\n    tag_123:\n      pop\n      tag_124\n      tag_125\n      jump\t// in\n    tag_124:\n      mload(0x40)\n      tag_126\n      swap2\n      swap1\n      tag_57\n      jump\t// in\n    tag_126:\n      mload(0x40)\n      dup1\n      swap2\n      sub\n      swap1\n      return\n        /* \"contracts/KipuBank.sol\":16683:17213  function transferTheOwnership(address _newOwner) external onlyOwner whenPaused {... */\n    tag_21:\n      callvalue\n      dup1\n      iszero\n      tag_127\n      jumpi\n      revert(0x00, 0x00)\n    tag_127:\n      pop\n      tag_128\n      0x04\n      dup1\n      calldatasize\n      sub\n      dup2\n      add\n      swap1\n      tag_129\n      swap2\n      swap1\n      tag_101\n      jump\t// in\n    tag_129:\n      tag_130\n      jump\t// in\n    tag_128:\n      stop\n        /* \"contracts/KipuBank.sol\":1029:1093  bytes32 public constant FEED_MANAGER = keccak256(\"FEED_MANAGER\") */\n    tag_22:\n      callvalue\n      dup1\n      iszero\n      tag_131\n      jumpi\n      revert(0x00, 0x00)\n    tag_131:\n      pop\n      tag_132\n      tag_133\n      jump\t// in\n    tag_132:\n      mload(0x40)\n      tag_134\n      swap2\n      swap1\n      tag_64\n      jump\t// in\n    tag_134:\n      mload(0x40)\n      dup1\n      swap2\n      sub\n      swap1\n      return\n        /* \"contracts/KipuBank.sol\":19192:19386  function revokeRole(bytes32 role, address account) ... */\n    tag_23:\n      callvalue\n      dup1\n      iszero\n      tag_135\n      jumpi\n      revert(0x00, 0x00)\n    tag_135:\n      pop\n      tag_136\n      0x04\n      dup1\n      calldatasize\n      sub\n      dup2\n      add\n      swap1\n      tag_137\n      swap2\n      swap1\n      tag_68\n      jump\t// in\n    tag_137:\n      tag_138\n      jump\t// in\n    tag_136:\n      stop\n        /* \"contracts/KipuBank.sol\":19559:19911  function viewContractState() external view ... */\n    tag_24:\n      callvalue\n      dup1\n      iszero\n      tag_139\n      jumpi\n      revert(0x00, 0x00)\n    tag_139:\n      pop\n      tag_140\n      tag_141\n      jump\t// in\n    tag_140:\n      mload(0x40)\n      tag_142\n      swap6\n      swap5\n      swap4\n      swap3\n      swap2\n      swap1\n      tag_143\n      jump\t// in\n    tag_142:\n      mload(0x40)\n      dup1\n      swap2\n      sub\n      swap1\n      return\n        /* \"contracts/KipuBank.sol\":931:983  bytes32 public constant PAUSER = keccak256(\"PAUSER\") */\n    tag_25:\n      callvalue\n      dup1\n      iszero\n      tag_144\n      jumpi\n      revert(0x00, 0x00)\n    tag_144:\n      pop\n      tag_145\n      tag_146\n      jump\t// in\n    tag_145:\n      mload(0x40)\n      tag_147\n      swap2\n      swap1\n      tag_64\n      jump\t// in\n    tag_147:\n      mload(0x40)\n      dup1\n      swap2\n      sub\n      swap1\n      return\n        /* \"contracts/KipuBank.sol\":13510:13608  function withdrawUSDC(uint _amount) external whenNotPaused {... */\n    tag_26:\n      callvalue\n      dup1\n      iszero\n      tag_148\n      jumpi\n      revert(0x00, 0x00)\n    tag_148:\n      pop\n      tag_149\n      0x04\n      dup1\n      calldatasize\n      sub\n      dup2\n      add\n      swap1\n      tag_150\n      swap2\n      swap1\n      tag_88\n      jump\t// in\n    tag_150:\n      tag_151\n      jump\t// in\n    tag_149:\n      stop\n        /* \"contracts/KipuBank.sol\":2314:2355  uint public constant MIN_DEPOSIT = 1 gwei */\n    tag_27:\n      callvalue\n      dup1\n      iszero\n      tag_152\n      jumpi\n      revert(0x00, 0x00)\n    tag_152:\n      pop\n      tag_153\n      tag_154\n      jump\t// in\n    tag_153:\n      mload(0x40)\n      tag_155\n      swap2\n      swap1\n      tag_57\n      jump\t// in\n    tag_155:\n      mload(0x40)\n      dup1\n      swap2\n      sub\n      swap1\n      return\n        /* \"contracts/KipuBank.sol\":13307:13403  function withdrawETH(uint _amount) external whenNotPaused {... */\n    tag_28:\n      callvalue\n      dup1\n      iszero\n      tag_156\n      jumpi\n      revert(0x00, 0x00)\n    tag_156:\n      pop\n      tag_157\n      0x04\n      dup1\n      calldatasize\n      sub\n      dup2\n      add\n      swap1\n      tag_158\n      swap2\n      swap1\n      tag_88\n      jump\t// in\n    tag_158:\n      tag_159\n      jump\t// in\n    tag_157:\n      stop\n        /* \"@openzeppelin/contracts/access/Ownable.sol\":2543:2758  function transferOwnership(address newOwner) public virtual onlyOwner {... */\n    tag_29:\n      callvalue\n      dup1\n      iszero\n      tag_160\n      jumpi\n      revert(0x00, 0x00)\n    tag_160:\n      pop\n      tag_161\n      0x04\n      dup1\n      calldatasize\n      sub\n      dup2\n      add\n      swap1\n      tag_162\n      swap2\n      swap1\n      tag_101\n      jump\t// in\n    tag_162:\n      tag_163\n      jump\t// in\n    tag_161:\n      stop\n        /* \"contracts/KipuBank.sol\":14295:14499  function depositETH() external payable whenNotPaused {... */\n    tag_30:\n      tag_164\n      tag_165\n      jump\t// in\n    tag_164:\n      stop\n        /* \"contracts/KipuBank.sol\":20078:20210  function balanceOf(address _holder, address _token) external view returns (uint) {... */\n    tag_31:\n      callvalue\n      dup1\n      iszero\n      tag_166\n      jumpi\n      revert(0x00, 0x00)\n    tag_166:\n      pop\n      tag_167\n      0x04\n      dup1\n      calldatasize\n      sub\n      dup2\n      add\n      swap1\n      tag_168\n      swap2\n      swap1\n      tag_169\n      jump\t// in\n    tag_168:\n      tag_170\n      jump\t// in\n    tag_167:\n      mload(0x40)\n      tag_171\n      swap2\n      swap1\n      tag_57\n      jump\t// in\n    tag_171:\n      mload(0x40)\n      dup1\n      swap2\n      sub\n      swap1\n      return\n        /* \"contracts/KipuBank.sol\":20275:20491  function supportsInterface(bytes4 interfaceId) ... */\n    tag_50:\n        /* \"contracts/KipuBank.sol\":20420:20424  bool */\n      0x00\n        /* \"contracts/KipuBank.sol\":20448:20484  super.supportsInterface(interfaceId) */\n      tag_173\n        /* \"contracts/KipuBank.sol\":20472:20483  interfaceId */\n      dup3\n        /* \"contracts/KipuBank.sol\":20448:20471  super.supportsInterface */\n      tag_174\n        /* \"contracts/KipuBank.sol\":20448:20484  super.supportsInterface(interfaceId) */\n      jump\t// in\n    tag_173:\n        /* \"contracts/KipuBank.sol\":20441:20484  return super.supportsInterface(interfaceId) */\n      swap1\n      pop\n        /* \"contracts/KipuBank.sol\":20275:20491  function supportsInterface(bytes4 interfaceId) ... */\n      swap2\n      swap1\n      pop\n      jump\t// out\n        /* \"contracts/KipuBank.sol\":16233:16327  function viewWithdrawCount() external view returns (uint) {... */\n    tag_55:\n        /* \"contracts/KipuBank.sol\":16285:16289  uint */\n      0x00\n        /* \"contracts/KipuBank.sol\":16308:16320  s_withdrawal */\n      0x05\n      0x10\n      swap1\n      sload\n      swap1\n      0x0100\n      exp\n      swap1\n      div\n      0xffffffffffffffffffffffffffffffff\n      and\n        /* \"contracts/KipuBank.sol\":16301:16320  return s_withdrawal */\n      0xffffffffffffffffffffffffffffffff\n      and\n      swap1\n      pop\n        /* \"contracts/KipuBank.sol\":16233:16327  function viewWithdrawCount() external view returns (uint) {... */\n      swap1\n      jump\t// out\n        /* \"@openzeppelin/contracts/access/AccessControl.sol\":3786:3906  function getRoleAdmin(bytes32 role) public view virtual returns (bytes32) {... */\n    tag_62:\n        /* \"@openzeppelin/contracts/access/AccessControl.sol\":3851:3858  bytes32 */\n      0x00\n        /* \"@openzeppelin/contracts/access/AccessControl.sol\":3877:3883  _roles */\n      0x02\n        /* \"@openzeppelin/contracts/access/AccessControl.sol\":3877:3889  _roles[role] */\n      0x00\n        /* \"@openzeppelin/contracts/access/AccessControl.sol\":3884:3888  role */\n      dup4\n        /* \"@openzeppelin/contracts/access/AccessControl.sol\":3877:3889  _roles[role] */\n      dup2\n      mstore\n      0x20\n      add\n      swap1\n      dup2\n      mstore\n      0x20\n      add\n      0x00\n      keccak256\n        /* \"@openzeppelin/contracts/access/AccessControl.sol\":3877:3899  _roles[role].adminRole */\n      0x01\n      add\n      sload\n        /* \"@openzeppelin/contracts/access/AccessControl.sol\":3870:3899  return _roles[role].adminRole */\n      swap1\n      pop\n        /* \"@openzeppelin/contracts/access/AccessControl.sol\":3786:3906  function getRoleAdmin(bytes32 role) public view virtual returns (bytes32) {... */\n      swap2\n      swap1\n      pop\n      jump\t// out\n        /* \"contracts/KipuBank.sol\":18855:19048  function grantRole(bytes32 role, address account) ... */\n    tag_69:\n        /* \"@openzeppelin/contracts/access/Ownable.sol\":1531:1544  _checkOwner() */\n      tag_178\n        /* \"@openzeppelin/contracts/access/Ownable.sol\":1531:1542  _checkOwner */\n      tag_179\n        /* \"@openzeppelin/contracts/access/Ownable.sol\":1531:1544  _checkOwner() */\n      jump\t// in\n    tag_178:\n        /* \"contracts/KipuBank.sol\":18961:18991  super.grantRole(role, account) */\n      tag_181\n        /* \"contracts/KipuBank.sol\":18977:18981  role */\n      dup3\n        /* \"contracts/KipuBank.sol\":18983:18990  account */\n      dup3\n        /* \"contracts/KipuBank.sol\":18961:18976  super.grantRole */\n      tag_182\n        /* \"contracts/KipuBank.sol\":18961:18991  super.grantRole(role, account) */\n      jump\t// in\n    tag_181:\n        /* \"contracts/KipuBank.sol\":19027:19034  account */\n      dup1\n        /* \"contracts/KipuBank.sol\":19006:19041  KipuBank_GrantedRole(account, role) */\n      0xffffffffffffffffffffffffffffffffffffffff\n      and\n      0xbb64af0934ea050e4d96a052dd96271eb1b4c71f5677a4af06d78b20d9dd30cf\n        /* \"contracts/KipuBank.sol\":19036:19040  role */\n      dup4\n        /* \"contracts/KipuBank.sol\":19006:19041  KipuBank_GrantedRole(account, role) */\n      mload(0x40)\n      tag_183\n      swap2\n      swap1\n      tag_64\n      jump\t// in\n    tag_183:\n      mload(0x40)\n      dup1\n      swap2\n      sub\n      swap1\n      log2\n        /* \"contracts/KipuBank.sol\":18855:19048  function grantRole(bytes32 role, address account) ... */\n      pop\n      pop\n      jump\t// out\n        /* \"@openzeppelin/contracts/access/AccessControl.sol\":5304:5549  function renounceRole(bytes32 role, address callerConfirmation) public virtual {... */\n    tag_73:\n        /* \"@openzeppelin/contracts/access/AccessControl.sol\":5419:5431  _msgSender() */\n      tag_185\n        /* \"@openzeppelin/contracts/access/AccessControl.sol\":5419:5429  _msgSender */\n      tag_186\n        /* \"@openzeppelin/contracts/access/AccessControl.sol\":5419:5431  _msgSender() */\n      jump\t// in\n    tag_185:\n        /* \"@openzeppelin/contracts/access/AccessControl.sol\":5397:5431  callerConfirmation != _msgSender() */\n      0xffffffffffffffffffffffffffffffffffffffff\n      and\n        /* \"@openzeppelin/contracts/access/AccessControl.sol\":5397:5415  callerConfirmation */\n      dup2\n        /* \"@openzeppelin/contracts/access/AccessControl.sol\":5397:5431  callerConfirmation != _msgSender() */\n      0xffffffffffffffffffffffffffffffffffffffff\n      and\n      eq\n        /* \"@openzeppelin/contracts/access/AccessControl.sol\":5393:5495  if (callerConfirmation != _msgSender()) {... */\n      tag_187\n      jumpi\n        /* \"@openzeppelin/contracts/access/AccessControl.sol\":5454:5484  AccessControlBadConfirmation() */\n      mload(0x40)\n      0x6697b23200000000000000000000000000000000000000000000000000000000\n      dup2\n      mstore\n      0x04\n      add\n      mload(0x40)\n      dup1\n      swap2\n      sub\n      swap1\n      revert\n        /* \"@openzeppelin/contracts/access/AccessControl.sol\":5393:5495  if (callerConfirmation != _msgSender()) {... */\n    tag_187:\n        /* \"@openzeppelin/contracts/access/AccessControl.sol\":5505:5542  _revokeRole(role, callerConfirmation) */\n      tag_188\n        /* \"@openzeppelin/contracts/access/AccessControl.sol\":5517:5521  role */\n      dup3\n        /* \"@openzeppelin/contracts/access/AccessControl.sol\":5523:5541  callerConfirmation */\n      dup3\n        /* \"@openzeppelin/contracts/access/AccessControl.sol\":5505:5516  _revokeRole */\n      tag_189\n        /* \"@openzeppelin/contracts/access/AccessControl.sol\":5505:5542  _revokeRole(role, callerConfirmation) */\n      jump\t// in\n    tag_188:\n      pop\n        /* \"@openzeppelin/contracts/access/AccessControl.sol\":5304:5549  function renounceRole(bytes32 role, address callerConfirmation) public virtual {... */\n      pop\n      pop\n      jump\t// out\n        /* \"contracts/KipuBank.sol\":18247:18410  function pauseContract() external onlyOwnerORole(PAUSER) whenNotPaused {... */\n    tag_76:\n        /* \"contracts/KipuBank.sol\":964:983  keccak256(\"PAUSER\") */\n      0x539440820030c4994db4e31b6b800deafd503688728f932addfe7a410515c14c\n        /* \"contracts/KipuBank.sol\":8990:9000  msg.sender */\n      caller\n        /* \"contracts/KipuBank.sol\":8979:9000  owner() != msg.sender */\n      0xffffffffffffffffffffffffffffffffffffffff\n      and\n        /* \"contracts/KipuBank.sol\":8979:8986  owner() */\n      tag_191\n        /* \"contracts/KipuBank.sol\":8979:8984  owner */\n      tag_105\n        /* \"contracts/KipuBank.sol\":8979:8986  owner() */\n      jump\t// in\n    tag_191:\n        /* \"contracts/KipuBank.sol\":8979:9000  owner() != msg.sender */\n      0xffffffffffffffffffffffffffffffffffffffff\n      and\n      eq\n      iszero\n        /* \"contracts/KipuBank.sol\":8979:9030  owner() != msg.sender && !hasRole(role, msg.sender) */\n      dup1\n      iszero\n      tag_192\n      jumpi\n      pop\n        /* \"contracts/KipuBank.sol\":9005:9030  hasRole(role, msg.sender) */\n      tag_193\n        /* \"contracts/KipuBank.sol\":9013:9017  role */\n      dup2\n        /* \"contracts/KipuBank.sol\":9019:9029  msg.sender */\n      caller\n        /* \"contracts/KipuBank.sol\":9005:9012  hasRole */\n      tag_110\n        /* \"contracts/KipuBank.sol\":9005:9030  hasRole(role, msg.sender) */\n      jump\t// in\n    tag_193:\n        /* \"contracts/KipuBank.sol\":9004:9030  !hasRole(role, msg.sender) */\n      iszero\n        /* \"contracts/KipuBank.sol\":8979:9030  owner() != msg.sender && !hasRole(role, msg.sender) */\n    tag_192:\n        /* \"contracts/KipuBank.sol\":8976:9103  if(owner() != msg.sender && !hasRole(role, msg.sender)) {... */\n      iszero\n      tag_194\n      jumpi\n        /* \"contracts/KipuBank.sol\":9081:9091  msg.sender */\n      caller\n        /* \"contracts/KipuBank.sol\":9053:9092  KipuBank_NonPermittedAccess(msg.sender) */\n      mload(0x40)\n      0x943fb07800000000000000000000000000000000000000000000000000000000\n      dup2\n      mstore\n      0x04\n      add\n      tag_195\n      swap2\n      swap1\n      tag_42\n      jump\t// in\n    tag_195:\n      mload(0x40)\n      dup1\n      swap2\n      sub\n      swap1\n      revert\n        /* \"contracts/KipuBank.sol\":8976:9103  if(owner() != msg.sender && !hasRole(role, msg.sender)) {... */\n    tag_194:\n        /* \"@openzeppelin/contracts/utils/Pausable.sol\":1350:1369  _requireNotPaused() */\n      tag_197\n        /* \"@openzeppelin/contracts/utils/Pausable.sol\":1350:1367  _requireNotPaused */\n      tag_198\n        /* \"@openzeppelin/contracts/utils/Pausable.sol\":1350:1369  _requireNotPaused() */\n      jump\t// in\n    tag_197:\n        /* \"contracts/KipuBank.sol\":18328:18336  _pause() */\n      tag_200\n        /* \"contracts/KipuBank.sol\":18328:18334  _pause */\n      tag_201\n        /* \"contracts/KipuBank.sol\":18328:18336  _pause() */\n      jump\t// in\n    tag_200:\n        /* \"contracts/KipuBank.sol\":18375:18385  msg.sender */\n      caller\n        /* \"contracts/KipuBank.sol\":18351:18403  KipuBank_ContractPaused(msg.sender, block.timestamp) */\n      0xffffffffffffffffffffffffffffffffffffffff\n      and\n      0x46d2a254c0536d2a30fdfa06db40b28b09743afe6f05aeb9f03a56c4cec0ef08\n        /* \"contracts/KipuBank.sol\":18387:18402  block.timestamp */\n      timestamp\n        /* \"contracts/KipuBank.sol\":18351:18403  KipuBank_ContractPaused(msg.sender, block.timestamp) */\n      mload(0x40)\n      tag_202\n      swap2\n      swap1\n      tag_57\n      jump\t// in\n    tag_202:\n      mload(0x40)\n      dup1\n      swap2\n      sub\n      swap1\n      log2\n        /* \"contracts/KipuBank.sol\":18247:18410  function pauseContract() external onlyOwnerORole(PAUSER) whenNotPaused {... */\n      pop\n      jump\t// out\n        /* \"contracts/KipuBank.sol\":16394:16493  function viewContractBalance() external view returns (uint) {... */\n    tag_79:\n        /* \"contracts/KipuBank.sol\":16448:16452  uint */\n      0x00\n        /* \"contracts/KipuBank.sol\":16471:16486  s_totalContract */\n      sload(0x04)\n        /* \"contracts/KipuBank.sol\":16464:16486  return s_totalContract */\n      swap1\n      pop\n        /* \"contracts/KipuBank.sol\":16394:16493  function viewContractBalance() external view returns (uint) {... */\n      swap1\n      jump\t// out\n        /* \"@openzeppelin/contracts/utils/Pausable.sol\":1726:1810  function paused() public view virtual returns (bool) {... */\n    tag_83:\n        /* \"@openzeppelin/contracts/utils/Pausable.sol\":1773:1777  bool */\n      0x00\n        /* \"@openzeppelin/contracts/utils/Pausable.sol\":1796:1803  _paused */\n      0x01\n      0x14\n      swap1\n      sload\n      swap1\n      0x0100\n      exp\n      swap1\n      div\n      0xff\n      and\n        /* \"@openzeppelin/contracts/utils/Pausable.sol\":1789:1803  return _paused */\n      swap1\n      pop\n        /* \"@openzeppelin/contracts/utils/Pausable.sol\":1726:1810  function paused() public view virtual returns (bool) {... */\n      swap1\n      jump\t// out\n        /* \"contracts/KipuBank.sol\":14727:15183  function depositarUSDC(uint _amount) external verifyUsdcAmount(_amount) whenNotPaused {... */\n    tag_89:\n        /* \"contracts/KipuBank.sol\":14790:14797  _amount */\n      dup1\n        /* \"contracts/KipuBank.sol\":9716:9717  0 */\n      0x00\n        /* \"contracts/KipuBank.sol\":9705:9712  _amount */\n      dup2\n        /* \"contracts/KipuBank.sol\":9705:9717  _amount == 0 */\n      sub\n        /* \"contracts/KipuBank.sol\":9702:9757  if(_amount == 0) revert KipuBank_ZeroAmount(msg.sender) */\n      tag_206\n      jumpi\n        /* \"contracts/KipuBank.sol\":9746:9756  msg.sender */\n      caller\n        /* \"contracts/KipuBank.sol\":9726:9757  KipuBank_ZeroAmount(msg.sender) */\n      mload(0x40)\n      0x1b8b1c9100000000000000000000000000000000000000000000000000000000\n      dup2\n      mstore\n      0x04\n      add\n      tag_207\n      swap2\n      swap1\n      tag_42\n      jump\t// in\n    tag_207:\n      mload(0x40)\n      dup1\n      swap2\n      sub\n      swap1\n      revert\n        /* \"contracts/KipuBank.sol\":9702:9757  if(_amount == 0) revert KipuBank_ZeroAmount(msg.sender) */\n    tag_206:\n        /* \"contracts/KipuBank.sol\":9799:9808  i_bankCap */\n      immutable(\"0x56af87718ac6246bac727726c33ea64d0935502347b4fd185bbadeb5f3fb92bd\")\n        /* \"contracts/KipuBank.sol\":9781:9796  s_totalContract */\n      sload(0x04)\n        /* \"contracts/KipuBank.sol\":9771:9778  _amount */\n      dup3\n        /* \"contracts/KipuBank.sol\":9771:9796  _amount + s_totalContract */\n      tag_208\n      swap2\n      swap1\n      tag_209\n      jump\t// in\n    tag_208:\n        /* \"contracts/KipuBank.sol\":9771:9808  _amount + s_totalContract > i_bankCap */\n      gt\n        /* \"contracts/KipuBank.sol\":9767:9848  if (_amount + s_totalContract > i_bankCap) revert KipuBank_ExceededLimit(_amount) */\n      iszero\n      tag_210\n      jumpi\n        /* \"contracts/KipuBank.sol\":9840:9847  _amount */\n      dup1\n        /* \"contracts/KipuBank.sol\":9817:9848  KipuBank_ExceededLimit(_amount) */\n      mload(0x40)\n      0xf367fd7300000000000000000000000000000000000000000000000000000000\n      dup2\n      mstore\n      0x04\n      add\n      tag_211\n      swap2\n      swap1\n      tag_57\n      jump\t// in\n    tag_211:\n      mload(0x40)\n      dup1\n      swap2\n      sub\n      swap1\n      revert\n        /* \"contracts/KipuBank.sol\":9767:9848  if (_amount + s_totalContract > i_bankCap) revert KipuBank_ExceededLimit(_amount) */\n    tag_210:\n        /* \"@openzeppelin/contracts/utils/Pausable.sol\":1350:1369  _requireNotPaused() */\n      tag_213\n        /* \"@openzeppelin/contracts/utils/Pausable.sol\":1350:1367  _requireNotPaused */\n      tag_198\n        /* \"@openzeppelin/contracts/utils/Pausable.sol\":1350:1369  _requireNotPaused() */\n      jump\t// in\n    tag_213:\n        /* \"contracts/KipuBank.sol\":14874:14881  _amount */\n      dup2\n        /* \"contracts/KipuBank.sol\":14828:14834  i_usdc */\n      immutable(\"0x70ebf73cb6f1a1207279604d754513a029c2ff46f9198374b0ad04887dd2881e\")\n        /* \"contracts/KipuBank.sol\":14828:14844  i_usdc.allowance */\n      0xffffffffffffffffffffffffffffffffffffffff\n      and\n      0xdd62ed3e\n        /* \"contracts/KipuBank.sol\":14845:14855  msg.sender */\n      caller\n        /* \"contracts/KipuBank.sol\":14865:14869  this */\n      address\n        /* \"contracts/KipuBank.sol\":14828:14871  i_usdc.allowance(msg.sender, address(this)) */\n      mload(0x40)\n      dup4\n      0xffffffff\n      and\n      0xe0\n      shl\n      dup2\n      mstore\n      0x04\n      add\n      tag_215\n      swap3\n      swap2\n      swap1\n      tag_216\n      jump\t// in\n    tag_215:\n      0x20\n      mload(0x40)\n      dup1\n      dup4\n      sub\n      dup2\n      dup7\n      gas\n      staticcall\n      iszero\n      dup1\n      iszero\n      tag_218\n      jumpi\n      returndatacopy(0x00, 0x00, returndatasize)\n      revert(0x00, returndatasize)\n    tag_218:\n      pop\n      pop\n      pop\n      pop\n      mload(0x40)\n      returndatasize\n      not(0x1f)\n      0x1f\n      dup3\n      add\n      and\n      dup3\n      add\n      dup1\n      0x40\n      mstore\n      pop\n      dup2\n      add\n      swap1\n      tag_219\n      swap2\n      swap1\n      tag_220\n      jump\t// in\n    tag_219:\n        /* \"contracts/KipuBank.sol\":14828:14881  i_usdc.allowance(msg.sender, address(this)) < _amount */\n      lt\n        /* \"contracts/KipuBank.sol\":14823:14927  if ( i_usdc.allowance(msg.sender, address(this)) < _amount ) revert KipuBank_NonPermittedAmount(_amount) */\n      iszero\n      tag_221\n      jumpi\n        /* \"contracts/KipuBank.sol\":14919:14926  _amount */\n      dup2\n        /* \"contracts/KipuBank.sol\":14891:14927  KipuBank_NonPermittedAmount(_amount) */\n      mload(0x40)\n      0xaa9a0a9d00000000000000000000000000000000000000000000000000000000\n      dup2\n      mstore\n      0x04\n      add\n      tag_222\n      swap2\n      swap1\n      tag_57\n      jump\t// in\n    tag_222:\n      mload(0x40)\n      dup1\n      swap2\n      sub\n      swap1\n      revert\n        /* \"contracts/KipuBank.sol\":14823:14927  if ( i_usdc.allowance(msg.sender, address(this)) < _amount ) revert KipuBank_NonPermittedAmount(_amount) */\n    tag_221:\n        /* \"contracts/KipuBank.sol\":14980:14987  _amount */\n      dup2\n        /* \"contracts/KipuBank.sol\":14937:14947  s_balances */\n      0x06\n        /* \"contracts/KipuBank.sol\":14937:14964  s_balances[address(i_usdc)] */\n      0x00\n        /* \"contracts/KipuBank.sol\":14956:14962  i_usdc */\n      immutable(\"0x70ebf73cb6f1a1207279604d754513a029c2ff46f9198374b0ad04887dd2881e\")\n        /* \"contracts/KipuBank.sol\":14937:14964  s_balances[address(i_usdc)] */\n      0xffffffffffffffffffffffffffffffffffffffff\n      and\n      0xffffffffffffffffffffffffffffffffffffffff\n      and\n      dup2\n      mstore\n      0x20\n      add\n      swap1\n      dup2\n      mstore\n      0x20\n      add\n      0x00\n      keccak256\n        /* \"contracts/KipuBank.sol\":14937:14976  s_balances[address(i_usdc)][msg.sender] */\n      0x00\n        /* \"contracts/KipuBank.sol\":14965:14975  msg.sender */\n      caller\n        /* \"contracts/KipuBank.sol\":14937:14976  s_balances[address(i_usdc)][msg.sender] */\n      0xffffffffffffffffffffffffffffffffffffffff\n      and\n      0xffffffffffffffffffffffffffffffffffffffff\n      and\n      dup2\n      mstore\n      0x20\n      add\n      swap1\n      dup2\n      mstore\n      0x20\n      add\n      0x00\n      keccak256\n      0x00\n        /* \"contracts/KipuBank.sol\":14937:14987  s_balances[address(i_usdc)][msg.sender] += _amount */\n      dup3\n      dup3\n      sload\n      tag_223\n      swap2\n      swap1\n      tag_209\n      jump\t// in\n    tag_223:\n      swap3\n      pop\n      pop\n      dup2\n      swap1\n      sstore\n      pop\n        /* \"contracts/KipuBank.sol\":14997:15007  s_deposits */\n      0x05\n      0x00\n        /* \"contracts/KipuBank.sol\":14997:15009  s_deposits++ */\n      dup2\n      dup2\n      swap1\n      sload\n      swap1\n      0x0100\n      exp\n      swap1\n      div\n      0xffffffffffffffffffffffffffffffff\n      and\n      dup1\n      swap3\n      swap2\n      swap1\n      tag_224\n      swap1\n      tag_225\n      jump\t// in\n    tag_224:\n      swap2\n      swap1\n      0x0100\n      exp\n      dup2\n      sload\n      dup2\n      0xffffffffffffffffffffffffffffffff\n      mul\n      not\n      and\n      swap1\n      dup4\n      0xffffffffffffffffffffffffffffffff\n      and\n      mul\n      or\n      swap1\n      sstore\n      pop\n      pop\n        /* \"contracts/KipuBank.sol\":15038:15045  _amount */\n      dup2\n        /* \"contracts/KipuBank.sol\":15019:15034  s_totalContract */\n      0x04\n      0x00\n        /* \"contracts/KipuBank.sol\":15019:15045  s_totalContract += _amount */\n      dup3\n      dup3\n      sload\n      tag_226\n      swap2\n      swap1\n      tag_209\n      jump\t// in\n    tag_226:\n      swap3\n      pop\n      pop\n      dup2\n      swap1\n      sstore\n      pop\n        /* \"contracts/KipuBank.sol\":15087:15097  msg.sender */\n      caller\n        /* \"contracts/KipuBank.sol\":15060:15107  KipuBank_SuccessfulDeposit(msg.sender, _amount) */\n      0xffffffffffffffffffffffffffffffffffffffff\n      and\n      0x7b7cd0ddbbea241880e825e1eb51c30752cb96dd7efeb4be691ec55dfa4d8963\n        /* \"contracts/KipuBank.sol\":15099:15106  _amount */\n      dup4\n        /* \"contracts/KipuBank.sol\":15060:15107  KipuBank_SuccessfulDeposit(msg.sender, _amount) */\n      mload(0x40)\n      tag_227\n      swap2\n      swap1\n      tag_57\n      jump\t// in\n    tag_227:\n      mload(0x40)\n      dup1\n      swap2\n      sub\n      swap1\n      log2\n        /* \"contracts/KipuBank.sol\":15117:15176  i_usdc.safeTransferFrom(msg.sender, address(this), _amount) */\n      tag_228\n        /* \"contracts/KipuBank.sol\":15141:15151  msg.sender */\n      caller\n        /* \"contracts/KipuBank.sol\":15161:15165  this */\n      address\n        /* \"contracts/KipuBank.sol\":15168:15175  _amount */\n      dup5\n        /* \"contracts/KipuBank.sol\":15117:15123  i_usdc */\n      immutable(\"0x70ebf73cb6f1a1207279604d754513a029c2ff46f9198374b0ad04887dd2881e\")\n        /* \"contracts/KipuBank.sol\":15117:15140  i_usdc.safeTransferFrom */\n      0xffffffffffffffffffffffffffffffffffffffff\n      and\n      tag_229\n      swap1\n        /* \"contracts/KipuBank.sol\":15117:15176  i_usdc.safeTransferFrom(msg.sender, address(this), _amount) */\n      swap4\n      swap3\n      swap2\n      swap1\n      0xffffffff\n      and\n      jump\t// in\n    tag_228:\n        /* \"contracts/KipuBank.sol\":14727:15183  function depositarUSDC(uint _amount) external verifyUsdcAmount(_amount) whenNotPaused {... */\n      pop\n      pop\n      jump\t// out\n        /* \"contracts/KipuBank.sol\":1189:1224  AggregatorV3Interface public s_feed */\n    tag_92:\n      0x03\n      0x00\n      swap1\n      sload\n      swap1\n      0x0100\n      exp\n      swap1\n      div\n      0xffffffffffffffffffffffffffffffffffffffff\n      and\n      dup2\n      jump\t// out\n        /* \"@openzeppelin/contracts/access/Ownable.sol\":2293:2394  function renounceOwnership() public virtual onlyOwner {... */\n    tag_97:\n        /* \"@openzeppelin/contracts/access/Ownable.sol\":1531:1544  _checkOwner() */\n      tag_231\n        /* \"@openzeppelin/contracts/access/Ownable.sol\":1531:1542  _checkOwner */\n      tag_179\n        /* \"@openzeppelin/contracts/access/Ownable.sol\":1531:1544  _checkOwner() */\n      jump\t// in\n    tag_231:\n        /* \"@openzeppelin/contracts/access/Ownable.sol\":2357:2387  _transferOwnership(address(0)) */\n      tag_233\n        /* \"@openzeppelin/contracts/access/Ownable.sol\":2384:2385  0 */\n      0x00\n        /* \"@openzeppelin/contracts/access/Ownable.sol\":2357:2375  _transferOwnership */\n      tag_234\n        /* \"@openzeppelin/contracts/access/Ownable.sol\":2357:2387  _transferOwnership(address(0)) */\n      jump\t// in\n    tag_233:\n        /* \"@openzeppelin/contracts/access/Ownable.sol\":2293:2394  function renounceOwnership() public virtual onlyOwner {... */\n      jump\t// out\n        /* \"contracts/KipuBank.sol\":17372:18121  function setFeeds(address _newFeed) external onlyOwnerORole(FEED_MANAGER) whenPaused {... */\n    tag_102:\n        /* \"contracts/KipuBank.sol\":1068:1093  keccak256(\"FEED_MANAGER\") */\n      0x9bbb3ee3bdfbe971682b08854a620ca4bf696f8e0c269e5c5b129a18e64d29df\n        /* \"contracts/KipuBank.sol\":8990:9000  msg.sender */\n      caller\n        /* \"contracts/KipuBank.sol\":8979:9000  owner() != msg.sender */\n      0xffffffffffffffffffffffffffffffffffffffff\n      and\n        /* \"contracts/KipuBank.sol\":8979:8986  owner() */\n      tag_236\n        /* \"contracts/KipuBank.sol\":8979:8984  owner */\n      tag_105\n        /* \"contracts/KipuBank.sol\":8979:8986  owner() */\n      jump\t// in\n    tag_236:\n        /* \"contracts/KipuBank.sol\":8979:9000  owner() != msg.sender */\n      0xffffffffffffffffffffffffffffffffffffffff\n      and\n      eq\n      iszero\n        /* \"contracts/KipuBank.sol\":8979:9030  owner() != msg.sender && !hasRole(role, msg.sender) */\n      dup1\n      iszero\n      tag_237\n      jumpi\n      pop\n        /* \"contracts/KipuBank.sol\":9005:9030  hasRole(role, msg.sender) */\n      tag_238\n        /* \"contracts/KipuBank.sol\":9013:9017  role */\n      dup2\n        /* \"contracts/KipuBank.sol\":9019:9029  msg.sender */\n      caller\n        /* \"contracts/KipuBank.sol\":9005:9012  hasRole */\n      tag_110\n        /* \"contracts/KipuBank.sol\":9005:9030  hasRole(role, msg.sender) */\n      jump\t// in\n    tag_238:\n        /* \"contracts/KipuBank.sol\":9004:9030  !hasRole(role, msg.sender) */\n      iszero\n        /* \"contracts/KipuBank.sol\":8979:9030  owner() != msg.sender && !hasRole(role, msg.sender) */\n    tag_237:\n        /* \"contracts/KipuBank.sol\":8976:9103  if(owner() != msg.sender && !hasRole(role, msg.sender)) {... */\n      iszero\n      tag_239\n      jumpi\n        /* \"contracts/KipuBank.sol\":9081:9091  msg.sender */\n      caller\n        /* \"contracts/KipuBank.sol\":9053:9092  KipuBank_NonPermittedAccess(msg.sender) */\n      mload(0x40)\n      0x943fb07800000000000000000000000000000000000000000000000000000000\n      dup2\n      mstore\n      0x04\n      add\n      tag_240\n      swap2\n      swap1\n      tag_42\n      jump\t// in\n    tag_240:\n      mload(0x40)\n      dup1\n      swap2\n      sub\n      swap1\n      revert\n        /* \"contracts/KipuBank.sol\":8976:9103  if(owner() != msg.sender && !hasRole(role, msg.sender)) {... */\n    tag_239:\n        /* \"@openzeppelin/contracts/utils/Pausable.sol\":1597:1613  _requirePaused() */\n      tag_242\n        /* \"@openzeppelin/contracts/utils/Pausable.sol\":1597:1611  _requirePaused */\n      tag_243\n        /* \"@openzeppelin/contracts/utils/Pausable.sol\":1597:1613  _requirePaused() */\n      jump\t// in\n    tag_242:\n        /* \"contracts/KipuBank.sol\":17491:17492  0 */\n      0x00\n        /* \"contracts/KipuBank.sol\":17471:17493  _newFeed == address(0) */\n      0xffffffffffffffffffffffffffffffffffffffff\n      and\n        /* \"contracts/KipuBank.sol\":17471:17479  _newFeed */\n      dup3\n        /* \"contracts/KipuBank.sol\":17471:17493  _newFeed == address(0) */\n      0xffffffffffffffffffffffffffffffffffffffff\n      and\n      sub\n        /* \"contracts/KipuBank.sol\":17467:17527  if (_newFeed == address(0)) revert KipuBank_InvalidAddress() */\n      tag_245\n      jumpi\n        /* \"contracts/KipuBank.sol\":17502:17527  KipuBank_InvalidAddress() */\n      mload(0x40)\n      0x4ab4914300000000000000000000000000000000000000000000000000000000\n      dup2\n      mstore\n      0x04\n      add\n      mload(0x40)\n      dup1\n      swap2\n      sub\n      swap1\n      revert\n        /* \"contracts/KipuBank.sol\":17467:17527  if (_newFeed == address(0)) revert KipuBank_InvalidAddress() */\n    tag_245:\n        /* \"contracts/KipuBank.sol\":17564:17572  _newFeed */\n      dup2\n        /* \"contracts/KipuBank.sol\":17542:17589  AggregatorV3Interface(_newFeed).latestRoundData */\n      0xffffffffffffffffffffffffffffffffffffffff\n      and\n      0xfeaf968c\n        /* \"contracts/KipuBank.sol\":17542:17591  AggregatorV3Interface(_newFeed).latestRoundData() */\n      mload(0x40)\n      dup2\n      0xffffffff\n      and\n      0xe0\n      shl\n      dup2\n      mstore\n      0x04\n      add\n      0xa0\n      mload(0x40)\n      dup1\n      dup4\n      sub\n      dup2\n      dup7\n      gas\n      staticcall\n      swap3\n      pop\n      pop\n      pop\n      dup1\n      iszero\n      tag_246\n      jumpi\n      pop\n      mload(0x40)\n      returndatasize\n      not(0x1f)\n      0x1f\n      dup3\n      add\n      and\n      dup3\n      add\n      dup1\n      0x40\n      mstore\n      pop\n      dup2\n      add\n      swap1\n      tag_247\n      swap2\n      swap1\n      tag_248\n      jump\t// in\n    tag_247:\n      0x01\n    tag_246:\n        /* \"contracts/KipuBank.sol\":17538:18107  try AggregatorV3Interface(_newFeed).latestRoundData() returns (... */\n      tag_249\n      jumpi\n        /* \"contracts/KipuBank.sol\":18087:18095  _newFeed */\n      dup2\n        /* \"contracts/KipuBank.sol\":18066:18096  KipuBank_InvalidFeed(_newFeed) */\n      mload(0x40)\n      0x83f68e8900000000000000000000000000000000000000000000000000000000\n      dup2\n      mstore\n      0x04\n      add\n      tag_253\n      swap2\n      swap1\n      tag_42\n      jump\t// in\n    tag_253:\n      mload(0x40)\n      dup1\n      swap2\n      sub\n      swap1\n      revert\n        /* \"contracts/KipuBank.sol\":17538:18107  try AggregatorV3Interface(_newFeed).latestRoundData() returns (... */\n    tag_249:\n        /* \"contracts/KipuBank.sol\":17706:17707  0 */\n      0x00\n        /* \"contracts/KipuBank.sol\":17697:17702  price */\n      dup5\n        /* \"contracts/KipuBank.sol\":17697:17707  price <= 0 */\n      sgt\n        /* \"contracts/KipuBank.sol\":17694:17746  if(price <= 0) revert KipuBank_InvalidFeed(_newFeed) */\n      tag_255\n      jumpi\n        /* \"contracts/KipuBank.sol\":17737:17745  _newFeed */\n      dup7\n        /* \"contracts/KipuBank.sol\":17716:17746  KipuBank_InvalidFeed(_newFeed) */\n      mload(0x40)\n      0x83f68e8900000000000000000000000000000000000000000000000000000000\n      dup2\n      mstore\n      0x04\n      add\n      tag_256\n      swap2\n      swap1\n      tag_42\n      jump\t// in\n    tag_256:\n      mload(0x40)\n      dup1\n      swap2\n      sub\n      swap1\n      revert\n        /* \"contracts/KipuBank.sol\":17694:17746  if(price <= 0) revert KipuBank_InvalidFeed(_newFeed) */\n    tag_255:\n        /* \"contracts/KipuBank.sol\":1626:1630  3600 */\n      0x0e10\n        /* \"contracts/KipuBank.sol\":17763:17801  block.timestamp - updateAt > HEARTBEAT */\n      0xffff\n      and\n        /* \"contracts/KipuBank.sol\":17781:17789  updateAt */\n      dup3\n        /* \"contracts/KipuBank.sol\":17763:17778  block.timestamp */\n      timestamp\n        /* \"contracts/KipuBank.sol\":17763:17789  block.timestamp - updateAt */\n      tag_257\n      swap2\n      swap1\n      tag_258\n      jump\t// in\n    tag_257:\n        /* \"contracts/KipuBank.sol\":17763:17801  block.timestamp - updateAt > HEARTBEAT */\n      gt\n        /* \"contracts/KipuBank.sol\":17760:17845  if(block.timestamp - updateAt > HEARTBEAT) revert KipuBank_OutdatedPrice(uint(price)) */\n      iszero\n      tag_259\n      jumpi\n        /* \"contracts/KipuBank.sol\":17838:17843  price */\n      dup4\n        /* \"contracts/KipuBank.sol\":17810:17845  KipuBank_OutdatedPrice(uint(price)) */\n      mload(0x40)\n      0x02f8429d00000000000000000000000000000000000000000000000000000000\n      dup2\n      mstore\n      0x04\n      add\n      tag_260\n      swap2\n      swap1\n      tag_57\n      jump\t// in\n    tag_260:\n      mload(0x40)\n      dup1\n      swap2\n      sub\n      swap1\n      revert\n        /* \"contracts/KipuBank.sol\":17760:17845  if(block.timestamp - updateAt > HEARTBEAT) revert KipuBank_OutdatedPrice(uint(price)) */\n    tag_259:\n        /* \"contracts/KipuBank.sol\":17872:17892  address previousFeed */\n      0x00\n        /* \"contracts/KipuBank.sol\":17903:17909  s_feed */\n      0x03\n      0x00\n      swap1\n      sload\n      swap1\n      0x0100\n      exp\n      swap1\n      div\n      0xffffffffffffffffffffffffffffffffffffffff\n      and\n        /* \"contracts/KipuBank.sol\":17872:17910  address previousFeed = address(s_feed) */\n      swap1\n      pop\n        /* \"contracts/KipuBank.sol\":17955:17963  _newFeed */\n      dup8\n        /* \"contracts/KipuBank.sol\":17924:17930  s_feed */\n      0x03\n      0x00\n        /* \"contracts/KipuBank.sol\":17924:17964  s_feed = AggregatorV3Interface(_newFeed) */\n      0x0100\n      exp\n      dup2\n      sload\n      dup2\n      0xffffffffffffffffffffffffffffffffffffffff\n      mul\n      not\n      and\n      swap1\n      dup4\n      0xffffffffffffffffffffffffffffffffffffffff\n      and\n      mul\n      or\n      swap1\n      sstore\n      pop\n        /* \"contracts/KipuBank.sol\":18018:18026  _newFeed */\n      dup8\n        /* \"contracts/KipuBank.sol\":17983:18027  KipuBank_FeedUpdated(previousFeed, _newFeed) */\n      0xffffffffffffffffffffffffffffffffffffffff\n      and\n        /* \"contracts/KipuBank.sol\":18004:18016  previousFeed */\n      dup2\n        /* \"contracts/KipuBank.sol\":17983:18027  KipuBank_FeedUpdated(previousFeed, _newFeed) */\n      0xffffffffffffffffffffffffffffffffffffffff\n      and\n      0x076732c6a675470899fcb32bd34014d244a2b780f6812f8f818b26f893f79cdd\n      mload(0x40)\n      mload(0x40)\n      dup1\n      swap2\n      sub\n      swap1\n      log3\n        /* \"contracts/KipuBank.sol\":17680:18038  {... */\n      pop\n        /* \"contracts/KipuBank.sol\":17592:18038  returns (... */\n      pop\n      pop\n      pop\n      pop\n      pop\n        /* \"contracts/KipuBank.sol\":17372:18121  function setFeeds(address _newFeed) external onlyOwnerORole(FEED_MANAGER) whenPaused {... */\n      pop\n      pop\n      jump\t// out\n        /* \"@openzeppelin/contracts/access/Ownable.sol\":1638:1723  function owner() public view virtual returns (address) {... */\n    tag_105:\n        /* \"@openzeppelin/contracts/access/Ownable.sol\":1684:1691  address */\n      0x00\n        /* \"@openzeppelin/contracts/access/Ownable.sol\":1710:1716  _owner */\n      0x01\n      0x00\n      swap1\n      sload\n      swap1\n      0x0100\n      exp\n      swap1\n      div\n      0xffffffffffffffffffffffffffffffffffffffff\n      and\n        /* \"@openzeppelin/contracts/access/Ownable.sol\":1703:1716  return _owner */\n      swap1\n      pop\n        /* \"@openzeppelin/contracts/access/Ownable.sol\":1638:1723  function owner() public view virtual returns (address) {... */\n      swap1\n      jump\t// out\n        /* \"@openzeppelin/contracts/access/AccessControl.sol\":2830:2966  function hasRole(bytes32 role, address account) public view virtual returns (bool) {... */\n    tag_110:\n        /* \"@openzeppelin/contracts/access/AccessControl.sol\":2907:2911  bool */\n      0x00\n        /* \"@openzeppelin/contracts/access/AccessControl.sol\":2930:2936  _roles */\n      0x02\n        /* \"@openzeppelin/contracts/access/AccessControl.sol\":2930:2942  _roles[role] */\n      0x00\n        /* \"@openzeppelin/contracts/access/AccessControl.sol\":2937:2941  role */\n      dup5\n        /* \"@openzeppelin/contracts/access/AccessControl.sol\":2930:2942  _roles[role] */\n      dup2\n      mstore\n      0x20\n      add\n      swap1\n      dup2\n      mstore\n      0x20\n      add\n      0x00\n      keccak256\n        /* \"@openzeppelin/contracts/access/AccessControl.sol\":2930:2950  _roles[role].hasRole */\n      0x00\n      add\n        /* \"@openzeppelin/contracts/access/AccessControl.sol\":2930:2959  _roles[role].hasRole[account] */\n      0x00\n        /* \"@openzeppelin/contracts/access/AccessControl.sol\":2951:2958  account */\n      dup4\n        /* \"@openzeppelin/contracts/access/AccessControl.sol\":2930:2959  _roles[role].hasRole[account] */\n      0xffffffffffffffffffffffffffffffffffffffff\n      and\n      0xffffffffffffffffffffffffffffffffffffffff\n      and\n      dup2\n      mstore\n      0x20\n      add\n      swap1\n      dup2\n      mstore\n      0x20\n      add\n      0x00\n      keccak256\n      0x00\n      swap1\n      sload\n      swap1\n      0x0100\n      exp\n      swap1\n      div\n      0xff\n      and\n        /* \"@openzeppelin/contracts/access/AccessControl.sol\":2923:2959  return _roles[role].hasRole[account] */\n      swap1\n      pop\n        /* \"@openzeppelin/contracts/access/AccessControl.sol\":2830:2966  function hasRole(bytes32 role, address account) public view virtual returns (bool) {... */\n      swap3\n      swap2\n      pop\n      pop\n      jump\t// out\n        /* \"contracts/KipuBank.sol\":16082:16174  function viewDepositsCount() external view returns (uint) {... */\n    tag_114:\n        /* \"contracts/KipuBank.sol\":16134:16138  uint */\n      0x00\n        /* \"contracts/KipuBank.sol\":16157:16167  s_deposits */\n      0x05\n      0x00\n      swap1\n      sload\n      swap1\n      0x0100\n      exp\n      swap1\n      div\n      0xffffffffffffffffffffffffffffffff\n      and\n        /* \"contracts/KipuBank.sol\":16150:16167  return s_deposits */\n      0xffffffffffffffffffffffffffffffff\n      and\n      swap1\n      pop\n        /* \"contracts/KipuBank.sol\":16082:16174  function viewDepositsCount() external view returns (uint) {... */\n      swap1\n      jump\t// out\n        /* \"@openzeppelin/contracts/access/AccessControl.sol\":2196:2245  bytes32 public constant DEFAULT_ADMIN_ROLE = 0x00 */\n    tag_118:\n        /* \"@openzeppelin/contracts/access/AccessControl.sol\":2241:2245  0x00 */\n      0x00\n        /* \"@openzeppelin/contracts/access/AccessControl.sol\":2196:2245  bytes32 public constant DEFAULT_ADMIN_ROLE = 0x00 */\n      0x00\n      shl\n      dup2\n      jump\t// out\n        /* \"contracts/KipuBank.sol\":18538:18704  function unpauseContract() external onlyOwnerORole(PAUSER) whenPaused {... */\n    tag_122:\n        /* \"contracts/KipuBank.sol\":964:983  keccak256(\"PAUSER\") */\n      0x539440820030c4994db4e31b6b800deafd503688728f932addfe7a410515c14c\n        /* \"contracts/KipuBank.sol\":8990:9000  msg.sender */\n      caller\n        /* \"contracts/KipuBank.sol\":8979:9000  owner() != msg.sender */\n      0xffffffffffffffffffffffffffffffffffffffff\n      and\n        /* \"contracts/KipuBank.sol\":8979:8986  owner() */\n      tag_265\n        /* \"contracts/KipuBank.sol\":8979:8984  owner */\n      tag_105\n        /* \"contracts/KipuBank.sol\":8979:8986  owner() */\n      jump\t// in\n    tag_265:\n        /* \"contracts/KipuBank.sol\":8979:9000  owner() != msg.sender */\n      0xffffffffffffffffffffffffffffffffffffffff\n      and\n      eq\n      iszero\n        /* \"contracts/KipuBank.sol\":8979:9030  owner() != msg.sender && !hasRole(role, msg.sender) */\n      dup1\n      iszero\n      tag_266\n      jumpi\n      pop\n        /* \"contracts/KipuBank.sol\":9005:9030  hasRole(role, msg.sender) */\n      tag_267\n        /* \"contracts/KipuBank.sol\":9013:9017  role */\n      dup2\n        /* \"contracts/KipuBank.sol\":9019:9029  msg.sender */\n      caller\n        /* \"contracts/KipuBank.sol\":9005:9012  hasRole */\n      tag_110\n        /* \"contracts/KipuBank.sol\":9005:9030  hasRole(role, msg.sender) */\n      jump\t// in\n    tag_267:\n        /* \"contracts/KipuBank.sol\":9004:9030  !hasRole(role, msg.sender) */\n      iszero\n        /* \"contracts/KipuBank.sol\":8979:9030  owner() != msg.sender && !hasRole(role, msg.sender) */\n    tag_266:\n        /* \"contracts/KipuBank.sol\":8976:9103  if(owner() != msg.sender && !hasRole(role, msg.sender)) {... */\n      iszero\n      tag_268\n      jumpi\n        /* \"contracts/KipuBank.sol\":9081:9091  msg.sender */\n      caller\n        /* \"contracts/KipuBank.sol\":9053:9092  KipuBank_NonPermittedAccess(msg.sender) */\n      mload(0x40)\n      0x943fb07800000000000000000000000000000000000000000000000000000000\n      dup2\n      mstore\n      0x04\n      add\n      tag_269\n      swap2\n      swap1\n      tag_42\n      jump\t// in\n    tag_269:\n      mload(0x40)\n      dup1\n      swap2\n      sub\n      swap1\n      revert\n        /* \"contracts/KipuBank.sol\":8976:9103  if(owner() != msg.sender && !hasRole(role, msg.sender)) {... */\n    tag_268:\n        /* \"@openzeppelin/contracts/utils/Pausable.sol\":1597:1613  _requirePaused() */\n      tag_271\n        /* \"@openzeppelin/contracts/utils/Pausable.sol\":1597:1611  _requirePaused */\n      tag_243\n        /* \"@openzeppelin/contracts/utils/Pausable.sol\":1597:1613  _requirePaused() */\n      jump\t// in\n    tag_271:\n        /* \"contracts/KipuBank.sol\":18618:18628  _unpause() */\n      tag_273\n        /* \"contracts/KipuBank.sol\":18618:18626  _unpause */\n      tag_274\n        /* \"contracts/KipuBank.sol\":18618:18628  _unpause() */\n      jump\t// in\n    tag_273:\n        /* \"contracts/KipuBank.sol\":18669:18679  msg.sender */\n      caller\n        /* \"contracts/KipuBank.sol\":18643:18697  KipuBank_ContractUnpaused(msg.sender, block.timestamp) */\n      0xffffffffffffffffffffffffffffffffffffffff\n      and\n      0xe27d6b7b96c20e997f5082ff560410b815a1ecd7464e0ded63e7688e45d9b573\n        /* \"contracts/KipuBank.sol\":18681:18696  block.timestamp */\n      timestamp\n        /* \"contracts/KipuBank.sol\":18643:18697  KipuBank_ContractUnpaused(msg.sender, block.timestamp) */\n      mload(0x40)\n      tag_275\n      swap2\n      swap1\n      tag_57\n      jump\t// in\n    tag_275:\n      mload(0x40)\n      dup1\n      swap2\n      sub\n      swap1\n      log2\n        /* \"contracts/KipuBank.sol\":18538:18704  function unpauseContract() external onlyOwnerORole(PAUSER) whenPaused {... */\n      pop\n      jump\t// out\n        /* \"contracts/KipuBank.sol\":15304:15496  function viewAccountTotalBalance() external view returns (uint amount_) {... */\n    tag_125:\n        /* \"contracts/KipuBank.sol\":15362:15374  uint amount_ */\n      0x00\n        /* \"contracts/KipuBank.sol\":15450:15460  s_balances */\n      0x06\n        /* \"contracts/KipuBank.sol\":15450:15477  s_balances[address(i_usdc)] */\n      0x00\n        /* \"contracts/KipuBank.sol\":15469:15475  i_usdc */\n      immutable(\"0x70ebf73cb6f1a1207279604d754513a029c2ff46f9198374b0ad04887dd2881e\")\n        /* \"contracts/KipuBank.sol\":15450:15477  s_balances[address(i_usdc)] */\n      0xffffffffffffffffffffffffffffffffffffffff\n      and\n      0xffffffffffffffffffffffffffffffffffffffff\n      and\n      dup2\n      mstore\n      0x20\n      add\n      swap1\n      dup2\n      mstore\n      0x20\n      add\n      0x00\n      keccak256\n        /* \"contracts/KipuBank.sol\":15450:15489  s_balances[address(i_usdc)][msg.sender] */\n      0x00\n        /* \"contracts/KipuBank.sol\":15478:15488  msg.sender */\n      caller\n        /* \"contracts/KipuBank.sol\":15450:15489  s_balances[address(i_usdc)][msg.sender] */\n      0xffffffffffffffffffffffffffffffffffffffff\n      and\n      0xffffffffffffffffffffffffffffffffffffffff\n      and\n      dup2\n      mstore\n      0x20\n      add\n      swap1\n      dup2\n      mstore\n      0x20\n      add\n      0x00\n      keccak256\n      sload\n        /* \"contracts/KipuBank.sol\":15396:15447  convertEthInUSD(s_balances[address(0)][msg.sender]) */\n      tag_277\n        /* \"contracts/KipuBank.sol\":15412:15422  s_balances */\n      0x06\n        /* \"contracts/KipuBank.sol\":15412:15434  s_balances[address(0)] */\n      0x00\n        /* \"contracts/KipuBank.sol\":15431:15432  0 */\n      0x00\n        /* \"contracts/KipuBank.sol\":15412:15434  s_balances[address(0)] */\n      0xffffffffffffffffffffffffffffffffffffffff\n      and\n      0xffffffffffffffffffffffffffffffffffffffff\n      and\n      dup2\n      mstore\n      0x20\n      add\n      swap1\n      dup2\n      mstore\n      0x20\n      add\n      0x00\n      keccak256\n        /* \"contracts/KipuBank.sol\":15412:15446  s_balances[address(0)][msg.sender] */\n      0x00\n        /* \"contracts/KipuBank.sol\":15435:15445  msg.sender */\n      caller\n        /* \"contracts/KipuBank.sol\":15412:15446  s_balances[address(0)][msg.sender] */\n      0xffffffffffffffffffffffffffffffffffffffff\n      and\n      0xffffffffffffffffffffffffffffffffffffffff\n      and\n      dup2\n      mstore\n      0x20\n      add\n      swap1\n      dup2\n      mstore\n      0x20\n      add\n      0x00\n      keccak256\n      sload\n        /* \"contracts/KipuBank.sol\":15396:15411  convertEthInUSD */\n      tag_278\n        /* \"contracts/KipuBank.sol\":15396:15447  convertEthInUSD(s_balances[address(0)][msg.sender]) */\n      jump\t// in\n    tag_277:\n        /* \"contracts/KipuBank.sol\":15396:15489  convertEthInUSD(s_balances[address(0)][msg.sender]) + s_balances[address(i_usdc)][msg.sender] */\n      tag_279\n      swap2\n      swap1\n      tag_209\n      jump\t// in\n    tag_279:\n        /* \"contracts/KipuBank.sol\":15386:15489  amount_ = convertEthInUSD(s_balances[address(0)][msg.sender]) + s_balances[address(i_usdc)][msg.sender] */\n      swap1\n      pop\n        /* \"contracts/KipuBank.sol\":15304:15496  function viewAccountTotalBalance() external view returns (uint amount_) {... */\n      swap1\n      jump\t// out\n        /* \"contracts/KipuBank.sol\":16683:17213  function transferTheOwnership(address _newOwner) external onlyOwner whenPaused {... */\n    tag_130:\n        /* \"@openzeppelin/contracts/access/Ownable.sol\":1531:1544  _checkOwner() */\n      tag_281\n        /* \"@openzeppelin/contracts/access/Ownable.sol\":1531:1542  _checkOwner */\n      tag_179\n        /* \"@openzeppelin/contracts/access/Ownable.sol\":1531:1544  _checkOwner() */\n      jump\t// in\n    tag_281:\n        /* \"@openzeppelin/contracts/utils/Pausable.sol\":1597:1613  _requirePaused() */\n      tag_283\n        /* \"@openzeppelin/contracts/utils/Pausable.sol\":1597:1611  _requirePaused */\n      tag_243\n        /* \"@openzeppelin/contracts/utils/Pausable.sol\":1597:1613  _requirePaused() */\n      jump\t// in\n    tag_283:\n        /* \"contracts/KipuBank.sol\":16781:16802  address previousOwner */\n      0x00\n        /* \"contracts/KipuBank.sol\":16805:16812  owner() */\n      tag_285\n        /* \"contracts/KipuBank.sol\":16805:16810  owner */\n      tag_105\n        /* \"contracts/KipuBank.sol\":16805:16812  owner() */\n      jump\t// in\n    tag_285:\n        /* \"contracts/KipuBank.sol\":16781:16812  address previousOwner = owner() */\n      swap1\n      pop\n        /* \"contracts/KipuBank.sol\":16823:16869  _revokeRole(DEFAULT_ADMIN_ROLE, previousOwner) */\n      tag_286\n        /* \"@openzeppelin/contracts/access/AccessControl.sol\":2241:2245  0x00 */\n      0x00\n        /* \"contracts/KipuBank.sol\":16835:16853  DEFAULT_ADMIN_ROLE */\n      0x00\n      shl\n        /* \"contracts/KipuBank.sol\":16855:16868  previousOwner */\n      dup3\n        /* \"contracts/KipuBank.sol\":16823:16834  _revokeRole */\n      tag_189\n        /* \"contracts/KipuBank.sol\":16823:16869  _revokeRole(DEFAULT_ADMIN_ROLE, previousOwner) */\n      jump\t// in\n    tag_286:\n      pop\n        /* \"contracts/KipuBank.sol\":16879:16913  _revokeRole(PAUSER, previousOwner) */\n      tag_287\n        /* \"contracts/KipuBank.sol\":964:983  keccak256(\"PAUSER\") */\n      0x539440820030c4994db4e31b6b800deafd503688728f932addfe7a410515c14c\n        /* \"contracts/KipuBank.sol\":16899:16912  previousOwner */\n      dup3\n        /* \"contracts/KipuBank.sol\":16879:16890  _revokeRole */\n      tag_189\n        /* \"contracts/KipuBank.sol\":16879:16913  _revokeRole(PAUSER, previousOwner) */\n      jump\t// in\n    tag_287:\n      pop\n        /* \"contracts/KipuBank.sol\":16923:16963  _revokeRole(FEED_MANAGER, previousOwner) */\n      tag_288\n        /* \"contracts/KipuBank.sol\":1068:1093  keccak256(\"FEED_MANAGER\") */\n      0x9bbb3ee3bdfbe971682b08854a620ca4bf696f8e0c269e5c5b129a18e64d29df\n        /* \"contracts/KipuBank.sol\":16949:16962  previousOwner */\n      dup3\n        /* \"contracts/KipuBank.sol\":16923:16934  _revokeRole */\n      tag_189\n        /* \"contracts/KipuBank.sol\":16923:16963  _revokeRole(FEED_MANAGER, previousOwner) */\n      jump\t// in\n    tag_288:\n      pop\n        /* \"contracts/KipuBank.sol\":16974:17003  _transferOwnership(_newOwner) */\n      tag_289\n        /* \"contracts/KipuBank.sol\":16993:17002  _newOwner */\n      dup3\n        /* \"contracts/KipuBank.sol\":16974:16992  _transferOwnership */\n      tag_234\n        /* \"contracts/KipuBank.sol\":16974:17003  _transferOwnership(_newOwner) */\n      jump\t// in\n    tag_289:\n        /* \"contracts/KipuBank.sol\":17014:17055  _grantRole(DEFAULT_ADMIN_ROLE, _newOwner) */\n      tag_290\n        /* \"@openzeppelin/contracts/access/AccessControl.sol\":2241:2245  0x00 */\n      0x00\n        /* \"contracts/KipuBank.sol\":17025:17043  DEFAULT_ADMIN_ROLE */\n      0x00\n      shl\n        /* \"contracts/KipuBank.sol\":17045:17054  _newOwner */\n      dup4\n        /* \"contracts/KipuBank.sol\":17014:17024  _grantRole */\n      tag_291\n        /* \"contracts/KipuBank.sol\":17014:17055  _grantRole(DEFAULT_ADMIN_ROLE, _newOwner) */\n      jump\t// in\n    tag_290:\n      pop\n        /* \"contracts/KipuBank.sol\":17065:17100  _grantRole(FEED_MANAGER, _newOwner) */\n      tag_292\n        /* \"contracts/KipuBank.sol\":1068:1093  keccak256(\"FEED_MANAGER\") */\n      0x9bbb3ee3bdfbe971682b08854a620ca4bf696f8e0c269e5c5b129a18e64d29df\n        /* \"contracts/KipuBank.sol\":17090:17099  _newOwner */\n      dup4\n        /* \"contracts/KipuBank.sol\":17065:17075  _grantRole */\n      tag_291\n        /* \"contracts/KipuBank.sol\":17065:17100  _grantRole(FEED_MANAGER, _newOwner) */\n      jump\t// in\n    tag_292:\n      pop\n        /* \"contracts/KipuBank.sol\":17110:17139  _grantRole(PAUSER, _newOwner) */\n      tag_293\n        /* \"contracts/KipuBank.sol\":964:983  keccak256(\"PAUSER\") */\n      0x539440820030c4994db4e31b6b800deafd503688728f932addfe7a410515c14c\n        /* \"contracts/KipuBank.sol\":17129:17138  _newOwner */\n      dup4\n        /* \"contracts/KipuBank.sol\":17110:17120  _grantRole */\n      tag_291\n        /* \"contracts/KipuBank.sol\":17110:17139  _grantRole(PAUSER, _newOwner) */\n      jump\t// in\n    tag_293:\n      pop\n        /* \"contracts/KipuBank.sol\":17196:17205  _newOwner */\n      dup2\n        /* \"contracts/KipuBank.sol\":17155:17206  KipuBank_TransferredOwner(previousOwner, _newOwner) */\n      0xffffffffffffffffffffffffffffffffffffffff\n      and\n        /* \"contracts/KipuBank.sol\":17181:17194  previousOwner */\n      dup2\n        /* \"contracts/KipuBank.sol\":17155:17206  KipuBank_TransferredOwner(previousOwner, _newOwner) */\n      0xffffffffffffffffffffffffffffffffffffffff\n      and\n      0x8bfdc1921679312be467b7979ccd28dc2bc1d122f99c6123d976f0bf50a3b435\n      mload(0x40)\n      mload(0x40)\n      dup1\n      swap2\n      sub\n      swap1\n      log3\n        /* \"contracts/KipuBank.sol\":16762:17213  {... */\n      pop\n        /* \"contracts/KipuBank.sol\":16683:17213  function transferTheOwnership(address _newOwner) external onlyOwner whenPaused {... */\n      pop\n      jump\t// out\n        /* \"contracts/KipuBank.sol\":1029:1093  bytes32 public constant FEED_MANAGER = keccak256(\"FEED_MANAGER\") */\n    tag_133:\n        /* \"contracts/KipuBank.sol\":1068:1093  keccak256(\"FEED_MANAGER\") */\n      0x9bbb3ee3bdfbe971682b08854a620ca4bf696f8e0c269e5c5b129a18e64d29df\n        /* \"contracts/KipuBank.sol\":1029:1093  bytes32 public constant FEED_MANAGER = keccak256(\"FEED_MANAGER\") */\n      dup2\n      jump\t// out\n        /* \"contracts/KipuBank.sol\":19192:19386  function revokeRole(bytes32 role, address account) ... */\n    tag_138:\n        /* \"@openzeppelin/contracts/access/Ownable.sol\":1531:1544  _checkOwner() */\n      tag_295\n        /* \"@openzeppelin/contracts/access/Ownable.sol\":1531:1542  _checkOwner */\n      tag_179\n        /* \"@openzeppelin/contracts/access/Ownable.sol\":1531:1544  _checkOwner() */\n      jump\t// in\n    tag_295:\n        /* \"contracts/KipuBank.sol\":19298:19329  super.revokeRole(role, account) */\n      tag_297\n        /* \"contracts/KipuBank.sol\":19315:19319  role */\n      dup3\n        /* \"contracts/KipuBank.sol\":19321:19328  account */\n      dup3\n        /* \"contracts/KipuBank.sol\":19298:19314  super.revokeRole */\n      tag_298\n        /* \"contracts/KipuBank.sol\":19298:19329  super.revokeRole(role, account) */\n      jump\t// in\n    tag_297:\n        /* \"contracts/KipuBank.sol\":19365:19372  account */\n      dup1\n        /* \"contracts/KipuBank.sol\":19344:19379  KipuBank_RoleRevoked(account, role) */\n      0xffffffffffffffffffffffffffffffffffffffff\n      and\n      0x28005222cf9fd144f6f3a53f9517fd413afe5d9b67fd4cf81ddd013486721702\n        /* \"contracts/KipuBank.sol\":19374:19378  role */\n      dup4\n        /* \"contracts/KipuBank.sol\":19344:19379  KipuBank_RoleRevoked(account, role) */\n      mload(0x40)\n      tag_299\n      swap2\n      swap1\n      tag_64\n      jump\t// in\n    tag_299:\n      mload(0x40)\n      dup1\n      swap2\n      sub\n      swap1\n      log2\n        /* \"contracts/KipuBank.sol\":19192:19386  function revokeRole(bytes32 role, address account) ... */\n      pop\n      pop\n      jump\t// out\n        /* \"contracts/KipuBank.sol\":19559:19911  function viewContractState() external view ... */\n    tag_141:\n        /* \"contracts/KipuBank.sol\":19625:19638  bool isPaused */\n      0x00\n        /* \"contracts/KipuBank.sol\":19648:19666  uint totalContract */\n      0x00\n        /* \"contracts/KipuBank.sol\":19676:19686  uint limit */\n      0x00\n        /* \"contracts/KipuBank.sol\":19696:19710  uint threshold */\n      0x00\n        /* \"contracts/KipuBank.sol\":19720:19738  address actualFeed */\n      0x00\n        /* \"contracts/KipuBank.sol\":19780:19788  paused() */\n      tag_301\n        /* \"contracts/KipuBank.sol\":19780:19786  paused */\n      tag_83\n        /* \"contracts/KipuBank.sol\":19780:19788  paused() */\n      jump\t// in\n    tag_301:\n        /* \"contracts/KipuBank.sol\":19802:19817  s_totalContract */\n      sload(0x04)\n        /* \"contracts/KipuBank.sol\":19831:19840  i_bankCap */\n      immutable(\"0x56af87718ac6246bac727726c33ea64d0935502347b4fd185bbadeb5f3fb92bd\")\n        /* \"contracts/KipuBank.sol\":19854:19865  i_threshold */\n      immutable(\"0xcf2f0ed1818444aa7134f6644eb342f5da11c7b70eee1c41201e997b4c62f0a7\")\n        /* \"contracts/KipuBank.sol\":19887:19893  s_feed */\n      0x03\n      0x00\n      swap1\n      sload\n      swap1\n      0x0100\n      exp\n      swap1\n      div\n      0xffffffffffffffffffffffffffffffffffffffff\n      and\n        /* \"contracts/KipuBank.sol\":19759:19904  return (... */\n      swap5\n      pop\n      swap5\n      pop\n      swap5\n      pop\n      swap5\n      pop\n      swap5\n      pop\n        /* \"contracts/KipuBank.sol\":19559:19911  function viewContractState() external view ... */\n      swap1\n      swap2\n      swap3\n      swap4\n      swap5\n      jump\t// out\n        /* \"contracts/KipuBank.sol\":931:983  bytes32 public constant PAUSER = keccak256(\"PAUSER\") */\n    tag_146:\n        /* \"contracts/KipuBank.sol\":964:983  keccak256(\"PAUSER\") */\n      0x539440820030c4994db4e31b6b800deafd503688728f932addfe7a410515c14c\n        /* \"contracts/KipuBank.sol\":931:983  bytes32 public constant PAUSER = keccak256(\"PAUSER\") */\n      dup2\n      jump\t// out\n        /* \"contracts/KipuBank.sol\":13510:13608  function withdrawUSDC(uint _amount) external whenNotPaused {... */\n    tag_151:\n        /* \"@openzeppelin/contracts/utils/Pausable.sol\":1350:1369  _requireNotPaused() */\n      tag_303\n        /* \"@openzeppelin/contracts/utils/Pausable.sol\":1350:1367  _requireNotPaused */\n      tag_198\n        /* \"@openzeppelin/contracts/utils/Pausable.sol\":1350:1369  _requireNotPaused() */\n      jump\t// in\n    tag_303:\n        /* \"contracts/KipuBank.sol\":13579:13601  _withdrawUSDC(_amount) */\n      tag_305\n        /* \"contracts/KipuBank.sol\":13593:13600  _amount */\n      dup2\n        /* \"contracts/KipuBank.sol\":13579:13592  _withdrawUSDC */\n      tag_306\n        /* \"contracts/KipuBank.sol\":13579:13601  _withdrawUSDC(_amount) */\n      jump\t// in\n    tag_305:\n        /* \"contracts/KipuBank.sol\":13510:13608  function withdrawUSDC(uint _amount) external whenNotPaused {... */\n      pop\n      jump\t// out\n        /* \"contracts/KipuBank.sol\":2314:2355  uint public constant MIN_DEPOSIT = 1 gwei */\n    tag_154:\n        /* \"contracts/KipuBank.sol\":2349:2355  1 gwei */\n      0x3b9aca00\n        /* \"contracts/KipuBank.sol\":2314:2355  uint public constant MIN_DEPOSIT = 1 gwei */\n      dup2\n      jump\t// out\n        /* \"contracts/KipuBank.sol\":13307:13403  function withdrawETH(uint _amount) external whenNotPaused {... */\n    tag_159:\n        /* \"@openzeppelin/contracts/utils/Pausable.sol\":1350:1369  _requireNotPaused() */\n      tag_308\n        /* \"@openzeppelin/contracts/utils/Pausable.sol\":1350:1367  _requireNotPaused */\n      tag_198\n        /* \"@openzeppelin/contracts/utils/Pausable.sol\":1350:1369  _requireNotPaused() */\n      jump\t// in\n    tag_308:\n        /* \"contracts/KipuBank.sol\":13375:13396  _withdrawETH(_amount) */\n      tag_310\n        /* \"contracts/KipuBank.sol\":13388:13395  _amount */\n      dup2\n        /* \"contracts/KipuBank.sol\":13375:13387  _withdrawETH */\n      tag_311\n        /* \"contracts/KipuBank.sol\":13375:13396  _withdrawETH(_amount) */\n      jump\t// in\n    tag_310:\n        /* \"contracts/KipuBank.sol\":13307:13403  function withdrawETH(uint _amount) external whenNotPaused {... */\n      pop\n      jump\t// out\n        /* \"@openzeppelin/contracts/access/Ownable.sol\":2543:2758  function transferOwnership(address newOwner) public virtual onlyOwner {... */\n    tag_163:\n        /* \"@openzeppelin/contracts/access/Ownable.sol\":1531:1544  _checkOwner() */\n      tag_313\n        /* \"@openzeppelin/contracts/access/Ownable.sol\":1531:1542  _checkOwner */\n      tag_179\n        /* \"@openzeppelin/contracts/access/Ownable.sol\":1531:1544  _checkOwner() */\n      jump\t// in\n    tag_313:\n        /* \"@openzeppelin/contracts/access/Ownable.sol\":2647:2648  0 */\n      0x00\n        /* \"@openzeppelin/contracts/access/Ownable.sol\":2627:2649  newOwner == address(0) */\n      0xffffffffffffffffffffffffffffffffffffffff\n      and\n        /* \"@openzeppelin/contracts/access/Ownable.sol\":2627:2635  newOwner */\n      dup2\n        /* \"@openzeppelin/contracts/access/Ownable.sol\":2627:2649  newOwner == address(0) */\n      0xffffffffffffffffffffffffffffffffffffffff\n      and\n      sub\n        /* \"@openzeppelin/contracts/access/Ownable.sol\":2623:2714  if (newOwner == address(0)) {... */\n      tag_315\n      jumpi\n        /* \"@openzeppelin/contracts/access/Ownable.sol\":2700:2701  0 */\n      0x00\n        /* \"@openzeppelin/contracts/access/Ownable.sol\":2672:2703  OwnableInvalidOwner(address(0)) */\n      mload(0x40)\n      0x1e4fbdf700000000000000000000000000000000000000000000000000000000\n      dup2\n      mstore\n      0x04\n      add\n      tag_316\n      swap2\n      swap1\n      tag_42\n      jump\t// in\n    tag_316:\n      mload(0x40)\n      dup1\n      swap2\n      sub\n      swap1\n      revert\n        /* \"@openzeppelin/contracts/access/Ownable.sol\":2623:2714  if (newOwner == address(0)) {... */\n    tag_315:\n        /* \"@openzeppelin/contracts/access/Ownable.sol\":2723:2751  _transferOwnership(newOwner) */\n      tag_317\n        /* \"@openzeppelin/contracts/access/Ownable.sol\":2742:2750  newOwner */\n      dup2\n        /* \"@openzeppelin/contracts/access/Ownable.sol\":2723:2741  _transferOwnership */\n      tag_234\n        /* \"@openzeppelin/contracts/access/Ownable.sol\":2723:2751  _transferOwnership(newOwner) */\n      jump\t// in\n    tag_317:\n        /* \"@openzeppelin/contracts/access/Ownable.sol\":2543:2758  function transferOwnership(address newOwner) public virtual onlyOwner {... */\n      pop\n      jump\t// out\n        /* \"contracts/KipuBank.sol\":14295:14499  function depositETH() external payable whenNotPaused {... */\n    tag_165:\n        /* \"@openzeppelin/contracts/utils/Pausable.sol\":1350:1369  _requireNotPaused() */\n      tag_319\n        /* \"@openzeppelin/contracts/utils/Pausable.sol\":1350:1367  _requireNotPaused */\n      tag_198\n        /* \"@openzeppelin/contracts/utils/Pausable.sol\":1350:1369  _requireNotPaused() */\n      jump\t// in\n    tag_319:\n        /* \"contracts/KipuBank.sol\":14358:14372  uint amountETH */\n      0x00\n        /* \"contracts/KipuBank.sol\":14375:14384  msg.value */\n      callvalue\n        /* \"contracts/KipuBank.sol\":14358:14384  uint amountETH = msg.value */\n      swap1\n      pop\n        /* \"contracts/KipuBank.sol\":14394:14408  uint amountUSD */\n      0x00\n        /* \"contracts/KipuBank.sol\":14411:14437  convertEthInUSD(amountETH) */\n      tag_321\n        /* \"contracts/KipuBank.sol\":14427:14436  amountETH */\n      dup3\n        /* \"contracts/KipuBank.sol\":14411:14426  convertEthInUSD */\n      tag_278\n        /* \"contracts/KipuBank.sol\":14411:14437  convertEthInUSD(amountETH) */\n      jump\t// in\n    tag_321:\n        /* \"contracts/KipuBank.sol\":14394:14437  uint amountUSD = convertEthInUSD(amountETH) */\n      swap1\n      pop\n        /* \"contracts/KipuBank.sol\":14447:14492  _depositETH(msg.sender, amountUSD, amountETH) */\n      tag_322\n        /* \"contracts/KipuBank.sol\":14459:14469  msg.sender */\n      caller\n        /* \"contracts/KipuBank.sol\":14471:14480  amountUSD */\n      dup3\n        /* \"contracts/KipuBank.sol\":14482:14491  amountETH */\n      dup5\n        /* \"contracts/KipuBank.sol\":14447:14458  _depositETH */\n      tag_323\n        /* \"contracts/KipuBank.sol\":14447:14492  _depositETH(msg.sender, amountUSD, amountETH) */\n      jump\t// in\n    tag_322:\n        /* \"contracts/KipuBank.sol\":14348:14499  {... */\n      pop\n      pop\n        /* \"contracts/KipuBank.sol\":14295:14499  function depositETH() external payable whenNotPaused {... */\n      jump\t// out\n        /* \"contracts/KipuBank.sol\":20078:20210  function balanceOf(address _holder, address _token) external view returns (uint) {... */\n    tag_170:\n        /* \"contracts/KipuBank.sol\":20153:20157  uint */\n      0x00\n        /* \"contracts/KipuBank.sol\":20176:20186  s_balances */\n      0x06\n        /* \"contracts/KipuBank.sol\":20176:20194  s_balances[_token] */\n      0x00\n        /* \"contracts/KipuBank.sol\":20187:20193  _token */\n      dup4\n        /* \"contracts/KipuBank.sol\":20176:20194  s_balances[_token] */\n      0xffffffffffffffffffffffffffffffffffffffff\n      and\n      0xffffffffffffffffffffffffffffffffffffffff\n      and\n      dup2\n      mstore\n      0x20\n      add\n      swap1\n      dup2\n      mstore\n      0x20\n      add\n      0x00\n      keccak256\n        /* \"contracts/KipuBank.sol\":20176:20203  s_balances[_token][_holder] */\n      0x00\n        /* \"contracts/KipuBank.sol\":20195:20202  _holder */\n      dup5\n        /* \"contracts/KipuBank.sol\":20176:20203  s_balances[_token][_holder] */\n      0xffffffffffffffffffffffffffffffffffffffff\n      and\n      0xffffffffffffffffffffffffffffffffffffffff\n      and\n      dup2\n      mstore\n      0x20\n      add\n      swap1\n      dup2\n      mstore\n      0x20\n      add\n      0x00\n      keccak256\n      sload\n        /* \"contracts/KipuBank.sol\":20169:20203  return s_balances[_token][_holder] */\n      swap1\n      pop\n        /* \"contracts/KipuBank.sol\":20078:20210  function balanceOf(address _holder, address _token) external view returns (uint) {... */\n      swap3\n      swap2\n      pop\n      pop\n      jump\t// out\n        /* \"@openzeppelin/contracts/access/AccessControl.sol\":2541:2743  function supportsInterface(bytes4 interfaceId) public view virtual override returns (bool) {... */\n    tag_174:\n        /* \"@openzeppelin/contracts/access/AccessControl.sol\":2626:2630  bool */\n      0x00\n        /* \"@openzeppelin/contracts/access/AccessControl.sol\":2664:2696  type(IAccessControl).interfaceId */\n      0x7965db0b00000000000000000000000000000000000000000000000000000000\n        /* \"@openzeppelin/contracts/access/AccessControl.sol\":2649:2696  interfaceId == type(IAccessControl).interfaceId */\n      not(0xffffffffffffffffffffffffffffffffffffffffffffffffffffffff)\n      and\n        /* \"@openzeppelin/contracts/access/AccessControl.sol\":2649:2660  interfaceId */\n      dup3\n        /* \"@openzeppelin/contracts/access/AccessControl.sol\":2649:2696  interfaceId == type(IAccessControl).interfaceId */\n      not(0xffffffffffffffffffffffffffffffffffffffffffffffffffffffff)\n      and\n      eq\n        /* \"@openzeppelin/contracts/access/AccessControl.sol\":2649:2736  interfaceId == type(IAccessControl).interfaceId || super.supportsInterface(interfaceId) */\n      dup1\n      tag_326\n      jumpi\n      pop\n        /* \"@openzeppelin/contracts/access/AccessControl.sol\":2700:2736  super.supportsInterface(interfaceId) */\n      tag_327\n        /* \"@openzeppelin/contracts/access/AccessControl.sol\":2724:2735  interfaceId */\n      dup3\n        /* \"@openzeppelin/contracts/access/AccessControl.sol\":2700:2723  super.supportsInterface */\n      tag_328\n        /* \"@openzeppelin/contracts/access/AccessControl.sol\":2700:2736  super.supportsInterface(interfaceId) */\n      jump\t// in\n    tag_327:\n        /* \"@openzeppelin/contracts/access/AccessControl.sol\":2649:2736  interfaceId == type(IAccessControl).interfaceId || super.supportsInterface(interfaceId) */\n    tag_326:\n        /* \"@openzeppelin/contracts/access/AccessControl.sol\":2642:2736  return interfaceId == type(IAccessControl).interfaceId || super.supportsInterface(interfaceId) */\n      swap1\n      pop\n        /* \"@openzeppelin/contracts/access/AccessControl.sol\":2541:2743  function supportsInterface(bytes4 interfaceId) public view virtual override returns (bool) {... */\n      swap2\n      swap1\n      pop\n      jump\t// out\n        /* \"@openzeppelin/contracts/access/Ownable.sol\":1796:1958  function _checkOwner() internal view virtual {... */\n    tag_179:\n        /* \"@openzeppelin/contracts/access/Ownable.sol\":1866:1878  _msgSender() */\n      tag_330\n        /* \"@openzeppelin/contracts/access/Ownable.sol\":1866:1876  _msgSender */\n      tag_186\n        /* \"@openzeppelin/contracts/access/Ownable.sol\":1866:1878  _msgSender() */\n      jump\t// in\n    tag_330:\n        /* \"@openzeppelin/contracts/access/Ownable.sol\":1855:1878  owner() != _msgSender() */\n      0xffffffffffffffffffffffffffffffffffffffff\n      and\n        /* \"@openzeppelin/contracts/access/Ownable.sol\":1855:1862  owner() */\n      tag_331\n        /* \"@openzeppelin/contracts/access/Ownable.sol\":1855:1860  owner */\n      tag_105\n        /* \"@openzeppelin/contracts/access/Ownable.sol\":1855:1862  owner() */\n      jump\t// in\n    tag_331:\n        /* \"@openzeppelin/contracts/access/Ownable.sol\":1855:1878  owner() != _msgSender() */\n      0xffffffffffffffffffffffffffffffffffffffff\n      and\n      eq\n        /* \"@openzeppelin/contracts/access/Ownable.sol\":1851:1952  if (owner() != _msgSender()) {... */\n      tag_332\n      jumpi\n        /* \"@openzeppelin/contracts/access/Ownable.sol\":1928:1940  _msgSender() */\n      tag_333\n        /* \"@openzeppelin/contracts/access/Ownable.sol\":1928:1938  _msgSender */\n      tag_186\n        /* \"@openzeppelin/contracts/access/Ownable.sol\":1928:1940  _msgSender() */\n      jump\t// in\n    tag_333:\n        /* \"@openzeppelin/contracts/access/Ownable.sol\":1901:1941  OwnableUnauthorizedAccount(_msgSender()) */\n      mload(0x40)\n      0x118cdaa700000000000000000000000000000000000000000000000000000000\n      dup2\n      mstore\n      0x04\n      add\n      tag_334\n      swap2\n      swap1\n      tag_42\n      jump\t// in\n    tag_334:\n      mload(0x40)\n      dup1\n      swap2\n      sub\n      swap1\n      revert\n        /* \"@openzeppelin/contracts/access/Ownable.sol\":1851:1952  if (owner() != _msgSender()) {... */\n    tag_332:\n        /* \"@openzeppelin/contracts/access/Ownable.sol\":1796:1958  function _checkOwner() internal view virtual {... */\n      jump\t// out\n        /* \"@openzeppelin/contracts/access/AccessControl.sol\":4202:4338  function grantRole(bytes32 role, address account) public virtual onlyRole(getRoleAdmin(role)) {... */\n    tag_182:\n        /* \"@openzeppelin/contracts/access/AccessControl.sol\":4276:4294  getRoleAdmin(role) */\n      tag_335\n        /* \"@openzeppelin/contracts/access/AccessControl.sol\":4289:4293  role */\n      dup3\n        /* \"@openzeppelin/contracts/access/AccessControl.sol\":4276:4288  getRoleAdmin */\n      tag_62\n        /* \"@openzeppelin/contracts/access/AccessControl.sol\":4276:4294  getRoleAdmin(role) */\n      jump\t// in\n    tag_335:\n        /* \"@openzeppelin/contracts/access/AccessControl.sol\":2473:2489  _checkRole(role) */\n      tag_337\n        /* \"@openzeppelin/contracts/access/AccessControl.sol\":2484:2488  role */\n      dup2\n        /* \"@openzeppelin/contracts/access/AccessControl.sol\":2473:2483  _checkRole */\n      tag_338\n        /* \"@openzeppelin/contracts/access/AccessControl.sol\":2473:2489  _checkRole(role) */\n      jump\t// in\n    tag_337:\n        /* \"@openzeppelin/contracts/access/AccessControl.sol\":4306:4331  _grantRole(role, account) */\n      tag_340\n        /* \"@openzeppelin/contracts/access/AccessControl.sol\":4317:4321  role */\n      dup4\n        /* \"@openzeppelin/contracts/access/AccessControl.sol\":4323:4330  account */\n      dup4\n        /* \"@openzeppelin/contracts/access/AccessControl.sol\":4306:4316  _grantRole */\n      tag_291\n        /* \"@openzeppelin/contracts/access/AccessControl.sol\":4306:4331  _grantRole(role, account) */\n      jump\t// in\n    tag_340:\n      pop\n        /* \"@openzeppelin/contracts/access/AccessControl.sol\":4202:4338  function grantRole(bytes32 role, address account) public virtual onlyRole(getRoleAdmin(role)) {... */\n      pop\n      pop\n      pop\n      jump\t// out\n        /* \"@openzeppelin/contracts/utils/Context.sol\":656:752  function _msgSender() internal view virtual returns (address) {... */\n    tag_186:\n        /* \"@openzeppelin/contracts/utils/Context.sol\":709:716  address */\n      0x00\n        /* \"@openzeppelin/contracts/utils/Context.sol\":735:745  msg.sender */\n      caller\n        /* \"@openzeppelin/contracts/utils/Context.sol\":728:745  return msg.sender */\n      swap1\n      pop\n        /* \"@openzeppelin/contracts/utils/Context.sol\":656:752  function _msgSender() internal view virtual returns (address) {... */\n      swap1\n      jump\t// out\n        /* \"@openzeppelin/contracts/access/AccessControl.sol\":6708:7025  function _revokeRole(bytes32 role, address account) internal virtual returns (bool) {... */\n    tag_189:\n        /* \"@openzeppelin/contracts/access/AccessControl.sol\":6786:6790  bool */\n      0x00\n        /* \"@openzeppelin/contracts/access/AccessControl.sol\":6806:6828  hasRole(role, account) */\n      tag_343\n        /* \"@openzeppelin/contracts/access/AccessControl.sol\":6814:6818  role */\n      dup4\n        /* \"@openzeppelin/contracts/access/AccessControl.sol\":6820:6827  account */\n      dup4\n        /* \"@openzeppelin/contracts/access/AccessControl.sol\":6806:6813  hasRole */\n      tag_110\n        /* \"@openzeppelin/contracts/access/AccessControl.sol\":6806:6828  hasRole(role, account) */\n      jump\t// in\n    tag_343:\n        /* \"@openzeppelin/contracts/access/AccessControl.sol\":6802:7019  if (hasRole(role, account)) {... */\n      iszero\n      tag_344\n      jumpi\n        /* \"@openzeppelin/contracts/access/AccessControl.sol\":6876:6881  false */\n      0x00\n        /* \"@openzeppelin/contracts/access/AccessControl.sol\":6844:6850  _roles */\n      0x02\n        /* \"@openzeppelin/contracts/access/AccessControl.sol\":6844:6856  _roles[role] */\n      0x00\n        /* \"@openzeppelin/contracts/access/AccessControl.sol\":6851:6855  role */\n      dup6\n        /* \"@openzeppelin/contracts/access/AccessControl.sol\":6844:6856  _roles[role] */\n      dup2\n      mstore\n      0x20\n      add\n      swap1\n      dup2\n      mstore\n      0x20\n      add\n      0x00\n      keccak256\n        /* \"@openzeppelin/contracts/access/AccessControl.sol\":6844:6864  _roles[role].hasRole */\n      0x00\n      add\n        /* \"@openzeppelin/contracts/access/AccessControl.sol\":6844:6873  _roles[role].hasRole[account] */\n      0x00\n        /* \"@openzeppelin/contracts/access/AccessControl.sol\":6865:6872  account */\n      dup5\n        /* \"@openzeppelin/contracts/access/AccessControl.sol\":6844:6873  _roles[role].hasRole[account] */\n      0xffffffffffffffffffffffffffffffffffffffff\n      and\n      0xffffffffffffffffffffffffffffffffffffffff\n      and\n      dup2\n      mstore\n      0x20\n      add\n      swap1\n      dup2\n      mstore\n      0x20\n      add\n      0x00\n      keccak256\n      0x00\n        /* \"@openzeppelin/contracts/access/AccessControl.sol\":6844:6881  _roles[role].hasRole[account] = false */\n      0x0100\n      exp\n      dup2\n      sload\n      dup2\n      0xff\n      mul\n      not\n      and\n      swap1\n      dup4\n      iszero\n      iszero\n      mul\n      or\n      swap1\n      sstore\n      pop\n        /* \"@openzeppelin/contracts/access/AccessControl.sol\":6927:6939  _msgSender() */\n      tag_345\n        /* \"@openzeppelin/contracts/access/AccessControl.sol\":6927:6937  _msgSender */\n      tag_186\n        /* \"@openzeppelin/contracts/access/AccessControl.sol\":6927:6939  _msgSender() */\n      jump\t// in\n    tag_345:\n        /* \"@openzeppelin/contracts/access/AccessControl.sol\":6900:6940  RoleRevoked(role, account, _msgSender()) */\n      0xffffffffffffffffffffffffffffffffffffffff\n      and\n        /* \"@openzeppelin/contracts/access/AccessControl.sol\":6918:6925  account */\n      dup3\n        /* \"@openzeppelin/contracts/access/AccessControl.sol\":6900:6940  RoleRevoked(role, account, _msgSender()) */\n      0xffffffffffffffffffffffffffffffffffffffff\n      and\n        /* \"@openzeppelin/contracts/access/AccessControl.sol\":6912:6916  role */\n      dup5\n        /* \"@openzeppelin/contracts/access/AccessControl.sol\":6900:6940  RoleRevoked(role, account, _msgSender()) */\n      0xf6391f5c32d9c69d2a47ea670b442974b53935d1edc7fd64eb21e047a839171b\n      mload(0x40)\n      mload(0x40)\n      dup1\n      swap2\n      sub\n      swap1\n      log4\n        /* \"@openzeppelin/contracts/access/AccessControl.sol\":6961:6965  true */\n      0x01\n        /* \"@openzeppelin/contracts/access/AccessControl.sol\":6954:6965  return true */\n      swap1\n      pop\n      jump(tag_342)\n        /* \"@openzeppelin/contracts/access/AccessControl.sol\":6802:7019  if (hasRole(role, account)) {... */\n    tag_344:\n        /* \"@openzeppelin/contracts/access/AccessControl.sol\":7003:7008  false */\n      0x00\n        /* \"@openzeppelin/contracts/access/AccessControl.sol\":6996:7008  return false */\n      swap1\n      pop\n        /* \"@openzeppelin/contracts/access/AccessControl.sol\":6708:7025  function _revokeRole(bytes32 role, address account) internal virtual returns (bool) {... */\n    tag_342:\n      swap3\n      swap2\n      pop\n      pop\n      jump\t// out\n        /* \"@openzeppelin/contracts/utils/Pausable.sol\":1878:2006  function _requireNotPaused() internal view virtual {... */\n    tag_198:\n        /* \"@openzeppelin/contracts/utils/Pausable.sol\":1943:1951  paused() */\n      tag_348\n        /* \"@openzeppelin/contracts/utils/Pausable.sol\":1943:1949  paused */\n      tag_83\n        /* \"@openzeppelin/contracts/utils/Pausable.sol\":1943:1951  paused() */\n      jump\t// in\n    tag_348:\n        /* \"@openzeppelin/contracts/utils/Pausable.sol\":1939:2000  if (paused()) {... */\n      iszero\n      tag_349\n      jumpi\n        /* \"@openzeppelin/contracts/utils/Pausable.sol\":1974:1989  EnforcedPause() */\n      mload(0x40)\n      0xd93c066500000000000000000000000000000000000000000000000000000000\n      dup2\n      mstore\n      0x04\n      add\n      mload(0x40)\n      dup1\n      swap2\n      sub\n      swap1\n      revert\n        /* \"@openzeppelin/contracts/utils/Pausable.sol\":1939:2000  if (paused()) {... */\n    tag_349:\n        /* \"@openzeppelin/contracts/utils/Pausable.sol\":1878:2006  function _requireNotPaused() internal view virtual {... */\n      jump\t// out\n        /* \"@openzeppelin/contracts/utils/Pausable.sol\":2339:2454  function _pause() internal virtual whenNotPaused {... */\n    tag_201:\n        /* \"@openzeppelin/contracts/utils/Pausable.sol\":1350:1369  _requireNotPaused() */\n      tag_351\n        /* \"@openzeppelin/contracts/utils/Pausable.sol\":1350:1367  _requireNotPaused */\n      tag_198\n        /* \"@openzeppelin/contracts/utils/Pausable.sol\":1350:1369  _requireNotPaused() */\n      jump\t// in\n    tag_351:\n        /* \"@openzeppelin/contracts/utils/Pausable.sol\":2408:2412  true */\n      0x01\n        /* \"@openzeppelin/contracts/utils/Pausable.sol\":2398:2405  _paused */\n      dup1\n      0x14\n        /* \"@openzeppelin/contracts/utils/Pausable.sol\":2398:2412  _paused = true */\n      0x0100\n      exp\n      dup2\n      sload\n      dup2\n      0xff\n      mul\n      not\n      and\n      swap1\n      dup4\n      iszero\n      iszero\n      mul\n      or\n      swap1\n      sstore\n      pop\n        /* \"@openzeppelin/contracts/utils/Pausable.sol\":2427:2447  Paused(_msgSender()) */\n      0x62e78cea01bee320cd4e420270b5ea74000d11b0c9f74754ebdbfc544b05a258\n        /* \"@openzeppelin/contracts/utils/Pausable.sol\":2434:2446  _msgSender() */\n      tag_353\n        /* \"@openzeppelin/contracts/utils/Pausable.sol\":2434:2444  _msgSender */\n      tag_186\n        /* \"@openzeppelin/contracts/utils/Pausable.sol\":2434:2446  _msgSender() */\n      jump\t// in\n    tag_353:\n        /* \"@openzeppelin/contracts/utils/Pausable.sol\":2427:2447  Paused(_msgSender()) */\n      mload(0x40)\n      tag_354\n      swap2\n      swap1\n      tag_42\n      jump\t// in\n    tag_354:\n      mload(0x40)\n      dup1\n      swap2\n      sub\n      swap1\n      log1\n        /* \"@openzeppelin/contracts/utils/Pausable.sol\":2339:2454  function _pause() internal virtual whenNotPaused {... */\n      jump\t// out\n        /* \"@openzeppelin/contracts/token/ERC20/utils/SafeERC20.sol\":1618:1806  function safeTransferFrom(IERC20 token, address from, address to, uint256 value) internal {... */\n    tag_229:\n        /* \"@openzeppelin/contracts/token/ERC20/utils/SafeERC20.sol\":1718:1799  _callOptionalReturn(token, abi.encodeCall(token.transferFrom, (from, to, value))) */\n      tag_356\n        /* \"@openzeppelin/contracts/token/ERC20/utils/SafeERC20.sol\":1738:1743  token */\n      dup5\n        /* \"@openzeppelin/contracts/token/ERC20/utils/SafeERC20.sol\":1760:1765  token */\n      dup6\n        /* \"@openzeppelin/contracts/token/ERC20/utils/SafeERC20.sol\":1760:1778  token.transferFrom */\n      0xffffffffffffffffffffffffffffffffffffffff\n      and\n      0x23b872dd\n        /* \"@openzeppelin/contracts/token/ERC20/utils/SafeERC20.sol\":1781:1785  from */\n      dup7\n        /* \"@openzeppelin/contracts/token/ERC20/utils/SafeERC20.sol\":1787:1789  to */\n      dup7\n        /* \"@openzeppelin/contracts/token/ERC20/utils/SafeERC20.sol\":1791:1796  value */\n      dup7\n        /* \"@openzeppelin/contracts/token/ERC20/utils/SafeERC20.sol\":1745:1798  abi.encodeCall(token.transferFrom, (from, to, value)) */\n      add(0x24, mload(0x40))\n      tag_357\n      swap4\n      swap3\n      swap2\n      swap1\n      tag_358\n      jump\t// in\n    tag_357:\n      mload(0x40)\n      0x20\n      dup2\n      dup4\n      sub\n      sub\n      dup2\n      mstore\n      swap1\n      0x40\n      mstore\n      swap2\n      pop\n      0xe0\n      shl\n      0x20\n      dup3\n      add\n      dup1\n      mload\n      0xffffffffffffffffffffffffffffffffffffffffffffffffffffffff\n      dup4\n      dup2\n      dup4\n      and\n      or\n      dup4\n      mstore\n      pop\n      pop\n      pop\n      pop\n        /* \"@openzeppelin/contracts/token/ERC20/utils/SafeERC20.sol\":1718:1737  _callOptionalReturn */\n      tag_359\n        /* \"@openzeppelin/contracts/token/ERC20/utils/SafeERC20.sol\":1718:1799  _callOptionalReturn(token, abi.encodeCall(token.transferFrom, (from, to, value))) */\n      jump\t// in\n    tag_356:\n        /* \"@openzeppelin/contracts/token/ERC20/utils/SafeERC20.sol\":1618:1806  function safeTransferFrom(IERC20 token, address from, address to, uint256 value) internal {... */\n      pop\n      pop\n      pop\n      pop\n      jump\t// out\n        /* \"@openzeppelin/contracts/access/Ownable.sol\":2912:3099  function _transferOwnership(address newOwner) internal virtual {... */\n    tag_234:\n        /* \"@openzeppelin/contracts/access/Ownable.sol\":2985:3001  address oldOwner */\n      0x00\n        /* \"@openzeppelin/contracts/access/Ownable.sol\":3004:3010  _owner */\n      0x01\n      0x00\n      swap1\n      sload\n      swap1\n      0x0100\n      exp\n      swap1\n      div\n      0xffffffffffffffffffffffffffffffffffffffff\n      and\n        /* \"@openzeppelin/contracts/access/Ownable.sol\":2985:3010  address oldOwner = _owner */\n      swap1\n      pop\n        /* \"@openzeppelin/contracts/access/Ownable.sol\":3029:3037  newOwner */\n      dup2\n        /* \"@openzeppelin/contracts/access/Ownable.sol\":3020:3026  _owner */\n      0x01\n      0x00\n        /* \"@openzeppelin/contracts/access/Ownable.sol\":3020:3037  _owner = newOwner */\n      0x0100\n      exp\n      dup2\n      sload\n      dup2\n      0xffffffffffffffffffffffffffffffffffffffff\n      mul\n      not\n      and\n      swap1\n      dup4\n      0xffffffffffffffffffffffffffffffffffffffff\n      and\n      mul\n      or\n      swap1\n      sstore\n      pop\n        /* \"@openzeppelin/contracts/access/Ownable.sol\":3083:3091  newOwner */\n      dup2\n        /* \"@openzeppelin/contracts/access/Ownable.sol\":3052:3092  OwnershipTransferred(oldOwner, newOwner) */\n      0xffffffffffffffffffffffffffffffffffffffff\n      and\n        /* \"@openzeppelin/contracts/access/Ownable.sol\":3073:3081  oldOwner */\n      dup2\n        /* \"@openzeppelin/contracts/access/Ownable.sol\":3052:3092  OwnershipTransferred(oldOwner, newOwner) */\n      0xffffffffffffffffffffffffffffffffffffffff\n      and\n      0x8be0079c531659141344cd1fd0a4f28419497f9722a3daafe3b4186f6b6457e0\n      mload(0x40)\n      mload(0x40)\n      dup1\n      swap2\n      sub\n      swap1\n      log3\n        /* \"@openzeppelin/contracts/access/Ownable.sol\":2975:3099  {... */\n      pop\n        /* \"@openzeppelin/contracts/access/Ownable.sol\":2912:3099  function _transferOwnership(address newOwner) internal virtual {... */\n      pop\n      jump\t// out\n        /* \"@openzeppelin/contracts/utils/Pausable.sol\":2078:2204  function _requirePaused() internal view virtual {... */\n    tag_243:\n        /* \"@openzeppelin/contracts/utils/Pausable.sol\":2141:2149  paused() */\n      tag_362\n        /* \"@openzeppelin/contracts/utils/Pausable.sol\":2141:2147  paused */\n      tag_83\n        /* \"@openzeppelin/contracts/utils/Pausable.sol\":2141:2149  paused() */\n      jump\t// in\n    tag_362:\n        /* \"@openzeppelin/contracts/utils/Pausable.sol\":2136:2198  if (!paused()) {... */\n      tag_363\n      jumpi\n        /* \"@openzeppelin/contracts/utils/Pausable.sol\":2172:2187  ExpectedPause() */\n      mload(0x40)\n      0x8dfc202b00000000000000000000000000000000000000000000000000000000\n      dup2\n      mstore\n      0x04\n      add\n      mload(0x40)\n      dup1\n      swap2\n      sub\n      swap1\n      revert\n        /* \"@openzeppelin/contracts/utils/Pausable.sol\":2136:2198  if (!paused()) {... */\n    tag_363:\n        /* \"@openzeppelin/contracts/utils/Pausable.sol\":2078:2204  function _requirePaused() internal view virtual {... */\n      jump\t// out\n        /* \"@openzeppelin/contracts/utils/Pausable.sol\":2586:2703  function _unpause() internal virtual whenPaused {... */\n    tag_274:\n        /* \"@openzeppelin/contracts/utils/Pausable.sol\":1597:1613  _requirePaused() */\n      tag_365\n        /* \"@openzeppelin/contracts/utils/Pausable.sol\":1597:1611  _requirePaused */\n      tag_243\n        /* \"@openzeppelin/contracts/utils/Pausable.sol\":1597:1613  _requirePaused() */\n      jump\t// in\n    tag_365:\n        /* \"@openzeppelin/contracts/utils/Pausable.sol\":2654:2659  false */\n      0x00\n        /* \"@openzeppelin/contracts/utils/Pausable.sol\":2644:2651  _paused */\n      0x01\n      0x14\n        /* \"@openzeppelin/contracts/utils/Pausable.sol\":2644:2659  _paused = false */\n      0x0100\n      exp\n      dup2\n      sload\n      dup2\n      0xff\n      mul\n      not\n      and\n      swap1\n      dup4\n      iszero\n      iszero\n      mul\n      or\n      swap1\n      sstore\n      pop\n        /* \"@openzeppelin/contracts/utils/Pausable.sol\":2674:2696  Unpaused(_msgSender()) */\n      0x5db9ee0a495bf2e6ff9c91a7834c1ba4fdd244a5e8aa4e537bd38aeae4b073aa\n        /* \"@openzeppelin/contracts/utils/Pausable.sol\":2683:2695  _msgSender() */\n      tag_367\n        /* \"@openzeppelin/contracts/utils/Pausable.sol\":2683:2693  _msgSender */\n      tag_186\n        /* \"@openzeppelin/contracts/utils/Pausable.sol\":2683:2695  _msgSender() */\n      jump\t// in\n    tag_367:\n        /* \"@openzeppelin/contracts/utils/Pausable.sol\":2674:2696  Unpaused(_msgSender()) */\n      mload(0x40)\n      tag_368\n      swap2\n      swap1\n      tag_42\n      jump\t// in\n    tag_368:\n      mload(0x40)\n      dup1\n      swap2\n      sub\n      swap1\n      log1\n        /* \"@openzeppelin/contracts/utils/Pausable.sol\":2586:2703  function _unpause() internal virtual whenPaused {... */\n      jump\t// out\n        /* \"contracts/KipuBank.sol\":11659:11828  function convertEthInUSD(uint _amount) internal view returns (uint convertedAmount_) {... */\n    tag_278:\n        /* \"contracts/KipuBank.sol\":11721:11742  uint convertedAmount_ */\n      0x00\n        /* \"contracts/KipuBank.sol\":1864:1876  1 * 10 ** 20 */\n      0x056bc75e2d63100000\n        /* \"contracts/KipuBank.sol\":11787:11803  chainLinkFeeds() */\n      tag_370\n        /* \"contracts/KipuBank.sol\":11787:11801  chainLinkFeeds */\n      tag_371\n        /* \"contracts/KipuBank.sol\":11787:11803  chainLinkFeeds() */\n      jump\t// in\n    tag_370:\n        /* \"contracts/KipuBank.sol\":11778:11785  _amount */\n      dup4\n        /* \"contracts/KipuBank.sol\":11778:11803  _amount* chainLinkFeeds() */\n      tag_372\n      swap2\n      swap1\n      tag_373\n      jump\t// in\n    tag_372:\n        /* \"contracts/KipuBank.sol\":11777:11821  (_amount* chainLinkFeeds()) / DECIMAL_FACTOR */\n      tag_374\n      swap2\n      swap1\n      tag_375\n      jump\t// in\n    tag_374:\n        /* \"contracts/KipuBank.sol\":11758:11821  convertedAmount_ = (_amount* chainLinkFeeds()) / DECIMAL_FACTOR */\n      swap1\n      pop\n        /* \"contracts/KipuBank.sol\":11659:11828  function convertEthInUSD(uint _amount) internal view returns (uint convertedAmount_) {... */\n      swap2\n      swap1\n      pop\n      jump\t// out\n        /* \"@openzeppelin/contracts/access/AccessControl.sol\":6155:6471  function _grantRole(bytes32 role, address account) internal virtual returns (bool) {... */\n    tag_291:\n        /* \"@openzeppelin/contracts/access/AccessControl.sol\":6232:6236  bool */\n      0x00\n        /* \"@openzeppelin/contracts/access/AccessControl.sol\":6253:6275  hasRole(role, account) */\n      tag_377\n        /* \"@openzeppelin/contracts/access/AccessControl.sol\":6261:6265  role */\n      dup4\n        /* \"@openzeppelin/contracts/access/AccessControl.sol\":6267:6274  account */\n      dup4\n        /* \"@openzeppelin/contracts/access/AccessControl.sol\":6253:6260  hasRole */\n      tag_110\n        /* \"@openzeppelin/contracts/access/AccessControl.sol\":6253:6275  hasRole(role, account) */\n      jump\t// in\n    tag_377:\n        /* \"@openzeppelin/contracts/access/AccessControl.sol\":6248:6465  if (!hasRole(role, account)) {... */\n      tag_378\n      jumpi\n        /* \"@openzeppelin/contracts/access/AccessControl.sol\":6323:6327  true */\n      0x01\n        /* \"@openzeppelin/contracts/access/AccessControl.sol\":6291:6297  _roles */\n      0x02\n        /* \"@openzeppelin/contracts/access/AccessControl.sol\":6291:6303  _roles[role] */\n      0x00\n        /* \"@openzeppelin/contracts/access/AccessControl.sol\":6298:6302  role */\n      dup6\n        /* \"@openzeppelin/contracts/access/AccessControl.sol\":6291:6303  _roles[role] */\n      dup2\n      mstore\n      0x20\n      add\n      swap1\n      dup2\n      mstore\n      0x20\n      add\n      0x00\n      keccak256\n        /* \"@openzeppelin/contracts/access/AccessControl.sol\":6291:6311  _roles[role].hasRole */\n      0x00\n      add\n        /* \"@openzeppelin/contracts/access/AccessControl.sol\":6291:6320  _roles[role].hasRole[account] */\n      0x00\n        /* \"@openzeppelin/contracts/access/AccessControl.sol\":6312:6319  account */\n      dup5\n        /* \"@openzeppelin/contracts/access/AccessControl.sol\":6291:6320  _roles[role].hasRole[account] */\n      0xffffffffffffffffffffffffffffffffffffffff\n      and\n      0xffffffffffffffffffffffffffffffffffffffff\n      and\n      dup2\n      mstore\n      0x20\n      add\n      swap1\n      dup2\n      mstore\n      0x20\n      add\n      0x00\n      keccak256\n      0x00\n        /* \"@openzeppelin/contracts/access/AccessControl.sol\":6291:6327  _roles[role].hasRole[account] = true */\n      0x0100\n      exp\n      dup2\n      sload\n      dup2\n      0xff\n      mul\n      not\n      and\n      swap1\n      dup4\n      iszero\n      iszero\n      mul\n      or\n      swap1\n      sstore\n      pop\n        /* \"@openzeppelin/contracts/access/AccessControl.sol\":6373:6385  _msgSender() */\n      tag_379\n        /* \"@openzeppelin/contracts/access/AccessControl.sol\":6373:6383  _msgSender */\n      tag_186\n        /* \"@openzeppelin/contracts/access/AccessControl.sol\":6373:6385  _msgSender() */\n      jump\t// in\n    tag_379:\n        /* \"@openzeppelin/contracts/access/AccessControl.sol\":6346:6386  RoleGranted(role, account, _msgSender()) */\n      0xffffffffffffffffffffffffffffffffffffffff\n      and\n        /* \"@openzeppelin/contracts/access/AccessControl.sol\":6364:6371  account */\n      dup3\n        /* \"@openzeppelin/contracts/access/AccessControl.sol\":6346:6386  RoleGranted(role, account, _msgSender()) */\n      0xffffffffffffffffffffffffffffffffffffffff\n      and\n        /* \"@openzeppelin/contracts/access/AccessControl.sol\":6358:6362  role */\n      dup5\n        /* \"@openzeppelin/contracts/access/AccessControl.sol\":6346:6386  RoleGranted(role, account, _msgSender()) */\n      0x2f8788117e7eff1d82e926ec794901d17c78024a50270940304540a733656f0d\n      mload(0x40)\n      mload(0x40)\n      dup1\n      swap2\n      sub\n      swap1\n      log4\n        /* \"@openzeppelin/contracts/access/AccessControl.sol\":6407:6411  true */\n      0x01\n        /* \"@openzeppelin/contracts/access/AccessControl.sol\":6400:6411  return true */\n      swap1\n      pop\n      jump(tag_376)\n        /* \"@openzeppelin/contracts/access/AccessControl.sol\":6248:6465  if (!hasRole(role, account)) {... */\n    tag_378:\n        /* \"@openzeppelin/contracts/access/AccessControl.sol\":6449:6454  false */\n      0x00\n        /* \"@openzeppelin/contracts/access/AccessControl.sol\":6442:6454  return false */\n      swap1\n      pop\n        /* \"@openzeppelin/contracts/access/AccessControl.sol\":6155:6471  function _grantRole(bytes32 role, address account) internal virtual returns (bool) {... */\n    tag_376:\n      swap3\n      swap2\n      pop\n      pop\n      jump\t// out\n        /* \"@openzeppelin/contracts/access/AccessControl.sol\":4618:4756  function revokeRole(bytes32 role, address account) public virtual onlyRole(getRoleAdmin(role)) {... */\n    tag_298:\n        /* \"@openzeppelin/contracts/access/AccessControl.sol\":4693:4711  getRoleAdmin(role) */\n      tag_381\n        /* \"@openzeppelin/contracts/access/AccessControl.sol\":4706:4710  role */\n      dup3\n        /* \"@openzeppelin/contracts/access/AccessControl.sol\":4693:4705  getRoleAdmin */\n      tag_62\n        /* \"@openzeppelin/contracts/access/AccessControl.sol\":4693:4711  getRoleAdmin(role) */\n      jump\t// in\n    tag_381:\n        /* \"@openzeppelin/contracts/access/AccessControl.sol\":2473:2489  _checkRole(role) */\n      tag_383\n        /* \"@openzeppelin/contracts/access/AccessControl.sol\":2484:2488  role */\n      dup2\n        /* \"@openzeppelin/contracts/access/AccessControl.sol\":2473:2483  _checkRole */\n      tag_338\n        /* \"@openzeppelin/contracts/access/AccessControl.sol\":2473:2489  _checkRole(role) */\n      jump\t// in\n    tag_383:\n        /* \"@openzeppelin/contracts/access/AccessControl.sol\":4723:4749  _revokeRole(role, account) */\n      tag_385\n        /* \"@openzeppelin/contracts/access/AccessControl.sol\":4735:4739  role */\n      dup4\n        /* \"@openzeppelin/contracts/access/AccessControl.sol\":4741:4748  account */\n      dup4\n        /* \"@openzeppelin/contracts/access/AccessControl.sol\":4723:4734  _revokeRole */\n      tag_189\n        /* \"@openzeppelin/contracts/access/AccessControl.sol\":4723:4749  _revokeRole(role, account) */\n      jump\t// in\n    tag_385:\n      pop\n        /* \"@openzeppelin/contracts/access/AccessControl.sol\":4618:4756  function revokeRole(bytes32 role, address account) public virtual onlyRole(getRoleAdmin(role)) {... */\n      pop\n      pop\n      pop\n      jump\t// out\n        /* \"contracts/KipuBank.sol\":12866:13194  function _withdrawUSDC(uint _amount) private nonReentrant verifyWithdrawUSDC(_amount) {... */\n    tag_306:\n        /* \"@openzeppelin/contracts/security/ReentrancyGuard.sol\":2261:2282  _nonReentrantBefore() */\n      tag_387\n        /* \"@openzeppelin/contracts/security/ReentrancyGuard.sol\":2261:2280  _nonReentrantBefore */\n      tag_388\n        /* \"@openzeppelin/contracts/security/ReentrancyGuard.sol\":2261:2282  _nonReentrantBefore() */\n      jump\t// in\n    tag_387:\n        /* \"contracts/KipuBank.sol\":12943:12950  _amount */\n      dup1\n        /* \"contracts/KipuBank.sol\":10631:10632  0 */\n      0x00\n        /* \"contracts/KipuBank.sol\":10620:10627  _amount */\n      dup2\n        /* \"contracts/KipuBank.sol\":10620:10632  _amount == 0 */\n      sub\n        /* \"contracts/KipuBank.sol\":10617:10672  if(_amount == 0) revert KipuBank_ZeroAmount(msg.sender) */\n      tag_390\n      jumpi\n        /* \"contracts/KipuBank.sol\":10661:10671  msg.sender */\n      caller\n        /* \"contracts/KipuBank.sol\":10641:10672  KipuBank_ZeroAmount(msg.sender) */\n      mload(0x40)\n      0x1b8b1c9100000000000000000000000000000000000000000000000000000000\n      dup2\n      mstore\n      0x04\n      add\n      tag_391\n      swap2\n      swap1\n      tag_42\n      jump\t// in\n    tag_391:\n      mload(0x40)\n      dup1\n      swap2\n      sub\n      swap1\n      revert\n        /* \"contracts/KipuBank.sol\":10617:10672  if(_amount == 0) revert KipuBank_ZeroAmount(msg.sender) */\n    tag_390:\n        /* \"contracts/KipuBank.sol\":10696:10707  i_threshold */\n      immutable(\"0xcf2f0ed1818444aa7134f6644eb342f5da11c7b70eee1c41201e997b4c62f0a7\")\n        /* \"contracts/KipuBank.sol\":10686:10693  _amount */\n      dup2\n        /* \"contracts/KipuBank.sol\":10686:10707  _amount > i_threshold */\n      gt\n        /* \"contracts/KipuBank.sol\":10682:10751  if (_amount > i_threshold) revert KipuBank_ExceededThreshold(_amount) */\n      iszero\n      tag_392\n      jumpi\n        /* \"contracts/KipuBank.sol\":10743:10750  _amount */\n      dup1\n        /* \"contracts/KipuBank.sol\":10716:10751  KipuBank_ExceededThreshold(_amount) */\n      mload(0x40)\n      0x764e5de200000000000000000000000000000000000000000000000000000000\n      dup2\n      mstore\n      0x04\n      add\n      tag_393\n      swap2\n      swap1\n      tag_57\n      jump\t// in\n    tag_393:\n      mload(0x40)\n      dup1\n      swap2\n      sub\n      swap1\n      revert\n        /* \"contracts/KipuBank.sol\":10682:10751  if (_amount > i_threshold) revert KipuBank_ExceededThreshold(_amount) */\n    tag_392:\n        /* \"contracts/KipuBank.sol\":10775:10785  s_balances */\n      0x06\n        /* \"contracts/KipuBank.sol\":10775:10802  s_balances[address(i_usdc)] */\n      0x00\n        /* \"contracts/KipuBank.sol\":10794:10800  i_usdc */\n      immutable(\"0x70ebf73cb6f1a1207279604d754513a029c2ff46f9198374b0ad04887dd2881e\")\n        /* \"contracts/KipuBank.sol\":10775:10802  s_balances[address(i_usdc)] */\n      0xffffffffffffffffffffffffffffffffffffffff\n      and\n      0xffffffffffffffffffffffffffffffffffffffff\n      and\n      dup2\n      mstore\n      0x20\n      add\n      swap1\n      dup2\n      mstore\n      0x20\n      add\n      0x00\n      keccak256\n        /* \"contracts/KipuBank.sol\":10775:10814  s_balances[address(i_usdc)][msg.sender] */\n      0x00\n        /* \"contracts/KipuBank.sol\":10803:10813  msg.sender */\n      caller\n        /* \"contracts/KipuBank.sol\":10775:10814  s_balances[address(i_usdc)][msg.sender] */\n      0xffffffffffffffffffffffffffffffffffffffff\n      and\n      0xffffffffffffffffffffffffffffffffffffffff\n      and\n      dup2\n      mstore\n      0x20\n      add\n      swap1\n      dup2\n      mstore\n      0x20\n      add\n      0x00\n      keccak256\n      sload\n        /* \"contracts/KipuBank.sol\":10765:10772  _amount */\n      dup2\n        /* \"contracts/KipuBank.sol\":10765:10814  _amount > s_balances[address(i_usdc)][msg.sender] */\n      gt\n        /* \"contracts/KipuBank.sol\":10761:10871  if (_amount > s_balances[address(i_usdc)][msg.sender]) revert KipuBank_InsufficientsFunds(msg.sender, _amount) */\n      iszero\n      tag_394\n      jumpi\n        /* \"contracts/KipuBank.sol\":10851:10861  msg.sender */\n      caller\n        /* \"contracts/KipuBank.sol\":10863:10870  _amount */\n      dup2\n        /* \"contracts/KipuBank.sol\":10823:10871  KipuBank_InsufficientsFunds(msg.sender, _amount) */\n      mload(0x40)\n      0xbaa7a16500000000000000000000000000000000000000000000000000000000\n      dup2\n      mstore\n      0x04\n      add\n      tag_395\n      swap3\n      swap2\n      swap1\n      tag_396\n      jump\t// in\n    tag_395:\n      mload(0x40)\n      dup1\n      swap2\n      sub\n      swap1\n      revert\n        /* \"contracts/KipuBank.sol\":10761:10871  if (_amount > s_balances[address(i_usdc)][msg.sender]) revert KipuBank_InsufficientsFunds(msg.sender, _amount) */\n    tag_394:\n        /* \"contracts/KipuBank.sol\":13005:13012  _amount */\n      dup2\n        /* \"contracts/KipuBank.sol\":12962:12972  s_balances */\n      0x06\n        /* \"contracts/KipuBank.sol\":12962:12989  s_balances[address(i_usdc)] */\n      0x00\n        /* \"contracts/KipuBank.sol\":12981:12987  i_usdc */\n      immutable(\"0x70ebf73cb6f1a1207279604d754513a029c2ff46f9198374b0ad04887dd2881e\")\n        /* \"contracts/KipuBank.sol\":12962:12989  s_balances[address(i_usdc)] */\n      0xffffffffffffffffffffffffffffffffffffffff\n      and\n      0xffffffffffffffffffffffffffffffffffffffff\n      and\n      dup2\n      mstore\n      0x20\n      add\n      swap1\n      dup2\n      mstore\n      0x20\n      add\n      0x00\n      keccak256\n        /* \"contracts/KipuBank.sol\":12962:13001  s_balances[address(i_usdc)][msg.sender] */\n      0x00\n        /* \"contracts/KipuBank.sol\":12990:13000  msg.sender */\n      caller\n        /* \"contracts/KipuBank.sol\":12962:13001  s_balances[address(i_usdc)][msg.sender] */\n      0xffffffffffffffffffffffffffffffffffffffff\n      and\n      0xffffffffffffffffffffffffffffffffffffffff\n      and\n      dup2\n      mstore\n      0x20\n      add\n      swap1\n      dup2\n      mstore\n      0x20\n      add\n      0x00\n      keccak256\n      0x00\n        /* \"contracts/KipuBank.sol\":12962:13012  s_balances[address(i_usdc)][msg.sender] -= _amount */\n      dup3\n      dup3\n      sload\n      tag_398\n      swap2\n      swap1\n      tag_258\n      jump\t// in\n    tag_398:\n      swap3\n      pop\n      pop\n      dup2\n      swap1\n      sstore\n      pop\n        /* \"contracts/KipuBank.sol\":13022:13034  s_withdrawal */\n      0x05\n      0x10\n        /* \"contracts/KipuBank.sol\":13022:13036  s_withdrawal++ */\n      dup2\n      dup2\n      swap1\n      sload\n      swap1\n      0x0100\n      exp\n      swap1\n      div\n      0xffffffffffffffffffffffffffffffff\n      and\n      dup1\n      swap3\n      swap2\n      swap1\n      tag_399\n      swap1\n      tag_225\n      jump\t// in\n    tag_399:\n      swap2\n      swap1\n      0x0100\n      exp\n      dup2\n      sload\n      dup2\n      0xffffffffffffffffffffffffffffffff\n      mul\n      not\n      and\n      swap1\n      dup4\n      0xffffffffffffffffffffffffffffffff\n      and\n      mul\n      or\n      swap1\n      sstore\n      pop\n      pop\n        /* \"contracts/KipuBank.sol\":13065:13072  _amount */\n      dup2\n        /* \"contracts/KipuBank.sol\":13046:13061  s_totalContract */\n      0x04\n      0x00\n        /* \"contracts/KipuBank.sol\":13046:13072  s_totalContract -= _amount */\n      dup3\n      dup3\n      sload\n      tag_400\n      swap2\n      swap1\n      tag_258\n      jump\t// in\n    tag_400:\n      swap3\n      pop\n      pop\n      dup2\n      swap1\n      sstore\n      pop\n        /* \"contracts/KipuBank.sol\":13117:13127  msg.sender */\n      caller\n        /* \"contracts/KipuBank.sol\":13087:13137  KipuBank_SuccessfulWithdrawal(msg.sender, _amount) */\n      0xffffffffffffffffffffffffffffffffffffffff\n      and\n      0x1ff21e81cff87fccbac096ad565f52cb1b358db04a736a6a137cceb4a287a702\n        /* \"contracts/KipuBank.sol\":13129:13136  _amount */\n      dup4\n        /* \"contracts/KipuBank.sol\":13087:13137  KipuBank_SuccessfulWithdrawal(msg.sender, _amount) */\n      mload(0x40)\n      tag_401\n      swap2\n      swap1\n      tag_57\n      jump\t// in\n    tag_401:\n      mload(0x40)\n      dup1\n      swap2\n      sub\n      swap1\n      log2\n        /* \"contracts/KipuBank.sol\":13147:13187  i_usdc.safeTransfer(msg.sender, _amount) */\n      tag_402\n        /* \"contracts/KipuBank.sol\":13167:13177  msg.sender */\n      caller\n        /* \"contracts/KipuBank.sol\":13179:13186  _amount */\n      dup4\n        /* \"contracts/KipuBank.sol\":13147:13153  i_usdc */\n      immutable(\"0x70ebf73cb6f1a1207279604d754513a029c2ff46f9198374b0ad04887dd2881e\")\n        /* \"contracts/KipuBank.sol\":13147:13166  i_usdc.safeTransfer */\n      0xffffffffffffffffffffffffffffffffffffffff\n      and\n      tag_403\n      swap1\n        /* \"contracts/KipuBank.sol\":13147:13187  i_usdc.safeTransfer(msg.sender, _amount) */\n      swap3\n      swap2\n      swap1\n      0xffffffff\n      and\n      jump\t// in\n    tag_402:\n        /* \"@openzeppelin/contracts/security/ReentrancyGuard.sol\":2292:2293  _ */\n      pop\n        /* \"@openzeppelin/contracts/security/ReentrancyGuard.sol\":2303:2323  _nonReentrantAfter() */\n      tag_404\n        /* \"@openzeppelin/contracts/security/ReentrancyGuard.sol\":2303:2321  _nonReentrantAfter */\n      tag_405\n        /* \"@openzeppelin/contracts/security/ReentrancyGuard.sol\":2303:2323  _nonReentrantAfter() */\n      jump\t// in\n    tag_404:\n        /* \"contracts/KipuBank.sol\":12866:13194  function _withdrawUSDC(uint _amount) private nonReentrant verifyWithdrawUSDC(_amount) {... */\n      pop\n      jump\t// out\n        /* \"contracts/KipuBank.sol\":12071:12557  function _withdrawETH(uint _amount) private nonReentrant verifyEthWithdraw(_amount) {... */\n    tag_311:\n        /* \"@openzeppelin/contracts/security/ReentrancyGuard.sol\":2261:2282  _nonReentrantBefore() */\n      tag_407\n        /* \"@openzeppelin/contracts/security/ReentrancyGuard.sol\":2261:2280  _nonReentrantBefore */\n      tag_388\n        /* \"@openzeppelin/contracts/security/ReentrancyGuard.sol\":2261:2282  _nonReentrantBefore() */\n      jump\t// in\n    tag_407:\n        /* \"contracts/KipuBank.sol\":12146:12153  _amount */\n      dup1\n        /* \"contracts/KipuBank.sol\":10086:10100  uint amountUSD */\n      0x00\n        /* \"contracts/KipuBank.sol\":10103:10127  convertEthInUSD(_amount) */\n      tag_409\n        /* \"contracts/KipuBank.sol\":10119:10126  _amount */\n      dup3\n        /* \"contracts/KipuBank.sol\":10103:10118  convertEthInUSD */\n      tag_278\n        /* \"contracts/KipuBank.sol\":10103:10127  convertEthInUSD(_amount) */\n      jump\t// in\n    tag_409:\n        /* \"contracts/KipuBank.sol\":10086:10127  uint amountUSD = convertEthInUSD(_amount) */\n      swap1\n      pop\n        /* \"contracts/KipuBank.sol\":10153:10154  0 */\n      0x00\n        /* \"contracts/KipuBank.sol\":10140:10149  amountUSD */\n      dup2\n        /* \"contracts/KipuBank.sol\":10140:10154  amountUSD == 0 */\n      sub\n        /* \"contracts/KipuBank.sol\":10137:10194  if(amountUSD == 0) revert KipuBank_ZeroAmount(msg.sender) */\n      tag_410\n      jumpi\n        /* \"contracts/KipuBank.sol\":10183:10193  msg.sender */\n      caller\n        /* \"contracts/KipuBank.sol\":10163:10194  KipuBank_ZeroAmount(msg.sender) */\n      mload(0x40)\n      0x1b8b1c9100000000000000000000000000000000000000000000000000000000\n      dup2\n      mstore\n      0x04\n      add\n      tag_411\n      swap2\n      swap1\n      tag_42\n      jump\t// in\n    tag_411:\n      mload(0x40)\n      dup1\n      swap2\n      sub\n      swap1\n      revert\n        /* \"contracts/KipuBank.sol\":10137:10194  if(amountUSD == 0) revert KipuBank_ZeroAmount(msg.sender) */\n    tag_410:\n        /* \"contracts/KipuBank.sol\":10220:10231  i_threshold */\n      immutable(\"0xcf2f0ed1818444aa7134f6644eb342f5da11c7b70eee1c41201e997b4c62f0a7\")\n        /* \"contracts/KipuBank.sol\":10208:10217  amountUSD */\n      dup2\n        /* \"contracts/KipuBank.sol\":10208:10231  amountUSD > i_threshold */\n      gt\n        /* \"contracts/KipuBank.sol\":10204:10277  if (amountUSD > i_threshold) revert KipuBank_ExceededThreshold(amountUSD) */\n      iszero\n      tag_412\n      jumpi\n        /* \"contracts/KipuBank.sol\":10267:10276  amountUSD */\n      dup1\n        /* \"contracts/KipuBank.sol\":10240:10277  KipuBank_ExceededThreshold(amountUSD) */\n      mload(0x40)\n      0x764e5de200000000000000000000000000000000000000000000000000000000\n      dup2\n      mstore\n      0x04\n      add\n      tag_413\n      swap2\n      swap1\n      tag_57\n      jump\t// in\n    tag_413:\n      mload(0x40)\n      dup1\n      swap2\n      sub\n      swap1\n      revert\n        /* \"contracts/KipuBank.sol\":10204:10277  if (amountUSD > i_threshold) revert KipuBank_ExceededThreshold(amountUSD) */\n    tag_412:\n        /* \"contracts/KipuBank.sol\":10301:10311  s_balances */\n      0x06\n        /* \"contracts/KipuBank.sol\":10301:10323  s_balances[address(0)] */\n      0x00\n        /* \"contracts/KipuBank.sol\":10320:10321  0 */\n      0x00\n        /* \"contracts/KipuBank.sol\":10301:10323  s_balances[address(0)] */\n      0xffffffffffffffffffffffffffffffffffffffff\n      and\n      0xffffffffffffffffffffffffffffffffffffffff\n      and\n      dup2\n      mstore\n      0x20\n      add\n      swap1\n      dup2\n      mstore\n      0x20\n      add\n      0x00\n      keccak256\n        /* \"contracts/KipuBank.sol\":10301:10335  s_balances[address(0)][msg.sender] */\n      0x00\n        /* \"contracts/KipuBank.sol\":10324:10334  msg.sender */\n      caller\n        /* \"contracts/KipuBank.sol\":10301:10335  s_balances[address(0)][msg.sender] */\n      0xffffffffffffffffffffffffffffffffffffffff\n      and\n      0xffffffffffffffffffffffffffffffffffffffff\n      and\n      dup2\n      mstore\n      0x20\n      add\n      swap1\n      dup2\n      mstore\n      0x20\n      add\n      0x00\n      keccak256\n      sload\n        /* \"contracts/KipuBank.sol\":10291:10298  _amount */\n      dup3\n        /* \"contracts/KipuBank.sol\":10291:10335  _amount > s_balances[address(0)][msg.sender] */\n      gt\n        /* \"contracts/KipuBank.sol\":10287:10394  if (_amount > s_balances[address(0)][msg.sender]) revert KipuBank_InsufficientsFunds(msg.sender, amountUSD) */\n      iszero\n      tag_414\n      jumpi\n        /* \"contracts/KipuBank.sol\":10372:10382  msg.sender */\n      caller\n        /* \"contracts/KipuBank.sol\":10384:10393  amountUSD */\n      dup2\n        /* \"contracts/KipuBank.sol\":10344:10394  KipuBank_InsufficientsFunds(msg.sender, amountUSD) */\n      mload(0x40)\n      0xbaa7a16500000000000000000000000000000000000000000000000000000000\n      dup2\n      mstore\n      0x04\n      add\n      tag_415\n      swap3\n      swap2\n      swap1\n      tag_396\n      jump\t// in\n    tag_415:\n      mload(0x40)\n      dup1\n      swap2\n      sub\n      swap1\n      revert\n        /* \"contracts/KipuBank.sol\":10287:10394  if (_amount > s_balances[address(0)][msg.sender]) revert KipuBank_InsufficientsFunds(msg.sender, amountUSD) */\n    tag_414:\n        /* \"contracts/KipuBank.sol\":12165:12179  uint amountUSD */\n      0x00\n        /* \"contracts/KipuBank.sol\":12182:12206  convertEthInUSD(_amount) */\n      tag_417\n        /* \"contracts/KipuBank.sol\":12198:12205  _amount */\n      dup5\n        /* \"contracts/KipuBank.sol\":12182:12197  convertEthInUSD */\n      tag_278\n        /* \"contracts/KipuBank.sol\":12182:12206  convertEthInUSD(_amount) */\n      jump\t// in\n    tag_417:\n        /* \"contracts/KipuBank.sol\":12165:12206  uint amountUSD = convertEthInUSD(_amount) */\n      swap1\n      pop\n        /* \"contracts/KipuBank.sol\":12254:12261  _amount */\n      dup4\n        /* \"contracts/KipuBank.sol\":12216:12226  s_balances */\n      0x06\n        /* \"contracts/KipuBank.sol\":12216:12238  s_balances[address(0)] */\n      0x00\n        /* \"contracts/KipuBank.sol\":12235:12236  0 */\n      0x00\n        /* \"contracts/KipuBank.sol\":12216:12238  s_balances[address(0)] */\n      0xffffffffffffffffffffffffffffffffffffffff\n      and\n      0xffffffffffffffffffffffffffffffffffffffff\n      and\n      dup2\n      mstore\n      0x20\n      add\n      swap1\n      dup2\n      mstore\n      0x20\n      add\n      0x00\n      keccak256\n        /* \"contracts/KipuBank.sol\":12216:12250  s_balances[address(0)][msg.sender] */\n      0x00\n        /* \"contracts/KipuBank.sol\":12239:12249  msg.sender */\n      caller\n        /* \"contracts/KipuBank.sol\":12216:12250  s_balances[address(0)][msg.sender] */\n      0xffffffffffffffffffffffffffffffffffffffff\n      and\n      0xffffffffffffffffffffffffffffffffffffffff\n      and\n      dup2\n      mstore\n      0x20\n      add\n      swap1\n      dup2\n      mstore\n      0x20\n      add\n      0x00\n      keccak256\n      0x00\n        /* \"contracts/KipuBank.sol\":12216:12261  s_balances[address(0)][msg.sender] -= _amount */\n      dup3\n      dup3\n      sload\n      tag_418\n      swap2\n      swap1\n      tag_258\n      jump\t// in\n    tag_418:\n      swap3\n      pop\n      pop\n      dup2\n      swap1\n      sstore\n      pop\n        /* \"contracts/KipuBank.sol\":12271:12283  s_withdrawal */\n      0x05\n      0x10\n        /* \"contracts/KipuBank.sol\":12271:12285  s_withdrawal++ */\n      dup2\n      dup2\n      swap1\n      sload\n      swap1\n      0x0100\n      exp\n      swap1\n      div\n      0xffffffffffffffffffffffffffffffff\n      and\n      dup1\n      swap3\n      swap2\n      swap1\n      tag_419\n      swap1\n      tag_225\n      jump\t// in\n    tag_419:\n      swap2\n      swap1\n      0x0100\n      exp\n      dup2\n      sload\n      dup2\n      0xffffffffffffffffffffffffffffffff\n      mul\n      not\n      and\n      swap1\n      dup4\n      0xffffffffffffffffffffffffffffffff\n      and\n      mul\n      or\n      swap1\n      sstore\n      pop\n      pop\n        /* \"contracts/KipuBank.sol\":12314:12323  amountUSD */\n      dup1\n        /* \"contracts/KipuBank.sol\":12295:12310  s_totalContract */\n      0x04\n      0x00\n        /* \"contracts/KipuBank.sol\":12295:12323  s_totalContract -= amountUSD */\n      dup3\n      dup3\n      sload\n      tag_420\n      swap2\n      swap1\n      tag_258\n      jump\t// in\n    tag_420:\n      swap3\n      pop\n      pop\n      dup2\n      swap1\n      sstore\n      pop\n        /* \"contracts/KipuBank.sol\":12377:12387  msg.sender */\n      caller\n        /* \"contracts/KipuBank.sol\":12347:12399  KipuBank_SuccessfulWithdrawal(msg.sender, amountUSD) */\n      0xffffffffffffffffffffffffffffffffffffffff\n      and\n      0x1ff21e81cff87fccbac096ad565f52cb1b358db04a736a6a137cceb4a287a702\n        /* \"contracts/KipuBank.sol\":12389:12398  amountUSD */\n      dup3\n        /* \"contracts/KipuBank.sol\":12347:12399  KipuBank_SuccessfulWithdrawal(msg.sender, amountUSD) */\n      mload(0x40)\n      tag_421\n      swap2\n      swap1\n      tag_57\n      jump\t// in\n    tag_421:\n      mload(0x40)\n      dup1\n      swap2\n      sub\n      swap1\n      log2\n        /* \"contracts/KipuBank.sol\":12411:12423  bool success */\n      0x00\n        /* \"contracts/KipuBank.sol\":12437:12447  msg.sender */\n      caller\n        /* \"contracts/KipuBank.sol\":12429:12453  payable(msg.sender).call */\n      0xffffffffffffffffffffffffffffffffffffffff\n      and\n        /* \"contracts/KipuBank.sol\":12461:12468  _amount */\n      dup6\n        /* \"contracts/KipuBank.sol\":12429:12473  payable(msg.sender).call{value: _amount}(\"\") */\n      mload(0x40)\n      tag_422\n      swap1\n      tag_423\n      jump\t// in\n    tag_422:\n      0x00\n      mload(0x40)\n      dup1\n      dup4\n      sub\n      dup2\n      dup6\n      dup8\n      gas\n      call\n      swap3\n      pop\n      pop\n      pop\n      returndatasize\n      dup1\n      0x00\n      dup2\n      eq\n      tag_426\n      jumpi\n      mload(0x40)\n      swap2\n      pop\n      and(add(returndatasize, 0x3f), not(0x1f))\n      dup3\n      add\n      0x40\n      mstore\n      returndatasize\n      dup3\n      mstore\n      returndatasize\n      0x00\n      0x20\n      dup5\n      add\n      returndatacopy\n      jump(tag_425)\n    tag_426:\n      0x60\n      swap2\n      pop\n    tag_425:\n      pop\n        /* \"contracts/KipuBank.sol\":12410:12473  (bool success, ) = payable(msg.sender).call{value: _amount}(\"\") */\n      pop\n      swap1\n      pop\n        /* \"contracts/KipuBank.sol\":12488:12495  success */\n      dup1\n        /* \"contracts/KipuBank.sol\":12483:12550  if (!success) revert KipuBank_RejectedWithdraw(msg.sender, _amount) */\n      tag_427\n      jumpi\n        /* \"contracts/KipuBank.sol\":12530:12540  msg.sender */\n      caller\n        /* \"contracts/KipuBank.sol\":12542:12549  _amount */\n      dup6\n        /* \"contracts/KipuBank.sol\":12504:12550  KipuBank_RejectedWithdraw(msg.sender, _amount) */\n      mload(0x40)\n      0x6166243700000000000000000000000000000000000000000000000000000000\n      dup2\n      mstore\n      0x04\n      add\n      tag_428\n      swap3\n      swap2\n      swap1\n      tag_396\n      jump\t// in\n    tag_428:\n      mload(0x40)\n      dup1\n      swap2\n      sub\n      swap1\n      revert\n        /* \"contracts/KipuBank.sol\":12483:12550  if (!success) revert KipuBank_RejectedWithdraw(msg.sender, _amount) */\n    tag_427:\n        /* \"contracts/KipuBank.sol\":12155:12557  {... */\n      pop\n      pop\n        /* \"contracts/KipuBank.sol\":10076:10412  {... */\n      pop\n        /* \"@openzeppelin/contracts/security/ReentrancyGuard.sol\":2292:2293  _ */\n      pop\n        /* \"@openzeppelin/contracts/security/ReentrancyGuard.sol\":2303:2323  _nonReentrantAfter() */\n      tag_429\n        /* \"@openzeppelin/contracts/security/ReentrancyGuard.sol\":2303:2321  _nonReentrantAfter */\n      tag_405\n        /* \"@openzeppelin/contracts/security/ReentrancyGuard.sol\":2303:2323  _nonReentrantAfter() */\n      jump\t// in\n    tag_429:\n        /* \"contracts/KipuBank.sol\":12071:12557  function _withdrawETH(uint _amount) private nonReentrant verifyEthWithdraw(_amount) {... */\n      pop\n      jump\t// out\n        /* \"contracts/KipuBank.sol\":13914:14220  function _depositETH(address _holder, uint _amountUSD, uint _amountETH) private verifyEthDeposit(_amountUSD, _amountETH) {... */\n    tag_323:\n        /* \"contracts/KipuBank.sol\":14011:14021  _amountUSD */\n      dup2\n        /* \"contracts/KipuBank.sol\":14023:14033  _amountETH */\n      dup2\n        /* \"contracts/KipuBank.sol\":2349:2355  1 gwei */\n      0x3b9aca00\n        /* \"contracts/KipuBank.sol\":9294:9304  _amountETH */\n      dup2\n        /* \"contracts/KipuBank.sol\":9294:9318  _amountETH < MIN_DEPOSIT */\n      lt\n        /* \"contracts/KipuBank.sol\":9291:9366  if(_amountETH < MIN_DEPOSIT) revert KipuBank_LowerMinimumAmount(_amountETH) */\n      iszero\n      tag_431\n      jumpi\n        /* \"contracts/KipuBank.sol\":9355:9365  _amountETH */\n      dup1\n        /* \"contracts/KipuBank.sol\":9327:9366  KipuBank_LowerMinimumAmount(_amountETH) */\n      mload(0x40)\n      0xd3c36e3a00000000000000000000000000000000000000000000000000000000\n      dup2\n      mstore\n      0x04\n      add\n      tag_432\n      swap2\n      swap1\n      tag_57\n      jump\t// in\n    tag_432:\n      mload(0x40)\n      dup1\n      swap2\n      sub\n      swap1\n      revert\n        /* \"contracts/KipuBank.sol\":9291:9366  if(_amountETH < MIN_DEPOSIT) revert KipuBank_LowerMinimumAmount(_amountETH) */\n    tag_431:\n        /* \"contracts/KipuBank.sol\":9393:9394  0 */\n      0x00\n        /* \"contracts/KipuBank.sol\":9379:9389  _amountUSD */\n      dup3\n        /* \"contracts/KipuBank.sol\":9379:9394  _amountUSD == 0 */\n      sub\n        /* \"contracts/KipuBank.sol\":9376:9434  if(_amountUSD == 0) revert KipuBank_ZeroAmount(msg.sender) */\n      tag_433\n      jumpi\n        /* \"contracts/KipuBank.sol\":9423:9433  msg.sender */\n      caller\n        /* \"contracts/KipuBank.sol\":9403:9434  KipuBank_ZeroAmount(msg.sender) */\n      mload(0x40)\n      0x1b8b1c9100000000000000000000000000000000000000000000000000000000\n      dup2\n      mstore\n      0x04\n      add\n      tag_434\n      swap2\n      swap1\n      tag_42\n      jump\t// in\n    tag_434:\n      mload(0x40)\n      dup1\n      swap2\n      sub\n      swap1\n      revert\n        /* \"contracts/KipuBank.sol\":9376:9434  if(_amountUSD == 0) revert KipuBank_ZeroAmount(msg.sender) */\n    tag_433:\n        /* \"contracts/KipuBank.sol\":9478:9487  i_bankCap */\n      immutable(\"0x56af87718ac6246bac727726c33ea64d0935502347b4fd185bbadeb5f3fb92bd\")\n        /* \"contracts/KipuBank.sol\":9460:9475  s_totalContract */\n      sload(0x04)\n        /* \"contracts/KipuBank.sol\":9447:9457  _amountUSD */\n      dup4\n        /* \"contracts/KipuBank.sol\":9447:9475  _amountUSD + s_totalContract */\n      tag_435\n      swap2\n      swap1\n      tag_209\n      jump\t// in\n    tag_435:\n        /* \"contracts/KipuBank.sol\":9447:9487  _amountUSD + s_totalContract > i_bankCap */\n      gt\n        /* \"contracts/KipuBank.sol\":9444:9530  if(_amountUSD + s_totalContract > i_bankCap) revert KipuBank_ExceededLimit(_amountUSD) */\n      iszero\n      tag_436\n      jumpi\n        /* \"contracts/KipuBank.sol\":9519:9529  _amountUSD */\n      dup2\n        /* \"contracts/KipuBank.sol\":9496:9530  KipuBank_ExceededLimit(_amountUSD) */\n      mload(0x40)\n      0xf367fd7300000000000000000000000000000000000000000000000000000000\n      dup2\n      mstore\n      0x04\n      add\n      tag_437\n      swap2\n      swap1\n      tag_57\n      jump\t// in\n    tag_437:\n      mload(0x40)\n      dup1\n      swap2\n      sub\n      swap1\n      revert\n        /* \"contracts/KipuBank.sol\":9444:9530  if(_amountUSD + s_totalContract > i_bankCap) revert KipuBank_ExceededLimit(_amountUSD) */\n    tag_436:\n        /* \"contracts/KipuBank.sol\":14080:14090  _amountETH */\n      dup3\n        /* \"contracts/KipuBank.sol\":14045:14055  s_balances */\n      0x06\n        /* \"contracts/KipuBank.sol\":14045:14067  s_balances[address(0)] */\n      0x00\n        /* \"contracts/KipuBank.sol\":14064:14065  0 */\n      0x00\n        /* \"contracts/KipuBank.sol\":14045:14067  s_balances[address(0)] */\n      0xffffffffffffffffffffffffffffffffffffffff\n      and\n      0xffffffffffffffffffffffffffffffffffffffff\n      and\n      dup2\n      mstore\n      0x20\n      add\n      swap1\n      dup2\n      mstore\n      0x20\n      add\n      0x00\n      keccak256\n        /* \"contracts/KipuBank.sol\":14045:14076  s_balances[address(0)][_holder] */\n      0x00\n        /* \"contracts/KipuBank.sol\":14068:14075  _holder */\n      dup8\n        /* \"contracts/KipuBank.sol\":14045:14076  s_balances[address(0)][_holder] */\n      0xffffffffffffffffffffffffffffffffffffffff\n      and\n      0xffffffffffffffffffffffffffffffffffffffff\n      and\n      dup2\n      mstore\n      0x20\n      add\n      swap1\n      dup2\n      mstore\n      0x20\n      add\n      0x00\n      keccak256\n      0x00\n        /* \"contracts/KipuBank.sol\":14045:14090  s_balances[address(0)][_holder] += _amountETH */\n      dup3\n      dup3\n      sload\n      tag_439\n      swap2\n      swap1\n      tag_209\n      jump\t// in\n    tag_439:\n      swap3\n      pop\n      pop\n      dup2\n      swap1\n      sstore\n      pop\n        /* \"contracts/KipuBank.sol\":14100:14110  s_deposits */\n      0x05\n      0x00\n        /* \"contracts/KipuBank.sol\":14100:14112  s_deposits++ */\n      dup2\n      dup2\n      swap1\n      sload\n      swap1\n      0x0100\n      exp\n      swap1\n      div\n      0xffffffffffffffffffffffffffffffff\n      and\n      dup1\n      swap3\n      swap2\n      swap1\n      tag_440\n      swap1\n      tag_225\n      jump\t// in\n    tag_440:\n      swap2\n      swap1\n      0x0100\n      exp\n      dup2\n      sload\n      dup2\n      0xffffffffffffffffffffffffffffffff\n      mul\n      not\n      and\n      swap1\n      dup4\n      0xffffffffffffffffffffffffffffffff\n      and\n      mul\n      or\n      swap1\n      sstore\n      pop\n      pop\n        /* \"contracts/KipuBank.sol\":14141:14151  _amountUSD */\n      dup4\n        /* \"contracts/KipuBank.sol\":14122:14137  s_totalContract */\n      0x04\n      0x00\n        /* \"contracts/KipuBank.sol\":14122:14151  s_totalContract += _amountUSD */\n      dup3\n      dup3\n      sload\n      tag_441\n      swap2\n      swap1\n      tag_209\n      jump\t// in\n    tag_441:\n      swap3\n      pop\n      pop\n      dup2\n      swap1\n      sstore\n      pop\n        /* \"contracts/KipuBank.sol\":14193:14200  _holder */\n      dup5\n        /* \"contracts/KipuBank.sol\":14166:14213  KipuBank_SuccessfulDeposit(_holder, _amountUSD) */\n      0xffffffffffffffffffffffffffffffffffffffff\n      and\n      0x7b7cd0ddbbea241880e825e1eb51c30752cb96dd7efeb4be691ec55dfa4d8963\n        /* \"contracts/KipuBank.sol\":14202:14212  _amountUSD */\n      dup6\n        /* \"contracts/KipuBank.sol\":14166:14213  KipuBank_SuccessfulDeposit(_holder, _amountUSD) */\n      mload(0x40)\n      tag_442\n      swap2\n      swap1\n      tag_57\n      jump\t// in\n    tag_442:\n      mload(0x40)\n      dup1\n      swap2\n      sub\n      swap1\n      log2\n        /* \"contracts/KipuBank.sol\":13914:14220  function _depositETH(address _holder, uint _amountUSD, uint _amountETH) private verifyEthDeposit(_amountUSD, _amountETH) {... */\n      pop\n      pop\n      pop\n      pop\n      pop\n      jump\t// out\n        /* \"@openzeppelin/contracts/utils/introspection/ERC165.sol\":730:876  function supportsInterface(bytes4 interfaceId) public view virtual returns (bool) {... */\n    tag_328:\n        /* \"@openzeppelin/contracts/utils/introspection/ERC165.sol\":806:810  bool */\n      0x00\n        /* \"@openzeppelin/contracts/utils/introspection/ERC165.sol\":844:869  type(IERC165).interfaceId */\n      0x01ffc9a700000000000000000000000000000000000000000000000000000000\n        /* \"@openzeppelin/contracts/utils/introspection/ERC165.sol\":829:869  interfaceId == type(IERC165).interfaceId */\n      not(0xffffffffffffffffffffffffffffffffffffffffffffffffffffffff)\n      and\n        /* \"@openzeppelin/contracts/utils/introspection/ERC165.sol\":829:840  interfaceId */\n      dup3\n        /* \"@openzeppelin/contracts/utils/introspection/ERC165.sol\":829:869  interfaceId == type(IERC165).interfaceId */\n      not(0xffffffffffffffffffffffffffffffffffffffffffffffffffffffff)\n      and\n      eq\n        /* \"@openzeppelin/contracts/utils/introspection/ERC165.sol\":822:869  return interfaceId == type(IERC165).interfaceId */\n      swap1\n      pop\n        /* \"@openzeppelin/contracts/utils/introspection/ERC165.sol\":730:876  function supportsInterface(bytes4 interfaceId) public view virtual returns (bool) {... */\n      swap2\n      swap1\n      pop\n      jump\t// out\n        /* \"@openzeppelin/contracts/access/AccessControl.sol\":3175:3278  function _checkRole(bytes32 role) internal view virtual {... */\n    tag_338:\n        /* \"@openzeppelin/contracts/access/AccessControl.sol\":3241:3271  _checkRole(role, _msgSender()) */\n      tag_445\n        /* \"@openzeppelin/contracts/access/AccessControl.sol\":3252:3256  role */\n      dup2\n        /* \"@openzeppelin/contracts/access/AccessControl.sol\":3258:3270  _msgSender() */\n      tag_446\n        /* \"@openzeppelin/contracts/access/AccessControl.sol\":3258:3268  _msgSender */\n      tag_186\n        /* \"@openzeppelin/contracts/access/AccessControl.sol\":3258:3270  _msgSender() */\n      jump\t// in\n    tag_446:\n        /* \"@openzeppelin/contracts/access/AccessControl.sol\":3241:3251  _checkRole */\n      tag_447\n        /* \"@openzeppelin/contracts/access/AccessControl.sol\":3241:3271  _checkRole(role, _msgSender()) */\n      jump\t// in\n    tag_445:\n        /* \"@openzeppelin/contracts/access/AccessControl.sol\":3175:3278  function _checkRole(bytes32 role) internal view virtual {... */\n      pop\n      jump\t// out\n        /* \"@openzeppelin/contracts/token/ERC20/utils/SafeERC20.sol\":8370:9090  function _callOptionalReturn(IERC20 token, bytes memory data) private {... */\n    tag_359:\n        /* \"@openzeppelin/contracts/token/ERC20/utils/SafeERC20.sol\":8450:8468  uint256 returnSize */\n      0x00\n        /* \"@openzeppelin/contracts/token/ERC20/utils/SafeERC20.sol\":8478:8497  uint256 returnValue */\n      0x00\n        /* \"@openzeppelin/contracts/token/ERC20/utils/SafeERC20.sol\":8616:8620  0x20 */\n      0x20\n        /* \"@openzeppelin/contracts/token/ERC20/utils/SafeERC20.sol\":8613:8614  0 */\n      0x00\n        /* \"@openzeppelin/contracts/token/ERC20/utils/SafeERC20.sol\":8606:8610  data */\n      dup5\n        /* \"@openzeppelin/contracts/token/ERC20/utils/SafeERC20.sol\":8600:8611  mload(data) */\n      mload\n        /* \"@openzeppelin/contracts/token/ERC20/utils/SafeERC20.sol\":8593:8597  0x20 */\n      0x20\n        /* \"@openzeppelin/contracts/token/ERC20/utils/SafeERC20.sol\":8587:8591  data */\n      dup7\n        /* \"@openzeppelin/contracts/token/ERC20/utils/SafeERC20.sol\":8583:8598  add(data, 0x20) */\n      add\n        /* \"@openzeppelin/contracts/token/ERC20/utils/SafeERC20.sol\":8580:8581  0 */\n      0x00\n        /* \"@openzeppelin/contracts/token/ERC20/utils/SafeERC20.sol\":8573:8578  token */\n      dup9\n        /* \"@openzeppelin/contracts/token/ERC20/utils/SafeERC20.sol\":8566:8571  gas() */\n      gas\n        /* \"@openzeppelin/contracts/token/ERC20/utils/SafeERC20.sol\":8561:8621  call(gas(), token, 0, add(data, 0x20), mload(data), 0, 0x20) */\n      call\n        /* \"@openzeppelin/contracts/token/ERC20/utils/SafeERC20.sol\":8673:8680  success */\n      dup1\n        /* \"@openzeppelin/contracts/token/ERC20/utils/SafeERC20.sol\":8663:8839  if iszero(success) {... */\n      tag_449\n      jumpi\n        /* \"@openzeppelin/contracts/token/ERC20/utils/SafeERC20.sol\":8717:8721  0x40 */\n      0x40\n        /* \"@openzeppelin/contracts/token/ERC20/utils/SafeERC20.sol\":8711:8722  mload(0x40) */\n      mload\n        /* \"@openzeppelin/contracts/token/ERC20/utils/SafeERC20.sol\":8762:8778  returndatasize() */\n      returndatasize\n        /* \"@openzeppelin/contracts/token/ERC20/utils/SafeERC20.sol\":8759:8760  0 */\n      0x00\n        /* \"@openzeppelin/contracts/token/ERC20/utils/SafeERC20.sol\":8754:8757  ptr */\n      dup3\n        /* \"@openzeppelin/contracts/token/ERC20/utils/SafeERC20.sol\":8739:8779  returndatacopy(ptr, 0, returndatasize()) */\n      returndatacopy\n        /* \"@openzeppelin/contracts/token/ERC20/utils/SafeERC20.sol\":8808:8824  returndatasize() */\n      returndatasize\n        /* \"@openzeppelin/contracts/token/ERC20/utils/SafeERC20.sol\":8803:8806  ptr */\n      dup2\n        /* \"@openzeppelin/contracts/token/ERC20/utils/SafeERC20.sol\":8796:8825  revert(ptr, returndatasize()) */\n      revert\n        /* \"@openzeppelin/contracts/token/ERC20/utils/SafeERC20.sol\":8663:8839  if iszero(success) {... */\n    tag_449:\n        /* \"@openzeppelin/contracts/token/ERC20/utils/SafeERC20.sol\":8866:8882  returndatasize() */\n      returndatasize\n        /* \"@openzeppelin/contracts/token/ERC20/utils/SafeERC20.sol\":8852:8882  returnSize := returndatasize() */\n      swap3\n      pop\n        /* \"@openzeppelin/contracts/token/ERC20/utils/SafeERC20.sol\":8916:8917  0 */\n      0x00\n        /* \"@openzeppelin/contracts/token/ERC20/utils/SafeERC20.sol\":8910:8918  mload(0) */\n      mload\n        /* \"@openzeppelin/contracts/token/ERC20/utils/SafeERC20.sol\":8895:8918  returnValue := mload(0) */\n      swap2\n      pop\n        /* \"@openzeppelin/contracts/token/ERC20/utils/SafeERC20.sol\":8532:8928  {... */\n      pop\n        /* \"@openzeppelin/contracts/token/ERC20/utils/SafeERC20.sol\":8956:8957  0 */\n      0x00\n        /* \"@openzeppelin/contracts/token/ERC20/utils/SafeERC20.sol\":8942:8952  returnSize */\n      dup3\n        /* \"@openzeppelin/contracts/token/ERC20/utils/SafeERC20.sol\":8942:8957  returnSize == 0 */\n      eq\n        /* \"@openzeppelin/contracts/token/ERC20/utils/SafeERC20.sol\":8942:9010  returnSize == 0 ? address(token).code.length == 0 : returnValue != 1 */\n      tag_450\n      jumpi\n        /* \"@openzeppelin/contracts/token/ERC20/utils/SafeERC20.sol\":9009:9010  1 */\n      0x01\n        /* \"@openzeppelin/contracts/token/ERC20/utils/SafeERC20.sol\":8994:9005  returnValue */\n      dup2\n        /* \"@openzeppelin/contracts/token/ERC20/utils/SafeERC20.sol\":8994:9010  returnValue != 1 */\n      eq\n      iszero\n        /* \"@openzeppelin/contracts/token/ERC20/utils/SafeERC20.sol\":8942:9010  returnSize == 0 ? address(token).code.length == 0 : returnValue != 1 */\n      jump(tag_451)\n    tag_450:\n        /* \"@openzeppelin/contracts/token/ERC20/utils/SafeERC20.sol\":8990:8991  0 */\n      0x00\n        /* \"@openzeppelin/contracts/token/ERC20/utils/SafeERC20.sol\":8968:8973  token */\n      dup5\n        /* \"@openzeppelin/contracts/token/ERC20/utils/SafeERC20.sol\":8960:8986  address(token).code.length */\n      0xffffffffffffffffffffffffffffffffffffffff\n      and\n      extcodesize\n        /* \"@openzeppelin/contracts/token/ERC20/utils/SafeERC20.sol\":8960:8991  address(token).code.length == 0 */\n      eq\n        /* \"@openzeppelin/contracts/token/ERC20/utils/SafeERC20.sol\":8942:9010  returnSize == 0 ? address(token).code.length == 0 : returnValue != 1 */\n    tag_451:\n        /* \"@openzeppelin/contracts/token/ERC20/utils/SafeERC20.sol\":8938:9084  if (returnSize == 0 ? address(token).code.length == 0 : returnValue != 1) {... */\n      iszero\n      tag_452\n      jumpi\n        /* \"@openzeppelin/contracts/token/ERC20/utils/SafeERC20.sol\":9066:9071  token */\n      dup4\n        /* \"@openzeppelin/contracts/token/ERC20/utils/SafeERC20.sol\":9033:9073  SafeERC20FailedOperation(address(token)) */\n      mload(0x40)\n      0x5274afe700000000000000000000000000000000000000000000000000000000\n      dup2\n      mstore\n      0x04\n      add\n      tag_453\n      swap2\n      swap1\n      tag_42\n      jump\t// in\n    tag_453:\n      mload(0x40)\n      dup1\n      swap2\n      sub\n      swap1\n      revert\n        /* \"@openzeppelin/contracts/token/ERC20/utils/SafeERC20.sol\":8938:9084  if (returnSize == 0 ? address(token).code.length == 0 : returnValue != 1) {... */\n    tag_452:\n        /* \"@openzeppelin/contracts/token/ERC20/utils/SafeERC20.sol\":8440:9090  {... */\n      pop\n      pop\n        /* \"@openzeppelin/contracts/token/ERC20/utils/SafeERC20.sol\":8370:9090  function _callOptionalReturn(IERC20 token, bytes memory data) private {... */\n      pop\n      pop\n      jump\t// out\n        /* \"contracts/KipuBank.sol\":11066:11439  function chainLinkFeeds() internal view returns(uint priceUSD_) {... */\n    tag_371:\n        /* \"contracts/KipuBank.sol\":11114:11128  uint priceUSD_ */\n      0x00\n        /* \"contracts/KipuBank.sol\":11143:11161  int256 ethUSDPrice */\n      0x00\n        /* \"contracts/KipuBank.sol\":11164:11180  uint256 updateAt */\n      0x00\n        /* \"contracts/KipuBank.sol\":11185:11191  s_feed */\n      0x03\n      0x00\n      swap1\n      sload\n      swap1\n      0x0100\n      exp\n      swap1\n      div\n      0xffffffffffffffffffffffffffffffffffffffff\n      and\n        /* \"contracts/KipuBank.sol\":11185:11207  s_feed.latestRoundData */\n      0xffffffffffffffffffffffffffffffffffffffff\n      and\n      0xfeaf968c\n        /* \"contracts/KipuBank.sol\":11185:11209  s_feed.latestRoundData() */\n      mload(0x40)\n      dup2\n      0xffffffff\n      and\n      0xe0\n      shl\n      dup2\n      mstore\n      0x04\n      add\n      0xa0\n      mload(0x40)\n      dup1\n      dup4\n      sub\n      dup2\n      dup7\n      gas\n      staticcall\n      iszero\n      dup1\n      iszero\n      tag_456\n      jumpi\n      returndatacopy(0x00, 0x00, returndatasize)\n      revert(0x00, returndatasize)\n    tag_456:\n      pop\n      pop\n      pop\n      pop\n      mload(0x40)\n      returndatasize\n      not(0x1f)\n      0x1f\n      dup3\n      add\n      and\n      dup3\n      add\n      dup1\n      0x40\n      mstore\n      pop\n      dup2\n      add\n      swap1\n      tag_457\n      swap2\n      swap1\n      tag_248\n      jump\t// in\n    tag_457:\n        /* \"contracts/KipuBank.sol\":11140:11209  (, int256 ethUSDPrice,, uint256 updateAt,) = s_feed.latestRoundData() */\n      pop\n      swap4\n      pop\n      pop\n      swap3\n      pop\n      pop\n        /* \"contracts/KipuBank.sol\":11238:11239  0 */\n      0x00\n        /* \"contracts/KipuBank.sol\":11223:11234  ethUSDPrice */\n      dup3\n        /* \"contracts/KipuBank.sol\":11223:11239  ethUSDPrice <= 0 */\n      sgt\n        /* \"contracts/KipuBank.sol\":11219:11291  if( ethUSDPrice <= 0) revert KipuBank_CommittedOracle(uint(ethUSDPrice)) */\n      tag_458\n      jumpi\n        /* \"contracts/KipuBank.sol\":11278:11289  ethUSDPrice */\n      dup2\n        /* \"contracts/KipuBank.sol\":11248:11291  KipuBank_CommittedOracle(uint(ethUSDPrice)) */\n      mload(0x40)\n      0xfe73737600000000000000000000000000000000000000000000000000000000\n      dup2\n      mstore\n      0x04\n      add\n      tag_459\n      swap2\n      swap1\n      tag_57\n      jump\t// in\n    tag_459:\n      mload(0x40)\n      dup1\n      swap2\n      sub\n      swap1\n      revert\n        /* \"contracts/KipuBank.sol\":11219:11291  if( ethUSDPrice <= 0) revert KipuBank_CommittedOracle(uint(ethUSDPrice)) */\n    tag_458:\n        /* \"contracts/KipuBank.sol\":1626:1630  3600 */\n      0x0e10\n        /* \"contracts/KipuBank.sol\":11304:11342  block.timestamp - updateAt > HEARTBEAT */\n      0xffff\n      and\n        /* \"contracts/KipuBank.sol\":11322:11330  updateAt */\n      dup2\n        /* \"contracts/KipuBank.sol\":11304:11319  block.timestamp */\n      timestamp\n        /* \"contracts/KipuBank.sol\":11304:11330  block.timestamp - updateAt */\n      tag_460\n      swap2\n      swap1\n      tag_258\n      jump\t// in\n    tag_460:\n        /* \"contracts/KipuBank.sol\":11304:11342  block.timestamp - updateAt > HEARTBEAT */\n      gt\n        /* \"contracts/KipuBank.sol\":11301:11392  if(block.timestamp - updateAt > HEARTBEAT) revert KipuBank_OutdatedPrice(uint(ethUSDPrice)) */\n      iszero\n      tag_461\n      jumpi\n        /* \"contracts/KipuBank.sol\":11379:11390  ethUSDPrice */\n      dup2\n        /* \"contracts/KipuBank.sol\":11351:11392  KipuBank_OutdatedPrice(uint(ethUSDPrice)) */\n      mload(0x40)\n      0x02f8429d00000000000000000000000000000000000000000000000000000000\n      dup2\n      mstore\n      0x04\n      add\n      tag_462\n      swap2\n      swap1\n      tag_57\n      jump\t// in\n    tag_462:\n      mload(0x40)\n      dup1\n      swap2\n      sub\n      swap1\n      revert\n        /* \"contracts/KipuBank.sol\":11301:11392  if(block.timestamp - updateAt > HEARTBEAT) revert KipuBank_OutdatedPrice(uint(ethUSDPrice)) */\n    tag_461:\n        /* \"contracts/KipuBank.sol\":11420:11431  ethUSDPrice */\n      dup2\n        /* \"contracts/KipuBank.sol\":11403:11432  priceUSD_ = uint(ethUSDPrice) */\n      swap3\n      pop\n        /* \"contracts/KipuBank.sol\":11130:11439  {... */\n      pop\n      pop\n        /* \"contracts/KipuBank.sol\":11066:11439  function chainLinkFeeds() internal view returns(uint priceUSD_) {... */\n      swap1\n      jump\t// out\n        /* \"@openzeppelin/contracts/security/ReentrancyGuard.sol\":2336:2623  function _nonReentrantBefore() private {... */\n    tag_388:\n        /* \"@openzeppelin/contracts/security/ReentrancyGuard.sol\":1759:1760  2 */\n      0x02\n        /* \"@openzeppelin/contracts/security/ReentrancyGuard.sol\":2468:2475  _status */\n      sload(0x00)\n        /* \"@openzeppelin/contracts/security/ReentrancyGuard.sol\":2468:2487  _status != _ENTERED */\n      sub\n        /* \"@openzeppelin/contracts/security/ReentrancyGuard.sol\":2460:2523  require(_status != _ENTERED, \"ReentrancyGuard: reentrant call\") */\n      tag_464\n      jumpi\n      mload(0x40)\n      0x08c379a000000000000000000000000000000000000000000000000000000000\n      dup2\n      mstore\n      0x04\n      add\n      tag_465\n      swap1\n      tag_466\n      jump\t// in\n    tag_465:\n      mload(0x40)\n      dup1\n      swap2\n      sub\n      swap1\n      revert\n    tag_464:\n        /* \"@openzeppelin/contracts/security/ReentrancyGuard.sol\":1759:1760  2 */\n      0x02\n        /* \"@openzeppelin/contracts/security/ReentrancyGuard.sol\":2598:2605  _status */\n      0x00\n        /* \"@openzeppelin/contracts/security/ReentrancyGuard.sol\":2598:2616  _status = _ENTERED */\n      dup2\n      swap1\n      sstore\n      pop\n        /* \"@openzeppelin/contracts/security/ReentrancyGuard.sol\":2336:2623  function _nonReentrantBefore() private {... */\n      jump\t// out\n        /* \"@openzeppelin/contracts/token/ERC20/utils/SafeERC20.sol\":1219:1379  function safeTransfer(IERC20 token, address to, uint256 value) internal {... */\n    tag_403:\n        /* \"@openzeppelin/contracts/token/ERC20/utils/SafeERC20.sol\":1301:1372  _callOptionalReturn(token, abi.encodeCall(token.transfer, (to, value))) */\n      tag_468\n        /* \"@openzeppelin/contracts/token/ERC20/utils/SafeERC20.sol\":1321:1326  token */\n      dup4\n        /* \"@openzeppelin/contracts/token/ERC20/utils/SafeERC20.sol\":1343:1348  token */\n      dup5\n        /* \"@openzeppelin/contracts/token/ERC20/utils/SafeERC20.sol\":1343:1357  token.transfer */\n      0xffffffffffffffffffffffffffffffffffffffff\n      and\n      0xa9059cbb\n        /* \"@openzeppelin/contracts/token/ERC20/utils/SafeERC20.sol\":1360:1362  to */\n      dup6\n        /* \"@openzeppelin/contracts/token/ERC20/utils/SafeERC20.sol\":1364:1369  value */\n      dup6\n        /* \"@openzeppelin/contracts/token/ERC20/utils/SafeERC20.sol\":1328:1371  abi.encodeCall(token.transfer, (to, value)) */\n      add(0x24, mload(0x40))\n      tag_469\n      swap3\n      swap2\n      swap1\n      tag_396\n      jump\t// in\n    tag_469:\n      mload(0x40)\n      0x20\n      dup2\n      dup4\n      sub\n      sub\n      dup2\n      mstore\n      swap1\n      0x40\n      mstore\n      swap2\n      pop\n      0xe0\n      shl\n      0x20\n      dup3\n      add\n      dup1\n      mload\n      0xffffffffffffffffffffffffffffffffffffffffffffffffffffffff\n      dup4\n      dup2\n      dup4\n      and\n      or\n      dup4\n      mstore\n      pop\n      pop\n      pop\n      pop\n        /* \"@openzeppelin/contracts/token/ERC20/utils/SafeERC20.sol\":1301:1320  _callOptionalReturn */\n      tag_359\n        /* \"@openzeppelin/contracts/token/ERC20/utils/SafeERC20.sol\":1301:1372  _callOptionalReturn(token, abi.encodeCall(token.transfer, (to, value))) */\n      jump\t// in\n    tag_468:\n        /* \"@openzeppelin/contracts/token/ERC20/utils/SafeERC20.sol\":1219:1379  function safeTransfer(IERC20 token, address to, uint256 value) internal {... */\n      pop\n      pop\n      pop\n      jump\t// out\n        /* \"@openzeppelin/contracts/security/ReentrancyGuard.sol\":2629:2838  function _nonReentrantAfter() private {... */\n    tag_405:\n        /* \"@openzeppelin/contracts/security/ReentrancyGuard.sol\":1716:1717  1 */\n      0x01\n        /* \"@openzeppelin/contracts/security/ReentrancyGuard.sol\":2809:2816  _status */\n      0x00\n        /* \"@openzeppelin/contracts/security/ReentrancyGuard.sol\":2809:2831  _status = _NOT_ENTERED */\n      dup2\n      swap1\n      sstore\n      pop\n        /* \"@openzeppelin/contracts/security/ReentrancyGuard.sol\":2629:2838  function _nonReentrantAfter() private {... */\n      jump\t// out\n        /* \"@openzeppelin/contracts/access/AccessControl.sol\":3408:3605  function _checkRole(bytes32 role, address account) internal view virtual {... */\n    tag_447:\n        /* \"@openzeppelin/contracts/access/AccessControl.sol\":3496:3518  hasRole(role, account) */\n      tag_472\n        /* \"@openzeppelin/contracts/access/AccessControl.sol\":3504:3508  role */\n      dup3\n        /* \"@openzeppelin/contracts/access/AccessControl.sol\":3510:3517  account */\n      dup3\n        /* \"@openzeppelin/contracts/access/AccessControl.sol\":3496:3503  hasRole */\n      tag_110\n        /* \"@openzeppelin/contracts/access/AccessControl.sol\":3496:3518  hasRole(role, account) */\n      jump\t// in\n    tag_472:\n        /* \"@openzeppelin/contracts/access/AccessControl.sol\":3491:3599  if (!hasRole(role, account)) {... */\n      tag_473\n      jumpi\n        /* \"@openzeppelin/contracts/access/AccessControl.sol\":3574:3581  account */\n      dup1\n        /* \"@openzeppelin/contracts/access/AccessControl.sol\":3583:3587  role */\n      dup3\n        /* \"@openzeppelin/contracts/access/AccessControl.sol\":3541:3588  AccessControlUnauthorizedAccount(account, role) */\n      mload(0x40)\n      0xe2517d3f00000000000000000000000000000000000000000000000000000000\n      dup2\n      mstore\n      0x04\n      add\n      tag_474\n      swap3\n      swap2\n      swap1\n      tag_475\n      jump\t// in\n    tag_474:\n      mload(0x40)\n      dup1\n      swap2\n      sub\n      swap1\n      revert\n        /* \"@openzeppelin/contracts/access/AccessControl.sol\":3491:3599  if (!hasRole(role, account)) {... */\n    tag_473:\n        /* \"@openzeppelin/contracts/access/AccessControl.sol\":3408:3605  function _checkRole(bytes32 role, address account) internal view virtual {... */\n      pop\n      pop\n      jump\t// out\n        /* \"#utility.yul\":7:133   */\n    tag_476:\n        /* \"#utility.yul\":44:51   */\n      0x00\n        /* \"#utility.yul\":84:126   */\n      0xffffffffffffffffffffffffffffffffffffffff\n        /* \"#utility.yul\":77:82   */\n      dup3\n        /* \"#utility.yul\":73:127   */\n      and\n        /* \"#utility.yul\":62:127   */\n      swap1\n      pop\n        /* \"#utility.yul\":7:133   */\n      swap2\n      swap1\n      pop\n      jump\t// out\n        /* \"#utility.yul\":139:235   */\n    tag_477:\n        /* \"#utility.yul\":176:183   */\n      0x00\n        /* \"#utility.yul\":205:229   */\n      tag_521\n        /* \"#utility.yul\":223:228   */\n      dup3\n        /* \"#utility.yul\":205:229   */\n      tag_476\n      jump\t// in\n    tag_521:\n        /* \"#utility.yul\":194:229   */\n      swap1\n      pop\n        /* \"#utility.yul\":139:235   */\n      swap2\n      swap1\n      pop\n      jump\t// out\n        /* \"#utility.yul\":241:359   */\n    tag_478:\n        /* \"#utility.yul\":328:352   */\n      tag_523\n        /* \"#utility.yul\":346:351   */\n      dup2\n        /* \"#utility.yul\":328:352   */\n      tag_477\n      jump\t// in\n    tag_523:\n        /* \"#utility.yul\":323:326   */\n      dup3\n        /* \"#utility.yul\":316:353   */\n      mstore\n        /* \"#utility.yul\":241:359   */\n      pop\n      pop\n      jump\t// out\n        /* \"#utility.yul\":365:587   */\n    tag_42:\n        /* \"#utility.yul\":458:462   */\n      0x00\n        /* \"#utility.yul\":496:498   */\n      0x20\n        /* \"#utility.yul\":485:494   */\n      dup3\n        /* \"#utility.yul\":481:499   */\n      add\n        /* \"#utility.yul\":473:499   */\n      swap1\n      pop\n        /* \"#utility.yul\":509:580   */\n      tag_525\n        /* \"#utility.yul\":577:578   */\n      0x00\n        /* \"#utility.yul\":566:575   */\n      dup4\n        /* \"#utility.yul\":562:579   */\n      add\n        /* \"#utility.yul\":553:559   */\n      dup5\n        /* \"#utility.yul\":509:580   */\n      tag_478\n      jump\t// in\n    tag_525:\n        /* \"#utility.yul\":365:587   */\n      swap3\n      swap2\n      pop\n      pop\n      jump\t// out\n        /* \"#utility.yul\":674:791   */\n    tag_480:\n        /* \"#utility.yul\":783:784   */\n      0x00\n        /* \"#utility.yul\":780:781   */\n      0x00\n        /* \"#utility.yul\":773:785   */\n      revert\n        /* \"#utility.yul\":920:1069   */\n    tag_482:\n        /* \"#utility.yul\":956:963   */\n      0x00\n        /* \"#utility.yul\":996:1062   */\n      0xffffffff00000000000000000000000000000000000000000000000000000000\n        /* \"#utility.yul\":989:994   */\n      dup3\n        /* \"#utility.yul\":985:1063   */\n      and\n        /* \"#utility.yul\":974:1063   */\n      swap1\n      pop\n        /* \"#utility.yul\":920:1069   */\n      swap2\n      swap1\n      pop\n      jump\t// out\n        /* \"#utility.yul\":1075:1195   */\n    tag_483:\n        /* \"#utility.yul\":1147:1170   */\n      tag_531\n        /* \"#utility.yul\":1164:1169   */\n      dup2\n        /* \"#utility.yul\":1147:1170   */\n      tag_482\n      jump\t// in\n    tag_531:\n        /* \"#utility.yul\":1140:1145   */\n      dup2\n        /* \"#utility.yul\":1137:1171   */\n      eq\n        /* \"#utility.yul\":1127:1189   */\n      tag_532\n      jumpi\n        /* \"#utility.yul\":1185:1186   */\n      0x00\n        /* \"#utility.yul\":1182:1183   */\n      0x00\n        /* \"#utility.yul\":1175:1187   */\n      revert\n        /* \"#utility.yul\":1127:1189   */\n    tag_532:\n        /* \"#utility.yul\":1075:1195   */\n      pop\n      jump\t// out\n        /* \"#utility.yul\":1201:1338   */\n    tag_484:\n        /* \"#utility.yul\":1246:1251   */\n      0x00\n        /* \"#utility.yul\":1284:1290   */\n      dup2\n        /* \"#utility.yul\":1271:1291   */\n      calldataload\n        /* \"#utility.yul\":1262:1291   */\n      swap1\n      pop\n        /* \"#utility.yul\":1300:1332   */\n      tag_534\n        /* \"#utility.yul\":1326:1331   */\n      dup2\n        /* \"#utility.yul\":1300:1332   */\n      tag_483\n      jump\t// in\n    tag_534:\n        /* \"#utility.yul\":1201:1338   */\n      swap3\n      swap2\n      pop\n      pop\n      jump\t// out\n        /* \"#utility.yul\":1344:1671   */\n    tag_49:\n        /* \"#utility.yul\":1402:1408   */\n      0x00\n        /* \"#utility.yul\":1451:1453   */\n      0x20\n        /* \"#utility.yul\":1439:1448   */\n      dup3\n        /* \"#utility.yul\":1430:1437   */\n      dup5\n        /* \"#utility.yul\":1426:1449   */\n      sub\n        /* \"#utility.yul\":1422:1454   */\n      slt\n        /* \"#utility.yul\":1419:1538   */\n      iszero\n      tag_536\n      jumpi\n        /* \"#utility.yul\":1457:1536   */\n      tag_537\n      tag_480\n      jump\t// in\n    tag_537:\n        /* \"#utility.yul\":1419:1538   */\n    tag_536:\n        /* \"#utility.yul\":1577:1578   */\n      0x00\n        /* \"#utility.yul\":1602:1654   */\n      tag_538\n        /* \"#utility.yul\":1646:1653   */\n      dup5\n        /* \"#utility.yul\":1637:1643   */\n      dup3\n        /* \"#utility.yul\":1626:1635   */\n      dup6\n        /* \"#utility.yul\":1622:1644   */\n      add\n        /* \"#utility.yul\":1602:1654   */\n      tag_484\n      jump\t// in\n    tag_538:\n        /* \"#utility.yul\":1592:1654   */\n      swap2\n      pop\n        /* \"#utility.yul\":1548:1664   */\n      pop\n        /* \"#utility.yul\":1344:1671   */\n      swap3\n      swap2\n      pop\n      pop\n      jump\t// out\n        /* \"#utility.yul\":1677:1767   */\n    tag_485:\n        /* \"#utility.yul\":1711:1718   */\n      0x00\n        /* \"#utility.yul\":1754:1759   */\n      dup2\n        /* \"#utility.yul\":1747:1760   */\n      iszero\n        /* \"#utility.yul\":1740:1761   */\n      iszero\n        /* \"#utility.yul\":1729:1761   */\n      swap1\n      pop\n        /* \"#utility.yul\":1677:1767   */\n      swap2\n      swap1\n      pop\n      jump\t// out\n        /* \"#utility.yul\":1773:1882   */\n    tag_486:\n        /* \"#utility.yul\":1854:1875   */\n      tag_541\n        /* \"#utility.yul\":1869:1874   */\n      dup2\n        /* \"#utility.yul\":1854:1875   */\n      tag_485\n      jump\t// in\n    tag_541:\n        /* \"#utility.yul\":1849:1852   */\n      dup3\n        /* \"#utility.yul\":1842:1876   */\n      mstore\n        /* \"#utility.yul\":1773:1882   */\n      pop\n      pop\n      jump\t// out\n        /* \"#utility.yul\":1888:2098   */\n    tag_52:\n        /* \"#utility.yul\":1975:1979   */\n      0x00\n        /* \"#utility.yul\":2013:2015   */\n      0x20\n        /* \"#utility.yul\":2002:2011   */\n      dup3\n        /* \"#utility.yul\":1998:2016   */\n      add\n        /* \"#utility.yul\":1990:2016   */\n      swap1\n      pop\n        /* \"#utility.yul\":2026:2091   */\n      tag_543\n        /* \"#utility.yul\":2088:2089   */\n      0x00\n        /* \"#utility.yul\":2077:2086   */\n      dup4\n        /* \"#utility.yul\":2073:2090   */\n      add\n        /* \"#utility.yul\":2064:2070   */\n      dup5\n        /* \"#utility.yul\":2026:2091   */\n      tag_486\n      jump\t// in\n    tag_543:\n        /* \"#utility.yul\":1888:2098   */\n      swap3\n      swap2\n      pop\n      pop\n      jump\t// out\n        /* \"#utility.yul\":2104:2181   */\n    tag_487:\n        /* \"#utility.yul\":2141:2148   */\n      0x00\n        /* \"#utility.yul\":2170:2175   */\n      dup2\n        /* \"#utility.yul\":2159:2175   */\n      swap1\n      pop\n        /* \"#utility.yul\":2104:2181   */\n      swap2\n      swap1\n      pop\n      jump\t// out\n        /* \"#utility.yul\":2187:2305   */\n    tag_488:\n        /* \"#utility.yul\":2274:2298   */\n      tag_546\n        /* \"#utility.yul\":2292:2297   */\n      dup2\n        /* \"#utility.yul\":2274:2298   */\n      tag_487\n      jump\t// in\n    tag_546:\n        /* \"#utility.yul\":2269:2272   */\n      dup3\n        /* \"#utility.yul\":2262:2299   */\n      mstore\n        /* \"#utility.yul\":2187:2305   */\n      pop\n      pop\n      jump\t// out\n        /* \"#utility.yul\":2311:2533   */\n    tag_57:\n        /* \"#utility.yul\":2404:2408   */\n      0x00\n        /* \"#utility.yul\":2442:2444   */\n      0x20\n        /* \"#utility.yul\":2431:2440   */\n      dup3\n        /* \"#utility.yul\":2427:2445   */\n      add\n        /* \"#utility.yul\":2419:2445   */\n      swap1\n      pop\n        /* \"#utility.yul\":2455:2526   */\n      tag_548\n        /* \"#utility.yul\":2523:2524   */\n      0x00\n        /* \"#utility.yul\":2512:2521   */\n      dup4\n        /* \"#utility.yul\":2508:2525   */\n      add\n        /* \"#utility.yul\":2499:2505   */\n      dup5\n        /* \"#utility.yul\":2455:2526   */\n      tag_488\n      jump\t// in\n    tag_548:\n        /* \"#utility.yul\":2311:2533   */\n      swap3\n      swap2\n      pop\n      pop\n      jump\t// out\n        /* \"#utility.yul\":2539:2616   */\n    tag_489:\n        /* \"#utility.yul\":2576:2583   */\n      0x00\n        /* \"#utility.yul\":2605:2610   */\n      dup2\n        /* \"#utility.yul\":2594:2610   */\n      swap1\n      pop\n        /* \"#utility.yul\":2539:2616   */\n      swap2\n      swap1\n      pop\n      jump\t// out\n        /* \"#utility.yul\":2622:2744   */\n    tag_490:\n        /* \"#utility.yul\":2695:2719   */\n      tag_551\n        /* \"#utility.yul\":2713:2718   */\n      dup2\n        /* \"#utility.yul\":2695:2719   */\n      tag_489\n      jump\t// in\n    tag_551:\n        /* \"#utility.yul\":2688:2693   */\n      dup2\n        /* \"#utility.yul\":2685:2720   */\n      eq\n        /* \"#utility.yul\":2675:2738   */\n      tag_552\n      jumpi\n        /* \"#utility.yul\":2734:2735   */\n      0x00\n        /* \"#utility.yul\":2731:2732   */\n      0x00\n        /* \"#utility.yul\":2724:2736   */\n      revert\n        /* \"#utility.yul\":2675:2738   */\n    tag_552:\n        /* \"#utility.yul\":2622:2744   */\n      pop\n      jump\t// out\n        /* \"#utility.yul\":2750:2889   */\n    tag_491:\n        /* \"#utility.yul\":2796:2801   */\n      0x00\n        /* \"#utility.yul\":2834:2840   */\n      dup2\n        /* \"#utility.yul\":2821:2841   */\n      calldataload\n        /* \"#utility.yul\":2812:2841   */\n      swap1\n      pop\n        /* \"#utility.yul\":2850:2883   */\n      tag_554\n        /* \"#utility.yul\":2877:2882   */\n      dup2\n        /* \"#utility.yul\":2850:2883   */\n      tag_490\n      jump\t// in\n    tag_554:\n        /* \"#utility.yul\":2750:2889   */\n      swap3\n      swap2\n      pop\n      pop\n      jump\t// out\n        /* \"#utility.yul\":2895:3224   */\n    tag_61:\n        /* \"#utility.yul\":2954:2960   */\n      0x00\n        /* \"#utility.yul\":3003:3005   */\n      0x20\n        /* \"#utility.yul\":2991:3000   */\n      dup3\n        /* \"#utility.yul\":2982:2989   */\n      dup5\n        /* \"#utility.yul\":2978:3001   */\n      sub\n        /* \"#utility.yul\":2974:3006   */\n      slt\n        /* \"#utility.yul\":2971:3090   */\n      iszero\n      tag_556\n      jumpi\n        /* \"#utility.yul\":3009:3088   */\n      tag_557\n      tag_480\n      jump\t// in\n    tag_557:\n        /* \"#utility.yul\":2971:3090   */\n    tag_556:\n        /* \"#utility.yul\":3129:3130   */\n      0x00\n        /* \"#utility.yul\":3154:3207   */\n      tag_558\n        /* \"#utility.yul\":3199:3206   */\n      dup5\n        /* \"#utility.yul\":3190:3196   */\n      dup3\n        /* \"#utility.yul\":3179:3188   */\n      dup6\n        /* \"#utility.yul\":3175:3197   */\n      add\n        /* \"#utility.yul\":3154:3207   */\n      tag_491\n      jump\t// in\n    tag_558:\n        /* \"#utility.yul\":3144:3207   */\n      swap2\n      pop\n        /* \"#utility.yul\":3100:3217   */\n      pop\n        /* \"#utility.yul\":2895:3224   */\n      swap3\n      swap2\n      pop\n      pop\n      jump\t// out\n        /* \"#utility.yul\":3230:3348   */\n    tag_492:\n        /* \"#utility.yul\":3317:3341   */\n      tag_560\n        /* \"#utility.yul\":3335:3340   */\n      dup2\n        /* \"#utility.yul\":3317:3341   */\n      tag_489\n      jump\t// in\n    tag_560:\n        /* \"#utility.yul\":3312:3315   */\n      dup3\n        /* \"#utility.yul\":3305:3342   */\n      mstore\n        /* \"#utility.yul\":3230:3348   */\n      pop\n      pop\n      jump\t// out\n        /* \"#utility.yul\":3354:3576   */\n    tag_64:\n        /* \"#utility.yul\":3447:3451   */\n      0x00\n        /* \"#utility.yul\":3485:3487   */\n      0x20\n        /* \"#utility.yul\":3474:3483   */\n      dup3\n        /* \"#utility.yul\":3470:3488   */\n      add\n        /* \"#utility.yul\":3462:3488   */\n      swap1\n      pop\n        /* \"#utility.yul\":3498:3569   */\n      tag_562\n        /* \"#utility.yul\":3566:3567   */\n      0x00\n        /* \"#utility.yul\":3555:3564   */\n      dup4\n        /* \"#utility.yul\":3551:3568   */\n      add\n        /* \"#utility.yul\":3542:3548   */\n      dup5\n        /* \"#utility.yul\":3498:3569   */\n      tag_492\n      jump\t// in\n    tag_562:\n        /* \"#utility.yul\":3354:3576   */\n      swap3\n      swap2\n      pop\n      pop\n      jump\t// out\n        /* \"#utility.yul\":3582:3704   */\n    tag_493:\n        /* \"#utility.yul\":3655:3679   */\n      tag_564\n        /* \"#utility.yul\":3673:3678   */\n      dup2\n        /* \"#utility.yul\":3655:3679   */\n      tag_477\n      jump\t// in\n    tag_564:\n        /* \"#utility.yul\":3648:3653   */\n      dup2\n        /* \"#utility.yul\":3645:3680   */\n      eq\n        /* \"#utility.yul\":3635:3698   */\n      tag_565\n      jumpi\n        /* \"#utility.yul\":3694:3695   */\n      0x00\n        /* \"#utility.yul\":3691:3692   */\n      0x00\n        /* \"#utility.yul\":3684:3696   */\n      revert\n        /* \"#utility.yul\":3635:3698   */\n    tag_565:\n        /* \"#utility.yul\":3582:3704   */\n      pop\n      jump\t// out\n        /* \"#utility.yul\":3710:3849   */\n    tag_494:\n        /* \"#utility.yul\":3756:3761   */\n      0x00\n        /* \"#utility.yul\":3794:3800   */\n      dup2\n        /* \"#utility.yul\":3781:3801   */\n      calldataload\n        /* \"#utility.yul\":3772:3801   */\n      swap1\n      pop\n        /* \"#utility.yul\":3810:3843   */\n      tag_567\n        /* \"#utility.yul\":3837:3842   */\n      dup2\n        /* \"#utility.yul\":3810:3843   */\n      tag_493\n      jump\t// in\n    tag_567:\n        /* \"#utility.yul\":3710:3849   */\n      swap3\n      swap2\n      pop\n      pop\n      jump\t// out\n        /* \"#utility.yul\":3855:4329   */\n    tag_68:\n        /* \"#utility.yul\":3923:3929   */\n      0x00\n        /* \"#utility.yul\":3931:3937   */\n      0x00\n        /* \"#utility.yul\":3980:3982   */\n      0x40\n        /* \"#utility.yul\":3968:3977   */\n      dup4\n        /* \"#utility.yul\":3959:3966   */\n      dup6\n        /* \"#utility.yul\":3955:3978   */\n      sub\n        /* \"#utility.yul\":3951:3983   */\n      slt\n        /* \"#utility.yul\":3948:4067   */\n      iszero\n      tag_569\n      jumpi\n        /* \"#utility.yul\":3986:4065   */\n      tag_570\n      tag_480\n      jump\t// in\n    tag_570:\n        /* \"#utility.yul\":3948:4067   */\n    tag_569:\n        /* \"#utility.yul\":4106:4107   */\n      0x00\n        /* \"#utility.yul\":4131:4184   */\n      tag_571\n        /* \"#utility.yul\":4176:4183   */\n      dup6\n        /* \"#utility.yul\":4167:4173   */\n      dup3\n        /* \"#utility.yul\":4156:4165   */\n      dup7\n        /* \"#utility.yul\":4152:4174   */\n      add\n        /* \"#utility.yul\":4131:4184   */\n      tag_491\n      jump\t// in\n    tag_571:\n        /* \"#utility.yul\":4121:4184   */\n      swap3\n      pop\n        /* \"#utility.yul\":4077:4194   */\n      pop\n        /* \"#utility.yul\":4233:4235   */\n      0x20\n        /* \"#utility.yul\":4259:4312   */\n      tag_572\n        /* \"#utility.yul\":4304:4311   */\n      dup6\n        /* \"#utility.yul\":4295:4301   */\n      dup3\n        /* \"#utility.yul\":4284:4293   */\n      dup7\n        /* \"#utility.yul\":4280:4302   */\n      add\n        /* \"#utility.yul\":4259:4312   */\n      tag_494\n      jump\t// in\n    tag_572:\n        /* \"#utility.yul\":4249:4312   */\n      swap2\n      pop\n        /* \"#utility.yul\":4204:4322   */\n      pop\n        /* \"#utility.yul\":3855:4329   */\n      swap3\n      pop\n      swap3\n      swap1\n      pop\n      jump\t// out\n        /* \"#utility.yul\":4335:4457   */\n    tag_495:\n        /* \"#utility.yul\":4408:4432   */\n      tag_574\n        /* \"#utility.yul\":4426:4431   */\n      dup2\n        /* \"#utility.yul\":4408:4432   */\n      tag_487\n      jump\t// in\n    tag_574:\n        /* \"#utility.yul\":4401:4406   */\n      dup2\n        /* \"#utility.yul\":4398:4433   */\n      eq\n        /* \"#utility.yul\":4388:4451   */\n      tag_575\n      jumpi\n        /* \"#utility.yul\":4447:4448   */\n      0x00\n        /* \"#utility.yul\":4444:4445   */\n      0x00\n        /* \"#utility.yul\":4437:4449   */\n      revert\n        /* \"#utility.yul\":4388:4451   */\n    tag_575:\n        /* \"#utility.yul\":4335:4457   */\n      pop\n      jump\t// out\n        /* \"#utility.yul\":4463:4602   */\n    tag_496:\n        /* \"#utility.yul\":4509:4514   */\n      0x00\n        /* \"#utility.yul\":4547:4553   */\n      dup2\n        /* \"#utility.yul\":4534:4554   */\n      calldataload\n        /* \"#utility.yul\":4525:4554   */\n      swap1\n      pop\n        /* \"#utility.yul\":4563:4596   */\n      tag_577\n        /* \"#utility.yul\":4590:4595   */\n      dup2\n        /* \"#utility.yul\":4563:4596   */\n      tag_495\n      jump\t// in\n    tag_577:\n        /* \"#utility.yul\":4463:4602   */\n      swap3\n      swap2\n      pop\n      pop\n      jump\t// out\n        /* \"#utility.yul\":4608:4937   */\n    tag_88:\n        /* \"#utility.yul\":4667:4673   */\n      0x00\n        /* \"#utility.yul\":4716:4718   */\n      0x20\n        /* \"#utility.yul\":4704:4713   */\n      dup3\n        /* \"#utility.yul\":4695:4702   */\n      dup5\n        /* \"#utility.yul\":4691:4714   */\n      sub\n        /* \"#utility.yul\":4687:4719   */\n      slt\n        /* \"#utility.yul\":4684:4803   */\n      iszero\n      tag_579\n      jumpi\n        /* \"#utility.yul\":4722:4801   */\n      tag_580\n      tag_480\n      jump\t// in\n    tag_580:\n        /* \"#utility.yul\":4684:4803   */\n    tag_579:\n        /* \"#utility.yul\":4842:4843   */\n      0x00\n        /* \"#utility.yul\":4867:4920   */\n      tag_581\n        /* \"#utility.yul\":4912:4919   */\n      dup5\n        /* \"#utility.yul\":4903:4909   */\n      dup3\n        /* \"#utility.yul\":4892:4901   */\n      dup6\n        /* \"#utility.yul\":4888:4910   */\n      add\n        /* \"#utility.yul\":4867:4920   */\n      tag_496\n      jump\t// in\n    tag_581:\n        /* \"#utility.yul\":4857:4920   */\n      swap2\n      pop\n        /* \"#utility.yul\":4813:4930   */\n      pop\n        /* \"#utility.yul\":4608:4937   */\n      swap3\n      swap2\n      pop\n      pop\n      jump\t// out\n        /* \"#utility.yul\":4943:5003   */\n    tag_497:\n        /* \"#utility.yul\":4971:4974   */\n      0x00\n        /* \"#utility.yul\":4992:4997   */\n      dup2\n        /* \"#utility.yul\":4985:4997   */\n      swap1\n      pop\n        /* \"#utility.yul\":4943:5003   */\n      swap2\n      swap1\n      pop\n      jump\t// out\n        /* \"#utility.yul\":5009:5151   */\n    tag_498:\n        /* \"#utility.yul\":5059:5068   */\n      0x00\n        /* \"#utility.yul\":5092:5145   */\n      tag_584\n        /* \"#utility.yul\":5110:5144   */\n      tag_585\n        /* \"#utility.yul\":5119:5143   */\n      tag_586\n        /* \"#utility.yul\":5137:5142   */\n      dup5\n        /* \"#utility.yul\":5119:5143   */\n      tag_476\n      jump\t// in\n    tag_586:\n        /* \"#utility.yul\":5110:5144   */\n      tag_497\n      jump\t// in\n    tag_585:\n        /* \"#utility.yul\":5092:5145   */\n      tag_476\n      jump\t// in\n    tag_584:\n        /* \"#utility.yul\":5079:5145   */\n      swap1\n      pop\n        /* \"#utility.yul\":5009:5151   */\n      swap2\n      swap1\n      pop\n      jump\t// out\n        /* \"#utility.yul\":5157:5283   */\n    tag_499:\n        /* \"#utility.yul\":5207:5216   */\n      0x00\n        /* \"#utility.yul\":5240:5277   */\n      tag_588\n        /* \"#utility.yul\":5271:5276   */\n      dup3\n        /* \"#utility.yul\":5240:5277   */\n      tag_498\n      jump\t// in\n    tag_588:\n        /* \"#utility.yul\":5227:5277   */\n      swap1\n      pop\n        /* \"#utility.yul\":5157:5283   */\n      swap2\n      swap1\n      pop\n      jump\t// out\n        /* \"#utility.yul\":5289:5443   */\n    tag_500:\n        /* \"#utility.yul\":5367:5376   */\n      0x00\n        /* \"#utility.yul\":5400:5437   */\n      tag_590\n        /* \"#utility.yul\":5431:5436   */\n      dup3\n        /* \"#utility.yul\":5400:5437   */\n      tag_499\n      jump\t// in\n    tag_590:\n        /* \"#utility.yul\":5387:5437   */\n      swap1\n      pop\n        /* \"#utility.yul\":5289:5443   */\n      swap2\n      swap1\n      pop\n      jump\t// out\n        /* \"#utility.yul\":5449:5636   */\n    tag_501:\n        /* \"#utility.yul\":5564:5629   */\n      tag_592\n        /* \"#utility.yul\":5623:5628   */\n      dup2\n        /* \"#utility.yul\":5564:5629   */\n      tag_500\n      jump\t// in\n    tag_592:\n        /* \"#utility.yul\":5559:5562   */\n      dup3\n        /* \"#utility.yul\":5552:5630   */\n      mstore\n        /* \"#utility.yul\":5449:5636   */\n      pop\n      pop\n      jump\t// out\n        /* \"#utility.yul\":5642:5920   */\n    tag_94:\n        /* \"#utility.yul\":5763:5767   */\n      0x00\n        /* \"#utility.yul\":5801:5803   */\n      0x20\n        /* \"#utility.yul\":5790:5799   */\n      dup3\n        /* \"#utility.yul\":5786:5804   */\n      add\n        /* \"#utility.yul\":5778:5804   */\n      swap1\n      pop\n        /* \"#utility.yul\":5814:5913   */\n      tag_594\n        /* \"#utility.yul\":5910:5911   */\n      0x00\n        /* \"#utility.yul\":5899:5908   */\n      dup4\n        /* \"#utility.yul\":5895:5912   */\n      add\n        /* \"#utility.yul\":5886:5892   */\n      dup5\n        /* \"#utility.yul\":5814:5913   */\n      tag_501\n      jump\t// in\n    tag_594:\n        /* \"#utility.yul\":5642:5920   */\n      swap3\n      swap2\n      pop\n      pop\n      jump\t// out\n        /* \"#utility.yul\":5926:6255   */\n    tag_101:\n        /* \"#utility.yul\":5985:5991   */\n      0x00\n        /* \"#utility.yul\":6034:6036   */\n      0x20\n        /* \"#utility.yul\":6022:6031   */\n      dup3\n        /* \"#utility.yul\":6013:6020   */\n      dup5\n        /* \"#utility.yul\":6009:6032   */\n      sub\n        /* \"#utility.yul\":6005:6037   */\n      slt\n        /* \"#utility.yul\":6002:6121   */\n      iszero\n      tag_596\n      jumpi\n        /* \"#utility.yul\":6040:6119   */\n      tag_597\n      tag_480\n      jump\t// in\n    tag_597:\n        /* \"#utility.yul\":6002:6121   */\n    tag_596:\n        /* \"#utility.yul\":6160:6161   */\n      0x00\n        /* \"#utility.yul\":6185:6238   */\n      tag_598\n        /* \"#utility.yul\":6230:6237   */\n      dup5\n        /* \"#utility.yul\":6221:6227   */\n      dup3\n        /* \"#utility.yul\":6210:6219   */\n      dup6\n        /* \"#utility.yul\":6206:6228   */\n      add\n        /* \"#utility.yul\":6185:6238   */\n      tag_494\n      jump\t// in\n    tag_598:\n        /* \"#utility.yul\":6175:6238   */\n      swap2\n      pop\n        /* \"#utility.yul\":6131:6248   */\n      pop\n        /* \"#utility.yul\":5926:6255   */\n      swap3\n      swap2\n      pop\n      pop\n      jump\t// out\n        /* \"#utility.yul\":6261:6913   */\n    tag_143:\n        /* \"#utility.yul\":6460:6464   */\n      0x00\n        /* \"#utility.yul\":6498:6501   */\n      0xa0\n        /* \"#utility.yul\":6487:6496   */\n      dup3\n        /* \"#utility.yul\":6483:6502   */\n      add\n        /* \"#utility.yul\":6475:6502   */\n      swap1\n      pop\n        /* \"#utility.yul\":6512:6577   */\n      tag_600\n        /* \"#utility.yul\":6574:6575   */\n      0x00\n        /* \"#utility.yul\":6563:6572   */\n      dup4\n        /* \"#utility.yul\":6559:6576   */\n      add\n        /* \"#utility.yul\":6550:6556   */\n      dup9\n        /* \"#utility.yul\":6512:6577   */\n      tag_486\n      jump\t// in\n    tag_600:\n        /* \"#utility.yul\":6587:6659   */\n      tag_601\n        /* \"#utility.yul\":6655:6657   */\n      0x20\n        /* \"#utility.yul\":6644:6653   */\n      dup4\n        /* \"#utility.yul\":6640:6658   */\n      add\n        /* \"#utility.yul\":6631:6637   */\n      dup8\n        /* \"#utility.yul\":6587:6659   */\n      tag_488\n      jump\t// in\n    tag_601:\n        /* \"#utility.yul\":6669:6741   */\n      tag_602\n        /* \"#utility.yul\":6737:6739   */\n      0x40\n        /* \"#utility.yul\":6726:6735   */\n      dup4\n        /* \"#utility.yul\":6722:6740   */\n      add\n        /* \"#utility.yul\":6713:6719   */\n      dup7\n        /* \"#utility.yul\":6669:6741   */\n      tag_488\n      jump\t// in\n    tag_602:\n        /* \"#utility.yul\":6751:6823   */\n      tag_603\n        /* \"#utility.yul\":6819:6821   */\n      0x60\n        /* \"#utility.yul\":6808:6817   */\n      dup4\n        /* \"#utility.yul\":6804:6822   */\n      add\n        /* \"#utility.yul\":6795:6801   */\n      dup6\n        /* \"#utility.yul\":6751:6823   */\n      tag_488\n      jump\t// in\n    tag_603:\n        /* \"#utility.yul\":6833:6906   */\n      tag_604\n        /* \"#utility.yul\":6901:6904   */\n      0x80\n        /* \"#utility.yul\":6890:6899   */\n      dup4\n        /* \"#utility.yul\":6886:6905   */\n      add\n        /* \"#utility.yul\":6877:6883   */\n      dup5\n        /* \"#utility.yul\":6833:6906   */\n      tag_478\n      jump\t// in\n    tag_604:\n        /* \"#utility.yul\":6261:6913   */\n      swap7\n      swap6\n      pop\n      pop\n      pop\n      pop\n      pop\n      pop\n      jump\t// out\n        /* \"#utility.yul\":6919:7393   */\n    tag_169:\n        /* \"#utility.yul\":6987:6993   */\n      0x00\n        /* \"#utility.yul\":6995:7001   */\n      0x00\n        /* \"#utility.yul\":7044:7046   */\n      0x40\n        /* \"#utility.yul\":7032:7041   */\n      dup4\n        /* \"#utility.yul\":7023:7030   */\n      dup6\n        /* \"#utility.yul\":7019:7042   */\n      sub\n        /* \"#utility.yul\":7015:7047   */\n      slt\n        /* \"#utility.yul\":7012:7131   */\n      iszero\n      tag_606\n      jumpi\n        /* \"#utility.yul\":7050:7129   */\n      tag_607\n      tag_480\n      jump\t// in\n    tag_607:\n        /* \"#utility.yul\":7012:7131   */\n    tag_606:\n        /* \"#utility.yul\":7170:7171   */\n      0x00\n        /* \"#utility.yul\":7195:7248   */\n      tag_608\n        /* \"#utility.yul\":7240:7247   */\n      dup6\n        /* \"#utility.yul\":7231:7237   */\n      dup3\n        /* \"#utility.yul\":7220:7229   */\n      dup7\n        /* \"#utility.yul\":7216:7238   */\n      add\n        /* \"#utility.yul\":7195:7248   */\n      tag_494\n      jump\t// in\n    tag_608:\n        /* \"#utility.yul\":7185:7248   */\n      swap3\n      pop\n        /* \"#utility.yul\":7141:7258   */\n      pop\n        /* \"#utility.yul\":7297:7299   */\n      0x20\n        /* \"#utility.yul\":7323:7376   */\n      tag_609\n        /* \"#utility.yul\":7368:7375   */\n      dup6\n        /* \"#utility.yul\":7359:7365   */\n      dup3\n        /* \"#utility.yul\":7348:7357   */\n      dup7\n        /* \"#utility.yul\":7344:7366   */\n      add\n        /* \"#utility.yul\":7323:7376   */\n      tag_494\n      jump\t// in\n    tag_609:\n        /* \"#utility.yul\":7313:7376   */\n      swap2\n      pop\n        /* \"#utility.yul\":7268:7386   */\n      pop\n        /* \"#utility.yul\":6919:7393   */\n      swap3\n      pop\n      swap3\n      swap1\n      pop\n      jump\t// out\n        /* \"#utility.yul\":7399:7579   */\n    tag_502:\n        /* \"#utility.yul\":7447:7524   */\n      0x4e487b7100000000000000000000000000000000000000000000000000000000\n        /* \"#utility.yul\":7444:7445   */\n      0x00\n        /* \"#utility.yul\":7437:7525   */\n      mstore\n        /* \"#utility.yul\":7544:7548   */\n      0x11\n        /* \"#utility.yul\":7541:7542   */\n      0x04\n        /* \"#utility.yul\":7534:7549   */\n      mstore\n        /* \"#utility.yul\":7568:7572   */\n      0x24\n        /* \"#utility.yul\":7565:7566   */\n      0x00\n        /* \"#utility.yul\":7558:7573   */\n      revert\n        /* \"#utility.yul\":7585:7776   */\n    tag_209:\n        /* \"#utility.yul\":7625:7628   */\n      0x00\n        /* \"#utility.yul\":7644:7664   */\n      tag_612\n        /* \"#utility.yul\":7662:7663   */\n      dup3\n        /* \"#utility.yul\":7644:7664   */\n      tag_487\n      jump\t// in\n    tag_612:\n        /* \"#utility.yul\":7639:7664   */\n      swap2\n      pop\n        /* \"#utility.yul\":7678:7698   */\n      tag_613\n        /* \"#utility.yul\":7696:7697   */\n      dup4\n        /* \"#utility.yul\":7678:7698   */\n      tag_487\n      jump\t// in\n    tag_613:\n        /* \"#utility.yul\":7673:7698   */\n      swap3\n      pop\n        /* \"#utility.yul\":7721:7722   */\n      dup3\n        /* \"#utility.yul\":7718:7719   */\n      dup3\n        /* \"#utility.yul\":7714:7723   */\n      add\n        /* \"#utility.yul\":7707:7723   */\n      swap1\n      pop\n        /* \"#utility.yul\":7742:7745   */\n      dup1\n        /* \"#utility.yul\":7739:7740   */\n      dup3\n        /* \"#utility.yul\":7736:7746   */\n      gt\n        /* \"#utility.yul\":7733:7769   */\n      iszero\n      tag_614\n      jumpi\n        /* \"#utility.yul\":7749:7767   */\n      tag_615\n      tag_502\n      jump\t// in\n    tag_615:\n        /* \"#utility.yul\":7733:7769   */\n    tag_614:\n        /* \"#utility.yul\":7585:7776   */\n      swap3\n      swap2\n      pop\n      pop\n      jump\t// out\n        /* \"#utility.yul\":7782:8114   */\n    tag_216:\n        /* \"#utility.yul\":7903:7907   */\n      0x00\n        /* \"#utility.yul\":7941:7943   */\n      0x40\n        /* \"#utility.yul\":7930:7939   */\n      dup3\n        /* \"#utility.yul\":7926:7944   */\n      add\n        /* \"#utility.yul\":7918:7944   */\n      swap1\n      pop\n        /* \"#utility.yul\":7954:8025   */\n      tag_617\n        /* \"#utility.yul\":8022:8023   */\n      0x00\n        /* \"#utility.yul\":8011:8020   */\n      dup4\n        /* \"#utility.yul\":8007:8024   */\n      add\n        /* \"#utility.yul\":7998:8004   */\n      dup6\n        /* \"#utility.yul\":7954:8025   */\n      tag_478\n      jump\t// in\n    tag_617:\n        /* \"#utility.yul\":8035:8107   */\n      tag_618\n        /* \"#utility.yul\":8103:8105   */\n      0x20\n        /* \"#utility.yul\":8092:8101   */\n      dup4\n        /* \"#utility.yul\":8088:8106   */\n      add\n        /* \"#utility.yul\":8079:8085   */\n      dup5\n        /* \"#utility.yul\":8035:8107   */\n      tag_478\n      jump\t// in\n    tag_618:\n        /* \"#utility.yul\":7782:8114   */\n      swap4\n      swap3\n      pop\n      pop\n      pop\n      jump\t// out\n        /* \"#utility.yul\":8120:8263   */\n    tag_503:\n        /* \"#utility.yul\":8177:8182   */\n      0x00\n        /* \"#utility.yul\":8208:8214   */\n      dup2\n        /* \"#utility.yul\":8202:8215   */\n      mload\n        /* \"#utility.yul\":8193:8215   */\n      swap1\n      pop\n        /* \"#utility.yul\":8224:8257   */\n      tag_620\n        /* \"#utility.yul\":8251:8256   */\n      dup2\n        /* \"#utility.yul\":8224:8257   */\n      tag_495\n      jump\t// in\n    tag_620:\n        /* \"#utility.yul\":8120:8263   */\n      swap3\n      swap2\n      pop\n      pop\n      jump\t// out\n        /* \"#utility.yul\":8269:8620   */\n    tag_220:\n        /* \"#utility.yul\":8339:8345   */\n      0x00\n        /* \"#utility.yul\":8388:8390   */\n      0x20\n        /* \"#utility.yul\":8376:8385   */\n      dup3\n        /* \"#utility.yul\":8367:8374   */\n      dup5\n        /* \"#utility.yul\":8363:8386   */\n      sub\n        /* \"#utility.yul\":8359:8391   */\n      slt\n        /* \"#utility.yul\":8356:8475   */\n      iszero\n      tag_622\n      jumpi\n        /* \"#utility.yul\":8394:8473   */\n      tag_623\n      tag_480\n      jump\t// in\n    tag_623:\n        /* \"#utility.yul\":8356:8475   */\n    tag_622:\n        /* \"#utility.yul\":8514:8515   */\n      0x00\n        /* \"#utility.yul\":8539:8603   */\n      tag_624\n        /* \"#utility.yul\":8595:8602   */\n      dup5\n        /* \"#utility.yul\":8586:8592   */\n      dup3\n        /* \"#utility.yul\":8575:8584   */\n      dup6\n        /* \"#utility.yul\":8571:8593   */\n      add\n        /* \"#utility.yul\":8539:8603   */\n      tag_503\n      jump\t// in\n    tag_624:\n        /* \"#utility.yul\":8529:8603   */\n      swap2\n      pop\n        /* \"#utility.yul\":8485:8613   */\n      pop\n        /* \"#utility.yul\":8269:8620   */\n      swap3\n      swap2\n      pop\n      pop\n      jump\t// out\n        /* \"#utility.yul\":8626:8744   */\n    tag_504:\n        /* \"#utility.yul\":8663:8670   */\n      0x00\n        /* \"#utility.yul\":8703:8737   */\n      0xffffffffffffffffffffffffffffffff\n        /* \"#utility.yul\":8696:8701   */\n      dup3\n        /* \"#utility.yul\":8692:8738   */\n      and\n        /* \"#utility.yul\":8681:8738   */\n      swap1\n      pop\n        /* \"#utility.yul\":8626:8744   */\n      swap2\n      swap1\n      pop\n      jump\t// out\n        /* \"#utility.yul\":8750:8951   */\n    tag_225:\n        /* \"#utility.yul\":8789:8792   */\n      0x00\n        /* \"#utility.yul\":8812:8836   */\n      tag_627\n        /* \"#utility.yul\":8830:8835   */\n      dup3\n        /* \"#utility.yul\":8812:8836   */\n      tag_504\n      jump\t// in\n    tag_627:\n        /* \"#utility.yul\":8803:8836   */\n      swap2\n      pop\n        /* \"#utility.yul\":8858:8892   */\n      0xffffffffffffffffffffffffffffffff\n        /* \"#utility.yul\":8851:8856   */\n      dup3\n        /* \"#utility.yul\":8848:8893   */\n      sub\n        /* \"#utility.yul\":8845:8916   */\n      tag_628\n      jumpi\n        /* \"#utility.yul\":8896:8914   */\n      tag_629\n      tag_502\n      jump\t// in\n    tag_629:\n        /* \"#utility.yul\":8845:8916   */\n    tag_628:\n        /* \"#utility.yul\":8943:8944   */\n      0x01\n        /* \"#utility.yul\":8936:8941   */\n      dup3\n        /* \"#utility.yul\":8932:8945   */\n      add\n        /* \"#utility.yul\":8925:8945   */\n      swap1\n      pop\n        /* \"#utility.yul\":8750:8951   */\n      swap2\n      swap1\n      pop\n      jump\t// out\n        /* \"#utility.yul\":8957:9062   */\n    tag_505:\n        /* \"#utility.yul\":8993:9000   */\n      0x00\n        /* \"#utility.yul\":9033:9055   */\n      0xffffffffffffffffffff\n        /* \"#utility.yul\":9026:9031   */\n      dup3\n        /* \"#utility.yul\":9022:9056   */\n      and\n        /* \"#utility.yul\":9011:9056   */\n      swap1\n      pop\n        /* \"#utility.yul\":8957:9062   */\n      swap2\n      swap1\n      pop\n      jump\t// out\n        /* \"#utility.yul\":9068:9188   */\n    tag_506:\n        /* \"#utility.yul\":9140:9163   */\n      tag_632\n        /* \"#utility.yul\":9157:9162   */\n      dup2\n        /* \"#utility.yul\":9140:9163   */\n      tag_505\n      jump\t// in\n    tag_632:\n        /* \"#utility.yul\":9133:9138   */\n      dup2\n        /* \"#utility.yul\":9130:9164   */\n      eq\n        /* \"#utility.yul\":9120:9182   */\n      tag_633\n      jumpi\n        /* \"#utility.yul\":9178:9179   */\n      0x00\n        /* \"#utility.yul\":9175:9176   */\n      0x00\n        /* \"#utility.yul\":9168:9180   */\n      revert\n        /* \"#utility.yul\":9120:9182   */\n    tag_633:\n        /* \"#utility.yul\":9068:9188   */\n      pop\n      jump\t// out\n        /* \"#utility.yul\":9194:9335   */\n    tag_507:\n        /* \"#utility.yul\":9250:9255   */\n      0x00\n        /* \"#utility.yul\":9281:9287   */\n      dup2\n        /* \"#utility.yul\":9275:9288   */\n      mload\n        /* \"#utility.yul\":9266:9288   */\n      swap1\n      pop\n        /* \"#utility.yul\":9297:9329   */\n      tag_635\n        /* \"#utility.yul\":9323:9328   */\n      dup2\n        /* \"#utility.yul\":9297:9329   */\n      tag_506\n      jump\t// in\n    tag_635:\n        /* \"#utility.yul\":9194:9335   */\n      swap3\n      swap2\n      pop\n      pop\n      jump\t// out\n        /* \"#utility.yul\":9341:9417   */\n    tag_508:\n        /* \"#utility.yul\":9377:9384   */\n      0x00\n        /* \"#utility.yul\":9406:9411   */\n      dup2\n        /* \"#utility.yul\":9395:9411   */\n      swap1\n      pop\n        /* \"#utility.yul\":9341:9417   */\n      swap2\n      swap1\n      pop\n      jump\t// out\n        /* \"#utility.yul\":9423:9543   */\n    tag_509:\n        /* \"#utility.yul\":9495:9518   */\n      tag_638\n        /* \"#utility.yul\":9512:9517   */\n      dup2\n        /* \"#utility.yul\":9495:9518   */\n      tag_508\n      jump\t// in\n    tag_638:\n        /* \"#utility.yul\":9488:9493   */\n      dup2\n        /* \"#utility.yul\":9485:9519   */\n      eq\n        /* \"#utility.yul\":9475:9537   */\n      tag_639\n      jumpi\n        /* \"#utility.yul\":9533:9534   */\n      0x00\n        /* \"#utility.yul\":9530:9531   */\n      0x00\n        /* \"#utility.yul\":9523:9535   */\n      revert\n        /* \"#utility.yul\":9475:9537   */\n    tag_639:\n        /* \"#utility.yul\":9423:9543   */\n      pop\n      jump\t// out\n        /* \"#utility.yul\":9549:9690   */\n    tag_510:\n        /* \"#utility.yul\":9605:9610   */\n      0x00\n        /* \"#utility.yul\":9636:9642   */\n      dup2\n        /* \"#utility.yul\":9630:9643   */\n      mload\n        /* \"#utility.yul\":9621:9643   */\n      swap1\n      pop\n        /* \"#utility.yul\":9652:9684   */\n      tag_641\n        /* \"#utility.yul\":9678:9683   */\n      dup2\n        /* \"#utility.yul\":9652:9684   */\n      tag_509\n      jump\t// in\n    tag_641:\n        /* \"#utility.yul\":9549:9690   */\n      swap3\n      swap2\n      pop\n      pop\n      jump\t// out\n        /* \"#utility.yul\":9696:10667   */\n    tag_248:\n        /* \"#utility.yul\":9799:9805   */\n      0x00\n        /* \"#utility.yul\":9807:9813   */\n      0x00\n        /* \"#utility.yul\":9815:9821   */\n      0x00\n        /* \"#utility.yul\":9823:9829   */\n      0x00\n        /* \"#utility.yul\":9831:9837   */\n      0x00\n        /* \"#utility.yul\":9880:9883   */\n      0xa0\n        /* \"#utility.yul\":9868:9877   */\n      dup7\n        /* \"#utility.yul\":9859:9866   */\n      dup9\n        /* \"#utility.yul\":9855:9878   */\n      sub\n        /* \"#utility.yul\":9851:9884   */\n      slt\n        /* \"#utility.yul\":9848:9968   */\n      iszero\n      tag_643\n      jumpi\n        /* \"#utility.yul\":9887:9966   */\n      tag_644\n      tag_480\n      jump\t// in\n    tag_644:\n        /* \"#utility.yul\":9848:9968   */\n    tag_643:\n        /* \"#utility.yul\":10007:10008   */\n      0x00\n        /* \"#utility.yul\":10032:10095   */\n      tag_645\n        /* \"#utility.yul\":10087:10094   */\n      dup9\n        /* \"#utility.yul\":10078:10084   */\n      dup3\n        /* \"#utility.yul\":10067:10076   */\n      dup10\n        /* \"#utility.yul\":10063:10085   */\n      add\n        /* \"#utility.yul\":10032:10095   */\n      tag_507\n      jump\t// in\n    tag_645:\n        /* \"#utility.yul\":10022:10095   */\n      swap6\n      pop\n        /* \"#utility.yul\":9978:10105   */\n      pop\n        /* \"#utility.yul\":10144:10146   */\n      0x20\n        /* \"#utility.yul\":10170:10233   */\n      tag_646\n        /* \"#utility.yul\":10225:10232   */\n      dup9\n        /* \"#utility.yul\":10216:10222   */\n      dup3\n        /* \"#utility.yul\":10205:10214   */\n      dup10\n        /* \"#utility.yul\":10201:10223   */\n      add\n        /* \"#utility.yul\":10170:10233   */\n      tag_510\n      jump\t// in\n    tag_646:\n        /* \"#utility.yul\":10160:10233   */\n      swap5\n      pop\n        /* \"#utility.yul\":10115:10243   */\n      pop\n        /* \"#utility.yul\":10282:10284   */\n      0x40\n        /* \"#utility.yul\":10308:10372   */\n      tag_647\n        /* \"#utility.yul\":10364:10371   */\n      dup9\n        /* \"#utility.yul\":10355:10361   */\n      dup3\n        /* \"#utility.yul\":10344:10353   */\n      dup10\n        /* \"#utility.yul\":10340:10362   */\n      add\n        /* \"#utility.yul\":10308:10372   */\n      tag_503\n      jump\t// in\n    tag_647:\n        /* \"#utility.yul\":10298:10372   */\n      swap4\n      pop\n        /* \"#utility.yul\":10253:10382   */\n      pop\n        /* \"#utility.yul\":10421:10423   */\n      0x60\n        /* \"#utility.yul\":10447:10511   */\n      tag_648\n        /* \"#utility.yul\":10503:10510   */\n      dup9\n        /* \"#utility.yul\":10494:10500   */\n      dup3\n        /* \"#utility.yul\":10483:10492   */\n      dup10\n        /* \"#utility.yul\":10479:10501   */\n      add\n        /* \"#utility.yul\":10447:10511   */\n      tag_503\n      jump\t// in\n    tag_648:\n        /* \"#utility.yul\":10437:10511   */\n      swap3\n      pop\n        /* \"#utility.yul\":10392:10521   */\n      pop\n        /* \"#utility.yul\":10560:10563   */\n      0x80\n        /* \"#utility.yul\":10587:10650   */\n      tag_649\n        /* \"#utility.yul\":10642:10649   */\n      dup9\n        /* \"#utility.yul\":10633:10639   */\n      dup3\n        /* \"#utility.yul\":10622:10631   */\n      dup10\n        /* \"#utility.yul\":10618:10640   */\n      add\n        /* \"#utility.yul\":10587:10650   */\n      tag_507\n      jump\t// in\n    tag_649:\n        /* \"#utility.yul\":10577:10650   */\n      swap2\n      pop\n        /* \"#utility.yul\":10531:10660   */\n      pop\n        /* \"#utility.yul\":9696:10667   */\n      swap3\n      swap6\n      pop\n      swap3\n      swap6\n      swap1\n      swap4\n      pop\n      jump\t// out\n        /* \"#utility.yul\":10673:10867   */\n    tag_258:\n        /* \"#utility.yul\":10713:10717   */\n      0x00\n        /* \"#utility.yul\":10733:10753   */\n      tag_651\n        /* \"#utility.yul\":10751:10752   */\n      dup3\n        /* \"#utility.yul\":10733:10753   */\n      tag_487\n      jump\t// in\n    tag_651:\n        /* \"#utility.yul\":10728:10753   */\n      swap2\n      pop\n        /* \"#utility.yul\":10767:10787   */\n      tag_652\n        /* \"#utility.yul\":10785:10786   */\n      dup4\n        /* \"#utility.yul\":10767:10787   */\n      tag_487\n      jump\t// in\n    tag_652:\n        /* \"#utility.yul\":10762:10787   */\n      swap3\n      pop\n        /* \"#utility.yul\":10811:10812   */\n      dup3\n        /* \"#utility.yul\":10808:10809   */\n      dup3\n        /* \"#utility.yul\":10804:10813   */\n      sub\n        /* \"#utility.yul\":10796:10813   */\n      swap1\n      pop\n        /* \"#utility.yul\":10835:10836   */\n      dup2\n        /* \"#utility.yul\":10829:10833   */\n      dup2\n        /* \"#utility.yul\":10826:10837   */\n      gt\n        /* \"#utility.yul\":10823:10860   */\n      iszero\n      tag_653\n      jumpi\n        /* \"#utility.yul\":10840:10858   */\n      tag_654\n      tag_502\n      jump\t// in\n    tag_654:\n        /* \"#utility.yul\":10823:10860   */\n    tag_653:\n        /* \"#utility.yul\":10673:10867   */\n      swap3\n      swap2\n      pop\n      pop\n      jump\t// out\n        /* \"#utility.yul\":10873:11315   */\n    tag_358:\n        /* \"#utility.yul\":11022:11026   */\n      0x00\n        /* \"#utility.yul\":11060:11062   */\n      0x60\n        /* \"#utility.yul\":11049:11058   */\n      dup3\n        /* \"#utility.yul\":11045:11063   */\n      add\n        /* \"#utility.yul\":11037:11063   */\n      swap1\n      pop\n        /* \"#utility.yul\":11073:11144   */\n      tag_656\n        /* \"#utility.yul\":11141:11142   */\n      0x00\n        /* \"#utility.yul\":11130:11139   */\n      dup4\n        /* \"#utility.yul\":11126:11143   */\n      add\n        /* \"#utility.yul\":11117:11123   */\n      dup7\n        /* \"#utility.yul\":11073:11144   */\n      tag_478\n      jump\t// in\n    tag_656:\n        /* \"#utility.yul\":11154:11226   */\n      tag_657\n        /* \"#utility.yul\":11222:11224   */\n      0x20\n        /* \"#utility.yul\":11211:11220   */\n      dup4\n        /* \"#utility.yul\":11207:11225   */\n      add\n        /* \"#utility.yul\":11198:11204   */\n      dup6\n        /* \"#utility.yul\":11154:11226   */\n      tag_478\n      jump\t// in\n    tag_657:\n        /* \"#utility.yul\":11236:11308   */\n      tag_658\n        /* \"#utility.yul\":11304:11306   */\n      0x40\n        /* \"#utility.yul\":11293:11302   */\n      dup4\n        /* \"#utility.yul\":11289:11307   */\n      add\n        /* \"#utility.yul\":11280:11286   */\n      dup5\n        /* \"#utility.yul\":11236:11308   */\n      tag_488\n      jump\t// in\n    tag_658:\n        /* \"#utility.yul\":10873:11315   */\n      swap5\n      swap4\n      pop\n      pop\n      pop\n      pop\n      jump\t// out\n        /* \"#utility.yul\":11321:11731   */\n    tag_373:\n        /* \"#utility.yul\":11361:11368   */\n      0x00\n        /* \"#utility.yul\":11384:11404   */\n      tag_660\n        /* \"#utility.yul\":11402:11403   */\n      dup3\n        /* \"#utility.yul\":11384:11404   */\n      tag_487\n      jump\t// in\n    tag_660:\n        /* \"#utility.yul\":11379:11404   */\n      swap2\n      pop\n        /* \"#utility.yul\":11418:11438   */\n      tag_661\n        /* \"#utility.yul\":11436:11437   */\n      dup4\n        /* \"#utility.yul\":11418:11438   */\n      tag_487\n      jump\t// in\n    tag_661:\n        /* \"#utility.yul\":11413:11438   */\n      swap3\n      pop\n        /* \"#utility.yul\":11473:11474   */\n      dup3\n        /* \"#utility.yul\":11470:11471   */\n      dup3\n        /* \"#utility.yul\":11466:11475   */\n      mul\n        /* \"#utility.yul\":11495:11525   */\n      tag_662\n        /* \"#utility.yul\":11513:11524   */\n      dup2\n        /* \"#utility.yul\":11495:11525   */\n      tag_487\n      jump\t// in\n    tag_662:\n        /* \"#utility.yul\":11484:11525   */\n      swap2\n      pop\n        /* \"#utility.yul\":11674:11675   */\n      dup3\n        /* \"#utility.yul\":11665:11672   */\n      dup3\n        /* \"#utility.yul\":11661:11676   */\n      div\n        /* \"#utility.yul\":11658:11659   */\n      dup5\n        /* \"#utility.yul\":11655:11677   */\n      eq\n        /* \"#utility.yul\":11635:11636   */\n      dup4\n        /* \"#utility.yul\":11628:11637   */\n      iszero\n        /* \"#utility.yul\":11608:11691   */\n      or\n        /* \"#utility.yul\":11585:11724   */\n      tag_663\n      jumpi\n        /* \"#utility.yul\":11704:11722   */\n      tag_664\n      tag_502\n      jump\t// in\n    tag_664:\n        /* \"#utility.yul\":11585:11724   */\n    tag_663:\n        /* \"#utility.yul\":11369:11731   */\n      pop\n        /* \"#utility.yul\":11321:11731   */\n      swap3\n      swap2\n      pop\n      pop\n      jump\t// out\n        /* \"#utility.yul\":11737:11917   */\n    tag_511:\n        /* \"#utility.yul\":11785:11862   */\n      0x4e487b7100000000000000000000000000000000000000000000000000000000\n        /* \"#utility.yul\":11782:11783   */\n      0x00\n        /* \"#utility.yul\":11775:11863   */\n      mstore\n        /* \"#utility.yul\":11882:11886   */\n      0x12\n        /* \"#utility.yul\":11879:11880   */\n      0x04\n        /* \"#utility.yul\":11872:11887   */\n      mstore\n        /* \"#utility.yul\":11906:11910   */\n      0x24\n        /* \"#utility.yul\":11903:11904   */\n      0x00\n        /* \"#utility.yul\":11896:11911   */\n      revert\n        /* \"#utility.yul\":11923:12108   */\n    tag_375:\n        /* \"#utility.yul\":11963:11964   */\n      0x00\n        /* \"#utility.yul\":11980:12000   */\n      tag_667\n        /* \"#utility.yul\":11998:11999   */\n      dup3\n        /* \"#utility.yul\":11980:12000   */\n      tag_487\n      jump\t// in\n    tag_667:\n        /* \"#utility.yul\":11975:12000   */\n      swap2\n      pop\n        /* \"#utility.yul\":12014:12034   */\n      tag_668\n        /* \"#utility.yul\":12032:12033   */\n      dup4\n        /* \"#utility.yul\":12014:12034   */\n      tag_487\n      jump\t// in\n    tag_668:\n        /* \"#utility.yul\":12009:12034   */\n      swap3\n      pop\n        /* \"#utility.yul\":12053:12054   */\n      dup3\n        /* \"#utility.yul\":12043:12078   */\n      tag_669\n      jumpi\n        /* \"#utility.yul\":12058:12076   */\n      tag_670\n      tag_511\n      jump\t// in\n    tag_670:\n        /* \"#utility.yul\":12043:12078   */\n    tag_669:\n        /* \"#utility.yul\":12100:12101   */\n      dup3\n        /* \"#utility.yul\":12097:12098   */\n      dup3\n        /* \"#utility.yul\":12093:12102   */\n      div\n        /* \"#utility.yul\":12088:12102   */\n      swap1\n      pop\n        /* \"#utility.yul\":11923:12108   */\n      swap3\n      swap2\n      pop\n      pop\n      jump\t// out\n        /* \"#utility.yul\":12114:12446   */\n    tag_396:\n        /* \"#utility.yul\":12235:12239   */\n      0x00\n        /* \"#utility.yul\":12273:12275   */\n      0x40\n        /* \"#utility.yul\":12262:12271   */\n      dup3\n        /* \"#utility.yul\":12258:12276   */\n      add\n        /* \"#utility.yul\":12250:12276   */\n      swap1\n      pop\n        /* \"#utility.yul\":12286:12357   */\n      tag_672\n        /* \"#utility.yul\":12354:12355   */\n      0x00\n        /* \"#utility.yul\":12343:12352   */\n      dup4\n        /* \"#utility.yul\":12339:12356   */\n      add\n        /* \"#utility.yul\":12330:12336   */\n      dup6\n        /* \"#utility.yul\":12286:12357   */\n      tag_478\n      jump\t// in\n    tag_672:\n        /* \"#utility.yul\":12367:12439   */\n      tag_673\n        /* \"#utility.yul\":12435:12437   */\n      0x20\n        /* \"#utility.yul\":12424:12433   */\n      dup4\n        /* \"#utility.yul\":12420:12438   */\n      add\n        /* \"#utility.yul\":12411:12417   */\n      dup5\n        /* \"#utility.yul\":12367:12439   */\n      tag_488\n      jump\t// in\n    tag_673:\n        /* \"#utility.yul\":12114:12446   */\n      swap4\n      swap3\n      pop\n      pop\n      pop\n      jump\t// out\n        /* \"#utility.yul\":12452:12599   */\n    tag_512:\n        /* \"#utility.yul\":12553:12564   */\n      0x00\n        /* \"#utility.yul\":12590:12593   */\n      dup2\n        /* \"#utility.yul\":12575:12593   */\n      swap1\n      pop\n        /* \"#utility.yul\":12452:12599   */\n      swap3\n      swap2\n      pop\n      pop\n      jump\t// out\n        /* \"#utility.yul\":12605:12719   */\n    tag_513:\n      pop\n      jump\t// out\n        /* \"#utility.yul\":12725:13123   */\n    tag_514:\n        /* \"#utility.yul\":12884:12887   */\n      0x00\n        /* \"#utility.yul\":12905:12988   */\n      tag_677\n        /* \"#utility.yul\":12986:12987   */\n      0x00\n        /* \"#utility.yul\":12981:12984   */\n      dup4\n        /* \"#utility.yul\":12905:12988   */\n      tag_512\n      jump\t// in\n    tag_677:\n        /* \"#utility.yul\":12898:12988   */\n      swap2\n      pop\n        /* \"#utility.yul\":12997:13090   */\n      tag_678\n        /* \"#utility.yul\":13086:13089   */\n      dup3\n        /* \"#utility.yul\":12997:13090   */\n      tag_513\n      jump\t// in\n    tag_678:\n        /* \"#utility.yul\":13115:13116   */\n      0x00\n        /* \"#utility.yul\":13110:13113   */\n      dup3\n        /* \"#utility.yul\":13106:13117   */\n      add\n        /* \"#utility.yul\":13099:13117   */\n      swap1\n      pop\n        /* \"#utility.yul\":12725:13123   */\n      swap2\n      swap1\n      pop\n      jump\t// out\n        /* \"#utility.yul\":13129:13508   */\n    tag_423:\n        /* \"#utility.yul\":13313:13316   */\n      0x00\n        /* \"#utility.yul\":13335:13482   */\n      tag_680\n        /* \"#utility.yul\":13478:13481   */\n      dup3\n        /* \"#utility.yul\":13335:13482   */\n      tag_514\n      jump\t// in\n    tag_680:\n        /* \"#utility.yul\":13328:13482   */\n      swap2\n      pop\n        /* \"#utility.yul\":13499:13502   */\n      dup2\n        /* \"#utility.yul\":13492:13502   */\n      swap1\n      pop\n        /* \"#utility.yul\":13129:13508   */\n      swap2\n      swap1\n      pop\n      jump\t// out\n        /* \"#utility.yul\":13514:13683   */\n    tag_515:\n        /* \"#utility.yul\":13598:13609   */\n      0x00\n        /* \"#utility.yul\":13632:13638   */\n      dup3\n        /* \"#utility.yul\":13627:13630   */\n      dup3\n        /* \"#utility.yul\":13620:13639   */\n      mstore\n        /* \"#utility.yul\":13672:13676   */\n      0x20\n        /* \"#utility.yul\":13667:13670   */\n      dup3\n        /* \"#utility.yul\":13663:13677   */\n      add\n        /* \"#utility.yul\":13648:13677   */\n      swap1\n      pop\n        /* \"#utility.yul\":13514:13683   */\n      swap3\n      swap2\n      pop\n      pop\n      jump\t// out\n        /* \"#utility.yul\":13689:13870   */\n    tag_516:\n        /* \"#utility.yul\":13829:13862   */\n      0x5265656e7472616e637947756172643a207265656e7472616e742063616c6c00\n        /* \"#utility.yul\":13825:13826   */\n      0x00\n        /* \"#utility.yul\":13817:13823   */\n      dup3\n        /* \"#utility.yul\":13813:13827   */\n      add\n        /* \"#utility.yul\":13806:13863   */\n      mstore\n        /* \"#utility.yul\":13689:13870   */\n      pop\n      jump\t// out\n        /* \"#utility.yul\":13876:14242   */\n    tag_517:\n        /* \"#utility.yul\":14018:14021   */\n      0x00\n        /* \"#utility.yul\":14039:14106   */\n      tag_684\n        /* \"#utility.yul\":14103:14105   */\n      0x1f\n        /* \"#utility.yul\":14098:14101   */\n      dup4\n        /* \"#utility.yul\":14039:14106   */\n      tag_515\n      jump\t// in\n    tag_684:\n        /* \"#utility.yul\":14032:14106   */\n      swap2\n      pop\n        /* \"#utility.yul\":14115:14208   */\n      tag_685\n        /* \"#utility.yul\":14204:14207   */\n      dup3\n        /* \"#utility.yul\":14115:14208   */\n      tag_516\n      jump\t// in\n    tag_685:\n        /* \"#utility.yul\":14233:14235   */\n      0x20\n        /* \"#utility.yul\":14228:14231   */\n      dup3\n        /* \"#utility.yul\":14224:14236   */\n      add\n        /* \"#utility.yul\":14217:14236   */\n      swap1\n      pop\n        /* \"#utility.yul\":13876:14242   */\n      swap2\n      swap1\n      pop\n      jump\t// out\n        /* \"#utility.yul\":14248:14667   */\n    tag_466:\n        /* \"#utility.yul\":14414:14418   */\n      0x00\n        /* \"#utility.yul\":14452:14454   */\n      0x20\n        /* \"#utility.yul\":14441:14450   */\n      dup3\n        /* \"#utility.yul\":14437:14455   */\n      add\n        /* \"#utility.yul\":14429:14455   */\n      swap1\n      pop\n        /* \"#utility.yul\":14501:14510   */\n      dup2\n        /* \"#utility.yul\":14495:14499   */\n      dup2\n        /* \"#utility.yul\":14491:14511   */\n      sub\n        /* \"#utility.yul\":14487:14488   */\n      0x00\n        /* \"#utility.yul\":14476:14485   */\n      dup4\n        /* \"#utility.yul\":14472:14489   */\n      add\n        /* \"#utility.yul\":14465:14512   */\n      mstore\n        /* \"#utility.yul\":14529:14660   */\n      tag_687\n        /* \"#utility.yul\":14655:14659   */\n      dup2\n        /* \"#utility.yul\":14529:14660   */\n      tag_517\n      jump\t// in\n    tag_687:\n        /* \"#utility.yul\":14521:14660   */\n      swap1\n      pop\n        /* \"#utility.yul\":14248:14667   */\n      swap2\n      swap1\n      pop\n      jump\t// out\n        /* \"#utility.yul\":14673:15005   */\n    tag_475:\n        /* \"#utility.yul\":14794:14798   */\n      0x00\n        /* \"#utility.yul\":14832:14834   */\n      0x40\n        /* \"#utility.yul\":14821:14830   */\n      dup3\n        /* \"#utility.yul\":14817:14835   */\n      add\n        /* \"#utility.yul\":14809:14835   */\n      swap1\n      pop\n        /* \"#utility.yul\":14845:14916   */\n      tag_689\n        /* \"#utility.yul\":14913:14914   */\n      0x00\n        /* \"#utility.yul\":14902:14911   */\n      dup4\n        /* \"#utility.yul\":14898:14915   */\n      add\n        /* \"#utility.yul\":14889:14895   */\n      dup6\n        /* \"#utility.yul\":14845:14916   */\n      tag_478\n      jump\t// in\n    tag_689:\n        /* \"#utility.yul\":14926:14998   */\n      tag_690\n        /* \"#utility.yul\":14994:14996   */\n      0x20\n        /* \"#utility.yul\":14983:14992   */\n      dup4\n        /* \"#utility.yul\":14979:14997   */\n      add\n        /* \"#utility.yul\":14970:14976   */\n      dup5\n        /* \"#utility.yul\":14926:14998   */\n      tag_492\n      jump\t// in\n    tag_690:\n        /* \"#utility.yul\":14673:15005   */\n      swap4\n      swap3\n      pop\n      pop\n      pop\n      jump\t// out\n\n    auxdata: 0xa26469706673582212205cb6e67262bc923e2d39b74a667e0d6ce4c886d95e6e0f3b1f76d50666b498f764736f6c634300081e0033\n}\n",
				"bytecode": {
					"linkReferences": {},
					"object": "60e06040525f6004555f60055f6101000a8154816fffffffffffffffffffffffffffffffff02191690836fffffffffffffffffffffffffffffffff1602179055505f600560106101000a8154816fffffffffffffffffffffffffffffffff02191690836fffffffffffffffffffffffffffffffff160217905550348015610084575f5ffd5b5060405161396f38038061396f83398181016040528101906100a6919061067f565b8260015f819055505f73ffffffffffffffffffffffffffffffffffffffff168173ffffffffffffffffffffffffffffffffffffffff160361011e575f6040517f1e4fbdf70000000000000000000000000000000000000000000000000000000081526004016101159190610705565b60405180910390fd5b61012d816103ca60201b60201c565b505f850361017257846040517f7fa42be2000000000000000000000000000000000000000000000000000000008152600401610169919061072d565b60405180910390fd5b5f84036101b657836040517fd71fe66c0000000000000000000000000000000000000000000000000000000081526004016101ad919061072d565b60405180910390fd5b848411156101fd5784846040517f359f62ab0000000000000000000000000000000000000000000000000000000081526004016101f4929190610746565b60405180910390fd5b5f73ffffffffffffffffffffffffffffffffffffffff168273ffffffffffffffffffffffffffffffffffffffff1603610262576040517f4ab4914300000000000000000000000000000000000000000000000000000000815260040160405180910390fd5b5f73ffffffffffffffffffffffffffffffffffffffff168173ffffffffffffffffffffffffffffffffffffffff16036102c7576040517f4ab4914300000000000000000000000000000000000000000000000000000000815260040160405180910390fd5b6102d95f5f1b8461048d60201b60201c565b5061030a7f539440820030c4994db4e31b6b800deafd503688728f932addfe7a410515c14c8461048d60201b60201c565b5061033b7f9bbb3ee3bdfbe971682b08854a620ca4bf696f8e0c269e5c5b129a18e64d29df8461048d60201b60201c565b508073ffffffffffffffffffffffffffffffffffffffff1660808173ffffffffffffffffffffffffffffffffffffffff16815250508160035f6101000a81548173ffffffffffffffffffffffffffffffffffffffff021916908373ffffffffffffffffffffffffffffffffffffffff1602179055508460c081815250508360a08181525050505050505061076d565b5f60015f9054906101000a900473ffffffffffffffffffffffffffffffffffffffff1690508160015f6101000a81548173ffffffffffffffffffffffffffffffffffffffff021916908373ffffffffffffffffffffffffffffffffffffffff1602179055508173ffffffffffffffffffffffffffffffffffffffff168173ffffffffffffffffffffffffffffffffffffffff167f8be0079c531659141344cd1fd0a4f28419497f9722a3daafe3b4186f6b6457e060405160405180910390a35050565b5f61049e838361058360201b60201c565b61057957600160025f8581526020019081526020015f205f015f8473ffffffffffffffffffffffffffffffffffffffff1673ffffffffffffffffffffffffffffffffffffffff1681526020019081526020015f205f6101000a81548160ff0219169083151502179055506105166105e760201b60201c565b73ffffffffffffffffffffffffffffffffffffffff168273ffffffffffffffffffffffffffffffffffffffff16847f2f8788117e7eff1d82e926ec794901d17c78024a50270940304540a733656f0d60405160405180910390a46001905061057d565b5f90505b92915050565b5f60025f8481526020019081526020015f205f015f8373ffffffffffffffffffffffffffffffffffffffff1673ffffffffffffffffffffffffffffffffffffffff1681526020019081526020015f205f9054906101000a900460ff16905092915050565b5f33905090565b5f5ffd5b5f819050919050565b610604816105f2565b811461060e575f5ffd5b50565b5f8151905061061f816105fb565b92915050565b5f73ffffffffffffffffffffffffffffffffffffffff82169050919050565b5f61064e82610625565b9050919050565b61065e81610644565b8114610668575f5ffd5b50565b5f8151905061067981610655565b92915050565b5f5f5f5f5f60a08688031215610698576106976105ee565b5b5f6106a588828901610611565b95505060206106b688828901610611565b94505060406106c78882890161066b565b93505060606106d88882890161066b565b92505060806106e98882890161066b565b9150509295509295909350565b6106ff81610644565b82525050565b5f6020820190506107185f8301846106f6565b92915050565b610727816105f2565b82525050565b5f6020820190506107405f83018461071e565b92915050565b5f6040820190506107595f83018561071e565b610766602083018461071e565b9392505050565b60805160a05160c0516131926107dd5f395f818161099c015281816114fb015261245601525f818161151c01528181611d16015261208301525f8181610a1701528181610af801528181610c72015281816111f501528181611d7e01528181611e5e0152611fd801526131925ff3fe6080604052600436106101c5575f3560e01c8063977ae0d1116100f6578063d6cb9ec211610094578063f14210a611610063578063f14210a61461064e578063f2fde38b14610676578063f6326fb31461069e578063f7888aec146106a857610207565b8063d6cb9ec2146105a4578063d9dc8694146105d2578063db81f99b146105fc578063e1e158a51461062457610207565b8063c70a94e2116100d0578063c70a94e214610500578063cb14228a1461052a578063cb398eb314610552578063d547741f1461057c57610207565b8063977ae0d114610496578063a217fddf146104c0578063b33712c5146104ea57610207565b80635c975abb11610163578063715018a61161013d578063715018a6146103f25780637dc532c5146104085780638da5cb5b1461043057806391d148541461045a57610207565b80635c975abb14610376578063698b7241146103a05780636f05c64c146103c857610207565b80632f2ff15d1161019f5780632f2ff15d146102e657806336568abe1461030e578063439766ce146103365780635c8de34c1461034c57610207565b806301ffc9a7146102445780630d3c6b3414610280578063248a9ca3146102aa57610207565b3661020757336040517f9f71e9160000000000000000000000000000000000000000000000000000000081526004016101fe91906129dc565b60405180910390fd5b336040517f9f71e91600000000000000000000000000000000000000000000000000000000815260040161023b91906129dc565b60405180910390fd5b34801561024f575f5ffd5b5061026a60048036038101906102659190612a4e565b6106e4565b6040516102779190612a93565b60405180910390f35b34801561028b575f5ffd5b506102946106f5565b6040516102a19190612ac4565b60405180910390f35b3480156102b5575f5ffd5b506102d060048036038101906102cb9190612b10565b61072c565b6040516102dd9190612b4a565b60405180910390f35b3480156102f1575f5ffd5b5061030c60048036038101906103079190612b8d565b610749565b005b348015610319575f5ffd5b50610334600480360381019061032f9190612b8d565b6107ad565b005b348015610341575f5ffd5b5061034a610828565b005b348015610357575f5ffd5b50610360610936565b60405161036d9190612ac4565b60405180910390f35b348015610381575f5ffd5b5061038a61093f565b6040516103979190612a93565b60405180910390f35b3480156103ab575f5ffd5b506103c660048036038101906103c19190612bf5565b610955565b005b3480156103d3575f5ffd5b506103dc610cbb565b6040516103e99190612c7b565b60405180910390f35b3480156103fd575f5ffd5b50610406610ce0565b005b348015610413575f5ffd5b5061042e60048036038101906104299190612c94565b610cf3565b005b34801561043b575f5ffd5b50610444611019565b60405161045191906129dc565b60405180910390f35b348015610465575f5ffd5b50610480600480360381019061047b9190612b8d565b611041565b60405161048d9190612a93565b60405180910390f35b3480156104a1575f5ffd5b506104aa6110a5565b6040516104b79190612ac4565b60405180910390f35b3480156104cb575f5ffd5b506104d46110db565b6040516104e19190612b4a565b60405180910390f35b3480156104f5575f5ffd5b506104fe6110e1565b005b34801561050b575f5ffd5b506105146111ef565b6040516105219190612ac4565b60405180910390f35b348015610535575f5ffd5b50610550600480360381019061054b9190612c94565b611319565b005b34801561055d575f5ffd5b50610566611461565b6040516105739190612b4a565b60405180910390f35b348015610587575f5ffd5b506105a2600480360381019061059d9190612b8d565b611485565b005b3480156105af575f5ffd5b506105b86114e9565b6040516105c9959493929190612cbf565b60405180910390f35b3480156105dd575f5ffd5b506105e661156e565b6040516105f39190612b4a565b60405180910390f35b348015610607575f5ffd5b50610622600480360381019061061d9190612bf5565b611592565b005b34801561062f575f5ffd5b506106386115a6565b6040516106459190612ac4565b60405180910390f35b348015610659575f5ffd5b50610674600480360381019061066f9190612bf5565b6115ae565b005b348015610681575f5ffd5b5061069c60048036038101906106979190612c94565b6115c2565b005b6106a6611646565b005b3480156106b3575f5ffd5b506106ce60048036038101906106c99190612d10565b61166d565b6040516106db9190612ac4565b60405180910390f35b5f6106ee826116ef565b9050919050565b5f600560109054906101000a90046fffffffffffffffffffffffffffffffff166fffffffffffffffffffffffffffffffff16905090565b5f60025f8381526020019081526020015f20600101549050919050565b610751611768565b61075b82826117ef565b8073ffffffffffffffffffffffffffffffffffffffff167fbb64af0934ea050e4d96a052dd96271eb1b4c71f5677a4af06d78b20d9dd30cf836040516107a19190612b4a565b60405180910390a25050565b6107b5611811565b73ffffffffffffffffffffffffffffffffffffffff168173ffffffffffffffffffffffffffffffffffffffff1614610819576040517f6697b23200000000000000000000000000000000000000000000000000000000815260040160405180910390fd5b6108238282611818565b505050565b7f539440820030c4994db4e31b6b800deafd503688728f932addfe7a410515c14c3373ffffffffffffffffffffffffffffffffffffffff16610868611019565b73ffffffffffffffffffffffffffffffffffffffff161415801561089357506108918133611041565b155b156108d557336040517f943fb0780000000000000000000000000000000000000000000000000000000081526004016108cc91906129dc565b60405180910390fd5b6108dd611902565b6108e5611943565b3373ffffffffffffffffffffffffffffffffffffffff167f46d2a254c0536d2a30fdfa06db40b28b09743afe6f05aeb9f03a56c4cec0ef084260405161092b9190612ac4565b60405180910390a250565b5f600454905090565b5f600160149054906101000a900460ff16905090565b805f810361099a57336040517f1b8b1c9100000000000000000000000000000000000000000000000000000000815260040161099191906129dc565b60405180910390fd5b7f0000000000000000000000000000000000000000000000000000000000000000600454826109c99190612d7b565b1115610a0c57806040517ff367fd73000000000000000000000000000000000000000000000000000000008152600401610a039190612ac4565b60405180910390fd5b610a14611902565b817f000000000000000000000000000000000000000000000000000000000000000073ffffffffffffffffffffffffffffffffffffffff1663dd62ed3e33306040518363ffffffff1660e01b8152600401610a70929190612dae565b602060405180830381865afa158015610a8b573d5f5f3e3d5ffd5b505050506040513d601f19601f82011682018060405250810190610aaf9190612de9565b1015610af257816040517faa9a0a9d000000000000000000000000000000000000000000000000000000008152600401610ae99190612ac4565b60405180910390fd5b8160065f7f000000000000000000000000000000000000000000000000000000000000000073ffffffffffffffffffffffffffffffffffffffff1673ffffffffffffffffffffffffffffffffffffffff1681526020019081526020015f205f3373ffffffffffffffffffffffffffffffffffffffff1673ffffffffffffffffffffffffffffffffffffffff1681526020019081526020015f205f828254610b999190612d7b565b9250508190555060055f81819054906101000a90046fffffffffffffffffffffffffffffffff1680929190610bcd90612e2f565b91906101000a8154816fffffffffffffffffffffffffffffffff02191690836fffffffffffffffffffffffffffffffff160217905550508160045f828254610c159190612d7b565b925050819055503373ffffffffffffffffffffffffffffffffffffffff167f7b7cd0ddbbea241880e825e1eb51c30752cb96dd7efeb4be691ec55dfa4d896383604051610c629190612ac4565b60405180910390a2610cb73330847f000000000000000000000000000000000000000000000000000000000000000073ffffffffffffffffffffffffffffffffffffffff166119a5909392919063ffffffff16565b5050565b60035f9054906101000a900473ffffffffffffffffffffffffffffffffffffffff1681565b610ce8611768565b610cf15f611a27565b565b7f9bbb3ee3bdfbe971682b08854a620ca4bf696f8e0c269e5c5b129a18e64d29df3373ffffffffffffffffffffffffffffffffffffffff16610d33611019565b73ffffffffffffffffffffffffffffffffffffffff1614158015610d5e5750610d5c8133611041565b155b15610da057336040517f943fb078000000000000000000000000000000000000000000000000000000008152600401610d9791906129dc565b60405180910390fd5b610da8611aea565b5f73ffffffffffffffffffffffffffffffffffffffff168273ffffffffffffffffffffffffffffffffffffffff1603610e0d576040517f4ab4914300000000000000000000000000000000000000000000000000000000815260040160405180910390fd5b8173ffffffffffffffffffffffffffffffffffffffff1663feaf968c6040518163ffffffff1660e01b815260040160a060405180830381865afa925050508015610e7557506040513d601f19601f82011682018060405250810190610e729190612ed8565b60015b610eb657816040517f83f68e89000000000000000000000000000000000000000000000000000000008152600401610ead91906129dc565b60405180910390fd5b5f8413610efa57866040517f83f68e89000000000000000000000000000000000000000000000000000000008152600401610ef191906129dc565b60405180910390fd5b610e1061ffff168242610f0d9190612f4f565b1115610f5057836040517f02f8429d000000000000000000000000000000000000000000000000000000008152600401610f479190612ac4565b60405180910390fd5b5f60035f9054906101000a900473ffffffffffffffffffffffffffffffffffffffff1690508760035f6101000a81548173ffffffffffffffffffffffffffffffffffffffff021916908373ffffffffffffffffffffffffffffffffffffffff1602179055508773ffffffffffffffffffffffffffffffffffffffff168173ffffffffffffffffffffffffffffffffffffffff167f076732c6a675470899fcb32bd34014d244a2b780f6812f8f818b26f893f79cdd60405160405180910390a35050505050505050565b5f60015f9054906101000a900473ffffffffffffffffffffffffffffffffffffffff16905090565b5f60025f8481526020019081526020015f205f015f8373ffffffffffffffffffffffffffffffffffffffff1673ffffffffffffffffffffffffffffffffffffffff1681526020019081526020015f205f9054906101000a900460ff16905092915050565b5f60055f9054906101000a90046fffffffffffffffffffffffffffffffff166fffffffffffffffffffffffffffffffff16905090565b5f5f1b81565b7f539440820030c4994db4e31b6b800deafd503688728f932addfe7a410515c14c3373ffffffffffffffffffffffffffffffffffffffff16611121611019565b73ffffffffffffffffffffffffffffffffffffffff161415801561114c575061114a8133611041565b155b1561118e57336040517f943fb07800000000000000000000000000000000000000000000000000000000815260040161118591906129dc565b60405180910390fd5b611196611aea565b61119e611b2a565b3373ffffffffffffffffffffffffffffffffffffffff167fe27d6b7b96c20e997f5082ff560410b815a1ecd7464e0ded63e7688e45d9b573426040516111e49190612ac4565b60405180910390a250565b5f60065f7f000000000000000000000000000000000000000000000000000000000000000073ffffffffffffffffffffffffffffffffffffffff1673ffffffffffffffffffffffffffffffffffffffff1681526020019081526020015f205f3373ffffffffffffffffffffffffffffffffffffffff1673ffffffffffffffffffffffffffffffffffffffff1681526020019081526020015f205461130a60065f5f73ffffffffffffffffffffffffffffffffffffffff1673ffffffffffffffffffffffffffffffffffffffff1681526020019081526020015f205f3373ffffffffffffffffffffffffffffffffffffffff1673ffffffffffffffffffffffffffffffffffffffff1681526020019081526020015f2054611b8c565b6113149190612d7b565b905090565b611321611768565b611329611aea565b5f611332611019565b90506113405f5f1b82611818565b5061136b7f539440820030c4994db4e31b6b800deafd503688728f932addfe7a410515c14c82611818565b506113967f9bbb3ee3bdfbe971682b08854a620ca4bf696f8e0c269e5c5b129a18e64d29df82611818565b506113a082611a27565b6113ac5f5f1b83611bbb565b506113d77f9bbb3ee3bdfbe971682b08854a620ca4bf696f8e0c269e5c5b129a18e64d29df83611bbb565b506114027f539440820030c4994db4e31b6b800deafd503688728f932addfe7a410515c14c83611bbb565b508173ffffffffffffffffffffffffffffffffffffffff168173ffffffffffffffffffffffffffffffffffffffff167f8bfdc1921679312be467b7979ccd28dc2bc1d122f99c6123d976f0bf50a3b43560405160405180910390a35050565b7f9bbb3ee3bdfbe971682b08854a620ca4bf696f8e0c269e5c5b129a18e64d29df81565b61148d611768565b6114978282611ca5565b8073ffffffffffffffffffffffffffffffffffffffff167f28005222cf9fd144f6f3a53f9517fd413afe5d9b67fd4cf81ddd013486721702836040516114dd9190612b4a565b60405180910390a25050565b5f5f5f5f5f6114f661093f565b6004547f00000000000000000000000000000000000000000000000000000000000000007f000000000000000000000000000000000000000000000000000000000000000060035f9054906101000a900473ffffffffffffffffffffffffffffffffffffffff16945094509450945094509091929394565b7f539440820030c4994db4e31b6b800deafd503688728f932addfe7a410515c14c81565b61159a611902565b6115a381611cc7565b50565b633b9aca0081565b6115b6611902565b6115bf81612028565b50565b6115ca611768565b5f73ffffffffffffffffffffffffffffffffffffffff168173ffffffffffffffffffffffffffffffffffffffff160361163a575f6040517f1e4fbdf700000000000000000000000000000000000000000000000000000000815260040161163191906129dc565b60405180910390fd5b61164381611a27565b50565b61164e611902565b5f3490505f61165c82611b8c565b90506116693382846123c5565b5050565b5f60065f8373ffffffffffffffffffffffffffffffffffffffff1673ffffffffffffffffffffffffffffffffffffffff1681526020019081526020015f205f8473ffffffffffffffffffffffffffffffffffffffff1673ffffffffffffffffffffffffffffffffffffffff1681526020019081526020015f2054905092915050565b5f7f7965db0b000000000000000000000000000000000000000000000000000000007bffffffffffffffffffffffffffffffffffffffffffffffffffffffff1916827bffffffffffffffffffffffffffffffffffffffffffffffffffffffff19161480611761575061176082612625565b5b9050919050565b611770611811565b73ffffffffffffffffffffffffffffffffffffffff1661178e611019565b73ffffffffffffffffffffffffffffffffffffffff16146117ed576117b1611811565b6040517f118cdaa70000000000000000000000000000000000000000000000000000000081526004016117e491906129dc565b60405180910390fd5b565b6117f88261072c565b6118018161268e565b61180b8383611bbb565b50505050565b5f33905090565b5f6118238383611041565b156118f8575f60025f8581526020019081526020015f205f015f8473ffffffffffffffffffffffffffffffffffffffff1673ffffffffffffffffffffffffffffffffffffffff1681526020019081526020015f205f6101000a81548160ff021916908315150217905550611895611811565b73ffffffffffffffffffffffffffffffffffffffff168273ffffffffffffffffffffffffffffffffffffffff16847ff6391f5c32d9c69d2a47ea670b442974b53935d1edc7fd64eb21e047a839171b60405160405180910390a4600190506118fc565b5f90505b92915050565b61190a61093f565b15611941576040517fd93c066500000000000000000000000000000000000000000000000000000000815260040160405180910390fd5b565b61194b611902565b60018060146101000a81548160ff0219169083151502179055507f62e78cea01bee320cd4e420270b5ea74000d11b0c9f74754ebdbfc544b05a25861198e611811565b60405161199b91906129dc565b60405180910390a1565b611a21848573ffffffffffffffffffffffffffffffffffffffff166323b872dd8686866040516024016119da93929190612f82565b604051602081830303815290604052915060e01b6020820180517bffffffffffffffffffffffffffffffffffffffffffffffffffffffff83818316178352505050506126a2565b50505050565b5f60015f9054906101000a900473ffffffffffffffffffffffffffffffffffffffff1690508160015f6101000a81548173ffffffffffffffffffffffffffffffffffffffff021916908373ffffffffffffffffffffffffffffffffffffffff1602179055508173ffffffffffffffffffffffffffffffffffffffff168173ffffffffffffffffffffffffffffffffffffffff167f8be0079c531659141344cd1fd0a4f28419497f9722a3daafe3b4186f6b6457e060405160405180910390a35050565b611af261093f565b611b28576040517f8dfc202b00000000000000000000000000000000000000000000000000000000815260040160405180910390fd5b565b611b32611aea565b5f600160146101000a81548160ff0219169083151502179055507f5db9ee0a495bf2e6ff9c91a7834c1ba4fdd244a5e8aa4e537bd38aeae4b073aa611b75611811565b604051611b8291906129dc565b60405180910390a1565b5f68056bc75e2d63100000611b9f61273d565b83611baa9190612fb7565b611bb49190613025565b9050919050565b5f611bc68383611041565b611c9b57600160025f8581526020019081526020015f205f015f8473ffffffffffffffffffffffffffffffffffffffff1673ffffffffffffffffffffffffffffffffffffffff1681526020019081526020015f205f6101000a81548160ff021916908315150217905550611c38611811565b73ffffffffffffffffffffffffffffffffffffffff168273ffffffffffffffffffffffffffffffffffffffff16847f2f8788117e7eff1d82e926ec794901d17c78024a50270940304540a733656f0d60405160405180910390a460019050611c9f565b5f90505b92915050565b611cae8261072c565b611cb78161268e565b611cc18383611818565b50505050565b611ccf612877565b805f8103611d1457336040517f1b8b1c91000000000000000000000000000000000000000000000000000000008152600401611d0b91906129dc565b60405180910390fd5b7f0000000000000000000000000000000000000000000000000000000000000000811115611d7957806040517f764e5de2000000000000000000000000000000000000000000000000000000008152600401611d709190612ac4565b60405180910390fd5b60065f7f000000000000000000000000000000000000000000000000000000000000000073ffffffffffffffffffffffffffffffffffffffff1673ffffffffffffffffffffffffffffffffffffffff1681526020019081526020015f205f3373ffffffffffffffffffffffffffffffffffffffff1673ffffffffffffffffffffffffffffffffffffffff1681526020019081526020015f2054811115611e585733816040517fbaa7a165000000000000000000000000000000000000000000000000000000008152600401611e4f929190613055565b60405180910390fd5b8160065f7f000000000000000000000000000000000000000000000000000000000000000073ffffffffffffffffffffffffffffffffffffffff1673ffffffffffffffffffffffffffffffffffffffff1681526020019081526020015f205f3373ffffffffffffffffffffffffffffffffffffffff1673ffffffffffffffffffffffffffffffffffffffff1681526020019081526020015f205f828254611eff9190612f4f565b925050819055506005601081819054906101000a90046fffffffffffffffffffffffffffffffff1680929190611f3490612e2f565b91906101000a8154816fffffffffffffffffffffffffffffffff02191690836fffffffffffffffffffffffffffffffff160217905550508160045f828254611f7c9190612f4f565b925050819055503373ffffffffffffffffffffffffffffffffffffffff167f1ff21e81cff87fccbac096ad565f52cb1b358db04a736a6a137cceb4a287a70283604051611fc99190612ac4565b60405180910390a261201c33837f000000000000000000000000000000000000000000000000000000000000000073ffffffffffffffffffffffffffffffffffffffff166128c49092919063ffffffff16565b50612025612943565b50565b612030612877565b805f61203b82611b8c565b90505f810361208157336040517f1b8b1c9100000000000000000000000000000000000000000000000000000000815260040161207891906129dc565b60405180910390fd5b7f00000000000000000000000000000000000000000000000000000000000000008111156120e657806040517f764e5de20000000000000000000000000000000000000000000000000000000081526004016120dd9190612ac4565b60405180910390fd5b60065f5f73ffffffffffffffffffffffffffffffffffffffff1673ffffffffffffffffffffffffffffffffffffffff1681526020019081526020015f205f3373ffffffffffffffffffffffffffffffffffffffff1673ffffffffffffffffffffffffffffffffffffffff1681526020019081526020015f20548211156121a55733816040517fbaa7a16500000000000000000000000000000000000000000000000000000000815260040161219c929190613055565b60405180910390fd5b5f6121af84611b8c565b90508360065f5f73ffffffffffffffffffffffffffffffffffffffff1673ffffffffffffffffffffffffffffffffffffffff1681526020019081526020015f205f3373ffffffffffffffffffffffffffffffffffffffff1673ffffffffffffffffffffffffffffffffffffffff1681526020019081526020015f205f8282546122389190612f4f565b925050819055506005601081819054906101000a90046fffffffffffffffffffffffffffffffff168092919061226d90612e2f565b91906101000a8154816fffffffffffffffffffffffffffffffff02191690836fffffffffffffffffffffffffffffffff160217905550508060045f8282546122b59190612f4f565b925050819055503373ffffffffffffffffffffffffffffffffffffffff167f1ff21e81cff87fccbac096ad565f52cb1b358db04a736a6a137cceb4a287a702826040516123029190612ac4565b60405180910390a25f3373ffffffffffffffffffffffffffffffffffffffff168560405161232f906130a9565b5f6040518083038185875af1925050503d805f8114612369576040519150601f19603f3d011682016040523d82523d5f602084013e61236e565b606091505b50509050806123b65733856040517f616624370000000000000000000000000000000000000000000000000000000081526004016123ad929190613055565b60405180910390fd5b505050506123c2612943565b50565b8181633b9aca0081101561241057806040517fd3c36e3a0000000000000000000000000000000000000000000000000000000081526004016124079190612ac4565b60405180910390fd5b5f820361245457336040517f1b8b1c9100000000000000000000000000000000000000000000000000000000815260040161244b91906129dc565b60405180910390fd5b7f0000000000000000000000000000000000000000000000000000000000000000600454836124839190612d7b565b11156124c657816040517ff367fd730000000000000000000000000000000000000000000000000000000081526004016124bd9190612ac4565b60405180910390fd5b8260065f5f73ffffffffffffffffffffffffffffffffffffffff1673ffffffffffffffffffffffffffffffffffffffff1681526020019081526020015f205f8773ffffffffffffffffffffffffffffffffffffffff1673ffffffffffffffffffffffffffffffffffffffff1681526020019081526020015f205f82825461254d9190612d7b565b9250508190555060055f81819054906101000a90046fffffffffffffffffffffffffffffffff168092919061258190612e2f565b91906101000a8154816fffffffffffffffffffffffffffffffff02191690836fffffffffffffffffffffffffffffffff160217905550508360045f8282546125c99190612d7b565b925050819055508473ffffffffffffffffffffffffffffffffffffffff167f7b7cd0ddbbea241880e825e1eb51c30752cb96dd7efeb4be691ec55dfa4d8963856040516126169190612ac4565b60405180910390a25050505050565b5f7f01ffc9a7000000000000000000000000000000000000000000000000000000007bffffffffffffffffffffffffffffffffffffffffffffffffffffffff1916827bffffffffffffffffffffffffffffffffffffffffffffffffffffffff1916149050919050565b61269f8161269a611811565b61294c565b50565b5f5f60205f8451602086015f885af1806126c1576040513d5f823e3d81fd5b3d92505f519150505f82146126da5760018114156126f5565b5f8473ffffffffffffffffffffffffffffffffffffffff163b145b1561273757836040517f5274afe700000000000000000000000000000000000000000000000000000000815260040161272e91906129dc565b60405180910390fd5b50505050565b5f5f5f60035f9054906101000a900473ffffffffffffffffffffffffffffffffffffffff1673ffffffffffffffffffffffffffffffffffffffff1663feaf968c6040518163ffffffff1660e01b815260040160a060405180830381865afa1580156127aa573d5f5f3e3d5ffd5b505050506040513d601f19601f820116820180604052508101906127ce9190612ed8565b509350509250505f821361281957816040517ffe7373760000000000000000000000000000000000000000000000000000000081526004016128109190612ac4565b60405180910390fd5b610e1061ffff16814261282c9190612f4f565b111561286f57816040517f02f8429d0000000000000000000000000000000000000000000000000000000081526004016128669190612ac4565b60405180910390fd5b819250505090565b60025f54036128bb576040517f08c379a00000000000000000000000000000000000000000000000000000000081526004016128b290613117565b60405180910390fd5b60025f81905550565b61293e838473ffffffffffffffffffffffffffffffffffffffff1663a9059cbb85856040516024016128f7929190613055565b604051602081830303815290604052915060e01b6020820180517bffffffffffffffffffffffffffffffffffffffffffffffffffffffff83818316178352505050506126a2565b505050565b60015f81905550565b6129568282611041565b6129995780826040517fe2517d3f000000000000000000000000000000000000000000000000000000008152600401612990929190613135565b60405180910390fd5b5050565b5f73ffffffffffffffffffffffffffffffffffffffff82169050919050565b5f6129c68261299d565b9050919050565b6129d6816129bc565b82525050565b5f6020820190506129ef5f8301846129cd565b92915050565b5f5ffd5b5f7fffffffff0000000000000000000000000000000000000000000000000000000082169050919050565b612a2d816129f9565b8114612a37575f5ffd5b50565b5f81359050612a4881612a24565b92915050565b5f60208284031215612a6357612a626129f5565b5b5f612a7084828501612a3a565b91505092915050565b5f8115159050919050565b612a8d81612a79565b82525050565b5f602082019050612aa65f830184612a84565b92915050565b5f819050919050565b612abe81612aac565b82525050565b5f602082019050612ad75f830184612ab5565b92915050565b5f819050919050565b612aef81612add565b8114612af9575f5ffd5b50565b5f81359050612b0a81612ae6565b92915050565b5f60208284031215612b2557612b246129f5565b5b5f612b3284828501612afc565b91505092915050565b612b4481612add565b82525050565b5f602082019050612b5d5f830184612b3b565b92915050565b612b6c816129bc565b8114612b76575f5ffd5b50565b5f81359050612b8781612b63565b92915050565b5f5f60408385031215612ba357612ba26129f5565b5b5f612bb085828601612afc565b9250506020612bc185828601612b79565b9150509250929050565b612bd481612aac565b8114612bde575f5ffd5b50565b5f81359050612bef81612bcb565b92915050565b5f60208284031215612c0a57612c096129f5565b5b5f612c1784828501612be1565b91505092915050565b5f819050919050565b5f612c43612c3e612c398461299d565b612c20565b61299d565b9050919050565b5f612c5482612c29565b9050919050565b5f612c6582612c4a565b9050919050565b612c7581612c5b565b82525050565b5f602082019050612c8e5f830184612c6c565b92915050565b5f60208284031215612ca957612ca86129f5565b5b5f612cb684828501612b79565b91505092915050565b5f60a082019050612cd25f830188612a84565b612cdf6020830187612ab5565b612cec6040830186612ab5565b612cf96060830185612ab5565b612d0660808301846129cd565b9695505050505050565b5f5f60408385031215612d2657612d256129f5565b5b5f612d3385828601612b79565b9250506020612d4485828601612b79565b9150509250929050565b7f4e487b71000000000000000000000000000000000000000000000000000000005f52601160045260245ffd5b5f612d8582612aac565b9150612d9083612aac565b9250828201905080821115612da857612da7612d4e565b5b92915050565b5f604082019050612dc15f8301856129cd565b612dce60208301846129cd565b9392505050565b5f81519050612de381612bcb565b92915050565b5f60208284031215612dfe57612dfd6129f5565b5b5f612e0b84828501612dd5565b91505092915050565b5f6fffffffffffffffffffffffffffffffff82169050919050565b5f612e3982612e14565b91506fffffffffffffffffffffffffffffffff8203612e5b57612e5a612d4e565b5b600182019050919050565b5f69ffffffffffffffffffff82169050919050565b612e8481612e66565b8114612e8e575f5ffd5b50565b5f81519050612e9f81612e7b565b92915050565b5f819050919050565b612eb781612ea5565b8114612ec1575f5ffd5b50565b5f81519050612ed281612eae565b92915050565b5f5f5f5f5f60a08688031215612ef157612ef06129f5565b5b5f612efe88828901612e91565b9550506020612f0f88828901612ec4565b9450506040612f2088828901612dd5565b9350506060612f3188828901612dd5565b9250506080612f4288828901612e91565b9150509295509295909350565b5f612f5982612aac565b9150612f6483612aac565b9250828203905081811115612f7c57612f7b612d4e565b5b92915050565b5f606082019050612f955f8301866129cd565b612fa260208301856129cd565b612faf6040830184612ab5565b949350505050565b5f612fc182612aac565b9150612fcc83612aac565b9250828202612fda81612aac565b91508282048414831517612ff157612ff0612d4e565b5b5092915050565b7f4e487b71000000000000000000000000000000000000000000000000000000005f52601260045260245ffd5b5f61302f82612aac565b915061303a83612aac565b92508261304a57613049612ff8565b5b828204905092915050565b5f6040820190506130685f8301856129cd565b6130756020830184612ab5565b9392505050565b5f81905092915050565b50565b5f6130945f8361307c565b915061309f82613086565b5f82019050919050565b5f6130b382613089565b9150819050919050565b5f82825260208201905092915050565b7f5265656e7472616e637947756172643a207265656e7472616e742063616c6c005f82015250565b5f613101601f836130bd565b915061310c826130cd565b602082019050919050565b5f6020820190508181035f83015261312e816130f5565b9050919050565b5f6040820190506131485f8301856129cd565b6131556020830184612b3b565b939250505056fea26469706673582212205cb6e67262bc923e2d39b74a667e0d6ce4c886d95e6e0f3b1f76d50666b498f764736f6c634300081e0033",
					"opcodes": "PUSH1 0xE0 PUSH1 0x40 MSTORE PUSH0 PUSH1 0x4 SSTORE PUSH0 PUSH1 0x5 PUSH0 PUSH2 0x100 EXP DUP2 SLOAD DUP2 PUSH16 0xFFFFFFFFFFFFFFFFFFFFFFFFFFFFFFFF MUL NOT AND SWAP1 DUP4 PUSH16 0xFFFFFFFFFFFFFFFFFFFFFFFFFFFFFFFF AND MUL OR SWAP1 SSTORE POP PUSH0 PUSH1 0x5 PUSH1 0x10 PUSH2 0x100 EXP DUP2 SLOAD DUP2 PUSH16 0xFFFFFFFFFFFFFFFFFFFFFFFFFFFFFFFF MUL NOT AND SWAP1 DUP4 PUSH16 0xFFFFFFFFFFFFFFFFFFFFFFFFFFFFFFFF AND MUL OR SWAP1 SSTORE POP CALLVALUE DUP1 ISZERO PUSH2 0x84 JUMPI PUSH0 PUSH0 REVERT JUMPDEST POP PUSH1 0x40 MLOAD PUSH2 0x396F CODESIZE SUB DUP1 PUSH2 0x396F DUP4 CODECOPY DUP2 DUP2 ADD PUSH1 0x40 MSTORE DUP2 ADD SWAP1 PUSH2 0xA6 SWAP2 SWAP1 PUSH2 0x67F JUMP JUMPDEST DUP3 PUSH1 0x1 PUSH0 DUP2 SWAP1 SSTORE POP PUSH0 PUSH20 0xFFFFFFFFFFFFFFFFFFFFFFFFFFFFFFFFFFFFFFFF AND DUP2 PUSH20 0xFFFFFFFFFFFFFFFFFFFFFFFFFFFFFFFFFFFFFFFF AND SUB PUSH2 0x11E JUMPI PUSH0 PUSH1 0x40 MLOAD PUSH32 0x1E4FBDF700000000000000000000000000000000000000000000000000000000 DUP2 MSTORE PUSH1 0x4 ADD PUSH2 0x115 SWAP2 SWAP1 PUSH2 0x705 JUMP JUMPDEST PUSH1 0x40 MLOAD DUP1 SWAP2 SUB SWAP1 REVERT JUMPDEST PUSH2 0x12D DUP2 PUSH2 0x3CA PUSH1 0x20 SHL PUSH1 0x20 SHR JUMP JUMPDEST POP PUSH0 DUP6 SUB PUSH2 0x172 JUMPI DUP5 PUSH1 0x40 MLOAD PUSH32 0x7FA42BE200000000000000000000000000000000000000000000000000000000 DUP2 MSTORE PUSH1 0x4 ADD PUSH2 0x169 SWAP2 SWAP1 PUSH2 0x72D JUMP JUMPDEST PUSH1 0x40 MLOAD DUP1 SWAP2 SUB SWAP1 REVERT JUMPDEST PUSH0 DUP5 SUB PUSH2 0x1B6 JUMPI DUP4 PUSH1 0x40 MLOAD PUSH32 0xD71FE66C00000000000000000000000000000000000000000000000000000000 DUP2 MSTORE PUSH1 0x4 ADD PUSH2 0x1AD SWAP2 SWAP1 PUSH2 0x72D JUMP JUMPDEST PUSH1 0x40 MLOAD DUP1 SWAP2 SUB SWAP1 REVERT JUMPDEST DUP5 DUP5 GT ISZERO PUSH2 0x1FD JUMPI DUP5 DUP5 PUSH1 0x40 MLOAD PUSH32 0x359F62AB00000000000000000000000000000000000000000000000000000000 DUP2 MSTORE PUSH1 0x4 ADD PUSH2 0x1F4 SWAP3 SWAP2 SWAP1 PUSH2 0x746 JUMP JUMPDEST PUSH1 0x40 MLOAD DUP1 SWAP2 SUB SWAP1 REVERT JUMPDEST PUSH0 PUSH20 0xFFFFFFFFFFFFFFFFFFFFFFFFFFFFFFFFFFFFFFFF AND DUP3 PUSH20 0xFFFFFFFFFFFFFFFFFFFFFFFFFFFFFFFFFFFFFFFF AND SUB PUSH2 0x262 JUMPI PUSH1 0x40 MLOAD PUSH32 0x4AB4914300000000000000000000000000000000000000000000000000000000 DUP2 MSTORE PUSH1 0x4 ADD PUSH1 0x40 MLOAD DUP1 SWAP2 SUB SWAP1 REVERT JUMPDEST PUSH0 PUSH20 0xFFFFFFFFFFFFFFFFFFFFFFFFFFFFFFFFFFFFFFFF AND DUP2 PUSH20 0xFFFFFFFFFFFFFFFFFFFFFFFFFFFFFFFFFFFFFFFF AND SUB PUSH2 0x2C7 JUMPI PUSH1 0x40 MLOAD PUSH32 0x4AB4914300000000000000000000000000000000000000000000000000000000 DUP2 MSTORE PUSH1 0x4 ADD PUSH1 0x40 MLOAD DUP1 SWAP2 SUB SWAP1 REVERT JUMPDEST PUSH2 0x2D9 PUSH0 PUSH0 SHL DUP5 PUSH2 0x48D PUSH1 0x20 SHL PUSH1 0x20 SHR JUMP JUMPDEST POP PUSH2 0x30A PUSH32 0x539440820030C4994DB4E31B6B800DEAFD503688728F932ADDFE7A410515C14C DUP5 PUSH2 0x48D PUSH1 0x20 SHL PUSH1 0x20 SHR JUMP JUMPDEST POP PUSH2 0x33B PUSH32 0x9BBB3EE3BDFBE971682B08854A620CA4BF696F8E0C269E5C5B129A18E64D29DF DUP5 PUSH2 0x48D PUSH1 0x20 SHL PUSH1 0x20 SHR JUMP JUMPDEST POP DUP1 PUSH20 0xFFFFFFFFFFFFFFFFFFFFFFFFFFFFFFFFFFFFFFFF AND PUSH1 0x80 DUP2 PUSH20 0xFFFFFFFFFFFFFFFFFFFFFFFFFFFFFFFFFFFFFFFF AND DUP2 MSTORE POP POP DUP2 PUSH1 0x3 PUSH0 PUSH2 0x100 EXP DUP2 SLOAD DUP2 PUSH20 0xFFFFFFFFFFFFFFFFFFFFFFFFFFFFFFFFFFFFFFFF MUL NOT AND SWAP1 DUP4 PUSH20 0xFFFFFFFFFFFFFFFFFFFFFFFFFFFFFFFFFFFFFFFF AND MUL OR SWAP1 SSTORE POP DUP5 PUSH1 0xC0 DUP2 DUP2 MSTORE POP POP DUP4 PUSH1 0xA0 DUP2 DUP2 MSTORE POP POP POP POP POP POP POP PUSH2 0x76D JUMP JUMPDEST PUSH0 PUSH1 0x1 PUSH0 SWAP1 SLOAD SWAP1 PUSH2 0x100 EXP SWAP1 DIV PUSH20 0xFFFFFFFFFFFFFFFFFFFFFFFFFFFFFFFFFFFFFFFF AND SWAP1 POP DUP2 PUSH1 0x1 PUSH0 PUSH2 0x100 EXP DUP2 SLOAD DUP2 PUSH20 0xFFFFFFFFFFFFFFFFFFFFFFFFFFFFFFFFFFFFFFFF MUL NOT AND SWAP1 DUP4 PUSH20 0xFFFFFFFFFFFFFFFFFFFFFFFFFFFFFFFFFFFFFFFF AND MUL OR SWAP1 SSTORE POP DUP2 PUSH20 0xFFFFFFFFFFFFFFFFFFFFFFFFFFFFFFFFFFFFFFFF AND DUP2 PUSH20 0xFFFFFFFFFFFFFFFFFFFFFFFFFFFFFFFFFFFFFFFF AND PUSH32 0x8BE0079C531659141344CD1FD0A4F28419497F9722A3DAAFE3B4186F6B6457E0 PUSH1 0x40 MLOAD PUSH1 0x40 MLOAD DUP1 SWAP2 SUB SWAP1 LOG3 POP POP JUMP JUMPDEST PUSH0 PUSH2 0x49E DUP4 DUP4 PUSH2 0x583 PUSH1 0x20 SHL PUSH1 0x20 SHR JUMP JUMPDEST PUSH2 0x579 JUMPI PUSH1 0x1 PUSH1 0x2 PUSH0 DUP6 DUP2 MSTORE PUSH1 0x20 ADD SWAP1 DUP2 MSTORE PUSH1 0x20 ADD PUSH0 KECCAK256 PUSH0 ADD PUSH0 DUP5 PUSH20 0xFFFFFFFFFFFFFFFFFFFFFFFFFFFFFFFFFFFFFFFF AND PUSH20 0xFFFFFFFFFFFFFFFFFFFFFFFFFFFFFFFFFFFFFFFF AND DUP2 MSTORE PUSH1 0x20 ADD SWAP1 DUP2 MSTORE PUSH1 0x20 ADD PUSH0 KECCAK256 PUSH0 PUSH2 0x100 EXP DUP2 SLOAD DUP2 PUSH1 0xFF MUL NOT AND SWAP1 DUP4 ISZERO ISZERO MUL OR SWAP1 SSTORE POP PUSH2 0x516 PUSH2 0x5E7 PUSH1 0x20 SHL PUSH1 0x20 SHR JUMP JUMPDEST PUSH20 0xFFFFFFFFFFFFFFFFFFFFFFFFFFFFFFFFFFFFFFFF AND DUP3 PUSH20 0xFFFFFFFFFFFFFFFFFFFFFFFFFFFFFFFFFFFFFFFF AND DUP5 PUSH32 0x2F8788117E7EFF1D82E926EC794901D17C78024A50270940304540A733656F0D PUSH1 0x40 MLOAD PUSH1 0x40 MLOAD DUP1 SWAP2 SUB SWAP1 LOG4 PUSH1 0x1 SWAP1 POP PUSH2 0x57D JUMP JUMPDEST PUSH0 SWAP1 POP JUMPDEST SWAP3 SWAP2 POP POP JUMP JUMPDEST PUSH0 PUSH1 0x2 PUSH0 DUP5 DUP2 MSTORE PUSH1 0x20 ADD SWAP1 DUP2 MSTORE PUSH1 0x20 ADD PUSH0 KECCAK256 PUSH0 ADD PUSH0 DUP4 PUSH20 0xFFFFFFFFFFFFFFFFFFFFFFFFFFFFFFFFFFFFFFFF AND PUSH20 0xFFFFFFFFFFFFFFFFFFFFFFFFFFFFFFFFFFFFFFFF AND DUP2 MSTORE PUSH1 0x20 ADD SWAP1 DUP2 MSTORE PUSH1 0x20 ADD PUSH0 KECCAK256 PUSH0 SWAP1 SLOAD SWAP1 PUSH2 0x100 EXP SWAP1 DIV PUSH1 0xFF AND SWAP1 POP SWAP3 SWAP2 POP POP JUMP JUMPDEST PUSH0 CALLER SWAP1 POP SWAP1 JUMP JUMPDEST PUSH0 PUSH0 REVERT JUMPDEST PUSH0 DUP2 SWAP1 POP SWAP2 SWAP1 POP JUMP JUMPDEST PUSH2 0x604 DUP2 PUSH2 0x5F2 JUMP JUMPDEST DUP2 EQ PUSH2 0x60E JUMPI PUSH0 PUSH0 REVERT JUMPDEST POP JUMP JUMPDEST PUSH0 DUP2 MLOAD SWAP1 POP PUSH2 0x61F DUP2 PUSH2 0x5FB JUMP JUMPDEST SWAP3 SWAP2 POP POP JUMP JUMPDEST PUSH0 PUSH20 0xFFFFFFFFFFFFFFFFFFFFFFFFFFFFFFFFFFFFFFFF DUP3 AND SWAP1 POP SWAP2 SWAP1 POP JUMP JUMPDEST PUSH0 PUSH2 0x64E DUP3 PUSH2 0x625 JUMP JUMPDEST SWAP1 POP SWAP2 SWAP1 POP JUMP JUMPDEST PUSH2 0x65E DUP2 PUSH2 0x644 JUMP JUMPDEST DUP2 EQ PUSH2 0x668 JUMPI PUSH0 PUSH0 REVERT JUMPDEST POP JUMP JUMPDEST PUSH0 DUP2 MLOAD SWAP1 POP PUSH2 0x679 DUP2 PUSH2 0x655 JUMP JUMPDEST SWAP3 SWAP2 POP POP JUMP JUMPDEST PUSH0 PUSH0 PUSH0 PUSH0 PUSH0 PUSH1 0xA0 DUP7 DUP9 SUB SLT ISZERO PUSH2 0x698 JUMPI PUSH2 0x697 PUSH2 0x5EE JUMP JUMPDEST JUMPDEST PUSH0 PUSH2 0x6A5 DUP9 DUP3 DUP10 ADD PUSH2 0x611 JUMP JUMPDEST SWAP6 POP POP PUSH1 0x20 PUSH2 0x6B6 DUP9 DUP3 DUP10 ADD PUSH2 0x611 JUMP JUMPDEST SWAP5 POP POP PUSH1 0x40 PUSH2 0x6C7 DUP9 DUP3 DUP10 ADD PUSH2 0x66B JUMP JUMPDEST SWAP4 POP POP PUSH1 0x60 PUSH2 0x6D8 DUP9 DUP3 DUP10 ADD PUSH2 0x66B JUMP JUMPDEST SWAP3 POP POP PUSH1 0x80 PUSH2 0x6E9 DUP9 DUP3 DUP10 ADD PUSH2 0x66B JUMP JUMPDEST SWAP2 POP POP SWAP3 SWAP6 POP SWAP3 SWAP6 SWAP1 SWAP4 POP JUMP JUMPDEST PUSH2 0x6FF DUP2 PUSH2 0x644 JUMP JUMPDEST DUP3 MSTORE POP POP JUMP JUMPDEST PUSH0 PUSH1 0x20 DUP3 ADD SWAP1 POP PUSH2 0x718 PUSH0 DUP4 ADD DUP5 PUSH2 0x6F6 JUMP JUMPDEST SWAP3 SWAP2 POP POP JUMP JUMPDEST PUSH2 0x727 DUP2 PUSH2 0x5F2 JUMP JUMPDEST DUP3 MSTORE POP POP JUMP JUMPDEST PUSH0 PUSH1 0x20 DUP3 ADD SWAP1 POP PUSH2 0x740 PUSH0 DUP4 ADD DUP5 PUSH2 0x71E JUMP JUMPDEST SWAP3 SWAP2 POP POP JUMP JUMPDEST PUSH0 PUSH1 0x40 DUP3 ADD SWAP1 POP PUSH2 0x759 PUSH0 DUP4 ADD DUP6 PUSH2 0x71E JUMP JUMPDEST PUSH2 0x766 PUSH1 0x20 DUP4 ADD DUP5 PUSH2 0x71E JUMP JUMPDEST SWAP4 SWAP3 POP POP POP JUMP JUMPDEST PUSH1 0x80 MLOAD PUSH1 0xA0 MLOAD PUSH1 0xC0 MLOAD PUSH2 0x3192 PUSH2 0x7DD PUSH0 CODECOPY PUSH0 DUP2 DUP2 PUSH2 0x99C ADD MSTORE DUP2 DUP2 PUSH2 0x14FB ADD MSTORE PUSH2 0x2456 ADD MSTORE PUSH0 DUP2 DUP2 PUSH2 0x151C ADD MSTORE DUP2 DUP2 PUSH2 0x1D16 ADD MSTORE PUSH2 0x2083 ADD MSTORE PUSH0 DUP2 DUP2 PUSH2 0xA17 ADD MSTORE DUP2 DUP2 PUSH2 0xAF8 ADD MSTORE DUP2 DUP2 PUSH2 0xC72 ADD MSTORE DUP2 DUP2 PUSH2 0x11F5 ADD MSTORE DUP2 DUP2 PUSH2 0x1D7E ADD MSTORE DUP2 DUP2 PUSH2 0x1E5E ADD MSTORE PUSH2 0x1FD8 ADD MSTORE PUSH2 0x3192 PUSH0 RETURN INVALID PUSH1 0x80 PUSH1 0x40 MSTORE PUSH1 0x4 CALLDATASIZE LT PUSH2 0x1C5 JUMPI PUSH0 CALLDATALOAD PUSH1 0xE0 SHR DUP1 PUSH4 0x977AE0D1 GT PUSH2 0xF6 JUMPI DUP1 PUSH4 0xD6CB9EC2 GT PUSH2 0x94 JUMPI DUP1 PUSH4 0xF14210A6 GT PUSH2 0x63 JUMPI DUP1 PUSH4 0xF14210A6 EQ PUSH2 0x64E JUMPI DUP1 PUSH4 0xF2FDE38B EQ PUSH2 0x676 JUMPI DUP1 PUSH4 0xF6326FB3 EQ PUSH2 0x69E JUMPI DUP1 PUSH4 0xF7888AEC EQ PUSH2 0x6A8 JUMPI PUSH2 0x207 JUMP JUMPDEST DUP1 PUSH4 0xD6CB9EC2 EQ PUSH2 0x5A4 JUMPI DUP1 PUSH4 0xD9DC8694 EQ PUSH2 0x5D2 JUMPI DUP1 PUSH4 0xDB81F99B EQ PUSH2 0x5FC JUMPI DUP1 PUSH4 0xE1E158A5 EQ PUSH2 0x624 JUMPI PUSH2 0x207 JUMP JUMPDEST DUP1 PUSH4 0xC70A94E2 GT PUSH2 0xD0 JUMPI DUP1 PUSH4 0xC70A94E2 EQ PUSH2 0x500 JUMPI DUP1 PUSH4 0xCB14228A EQ PUSH2 0x52A JUMPI DUP1 PUSH4 0xCB398EB3 EQ PUSH2 0x552 JUMPI DUP1 PUSH4 0xD547741F EQ PUSH2 0x57C JUMPI PUSH2 0x207 JUMP JUMPDEST DUP1 PUSH4 0x977AE0D1 EQ PUSH2 0x496 JUMPI DUP1 PUSH4 0xA217FDDF EQ PUSH2 0x4C0 JUMPI DUP1 PUSH4 0xB33712C5 EQ PUSH2 0x4EA JUMPI PUSH2 0x207 JUMP JUMPDEST DUP1 PUSH4 0x5C975ABB GT PUSH2 0x163 JUMPI DUP1 PUSH4 0x715018A6 GT PUSH2 0x13D JUMPI DUP1 PUSH4 0x715018A6 EQ PUSH2 0x3F2 JUMPI DUP1 PUSH4 0x7DC532C5 EQ PUSH2 0x408 JUMPI DUP1 PUSH4 0x8DA5CB5B EQ PUSH2 0x430 JUMPI DUP1 PUSH4 0x91D14854 EQ PUSH2 0x45A JUMPI PUSH2 0x207 JUMP JUMPDEST DUP1 PUSH4 0x5C975ABB EQ PUSH2 0x376 JUMPI DUP1 PUSH4 0x698B7241 EQ PUSH2 0x3A0 JUMPI DUP1 PUSH4 0x6F05C64C EQ PUSH2 0x3C8 JUMPI PUSH2 0x207 JUMP JUMPDEST DUP1 PUSH4 0x2F2FF15D GT PUSH2 0x19F JUMPI DUP1 PUSH4 0x2F2FF15D EQ PUSH2 0x2E6 JUMPI DUP1 PUSH4 0x36568ABE EQ PUSH2 0x30E JUMPI DUP1 PUSH4 0x439766CE EQ PUSH2 0x336 JUMPI DUP1 PUSH4 0x5C8DE34C EQ PUSH2 0x34C JUMPI PUSH2 0x207 JUMP JUMPDEST DUP1 PUSH4 0x1FFC9A7 EQ PUSH2 0x244 JUMPI DUP1 PUSH4 0xD3C6B34 EQ PUSH2 0x280 JUMPI DUP1 PUSH4 0x248A9CA3 EQ PUSH2 0x2AA JUMPI PUSH2 0x207 JUMP JUMPDEST CALLDATASIZE PUSH2 0x207 JUMPI CALLER PUSH1 0x40 MLOAD PUSH32 0x9F71E91600000000000000000000000000000000000000000000000000000000 DUP2 MSTORE PUSH1 0x4 ADD PUSH2 0x1FE SWAP2 SWAP1 PUSH2 0x29DC JUMP JUMPDEST PUSH1 0x40 MLOAD DUP1 SWAP2 SUB SWAP1 REVERT JUMPDEST CALLER PUSH1 0x40 MLOAD PUSH32 0x9F71E91600000000000000000000000000000000000000000000000000000000 DUP2 MSTORE PUSH1 0x4 ADD PUSH2 0x23B SWAP2 SWAP1 PUSH2 0x29DC JUMP JUMPDEST PUSH1 0x40 MLOAD DUP1 SWAP2 SUB SWAP1 REVERT JUMPDEST CALLVALUE DUP1 ISZERO PUSH2 0x24F JUMPI PUSH0 PUSH0 REVERT JUMPDEST POP PUSH2 0x26A PUSH1 0x4 DUP1 CALLDATASIZE SUB DUP2 ADD SWAP1 PUSH2 0x265 SWAP2 SWAP1 PUSH2 0x2A4E JUMP JUMPDEST PUSH2 0x6E4 JUMP JUMPDEST PUSH1 0x40 MLOAD PUSH2 0x277 SWAP2 SWAP1 PUSH2 0x2A93 JUMP JUMPDEST PUSH1 0x40 MLOAD DUP1 SWAP2 SUB SWAP1 RETURN JUMPDEST CALLVALUE DUP1 ISZERO PUSH2 0x28B JUMPI PUSH0 PUSH0 REVERT JUMPDEST POP PUSH2 0x294 PUSH2 0x6F5 JUMP JUMPDEST PUSH1 0x40 MLOAD PUSH2 0x2A1 SWAP2 SWAP1 PUSH2 0x2AC4 JUMP JUMPDEST PUSH1 0x40 MLOAD DUP1 SWAP2 SUB SWAP1 RETURN JUMPDEST CALLVALUE DUP1 ISZERO PUSH2 0x2B5 JUMPI PUSH0 PUSH0 REVERT JUMPDEST POP PUSH2 0x2D0 PUSH1 0x4 DUP1 CALLDATASIZE SUB DUP2 ADD SWAP1 PUSH2 0x2CB SWAP2 SWAP1 PUSH2 0x2B10 JUMP JUMPDEST PUSH2 0x72C JUMP JUMPDEST PUSH1 0x40 MLOAD PUSH2 0x2DD SWAP2 SWAP1 PUSH2 0x2B4A JUMP JUMPDEST PUSH1 0x40 MLOAD DUP1 SWAP2 SUB SWAP1 RETURN JUMPDEST CALLVALUE DUP1 ISZERO PUSH2 0x2F1 JUMPI PUSH0 PUSH0 REVERT JUMPDEST POP PUSH2 0x30C PUSH1 0x4 DUP1 CALLDATASIZE SUB DUP2 ADD SWAP1 PUSH2 0x307 SWAP2 SWAP1 PUSH2 0x2B8D JUMP JUMPDEST PUSH2 0x749 JUMP JUMPDEST STOP JUMPDEST CALLVALUE DUP1 ISZERO PUSH2 0x319 JUMPI PUSH0 PUSH0 REVERT JUMPDEST POP PUSH2 0x334 PUSH1 0x4 DUP1 CALLDATASIZE SUB DUP2 ADD SWAP1 PUSH2 0x32F SWAP2 SWAP1 PUSH2 0x2B8D JUMP JUMPDEST PUSH2 0x7AD JUMP JUMPDEST STOP JUMPDEST CALLVALUE DUP1 ISZERO PUSH2 0x341 JUMPI PUSH0 PUSH0 REVERT JUMPDEST POP PUSH2 0x34A PUSH2 0x828 JUMP JUMPDEST STOP JUMPDEST CALLVALUE DUP1 ISZERO PUSH2 0x357 JUMPI PUSH0 PUSH0 REVERT JUMPDEST POP PUSH2 0x360 PUSH2 0x936 JUMP JUMPDEST PUSH1 0x40 MLOAD PUSH2 0x36D SWAP2 SWAP1 PUSH2 0x2AC4 JUMP JUMPDEST PUSH1 0x40 MLOAD DUP1 SWAP2 SUB SWAP1 RETURN JUMPDEST CALLVALUE DUP1 ISZERO PUSH2 0x381 JUMPI PUSH0 PUSH0 REVERT JUMPDEST POP PUSH2 0x38A PUSH2 0x93F JUMP JUMPDEST PUSH1 0x40 MLOAD PUSH2 0x397 SWAP2 SWAP1 PUSH2 0x2A93 JUMP JUMPDEST PUSH1 0x40 MLOAD DUP1 SWAP2 SUB SWAP1 RETURN JUMPDEST CALLVALUE DUP1 ISZERO PUSH2 0x3AB JUMPI PUSH0 PUSH0 REVERT JUMPDEST POP PUSH2 0x3C6 PUSH1 0x4 DUP1 CALLDATASIZE SUB DUP2 ADD SWAP1 PUSH2 0x3C1 SWAP2 SWAP1 PUSH2 0x2BF5 JUMP JUMPDEST PUSH2 0x955 JUMP JUMPDEST STOP JUMPDEST CALLVALUE DUP1 ISZERO PUSH2 0x3D3 JUMPI PUSH0 PUSH0 REVERT JUMPDEST POP PUSH2 0x3DC PUSH2 0xCBB JUMP JUMPDEST PUSH1 0x40 MLOAD PUSH2 0x3E9 SWAP2 SWAP1 PUSH2 0x2C7B JUMP JUMPDEST PUSH1 0x40 MLOAD DUP1 SWAP2 SUB SWAP1 RETURN JUMPDEST CALLVALUE DUP1 ISZERO PUSH2 0x3FD JUMPI PUSH0 PUSH0 REVERT JUMPDEST POP PUSH2 0x406 PUSH2 0xCE0 JUMP JUMPDEST STOP JUMPDEST CALLVALUE DUP1 ISZERO PUSH2 0x413 JUMPI PUSH0 PUSH0 REVERT JUMPDEST POP PUSH2 0x42E PUSH1 0x4 DUP1 CALLDATASIZE SUB DUP2 ADD SWAP1 PUSH2 0x429 SWAP2 SWAP1 PUSH2 0x2C94 JUMP JUMPDEST PUSH2 0xCF3 JUMP JUMPDEST STOP JUMPDEST CALLVALUE DUP1 ISZERO PUSH2 0x43B JUMPI PUSH0 PUSH0 REVERT JUMPDEST POP PUSH2 0x444 PUSH2 0x1019 JUMP JUMPDEST PUSH1 0x40 MLOAD PUSH2 0x451 SWAP2 SWAP1 PUSH2 0x29DC JUMP JUMPDEST PUSH1 0x40 MLOAD DUP1 SWAP2 SUB SWAP1 RETURN JUMPDEST CALLVALUE DUP1 ISZERO PUSH2 0x465 JUMPI PUSH0 PUSH0 REVERT JUMPDEST POP PUSH2 0x480 PUSH1 0x4 DUP1 CALLDATASIZE SUB DUP2 ADD SWAP1 PUSH2 0x47B SWAP2 SWAP1 PUSH2 0x2B8D JUMP JUMPDEST PUSH2 0x1041 JUMP JUMPDEST PUSH1 0x40 MLOAD PUSH2 0x48D SWAP2 SWAP1 PUSH2 0x2A93 JUMP JUMPDEST PUSH1 0x40 MLOAD DUP1 SWAP2 SUB SWAP1 RETURN JUMPDEST CALLVALUE DUP1 ISZERO PUSH2 0x4A1 JUMPI PUSH0 PUSH0 REVERT JUMPDEST POP PUSH2 0x4AA PUSH2 0x10A5 JUMP JUMPDEST PUSH1 0x40 MLOAD PUSH2 0x4B7 SWAP2 SWAP1 PUSH2 0x2AC4 JUMP JUMPDEST PUSH1 0x40 MLOAD DUP1 SWAP2 SUB SWAP1 RETURN JUMPDEST CALLVALUE DUP1 ISZERO PUSH2 0x4CB JUMPI PUSH0 PUSH0 REVERT JUMPDEST POP PUSH2 0x4D4 PUSH2 0x10DB JUMP JUMPDEST PUSH1 0x40 MLOAD PUSH2 0x4E1 SWAP2 SWAP1 PUSH2 0x2B4A JUMP JUMPDEST PUSH1 0x40 MLOAD DUP1 SWAP2 SUB SWAP1 RETURN JUMPDEST CALLVALUE DUP1 ISZERO PUSH2 0x4F5 JUMPI PUSH0 PUSH0 REVERT JUMPDEST POP PUSH2 0x4FE PUSH2 0x10E1 JUMP JUMPDEST STOP JUMPDEST CALLVALUE DUP1 ISZERO PUSH2 0x50B JUMPI PUSH0 PUSH0 REVERT JUMPDEST POP PUSH2 0x514 PUSH2 0x11EF JUMP JUMPDEST PUSH1 0x40 MLOAD PUSH2 0x521 SWAP2 SWAP1 PUSH2 0x2AC4 JUMP JUMPDEST PUSH1 0x40 MLOAD DUP1 SWAP2 SUB SWAP1 RETURN JUMPDEST CALLVALUE DUP1 ISZERO PUSH2 0x535 JUMPI PUSH0 PUSH0 REVERT JUMPDEST POP PUSH2 0x550 PUSH1 0x4 DUP1 CALLDATASIZE SUB DUP2 ADD SWAP1 PUSH2 0x54B SWAP2 SWAP1 PUSH2 0x2C94 JUMP JUMPDEST PUSH2 0x1319 JUMP JUMPDEST STOP JUMPDEST CALLVALUE DUP1 ISZERO PUSH2 0x55D JUMPI PUSH0 PUSH0 REVERT JUMPDEST POP PUSH2 0x566 PUSH2 0x1461 JUMP JUMPDEST PUSH1 0x40 MLOAD PUSH2 0x573 SWAP2 SWAP1 PUSH2 0x2B4A JUMP JUMPDEST PUSH1 0x40 MLOAD DUP1 SWAP2 SUB SWAP1 RETURN JUMPDEST CALLVALUE DUP1 ISZERO PUSH2 0x587 JUMPI PUSH0 PUSH0 REVERT JUMPDEST POP PUSH2 0x5A2 PUSH1 0x4 DUP1 CALLDATASIZE SUB DUP2 ADD SWAP1 PUSH2 0x59D SWAP2 SWAP1 PUSH2 0x2B8D JUMP JUMPDEST PUSH2 0x1485 JUMP JUMPDEST STOP JUMPDEST CALLVALUE DUP1 ISZERO PUSH2 0x5AF JUMPI PUSH0 PUSH0 REVERT JUMPDEST POP PUSH2 0x5B8 PUSH2 0x14E9 JUMP JUMPDEST PUSH1 0x40 MLOAD PUSH2 0x5C9 SWAP6 SWAP5 SWAP4 SWAP3 SWAP2 SWAP1 PUSH2 0x2CBF JUMP JUMPDEST PUSH1 0x40 MLOAD DUP1 SWAP2 SUB SWAP1 RETURN JUMPDEST CALLVALUE DUP1 ISZERO PUSH2 0x5DD JUMPI PUSH0 PUSH0 REVERT JUMPDEST POP PUSH2 0x5E6 PUSH2 0x156E JUMP JUMPDEST PUSH1 0x40 MLOAD PUSH2 0x5F3 SWAP2 SWAP1 PUSH2 0x2B4A JUMP JUMPDEST PUSH1 0x40 MLOAD DUP1 SWAP2 SUB SWAP1 RETURN JUMPDEST CALLVALUE DUP1 ISZERO PUSH2 0x607 JUMPI PUSH0 PUSH0 REVERT JUMPDEST POP PUSH2 0x622 PUSH1 0x4 DUP1 CALLDATASIZE SUB DUP2 ADD SWAP1 PUSH2 0x61D SWAP2 SWAP1 PUSH2 0x2BF5 JUMP JUMPDEST PUSH2 0x1592 JUMP JUMPDEST STOP JUMPDEST CALLVALUE DUP1 ISZERO PUSH2 0x62F JUMPI PUSH0 PUSH0 REVERT JUMPDEST POP PUSH2 0x638 PUSH2 0x15A6 JUMP JUMPDEST PUSH1 0x40 MLOAD PUSH2 0x645 SWAP2 SWAP1 PUSH2 0x2AC4 JUMP JUMPDEST PUSH1 0x40 MLOAD DUP1 SWAP2 SUB SWAP1 RETURN JUMPDEST CALLVALUE DUP1 ISZERO PUSH2 0x659 JUMPI PUSH0 PUSH0 REVERT JUMPDEST POP PUSH2 0x674 PUSH1 0x4 DUP1 CALLDATASIZE SUB DUP2 ADD SWAP1 PUSH2 0x66F SWAP2 SWAP1 PUSH2 0x2BF5 JUMP JUMPDEST PUSH2 0x15AE JUMP JUMPDEST STOP JUMPDEST CALLVALUE DUP1 ISZERO PUSH2 0x681 JUMPI PUSH0 PUSH0 REVERT JUMPDEST POP PUSH2 0x69C PUSH1 0x4 DUP1 CALLDATASIZE SUB DUP2 ADD SWAP1 PUSH2 0x697 SWAP2 SWAP1 PUSH2 0x2C94 JUMP JUMPDEST PUSH2 0x15C2 JUMP JUMPDEST STOP JUMPDEST PUSH2 0x6A6 PUSH2 0x1646 JUMP JUMPDEST STOP JUMPDEST CALLVALUE DUP1 ISZERO PUSH2 0x6B3 JUMPI PUSH0 PUSH0 REVERT JUMPDEST POP PUSH2 0x6CE PUSH1 0x4 DUP1 CALLDATASIZE SUB DUP2 ADD SWAP1 PUSH2 0x6C9 SWAP2 SWAP1 PUSH2 0x2D10 JUMP JUMPDEST PUSH2 0x166D JUMP JUMPDEST PUSH1 0x40 MLOAD PUSH2 0x6DB SWAP2 SWAP1 PUSH2 0x2AC4 JUMP JUMPDEST PUSH1 0x40 MLOAD DUP1 SWAP2 SUB SWAP1 RETURN JUMPDEST PUSH0 PUSH2 0x6EE DUP3 PUSH2 0x16EF JUMP JUMPDEST SWAP1 POP SWAP2 SWAP1 POP JUMP JUMPDEST PUSH0 PUSH1 0x5 PUSH1 0x10 SWAP1 SLOAD SWAP1 PUSH2 0x100 EXP SWAP1 DIV PUSH16 0xFFFFFFFFFFFFFFFFFFFFFFFFFFFFFFFF AND PUSH16 0xFFFFFFFFFFFFFFFFFFFFFFFFFFFFFFFF AND SWAP1 POP SWAP1 JUMP JUMPDEST PUSH0 PUSH1 0x2 PUSH0 DUP4 DUP2 MSTORE PUSH1 0x20 ADD SWAP1 DUP2 MSTORE PUSH1 0x20 ADD PUSH0 KECCAK256 PUSH1 0x1 ADD SLOAD SWAP1 POP SWAP2 SWAP1 POP JUMP JUMPDEST PUSH2 0x751 PUSH2 0x1768 JUMP JUMPDEST PUSH2 0x75B DUP3 DUP3 PUSH2 0x17EF JUMP JUMPDEST DUP1 PUSH20 0xFFFFFFFFFFFFFFFFFFFFFFFFFFFFFFFFFFFFFFFF AND PUSH32 0xBB64AF0934EA050E4D96A052DD96271EB1B4C71F5677A4AF06D78B20D9DD30CF DUP4 PUSH1 0x40 MLOAD PUSH2 0x7A1 SWAP2 SWAP1 PUSH2 0x2B4A JUMP JUMPDEST PUSH1 0x40 MLOAD DUP1 SWAP2 SUB SWAP1 LOG2 POP POP JUMP JUMPDEST PUSH2 0x7B5 PUSH2 0x1811 JUMP JUMPDEST PUSH20 0xFFFFFFFFFFFFFFFFFFFFFFFFFFFFFFFFFFFFFFFF AND DUP2 PUSH20 0xFFFFFFFFFFFFFFFFFFFFFFFFFFFFFFFFFFFFFFFF AND EQ PUSH2 0x819 JUMPI PUSH1 0x40 MLOAD PUSH32 0x6697B23200000000000000000000000000000000000000000000000000000000 DUP2 MSTORE PUSH1 0x4 ADD PUSH1 0x40 MLOAD DUP1 SWAP2 SUB SWAP1 REVERT JUMPDEST PUSH2 0x823 DUP3 DUP3 PUSH2 0x1818 JUMP JUMPDEST POP POP POP JUMP JUMPDEST PUSH32 0x539440820030C4994DB4E31B6B800DEAFD503688728F932ADDFE7A410515C14C CALLER PUSH20 0xFFFFFFFFFFFFFFFFFFFFFFFFFFFFFFFFFFFFFFFF AND PUSH2 0x868 PUSH2 0x1019 JUMP JUMPDEST PUSH20 0xFFFFFFFFFFFFFFFFFFFFFFFFFFFFFFFFFFFFFFFF AND EQ ISZERO DUP1 ISZERO PUSH2 0x893 JUMPI POP PUSH2 0x891 DUP2 CALLER PUSH2 0x1041 JUMP JUMPDEST ISZERO JUMPDEST ISZERO PUSH2 0x8D5 JUMPI CALLER PUSH1 0x40 MLOAD PUSH32 0x943FB07800000000000000000000000000000000000000000000000000000000 DUP2 MSTORE PUSH1 0x4 ADD PUSH2 0x8CC SWAP2 SWAP1 PUSH2 0x29DC JUMP JUMPDEST PUSH1 0x40 MLOAD DUP1 SWAP2 SUB SWAP1 REVERT JUMPDEST PUSH2 0x8DD PUSH2 0x1902 JUMP JUMPDEST PUSH2 0x8E5 PUSH2 0x1943 JUMP JUMPDEST CALLER PUSH20 0xFFFFFFFFFFFFFFFFFFFFFFFFFFFFFFFFFFFFFFFF AND PUSH32 0x46D2A254C0536D2A30FDFA06DB40B28B09743AFE6F05AEB9F03A56C4CEC0EF08 TIMESTAMP PUSH1 0x40 MLOAD PUSH2 0x92B SWAP2 SWAP1 PUSH2 0x2AC4 JUMP JUMPDEST PUSH1 0x40 MLOAD DUP1 SWAP2 SUB SWAP1 LOG2 POP JUMP JUMPDEST PUSH0 PUSH1 0x4 SLOAD SWAP1 POP SWAP1 JUMP JUMPDEST PUSH0 PUSH1 0x1 PUSH1 0x14 SWAP1 SLOAD SWAP1 PUSH2 0x100 EXP SWAP1 DIV PUSH1 0xFF AND SWAP1 POP SWAP1 JUMP JUMPDEST DUP1 PUSH0 DUP2 SUB PUSH2 0x99A JUMPI CALLER PUSH1 0x40 MLOAD PUSH32 0x1B8B1C9100000000000000000000000000000000000000000000000000000000 DUP2 MSTORE PUSH1 0x4 ADD PUSH2 0x991 SWAP2 SWAP1 PUSH2 0x29DC JUMP JUMPDEST PUSH1 0x40 MLOAD DUP1 SWAP2 SUB SWAP1 REVERT JUMPDEST PUSH32 0x0 PUSH1 0x4 SLOAD DUP3 PUSH2 0x9C9 SWAP2 SWAP1 PUSH2 0x2D7B JUMP JUMPDEST GT ISZERO PUSH2 0xA0C JUMPI DUP1 PUSH1 0x40 MLOAD PUSH32 0xF367FD7300000000000000000000000000000000000000000000000000000000 DUP2 MSTORE PUSH1 0x4 ADD PUSH2 0xA03 SWAP2 SWAP1 PUSH2 0x2AC4 JUMP JUMPDEST PUSH1 0x40 MLOAD DUP1 SWAP2 SUB SWAP1 REVERT JUMPDEST PUSH2 0xA14 PUSH2 0x1902 JUMP JUMPDEST DUP2 PUSH32 0x0 PUSH20 0xFFFFFFFFFFFFFFFFFFFFFFFFFFFFFFFFFFFFFFFF AND PUSH4 0xDD62ED3E CALLER ADDRESS PUSH1 0x40 MLOAD DUP4 PUSH4 0xFFFFFFFF AND PUSH1 0xE0 SHL DUP2 MSTORE PUSH1 0x4 ADD PUSH2 0xA70 SWAP3 SWAP2 SWAP1 PUSH2 0x2DAE JUMP JUMPDEST PUSH1 0x20 PUSH1 0x40 MLOAD DUP1 DUP4 SUB DUP2 DUP7 GAS STATICCALL ISZERO DUP1 ISZERO PUSH2 0xA8B JUMPI RETURNDATASIZE PUSH0 PUSH0 RETURNDATACOPY RETURNDATASIZE PUSH0 REVERT JUMPDEST POP POP POP POP PUSH1 0x40 MLOAD RETURNDATASIZE PUSH1 0x1F NOT PUSH1 0x1F DUP3 ADD AND DUP3 ADD DUP1 PUSH1 0x40 MSTORE POP DUP2 ADD SWAP1 PUSH2 0xAAF SWAP2 SWAP1 PUSH2 0x2DE9 JUMP JUMPDEST LT ISZERO PUSH2 0xAF2 JUMPI DUP2 PUSH1 0x40 MLOAD PUSH32 0xAA9A0A9D00000000000000000000000000000000000000000000000000000000 DUP2 MSTORE PUSH1 0x4 ADD PUSH2 0xAE9 SWAP2 SWAP1 PUSH2 0x2AC4 JUMP JUMPDEST PUSH1 0x40 MLOAD DUP1 SWAP2 SUB SWAP1 REVERT JUMPDEST DUP2 PUSH1 0x6 PUSH0 PUSH32 0x0 PUSH20 0xFFFFFFFFFFFFFFFFFFFFFFFFFFFFFFFFFFFFFFFF AND PUSH20 0xFFFFFFFFFFFFFFFFFFFFFFFFFFFFFFFFFFFFFFFF AND DUP2 MSTORE PUSH1 0x20 ADD SWAP1 DUP2 MSTORE PUSH1 0x20 ADD PUSH0 KECCAK256 PUSH0 CALLER PUSH20 0xFFFFFFFFFFFFFFFFFFFFFFFFFFFFFFFFFFFFFFFF AND PUSH20 0xFFFFFFFFFFFFFFFFFFFFFFFFFFFFFFFFFFFFFFFF AND DUP2 MSTORE PUSH1 0x20 ADD SWAP1 DUP2 MSTORE PUSH1 0x20 ADD PUSH0 KECCAK256 PUSH0 DUP3 DUP3 SLOAD PUSH2 0xB99 SWAP2 SWAP1 PUSH2 0x2D7B JUMP JUMPDEST SWAP3 POP POP DUP2 SWAP1 SSTORE POP PUSH1 0x5 PUSH0 DUP2 DUP2 SWAP1 SLOAD SWAP1 PUSH2 0x100 EXP SWAP1 DIV PUSH16 0xFFFFFFFFFFFFFFFFFFFFFFFFFFFFFFFF AND DUP1 SWAP3 SWAP2 SWAP1 PUSH2 0xBCD SWAP1 PUSH2 0x2E2F JUMP JUMPDEST SWAP2 SWAP1 PUSH2 0x100 EXP DUP2 SLOAD DUP2 PUSH16 0xFFFFFFFFFFFFFFFFFFFFFFFFFFFFFFFF MUL NOT AND SWAP1 DUP4 PUSH16 0xFFFFFFFFFFFFFFFFFFFFFFFFFFFFFFFF AND MUL OR SWAP1 SSTORE POP POP DUP2 PUSH1 0x4 PUSH0 DUP3 DUP3 SLOAD PUSH2 0xC15 SWAP2 SWAP1 PUSH2 0x2D7B JUMP JUMPDEST SWAP3 POP POP DUP2 SWAP1 SSTORE POP CALLER PUSH20 0xFFFFFFFFFFFFFFFFFFFFFFFFFFFFFFFFFFFFFFFF AND PUSH32 0x7B7CD0DDBBEA241880E825E1EB51C30752CB96DD7EFEB4BE691EC55DFA4D8963 DUP4 PUSH1 0x40 MLOAD PUSH2 0xC62 SWAP2 SWAP1 PUSH2 0x2AC4 JUMP JUMPDEST PUSH1 0x40 MLOAD DUP1 SWAP2 SUB SWAP1 LOG2 PUSH2 0xCB7 CALLER ADDRESS DUP5 PUSH32 0x0 PUSH20 0xFFFFFFFFFFFFFFFFFFFFFFFFFFFFFFFFFFFFFFFF AND PUSH2 0x19A5 SWAP1 SWAP4 SWAP3 SWAP2 SWAP1 PUSH4 0xFFFFFFFF AND JUMP JUMPDEST POP POP JUMP JUMPDEST PUSH1 0x3 PUSH0 SWAP1 SLOAD SWAP1 PUSH2 0x100 EXP SWAP1 DIV PUSH20 0xFFFFFFFFFFFFFFFFFFFFFFFFFFFFFFFFFFFFFFFF AND DUP2 JUMP JUMPDEST PUSH2 0xCE8 PUSH2 0x1768 JUMP JUMPDEST PUSH2 0xCF1 PUSH0 PUSH2 0x1A27 JUMP JUMPDEST JUMP JUMPDEST PUSH32 0x9BBB3EE3BDFBE971682B08854A620CA4BF696F8E0C269E5C5B129A18E64D29DF CALLER PUSH20 0xFFFFFFFFFFFFFFFFFFFFFFFFFFFFFFFFFFFFFFFF AND PUSH2 0xD33 PUSH2 0x1019 JUMP JUMPDEST PUSH20 0xFFFFFFFFFFFFFFFFFFFFFFFFFFFFFFFFFFFFFFFF AND EQ ISZERO DUP1 ISZERO PUSH2 0xD5E JUMPI POP PUSH2 0xD5C DUP2 CALLER PUSH2 0x1041 JUMP JUMPDEST ISZERO JUMPDEST ISZERO PUSH2 0xDA0 JUMPI CALLER PUSH1 0x40 MLOAD PUSH32 0x943FB07800000000000000000000000000000000000000000000000000000000 DUP2 MSTORE PUSH1 0x4 ADD PUSH2 0xD97 SWAP2 SWAP1 PUSH2 0x29DC JUMP JUMPDEST PUSH1 0x40 MLOAD DUP1 SWAP2 SUB SWAP1 REVERT JUMPDEST PUSH2 0xDA8 PUSH2 0x1AEA JUMP JUMPDEST PUSH0 PUSH20 0xFFFFFFFFFFFFFFFFFFFFFFFFFFFFFFFFFFFFFFFF AND DUP3 PUSH20 0xFFFFFFFFFFFFFFFFFFFFFFFFFFFFFFFFFFFFFFFF AND SUB PUSH2 0xE0D JUMPI PUSH1 0x40 MLOAD PUSH32 0x4AB4914300000000000000000000000000000000000000000000000000000000 DUP2 MSTORE PUSH1 0x4 ADD PUSH1 0x40 MLOAD DUP1 SWAP2 SUB SWAP1 REVERT JUMPDEST DUP2 PUSH20 0xFFFFFFFFFFFFFFFFFFFFFFFFFFFFFFFFFFFFFFFF AND PUSH4 0xFEAF968C PUSH1 0x40 MLOAD DUP2 PUSH4 0xFFFFFFFF AND PUSH1 0xE0 SHL DUP2 MSTORE PUSH1 0x4 ADD PUSH1 0xA0 PUSH1 0x40 MLOAD DUP1 DUP4 SUB DUP2 DUP7 GAS STATICCALL SWAP3 POP POP POP DUP1 ISZERO PUSH2 0xE75 JUMPI POP PUSH1 0x40 MLOAD RETURNDATASIZE PUSH1 0x1F NOT PUSH1 0x1F DUP3 ADD AND DUP3 ADD DUP1 PUSH1 0x40 MSTORE POP DUP2 ADD SWAP1 PUSH2 0xE72 SWAP2 SWAP1 PUSH2 0x2ED8 JUMP JUMPDEST PUSH1 0x1 JUMPDEST PUSH2 0xEB6 JUMPI DUP2 PUSH1 0x40 MLOAD PUSH32 0x83F68E8900000000000000000000000000000000000000000000000000000000 DUP2 MSTORE PUSH1 0x4 ADD PUSH2 0xEAD SWAP2 SWAP1 PUSH2 0x29DC JUMP JUMPDEST PUSH1 0x40 MLOAD DUP1 SWAP2 SUB SWAP1 REVERT JUMPDEST PUSH0 DUP5 SGT PUSH2 0xEFA JUMPI DUP7 PUSH1 0x40 MLOAD PUSH32 0x83F68E8900000000000000000000000000000000000000000000000000000000 DUP2 MSTORE PUSH1 0x4 ADD PUSH2 0xEF1 SWAP2 SWAP1 PUSH2 0x29DC JUMP JUMPDEST PUSH1 0x40 MLOAD DUP1 SWAP2 SUB SWAP1 REVERT JUMPDEST PUSH2 0xE10 PUSH2 0xFFFF AND DUP3 TIMESTAMP PUSH2 0xF0D SWAP2 SWAP1 PUSH2 0x2F4F JUMP JUMPDEST GT ISZERO PUSH2 0xF50 JUMPI DUP4 PUSH1 0x40 MLOAD PUSH32 0x2F8429D00000000000000000000000000000000000000000000000000000000 DUP2 MSTORE PUSH1 0x4 ADD PUSH2 0xF47 SWAP2 SWAP1 PUSH2 0x2AC4 JUMP JUMPDEST PUSH1 0x40 MLOAD DUP1 SWAP2 SUB SWAP1 REVERT JUMPDEST PUSH0 PUSH1 0x3 PUSH0 SWAP1 SLOAD SWAP1 PUSH2 0x100 EXP SWAP1 DIV PUSH20 0xFFFFFFFFFFFFFFFFFFFFFFFFFFFFFFFFFFFFFFFF AND SWAP1 POP DUP8 PUSH1 0x3 PUSH0 PUSH2 0x100 EXP DUP2 SLOAD DUP2 PUSH20 0xFFFFFFFFFFFFFFFFFFFFFFFFFFFFFFFFFFFFFFFF MUL NOT AND SWAP1 DUP4 PUSH20 0xFFFFFFFFFFFFFFFFFFFFFFFFFFFFFFFFFFFFFFFF AND MUL OR SWAP1 SSTORE POP DUP8 PUSH20 0xFFFFFFFFFFFFFFFFFFFFFFFFFFFFFFFFFFFFFFFF AND DUP2 PUSH20 0xFFFFFFFFFFFFFFFFFFFFFFFFFFFFFFFFFFFFFFFF AND PUSH32 0x76732C6A675470899FCB32BD34014D244A2B780F6812F8F818B26F893F79CDD PUSH1 0x40 MLOAD PUSH1 0x40 MLOAD DUP1 SWAP2 SUB SWAP1 LOG3 POP POP POP POP POP POP POP POP JUMP JUMPDEST PUSH0 PUSH1 0x1 PUSH0 SWAP1 SLOAD SWAP1 PUSH2 0x100 EXP SWAP1 DIV PUSH20 0xFFFFFFFFFFFFFFFFFFFFFFFFFFFFFFFFFFFFFFFF AND SWAP1 POP SWAP1 JUMP JUMPDEST PUSH0 PUSH1 0x2 PUSH0 DUP5 DUP2 MSTORE PUSH1 0x20 ADD SWAP1 DUP2 MSTORE PUSH1 0x20 ADD PUSH0 KECCAK256 PUSH0 ADD PUSH0 DUP4 PUSH20 0xFFFFFFFFFFFFFFFFFFFFFFFFFFFFFFFFFFFFFFFF AND PUSH20 0xFFFFFFFFFFFFFFFFFFFFFFFFFFFFFFFFFFFFFFFF AND DUP2 MSTORE PUSH1 0x20 ADD SWAP1 DUP2 MSTORE PUSH1 0x20 ADD PUSH0 KECCAK256 PUSH0 SWAP1 SLOAD SWAP1 PUSH2 0x100 EXP SWAP1 DIV PUSH1 0xFF AND SWAP1 POP SWAP3 SWAP2 POP POP JUMP JUMPDEST PUSH0 PUSH1 0x5 PUSH0 SWAP1 SLOAD SWAP1 PUSH2 0x100 EXP SWAP1 DIV PUSH16 0xFFFFFFFFFFFFFFFFFFFFFFFFFFFFFFFF AND PUSH16 0xFFFFFFFFFFFFFFFFFFFFFFFFFFFFFFFF AND SWAP1 POP SWAP1 JUMP JUMPDEST PUSH0 PUSH0 SHL DUP2 JUMP JUMPDEST PUSH32 0x539440820030C4994DB4E31B6B800DEAFD503688728F932ADDFE7A410515C14C CALLER PUSH20 0xFFFFFFFFFFFFFFFFFFFFFFFFFFFFFFFFFFFFFFFF AND PUSH2 0x1121 PUSH2 0x1019 JUMP JUMPDEST PUSH20 0xFFFFFFFFFFFFFFFFFFFFFFFFFFFFFFFFFFFFFFFF AND EQ ISZERO DUP1 ISZERO PUSH2 0x114C JUMPI POP PUSH2 0x114A DUP2 CALLER PUSH2 0x1041 JUMP JUMPDEST ISZERO JUMPDEST ISZERO PUSH2 0x118E JUMPI CALLER PUSH1 0x40 MLOAD PUSH32 0x943FB07800000000000000000000000000000000000000000000000000000000 DUP2 MSTORE PUSH1 0x4 ADD PUSH2 0x1185 SWAP2 SWAP1 PUSH2 0x29DC JUMP JUMPDEST PUSH1 0x40 MLOAD DUP1 SWAP2 SUB SWAP1 REVERT JUMPDEST PUSH2 0x1196 PUSH2 0x1AEA JUMP JUMPDEST PUSH2 0x119E PUSH2 0x1B2A JUMP JUMPDEST CALLER PUSH20 0xFFFFFFFFFFFFFFFFFFFFFFFFFFFFFFFFFFFFFFFF AND PUSH32 0xE27D6B7B96C20E997F5082FF560410B815A1ECD7464E0DED63E7688E45D9B573 TIMESTAMP PUSH1 0x40 MLOAD PUSH2 0x11E4 SWAP2 SWAP1 PUSH2 0x2AC4 JUMP JUMPDEST PUSH1 0x40 MLOAD DUP1 SWAP2 SUB SWAP1 LOG2 POP JUMP JUMPDEST PUSH0 PUSH1 0x6 PUSH0 PUSH32 0x0 PUSH20 0xFFFFFFFFFFFFFFFFFFFFFFFFFFFFFFFFFFFFFFFF AND PUSH20 0xFFFFFFFFFFFFFFFFFFFFFFFFFFFFFFFFFFFFFFFF AND DUP2 MSTORE PUSH1 0x20 ADD SWAP1 DUP2 MSTORE PUSH1 0x20 ADD PUSH0 KECCAK256 PUSH0 CALLER PUSH20 0xFFFFFFFFFFFFFFFFFFFFFFFFFFFFFFFFFFFFFFFF AND PUSH20 0xFFFFFFFFFFFFFFFFFFFFFFFFFFFFFFFFFFFFFFFF AND DUP2 MSTORE PUSH1 0x20 ADD SWAP1 DUP2 MSTORE PUSH1 0x20 ADD PUSH0 KECCAK256 SLOAD PUSH2 0x130A PUSH1 0x6 PUSH0 PUSH0 PUSH20 0xFFFFFFFFFFFFFFFFFFFFFFFFFFFFFFFFFFFFFFFF AND PUSH20 0xFFFFFFFFFFFFFFFFFFFFFFFFFFFFFFFFFFFFFFFF AND DUP2 MSTORE PUSH1 0x20 ADD SWAP1 DUP2 MSTORE PUSH1 0x20 ADD PUSH0 KECCAK256 PUSH0 CALLER PUSH20 0xFFFFFFFFFFFFFFFFFFFFFFFFFFFFFFFFFFFFFFFF AND PUSH20 0xFFFFFFFFFFFFFFFFFFFFFFFFFFFFFFFFFFFFFFFF AND DUP2 MSTORE PUSH1 0x20 ADD SWAP1 DUP2 MSTORE PUSH1 0x20 ADD PUSH0 KECCAK256 SLOAD PUSH2 0x1B8C JUMP JUMPDEST PUSH2 0x1314 SWAP2 SWAP1 PUSH2 0x2D7B JUMP JUMPDEST SWAP1 POP SWAP1 JUMP JUMPDEST PUSH2 0x1321 PUSH2 0x1768 JUMP JUMPDEST PUSH2 0x1329 PUSH2 0x1AEA JUMP JUMPDEST PUSH0 PUSH2 0x1332 PUSH2 0x1019 JUMP JUMPDEST SWAP1 POP PUSH2 0x1340 PUSH0 PUSH0 SHL DUP3 PUSH2 0x1818 JUMP JUMPDEST POP PUSH2 0x136B PUSH32 0x539440820030C4994DB4E31B6B800DEAFD503688728F932ADDFE7A410515C14C DUP3 PUSH2 0x1818 JUMP JUMPDEST POP PUSH2 0x1396 PUSH32 0x9BBB3EE3BDFBE971682B08854A620CA4BF696F8E0C269E5C5B129A18E64D29DF DUP3 PUSH2 0x1818 JUMP JUMPDEST POP PUSH2 0x13A0 DUP3 PUSH2 0x1A27 JUMP JUMPDEST PUSH2 0x13AC PUSH0 PUSH0 SHL DUP4 PUSH2 0x1BBB JUMP JUMPDEST POP PUSH2 0x13D7 PUSH32 0x9BBB3EE3BDFBE971682B08854A620CA4BF696F8E0C269E5C5B129A18E64D29DF DUP4 PUSH2 0x1BBB JUMP JUMPDEST POP PUSH2 0x1402 PUSH32 0x539440820030C4994DB4E31B6B800DEAFD503688728F932ADDFE7A410515C14C DUP4 PUSH2 0x1BBB JUMP JUMPDEST POP DUP2 PUSH20 0xFFFFFFFFFFFFFFFFFFFFFFFFFFFFFFFFFFFFFFFF AND DUP2 PUSH20 0xFFFFFFFFFFFFFFFFFFFFFFFFFFFFFFFFFFFFFFFF AND PUSH32 0x8BFDC1921679312BE467B7979CCD28DC2BC1D122F99C6123D976F0BF50A3B435 PUSH1 0x40 MLOAD PUSH1 0x40 MLOAD DUP1 SWAP2 SUB SWAP1 LOG3 POP POP JUMP JUMPDEST PUSH32 0x9BBB3EE3BDFBE971682B08854A620CA4BF696F8E0C269E5C5B129A18E64D29DF DUP2 JUMP JUMPDEST PUSH2 0x148D PUSH2 0x1768 JUMP JUMPDEST PUSH2 0x1497 DUP3 DUP3 PUSH2 0x1CA5 JUMP JUMPDEST DUP1 PUSH20 0xFFFFFFFFFFFFFFFFFFFFFFFFFFFFFFFFFFFFFFFF AND PUSH32 0x28005222CF9FD144F6F3A53F9517FD413AFE5D9B67FD4CF81DDD013486721702 DUP4 PUSH1 0x40 MLOAD PUSH2 0x14DD SWAP2 SWAP1 PUSH2 0x2B4A JUMP JUMPDEST PUSH1 0x40 MLOAD DUP1 SWAP2 SUB SWAP1 LOG2 POP POP JUMP JUMPDEST PUSH0 PUSH0 PUSH0 PUSH0 PUSH0 PUSH2 0x14F6 PUSH2 0x93F JUMP JUMPDEST PUSH1 0x4 SLOAD PUSH32 0x0 PUSH32 0x0 PUSH1 0x3 PUSH0 SWAP1 SLOAD SWAP1 PUSH2 0x100 EXP SWAP1 DIV PUSH20 0xFFFFFFFFFFFFFFFFFFFFFFFFFFFFFFFFFFFFFFFF AND SWAP5 POP SWAP5 POP SWAP5 POP SWAP5 POP SWAP5 POP SWAP1 SWAP2 SWAP3 SWAP4 SWAP5 JUMP JUMPDEST PUSH32 0x539440820030C4994DB4E31B6B800DEAFD503688728F932ADDFE7A410515C14C DUP2 JUMP JUMPDEST PUSH2 0x159A PUSH2 0x1902 JUMP JUMPDEST PUSH2 0x15A3 DUP2 PUSH2 0x1CC7 JUMP JUMPDEST POP JUMP JUMPDEST PUSH4 0x3B9ACA00 DUP2 JUMP JUMPDEST PUSH2 0x15B6 PUSH2 0x1902 JUMP JUMPDEST PUSH2 0x15BF DUP2 PUSH2 0x2028 JUMP JUMPDEST POP JUMP JUMPDEST PUSH2 0x15CA PUSH2 0x1768 JUMP JUMPDEST PUSH0 PUSH20 0xFFFFFFFFFFFFFFFFFFFFFFFFFFFFFFFFFFFFFFFF AND DUP2 PUSH20 0xFFFFFFFFFFFFFFFFFFFFFFFFFFFFFFFFFFFFFFFF AND SUB PUSH2 0x163A JUMPI PUSH0 PUSH1 0x40 MLOAD PUSH32 0x1E4FBDF700000000000000000000000000000000000000000000000000000000 DUP2 MSTORE PUSH1 0x4 ADD PUSH2 0x1631 SWAP2 SWAP1 PUSH2 0x29DC JUMP JUMPDEST PUSH1 0x40 MLOAD DUP1 SWAP2 SUB SWAP1 REVERT JUMPDEST PUSH2 0x1643 DUP2 PUSH2 0x1A27 JUMP JUMPDEST POP JUMP JUMPDEST PUSH2 0x164E PUSH2 0x1902 JUMP JUMPDEST PUSH0 CALLVALUE SWAP1 POP PUSH0 PUSH2 0x165C DUP3 PUSH2 0x1B8C JUMP JUMPDEST SWAP1 POP PUSH2 0x1669 CALLER DUP3 DUP5 PUSH2 0x23C5 JUMP JUMPDEST POP POP JUMP JUMPDEST PUSH0 PUSH1 0x6 PUSH0 DUP4 PUSH20 0xFFFFFFFFFFFFFFFFFFFFFFFFFFFFFFFFFFFFFFFF AND PUSH20 0xFFFFFFFFFFFFFFFFFFFFFFFFFFFFFFFFFFFFFFFF AND DUP2 MSTORE PUSH1 0x20 ADD SWAP1 DUP2 MSTORE PUSH1 0x20 ADD PUSH0 KECCAK256 PUSH0 DUP5 PUSH20 0xFFFFFFFFFFFFFFFFFFFFFFFFFFFFFFFFFFFFFFFF AND PUSH20 0xFFFFFFFFFFFFFFFFFFFFFFFFFFFFFFFFFFFFFFFF AND DUP2 MSTORE PUSH1 0x20 ADD SWAP1 DUP2 MSTORE PUSH1 0x20 ADD PUSH0 KECCAK256 SLOAD SWAP1 POP SWAP3 SWAP2 POP POP JUMP JUMPDEST PUSH0 PUSH32 0x7965DB0B00000000000000000000000000000000000000000000000000000000 PUSH28 0xFFFFFFFFFFFFFFFFFFFFFFFFFFFFFFFFFFFFFFFFFFFFFFFFFFFFFFFF NOT AND DUP3 PUSH28 0xFFFFFFFFFFFFFFFFFFFFFFFFFFFFFFFFFFFFFFFFFFFFFFFFFFFFFFFF NOT AND EQ DUP1 PUSH2 0x1761 JUMPI POP PUSH2 0x1760 DUP3 PUSH2 0x2625 JUMP JUMPDEST JUMPDEST SWAP1 POP SWAP2 SWAP1 POP JUMP JUMPDEST PUSH2 0x1770 PUSH2 0x1811 JUMP JUMPDEST PUSH20 0xFFFFFFFFFFFFFFFFFFFFFFFFFFFFFFFFFFFFFFFF AND PUSH2 0x178E PUSH2 0x1019 JUMP JUMPDEST PUSH20 0xFFFFFFFFFFFFFFFFFFFFFFFFFFFFFFFFFFFFFFFF AND EQ PUSH2 0x17ED JUMPI PUSH2 0x17B1 PUSH2 0x1811 JUMP JUMPDEST PUSH1 0x40 MLOAD PUSH32 0x118CDAA700000000000000000000000000000000000000000000000000000000 DUP2 MSTORE PUSH1 0x4 ADD PUSH2 0x17E4 SWAP2 SWAP1 PUSH2 0x29DC JUMP JUMPDEST PUSH1 0x40 MLOAD DUP1 SWAP2 SUB SWAP1 REVERT JUMPDEST JUMP JUMPDEST PUSH2 0x17F8 DUP3 PUSH2 0x72C JUMP JUMPDEST PUSH2 0x1801 DUP2 PUSH2 0x268E JUMP JUMPDEST PUSH2 0x180B DUP4 DUP4 PUSH2 0x1BBB JUMP JUMPDEST POP POP POP POP JUMP JUMPDEST PUSH0 CALLER SWAP1 POP SWAP1 JUMP JUMPDEST PUSH0 PUSH2 0x1823 DUP4 DUP4 PUSH2 0x1041 JUMP JUMPDEST ISZERO PUSH2 0x18F8 JUMPI PUSH0 PUSH1 0x2 PUSH0 DUP6 DUP2 MSTORE PUSH1 0x20 ADD SWAP1 DUP2 MSTORE PUSH1 0x20 ADD PUSH0 KECCAK256 PUSH0 ADD PUSH0 DUP5 PUSH20 0xFFFFFFFFFFFFFFFFFFFFFFFFFFFFFFFFFFFFFFFF AND PUSH20 0xFFFFFFFFFFFFFFFFFFFFFFFFFFFFFFFFFFFFFFFF AND DUP2 MSTORE PUSH1 0x20 ADD SWAP1 DUP2 MSTORE PUSH1 0x20 ADD PUSH0 KECCAK256 PUSH0 PUSH2 0x100 EXP DUP2 SLOAD DUP2 PUSH1 0xFF MUL NOT AND SWAP1 DUP4 ISZERO ISZERO MUL OR SWAP1 SSTORE POP PUSH2 0x1895 PUSH2 0x1811 JUMP JUMPDEST PUSH20 0xFFFFFFFFFFFFFFFFFFFFFFFFFFFFFFFFFFFFFFFF AND DUP3 PUSH20 0xFFFFFFFFFFFFFFFFFFFFFFFFFFFFFFFFFFFFFFFF AND DUP5 PUSH32 0xF6391F5C32D9C69D2A47EA670B442974B53935D1EDC7FD64EB21E047A839171B PUSH1 0x40 MLOAD PUSH1 0x40 MLOAD DUP1 SWAP2 SUB SWAP1 LOG4 PUSH1 0x1 SWAP1 POP PUSH2 0x18FC JUMP JUMPDEST PUSH0 SWAP1 POP JUMPDEST SWAP3 SWAP2 POP POP JUMP JUMPDEST PUSH2 0x190A PUSH2 0x93F JUMP JUMPDEST ISZERO PUSH2 0x1941 JUMPI PUSH1 0x40 MLOAD PUSH32 0xD93C066500000000000000000000000000000000000000000000000000000000 DUP2 MSTORE PUSH1 0x4 ADD PUSH1 0x40 MLOAD DUP1 SWAP2 SUB SWAP1 REVERT JUMPDEST JUMP JUMPDEST PUSH2 0x194B PUSH2 0x1902 JUMP JUMPDEST PUSH1 0x1 DUP1 PUSH1 0x14 PUSH2 0x100 EXP DUP2 SLOAD DUP2 PUSH1 0xFF MUL NOT AND SWAP1 DUP4 ISZERO ISZERO MUL OR SWAP1 SSTORE POP PUSH32 0x62E78CEA01BEE320CD4E420270B5EA74000D11B0C9F74754EBDBFC544B05A258 PUSH2 0x198E PUSH2 0x1811 JUMP JUMPDEST PUSH1 0x40 MLOAD PUSH2 0x199B SWAP2 SWAP1 PUSH2 0x29DC JUMP JUMPDEST PUSH1 0x40 MLOAD DUP1 SWAP2 SUB SWAP1 LOG1 JUMP JUMPDEST PUSH2 0x1A21 DUP5 DUP6 PUSH20 0xFFFFFFFFFFFFFFFFFFFFFFFFFFFFFFFFFFFFFFFF AND PUSH4 0x23B872DD DUP7 DUP7 DUP7 PUSH1 0x40 MLOAD PUSH1 0x24 ADD PUSH2 0x19DA SWAP4 SWAP3 SWAP2 SWAP1 PUSH2 0x2F82 JUMP JUMPDEST PUSH1 0x40 MLOAD PUSH1 0x20 DUP2 DUP4 SUB SUB DUP2 MSTORE SWAP1 PUSH1 0x40 MSTORE SWAP2 POP PUSH1 0xE0 SHL PUSH1 0x20 DUP3 ADD DUP1 MLOAD PUSH28 0xFFFFFFFFFFFFFFFFFFFFFFFFFFFFFFFFFFFFFFFFFFFFFFFFFFFFFFFF DUP4 DUP2 DUP4 AND OR DUP4 MSTORE POP POP POP POP PUSH2 0x26A2 JUMP JUMPDEST POP POP POP POP JUMP JUMPDEST PUSH0 PUSH1 0x1 PUSH0 SWAP1 SLOAD SWAP1 PUSH2 0x100 EXP SWAP1 DIV PUSH20 0xFFFFFFFFFFFFFFFFFFFFFFFFFFFFFFFFFFFFFFFF AND SWAP1 POP DUP2 PUSH1 0x1 PUSH0 PUSH2 0x100 EXP DUP2 SLOAD DUP2 PUSH20 0xFFFFFFFFFFFFFFFFFFFFFFFFFFFFFFFFFFFFFFFF MUL NOT AND SWAP1 DUP4 PUSH20 0xFFFFFFFFFFFFFFFFFFFFFFFFFFFFFFFFFFFFFFFF AND MUL OR SWAP1 SSTORE POP DUP2 PUSH20 0xFFFFFFFFFFFFFFFFFFFFFFFFFFFFFFFFFFFFFFFF AND DUP2 PUSH20 0xFFFFFFFFFFFFFFFFFFFFFFFFFFFFFFFFFFFFFFFF AND PUSH32 0x8BE0079C531659141344CD1FD0A4F28419497F9722A3DAAFE3B4186F6B6457E0 PUSH1 0x40 MLOAD PUSH1 0x40 MLOAD DUP1 SWAP2 SUB SWAP1 LOG3 POP POP JUMP JUMPDEST PUSH2 0x1AF2 PUSH2 0x93F JUMP JUMPDEST PUSH2 0x1B28 JUMPI PUSH1 0x40 MLOAD PUSH32 0x8DFC202B00000000000000000000000000000000000000000000000000000000 DUP2 MSTORE PUSH1 0x4 ADD PUSH1 0x40 MLOAD DUP1 SWAP2 SUB SWAP1 REVERT JUMPDEST JUMP JUMPDEST PUSH2 0x1B32 PUSH2 0x1AEA JUMP JUMPDEST PUSH0 PUSH1 0x1 PUSH1 0x14 PUSH2 0x100 EXP DUP2 SLOAD DUP2 PUSH1 0xFF MUL NOT AND SWAP1 DUP4 ISZERO ISZERO MUL OR SWAP1 SSTORE POP PUSH32 0x5DB9EE0A495BF2E6FF9C91A7834C1BA4FDD244A5E8AA4E537BD38AEAE4B073AA PUSH2 0x1B75 PUSH2 0x1811 JUMP JUMPDEST PUSH1 0x40 MLOAD PUSH2 0x1B82 SWAP2 SWAP1 PUSH2 0x29DC JUMP JUMPDEST PUSH1 0x40 MLOAD DUP1 SWAP2 SUB SWAP1 LOG1 JUMP JUMPDEST PUSH0 PUSH9 0x56BC75E2D63100000 PUSH2 0x1B9F PUSH2 0x273D JUMP JUMPDEST DUP4 PUSH2 0x1BAA SWAP2 SWAP1 PUSH2 0x2FB7 JUMP JUMPDEST PUSH2 0x1BB4 SWAP2 SWAP1 PUSH2 0x3025 JUMP JUMPDEST SWAP1 POP SWAP2 SWAP1 POP JUMP JUMPDEST PUSH0 PUSH2 0x1BC6 DUP4 DUP4 PUSH2 0x1041 JUMP JUMPDEST PUSH2 0x1C9B JUMPI PUSH1 0x1 PUSH1 0x2 PUSH0 DUP6 DUP2 MSTORE PUSH1 0x20 ADD SWAP1 DUP2 MSTORE PUSH1 0x20 ADD PUSH0 KECCAK256 PUSH0 ADD PUSH0 DUP5 PUSH20 0xFFFFFFFFFFFFFFFFFFFFFFFFFFFFFFFFFFFFFFFF AND PUSH20 0xFFFFFFFFFFFFFFFFFFFFFFFFFFFFFFFFFFFFFFFF AND DUP2 MSTORE PUSH1 0x20 ADD SWAP1 DUP2 MSTORE PUSH1 0x20 ADD PUSH0 KECCAK256 PUSH0 PUSH2 0x100 EXP DUP2 SLOAD DUP2 PUSH1 0xFF MUL NOT AND SWAP1 DUP4 ISZERO ISZERO MUL OR SWAP1 SSTORE POP PUSH2 0x1C38 PUSH2 0x1811 JUMP JUMPDEST PUSH20 0xFFFFFFFFFFFFFFFFFFFFFFFFFFFFFFFFFFFFFFFF AND DUP3 PUSH20 0xFFFFFFFFFFFFFFFFFFFFFFFFFFFFFFFFFFFFFFFF AND DUP5 PUSH32 0x2F8788117E7EFF1D82E926EC794901D17C78024A50270940304540A733656F0D PUSH1 0x40 MLOAD PUSH1 0x40 MLOAD DUP1 SWAP2 SUB SWAP1 LOG4 PUSH1 0x1 SWAP1 POP PUSH2 0x1C9F JUMP JUMPDEST PUSH0 SWAP1 POP JUMPDEST SWAP3 SWAP2 POP POP JUMP JUMPDEST PUSH2 0x1CAE DUP3 PUSH2 0x72C JUMP JUMPDEST PUSH2 0x1CB7 DUP2 PUSH2 0x268E JUMP JUMPDEST PUSH2 0x1CC1 DUP4 DUP4 PUSH2 0x1818 JUMP JUMPDEST POP POP POP POP JUMP JUMPDEST PUSH2 0x1CCF PUSH2 0x2877 JUMP JUMPDEST DUP1 PUSH0 DUP2 SUB PUSH2 0x1D14 JUMPI CALLER PUSH1 0x40 MLOAD PUSH32 0x1B8B1C9100000000000000000000000000000000000000000000000000000000 DUP2 MSTORE PUSH1 0x4 ADD PUSH2 0x1D0B SWAP2 SWAP1 PUSH2 0x29DC JUMP JUMPDEST PUSH1 0x40 MLOAD DUP1 SWAP2 SUB SWAP1 REVERT JUMPDEST PUSH32 0x0 DUP2 GT ISZERO PUSH2 0x1D79 JUMPI DUP1 PUSH1 0x40 MLOAD PUSH32 0x764E5DE200000000000000000000000000000000000000000000000000000000 DUP2 MSTORE PUSH1 0x4 ADD PUSH2 0x1D70 SWAP2 SWAP1 PUSH2 0x2AC4 JUMP JUMPDEST PUSH1 0x40 MLOAD DUP1 SWAP2 SUB SWAP1 REVERT JUMPDEST PUSH1 0x6 PUSH0 PUSH32 0x0 PUSH20 0xFFFFFFFFFFFFFFFFFFFFFFFFFFFFFFFFFFFFFFFF AND PUSH20 0xFFFFFFFFFFFFFFFFFFFFFFFFFFFFFFFFFFFFFFFF AND DUP2 MSTORE PUSH1 0x20 ADD SWAP1 DUP2 MSTORE PUSH1 0x20 ADD PUSH0 KECCAK256 PUSH0 CALLER PUSH20 0xFFFFFFFFFFFFFFFFFFFFFFFFFFFFFFFFFFFFFFFF AND PUSH20 0xFFFFFFFFFFFFFFFFFFFFFFFFFFFFFFFFFFFFFFFF AND DUP2 MSTORE PUSH1 0x20 ADD SWAP1 DUP2 MSTORE PUSH1 0x20 ADD PUSH0 KECCAK256 SLOAD DUP2 GT ISZERO PUSH2 0x1E58 JUMPI CALLER DUP2 PUSH1 0x40 MLOAD PUSH32 0xBAA7A16500000000000000000000000000000000000000000000000000000000 DUP2 MSTORE PUSH1 0x4 ADD PUSH2 0x1E4F SWAP3 SWAP2 SWAP1 PUSH2 0x3055 JUMP JUMPDEST PUSH1 0x40 MLOAD DUP1 SWAP2 SUB SWAP1 REVERT JUMPDEST DUP2 PUSH1 0x6 PUSH0 PUSH32 0x0 PUSH20 0xFFFFFFFFFFFFFFFFFFFFFFFFFFFFFFFFFFFFFFFF AND PUSH20 0xFFFFFFFFFFFFFFFFFFFFFFFFFFFFFFFFFFFFFFFF AND DUP2 MSTORE PUSH1 0x20 ADD SWAP1 DUP2 MSTORE PUSH1 0x20 ADD PUSH0 KECCAK256 PUSH0 CALLER PUSH20 0xFFFFFFFFFFFFFFFFFFFFFFFFFFFFFFFFFFFFFFFF AND PUSH20 0xFFFFFFFFFFFFFFFFFFFFFFFFFFFFFFFFFFFFFFFF AND DUP2 MSTORE PUSH1 0x20 ADD SWAP1 DUP2 MSTORE PUSH1 0x20 ADD PUSH0 KECCAK256 PUSH0 DUP3 DUP3 SLOAD PUSH2 0x1EFF SWAP2 SWAP1 PUSH2 0x2F4F JUMP JUMPDEST SWAP3 POP POP DUP2 SWAP1 SSTORE POP PUSH1 0x5 PUSH1 0x10 DUP2 DUP2 SWAP1 SLOAD SWAP1 PUSH2 0x100 EXP SWAP1 DIV PUSH16 0xFFFFFFFFFFFFFFFFFFFFFFFFFFFFFFFF AND DUP1 SWAP3 SWAP2 SWAP1 PUSH2 0x1F34 SWAP1 PUSH2 0x2E2F JUMP JUMPDEST SWAP2 SWAP1 PUSH2 0x100 EXP DUP2 SLOAD DUP2 PUSH16 0xFFFFFFFFFFFFFFFFFFFFFFFFFFFFFFFF MUL NOT AND SWAP1 DUP4 PUSH16 0xFFFFFFFFFFFFFFFFFFFFFFFFFFFFFFFF AND MUL OR SWAP1 SSTORE POP POP DUP2 PUSH1 0x4 PUSH0 DUP3 DUP3 SLOAD PUSH2 0x1F7C SWAP2 SWAP1 PUSH2 0x2F4F JUMP JUMPDEST SWAP3 POP POP DUP2 SWAP1 SSTORE POP CALLER PUSH20 0xFFFFFFFFFFFFFFFFFFFFFFFFFFFFFFFFFFFFFFFF AND PUSH32 0x1FF21E81CFF87FCCBAC096AD565F52CB1B358DB04A736A6A137CCEB4A287A702 DUP4 PUSH1 0x40 MLOAD PUSH2 0x1FC9 SWAP2 SWAP1 PUSH2 0x2AC4 JUMP JUMPDEST PUSH1 0x40 MLOAD DUP1 SWAP2 SUB SWAP1 LOG2 PUSH2 0x201C CALLER DUP4 PUSH32 0x0 PUSH20 0xFFFFFFFFFFFFFFFFFFFFFFFFFFFFFFFFFFFFFFFF AND PUSH2 0x28C4 SWAP1 SWAP3 SWAP2 SWAP1 PUSH4 0xFFFFFFFF AND JUMP JUMPDEST POP PUSH2 0x2025 PUSH2 0x2943 JUMP JUMPDEST POP JUMP JUMPDEST PUSH2 0x2030 PUSH2 0x2877 JUMP JUMPDEST DUP1 PUSH0 PUSH2 0x203B DUP3 PUSH2 0x1B8C JUMP JUMPDEST SWAP1 POP PUSH0 DUP2 SUB PUSH2 0x2081 JUMPI CALLER PUSH1 0x40 MLOAD PUSH32 0x1B8B1C9100000000000000000000000000000000000000000000000000000000 DUP2 MSTORE PUSH1 0x4 ADD PUSH2 0x2078 SWAP2 SWAP1 PUSH2 0x29DC JUMP JUMPDEST PUSH1 0x40 MLOAD DUP1 SWAP2 SUB SWAP1 REVERT JUMPDEST PUSH32 0x0 DUP2 GT ISZERO PUSH2 0x20E6 JUMPI DUP1 PUSH1 0x40 MLOAD PUSH32 0x764E5DE200000000000000000000000000000000000000000000000000000000 DUP2 MSTORE PUSH1 0x4 ADD PUSH2 0x20DD SWAP2 SWAP1 PUSH2 0x2AC4 JUMP JUMPDEST PUSH1 0x40 MLOAD DUP1 SWAP2 SUB SWAP1 REVERT JUMPDEST PUSH1 0x6 PUSH0 PUSH0 PUSH20 0xFFFFFFFFFFFFFFFFFFFFFFFFFFFFFFFFFFFFFFFF AND PUSH20 0xFFFFFFFFFFFFFFFFFFFFFFFFFFFFFFFFFFFFFFFF AND DUP2 MSTORE PUSH1 0x20 ADD SWAP1 DUP2 MSTORE PUSH1 0x20 ADD PUSH0 KECCAK256 PUSH0 CALLER PUSH20 0xFFFFFFFFFFFFFFFFFFFFFFFFFFFFFFFFFFFFFFFF AND PUSH20 0xFFFFFFFFFFFFFFFFFFFFFFFFFFFFFFFFFFFFFFFF AND DUP2 MSTORE PUSH1 0x20 ADD SWAP1 DUP2 MSTORE PUSH1 0x20 ADD PUSH0 KECCAK256 SLOAD DUP3 GT ISZERO PUSH2 0x21A5 JUMPI CALLER DUP2 PUSH1 0x40 MLOAD PUSH32 0xBAA7A16500000000000000000000000000000000000000000000000000000000 DUP2 MSTORE PUSH1 0x4 ADD PUSH2 0x219C SWAP3 SWAP2 SWAP1 PUSH2 0x3055 JUMP JUMPDEST PUSH1 0x40 MLOAD DUP1 SWAP2 SUB SWAP1 REVERT JUMPDEST PUSH0 PUSH2 0x21AF DUP5 PUSH2 0x1B8C JUMP JUMPDEST SWAP1 POP DUP4 PUSH1 0x6 PUSH0 PUSH0 PUSH20 0xFFFFFFFFFFFFFFFFFFFFFFFFFFFFFFFFFFFFFFFF AND PUSH20 0xFFFFFFFFFFFFFFFFFFFFFFFFFFFFFFFFFFFFFFFF AND DUP2 MSTORE PUSH1 0x20 ADD SWAP1 DUP2 MSTORE PUSH1 0x20 ADD PUSH0 KECCAK256 PUSH0 CALLER PUSH20 0xFFFFFFFFFFFFFFFFFFFFFFFFFFFFFFFFFFFFFFFF AND PUSH20 0xFFFFFFFFFFFFFFFFFFFFFFFFFFFFFFFFFFFFFFFF AND DUP2 MSTORE PUSH1 0x20 ADD SWAP1 DUP2 MSTORE PUSH1 0x20 ADD PUSH0 KECCAK256 PUSH0 DUP3 DUP3 SLOAD PUSH2 0x2238 SWAP2 SWAP1 PUSH2 0x2F4F JUMP JUMPDEST SWAP3 POP POP DUP2 SWAP1 SSTORE POP PUSH1 0x5 PUSH1 0x10 DUP2 DUP2 SWAP1 SLOAD SWAP1 PUSH2 0x100 EXP SWAP1 DIV PUSH16 0xFFFFFFFFFFFFFFFFFFFFFFFFFFFFFFFF AND DUP1 SWAP3 SWAP2 SWAP1 PUSH2 0x226D SWAP1 PUSH2 0x2E2F JUMP JUMPDEST SWAP2 SWAP1 PUSH2 0x100 EXP DUP2 SLOAD DUP2 PUSH16 0xFFFFFFFFFFFFFFFFFFFFFFFFFFFFFFFF MUL NOT AND SWAP1 DUP4 PUSH16 0xFFFFFFFFFFFFFFFFFFFFFFFFFFFFFFFF AND MUL OR SWAP1 SSTORE POP POP DUP1 PUSH1 0x4 PUSH0 DUP3 DUP3 SLOAD PUSH2 0x22B5 SWAP2 SWAP1 PUSH2 0x2F4F JUMP JUMPDEST SWAP3 POP POP DUP2 SWAP1 SSTORE POP CALLER PUSH20 0xFFFFFFFFFFFFFFFFFFFFFFFFFFFFFFFFFFFFFFFF AND PUSH32 0x1FF21E81CFF87FCCBAC096AD565F52CB1B358DB04A736A6A137CCEB4A287A702 DUP3 PUSH1 0x40 MLOAD PUSH2 0x2302 SWAP2 SWAP1 PUSH2 0x2AC4 JUMP JUMPDEST PUSH1 0x40 MLOAD DUP1 SWAP2 SUB SWAP1 LOG2 PUSH0 CALLER PUSH20 0xFFFFFFFFFFFFFFFFFFFFFFFFFFFFFFFFFFFFFFFF AND DUP6 PUSH1 0x40 MLOAD PUSH2 0x232F SWAP1 PUSH2 0x30A9 JUMP JUMPDEST PUSH0 PUSH1 0x40 MLOAD DUP1 DUP4 SUB DUP2 DUP6 DUP8 GAS CALL SWAP3 POP POP POP RETURNDATASIZE DUP1 PUSH0 DUP2 EQ PUSH2 0x2369 JUMPI PUSH1 0x40 MLOAD SWAP2 POP PUSH1 0x1F NOT PUSH1 0x3F RETURNDATASIZE ADD AND DUP3 ADD PUSH1 0x40 MSTORE RETURNDATASIZE DUP3 MSTORE RETURNDATASIZE PUSH0 PUSH1 0x20 DUP5 ADD RETURNDATACOPY PUSH2 0x236E JUMP JUMPDEST PUSH1 0x60 SWAP2 POP JUMPDEST POP POP SWAP1 POP DUP1 PUSH2 0x23B6 JUMPI CALLER DUP6 PUSH1 0x40 MLOAD PUSH32 0x6166243700000000000000000000000000000000000000000000000000000000 DUP2 MSTORE PUSH1 0x4 ADD PUSH2 0x23AD SWAP3 SWAP2 SWAP1 PUSH2 0x3055 JUMP JUMPDEST PUSH1 0x40 MLOAD DUP1 SWAP2 SUB SWAP1 REVERT JUMPDEST POP POP POP POP PUSH2 0x23C2 PUSH2 0x2943 JUMP JUMPDEST POP JUMP JUMPDEST DUP2 DUP2 PUSH4 0x3B9ACA00 DUP2 LT ISZERO PUSH2 0x2410 JUMPI DUP1 PUSH1 0x40 MLOAD PUSH32 0xD3C36E3A00000000000000000000000000000000000000000000000000000000 DUP2 MSTORE PUSH1 0x4 ADD PUSH2 0x2407 SWAP2 SWAP1 PUSH2 0x2AC4 JUMP JUMPDEST PUSH1 0x40 MLOAD DUP1 SWAP2 SUB SWAP1 REVERT JUMPDEST PUSH0 DUP3 SUB PUSH2 0x2454 JUMPI CALLER PUSH1 0x40 MLOAD PUSH32 0x1B8B1C9100000000000000000000000000000000000000000000000000000000 DUP2 MSTORE PUSH1 0x4 ADD PUSH2 0x244B SWAP2 SWAP1 PUSH2 0x29DC JUMP JUMPDEST PUSH1 0x40 MLOAD DUP1 SWAP2 SUB SWAP1 REVERT JUMPDEST PUSH32 0x0 PUSH1 0x4 SLOAD DUP4 PUSH2 0x2483 SWAP2 SWAP1 PUSH2 0x2D7B JUMP JUMPDEST GT ISZERO PUSH2 0x24C6 JUMPI DUP2 PUSH1 0x40 MLOAD PUSH32 0xF367FD7300000000000000000000000000000000000000000000000000000000 DUP2 MSTORE PUSH1 0x4 ADD PUSH2 0x24BD SWAP2 SWAP1 PUSH2 0x2AC4 JUMP JUMPDEST PUSH1 0x40 MLOAD DUP1 SWAP2 SUB SWAP1 REVERT JUMPDEST DUP3 PUSH1 0x6 PUSH0 PUSH0 PUSH20 0xFFFFFFFFFFFFFFFFFFFFFFFFFFFFFFFFFFFFFFFF AND PUSH20 0xFFFFFFFFFFFFFFFFFFFFFFFFFFFFFFFFFFFFFFFF AND DUP2 MSTORE PUSH1 0x20 ADD SWAP1 DUP2 MSTORE PUSH1 0x20 ADD PUSH0 KECCAK256 PUSH0 DUP8 PUSH20 0xFFFFFFFFFFFFFFFFFFFFFFFFFFFFFFFFFFFFFFFF AND PUSH20 0xFFFFFFFFFFFFFFFFFFFFFFFFFFFFFFFFFFFFFFFF AND DUP2 MSTORE PUSH1 0x20 ADD SWAP1 DUP2 MSTORE PUSH1 0x20 ADD PUSH0 KECCAK256 PUSH0 DUP3 DUP3 SLOAD PUSH2 0x254D SWAP2 SWAP1 PUSH2 0x2D7B JUMP JUMPDEST SWAP3 POP POP DUP2 SWAP1 SSTORE POP PUSH1 0x5 PUSH0 DUP2 DUP2 SWAP1 SLOAD SWAP1 PUSH2 0x100 EXP SWAP1 DIV PUSH16 0xFFFFFFFFFFFFFFFFFFFFFFFFFFFFFFFF AND DUP1 SWAP3 SWAP2 SWAP1 PUSH2 0x2581 SWAP1 PUSH2 0x2E2F JUMP JUMPDEST SWAP2 SWAP1 PUSH2 0x100 EXP DUP2 SLOAD DUP2 PUSH16 0xFFFFFFFFFFFFFFFFFFFFFFFFFFFFFFFF MUL NOT AND SWAP1 DUP4 PUSH16 0xFFFFFFFFFFFFFFFFFFFFFFFFFFFFFFFF AND MUL OR SWAP1 SSTORE POP POP DUP4 PUSH1 0x4 PUSH0 DUP3 DUP3 SLOAD PUSH2 0x25C9 SWAP2 SWAP1 PUSH2 0x2D7B JUMP JUMPDEST SWAP3 POP POP DUP2 SWAP1 SSTORE POP DUP5 PUSH20 0xFFFFFFFFFFFFFFFFFFFFFFFFFFFFFFFFFFFFFFFF AND PUSH32 0x7B7CD0DDBBEA241880E825E1EB51C30752CB96DD7EFEB4BE691EC55DFA4D8963 DUP6 PUSH1 0x40 MLOAD PUSH2 0x2616 SWAP2 SWAP1 PUSH2 0x2AC4 JUMP JUMPDEST PUSH1 0x40 MLOAD DUP1 SWAP2 SUB SWAP1 LOG2 POP POP POP POP POP JUMP JUMPDEST PUSH0 PUSH32 0x1FFC9A700000000000000000000000000000000000000000000000000000000 PUSH28 0xFFFFFFFFFFFFFFFFFFFFFFFFFFFFFFFFFFFFFFFFFFFFFFFFFFFFFFFF NOT AND DUP3 PUSH28 0xFFFFFFFFFFFFFFFFFFFFFFFFFFFFFFFFFFFFFFFFFFFFFFFFFFFFFFFF NOT AND EQ SWAP1 POP SWAP2 SWAP1 POP JUMP JUMPDEST PUSH2 0x269F DUP2 PUSH2 0x269A PUSH2 0x1811 JUMP JUMPDEST PUSH2 0x294C JUMP JUMPDEST POP JUMP JUMPDEST PUSH0 PUSH0 PUSH1 0x20 PUSH0 DUP5 MLOAD PUSH1 0x20 DUP7 ADD PUSH0 DUP9 GAS CALL DUP1 PUSH2 0x26C1 JUMPI PUSH1 0x40 MLOAD RETURNDATASIZE PUSH0 DUP3 RETURNDATACOPY RETURNDATASIZE DUP2 REVERT JUMPDEST RETURNDATASIZE SWAP3 POP PUSH0 MLOAD SWAP2 POP POP PUSH0 DUP3 EQ PUSH2 0x26DA JUMPI PUSH1 0x1 DUP2 EQ ISZERO PUSH2 0x26F5 JUMP JUMPDEST PUSH0 DUP5 PUSH20 0xFFFFFFFFFFFFFFFFFFFFFFFFFFFFFFFFFFFFFFFF AND EXTCODESIZE EQ JUMPDEST ISZERO PUSH2 0x2737 JUMPI DUP4 PUSH1 0x40 MLOAD PUSH32 0x5274AFE700000000000000000000000000000000000000000000000000000000 DUP2 MSTORE PUSH1 0x4 ADD PUSH2 0x272E SWAP2 SWAP1 PUSH2 0x29DC JUMP JUMPDEST PUSH1 0x40 MLOAD DUP1 SWAP2 SUB SWAP1 REVERT JUMPDEST POP POP POP POP JUMP JUMPDEST PUSH0 PUSH0 PUSH0 PUSH1 0x3 PUSH0 SWAP1 SLOAD SWAP1 PUSH2 0x100 EXP SWAP1 DIV PUSH20 0xFFFFFFFFFFFFFFFFFFFFFFFFFFFFFFFFFFFFFFFF AND PUSH20 0xFFFFFFFFFFFFFFFFFFFFFFFFFFFFFFFFFFFFFFFF AND PUSH4 0xFEAF968C PUSH1 0x40 MLOAD DUP2 PUSH4 0xFFFFFFFF AND PUSH1 0xE0 SHL DUP2 MSTORE PUSH1 0x4 ADD PUSH1 0xA0 PUSH1 0x40 MLOAD DUP1 DUP4 SUB DUP2 DUP7 GAS STATICCALL ISZERO DUP1 ISZERO PUSH2 0x27AA JUMPI RETURNDATASIZE PUSH0 PUSH0 RETURNDATACOPY RETURNDATASIZE PUSH0 REVERT JUMPDEST POP POP POP POP PUSH1 0x40 MLOAD RETURNDATASIZE PUSH1 0x1F NOT PUSH1 0x1F DUP3 ADD AND DUP3 ADD DUP1 PUSH1 0x40 MSTORE POP DUP2 ADD SWAP1 PUSH2 0x27CE SWAP2 SWAP1 PUSH2 0x2ED8 JUMP JUMPDEST POP SWAP4 POP POP SWAP3 POP POP PUSH0 DUP3 SGT PUSH2 0x2819 JUMPI DUP2 PUSH1 0x40 MLOAD PUSH32 0xFE73737600000000000000000000000000000000000000000000000000000000 DUP2 MSTORE PUSH1 0x4 ADD PUSH2 0x2810 SWAP2 SWAP1 PUSH2 0x2AC4 JUMP JUMPDEST PUSH1 0x40 MLOAD DUP1 SWAP2 SUB SWAP1 REVERT JUMPDEST PUSH2 0xE10 PUSH2 0xFFFF AND DUP2 TIMESTAMP PUSH2 0x282C SWAP2 SWAP1 PUSH2 0x2F4F JUMP JUMPDEST GT ISZERO PUSH2 0x286F JUMPI DUP2 PUSH1 0x40 MLOAD PUSH32 0x2F8429D00000000000000000000000000000000000000000000000000000000 DUP2 MSTORE PUSH1 0x4 ADD PUSH2 0x2866 SWAP2 SWAP1 PUSH2 0x2AC4 JUMP JUMPDEST PUSH1 0x40 MLOAD DUP1 SWAP2 SUB SWAP1 REVERT JUMPDEST DUP2 SWAP3 POP POP POP SWAP1 JUMP JUMPDEST PUSH1 0x2 PUSH0 SLOAD SUB PUSH2 0x28BB JUMPI PUSH1 0x40 MLOAD PUSH32 0x8C379A000000000000000000000000000000000000000000000000000000000 DUP2 MSTORE PUSH1 0x4 ADD PUSH2 0x28B2 SWAP1 PUSH2 0x3117 JUMP JUMPDEST PUSH1 0x40 MLOAD DUP1 SWAP2 SUB SWAP1 REVERT JUMPDEST PUSH1 0x2 PUSH0 DUP2 SWAP1 SSTORE POP JUMP JUMPDEST PUSH2 0x293E DUP4 DUP5 PUSH20 0xFFFFFFFFFFFFFFFFFFFFFFFFFFFFFFFFFFFFFFFF AND PUSH4 0xA9059CBB DUP6 DUP6 PUSH1 0x40 MLOAD PUSH1 0x24 ADD PUSH2 0x28F7 SWAP3 SWAP2 SWAP1 PUSH2 0x3055 JUMP JUMPDEST PUSH1 0x40 MLOAD PUSH1 0x20 DUP2 DUP4 SUB SUB DUP2 MSTORE SWAP1 PUSH1 0x40 MSTORE SWAP2 POP PUSH1 0xE0 SHL PUSH1 0x20 DUP3 ADD DUP1 MLOAD PUSH28 0xFFFFFFFFFFFFFFFFFFFFFFFFFFFFFFFFFFFFFFFFFFFFFFFFFFFFFFFF DUP4 DUP2 DUP4 AND OR DUP4 MSTORE POP POP POP POP PUSH2 0x26A2 JUMP JUMPDEST POP POP POP JUMP JUMPDEST PUSH1 0x1 PUSH0 DUP2 SWAP1 SSTORE POP JUMP JUMPDEST PUSH2 0x2956 DUP3 DUP3 PUSH2 0x1041 JUMP JUMPDEST PUSH2 0x2999 JUMPI DUP1 DUP3 PUSH1 0x40 MLOAD PUSH32 0xE2517D3F00000000000000000000000000000000000000000000000000000000 DUP2 MSTORE PUSH1 0x4 ADD PUSH2 0x2990 SWAP3 SWAP2 SWAP1 PUSH2 0x3135 JUMP JUMPDEST PUSH1 0x40 MLOAD DUP1 SWAP2 SUB SWAP1 REVERT JUMPDEST POP POP JUMP JUMPDEST PUSH0 PUSH20 0xFFFFFFFFFFFFFFFFFFFFFFFFFFFFFFFFFFFFFFFF DUP3 AND SWAP1 POP SWAP2 SWAP1 POP JUMP JUMPDEST PUSH0 PUSH2 0x29C6 DUP3 PUSH2 0x299D JUMP JUMPDEST SWAP1 POP SWAP2 SWAP1 POP JUMP JUMPDEST PUSH2 0x29D6 DUP2 PUSH2 0x29BC JUMP JUMPDEST DUP3 MSTORE POP POP JUMP JUMPDEST PUSH0 PUSH1 0x20 DUP3 ADD SWAP1 POP PUSH2 0x29EF PUSH0 DUP4 ADD DUP5 PUSH2 0x29CD JUMP JUMPDEST SWAP3 SWAP2 POP POP JUMP JUMPDEST PUSH0 PUSH0 REVERT JUMPDEST PUSH0 PUSH32 0xFFFFFFFF00000000000000000000000000000000000000000000000000000000 DUP3 AND SWAP1 POP SWAP2 SWAP1 POP JUMP JUMPDEST PUSH2 0x2A2D DUP2 PUSH2 0x29F9 JUMP JUMPDEST DUP2 EQ PUSH2 0x2A37 JUMPI PUSH0 PUSH0 REVERT JUMPDEST POP JUMP JUMPDEST PUSH0 DUP2 CALLDATALOAD SWAP1 POP PUSH2 0x2A48 DUP2 PUSH2 0x2A24 JUMP JUMPDEST SWAP3 SWAP2 POP POP JUMP JUMPDEST PUSH0 PUSH1 0x20 DUP3 DUP5 SUB SLT ISZERO PUSH2 0x2A63 JUMPI PUSH2 0x2A62 PUSH2 0x29F5 JUMP JUMPDEST JUMPDEST PUSH0 PUSH2 0x2A70 DUP5 DUP3 DUP6 ADD PUSH2 0x2A3A JUMP JUMPDEST SWAP2 POP POP SWAP3 SWAP2 POP POP JUMP JUMPDEST PUSH0 DUP2 ISZERO ISZERO SWAP1 POP SWAP2 SWAP1 POP JUMP JUMPDEST PUSH2 0x2A8D DUP2 PUSH2 0x2A79 JUMP JUMPDEST DUP3 MSTORE POP POP JUMP JUMPDEST PUSH0 PUSH1 0x20 DUP3 ADD SWAP1 POP PUSH2 0x2AA6 PUSH0 DUP4 ADD DUP5 PUSH2 0x2A84 JUMP JUMPDEST SWAP3 SWAP2 POP POP JUMP JUMPDEST PUSH0 DUP2 SWAP1 POP SWAP2 SWAP1 POP JUMP JUMPDEST PUSH2 0x2ABE DUP2 PUSH2 0x2AAC JUMP JUMPDEST DUP3 MSTORE POP POP JUMP JUMPDEST PUSH0 PUSH1 0x20 DUP3 ADD SWAP1 POP PUSH2 0x2AD7 PUSH0 DUP4 ADD DUP5 PUSH2 0x2AB5 JUMP JUMPDEST SWAP3 SWAP2 POP POP JUMP JUMPDEST PUSH0 DUP2 SWAP1 POP SWAP2 SWAP1 POP JUMP JUMPDEST PUSH2 0x2AEF DUP2 PUSH2 0x2ADD JUMP JUMPDEST DUP2 EQ PUSH2 0x2AF9 JUMPI PUSH0 PUSH0 REVERT JUMPDEST POP JUMP JUMPDEST PUSH0 DUP2 CALLDATALOAD SWAP1 POP PUSH2 0x2B0A DUP2 PUSH2 0x2AE6 JUMP JUMPDEST SWAP3 SWAP2 POP POP JUMP JUMPDEST PUSH0 PUSH1 0x20 DUP3 DUP5 SUB SLT ISZERO PUSH2 0x2B25 JUMPI PUSH2 0x2B24 PUSH2 0x29F5 JUMP JUMPDEST JUMPDEST PUSH0 PUSH2 0x2B32 DUP5 DUP3 DUP6 ADD PUSH2 0x2AFC JUMP JUMPDEST SWAP2 POP POP SWAP3 SWAP2 POP POP JUMP JUMPDEST PUSH2 0x2B44 DUP2 PUSH2 0x2ADD JUMP JUMPDEST DUP3 MSTORE POP POP JUMP JUMPDEST PUSH0 PUSH1 0x20 DUP3 ADD SWAP1 POP PUSH2 0x2B5D PUSH0 DUP4 ADD DUP5 PUSH2 0x2B3B JUMP JUMPDEST SWAP3 SWAP2 POP POP JUMP JUMPDEST PUSH2 0x2B6C DUP2 PUSH2 0x29BC JUMP JUMPDEST DUP2 EQ PUSH2 0x2B76 JUMPI PUSH0 PUSH0 REVERT JUMPDEST POP JUMP JUMPDEST PUSH0 DUP2 CALLDATALOAD SWAP1 POP PUSH2 0x2B87 DUP2 PUSH2 0x2B63 JUMP JUMPDEST SWAP3 SWAP2 POP POP JUMP JUMPDEST PUSH0 PUSH0 PUSH1 0x40 DUP4 DUP6 SUB SLT ISZERO PUSH2 0x2BA3 JUMPI PUSH2 0x2BA2 PUSH2 0x29F5 JUMP JUMPDEST JUMPDEST PUSH0 PUSH2 0x2BB0 DUP6 DUP3 DUP7 ADD PUSH2 0x2AFC JUMP JUMPDEST SWAP3 POP POP PUSH1 0x20 PUSH2 0x2BC1 DUP6 DUP3 DUP7 ADD PUSH2 0x2B79 JUMP JUMPDEST SWAP2 POP POP SWAP3 POP SWAP3 SWAP1 POP JUMP JUMPDEST PUSH2 0x2BD4 DUP2 PUSH2 0x2AAC JUMP JUMPDEST DUP2 EQ PUSH2 0x2BDE JUMPI PUSH0 PUSH0 REVERT JUMPDEST POP JUMP JUMPDEST PUSH0 DUP2 CALLDATALOAD SWAP1 POP PUSH2 0x2BEF DUP2 PUSH2 0x2BCB JUMP JUMPDEST SWAP3 SWAP2 POP POP JUMP JUMPDEST PUSH0 PUSH1 0x20 DUP3 DUP5 SUB SLT ISZERO PUSH2 0x2C0A JUMPI PUSH2 0x2C09 PUSH2 0x29F5 JUMP JUMPDEST JUMPDEST PUSH0 PUSH2 0x2C17 DUP5 DUP3 DUP6 ADD PUSH2 0x2BE1 JUMP JUMPDEST SWAP2 POP POP SWAP3 SWAP2 POP POP JUMP JUMPDEST PUSH0 DUP2 SWAP1 POP SWAP2 SWAP1 POP JUMP JUMPDEST PUSH0 PUSH2 0x2C43 PUSH2 0x2C3E PUSH2 0x2C39 DUP5 PUSH2 0x299D JUMP JUMPDEST PUSH2 0x2C20 JUMP JUMPDEST PUSH2 0x299D JUMP JUMPDEST SWAP1 POP SWAP2 SWAP1 POP JUMP JUMPDEST PUSH0 PUSH2 0x2C54 DUP3 PUSH2 0x2C29 JUMP JUMPDEST SWAP1 POP SWAP2 SWAP1 POP JUMP JUMPDEST PUSH0 PUSH2 0x2C65 DUP3 PUSH2 0x2C4A JUMP JUMPDEST SWAP1 POP SWAP2 SWAP1 POP JUMP JUMPDEST PUSH2 0x2C75 DUP2 PUSH2 0x2C5B JUMP JUMPDEST DUP3 MSTORE POP POP JUMP JUMPDEST PUSH0 PUSH1 0x20 DUP3 ADD SWAP1 POP PUSH2 0x2C8E PUSH0 DUP4 ADD DUP5 PUSH2 0x2C6C JUMP JUMPDEST SWAP3 SWAP2 POP POP JUMP JUMPDEST PUSH0 PUSH1 0x20 DUP3 DUP5 SUB SLT ISZERO PUSH2 0x2CA9 JUMPI PUSH2 0x2CA8 PUSH2 0x29F5 JUMP JUMPDEST JUMPDEST PUSH0 PUSH2 0x2CB6 DUP5 DUP3 DUP6 ADD PUSH2 0x2B79 JUMP JUMPDEST SWAP2 POP POP SWAP3 SWAP2 POP POP JUMP JUMPDEST PUSH0 PUSH1 0xA0 DUP3 ADD SWAP1 POP PUSH2 0x2CD2 PUSH0 DUP4 ADD DUP9 PUSH2 0x2A84 JUMP JUMPDEST PUSH2 0x2CDF PUSH1 0x20 DUP4 ADD DUP8 PUSH2 0x2AB5 JUMP JUMPDEST PUSH2 0x2CEC PUSH1 0x40 DUP4 ADD DUP7 PUSH2 0x2AB5 JUMP JUMPDEST PUSH2 0x2CF9 PUSH1 0x60 DUP4 ADD DUP6 PUSH2 0x2AB5 JUMP JUMPDEST PUSH2 0x2D06 PUSH1 0x80 DUP4 ADD DUP5 PUSH2 0x29CD JUMP JUMPDEST SWAP7 SWAP6 POP POP POP POP POP POP JUMP JUMPDEST PUSH0 PUSH0 PUSH1 0x40 DUP4 DUP6 SUB SLT ISZERO PUSH2 0x2D26 JUMPI PUSH2 0x2D25 PUSH2 0x29F5 JUMP JUMPDEST JUMPDEST PUSH0 PUSH2 0x2D33 DUP6 DUP3 DUP7 ADD PUSH2 0x2B79 JUMP JUMPDEST SWAP3 POP POP PUSH1 0x20 PUSH2 0x2D44 DUP6 DUP3 DUP7 ADD PUSH2 0x2B79 JUMP JUMPDEST SWAP2 POP POP SWAP3 POP SWAP3 SWAP1 POP JUMP JUMPDEST PUSH32 0x4E487B7100000000000000000000000000000000000000000000000000000000 PUSH0 MSTORE PUSH1 0x11 PUSH1 0x4 MSTORE PUSH1 0x24 PUSH0 REVERT JUMPDEST PUSH0 PUSH2 0x2D85 DUP3 PUSH2 0x2AAC JUMP JUMPDEST SWAP2 POP PUSH2 0x2D90 DUP4 PUSH2 0x2AAC JUMP JUMPDEST SWAP3 POP DUP3 DUP3 ADD SWAP1 POP DUP1 DUP3 GT ISZERO PUSH2 0x2DA8 JUMPI PUSH2 0x2DA7 PUSH2 0x2D4E JUMP JUMPDEST JUMPDEST SWAP3 SWAP2 POP POP JUMP JUMPDEST PUSH0 PUSH1 0x40 DUP3 ADD SWAP1 POP PUSH2 0x2DC1 PUSH0 DUP4 ADD DUP6 PUSH2 0x29CD JUMP JUMPDEST PUSH2 0x2DCE PUSH1 0x20 DUP4 ADD DUP5 PUSH2 0x29CD JUMP JUMPDEST SWAP4 SWAP3 POP POP POP JUMP JUMPDEST PUSH0 DUP2 MLOAD SWAP1 POP PUSH2 0x2DE3 DUP2 PUSH2 0x2BCB JUMP JUMPDEST SWAP3 SWAP2 POP POP JUMP JUMPDEST PUSH0 PUSH1 0x20 DUP3 DUP5 SUB SLT ISZERO PUSH2 0x2DFE JUMPI PUSH2 0x2DFD PUSH2 0x29F5 JUMP JUMPDEST JUMPDEST PUSH0 PUSH2 0x2E0B DUP5 DUP3 DUP6 ADD PUSH2 0x2DD5 JUMP JUMPDEST SWAP2 POP POP SWAP3 SWAP2 POP POP JUMP JUMPDEST PUSH0 PUSH16 0xFFFFFFFFFFFFFFFFFFFFFFFFFFFFFFFF DUP3 AND SWAP1 POP SWAP2 SWAP1 POP JUMP JUMPDEST PUSH0 PUSH2 0x2E39 DUP3 PUSH2 0x2E14 JUMP JUMPDEST SWAP2 POP PUSH16 0xFFFFFFFFFFFFFFFFFFFFFFFFFFFFFFFF DUP3 SUB PUSH2 0x2E5B JUMPI PUSH2 0x2E5A PUSH2 0x2D4E JUMP JUMPDEST JUMPDEST PUSH1 0x1 DUP3 ADD SWAP1 POP SWAP2 SWAP1 POP JUMP JUMPDEST PUSH0 PUSH10 0xFFFFFFFFFFFFFFFFFFFF DUP3 AND SWAP1 POP SWAP2 SWAP1 POP JUMP JUMPDEST PUSH2 0x2E84 DUP2 PUSH2 0x2E66 JUMP JUMPDEST DUP2 EQ PUSH2 0x2E8E JUMPI PUSH0 PUSH0 REVERT JUMPDEST POP JUMP JUMPDEST PUSH0 DUP2 MLOAD SWAP1 POP PUSH2 0x2E9F DUP2 PUSH2 0x2E7B JUMP JUMPDEST SWAP3 SWAP2 POP POP JUMP JUMPDEST PUSH0 DUP2 SWAP1 POP SWAP2 SWAP1 POP JUMP JUMPDEST PUSH2 0x2EB7 DUP2 PUSH2 0x2EA5 JUMP JUMPDEST DUP2 EQ PUSH2 0x2EC1 JUMPI PUSH0 PUSH0 REVERT JUMPDEST POP JUMP JUMPDEST PUSH0 DUP2 MLOAD SWAP1 POP PUSH2 0x2ED2 DUP2 PUSH2 0x2EAE JUMP JUMPDEST SWAP3 SWAP2 POP POP JUMP JUMPDEST PUSH0 PUSH0 PUSH0 PUSH0 PUSH0 PUSH1 0xA0 DUP7 DUP9 SUB SLT ISZERO PUSH2 0x2EF1 JUMPI PUSH2 0x2EF0 PUSH2 0x29F5 JUMP JUMPDEST JUMPDEST PUSH0 PUSH2 0x2EFE DUP9 DUP3 DUP10 ADD PUSH2 0x2E91 JUMP JUMPDEST SWAP6 POP POP PUSH1 0x20 PUSH2 0x2F0F DUP9 DUP3 DUP10 ADD PUSH2 0x2EC4 JUMP JUMPDEST SWAP5 POP POP PUSH1 0x40 PUSH2 0x2F20 DUP9 DUP3 DUP10 ADD PUSH2 0x2DD5 JUMP JUMPDEST SWAP4 POP POP PUSH1 0x60 PUSH2 0x2F31 DUP9 DUP3 DUP10 ADD PUSH2 0x2DD5 JUMP JUMPDEST SWAP3 POP POP PUSH1 0x80 PUSH2 0x2F42 DUP9 DUP3 DUP10 ADD PUSH2 0x2E91 JUMP JUMPDEST SWAP2 POP POP SWAP3 SWAP6 POP SWAP3 SWAP6 SWAP1 SWAP4 POP JUMP JUMPDEST PUSH0 PUSH2 0x2F59 DUP3 PUSH2 0x2AAC JUMP JUMPDEST SWAP2 POP PUSH2 0x2F64 DUP4 PUSH2 0x2AAC JUMP JUMPDEST SWAP3 POP DUP3 DUP3 SUB SWAP1 POP DUP2 DUP2 GT ISZERO PUSH2 0x2F7C JUMPI PUSH2 0x2F7B PUSH2 0x2D4E JUMP JUMPDEST JUMPDEST SWAP3 SWAP2 POP POP JUMP JUMPDEST PUSH0 PUSH1 0x60 DUP3 ADD SWAP1 POP PUSH2 0x2F95 PUSH0 DUP4 ADD DUP7 PUSH2 0x29CD JUMP JUMPDEST PUSH2 0x2FA2 PUSH1 0x20 DUP4 ADD DUP6 PUSH2 0x29CD JUMP JUMPDEST PUSH2 0x2FAF PUSH1 0x40 DUP4 ADD DUP5 PUSH2 0x2AB5 JUMP JUMPDEST SWAP5 SWAP4 POP POP POP POP JUMP JUMPDEST PUSH0 PUSH2 0x2FC1 DUP3 PUSH2 0x2AAC JUMP JUMPDEST SWAP2 POP PUSH2 0x2FCC DUP4 PUSH2 0x2AAC JUMP JUMPDEST SWAP3 POP DUP3 DUP3 MUL PUSH2 0x2FDA DUP2 PUSH2 0x2AAC JUMP JUMPDEST SWAP2 POP DUP3 DUP3 DIV DUP5 EQ DUP4 ISZERO OR PUSH2 0x2FF1 JUMPI PUSH2 0x2FF0 PUSH2 0x2D4E JUMP JUMPDEST JUMPDEST POP SWAP3 SWAP2 POP POP JUMP JUMPDEST PUSH32 0x4E487B7100000000000000000000000000000000000000000000000000000000 PUSH0 MSTORE PUSH1 0x12 PUSH1 0x4 MSTORE PUSH1 0x24 PUSH0 REVERT JUMPDEST PUSH0 PUSH2 0x302F DUP3 PUSH2 0x2AAC JUMP JUMPDEST SWAP2 POP PUSH2 0x303A DUP4 PUSH2 0x2AAC JUMP JUMPDEST SWAP3 POP DUP3 PUSH2 0x304A JUMPI PUSH2 0x3049 PUSH2 0x2FF8 JUMP JUMPDEST JUMPDEST DUP3 DUP3 DIV SWAP1 POP SWAP3 SWAP2 POP POP JUMP JUMPDEST PUSH0 PUSH1 0x40 DUP3 ADD SWAP1 POP PUSH2 0x3068 PUSH0 DUP4 ADD DUP6 PUSH2 0x29CD JUMP JUMPDEST PUSH2 0x3075 PUSH1 0x20 DUP4 ADD DUP5 PUSH2 0x2AB5 JUMP JUMPDEST SWAP4 SWAP3 POP POP POP JUMP JUMPDEST PUSH0 DUP2 SWAP1 POP SWAP3 SWAP2 POP POP JUMP JUMPDEST POP JUMP JUMPDEST PUSH0 PUSH2 0x3094 PUSH0 DUP4 PUSH2 0x307C JUMP JUMPDEST SWAP2 POP PUSH2 0x309F DUP3 PUSH2 0x3086 JUMP JUMPDEST PUSH0 DUP3 ADD SWAP1 POP SWAP2 SWAP1 POP JUMP JUMPDEST PUSH0 PUSH2 0x30B3 DUP3 PUSH2 0x3089 JUMP JUMPDEST SWAP2 POP DUP2 SWAP1 POP SWAP2 SWAP1 POP JUMP JUMPDEST PUSH0 DUP3 DUP3 MSTORE PUSH1 0x20 DUP3 ADD SWAP1 POP SWAP3 SWAP2 POP POP JUMP JUMPDEST PUSH32 0x5265656E7472616E637947756172643A207265656E7472616E742063616C6C00 PUSH0 DUP3 ADD MSTORE POP JUMP JUMPDEST PUSH0 PUSH2 0x3101 PUSH1 0x1F DUP4 PUSH2 0x30BD JUMP JUMPDEST SWAP2 POP PUSH2 0x310C DUP3 PUSH2 0x30CD JUMP JUMPDEST PUSH1 0x20 DUP3 ADD SWAP1 POP SWAP2 SWAP1 POP JUMP JUMPDEST PUSH0 PUSH1 0x20 DUP3 ADD SWAP1 POP DUP2 DUP2 SUB PUSH0 DUP4 ADD MSTORE PUSH2 0x312E DUP2 PUSH2 0x30F5 JUMP JUMPDEST SWAP1 POP SWAP2 SWAP1 POP JUMP JUMPDEST PUSH0 PUSH1 0x40 DUP3 ADD SWAP1 POP PUSH2 0x3148 PUSH0 DUP4 ADD DUP6 PUSH2 0x29CD JUMP JUMPDEST PUSH2 0x3155 PUSH1 0x20 DUP4 ADD DUP5 PUSH2 0x2B3B JUMP JUMPDEST SWAP4 SWAP3 POP POP POP JUMP INVALID LOG2 PUSH5 0x6970667358 0x22 SLT KECCAK256 TLOAD 0xB6 DUPN 0x72 PUSH3 0xBC923E 0x2D CODECOPY 0xB7 BLOBBASEFEE PUSH7 0x7E0D6CE4C886D9 MCOPY PUSH15 0xF3B1F76D50666B498F764736F6C63 NUMBER STOP ADDMOD 0x1E STOP CALLER "
				},
				"gasEstimates": {
					"creation": {
						"codeDepositCost": "2538000",
						"executionCost": "infinite",
						"totalCost": "infinite"
					},
					"external": {
						"": "441",
						"DEFAULT_ADMIN_ROLE()": "397",
						"FEED_MANAGER()": "414",
						"MIN_DEPOSIT()": "436",
						"PAUSER()": "392",
						"balanceOf(address,address)": "infinite",
						"depositETH()": "infinite",
						"depositarUSDC(uint256)": "infinite",
						"getRoleAdmin(bytes32)": "infinite",
						"grantRole(bytes32,address)": "infinite",
						"hasRole(bytes32,address)": "3232",
						"owner()": "2604",
						"pauseContract()": "infinite",
						"paused()": "2570",
						"renounceOwnership()": "infinite",
						"renounceRole(bytes32,address)": "infinite",
						"revokeRole(bytes32,address)": "infinite",
						"s_feed()": "infinite",
						"setFeeds(address)": "infinite",
						"supportsInterface(bytes4)": "806",
						"transferOwnership(address)": "infinite",
						"transferTheOwnership(address)": "infinite",
						"unpauseContract()": "infinite",
						"viewAccountTotalBalance()": "infinite",
						"viewContractBalance()": "2544",
						"viewContractState()": "infinite",
						"viewDepositsCount()": "2519",
						"viewWithdrawCount()": "2593",
						"withdrawETH(uint256)": "infinite",
						"withdrawUSDC(uint256)": "infinite"
					},
					"internal": {
						"_depositETH(address,uint256,uint256)": "infinite",
						"_withdrawETH(uint256)": "infinite",
						"_withdrawUSDC(uint256)": "infinite",
						"chainLinkFeeds()": "infinite",
						"convertEthInUSD(uint256)": "infinite"
					}
				},
				"methodIdentifiers": {
					"DEFAULT_ADMIN_ROLE()": "a217fddf",
					"FEED_MANAGER()": "cb398eb3",
					"MIN_DEPOSIT()": "e1e158a5",
					"PAUSER()": "d9dc8694",
					"balanceOf(address,address)": "f7888aec",
					"depositETH()": "f6326fb3",
					"depositarUSDC(uint256)": "698b7241",
					"getRoleAdmin(bytes32)": "248a9ca3",
					"grantRole(bytes32,address)": "2f2ff15d",
					"hasRole(bytes32,address)": "91d14854",
					"owner()": "8da5cb5b",
					"pauseContract()": "439766ce",
					"paused()": "5c975abb",
					"renounceOwnership()": "715018a6",
					"renounceRole(bytes32,address)": "36568abe",
					"revokeRole(bytes32,address)": "d547741f",
					"s_feed()": "6f05c64c",
					"setFeeds(address)": "7dc532c5",
					"supportsInterface(bytes4)": "01ffc9a7",
					"transferOwnership(address)": "f2fde38b",
					"transferTheOwnership(address)": "cb14228a",
					"unpauseContract()": "b33712c5",
					"viewAccountTotalBalance()": "c70a94e2",
					"viewContractBalance()": "5c8de34c",
					"viewContractState()": "d6cb9ec2",
					"viewDepositsCount()": "977ae0d1",
					"viewWithdrawCount()": "0d3c6b34",
					"withdrawETH(uint256)": "f14210a6",
					"withdrawUSDC(uint256)": "db81f99b"
				}
			},
			"storageLayout": {
				"storage": [
					{
						"astId": 674,
						"contract": "contracts/KipuBank.sol:KipuBank",
						"label": "_status",
						"offset": 0,
						"slot": "0",
						"type": "t_uint256"
					},
					{
						"astId": 434,
						"contract": "contracts/KipuBank.sol:KipuBank",
						"label": "_owner",
						"offset": 0,
						"slot": "1",
						"type": "t_address"
					},
					{
						"astId": 1309,
						"contract": "contracts/KipuBank.sol:KipuBank",
						"label": "_paused",
						"offset": 20,
						"slot": "1",
						"type": "t_bool"
					},
					{
						"astId": 73,
						"contract": "contracts/KipuBank.sol:KipuBank",
						"label": "_roles",
						"offset": 0,
						"slot": "2",
						"type": "t_mapping(t_bytes32,t_struct(RoleData)68_storage)"
					},
					{
						"astId": 1478,
						"contract": "contracts/KipuBank.sol:KipuBank",
						"label": "s_feed",
						"offset": 0,
						"slot": "3",
						"type": "t_contract(AggregatorV3Interface)45"
					},
					{
						"astId": 1508,
						"contract": "contracts/KipuBank.sol:KipuBank",
						"label": "s_totalContract",
						"offset": 0,
						"slot": "4",
						"type": "t_uint256"
					},
					{
						"astId": 1516,
						"contract": "contracts/KipuBank.sol:KipuBank",
						"label": "s_deposits",
						"offset": 0,
						"slot": "5",
						"type": "t_uint128"
					},
					{
						"astId": 1520,
						"contract": "contracts/KipuBank.sol:KipuBank",
						"label": "s_withdrawal",
						"offset": 16,
						"slot": "5",
						"type": "t_uint128"
					},
					{
						"astId": 1527,
						"contract": "contracts/KipuBank.sol:KipuBank",
						"label": "s_balances",
						"offset": 0,
						"slot": "6",
						"type": "t_mapping(t_address,t_mapping(t_address,t_uint256))"
					}
				],
				"types": {
					"t_address": {
						"encoding": "inplace",
						"label": "address",
						"numberOfBytes": "20"
					},
					"t_bool": {
						"encoding": "inplace",
						"label": "bool",
						"numberOfBytes": "1"
					},
					"t_bytes32": {
						"encoding": "inplace",
						"label": "bytes32",
						"numberOfBytes": "32"
					},
					"t_contract(AggregatorV3Interface)45": {
						"encoding": "inplace",
						"label": "contract AggregatorV3Interface",
						"numberOfBytes": "20"
					},
					"t_mapping(t_address,t_bool)": {
						"encoding": "mapping",
						"key": "t_address",
						"label": "mapping(address => bool)",
						"numberOfBytes": "32",
						"value": "t_bool"
					},
					"t_mapping(t_address,t_mapping(t_address,t_uint256))": {
						"encoding": "mapping",
						"key": "t_address",
						"label": "mapping(address => mapping(address => uint256))",
						"numberOfBytes": "32",
						"value": "t_mapping(t_address,t_uint256)"
					},
					"t_mapping(t_address,t_uint256)": {
						"encoding": "mapping",
						"key": "t_address",
						"label": "mapping(address => uint256)",
						"numberOfBytes": "32",
						"value": "t_uint256"
					},
					"t_mapping(t_bytes32,t_struct(RoleData)68_storage)": {
						"encoding": "mapping",
						"key": "t_bytes32",
						"label": "mapping(bytes32 => struct AccessControl.RoleData)",
						"numberOfBytes": "32",
						"value": "t_struct(RoleData)68_storage"
					},
					"t_struct(RoleData)68_storage": {
						"encoding": "inplace",
						"label": "struct AccessControl.RoleData",
						"members": [
							{
								"astId": 65,
								"contract": "contracts/KipuBank.sol:KipuBank",
								"label": "hasRole",
								"offset": 0,
								"slot": "0",
								"type": "t_mapping(t_address,t_bool)"
							},
							{
								"astId": 67,
								"contract": "contracts/KipuBank.sol:KipuBank",
								"label": "adminRole",
								"offset": 0,
								"slot": "1",
								"type": "t_bytes32"
							}
						],
						"numberOfBytes": "64"
					},
					"t_uint128": {
						"encoding": "inplace",
						"label": "uint128",
						"numberOfBytes": "16"
					},
					"t_uint256": {
						"encoding": "inplace",
						"label": "uint256",
						"numberOfBytes": "32"
					}
				}
			},
			"userdoc": {
				"errors": {
					"KipuBank_CommittedOracle(uint256)": [
						{
							"notice": "Oracle price error"
						}
					],
					"KipuBank_ExceededLimit(uint256)": [
						{
							"notice": "Exceeding limit error"
						}
					],
					"KipuBank_ExceededThreshold(uint256)": [
						{
							"notice": "Threshold exceeded error"
						}
					],
					"KipuBank_InsufficientsFunds(address,uint256)": [
						{
							"notice": "Insufficient funds error"
						}
					],
					"KipuBank_InvalidAddress()": [
						{
							"notice": "Invalid address set error"
						}
					],
					"KipuBank_InvalidFeed(address)": [
						{
							"notice": "Invalid data feed address error"
						}
					],
					"KipuBank_InvalidInit(uint256,uint256)": [
						{
							"notice": "Limit above threshold error"
						}
					],
					"KipuBank_InvalidLimit(uint256)": [
						{
							"notice": "Invalid limit error"
						}
					],
					"KipuBank_InvalidThreshold(uint256)": [
						{
							"notice": "Invalid threshold error"
						}
					],
					"KipuBank_LowerMinimumAmount(uint256)": [
						{
							"notice": "Amount lower than minimum deposit"
						}
					],
					"KipuBank_NonPermittedAccess(address)": [
						{
							"notice": "Non-permitted function access error"
						}
					],
					"KipuBank_NonPermittedAmount(uint256)": [
						{
							"notice": "Non-permitted deposit amount"
						}
					],
					"KipuBank_NonPermittedOperation(address)": [
						{
							"notice": "Operation not permitted error"
						}
					],
					"KipuBank_OutdatedPrice(uint256)": [
						{
							"notice": "Outdated price error"
						}
					],
					"KipuBank_RejectedWithdraw(address,uint256)": [
						{
							"notice": "Withdrawal rejected error "
						}
					],
					"KipuBank_ZeroAmount(address)": [
						{
							"notice": "Zero amount error"
						}
					]
				},
				"events": {
					"KipuBank_ContractPaused(address,uint256)": {
						"notice": "Contract pause event"
					},
					"KipuBank_ContractUnpaused(address,uint256)": {
						"notice": "Contract unpaused event"
					},
					"KipuBank_FeedUpdated(address,address)": {
						"notice": "Feed update event"
					},
					"KipuBank_GrantedRole(address,bytes32)": {
						"notice": "Rol granted event"
					},
					"KipuBank_RoleRevoked(address,bytes32)": {
						"notice": "Role revoked event"
					},
					"KipuBank_SuccessfulDeposit(address,uint256)": {
						"notice": "Successful deposit made event"
					},
					"KipuBank_SuccessfulWithdrawal(address,uint256)": {
						"notice": "Successful withdrawal made"
					},
					"KipuBank_TransferredOwner(address,address)": {
						"notice": "Ownership transfer event"
					}
				},
				"kind": "user",
				"methods": {
					"FEED_MANAGER()": {
						"notice": "Data feeds manager rol"
					},
					"MIN_DEPOSIT()": {
						"notice": "Minimum deposit of Ether to the contract"
					},
					"PAUSER()": {
						"notice": "Pauser contract rol"
					},
					"balanceOf(address,address)": {
						"notice": "Function to view to each tokens funds for holder"
					},
					"constructor": {
						"notice": "Contract constructor"
					},
					"depositETH()": {
						"notice": "Function to deposit ETH"
					},
					"depositarUSDC(uint256)": {
						"notice": "Function to deposit USDC"
					},
					"grantRole(bytes32,address)": {
						"notice": "Function to grant a role"
					},
					"pauseContract()": {
						"notice": "Function to pause the contract"
					},
					"revokeRole(bytes32,address)": {
						"notice": "Function to revoke a role"
					},
					"s_feed()": {
						"notice": "Public interface data feeds"
					},
					"setFeeds(address)": {
						"notice": "Function to change the data feeds"
					},
					"supportsInterface(bytes4)": {
						"notice": "Requiered Override to multiple inheritance"
					},
					"transferTheOwnership(address)": {
						"notice": "Function to transfer the ownership another address"
					},
					"unpauseContract()": {
						"notice": "Function to unpause the contract"
					},
					"viewAccountTotalBalance()": {
						"notice": "Function to view the balance in USD"
					},
					"viewContractBalance()": {
						"notice": "Function to view the contract balance in USD"
					},
					"viewContractState()": {
						"notice": "Function to view the contract stateReturns the total contract balance, the bankcap, the threshold and the current data feeds provider"
					},
					"viewDepositsCount()": {
						"notice": "Function to view the deposits count"
					},
					"viewWithdrawCount()": {
						"notice": "Function to view the withdraws count"
					},
					"withdrawETH(uint256)": {
						"notice": "External functoin to perform withdraw in ETH"
					},
					"withdrawUSDC(uint256)": {
						"notice": "External function to withdraw USDC"
					}
				},
				"version": 1
			}
		}
	}
}