{
	"contracts/KipuBank.sol": {
		"KipuBank": {
			"abi": [
				{
					"inputs": [
						{
							"internalType": "uint256",
							"name": "_limite",
							"type": "uint256"
						},
						{
							"internalType": "uint256",
							"name": "_umbral",
							"type": "uint256"
						},
						{
							"internalType": "address",
							"name": "_owner",
							"type": "address"
						},
						{
							"internalType": "address",
							"name": "_feed",
							"type": "address"
						},
						{
							"internalType": "address",
							"name": "_tokenERC20",
							"type": "address"
						}
					],
					"stateMutability": "nonpayable",
					"type": "constructor"
				},
				{
					"inputs": [],
					"name": "AccessControlBadConfirmation",
					"type": "error"
				},
				{
					"inputs": [
						{
							"internalType": "address",
							"name": "account",
							"type": "address"
						},
						{
							"internalType": "bytes32",
							"name": "neededRole",
							"type": "bytes32"
						}
					],
					"name": "AccessControlUnauthorizedAccount",
					"type": "error"
				},
				{
					"inputs": [],
					"name": "EnforcedPause",
					"type": "error"
				},
				{
					"inputs": [],
					"name": "ExpectedPause",
					"type": "error"
				},
				{
					"inputs": [],
					"name": "KipuBank_DireccionInvalida",
					"type": "error"
				},
				{
					"inputs": [
						{
							"internalType": "address",
							"name": "titular",
							"type": "address"
						},
						{
							"internalType": "uint256",
							"name": "monto",
							"type": "uint256"
						}
					],
					"name": "KipuBank_ExtraccionRechazada",
					"type": "error"
				},
				{
					"inputs": [
						{
							"internalType": "address",
							"name": "nuevoFeed",
							"type": "address"
						}
					],
					"name": "KipuBank_FeedInvalido",
					"type": "error"
				},
				{
					"inputs": [
						{
							"internalType": "uint256",
							"name": "monto",
							"type": "uint256"
						}
					],
					"name": "KipuBank_InferiorDepositoMinimo",
					"type": "error"
				},
				{
					"inputs": [
						{
							"internalType": "uint256",
							"name": "limite",
							"type": "uint256"
						},
						{
							"internalType": "uint256",
							"name": "umbral",
							"type": "uint256"
						}
					],
					"name": "KipuBank_InicializacionInvalida",
					"type": "error"
				},
				{
					"inputs": [
						{
							"internalType": "uint256",
							"name": "monto",
							"type": "uint256"
						}
					],
					"name": "KipuBank_LimiteExcedido",
					"type": "error"
				},
				{
					"inputs": [
						{
							"internalType": "uint256",
							"name": "limite",
							"type": "uint256"
						}
					],
					"name": "KipuBank_LimiteInvalido",
					"type": "error"
				},
				{
					"inputs": [
						{
							"internalType": "address",
							"name": "titular",
							"type": "address"
						}
					],
					"name": "KipuBank_MontoCero",
					"type": "error"
				},
				{
					"inputs": [
						{
							"internalType": "uint256",
							"name": "monto",
							"type": "uint256"
						}
					],
					"name": "KipuBank_MontoNoAutorizado",
					"type": "error"
				},
				{
					"inputs": [
						{
							"internalType": "address",
							"name": "sender",
							"type": "address"
						}
					],
					"name": "KipuBank_NoAutorizado",
					"type": "error"
				},
				{
					"inputs": [
						{
							"internalType": "address",
							"name": "titular",
							"type": "address"
						}
					],
					"name": "KipuBank_OperacionNoPermitida",
					"type": "error"
				},
				{
					"inputs": [
						{
							"internalType": "uint256",
							"name": "precio",
							"type": "uint256"
						}
					],
					"name": "KipuBank_OraculoComprometido",
					"type": "error"
				},
				{
					"inputs": [
						{
							"internalType": "uint256",
							"name": "precio",
							"type": "uint256"
						}
					],
					"name": "KipuBank_PrecioDesactualizado",
					"type": "error"
				},
				{
					"inputs": [
						{
							"internalType": "address",
							"name": "titular",
							"type": "address"
						},
						{
							"internalType": "uint256",
							"name": "monto",
							"type": "uint256"
						}
					],
					"name": "KipuBank_SaldoInsuficiente",
					"type": "error"
				},
				{
					"inputs": [
						{
							"internalType": "uint256",
							"name": "monto",
							"type": "uint256"
						}
					],
					"name": "KipuBank_UmbralExcedido",
					"type": "error"
				},
				{
					"inputs": [
						{
							"internalType": "uint256",
							"name": "umbral",
							"type": "uint256"
						}
					],
					"name": "KipuBank_UmbralInvalido",
					"type": "error"
				},
				{
					"inputs": [
						{
							"internalType": "address",
							"name": "owner",
							"type": "address"
						}
					],
					"name": "OwnableInvalidOwner",
					"type": "error"
				},
				{
					"inputs": [
						{
							"internalType": "address",
							"name": "account",
							"type": "address"
						}
					],
					"name": "OwnableUnauthorizedAccount",
					"type": "error"
				},
				{
					"inputs": [
						{
							"internalType": "address",
							"name": "token",
							"type": "address"
						}
					],
					"name": "SafeERC20FailedOperation",
					"type": "error"
				},
				{
					"anonymous": false,
					"inputs": [
						{
							"indexed": true,
							"internalType": "address",
							"name": "sender",
							"type": "address"
						},
						{
							"indexed": false,
							"internalType": "uint256",
							"name": "tiempo",
							"type": "uint256"
						}
					],
					"name": "KipuBank_ContratoDespausado",
					"type": "event"
				},
				{
					"anonymous": false,
					"inputs": [
						{
							"indexed": true,
							"internalType": "address",
							"name": "sender",
							"type": "address"
						},
						{
							"indexed": false,
							"internalType": "uint256",
							"name": "tiempo",
							"type": "uint256"
						}
					],
					"name": "KipuBank_ContratoPausado",
					"type": "event"
				},
				{
					"anonymous": false,
					"inputs": [
						{
							"indexed": true,
							"internalType": "address",
							"name": "titular",
							"type": "address"
						},
						{
							"indexed": false,
							"internalType": "uint256",
							"name": "monto",
							"type": "uint256"
						}
					],
					"name": "KipuBank_DepositoRealizado",
					"type": "event"
				},
				{
					"anonymous": false,
					"inputs": [
						{
							"indexed": true,
							"internalType": "address",
							"name": "titular",
							"type": "address"
						},
						{
							"indexed": false,
							"internalType": "uint256",
							"name": "monto",
							"type": "uint256"
						}
					],
					"name": "KipuBank_ExtraccionRealizada",
					"type": "event"
				},
				{
					"anonymous": false,
					"inputs": [
						{
							"indexed": true,
							"internalType": "address",
							"name": "antiguoFeed",
							"type": "address"
						},
						{
							"indexed": true,
							"internalType": "address",
							"name": "nuevoFeed",
							"type": "address"
						}
					],
					"name": "KipuBank_FeedActualizado",
					"type": "event"
				},
				{
					"anonymous": false,
					"inputs": [
						{
							"indexed": true,
							"internalType": "address",
							"name": "ownerViejo",
							"type": "address"
						},
						{
							"indexed": true,
							"internalType": "address",
							"name": "ownerNuevo",
							"type": "address"
						}
					],
					"name": "KipuBank_OwnerTransferido",
					"type": "event"
				},
				{
					"anonymous": false,
					"inputs": [
						{
							"indexed": true,
							"internalType": "address",
							"name": "cuenta",
							"type": "address"
						},
						{
							"indexed": false,
							"internalType": "bytes32",
							"name": "rol",
							"type": "bytes32"
						}
					],
					"name": "KipuBank_RolDado",
					"type": "event"
				},
				{
					"anonymous": false,
					"inputs": [
						{
							"indexed": true,
							"internalType": "address",
							"name": "cuenta",
							"type": "address"
						},
						{
							"indexed": false,
							"internalType": "bytes32",
							"name": "rol",
							"type": "bytes32"
						}
					],
					"name": "KipuBank_RolRevocado",
					"type": "event"
				},
				{
					"anonymous": false,
					"inputs": [
						{
							"indexed": true,
							"internalType": "address",
							"name": "previousOwner",
							"type": "address"
						},
						{
							"indexed": true,
							"internalType": "address",
							"name": "newOwner",
							"type": "address"
						}
					],
					"name": "OwnershipTransferred",
					"type": "event"
				},
				{
					"anonymous": false,
					"inputs": [
						{
							"indexed": false,
							"internalType": "address",
							"name": "account",
							"type": "address"
						}
					],
					"name": "Paused",
					"type": "event"
				},
				{
					"anonymous": false,
					"inputs": [
						{
							"indexed": true,
							"internalType": "bytes32",
							"name": "role",
							"type": "bytes32"
						},
						{
							"indexed": true,
							"internalType": "bytes32",
							"name": "previousAdminRole",
							"type": "bytes32"
						},
						{
							"indexed": true,
							"internalType": "bytes32",
							"name": "newAdminRole",
							"type": "bytes32"
						}
					],
					"name": "RoleAdminChanged",
					"type": "event"
				},
				{
					"anonymous": false,
					"inputs": [
						{
							"indexed": true,
							"internalType": "bytes32",
							"name": "role",
							"type": "bytes32"
						},
						{
							"indexed": true,
							"internalType": "address",
							"name": "account",
							"type": "address"
						},
						{
							"indexed": true,
							"internalType": "address",
							"name": "sender",
							"type": "address"
						}
					],
					"name": "RoleGranted",
					"type": "event"
				},
				{
					"anonymous": false,
					"inputs": [
						{
							"indexed": true,
							"internalType": "bytes32",
							"name": "role",
							"type": "bytes32"
						},
						{
							"indexed": true,
							"internalType": "address",
							"name": "account",
							"type": "address"
						},
						{
							"indexed": true,
							"internalType": "address",
							"name": "sender",
							"type": "address"
						}
					],
					"name": "RoleRevoked",
					"type": "event"
				},
				{
					"anonymous": false,
					"inputs": [
						{
							"indexed": false,
							"internalType": "address",
							"name": "account",
							"type": "address"
						}
					],
					"name": "Unpaused",
					"type": "event"
				},
				{
					"stateMutability": "payable",
					"type": "fallback"
				},
				{
					"inputs": [],
					"name": "DEFAULT_ADMIN_ROLE",
					"outputs": [
						{
							"internalType": "bytes32",
							"name": "",
							"type": "bytes32"
						}
					],
					"stateMutability": "view",
					"type": "function"
				},
				{
					"inputs": [],
					"name": "FEED_MANAGER",
					"outputs": [
						{
							"internalType": "bytes32",
							"name": "",
							"type": "bytes32"
						}
					],
					"stateMutability": "view",
					"type": "function"
				},
				{
					"inputs": [],
					"name": "MIN_DEPOSITO",
					"outputs": [
						{
							"internalType": "uint256",
							"name": "",
							"type": "uint256"
						}
					],
					"stateMutability": "view",
					"type": "function"
				},
				{
					"inputs": [],
					"name": "PAUSER",
					"outputs": [
						{
							"internalType": "bytes32",
							"name": "",
							"type": "bytes32"
						}
					],
					"stateMutability": "view",
					"type": "function"
				},
				{
					"inputs": [
						{
							"internalType": "address",
							"name": "titular",
							"type": "address"
						},
						{
							"internalType": "address",
							"name": "token",
							"type": "address"
						}
					],
					"name": "balanceOf",
					"outputs": [
						{
							"internalType": "uint256",
							"name": "",
							"type": "uint256"
						}
					],
					"stateMutability": "view",
					"type": "function"
				},
				{
					"inputs": [
						{
							"internalType": "address",
							"name": "cuenta",
							"type": "address"
						},
						{
							"internalType": "bytes32",
							"name": "rol",
							"type": "bytes32"
						}
					],
					"name": "darRol",
					"outputs": [],
					"stateMutability": "nonpayable",
					"type": "function"
				},
				{
					"inputs": [],
					"name": "depositarETH",
					"outputs": [],
					"stateMutability": "payable",
					"type": "function"
				},
				{
					"inputs": [
						{
							"internalType": "uint256",
							"name": "_monto",
							"type": "uint256"
						}
					],
					"name": "depositarUSDC",
					"outputs": [],
					"stateMutability": "nonpayable",
					"type": "function"
				},
				{
					"inputs": [],
					"name": "despausarContrato",
					"outputs": [],
					"stateMutability": "nonpayable",
					"type": "function"
				},
				{
					"inputs": [],
					"name": "estadoDelContrato",
					"outputs": [
						{
							"internalType": "bool",
							"name": "pausado",
							"type": "bool"
						},
						{
							"internalType": "uint256",
							"name": "totalContrato",
							"type": "uint256"
						},
						{
							"internalType": "uint256",
							"name": "limite",
							"type": "uint256"
						},
						{
							"internalType": "uint256",
							"name": "umbral",
							"type": "uint256"
						},
						{
							"internalType": "address",
							"name": "feedActual",
							"type": "address"
						}
					],
					"stateMutability": "view",
					"type": "function"
				},
				{
					"inputs": [
						{
							"internalType": "bytes32",
							"name": "role",
							"type": "bytes32"
						}
					],
					"name": "getRoleAdmin",
					"outputs": [
						{
							"internalType": "bytes32",
							"name": "",
							"type": "bytes32"
						}
					],
					"stateMutability": "view",
					"type": "function"
				},
				{
					"inputs": [
						{
							"internalType": "bytes32",
							"name": "role",
							"type": "bytes32"
						},
						{
							"internalType": "address",
							"name": "account",
							"type": "address"
						}
					],
					"name": "grantRole",
					"outputs": [],
					"stateMutability": "nonpayable",
					"type": "function"
				},
				{
					"inputs": [
						{
							"internalType": "bytes32",
							"name": "role",
							"type": "bytes32"
						},
						{
							"internalType": "address",
							"name": "account",
							"type": "address"
						}
					],
					"name": "hasRole",
					"outputs": [
						{
							"internalType": "bool",
							"name": "",
							"type": "bool"
						}
					],
					"stateMutability": "view",
					"type": "function"
				},
				{
					"inputs": [],
					"name": "owner",
					"outputs": [
						{
							"internalType": "address",
							"name": "",
							"type": "address"
						}
					],
					"stateMutability": "view",
					"type": "function"
				},
				{
					"inputs": [],
					"name": "pausarContrato",
					"outputs": [],
					"stateMutability": "nonpayable",
					"type": "function"
				},
				{
					"inputs": [],
					"name": "paused",
					"outputs": [
						{
							"internalType": "bool",
							"name": "",
							"type": "bool"
						}
					],
					"stateMutability": "view",
					"type": "function"
				},
				{
					"inputs": [],
					"name": "renounceOwnership",
					"outputs": [],
					"stateMutability": "nonpayable",
					"type": "function"
				},
				{
					"inputs": [
						{
							"internalType": "bytes32",
							"name": "role",
							"type": "bytes32"
						},
						{
							"internalType": "address",
							"name": "callerConfirmation",
							"type": "address"
						}
					],
					"name": "renounceRole",
					"outputs": [],
					"stateMutability": "nonpayable",
					"type": "function"
				},
				{
					"inputs": [
						{
							"internalType": "uint256",
							"name": "_monto",
							"type": "uint256"
						}
					],
					"name": "retirarETH",
					"outputs": [],
					"stateMutability": "nonpayable",
					"type": "function"
				},
				{
					"inputs": [
						{
							"internalType": "uint256",
							"name": "_monto",
							"type": "uint256"
						}
					],
					"name": "retirarUSDC",
					"outputs": [],
					"stateMutability": "nonpayable",
					"type": "function"
				},
				{
					"inputs": [
						{
							"internalType": "address",
							"name": "cuenta",
							"type": "address"
						},
						{
							"internalType": "bytes32",
							"name": "rol",
							"type": "bytes32"
						}
					],
					"name": "revocarRol",
					"outputs": [],
					"stateMutability": "nonpayable",
					"type": "function"
				},
				{
					"inputs": [
						{
							"internalType": "bytes32",
							"name": "role",
							"type": "bytes32"
						},
						{
							"internalType": "address",
							"name": "account",
							"type": "address"
						}
					],
					"name": "revokeRole",
					"outputs": [],
					"stateMutability": "nonpayable",
					"type": "function"
				},
				{
					"inputs": [],
					"name": "s_feed",
					"outputs": [
						{
							"internalType": "contract AggregatorV3Interface",
							"name": "",
							"type": "address"
						}
					],
					"stateMutability": "view",
					"type": "function"
				},
				{
					"inputs": [
						{
							"internalType": "address",
							"name": "_nuevoFeed",
							"type": "address"
						}
					],
					"name": "setFeeds",
					"outputs": [],
					"stateMutability": "nonpayable",
					"type": "function"
				},
				{
					"inputs": [
						{
							"internalType": "bytes4",
							"name": "interfaceId",
							"type": "bytes4"
						}
					],
					"name": "supportsInterface",
					"outputs": [
						{
							"internalType": "bool",
							"name": "",
							"type": "bool"
						}
					],
					"stateMutability": "view",
					"type": "function"
				},
				{
					"inputs": [
						{
							"internalType": "address",
							"name": "newOwner",
							"type": "address"
						}
					],
					"name": "transferOwnership",
					"outputs": [],
					"stateMutability": "nonpayable",
					"type": "function"
				},
				{
					"inputs": [
						{
							"internalType": "address",
							"name": "_nuevoOwner",
							"type": "address"
						}
					],
					"name": "transferirOwner",
					"outputs": [],
					"stateMutability": "nonpayable",
					"type": "function"
				},
				{
					"inputs": [],
					"name": "verBoveda",
					"outputs": [
						{
							"internalType": "uint256",
							"name": "monto_",
							"type": "uint256"
						}
					],
					"stateMutability": "view",
					"type": "function"
				},
				{
					"inputs": [],
					"name": "verSaldoETH",
					"outputs": [
						{
							"internalType": "uint256",
							"name": "saldo_",
							"type": "uint256"
						}
					],
					"stateMutability": "view",
					"type": "function"
				},
				{
					"inputs": [],
					"name": "verSaldoUSDC",
					"outputs": [
						{
							"internalType": "uint256",
							"name": "saldo_",
							"type": "uint256"
						}
					],
					"stateMutability": "view",
					"type": "function"
				},
				{
					"inputs": [],
					"name": "verTotalContrato",
					"outputs": [
						{
							"internalType": "uint256",
							"name": "",
							"type": "uint256"
						}
					],
					"stateMutability": "view",
					"type": "function"
				},
				{
					"inputs": [],
					"name": "verTotalDepositos",
					"outputs": [
						{
							"internalType": "uint256",
							"name": "",
							"type": "uint256"
						}
					],
					"stateMutability": "view",
					"type": "function"
				},
				{
					"inputs": [],
					"name": "verTotalRetiros",
					"outputs": [
						{
							"internalType": "uint256",
							"name": "",
							"type": "uint256"
						}
					],
					"stateMutability": "view",
					"type": "function"
				},
				{
					"stateMutability": "payable",
					"type": "receive"
				}
			],
			"devdoc": {
				"errors": {
					"AccessControlBadConfirmation()": [
						{
							"details": "The caller of a function is not the expected one. NOTE: Don't confuse with {AccessControlUnauthorizedAccount}."
						}
					],
					"AccessControlUnauthorizedAccount(address,bytes32)": [
						{
							"details": "The `account` is missing a role."
						}
					],
					"EnforcedPause()": [
						{
							"details": "The operation failed because the contract is paused."
						}
					],
					"ExpectedPause()": [
						{
							"details": "The operation failed because the contract is not paused."
						}
					],
					"KipuBank_ExtraccionRechazada(address,uint256)": [
						{
							"params": {
								"monto": "monto a extraer de la boveda",
								"titular": "titular de la cuenta a realizar la extracción"
							}
						}
					],
					"KipuBank_FeedInvalido(address)": [
						{
							"params": {
								"nuevoFeed": "Es el data feed erroneo que quiso ser ingresado"
							}
						}
					],
					"KipuBank_InicializacionInvalida(uint256,uint256)": [
						{
							"params": {
								"limite": "limite del contrato",
								"umbral": "umbral del contrato"
							}
						}
					],
					"KipuBank_LimiteExcedido(uint256)": [
						{
							"params": {
								"monto": "monto que excede el limite a depositar"
							}
						}
					],
					"KipuBank_LimiteInvalido(uint256)": [
						{
							"params": {
								"limite": "limite que es invalido"
							}
						}
					],
					"KipuBank_MontoCero(address)": [
						{
							"params": {
								"titular": "titular que emite una transaccion con valor nulo"
							}
						}
					],
					"KipuBank_MontoNoAutorizado(uint256)": [
						{
							"params": {
								"monto": "Monto excedido"
							}
						}
					],
					"KipuBank_NoAutorizado(address)": [
						{
							"params": {
								"sender": "Es la cuenta que quiso acceder a la función"
							}
						}
					],
					"KipuBank_OperacionNoPermitida(address)": [
						{
							"params": {
								"titular": "titular que realizo la operacion no permitida"
							}
						}
					],
					"KipuBank_OraculoComprometido(uint256)": [
						{
							"params": {
								"precio": "Precio que dió el óraculo"
							}
						}
					],
					"KipuBank_PrecioDesactualizado(uint256)": [
						{
							"params": {
								"precio": "Es el precio que quedó desactualizado"
							}
						}
					],
					"KipuBank_SaldoInsuficiente(address,uint256)": [
						{
							"params": {
								"monto": "monto a retirar",
								"titular": "titular con saldo insuficiente"
							}
						}
					],
					"KipuBank_UmbralExcedido(uint256)": [
						{
							"params": {
								"monto": "que excede el umbral establecido"
							}
						}
					],
					"KipuBank_UmbralInvalido(uint256)": [
						{
							"params": {
								"umbral": "umbral que es invalido"
							}
						}
					],
					"OwnableInvalidOwner(address)": [
						{
							"details": "The owner is not a valid owner account. (eg. `address(0)`)"
						}
					],
					"OwnableUnauthorizedAccount(address)": [
						{
							"details": "The caller account is not authorized to perform an operation."
						}
					],
					"SafeERC20FailedOperation(address)": [
						{
							"details": "An operation with an ERC-20 token failed."
						}
					]
				},
				"events": {
					"KipuBank_ContratoDespausado(address,uint256)": {
						"params": {
							"sender": "Es la direccion que despausó el contrato",
							"tiempo": "Es el tiempo en el que fue despausado"
						}
					},
					"KipuBank_ContratoPausado(address,uint256)": {
						"params": {
							"sender": "Es la dirección que pauso el contrato",
							"tiempo": "Es el tiempo en el que fue pausado el contrato"
						}
					},
					"KipuBank_DepositoRealizado(address,uint256)": {
						"params": {
							"monto": "monto que se desea depositar",
							"titular": "titular que realiza el detposito"
						}
					},
					"KipuBank_ExtraccionRealizada(address,uint256)": {
						"params": {
							"monto": "monto que se desea extraer",
							"titular": "titular que desea realizar la extracción"
						}
					},
					"KipuBank_FeedActualizado(address,address)": {
						"params": {
							"antiguoFeed": "Es el antiguo data feed utilizado",
							"nuevoFeed": "Es el nuevo data feed a ser utilizado"
						}
					},
					"KipuBank_OwnerTransferido(address,address)": {
						"params": {
							"ownerNuevo": "Es el nuevo owner del contrato",
							"ownerViejo": "Es el anterior owner del contrato"
						}
					},
					"KipuBank_RolDado(address,bytes32)": {
						"params": {
							"cuenta": "Es la cuenta que recibe el nuevo rol",
							"rol": "Es el rol que se le asigna a la cuenta"
						}
					},
					"KipuBank_RolRevocado(address,bytes32)": {
						"params": {
							"cuenta": "Es la cuenta a la que se revoca el rol",
							"rol": "Es el rol que se elimina de la cuenta"
						}
					},
					"Paused(address)": {
						"details": "Emitted when the pause is triggered by `account`."
					},
					"RoleAdminChanged(bytes32,bytes32,bytes32)": {
						"details": "Emitted when `newAdminRole` is set as ``role``'s admin role, replacing `previousAdminRole` `DEFAULT_ADMIN_ROLE` is the starting admin for all roles, despite {RoleAdminChanged} not being emitted to signal this."
					},
					"RoleGranted(bytes32,address,address)": {
						"details": "Emitted when `account` is granted `role`. `sender` is the account that originated the contract call. This account bears the admin role (for the granted role). Expected in cases where the role was granted using the internal {AccessControl-_grantRole}."
					},
					"RoleRevoked(bytes32,address,address)": {
						"details": "Emitted when `account` is revoked `role`. `sender` is the account that originated the contract call:   - if using `revokeRole`, it is the admin role bearer   - if using `renounceRole`, it is the role bearer (i.e. `account`)"
					},
					"Unpaused(address)": {
						"details": "Emitted when the pause is lifted by `account`."
					}
				},
				"kind": "dev",
				"methods": {
					"balanceOf(address,address)": {
						"params": {
							"titular": "Es el titular de la cuenta",
							"token": "Es el token que se desea consultar"
						},
						"returns": {
							"_0": "Retorna un entero sin signo, que es el saldo correspondiente"
						}
					},
					"constructor": {
						"details": "Se deben generar el limite, umbral y las direcciones del data feed y el token a utilizar al momento de desplegar el contrato",
						"params": {
							"_feed": "Direccion del data feed a utlizar",
							"_limite": "Limite global que se permite por transaccion",
							"_tokenERC20": "Direccion del token ERC20 a utilizar",
							"_umbral": "Umbral de limite de retiros"
						}
					},
					"darRol(address,bytes32)": {
						"params": {
							"cuenta": "Es la cuenta que recibe el rol",
							"rol": "Es el rol dado a la cuenta"
						}
					},
					"depositarETH()": {
						"details": "Debe ser payable"
					},
					"depositarUSDC(uint256)": {
						"details": "Es payable y usa el modificador de verificarDepositosSe utiliza la interfaz SafeIERC20 para realizar la transferencia de token ERC20No se marca como payable ya que es un token ERC20 y no EtherNecesitamos la aprobación del dueño de los USDC para depositar"
					},
					"despausarContrato()": {
						"details": "Solo pueden acceder a ella el owner el aquellos que tengan rol PAUSER"
					},
					"getRoleAdmin(bytes32)": {
						"details": "Returns the admin role that controls `role`. See {grantRole} and {revokeRole}. To change a role's admin, use {_setRoleAdmin}."
					},
					"grantRole(bytes32,address)": {
						"details": "Grants `role` to `account`. If `account` had not been already granted `role`, emits a {RoleGranted} event. Requirements: - the caller must have ``role``'s admin role. May emit a {RoleGranted} event."
					},
					"hasRole(bytes32,address)": {
						"details": "Returns `true` if `account` has been granted `role`."
					},
					"owner()": {
						"details": "Returns the address of the current owner."
					},
					"pausarContrato()": {
						"details": "Solo pueden acceder a ella el owner el aquellos que tengan rol PAUSER"
					},
					"paused()": {
						"details": "Returns true if the contract is paused, and false otherwise."
					},
					"renounceOwnership()": {
						"details": "Leaves the contract without owner. It will not be possible to call `onlyOwner` functions. Can only be called by the current owner. NOTE: Renouncing ownership will leave the contract without an owner, thereby disabling any functionality that is only available to the owner."
					},
					"renounceRole(bytes32,address)": {
						"details": "Revokes `role` from the calling account. Roles are often managed via {grantRole} and {revokeRole}: this function's purpose is to provide a mechanism for accounts to lose their privileges if they are compromised (such as when a trusted device is misplaced). If the calling account had been revoked `role`, emits a {RoleRevoked} event. Requirements: - the caller must be `callerConfirmation`. May emit a {RoleRevoked} event."
					},
					"retirarETH(uint256)": {
						"params": {
							"_monto": "es el monto a retirar de la boveda"
						}
					},
					"retirarUSDC(uint256)": {
						"params": {
							"_monto": "es el monto a retirar de la boveda"
						}
					},
					"revocarRol(address,bytes32)": {
						"params": {
							"cuenta": "Es la cuenta a la que se le revoca el rol",
							"rol": "Es el rol revocado de la cuenta"
						}
					},
					"revokeRole(bytes32,address)": {
						"details": "Revokes `role` from `account`. If `account` had been granted `role`, emits a {RoleRevoked} event. Requirements: - the caller must have ``role``'s admin role. May emit a {RoleRevoked} event."
					},
					"setFeeds(address)": {
						"details": "Solo pueden acceder a ella el owner o los que tengan el rol FEED_MANAGER",
						"params": {
							"_nuevoFeed": "Será la dirección del nuevo data feed del contrato"
						}
					},
					"transferOwnership(address)": {
						"details": "Transfers ownership of the contract to a new account (`newOwner`). Can only be called by the current owner."
					},
					"transferirOwner(address)": {
						"details": "El modificador de onlyOwner es necesario para seguridad",
						"params": {
							"_nuevoOwner": "Será la dirección del nuevo propietario del contrato"
						}
					},
					"verBoveda()": {
						"returns": {
							"monto_": "devuelve el saldo depositado total en USD depositado por cada titular"
						}
					},
					"verSaldoETH()": {
						"returns": {
							"saldo_": "Retornal el saldo en ETH"
						}
					},
					"verSaldoUSDC()": {
						"returns": {
							"saldo_": "Retorna el saldo en USDC"
						}
					},
					"verTotalContrato()": {
						"returns": {
							"_0": "Devuelve el saldo del contrato en USD"
						}
					},
					"verTotalDepositos()": {
						"returns": {
							"_0": "Devuelve la cantidad de depositos"
						}
					},
					"verTotalRetiros()": {
						"returns": {
							"_0": "Devuelve la cantidad de retiros"
						}
					}
				},
				"stateVariables": {
					"DECIMAL_FACTOR": {
						"details": "Se hace la suma de los decimales de ethereum y de los decimales de la conversión de chainlink para restarles los decimales de USDC, nos da la base igualitaria"
					},
					"HEARTBEAT": {
						"details": "Por convención se establece en 3600"
					},
					"i_bankCap": {
						"details": "Tener en cuenta que el limite global será en USD"
					},
					"i_usdc": {
						"details": "Es especifico para el token USDC"
					},
					"s_cuentasMultiToken": {
						"details": "En el primer mapping tenemos la direcciones del token, en el segundo mapping tenemos las direcciones de los titulares"
					},
					"s_feed": {
						"details": "Utilizamos el data feed de Chainlink"
					},
					"s_totalContrato": {
						"details": "El total del contrato es en USD"
					}
				},
				"version": 1
			},
			"evm": {
				"assembly": "    /* \"contracts/KipuBank.sol\":872:21728  contract KipuBank is ReentrancyGuard, Ownable, Pausable, AccessControl {... */\n  mstore(0x40, 0xe0)\n    /* \"contracts/KipuBank.sol\":2393:2394  0 */\n  0x00\n    /* \"contracts/KipuBank.sol\":2362:2394  uint private s_totalContrato = 0 */\n  0x04\n  sstore\n    /* \"contracts/KipuBank.sol\":2588:2589  0 */\n  0x00\n    /* \"contracts/KipuBank.sol\":2558:2589  uint128 private s_depositos = 0 */\n  0x05\n  exp(0x0100, 0x00)\n  dup2\n  sload\n  dup2\n  0xffffffffffffffffffffffffffffffff\n  mul\n  not\n  and\n  swap1\n  dup4\n  0xffffffffffffffffffffffffffffffff\n  and\n  mul\n  or\n  swap1\n  sstore\n  pop\n    /* \"contracts/KipuBank.sol\":2673:2674  0 */\n  0x00\n    /* \"contracts/KipuBank.sol\":2645:2674  uint128 private s_retiros = 0 */\n  0x05\n  exp(0x0100, 0x10)\n  dup2\n  sload\n  dup2\n  0xffffffffffffffffffffffffffffffff\n  mul\n  not\n  and\n  swap1\n  dup4\n  0xffffffffffffffffffffffffffffffff\n  and\n  mul\n  or\n  swap1\n  sstore\n  pop\n    /* \"contracts/KipuBank.sol\":8034:8845  constructor(... */\n  callvalue\n  dup1\n  iszero\n  tag_1\n  jumpi\n  revert(0x00, 0x00)\ntag_1:\n  pop\n  mload(0x40)\n  sub(codesize, bytecodeSize)\n  dup1\n  bytecodeSize\n  dup4\n  codecopy\n  dup2\n  dup2\n  add\n  0x40\n  mstore\n  dup2\n  add\n  swap1\n  tag_2\n  swap2\n  swap1\n  tag_3\n  jump\t// in\ntag_2:\n    /* \"contracts/KipuBank.sol\":8188:8194  _owner */\n  dup3\n    /* \"@openzeppelin/contracts/security/ReentrancyGuard.sol\":1716:1717  1 */\n  0x01\n    /* \"@openzeppelin/contracts/security/ReentrancyGuard.sol\":1821:1828  _status */\n  0x00\n    /* \"@openzeppelin/contracts/security/ReentrancyGuard.sol\":1821:1843  _status = _NOT_ENTERED */\n  dup2\n  swap1\n  sstore\n  pop\n    /* \"@openzeppelin/contracts/access/Ownable.sol\":1297:1298  0 */\n  0x00\n    /* \"@openzeppelin/contracts/access/Ownable.sol\":1273:1299  initialOwner == address(0) */\n  0xffffffffffffffffffffffffffffffffffffffff\n  and\n    /* \"@openzeppelin/contracts/access/Ownable.sol\":1273:1285  initialOwner */\n  dup2\n    /* \"@openzeppelin/contracts/access/Ownable.sol\":1273:1299  initialOwner == address(0) */\n  0xffffffffffffffffffffffffffffffffffffffff\n  and\n  sub\n    /* \"@openzeppelin/contracts/access/Ownable.sol\":1269:1364  if (initialOwner == address(0)) {... */\n  tag_9\n  jumpi\n    /* \"@openzeppelin/contracts/access/Ownable.sol\":1350:1351  0 */\n  0x00\n    /* \"@openzeppelin/contracts/access/Ownable.sol\":1322:1353  OwnableInvalidOwner(address(0)) */\n  mload(0x40)\n  0x1e4fbdf700000000000000000000000000000000000000000000000000000000\n  dup2\n  mstore\n  0x04\n  add\n  tag_10\n  swap2\n  swap1\n  tag_11\n  jump\t// in\ntag_10:\n  mload(0x40)\n  dup1\n  swap2\n  sub\n  swap1\n  revert\n    /* \"@openzeppelin/contracts/access/Ownable.sol\":1269:1364  if (initialOwner == address(0)) {... */\ntag_9:\n    /* \"@openzeppelin/contracts/access/Ownable.sol\":1373:1405  _transferOwnership(initialOwner) */\n  tag_12\n    /* \"@openzeppelin/contracts/access/Ownable.sol\":1392:1404  initialOwner */\n  dup2\n    /* \"@openzeppelin/contracts/access/Ownable.sol\":1373:1391  _transferOwnership */\n  shl(0x20, tag_13)\n    /* \"@openzeppelin/contracts/access/Ownable.sol\":1373:1405  _transferOwnership(initialOwner) */\n  0x20\n  shr\n  jump\t// in\ntag_12:\n    /* \"@openzeppelin/contracts/access/Ownable.sol\":1225:1412  constructor(address initialOwner) {... */\n  pop\n    /* \"contracts/KipuBank.sol\":8220:8221  0 */\n  0x00\n    /* \"contracts/KipuBank.sol\":8209:8216  _limite */\n  dup6\n    /* \"contracts/KipuBank.sol\":8209:8221  _limite == 0 */\n  sub\n    /* \"contracts/KipuBank.sol\":8206:8262  if(_limite == 0) revert KipuBank_LimiteInvalido(_limite) */\n  tag_15\n  jumpi\n    /* \"contracts/KipuBank.sol\":8254:8261  _limite */\n  dup5\n    /* \"contracts/KipuBank.sol\":8230:8262  KipuBank_LimiteInvalido(_limite) */\n  mload(0x40)\n  0xf1fdfd2b00000000000000000000000000000000000000000000000000000000\n  dup2\n  mstore\n  0x04\n  add\n  tag_16\n  swap2\n  swap1\n  tag_17\n  jump\t// in\ntag_16:\n  mload(0x40)\n  dup1\n  swap2\n  sub\n  swap1\n  revert\n    /* \"contracts/KipuBank.sol\":8206:8262  if(_limite == 0) revert KipuBank_LimiteInvalido(_limite) */\ntag_15:\n    /* \"contracts/KipuBank.sol\":8286:8287  0 */\n  0x00\n    /* \"contracts/KipuBank.sol\":8275:8282  _umbral */\n  dup5\n    /* \"contracts/KipuBank.sol\":8275:8287  _umbral == 0 */\n  sub\n    /* \"contracts/KipuBank.sol\":8272:8328  if(_umbral == 0) revert KipuBank_UmbralInvalido(_umbral) */\n  tag_18\n  jumpi\n    /* \"contracts/KipuBank.sol\":8320:8327  _umbral */\n  dup4\n    /* \"contracts/KipuBank.sol\":8296:8328  KipuBank_UmbralInvalido(_umbral) */\n  mload(0x40)\n  0x5052fe8e00000000000000000000000000000000000000000000000000000000\n  dup2\n  mstore\n  0x04\n  add\n  tag_19\n  swap2\n  swap1\n  tag_17\n  jump\t// in\ntag_19:\n  mload(0x40)\n  dup1\n  swap2\n  sub\n  swap1\n  revert\n    /* \"contracts/KipuBank.sol\":8272:8328  if(_umbral == 0) revert KipuBank_UmbralInvalido(_umbral) */\ntag_18:\n    /* \"contracts/KipuBank.sol\":8351:8358  _limite */\n  dup5\n    /* \"contracts/KipuBank.sol\":8341:8348  _umbral */\n  dup5\n    /* \"contracts/KipuBank.sol\":8341:8358  _umbral > _limite */\n  gt\n    /* \"contracts/KipuBank.sol\":8338:8416  if(_umbral > _limite) revert KipuBank_InicializacionInvalida(_limite, _umbral) */\n  iszero\n  tag_20\n  jumpi\n    /* \"contracts/KipuBank.sol\":8399:8406  _limite */\n  dup5\n    /* \"contracts/KipuBank.sol\":8408:8415  _umbral */\n  dup5\n    /* \"contracts/KipuBank.sol\":8367:8416  KipuBank_InicializacionInvalida(_limite, _umbral) */\n  mload(0x40)\n  0x3122626300000000000000000000000000000000000000000000000000000000\n  dup2\n  mstore\n  0x04\n  add\n  tag_21\n  swap3\n  swap2\n  swap1\n  tag_22\n  jump\t// in\ntag_21:\n  mload(0x40)\n  dup1\n  swap2\n  sub\n  swap1\n  revert\n    /* \"contracts/KipuBank.sol\":8338:8416  if(_umbral > _limite) revert KipuBank_InicializacionInvalida(_limite, _umbral) */\ntag_20:\n    /* \"contracts/KipuBank.sol\":8446:8447  0 */\n  0x00\n    /* \"contracts/KipuBank.sol\":8429:8448  _feed == address(0) */\n  0xffffffffffffffffffffffffffffffffffffffff\n  and\n    /* \"contracts/KipuBank.sol\":8429:8434  _feed */\n  dup3\n    /* \"contracts/KipuBank.sol\":8429:8448  _feed == address(0) */\n  0xffffffffffffffffffffffffffffffffffffffff\n  and\n  sub\n    /* \"contracts/KipuBank.sol\":8426:8485  if(_feed == address(0)) revert KipuBank_DireccionInvalida() */\n  tag_23\n  jumpi\n    /* \"contracts/KipuBank.sol\":8457:8485  KipuBank_DireccionInvalida() */\n  mload(0x40)\n  0x463858d600000000000000000000000000000000000000000000000000000000\n  dup2\n  mstore\n  0x04\n  add\n  mload(0x40)\n  dup1\n  swap2\n  sub\n  swap1\n  revert\n    /* \"contracts/KipuBank.sol\":8426:8485  if(_feed == address(0)) revert KipuBank_DireccionInvalida() */\ntag_23:\n    /* \"contracts/KipuBank.sol\":8521:8522  0 */\n  0x00\n    /* \"contracts/KipuBank.sol\":8498:8523  _tokenERC20 == address(0) */\n  0xffffffffffffffffffffffffffffffffffffffff\n  and\n    /* \"contracts/KipuBank.sol\":8498:8509  _tokenERC20 */\n  dup2\n    /* \"contracts/KipuBank.sol\":8498:8523  _tokenERC20 == address(0) */\n  0xffffffffffffffffffffffffffffffffffffffff\n  and\n  sub\n    /* \"contracts/KipuBank.sol\":8495:8560  if(_tokenERC20 == address(0)) revert KipuBank_DireccionInvalida() */\n  tag_24\n  jumpi\n    /* \"contracts/KipuBank.sol\":8532:8560  KipuBank_DireccionInvalida() */\n  mload(0x40)\n  0x463858d600000000000000000000000000000000000000000000000000000000\n  dup2\n  mstore\n  0x04\n  add\n  mload(0x40)\n  dup1\n  swap2\n  sub\n  swap1\n  revert\n    /* \"contracts/KipuBank.sol\":8495:8560  if(_tokenERC20 == address(0)) revert KipuBank_DireccionInvalida() */\ntag_24:\n    /* \"contracts/KipuBank.sol\":8579:8617  _grantRole(DEFAULT_ADMIN_ROLE, _owner) */\n  tag_25\n    /* \"@openzeppelin/contracts/access/AccessControl.sol\":2241:2245  0x00 */\n  0x00\n    /* \"contracts/KipuBank.sol\":8590:8608  DEFAULT_ADMIN_ROLE */\n  0x00\n  shl\n    /* \"contracts/KipuBank.sol\":8610:8616  _owner */\n  dup5\n    /* \"contracts/KipuBank.sol\":8579:8589  _grantRole */\n  shl(0x20, tag_26)\n    /* \"contracts/KipuBank.sol\":8579:8617  _grantRole(DEFAULT_ADMIN_ROLE, _owner) */\n  0x20\n  shr\n  jump\t// in\ntag_25:\n  pop\n    /* \"contracts/KipuBank.sol\":8627:8653  _grantRole(PAUSER, _owner) */\n  tag_27\n    /* \"contracts/KipuBank.sol\":1028:1047  keccak256(\"PAUSER\") */\n  0x539440820030c4994db4e31b6b800deafd503688728f932addfe7a410515c14c\n    /* \"contracts/KipuBank.sol\":8646:8652  _owner */\n  dup5\n    /* \"contracts/KipuBank.sol\":8627:8637  _grantRole */\n  shl(0x20, tag_26)\n    /* \"contracts/KipuBank.sol\":8627:8653  _grantRole(PAUSER, _owner) */\n  0x20\n  shr\n  jump\t// in\ntag_27:\n  pop\n    /* \"contracts/KipuBank.sol\":8663:8695  _grantRole(FEED_MANAGER, _owner) */\n  tag_28\n    /* \"contracts/KipuBank.sol\":1142:1167  keccak256(\"FEED_MANAGER\") */\n  0x9bbb3ee3bdfbe971682b08854a620ca4bf696f8e0c269e5c5b129a18e64d29df\n    /* \"contracts/KipuBank.sol\":8688:8694  _owner */\n  dup5\n    /* \"contracts/KipuBank.sol\":8663:8673  _grantRole */\n  shl(0x20, tag_26)\n    /* \"contracts/KipuBank.sol\":8663:8695  _grantRole(FEED_MANAGER, _owner) */\n  0x20\n  shr\n  jump\t// in\ntag_28:\n  pop\n    /* \"contracts/KipuBank.sol\":8722:8733  _tokenERC20 */\n  dup1\n    /* \"contracts/KipuBank.sol\":8706:8734  i_usdc = IERC20(_tokenERC20) */\n  0xffffffffffffffffffffffffffffffffffffffff\n  and\n  0x80\n  dup2\n  0xffffffffffffffffffffffffffffffffffffffff\n  and\n  dup2\n  mstore\n  pop\n  pop\n    /* \"contracts/KipuBank.sol\":8775:8780  _feed */\n  dup2\n    /* \"contracts/KipuBank.sol\":8744:8750  s_feed */\n  0x03\n  0x00\n    /* \"contracts/KipuBank.sol\":8744:8781  s_feed = AggregatorV3Interface(_feed) */\n  0x0100\n  exp\n  dup2\n  sload\n  dup2\n  0xffffffffffffffffffffffffffffffffffffffff\n  mul\n  not\n  and\n  swap1\n  dup4\n  0xffffffffffffffffffffffffffffffffffffffff\n  and\n  mul\n  or\n  swap1\n  sstore\n  pop\n    /* \"contracts/KipuBank.sol\":8803:8810  _limite */\n  dup5\n    /* \"contracts/KipuBank.sol\":8791:8810  i_bankCap = _limite */\n  0xc0\n  dup2\n  dup2\n  mstore\n  pop\n  pop\n    /* \"contracts/KipuBank.sol\":8831:8838  _umbral */\n  dup4\n    /* \"contracts/KipuBank.sol\":8820:8838  i_umbral = _umbral */\n  0xa0\n  dup2\n  dup2\n  mstore\n  pop\n  pop\n    /* \"contracts/KipuBank.sol\":8034:8845  constructor(... */\n  pop\n  pop\n  pop\n  pop\n  pop\n    /* \"contracts/KipuBank.sol\":872:21728  contract KipuBank is ReentrancyGuard, Ownable, Pausable, AccessControl {... */\n  jump(tag_29)\n    /* \"@openzeppelin/contracts/access/Ownable.sol\":2912:3099  function _transferOwnership(address newOwner) internal virtual {... */\ntag_13:\n    /* \"@openzeppelin/contracts/access/Ownable.sol\":2985:3001  address oldOwner */\n  0x00\n    /* \"@openzeppelin/contracts/access/Ownable.sol\":3004:3010  _owner */\n  0x01\n  0x00\n  swap1\n  sload\n  swap1\n  0x0100\n  exp\n  swap1\n  div\n  0xffffffffffffffffffffffffffffffffffffffff\n  and\n    /* \"@openzeppelin/contracts/access/Ownable.sol\":2985:3010  address oldOwner = _owner */\n  swap1\n  pop\n    /* \"@openzeppelin/contracts/access/Ownable.sol\":3029:3037  newOwner */\n  dup2\n    /* \"@openzeppelin/contracts/access/Ownable.sol\":3020:3026  _owner */\n  0x01\n  0x00\n    /* \"@openzeppelin/contracts/access/Ownable.sol\":3020:3037  _owner = newOwner */\n  0x0100\n  exp\n  dup2\n  sload\n  dup2\n  0xffffffffffffffffffffffffffffffffffffffff\n  mul\n  not\n  and\n  swap1\n  dup4\n  0xffffffffffffffffffffffffffffffffffffffff\n  and\n  mul\n  or\n  swap1\n  sstore\n  pop\n    /* \"@openzeppelin/contracts/access/Ownable.sol\":3083:3091  newOwner */\n  dup2\n    /* \"@openzeppelin/contracts/access/Ownable.sol\":3052:3092  OwnershipTransferred(oldOwner, newOwner) */\n  0xffffffffffffffffffffffffffffffffffffffff\n  and\n    /* \"@openzeppelin/contracts/access/Ownable.sol\":3073:3081  oldOwner */\n  dup2\n    /* \"@openzeppelin/contracts/access/Ownable.sol\":3052:3092  OwnershipTransferred(oldOwner, newOwner) */\n  0xffffffffffffffffffffffffffffffffffffffff\n  and\n  0x8be0079c531659141344cd1fd0a4f28419497f9722a3daafe3b4186f6b6457e0\n  mload(0x40)\n  mload(0x40)\n  dup1\n  swap2\n  sub\n  swap1\n  log3\n    /* \"@openzeppelin/contracts/access/Ownable.sol\":2975:3099  {... */\n  pop\n    /* \"@openzeppelin/contracts/access/Ownable.sol\":2912:3099  function _transferOwnership(address newOwner) internal virtual {... */\n  pop\n  jump\t// out\n    /* \"@openzeppelin/contracts/access/AccessControl.sol\":6155:6471  function _grantRole(bytes32 role, address account) internal virtual returns (bool) {... */\ntag_26:\n    /* \"@openzeppelin/contracts/access/AccessControl.sol\":6232:6236  bool */\n  0x00\n    /* \"@openzeppelin/contracts/access/AccessControl.sol\":6253:6275  hasRole(role, account) */\n  tag_32\n    /* \"@openzeppelin/contracts/access/AccessControl.sol\":6261:6265  role */\n  dup4\n    /* \"@openzeppelin/contracts/access/AccessControl.sol\":6267:6274  account */\n  dup4\n    /* \"@openzeppelin/contracts/access/AccessControl.sol\":6253:6260  hasRole */\n  shl(0x20, tag_33)\n    /* \"@openzeppelin/contracts/access/AccessControl.sol\":6253:6275  hasRole(role, account) */\n  0x20\n  shr\n  jump\t// in\ntag_32:\n    /* \"@openzeppelin/contracts/access/AccessControl.sol\":6248:6465  if (!hasRole(role, account)) {... */\n  tag_34\n  jumpi\n    /* \"@openzeppelin/contracts/access/AccessControl.sol\":6323:6327  true */\n  0x01\n    /* \"@openzeppelin/contracts/access/AccessControl.sol\":6291:6297  _roles */\n  0x02\n    /* \"@openzeppelin/contracts/access/AccessControl.sol\":6291:6303  _roles[role] */\n  0x00\n    /* \"@openzeppelin/contracts/access/AccessControl.sol\":6298:6302  role */\n  dup6\n    /* \"@openzeppelin/contracts/access/AccessControl.sol\":6291:6303  _roles[role] */\n  dup2\n  mstore\n  0x20\n  add\n  swap1\n  dup2\n  mstore\n  0x20\n  add\n  0x00\n  keccak256\n    /* \"@openzeppelin/contracts/access/AccessControl.sol\":6291:6311  _roles[role].hasRole */\n  0x00\n  add\n    /* \"@openzeppelin/contracts/access/AccessControl.sol\":6291:6320  _roles[role].hasRole[account] */\n  0x00\n    /* \"@openzeppelin/contracts/access/AccessControl.sol\":6312:6319  account */\n  dup5\n    /* \"@openzeppelin/contracts/access/AccessControl.sol\":6291:6320  _roles[role].hasRole[account] */\n  0xffffffffffffffffffffffffffffffffffffffff\n  and\n  0xffffffffffffffffffffffffffffffffffffffff\n  and\n  dup2\n  mstore\n  0x20\n  add\n  swap1\n  dup2\n  mstore\n  0x20\n  add\n  0x00\n  keccak256\n  0x00\n    /* \"@openzeppelin/contracts/access/AccessControl.sol\":6291:6327  _roles[role].hasRole[account] = true */\n  0x0100\n  exp\n  dup2\n  sload\n  dup2\n  0xff\n  mul\n  not\n  and\n  swap1\n  dup4\n  iszero\n  iszero\n  mul\n  or\n  swap1\n  sstore\n  pop\n    /* \"@openzeppelin/contracts/access/AccessControl.sol\":6373:6385  _msgSender() */\n  tag_35\n    /* \"@openzeppelin/contracts/access/AccessControl.sol\":6373:6383  _msgSender */\n  shl(0x20, tag_36)\n    /* \"@openzeppelin/contracts/access/AccessControl.sol\":6373:6385  _msgSender() */\n  0x20\n  shr\n  jump\t// in\ntag_35:\n    /* \"@openzeppelin/contracts/access/AccessControl.sol\":6346:6386  RoleGranted(role, account, _msgSender()) */\n  0xffffffffffffffffffffffffffffffffffffffff\n  and\n    /* \"@openzeppelin/contracts/access/AccessControl.sol\":6364:6371  account */\n  dup3\n    /* \"@openzeppelin/contracts/access/AccessControl.sol\":6346:6386  RoleGranted(role, account, _msgSender()) */\n  0xffffffffffffffffffffffffffffffffffffffff\n  and\n    /* \"@openzeppelin/contracts/access/AccessControl.sol\":6358:6362  role */\n  dup5\n    /* \"@openzeppelin/contracts/access/AccessControl.sol\":6346:6386  RoleGranted(role, account, _msgSender()) */\n  0x2f8788117e7eff1d82e926ec794901d17c78024a50270940304540a733656f0d\n  mload(0x40)\n  mload(0x40)\n  dup1\n  swap2\n  sub\n  swap1\n  log4\n    /* \"@openzeppelin/contracts/access/AccessControl.sol\":6407:6411  true */\n  0x01\n    /* \"@openzeppelin/contracts/access/AccessControl.sol\":6400:6411  return true */\n  swap1\n  pop\n  jump(tag_31)\n    /* \"@openzeppelin/contracts/access/AccessControl.sol\":6248:6465  if (!hasRole(role, account)) {... */\ntag_34:\n    /* \"@openzeppelin/contracts/access/AccessControl.sol\":6449:6454  false */\n  0x00\n    /* \"@openzeppelin/contracts/access/AccessControl.sol\":6442:6454  return false */\n  swap1\n  pop\n    /* \"@openzeppelin/contracts/access/AccessControl.sol\":6155:6471  function _grantRole(bytes32 role, address account) internal virtual returns (bool) {... */\ntag_31:\n  swap3\n  swap2\n  pop\n  pop\n  jump\t// out\n    /* \"@openzeppelin/contracts/access/AccessControl.sol\":2830:2966  function hasRole(bytes32 role, address account) public view virtual returns (bool) {... */\ntag_33:\n    /* \"@openzeppelin/contracts/access/AccessControl.sol\":2907:2911  bool */\n  0x00\n    /* \"@openzeppelin/contracts/access/AccessControl.sol\":2930:2936  _roles */\n  0x02\n    /* \"@openzeppelin/contracts/access/AccessControl.sol\":2930:2942  _roles[role] */\n  0x00\n    /* \"@openzeppelin/contracts/access/AccessControl.sol\":2937:2941  role */\n  dup5\n    /* \"@openzeppelin/contracts/access/AccessControl.sol\":2930:2942  _roles[role] */\n  dup2\n  mstore\n  0x20\n  add\n  swap1\n  dup2\n  mstore\n  0x20\n  add\n  0x00\n  keccak256\n    /* \"@openzeppelin/contracts/access/AccessControl.sol\":2930:2950  _roles[role].hasRole */\n  0x00\n  add\n    /* \"@openzeppelin/contracts/access/AccessControl.sol\":2930:2959  _roles[role].hasRole[account] */\n  0x00\n    /* \"@openzeppelin/contracts/access/AccessControl.sol\":2951:2958  account */\n  dup4\n    /* \"@openzeppelin/contracts/access/AccessControl.sol\":2930:2959  _roles[role].hasRole[account] */\n  0xffffffffffffffffffffffffffffffffffffffff\n  and\n  0xffffffffffffffffffffffffffffffffffffffff\n  and\n  dup2\n  mstore\n  0x20\n  add\n  swap1\n  dup2\n  mstore\n  0x20\n  add\n  0x00\n  keccak256\n  0x00\n  swap1\n  sload\n  swap1\n  0x0100\n  exp\n  swap1\n  div\n  0xff\n  and\n    /* \"@openzeppelin/contracts/access/AccessControl.sol\":2923:2959  return _roles[role].hasRole[account] */\n  swap1\n  pop\n    /* \"@openzeppelin/contracts/access/AccessControl.sol\":2830:2966  function hasRole(bytes32 role, address account) public view virtual returns (bool) {... */\n  swap3\n  swap2\n  pop\n  pop\n  jump\t// out\n    /* \"@openzeppelin/contracts/utils/Context.sol\":656:752  function _msgSender() internal view virtual returns (address) {... */\ntag_36:\n    /* \"@openzeppelin/contracts/utils/Context.sol\":709:716  address */\n  0x00\n    /* \"@openzeppelin/contracts/utils/Context.sol\":735:745  msg.sender */\n  caller\n    /* \"@openzeppelin/contracts/utils/Context.sol\":728:745  return msg.sender */\n  swap1\n  pop\n    /* \"@openzeppelin/contracts/utils/Context.sol\":656:752  function _msgSender() internal view virtual returns (address) {... */\n  swap1\n  jump\t// out\n    /* \"#utility.yul\":88:205   */\ntag_41:\n    /* \"#utility.yul\":197:198   */\n  0x00\n    /* \"#utility.yul\":194:195   */\n  0x00\n    /* \"#utility.yul\":187:199   */\n  revert\n    /* \"#utility.yul\":334:411   */\ntag_43:\n    /* \"#utility.yul\":371:378   */\n  0x00\n    /* \"#utility.yul\":400:405   */\n  dup2\n    /* \"#utility.yul\":389:405   */\n  swap1\n  pop\n    /* \"#utility.yul\":334:411   */\n  swap2\n  swap1\n  pop\n  jump\t// out\n    /* \"#utility.yul\":417:539   */\ntag_44:\n    /* \"#utility.yul\":490:514   */\n  tag_58\n    /* \"#utility.yul\":508:513   */\n  dup2\n    /* \"#utility.yul\":490:514   */\n  tag_43\n  jump\t// in\ntag_58:\n    /* \"#utility.yul\":483:488   */\n  dup2\n    /* \"#utility.yul\":480:515   */\n  eq\n    /* \"#utility.yul\":470:533   */\n  tag_59\n  jumpi\n    /* \"#utility.yul\":529:530   */\n  0x00\n    /* \"#utility.yul\":526:527   */\n  0x00\n    /* \"#utility.yul\":519:531   */\n  revert\n    /* \"#utility.yul\":470:533   */\ntag_59:\n    /* \"#utility.yul\":417:539   */\n  pop\n  jump\t// out\n    /* \"#utility.yul\":545:688   */\ntag_45:\n    /* \"#utility.yul\":602:607   */\n  0x00\n    /* \"#utility.yul\":633:639   */\n  dup2\n    /* \"#utility.yul\":627:640   */\n  mload\n    /* \"#utility.yul\":618:640   */\n  swap1\n  pop\n    /* \"#utility.yul\":649:682   */\n  tag_61\n    /* \"#utility.yul\":676:681   */\n  dup2\n    /* \"#utility.yul\":649:682   */\n  tag_44\n  jump\t// in\ntag_61:\n    /* \"#utility.yul\":545:688   */\n  swap3\n  swap2\n  pop\n  pop\n  jump\t// out\n    /* \"#utility.yul\":694:820   */\ntag_46:\n    /* \"#utility.yul\":731:738   */\n  0x00\n    /* \"#utility.yul\":771:813   */\n  0xffffffffffffffffffffffffffffffffffffffff\n    /* \"#utility.yul\":764:769   */\n  dup3\n    /* \"#utility.yul\":760:814   */\n  and\n    /* \"#utility.yul\":749:814   */\n  swap1\n  pop\n    /* \"#utility.yul\":694:820   */\n  swap2\n  swap1\n  pop\n  jump\t// out\n    /* \"#utility.yul\":826:922   */\ntag_47:\n    /* \"#utility.yul\":863:870   */\n  0x00\n    /* \"#utility.yul\":892:916   */\n  tag_64\n    /* \"#utility.yul\":910:915   */\n  dup3\n    /* \"#utility.yul\":892:916   */\n  tag_46\n  jump\t// in\ntag_64:\n    /* \"#utility.yul\":881:916   */\n  swap1\n  pop\n    /* \"#utility.yul\":826:922   */\n  swap2\n  swap1\n  pop\n  jump\t// out\n    /* \"#utility.yul\":928:1050   */\ntag_48:\n    /* \"#utility.yul\":1001:1025   */\n  tag_66\n    /* \"#utility.yul\":1019:1024   */\n  dup2\n    /* \"#utility.yul\":1001:1025   */\n  tag_47\n  jump\t// in\ntag_66:\n    /* \"#utility.yul\":994:999   */\n  dup2\n    /* \"#utility.yul\":991:1026   */\n  eq\n    /* \"#utility.yul\":981:1044   */\n  tag_67\n  jumpi\n    /* \"#utility.yul\":1040:1041   */\n  0x00\n    /* \"#utility.yul\":1037:1038   */\n  0x00\n    /* \"#utility.yul\":1030:1042   */\n  revert\n    /* \"#utility.yul\":981:1044   */\ntag_67:\n    /* \"#utility.yul\":928:1050   */\n  pop\n  jump\t// out\n    /* \"#utility.yul\":1056:1199   */\ntag_49:\n    /* \"#utility.yul\":1113:1118   */\n  0x00\n    /* \"#utility.yul\":1144:1150   */\n  dup2\n    /* \"#utility.yul\":1138:1151   */\n  mload\n    /* \"#utility.yul\":1129:1151   */\n  swap1\n  pop\n    /* \"#utility.yul\":1160:1193   */\n  tag_69\n    /* \"#utility.yul\":1187:1192   */\n  dup2\n    /* \"#utility.yul\":1160:1193   */\n  tag_48\n  jump\t// in\ntag_69:\n    /* \"#utility.yul\":1056:1199   */\n  swap3\n  swap2\n  pop\n  pop\n  jump\t// out\n    /* \"#utility.yul\":1205:2182   */\ntag_3:\n    /* \"#utility.yul\":1311:1317   */\n  0x00\n    /* \"#utility.yul\":1319:1325   */\n  0x00\n    /* \"#utility.yul\":1327:1333   */\n  0x00\n    /* \"#utility.yul\":1335:1341   */\n  0x00\n    /* \"#utility.yul\":1343:1349   */\n  0x00\n    /* \"#utility.yul\":1392:1395   */\n  0xa0\n    /* \"#utility.yul\":1380:1389   */\n  dup7\n    /* \"#utility.yul\":1371:1378   */\n  dup9\n    /* \"#utility.yul\":1367:1390   */\n  sub\n    /* \"#utility.yul\":1363:1396   */\n  slt\n    /* \"#utility.yul\":1360:1480   */\n  iszero\n  tag_71\n  jumpi\n    /* \"#utility.yul\":1399:1478   */\n  tag_72\n  tag_41\n  jump\t// in\ntag_72:\n    /* \"#utility.yul\":1360:1480   */\ntag_71:\n    /* \"#utility.yul\":1519:1520   */\n  0x00\n    /* \"#utility.yul\":1544:1608   */\n  tag_73\n    /* \"#utility.yul\":1600:1607   */\n  dup9\n    /* \"#utility.yul\":1591:1597   */\n  dup3\n    /* \"#utility.yul\":1580:1589   */\n  dup10\n    /* \"#utility.yul\":1576:1598   */\n  add\n    /* \"#utility.yul\":1544:1608   */\n  tag_45\n  jump\t// in\ntag_73:\n    /* \"#utility.yul\":1534:1608   */\n  swap6\n  pop\n    /* \"#utility.yul\":1490:1618   */\n  pop\n    /* \"#utility.yul\":1657:1659   */\n  0x20\n    /* \"#utility.yul\":1683:1747   */\n  tag_74\n    /* \"#utility.yul\":1739:1746   */\n  dup9\n    /* \"#utility.yul\":1730:1736   */\n  dup3\n    /* \"#utility.yul\":1719:1728   */\n  dup10\n    /* \"#utility.yul\":1715:1737   */\n  add\n    /* \"#utility.yul\":1683:1747   */\n  tag_45\n  jump\t// in\ntag_74:\n    /* \"#utility.yul\":1673:1747   */\n  swap5\n  pop\n    /* \"#utility.yul\":1628:1757   */\n  pop\n    /* \"#utility.yul\":1796:1798   */\n  0x40\n    /* \"#utility.yul\":1822:1886   */\n  tag_75\n    /* \"#utility.yul\":1878:1885   */\n  dup9\n    /* \"#utility.yul\":1869:1875   */\n  dup3\n    /* \"#utility.yul\":1858:1867   */\n  dup10\n    /* \"#utility.yul\":1854:1876   */\n  add\n    /* \"#utility.yul\":1822:1886   */\n  tag_49\n  jump\t// in\ntag_75:\n    /* \"#utility.yul\":1812:1886   */\n  swap4\n  pop\n    /* \"#utility.yul\":1767:1896   */\n  pop\n    /* \"#utility.yul\":1935:1937   */\n  0x60\n    /* \"#utility.yul\":1961:2025   */\n  tag_76\n    /* \"#utility.yul\":2017:2024   */\n  dup9\n    /* \"#utility.yul\":2008:2014   */\n  dup3\n    /* \"#utility.yul\":1997:2006   */\n  dup10\n    /* \"#utility.yul\":1993:2015   */\n  add\n    /* \"#utility.yul\":1961:2025   */\n  tag_49\n  jump\t// in\ntag_76:\n    /* \"#utility.yul\":1951:2025   */\n  swap3\n  pop\n    /* \"#utility.yul\":1906:2035   */\n  pop\n    /* \"#utility.yul\":2074:2077   */\n  0x80\n    /* \"#utility.yul\":2101:2165   */\n  tag_77\n    /* \"#utility.yul\":2157:2164   */\n  dup9\n    /* \"#utility.yul\":2148:2154   */\n  dup3\n    /* \"#utility.yul\":2137:2146   */\n  dup10\n    /* \"#utility.yul\":2133:2155   */\n  add\n    /* \"#utility.yul\":2101:2165   */\n  tag_49\n  jump\t// in\ntag_77:\n    /* \"#utility.yul\":2091:2165   */\n  swap2\n  pop\n    /* \"#utility.yul\":2045:2175   */\n  pop\n    /* \"#utility.yul\":1205:2182   */\n  swap3\n  swap6\n  pop\n  swap3\n  swap6\n  swap1\n  swap4\n  pop\n  jump\t// out\n    /* \"#utility.yul\":2188:2306   */\ntag_50:\n    /* \"#utility.yul\":2275:2299   */\n  tag_79\n    /* \"#utility.yul\":2293:2298   */\n  dup2\n    /* \"#utility.yul\":2275:2299   */\n  tag_47\n  jump\t// in\ntag_79:\n    /* \"#utility.yul\":2270:2273   */\n  dup3\n    /* \"#utility.yul\":2263:2300   */\n  mstore\n    /* \"#utility.yul\":2188:2306   */\n  pop\n  pop\n  jump\t// out\n    /* \"#utility.yul\":2312:2534   */\ntag_11:\n    /* \"#utility.yul\":2405:2409   */\n  0x00\n    /* \"#utility.yul\":2443:2445   */\n  0x20\n    /* \"#utility.yul\":2432:2441   */\n  dup3\n    /* \"#utility.yul\":2428:2446   */\n  add\n    /* \"#utility.yul\":2420:2446   */\n  swap1\n  pop\n    /* \"#utility.yul\":2456:2527   */\n  tag_81\n    /* \"#utility.yul\":2524:2525   */\n  0x00\n    /* \"#utility.yul\":2513:2522   */\n  dup4\n    /* \"#utility.yul\":2509:2526   */\n  add\n    /* \"#utility.yul\":2500:2506   */\n  dup5\n    /* \"#utility.yul\":2456:2527   */\n  tag_50\n  jump\t// in\ntag_81:\n    /* \"#utility.yul\":2312:2534   */\n  swap3\n  swap2\n  pop\n  pop\n  jump\t// out\n    /* \"#utility.yul\":2540:2658   */\ntag_51:\n    /* \"#utility.yul\":2627:2651   */\n  tag_83\n    /* \"#utility.yul\":2645:2650   */\n  dup2\n    /* \"#utility.yul\":2627:2651   */\n  tag_43\n  jump\t// in\ntag_83:\n    /* \"#utility.yul\":2622:2625   */\n  dup3\n    /* \"#utility.yul\":2615:2652   */\n  mstore\n    /* \"#utility.yul\":2540:2658   */\n  pop\n  pop\n  jump\t// out\n    /* \"#utility.yul\":2664:2886   */\ntag_17:\n    /* \"#utility.yul\":2757:2761   */\n  0x00\n    /* \"#utility.yul\":2795:2797   */\n  0x20\n    /* \"#utility.yul\":2784:2793   */\n  dup3\n    /* \"#utility.yul\":2780:2798   */\n  add\n    /* \"#utility.yul\":2772:2798   */\n  swap1\n  pop\n    /* \"#utility.yul\":2808:2879   */\n  tag_85\n    /* \"#utility.yul\":2876:2877   */\n  0x00\n    /* \"#utility.yul\":2865:2874   */\n  dup4\n    /* \"#utility.yul\":2861:2878   */\n  add\n    /* \"#utility.yul\":2852:2858   */\n  dup5\n    /* \"#utility.yul\":2808:2879   */\n  tag_51\n  jump\t// in\ntag_85:\n    /* \"#utility.yul\":2664:2886   */\n  swap3\n  swap2\n  pop\n  pop\n  jump\t// out\n    /* \"#utility.yul\":2892:3224   */\ntag_22:\n    /* \"#utility.yul\":3013:3017   */\n  0x00\n    /* \"#utility.yul\":3051:3053   */\n  0x40\n    /* \"#utility.yul\":3040:3049   */\n  dup3\n    /* \"#utility.yul\":3036:3054   */\n  add\n    /* \"#utility.yul\":3028:3054   */\n  swap1\n  pop\n    /* \"#utility.yul\":3064:3135   */\n  tag_87\n    /* \"#utility.yul\":3132:3133   */\n  0x00\n    /* \"#utility.yul\":3121:3130   */\n  dup4\n    /* \"#utility.yul\":3117:3134   */\n  add\n    /* \"#utility.yul\":3108:3114   */\n  dup6\n    /* \"#utility.yul\":3064:3135   */\n  tag_51\n  jump\t// in\ntag_87:\n    /* \"#utility.yul\":3145:3217   */\n  tag_88\n    /* \"#utility.yul\":3213:3215   */\n  0x20\n    /* \"#utility.yul\":3202:3211   */\n  dup4\n    /* \"#utility.yul\":3198:3216   */\n  add\n    /* \"#utility.yul\":3189:3195   */\n  dup5\n    /* \"#utility.yul\":3145:3217   */\n  tag_51\n  jump\t// in\ntag_88:\n    /* \"#utility.yul\":2892:3224   */\n  swap4\n  swap3\n  pop\n  pop\n  pop\n  jump\t// out\n    /* \"contracts/KipuBank.sol\":872:21728  contract KipuBank is ReentrancyGuard, Ownable, Pausable, AccessControl {... */\ntag_29:\n  mload(0x80)\n  mload(0xa0)\n  mload(0xc0)\n  codecopy(0x00, dataOffset(sub_0), dataSize(sub_0))\n  0x00\n  assignImmutable(\"0x56af87718ac6246bac727726c33ea64d0935502347b4fd185bbadeb5f3fb92bd\")\n  0x00\n  assignImmutable(\"0xcf2f0ed1818444aa7134f6644eb342f5da11c7b70eee1c41201e997b4c62f0a7\")\n  0x00\n  assignImmutable(\"0x70ebf73cb6f1a1207279604d754513a029c2ff46f9198374b0ad04887dd2881e\")\n  return(0x00, dataSize(sub_0))\nstop\n\nsub_0: assembly {\n        /* \"contracts/KipuBank.sol\":872:21728  contract KipuBank is ReentrancyGuard, Ownable, Pausable, AccessControl {... */\n      mstore(0x40, 0x80)\n      jumpi(tag_1, lt(calldatasize, 0x04))\n      shr(0xe0, calldataload(0x00))\n      dup1\n      0x82fe54b5\n      gt\n      tag_36\n      jumpi\n      dup1\n      0xc6aca33c\n      gt\n      tag_37\n      jumpi\n      dup1\n      0xd9dc8694\n      gt\n      tag_38\n      jumpi\n      dup1\n      0xd9dc8694\n      eq\n      tag_31\n      jumpi\n      dup1\n      0xf0e00dc8\n      eq\n      tag_32\n      jumpi\n      dup1\n      0xf2fde38b\n      eq\n      tag_33\n      jumpi\n      dup1\n      0xf39b1809\n      eq\n      tag_34\n      jumpi\n      dup1\n      0xf7888aec\n      eq\n      tag_35\n      jumpi\n      jump(tag_2)\n    tag_38:\n      dup1\n      0xc6aca33c\n      eq\n      tag_27\n      jumpi\n      dup1\n      0xcb398eb3\n      eq\n      tag_28\n      jumpi\n      dup1\n      0xccd6b020\n      eq\n      tag_29\n      jumpi\n      dup1\n      0xd547741f\n      eq\n      tag_30\n      jumpi\n      jump(tag_2)\n    tag_37:\n      dup1\n      0x931fb90e\n      gt\n      tag_39\n      jumpi\n      dup1\n      0x931fb90e\n      eq\n      tag_23\n      jumpi\n      dup1\n      0x93295c1c\n      eq\n      tag_24\n      jumpi\n      dup1\n      0x939495bd\n      eq\n      tag_25\n      jumpi\n      dup1\n      0xa217fddf\n      eq\n      tag_26\n      jumpi\n      jump(tag_2)\n    tag_39:\n      dup1\n      0x82fe54b5\n      eq\n      tag_19\n      jumpi\n      dup1\n      0x8648840a\n      eq\n      tag_20\n      jumpi\n      dup1\n      0x8da5cb5b\n      eq\n      tag_21\n      jumpi\n      dup1\n      0x91d14854\n      eq\n      tag_22\n      jumpi\n      jump(tag_2)\n    tag_36:\n      dup1\n      0x3fb47470\n      gt\n      tag_40\n      jumpi\n      dup1\n      0x6f05c64c\n      gt\n      tag_41\n      jumpi\n      dup1\n      0x6f05c64c\n      eq\n      tag_15\n      jumpi\n      dup1\n      0x715018a6\n      eq\n      tag_16\n      jumpi\n      dup1\n      0x779bb136\n      eq\n      tag_17\n      jumpi\n      dup1\n      0x7dc532c5\n      eq\n      tag_18\n      jumpi\n      jump(tag_2)\n    tag_41:\n      dup1\n      0x3fb47470\n      eq\n      tag_11\n      jumpi\n      dup1\n      0x5c975abb\n      eq\n      tag_12\n      jumpi\n      dup1\n      0x6900670c\n      eq\n      tag_13\n      jumpi\n      dup1\n      0x698b7241\n      eq\n      tag_14\n      jumpi\n      jump(tag_2)\n    tag_40:\n      dup1\n      0x248a9ca3\n      gt\n      tag_42\n      jumpi\n      dup1\n      0x248a9ca3\n      eq\n      tag_7\n      jumpi\n      dup1\n      0x2f2ff15d\n      eq\n      tag_8\n      jumpi\n      dup1\n      0x36568abe\n      eq\n      tag_9\n      jumpi\n      dup1\n      0x38d5c916\n      eq\n      tag_10\n      jumpi\n      jump(tag_2)\n    tag_42:\n      dup1\n      0x01ffc9a7\n      eq\n      tag_3\n      jumpi\n      dup1\n      0x0594cc69\n      eq\n      tag_4\n      jumpi\n      dup1\n      0x16a1930f\n      eq\n      tag_5\n      jumpi\n      dup1\n      0x1a003ecb\n      eq\n      tag_6\n      jumpi\n      jump(tag_2)\n    tag_1:\n      jumpi(tag_2, calldatasize)\n        /* \"contracts/KipuBank.sol\":9021:9031  msg.sender */\n      caller\n        /* \"contracts/KipuBank.sol\":8991:9032  KipuBank_OperacionNoPermitida(msg.sender) */\n      mload(0x40)\n      0xe1d158ff00000000000000000000000000000000000000000000000000000000\n      dup2\n      mstore\n      0x04\n      add\n      tag_45\n      swap2\n      swap1\n      tag_46\n      jump\t// in\n    tag_45:\n      mload(0x40)\n      dup1\n      swap2\n      sub\n      swap1\n      revert\n        /* \"contracts/KipuBank.sol\":872:21728  contract KipuBank is ReentrancyGuard, Ownable, Pausable, AccessControl {... */\n    tag_2:\n        /* \"contracts/KipuBank.sol\":9226:9236  msg.sender */\n      caller\n        /* \"contracts/KipuBank.sol\":9196:9237  KipuBank_OperacionNoPermitida(msg.sender) */\n      mload(0x40)\n      0xe1d158ff00000000000000000000000000000000000000000000000000000000\n      dup2\n      mstore\n      0x04\n      add\n      tag_49\n      swap2\n      swap1\n      tag_46\n      jump\t// in\n    tag_49:\n      mload(0x40)\n      dup1\n      swap2\n      sub\n      swap1\n      revert\n        /* \"contracts/KipuBank.sol\":21509:21725  function supportsInterface(bytes4 interfaceId) ... */\n    tag_3:\n      callvalue\n      dup1\n      iszero\n      tag_50\n      jumpi\n      revert(0x00, 0x00)\n    tag_50:\n      pop\n      tag_51\n      0x04\n      dup1\n      calldatasize\n      sub\n      dup2\n      add\n      swap1\n      tag_52\n      swap2\n      swap1\n      tag_53\n      jump\t// in\n    tag_52:\n      tag_54\n      jump\t// in\n    tag_51:\n      mload(0x40)\n      tag_55\n      swap2\n      swap1\n      tag_56\n      jump\t// in\n    tag_55:\n      mload(0x40)\n      dup1\n      swap2\n      sub\n      swap1\n      return\n        /* \"contracts/KipuBank.sol\":20681:21031  function estadoDelContrato() external view ... */\n    tag_4:\n      callvalue\n      dup1\n      iszero\n      tag_57\n      jumpi\n      revert(0x00, 0x00)\n    tag_57:\n      pop\n      tag_58\n      tag_59\n      jump\t// in\n    tag_58:\n      mload(0x40)\n      tag_60\n      swap6\n      swap5\n      swap4\n      swap3\n      swap2\n      swap1\n      tag_61\n      jump\t// in\n    tag_60:\n      mload(0x40)\n      dup1\n      swap2\n      sub\n      swap1\n      return\n        /* \"contracts/KipuBank.sol\":15031:15235  function depositarETH() external payable whenNotPaused {... */\n    tag_5:\n      tag_62\n      tag_63\n      jump\t// in\n    tag_62:\n      stop\n        /* \"contracts/KipuBank.sol\":19503:19667  function pausarContrato() external soloOwnerORol(PAUSER) whenNotPaused {... */\n    tag_6:\n      callvalue\n      dup1\n      iszero\n      tag_64\n      jumpi\n      revert(0x00, 0x00)\n    tag_64:\n      pop\n      tag_65\n      tag_66\n      jump\t// in\n    tag_65:\n      stop\n        /* \"@openzeppelin/contracts/access/AccessControl.sol\":3786:3906  function getRoleAdmin(bytes32 role) public view virtual returns (bytes32) {... */\n    tag_7:\n      callvalue\n      dup1\n      iszero\n      tag_67\n      jumpi\n      revert(0x00, 0x00)\n    tag_67:\n      pop\n      tag_68\n      0x04\n      dup1\n      calldatasize\n      sub\n      dup2\n      add\n      swap1\n      tag_69\n      swap2\n      swap1\n      tag_70\n      jump\t// in\n    tag_69:\n      tag_71\n      jump\t// in\n    tag_68:\n      mload(0x40)\n      tag_72\n      swap2\n      swap1\n      tag_73\n      jump\t// in\n    tag_72:\n      mload(0x40)\n      dup1\n      swap2\n      sub\n      swap1\n      return\n        /* \"@openzeppelin/contracts/access/AccessControl.sol\":4202:4338  function grantRole(bytes32 role, address account) public virtual onlyRole(getRoleAdmin(role)) {... */\n    tag_8:\n      callvalue\n      dup1\n      iszero\n      tag_74\n      jumpi\n      revert(0x00, 0x00)\n    tag_74:\n      pop\n      tag_75\n      0x04\n      dup1\n      calldatasize\n      sub\n      dup2\n      add\n      swap1\n      tag_76\n      swap2\n      swap1\n      tag_77\n      jump\t// in\n    tag_76:\n      tag_78\n      jump\t// in\n    tag_75:\n      stop\n        /* \"@openzeppelin/contracts/access/AccessControl.sol\":5304:5549  function renounceRole(bytes32 role, address callerConfirmation) public virtual {... */\n    tag_9:\n      callvalue\n      dup1\n      iszero\n      tag_79\n      jumpi\n      revert(0x00, 0x00)\n    tag_79:\n      pop\n      tag_80\n      0x04\n      dup1\n      calldatasize\n      sub\n      dup2\n      add\n      swap1\n      tag_81\n      swap2\n      swap1\n      tag_77\n      jump\t// in\n    tag_81:\n      tag_82\n      jump\t// in\n    tag_80:\n      stop\n        /* \"contracts/KipuBank.sol\":19808:19977  function despausarContrato() external soloOwnerORol(PAUSER) whenPaused {... */\n    tag_10:\n      callvalue\n      dup1\n      iszero\n      tag_83\n      jumpi\n      revert(0x00, 0x00)\n    tag_83:\n      pop\n      tag_84\n      tag_85\n      jump\t// in\n    tag_84:\n      stop\n        /* \"contracts/KipuBank.sol\":2458:2500  uint public constant MIN_DEPOSITO = 1 gwei */\n    tag_11:\n      callvalue\n      dup1\n      iszero\n      tag_86\n      jumpi\n      revert(0x00, 0x00)\n    tag_86:\n      pop\n      tag_87\n      tag_88\n      jump\t// in\n    tag_87:\n      mload(0x40)\n      tag_89\n      swap2\n      swap1\n      tag_90\n      jump\t// in\n    tag_89:\n      mload(0x40)\n      dup1\n      swap2\n      sub\n      swap1\n      return\n        /* \"@openzeppelin/contracts/utils/Pausable.sol\":1726:1810  function paused() public view virtual returns (bool) {... */\n    tag_12:\n      callvalue\n      dup1\n      iszero\n      tag_91\n      jumpi\n      revert(0x00, 0x00)\n    tag_91:\n      pop\n      tag_92\n      tag_93\n      jump\t// in\n    tag_92:\n      mload(0x40)\n      tag_94\n      swap2\n      swap1\n      tag_56\n      jump\t// in\n    tag_94:\n      mload(0x40)\n      dup1\n      swap2\n      sub\n      swap1\n      return\n        /* \"contracts/KipuBank.sol\":16243:16439  function verBoveda() external view returns (uint monto_) {... */\n    tag_13:\n      callvalue\n      dup1\n      iszero\n      tag_95\n      jumpi\n      revert(0x00, 0x00)\n    tag_95:\n      pop\n      tag_96\n      tag_97\n      jump\t// in\n    tag_96:\n      mload(0x40)\n      tag_98\n      swap2\n      swap1\n      tag_90\n      jump\t// in\n    tag_98:\n      mload(0x40)\n      dup1\n      swap2\n      sub\n      swap1\n      return\n        /* \"contracts/KipuBank.sol\":15605:16067  function depositarUSDC(uint _monto) external verificarDepositoUSDC(_monto) whenNotPaused {... */\n    tag_14:\n      callvalue\n      dup1\n      iszero\n      tag_99\n      jumpi\n      revert(0x00, 0x00)\n    tag_99:\n      pop\n      tag_100\n      0x04\n      dup1\n      calldatasize\n      sub\n      dup2\n      add\n      swap1\n      tag_101\n      swap2\n      swap1\n      tag_102\n      jump\t// in\n    tag_101:\n      tag_103\n      jump\t// in\n    tag_100:\n      stop\n        /* \"contracts/KipuBank.sol\":1271:1306  AggregatorV3Interface public s_feed */\n    tag_15:\n      callvalue\n      dup1\n      iszero\n      tag_104\n      jumpi\n      revert(0x00, 0x00)\n    tag_104:\n      pop\n      tag_105\n      tag_106\n      jump\t// in\n    tag_105:\n      mload(0x40)\n      tag_107\n      swap2\n      swap1\n      tag_108\n      jump\t// in\n    tag_107:\n      mload(0x40)\n      dup1\n      swap2\n      sub\n      swap1\n      return\n        /* \"@openzeppelin/contracts/access/Ownable.sol\":2293:2394  function renounceOwnership() public virtual onlyOwner {... */\n    tag_16:\n      callvalue\n      dup1\n      iszero\n      tag_109\n      jumpi\n      revert(0x00, 0x00)\n    tag_109:\n      pop\n      tag_110\n      tag_111\n      jump\t// in\n    tag_110:\n      stop\n        /* \"contracts/KipuBank.sol\":16802:16930  function verSaldoETH() external view returns (uint saldo_) {... */\n    tag_17:\n      callvalue\n      dup1\n      iszero\n      tag_112\n      jumpi\n      revert(0x00, 0x00)\n    tag_112:\n      pop\n      tag_113\n      tag_114\n      jump\t// in\n    tag_113:\n      mload(0x40)\n      tag_115\n      swap2\n      swap1\n      tag_90\n      jump\t// in\n    tag_115:\n      mload(0x40)\n      dup1\n      swap2\n      sub\n      swap1\n      return\n        /* \"contracts/KipuBank.sol\":18575:19365  function setFeeds(address _nuevoFeed) external soloOwnerORol(FEED_MANAGER) whenPaused {... */\n    tag_18:\n      callvalue\n      dup1\n      iszero\n      tag_116\n      jumpi\n      revert(0x00, 0x00)\n    tag_116:\n      pop\n      tag_117\n      0x04\n      dup1\n      calldatasize\n      sub\n      dup2\n      add\n      swap1\n      tag_118\n      swap2\n      swap1\n      tag_119\n      jump\t// in\n    tag_118:\n      tag_120\n      jump\t// in\n    tag_117:\n      stop\n        /* \"contracts/KipuBank.sol\":14165:14263  function retirarETH(uint _monto) external whenNotPaused {... */\n    tag_19:\n      callvalue\n      dup1\n      iszero\n      tag_121\n      jumpi\n      revert(0x00, 0x00)\n    tag_121:\n      pop\n      tag_122\n      0x04\n      dup1\n      calldatasize\n      sub\n      dup2\n      add\n      swap1\n      tag_123\n      swap2\n      swap1\n      tag_102\n      jump\t// in\n    tag_123:\n      tag_124\n      jump\t// in\n    tag_122:\n      stop\n        /* \"contracts/KipuBank.sol\":17825:18352  function transferirOwner(address _nuevoOwner) external onlyOwner whenPaused {... */\n    tag_20:\n      callvalue\n      dup1\n      iszero\n      tag_125\n      jumpi\n      revert(0x00, 0x00)\n    tag_125:\n      pop\n      tag_126\n      0x04\n      dup1\n      calldatasize\n      sub\n      dup2\n      add\n      swap1\n      tag_127\n      swap2\n      swap1\n      tag_119\n      jump\t// in\n    tag_127:\n      tag_128\n      jump\t// in\n    tag_126:\n      stop\n        /* \"@openzeppelin/contracts/access/Ownable.sol\":1638:1723  function owner() public view virtual returns (address) {... */\n    tag_21:\n      callvalue\n      dup1\n      iszero\n      tag_129\n      jumpi\n      revert(0x00, 0x00)\n    tag_129:\n      pop\n      tag_130\n      tag_131\n      jump\t// in\n    tag_130:\n      mload(0x40)\n      tag_132\n      swap2\n      swap1\n      tag_46\n      jump\t// in\n    tag_132:\n      mload(0x40)\n      dup1\n      swap2\n      sub\n      swap1\n      return\n        /* \"@openzeppelin/contracts/access/AccessControl.sol\":2830:2966  function hasRole(bytes32 role, address account) public view virtual returns (bool) {... */\n    tag_22:\n      callvalue\n      dup1\n      iszero\n      tag_133\n      jumpi\n      revert(0x00, 0x00)\n    tag_133:\n      pop\n      tag_134\n      0x04\n      dup1\n      calldatasize\n      sub\n      dup2\n      add\n      swap1\n      tag_135\n      swap2\n      swap1\n      tag_77\n      jump\t// in\n    tag_135:\n      tag_136\n      jump\t// in\n    tag_134:\n      mload(0x40)\n      tag_137\n      swap2\n      swap1\n      tag_56\n      jump\t// in\n    tag_137:\n      mload(0x40)\n      dup1\n      swap2\n      sub\n      swap1\n      return\n        /* \"contracts/KipuBank.sol\":14399:14499  function retirarUSDC(uint _monto) external whenNotPaused {... */\n    tag_23:\n      callvalue\n      dup1\n      iszero\n      tag_138\n      jumpi\n      revert(0x00, 0x00)\n    tag_138:\n      pop\n      tag_139\n      0x04\n      dup1\n      calldatasize\n      sub\n      dup2\n      add\n      swap1\n      tag_140\n      swap2\n      swap1\n      tag_102\n      jump\t// in\n    tag_140:\n      tag_141\n      jump\t// in\n    tag_139:\n      stop\n        /* \"contracts/KipuBank.sol\":17506:17602  function verTotalContrato() external view returns (uint) {... */\n    tag_24:\n      callvalue\n      dup1\n      iszero\n      tag_142\n      jumpi\n      revert(0x00, 0x00)\n    tag_142:\n      pop\n      tag_143\n      tag_144\n      jump\t// in\n    tag_143:\n      mload(0x40)\n      tag_145\n      swap2\n      swap1\n      tag_90\n      jump\t// in\n    tag_145:\n      mload(0x40)\n      dup1\n      swap2\n      sub\n      swap1\n      return\n        /* \"contracts/KipuBank.sol\":16556:16690  function verSaldoUSDC() external view returns (uint saldo_) {... */\n    tag_25:\n      callvalue\n      dup1\n      iszero\n      tag_146\n      jumpi\n      revert(0x00, 0x00)\n    tag_146:\n      pop\n      tag_147\n      tag_148\n      jump\t// in\n    tag_147:\n      mload(0x40)\n      tag_149\n      swap2\n      swap1\n      tag_90\n      jump\t// in\n    tag_149:\n      mload(0x40)\n      dup1\n      swap2\n      sub\n      swap1\n      return\n        /* \"@openzeppelin/contracts/access/AccessControl.sol\":2196:2245  bytes32 public constant DEFAULT_ADMIN_ROLE = 0x00 */\n    tag_26:\n      callvalue\n      dup1\n      iszero\n      tag_150\n      jumpi\n      revert(0x00, 0x00)\n    tag_150:\n      pop\n      tag_151\n      tag_152\n      jump\t// in\n    tag_151:\n      mload(0x40)\n      tag_153\n      swap2\n      swap1\n      tag_73\n      jump\t// in\n    tag_153:\n      mload(0x40)\n      dup1\n      swap2\n      sub\n      swap1\n      return\n        /* \"contracts/KipuBank.sol\":17289:17378  function verTotalRetiros() external view returns (uint) {... */\n    tag_27:\n      callvalue\n      dup1\n      iszero\n      tag_154\n      jumpi\n      revert(0x00, 0x00)\n    tag_154:\n      pop\n      tag_155\n      tag_156\n      jump\t// in\n    tag_155:\n      mload(0x40)\n      tag_157\n      swap2\n      swap1\n      tag_90\n      jump\t// in\n    tag_157:\n      mload(0x40)\n      dup1\n      swap2\n      sub\n      swap1\n      return\n        /* \"contracts/KipuBank.sol\":1103:1167  bytes32 public constant FEED_MANAGER = keccak256(\"FEED_MANAGER\") */\n    tag_28:\n      callvalue\n      dup1\n      iszero\n      tag_158\n      jumpi\n      revert(0x00, 0x00)\n    tag_158:\n      pop\n      tag_159\n      tag_160\n      jump\t// in\n    tag_159:\n      mload(0x40)\n      tag_161\n      swap2\n      swap1\n      tag_73\n      jump\t// in\n    tag_161:\n      mload(0x40)\n      dup1\n      swap2\n      sub\n      swap1\n      return\n        /* \"contracts/KipuBank.sol\":20136:20283  function darRol(address cuenta, bytes32 rol) external onlyOwner {... */\n    tag_29:\n      callvalue\n      dup1\n      iszero\n      tag_162\n      jumpi\n      revert(0x00, 0x00)\n    tag_162:\n      pop\n      tag_163\n      0x04\n      dup1\n      calldatasize\n      sub\n      dup2\n      add\n      swap1\n      tag_164\n      swap2\n      swap1\n      tag_165\n      jump\t// in\n    tag_164:\n      tag_166\n      jump\t// in\n    tag_163:\n      stop\n        /* \"@openzeppelin/contracts/access/AccessControl.sol\":4618:4756  function revokeRole(bytes32 role, address account) public virtual onlyRole(getRoleAdmin(role)) {... */\n    tag_30:\n      callvalue\n      dup1\n      iszero\n      tag_167\n      jumpi\n      revert(0x00, 0x00)\n    tag_167:\n      pop\n      tag_168\n      0x04\n      dup1\n      calldatasize\n      sub\n      dup2\n      add\n      swap1\n      tag_169\n      swap2\n      swap1\n      tag_77\n      jump\t// in\n    tag_169:\n      tag_170\n      jump\t// in\n    tag_168:\n      stop\n        /* \"contracts/KipuBank.sol\":995:1047  bytes32 public constant PAUSER = keccak256(\"PAUSER\") */\n    tag_31:\n      callvalue\n      dup1\n      iszero\n      tag_171\n      jumpi\n      revert(0x00, 0x00)\n    tag_171:\n      pop\n      tag_172\n      tag_173\n      jump\t// in\n    tag_172:\n      mload(0x40)\n      tag_174\n      swap2\n      swap1\n      tag_73\n      jump\t// in\n    tag_174:\n      mload(0x40)\n      dup1\n      swap2\n      sub\n      swap1\n      return\n        /* \"contracts/KipuBank.sol\":20462:20618  function revocarRol(address cuenta, bytes32 rol) external onlyOwner {... */\n    tag_32:\n      callvalue\n      dup1\n      iszero\n      tag_175\n      jumpi\n      revert(0x00, 0x00)\n    tag_175:\n      pop\n      tag_176\n      0x04\n      dup1\n      calldatasize\n      sub\n      dup2\n      add\n      swap1\n      tag_177\n      swap2\n      swap1\n      tag_165\n      jump\t// in\n    tag_177:\n      tag_178\n      jump\t// in\n    tag_176:\n      stop\n        /* \"@openzeppelin/contracts/access/Ownable.sol\":2543:2758  function transferOwnership(address newOwner) public virtual onlyOwner {... */\n    tag_33:\n      callvalue\n      dup1\n      iszero\n      tag_179\n      jumpi\n      revert(0x00, 0x00)\n    tag_179:\n      pop\n      tag_180\n      0x04\n      dup1\n      calldatasize\n      sub\n      dup2\n      add\n      swap1\n      tag_181\n      swap2\n      swap1\n      tag_119\n      jump\t// in\n    tag_181:\n      tag_182\n      jump\t// in\n    tag_180:\n      stop\n        /* \"contracts/KipuBank.sol\":17065:17158  function verTotalDepositos() external view returns (uint) {... */\n    tag_34:\n      callvalue\n      dup1\n      iszero\n      tag_183\n      jumpi\n      revert(0x00, 0x00)\n    tag_183:\n      pop\n      tag_184\n      tag_185\n      jump\t// in\n    tag_184:\n      mload(0x40)\n      tag_186\n      swap2\n      swap1\n      tag_90\n      jump\t// in\n    tag_186:\n      mload(0x40)\n      dup1\n      swap2\n      sub\n      swap1\n      return\n        /* \"contracts/KipuBank.sol\":21289:21428  function balanceOf(address titular, address token) external view returns (uint) {... */\n    tag_35:\n      callvalue\n      dup1\n      iszero\n      tag_187\n      jumpi\n      revert(0x00, 0x00)\n    tag_187:\n      pop\n      tag_188\n      0x04\n      dup1\n      calldatasize\n      sub\n      dup2\n      add\n      swap1\n      tag_189\n      swap2\n      swap1\n      tag_190\n      jump\t// in\n    tag_189:\n      tag_191\n      jump\t// in\n    tag_188:\n      mload(0x40)\n      tag_192\n      swap2\n      swap1\n      tag_90\n      jump\t// in\n    tag_192:\n      mload(0x40)\n      dup1\n      swap2\n      sub\n      swap1\n      return\n        /* \"contracts/KipuBank.sol\":21509:21725  function supportsInterface(bytes4 interfaceId) ... */\n    tag_54:\n        /* \"contracts/KipuBank.sol\":21654:21658  bool */\n      0x00\n        /* \"contracts/KipuBank.sol\":21682:21718  super.supportsInterface(interfaceId) */\n      tag_194\n        /* \"contracts/KipuBank.sol\":21706:21717  interfaceId */\n      dup3\n        /* \"contracts/KipuBank.sol\":21682:21705  super.supportsInterface */\n      tag_195\n        /* \"contracts/KipuBank.sol\":21682:21718  super.supportsInterface(interfaceId) */\n      jump\t// in\n    tag_194:\n        /* \"contracts/KipuBank.sol\":21675:21718  return super.supportsInterface(interfaceId) */\n      swap1\n      pop\n        /* \"contracts/KipuBank.sol\":21509:21725  function supportsInterface(bytes4 interfaceId) ... */\n      swap2\n      swap1\n      pop\n      jump\t// out\n        /* \"contracts/KipuBank.sol\":20681:21031  function estadoDelContrato() external view ... */\n    tag_59:\n        /* \"contracts/KipuBank.sol\":20747:20759  bool pausado */\n      0x00\n        /* \"contracts/KipuBank.sol\":20770:20788  uint totalContrato */\n      0x00\n        /* \"contracts/KipuBank.sol\":20799:20810  uint limite */\n      0x00\n        /* \"contracts/KipuBank.sol\":20821:20832  uint umbral */\n      0x00\n        /* \"contracts/KipuBank.sol\":20843:20861  address feedActual */\n      0x00\n        /* \"contracts/KipuBank.sol\":20903:20911  paused() */\n      tag_197\n        /* \"contracts/KipuBank.sol\":20903:20909  paused */\n      tag_93\n        /* \"contracts/KipuBank.sol\":20903:20911  paused() */\n      jump\t// in\n    tag_197:\n        /* \"contracts/KipuBank.sol\":20925:20940  s_totalContrato */\n      sload(0x04)\n        /* \"contracts/KipuBank.sol\":20954:20963  i_bankCap */\n      immutable(\"0x56af87718ac6246bac727726c33ea64d0935502347b4fd185bbadeb5f3fb92bd\")\n        /* \"contracts/KipuBank.sol\":20977:20985  i_umbral */\n      immutable(\"0xcf2f0ed1818444aa7134f6644eb342f5da11c7b70eee1c41201e997b4c62f0a7\")\n        /* \"contracts/KipuBank.sol\":21007:21013  s_feed */\n      0x03\n      0x00\n      swap1\n      sload\n      swap1\n      0x0100\n      exp\n      swap1\n      div\n      0xffffffffffffffffffffffffffffffffffffffff\n      and\n        /* \"contracts/KipuBank.sol\":20882:21024  return (... */\n      swap5\n      pop\n      swap5\n      pop\n      swap5\n      pop\n      swap5\n      pop\n      swap5\n      pop\n        /* \"contracts/KipuBank.sol\":20681:21031  function estadoDelContrato() external view ... */\n      swap1\n      swap2\n      swap3\n      swap4\n      swap5\n      jump\t// out\n        /* \"contracts/KipuBank.sol\":15031:15235  function depositarETH() external payable whenNotPaused {... */\n    tag_63:\n        /* \"@openzeppelin/contracts/utils/Pausable.sol\":1350:1369  _requireNotPaused() */\n      tag_199\n        /* \"@openzeppelin/contracts/utils/Pausable.sol\":1350:1367  _requireNotPaused */\n      tag_200\n        /* \"@openzeppelin/contracts/utils/Pausable.sol\":1350:1369  _requireNotPaused() */\n      jump\t// in\n    tag_199:\n        /* \"contracts/KipuBank.sol\":15096:15109  uint montoETH */\n      0x00\n        /* \"contracts/KipuBank.sol\":15112:15121  msg.value */\n      callvalue\n        /* \"contracts/KipuBank.sol\":15096:15121  uint montoETH = msg.value */\n      swap1\n      pop\n        /* \"contracts/KipuBank.sol\":15131:15144  uint montoUSD */\n      0x00\n        /* \"contracts/KipuBank.sol\":15147:15174  convertirEthEnUSD(montoETH) */\n      tag_202\n        /* \"contracts/KipuBank.sol\":15165:15173  montoETH */\n      dup3\n        /* \"contracts/KipuBank.sol\":15147:15164  convertirEthEnUSD */\n      tag_203\n        /* \"contracts/KipuBank.sol\":15147:15174  convertirEthEnUSD(montoETH) */\n      jump\t// in\n    tag_202:\n        /* \"contracts/KipuBank.sol\":15131:15174  uint montoUSD = convertirEthEnUSD(montoETH) */\n      swap1\n      pop\n        /* \"contracts/KipuBank.sol\":15184:15228  _depositoETH(msg.sender, montoUSD, montoETH) */\n      tag_204\n        /* \"contracts/KipuBank.sol\":15197:15207  msg.sender */\n      caller\n        /* \"contracts/KipuBank.sol\":15209:15217  montoUSD */\n      dup3\n        /* \"contracts/KipuBank.sol\":15219:15227  montoETH */\n      dup5\n        /* \"contracts/KipuBank.sol\":15184:15196  _depositoETH */\n      tag_205\n        /* \"contracts/KipuBank.sol\":15184:15228  _depositoETH(msg.sender, montoUSD, montoETH) */\n      jump\t// in\n    tag_204:\n        /* \"contracts/KipuBank.sol\":15086:15235  {... */\n      pop\n      pop\n        /* \"contracts/KipuBank.sol\":15031:15235  function depositarETH() external payable whenNotPaused {... */\n      jump\t// out\n        /* \"contracts/KipuBank.sol\":19503:19667  function pausarContrato() external soloOwnerORol(PAUSER) whenNotPaused {... */\n    tag_66:\n        /* \"contracts/KipuBank.sol\":1028:1047  keccak256(\"PAUSER\") */\n      0x539440820030c4994db4e31b6b800deafd503688728f932addfe7a410515c14c\n        /* \"contracts/KipuBank.sol\":9477:9487  msg.sender */\n      caller\n        /* \"contracts/KipuBank.sol\":9466:9487  owner() != msg.sender */\n      0xffffffffffffffffffffffffffffffffffffffff\n      and\n        /* \"contracts/KipuBank.sol\":9466:9473  owner() */\n      tag_207\n        /* \"contracts/KipuBank.sol\":9466:9471  owner */\n      tag_131\n        /* \"contracts/KipuBank.sol\":9466:9473  owner() */\n      jump\t// in\n    tag_207:\n        /* \"contracts/KipuBank.sol\":9466:9487  owner() != msg.sender */\n      0xffffffffffffffffffffffffffffffffffffffff\n      and\n      eq\n      iszero\n        /* \"contracts/KipuBank.sol\":9466:9516  owner() != msg.sender && !hasRole(rol, msg.sender) */\n      dup1\n      iszero\n      tag_208\n      jumpi\n      pop\n        /* \"contracts/KipuBank.sol\":9492:9516  hasRole(rol, msg.sender) */\n      tag_209\n        /* \"contracts/KipuBank.sol\":9500:9503  rol */\n      dup2\n        /* \"contracts/KipuBank.sol\":9505:9515  msg.sender */\n      caller\n        /* \"contracts/KipuBank.sol\":9492:9499  hasRole */\n      tag_136\n        /* \"contracts/KipuBank.sol\":9492:9516  hasRole(rol, msg.sender) */\n      jump\t// in\n    tag_209:\n        /* \"contracts/KipuBank.sol\":9491:9516  !hasRole(rol, msg.sender) */\n      iszero\n        /* \"contracts/KipuBank.sol\":9466:9516  owner() != msg.sender && !hasRole(rol, msg.sender) */\n    tag_208:\n        /* \"contracts/KipuBank.sol\":9463:9583  if(owner() != msg.sender && !hasRole(rol, msg.sender)) {... */\n      iszero\n      tag_210\n      jumpi\n        /* \"contracts/KipuBank.sol\":9561:9571  msg.sender */\n      caller\n        /* \"contracts/KipuBank.sol\":9539:9572  KipuBank_NoAutorizado(msg.sender) */\n      mload(0x40)\n      0x06286eaa00000000000000000000000000000000000000000000000000000000\n      dup2\n      mstore\n      0x04\n      add\n      tag_211\n      swap2\n      swap1\n      tag_46\n      jump\t// in\n    tag_211:\n      mload(0x40)\n      dup1\n      swap2\n      sub\n      swap1\n      revert\n        /* \"contracts/KipuBank.sol\":9463:9583  if(owner() != msg.sender && !hasRole(rol, msg.sender)) {... */\n    tag_210:\n        /* \"@openzeppelin/contracts/utils/Pausable.sol\":1350:1369  _requireNotPaused() */\n      tag_213\n        /* \"@openzeppelin/contracts/utils/Pausable.sol\":1350:1367  _requireNotPaused */\n      tag_200\n        /* \"@openzeppelin/contracts/utils/Pausable.sol\":1350:1369  _requireNotPaused() */\n      jump\t// in\n    tag_213:\n        /* \"contracts/KipuBank.sol\":19584:19592  _pause() */\n      tag_215\n        /* \"contracts/KipuBank.sol\":19584:19590  _pause */\n      tag_216\n        /* \"contracts/KipuBank.sol\":19584:19592  _pause() */\n      jump\t// in\n    tag_215:\n        /* \"contracts/KipuBank.sol\":19632:19642  msg.sender */\n      caller\n        /* \"contracts/KipuBank.sol\":19607:19660  KipuBank_ContratoPausado(msg.sender, block.timestamp) */\n      0xffffffffffffffffffffffffffffffffffffffff\n      and\n      0x65ab6adc87722a7acd973ffed16cba7cfdf07b5329157a7192434753ba9dac13\n        /* \"contracts/KipuBank.sol\":19644:19659  block.timestamp */\n      timestamp\n        /* \"contracts/KipuBank.sol\":19607:19660  KipuBank_ContratoPausado(msg.sender, block.timestamp) */\n      mload(0x40)\n      tag_217\n      swap2\n      swap1\n      tag_90\n      jump\t// in\n    tag_217:\n      mload(0x40)\n      dup1\n      swap2\n      sub\n      swap1\n      log2\n        /* \"contracts/KipuBank.sol\":19503:19667  function pausarContrato() external soloOwnerORol(PAUSER) whenNotPaused {... */\n      pop\n      jump\t// out\n        /* \"@openzeppelin/contracts/access/AccessControl.sol\":3786:3906  function getRoleAdmin(bytes32 role) public view virtual returns (bytes32) {... */\n    tag_71:\n        /* \"@openzeppelin/contracts/access/AccessControl.sol\":3851:3858  bytes32 */\n      0x00\n        /* \"@openzeppelin/contracts/access/AccessControl.sol\":3877:3883  _roles */\n      0x02\n        /* \"@openzeppelin/contracts/access/AccessControl.sol\":3877:3889  _roles[role] */\n      0x00\n        /* \"@openzeppelin/contracts/access/AccessControl.sol\":3884:3888  role */\n      dup4\n        /* \"@openzeppelin/contracts/access/AccessControl.sol\":3877:3889  _roles[role] */\n      dup2\n      mstore\n      0x20\n      add\n      swap1\n      dup2\n      mstore\n      0x20\n      add\n      0x00\n      keccak256\n        /* \"@openzeppelin/contracts/access/AccessControl.sol\":3877:3899  _roles[role].adminRole */\n      0x01\n      add\n      sload\n        /* \"@openzeppelin/contracts/access/AccessControl.sol\":3870:3899  return _roles[role].adminRole */\n      swap1\n      pop\n        /* \"@openzeppelin/contracts/access/AccessControl.sol\":3786:3906  function getRoleAdmin(bytes32 role) public view virtual returns (bytes32) {... */\n      swap2\n      swap1\n      pop\n      jump\t// out\n        /* \"@openzeppelin/contracts/access/AccessControl.sol\":4202:4338  function grantRole(bytes32 role, address account) public virtual onlyRole(getRoleAdmin(role)) {... */\n    tag_78:\n        /* \"@openzeppelin/contracts/access/AccessControl.sol\":4276:4294  getRoleAdmin(role) */\n      tag_219\n        /* \"@openzeppelin/contracts/access/AccessControl.sol\":4289:4293  role */\n      dup3\n        /* \"@openzeppelin/contracts/access/AccessControl.sol\":4276:4288  getRoleAdmin */\n      tag_71\n        /* \"@openzeppelin/contracts/access/AccessControl.sol\":4276:4294  getRoleAdmin(role) */\n      jump\t// in\n    tag_219:\n        /* \"@openzeppelin/contracts/access/AccessControl.sol\":2473:2489  _checkRole(role) */\n      tag_221\n        /* \"@openzeppelin/contracts/access/AccessControl.sol\":2484:2488  role */\n      dup2\n        /* \"@openzeppelin/contracts/access/AccessControl.sol\":2473:2483  _checkRole */\n      tag_222\n        /* \"@openzeppelin/contracts/access/AccessControl.sol\":2473:2489  _checkRole(role) */\n      jump\t// in\n    tag_221:\n        /* \"@openzeppelin/contracts/access/AccessControl.sol\":4306:4331  _grantRole(role, account) */\n      tag_224\n        /* \"@openzeppelin/contracts/access/AccessControl.sol\":4317:4321  role */\n      dup4\n        /* \"@openzeppelin/contracts/access/AccessControl.sol\":4323:4330  account */\n      dup4\n        /* \"@openzeppelin/contracts/access/AccessControl.sol\":4306:4316  _grantRole */\n      tag_225\n        /* \"@openzeppelin/contracts/access/AccessControl.sol\":4306:4331  _grantRole(role, account) */\n      jump\t// in\n    tag_224:\n      pop\n        /* \"@openzeppelin/contracts/access/AccessControl.sol\":4202:4338  function grantRole(bytes32 role, address account) public virtual onlyRole(getRoleAdmin(role)) {... */\n      pop\n      pop\n      pop\n      jump\t// out\n        /* \"@openzeppelin/contracts/access/AccessControl.sol\":5304:5549  function renounceRole(bytes32 role, address callerConfirmation) public virtual {... */\n    tag_82:\n        /* \"@openzeppelin/contracts/access/AccessControl.sol\":5419:5431  _msgSender() */\n      tag_227\n        /* \"@openzeppelin/contracts/access/AccessControl.sol\":5419:5429  _msgSender */\n      tag_228\n        /* \"@openzeppelin/contracts/access/AccessControl.sol\":5419:5431  _msgSender() */\n      jump\t// in\n    tag_227:\n        /* \"@openzeppelin/contracts/access/AccessControl.sol\":5397:5431  callerConfirmation != _msgSender() */\n      0xffffffffffffffffffffffffffffffffffffffff\n      and\n        /* \"@openzeppelin/contracts/access/AccessControl.sol\":5397:5415  callerConfirmation */\n      dup2\n        /* \"@openzeppelin/contracts/access/AccessControl.sol\":5397:5431  callerConfirmation != _msgSender() */\n      0xffffffffffffffffffffffffffffffffffffffff\n      and\n      eq\n        /* \"@openzeppelin/contracts/access/AccessControl.sol\":5393:5495  if (callerConfirmation != _msgSender()) {... */\n      tag_229\n      jumpi\n        /* \"@openzeppelin/contracts/access/AccessControl.sol\":5454:5484  AccessControlBadConfirmation() */\n      mload(0x40)\n      0x6697b23200000000000000000000000000000000000000000000000000000000\n      dup2\n      mstore\n      0x04\n      add\n      mload(0x40)\n      dup1\n      swap2\n      sub\n      swap1\n      revert\n        /* \"@openzeppelin/contracts/access/AccessControl.sol\":5393:5495  if (callerConfirmation != _msgSender()) {... */\n    tag_229:\n        /* \"@openzeppelin/contracts/access/AccessControl.sol\":5505:5542  _revokeRole(role, callerConfirmation) */\n      tag_230\n        /* \"@openzeppelin/contracts/access/AccessControl.sol\":5517:5521  role */\n      dup3\n        /* \"@openzeppelin/contracts/access/AccessControl.sol\":5523:5541  callerConfirmation */\n      dup3\n        /* \"@openzeppelin/contracts/access/AccessControl.sol\":5505:5516  _revokeRole */\n      tag_231\n        /* \"@openzeppelin/contracts/access/AccessControl.sol\":5505:5542  _revokeRole(role, callerConfirmation) */\n      jump\t// in\n    tag_230:\n      pop\n        /* \"@openzeppelin/contracts/access/AccessControl.sol\":5304:5549  function renounceRole(bytes32 role, address callerConfirmation) public virtual {... */\n      pop\n      pop\n      jump\t// out\n        /* \"contracts/KipuBank.sol\":19808:19977  function despausarContrato() external soloOwnerORol(PAUSER) whenPaused {... */\n    tag_85:\n        /* \"contracts/KipuBank.sol\":1028:1047  keccak256(\"PAUSER\") */\n      0x539440820030c4994db4e31b6b800deafd503688728f932addfe7a410515c14c\n        /* \"contracts/KipuBank.sol\":9477:9487  msg.sender */\n      caller\n        /* \"contracts/KipuBank.sol\":9466:9487  owner() != msg.sender */\n      0xffffffffffffffffffffffffffffffffffffffff\n      and\n        /* \"contracts/KipuBank.sol\":9466:9473  owner() */\n      tag_233\n        /* \"contracts/KipuBank.sol\":9466:9471  owner */\n      tag_131\n        /* \"contracts/KipuBank.sol\":9466:9473  owner() */\n      jump\t// in\n    tag_233:\n        /* \"contracts/KipuBank.sol\":9466:9487  owner() != msg.sender */\n      0xffffffffffffffffffffffffffffffffffffffff\n      and\n      eq\n      iszero\n        /* \"contracts/KipuBank.sol\":9466:9516  owner() != msg.sender && !hasRole(rol, msg.sender) */\n      dup1\n      iszero\n      tag_234\n      jumpi\n      pop\n        /* \"contracts/KipuBank.sol\":9492:9516  hasRole(rol, msg.sender) */\n      tag_235\n        /* \"contracts/KipuBank.sol\":9500:9503  rol */\n      dup2\n        /* \"contracts/KipuBank.sol\":9505:9515  msg.sender */\n      caller\n        /* \"contracts/KipuBank.sol\":9492:9499  hasRole */\n      tag_136\n        /* \"contracts/KipuBank.sol\":9492:9516  hasRole(rol, msg.sender) */\n      jump\t// in\n    tag_235:\n        /* \"contracts/KipuBank.sol\":9491:9516  !hasRole(rol, msg.sender) */\n      iszero\n        /* \"contracts/KipuBank.sol\":9466:9516  owner() != msg.sender && !hasRole(rol, msg.sender) */\n    tag_234:\n        /* \"contracts/KipuBank.sol\":9463:9583  if(owner() != msg.sender && !hasRole(rol, msg.sender)) {... */\n      iszero\n      tag_236\n      jumpi\n        /* \"contracts/KipuBank.sol\":9561:9571  msg.sender */\n      caller\n        /* \"contracts/KipuBank.sol\":9539:9572  KipuBank_NoAutorizado(msg.sender) */\n      mload(0x40)\n      0x06286eaa00000000000000000000000000000000000000000000000000000000\n      dup2\n      mstore\n      0x04\n      add\n      tag_237\n      swap2\n      swap1\n      tag_46\n      jump\t// in\n    tag_237:\n      mload(0x40)\n      dup1\n      swap2\n      sub\n      swap1\n      revert\n        /* \"contracts/KipuBank.sol\":9463:9583  if(owner() != msg.sender && !hasRole(rol, msg.sender)) {... */\n    tag_236:\n        /* \"@openzeppelin/contracts/utils/Pausable.sol\":1597:1613  _requirePaused() */\n      tag_239\n        /* \"@openzeppelin/contracts/utils/Pausable.sol\":1597:1611  _requirePaused */\n      tag_240\n        /* \"@openzeppelin/contracts/utils/Pausable.sol\":1597:1613  _requirePaused() */\n      jump\t// in\n    tag_239:\n        /* \"contracts/KipuBank.sol\":19889:19899  _unpause() */\n      tag_242\n        /* \"contracts/KipuBank.sol\":19889:19897  _unpause */\n      tag_243\n        /* \"contracts/KipuBank.sol\":19889:19899  _unpause() */\n      jump\t// in\n    tag_242:\n        /* \"contracts/KipuBank.sol\":19942:19952  msg.sender */\n      caller\n        /* \"contracts/KipuBank.sol\":19914:19970  KipuBank_ContratoDespausado(msg.sender, block.timestamp) */\n      0xffffffffffffffffffffffffffffffffffffffff\n      and\n      0x08af9cf236f4b3afb8d03262d5bef5d95db4da02aa57892cd6474e8097f4f2b7\n        /* \"contracts/KipuBank.sol\":19954:19969  block.timestamp */\n      timestamp\n        /* \"contracts/KipuBank.sol\":19914:19970  KipuBank_ContratoDespausado(msg.sender, block.timestamp) */\n      mload(0x40)\n      tag_244\n      swap2\n      swap1\n      tag_90\n      jump\t// in\n    tag_244:\n      mload(0x40)\n      dup1\n      swap2\n      sub\n      swap1\n      log2\n        /* \"contracts/KipuBank.sol\":19808:19977  function despausarContrato() external soloOwnerORol(PAUSER) whenPaused {... */\n      pop\n      jump\t// out\n        /* \"contracts/KipuBank.sol\":2458:2500  uint public constant MIN_DEPOSITO = 1 gwei */\n    tag_88:\n        /* \"contracts/KipuBank.sol\":2494:2500  1 gwei */\n      0x3b9aca00\n        /* \"contracts/KipuBank.sol\":2458:2500  uint public constant MIN_DEPOSITO = 1 gwei */\n      dup2\n      jump\t// out\n        /* \"@openzeppelin/contracts/utils/Pausable.sol\":1726:1810  function paused() public view virtual returns (bool) {... */\n    tag_93:\n        /* \"@openzeppelin/contracts/utils/Pausable.sol\":1773:1777  bool */\n      0x00\n        /* \"@openzeppelin/contracts/utils/Pausable.sol\":1796:1803  _paused */\n      0x01\n      0x14\n      swap1\n      sload\n      swap1\n      0x0100\n      exp\n      swap1\n      div\n      0xff\n      and\n        /* \"@openzeppelin/contracts/utils/Pausable.sol\":1789:1803  return _paused */\n      swap1\n      pop\n        /* \"@openzeppelin/contracts/utils/Pausable.sol\":1726:1810  function paused() public view virtual returns (bool) {... */\n      swap1\n      jump\t// out\n        /* \"contracts/KipuBank.sol\":16243:16439  function verBoveda() external view returns (uint monto_) {... */\n    tag_97:\n        /* \"contracts/KipuBank.sol\":16287:16298  uint monto_ */\n      0x00\n        /* \"contracts/KipuBank.sol\":16384:16403  s_cuentasMultiToken */\n      0x06\n        /* \"contracts/KipuBank.sol\":16384:16420  s_cuentasMultiToken[address(i_usdc)] */\n      0x00\n        /* \"contracts/KipuBank.sol\":16412:16418  i_usdc */\n      immutable(\"0x70ebf73cb6f1a1207279604d754513a029c2ff46f9198374b0ad04887dd2881e\")\n        /* \"contracts/KipuBank.sol\":16384:16420  s_cuentasMultiToken[address(i_usdc)] */\n      0xffffffffffffffffffffffffffffffffffffffff\n      and\n      0xffffffffffffffffffffffffffffffffffffffff\n      and\n      dup2\n      mstore\n      0x20\n      add\n      swap1\n      dup2\n      mstore\n      0x20\n      add\n      0x00\n      keccak256\n        /* \"contracts/KipuBank.sol\":16384:16432  s_cuentasMultiToken[address(i_usdc)][msg.sender] */\n      0x00\n        /* \"contracts/KipuBank.sol\":16421:16431  msg.sender */\n      caller\n        /* \"contracts/KipuBank.sol\":16384:16432  s_cuentasMultiToken[address(i_usdc)][msg.sender] */\n      0xffffffffffffffffffffffffffffffffffffffff\n      and\n      0xffffffffffffffffffffffffffffffffffffffff\n      and\n      dup2\n      mstore\n      0x20\n      add\n      swap1\n      dup2\n      mstore\n      0x20\n      add\n      0x00\n      keccak256\n      sload\n        /* \"contracts/KipuBank.sol\":16319:16381  convertirEthEnUSD(s_cuentasMultiToken[address(0)][msg.sender]) */\n      tag_247\n        /* \"contracts/KipuBank.sol\":16337:16356  s_cuentasMultiToken */\n      0x06\n        /* \"contracts/KipuBank.sol\":16337:16368  s_cuentasMultiToken[address(0)] */\n      0x00\n        /* \"contracts/KipuBank.sol\":16365:16366  0 */\n      0x00\n        /* \"contracts/KipuBank.sol\":16337:16368  s_cuentasMultiToken[address(0)] */\n      0xffffffffffffffffffffffffffffffffffffffff\n      and\n      0xffffffffffffffffffffffffffffffffffffffff\n      and\n      dup2\n      mstore\n      0x20\n      add\n      swap1\n      dup2\n      mstore\n      0x20\n      add\n      0x00\n      keccak256\n        /* \"contracts/KipuBank.sol\":16337:16380  s_cuentasMultiToken[address(0)][msg.sender] */\n      0x00\n        /* \"contracts/KipuBank.sol\":16369:16379  msg.sender */\n      caller\n        /* \"contracts/KipuBank.sol\":16337:16380  s_cuentasMultiToken[address(0)][msg.sender] */\n      0xffffffffffffffffffffffffffffffffffffffff\n      and\n      0xffffffffffffffffffffffffffffffffffffffff\n      and\n      dup2\n      mstore\n      0x20\n      add\n      swap1\n      dup2\n      mstore\n      0x20\n      add\n      0x00\n      keccak256\n      sload\n        /* \"contracts/KipuBank.sol\":16319:16336  convertirEthEnUSD */\n      tag_203\n        /* \"contracts/KipuBank.sol\":16319:16381  convertirEthEnUSD(s_cuentasMultiToken[address(0)][msg.sender]) */\n      jump\t// in\n    tag_247:\n        /* \"contracts/KipuBank.sol\":16319:16432  convertirEthEnUSD(s_cuentasMultiToken[address(0)][msg.sender]) + s_cuentasMultiToken[address(i_usdc)][msg.sender] */\n      tag_248\n      swap2\n      swap1\n      tag_249\n      jump\t// in\n    tag_248:\n        /* \"contracts/KipuBank.sol\":16310:16432  monto_ = convertirEthEnUSD(s_cuentasMultiToken[address(0)][msg.sender]) + s_cuentasMultiToken[address(i_usdc)][msg.sender] */\n      swap1\n      pop\n        /* \"contracts/KipuBank.sol\":16243:16439  function verBoveda() external view returns (uint monto_) {... */\n      swap1\n      jump\t// out\n        /* \"contracts/KipuBank.sol\":15605:16067  function depositarUSDC(uint _monto) external verificarDepositoUSDC(_monto) whenNotPaused {... */\n    tag_103:\n        /* \"contracts/KipuBank.sol\":15672:15678  _monto */\n      dup1\n        /* \"contracts/KipuBank.sol\":10221:10222  0 */\n      0x00\n        /* \"contracts/KipuBank.sol\":10211:10217  _monto */\n      dup2\n        /* \"contracts/KipuBank.sol\":10211:10222  _monto == 0 */\n      sub\n        /* \"contracts/KipuBank.sol\":10208:10261  if(_monto == 0) revert KipuBank_MontoCero(msg.sender) */\n      tag_251\n      jumpi\n        /* \"contracts/KipuBank.sol\":10250:10260  msg.sender */\n      caller\n        /* \"contracts/KipuBank.sol\":10231:10261  KipuBank_MontoCero(msg.sender) */\n      mload(0x40)\n      0xb2f0923100000000000000000000000000000000000000000000000000000000\n      dup2\n      mstore\n      0x04\n      add\n      tag_252\n      swap2\n      swap1\n      tag_46\n      jump\t// in\n    tag_252:\n      mload(0x40)\n      dup1\n      swap2\n      sub\n      swap1\n      revert\n        /* \"contracts/KipuBank.sol\":10208:10261  if(_monto == 0) revert KipuBank_MontoCero(msg.sender) */\n    tag_251:\n        /* \"contracts/KipuBank.sol\":10302:10311  i_bankCap */\n      immutable(\"0x56af87718ac6246bac727726c33ea64d0935502347b4fd185bbadeb5f3fb92bd\")\n        /* \"contracts/KipuBank.sol\":10284:10299  s_totalContrato */\n      sload(0x04)\n        /* \"contracts/KipuBank.sol\":10275:10281  _monto */\n      dup3\n        /* \"contracts/KipuBank.sol\":10275:10299  _monto + s_totalContrato */\n      tag_253\n      swap2\n      swap1\n      tag_249\n      jump\t// in\n    tag_253:\n        /* \"contracts/KipuBank.sol\":10275:10311  _monto + s_totalContrato > i_bankCap */\n      gt\n        /* \"contracts/KipuBank.sol\":10271:10351  if (_monto + s_totalContrato > i_bankCap) revert KipuBank_LimiteExcedido(_monto) */\n      iszero\n      tag_254\n      jumpi\n        /* \"contracts/KipuBank.sol\":10344:10350  _monto */\n      dup1\n        /* \"contracts/KipuBank.sol\":10320:10351  KipuBank_LimiteExcedido(_monto) */\n      mload(0x40)\n      0x2900b02c00000000000000000000000000000000000000000000000000000000\n      dup2\n      mstore\n      0x04\n      add\n      tag_255\n      swap2\n      swap1\n      tag_90\n      jump\t// in\n    tag_255:\n      mload(0x40)\n      dup1\n      swap2\n      sub\n      swap1\n      revert\n        /* \"contracts/KipuBank.sol\":10271:10351  if (_monto + s_totalContrato > i_bankCap) revert KipuBank_LimiteExcedido(_monto) */\n    tag_254:\n        /* \"@openzeppelin/contracts/utils/Pausable.sol\":1350:1369  _requireNotPaused() */\n      tag_257\n        /* \"@openzeppelin/contracts/utils/Pausable.sol\":1350:1367  _requireNotPaused */\n      tag_200\n        /* \"@openzeppelin/contracts/utils/Pausable.sol\":1350:1369  _requireNotPaused() */\n      jump\t// in\n    tag_257:\n        /* \"contracts/KipuBank.sol\":15755:15761  _monto */\n      dup2\n        /* \"contracts/KipuBank.sol\":15709:15715  i_usdc */\n      immutable(\"0x70ebf73cb6f1a1207279604d754513a029c2ff46f9198374b0ad04887dd2881e\")\n        /* \"contracts/KipuBank.sol\":15709:15725  i_usdc.allowance */\n      0xffffffffffffffffffffffffffffffffffffffff\n      and\n      0xdd62ed3e\n        /* \"contracts/KipuBank.sol\":15726:15736  msg.sender */\n      caller\n        /* \"contracts/KipuBank.sol\":15746:15750  this */\n      address\n        /* \"contracts/KipuBank.sol\":15709:15752  i_usdc.allowance(msg.sender, address(this)) */\n      mload(0x40)\n      dup4\n      0xffffffff\n      and\n      0xe0\n      shl\n      dup2\n      mstore\n      0x04\n      add\n      tag_259\n      swap3\n      swap2\n      swap1\n      tag_260\n      jump\t// in\n    tag_259:\n      0x20\n      mload(0x40)\n      dup1\n      dup4\n      sub\n      dup2\n      dup7\n      gas\n      staticcall\n      iszero\n      dup1\n      iszero\n      tag_262\n      jumpi\n      returndatacopy(0x00, 0x00, returndatasize)\n      revert(0x00, returndatasize)\n    tag_262:\n      pop\n      pop\n      pop\n      pop\n      mload(0x40)\n      returndatasize\n      not(0x1f)\n      0x1f\n      dup3\n      add\n      and\n      dup3\n      add\n      dup1\n      0x40\n      mstore\n      pop\n      dup2\n      add\n      swap1\n      tag_263\n      swap2\n      swap1\n      tag_264\n      jump\t// in\n    tag_263:\n        /* \"contracts/KipuBank.sol\":15709:15761  i_usdc.allowance(msg.sender, address(this)) < _monto */\n      lt\n        /* \"contracts/KipuBank.sol\":15704:15805  if ( i_usdc.allowance(msg.sender, address(this)) < _monto ) revert KipuBank_MontoNoAutorizado(_monto) */\n      iszero\n      tag_265\n      jumpi\n        /* \"contracts/KipuBank.sol\":15798:15804  _monto */\n      dup2\n        /* \"contracts/KipuBank.sol\":15771:15805  KipuBank_MontoNoAutorizado(_monto) */\n      mload(0x40)\n      0xc481caba00000000000000000000000000000000000000000000000000000000\n      dup2\n      mstore\n      0x04\n      add\n      tag_266\n      swap2\n      swap1\n      tag_90\n      jump\t// in\n    tag_266:\n      mload(0x40)\n      dup1\n      swap2\n      sub\n      swap1\n      revert\n        /* \"contracts/KipuBank.sol\":15704:15805  if ( i_usdc.allowance(msg.sender, address(this)) < _monto ) revert KipuBank_MontoNoAutorizado(_monto) */\n    tag_265:\n        /* \"contracts/KipuBank.sol\":15867:15873  _monto */\n      dup2\n        /* \"contracts/KipuBank.sol\":15815:15834  s_cuentasMultiToken */\n      0x06\n        /* \"contracts/KipuBank.sol\":15815:15851  s_cuentasMultiToken[address(i_usdc)] */\n      0x00\n        /* \"contracts/KipuBank.sol\":15843:15849  i_usdc */\n      immutable(\"0x70ebf73cb6f1a1207279604d754513a029c2ff46f9198374b0ad04887dd2881e\")\n        /* \"contracts/KipuBank.sol\":15815:15851  s_cuentasMultiToken[address(i_usdc)] */\n      0xffffffffffffffffffffffffffffffffffffffff\n      and\n      0xffffffffffffffffffffffffffffffffffffffff\n      and\n      dup2\n      mstore\n      0x20\n      add\n      swap1\n      dup2\n      mstore\n      0x20\n      add\n      0x00\n      keccak256\n        /* \"contracts/KipuBank.sol\":15815:15863  s_cuentasMultiToken[address(i_usdc)][msg.sender] */\n      0x00\n        /* \"contracts/KipuBank.sol\":15852:15862  msg.sender */\n      caller\n        /* \"contracts/KipuBank.sol\":15815:15863  s_cuentasMultiToken[address(i_usdc)][msg.sender] */\n      0xffffffffffffffffffffffffffffffffffffffff\n      and\n      0xffffffffffffffffffffffffffffffffffffffff\n      and\n      dup2\n      mstore\n      0x20\n      add\n      swap1\n      dup2\n      mstore\n      0x20\n      add\n      0x00\n      keccak256\n      0x00\n        /* \"contracts/KipuBank.sol\":15815:15873  s_cuentasMultiToken[address(i_usdc)][msg.sender] += _monto */\n      dup3\n      dup3\n      sload\n      tag_267\n      swap2\n      swap1\n      tag_249\n      jump\t// in\n    tag_267:\n      swap3\n      pop\n      pop\n      dup2\n      swap1\n      sstore\n      pop\n        /* \"contracts/KipuBank.sol\":15883:15894  s_depositos */\n      0x05\n      0x00\n        /* \"contracts/KipuBank.sol\":15883:15896  s_depositos++ */\n      dup2\n      dup2\n      swap1\n      sload\n      swap1\n      0x0100\n      exp\n      swap1\n      div\n      0xffffffffffffffffffffffffffffffff\n      and\n      dup1\n      swap3\n      swap2\n      swap1\n      tag_268\n      swap1\n      tag_269\n      jump\t// in\n    tag_268:\n      swap2\n      swap1\n      0x0100\n      exp\n      dup2\n      sload\n      dup2\n      0xffffffffffffffffffffffffffffffff\n      mul\n      not\n      and\n      swap1\n      dup4\n      0xffffffffffffffffffffffffffffffff\n      and\n      mul\n      or\n      swap1\n      sstore\n      pop\n      pop\n        /* \"contracts/KipuBank.sol\":15925:15931  _monto */\n      dup2\n        /* \"contracts/KipuBank.sol\":15906:15921  s_totalContrato */\n      0x04\n      0x00\n        /* \"contracts/KipuBank.sol\":15906:15931  s_totalContrato += _monto */\n      dup3\n      dup3\n      sload\n      tag_270\n      swap2\n      swap1\n      tag_249\n      jump\t// in\n    tag_270:\n      swap3\n      pop\n      pop\n      dup2\n      swap1\n      sstore\n      pop\n        /* \"contracts/KipuBank.sol\":15973:15983  msg.sender */\n      caller\n        /* \"contracts/KipuBank.sol\":15946:15992  KipuBank_DepositoRealizado(msg.sender, _monto) */\n      0xffffffffffffffffffffffffffffffffffffffff\n      and\n      0x9d15693852bf60dc27bd5aa831d0351359b7d01d428ae1baae11f15cbcfebafd\n        /* \"contracts/KipuBank.sol\":15985:15991  _monto */\n      dup4\n        /* \"contracts/KipuBank.sol\":15946:15992  KipuBank_DepositoRealizado(msg.sender, _monto) */\n      mload(0x40)\n      tag_271\n      swap2\n      swap1\n      tag_90\n      jump\t// in\n    tag_271:\n      mload(0x40)\n      dup1\n      swap2\n      sub\n      swap1\n      log2\n        /* \"contracts/KipuBank.sol\":16002:16060  i_usdc.safeTransferFrom(msg.sender, address(this), _monto) */\n      tag_272\n        /* \"contracts/KipuBank.sol\":16026:16036  msg.sender */\n      caller\n        /* \"contracts/KipuBank.sol\":16046:16050  this */\n      address\n        /* \"contracts/KipuBank.sol\":16053:16059  _monto */\n      dup5\n        /* \"contracts/KipuBank.sol\":16002:16008  i_usdc */\n      immutable(\"0x70ebf73cb6f1a1207279604d754513a029c2ff46f9198374b0ad04887dd2881e\")\n        /* \"contracts/KipuBank.sol\":16002:16025  i_usdc.safeTransferFrom */\n      0xffffffffffffffffffffffffffffffffffffffff\n      and\n      tag_273\n      swap1\n        /* \"contracts/KipuBank.sol\":16002:16060  i_usdc.safeTransferFrom(msg.sender, address(this), _monto) */\n      swap4\n      swap3\n      swap2\n      swap1\n      0xffffffff\n      and\n      jump\t// in\n    tag_272:\n        /* \"contracts/KipuBank.sol\":15605:16067  function depositarUSDC(uint _monto) external verificarDepositoUSDC(_monto) whenNotPaused {... */\n      pop\n      pop\n      jump\t// out\n        /* \"contracts/KipuBank.sol\":1271:1306  AggregatorV3Interface public s_feed */\n    tag_106:\n      0x03\n      0x00\n      swap1\n      sload\n      swap1\n      0x0100\n      exp\n      swap1\n      div\n      0xffffffffffffffffffffffffffffffffffffffff\n      and\n      dup2\n      jump\t// out\n        /* \"@openzeppelin/contracts/access/Ownable.sol\":2293:2394  function renounceOwnership() public virtual onlyOwner {... */\n    tag_111:\n        /* \"@openzeppelin/contracts/access/Ownable.sol\":1531:1544  _checkOwner() */\n      tag_275\n        /* \"@openzeppelin/contracts/access/Ownable.sol\":1531:1542  _checkOwner */\n      tag_276\n        /* \"@openzeppelin/contracts/access/Ownable.sol\":1531:1544  _checkOwner() */\n      jump\t// in\n    tag_275:\n        /* \"@openzeppelin/contracts/access/Ownable.sol\":2357:2387  _transferOwnership(address(0)) */\n      tag_278\n        /* \"@openzeppelin/contracts/access/Ownable.sol\":2384:2385  0 */\n      0x00\n        /* \"@openzeppelin/contracts/access/Ownable.sol\":2357:2375  _transferOwnership */\n      tag_279\n        /* \"@openzeppelin/contracts/access/Ownable.sol\":2357:2387  _transferOwnership(address(0)) */\n      jump\t// in\n    tag_278:\n        /* \"@openzeppelin/contracts/access/Ownable.sol\":2293:2394  function renounceOwnership() public virtual onlyOwner {... */\n      jump\t// out\n        /* \"contracts/KipuBank.sol\":16802:16930  function verSaldoETH() external view returns (uint saldo_) {... */\n    tag_114:\n        /* \"contracts/KipuBank.sol\":16848:16859  uint saldo_ */\n      0x00\n        /* \"contracts/KipuBank.sol\":16880:16899  s_cuentasMultiToken */\n      0x06\n        /* \"contracts/KipuBank.sol\":16880:16911  s_cuentasMultiToken[address(0)] */\n      0x00\n        /* \"contracts/KipuBank.sol\":16908:16909  0 */\n      0x00\n        /* \"contracts/KipuBank.sol\":16880:16911  s_cuentasMultiToken[address(0)] */\n      0xffffffffffffffffffffffffffffffffffffffff\n      and\n      0xffffffffffffffffffffffffffffffffffffffff\n      and\n      dup2\n      mstore\n      0x20\n      add\n      swap1\n      dup2\n      mstore\n      0x20\n      add\n      0x00\n      keccak256\n        /* \"contracts/KipuBank.sol\":16880:16923  s_cuentasMultiToken[address(0)][msg.sender] */\n      0x00\n        /* \"contracts/KipuBank.sol\":16912:16922  msg.sender */\n      caller\n        /* \"contracts/KipuBank.sol\":16880:16923  s_cuentasMultiToken[address(0)][msg.sender] */\n      0xffffffffffffffffffffffffffffffffffffffff\n      and\n      0xffffffffffffffffffffffffffffffffffffffff\n      and\n      dup2\n      mstore\n      0x20\n      add\n      swap1\n      dup2\n      mstore\n      0x20\n      add\n      0x00\n      keccak256\n      sload\n        /* \"contracts/KipuBank.sol\":16871:16923  saldo_ = s_cuentasMultiToken[address(0)][msg.sender] */\n      swap1\n      pop\n        /* \"contracts/KipuBank.sol\":16802:16930  function verSaldoETH() external view returns (uint saldo_) {... */\n      swap1\n      jump\t// out\n        /* \"contracts/KipuBank.sol\":18575:19365  function setFeeds(address _nuevoFeed) external soloOwnerORol(FEED_MANAGER) whenPaused {... */\n    tag_120:\n        /* \"contracts/KipuBank.sol\":1142:1167  keccak256(\"FEED_MANAGER\") */\n      0x9bbb3ee3bdfbe971682b08854a620ca4bf696f8e0c269e5c5b129a18e64d29df\n        /* \"contracts/KipuBank.sol\":9477:9487  msg.sender */\n      caller\n        /* \"contracts/KipuBank.sol\":9466:9487  owner() != msg.sender */\n      0xffffffffffffffffffffffffffffffffffffffff\n      and\n        /* \"contracts/KipuBank.sol\":9466:9473  owner() */\n      tag_282\n        /* \"contracts/KipuBank.sol\":9466:9471  owner */\n      tag_131\n        /* \"contracts/KipuBank.sol\":9466:9473  owner() */\n      jump\t// in\n    tag_282:\n        /* \"contracts/KipuBank.sol\":9466:9487  owner() != msg.sender */\n      0xffffffffffffffffffffffffffffffffffffffff\n      and\n      eq\n      iszero\n        /* \"contracts/KipuBank.sol\":9466:9516  owner() != msg.sender && !hasRole(rol, msg.sender) */\n      dup1\n      iszero\n      tag_283\n      jumpi\n      pop\n        /* \"contracts/KipuBank.sol\":9492:9516  hasRole(rol, msg.sender) */\n      tag_284\n        /* \"contracts/KipuBank.sol\":9500:9503  rol */\n      dup2\n        /* \"contracts/KipuBank.sol\":9505:9515  msg.sender */\n      caller\n        /* \"contracts/KipuBank.sol\":9492:9499  hasRole */\n      tag_136\n        /* \"contracts/KipuBank.sol\":9492:9516  hasRole(rol, msg.sender) */\n      jump\t// in\n    tag_284:\n        /* \"contracts/KipuBank.sol\":9491:9516  !hasRole(rol, msg.sender) */\n      iszero\n        /* \"contracts/KipuBank.sol\":9466:9516  owner() != msg.sender && !hasRole(rol, msg.sender) */\n    tag_283:\n        /* \"contracts/KipuBank.sol\":9463:9583  if(owner() != msg.sender && !hasRole(rol, msg.sender)) {... */\n      iszero\n      tag_285\n      jumpi\n        /* \"contracts/KipuBank.sol\":9561:9571  msg.sender */\n      caller\n        /* \"contracts/KipuBank.sol\":9539:9572  KipuBank_NoAutorizado(msg.sender) */\n      mload(0x40)\n      0x06286eaa00000000000000000000000000000000000000000000000000000000\n      dup2\n      mstore\n      0x04\n      add\n      tag_286\n      swap2\n      swap1\n      tag_46\n      jump\t// in\n    tag_286:\n      mload(0x40)\n      dup1\n      swap2\n      sub\n      swap1\n      revert\n        /* \"contracts/KipuBank.sol\":9463:9583  if(owner() != msg.sender && !hasRole(rol, msg.sender)) {... */\n    tag_285:\n        /* \"@openzeppelin/contracts/utils/Pausable.sol\":1597:1613  _requirePaused() */\n      tag_288\n        /* \"@openzeppelin/contracts/utils/Pausable.sol\":1597:1611  _requirePaused */\n      tag_240\n        /* \"@openzeppelin/contracts/utils/Pausable.sol\":1597:1613  _requirePaused() */\n      jump\t// in\n    tag_288:\n        /* \"contracts/KipuBank.sol\":18697:18698  0 */\n      0x00\n        /* \"contracts/KipuBank.sol\":18675:18699  _nuevoFeed == address(0) */\n      0xffffffffffffffffffffffffffffffffffffffff\n      and\n        /* \"contracts/KipuBank.sol\":18675:18685  _nuevoFeed */\n      dup3\n        /* \"contracts/KipuBank.sol\":18675:18699  _nuevoFeed == address(0) */\n      0xffffffffffffffffffffffffffffffffffffffff\n      and\n      sub\n        /* \"contracts/KipuBank.sol\":18671:18736  if (_nuevoFeed == address(0)) revert KipuBank_DireccionInvalida() */\n      tag_290\n      jumpi\n        /* \"contracts/KipuBank.sol\":18708:18736  KipuBank_DireccionInvalida() */\n      mload(0x40)\n      0x463858d600000000000000000000000000000000000000000000000000000000\n      dup2\n      mstore\n      0x04\n      add\n      mload(0x40)\n      dup1\n      swap2\n      sub\n      swap1\n      revert\n        /* \"contracts/KipuBank.sol\":18671:18736  if (_nuevoFeed == address(0)) revert KipuBank_DireccionInvalida() */\n    tag_290:\n        /* \"contracts/KipuBank.sol\":18773:18783  _nuevoFeed */\n      dup2\n        /* \"contracts/KipuBank.sol\":18751:18800  AggregatorV3Interface(_nuevoFeed).latestRoundData */\n      0xffffffffffffffffffffffffffffffffffffffff\n      and\n      0xfeaf968c\n        /* \"contracts/KipuBank.sol\":18751:18802  AggregatorV3Interface(_nuevoFeed).latestRoundData() */\n      mload(0x40)\n      dup2\n      0xffffffff\n      and\n      0xe0\n      shl\n      dup2\n      mstore\n      0x04\n      add\n      0xa0\n      mload(0x40)\n      dup1\n      dup4\n      sub\n      dup2\n      dup7\n      gas\n      staticcall\n      swap3\n      pop\n      pop\n      pop\n      dup1\n      iszero\n      tag_291\n      jumpi\n      pop\n      mload(0x40)\n      returndatasize\n      not(0x1f)\n      0x1f\n      dup3\n      add\n      and\n      dup3\n      add\n      dup1\n      0x40\n      mstore\n      pop\n      dup2\n      add\n      swap1\n      tag_292\n      swap2\n      swap1\n      tag_293\n      jump\t// in\n    tag_292:\n      0x01\n    tag_291:\n        /* \"contracts/KipuBank.sol\":18747:19351  try AggregatorV3Interface(_nuevoFeed).latestRoundData() returns (... */\n      tag_294\n      jumpi\n        /* \"contracts/KipuBank.sol\":19329:19339  _nuevoFeed */\n      dup2\n        /* \"contracts/KipuBank.sol\":19307:19340  KipuBank_FeedInvalido(_nuevoFeed) */\n      mload(0x40)\n      0x59eea31500000000000000000000000000000000000000000000000000000000\n      dup2\n      mstore\n      0x04\n      add\n      tag_298\n      swap2\n      swap1\n      tag_46\n      jump\t// in\n    tag_298:\n      mload(0x40)\n      dup1\n      swap2\n      sub\n      swap1\n      revert\n        /* \"contracts/KipuBank.sol\":18747:19351  try AggregatorV3Interface(_nuevoFeed).latestRoundData() returns (... */\n    tag_294:\n        /* \"contracts/KipuBank.sol\":18917:18918  0 */\n      0x00\n        /* \"contracts/KipuBank.sol\":18908:18913  price */\n      dup5\n        /* \"contracts/KipuBank.sol\":18908:18918  price <= 0 */\n      sgt\n        /* \"contracts/KipuBank.sol\":18905:18960  if(price <= 0) revert KipuBank_FeedInvalido(_nuevoFeed) */\n      tag_300\n      jumpi\n        /* \"contracts/KipuBank.sol\":18949:18959  _nuevoFeed */\n      dup7\n        /* \"contracts/KipuBank.sol\":18927:18960  KipuBank_FeedInvalido(_nuevoFeed) */\n      mload(0x40)\n      0x59eea31500000000000000000000000000000000000000000000000000000000\n      dup2\n      mstore\n      0x04\n      add\n      tag_301\n      swap2\n      swap1\n      tag_46\n      jump\t// in\n    tag_301:\n      mload(0x40)\n      dup1\n      swap2\n      sub\n      swap1\n      revert\n        /* \"contracts/KipuBank.sol\":18905:18960  if(price <= 0) revert KipuBank_FeedInvalido(_nuevoFeed) */\n    tag_300:\n        /* \"contracts/KipuBank.sol\":1756:1760  3600 */\n      0x0e10\n        /* \"contracts/KipuBank.sol\":18989:19027  block.timestamp - updateAt > HEARTBEAT */\n      0xffff\n      and\n        /* \"contracts/KipuBank.sol\":19007:19015  updateAt */\n      dup3\n        /* \"contracts/KipuBank.sol\":18989:19004  block.timestamp */\n      timestamp\n        /* \"contracts/KipuBank.sol\":18989:19015  block.timestamp - updateAt */\n      tag_302\n      swap2\n      swap1\n      tag_303\n      jump\t// in\n    tag_302:\n        /* \"contracts/KipuBank.sol\":18989:19027  block.timestamp - updateAt > HEARTBEAT */\n      gt\n        /* \"contracts/KipuBank.sol\":18986:19078  if(block.timestamp - updateAt > HEARTBEAT) revert KipuBank_PrecioDesactualizado(uint(price)) */\n      iszero\n      tag_304\n      jumpi\n        /* \"contracts/KipuBank.sol\":19071:19076  price */\n      dup4\n        /* \"contracts/KipuBank.sol\":19036:19078  KipuBank_PrecioDesactualizado(uint(price)) */\n      mload(0x40)\n      0x2609a26500000000000000000000000000000000000000000000000000000000\n      dup2\n      mstore\n      0x04\n      add\n      tag_305\n      swap2\n      swap1\n      tag_90\n      jump\t// in\n    tag_305:\n      mload(0x40)\n      dup1\n      swap2\n      sub\n      swap1\n      revert\n        /* \"contracts/KipuBank.sol\":18986:19078  if(block.timestamp - updateAt > HEARTBEAT) revert KipuBank_PrecioDesactualizado(uint(price)) */\n    tag_304:\n        /* \"contracts/KipuBank.sol\":19105:19125  address feedAnterior */\n      0x00\n        /* \"contracts/KipuBank.sol\":19136:19142  s_feed */\n      0x03\n      0x00\n      swap1\n      sload\n      swap1\n      0x0100\n      exp\n      swap1\n      div\n      0xffffffffffffffffffffffffffffffffffffffff\n      and\n        /* \"contracts/KipuBank.sol\":19105:19143  address feedAnterior = address(s_feed) */\n      swap1\n      pop\n        /* \"contracts/KipuBank.sol\":19188:19198  _nuevoFeed */\n      dup8\n        /* \"contracts/KipuBank.sol\":19157:19163  s_feed */\n      0x03\n      0x00\n        /* \"contracts/KipuBank.sol\":19157:19199  s_feed = AggregatorV3Interface(_nuevoFeed) */\n      0x0100\n      exp\n      dup2\n      sload\n      dup2\n      0xffffffffffffffffffffffffffffffffffffffff\n      mul\n      not\n      and\n      swap1\n      dup4\n      0xffffffffffffffffffffffffffffffffffffffff\n      and\n      mul\n      or\n      swap1\n      sstore\n      pop\n        /* \"contracts/KipuBank.sol\":19257:19267  _nuevoFeed */\n      dup8\n        /* \"contracts/KipuBank.sol\":19218:19268  KipuBank_FeedActualizado(feedAnterior, _nuevoFeed) */\n      0xffffffffffffffffffffffffffffffffffffffff\n      and\n        /* \"contracts/KipuBank.sol\":19243:19255  feedAnterior */\n      dup2\n        /* \"contracts/KipuBank.sol\":19218:19268  KipuBank_FeedActualizado(feedAnterior, _nuevoFeed) */\n      0xffffffffffffffffffffffffffffffffffffffff\n      and\n      0x03028d95bd98a5ec8c81b55c2b61e734dde89bb773697b429bd195fd00582b30\n      mload(0x40)\n      mload(0x40)\n      dup1\n      swap2\n      sub\n      swap1\n      log3\n        /* \"contracts/KipuBank.sol\":18891:19279  {... */\n      pop\n        /* \"contracts/KipuBank.sol\":18803:19279  returns (... */\n      pop\n      pop\n      pop\n      pop\n      pop\n        /* \"contracts/KipuBank.sol\":18575:19365  function setFeeds(address _nuevoFeed) external soloOwnerORol(FEED_MANAGER) whenPaused {... */\n      pop\n      pop\n      jump\t// out\n        /* \"contracts/KipuBank.sol\":14165:14263  function retirarETH(uint _monto) external whenNotPaused {... */\n    tag_124:\n        /* \"@openzeppelin/contracts/utils/Pausable.sol\":1350:1369  _requireNotPaused() */\n      tag_307\n        /* \"@openzeppelin/contracts/utils/Pausable.sol\":1350:1367  _requireNotPaused */\n      tag_200\n        /* \"@openzeppelin/contracts/utils/Pausable.sol\":1350:1369  _requireNotPaused() */\n      jump\t// in\n    tag_307:\n        /* \"contracts/KipuBank.sol\":14231:14256  _retirarFondosETH(_monto) */\n      tag_309\n        /* \"contracts/KipuBank.sol\":14249:14255  _monto */\n      dup2\n        /* \"contracts/KipuBank.sol\":14231:14248  _retirarFondosETH */\n      tag_310\n        /* \"contracts/KipuBank.sol\":14231:14256  _retirarFondosETH(_monto) */\n      jump\t// in\n    tag_309:\n        /* \"contracts/KipuBank.sol\":14165:14263  function retirarETH(uint _monto) external whenNotPaused {... */\n      pop\n      jump\t// out\n        /* \"contracts/KipuBank.sol\":17825:18352  function transferirOwner(address _nuevoOwner) external onlyOwner whenPaused {... */\n    tag_128:\n        /* \"@openzeppelin/contracts/access/Ownable.sol\":1531:1544  _checkOwner() */\n      tag_312\n        /* \"@openzeppelin/contracts/access/Ownable.sol\":1531:1542  _checkOwner */\n      tag_276\n        /* \"@openzeppelin/contracts/access/Ownable.sol\":1531:1544  _checkOwner() */\n      jump\t// in\n    tag_312:\n        /* \"@openzeppelin/contracts/utils/Pausable.sol\":1597:1613  _requirePaused() */\n      tag_314\n        /* \"@openzeppelin/contracts/utils/Pausable.sol\":1597:1611  _requirePaused */\n      tag_240\n        /* \"@openzeppelin/contracts/utils/Pausable.sol\":1597:1613  _requirePaused() */\n      jump\t// in\n    tag_314:\n        /* \"contracts/KipuBank.sol\":17920:17939  address ownerActual */\n      0x00\n        /* \"contracts/KipuBank.sol\":17942:17949  owner() */\n      tag_316\n        /* \"contracts/KipuBank.sol\":17942:17947  owner */\n      tag_131\n        /* \"contracts/KipuBank.sol\":17942:17949  owner() */\n      jump\t// in\n    tag_316:\n        /* \"contracts/KipuBank.sol\":17920:17949  address ownerActual = owner() */\n      swap1\n      pop\n        /* \"contracts/KipuBank.sol\":17960:18004  _revokeRole(DEFAULT_ADMIN_ROLE, ownerActual) */\n      tag_317\n        /* \"@openzeppelin/contracts/access/AccessControl.sol\":2241:2245  0x00 */\n      0x00\n        /* \"contracts/KipuBank.sol\":17972:17990  DEFAULT_ADMIN_ROLE */\n      0x00\n      shl\n        /* \"contracts/KipuBank.sol\":17992:18003  ownerActual */\n      dup3\n        /* \"contracts/KipuBank.sol\":17960:17971  _revokeRole */\n      tag_231\n        /* \"contracts/KipuBank.sol\":17960:18004  _revokeRole(DEFAULT_ADMIN_ROLE, ownerActual) */\n      jump\t// in\n    tag_317:\n      pop\n        /* \"contracts/KipuBank.sol\":18014:18046  _revokeRole(PAUSER, ownerActual) */\n      tag_318\n        /* \"contracts/KipuBank.sol\":1028:1047  keccak256(\"PAUSER\") */\n      0x539440820030c4994db4e31b6b800deafd503688728f932addfe7a410515c14c\n        /* \"contracts/KipuBank.sol\":18034:18045  ownerActual */\n      dup3\n        /* \"contracts/KipuBank.sol\":18014:18025  _revokeRole */\n      tag_231\n        /* \"contracts/KipuBank.sol\":18014:18046  _revokeRole(PAUSER, ownerActual) */\n      jump\t// in\n    tag_318:\n      pop\n        /* \"contracts/KipuBank.sol\":18056:18094  _revokeRole(FEED_MANAGER, ownerActual) */\n      tag_319\n        /* \"contracts/KipuBank.sol\":1142:1167  keccak256(\"FEED_MANAGER\") */\n      0x9bbb3ee3bdfbe971682b08854a620ca4bf696f8e0c269e5c5b129a18e64d29df\n        /* \"contracts/KipuBank.sol\":18082:18093  ownerActual */\n      dup3\n        /* \"contracts/KipuBank.sol\":18056:18067  _revokeRole */\n      tag_231\n        /* \"contracts/KipuBank.sol\":18056:18094  _revokeRole(FEED_MANAGER, ownerActual) */\n      jump\t// in\n    tag_319:\n      pop\n        /* \"contracts/KipuBank.sol\":18105:18136  _transferOwnership(_nuevoOwner) */\n      tag_320\n        /* \"contracts/KipuBank.sol\":18124:18135  _nuevoOwner */\n      dup3\n        /* \"contracts/KipuBank.sol\":18105:18123  _transferOwnership */\n      tag_279\n        /* \"contracts/KipuBank.sol\":18105:18136  _transferOwnership(_nuevoOwner) */\n      jump\t// in\n    tag_320:\n        /* \"contracts/KipuBank.sol\":18147:18190  _grantRole(DEFAULT_ADMIN_ROLE, _nuevoOwner) */\n      tag_321\n        /* \"@openzeppelin/contracts/access/AccessControl.sol\":2241:2245  0x00 */\n      0x00\n        /* \"contracts/KipuBank.sol\":18158:18176  DEFAULT_ADMIN_ROLE */\n      0x00\n      shl\n        /* \"contracts/KipuBank.sol\":18178:18189  _nuevoOwner */\n      dup4\n        /* \"contracts/KipuBank.sol\":18147:18157  _grantRole */\n      tag_225\n        /* \"contracts/KipuBank.sol\":18147:18190  _grantRole(DEFAULT_ADMIN_ROLE, _nuevoOwner) */\n      jump\t// in\n    tag_321:\n      pop\n        /* \"contracts/KipuBank.sol\":18200:18237  _grantRole(FEED_MANAGER, _nuevoOwner) */\n      tag_322\n        /* \"contracts/KipuBank.sol\":1142:1167  keccak256(\"FEED_MANAGER\") */\n      0x9bbb3ee3bdfbe971682b08854a620ca4bf696f8e0c269e5c5b129a18e64d29df\n        /* \"contracts/KipuBank.sol\":18225:18236  _nuevoOwner */\n      dup4\n        /* \"contracts/KipuBank.sol\":18200:18210  _grantRole */\n      tag_225\n        /* \"contracts/KipuBank.sol\":18200:18237  _grantRole(FEED_MANAGER, _nuevoOwner) */\n      jump\t// in\n    tag_322:\n      pop\n        /* \"contracts/KipuBank.sol\":18247:18278  _grantRole(PAUSER, _nuevoOwner) */\n      tag_323\n        /* \"contracts/KipuBank.sol\":1028:1047  keccak256(\"PAUSER\") */\n      0x539440820030c4994db4e31b6b800deafd503688728f932addfe7a410515c14c\n        /* \"contracts/KipuBank.sol\":18266:18277  _nuevoOwner */\n      dup4\n        /* \"contracts/KipuBank.sol\":18247:18257  _grantRole */\n      tag_225\n        /* \"contracts/KipuBank.sol\":18247:18278  _grantRole(PAUSER, _nuevoOwner) */\n      jump\t// in\n    tag_323:\n      pop\n        /* \"contracts/KipuBank.sol\":18333:18344  _nuevoOwner */\n      dup2\n        /* \"contracts/KipuBank.sol\":18294:18345  KipuBank_OwnerTransferido(ownerActual, _nuevoOwner) */\n      0xffffffffffffffffffffffffffffffffffffffff\n      and\n        /* \"contracts/KipuBank.sol\":18320:18331  ownerActual */\n      dup2\n        /* \"contracts/KipuBank.sol\":18294:18345  KipuBank_OwnerTransferido(ownerActual, _nuevoOwner) */\n      0xffffffffffffffffffffffffffffffffffffffff\n      and\n      0x2ed8931cd5c0d36856a21c6245bf2e305f989a55c31be2b6cb7ec0a4da43c319\n      mload(0x40)\n      mload(0x40)\n      dup1\n      swap2\n      sub\n      swap1\n      log3\n        /* \"contracts/KipuBank.sol\":17901:18352  {... */\n      pop\n        /* \"contracts/KipuBank.sol\":17825:18352  function transferirOwner(address _nuevoOwner) external onlyOwner whenPaused {... */\n      pop\n      jump\t// out\n        /* \"@openzeppelin/contracts/access/Ownable.sol\":1638:1723  function owner() public view virtual returns (address) {... */\n    tag_131:\n        /* \"@openzeppelin/contracts/access/Ownable.sol\":1684:1691  address */\n      0x00\n        /* \"@openzeppelin/contracts/access/Ownable.sol\":1710:1716  _owner */\n      0x01\n      0x00\n      swap1\n      sload\n      swap1\n      0x0100\n      exp\n      swap1\n      div\n      0xffffffffffffffffffffffffffffffffffffffff\n      and\n        /* \"@openzeppelin/contracts/access/Ownable.sol\":1703:1716  return _owner */\n      swap1\n      pop\n        /* \"@openzeppelin/contracts/access/Ownable.sol\":1638:1723  function owner() public view virtual returns (address) {... */\n      swap1\n      jump\t// out\n        /* \"@openzeppelin/contracts/access/AccessControl.sol\":2830:2966  function hasRole(bytes32 role, address account) public view virtual returns (bool) {... */\n    tag_136:\n        /* \"@openzeppelin/contracts/access/AccessControl.sol\":2907:2911  bool */\n      0x00\n        /* \"@openzeppelin/contracts/access/AccessControl.sol\":2930:2936  _roles */\n      0x02\n        /* \"@openzeppelin/contracts/access/AccessControl.sol\":2930:2942  _roles[role] */\n      0x00\n        /* \"@openzeppelin/contracts/access/AccessControl.sol\":2937:2941  role */\n      dup5\n        /* \"@openzeppelin/contracts/access/AccessControl.sol\":2930:2942  _roles[role] */\n      dup2\n      mstore\n      0x20\n      add\n      swap1\n      dup2\n      mstore\n      0x20\n      add\n      0x00\n      keccak256\n        /* \"@openzeppelin/contracts/access/AccessControl.sol\":2930:2950  _roles[role].hasRole */\n      0x00\n      add\n        /* \"@openzeppelin/contracts/access/AccessControl.sol\":2930:2959  _roles[role].hasRole[account] */\n      0x00\n        /* \"@openzeppelin/contracts/access/AccessControl.sol\":2951:2958  account */\n      dup4\n        /* \"@openzeppelin/contracts/access/AccessControl.sol\":2930:2959  _roles[role].hasRole[account] */\n      0xffffffffffffffffffffffffffffffffffffffff\n      and\n      0xffffffffffffffffffffffffffffffffffffffff\n      and\n      dup2\n      mstore\n      0x20\n      add\n      swap1\n      dup2\n      mstore\n      0x20\n      add\n      0x00\n      keccak256\n      0x00\n      swap1\n      sload\n      swap1\n      0x0100\n      exp\n      swap1\n      div\n      0xff\n      and\n        /* \"@openzeppelin/contracts/access/AccessControl.sol\":2923:2959  return _roles[role].hasRole[account] */\n      swap1\n      pop\n        /* \"@openzeppelin/contracts/access/AccessControl.sol\":2830:2966  function hasRole(bytes32 role, address account) public view virtual returns (bool) {... */\n      swap3\n      swap2\n      pop\n      pop\n      jump\t// out\n        /* \"contracts/KipuBank.sol\":14399:14499  function retirarUSDC(uint _monto) external whenNotPaused {... */\n    tag_141:\n        /* \"@openzeppelin/contracts/utils/Pausable.sol\":1350:1369  _requireNotPaused() */\n      tag_327\n        /* \"@openzeppelin/contracts/utils/Pausable.sol\":1350:1367  _requireNotPaused */\n      tag_200\n        /* \"@openzeppelin/contracts/utils/Pausable.sol\":1350:1369  _requireNotPaused() */\n      jump\t// in\n    tag_327:\n        /* \"contracts/KipuBank.sol\":14466:14492  _retirarFondosUSDC(_monto) */\n      tag_329\n        /* \"contracts/KipuBank.sol\":14485:14491  _monto */\n      dup2\n        /* \"contracts/KipuBank.sol\":14466:14484  _retirarFondosUSDC */\n      tag_330\n        /* \"contracts/KipuBank.sol\":14466:14492  _retirarFondosUSDC(_monto) */\n      jump\t// in\n    tag_329:\n        /* \"contracts/KipuBank.sol\":14399:14499  function retirarUSDC(uint _monto) external whenNotPaused {... */\n      pop\n      jump\t// out\n        /* \"contracts/KipuBank.sol\":17506:17602  function verTotalContrato() external view returns (uint) {... */\n    tag_144:\n        /* \"contracts/KipuBank.sol\":17557:17561  uint */\n      0x00\n        /* \"contracts/KipuBank.sol\":17580:17595  s_totalContrato */\n      sload(0x04)\n        /* \"contracts/KipuBank.sol\":17573:17595  return s_totalContrato */\n      swap1\n      pop\n        /* \"contracts/KipuBank.sol\":17506:17602  function verTotalContrato() external view returns (uint) {... */\n      swap1\n      jump\t// out\n        /* \"contracts/KipuBank.sol\":16556:16690  function verSaldoUSDC() external view returns (uint saldo_) {... */\n    tag_148:\n        /* \"contracts/KipuBank.sol\":16603:16614  uint saldo_ */\n      0x00\n        /* \"contracts/KipuBank.sol\":16635:16654  s_cuentasMultiToken */\n      0x06\n        /* \"contracts/KipuBank.sol\":16635:16671  s_cuentasMultiToken[address(i_usdc)] */\n      0x00\n        /* \"contracts/KipuBank.sol\":16663:16669  i_usdc */\n      immutable(\"0x70ebf73cb6f1a1207279604d754513a029c2ff46f9198374b0ad04887dd2881e\")\n        /* \"contracts/KipuBank.sol\":16635:16671  s_cuentasMultiToken[address(i_usdc)] */\n      0xffffffffffffffffffffffffffffffffffffffff\n      and\n      0xffffffffffffffffffffffffffffffffffffffff\n      and\n      dup2\n      mstore\n      0x20\n      add\n      swap1\n      dup2\n      mstore\n      0x20\n      add\n      0x00\n      keccak256\n        /* \"contracts/KipuBank.sol\":16635:16683  s_cuentasMultiToken[address(i_usdc)][msg.sender] */\n      0x00\n        /* \"contracts/KipuBank.sol\":16672:16682  msg.sender */\n      caller\n        /* \"contracts/KipuBank.sol\":16635:16683  s_cuentasMultiToken[address(i_usdc)][msg.sender] */\n      0xffffffffffffffffffffffffffffffffffffffff\n      and\n      0xffffffffffffffffffffffffffffffffffffffff\n      and\n      dup2\n      mstore\n      0x20\n      add\n      swap1\n      dup2\n      mstore\n      0x20\n      add\n      0x00\n      keccak256\n      sload\n        /* \"contracts/KipuBank.sol\":16626:16683  saldo_ = s_cuentasMultiToken[address(i_usdc)][msg.sender] */\n      swap1\n      pop\n        /* \"contracts/KipuBank.sol\":16556:16690  function verSaldoUSDC() external view returns (uint saldo_) {... */\n      swap1\n      jump\t// out\n        /* \"@openzeppelin/contracts/access/AccessControl.sol\":2196:2245  bytes32 public constant DEFAULT_ADMIN_ROLE = 0x00 */\n    tag_152:\n        /* \"@openzeppelin/contracts/access/AccessControl.sol\":2241:2245  0x00 */\n      0x00\n        /* \"@openzeppelin/contracts/access/AccessControl.sol\":2196:2245  bytes32 public constant DEFAULT_ADMIN_ROLE = 0x00 */\n      0x00\n      shl\n      dup2\n      jump\t// out\n        /* \"contracts/KipuBank.sol\":17289:17378  function verTotalRetiros() external view returns (uint) {... */\n    tag_156:\n        /* \"contracts/KipuBank.sol\":17339:17343  uint */\n      0x00\n        /* \"contracts/KipuBank.sol\":17362:17371  s_retiros */\n      0x05\n      0x10\n      swap1\n      sload\n      swap1\n      0x0100\n      exp\n      swap1\n      div\n      0xffffffffffffffffffffffffffffffff\n      and\n        /* \"contracts/KipuBank.sol\":17355:17371  return s_retiros */\n      0xffffffffffffffffffffffffffffffff\n      and\n      swap1\n      pop\n        /* \"contracts/KipuBank.sol\":17289:17378  function verTotalRetiros() external view returns (uint) {... */\n      swap1\n      jump\t// out\n        /* \"contracts/KipuBank.sol\":1103:1167  bytes32 public constant FEED_MANAGER = keccak256(\"FEED_MANAGER\") */\n    tag_160:\n        /* \"contracts/KipuBank.sol\":1142:1167  keccak256(\"FEED_MANAGER\") */\n      0x9bbb3ee3bdfbe971682b08854a620ca4bf696f8e0c269e5c5b129a18e64d29df\n        /* \"contracts/KipuBank.sol\":1103:1167  bytes32 public constant FEED_MANAGER = keccak256(\"FEED_MANAGER\") */\n      dup2\n      jump\t// out\n        /* \"contracts/KipuBank.sol\":20136:20283  function darRol(address cuenta, bytes32 rol) external onlyOwner {... */\n    tag_166:\n        /* \"@openzeppelin/contracts/access/Ownable.sol\":1531:1544  _checkOwner() */\n      tag_335\n        /* \"@openzeppelin/contracts/access/Ownable.sol\":1531:1542  _checkOwner */\n      tag_276\n        /* \"@openzeppelin/contracts/access/Ownable.sol\":1531:1544  _checkOwner() */\n      jump\t// in\n    tag_335:\n        /* \"contracts/KipuBank.sol\":20210:20232  grantRole(rol, cuenta) */\n      tag_337\n        /* \"contracts/KipuBank.sol\":20220:20223  rol */\n      dup2\n        /* \"contracts/KipuBank.sol\":20225:20231  cuenta */\n      dup4\n        /* \"contracts/KipuBank.sol\":20210:20219  grantRole */\n      tag_78\n        /* \"contracts/KipuBank.sol\":20210:20232  grantRole(rol, cuenta) */\n      jump\t// in\n    tag_337:\n        /* \"contracts/KipuBank.sol\":20264:20270  cuenta */\n      dup2\n        /* \"contracts/KipuBank.sol\":20247:20276  KipuBank_RolDado(cuenta, rol) */\n      0xffffffffffffffffffffffffffffffffffffffff\n      and\n      0x56a39044e0e7ad5c8db0abdb4925f3d610d0f66ab2d22536712afd06e6aa6032\n        /* \"contracts/KipuBank.sol\":20272:20275  rol */\n      dup3\n        /* \"contracts/KipuBank.sol\":20247:20276  KipuBank_RolDado(cuenta, rol) */\n      mload(0x40)\n      tag_338\n      swap2\n      swap1\n      tag_73\n      jump\t// in\n    tag_338:\n      mload(0x40)\n      dup1\n      swap2\n      sub\n      swap1\n      log2\n        /* \"contracts/KipuBank.sol\":20136:20283  function darRol(address cuenta, bytes32 rol) external onlyOwner {... */\n      pop\n      pop\n      jump\t// out\n        /* \"@openzeppelin/contracts/access/AccessControl.sol\":4618:4756  function revokeRole(bytes32 role, address account) public virtual onlyRole(getRoleAdmin(role)) {... */\n    tag_170:\n        /* \"@openzeppelin/contracts/access/AccessControl.sol\":4693:4711  getRoleAdmin(role) */\n      tag_339\n        /* \"@openzeppelin/contracts/access/AccessControl.sol\":4706:4710  role */\n      dup3\n        /* \"@openzeppelin/contracts/access/AccessControl.sol\":4693:4705  getRoleAdmin */\n      tag_71\n        /* \"@openzeppelin/contracts/access/AccessControl.sol\":4693:4711  getRoleAdmin(role) */\n      jump\t// in\n    tag_339:\n        /* \"@openzeppelin/contracts/access/AccessControl.sol\":2473:2489  _checkRole(role) */\n      tag_341\n        /* \"@openzeppelin/contracts/access/AccessControl.sol\":2484:2488  role */\n      dup2\n        /* \"@openzeppelin/contracts/access/AccessControl.sol\":2473:2483  _checkRole */\n      tag_222\n        /* \"@openzeppelin/contracts/access/AccessControl.sol\":2473:2489  _checkRole(role) */\n      jump\t// in\n    tag_341:\n        /* \"@openzeppelin/contracts/access/AccessControl.sol\":4723:4749  _revokeRole(role, account) */\n      tag_343\n        /* \"@openzeppelin/contracts/access/AccessControl.sol\":4735:4739  role */\n      dup4\n        /* \"@openzeppelin/contracts/access/AccessControl.sol\":4741:4748  account */\n      dup4\n        /* \"@openzeppelin/contracts/access/AccessControl.sol\":4723:4734  _revokeRole */\n      tag_231\n        /* \"@openzeppelin/contracts/access/AccessControl.sol\":4723:4749  _revokeRole(role, account) */\n      jump\t// in\n    tag_343:\n      pop\n        /* \"@openzeppelin/contracts/access/AccessControl.sol\":4618:4756  function revokeRole(bytes32 role, address account) public virtual onlyRole(getRoleAdmin(role)) {... */\n      pop\n      pop\n      pop\n      jump\t// out\n        /* \"contracts/KipuBank.sol\":995:1047  bytes32 public constant PAUSER = keccak256(\"PAUSER\") */\n    tag_173:\n        /* \"contracts/KipuBank.sol\":1028:1047  keccak256(\"PAUSER\") */\n      0x539440820030c4994db4e31b6b800deafd503688728f932addfe7a410515c14c\n        /* \"contracts/KipuBank.sol\":995:1047  bytes32 public constant PAUSER = keccak256(\"PAUSER\") */\n      dup2\n      jump\t// out\n        /* \"contracts/KipuBank.sol\":20462:20618  function revocarRol(address cuenta, bytes32 rol) external onlyOwner {... */\n    tag_178:\n        /* \"@openzeppelin/contracts/access/Ownable.sol\":1531:1544  _checkOwner() */\n      tag_345\n        /* \"@openzeppelin/contracts/access/Ownable.sol\":1531:1542  _checkOwner */\n      tag_276\n        /* \"@openzeppelin/contracts/access/Ownable.sol\":1531:1544  _checkOwner() */\n      jump\t// in\n    tag_345:\n        /* \"contracts/KipuBank.sol\":20540:20563  revokeRole(rol, cuenta) */\n      tag_347\n        /* \"contracts/KipuBank.sol\":20551:20554  rol */\n      dup2\n        /* \"contracts/KipuBank.sol\":20556:20562  cuenta */\n      dup4\n        /* \"contracts/KipuBank.sol\":20540:20550  revokeRole */\n      tag_170\n        /* \"contracts/KipuBank.sol\":20540:20563  revokeRole(rol, cuenta) */\n      jump\t// in\n    tag_347:\n        /* \"contracts/KipuBank.sol\":20599:20605  cuenta */\n      dup2\n        /* \"contracts/KipuBank.sol\":20578:20611  KipuBank_RolRevocado(cuenta, rol) */\n      0xffffffffffffffffffffffffffffffffffffffff\n      and\n      0x2a235e73fbdf449db29391f00a41fd53e24c96816320a25a710415e2c05370f0\n        /* \"contracts/KipuBank.sol\":20607:20610  rol */\n      dup3\n        /* \"contracts/KipuBank.sol\":20578:20611  KipuBank_RolRevocado(cuenta, rol) */\n      mload(0x40)\n      tag_348\n      swap2\n      swap1\n      tag_73\n      jump\t// in\n    tag_348:\n      mload(0x40)\n      dup1\n      swap2\n      sub\n      swap1\n      log2\n        /* \"contracts/KipuBank.sol\":20462:20618  function revocarRol(address cuenta, bytes32 rol) external onlyOwner {... */\n      pop\n      pop\n      jump\t// out\n        /* \"@openzeppelin/contracts/access/Ownable.sol\":2543:2758  function transferOwnership(address newOwner) public virtual onlyOwner {... */\n    tag_182:\n        /* \"@openzeppelin/contracts/access/Ownable.sol\":1531:1544  _checkOwner() */\n      tag_350\n        /* \"@openzeppelin/contracts/access/Ownable.sol\":1531:1542  _checkOwner */\n      tag_276\n        /* \"@openzeppelin/contracts/access/Ownable.sol\":1531:1544  _checkOwner() */\n      jump\t// in\n    tag_350:\n        /* \"@openzeppelin/contracts/access/Ownable.sol\":2647:2648  0 */\n      0x00\n        /* \"@openzeppelin/contracts/access/Ownable.sol\":2627:2649  newOwner == address(0) */\n      0xffffffffffffffffffffffffffffffffffffffff\n      and\n        /* \"@openzeppelin/contracts/access/Ownable.sol\":2627:2635  newOwner */\n      dup2\n        /* \"@openzeppelin/contracts/access/Ownable.sol\":2627:2649  newOwner == address(0) */\n      0xffffffffffffffffffffffffffffffffffffffff\n      and\n      sub\n        /* \"@openzeppelin/contracts/access/Ownable.sol\":2623:2714  if (newOwner == address(0)) {... */\n      tag_352\n      jumpi\n        /* \"@openzeppelin/contracts/access/Ownable.sol\":2700:2701  0 */\n      0x00\n        /* \"@openzeppelin/contracts/access/Ownable.sol\":2672:2703  OwnableInvalidOwner(address(0)) */\n      mload(0x40)\n      0x1e4fbdf700000000000000000000000000000000000000000000000000000000\n      dup2\n      mstore\n      0x04\n      add\n      tag_353\n      swap2\n      swap1\n      tag_46\n      jump\t// in\n    tag_353:\n      mload(0x40)\n      dup1\n      swap2\n      sub\n      swap1\n      revert\n        /* \"@openzeppelin/contracts/access/Ownable.sol\":2623:2714  if (newOwner == address(0)) {... */\n    tag_352:\n        /* \"@openzeppelin/contracts/access/Ownable.sol\":2723:2751  _transferOwnership(newOwner) */\n      tag_354\n        /* \"@openzeppelin/contracts/access/Ownable.sol\":2742:2750  newOwner */\n      dup2\n        /* \"@openzeppelin/contracts/access/Ownable.sol\":2723:2741  _transferOwnership */\n      tag_279\n        /* \"@openzeppelin/contracts/access/Ownable.sol\":2723:2751  _transferOwnership(newOwner) */\n      jump\t// in\n    tag_354:\n        /* \"@openzeppelin/contracts/access/Ownable.sol\":2543:2758  function transferOwnership(address newOwner) public virtual onlyOwner {... */\n      pop\n      jump\t// out\n        /* \"contracts/KipuBank.sol\":17065:17158  function verTotalDepositos() external view returns (uint) {... */\n    tag_185:\n        /* \"contracts/KipuBank.sol\":17117:17121  uint */\n      0x00\n        /* \"contracts/KipuBank.sol\":17140:17151  s_depositos */\n      0x05\n      0x00\n      swap1\n      sload\n      swap1\n      0x0100\n      exp\n      swap1\n      div\n      0xffffffffffffffffffffffffffffffff\n      and\n        /* \"contracts/KipuBank.sol\":17133:17151  return s_depositos */\n      0xffffffffffffffffffffffffffffffff\n      and\n      swap1\n      pop\n        /* \"contracts/KipuBank.sol\":17065:17158  function verTotalDepositos() external view returns (uint) {... */\n      swap1\n      jump\t// out\n        /* \"contracts/KipuBank.sol\":21289:21428  function balanceOf(address titular, address token) external view returns (uint) {... */\n    tag_191:\n        /* \"contracts/KipuBank.sol\":21363:21367  uint */\n      0x00\n        /* \"contracts/KipuBank.sol\":21386:21405  s_cuentasMultiToken */\n      0x06\n        /* \"contracts/KipuBank.sol\":21386:21412  s_cuentasMultiToken[token] */\n      0x00\n        /* \"contracts/KipuBank.sol\":21406:21411  token */\n      dup4\n        /* \"contracts/KipuBank.sol\":21386:21412  s_cuentasMultiToken[token] */\n      0xffffffffffffffffffffffffffffffffffffffff\n      and\n      0xffffffffffffffffffffffffffffffffffffffff\n      and\n      dup2\n      mstore\n      0x20\n      add\n      swap1\n      dup2\n      mstore\n      0x20\n      add\n      0x00\n      keccak256\n        /* \"contracts/KipuBank.sol\":21386:21421  s_cuentasMultiToken[token][titular] */\n      0x00\n        /* \"contracts/KipuBank.sol\":21413:21420  titular */\n      dup5\n        /* \"contracts/KipuBank.sol\":21386:21421  s_cuentasMultiToken[token][titular] */\n      0xffffffffffffffffffffffffffffffffffffffff\n      and\n      0xffffffffffffffffffffffffffffffffffffffff\n      and\n      dup2\n      mstore\n      0x20\n      add\n      swap1\n      dup2\n      mstore\n      0x20\n      add\n      0x00\n      keccak256\n      sload\n        /* \"contracts/KipuBank.sol\":21379:21421  return s_cuentasMultiToken[token][titular] */\n      swap1\n      pop\n        /* \"contracts/KipuBank.sol\":21289:21428  function balanceOf(address titular, address token) external view returns (uint) {... */\n      swap3\n      swap2\n      pop\n      pop\n      jump\t// out\n        /* \"@openzeppelin/contracts/access/AccessControl.sol\":2541:2743  function supportsInterface(bytes4 interfaceId) public view virtual override returns (bool) {... */\n    tag_195:\n        /* \"@openzeppelin/contracts/access/AccessControl.sol\":2626:2630  bool */\n      0x00\n        /* \"@openzeppelin/contracts/access/AccessControl.sol\":2664:2696  type(IAccessControl).interfaceId */\n      0x7965db0b00000000000000000000000000000000000000000000000000000000\n        /* \"@openzeppelin/contracts/access/AccessControl.sol\":2649:2696  interfaceId == type(IAccessControl).interfaceId */\n      not(0xffffffffffffffffffffffffffffffffffffffffffffffffffffffff)\n      and\n        /* \"@openzeppelin/contracts/access/AccessControl.sol\":2649:2660  interfaceId */\n      dup3\n        /* \"@openzeppelin/contracts/access/AccessControl.sol\":2649:2696  interfaceId == type(IAccessControl).interfaceId */\n      not(0xffffffffffffffffffffffffffffffffffffffffffffffffffffffff)\n      and\n      eq\n        /* \"@openzeppelin/contracts/access/AccessControl.sol\":2649:2736  interfaceId == type(IAccessControl).interfaceId || super.supportsInterface(interfaceId) */\n      dup1\n      tag_358\n      jumpi\n      pop\n        /* \"@openzeppelin/contracts/access/AccessControl.sol\":2700:2736  super.supportsInterface(interfaceId) */\n      tag_359\n        /* \"@openzeppelin/contracts/access/AccessControl.sol\":2724:2735  interfaceId */\n      dup3\n        /* \"@openzeppelin/contracts/access/AccessControl.sol\":2700:2723  super.supportsInterface */\n      tag_360\n        /* \"@openzeppelin/contracts/access/AccessControl.sol\":2700:2736  super.supportsInterface(interfaceId) */\n      jump\t// in\n    tag_359:\n        /* \"@openzeppelin/contracts/access/AccessControl.sol\":2649:2736  interfaceId == type(IAccessControl).interfaceId || super.supportsInterface(interfaceId) */\n    tag_358:\n        /* \"@openzeppelin/contracts/access/AccessControl.sol\":2642:2736  return interfaceId == type(IAccessControl).interfaceId || super.supportsInterface(interfaceId) */\n      swap1\n      pop\n        /* \"@openzeppelin/contracts/access/AccessControl.sol\":2541:2743  function supportsInterface(bytes4 interfaceId) public view virtual override returns (bool) {... */\n      swap2\n      swap1\n      pop\n      jump\t// out\n        /* \"@openzeppelin/contracts/utils/Pausable.sol\":1878:2006  function _requireNotPaused() internal view virtual {... */\n    tag_200:\n        /* \"@openzeppelin/contracts/utils/Pausable.sol\":1943:1951  paused() */\n      tag_362\n        /* \"@openzeppelin/contracts/utils/Pausable.sol\":1943:1949  paused */\n      tag_93\n        /* \"@openzeppelin/contracts/utils/Pausable.sol\":1943:1951  paused() */\n      jump\t// in\n    tag_362:\n        /* \"@openzeppelin/contracts/utils/Pausable.sol\":1939:2000  if (paused()) {... */\n      iszero\n      tag_363\n      jumpi\n        /* \"@openzeppelin/contracts/utils/Pausable.sol\":1974:1989  EnforcedPause() */\n      mload(0x40)\n      0xd93c066500000000000000000000000000000000000000000000000000000000\n      dup2\n      mstore\n      0x04\n      add\n      mload(0x40)\n      dup1\n      swap2\n      sub\n      swap1\n      revert\n        /* \"@openzeppelin/contracts/utils/Pausable.sol\":1939:2000  if (paused()) {... */\n    tag_363:\n        /* \"@openzeppelin/contracts/utils/Pausable.sol\":1878:2006  function _requireNotPaused() internal view virtual {... */\n      jump\t// out\n        /* \"contracts/KipuBank.sol\":12314:12484  function convertirEthEnUSD(uint _monto) internal view returns (uint montoConvertido_) {... */\n    tag_203:\n        /* \"contracts/KipuBank.sol\":12377:12398  uint montoConvertido_ */\n      0x00\n        /* \"contracts/KipuBank.sol\":2025:2037  1 * 10 ** 20 */\n      0x056bc75e2d63100000\n        /* \"contracts/KipuBank.sol\":12443:12459  chainLinkFeeds() */\n      tag_365\n        /* \"contracts/KipuBank.sol\":12443:12457  chainLinkFeeds */\n      tag_366\n        /* \"contracts/KipuBank.sol\":12443:12459  chainLinkFeeds() */\n      jump\t// in\n    tag_365:\n        /* \"contracts/KipuBank.sol\":12434:12440  _monto */\n      dup4\n        /* \"contracts/KipuBank.sol\":12434:12459  _monto * chainLinkFeeds() */\n      tag_367\n      swap2\n      swap1\n      tag_368\n      jump\t// in\n    tag_367:\n        /* \"contracts/KipuBank.sol\":12433:12477  (_monto * chainLinkFeeds()) / DECIMAL_FACTOR */\n      tag_369\n      swap2\n      swap1\n      tag_370\n      jump\t// in\n    tag_369:\n        /* \"contracts/KipuBank.sol\":12414:12477  montoConvertido_ = (_monto * chainLinkFeeds()) / DECIMAL_FACTOR */\n      swap1\n      pop\n        /* \"contracts/KipuBank.sol\":12314:12484  function convertirEthEnUSD(uint _monto) internal view returns (uint montoConvertido_) {... */\n      swap2\n      swap1\n      pop\n      jump\t// out\n        /* \"contracts/KipuBank.sol\":14636:14943  function _depositoETH(address titular, uint montoUSD, uint montoETH) private verificarDepositoETH(montoUSD, montoETH) {... */\n    tag_205:\n        /* \"contracts/KipuBank.sol\":14734:14742  montoUSD */\n      dup2\n        /* \"contracts/KipuBank.sol\":14744:14752  montoETH */\n      dup2\n        /* \"contracts/KipuBank.sol\":2494:2500  1 gwei */\n      0x3b9aca00\n        /* \"contracts/KipuBank.sol\":9791:9800  _montoETH */\n      dup2\n        /* \"contracts/KipuBank.sol\":9791:9815  _montoETH < MIN_DEPOSITO */\n      lt\n        /* \"contracts/KipuBank.sol\":9788:9866  if(_montoETH < MIN_DEPOSITO) revert KipuBank_InferiorDepositoMinimo(_montoETH) */\n      iszero\n      tag_372\n      jumpi\n        /* \"contracts/KipuBank.sol\":9856:9865  _montoETH */\n      dup1\n        /* \"contracts/KipuBank.sol\":9824:9866  KipuBank_InferiorDepositoMinimo(_montoETH) */\n      mload(0x40)\n      0x3254757800000000000000000000000000000000000000000000000000000000\n      dup2\n      mstore\n      0x04\n      add\n      tag_373\n      swap2\n      swap1\n      tag_90\n      jump\t// in\n    tag_373:\n      mload(0x40)\n      dup1\n      swap2\n      sub\n      swap1\n      revert\n        /* \"contracts/KipuBank.sol\":9788:9866  if(_montoETH < MIN_DEPOSITO) revert KipuBank_InferiorDepositoMinimo(_montoETH) */\n    tag_372:\n        /* \"contracts/KipuBank.sol\":9892:9893  0 */\n      0x00\n        /* \"contracts/KipuBank.sol\":9879:9888  _montoUSD */\n      dup3\n        /* \"contracts/KipuBank.sol\":9879:9893  _montoUSD == 0 */\n      sub\n        /* \"contracts/KipuBank.sol\":9876:9932  if(_montoUSD == 0) revert KipuBank_MontoCero(msg.sender) */\n      tag_374\n      jumpi\n        /* \"contracts/KipuBank.sol\":9921:9931  msg.sender */\n      caller\n        /* \"contracts/KipuBank.sol\":9902:9932  KipuBank_MontoCero(msg.sender) */\n      mload(0x40)\n      0xb2f0923100000000000000000000000000000000000000000000000000000000\n      dup2\n      mstore\n      0x04\n      add\n      tag_375\n      swap2\n      swap1\n      tag_46\n      jump\t// in\n    tag_375:\n      mload(0x40)\n      dup1\n      swap2\n      sub\n      swap1\n      revert\n        /* \"contracts/KipuBank.sol\":9876:9932  if(_montoUSD == 0) revert KipuBank_MontoCero(msg.sender) */\n    tag_374:\n        /* \"contracts/KipuBank.sol\":9975:9984  i_bankCap */\n      immutable(\"0x56af87718ac6246bac727726c33ea64d0935502347b4fd185bbadeb5f3fb92bd\")\n        /* \"contracts/KipuBank.sol\":9957:9972  s_totalContrato */\n      sload(0x04)\n        /* \"contracts/KipuBank.sol\":9945:9954  _montoUSD */\n      dup4\n        /* \"contracts/KipuBank.sol\":9945:9972  _montoUSD + s_totalContrato */\n      tag_376\n      swap2\n      swap1\n      tag_249\n      jump\t// in\n    tag_376:\n        /* \"contracts/KipuBank.sol\":9945:9984  _montoUSD + s_totalContrato > i_bankCap */\n      gt\n        /* \"contracts/KipuBank.sol\":9942:10027  if(_montoUSD + s_totalContrato > i_bankCap) revert KipuBank_LimiteExcedido(_montoUSD) */\n      iszero\n      tag_377\n      jumpi\n        /* \"contracts/KipuBank.sol\":10017:10026  _montoUSD */\n      dup2\n        /* \"contracts/KipuBank.sol\":9993:10027  KipuBank_LimiteExcedido(_montoUSD) */\n      mload(0x40)\n      0x2900b02c00000000000000000000000000000000000000000000000000000000\n      dup2\n      mstore\n      0x04\n      add\n      tag_378\n      swap2\n      swap1\n      tag_90\n      jump\t// in\n    tag_378:\n      mload(0x40)\n      dup1\n      swap2\n      sub\n      swap1\n      revert\n        /* \"contracts/KipuBank.sol\":9942:10027  if(_montoUSD + s_totalContrato > i_bankCap) revert KipuBank_LimiteExcedido(_montoUSD) */\n    tag_377:\n        /* \"contracts/KipuBank.sol\":14808:14816  montoETH */\n      dup3\n        /* \"contracts/KipuBank.sol\":14764:14783  s_cuentasMultiToken */\n      0x06\n        /* \"contracts/KipuBank.sol\":14764:14795  s_cuentasMultiToken[address(0)] */\n      0x00\n        /* \"contracts/KipuBank.sol\":14792:14793  0 */\n      0x00\n        /* \"contracts/KipuBank.sol\":14764:14795  s_cuentasMultiToken[address(0)] */\n      0xffffffffffffffffffffffffffffffffffffffff\n      and\n      0xffffffffffffffffffffffffffffffffffffffff\n      and\n      dup2\n      mstore\n      0x20\n      add\n      swap1\n      dup2\n      mstore\n      0x20\n      add\n      0x00\n      keccak256\n        /* \"contracts/KipuBank.sol\":14764:14804  s_cuentasMultiToken[address(0)][titular] */\n      0x00\n        /* \"contracts/KipuBank.sol\":14796:14803  titular */\n      dup8\n        /* \"contracts/KipuBank.sol\":14764:14804  s_cuentasMultiToken[address(0)][titular] */\n      0xffffffffffffffffffffffffffffffffffffffff\n      and\n      0xffffffffffffffffffffffffffffffffffffffff\n      and\n      dup2\n      mstore\n      0x20\n      add\n      swap1\n      dup2\n      mstore\n      0x20\n      add\n      0x00\n      keccak256\n      0x00\n        /* \"contracts/KipuBank.sol\":14764:14816  s_cuentasMultiToken[address(0)][titular] += montoETH */\n      dup3\n      dup3\n      sload\n      tag_380\n      swap2\n      swap1\n      tag_249\n      jump\t// in\n    tag_380:\n      swap3\n      pop\n      pop\n      dup2\n      swap1\n      sstore\n      pop\n        /* \"contracts/KipuBank.sol\":14826:14837  s_depositos */\n      0x05\n      0x00\n        /* \"contracts/KipuBank.sol\":14826:14839  s_depositos++ */\n      dup2\n      dup2\n      swap1\n      sload\n      swap1\n      0x0100\n      exp\n      swap1\n      div\n      0xffffffffffffffffffffffffffffffff\n      and\n      dup1\n      swap3\n      swap2\n      swap1\n      tag_381\n      swap1\n      tag_269\n      jump\t// in\n    tag_381:\n      swap2\n      swap1\n      0x0100\n      exp\n      dup2\n      sload\n      dup2\n      0xffffffffffffffffffffffffffffffff\n      mul\n      not\n      and\n      swap1\n      dup4\n      0xffffffffffffffffffffffffffffffff\n      and\n      mul\n      or\n      swap1\n      sstore\n      pop\n      pop\n        /* \"contracts/KipuBank.sol\":14868:14876  montoUSD */\n      dup4\n        /* \"contracts/KipuBank.sol\":14849:14864  s_totalContrato */\n      0x04\n      0x00\n        /* \"contracts/KipuBank.sol\":14849:14876  s_totalContrato += montoUSD */\n      dup3\n      dup3\n      sload\n      tag_382\n      swap2\n      swap1\n      tag_249\n      jump\t// in\n    tag_382:\n      swap3\n      pop\n      pop\n      dup2\n      swap1\n      sstore\n      pop\n        /* \"contracts/KipuBank.sol\":14918:14925  titular */\n      dup5\n        /* \"contracts/KipuBank.sol\":14891:14936  KipuBank_DepositoRealizado(titular, montoUSD) */\n      0xffffffffffffffffffffffffffffffffffffffff\n      and\n      0x9d15693852bf60dc27bd5aa831d0351359b7d01d428ae1baae11f15cbcfebafd\n        /* \"contracts/KipuBank.sol\":14927:14935  montoUSD */\n      dup6\n        /* \"contracts/KipuBank.sol\":14891:14936  KipuBank_DepositoRealizado(titular, montoUSD) */\n      mload(0x40)\n      tag_383\n      swap2\n      swap1\n      tag_90\n      jump\t// in\n    tag_383:\n      mload(0x40)\n      dup1\n      swap2\n      sub\n      swap1\n      log2\n        /* \"contracts/KipuBank.sol\":14636:14943  function _depositoETH(address titular, uint montoUSD, uint montoETH) private verificarDepositoETH(montoUSD, montoETH) {... */\n      pop\n      pop\n      pop\n      pop\n      pop\n      jump\t// out\n        /* \"@openzeppelin/contracts/utils/Pausable.sol\":2339:2454  function _pause() internal virtual whenNotPaused {... */\n    tag_216:\n        /* \"@openzeppelin/contracts/utils/Pausable.sol\":1350:1369  _requireNotPaused() */\n      tag_385\n        /* \"@openzeppelin/contracts/utils/Pausable.sol\":1350:1367  _requireNotPaused */\n      tag_200\n        /* \"@openzeppelin/contracts/utils/Pausable.sol\":1350:1369  _requireNotPaused() */\n      jump\t// in\n    tag_385:\n        /* \"@openzeppelin/contracts/utils/Pausable.sol\":2408:2412  true */\n      0x01\n        /* \"@openzeppelin/contracts/utils/Pausable.sol\":2398:2405  _paused */\n      dup1\n      0x14\n        /* \"@openzeppelin/contracts/utils/Pausable.sol\":2398:2412  _paused = true */\n      0x0100\n      exp\n      dup2\n      sload\n      dup2\n      0xff\n      mul\n      not\n      and\n      swap1\n      dup4\n      iszero\n      iszero\n      mul\n      or\n      swap1\n      sstore\n      pop\n        /* \"@openzeppelin/contracts/utils/Pausable.sol\":2427:2447  Paused(_msgSender()) */\n      0x62e78cea01bee320cd4e420270b5ea74000d11b0c9f74754ebdbfc544b05a258\n        /* \"@openzeppelin/contracts/utils/Pausable.sol\":2434:2446  _msgSender() */\n      tag_387\n        /* \"@openzeppelin/contracts/utils/Pausable.sol\":2434:2444  _msgSender */\n      tag_228\n        /* \"@openzeppelin/contracts/utils/Pausable.sol\":2434:2446  _msgSender() */\n      jump\t// in\n    tag_387:\n        /* \"@openzeppelin/contracts/utils/Pausable.sol\":2427:2447  Paused(_msgSender()) */\n      mload(0x40)\n      tag_388\n      swap2\n      swap1\n      tag_46\n      jump\t// in\n    tag_388:\n      mload(0x40)\n      dup1\n      swap2\n      sub\n      swap1\n      log1\n        /* \"@openzeppelin/contracts/utils/Pausable.sol\":2339:2454  function _pause() internal virtual whenNotPaused {... */\n      jump\t// out\n        /* \"@openzeppelin/contracts/access/AccessControl.sol\":3175:3278  function _checkRole(bytes32 role) internal view virtual {... */\n    tag_222:\n        /* \"@openzeppelin/contracts/access/AccessControl.sol\":3241:3271  _checkRole(role, _msgSender()) */\n      tag_390\n        /* \"@openzeppelin/contracts/access/AccessControl.sol\":3252:3256  role */\n      dup2\n        /* \"@openzeppelin/contracts/access/AccessControl.sol\":3258:3270  _msgSender() */\n      tag_391\n        /* \"@openzeppelin/contracts/access/AccessControl.sol\":3258:3268  _msgSender */\n      tag_228\n        /* \"@openzeppelin/contracts/access/AccessControl.sol\":3258:3270  _msgSender() */\n      jump\t// in\n    tag_391:\n        /* \"@openzeppelin/contracts/access/AccessControl.sol\":3241:3251  _checkRole */\n      tag_392\n        /* \"@openzeppelin/contracts/access/AccessControl.sol\":3241:3271  _checkRole(role, _msgSender()) */\n      jump\t// in\n    tag_390:\n        /* \"@openzeppelin/contracts/access/AccessControl.sol\":3175:3278  function _checkRole(bytes32 role) internal view virtual {... */\n      pop\n      jump\t// out\n        /* \"@openzeppelin/contracts/access/AccessControl.sol\":6155:6471  function _grantRole(bytes32 role, address account) internal virtual returns (bool) {... */\n    tag_225:\n        /* \"@openzeppelin/contracts/access/AccessControl.sol\":6232:6236  bool */\n      0x00\n        /* \"@openzeppelin/contracts/access/AccessControl.sol\":6253:6275  hasRole(role, account) */\n      tag_394\n        /* \"@openzeppelin/contracts/access/AccessControl.sol\":6261:6265  role */\n      dup4\n        /* \"@openzeppelin/contracts/access/AccessControl.sol\":6267:6274  account */\n      dup4\n        /* \"@openzeppelin/contracts/access/AccessControl.sol\":6253:6260  hasRole */\n      tag_136\n        /* \"@openzeppelin/contracts/access/AccessControl.sol\":6253:6275  hasRole(role, account) */\n      jump\t// in\n    tag_394:\n        /* \"@openzeppelin/contracts/access/AccessControl.sol\":6248:6465  if (!hasRole(role, account)) {... */\n      tag_395\n      jumpi\n        /* \"@openzeppelin/contracts/access/AccessControl.sol\":6323:6327  true */\n      0x01\n        /* \"@openzeppelin/contracts/access/AccessControl.sol\":6291:6297  _roles */\n      0x02\n        /* \"@openzeppelin/contracts/access/AccessControl.sol\":6291:6303  _roles[role] */\n      0x00\n        /* \"@openzeppelin/contracts/access/AccessControl.sol\":6298:6302  role */\n      dup6\n        /* \"@openzeppelin/contracts/access/AccessControl.sol\":6291:6303  _roles[role] */\n      dup2\n      mstore\n      0x20\n      add\n      swap1\n      dup2\n      mstore\n      0x20\n      add\n      0x00\n      keccak256\n        /* \"@openzeppelin/contracts/access/AccessControl.sol\":6291:6311  _roles[role].hasRole */\n      0x00\n      add\n        /* \"@openzeppelin/contracts/access/AccessControl.sol\":6291:6320  _roles[role].hasRole[account] */\n      0x00\n        /* \"@openzeppelin/contracts/access/AccessControl.sol\":6312:6319  account */\n      dup5\n        /* \"@openzeppelin/contracts/access/AccessControl.sol\":6291:6320  _roles[role].hasRole[account] */\n      0xffffffffffffffffffffffffffffffffffffffff\n      and\n      0xffffffffffffffffffffffffffffffffffffffff\n      and\n      dup2\n      mstore\n      0x20\n      add\n      swap1\n      dup2\n      mstore\n      0x20\n      add\n      0x00\n      keccak256\n      0x00\n        /* \"@openzeppelin/contracts/access/AccessControl.sol\":6291:6327  _roles[role].hasRole[account] = true */\n      0x0100\n      exp\n      dup2\n      sload\n      dup2\n      0xff\n      mul\n      not\n      and\n      swap1\n      dup4\n      iszero\n      iszero\n      mul\n      or\n      swap1\n      sstore\n      pop\n        /* \"@openzeppelin/contracts/access/AccessControl.sol\":6373:6385  _msgSender() */\n      tag_396\n        /* \"@openzeppelin/contracts/access/AccessControl.sol\":6373:6383  _msgSender */\n      tag_228\n        /* \"@openzeppelin/contracts/access/AccessControl.sol\":6373:6385  _msgSender() */\n      jump\t// in\n    tag_396:\n        /* \"@openzeppelin/contracts/access/AccessControl.sol\":6346:6386  RoleGranted(role, account, _msgSender()) */\n      0xffffffffffffffffffffffffffffffffffffffff\n      and\n        /* \"@openzeppelin/contracts/access/AccessControl.sol\":6364:6371  account */\n      dup3\n        /* \"@openzeppelin/contracts/access/AccessControl.sol\":6346:6386  RoleGranted(role, account, _msgSender()) */\n      0xffffffffffffffffffffffffffffffffffffffff\n      and\n        /* \"@openzeppelin/contracts/access/AccessControl.sol\":6358:6362  role */\n      dup5\n        /* \"@openzeppelin/contracts/access/AccessControl.sol\":6346:6386  RoleGranted(role, account, _msgSender()) */\n      0x2f8788117e7eff1d82e926ec794901d17c78024a50270940304540a733656f0d\n      mload(0x40)\n      mload(0x40)\n      dup1\n      swap2\n      sub\n      swap1\n      log4\n        /* \"@openzeppelin/contracts/access/AccessControl.sol\":6407:6411  true */\n      0x01\n        /* \"@openzeppelin/contracts/access/AccessControl.sol\":6400:6411  return true */\n      swap1\n      pop\n      jump(tag_393)\n        /* \"@openzeppelin/contracts/access/AccessControl.sol\":6248:6465  if (!hasRole(role, account)) {... */\n    tag_395:\n        /* \"@openzeppelin/contracts/access/AccessControl.sol\":6449:6454  false */\n      0x00\n        /* \"@openzeppelin/contracts/access/AccessControl.sol\":6442:6454  return false */\n      swap1\n      pop\n        /* \"@openzeppelin/contracts/access/AccessControl.sol\":6155:6471  function _grantRole(bytes32 role, address account) internal virtual returns (bool) {... */\n    tag_393:\n      swap3\n      swap2\n      pop\n      pop\n      jump\t// out\n        /* \"@openzeppelin/contracts/utils/Context.sol\":656:752  function _msgSender() internal view virtual returns (address) {... */\n    tag_228:\n        /* \"@openzeppelin/contracts/utils/Context.sol\":709:716  address */\n      0x00\n        /* \"@openzeppelin/contracts/utils/Context.sol\":735:745  msg.sender */\n      caller\n        /* \"@openzeppelin/contracts/utils/Context.sol\":728:745  return msg.sender */\n      swap1\n      pop\n        /* \"@openzeppelin/contracts/utils/Context.sol\":656:752  function _msgSender() internal view virtual returns (address) {... */\n      swap1\n      jump\t// out\n        /* \"@openzeppelin/contracts/access/AccessControl.sol\":6708:7025  function _revokeRole(bytes32 role, address account) internal virtual returns (bool) {... */\n    tag_231:\n        /* \"@openzeppelin/contracts/access/AccessControl.sol\":6786:6790  bool */\n      0x00\n        /* \"@openzeppelin/contracts/access/AccessControl.sol\":6806:6828  hasRole(role, account) */\n      tag_400\n        /* \"@openzeppelin/contracts/access/AccessControl.sol\":6814:6818  role */\n      dup4\n        /* \"@openzeppelin/contracts/access/AccessControl.sol\":6820:6827  account */\n      dup4\n        /* \"@openzeppelin/contracts/access/AccessControl.sol\":6806:6813  hasRole */\n      tag_136\n        /* \"@openzeppelin/contracts/access/AccessControl.sol\":6806:6828  hasRole(role, account) */\n      jump\t// in\n    tag_400:\n        /* \"@openzeppelin/contracts/access/AccessControl.sol\":6802:7019  if (hasRole(role, account)) {... */\n      iszero\n      tag_401\n      jumpi\n        /* \"@openzeppelin/contracts/access/AccessControl.sol\":6876:6881  false */\n      0x00\n        /* \"@openzeppelin/contracts/access/AccessControl.sol\":6844:6850  _roles */\n      0x02\n        /* \"@openzeppelin/contracts/access/AccessControl.sol\":6844:6856  _roles[role] */\n      0x00\n        /* \"@openzeppelin/contracts/access/AccessControl.sol\":6851:6855  role */\n      dup6\n        /* \"@openzeppelin/contracts/access/AccessControl.sol\":6844:6856  _roles[role] */\n      dup2\n      mstore\n      0x20\n      add\n      swap1\n      dup2\n      mstore\n      0x20\n      add\n      0x00\n      keccak256\n        /* \"@openzeppelin/contracts/access/AccessControl.sol\":6844:6864  _roles[role].hasRole */\n      0x00\n      add\n        /* \"@openzeppelin/contracts/access/AccessControl.sol\":6844:6873  _roles[role].hasRole[account] */\n      0x00\n        /* \"@openzeppelin/contracts/access/AccessControl.sol\":6865:6872  account */\n      dup5\n        /* \"@openzeppelin/contracts/access/AccessControl.sol\":6844:6873  _roles[role].hasRole[account] */\n      0xffffffffffffffffffffffffffffffffffffffff\n      and\n      0xffffffffffffffffffffffffffffffffffffffff\n      and\n      dup2\n      mstore\n      0x20\n      add\n      swap1\n      dup2\n      mstore\n      0x20\n      add\n      0x00\n      keccak256\n      0x00\n        /* \"@openzeppelin/contracts/access/AccessControl.sol\":6844:6881  _roles[role].hasRole[account] = false */\n      0x0100\n      exp\n      dup2\n      sload\n      dup2\n      0xff\n      mul\n      not\n      and\n      swap1\n      dup4\n      iszero\n      iszero\n      mul\n      or\n      swap1\n      sstore\n      pop\n        /* \"@openzeppelin/contracts/access/AccessControl.sol\":6927:6939  _msgSender() */\n      tag_402\n        /* \"@openzeppelin/contracts/access/AccessControl.sol\":6927:6937  _msgSender */\n      tag_228\n        /* \"@openzeppelin/contracts/access/AccessControl.sol\":6927:6939  _msgSender() */\n      jump\t// in\n    tag_402:\n        /* \"@openzeppelin/contracts/access/AccessControl.sol\":6900:6940  RoleRevoked(role, account, _msgSender()) */\n      0xffffffffffffffffffffffffffffffffffffffff\n      and\n        /* \"@openzeppelin/contracts/access/AccessControl.sol\":6918:6925  account */\n      dup3\n        /* \"@openzeppelin/contracts/access/AccessControl.sol\":6900:6940  RoleRevoked(role, account, _msgSender()) */\n      0xffffffffffffffffffffffffffffffffffffffff\n      and\n        /* \"@openzeppelin/contracts/access/AccessControl.sol\":6912:6916  role */\n      dup5\n        /* \"@openzeppelin/contracts/access/AccessControl.sol\":6900:6940  RoleRevoked(role, account, _msgSender()) */\n      0xf6391f5c32d9c69d2a47ea670b442974b53935d1edc7fd64eb21e047a839171b\n      mload(0x40)\n      mload(0x40)\n      dup1\n      swap2\n      sub\n      swap1\n      log4\n        /* \"@openzeppelin/contracts/access/AccessControl.sol\":6961:6965  true */\n      0x01\n        /* \"@openzeppelin/contracts/access/AccessControl.sol\":6954:6965  return true */\n      swap1\n      pop\n      jump(tag_399)\n        /* \"@openzeppelin/contracts/access/AccessControl.sol\":6802:7019  if (hasRole(role, account)) {... */\n    tag_401:\n        /* \"@openzeppelin/contracts/access/AccessControl.sol\":7003:7008  false */\n      0x00\n        /* \"@openzeppelin/contracts/access/AccessControl.sol\":6996:7008  return false */\n      swap1\n      pop\n        /* \"@openzeppelin/contracts/access/AccessControl.sol\":6708:7025  function _revokeRole(bytes32 role, address account) internal virtual returns (bool) {... */\n    tag_399:\n      swap3\n      swap2\n      pop\n      pop\n      jump\t// out\n        /* \"@openzeppelin/contracts/utils/Pausable.sol\":2078:2204  function _requirePaused() internal view virtual {... */\n    tag_240:\n        /* \"@openzeppelin/contracts/utils/Pausable.sol\":2141:2149  paused() */\n      tag_405\n        /* \"@openzeppelin/contracts/utils/Pausable.sol\":2141:2147  paused */\n      tag_93\n        /* \"@openzeppelin/contracts/utils/Pausable.sol\":2141:2149  paused() */\n      jump\t// in\n    tag_405:\n        /* \"@openzeppelin/contracts/utils/Pausable.sol\":2136:2198  if (!paused()) {... */\n      tag_406\n      jumpi\n        /* \"@openzeppelin/contracts/utils/Pausable.sol\":2172:2187  ExpectedPause() */\n      mload(0x40)\n      0x8dfc202b00000000000000000000000000000000000000000000000000000000\n      dup2\n      mstore\n      0x04\n      add\n      mload(0x40)\n      dup1\n      swap2\n      sub\n      swap1\n      revert\n        /* \"@openzeppelin/contracts/utils/Pausable.sol\":2136:2198  if (!paused()) {... */\n    tag_406:\n        /* \"@openzeppelin/contracts/utils/Pausable.sol\":2078:2204  function _requirePaused() internal view virtual {... */\n      jump\t// out\n        /* \"@openzeppelin/contracts/utils/Pausable.sol\":2586:2703  function _unpause() internal virtual whenPaused {... */\n    tag_243:\n        /* \"@openzeppelin/contracts/utils/Pausable.sol\":1597:1613  _requirePaused() */\n      tag_408\n        /* \"@openzeppelin/contracts/utils/Pausable.sol\":1597:1611  _requirePaused */\n      tag_240\n        /* \"@openzeppelin/contracts/utils/Pausable.sol\":1597:1613  _requirePaused() */\n      jump\t// in\n    tag_408:\n        /* \"@openzeppelin/contracts/utils/Pausable.sol\":2654:2659  false */\n      0x00\n        /* \"@openzeppelin/contracts/utils/Pausable.sol\":2644:2651  _paused */\n      0x01\n      0x14\n        /* \"@openzeppelin/contracts/utils/Pausable.sol\":2644:2659  _paused = false */\n      0x0100\n      exp\n      dup2\n      sload\n      dup2\n      0xff\n      mul\n      not\n      and\n      swap1\n      dup4\n      iszero\n      iszero\n      mul\n      or\n      swap1\n      sstore\n      pop\n        /* \"@openzeppelin/contracts/utils/Pausable.sol\":2674:2696  Unpaused(_msgSender()) */\n      0x5db9ee0a495bf2e6ff9c91a7834c1ba4fdd244a5e8aa4e537bd38aeae4b073aa\n        /* \"@openzeppelin/contracts/utils/Pausable.sol\":2683:2695  _msgSender() */\n      tag_410\n        /* \"@openzeppelin/contracts/utils/Pausable.sol\":2683:2693  _msgSender */\n      tag_228\n        /* \"@openzeppelin/contracts/utils/Pausable.sol\":2683:2695  _msgSender() */\n      jump\t// in\n    tag_410:\n        /* \"@openzeppelin/contracts/utils/Pausable.sol\":2674:2696  Unpaused(_msgSender()) */\n      mload(0x40)\n      tag_411\n      swap2\n      swap1\n      tag_46\n      jump\t// in\n    tag_411:\n      mload(0x40)\n      dup1\n      swap2\n      sub\n      swap1\n      log1\n        /* \"@openzeppelin/contracts/utils/Pausable.sol\":2586:2703  function _unpause() internal virtual whenPaused {... */\n      jump\t// out\n        /* \"@openzeppelin/contracts/token/ERC20/utils/SafeERC20.sol\":1618:1806  function safeTransferFrom(IERC20 token, address from, address to, uint256 value) internal {... */\n    tag_273:\n        /* \"@openzeppelin/contracts/token/ERC20/utils/SafeERC20.sol\":1718:1799  _callOptionalReturn(token, abi.encodeCall(token.transferFrom, (from, to, value))) */\n      tag_413\n        /* \"@openzeppelin/contracts/token/ERC20/utils/SafeERC20.sol\":1738:1743  token */\n      dup5\n        /* \"@openzeppelin/contracts/token/ERC20/utils/SafeERC20.sol\":1760:1765  token */\n      dup6\n        /* \"@openzeppelin/contracts/token/ERC20/utils/SafeERC20.sol\":1760:1778  token.transferFrom */\n      0xffffffffffffffffffffffffffffffffffffffff\n      and\n      0x23b872dd\n        /* \"@openzeppelin/contracts/token/ERC20/utils/SafeERC20.sol\":1781:1785  from */\n      dup7\n        /* \"@openzeppelin/contracts/token/ERC20/utils/SafeERC20.sol\":1787:1789  to */\n      dup7\n        /* \"@openzeppelin/contracts/token/ERC20/utils/SafeERC20.sol\":1791:1796  value */\n      dup7\n        /* \"@openzeppelin/contracts/token/ERC20/utils/SafeERC20.sol\":1745:1798  abi.encodeCall(token.transferFrom, (from, to, value)) */\n      add(0x24, mload(0x40))\n      tag_414\n      swap4\n      swap3\n      swap2\n      swap1\n      tag_415\n      jump\t// in\n    tag_414:\n      mload(0x40)\n      0x20\n      dup2\n      dup4\n      sub\n      sub\n      dup2\n      mstore\n      swap1\n      0x40\n      mstore\n      swap2\n      pop\n      0xe0\n      shl\n      0x20\n      dup3\n      add\n      dup1\n      mload\n      0xffffffffffffffffffffffffffffffffffffffffffffffffffffffff\n      dup4\n      dup2\n      dup4\n      and\n      or\n      dup4\n      mstore\n      pop\n      pop\n      pop\n      pop\n        /* \"@openzeppelin/contracts/token/ERC20/utils/SafeERC20.sol\":1718:1737  _callOptionalReturn */\n      tag_416\n        /* \"@openzeppelin/contracts/token/ERC20/utils/SafeERC20.sol\":1718:1799  _callOptionalReturn(token, abi.encodeCall(token.transferFrom, (from, to, value))) */\n      jump\t// in\n    tag_413:\n        /* \"@openzeppelin/contracts/token/ERC20/utils/SafeERC20.sol\":1618:1806  function safeTransferFrom(IERC20 token, address from, address to, uint256 value) internal {... */\n      pop\n      pop\n      pop\n      pop\n      jump\t// out\n        /* \"@openzeppelin/contracts/access/Ownable.sol\":1796:1958  function _checkOwner() internal view virtual {... */\n    tag_276:\n        /* \"@openzeppelin/contracts/access/Ownable.sol\":1866:1878  _msgSender() */\n      tag_418\n        /* \"@openzeppelin/contracts/access/Ownable.sol\":1866:1876  _msgSender */\n      tag_228\n        /* \"@openzeppelin/contracts/access/Ownable.sol\":1866:1878  _msgSender() */\n      jump\t// in\n    tag_418:\n        /* \"@openzeppelin/contracts/access/Ownable.sol\":1855:1878  owner() != _msgSender() */\n      0xffffffffffffffffffffffffffffffffffffffff\n      and\n        /* \"@openzeppelin/contracts/access/Ownable.sol\":1855:1862  owner() */\n      tag_419\n        /* \"@openzeppelin/contracts/access/Ownable.sol\":1855:1860  owner */\n      tag_131\n        /* \"@openzeppelin/contracts/access/Ownable.sol\":1855:1862  owner() */\n      jump\t// in\n    tag_419:\n        /* \"@openzeppelin/contracts/access/Ownable.sol\":1855:1878  owner() != _msgSender() */\n      0xffffffffffffffffffffffffffffffffffffffff\n      and\n      eq\n        /* \"@openzeppelin/contracts/access/Ownable.sol\":1851:1952  if (owner() != _msgSender()) {... */\n      tag_420\n      jumpi\n        /* \"@openzeppelin/contracts/access/Ownable.sol\":1928:1940  _msgSender() */\n      tag_421\n        /* \"@openzeppelin/contracts/access/Ownable.sol\":1928:1938  _msgSender */\n      tag_228\n        /* \"@openzeppelin/contracts/access/Ownable.sol\":1928:1940  _msgSender() */\n      jump\t// in\n    tag_421:\n        /* \"@openzeppelin/contracts/access/Ownable.sol\":1901:1941  OwnableUnauthorizedAccount(_msgSender()) */\n      mload(0x40)\n      0x118cdaa700000000000000000000000000000000000000000000000000000000\n      dup2\n      mstore\n      0x04\n      add\n      tag_422\n      swap2\n      swap1\n      tag_46\n      jump\t// in\n    tag_422:\n      mload(0x40)\n      dup1\n      swap2\n      sub\n      swap1\n      revert\n        /* \"@openzeppelin/contracts/access/Ownable.sol\":1851:1952  if (owner() != _msgSender()) {... */\n    tag_420:\n        /* \"@openzeppelin/contracts/access/Ownable.sol\":1796:1958  function _checkOwner() internal view virtual {... */\n      jump\t// out\n        /* \"@openzeppelin/contracts/access/Ownable.sol\":2912:3099  function _transferOwnership(address newOwner) internal virtual {... */\n    tag_279:\n        /* \"@openzeppelin/contracts/access/Ownable.sol\":2985:3001  address oldOwner */\n      0x00\n        /* \"@openzeppelin/contracts/access/Ownable.sol\":3004:3010  _owner */\n      0x01\n      0x00\n      swap1\n      sload\n      swap1\n      0x0100\n      exp\n      swap1\n      div\n      0xffffffffffffffffffffffffffffffffffffffff\n      and\n        /* \"@openzeppelin/contracts/access/Ownable.sol\":2985:3010  address oldOwner = _owner */\n      swap1\n      pop\n        /* \"@openzeppelin/contracts/access/Ownable.sol\":3029:3037  newOwner */\n      dup2\n        /* \"@openzeppelin/contracts/access/Ownable.sol\":3020:3026  _owner */\n      0x01\n      0x00\n        /* \"@openzeppelin/contracts/access/Ownable.sol\":3020:3037  _owner = newOwner */\n      0x0100\n      exp\n      dup2\n      sload\n      dup2\n      0xffffffffffffffffffffffffffffffffffffffff\n      mul\n      not\n      and\n      swap1\n      dup4\n      0xffffffffffffffffffffffffffffffffffffffff\n      and\n      mul\n      or\n      swap1\n      sstore\n      pop\n        /* \"@openzeppelin/contracts/access/Ownable.sol\":3083:3091  newOwner */\n      dup2\n        /* \"@openzeppelin/contracts/access/Ownable.sol\":3052:3092  OwnershipTransferred(oldOwner, newOwner) */\n      0xffffffffffffffffffffffffffffffffffffffff\n      and\n        /* \"@openzeppelin/contracts/access/Ownable.sol\":3073:3081  oldOwner */\n      dup2\n        /* \"@openzeppelin/contracts/access/Ownable.sol\":3052:3092  OwnershipTransferred(oldOwner, newOwner) */\n      0xffffffffffffffffffffffffffffffffffffffff\n      and\n      0x8be0079c531659141344cd1fd0a4f28419497f9722a3daafe3b4186f6b6457e0\n      mload(0x40)\n      mload(0x40)\n      dup1\n      swap2\n      sub\n      swap1\n      log3\n        /* \"@openzeppelin/contracts/access/Ownable.sol\":2975:3099  {... */\n      pop\n        /* \"@openzeppelin/contracts/access/Ownable.sol\":2912:3099  function _transferOwnership(address newOwner) internal virtual {... */\n      pop\n      jump\t// out\n        /* \"contracts/KipuBank.sol\":12799:13292  function _retirarFondosETH(uint _monto) private nonReentrant verificarRetiroETH(_monto) {... */\n    tag_310:\n        /* \"@openzeppelin/contracts/security/ReentrancyGuard.sol\":2261:2282  _nonReentrantBefore() */\n      tag_425\n        /* \"@openzeppelin/contracts/security/ReentrancyGuard.sol\":2261:2280  _nonReentrantBefore */\n      tag_426\n        /* \"@openzeppelin/contracts/security/ReentrancyGuard.sol\":2261:2282  _nonReentrantBefore() */\n      jump\t// in\n    tag_425:\n        /* \"contracts/KipuBank.sol\":12879:12885  _monto */\n      dup1\n        /* \"contracts/KipuBank.sol\":10602:10616  uint montoUSDC */\n      0x00\n        /* \"contracts/KipuBank.sol\":10619:10644  convertirEthEnUSD(_monto) */\n      tag_428\n        /* \"contracts/KipuBank.sol\":10637:10643  _monto */\n      dup3\n        /* \"contracts/KipuBank.sol\":10619:10636  convertirEthEnUSD */\n      tag_203\n        /* \"contracts/KipuBank.sol\":10619:10644  convertirEthEnUSD(_monto) */\n      jump\t// in\n    tag_428:\n        /* \"contracts/KipuBank.sol\":10602:10644  uint montoUSDC = convertirEthEnUSD(_monto) */\n      swap1\n      pop\n        /* \"contracts/KipuBank.sol\":10670:10671  0 */\n      0x00\n        /* \"contracts/KipuBank.sol\":10657:10666  montoUSDC */\n      dup2\n        /* \"contracts/KipuBank.sol\":10657:10671  montoUSDC == 0 */\n      sub\n        /* \"contracts/KipuBank.sol\":10654:10710  if(montoUSDC == 0) revert KipuBank_MontoCero(msg.sender) */\n      tag_429\n      jumpi\n        /* \"contracts/KipuBank.sol\":10699:10709  msg.sender */\n      caller\n        /* \"contracts/KipuBank.sol\":10680:10710  KipuBank_MontoCero(msg.sender) */\n      mload(0x40)\n      0xb2f0923100000000000000000000000000000000000000000000000000000000\n      dup2\n      mstore\n      0x04\n      add\n      tag_430\n      swap2\n      swap1\n      tag_46\n      jump\t// in\n    tag_430:\n      mload(0x40)\n      dup1\n      swap2\n      sub\n      swap1\n      revert\n        /* \"contracts/KipuBank.sol\":10654:10710  if(montoUSDC == 0) revert KipuBank_MontoCero(msg.sender) */\n    tag_429:\n        /* \"contracts/KipuBank.sol\":10736:10744  i_umbral */\n      immutable(\"0xcf2f0ed1818444aa7134f6644eb342f5da11c7b70eee1c41201e997b4c62f0a7\")\n        /* \"contracts/KipuBank.sol\":10724:10733  montoUSDC */\n      dup2\n        /* \"contracts/KipuBank.sol\":10724:10744  montoUSDC > i_umbral */\n      gt\n        /* \"contracts/KipuBank.sol\":10720:10787  if (montoUSDC > i_umbral) revert KipuBank_UmbralExcedido(montoUSDC) */\n      iszero\n      tag_431\n      jumpi\n        /* \"contracts/KipuBank.sol\":10777:10786  montoUSDC */\n      dup1\n        /* \"contracts/KipuBank.sol\":10753:10787  KipuBank_UmbralExcedido(montoUSDC) */\n      mload(0x40)\n      0xc399356500000000000000000000000000000000000000000000000000000000\n      dup2\n      mstore\n      0x04\n      add\n      tag_432\n      swap2\n      swap1\n      tag_90\n      jump\t// in\n    tag_432:\n      mload(0x40)\n      dup1\n      swap2\n      sub\n      swap1\n      revert\n        /* \"contracts/KipuBank.sol\":10720:10787  if (montoUSDC > i_umbral) revert KipuBank_UmbralExcedido(montoUSDC) */\n    tag_431:\n        /* \"contracts/KipuBank.sol\":10810:10829  s_cuentasMultiToken */\n      0x06\n        /* \"contracts/KipuBank.sol\":10810:10841  s_cuentasMultiToken[address(0)] */\n      0x00\n        /* \"contracts/KipuBank.sol\":10838:10839  0 */\n      0x00\n        /* \"contracts/KipuBank.sol\":10810:10841  s_cuentasMultiToken[address(0)] */\n      0xffffffffffffffffffffffffffffffffffffffff\n      and\n      0xffffffffffffffffffffffffffffffffffffffff\n      and\n      dup2\n      mstore\n      0x20\n      add\n      swap1\n      dup2\n      mstore\n      0x20\n      add\n      0x00\n      keccak256\n        /* \"contracts/KipuBank.sol\":10810:10853  s_cuentasMultiToken[address(0)][msg.sender] */\n      0x00\n        /* \"contracts/KipuBank.sol\":10842:10852  msg.sender */\n      caller\n        /* \"contracts/KipuBank.sol\":10810:10853  s_cuentasMultiToken[address(0)][msg.sender] */\n      0xffffffffffffffffffffffffffffffffffffffff\n      and\n      0xffffffffffffffffffffffffffffffffffffffff\n      and\n      dup2\n      mstore\n      0x20\n      add\n      swap1\n      dup2\n      mstore\n      0x20\n      add\n      0x00\n      keccak256\n      sload\n        /* \"contracts/KipuBank.sol\":10801:10807  _monto */\n      dup3\n        /* \"contracts/KipuBank.sol\":10801:10853  _monto > s_cuentasMultiToken[address(0)][msg.sender] */\n      gt\n        /* \"contracts/KipuBank.sol\":10797:10911  if (_monto > s_cuentasMultiToken[address(0)][msg.sender]) revert KipuBank_SaldoInsuficiente(msg.sender, montoUSDC) */\n      iszero\n      tag_433\n      jumpi\n        /* \"contracts/KipuBank.sol\":10889:10899  msg.sender */\n      caller\n        /* \"contracts/KipuBank.sol\":10901:10910  montoUSDC */\n      dup2\n        /* \"contracts/KipuBank.sol\":10862:10911  KipuBank_SaldoInsuficiente(msg.sender, montoUSDC) */\n      mload(0x40)\n      0x51a7314200000000000000000000000000000000000000000000000000000000\n      dup2\n      mstore\n      0x04\n      add\n      tag_434\n      swap3\n      swap2\n      swap1\n      tag_435\n      jump\t// in\n    tag_434:\n      mload(0x40)\n      dup1\n      swap2\n      sub\n      swap1\n      revert\n        /* \"contracts/KipuBank.sol\":10797:10911  if (_monto > s_cuentasMultiToken[address(0)][msg.sender]) revert KipuBank_SaldoInsuficiente(msg.sender, montoUSDC) */\n    tag_433:\n        /* \"contracts/KipuBank.sol\":12897:12910  uint montoUSD */\n      0x00\n        /* \"contracts/KipuBank.sol\":12913:12938  convertirEthEnUSD(_monto) */\n      tag_437\n        /* \"contracts/KipuBank.sol\":12931:12937  _monto */\n      dup5\n        /* \"contracts/KipuBank.sol\":12913:12930  convertirEthEnUSD */\n      tag_203\n        /* \"contracts/KipuBank.sol\":12913:12938  convertirEthEnUSD(_monto) */\n      jump\t// in\n    tag_437:\n        /* \"contracts/KipuBank.sol\":12897:12938  uint montoUSD = convertirEthEnUSD(_monto) */\n      swap1\n      pop\n        /* \"contracts/KipuBank.sol\":12995:13001  _monto */\n      dup4\n        /* \"contracts/KipuBank.sol\":12948:12967  s_cuentasMultiToken */\n      0x06\n        /* \"contracts/KipuBank.sol\":12948:12979  s_cuentasMultiToken[address(0)] */\n      0x00\n        /* \"contracts/KipuBank.sol\":12976:12977  0 */\n      0x00\n        /* \"contracts/KipuBank.sol\":12948:12979  s_cuentasMultiToken[address(0)] */\n      0xffffffffffffffffffffffffffffffffffffffff\n      and\n      0xffffffffffffffffffffffffffffffffffffffff\n      and\n      dup2\n      mstore\n      0x20\n      add\n      swap1\n      dup2\n      mstore\n      0x20\n      add\n      0x00\n      keccak256\n        /* \"contracts/KipuBank.sol\":12948:12991  s_cuentasMultiToken[address(0)][msg.sender] */\n      0x00\n        /* \"contracts/KipuBank.sol\":12980:12990  msg.sender */\n      caller\n        /* \"contracts/KipuBank.sol\":12948:12991  s_cuentasMultiToken[address(0)][msg.sender] */\n      0xffffffffffffffffffffffffffffffffffffffff\n      and\n      0xffffffffffffffffffffffffffffffffffffffff\n      and\n      dup2\n      mstore\n      0x20\n      add\n      swap1\n      dup2\n      mstore\n      0x20\n      add\n      0x00\n      keccak256\n      0x00\n        /* \"contracts/KipuBank.sol\":12948:13001  s_cuentasMultiToken[address(0)][msg.sender] -= _monto */\n      dup3\n      dup3\n      sload\n      tag_438\n      swap2\n      swap1\n      tag_303\n      jump\t// in\n    tag_438:\n      swap3\n      pop\n      pop\n      dup2\n      swap1\n      sstore\n      pop\n        /* \"contracts/KipuBank.sol\":13011:13020  s_retiros */\n      0x05\n      0x10\n        /* \"contracts/KipuBank.sol\":13011:13022  s_retiros++ */\n      dup2\n      dup2\n      swap1\n      sload\n      swap1\n      0x0100\n      exp\n      swap1\n      div\n      0xffffffffffffffffffffffffffffffff\n      and\n      dup1\n      swap3\n      swap2\n      swap1\n      tag_439\n      swap1\n      tag_269\n      jump\t// in\n    tag_439:\n      swap2\n      swap1\n      0x0100\n      exp\n      dup2\n      sload\n      dup2\n      0xffffffffffffffffffffffffffffffff\n      mul\n      not\n      and\n      swap1\n      dup4\n      0xffffffffffffffffffffffffffffffff\n      and\n      mul\n      or\n      swap1\n      sstore\n      pop\n      pop\n        /* \"contracts/KipuBank.sol\":13051:13059  montoUSD */\n      dup1\n        /* \"contracts/KipuBank.sol\":13032:13047  s_totalContrato */\n      0x04\n      0x00\n        /* \"contracts/KipuBank.sol\":13032:13059  s_totalContrato -= montoUSD */\n      dup3\n      dup3\n      sload\n      tag_440\n      swap2\n      swap1\n      tag_303\n      jump\t// in\n    tag_440:\n      swap3\n      pop\n      pop\n      dup2\n      swap1\n      sstore\n      pop\n        /* \"contracts/KipuBank.sol\":13112:13122  msg.sender */\n      caller\n        /* \"contracts/KipuBank.sol\":13083:13133  KipuBank_ExtraccionRealizada(msg.sender, montoUSD) */\n      0xffffffffffffffffffffffffffffffffffffffff\n      and\n      0x9cde449504e4972ffddec09813e0c252a1462d76bef1864b9e7520dadb7183e8\n        /* \"contracts/KipuBank.sol\":13124:13132  montoUSD */\n      dup3\n        /* \"contracts/KipuBank.sol\":13083:13133  KipuBank_ExtraccionRealizada(msg.sender, montoUSD) */\n      mload(0x40)\n      tag_441\n      swap2\n      swap1\n      tag_90\n      jump\t// in\n    tag_441:\n      mload(0x40)\n      dup1\n      swap2\n      sub\n      swap1\n      log2\n        /* \"contracts/KipuBank.sol\":13145:13157  bool success */\n      0x00\n        /* \"contracts/KipuBank.sol\":13171:13181  msg.sender */\n      caller\n        /* \"contracts/KipuBank.sol\":13163:13187  payable(msg.sender).call */\n      0xffffffffffffffffffffffffffffffffffffffff\n      and\n        /* \"contracts/KipuBank.sol\":13195:13201  _monto */\n      dup6\n        /* \"contracts/KipuBank.sol\":13163:13206  payable(msg.sender).call{value: _monto}(\"\") */\n      mload(0x40)\n      tag_442\n      swap1\n      tag_443\n      jump\t// in\n    tag_442:\n      0x00\n      mload(0x40)\n      dup1\n      dup4\n      sub\n      dup2\n      dup6\n      dup8\n      gas\n      call\n      swap3\n      pop\n      pop\n      pop\n      returndatasize\n      dup1\n      0x00\n      dup2\n      eq\n      tag_446\n      jumpi\n      mload(0x40)\n      swap2\n      pop\n      and(add(returndatasize, 0x3f), not(0x1f))\n      dup3\n      add\n      0x40\n      mstore\n      returndatasize\n      dup3\n      mstore\n      returndatasize\n      0x00\n      0x20\n      dup5\n      add\n      returndatacopy\n      jump(tag_445)\n    tag_446:\n      0x60\n      swap2\n      pop\n    tag_445:\n      pop\n        /* \"contracts/KipuBank.sol\":13144:13206  (bool success, ) = payable(msg.sender).call{value: _monto}(\"\") */\n      pop\n      swap1\n      pop\n        /* \"contracts/KipuBank.sol\":13221:13228  success */\n      dup1\n        /* \"contracts/KipuBank.sol\":13216:13285  if (!success) revert KipuBank_ExtraccionRechazada(msg.sender, _monto) */\n      tag_447\n      jumpi\n        /* \"contracts/KipuBank.sol\":13266:13276  msg.sender */\n      caller\n        /* \"contracts/KipuBank.sol\":13278:13284  _monto */\n      dup6\n        /* \"contracts/KipuBank.sol\":13237:13285  KipuBank_ExtraccionRechazada(msg.sender, _monto) */\n      mload(0x40)\n      0x6c5e1a1400000000000000000000000000000000000000000000000000000000\n      dup2\n      mstore\n      0x04\n      add\n      tag_448\n      swap3\n      swap2\n      swap1\n      tag_435\n      jump\t// in\n    tag_448:\n      mload(0x40)\n      dup1\n      swap2\n      sub\n      swap1\n      revert\n        /* \"contracts/KipuBank.sol\":13216:13285  if (!success) revert KipuBank_ExtraccionRechazada(msg.sender, _monto) */\n    tag_447:\n        /* \"contracts/KipuBank.sol\":12887:13292  {... */\n      pop\n      pop\n        /* \"contracts/KipuBank.sol\":10592:10929  {... */\n      pop\n        /* \"@openzeppelin/contracts/security/ReentrancyGuard.sol\":2292:2293  _ */\n      pop\n        /* \"@openzeppelin/contracts/security/ReentrancyGuard.sol\":2303:2323  _nonReentrantAfter() */\n      tag_449\n        /* \"@openzeppelin/contracts/security/ReentrancyGuard.sol\":2303:2321  _nonReentrantAfter */\n      tag_450\n        /* \"@openzeppelin/contracts/security/ReentrancyGuard.sol\":2303:2323  _nonReentrantAfter() */\n      jump\t// in\n    tag_449:\n        /* \"contracts/KipuBank.sol\":12799:13292  function _retirarFondosETH(uint _monto) private nonReentrant verificarRetiroETH(_monto) {... */\n      pop\n      jump\t// out\n        /* \"contracts/KipuBank.sol\":13697:14030  function _retirarFondosUSDC(uint _monto) private nonReentrant verificarRetiroUSDC(_monto) {... */\n    tag_330:\n        /* \"@openzeppelin/contracts/security/ReentrancyGuard.sol\":2261:2282  _nonReentrantBefore() */\n      tag_452\n        /* \"@openzeppelin/contracts/security/ReentrancyGuard.sol\":2261:2280  _nonReentrantBefore */\n      tag_426\n        /* \"@openzeppelin/contracts/security/ReentrancyGuard.sol\":2261:2282  _nonReentrantBefore() */\n      jump\t// in\n    tag_452:\n        /* \"contracts/KipuBank.sol\":13779:13785  _monto */\n      dup1\n        /* \"contracts/KipuBank.sol\":11172:11173  0 */\n      0x00\n        /* \"contracts/KipuBank.sol\":11162:11168  _monto */\n      dup2\n        /* \"contracts/KipuBank.sol\":11162:11173  _monto == 0 */\n      sub\n        /* \"contracts/KipuBank.sol\":11159:11212  if(_monto == 0) revert KipuBank_MontoCero(msg.sender) */\n      tag_454\n      jumpi\n        /* \"contracts/KipuBank.sol\":11201:11211  msg.sender */\n      caller\n        /* \"contracts/KipuBank.sol\":11182:11212  KipuBank_MontoCero(msg.sender) */\n      mload(0x40)\n      0xb2f0923100000000000000000000000000000000000000000000000000000000\n      dup2\n      mstore\n      0x04\n      add\n      tag_455\n      swap2\n      swap1\n      tag_46\n      jump\t// in\n    tag_455:\n      mload(0x40)\n      dup1\n      swap2\n      sub\n      swap1\n      revert\n        /* \"contracts/KipuBank.sol\":11159:11212  if(_monto == 0) revert KipuBank_MontoCero(msg.sender) */\n    tag_454:\n        /* \"contracts/KipuBank.sol\":11235:11243  i_umbral */\n      immutable(\"0xcf2f0ed1818444aa7134f6644eb342f5da11c7b70eee1c41201e997b4c62f0a7\")\n        /* \"contracts/KipuBank.sol\":11226:11232  _monto */\n      dup2\n        /* \"contracts/KipuBank.sol\":11226:11243  _monto > i_umbral */\n      gt\n        /* \"contracts/KipuBank.sol\":11222:11283  if (_monto > i_umbral) revert KipuBank_UmbralExcedido(_monto) */\n      iszero\n      tag_456\n      jumpi\n        /* \"contracts/KipuBank.sol\":11276:11282  _monto */\n      dup1\n        /* \"contracts/KipuBank.sol\":11252:11283  KipuBank_UmbralExcedido(_monto) */\n      mload(0x40)\n      0xc399356500000000000000000000000000000000000000000000000000000000\n      dup2\n      mstore\n      0x04\n      add\n      tag_457\n      swap2\n      swap1\n      tag_90\n      jump\t// in\n    tag_457:\n      mload(0x40)\n      dup1\n      swap2\n      sub\n      swap1\n      revert\n        /* \"contracts/KipuBank.sol\":11222:11283  if (_monto > i_umbral) revert KipuBank_UmbralExcedido(_monto) */\n    tag_456:\n        /* \"contracts/KipuBank.sol\":11306:11325  s_cuentasMultiToken */\n      0x06\n        /* \"contracts/KipuBank.sol\":11306:11342  s_cuentasMultiToken[address(i_usdc)] */\n      0x00\n        /* \"contracts/KipuBank.sol\":11334:11340  i_usdc */\n      immutable(\"0x70ebf73cb6f1a1207279604d754513a029c2ff46f9198374b0ad04887dd2881e\")\n        /* \"contracts/KipuBank.sol\":11306:11342  s_cuentasMultiToken[address(i_usdc)] */\n      0xffffffffffffffffffffffffffffffffffffffff\n      and\n      0xffffffffffffffffffffffffffffffffffffffff\n      and\n      dup2\n      mstore\n      0x20\n      add\n      swap1\n      dup2\n      mstore\n      0x20\n      add\n      0x00\n      keccak256\n        /* \"contracts/KipuBank.sol\":11306:11354  s_cuentasMultiToken[address(i_usdc)][msg.sender] */\n      0x00\n        /* \"contracts/KipuBank.sol\":11343:11353  msg.sender */\n      caller\n        /* \"contracts/KipuBank.sol\":11306:11354  s_cuentasMultiToken[address(i_usdc)][msg.sender] */\n      0xffffffffffffffffffffffffffffffffffffffff\n      and\n      0xffffffffffffffffffffffffffffffffffffffff\n      and\n      dup2\n      mstore\n      0x20\n      add\n      swap1\n      dup2\n      mstore\n      0x20\n      add\n      0x00\n      keccak256\n      sload\n        /* \"contracts/KipuBank.sol\":11297:11303  _monto */\n      dup2\n        /* \"contracts/KipuBank.sol\":11297:11354  _monto > s_cuentasMultiToken[address(i_usdc)][msg.sender] */\n      gt\n        /* \"contracts/KipuBank.sol\":11293:11409  if (_monto > s_cuentasMultiToken[address(i_usdc)][msg.sender]) revert KipuBank_SaldoInsuficiente(msg.sender, _monto) */\n      iszero\n      tag_458\n      jumpi\n        /* \"contracts/KipuBank.sol\":11390:11400  msg.sender */\n      caller\n        /* \"contracts/KipuBank.sol\":11402:11408  _monto */\n      dup2\n        /* \"contracts/KipuBank.sol\":11363:11409  KipuBank_SaldoInsuficiente(msg.sender, _monto) */\n      mload(0x40)\n      0x51a7314200000000000000000000000000000000000000000000000000000000\n      dup2\n      mstore\n      0x04\n      add\n      tag_459\n      swap3\n      swap2\n      swap1\n      tag_435\n      jump\t// in\n    tag_459:\n      mload(0x40)\n      dup1\n      swap2\n      sub\n      swap1\n      revert\n        /* \"contracts/KipuBank.sol\":11293:11409  if (_monto > s_cuentasMultiToken[address(i_usdc)][msg.sender]) revert KipuBank_SaldoInsuficiente(msg.sender, _monto) */\n    tag_458:\n        /* \"contracts/KipuBank.sol\":13849:13855  _monto */\n      dup2\n        /* \"contracts/KipuBank.sol\":13797:13816  s_cuentasMultiToken */\n      0x06\n        /* \"contracts/KipuBank.sol\":13797:13833  s_cuentasMultiToken[address(i_usdc)] */\n      0x00\n        /* \"contracts/KipuBank.sol\":13825:13831  i_usdc */\n      immutable(\"0x70ebf73cb6f1a1207279604d754513a029c2ff46f9198374b0ad04887dd2881e\")\n        /* \"contracts/KipuBank.sol\":13797:13833  s_cuentasMultiToken[address(i_usdc)] */\n      0xffffffffffffffffffffffffffffffffffffffff\n      and\n      0xffffffffffffffffffffffffffffffffffffffff\n      and\n      dup2\n      mstore\n      0x20\n      add\n      swap1\n      dup2\n      mstore\n      0x20\n      add\n      0x00\n      keccak256\n        /* \"contracts/KipuBank.sol\":13797:13845  s_cuentasMultiToken[address(i_usdc)][msg.sender] */\n      0x00\n        /* \"contracts/KipuBank.sol\":13834:13844  msg.sender */\n      caller\n        /* \"contracts/KipuBank.sol\":13797:13845  s_cuentasMultiToken[address(i_usdc)][msg.sender] */\n      0xffffffffffffffffffffffffffffffffffffffff\n      and\n      0xffffffffffffffffffffffffffffffffffffffff\n      and\n      dup2\n      mstore\n      0x20\n      add\n      swap1\n      dup2\n      mstore\n      0x20\n      add\n      0x00\n      keccak256\n      0x00\n        /* \"contracts/KipuBank.sol\":13797:13855  s_cuentasMultiToken[address(i_usdc)][msg.sender] -= _monto */\n      dup3\n      dup3\n      sload\n      tag_461\n      swap2\n      swap1\n      tag_303\n      jump\t// in\n    tag_461:\n      swap3\n      pop\n      pop\n      dup2\n      swap1\n      sstore\n      pop\n        /* \"contracts/KipuBank.sol\":13865:13874  s_retiros */\n      0x05\n      0x10\n        /* \"contracts/KipuBank.sol\":13865:13876  s_retiros++ */\n      dup2\n      dup2\n      swap1\n      sload\n      swap1\n      0x0100\n      exp\n      swap1\n      div\n      0xffffffffffffffffffffffffffffffff\n      and\n      dup1\n      swap3\n      swap2\n      swap1\n      tag_462\n      swap1\n      tag_269\n      jump\t// in\n    tag_462:\n      swap2\n      swap1\n      0x0100\n      exp\n      dup2\n      sload\n      dup2\n      0xffffffffffffffffffffffffffffffff\n      mul\n      not\n      and\n      swap1\n      dup4\n      0xffffffffffffffffffffffffffffffff\n      and\n      mul\n      or\n      swap1\n      sstore\n      pop\n      pop\n        /* \"contracts/KipuBank.sol\":13905:13911  _monto */\n      dup2\n        /* \"contracts/KipuBank.sol\":13886:13901  s_totalContrato */\n      0x04\n      0x00\n        /* \"contracts/KipuBank.sol\":13886:13911  s_totalContrato -= _monto */\n      dup3\n      dup3\n      sload\n      tag_463\n      swap2\n      swap1\n      tag_303\n      jump\t// in\n    tag_463:\n      swap3\n      pop\n      pop\n      dup2\n      swap1\n      sstore\n      pop\n        /* \"contracts/KipuBank.sol\":13955:13965  msg.sender */\n      caller\n        /* \"contracts/KipuBank.sol\":13926:13974  KipuBank_ExtraccionRealizada(msg.sender, _monto) */\n      0xffffffffffffffffffffffffffffffffffffffff\n      and\n      0x9cde449504e4972ffddec09813e0c252a1462d76bef1864b9e7520dadb7183e8\n        /* \"contracts/KipuBank.sol\":13967:13973  _monto */\n      dup4\n        /* \"contracts/KipuBank.sol\":13926:13974  KipuBank_ExtraccionRealizada(msg.sender, _monto) */\n      mload(0x40)\n      tag_464\n      swap2\n      swap1\n      tag_90\n      jump\t// in\n    tag_464:\n      mload(0x40)\n      dup1\n      swap2\n      sub\n      swap1\n      log2\n        /* \"contracts/KipuBank.sol\":13984:14023  i_usdc.safeTransfer(msg.sender, _monto) */\n      tag_465\n        /* \"contracts/KipuBank.sol\":14004:14014  msg.sender */\n      caller\n        /* \"contracts/KipuBank.sol\":14016:14022  _monto */\n      dup4\n        /* \"contracts/KipuBank.sol\":13984:13990  i_usdc */\n      immutable(\"0x70ebf73cb6f1a1207279604d754513a029c2ff46f9198374b0ad04887dd2881e\")\n        /* \"contracts/KipuBank.sol\":13984:14003  i_usdc.safeTransfer */\n      0xffffffffffffffffffffffffffffffffffffffff\n      and\n      tag_466\n      swap1\n        /* \"contracts/KipuBank.sol\":13984:14023  i_usdc.safeTransfer(msg.sender, _monto) */\n      swap3\n      swap2\n      swap1\n      0xffffffff\n      and\n      jump\t// in\n    tag_465:\n        /* \"@openzeppelin/contracts/security/ReentrancyGuard.sol\":2292:2293  _ */\n      pop\n        /* \"@openzeppelin/contracts/security/ReentrancyGuard.sol\":2303:2323  _nonReentrantAfter() */\n      tag_467\n        /* \"@openzeppelin/contracts/security/ReentrancyGuard.sol\":2303:2321  _nonReentrantAfter */\n      tag_450\n        /* \"@openzeppelin/contracts/security/ReentrancyGuard.sol\":2303:2323  _nonReentrantAfter() */\n      jump\t// in\n    tag_467:\n        /* \"contracts/KipuBank.sol\":13697:14030  function _retirarFondosUSDC(uint _monto) private nonReentrant verificarRetiroUSDC(_monto) {... */\n      pop\n      jump\t// out\n        /* \"@openzeppelin/contracts/utils/introspection/ERC165.sol\":730:876  function supportsInterface(bytes4 interfaceId) public view virtual returns (bool) {... */\n    tag_360:\n        /* \"@openzeppelin/contracts/utils/introspection/ERC165.sol\":806:810  bool */\n      0x00\n        /* \"@openzeppelin/contracts/utils/introspection/ERC165.sol\":844:869  type(IERC165).interfaceId */\n      0x01ffc9a700000000000000000000000000000000000000000000000000000000\n        /* \"@openzeppelin/contracts/utils/introspection/ERC165.sol\":829:869  interfaceId == type(IERC165).interfaceId */\n      not(0xffffffffffffffffffffffffffffffffffffffffffffffffffffffff)\n      and\n        /* \"@openzeppelin/contracts/utils/introspection/ERC165.sol\":829:840  interfaceId */\n      dup3\n        /* \"@openzeppelin/contracts/utils/introspection/ERC165.sol\":829:869  interfaceId == type(IERC165).interfaceId */\n      not(0xffffffffffffffffffffffffffffffffffffffffffffffffffffffff)\n      and\n      eq\n        /* \"@openzeppelin/contracts/utils/introspection/ERC165.sol\":822:869  return interfaceId == type(IERC165).interfaceId */\n      swap1\n      pop\n        /* \"@openzeppelin/contracts/utils/introspection/ERC165.sol\":730:876  function supportsInterface(bytes4 interfaceId) public view virtual returns (bool) {... */\n      swap2\n      swap1\n      pop\n      jump\t// out\n        /* \"contracts/KipuBank.sol\":11614:12000  function chainLinkFeeds() internal view returns(uint precioUSD_) {... */\n    tag_366:\n        /* \"contracts/KipuBank.sol\":11662:11677  uint precioUSD_ */\n      0x00\n        /* \"contracts/KipuBank.sol\":11692:11710  int256 ethUSDPrice */\n      0x00\n        /* \"contracts/KipuBank.sol\":11713:11729  uint256 updateAt */\n      0x00\n        /* \"contracts/KipuBank.sol\":11734:11740  s_feed */\n      0x03\n      0x00\n      swap1\n      sload\n      swap1\n      0x0100\n      exp\n      swap1\n      div\n      0xffffffffffffffffffffffffffffffffffffffff\n      and\n        /* \"contracts/KipuBank.sol\":11734:11756  s_feed.latestRoundData */\n      0xffffffffffffffffffffffffffffffffffffffff\n      and\n      0xfeaf968c\n        /* \"contracts/KipuBank.sol\":11734:11758  s_feed.latestRoundData() */\n      mload(0x40)\n      dup2\n      0xffffffff\n      and\n      0xe0\n      shl\n      dup2\n      mstore\n      0x04\n      add\n      0xa0\n      mload(0x40)\n      dup1\n      dup4\n      sub\n      dup2\n      dup7\n      gas\n      staticcall\n      iszero\n      dup1\n      iszero\n      tag_471\n      jumpi\n      returndatacopy(0x00, 0x00, returndatasize)\n      revert(0x00, returndatasize)\n    tag_471:\n      pop\n      pop\n      pop\n      pop\n      mload(0x40)\n      returndatasize\n      not(0x1f)\n      0x1f\n      dup3\n      add\n      and\n      dup3\n      add\n      dup1\n      0x40\n      mstore\n      pop\n      dup2\n      add\n      swap1\n      tag_472\n      swap2\n      swap1\n      tag_293\n      jump\t// in\n    tag_472:\n        /* \"contracts/KipuBank.sol\":11689:11758  (, int256 ethUSDPrice,, uint256 updateAt,) = s_feed.latestRoundData() */\n      pop\n      swap4\n      pop\n      pop\n      swap3\n      pop\n      pop\n        /* \"contracts/KipuBank.sol\":11787:11788  0 */\n      0x00\n        /* \"contracts/KipuBank.sol\":11772:11783  ethUSDPrice */\n      dup3\n        /* \"contracts/KipuBank.sol\":11772:11788  ethUSDPrice <= 0 */\n      sgt\n        /* \"contracts/KipuBank.sol\":11768:11844  if( ethUSDPrice <= 0) revert KipuBank_OraculoComprometido(uint(ethUSDPrice)) */\n      tag_473\n      jumpi\n        /* \"contracts/KipuBank.sol\":11831:11842  ethUSDPrice */\n      dup2\n        /* \"contracts/KipuBank.sol\":11797:11844  KipuBank_OraculoComprometido(uint(ethUSDPrice)) */\n      mload(0x40)\n      0x3654402900000000000000000000000000000000000000000000000000000000\n      dup2\n      mstore\n      0x04\n      add\n      tag_474\n      swap2\n      swap1\n      tag_90\n      jump\t// in\n    tag_474:\n      mload(0x40)\n      dup1\n      swap2\n      sub\n      swap1\n      revert\n        /* \"contracts/KipuBank.sol\":11768:11844  if( ethUSDPrice <= 0) revert KipuBank_OraculoComprometido(uint(ethUSDPrice)) */\n    tag_473:\n        /* \"contracts/KipuBank.sol\":1756:1760  3600 */\n      0x0e10\n        /* \"contracts/KipuBank.sol\":11857:11895  block.timestamp - updateAt > HEARTBEAT */\n      0xffff\n      and\n        /* \"contracts/KipuBank.sol\":11875:11883  updateAt */\n      dup2\n        /* \"contracts/KipuBank.sol\":11857:11872  block.timestamp */\n      timestamp\n        /* \"contracts/KipuBank.sol\":11857:11883  block.timestamp - updateAt */\n      tag_475\n      swap2\n      swap1\n      tag_303\n      jump\t// in\n    tag_475:\n        /* \"contracts/KipuBank.sol\":11857:11895  block.timestamp - updateAt > HEARTBEAT */\n      gt\n        /* \"contracts/KipuBank.sol\":11854:11952  if(block.timestamp - updateAt > HEARTBEAT) revert KipuBank_PrecioDesactualizado(uint(ethUSDPrice)) */\n      iszero\n      tag_476\n      jumpi\n        /* \"contracts/KipuBank.sol\":11939:11950  ethUSDPrice */\n      dup2\n        /* \"contracts/KipuBank.sol\":11904:11952  KipuBank_PrecioDesactualizado(uint(ethUSDPrice)) */\n      mload(0x40)\n      0x2609a26500000000000000000000000000000000000000000000000000000000\n      dup2\n      mstore\n      0x04\n      add\n      tag_477\n      swap2\n      swap1\n      tag_90\n      jump\t// in\n    tag_477:\n      mload(0x40)\n      dup1\n      swap2\n      sub\n      swap1\n      revert\n        /* \"contracts/KipuBank.sol\":11854:11952  if(block.timestamp - updateAt > HEARTBEAT) revert KipuBank_PrecioDesactualizado(uint(ethUSDPrice)) */\n    tag_476:\n        /* \"contracts/KipuBank.sol\":11981:11992  ethUSDPrice */\n      dup2\n        /* \"contracts/KipuBank.sol\":11963:11993  precioUSD_ = uint(ethUSDPrice) */\n      swap3\n      pop\n        /* \"contracts/KipuBank.sol\":11679:12000  {... */\n      pop\n      pop\n        /* \"contracts/KipuBank.sol\":11614:12000  function chainLinkFeeds() internal view returns(uint precioUSD_) {... */\n      swap1\n      jump\t// out\n        /* \"@openzeppelin/contracts/access/AccessControl.sol\":3408:3605  function _checkRole(bytes32 role, address account) internal view virtual {... */\n    tag_392:\n        /* \"@openzeppelin/contracts/access/AccessControl.sol\":3496:3518  hasRole(role, account) */\n      tag_479\n        /* \"@openzeppelin/contracts/access/AccessControl.sol\":3504:3508  role */\n      dup3\n        /* \"@openzeppelin/contracts/access/AccessControl.sol\":3510:3517  account */\n      dup3\n        /* \"@openzeppelin/contracts/access/AccessControl.sol\":3496:3503  hasRole */\n      tag_136\n        /* \"@openzeppelin/contracts/access/AccessControl.sol\":3496:3518  hasRole(role, account) */\n      jump\t// in\n    tag_479:\n        /* \"@openzeppelin/contracts/access/AccessControl.sol\":3491:3599  if (!hasRole(role, account)) {... */\n      tag_480\n      jumpi\n        /* \"@openzeppelin/contracts/access/AccessControl.sol\":3574:3581  account */\n      dup1\n        /* \"@openzeppelin/contracts/access/AccessControl.sol\":3583:3587  role */\n      dup3\n        /* \"@openzeppelin/contracts/access/AccessControl.sol\":3541:3588  AccessControlUnauthorizedAccount(account, role) */\n      mload(0x40)\n      0xe2517d3f00000000000000000000000000000000000000000000000000000000\n      dup2\n      mstore\n      0x04\n      add\n      tag_481\n      swap3\n      swap2\n      swap1\n      tag_482\n      jump\t// in\n    tag_481:\n      mload(0x40)\n      dup1\n      swap2\n      sub\n      swap1\n      revert\n        /* \"@openzeppelin/contracts/access/AccessControl.sol\":3491:3599  if (!hasRole(role, account)) {... */\n    tag_480:\n        /* \"@openzeppelin/contracts/access/AccessControl.sol\":3408:3605  function _checkRole(bytes32 role, address account) internal view virtual {... */\n      pop\n      pop\n      jump\t// out\n        /* \"@openzeppelin/contracts/token/ERC20/utils/SafeERC20.sol\":8370:9090  function _callOptionalReturn(IERC20 token, bytes memory data) private {... */\n    tag_416:\n        /* \"@openzeppelin/contracts/token/ERC20/utils/SafeERC20.sol\":8450:8468  uint256 returnSize */\n      0x00\n        /* \"@openzeppelin/contracts/token/ERC20/utils/SafeERC20.sol\":8478:8497  uint256 returnValue */\n      0x00\n        /* \"@openzeppelin/contracts/token/ERC20/utils/SafeERC20.sol\":8616:8620  0x20 */\n      0x20\n        /* \"@openzeppelin/contracts/token/ERC20/utils/SafeERC20.sol\":8613:8614  0 */\n      0x00\n        /* \"@openzeppelin/contracts/token/ERC20/utils/SafeERC20.sol\":8606:8610  data */\n      dup5\n        /* \"@openzeppelin/contracts/token/ERC20/utils/SafeERC20.sol\":8600:8611  mload(data) */\n      mload\n        /* \"@openzeppelin/contracts/token/ERC20/utils/SafeERC20.sol\":8593:8597  0x20 */\n      0x20\n        /* \"@openzeppelin/contracts/token/ERC20/utils/SafeERC20.sol\":8587:8591  data */\n      dup7\n        /* \"@openzeppelin/contracts/token/ERC20/utils/SafeERC20.sol\":8583:8598  add(data, 0x20) */\n      add\n        /* \"@openzeppelin/contracts/token/ERC20/utils/SafeERC20.sol\":8580:8581  0 */\n      0x00\n        /* \"@openzeppelin/contracts/token/ERC20/utils/SafeERC20.sol\":8573:8578  token */\n      dup9\n        /* \"@openzeppelin/contracts/token/ERC20/utils/SafeERC20.sol\":8566:8571  gas() */\n      gas\n        /* \"@openzeppelin/contracts/token/ERC20/utils/SafeERC20.sol\":8561:8621  call(gas(), token, 0, add(data, 0x20), mload(data), 0, 0x20) */\n      call\n        /* \"@openzeppelin/contracts/token/ERC20/utils/SafeERC20.sol\":8673:8680  success */\n      dup1\n        /* \"@openzeppelin/contracts/token/ERC20/utils/SafeERC20.sol\":8663:8839  if iszero(success) {... */\n      tag_484\n      jumpi\n        /* \"@openzeppelin/contracts/token/ERC20/utils/SafeERC20.sol\":8717:8721  0x40 */\n      0x40\n        /* \"@openzeppelin/contracts/token/ERC20/utils/SafeERC20.sol\":8711:8722  mload(0x40) */\n      mload\n        /* \"@openzeppelin/contracts/token/ERC20/utils/SafeERC20.sol\":8762:8778  returndatasize() */\n      returndatasize\n        /* \"@openzeppelin/contracts/token/ERC20/utils/SafeERC20.sol\":8759:8760  0 */\n      0x00\n        /* \"@openzeppelin/contracts/token/ERC20/utils/SafeERC20.sol\":8754:8757  ptr */\n      dup3\n        /* \"@openzeppelin/contracts/token/ERC20/utils/SafeERC20.sol\":8739:8779  returndatacopy(ptr, 0, returndatasize()) */\n      returndatacopy\n        /* \"@openzeppelin/contracts/token/ERC20/utils/SafeERC20.sol\":8808:8824  returndatasize() */\n      returndatasize\n        /* \"@openzeppelin/contracts/token/ERC20/utils/SafeERC20.sol\":8803:8806  ptr */\n      dup2\n        /* \"@openzeppelin/contracts/token/ERC20/utils/SafeERC20.sol\":8796:8825  revert(ptr, returndatasize()) */\n      revert\n        /* \"@openzeppelin/contracts/token/ERC20/utils/SafeERC20.sol\":8663:8839  if iszero(success) {... */\n    tag_484:\n        /* \"@openzeppelin/contracts/token/ERC20/utils/SafeERC20.sol\":8866:8882  returndatasize() */\n      returndatasize\n        /* \"@openzeppelin/contracts/token/ERC20/utils/SafeERC20.sol\":8852:8882  returnSize := returndatasize() */\n      swap3\n      pop\n        /* \"@openzeppelin/contracts/token/ERC20/utils/SafeERC20.sol\":8916:8917  0 */\n      0x00\n        /* \"@openzeppelin/contracts/token/ERC20/utils/SafeERC20.sol\":8910:8918  mload(0) */\n      mload\n        /* \"@openzeppelin/contracts/token/ERC20/utils/SafeERC20.sol\":8895:8918  returnValue := mload(0) */\n      swap2\n      pop\n        /* \"@openzeppelin/contracts/token/ERC20/utils/SafeERC20.sol\":8532:8928  {... */\n      pop\n        /* \"@openzeppelin/contracts/token/ERC20/utils/SafeERC20.sol\":8956:8957  0 */\n      0x00\n        /* \"@openzeppelin/contracts/token/ERC20/utils/SafeERC20.sol\":8942:8952  returnSize */\n      dup3\n        /* \"@openzeppelin/contracts/token/ERC20/utils/SafeERC20.sol\":8942:8957  returnSize == 0 */\n      eq\n        /* \"@openzeppelin/contracts/token/ERC20/utils/SafeERC20.sol\":8942:9010  returnSize == 0 ? address(token).code.length == 0 : returnValue != 1 */\n      tag_485\n      jumpi\n        /* \"@openzeppelin/contracts/token/ERC20/utils/SafeERC20.sol\":9009:9010  1 */\n      0x01\n        /* \"@openzeppelin/contracts/token/ERC20/utils/SafeERC20.sol\":8994:9005  returnValue */\n      dup2\n        /* \"@openzeppelin/contracts/token/ERC20/utils/SafeERC20.sol\":8994:9010  returnValue != 1 */\n      eq\n      iszero\n        /* \"@openzeppelin/contracts/token/ERC20/utils/SafeERC20.sol\":8942:9010  returnSize == 0 ? address(token).code.length == 0 : returnValue != 1 */\n      jump(tag_486)\n    tag_485:\n        /* \"@openzeppelin/contracts/token/ERC20/utils/SafeERC20.sol\":8990:8991  0 */\n      0x00\n        /* \"@openzeppelin/contracts/token/ERC20/utils/SafeERC20.sol\":8968:8973  token */\n      dup5\n        /* \"@openzeppelin/contracts/token/ERC20/utils/SafeERC20.sol\":8960:8986  address(token).code.length */\n      0xffffffffffffffffffffffffffffffffffffffff\n      and\n      extcodesize\n        /* \"@openzeppelin/contracts/token/ERC20/utils/SafeERC20.sol\":8960:8991  address(token).code.length == 0 */\n      eq\n        /* \"@openzeppelin/contracts/token/ERC20/utils/SafeERC20.sol\":8942:9010  returnSize == 0 ? address(token).code.length == 0 : returnValue != 1 */\n    tag_486:\n        /* \"@openzeppelin/contracts/token/ERC20/utils/SafeERC20.sol\":8938:9084  if (returnSize == 0 ? address(token).code.length == 0 : returnValue != 1) {... */\n      iszero\n      tag_487\n      jumpi\n        /* \"@openzeppelin/contracts/token/ERC20/utils/SafeERC20.sol\":9066:9071  token */\n      dup4\n        /* \"@openzeppelin/contracts/token/ERC20/utils/SafeERC20.sol\":9033:9073  SafeERC20FailedOperation(address(token)) */\n      mload(0x40)\n      0x5274afe700000000000000000000000000000000000000000000000000000000\n      dup2\n      mstore\n      0x04\n      add\n      tag_488\n      swap2\n      swap1\n      tag_46\n      jump\t// in\n    tag_488:\n      mload(0x40)\n      dup1\n      swap2\n      sub\n      swap1\n      revert\n        /* \"@openzeppelin/contracts/token/ERC20/utils/SafeERC20.sol\":8938:9084  if (returnSize == 0 ? address(token).code.length == 0 : returnValue != 1) {... */\n    tag_487:\n        /* \"@openzeppelin/contracts/token/ERC20/utils/SafeERC20.sol\":8440:9090  {... */\n      pop\n      pop\n        /* \"@openzeppelin/contracts/token/ERC20/utils/SafeERC20.sol\":8370:9090  function _callOptionalReturn(IERC20 token, bytes memory data) private {... */\n      pop\n      pop\n      jump\t// out\n        /* \"@openzeppelin/contracts/security/ReentrancyGuard.sol\":2336:2623  function _nonReentrantBefore() private {... */\n    tag_426:\n        /* \"@openzeppelin/contracts/security/ReentrancyGuard.sol\":1759:1760  2 */\n      0x02\n        /* \"@openzeppelin/contracts/security/ReentrancyGuard.sol\":2468:2475  _status */\n      sload(0x00)\n        /* \"@openzeppelin/contracts/security/ReentrancyGuard.sol\":2468:2487  _status != _ENTERED */\n      sub\n        /* \"@openzeppelin/contracts/security/ReentrancyGuard.sol\":2460:2523  require(_status != _ENTERED, \"ReentrancyGuard: reentrant call\") */\n      tag_490\n      jumpi\n      mload(0x40)\n      0x08c379a000000000000000000000000000000000000000000000000000000000\n      dup2\n      mstore\n      0x04\n      add\n      tag_491\n      swap1\n      tag_492\n      jump\t// in\n    tag_491:\n      mload(0x40)\n      dup1\n      swap2\n      sub\n      swap1\n      revert\n    tag_490:\n        /* \"@openzeppelin/contracts/security/ReentrancyGuard.sol\":1759:1760  2 */\n      0x02\n        /* \"@openzeppelin/contracts/security/ReentrancyGuard.sol\":2598:2605  _status */\n      0x00\n        /* \"@openzeppelin/contracts/security/ReentrancyGuard.sol\":2598:2616  _status = _ENTERED */\n      dup2\n      swap1\n      sstore\n      pop\n        /* \"@openzeppelin/contracts/security/ReentrancyGuard.sol\":2336:2623  function _nonReentrantBefore() private {... */\n      jump\t// out\n        /* \"@openzeppelin/contracts/security/ReentrancyGuard.sol\":2629:2838  function _nonReentrantAfter() private {... */\n    tag_450:\n        /* \"@openzeppelin/contracts/security/ReentrancyGuard.sol\":1716:1717  1 */\n      0x01\n        /* \"@openzeppelin/contracts/security/ReentrancyGuard.sol\":2809:2816  _status */\n      0x00\n        /* \"@openzeppelin/contracts/security/ReentrancyGuard.sol\":2809:2831  _status = _NOT_ENTERED */\n      dup2\n      swap1\n      sstore\n      pop\n        /* \"@openzeppelin/contracts/security/ReentrancyGuard.sol\":2629:2838  function _nonReentrantAfter() private {... */\n      jump\t// out\n        /* \"@openzeppelin/contracts/token/ERC20/utils/SafeERC20.sol\":1219:1379  function safeTransfer(IERC20 token, address to, uint256 value) internal {... */\n    tag_466:\n        /* \"@openzeppelin/contracts/token/ERC20/utils/SafeERC20.sol\":1301:1372  _callOptionalReturn(token, abi.encodeCall(token.transfer, (to, value))) */\n      tag_495\n        /* \"@openzeppelin/contracts/token/ERC20/utils/SafeERC20.sol\":1321:1326  token */\n      dup4\n        /* \"@openzeppelin/contracts/token/ERC20/utils/SafeERC20.sol\":1343:1348  token */\n      dup5\n        /* \"@openzeppelin/contracts/token/ERC20/utils/SafeERC20.sol\":1343:1357  token.transfer */\n      0xffffffffffffffffffffffffffffffffffffffff\n      and\n      0xa9059cbb\n        /* \"@openzeppelin/contracts/token/ERC20/utils/SafeERC20.sol\":1360:1362  to */\n      dup6\n        /* \"@openzeppelin/contracts/token/ERC20/utils/SafeERC20.sol\":1364:1369  value */\n      dup6\n        /* \"@openzeppelin/contracts/token/ERC20/utils/SafeERC20.sol\":1328:1371  abi.encodeCall(token.transfer, (to, value)) */\n      add(0x24, mload(0x40))\n      tag_496\n      swap3\n      swap2\n      swap1\n      tag_435\n      jump\t// in\n    tag_496:\n      mload(0x40)\n      0x20\n      dup2\n      dup4\n      sub\n      sub\n      dup2\n      mstore\n      swap1\n      0x40\n      mstore\n      swap2\n      pop\n      0xe0\n      shl\n      0x20\n      dup3\n      add\n      dup1\n      mload\n      0xffffffffffffffffffffffffffffffffffffffffffffffffffffffff\n      dup4\n      dup2\n      dup4\n      and\n      or\n      dup4\n      mstore\n      pop\n      pop\n      pop\n      pop\n        /* \"@openzeppelin/contracts/token/ERC20/utils/SafeERC20.sol\":1301:1320  _callOptionalReturn */\n      tag_416\n        /* \"@openzeppelin/contracts/token/ERC20/utils/SafeERC20.sol\":1301:1372  _callOptionalReturn(token, abi.encodeCall(token.transfer, (to, value))) */\n      jump\t// in\n    tag_495:\n        /* \"@openzeppelin/contracts/token/ERC20/utils/SafeERC20.sol\":1219:1379  function safeTransfer(IERC20 token, address to, uint256 value) internal {... */\n      pop\n      pop\n      pop\n      jump\t// out\n        /* \"#utility.yul\":7:133   */\n    tag_497:\n        /* \"#utility.yul\":44:51   */\n      0x00\n        /* \"#utility.yul\":84:126   */\n      0xffffffffffffffffffffffffffffffffffffffff\n        /* \"#utility.yul\":77:82   */\n      dup3\n        /* \"#utility.yul\":73:127   */\n      and\n        /* \"#utility.yul\":62:127   */\n      swap1\n      pop\n        /* \"#utility.yul\":7:133   */\n      swap2\n      swap1\n      pop\n      jump\t// out\n        /* \"#utility.yul\":139:235   */\n    tag_498:\n        /* \"#utility.yul\":176:183   */\n      0x00\n        /* \"#utility.yul\":205:229   */\n      tag_542\n        /* \"#utility.yul\":223:228   */\n      dup3\n        /* \"#utility.yul\":205:229   */\n      tag_497\n      jump\t// in\n    tag_542:\n        /* \"#utility.yul\":194:229   */\n      swap1\n      pop\n        /* \"#utility.yul\":139:235   */\n      swap2\n      swap1\n      pop\n      jump\t// out\n        /* \"#utility.yul\":241:359   */\n    tag_499:\n        /* \"#utility.yul\":328:352   */\n      tag_544\n        /* \"#utility.yul\":346:351   */\n      dup2\n        /* \"#utility.yul\":328:352   */\n      tag_498\n      jump\t// in\n    tag_544:\n        /* \"#utility.yul\":323:326   */\n      dup3\n        /* \"#utility.yul\":316:353   */\n      mstore\n        /* \"#utility.yul\":241:359   */\n      pop\n      pop\n      jump\t// out\n        /* \"#utility.yul\":365:587   */\n    tag_46:\n        /* \"#utility.yul\":458:462   */\n      0x00\n        /* \"#utility.yul\":496:498   */\n      0x20\n        /* \"#utility.yul\":485:494   */\n      dup3\n        /* \"#utility.yul\":481:499   */\n      add\n        /* \"#utility.yul\":473:499   */\n      swap1\n      pop\n        /* \"#utility.yul\":509:580   */\n      tag_546\n        /* \"#utility.yul\":577:578   */\n      0x00\n        /* \"#utility.yul\":566:575   */\n      dup4\n        /* \"#utility.yul\":562:579   */\n      add\n        /* \"#utility.yul\":553:559   */\n      dup5\n        /* \"#utility.yul\":509:580   */\n      tag_499\n      jump\t// in\n    tag_546:\n        /* \"#utility.yul\":365:587   */\n      swap3\n      swap2\n      pop\n      pop\n      jump\t// out\n        /* \"#utility.yul\":674:791   */\n    tag_501:\n        /* \"#utility.yul\":783:784   */\n      0x00\n        /* \"#utility.yul\":780:781   */\n      0x00\n        /* \"#utility.yul\":773:785   */\n      revert\n        /* \"#utility.yul\":920:1069   */\n    tag_503:\n        /* \"#utility.yul\":956:963   */\n      0x00\n        /* \"#utility.yul\":996:1062   */\n      0xffffffff00000000000000000000000000000000000000000000000000000000\n        /* \"#utility.yul\":989:994   */\n      dup3\n        /* \"#utility.yul\":985:1063   */\n      and\n        /* \"#utility.yul\":974:1063   */\n      swap1\n      pop\n        /* \"#utility.yul\":920:1069   */\n      swap2\n      swap1\n      pop\n      jump\t// out\n        /* \"#utility.yul\":1075:1195   */\n    tag_504:\n        /* \"#utility.yul\":1147:1170   */\n      tag_552\n        /* \"#utility.yul\":1164:1169   */\n      dup2\n        /* \"#utility.yul\":1147:1170   */\n      tag_503\n      jump\t// in\n    tag_552:\n        /* \"#utility.yul\":1140:1145   */\n      dup2\n        /* \"#utility.yul\":1137:1171   */\n      eq\n        /* \"#utility.yul\":1127:1189   */\n      tag_553\n      jumpi\n        /* \"#utility.yul\":1185:1186   */\n      0x00\n        /* \"#utility.yul\":1182:1183   */\n      0x00\n        /* \"#utility.yul\":1175:1187   */\n      revert\n        /* \"#utility.yul\":1127:1189   */\n    tag_553:\n        /* \"#utility.yul\":1075:1195   */\n      pop\n      jump\t// out\n        /* \"#utility.yul\":1201:1338   */\n    tag_505:\n        /* \"#utility.yul\":1246:1251   */\n      0x00\n        /* \"#utility.yul\":1284:1290   */\n      dup2\n        /* \"#utility.yul\":1271:1291   */\n      calldataload\n        /* \"#utility.yul\":1262:1291   */\n      swap1\n      pop\n        /* \"#utility.yul\":1300:1332   */\n      tag_555\n        /* \"#utility.yul\":1326:1331   */\n      dup2\n        /* \"#utility.yul\":1300:1332   */\n      tag_504\n      jump\t// in\n    tag_555:\n        /* \"#utility.yul\":1201:1338   */\n      swap3\n      swap2\n      pop\n      pop\n      jump\t// out\n        /* \"#utility.yul\":1344:1671   */\n    tag_53:\n        /* \"#utility.yul\":1402:1408   */\n      0x00\n        /* \"#utility.yul\":1451:1453   */\n      0x20\n        /* \"#utility.yul\":1439:1448   */\n      dup3\n        /* \"#utility.yul\":1430:1437   */\n      dup5\n        /* \"#utility.yul\":1426:1449   */\n      sub\n        /* \"#utility.yul\":1422:1454   */\n      slt\n        /* \"#utility.yul\":1419:1538   */\n      iszero\n      tag_557\n      jumpi\n        /* \"#utility.yul\":1457:1536   */\n      tag_558\n      tag_501\n      jump\t// in\n    tag_558:\n        /* \"#utility.yul\":1419:1538   */\n    tag_557:\n        /* \"#utility.yul\":1577:1578   */\n      0x00\n        /* \"#utility.yul\":1602:1654   */\n      tag_559\n        /* \"#utility.yul\":1646:1653   */\n      dup5\n        /* \"#utility.yul\":1637:1643   */\n      dup3\n        /* \"#utility.yul\":1626:1635   */\n      dup6\n        /* \"#utility.yul\":1622:1644   */\n      add\n        /* \"#utility.yul\":1602:1654   */\n      tag_505\n      jump\t// in\n    tag_559:\n        /* \"#utility.yul\":1592:1654   */\n      swap2\n      pop\n        /* \"#utility.yul\":1548:1664   */\n      pop\n        /* \"#utility.yul\":1344:1671   */\n      swap3\n      swap2\n      pop\n      pop\n      jump\t// out\n        /* \"#utility.yul\":1677:1767   */\n    tag_506:\n        /* \"#utility.yul\":1711:1718   */\n      0x00\n        /* \"#utility.yul\":1754:1759   */\n      dup2\n        /* \"#utility.yul\":1747:1760   */\n      iszero\n        /* \"#utility.yul\":1740:1761   */\n      iszero\n        /* \"#utility.yul\":1729:1761   */\n      swap1\n      pop\n        /* \"#utility.yul\":1677:1767   */\n      swap2\n      swap1\n      pop\n      jump\t// out\n        /* \"#utility.yul\":1773:1882   */\n    tag_507:\n        /* \"#utility.yul\":1854:1875   */\n      tag_562\n        /* \"#utility.yul\":1869:1874   */\n      dup2\n        /* \"#utility.yul\":1854:1875   */\n      tag_506\n      jump\t// in\n    tag_562:\n        /* \"#utility.yul\":1849:1852   */\n      dup3\n        /* \"#utility.yul\":1842:1876   */\n      mstore\n        /* \"#utility.yul\":1773:1882   */\n      pop\n      pop\n      jump\t// out\n        /* \"#utility.yul\":1888:2098   */\n    tag_56:\n        /* \"#utility.yul\":1975:1979   */\n      0x00\n        /* \"#utility.yul\":2013:2015   */\n      0x20\n        /* \"#utility.yul\":2002:2011   */\n      dup3\n        /* \"#utility.yul\":1998:2016   */\n      add\n        /* \"#utility.yul\":1990:2016   */\n      swap1\n      pop\n        /* \"#utility.yul\":2026:2091   */\n      tag_564\n        /* \"#utility.yul\":2088:2089   */\n      0x00\n        /* \"#utility.yul\":2077:2086   */\n      dup4\n        /* \"#utility.yul\":2073:2090   */\n      add\n        /* \"#utility.yul\":2064:2070   */\n      dup5\n        /* \"#utility.yul\":2026:2091   */\n      tag_507\n      jump\t// in\n    tag_564:\n        /* \"#utility.yul\":1888:2098   */\n      swap3\n      swap2\n      pop\n      pop\n      jump\t// out\n        /* \"#utility.yul\":2104:2181   */\n    tag_508:\n        /* \"#utility.yul\":2141:2148   */\n      0x00\n        /* \"#utility.yul\":2170:2175   */\n      dup2\n        /* \"#utility.yul\":2159:2175   */\n      swap1\n      pop\n        /* \"#utility.yul\":2104:2181   */\n      swap2\n      swap1\n      pop\n      jump\t// out\n        /* \"#utility.yul\":2187:2305   */\n    tag_509:\n        /* \"#utility.yul\":2274:2298   */\n      tag_567\n        /* \"#utility.yul\":2292:2297   */\n      dup2\n        /* \"#utility.yul\":2274:2298   */\n      tag_508\n      jump\t// in\n    tag_567:\n        /* \"#utility.yul\":2269:2272   */\n      dup3\n        /* \"#utility.yul\":2262:2299   */\n      mstore\n        /* \"#utility.yul\":2187:2305   */\n      pop\n      pop\n      jump\t// out\n        /* \"#utility.yul\":2311:2963   */\n    tag_61:\n        /* \"#utility.yul\":2510:2514   */\n      0x00\n        /* \"#utility.yul\":2548:2551   */\n      0xa0\n        /* \"#utility.yul\":2537:2546   */\n      dup3\n        /* \"#utility.yul\":2533:2552   */\n      add\n        /* \"#utility.yul\":2525:2552   */\n      swap1\n      pop\n        /* \"#utility.yul\":2562:2627   */\n      tag_569\n        /* \"#utility.yul\":2624:2625   */\n      0x00\n        /* \"#utility.yul\":2613:2622   */\n      dup4\n        /* \"#utility.yul\":2609:2626   */\n      add\n        /* \"#utility.yul\":2600:2606   */\n      dup9\n        /* \"#utility.yul\":2562:2627   */\n      tag_507\n      jump\t// in\n    tag_569:\n        /* \"#utility.yul\":2637:2709   */\n      tag_570\n        /* \"#utility.yul\":2705:2707   */\n      0x20\n        /* \"#utility.yul\":2694:2703   */\n      dup4\n        /* \"#utility.yul\":2690:2708   */\n      add\n        /* \"#utility.yul\":2681:2687   */\n      dup8\n        /* \"#utility.yul\":2637:2709   */\n      tag_509\n      jump\t// in\n    tag_570:\n        /* \"#utility.yul\":2719:2791   */\n      tag_571\n        /* \"#utility.yul\":2787:2789   */\n      0x40\n        /* \"#utility.yul\":2776:2785   */\n      dup4\n        /* \"#utility.yul\":2772:2790   */\n      add\n        /* \"#utility.yul\":2763:2769   */\n      dup7\n        /* \"#utility.yul\":2719:2791   */\n      tag_509\n      jump\t// in\n    tag_571:\n        /* \"#utility.yul\":2801:2873   */\n      tag_572\n        /* \"#utility.yul\":2869:2871   */\n      0x60\n        /* \"#utility.yul\":2858:2867   */\n      dup4\n        /* \"#utility.yul\":2854:2872   */\n      add\n        /* \"#utility.yul\":2845:2851   */\n      dup6\n        /* \"#utility.yul\":2801:2873   */\n      tag_509\n      jump\t// in\n    tag_572:\n        /* \"#utility.yul\":2883:2956   */\n      tag_573\n        /* \"#utility.yul\":2951:2954   */\n      0x80\n        /* \"#utility.yul\":2940:2949   */\n      dup4\n        /* \"#utility.yul\":2936:2955   */\n      add\n        /* \"#utility.yul\":2927:2933   */\n      dup5\n        /* \"#utility.yul\":2883:2956   */\n      tag_499\n      jump\t// in\n    tag_573:\n        /* \"#utility.yul\":2311:2963   */\n      swap7\n      swap6\n      pop\n      pop\n      pop\n      pop\n      pop\n      pop\n      jump\t// out\n        /* \"#utility.yul\":2969:3046   */\n    tag_510:\n        /* \"#utility.yul\":3006:3013   */\n      0x00\n        /* \"#utility.yul\":3035:3040   */\n      dup2\n        /* \"#utility.yul\":3024:3040   */\n      swap1\n      pop\n        /* \"#utility.yul\":2969:3046   */\n      swap2\n      swap1\n      pop\n      jump\t// out\n        /* \"#utility.yul\":3052:3174   */\n    tag_511:\n        /* \"#utility.yul\":3125:3149   */\n      tag_576\n        /* \"#utility.yul\":3143:3148   */\n      dup2\n        /* \"#utility.yul\":3125:3149   */\n      tag_510\n      jump\t// in\n    tag_576:\n        /* \"#utility.yul\":3118:3123   */\n      dup2\n        /* \"#utility.yul\":3115:3150   */\n      eq\n        /* \"#utility.yul\":3105:3168   */\n      tag_577\n      jumpi\n        /* \"#utility.yul\":3164:3165   */\n      0x00\n        /* \"#utility.yul\":3161:3162   */\n      0x00\n        /* \"#utility.yul\":3154:3166   */\n      revert\n        /* \"#utility.yul\":3105:3168   */\n    tag_577:\n        /* \"#utility.yul\":3052:3174   */\n      pop\n      jump\t// out\n        /* \"#utility.yul\":3180:3319   */\n    tag_512:\n        /* \"#utility.yul\":3226:3231   */\n      0x00\n        /* \"#utility.yul\":3264:3270   */\n      dup2\n        /* \"#utility.yul\":3251:3271   */\n      calldataload\n        /* \"#utility.yul\":3242:3271   */\n      swap1\n      pop\n        /* \"#utility.yul\":3280:3313   */\n      tag_579\n        /* \"#utility.yul\":3307:3312   */\n      dup2\n        /* \"#utility.yul\":3280:3313   */\n      tag_511\n      jump\t// in\n    tag_579:\n        /* \"#utility.yul\":3180:3319   */\n      swap3\n      swap2\n      pop\n      pop\n      jump\t// out\n        /* \"#utility.yul\":3325:3654   */\n    tag_70:\n        /* \"#utility.yul\":3384:3390   */\n      0x00\n        /* \"#utility.yul\":3433:3435   */\n      0x20\n        /* \"#utility.yul\":3421:3430   */\n      dup3\n        /* \"#utility.yul\":3412:3419   */\n      dup5\n        /* \"#utility.yul\":3408:3431   */\n      sub\n        /* \"#utility.yul\":3404:3436   */\n      slt\n        /* \"#utility.yul\":3401:3520   */\n      iszero\n      tag_581\n      jumpi\n        /* \"#utility.yul\":3439:3518   */\n      tag_582\n      tag_501\n      jump\t// in\n    tag_582:\n        /* \"#utility.yul\":3401:3520   */\n    tag_581:\n        /* \"#utility.yul\":3559:3560   */\n      0x00\n        /* \"#utility.yul\":3584:3637   */\n      tag_583\n        /* \"#utility.yul\":3629:3636   */\n      dup5\n        /* \"#utility.yul\":3620:3626   */\n      dup3\n        /* \"#utility.yul\":3609:3618   */\n      dup6\n        /* \"#utility.yul\":3605:3627   */\n      add\n        /* \"#utility.yul\":3584:3637   */\n      tag_512\n      jump\t// in\n    tag_583:\n        /* \"#utility.yul\":3574:3637   */\n      swap2\n      pop\n        /* \"#utility.yul\":3530:3647   */\n      pop\n        /* \"#utility.yul\":3325:3654   */\n      swap3\n      swap2\n      pop\n      pop\n      jump\t// out\n        /* \"#utility.yul\":3660:3778   */\n    tag_513:\n        /* \"#utility.yul\":3747:3771   */\n      tag_585\n        /* \"#utility.yul\":3765:3770   */\n      dup2\n        /* \"#utility.yul\":3747:3771   */\n      tag_510\n      jump\t// in\n    tag_585:\n        /* \"#utility.yul\":3742:3745   */\n      dup3\n        /* \"#utility.yul\":3735:3772   */\n      mstore\n        /* \"#utility.yul\":3660:3778   */\n      pop\n      pop\n      jump\t// out\n        /* \"#utility.yul\":3784:4006   */\n    tag_73:\n        /* \"#utility.yul\":3877:3881   */\n      0x00\n        /* \"#utility.yul\":3915:3917   */\n      0x20\n        /* \"#utility.yul\":3904:3913   */\n      dup3\n        /* \"#utility.yul\":3900:3918   */\n      add\n        /* \"#utility.yul\":3892:3918   */\n      swap1\n      pop\n        /* \"#utility.yul\":3928:3999   */\n      tag_587\n        /* \"#utility.yul\":3996:3997   */\n      0x00\n        /* \"#utility.yul\":3985:3994   */\n      dup4\n        /* \"#utility.yul\":3981:3998   */\n      add\n        /* \"#utility.yul\":3972:3978   */\n      dup5\n        /* \"#utility.yul\":3928:3999   */\n      tag_513\n      jump\t// in\n    tag_587:\n        /* \"#utility.yul\":3784:4006   */\n      swap3\n      swap2\n      pop\n      pop\n      jump\t// out\n        /* \"#utility.yul\":4012:4134   */\n    tag_514:\n        /* \"#utility.yul\":4085:4109   */\n      tag_589\n        /* \"#utility.yul\":4103:4108   */\n      dup2\n        /* \"#utility.yul\":4085:4109   */\n      tag_498\n      jump\t// in\n    tag_589:\n        /* \"#utility.yul\":4078:4083   */\n      dup2\n        /* \"#utility.yul\":4075:4110   */\n      eq\n        /* \"#utility.yul\":4065:4128   */\n      tag_590\n      jumpi\n        /* \"#utility.yul\":4124:4125   */\n      0x00\n        /* \"#utility.yul\":4121:4122   */\n      0x00\n        /* \"#utility.yul\":4114:4126   */\n      revert\n        /* \"#utility.yul\":4065:4128   */\n    tag_590:\n        /* \"#utility.yul\":4012:4134   */\n      pop\n      jump\t// out\n        /* \"#utility.yul\":4140:4279   */\n    tag_515:\n        /* \"#utility.yul\":4186:4191   */\n      0x00\n        /* \"#utility.yul\":4224:4230   */\n      dup2\n        /* \"#utility.yul\":4211:4231   */\n      calldataload\n        /* \"#utility.yul\":4202:4231   */\n      swap1\n      pop\n        /* \"#utility.yul\":4240:4273   */\n      tag_592\n        /* \"#utility.yul\":4267:4272   */\n      dup2\n        /* \"#utility.yul\":4240:4273   */\n      tag_514\n      jump\t// in\n    tag_592:\n        /* \"#utility.yul\":4140:4279   */\n      swap3\n      swap2\n      pop\n      pop\n      jump\t// out\n        /* \"#utility.yul\":4285:4759   */\n    tag_77:\n        /* \"#utility.yul\":4353:4359   */\n      0x00\n        /* \"#utility.yul\":4361:4367   */\n      0x00\n        /* \"#utility.yul\":4410:4412   */\n      0x40\n        /* \"#utility.yul\":4398:4407   */\n      dup4\n        /* \"#utility.yul\":4389:4396   */\n      dup6\n        /* \"#utility.yul\":4385:4408   */\n      sub\n        /* \"#utility.yul\":4381:4413   */\n      slt\n        /* \"#utility.yul\":4378:4497   */\n      iszero\n      tag_594\n      jumpi\n        /* \"#utility.yul\":4416:4495   */\n      tag_595\n      tag_501\n      jump\t// in\n    tag_595:\n        /* \"#utility.yul\":4378:4497   */\n    tag_594:\n        /* \"#utility.yul\":4536:4537   */\n      0x00\n        /* \"#utility.yul\":4561:4614   */\n      tag_596\n        /* \"#utility.yul\":4606:4613   */\n      dup6\n        /* \"#utility.yul\":4597:4603   */\n      dup3\n        /* \"#utility.yul\":4586:4595   */\n      dup7\n        /* \"#utility.yul\":4582:4604   */\n      add\n        /* \"#utility.yul\":4561:4614   */\n      tag_512\n      jump\t// in\n    tag_596:\n        /* \"#utility.yul\":4551:4614   */\n      swap3\n      pop\n        /* \"#utility.yul\":4507:4624   */\n      pop\n        /* \"#utility.yul\":4663:4665   */\n      0x20\n        /* \"#utility.yul\":4689:4742   */\n      tag_597\n        /* \"#utility.yul\":4734:4741   */\n      dup6\n        /* \"#utility.yul\":4725:4731   */\n      dup3\n        /* \"#utility.yul\":4714:4723   */\n      dup7\n        /* \"#utility.yul\":4710:4732   */\n      add\n        /* \"#utility.yul\":4689:4742   */\n      tag_515\n      jump\t// in\n    tag_597:\n        /* \"#utility.yul\":4679:4742   */\n      swap2\n      pop\n        /* \"#utility.yul\":4634:4752   */\n      pop\n        /* \"#utility.yul\":4285:4759   */\n      swap3\n      pop\n      swap3\n      swap1\n      pop\n      jump\t// out\n        /* \"#utility.yul\":4765:4987   */\n    tag_90:\n        /* \"#utility.yul\":4858:4862   */\n      0x00\n        /* \"#utility.yul\":4896:4898   */\n      0x20\n        /* \"#utility.yul\":4885:4894   */\n      dup3\n        /* \"#utility.yul\":4881:4899   */\n      add\n        /* \"#utility.yul\":4873:4899   */\n      swap1\n      pop\n        /* \"#utility.yul\":4909:4980   */\n      tag_599\n        /* \"#utility.yul\":4977:4978   */\n      0x00\n        /* \"#utility.yul\":4966:4975   */\n      dup4\n        /* \"#utility.yul\":4962:4979   */\n      add\n        /* \"#utility.yul\":4953:4959   */\n      dup5\n        /* \"#utility.yul\":4909:4980   */\n      tag_509\n      jump\t// in\n    tag_599:\n        /* \"#utility.yul\":4765:4987   */\n      swap3\n      swap2\n      pop\n      pop\n      jump\t// out\n        /* \"#utility.yul\":4993:5115   */\n    tag_516:\n        /* \"#utility.yul\":5066:5090   */\n      tag_601\n        /* \"#utility.yul\":5084:5089   */\n      dup2\n        /* \"#utility.yul\":5066:5090   */\n      tag_508\n      jump\t// in\n    tag_601:\n        /* \"#utility.yul\":5059:5064   */\n      dup2\n        /* \"#utility.yul\":5056:5091   */\n      eq\n        /* \"#utility.yul\":5046:5109   */\n      tag_602\n      jumpi\n        /* \"#utility.yul\":5105:5106   */\n      0x00\n        /* \"#utility.yul\":5102:5103   */\n      0x00\n        /* \"#utility.yul\":5095:5107   */\n      revert\n        /* \"#utility.yul\":5046:5109   */\n    tag_602:\n        /* \"#utility.yul\":4993:5115   */\n      pop\n      jump\t// out\n        /* \"#utility.yul\":5121:5260   */\n    tag_517:\n        /* \"#utility.yul\":5167:5172   */\n      0x00\n        /* \"#utility.yul\":5205:5211   */\n      dup2\n        /* \"#utility.yul\":5192:5212   */\n      calldataload\n        /* \"#utility.yul\":5183:5212   */\n      swap1\n      pop\n        /* \"#utility.yul\":5221:5254   */\n      tag_604\n        /* \"#utility.yul\":5248:5253   */\n      dup2\n        /* \"#utility.yul\":5221:5254   */\n      tag_516\n      jump\t// in\n    tag_604:\n        /* \"#utility.yul\":5121:5260   */\n      swap3\n      swap2\n      pop\n      pop\n      jump\t// out\n        /* \"#utility.yul\":5266:5595   */\n    tag_102:\n        /* \"#utility.yul\":5325:5331   */\n      0x00\n        /* \"#utility.yul\":5374:5376   */\n      0x20\n        /* \"#utility.yul\":5362:5371   */\n      dup3\n        /* \"#utility.yul\":5353:5360   */\n      dup5\n        /* \"#utility.yul\":5349:5372   */\n      sub\n        /* \"#utility.yul\":5345:5377   */\n      slt\n        /* \"#utility.yul\":5342:5461   */\n      iszero\n      tag_606\n      jumpi\n        /* \"#utility.yul\":5380:5459   */\n      tag_607\n      tag_501\n      jump\t// in\n    tag_607:\n        /* \"#utility.yul\":5342:5461   */\n    tag_606:\n        /* \"#utility.yul\":5500:5501   */\n      0x00\n        /* \"#utility.yul\":5525:5578   */\n      tag_608\n        /* \"#utility.yul\":5570:5577   */\n      dup5\n        /* \"#utility.yul\":5561:5567   */\n      dup3\n        /* \"#utility.yul\":5550:5559   */\n      dup6\n        /* \"#utility.yul\":5546:5568   */\n      add\n        /* \"#utility.yul\":5525:5578   */\n      tag_517\n      jump\t// in\n    tag_608:\n        /* \"#utility.yul\":5515:5578   */\n      swap2\n      pop\n        /* \"#utility.yul\":5471:5588   */\n      pop\n        /* \"#utility.yul\":5266:5595   */\n      swap3\n      swap2\n      pop\n      pop\n      jump\t// out\n        /* \"#utility.yul\":5601:5661   */\n    tag_518:\n        /* \"#utility.yul\":5629:5632   */\n      0x00\n        /* \"#utility.yul\":5650:5655   */\n      dup2\n        /* \"#utility.yul\":5643:5655   */\n      swap1\n      pop\n        /* \"#utility.yul\":5601:5661   */\n      swap2\n      swap1\n      pop\n      jump\t// out\n        /* \"#utility.yul\":5667:5809   */\n    tag_519:\n        /* \"#utility.yul\":5717:5726   */\n      0x00\n        /* \"#utility.yul\":5750:5803   */\n      tag_611\n        /* \"#utility.yul\":5768:5802   */\n      tag_612\n        /* \"#utility.yul\":5777:5801   */\n      tag_613\n        /* \"#utility.yul\":5795:5800   */\n      dup5\n        /* \"#utility.yul\":5777:5801   */\n      tag_497\n      jump\t// in\n    tag_613:\n        /* \"#utility.yul\":5768:5802   */\n      tag_518\n      jump\t// in\n    tag_612:\n        /* \"#utility.yul\":5750:5803   */\n      tag_497\n      jump\t// in\n    tag_611:\n        /* \"#utility.yul\":5737:5803   */\n      swap1\n      pop\n        /* \"#utility.yul\":5667:5809   */\n      swap2\n      swap1\n      pop\n      jump\t// out\n        /* \"#utility.yul\":5815:5941   */\n    tag_520:\n        /* \"#utility.yul\":5865:5874   */\n      0x00\n        /* \"#utility.yul\":5898:5935   */\n      tag_615\n        /* \"#utility.yul\":5929:5934   */\n      dup3\n        /* \"#utility.yul\":5898:5935   */\n      tag_519\n      jump\t// in\n    tag_615:\n        /* \"#utility.yul\":5885:5935   */\n      swap1\n      pop\n        /* \"#utility.yul\":5815:5941   */\n      swap2\n      swap1\n      pop\n      jump\t// out\n        /* \"#utility.yul\":5947:6101   */\n    tag_521:\n        /* \"#utility.yul\":6025:6034   */\n      0x00\n        /* \"#utility.yul\":6058:6095   */\n      tag_617\n        /* \"#utility.yul\":6089:6094   */\n      dup3\n        /* \"#utility.yul\":6058:6095   */\n      tag_520\n      jump\t// in\n    tag_617:\n        /* \"#utility.yul\":6045:6095   */\n      swap1\n      pop\n        /* \"#utility.yul\":5947:6101   */\n      swap2\n      swap1\n      pop\n      jump\t// out\n        /* \"#utility.yul\":6107:6294   */\n    tag_522:\n        /* \"#utility.yul\":6222:6287   */\n      tag_619\n        /* \"#utility.yul\":6281:6286   */\n      dup2\n        /* \"#utility.yul\":6222:6287   */\n      tag_521\n      jump\t// in\n    tag_619:\n        /* \"#utility.yul\":6217:6220   */\n      dup3\n        /* \"#utility.yul\":6210:6288   */\n      mstore\n        /* \"#utility.yul\":6107:6294   */\n      pop\n      pop\n      jump\t// out\n        /* \"#utility.yul\":6300:6578   */\n    tag_108:\n        /* \"#utility.yul\":6421:6425   */\n      0x00\n        /* \"#utility.yul\":6459:6461   */\n      0x20\n        /* \"#utility.yul\":6448:6457   */\n      dup3\n        /* \"#utility.yul\":6444:6462   */\n      add\n        /* \"#utility.yul\":6436:6462   */\n      swap1\n      pop\n        /* \"#utility.yul\":6472:6571   */\n      tag_621\n        /* \"#utility.yul\":6568:6569   */\n      0x00\n        /* \"#utility.yul\":6557:6566   */\n      dup4\n        /* \"#utility.yul\":6553:6570   */\n      add\n        /* \"#utility.yul\":6544:6550   */\n      dup5\n        /* \"#utility.yul\":6472:6571   */\n      tag_522\n      jump\t// in\n    tag_621:\n        /* \"#utility.yul\":6300:6578   */\n      swap3\n      swap2\n      pop\n      pop\n      jump\t// out\n        /* \"#utility.yul\":6584:6913   */\n    tag_119:\n        /* \"#utility.yul\":6643:6649   */\n      0x00\n        /* \"#utility.yul\":6692:6694   */\n      0x20\n        /* \"#utility.yul\":6680:6689   */\n      dup3\n        /* \"#utility.yul\":6671:6678   */\n      dup5\n        /* \"#utility.yul\":6667:6690   */\n      sub\n        /* \"#utility.yul\":6663:6695   */\n      slt\n        /* \"#utility.yul\":6660:6779   */\n      iszero\n      tag_623\n      jumpi\n        /* \"#utility.yul\":6698:6777   */\n      tag_624\n      tag_501\n      jump\t// in\n    tag_624:\n        /* \"#utility.yul\":6660:6779   */\n    tag_623:\n        /* \"#utility.yul\":6818:6819   */\n      0x00\n        /* \"#utility.yul\":6843:6896   */\n      tag_625\n        /* \"#utility.yul\":6888:6895   */\n      dup5\n        /* \"#utility.yul\":6879:6885   */\n      dup3\n        /* \"#utility.yul\":6868:6877   */\n      dup6\n        /* \"#utility.yul\":6864:6886   */\n      add\n        /* \"#utility.yul\":6843:6896   */\n      tag_515\n      jump\t// in\n    tag_625:\n        /* \"#utility.yul\":6833:6896   */\n      swap2\n      pop\n        /* \"#utility.yul\":6789:6906   */\n      pop\n        /* \"#utility.yul\":6584:6913   */\n      swap3\n      swap2\n      pop\n      pop\n      jump\t// out\n        /* \"#utility.yul\":6919:7393   */\n    tag_165:\n        /* \"#utility.yul\":6987:6993   */\n      0x00\n        /* \"#utility.yul\":6995:7001   */\n      0x00\n        /* \"#utility.yul\":7044:7046   */\n      0x40\n        /* \"#utility.yul\":7032:7041   */\n      dup4\n        /* \"#utility.yul\":7023:7030   */\n      dup6\n        /* \"#utility.yul\":7019:7042   */\n      sub\n        /* \"#utility.yul\":7015:7047   */\n      slt\n        /* \"#utility.yul\":7012:7131   */\n      iszero\n      tag_627\n      jumpi\n        /* \"#utility.yul\":7050:7129   */\n      tag_628\n      tag_501\n      jump\t// in\n    tag_628:\n        /* \"#utility.yul\":7012:7131   */\n    tag_627:\n        /* \"#utility.yul\":7170:7171   */\n      0x00\n        /* \"#utility.yul\":7195:7248   */\n      tag_629\n        /* \"#utility.yul\":7240:7247   */\n      dup6\n        /* \"#utility.yul\":7231:7237   */\n      dup3\n        /* \"#utility.yul\":7220:7229   */\n      dup7\n        /* \"#utility.yul\":7216:7238   */\n      add\n        /* \"#utility.yul\":7195:7248   */\n      tag_515\n      jump\t// in\n    tag_629:\n        /* \"#utility.yul\":7185:7248   */\n      swap3\n      pop\n        /* \"#utility.yul\":7141:7258   */\n      pop\n        /* \"#utility.yul\":7297:7299   */\n      0x20\n        /* \"#utility.yul\":7323:7376   */\n      tag_630\n        /* \"#utility.yul\":7368:7375   */\n      dup6\n        /* \"#utility.yul\":7359:7365   */\n      dup3\n        /* \"#utility.yul\":7348:7357   */\n      dup7\n        /* \"#utility.yul\":7344:7366   */\n      add\n        /* \"#utility.yul\":7323:7376   */\n      tag_512\n      jump\t// in\n    tag_630:\n        /* \"#utility.yul\":7313:7376   */\n      swap2\n      pop\n        /* \"#utility.yul\":7268:7386   */\n      pop\n        /* \"#utility.yul\":6919:7393   */\n      swap3\n      pop\n      swap3\n      swap1\n      pop\n      jump\t// out\n        /* \"#utility.yul\":7399:7873   */\n    tag_190:\n        /* \"#utility.yul\":7467:7473   */\n      0x00\n        /* \"#utility.yul\":7475:7481   */\n      0x00\n        /* \"#utility.yul\":7524:7526   */\n      0x40\n        /* \"#utility.yul\":7512:7521   */\n      dup4\n        /* \"#utility.yul\":7503:7510   */\n      dup6\n        /* \"#utility.yul\":7499:7522   */\n      sub\n        /* \"#utility.yul\":7495:7527   */\n      slt\n        /* \"#utility.yul\":7492:7611   */\n      iszero\n      tag_632\n      jumpi\n        /* \"#utility.yul\":7530:7609   */\n      tag_633\n      tag_501\n      jump\t// in\n    tag_633:\n        /* \"#utility.yul\":7492:7611   */\n    tag_632:\n        /* \"#utility.yul\":7650:7651   */\n      0x00\n        /* \"#utility.yul\":7675:7728   */\n      tag_634\n        /* \"#utility.yul\":7720:7727   */\n      dup6\n        /* \"#utility.yul\":7711:7717   */\n      dup3\n        /* \"#utility.yul\":7700:7709   */\n      dup7\n        /* \"#utility.yul\":7696:7718   */\n      add\n        /* \"#utility.yul\":7675:7728   */\n      tag_515\n      jump\t// in\n    tag_634:\n        /* \"#utility.yul\":7665:7728   */\n      swap3\n      pop\n        /* \"#utility.yul\":7621:7738   */\n      pop\n        /* \"#utility.yul\":7777:7779   */\n      0x20\n        /* \"#utility.yul\":7803:7856   */\n      tag_635\n        /* \"#utility.yul\":7848:7855   */\n      dup6\n        /* \"#utility.yul\":7839:7845   */\n      dup3\n        /* \"#utility.yul\":7828:7837   */\n      dup7\n        /* \"#utility.yul\":7824:7846   */\n      add\n        /* \"#utility.yul\":7803:7856   */\n      tag_515\n      jump\t// in\n    tag_635:\n        /* \"#utility.yul\":7793:7856   */\n      swap2\n      pop\n        /* \"#utility.yul\":7748:7866   */\n      pop\n        /* \"#utility.yul\":7399:7873   */\n      swap3\n      pop\n      swap3\n      swap1\n      pop\n      jump\t// out\n        /* \"#utility.yul\":7879:8059   */\n    tag_523:\n        /* \"#utility.yul\":7927:8004   */\n      0x4e487b7100000000000000000000000000000000000000000000000000000000\n        /* \"#utility.yul\":7924:7925   */\n      0x00\n        /* \"#utility.yul\":7917:8005   */\n      mstore\n        /* \"#utility.yul\":8024:8028   */\n      0x11\n        /* \"#utility.yul\":8021:8022   */\n      0x04\n        /* \"#utility.yul\":8014:8029   */\n      mstore\n        /* \"#utility.yul\":8048:8052   */\n      0x24\n        /* \"#utility.yul\":8045:8046   */\n      0x00\n        /* \"#utility.yul\":8038:8053   */\n      revert\n        /* \"#utility.yul\":8065:8256   */\n    tag_249:\n        /* \"#utility.yul\":8105:8108   */\n      0x00\n        /* \"#utility.yul\":8124:8144   */\n      tag_638\n        /* \"#utility.yul\":8142:8143   */\n      dup3\n        /* \"#utility.yul\":8124:8144   */\n      tag_508\n      jump\t// in\n    tag_638:\n        /* \"#utility.yul\":8119:8144   */\n      swap2\n      pop\n        /* \"#utility.yul\":8158:8178   */\n      tag_639\n        /* \"#utility.yul\":8176:8177   */\n      dup4\n        /* \"#utility.yul\":8158:8178   */\n      tag_508\n      jump\t// in\n    tag_639:\n        /* \"#utility.yul\":8153:8178   */\n      swap3\n      pop\n        /* \"#utility.yul\":8201:8202   */\n      dup3\n        /* \"#utility.yul\":8198:8199   */\n      dup3\n        /* \"#utility.yul\":8194:8203   */\n      add\n        /* \"#utility.yul\":8187:8203   */\n      swap1\n      pop\n        /* \"#utility.yul\":8222:8225   */\n      dup1\n        /* \"#utility.yul\":8219:8220   */\n      dup3\n        /* \"#utility.yul\":8216:8226   */\n      gt\n        /* \"#utility.yul\":8213:8249   */\n      iszero\n      tag_640\n      jumpi\n        /* \"#utility.yul\":8229:8247   */\n      tag_641\n      tag_523\n      jump\t// in\n    tag_641:\n        /* \"#utility.yul\":8213:8249   */\n    tag_640:\n        /* \"#utility.yul\":8065:8256   */\n      swap3\n      swap2\n      pop\n      pop\n      jump\t// out\n        /* \"#utility.yul\":8262:8594   */\n    tag_260:\n        /* \"#utility.yul\":8383:8387   */\n      0x00\n        /* \"#utility.yul\":8421:8423   */\n      0x40\n        /* \"#utility.yul\":8410:8419   */\n      dup3\n        /* \"#utility.yul\":8406:8424   */\n      add\n        /* \"#utility.yul\":8398:8424   */\n      swap1\n      pop\n        /* \"#utility.yul\":8434:8505   */\n      tag_643\n        /* \"#utility.yul\":8502:8503   */\n      0x00\n        /* \"#utility.yul\":8491:8500   */\n      dup4\n        /* \"#utility.yul\":8487:8504   */\n      add\n        /* \"#utility.yul\":8478:8484   */\n      dup6\n        /* \"#utility.yul\":8434:8505   */\n      tag_499\n      jump\t// in\n    tag_643:\n        /* \"#utility.yul\":8515:8587   */\n      tag_644\n        /* \"#utility.yul\":8583:8585   */\n      0x20\n        /* \"#utility.yul\":8572:8581   */\n      dup4\n        /* \"#utility.yul\":8568:8586   */\n      add\n        /* \"#utility.yul\":8559:8565   */\n      dup5\n        /* \"#utility.yul\":8515:8587   */\n      tag_499\n      jump\t// in\n    tag_644:\n        /* \"#utility.yul\":8262:8594   */\n      swap4\n      swap3\n      pop\n      pop\n      pop\n      jump\t// out\n        /* \"#utility.yul\":8600:8743   */\n    tag_524:\n        /* \"#utility.yul\":8657:8662   */\n      0x00\n        /* \"#utility.yul\":8688:8694   */\n      dup2\n        /* \"#utility.yul\":8682:8695   */\n      mload\n        /* \"#utility.yul\":8673:8695   */\n      swap1\n      pop\n        /* \"#utility.yul\":8704:8737   */\n      tag_646\n        /* \"#utility.yul\":8731:8736   */\n      dup2\n        /* \"#utility.yul\":8704:8737   */\n      tag_516\n      jump\t// in\n    tag_646:\n        /* \"#utility.yul\":8600:8743   */\n      swap3\n      swap2\n      pop\n      pop\n      jump\t// out\n        /* \"#utility.yul\":8749:9100   */\n    tag_264:\n        /* \"#utility.yul\":8819:8825   */\n      0x00\n        /* \"#utility.yul\":8868:8870   */\n      0x20\n        /* \"#utility.yul\":8856:8865   */\n      dup3\n        /* \"#utility.yul\":8847:8854   */\n      dup5\n        /* \"#utility.yul\":8843:8866   */\n      sub\n        /* \"#utility.yul\":8839:8871   */\n      slt\n        /* \"#utility.yul\":8836:8955   */\n      iszero\n      tag_648\n      jumpi\n        /* \"#utility.yul\":8874:8953   */\n      tag_649\n      tag_501\n      jump\t// in\n    tag_649:\n        /* \"#utility.yul\":8836:8955   */\n    tag_648:\n        /* \"#utility.yul\":8994:8995   */\n      0x00\n        /* \"#utility.yul\":9019:9083   */\n      tag_650\n        /* \"#utility.yul\":9075:9082   */\n      dup5\n        /* \"#utility.yul\":9066:9072   */\n      dup3\n        /* \"#utility.yul\":9055:9064   */\n      dup6\n        /* \"#utility.yul\":9051:9073   */\n      add\n        /* \"#utility.yul\":9019:9083   */\n      tag_524\n      jump\t// in\n    tag_650:\n        /* \"#utility.yul\":9009:9083   */\n      swap2\n      pop\n        /* \"#utility.yul\":8965:9093   */\n      pop\n        /* \"#utility.yul\":8749:9100   */\n      swap3\n      swap2\n      pop\n      pop\n      jump\t// out\n        /* \"#utility.yul\":9106:9224   */\n    tag_525:\n        /* \"#utility.yul\":9143:9150   */\n      0x00\n        /* \"#utility.yul\":9183:9217   */\n      0xffffffffffffffffffffffffffffffff\n        /* \"#utility.yul\":9176:9181   */\n      dup3\n        /* \"#utility.yul\":9172:9218   */\n      and\n        /* \"#utility.yul\":9161:9218   */\n      swap1\n      pop\n        /* \"#utility.yul\":9106:9224   */\n      swap2\n      swap1\n      pop\n      jump\t// out\n        /* \"#utility.yul\":9230:9431   */\n    tag_269:\n        /* \"#utility.yul\":9269:9272   */\n      0x00\n        /* \"#utility.yul\":9292:9316   */\n      tag_653\n        /* \"#utility.yul\":9310:9315   */\n      dup3\n        /* \"#utility.yul\":9292:9316   */\n      tag_525\n      jump\t// in\n    tag_653:\n        /* \"#utility.yul\":9283:9316   */\n      swap2\n      pop\n        /* \"#utility.yul\":9338:9372   */\n      0xffffffffffffffffffffffffffffffff\n        /* \"#utility.yul\":9331:9336   */\n      dup3\n        /* \"#utility.yul\":9328:9373   */\n      sub\n        /* \"#utility.yul\":9325:9396   */\n      tag_654\n      jumpi\n        /* \"#utility.yul\":9376:9394   */\n      tag_655\n      tag_523\n      jump\t// in\n    tag_655:\n        /* \"#utility.yul\":9325:9396   */\n    tag_654:\n        /* \"#utility.yul\":9423:9424   */\n      0x01\n        /* \"#utility.yul\":9416:9421   */\n      dup3\n        /* \"#utility.yul\":9412:9425   */\n      add\n        /* \"#utility.yul\":9405:9425   */\n      swap1\n      pop\n        /* \"#utility.yul\":9230:9431   */\n      swap2\n      swap1\n      pop\n      jump\t// out\n        /* \"#utility.yul\":9437:9542   */\n    tag_526:\n        /* \"#utility.yul\":9473:9480   */\n      0x00\n        /* \"#utility.yul\":9513:9535   */\n      0xffffffffffffffffffff\n        /* \"#utility.yul\":9506:9511   */\n      dup3\n        /* \"#utility.yul\":9502:9536   */\n      and\n        /* \"#utility.yul\":9491:9536   */\n      swap1\n      pop\n        /* \"#utility.yul\":9437:9542   */\n      swap2\n      swap1\n      pop\n      jump\t// out\n        /* \"#utility.yul\":9548:9668   */\n    tag_527:\n        /* \"#utility.yul\":9620:9643   */\n      tag_658\n        /* \"#utility.yul\":9637:9642   */\n      dup2\n        /* \"#utility.yul\":9620:9643   */\n      tag_526\n      jump\t// in\n    tag_658:\n        /* \"#utility.yul\":9613:9618   */\n      dup2\n        /* \"#utility.yul\":9610:9644   */\n      eq\n        /* \"#utility.yul\":9600:9662   */\n      tag_659\n      jumpi\n        /* \"#utility.yul\":9658:9659   */\n      0x00\n        /* \"#utility.yul\":9655:9656   */\n      0x00\n        /* \"#utility.yul\":9648:9660   */\n      revert\n        /* \"#utility.yul\":9600:9662   */\n    tag_659:\n        /* \"#utility.yul\":9548:9668   */\n      pop\n      jump\t// out\n        /* \"#utility.yul\":9674:9815   */\n    tag_528:\n        /* \"#utility.yul\":9730:9735   */\n      0x00\n        /* \"#utility.yul\":9761:9767   */\n      dup2\n        /* \"#utility.yul\":9755:9768   */\n      mload\n        /* \"#utility.yul\":9746:9768   */\n      swap1\n      pop\n        /* \"#utility.yul\":9777:9809   */\n      tag_661\n        /* \"#utility.yul\":9803:9808   */\n      dup2\n        /* \"#utility.yul\":9777:9809   */\n      tag_527\n      jump\t// in\n    tag_661:\n        /* \"#utility.yul\":9674:9815   */\n      swap3\n      swap2\n      pop\n      pop\n      jump\t// out\n        /* \"#utility.yul\":9821:9897   */\n    tag_529:\n        /* \"#utility.yul\":9857:9864   */\n      0x00\n        /* \"#utility.yul\":9886:9891   */\n      dup2\n        /* \"#utility.yul\":9875:9891   */\n      swap1\n      pop\n        /* \"#utility.yul\":9821:9897   */\n      swap2\n      swap1\n      pop\n      jump\t// out\n        /* \"#utility.yul\":9903:10023   */\n    tag_530:\n        /* \"#utility.yul\":9975:9998   */\n      tag_664\n        /* \"#utility.yul\":9992:9997   */\n      dup2\n        /* \"#utility.yul\":9975:9998   */\n      tag_529\n      jump\t// in\n    tag_664:\n        /* \"#utility.yul\":9968:9973   */\n      dup2\n        /* \"#utility.yul\":9965:9999   */\n      eq\n        /* \"#utility.yul\":9955:10017   */\n      tag_665\n      jumpi\n        /* \"#utility.yul\":10013:10014   */\n      0x00\n        /* \"#utility.yul\":10010:10011   */\n      0x00\n        /* \"#utility.yul\":10003:10015   */\n      revert\n        /* \"#utility.yul\":9955:10017   */\n    tag_665:\n        /* \"#utility.yul\":9903:10023   */\n      pop\n      jump\t// out\n        /* \"#utility.yul\":10029:10170   */\n    tag_531:\n        /* \"#utility.yul\":10085:10090   */\n      0x00\n        /* \"#utility.yul\":10116:10122   */\n      dup2\n        /* \"#utility.yul\":10110:10123   */\n      mload\n        /* \"#utility.yul\":10101:10123   */\n      swap1\n      pop\n        /* \"#utility.yul\":10132:10164   */\n      tag_667\n        /* \"#utility.yul\":10158:10163   */\n      dup2\n        /* \"#utility.yul\":10132:10164   */\n      tag_530\n      jump\t// in\n    tag_667:\n        /* \"#utility.yul\":10029:10170   */\n      swap3\n      swap2\n      pop\n      pop\n      jump\t// out\n        /* \"#utility.yul\":10176:11147   */\n    tag_293:\n        /* \"#utility.yul\":10279:10285   */\n      0x00\n        /* \"#utility.yul\":10287:10293   */\n      0x00\n        /* \"#utility.yul\":10295:10301   */\n      0x00\n        /* \"#utility.yul\":10303:10309   */\n      0x00\n        /* \"#utility.yul\":10311:10317   */\n      0x00\n        /* \"#utility.yul\":10360:10363   */\n      0xa0\n        /* \"#utility.yul\":10348:10357   */\n      dup7\n        /* \"#utility.yul\":10339:10346   */\n      dup9\n        /* \"#utility.yul\":10335:10358   */\n      sub\n        /* \"#utility.yul\":10331:10364   */\n      slt\n        /* \"#utility.yul\":10328:10448   */\n      iszero\n      tag_669\n      jumpi\n        /* \"#utility.yul\":10367:10446   */\n      tag_670\n      tag_501\n      jump\t// in\n    tag_670:\n        /* \"#utility.yul\":10328:10448   */\n    tag_669:\n        /* \"#utility.yul\":10487:10488   */\n      0x00\n        /* \"#utility.yul\":10512:10575   */\n      tag_671\n        /* \"#utility.yul\":10567:10574   */\n      dup9\n        /* \"#utility.yul\":10558:10564   */\n      dup3\n        /* \"#utility.yul\":10547:10556   */\n      dup10\n        /* \"#utility.yul\":10543:10565   */\n      add\n        /* \"#utility.yul\":10512:10575   */\n      tag_528\n      jump\t// in\n    tag_671:\n        /* \"#utility.yul\":10502:10575   */\n      swap6\n      pop\n        /* \"#utility.yul\":10458:10585   */\n      pop\n        /* \"#utility.yul\":10624:10626   */\n      0x20\n        /* \"#utility.yul\":10650:10713   */\n      tag_672\n        /* \"#utility.yul\":10705:10712   */\n      dup9\n        /* \"#utility.yul\":10696:10702   */\n      dup3\n        /* \"#utility.yul\":10685:10694   */\n      dup10\n        /* \"#utility.yul\":10681:10703   */\n      add\n        /* \"#utility.yul\":10650:10713   */\n      tag_531\n      jump\t// in\n    tag_672:\n        /* \"#utility.yul\":10640:10713   */\n      swap5\n      pop\n        /* \"#utility.yul\":10595:10723   */\n      pop\n        /* \"#utility.yul\":10762:10764   */\n      0x40\n        /* \"#utility.yul\":10788:10852   */\n      tag_673\n        /* \"#utility.yul\":10844:10851   */\n      dup9\n        /* \"#utility.yul\":10835:10841   */\n      dup3\n        /* \"#utility.yul\":10824:10833   */\n      dup10\n        /* \"#utility.yul\":10820:10842   */\n      add\n        /* \"#utility.yul\":10788:10852   */\n      tag_524\n      jump\t// in\n    tag_673:\n        /* \"#utility.yul\":10778:10852   */\n      swap4\n      pop\n        /* \"#utility.yul\":10733:10862   */\n      pop\n        /* \"#utility.yul\":10901:10903   */\n      0x60\n        /* \"#utility.yul\":10927:10991   */\n      tag_674\n        /* \"#utility.yul\":10983:10990   */\n      dup9\n        /* \"#utility.yul\":10974:10980   */\n      dup3\n        /* \"#utility.yul\":10963:10972   */\n      dup10\n        /* \"#utility.yul\":10959:10981   */\n      add\n        /* \"#utility.yul\":10927:10991   */\n      tag_524\n      jump\t// in\n    tag_674:\n        /* \"#utility.yul\":10917:10991   */\n      swap3\n      pop\n        /* \"#utility.yul\":10872:11001   */\n      pop\n        /* \"#utility.yul\":11040:11043   */\n      0x80\n        /* \"#utility.yul\":11067:11130   */\n      tag_675\n        /* \"#utility.yul\":11122:11129   */\n      dup9\n        /* \"#utility.yul\":11113:11119   */\n      dup3\n        /* \"#utility.yul\":11102:11111   */\n      dup10\n        /* \"#utility.yul\":11098:11120   */\n      add\n        /* \"#utility.yul\":11067:11130   */\n      tag_528\n      jump\t// in\n    tag_675:\n        /* \"#utility.yul\":11057:11130   */\n      swap2\n      pop\n        /* \"#utility.yul\":11011:11140   */\n      pop\n        /* \"#utility.yul\":10176:11147   */\n      swap3\n      swap6\n      pop\n      swap3\n      swap6\n      swap1\n      swap4\n      pop\n      jump\t// out\n        /* \"#utility.yul\":11153:11347   */\n    tag_303:\n        /* \"#utility.yul\":11193:11197   */\n      0x00\n        /* \"#utility.yul\":11213:11233   */\n      tag_677\n        /* \"#utility.yul\":11231:11232   */\n      dup3\n        /* \"#utility.yul\":11213:11233   */\n      tag_508\n      jump\t// in\n    tag_677:\n        /* \"#utility.yul\":11208:11233   */\n      swap2\n      pop\n        /* \"#utility.yul\":11247:11267   */\n      tag_678\n        /* \"#utility.yul\":11265:11266   */\n      dup4\n        /* \"#utility.yul\":11247:11267   */\n      tag_508\n      jump\t// in\n    tag_678:\n        /* \"#utility.yul\":11242:11267   */\n      swap3\n      pop\n        /* \"#utility.yul\":11291:11292   */\n      dup3\n        /* \"#utility.yul\":11288:11289   */\n      dup3\n        /* \"#utility.yul\":11284:11293   */\n      sub\n        /* \"#utility.yul\":11276:11293   */\n      swap1\n      pop\n        /* \"#utility.yul\":11315:11316   */\n      dup2\n        /* \"#utility.yul\":11309:11313   */\n      dup2\n        /* \"#utility.yul\":11306:11317   */\n      gt\n        /* \"#utility.yul\":11303:11340   */\n      iszero\n      tag_679\n      jumpi\n        /* \"#utility.yul\":11320:11338   */\n      tag_680\n      tag_523\n      jump\t// in\n    tag_680:\n        /* \"#utility.yul\":11303:11340   */\n    tag_679:\n        /* \"#utility.yul\":11153:11347   */\n      swap3\n      swap2\n      pop\n      pop\n      jump\t// out\n        /* \"#utility.yul\":11353:11763   */\n    tag_368:\n        /* \"#utility.yul\":11393:11400   */\n      0x00\n        /* \"#utility.yul\":11416:11436   */\n      tag_682\n        /* \"#utility.yul\":11434:11435   */\n      dup3\n        /* \"#utility.yul\":11416:11436   */\n      tag_508\n      jump\t// in\n    tag_682:\n        /* \"#utility.yul\":11411:11436   */\n      swap2\n      pop\n        /* \"#utility.yul\":11450:11470   */\n      tag_683\n        /* \"#utility.yul\":11468:11469   */\n      dup4\n        /* \"#utility.yul\":11450:11470   */\n      tag_508\n      jump\t// in\n    tag_683:\n        /* \"#utility.yul\":11445:11470   */\n      swap3\n      pop\n        /* \"#utility.yul\":11505:11506   */\n      dup3\n        /* \"#utility.yul\":11502:11503   */\n      dup3\n        /* \"#utility.yul\":11498:11507   */\n      mul\n        /* \"#utility.yul\":11527:11557   */\n      tag_684\n        /* \"#utility.yul\":11545:11556   */\n      dup2\n        /* \"#utility.yul\":11527:11557   */\n      tag_508\n      jump\t// in\n    tag_684:\n        /* \"#utility.yul\":11516:11557   */\n      swap2\n      pop\n        /* \"#utility.yul\":11706:11707   */\n      dup3\n        /* \"#utility.yul\":11697:11704   */\n      dup3\n        /* \"#utility.yul\":11693:11708   */\n      div\n        /* \"#utility.yul\":11690:11691   */\n      dup5\n        /* \"#utility.yul\":11687:11709   */\n      eq\n        /* \"#utility.yul\":11667:11668   */\n      dup4\n        /* \"#utility.yul\":11660:11669   */\n      iszero\n        /* \"#utility.yul\":11640:11723   */\n      or\n        /* \"#utility.yul\":11617:11756   */\n      tag_685\n      jumpi\n        /* \"#utility.yul\":11736:11754   */\n      tag_686\n      tag_523\n      jump\t// in\n    tag_686:\n        /* \"#utility.yul\":11617:11756   */\n    tag_685:\n        /* \"#utility.yul\":11401:11763   */\n      pop\n        /* \"#utility.yul\":11353:11763   */\n      swap3\n      swap2\n      pop\n      pop\n      jump\t// out\n        /* \"#utility.yul\":11769:11949   */\n    tag_532:\n        /* \"#utility.yul\":11817:11894   */\n      0x4e487b7100000000000000000000000000000000000000000000000000000000\n        /* \"#utility.yul\":11814:11815   */\n      0x00\n        /* \"#utility.yul\":11807:11895   */\n      mstore\n        /* \"#utility.yul\":11914:11918   */\n      0x12\n        /* \"#utility.yul\":11911:11912   */\n      0x04\n        /* \"#utility.yul\":11904:11919   */\n      mstore\n        /* \"#utility.yul\":11938:11942   */\n      0x24\n        /* \"#utility.yul\":11935:11936   */\n      0x00\n        /* \"#utility.yul\":11928:11943   */\n      revert\n        /* \"#utility.yul\":11955:12140   */\n    tag_370:\n        /* \"#utility.yul\":11995:11996   */\n      0x00\n        /* \"#utility.yul\":12012:12032   */\n      tag_689\n        /* \"#utility.yul\":12030:12031   */\n      dup3\n        /* \"#utility.yul\":12012:12032   */\n      tag_508\n      jump\t// in\n    tag_689:\n        /* \"#utility.yul\":12007:12032   */\n      swap2\n      pop\n        /* \"#utility.yul\":12046:12066   */\n      tag_690\n        /* \"#utility.yul\":12064:12065   */\n      dup4\n        /* \"#utility.yul\":12046:12066   */\n      tag_508\n      jump\t// in\n    tag_690:\n        /* \"#utility.yul\":12041:12066   */\n      swap3\n      pop\n        /* \"#utility.yul\":12085:12086   */\n      dup3\n        /* \"#utility.yul\":12075:12110   */\n      tag_691\n      jumpi\n        /* \"#utility.yul\":12090:12108   */\n      tag_692\n      tag_532\n      jump\t// in\n    tag_692:\n        /* \"#utility.yul\":12075:12110   */\n    tag_691:\n        /* \"#utility.yul\":12132:12133   */\n      dup3\n        /* \"#utility.yul\":12129:12130   */\n      dup3\n        /* \"#utility.yul\":12125:12134   */\n      div\n        /* \"#utility.yul\":12120:12134   */\n      swap1\n      pop\n        /* \"#utility.yul\":11955:12140   */\n      swap3\n      swap2\n      pop\n      pop\n      jump\t// out\n        /* \"#utility.yul\":12146:12588   */\n    tag_415:\n        /* \"#utility.yul\":12295:12299   */\n      0x00\n        /* \"#utility.yul\":12333:12335   */\n      0x60\n        /* \"#utility.yul\":12322:12331   */\n      dup3\n        /* \"#utility.yul\":12318:12336   */\n      add\n        /* \"#utility.yul\":12310:12336   */\n      swap1\n      pop\n        /* \"#utility.yul\":12346:12417   */\n      tag_694\n        /* \"#utility.yul\":12414:12415   */\n      0x00\n        /* \"#utility.yul\":12403:12412   */\n      dup4\n        /* \"#utility.yul\":12399:12416   */\n      add\n        /* \"#utility.yul\":12390:12396   */\n      dup7\n        /* \"#utility.yul\":12346:12417   */\n      tag_499\n      jump\t// in\n    tag_694:\n        /* \"#utility.yul\":12427:12499   */\n      tag_695\n        /* \"#utility.yul\":12495:12497   */\n      0x20\n        /* \"#utility.yul\":12484:12493   */\n      dup4\n        /* \"#utility.yul\":12480:12498   */\n      add\n        /* \"#utility.yul\":12471:12477   */\n      dup6\n        /* \"#utility.yul\":12427:12499   */\n      tag_499\n      jump\t// in\n    tag_695:\n        /* \"#utility.yul\":12509:12581   */\n      tag_696\n        /* \"#utility.yul\":12577:12579   */\n      0x40\n        /* \"#utility.yul\":12566:12575   */\n      dup4\n        /* \"#utility.yul\":12562:12580   */\n      add\n        /* \"#utility.yul\":12553:12559   */\n      dup5\n        /* \"#utility.yul\":12509:12581   */\n      tag_509\n      jump\t// in\n    tag_696:\n        /* \"#utility.yul\":12146:12588   */\n      swap5\n      swap4\n      pop\n      pop\n      pop\n      pop\n      jump\t// out\n        /* \"#utility.yul\":12594:12926   */\n    tag_435:\n        /* \"#utility.yul\":12715:12719   */\n      0x00\n        /* \"#utility.yul\":12753:12755   */\n      0x40\n        /* \"#utility.yul\":12742:12751   */\n      dup3\n        /* \"#utility.yul\":12738:12756   */\n      add\n        /* \"#utility.yul\":12730:12756   */\n      swap1\n      pop\n        /* \"#utility.yul\":12766:12837   */\n      tag_698\n        /* \"#utility.yul\":12834:12835   */\n      0x00\n        /* \"#utility.yul\":12823:12832   */\n      dup4\n        /* \"#utility.yul\":12819:12836   */\n      add\n        /* \"#utility.yul\":12810:12816   */\n      dup6\n        /* \"#utility.yul\":12766:12837   */\n      tag_499\n      jump\t// in\n    tag_698:\n        /* \"#utility.yul\":12847:12919   */\n      tag_699\n        /* \"#utility.yul\":12915:12917   */\n      0x20\n        /* \"#utility.yul\":12904:12913   */\n      dup4\n        /* \"#utility.yul\":12900:12918   */\n      add\n        /* \"#utility.yul\":12891:12897   */\n      dup5\n        /* \"#utility.yul\":12847:12919   */\n      tag_509\n      jump\t// in\n    tag_699:\n        /* \"#utility.yul\":12594:12926   */\n      swap4\n      swap3\n      pop\n      pop\n      pop\n      jump\t// out\n        /* \"#utility.yul\":12932:13079   */\n    tag_533:\n        /* \"#utility.yul\":13033:13044   */\n      0x00\n        /* \"#utility.yul\":13070:13073   */\n      dup2\n        /* \"#utility.yul\":13055:13073   */\n      swap1\n      pop\n        /* \"#utility.yul\":12932:13079   */\n      swap3\n      swap2\n      pop\n      pop\n      jump\t// out\n        /* \"#utility.yul\":13085:13199   */\n    tag_534:\n      pop\n      jump\t// out\n        /* \"#utility.yul\":13205:13603   */\n    tag_535:\n        /* \"#utility.yul\":13364:13367   */\n      0x00\n        /* \"#utility.yul\":13385:13468   */\n      tag_703\n        /* \"#utility.yul\":13466:13467   */\n      0x00\n        /* \"#utility.yul\":13461:13464   */\n      dup4\n        /* \"#utility.yul\":13385:13468   */\n      tag_533\n      jump\t// in\n    tag_703:\n        /* \"#utility.yul\":13378:13468   */\n      swap2\n      pop\n        /* \"#utility.yul\":13477:13570   */\n      tag_704\n        /* \"#utility.yul\":13566:13569   */\n      dup3\n        /* \"#utility.yul\":13477:13570   */\n      tag_534\n      jump\t// in\n    tag_704:\n        /* \"#utility.yul\":13595:13596   */\n      0x00\n        /* \"#utility.yul\":13590:13593   */\n      dup3\n        /* \"#utility.yul\":13586:13597   */\n      add\n        /* \"#utility.yul\":13579:13597   */\n      swap1\n      pop\n        /* \"#utility.yul\":13205:13603   */\n      swap2\n      swap1\n      pop\n      jump\t// out\n        /* \"#utility.yul\":13609:13988   */\n    tag_443:\n        /* \"#utility.yul\":13793:13796   */\n      0x00\n        /* \"#utility.yul\":13815:13962   */\n      tag_706\n        /* \"#utility.yul\":13958:13961   */\n      dup3\n        /* \"#utility.yul\":13815:13962   */\n      tag_535\n      jump\t// in\n    tag_706:\n        /* \"#utility.yul\":13808:13962   */\n      swap2\n      pop\n        /* \"#utility.yul\":13979:13982   */\n      dup2\n        /* \"#utility.yul\":13972:13982   */\n      swap1\n      pop\n        /* \"#utility.yul\":13609:13988   */\n      swap2\n      swap1\n      pop\n      jump\t// out\n        /* \"#utility.yul\":13994:14326   */\n    tag_482:\n        /* \"#utility.yul\":14115:14119   */\n      0x00\n        /* \"#utility.yul\":14153:14155   */\n      0x40\n        /* \"#utility.yul\":14142:14151   */\n      dup3\n        /* \"#utility.yul\":14138:14156   */\n      add\n        /* \"#utility.yul\":14130:14156   */\n      swap1\n      pop\n        /* \"#utility.yul\":14166:14237   */\n      tag_708\n        /* \"#utility.yul\":14234:14235   */\n      0x00\n        /* \"#utility.yul\":14223:14232   */\n      dup4\n        /* \"#utility.yul\":14219:14236   */\n      add\n        /* \"#utility.yul\":14210:14216   */\n      dup6\n        /* \"#utility.yul\":14166:14237   */\n      tag_499\n      jump\t// in\n    tag_708:\n        /* \"#utility.yul\":14247:14319   */\n      tag_709\n        /* \"#utility.yul\":14315:14317   */\n      0x20\n        /* \"#utility.yul\":14304:14313   */\n      dup4\n        /* \"#utility.yul\":14300:14318   */\n      add\n        /* \"#utility.yul\":14291:14297   */\n      dup5\n        /* \"#utility.yul\":14247:14319   */\n      tag_513\n      jump\t// in\n    tag_709:\n        /* \"#utility.yul\":13994:14326   */\n      swap4\n      swap3\n      pop\n      pop\n      pop\n      jump\t// out\n        /* \"#utility.yul\":14332:14501   */\n    tag_536:\n        /* \"#utility.yul\":14416:14427   */\n      0x00\n        /* \"#utility.yul\":14450:14456   */\n      dup3\n        /* \"#utility.yul\":14445:14448   */\n      dup3\n        /* \"#utility.yul\":14438:14457   */\n      mstore\n        /* \"#utility.yul\":14490:14494   */\n      0x20\n        /* \"#utility.yul\":14485:14488   */\n      dup3\n        /* \"#utility.yul\":14481:14495   */\n      add\n        /* \"#utility.yul\":14466:14495   */\n      swap1\n      pop\n        /* \"#utility.yul\":14332:14501   */\n      swap3\n      swap2\n      pop\n      pop\n      jump\t// out\n        /* \"#utility.yul\":14507:14688   */\n    tag_537:\n        /* \"#utility.yul\":14647:14680   */\n      0x5265656e7472616e637947756172643a207265656e7472616e742063616c6c00\n        /* \"#utility.yul\":14643:14644   */\n      0x00\n        /* \"#utility.yul\":14635:14641   */\n      dup3\n        /* \"#utility.yul\":14631:14645   */\n      add\n        /* \"#utility.yul\":14624:14681   */\n      mstore\n        /* \"#utility.yul\":14507:14688   */\n      pop\n      jump\t// out\n        /* \"#utility.yul\":14694:15060   */\n    tag_538:\n        /* \"#utility.yul\":14836:14839   */\n      0x00\n        /* \"#utility.yul\":14857:14924   */\n      tag_713\n        /* \"#utility.yul\":14921:14923   */\n      0x1f\n        /* \"#utility.yul\":14916:14919   */\n      dup4\n        /* \"#utility.yul\":14857:14924   */\n      tag_536\n      jump\t// in\n    tag_713:\n        /* \"#utility.yul\":14850:14924   */\n      swap2\n      pop\n        /* \"#utility.yul\":14933:15026   */\n      tag_714\n        /* \"#utility.yul\":15022:15025   */\n      dup3\n        /* \"#utility.yul\":14933:15026   */\n      tag_537\n      jump\t// in\n    tag_714:\n        /* \"#utility.yul\":15051:15053   */\n      0x20\n        /* \"#utility.yul\":15046:15049   */\n      dup3\n        /* \"#utility.yul\":15042:15054   */\n      add\n        /* \"#utility.yul\":15035:15054   */\n      swap1\n      pop\n        /* \"#utility.yul\":14694:15060   */\n      swap2\n      swap1\n      pop\n      jump\t// out\n        /* \"#utility.yul\":15066:15485   */\n    tag_492:\n        /* \"#utility.yul\":15232:15236   */\n      0x00\n        /* \"#utility.yul\":15270:15272   */\n      0x20\n        /* \"#utility.yul\":15259:15268   */\n      dup3\n        /* \"#utility.yul\":15255:15273   */\n      add\n        /* \"#utility.yul\":15247:15273   */\n      swap1\n      pop\n        /* \"#utility.yul\":15319:15328   */\n      dup2\n        /* \"#utility.yul\":15313:15317   */\n      dup2\n        /* \"#utility.yul\":15309:15329   */\n      sub\n        /* \"#utility.yul\":15305:15306   */\n      0x00\n        /* \"#utility.yul\":15294:15303   */\n      dup4\n        /* \"#utility.yul\":15290:15307   */\n      add\n        /* \"#utility.yul\":15283:15330   */\n      mstore\n        /* \"#utility.yul\":15347:15478   */\n      tag_716\n        /* \"#utility.yul\":15473:15477   */\n      dup2\n        /* \"#utility.yul\":15347:15478   */\n      tag_538\n      jump\t// in\n    tag_716:\n        /* \"#utility.yul\":15339:15478   */\n      swap1\n      pop\n        /* \"#utility.yul\":15066:15485   */\n      swap2\n      swap1\n      pop\n      jump\t// out\n\n    auxdata: 0xa2646970667358221220041dda017a479ecf9fe98d00358edd151f2f455c10ce9ff9c45917cbf58cfb8564736f6c634300081e0033\n}\n",
				"bytecode": {
					"linkReferences": {},
					"object": "60e06040525f6004555f60055f6101000a8154816fffffffffffffffffffffffffffffffff02191690836fffffffffffffffffffffffffffffffff1602179055505f600560106101000a8154816fffffffffffffffffffffffffffffffff02191690836fffffffffffffffffffffffffffffffff160217905550348015610084575f5ffd5b50604051613ba2380380613ba283398181016040528101906100a6919061067f565b8260015f819055505f73ffffffffffffffffffffffffffffffffffffffff168173ffffffffffffffffffffffffffffffffffffffff160361011e575f6040517f1e4fbdf70000000000000000000000000000000000000000000000000000000081526004016101159190610705565b60405180910390fd5b61012d816103ca60201b60201c565b505f850361017257846040517ff1fdfd2b000000000000000000000000000000000000000000000000000000008152600401610169919061072d565b60405180910390fd5b5f84036101b657836040517f5052fe8e0000000000000000000000000000000000000000000000000000000081526004016101ad919061072d565b60405180910390fd5b848411156101fd5784846040517f312262630000000000000000000000000000000000000000000000000000000081526004016101f4929190610746565b60405180910390fd5b5f73ffffffffffffffffffffffffffffffffffffffff168273ffffffffffffffffffffffffffffffffffffffff1603610262576040517f463858d600000000000000000000000000000000000000000000000000000000815260040160405180910390fd5b5f73ffffffffffffffffffffffffffffffffffffffff168173ffffffffffffffffffffffffffffffffffffffff16036102c7576040517f463858d600000000000000000000000000000000000000000000000000000000815260040160405180910390fd5b6102d95f5f1b8461048d60201b60201c565b5061030a7f539440820030c4994db4e31b6b800deafd503688728f932addfe7a410515c14c8461048d60201b60201c565b5061033b7f9bbb3ee3bdfbe971682b08854a620ca4bf696f8e0c269e5c5b129a18e64d29df8461048d60201b60201c565b508073ffffffffffffffffffffffffffffffffffffffff1660808173ffffffffffffffffffffffffffffffffffffffff16815250508160035f6101000a81548173ffffffffffffffffffffffffffffffffffffffff021916908373ffffffffffffffffffffffffffffffffffffffff1602179055508460c081815250508360a08181525050505050505061076d565b5f60015f9054906101000a900473ffffffffffffffffffffffffffffffffffffffff1690508160015f6101000a81548173ffffffffffffffffffffffffffffffffffffffff021916908373ffffffffffffffffffffffffffffffffffffffff1602179055508173ffffffffffffffffffffffffffffffffffffffff168173ffffffffffffffffffffffffffffffffffffffff167f8be0079c531659141344cd1fd0a4f28419497f9722a3daafe3b4186f6b6457e060405160405180910390a35050565b5f61049e838361058360201b60201c565b61057957600160025f8581526020019081526020015f205f015f8473ffffffffffffffffffffffffffffffffffffffff1673ffffffffffffffffffffffffffffffffffffffff1681526020019081526020015f205f6101000a81548160ff0219169083151502179055506105166105e760201b60201c565b73ffffffffffffffffffffffffffffffffffffffff168273ffffffffffffffffffffffffffffffffffffffff16847f2f8788117e7eff1d82e926ec794901d17c78024a50270940304540a733656f0d60405160405180910390a46001905061057d565b5f90505b92915050565b5f60025f8481526020019081526020015f205f015f8373ffffffffffffffffffffffffffffffffffffffff1673ffffffffffffffffffffffffffffffffffffffff1681526020019081526020015f205f9054906101000a900460ff16905092915050565b5f33905090565b5f5ffd5b5f819050919050565b610604816105f2565b811461060e575f5ffd5b50565b5f8151905061061f816105fb565b92915050565b5f73ffffffffffffffffffffffffffffffffffffffff82169050919050565b5f61064e82610625565b9050919050565b61065e81610644565b8114610668575f5ffd5b50565b5f8151905061067981610655565b92915050565b5f5f5f5f5f60a08688031215610698576106976105ee565b5b5f6106a588828901610611565b95505060206106b688828901610611565b94505060406106c78882890161066b565b93505060606106d88882890161066b565b92505060806106e98882890161066b565b9150509295509295909350565b6106ff81610644565b82525050565b5f6020820190506107185f8301846106f6565b92915050565b610727816105f2565b82525050565b5f6020820190506107405f83018461071e565b92915050565b5f6040820190506107595f83018561071e565b610766602083018461071e565b9392505050565b60805160a05160c0516133be6107e45f395f81816107d701528181610cd60152611a9b01525f81816107f801528181612184015261251501525f8181610b6b01528181610d5101528181610e3201528181610fac015281816115dd0152818161257d0152818161265d01526127d701526133be5ff3fe6080604052600436106101f1575f3560e01c806382fe54b51161010c578063c6aca33c1161009f578063d9dc86941161006e578063d9dc8694146106d4578063f0e00dc8146106fe578063f2fde38b14610726578063f39b18091461074e578063f7888aec1461077857610233565b8063c6aca33c14610630578063cb398eb31461065a578063ccd6b02014610684578063d547741f146106ac57610233565b8063931fb90e116100db578063931fb90e1461058a57806393295c1c146105b2578063939495bd146105dc578063a217fddf1461060657610233565b806382fe54b5146104d45780638648840a146104fc5780638da5cb5b1461052457806391d148541461054e57610233565b80633fb47470116101845780636f05c64c116101535780636f05c64c14610442578063715018a61461046c578063779bb136146104825780637dc532c5146104ac57610233565b80633fb474701461039c5780635c975abb146103c65780636900670c146103f0578063698b72411461041a57610233565b8063248a9ca3116101c0578063248a9ca3146102fa5780632f2ff15d1461033657806336568abe1461035e57806338d5c9161461038657610233565b806301ffc9a7146102705780630594cc69146102ac57806316a1930f146102da5780631a003ecb146102e457610233565b3661023357336040517fe1d158ff00000000000000000000000000000000000000000000000000000000815260040161022a9190612bca565b60405180910390fd5b336040517fe1d158ff0000000000000000000000000000000000000000000000000000000081526004016102679190612bca565b60405180910390fd5b34801561027b575f5ffd5b5061029660048036038101906102919190612c3c565b6107b4565b6040516102a39190612c81565b60405180910390f35b3480156102b7575f5ffd5b506102c06107c5565b6040516102d1959493929190612cb2565b60405180910390f35b6102e261084a565b005b3480156102ef575f5ffd5b506102f8610871565b005b348015610305575f5ffd5b50610320600480360381019061031b9190612d36565b61097f565b60405161032d9190612d70565b60405180910390f35b348015610341575f5ffd5b5061035c60048036038101906103579190612db3565b61099c565b005b348015610369575f5ffd5b50610384600480360381019061037f9190612db3565b6109be565b005b348015610391575f5ffd5b5061039a610a39565b005b3480156103a7575f5ffd5b506103b0610b47565b6040516103bd9190612df1565b60405180910390f35b3480156103d1575f5ffd5b506103da610b4f565b6040516103e79190612c81565b60405180910390f35b3480156103fb575f5ffd5b50610404610b65565b6040516104119190612df1565b60405180910390f35b348015610425575f5ffd5b50610440600480360381019061043b9190612e34565b610c8f565b005b34801561044d575f5ffd5b50610456610ff5565b6040516104639190612eba565b60405180910390f35b348015610477575f5ffd5b5061048061101a565b005b34801561048d575f5ffd5b5061049661102d565b6040516104a39190612df1565b60405180910390f35b3480156104b7575f5ffd5b506104d260048036038101906104cd9190612ed3565b6110ac565b005b3480156104df575f5ffd5b506104fa60048036038101906104f59190612e34565b6113d2565b005b348015610507575f5ffd5b50610522600480360381019061051d9190612ed3565b6113e6565b005b34801561052f575f5ffd5b5061053861152e565b6040516105459190612bca565b60405180910390f35b348015610559575f5ffd5b50610574600480360381019061056f9190612db3565b611556565b6040516105819190612c81565b60405180910390f35b348015610595575f5ffd5b506105b060048036038101906105ab9190612e34565b6115ba565b005b3480156105bd575f5ffd5b506105c66115ce565b6040516105d39190612df1565b60405180910390f35b3480156105e7575f5ffd5b506105f06115d7565b6040516105fd9190612df1565b60405180910390f35b348015610611575f5ffd5b5061061a611676565b6040516106279190612d70565b60405180910390f35b34801561063b575f5ffd5b5061064461167c565b6040516106519190612df1565b60405180910390f35b348015610665575f5ffd5b5061066e6116b3565b60405161067b9190612d70565b60405180910390f35b34801561068f575f5ffd5b506106aa60048036038101906106a59190612efe565b6116d7565b005b3480156106b7575f5ffd5b506106d260048036038101906106cd9190612db3565b61173b565b005b3480156106df575f5ffd5b506106e861175d565b6040516106f59190612d70565b60405180910390f35b348015610709575f5ffd5b50610724600480360381019061071f9190612efe565b611781565b005b348015610731575f5ffd5b5061074c60048036038101906107479190612ed3565b6117e5565b005b348015610759575f5ffd5b50610762611869565b60405161076f9190612df1565b60405180910390f35b348015610783575f5ffd5b5061079e60048036038101906107999190612f3c565b61189f565b6040516107ab9190612df1565b60405180910390f35b5f6107be82611921565b9050919050565b5f5f5f5f5f6107d2610b4f565b6004547f00000000000000000000000000000000000000000000000000000000000000007f000000000000000000000000000000000000000000000000000000000000000060035f9054906101000a900473ffffffffffffffffffffffffffffffffffffffff16945094509450945094509091929394565b61085261199a565b5f3490505f610860826119db565b905061086d338284611a0a565b5050565b7f539440820030c4994db4e31b6b800deafd503688728f932addfe7a410515c14c3373ffffffffffffffffffffffffffffffffffffffff166108b161152e565b73ffffffffffffffffffffffffffffffffffffffff16141580156108dc57506108da8133611556565b155b1561091e57336040517f06286eaa0000000000000000000000000000000000000000000000000000000081526004016109159190612bca565b60405180910390fd5b61092661199a565b61092e611c6a565b3373ffffffffffffffffffffffffffffffffffffffff167f65ab6adc87722a7acd973ffed16cba7cfdf07b5329157a7192434753ba9dac13426040516109749190612df1565b60405180910390a250565b5f60025f8381526020019081526020015f20600101549050919050565b6109a58261097f565b6109ae81611ccc565b6109b88383611ce0565b50505050565b6109c6611dca565b73ffffffffffffffffffffffffffffffffffffffff168173ffffffffffffffffffffffffffffffffffffffff1614610a2a576040517f6697b23200000000000000000000000000000000000000000000000000000000815260040160405180910390fd5b610a348282611dd1565b505050565b7f539440820030c4994db4e31b6b800deafd503688728f932addfe7a410515c14c3373ffffffffffffffffffffffffffffffffffffffff16610a7961152e565b73ffffffffffffffffffffffffffffffffffffffff1614158015610aa45750610aa28133611556565b155b15610ae657336040517f06286eaa000000000000000000000000000000000000000000000000000000008152600401610add9190612bca565b60405180910390fd5b610aee611ebb565b610af6611efb565b3373ffffffffffffffffffffffffffffffffffffffff167f08af9cf236f4b3afb8d03262d5bef5d95db4da02aa57892cd6474e8097f4f2b742604051610b3c9190612df1565b60405180910390a250565b633b9aca0081565b5f600160149054906101000a900460ff16905090565b5f60065f7f000000000000000000000000000000000000000000000000000000000000000073ffffffffffffffffffffffffffffffffffffffff1673ffffffffffffffffffffffffffffffffffffffff1681526020019081526020015f205f3373ffffffffffffffffffffffffffffffffffffffff1673ffffffffffffffffffffffffffffffffffffffff1681526020019081526020015f2054610c8060065f5f73ffffffffffffffffffffffffffffffffffffffff1673ffffffffffffffffffffffffffffffffffffffff1681526020019081526020015f205f3373ffffffffffffffffffffffffffffffffffffffff1673ffffffffffffffffffffffffffffffffffffffff1681526020019081526020015f20546119db565b610c8a9190612fa7565b905090565b805f8103610cd457336040517fb2f09231000000000000000000000000000000000000000000000000000000008152600401610ccb9190612bca565b60405180910390fd5b7f000000000000000000000000000000000000000000000000000000000000000060045482610d039190612fa7565b1115610d4657806040517f2900b02c000000000000000000000000000000000000000000000000000000008152600401610d3d9190612df1565b60405180910390fd5b610d4e61199a565b817f000000000000000000000000000000000000000000000000000000000000000073ffffffffffffffffffffffffffffffffffffffff1663dd62ed3e33306040518363ffffffff1660e01b8152600401610daa929190612fda565b602060405180830381865afa158015610dc5573d5f5f3e3d5ffd5b505050506040513d601f19601f82011682018060405250810190610de99190613015565b1015610e2c57816040517fc481caba000000000000000000000000000000000000000000000000000000008152600401610e239190612df1565b60405180910390fd5b8160065f7f000000000000000000000000000000000000000000000000000000000000000073ffffffffffffffffffffffffffffffffffffffff1673ffffffffffffffffffffffffffffffffffffffff1681526020019081526020015f205f3373ffffffffffffffffffffffffffffffffffffffff1673ffffffffffffffffffffffffffffffffffffffff1681526020019081526020015f205f828254610ed39190612fa7565b9250508190555060055f81819054906101000a90046fffffffffffffffffffffffffffffffff1680929190610f079061305b565b91906101000a8154816fffffffffffffffffffffffffffffffff02191690836fffffffffffffffffffffffffffffffff160217905550508160045f828254610f4f9190612fa7565b925050819055503373ffffffffffffffffffffffffffffffffffffffff167f9d15693852bf60dc27bd5aa831d0351359b7d01d428ae1baae11f15cbcfebafd83604051610f9c9190612df1565b60405180910390a2610ff13330847f000000000000000000000000000000000000000000000000000000000000000073ffffffffffffffffffffffffffffffffffffffff16611f5d909392919063ffffffff16565b5050565b60035f9054906101000a900473ffffffffffffffffffffffffffffffffffffffff1681565b611022611fdf565b61102b5f612066565b565b5f60065f5f73ffffffffffffffffffffffffffffffffffffffff1673ffffffffffffffffffffffffffffffffffffffff1681526020019081526020015f205f3373ffffffffffffffffffffffffffffffffffffffff1673ffffffffffffffffffffffffffffffffffffffff1681526020019081526020015f2054905090565b7f9bbb3ee3bdfbe971682b08854a620ca4bf696f8e0c269e5c5b129a18e64d29df3373ffffffffffffffffffffffffffffffffffffffff166110ec61152e565b73ffffffffffffffffffffffffffffffffffffffff161415801561111757506111158133611556565b155b1561115957336040517f06286eaa0000000000000000000000000000000000000000000000000000000081526004016111509190612bca565b60405180910390fd5b611161611ebb565b5f73ffffffffffffffffffffffffffffffffffffffff168273ffffffffffffffffffffffffffffffffffffffff16036111c6576040517f463858d600000000000000000000000000000000000000000000000000000000815260040160405180910390fd5b8173ffffffffffffffffffffffffffffffffffffffff1663feaf968c6040518163ffffffff1660e01b815260040160a060405180830381865afa92505050801561122e57506040513d601f19601f8201168201806040525081019061122b9190613104565b60015b61126f57816040517f59eea3150000000000000000000000000000000000000000000000000000000081526004016112669190612bca565b60405180910390fd5b5f84136112b357866040517f59eea3150000000000000000000000000000000000000000000000000000000081526004016112aa9190612bca565b60405180910390fd5b610e1061ffff1682426112c6919061317b565b111561130957836040517f2609a2650000000000000000000000000000000000000000000000000000000081526004016113009190612df1565b60405180910390fd5b5f60035f9054906101000a900473ffffffffffffffffffffffffffffffffffffffff1690508760035f6101000a81548173ffffffffffffffffffffffffffffffffffffffff021916908373ffffffffffffffffffffffffffffffffffffffff1602179055508773ffffffffffffffffffffffffffffffffffffffff168173ffffffffffffffffffffffffffffffffffffffff167f03028d95bd98a5ec8c81b55c2b61e734dde89bb773697b429bd195fd00582b3060405160405180910390a35050505050505050565b6113da61199a565b6113e381612129565b50565b6113ee611fdf565b6113f6611ebb565b5f6113ff61152e565b905061140d5f5f1b82611dd1565b506114387f539440820030c4994db4e31b6b800deafd503688728f932addfe7a410515c14c82611dd1565b506114637f9bbb3ee3bdfbe971682b08854a620ca4bf696f8e0c269e5c5b129a18e64d29df82611dd1565b5061146d82612066565b6114795f5f1b83611ce0565b506114a47f9bbb3ee3bdfbe971682b08854a620ca4bf696f8e0c269e5c5b129a18e64d29df83611ce0565b506114cf7f539440820030c4994db4e31b6b800deafd503688728f932addfe7a410515c14c83611ce0565b508173ffffffffffffffffffffffffffffffffffffffff168173ffffffffffffffffffffffffffffffffffffffff167f2ed8931cd5c0d36856a21c6245bf2e305f989a55c31be2b6cb7ec0a4da43c31960405160405180910390a35050565b5f60015f9054906101000a900473ffffffffffffffffffffffffffffffffffffffff16905090565b5f60025f8481526020019081526020015f205f015f8373ffffffffffffffffffffffffffffffffffffffff1673ffffffffffffffffffffffffffffffffffffffff1681526020019081526020015f205f9054906101000a900460ff16905092915050565b6115c261199a565b6115cb816124c6565b50565b5f600454905090565b5f60065f7f000000000000000000000000000000000000000000000000000000000000000073ffffffffffffffffffffffffffffffffffffffff1673ffffffffffffffffffffffffffffffffffffffff1681526020019081526020015f205f3373ffffffffffffffffffffffffffffffffffffffff1673ffffffffffffffffffffffffffffffffffffffff1681526020019081526020015f2054905090565b5f5f1b81565b5f600560109054906101000a90046fffffffffffffffffffffffffffffffff166fffffffffffffffffffffffffffffffff16905090565b7f9bbb3ee3bdfbe971682b08854a620ca4bf696f8e0c269e5c5b129a18e64d29df81565b6116df611fdf565b6116e9818361099c565b8173ffffffffffffffffffffffffffffffffffffffff167f56a39044e0e7ad5c8db0abdb4925f3d610d0f66ab2d22536712afd06e6aa60328260405161172f9190612d70565b60405180910390a25050565b6117448261097f565b61174d81611ccc565b6117578383611dd1565b50505050565b7f539440820030c4994db4e31b6b800deafd503688728f932addfe7a410515c14c81565b611789611fdf565b611793818361173b565b8173ffffffffffffffffffffffffffffffffffffffff167f2a235e73fbdf449db29391f00a41fd53e24c96816320a25a710415e2c05370f0826040516117d99190612d70565b60405180910390a25050565b6117ed611fdf565b5f73ffffffffffffffffffffffffffffffffffffffff168173ffffffffffffffffffffffffffffffffffffffff160361185d575f6040517f1e4fbdf70000000000000000000000000000000000000000000000000000000081526004016118549190612bca565b60405180910390fd5b61186681612066565b50565b5f60055f9054906101000a90046fffffffffffffffffffffffffffffffff166fffffffffffffffffffffffffffffffff16905090565b5f60065f8373ffffffffffffffffffffffffffffffffffffffff1673ffffffffffffffffffffffffffffffffffffffff1681526020019081526020015f205f8473ffffffffffffffffffffffffffffffffffffffff1673ffffffffffffffffffffffffffffffffffffffff1681526020019081526020015f2054905092915050565b5f7f7965db0b000000000000000000000000000000000000000000000000000000007bffffffffffffffffffffffffffffffffffffffffffffffffffffffff1916827bffffffffffffffffffffffffffffffffffffffffffffffffffffffff19161480611993575061199282612827565b5b9050919050565b6119a2610b4f565b156119d9576040517fd93c066500000000000000000000000000000000000000000000000000000000815260040160405180910390fd5b565b5f68056bc75e2d631000006119ee612890565b836119f991906131ae565b611a03919061321c565b9050919050565b8181633b9aca00811015611a5557806040517f32547578000000000000000000000000000000000000000000000000000000008152600401611a4c9190612df1565b60405180910390fd5b5f8203611a9957336040517fb2f09231000000000000000000000000000000000000000000000000000000008152600401611a909190612bca565b60405180910390fd5b7f000000000000000000000000000000000000000000000000000000000000000060045483611ac89190612fa7565b1115611b0b57816040517f2900b02c000000000000000000000000000000000000000000000000000000008152600401611b029190612df1565b60405180910390fd5b8260065f5f73ffffffffffffffffffffffffffffffffffffffff1673ffffffffffffffffffffffffffffffffffffffff1681526020019081526020015f205f8773ffffffffffffffffffffffffffffffffffffffff1673ffffffffffffffffffffffffffffffffffffffff1681526020019081526020015f205f828254611b929190612fa7565b9250508190555060055f81819054906101000a90046fffffffffffffffffffffffffffffffff1680929190611bc69061305b565b91906101000a8154816fffffffffffffffffffffffffffffffff02191690836fffffffffffffffffffffffffffffffff160217905550508360045f828254611c0e9190612fa7565b925050819055508473ffffffffffffffffffffffffffffffffffffffff167f9d15693852bf60dc27bd5aa831d0351359b7d01d428ae1baae11f15cbcfebafd85604051611c5b9190612df1565b60405180910390a25050505050565b611c7261199a565b60018060146101000a81548160ff0219169083151502179055507f62e78cea01bee320cd4e420270b5ea74000d11b0c9f74754ebdbfc544b05a258611cb5611dca565b604051611cc29190612bca565b60405180910390a1565b611cdd81611cd8611dca565b6129ca565b50565b5f611ceb8383611556565b611dc057600160025f8581526020019081526020015f205f015f8473ffffffffffffffffffffffffffffffffffffffff1673ffffffffffffffffffffffffffffffffffffffff1681526020019081526020015f205f6101000a81548160ff021916908315150217905550611d5d611dca565b73ffffffffffffffffffffffffffffffffffffffff168273ffffffffffffffffffffffffffffffffffffffff16847f2f8788117e7eff1d82e926ec794901d17c78024a50270940304540a733656f0d60405160405180910390a460019050611dc4565b5f90505b92915050565b5f33905090565b5f611ddc8383611556565b15611eb1575f60025f8581526020019081526020015f205f015f8473ffffffffffffffffffffffffffffffffffffffff1673ffffffffffffffffffffffffffffffffffffffff1681526020019081526020015f205f6101000a81548160ff021916908315150217905550611e4e611dca565b73ffffffffffffffffffffffffffffffffffffffff168273ffffffffffffffffffffffffffffffffffffffff16847ff6391f5c32d9c69d2a47ea670b442974b53935d1edc7fd64eb21e047a839171b60405160405180910390a460019050611eb5565b5f90505b92915050565b611ec3610b4f565b611ef9576040517f8dfc202b00000000000000000000000000000000000000000000000000000000815260040160405180910390fd5b565b611f03611ebb565b5f600160146101000a81548160ff0219169083151502179055507f5db9ee0a495bf2e6ff9c91a7834c1ba4fdd244a5e8aa4e537bd38aeae4b073aa611f46611dca565b604051611f539190612bca565b60405180910390a1565b611fd9848573ffffffffffffffffffffffffffffffffffffffff166323b872dd868686604051602401611f929392919061324c565b604051602081830303815290604052915060e01b6020820180517bffffffffffffffffffffffffffffffffffffffffffffffffffffffff8381831617835250505050612a1b565b50505050565b611fe7611dca565b73ffffffffffffffffffffffffffffffffffffffff1661200561152e565b73ffffffffffffffffffffffffffffffffffffffff161461206457612028611dca565b6040517f118cdaa700000000000000000000000000000000000000000000000000000000815260040161205b9190612bca565b60405180910390fd5b565b5f60015f9054906101000a900473ffffffffffffffffffffffffffffffffffffffff1690508160015f6101000a81548173ffffffffffffffffffffffffffffffffffffffff021916908373ffffffffffffffffffffffffffffffffffffffff1602179055508173ffffffffffffffffffffffffffffffffffffffff168173ffffffffffffffffffffffffffffffffffffffff167f8be0079c531659141344cd1fd0a4f28419497f9722a3daafe3b4186f6b6457e060405160405180910390a35050565b612131612ab6565b805f61213c826119db565b90505f810361218257336040517fb2f092310000000000000000000000000000000000000000000000000000000081526004016121799190612bca565b60405180910390fd5b7f00000000000000000000000000000000000000000000000000000000000000008111156121e757806040517fc39935650000000000000000000000000000000000000000000000000000000081526004016121de9190612df1565b60405180910390fd5b60065f5f73ffffffffffffffffffffffffffffffffffffffff1673ffffffffffffffffffffffffffffffffffffffff1681526020019081526020015f205f3373ffffffffffffffffffffffffffffffffffffffff1673ffffffffffffffffffffffffffffffffffffffff1681526020019081526020015f20548211156122a65733816040517f51a7314200000000000000000000000000000000000000000000000000000000815260040161229d929190613281565b60405180910390fd5b5f6122b0846119db565b90508360065f5f73ffffffffffffffffffffffffffffffffffffffff1673ffffffffffffffffffffffffffffffffffffffff1681526020019081526020015f205f3373ffffffffffffffffffffffffffffffffffffffff1673ffffffffffffffffffffffffffffffffffffffff1681526020019081526020015f205f828254612339919061317b565b925050819055506005601081819054906101000a90046fffffffffffffffffffffffffffffffff168092919061236e9061305b565b91906101000a8154816fffffffffffffffffffffffffffffffff02191690836fffffffffffffffffffffffffffffffff160217905550508060045f8282546123b6919061317b565b925050819055503373ffffffffffffffffffffffffffffffffffffffff167f9cde449504e4972ffddec09813e0c252a1462d76bef1864b9e7520dadb7183e8826040516124039190612df1565b60405180910390a25f3373ffffffffffffffffffffffffffffffffffffffff1685604051612430906132d5565b5f6040518083038185875af1925050503d805f811461246a576040519150601f19603f3d011682016040523d82523d5f602084013e61246f565b606091505b50509050806124b75733856040517f6c5e1a140000000000000000000000000000000000000000000000000000000081526004016124ae929190613281565b60405180910390fd5b505050506124c3612b03565b50565b6124ce612ab6565b805f810361251357336040517fb2f0923100000000000000000000000000000000000000000000000000000000815260040161250a9190612bca565b60405180910390fd5b7f000000000000000000000000000000000000000000000000000000000000000081111561257857806040517fc399356500000000000000000000000000000000000000000000000000000000815260040161256f9190612df1565b60405180910390fd5b60065f7f000000000000000000000000000000000000000000000000000000000000000073ffffffffffffffffffffffffffffffffffffffff1673ffffffffffffffffffffffffffffffffffffffff1681526020019081526020015f205f3373ffffffffffffffffffffffffffffffffffffffff1673ffffffffffffffffffffffffffffffffffffffff1681526020019081526020015f20548111156126575733816040517f51a7314200000000000000000000000000000000000000000000000000000000815260040161264e929190613281565b60405180910390fd5b8160065f7f000000000000000000000000000000000000000000000000000000000000000073ffffffffffffffffffffffffffffffffffffffff1673ffffffffffffffffffffffffffffffffffffffff1681526020019081526020015f205f3373ffffffffffffffffffffffffffffffffffffffff1673ffffffffffffffffffffffffffffffffffffffff1681526020019081526020015f205f8282546126fe919061317b565b925050819055506005601081819054906101000a90046fffffffffffffffffffffffffffffffff16809291906127339061305b565b91906101000a8154816fffffffffffffffffffffffffffffffff02191690836fffffffffffffffffffffffffffffffff160217905550508160045f82825461277b919061317b565b925050819055503373ffffffffffffffffffffffffffffffffffffffff167f9cde449504e4972ffddec09813e0c252a1462d76bef1864b9e7520dadb7183e8836040516127c89190612df1565b60405180910390a261281b33837f000000000000000000000000000000000000000000000000000000000000000073ffffffffffffffffffffffffffffffffffffffff16612b0c9092919063ffffffff16565b50612824612b03565b50565b5f7f01ffc9a7000000000000000000000000000000000000000000000000000000007bffffffffffffffffffffffffffffffffffffffffffffffffffffffff1916827bffffffffffffffffffffffffffffffffffffffffffffffffffffffff1916149050919050565b5f5f5f60035f9054906101000a900473ffffffffffffffffffffffffffffffffffffffff1673ffffffffffffffffffffffffffffffffffffffff1663feaf968c6040518163ffffffff1660e01b815260040160a060405180830381865afa1580156128fd573d5f5f3e3d5ffd5b505050506040513d601f19601f820116820180604052508101906129219190613104565b509350509250505f821361296c57816040517f365440290000000000000000000000000000000000000000000000000000000081526004016129639190612df1565b60405180910390fd5b610e1061ffff16814261297f919061317b565b11156129c257816040517f2609a2650000000000000000000000000000000000000000000000000000000081526004016129b99190612df1565b60405180910390fd5b819250505090565b6129d48282611556565b612a175780826040517fe2517d3f000000000000000000000000000000000000000000000000000000008152600401612a0e9291906132e9565b60405180910390fd5b5050565b5f5f60205f8451602086015f885af180612a3a576040513d5f823e3d81fd5b3d92505f519150505f8214612a53576001811415612a6e565b5f8473ffffffffffffffffffffffffffffffffffffffff163b145b15612ab057836040517f5274afe7000000000000000000000000000000000000000000000000000000008152600401612aa79190612bca565b60405180910390fd5b50505050565b60025f5403612afa576040517f08c379a0000000000000000000000000000000000000000000000000000000008152600401612af19061336a565b60405180910390fd5b60025f81905550565b60015f81905550565b612b86838473ffffffffffffffffffffffffffffffffffffffff1663a9059cbb8585604051602401612b3f929190613281565b604051602081830303815290604052915060e01b6020820180517bffffffffffffffffffffffffffffffffffffffffffffffffffffffff8381831617835250505050612a1b565b505050565b5f73ffffffffffffffffffffffffffffffffffffffff82169050919050565b5f612bb482612b8b565b9050919050565b612bc481612baa565b82525050565b5f602082019050612bdd5f830184612bbb565b92915050565b5f5ffd5b5f7fffffffff0000000000000000000000000000000000000000000000000000000082169050919050565b612c1b81612be7565b8114612c25575f5ffd5b50565b5f81359050612c3681612c12565b92915050565b5f60208284031215612c5157612c50612be3565b5b5f612c5e84828501612c28565b91505092915050565b5f8115159050919050565b612c7b81612c67565b82525050565b5f602082019050612c945f830184612c72565b92915050565b5f819050919050565b612cac81612c9a565b82525050565b5f60a082019050612cc55f830188612c72565b612cd26020830187612ca3565b612cdf6040830186612ca3565b612cec6060830185612ca3565b612cf96080830184612bbb565b9695505050505050565b5f819050919050565b612d1581612d03565b8114612d1f575f5ffd5b50565b5f81359050612d3081612d0c565b92915050565b5f60208284031215612d4b57612d4a612be3565b5b5f612d5884828501612d22565b91505092915050565b612d6a81612d03565b82525050565b5f602082019050612d835f830184612d61565b92915050565b612d9281612baa565b8114612d9c575f5ffd5b50565b5f81359050612dad81612d89565b92915050565b5f5f60408385031215612dc957612dc8612be3565b5b5f612dd685828601612d22565b9250506020612de785828601612d9f565b9150509250929050565b5f602082019050612e045f830184612ca3565b92915050565b612e1381612c9a565b8114612e1d575f5ffd5b50565b5f81359050612e2e81612e0a565b92915050565b5f60208284031215612e4957612e48612be3565b5b5f612e5684828501612e20565b91505092915050565b5f819050919050565b5f612e82612e7d612e7884612b8b565b612e5f565b612b8b565b9050919050565b5f612e9382612e68565b9050919050565b5f612ea482612e89565b9050919050565b612eb481612e9a565b82525050565b5f602082019050612ecd5f830184612eab565b92915050565b5f60208284031215612ee857612ee7612be3565b5b5f612ef584828501612d9f565b91505092915050565b5f5f60408385031215612f1457612f13612be3565b5b5f612f2185828601612d9f565b9250506020612f3285828601612d22565b9150509250929050565b5f5f60408385031215612f5257612f51612be3565b5b5f612f5f85828601612d9f565b9250506020612f7085828601612d9f565b9150509250929050565b7f4e487b71000000000000000000000000000000000000000000000000000000005f52601160045260245ffd5b5f612fb182612c9a565b9150612fbc83612c9a565b9250828201905080821115612fd457612fd3612f7a565b5b92915050565b5f604082019050612fed5f830185612bbb565b612ffa6020830184612bbb565b9392505050565b5f8151905061300f81612e0a565b92915050565b5f6020828403121561302a57613029612be3565b5b5f61303784828501613001565b91505092915050565b5f6fffffffffffffffffffffffffffffffff82169050919050565b5f61306582613040565b91506fffffffffffffffffffffffffffffffff820361308757613086612f7a565b5b600182019050919050565b5f69ffffffffffffffffffff82169050919050565b6130b081613092565b81146130ba575f5ffd5b50565b5f815190506130cb816130a7565b92915050565b5f819050919050565b6130e3816130d1565b81146130ed575f5ffd5b50565b5f815190506130fe816130da565b92915050565b5f5f5f5f5f60a0868803121561311d5761311c612be3565b5b5f61312a888289016130bd565b955050602061313b888289016130f0565b945050604061314c88828901613001565b935050606061315d88828901613001565b925050608061316e888289016130bd565b9150509295509295909350565b5f61318582612c9a565b915061319083612c9a565b92508282039050818111156131a8576131a7612f7a565b5b92915050565b5f6131b882612c9a565b91506131c383612c9a565b92508282026131d181612c9a565b915082820484148315176131e8576131e7612f7a565b5b5092915050565b7f4e487b71000000000000000000000000000000000000000000000000000000005f52601260045260245ffd5b5f61322682612c9a565b915061323183612c9a565b925082613241576132406131ef565b5b828204905092915050565b5f60608201905061325f5f830186612bbb565b61326c6020830185612bbb565b6132796040830184612ca3565b949350505050565b5f6040820190506132945f830185612bbb565b6132a16020830184612ca3565b9392505050565b5f81905092915050565b50565b5f6132c05f836132a8565b91506132cb826132b2565b5f82019050919050565b5f6132df826132b5565b9150819050919050565b5f6040820190506132fc5f830185612bbb565b6133096020830184612d61565b9392505050565b5f82825260208201905092915050565b7f5265656e7472616e637947756172643a207265656e7472616e742063616c6c005f82015250565b5f613354601f83613310565b915061335f82613320565b602082019050919050565b5f6020820190508181035f83015261338181613348565b905091905056fea2646970667358221220041dda017a479ecf9fe98d00358edd151f2f455c10ce9ff9c45917cbf58cfb8564736f6c634300081e0033",
					"opcodes": "PUSH1 0xE0 PUSH1 0x40 MSTORE PUSH0 PUSH1 0x4 SSTORE PUSH0 PUSH1 0x5 PUSH0 PUSH2 0x100 EXP DUP2 SLOAD DUP2 PUSH16 0xFFFFFFFFFFFFFFFFFFFFFFFFFFFFFFFF MUL NOT AND SWAP1 DUP4 PUSH16 0xFFFFFFFFFFFFFFFFFFFFFFFFFFFFFFFF AND MUL OR SWAP1 SSTORE POP PUSH0 PUSH1 0x5 PUSH1 0x10 PUSH2 0x100 EXP DUP2 SLOAD DUP2 PUSH16 0xFFFFFFFFFFFFFFFFFFFFFFFFFFFFFFFF MUL NOT AND SWAP1 DUP4 PUSH16 0xFFFFFFFFFFFFFFFFFFFFFFFFFFFFFFFF AND MUL OR SWAP1 SSTORE POP CALLVALUE DUP1 ISZERO PUSH2 0x84 JUMPI PUSH0 PUSH0 REVERT JUMPDEST POP PUSH1 0x40 MLOAD PUSH2 0x3BA2 CODESIZE SUB DUP1 PUSH2 0x3BA2 DUP4 CODECOPY DUP2 DUP2 ADD PUSH1 0x40 MSTORE DUP2 ADD SWAP1 PUSH2 0xA6 SWAP2 SWAP1 PUSH2 0x67F JUMP JUMPDEST DUP3 PUSH1 0x1 PUSH0 DUP2 SWAP1 SSTORE POP PUSH0 PUSH20 0xFFFFFFFFFFFFFFFFFFFFFFFFFFFFFFFFFFFFFFFF AND DUP2 PUSH20 0xFFFFFFFFFFFFFFFFFFFFFFFFFFFFFFFFFFFFFFFF AND SUB PUSH2 0x11E JUMPI PUSH0 PUSH1 0x40 MLOAD PUSH32 0x1E4FBDF700000000000000000000000000000000000000000000000000000000 DUP2 MSTORE PUSH1 0x4 ADD PUSH2 0x115 SWAP2 SWAP1 PUSH2 0x705 JUMP JUMPDEST PUSH1 0x40 MLOAD DUP1 SWAP2 SUB SWAP1 REVERT JUMPDEST PUSH2 0x12D DUP2 PUSH2 0x3CA PUSH1 0x20 SHL PUSH1 0x20 SHR JUMP JUMPDEST POP PUSH0 DUP6 SUB PUSH2 0x172 JUMPI DUP5 PUSH1 0x40 MLOAD PUSH32 0xF1FDFD2B00000000000000000000000000000000000000000000000000000000 DUP2 MSTORE PUSH1 0x4 ADD PUSH2 0x169 SWAP2 SWAP1 PUSH2 0x72D JUMP JUMPDEST PUSH1 0x40 MLOAD DUP1 SWAP2 SUB SWAP1 REVERT JUMPDEST PUSH0 DUP5 SUB PUSH2 0x1B6 JUMPI DUP4 PUSH1 0x40 MLOAD PUSH32 0x5052FE8E00000000000000000000000000000000000000000000000000000000 DUP2 MSTORE PUSH1 0x4 ADD PUSH2 0x1AD SWAP2 SWAP1 PUSH2 0x72D JUMP JUMPDEST PUSH1 0x40 MLOAD DUP1 SWAP2 SUB SWAP1 REVERT JUMPDEST DUP5 DUP5 GT ISZERO PUSH2 0x1FD JUMPI DUP5 DUP5 PUSH1 0x40 MLOAD PUSH32 0x3122626300000000000000000000000000000000000000000000000000000000 DUP2 MSTORE PUSH1 0x4 ADD PUSH2 0x1F4 SWAP3 SWAP2 SWAP1 PUSH2 0x746 JUMP JUMPDEST PUSH1 0x40 MLOAD DUP1 SWAP2 SUB SWAP1 REVERT JUMPDEST PUSH0 PUSH20 0xFFFFFFFFFFFFFFFFFFFFFFFFFFFFFFFFFFFFFFFF AND DUP3 PUSH20 0xFFFFFFFFFFFFFFFFFFFFFFFFFFFFFFFFFFFFFFFF AND SUB PUSH2 0x262 JUMPI PUSH1 0x40 MLOAD PUSH32 0x463858D600000000000000000000000000000000000000000000000000000000 DUP2 MSTORE PUSH1 0x4 ADD PUSH1 0x40 MLOAD DUP1 SWAP2 SUB SWAP1 REVERT JUMPDEST PUSH0 PUSH20 0xFFFFFFFFFFFFFFFFFFFFFFFFFFFFFFFFFFFFFFFF AND DUP2 PUSH20 0xFFFFFFFFFFFFFFFFFFFFFFFFFFFFFFFFFFFFFFFF AND SUB PUSH2 0x2C7 JUMPI PUSH1 0x40 MLOAD PUSH32 0x463858D600000000000000000000000000000000000000000000000000000000 DUP2 MSTORE PUSH1 0x4 ADD PUSH1 0x40 MLOAD DUP1 SWAP2 SUB SWAP1 REVERT JUMPDEST PUSH2 0x2D9 PUSH0 PUSH0 SHL DUP5 PUSH2 0x48D PUSH1 0x20 SHL PUSH1 0x20 SHR JUMP JUMPDEST POP PUSH2 0x30A PUSH32 0x539440820030C4994DB4E31B6B800DEAFD503688728F932ADDFE7A410515C14C DUP5 PUSH2 0x48D PUSH1 0x20 SHL PUSH1 0x20 SHR JUMP JUMPDEST POP PUSH2 0x33B PUSH32 0x9BBB3EE3BDFBE971682B08854A620CA4BF696F8E0C269E5C5B129A18E64D29DF DUP5 PUSH2 0x48D PUSH1 0x20 SHL PUSH1 0x20 SHR JUMP JUMPDEST POP DUP1 PUSH20 0xFFFFFFFFFFFFFFFFFFFFFFFFFFFFFFFFFFFFFFFF AND PUSH1 0x80 DUP2 PUSH20 0xFFFFFFFFFFFFFFFFFFFFFFFFFFFFFFFFFFFFFFFF AND DUP2 MSTORE POP POP DUP2 PUSH1 0x3 PUSH0 PUSH2 0x100 EXP DUP2 SLOAD DUP2 PUSH20 0xFFFFFFFFFFFFFFFFFFFFFFFFFFFFFFFFFFFFFFFF MUL NOT AND SWAP1 DUP4 PUSH20 0xFFFFFFFFFFFFFFFFFFFFFFFFFFFFFFFFFFFFFFFF AND MUL OR SWAP1 SSTORE POP DUP5 PUSH1 0xC0 DUP2 DUP2 MSTORE POP POP DUP4 PUSH1 0xA0 DUP2 DUP2 MSTORE POP POP POP POP POP POP POP PUSH2 0x76D JUMP JUMPDEST PUSH0 PUSH1 0x1 PUSH0 SWAP1 SLOAD SWAP1 PUSH2 0x100 EXP SWAP1 DIV PUSH20 0xFFFFFFFFFFFFFFFFFFFFFFFFFFFFFFFFFFFFFFFF AND SWAP1 POP DUP2 PUSH1 0x1 PUSH0 PUSH2 0x100 EXP DUP2 SLOAD DUP2 PUSH20 0xFFFFFFFFFFFFFFFFFFFFFFFFFFFFFFFFFFFFFFFF MUL NOT AND SWAP1 DUP4 PUSH20 0xFFFFFFFFFFFFFFFFFFFFFFFFFFFFFFFFFFFFFFFF AND MUL OR SWAP1 SSTORE POP DUP2 PUSH20 0xFFFFFFFFFFFFFFFFFFFFFFFFFFFFFFFFFFFFFFFF AND DUP2 PUSH20 0xFFFFFFFFFFFFFFFFFFFFFFFFFFFFFFFFFFFFFFFF AND PUSH32 0x8BE0079C531659141344CD1FD0A4F28419497F9722A3DAAFE3B4186F6B6457E0 PUSH1 0x40 MLOAD PUSH1 0x40 MLOAD DUP1 SWAP2 SUB SWAP1 LOG3 POP POP JUMP JUMPDEST PUSH0 PUSH2 0x49E DUP4 DUP4 PUSH2 0x583 PUSH1 0x20 SHL PUSH1 0x20 SHR JUMP JUMPDEST PUSH2 0x579 JUMPI PUSH1 0x1 PUSH1 0x2 PUSH0 DUP6 DUP2 MSTORE PUSH1 0x20 ADD SWAP1 DUP2 MSTORE PUSH1 0x20 ADD PUSH0 KECCAK256 PUSH0 ADD PUSH0 DUP5 PUSH20 0xFFFFFFFFFFFFFFFFFFFFFFFFFFFFFFFFFFFFFFFF AND PUSH20 0xFFFFFFFFFFFFFFFFFFFFFFFFFFFFFFFFFFFFFFFF AND DUP2 MSTORE PUSH1 0x20 ADD SWAP1 DUP2 MSTORE PUSH1 0x20 ADD PUSH0 KECCAK256 PUSH0 PUSH2 0x100 EXP DUP2 SLOAD DUP2 PUSH1 0xFF MUL NOT AND SWAP1 DUP4 ISZERO ISZERO MUL OR SWAP1 SSTORE POP PUSH2 0x516 PUSH2 0x5E7 PUSH1 0x20 SHL PUSH1 0x20 SHR JUMP JUMPDEST PUSH20 0xFFFFFFFFFFFFFFFFFFFFFFFFFFFFFFFFFFFFFFFF AND DUP3 PUSH20 0xFFFFFFFFFFFFFFFFFFFFFFFFFFFFFFFFFFFFFFFF AND DUP5 PUSH32 0x2F8788117E7EFF1D82E926EC794901D17C78024A50270940304540A733656F0D PUSH1 0x40 MLOAD PUSH1 0x40 MLOAD DUP1 SWAP2 SUB SWAP1 LOG4 PUSH1 0x1 SWAP1 POP PUSH2 0x57D JUMP JUMPDEST PUSH0 SWAP1 POP JUMPDEST SWAP3 SWAP2 POP POP JUMP JUMPDEST PUSH0 PUSH1 0x2 PUSH0 DUP5 DUP2 MSTORE PUSH1 0x20 ADD SWAP1 DUP2 MSTORE PUSH1 0x20 ADD PUSH0 KECCAK256 PUSH0 ADD PUSH0 DUP4 PUSH20 0xFFFFFFFFFFFFFFFFFFFFFFFFFFFFFFFFFFFFFFFF AND PUSH20 0xFFFFFFFFFFFFFFFFFFFFFFFFFFFFFFFFFFFFFFFF AND DUP2 MSTORE PUSH1 0x20 ADD SWAP1 DUP2 MSTORE PUSH1 0x20 ADD PUSH0 KECCAK256 PUSH0 SWAP1 SLOAD SWAP1 PUSH2 0x100 EXP SWAP1 DIV PUSH1 0xFF AND SWAP1 POP SWAP3 SWAP2 POP POP JUMP JUMPDEST PUSH0 CALLER SWAP1 POP SWAP1 JUMP JUMPDEST PUSH0 PUSH0 REVERT JUMPDEST PUSH0 DUP2 SWAP1 POP SWAP2 SWAP1 POP JUMP JUMPDEST PUSH2 0x604 DUP2 PUSH2 0x5F2 JUMP JUMPDEST DUP2 EQ PUSH2 0x60E JUMPI PUSH0 PUSH0 REVERT JUMPDEST POP JUMP JUMPDEST PUSH0 DUP2 MLOAD SWAP1 POP PUSH2 0x61F DUP2 PUSH2 0x5FB JUMP JUMPDEST SWAP3 SWAP2 POP POP JUMP JUMPDEST PUSH0 PUSH20 0xFFFFFFFFFFFFFFFFFFFFFFFFFFFFFFFFFFFFFFFF DUP3 AND SWAP1 POP SWAP2 SWAP1 POP JUMP JUMPDEST PUSH0 PUSH2 0x64E DUP3 PUSH2 0x625 JUMP JUMPDEST SWAP1 POP SWAP2 SWAP1 POP JUMP JUMPDEST PUSH2 0x65E DUP2 PUSH2 0x644 JUMP JUMPDEST DUP2 EQ PUSH2 0x668 JUMPI PUSH0 PUSH0 REVERT JUMPDEST POP JUMP JUMPDEST PUSH0 DUP2 MLOAD SWAP1 POP PUSH2 0x679 DUP2 PUSH2 0x655 JUMP JUMPDEST SWAP3 SWAP2 POP POP JUMP JUMPDEST PUSH0 PUSH0 PUSH0 PUSH0 PUSH0 PUSH1 0xA0 DUP7 DUP9 SUB SLT ISZERO PUSH2 0x698 JUMPI PUSH2 0x697 PUSH2 0x5EE JUMP JUMPDEST JUMPDEST PUSH0 PUSH2 0x6A5 DUP9 DUP3 DUP10 ADD PUSH2 0x611 JUMP JUMPDEST SWAP6 POP POP PUSH1 0x20 PUSH2 0x6B6 DUP9 DUP3 DUP10 ADD PUSH2 0x611 JUMP JUMPDEST SWAP5 POP POP PUSH1 0x40 PUSH2 0x6C7 DUP9 DUP3 DUP10 ADD PUSH2 0x66B JUMP JUMPDEST SWAP4 POP POP PUSH1 0x60 PUSH2 0x6D8 DUP9 DUP3 DUP10 ADD PUSH2 0x66B JUMP JUMPDEST SWAP3 POP POP PUSH1 0x80 PUSH2 0x6E9 DUP9 DUP3 DUP10 ADD PUSH2 0x66B JUMP JUMPDEST SWAP2 POP POP SWAP3 SWAP6 POP SWAP3 SWAP6 SWAP1 SWAP4 POP JUMP JUMPDEST PUSH2 0x6FF DUP2 PUSH2 0x644 JUMP JUMPDEST DUP3 MSTORE POP POP JUMP JUMPDEST PUSH0 PUSH1 0x20 DUP3 ADD SWAP1 POP PUSH2 0x718 PUSH0 DUP4 ADD DUP5 PUSH2 0x6F6 JUMP JUMPDEST SWAP3 SWAP2 POP POP JUMP JUMPDEST PUSH2 0x727 DUP2 PUSH2 0x5F2 JUMP JUMPDEST DUP3 MSTORE POP POP JUMP JUMPDEST PUSH0 PUSH1 0x20 DUP3 ADD SWAP1 POP PUSH2 0x740 PUSH0 DUP4 ADD DUP5 PUSH2 0x71E JUMP JUMPDEST SWAP3 SWAP2 POP POP JUMP JUMPDEST PUSH0 PUSH1 0x40 DUP3 ADD SWAP1 POP PUSH2 0x759 PUSH0 DUP4 ADD DUP6 PUSH2 0x71E JUMP JUMPDEST PUSH2 0x766 PUSH1 0x20 DUP4 ADD DUP5 PUSH2 0x71E JUMP JUMPDEST SWAP4 SWAP3 POP POP POP JUMP JUMPDEST PUSH1 0x80 MLOAD PUSH1 0xA0 MLOAD PUSH1 0xC0 MLOAD PUSH2 0x33BE PUSH2 0x7E4 PUSH0 CODECOPY PUSH0 DUP2 DUP2 PUSH2 0x7D7 ADD MSTORE DUP2 DUP2 PUSH2 0xCD6 ADD MSTORE PUSH2 0x1A9B ADD MSTORE PUSH0 DUP2 DUP2 PUSH2 0x7F8 ADD MSTORE DUP2 DUP2 PUSH2 0x2184 ADD MSTORE PUSH2 0x2515 ADD MSTORE PUSH0 DUP2 DUP2 PUSH2 0xB6B ADD MSTORE DUP2 DUP2 PUSH2 0xD51 ADD MSTORE DUP2 DUP2 PUSH2 0xE32 ADD MSTORE DUP2 DUP2 PUSH2 0xFAC ADD MSTORE DUP2 DUP2 PUSH2 0x15DD ADD MSTORE DUP2 DUP2 PUSH2 0x257D ADD MSTORE DUP2 DUP2 PUSH2 0x265D ADD MSTORE PUSH2 0x27D7 ADD MSTORE PUSH2 0x33BE PUSH0 RETURN INVALID PUSH1 0x80 PUSH1 0x40 MSTORE PUSH1 0x4 CALLDATASIZE LT PUSH2 0x1F1 JUMPI PUSH0 CALLDATALOAD PUSH1 0xE0 SHR DUP1 PUSH4 0x82FE54B5 GT PUSH2 0x10C JUMPI DUP1 PUSH4 0xC6ACA33C GT PUSH2 0x9F JUMPI DUP1 PUSH4 0xD9DC8694 GT PUSH2 0x6E JUMPI DUP1 PUSH4 0xD9DC8694 EQ PUSH2 0x6D4 JUMPI DUP1 PUSH4 0xF0E00DC8 EQ PUSH2 0x6FE JUMPI DUP1 PUSH4 0xF2FDE38B EQ PUSH2 0x726 JUMPI DUP1 PUSH4 0xF39B1809 EQ PUSH2 0x74E JUMPI DUP1 PUSH4 0xF7888AEC EQ PUSH2 0x778 JUMPI PUSH2 0x233 JUMP JUMPDEST DUP1 PUSH4 0xC6ACA33C EQ PUSH2 0x630 JUMPI DUP1 PUSH4 0xCB398EB3 EQ PUSH2 0x65A JUMPI DUP1 PUSH4 0xCCD6B020 EQ PUSH2 0x684 JUMPI DUP1 PUSH4 0xD547741F EQ PUSH2 0x6AC JUMPI PUSH2 0x233 JUMP JUMPDEST DUP1 PUSH4 0x931FB90E GT PUSH2 0xDB JUMPI DUP1 PUSH4 0x931FB90E EQ PUSH2 0x58A JUMPI DUP1 PUSH4 0x93295C1C EQ PUSH2 0x5B2 JUMPI DUP1 PUSH4 0x939495BD EQ PUSH2 0x5DC JUMPI DUP1 PUSH4 0xA217FDDF EQ PUSH2 0x606 JUMPI PUSH2 0x233 JUMP JUMPDEST DUP1 PUSH4 0x82FE54B5 EQ PUSH2 0x4D4 JUMPI DUP1 PUSH4 0x8648840A EQ PUSH2 0x4FC JUMPI DUP1 PUSH4 0x8DA5CB5B EQ PUSH2 0x524 JUMPI DUP1 PUSH4 0x91D14854 EQ PUSH2 0x54E JUMPI PUSH2 0x233 JUMP JUMPDEST DUP1 PUSH4 0x3FB47470 GT PUSH2 0x184 JUMPI DUP1 PUSH4 0x6F05C64C GT PUSH2 0x153 JUMPI DUP1 PUSH4 0x6F05C64C EQ PUSH2 0x442 JUMPI DUP1 PUSH4 0x715018A6 EQ PUSH2 0x46C JUMPI DUP1 PUSH4 0x779BB136 EQ PUSH2 0x482 JUMPI DUP1 PUSH4 0x7DC532C5 EQ PUSH2 0x4AC JUMPI PUSH2 0x233 JUMP JUMPDEST DUP1 PUSH4 0x3FB47470 EQ PUSH2 0x39C JUMPI DUP1 PUSH4 0x5C975ABB EQ PUSH2 0x3C6 JUMPI DUP1 PUSH4 0x6900670C EQ PUSH2 0x3F0 JUMPI DUP1 PUSH4 0x698B7241 EQ PUSH2 0x41A JUMPI PUSH2 0x233 JUMP JUMPDEST DUP1 PUSH4 0x248A9CA3 GT PUSH2 0x1C0 JUMPI DUP1 PUSH4 0x248A9CA3 EQ PUSH2 0x2FA JUMPI DUP1 PUSH4 0x2F2FF15D EQ PUSH2 0x336 JUMPI DUP1 PUSH4 0x36568ABE EQ PUSH2 0x35E JUMPI DUP1 PUSH4 0x38D5C916 EQ PUSH2 0x386 JUMPI PUSH2 0x233 JUMP JUMPDEST DUP1 PUSH4 0x1FFC9A7 EQ PUSH2 0x270 JUMPI DUP1 PUSH4 0x594CC69 EQ PUSH2 0x2AC JUMPI DUP1 PUSH4 0x16A1930F EQ PUSH2 0x2DA JUMPI DUP1 PUSH4 0x1A003ECB EQ PUSH2 0x2E4 JUMPI PUSH2 0x233 JUMP JUMPDEST CALLDATASIZE PUSH2 0x233 JUMPI CALLER PUSH1 0x40 MLOAD PUSH32 0xE1D158FF00000000000000000000000000000000000000000000000000000000 DUP2 MSTORE PUSH1 0x4 ADD PUSH2 0x22A SWAP2 SWAP1 PUSH2 0x2BCA JUMP JUMPDEST PUSH1 0x40 MLOAD DUP1 SWAP2 SUB SWAP1 REVERT JUMPDEST CALLER PUSH1 0x40 MLOAD PUSH32 0xE1D158FF00000000000000000000000000000000000000000000000000000000 DUP2 MSTORE PUSH1 0x4 ADD PUSH2 0x267 SWAP2 SWAP1 PUSH2 0x2BCA JUMP JUMPDEST PUSH1 0x40 MLOAD DUP1 SWAP2 SUB SWAP1 REVERT JUMPDEST CALLVALUE DUP1 ISZERO PUSH2 0x27B JUMPI PUSH0 PUSH0 REVERT JUMPDEST POP PUSH2 0x296 PUSH1 0x4 DUP1 CALLDATASIZE SUB DUP2 ADD SWAP1 PUSH2 0x291 SWAP2 SWAP1 PUSH2 0x2C3C JUMP JUMPDEST PUSH2 0x7B4 JUMP JUMPDEST PUSH1 0x40 MLOAD PUSH2 0x2A3 SWAP2 SWAP1 PUSH2 0x2C81 JUMP JUMPDEST PUSH1 0x40 MLOAD DUP1 SWAP2 SUB SWAP1 RETURN JUMPDEST CALLVALUE DUP1 ISZERO PUSH2 0x2B7 JUMPI PUSH0 PUSH0 REVERT JUMPDEST POP PUSH2 0x2C0 PUSH2 0x7C5 JUMP JUMPDEST PUSH1 0x40 MLOAD PUSH2 0x2D1 SWAP6 SWAP5 SWAP4 SWAP3 SWAP2 SWAP1 PUSH2 0x2CB2 JUMP JUMPDEST PUSH1 0x40 MLOAD DUP1 SWAP2 SUB SWAP1 RETURN JUMPDEST PUSH2 0x2E2 PUSH2 0x84A JUMP JUMPDEST STOP JUMPDEST CALLVALUE DUP1 ISZERO PUSH2 0x2EF JUMPI PUSH0 PUSH0 REVERT JUMPDEST POP PUSH2 0x2F8 PUSH2 0x871 JUMP JUMPDEST STOP JUMPDEST CALLVALUE DUP1 ISZERO PUSH2 0x305 JUMPI PUSH0 PUSH0 REVERT JUMPDEST POP PUSH2 0x320 PUSH1 0x4 DUP1 CALLDATASIZE SUB DUP2 ADD SWAP1 PUSH2 0x31B SWAP2 SWAP1 PUSH2 0x2D36 JUMP JUMPDEST PUSH2 0x97F JUMP JUMPDEST PUSH1 0x40 MLOAD PUSH2 0x32D SWAP2 SWAP1 PUSH2 0x2D70 JUMP JUMPDEST PUSH1 0x40 MLOAD DUP1 SWAP2 SUB SWAP1 RETURN JUMPDEST CALLVALUE DUP1 ISZERO PUSH2 0x341 JUMPI PUSH0 PUSH0 REVERT JUMPDEST POP PUSH2 0x35C PUSH1 0x4 DUP1 CALLDATASIZE SUB DUP2 ADD SWAP1 PUSH2 0x357 SWAP2 SWAP1 PUSH2 0x2DB3 JUMP JUMPDEST PUSH2 0x99C JUMP JUMPDEST STOP JUMPDEST CALLVALUE DUP1 ISZERO PUSH2 0x369 JUMPI PUSH0 PUSH0 REVERT JUMPDEST POP PUSH2 0x384 PUSH1 0x4 DUP1 CALLDATASIZE SUB DUP2 ADD SWAP1 PUSH2 0x37F SWAP2 SWAP1 PUSH2 0x2DB3 JUMP JUMPDEST PUSH2 0x9BE JUMP JUMPDEST STOP JUMPDEST CALLVALUE DUP1 ISZERO PUSH2 0x391 JUMPI PUSH0 PUSH0 REVERT JUMPDEST POP PUSH2 0x39A PUSH2 0xA39 JUMP JUMPDEST STOP JUMPDEST CALLVALUE DUP1 ISZERO PUSH2 0x3A7 JUMPI PUSH0 PUSH0 REVERT JUMPDEST POP PUSH2 0x3B0 PUSH2 0xB47 JUMP JUMPDEST PUSH1 0x40 MLOAD PUSH2 0x3BD SWAP2 SWAP1 PUSH2 0x2DF1 JUMP JUMPDEST PUSH1 0x40 MLOAD DUP1 SWAP2 SUB SWAP1 RETURN JUMPDEST CALLVALUE DUP1 ISZERO PUSH2 0x3D1 JUMPI PUSH0 PUSH0 REVERT JUMPDEST POP PUSH2 0x3DA PUSH2 0xB4F JUMP JUMPDEST PUSH1 0x40 MLOAD PUSH2 0x3E7 SWAP2 SWAP1 PUSH2 0x2C81 JUMP JUMPDEST PUSH1 0x40 MLOAD DUP1 SWAP2 SUB SWAP1 RETURN JUMPDEST CALLVALUE DUP1 ISZERO PUSH2 0x3FB JUMPI PUSH0 PUSH0 REVERT JUMPDEST POP PUSH2 0x404 PUSH2 0xB65 JUMP JUMPDEST PUSH1 0x40 MLOAD PUSH2 0x411 SWAP2 SWAP1 PUSH2 0x2DF1 JUMP JUMPDEST PUSH1 0x40 MLOAD DUP1 SWAP2 SUB SWAP1 RETURN JUMPDEST CALLVALUE DUP1 ISZERO PUSH2 0x425 JUMPI PUSH0 PUSH0 REVERT JUMPDEST POP PUSH2 0x440 PUSH1 0x4 DUP1 CALLDATASIZE SUB DUP2 ADD SWAP1 PUSH2 0x43B SWAP2 SWAP1 PUSH2 0x2E34 JUMP JUMPDEST PUSH2 0xC8F JUMP JUMPDEST STOP JUMPDEST CALLVALUE DUP1 ISZERO PUSH2 0x44D JUMPI PUSH0 PUSH0 REVERT JUMPDEST POP PUSH2 0x456 PUSH2 0xFF5 JUMP JUMPDEST PUSH1 0x40 MLOAD PUSH2 0x463 SWAP2 SWAP1 PUSH2 0x2EBA JUMP JUMPDEST PUSH1 0x40 MLOAD DUP1 SWAP2 SUB SWAP1 RETURN JUMPDEST CALLVALUE DUP1 ISZERO PUSH2 0x477 JUMPI PUSH0 PUSH0 REVERT JUMPDEST POP PUSH2 0x480 PUSH2 0x101A JUMP JUMPDEST STOP JUMPDEST CALLVALUE DUP1 ISZERO PUSH2 0x48D JUMPI PUSH0 PUSH0 REVERT JUMPDEST POP PUSH2 0x496 PUSH2 0x102D JUMP JUMPDEST PUSH1 0x40 MLOAD PUSH2 0x4A3 SWAP2 SWAP1 PUSH2 0x2DF1 JUMP JUMPDEST PUSH1 0x40 MLOAD DUP1 SWAP2 SUB SWAP1 RETURN JUMPDEST CALLVALUE DUP1 ISZERO PUSH2 0x4B7 JUMPI PUSH0 PUSH0 REVERT JUMPDEST POP PUSH2 0x4D2 PUSH1 0x4 DUP1 CALLDATASIZE SUB DUP2 ADD SWAP1 PUSH2 0x4CD SWAP2 SWAP1 PUSH2 0x2ED3 JUMP JUMPDEST PUSH2 0x10AC JUMP JUMPDEST STOP JUMPDEST CALLVALUE DUP1 ISZERO PUSH2 0x4DF JUMPI PUSH0 PUSH0 REVERT JUMPDEST POP PUSH2 0x4FA PUSH1 0x4 DUP1 CALLDATASIZE SUB DUP2 ADD SWAP1 PUSH2 0x4F5 SWAP2 SWAP1 PUSH2 0x2E34 JUMP JUMPDEST PUSH2 0x13D2 JUMP JUMPDEST STOP JUMPDEST CALLVALUE DUP1 ISZERO PUSH2 0x507 JUMPI PUSH0 PUSH0 REVERT JUMPDEST POP PUSH2 0x522 PUSH1 0x4 DUP1 CALLDATASIZE SUB DUP2 ADD SWAP1 PUSH2 0x51D SWAP2 SWAP1 PUSH2 0x2ED3 JUMP JUMPDEST PUSH2 0x13E6 JUMP JUMPDEST STOP JUMPDEST CALLVALUE DUP1 ISZERO PUSH2 0x52F JUMPI PUSH0 PUSH0 REVERT JUMPDEST POP PUSH2 0x538 PUSH2 0x152E JUMP JUMPDEST PUSH1 0x40 MLOAD PUSH2 0x545 SWAP2 SWAP1 PUSH2 0x2BCA JUMP JUMPDEST PUSH1 0x40 MLOAD DUP1 SWAP2 SUB SWAP1 RETURN JUMPDEST CALLVALUE DUP1 ISZERO PUSH2 0x559 JUMPI PUSH0 PUSH0 REVERT JUMPDEST POP PUSH2 0x574 PUSH1 0x4 DUP1 CALLDATASIZE SUB DUP2 ADD SWAP1 PUSH2 0x56F SWAP2 SWAP1 PUSH2 0x2DB3 JUMP JUMPDEST PUSH2 0x1556 JUMP JUMPDEST PUSH1 0x40 MLOAD PUSH2 0x581 SWAP2 SWAP1 PUSH2 0x2C81 JUMP JUMPDEST PUSH1 0x40 MLOAD DUP1 SWAP2 SUB SWAP1 RETURN JUMPDEST CALLVALUE DUP1 ISZERO PUSH2 0x595 JUMPI PUSH0 PUSH0 REVERT JUMPDEST POP PUSH2 0x5B0 PUSH1 0x4 DUP1 CALLDATASIZE SUB DUP2 ADD SWAP1 PUSH2 0x5AB SWAP2 SWAP1 PUSH2 0x2E34 JUMP JUMPDEST PUSH2 0x15BA JUMP JUMPDEST STOP JUMPDEST CALLVALUE DUP1 ISZERO PUSH2 0x5BD JUMPI PUSH0 PUSH0 REVERT JUMPDEST POP PUSH2 0x5C6 PUSH2 0x15CE JUMP JUMPDEST PUSH1 0x40 MLOAD PUSH2 0x5D3 SWAP2 SWAP1 PUSH2 0x2DF1 JUMP JUMPDEST PUSH1 0x40 MLOAD DUP1 SWAP2 SUB SWAP1 RETURN JUMPDEST CALLVALUE DUP1 ISZERO PUSH2 0x5E7 JUMPI PUSH0 PUSH0 REVERT JUMPDEST POP PUSH2 0x5F0 PUSH2 0x15D7 JUMP JUMPDEST PUSH1 0x40 MLOAD PUSH2 0x5FD SWAP2 SWAP1 PUSH2 0x2DF1 JUMP JUMPDEST PUSH1 0x40 MLOAD DUP1 SWAP2 SUB SWAP1 RETURN JUMPDEST CALLVALUE DUP1 ISZERO PUSH2 0x611 JUMPI PUSH0 PUSH0 REVERT JUMPDEST POP PUSH2 0x61A PUSH2 0x1676 JUMP JUMPDEST PUSH1 0x40 MLOAD PUSH2 0x627 SWAP2 SWAP1 PUSH2 0x2D70 JUMP JUMPDEST PUSH1 0x40 MLOAD DUP1 SWAP2 SUB SWAP1 RETURN JUMPDEST CALLVALUE DUP1 ISZERO PUSH2 0x63B JUMPI PUSH0 PUSH0 REVERT JUMPDEST POP PUSH2 0x644 PUSH2 0x167C JUMP JUMPDEST PUSH1 0x40 MLOAD PUSH2 0x651 SWAP2 SWAP1 PUSH2 0x2DF1 JUMP JUMPDEST PUSH1 0x40 MLOAD DUP1 SWAP2 SUB SWAP1 RETURN JUMPDEST CALLVALUE DUP1 ISZERO PUSH2 0x665 JUMPI PUSH0 PUSH0 REVERT JUMPDEST POP PUSH2 0x66E PUSH2 0x16B3 JUMP JUMPDEST PUSH1 0x40 MLOAD PUSH2 0x67B SWAP2 SWAP1 PUSH2 0x2D70 JUMP JUMPDEST PUSH1 0x40 MLOAD DUP1 SWAP2 SUB SWAP1 RETURN JUMPDEST CALLVALUE DUP1 ISZERO PUSH2 0x68F JUMPI PUSH0 PUSH0 REVERT JUMPDEST POP PUSH2 0x6AA PUSH1 0x4 DUP1 CALLDATASIZE SUB DUP2 ADD SWAP1 PUSH2 0x6A5 SWAP2 SWAP1 PUSH2 0x2EFE JUMP JUMPDEST PUSH2 0x16D7 JUMP JUMPDEST STOP JUMPDEST CALLVALUE DUP1 ISZERO PUSH2 0x6B7 JUMPI PUSH0 PUSH0 REVERT JUMPDEST POP PUSH2 0x6D2 PUSH1 0x4 DUP1 CALLDATASIZE SUB DUP2 ADD SWAP1 PUSH2 0x6CD SWAP2 SWAP1 PUSH2 0x2DB3 JUMP JUMPDEST PUSH2 0x173B JUMP JUMPDEST STOP JUMPDEST CALLVALUE DUP1 ISZERO PUSH2 0x6DF JUMPI PUSH0 PUSH0 REVERT JUMPDEST POP PUSH2 0x6E8 PUSH2 0x175D JUMP JUMPDEST PUSH1 0x40 MLOAD PUSH2 0x6F5 SWAP2 SWAP1 PUSH2 0x2D70 JUMP JUMPDEST PUSH1 0x40 MLOAD DUP1 SWAP2 SUB SWAP1 RETURN JUMPDEST CALLVALUE DUP1 ISZERO PUSH2 0x709 JUMPI PUSH0 PUSH0 REVERT JUMPDEST POP PUSH2 0x724 PUSH1 0x4 DUP1 CALLDATASIZE SUB DUP2 ADD SWAP1 PUSH2 0x71F SWAP2 SWAP1 PUSH2 0x2EFE JUMP JUMPDEST PUSH2 0x1781 JUMP JUMPDEST STOP JUMPDEST CALLVALUE DUP1 ISZERO PUSH2 0x731 JUMPI PUSH0 PUSH0 REVERT JUMPDEST POP PUSH2 0x74C PUSH1 0x4 DUP1 CALLDATASIZE SUB DUP2 ADD SWAP1 PUSH2 0x747 SWAP2 SWAP1 PUSH2 0x2ED3 JUMP JUMPDEST PUSH2 0x17E5 JUMP JUMPDEST STOP JUMPDEST CALLVALUE DUP1 ISZERO PUSH2 0x759 JUMPI PUSH0 PUSH0 REVERT JUMPDEST POP PUSH2 0x762 PUSH2 0x1869 JUMP JUMPDEST PUSH1 0x40 MLOAD PUSH2 0x76F SWAP2 SWAP1 PUSH2 0x2DF1 JUMP JUMPDEST PUSH1 0x40 MLOAD DUP1 SWAP2 SUB SWAP1 RETURN JUMPDEST CALLVALUE DUP1 ISZERO PUSH2 0x783 JUMPI PUSH0 PUSH0 REVERT JUMPDEST POP PUSH2 0x79E PUSH1 0x4 DUP1 CALLDATASIZE SUB DUP2 ADD SWAP1 PUSH2 0x799 SWAP2 SWAP1 PUSH2 0x2F3C JUMP JUMPDEST PUSH2 0x189F JUMP JUMPDEST PUSH1 0x40 MLOAD PUSH2 0x7AB SWAP2 SWAP1 PUSH2 0x2DF1 JUMP JUMPDEST PUSH1 0x40 MLOAD DUP1 SWAP2 SUB SWAP1 RETURN JUMPDEST PUSH0 PUSH2 0x7BE DUP3 PUSH2 0x1921 JUMP JUMPDEST SWAP1 POP SWAP2 SWAP1 POP JUMP JUMPDEST PUSH0 PUSH0 PUSH0 PUSH0 PUSH0 PUSH2 0x7D2 PUSH2 0xB4F JUMP JUMPDEST PUSH1 0x4 SLOAD PUSH32 0x0 PUSH32 0x0 PUSH1 0x3 PUSH0 SWAP1 SLOAD SWAP1 PUSH2 0x100 EXP SWAP1 DIV PUSH20 0xFFFFFFFFFFFFFFFFFFFFFFFFFFFFFFFFFFFFFFFF AND SWAP5 POP SWAP5 POP SWAP5 POP SWAP5 POP SWAP5 POP SWAP1 SWAP2 SWAP3 SWAP4 SWAP5 JUMP JUMPDEST PUSH2 0x852 PUSH2 0x199A JUMP JUMPDEST PUSH0 CALLVALUE SWAP1 POP PUSH0 PUSH2 0x860 DUP3 PUSH2 0x19DB JUMP JUMPDEST SWAP1 POP PUSH2 0x86D CALLER DUP3 DUP5 PUSH2 0x1A0A JUMP JUMPDEST POP POP JUMP JUMPDEST PUSH32 0x539440820030C4994DB4E31B6B800DEAFD503688728F932ADDFE7A410515C14C CALLER PUSH20 0xFFFFFFFFFFFFFFFFFFFFFFFFFFFFFFFFFFFFFFFF AND PUSH2 0x8B1 PUSH2 0x152E JUMP JUMPDEST PUSH20 0xFFFFFFFFFFFFFFFFFFFFFFFFFFFFFFFFFFFFFFFF AND EQ ISZERO DUP1 ISZERO PUSH2 0x8DC JUMPI POP PUSH2 0x8DA DUP2 CALLER PUSH2 0x1556 JUMP JUMPDEST ISZERO JUMPDEST ISZERO PUSH2 0x91E JUMPI CALLER PUSH1 0x40 MLOAD PUSH32 0x6286EAA00000000000000000000000000000000000000000000000000000000 DUP2 MSTORE PUSH1 0x4 ADD PUSH2 0x915 SWAP2 SWAP1 PUSH2 0x2BCA JUMP JUMPDEST PUSH1 0x40 MLOAD DUP1 SWAP2 SUB SWAP1 REVERT JUMPDEST PUSH2 0x926 PUSH2 0x199A JUMP JUMPDEST PUSH2 0x92E PUSH2 0x1C6A JUMP JUMPDEST CALLER PUSH20 0xFFFFFFFFFFFFFFFFFFFFFFFFFFFFFFFFFFFFFFFF AND PUSH32 0x65AB6ADC87722A7ACD973FFED16CBA7CFDF07B5329157A7192434753BA9DAC13 TIMESTAMP PUSH1 0x40 MLOAD PUSH2 0x974 SWAP2 SWAP1 PUSH2 0x2DF1 JUMP JUMPDEST PUSH1 0x40 MLOAD DUP1 SWAP2 SUB SWAP1 LOG2 POP JUMP JUMPDEST PUSH0 PUSH1 0x2 PUSH0 DUP4 DUP2 MSTORE PUSH1 0x20 ADD SWAP1 DUP2 MSTORE PUSH1 0x20 ADD PUSH0 KECCAK256 PUSH1 0x1 ADD SLOAD SWAP1 POP SWAP2 SWAP1 POP JUMP JUMPDEST PUSH2 0x9A5 DUP3 PUSH2 0x97F JUMP JUMPDEST PUSH2 0x9AE DUP2 PUSH2 0x1CCC JUMP JUMPDEST PUSH2 0x9B8 DUP4 DUP4 PUSH2 0x1CE0 JUMP JUMPDEST POP POP POP POP JUMP JUMPDEST PUSH2 0x9C6 PUSH2 0x1DCA JUMP JUMPDEST PUSH20 0xFFFFFFFFFFFFFFFFFFFFFFFFFFFFFFFFFFFFFFFF AND DUP2 PUSH20 0xFFFFFFFFFFFFFFFFFFFFFFFFFFFFFFFFFFFFFFFF AND EQ PUSH2 0xA2A JUMPI PUSH1 0x40 MLOAD PUSH32 0x6697B23200000000000000000000000000000000000000000000000000000000 DUP2 MSTORE PUSH1 0x4 ADD PUSH1 0x40 MLOAD DUP1 SWAP2 SUB SWAP1 REVERT JUMPDEST PUSH2 0xA34 DUP3 DUP3 PUSH2 0x1DD1 JUMP JUMPDEST POP POP POP JUMP JUMPDEST PUSH32 0x539440820030C4994DB4E31B6B800DEAFD503688728F932ADDFE7A410515C14C CALLER PUSH20 0xFFFFFFFFFFFFFFFFFFFFFFFFFFFFFFFFFFFFFFFF AND PUSH2 0xA79 PUSH2 0x152E JUMP JUMPDEST PUSH20 0xFFFFFFFFFFFFFFFFFFFFFFFFFFFFFFFFFFFFFFFF AND EQ ISZERO DUP1 ISZERO PUSH2 0xAA4 JUMPI POP PUSH2 0xAA2 DUP2 CALLER PUSH2 0x1556 JUMP JUMPDEST ISZERO JUMPDEST ISZERO PUSH2 0xAE6 JUMPI CALLER PUSH1 0x40 MLOAD PUSH32 0x6286EAA00000000000000000000000000000000000000000000000000000000 DUP2 MSTORE PUSH1 0x4 ADD PUSH2 0xADD SWAP2 SWAP1 PUSH2 0x2BCA JUMP JUMPDEST PUSH1 0x40 MLOAD DUP1 SWAP2 SUB SWAP1 REVERT JUMPDEST PUSH2 0xAEE PUSH2 0x1EBB JUMP JUMPDEST PUSH2 0xAF6 PUSH2 0x1EFB JUMP JUMPDEST CALLER PUSH20 0xFFFFFFFFFFFFFFFFFFFFFFFFFFFFFFFFFFFFFFFF AND PUSH32 0x8AF9CF236F4B3AFB8D03262D5BEF5D95DB4DA02AA57892CD6474E8097F4F2B7 TIMESTAMP PUSH1 0x40 MLOAD PUSH2 0xB3C SWAP2 SWAP1 PUSH2 0x2DF1 JUMP JUMPDEST PUSH1 0x40 MLOAD DUP1 SWAP2 SUB SWAP1 LOG2 POP JUMP JUMPDEST PUSH4 0x3B9ACA00 DUP2 JUMP JUMPDEST PUSH0 PUSH1 0x1 PUSH1 0x14 SWAP1 SLOAD SWAP1 PUSH2 0x100 EXP SWAP1 DIV PUSH1 0xFF AND SWAP1 POP SWAP1 JUMP JUMPDEST PUSH0 PUSH1 0x6 PUSH0 PUSH32 0x0 PUSH20 0xFFFFFFFFFFFFFFFFFFFFFFFFFFFFFFFFFFFFFFFF AND PUSH20 0xFFFFFFFFFFFFFFFFFFFFFFFFFFFFFFFFFFFFFFFF AND DUP2 MSTORE PUSH1 0x20 ADD SWAP1 DUP2 MSTORE PUSH1 0x20 ADD PUSH0 KECCAK256 PUSH0 CALLER PUSH20 0xFFFFFFFFFFFFFFFFFFFFFFFFFFFFFFFFFFFFFFFF AND PUSH20 0xFFFFFFFFFFFFFFFFFFFFFFFFFFFFFFFFFFFFFFFF AND DUP2 MSTORE PUSH1 0x20 ADD SWAP1 DUP2 MSTORE PUSH1 0x20 ADD PUSH0 KECCAK256 SLOAD PUSH2 0xC80 PUSH1 0x6 PUSH0 PUSH0 PUSH20 0xFFFFFFFFFFFFFFFFFFFFFFFFFFFFFFFFFFFFFFFF AND PUSH20 0xFFFFFFFFFFFFFFFFFFFFFFFFFFFFFFFFFFFFFFFF AND DUP2 MSTORE PUSH1 0x20 ADD SWAP1 DUP2 MSTORE PUSH1 0x20 ADD PUSH0 KECCAK256 PUSH0 CALLER PUSH20 0xFFFFFFFFFFFFFFFFFFFFFFFFFFFFFFFFFFFFFFFF AND PUSH20 0xFFFFFFFFFFFFFFFFFFFFFFFFFFFFFFFFFFFFFFFF AND DUP2 MSTORE PUSH1 0x20 ADD SWAP1 DUP2 MSTORE PUSH1 0x20 ADD PUSH0 KECCAK256 SLOAD PUSH2 0x19DB JUMP JUMPDEST PUSH2 0xC8A SWAP2 SWAP1 PUSH2 0x2FA7 JUMP JUMPDEST SWAP1 POP SWAP1 JUMP JUMPDEST DUP1 PUSH0 DUP2 SUB PUSH2 0xCD4 JUMPI CALLER PUSH1 0x40 MLOAD PUSH32 0xB2F0923100000000000000000000000000000000000000000000000000000000 DUP2 MSTORE PUSH1 0x4 ADD PUSH2 0xCCB SWAP2 SWAP1 PUSH2 0x2BCA JUMP JUMPDEST PUSH1 0x40 MLOAD DUP1 SWAP2 SUB SWAP1 REVERT JUMPDEST PUSH32 0x0 PUSH1 0x4 SLOAD DUP3 PUSH2 0xD03 SWAP2 SWAP1 PUSH2 0x2FA7 JUMP JUMPDEST GT ISZERO PUSH2 0xD46 JUMPI DUP1 PUSH1 0x40 MLOAD PUSH32 0x2900B02C00000000000000000000000000000000000000000000000000000000 DUP2 MSTORE PUSH1 0x4 ADD PUSH2 0xD3D SWAP2 SWAP1 PUSH2 0x2DF1 JUMP JUMPDEST PUSH1 0x40 MLOAD DUP1 SWAP2 SUB SWAP1 REVERT JUMPDEST PUSH2 0xD4E PUSH2 0x199A JUMP JUMPDEST DUP2 PUSH32 0x0 PUSH20 0xFFFFFFFFFFFFFFFFFFFFFFFFFFFFFFFFFFFFFFFF AND PUSH4 0xDD62ED3E CALLER ADDRESS PUSH1 0x40 MLOAD DUP4 PUSH4 0xFFFFFFFF AND PUSH1 0xE0 SHL DUP2 MSTORE PUSH1 0x4 ADD PUSH2 0xDAA SWAP3 SWAP2 SWAP1 PUSH2 0x2FDA JUMP JUMPDEST PUSH1 0x20 PUSH1 0x40 MLOAD DUP1 DUP4 SUB DUP2 DUP7 GAS STATICCALL ISZERO DUP1 ISZERO PUSH2 0xDC5 JUMPI RETURNDATASIZE PUSH0 PUSH0 RETURNDATACOPY RETURNDATASIZE PUSH0 REVERT JUMPDEST POP POP POP POP PUSH1 0x40 MLOAD RETURNDATASIZE PUSH1 0x1F NOT PUSH1 0x1F DUP3 ADD AND DUP3 ADD DUP1 PUSH1 0x40 MSTORE POP DUP2 ADD SWAP1 PUSH2 0xDE9 SWAP2 SWAP1 PUSH2 0x3015 JUMP JUMPDEST LT ISZERO PUSH2 0xE2C JUMPI DUP2 PUSH1 0x40 MLOAD PUSH32 0xC481CABA00000000000000000000000000000000000000000000000000000000 DUP2 MSTORE PUSH1 0x4 ADD PUSH2 0xE23 SWAP2 SWAP1 PUSH2 0x2DF1 JUMP JUMPDEST PUSH1 0x40 MLOAD DUP1 SWAP2 SUB SWAP1 REVERT JUMPDEST DUP2 PUSH1 0x6 PUSH0 PUSH32 0x0 PUSH20 0xFFFFFFFFFFFFFFFFFFFFFFFFFFFFFFFFFFFFFFFF AND PUSH20 0xFFFFFFFFFFFFFFFFFFFFFFFFFFFFFFFFFFFFFFFF AND DUP2 MSTORE PUSH1 0x20 ADD SWAP1 DUP2 MSTORE PUSH1 0x20 ADD PUSH0 KECCAK256 PUSH0 CALLER PUSH20 0xFFFFFFFFFFFFFFFFFFFFFFFFFFFFFFFFFFFFFFFF AND PUSH20 0xFFFFFFFFFFFFFFFFFFFFFFFFFFFFFFFFFFFFFFFF AND DUP2 MSTORE PUSH1 0x20 ADD SWAP1 DUP2 MSTORE PUSH1 0x20 ADD PUSH0 KECCAK256 PUSH0 DUP3 DUP3 SLOAD PUSH2 0xED3 SWAP2 SWAP1 PUSH2 0x2FA7 JUMP JUMPDEST SWAP3 POP POP DUP2 SWAP1 SSTORE POP PUSH1 0x5 PUSH0 DUP2 DUP2 SWAP1 SLOAD SWAP1 PUSH2 0x100 EXP SWAP1 DIV PUSH16 0xFFFFFFFFFFFFFFFFFFFFFFFFFFFFFFFF AND DUP1 SWAP3 SWAP2 SWAP1 PUSH2 0xF07 SWAP1 PUSH2 0x305B JUMP JUMPDEST SWAP2 SWAP1 PUSH2 0x100 EXP DUP2 SLOAD DUP2 PUSH16 0xFFFFFFFFFFFFFFFFFFFFFFFFFFFFFFFF MUL NOT AND SWAP1 DUP4 PUSH16 0xFFFFFFFFFFFFFFFFFFFFFFFFFFFFFFFF AND MUL OR SWAP1 SSTORE POP POP DUP2 PUSH1 0x4 PUSH0 DUP3 DUP3 SLOAD PUSH2 0xF4F SWAP2 SWAP1 PUSH2 0x2FA7 JUMP JUMPDEST SWAP3 POP POP DUP2 SWAP1 SSTORE POP CALLER PUSH20 0xFFFFFFFFFFFFFFFFFFFFFFFFFFFFFFFFFFFFFFFF AND PUSH32 0x9D15693852BF60DC27BD5AA831D0351359B7D01D428AE1BAAE11F15CBCFEBAFD DUP4 PUSH1 0x40 MLOAD PUSH2 0xF9C SWAP2 SWAP1 PUSH2 0x2DF1 JUMP JUMPDEST PUSH1 0x40 MLOAD DUP1 SWAP2 SUB SWAP1 LOG2 PUSH2 0xFF1 CALLER ADDRESS DUP5 PUSH32 0x0 PUSH20 0xFFFFFFFFFFFFFFFFFFFFFFFFFFFFFFFFFFFFFFFF AND PUSH2 0x1F5D SWAP1 SWAP4 SWAP3 SWAP2 SWAP1 PUSH4 0xFFFFFFFF AND JUMP JUMPDEST POP POP JUMP JUMPDEST PUSH1 0x3 PUSH0 SWAP1 SLOAD SWAP1 PUSH2 0x100 EXP SWAP1 DIV PUSH20 0xFFFFFFFFFFFFFFFFFFFFFFFFFFFFFFFFFFFFFFFF AND DUP2 JUMP JUMPDEST PUSH2 0x1022 PUSH2 0x1FDF JUMP JUMPDEST PUSH2 0x102B PUSH0 PUSH2 0x2066 JUMP JUMPDEST JUMP JUMPDEST PUSH0 PUSH1 0x6 PUSH0 PUSH0 PUSH20 0xFFFFFFFFFFFFFFFFFFFFFFFFFFFFFFFFFFFFFFFF AND PUSH20 0xFFFFFFFFFFFFFFFFFFFFFFFFFFFFFFFFFFFFFFFF AND DUP2 MSTORE PUSH1 0x20 ADD SWAP1 DUP2 MSTORE PUSH1 0x20 ADD PUSH0 KECCAK256 PUSH0 CALLER PUSH20 0xFFFFFFFFFFFFFFFFFFFFFFFFFFFFFFFFFFFFFFFF AND PUSH20 0xFFFFFFFFFFFFFFFFFFFFFFFFFFFFFFFFFFFFFFFF AND DUP2 MSTORE PUSH1 0x20 ADD SWAP1 DUP2 MSTORE PUSH1 0x20 ADD PUSH0 KECCAK256 SLOAD SWAP1 POP SWAP1 JUMP JUMPDEST PUSH32 0x9BBB3EE3BDFBE971682B08854A620CA4BF696F8E0C269E5C5B129A18E64D29DF CALLER PUSH20 0xFFFFFFFFFFFFFFFFFFFFFFFFFFFFFFFFFFFFFFFF AND PUSH2 0x10EC PUSH2 0x152E JUMP JUMPDEST PUSH20 0xFFFFFFFFFFFFFFFFFFFFFFFFFFFFFFFFFFFFFFFF AND EQ ISZERO DUP1 ISZERO PUSH2 0x1117 JUMPI POP PUSH2 0x1115 DUP2 CALLER PUSH2 0x1556 JUMP JUMPDEST ISZERO JUMPDEST ISZERO PUSH2 0x1159 JUMPI CALLER PUSH1 0x40 MLOAD PUSH32 0x6286EAA00000000000000000000000000000000000000000000000000000000 DUP2 MSTORE PUSH1 0x4 ADD PUSH2 0x1150 SWAP2 SWAP1 PUSH2 0x2BCA JUMP JUMPDEST PUSH1 0x40 MLOAD DUP1 SWAP2 SUB SWAP1 REVERT JUMPDEST PUSH2 0x1161 PUSH2 0x1EBB JUMP JUMPDEST PUSH0 PUSH20 0xFFFFFFFFFFFFFFFFFFFFFFFFFFFFFFFFFFFFFFFF AND DUP3 PUSH20 0xFFFFFFFFFFFFFFFFFFFFFFFFFFFFFFFFFFFFFFFF AND SUB PUSH2 0x11C6 JUMPI PUSH1 0x40 MLOAD PUSH32 0x463858D600000000000000000000000000000000000000000000000000000000 DUP2 MSTORE PUSH1 0x4 ADD PUSH1 0x40 MLOAD DUP1 SWAP2 SUB SWAP1 REVERT JUMPDEST DUP2 PUSH20 0xFFFFFFFFFFFFFFFFFFFFFFFFFFFFFFFFFFFFFFFF AND PUSH4 0xFEAF968C PUSH1 0x40 MLOAD DUP2 PUSH4 0xFFFFFFFF AND PUSH1 0xE0 SHL DUP2 MSTORE PUSH1 0x4 ADD PUSH1 0xA0 PUSH1 0x40 MLOAD DUP1 DUP4 SUB DUP2 DUP7 GAS STATICCALL SWAP3 POP POP POP DUP1 ISZERO PUSH2 0x122E JUMPI POP PUSH1 0x40 MLOAD RETURNDATASIZE PUSH1 0x1F NOT PUSH1 0x1F DUP3 ADD AND DUP3 ADD DUP1 PUSH1 0x40 MSTORE POP DUP2 ADD SWAP1 PUSH2 0x122B SWAP2 SWAP1 PUSH2 0x3104 JUMP JUMPDEST PUSH1 0x1 JUMPDEST PUSH2 0x126F JUMPI DUP2 PUSH1 0x40 MLOAD PUSH32 0x59EEA31500000000000000000000000000000000000000000000000000000000 DUP2 MSTORE PUSH1 0x4 ADD PUSH2 0x1266 SWAP2 SWAP1 PUSH2 0x2BCA JUMP JUMPDEST PUSH1 0x40 MLOAD DUP1 SWAP2 SUB SWAP1 REVERT JUMPDEST PUSH0 DUP5 SGT PUSH2 0x12B3 JUMPI DUP7 PUSH1 0x40 MLOAD PUSH32 0x59EEA31500000000000000000000000000000000000000000000000000000000 DUP2 MSTORE PUSH1 0x4 ADD PUSH2 0x12AA SWAP2 SWAP1 PUSH2 0x2BCA JUMP JUMPDEST PUSH1 0x40 MLOAD DUP1 SWAP2 SUB SWAP1 REVERT JUMPDEST PUSH2 0xE10 PUSH2 0xFFFF AND DUP3 TIMESTAMP PUSH2 0x12C6 SWAP2 SWAP1 PUSH2 0x317B JUMP JUMPDEST GT ISZERO PUSH2 0x1309 JUMPI DUP4 PUSH1 0x40 MLOAD PUSH32 0x2609A26500000000000000000000000000000000000000000000000000000000 DUP2 MSTORE PUSH1 0x4 ADD PUSH2 0x1300 SWAP2 SWAP1 PUSH2 0x2DF1 JUMP JUMPDEST PUSH1 0x40 MLOAD DUP1 SWAP2 SUB SWAP1 REVERT JUMPDEST PUSH0 PUSH1 0x3 PUSH0 SWAP1 SLOAD SWAP1 PUSH2 0x100 EXP SWAP1 DIV PUSH20 0xFFFFFFFFFFFFFFFFFFFFFFFFFFFFFFFFFFFFFFFF AND SWAP1 POP DUP8 PUSH1 0x3 PUSH0 PUSH2 0x100 EXP DUP2 SLOAD DUP2 PUSH20 0xFFFFFFFFFFFFFFFFFFFFFFFFFFFFFFFFFFFFFFFF MUL NOT AND SWAP1 DUP4 PUSH20 0xFFFFFFFFFFFFFFFFFFFFFFFFFFFFFFFFFFFFFFFF AND MUL OR SWAP1 SSTORE POP DUP8 PUSH20 0xFFFFFFFFFFFFFFFFFFFFFFFFFFFFFFFFFFFFFFFF AND DUP2 PUSH20 0xFFFFFFFFFFFFFFFFFFFFFFFFFFFFFFFFFFFFFFFF AND PUSH32 0x3028D95BD98A5EC8C81B55C2B61E734DDE89BB773697B429BD195FD00582B30 PUSH1 0x40 MLOAD PUSH1 0x40 MLOAD DUP1 SWAP2 SUB SWAP1 LOG3 POP POP POP POP POP POP POP POP JUMP JUMPDEST PUSH2 0x13DA PUSH2 0x199A JUMP JUMPDEST PUSH2 0x13E3 DUP2 PUSH2 0x2129 JUMP JUMPDEST POP JUMP JUMPDEST PUSH2 0x13EE PUSH2 0x1FDF JUMP JUMPDEST PUSH2 0x13F6 PUSH2 0x1EBB JUMP JUMPDEST PUSH0 PUSH2 0x13FF PUSH2 0x152E JUMP JUMPDEST SWAP1 POP PUSH2 0x140D PUSH0 PUSH0 SHL DUP3 PUSH2 0x1DD1 JUMP JUMPDEST POP PUSH2 0x1438 PUSH32 0x539440820030C4994DB4E31B6B800DEAFD503688728F932ADDFE7A410515C14C DUP3 PUSH2 0x1DD1 JUMP JUMPDEST POP PUSH2 0x1463 PUSH32 0x9BBB3EE3BDFBE971682B08854A620CA4BF696F8E0C269E5C5B129A18E64D29DF DUP3 PUSH2 0x1DD1 JUMP JUMPDEST POP PUSH2 0x146D DUP3 PUSH2 0x2066 JUMP JUMPDEST PUSH2 0x1479 PUSH0 PUSH0 SHL DUP4 PUSH2 0x1CE0 JUMP JUMPDEST POP PUSH2 0x14A4 PUSH32 0x9BBB3EE3BDFBE971682B08854A620CA4BF696F8E0C269E5C5B129A18E64D29DF DUP4 PUSH2 0x1CE0 JUMP JUMPDEST POP PUSH2 0x14CF PUSH32 0x539440820030C4994DB4E31B6B800DEAFD503688728F932ADDFE7A410515C14C DUP4 PUSH2 0x1CE0 JUMP JUMPDEST POP DUP2 PUSH20 0xFFFFFFFFFFFFFFFFFFFFFFFFFFFFFFFFFFFFFFFF AND DUP2 PUSH20 0xFFFFFFFFFFFFFFFFFFFFFFFFFFFFFFFFFFFFFFFF AND PUSH32 0x2ED8931CD5C0D36856A21C6245BF2E305F989A55C31BE2B6CB7EC0A4DA43C319 PUSH1 0x40 MLOAD PUSH1 0x40 MLOAD DUP1 SWAP2 SUB SWAP1 LOG3 POP POP JUMP JUMPDEST PUSH0 PUSH1 0x1 PUSH0 SWAP1 SLOAD SWAP1 PUSH2 0x100 EXP SWAP1 DIV PUSH20 0xFFFFFFFFFFFFFFFFFFFFFFFFFFFFFFFFFFFFFFFF AND SWAP1 POP SWAP1 JUMP JUMPDEST PUSH0 PUSH1 0x2 PUSH0 DUP5 DUP2 MSTORE PUSH1 0x20 ADD SWAP1 DUP2 MSTORE PUSH1 0x20 ADD PUSH0 KECCAK256 PUSH0 ADD PUSH0 DUP4 PUSH20 0xFFFFFFFFFFFFFFFFFFFFFFFFFFFFFFFFFFFFFFFF AND PUSH20 0xFFFFFFFFFFFFFFFFFFFFFFFFFFFFFFFFFFFFFFFF AND DUP2 MSTORE PUSH1 0x20 ADD SWAP1 DUP2 MSTORE PUSH1 0x20 ADD PUSH0 KECCAK256 PUSH0 SWAP1 SLOAD SWAP1 PUSH2 0x100 EXP SWAP1 DIV PUSH1 0xFF AND SWAP1 POP SWAP3 SWAP2 POP POP JUMP JUMPDEST PUSH2 0x15C2 PUSH2 0x199A JUMP JUMPDEST PUSH2 0x15CB DUP2 PUSH2 0x24C6 JUMP JUMPDEST POP JUMP JUMPDEST PUSH0 PUSH1 0x4 SLOAD SWAP1 POP SWAP1 JUMP JUMPDEST PUSH0 PUSH1 0x6 PUSH0 PUSH32 0x0 PUSH20 0xFFFFFFFFFFFFFFFFFFFFFFFFFFFFFFFFFFFFFFFF AND PUSH20 0xFFFFFFFFFFFFFFFFFFFFFFFFFFFFFFFFFFFFFFFF AND DUP2 MSTORE PUSH1 0x20 ADD SWAP1 DUP2 MSTORE PUSH1 0x20 ADD PUSH0 KECCAK256 PUSH0 CALLER PUSH20 0xFFFFFFFFFFFFFFFFFFFFFFFFFFFFFFFFFFFFFFFF AND PUSH20 0xFFFFFFFFFFFFFFFFFFFFFFFFFFFFFFFFFFFFFFFF AND DUP2 MSTORE PUSH1 0x20 ADD SWAP1 DUP2 MSTORE PUSH1 0x20 ADD PUSH0 KECCAK256 SLOAD SWAP1 POP SWAP1 JUMP JUMPDEST PUSH0 PUSH0 SHL DUP2 JUMP JUMPDEST PUSH0 PUSH1 0x5 PUSH1 0x10 SWAP1 SLOAD SWAP1 PUSH2 0x100 EXP SWAP1 DIV PUSH16 0xFFFFFFFFFFFFFFFFFFFFFFFFFFFFFFFF AND PUSH16 0xFFFFFFFFFFFFFFFFFFFFFFFFFFFFFFFF AND SWAP1 POP SWAP1 JUMP JUMPDEST PUSH32 0x9BBB3EE3BDFBE971682B08854A620CA4BF696F8E0C269E5C5B129A18E64D29DF DUP2 JUMP JUMPDEST PUSH2 0x16DF PUSH2 0x1FDF JUMP JUMPDEST PUSH2 0x16E9 DUP2 DUP4 PUSH2 0x99C JUMP JUMPDEST DUP2 PUSH20 0xFFFFFFFFFFFFFFFFFFFFFFFFFFFFFFFFFFFFFFFF AND PUSH32 0x56A39044E0E7AD5C8DB0ABDB4925F3D610D0F66AB2D22536712AFD06E6AA6032 DUP3 PUSH1 0x40 MLOAD PUSH2 0x172F SWAP2 SWAP1 PUSH2 0x2D70 JUMP JUMPDEST PUSH1 0x40 MLOAD DUP1 SWAP2 SUB SWAP1 LOG2 POP POP JUMP JUMPDEST PUSH2 0x1744 DUP3 PUSH2 0x97F JUMP JUMPDEST PUSH2 0x174D DUP2 PUSH2 0x1CCC JUMP JUMPDEST PUSH2 0x1757 DUP4 DUP4 PUSH2 0x1DD1 JUMP JUMPDEST POP POP POP POP JUMP JUMPDEST PUSH32 0x539440820030C4994DB4E31B6B800DEAFD503688728F932ADDFE7A410515C14C DUP2 JUMP JUMPDEST PUSH2 0x1789 PUSH2 0x1FDF JUMP JUMPDEST PUSH2 0x1793 DUP2 DUP4 PUSH2 0x173B JUMP JUMPDEST DUP2 PUSH20 0xFFFFFFFFFFFFFFFFFFFFFFFFFFFFFFFFFFFFFFFF AND PUSH32 0x2A235E73FBDF449DB29391F00A41FD53E24C96816320A25A710415E2C05370F0 DUP3 PUSH1 0x40 MLOAD PUSH2 0x17D9 SWAP2 SWAP1 PUSH2 0x2D70 JUMP JUMPDEST PUSH1 0x40 MLOAD DUP1 SWAP2 SUB SWAP1 LOG2 POP POP JUMP JUMPDEST PUSH2 0x17ED PUSH2 0x1FDF JUMP JUMPDEST PUSH0 PUSH20 0xFFFFFFFFFFFFFFFFFFFFFFFFFFFFFFFFFFFFFFFF AND DUP2 PUSH20 0xFFFFFFFFFFFFFFFFFFFFFFFFFFFFFFFFFFFFFFFF AND SUB PUSH2 0x185D JUMPI PUSH0 PUSH1 0x40 MLOAD PUSH32 0x1E4FBDF700000000000000000000000000000000000000000000000000000000 DUP2 MSTORE PUSH1 0x4 ADD PUSH2 0x1854 SWAP2 SWAP1 PUSH2 0x2BCA JUMP JUMPDEST PUSH1 0x40 MLOAD DUP1 SWAP2 SUB SWAP1 REVERT JUMPDEST PUSH2 0x1866 DUP2 PUSH2 0x2066 JUMP JUMPDEST POP JUMP JUMPDEST PUSH0 PUSH1 0x5 PUSH0 SWAP1 SLOAD SWAP1 PUSH2 0x100 EXP SWAP1 DIV PUSH16 0xFFFFFFFFFFFFFFFFFFFFFFFFFFFFFFFF AND PUSH16 0xFFFFFFFFFFFFFFFFFFFFFFFFFFFFFFFF AND SWAP1 POP SWAP1 JUMP JUMPDEST PUSH0 PUSH1 0x6 PUSH0 DUP4 PUSH20 0xFFFFFFFFFFFFFFFFFFFFFFFFFFFFFFFFFFFFFFFF AND PUSH20 0xFFFFFFFFFFFFFFFFFFFFFFFFFFFFFFFFFFFFFFFF AND DUP2 MSTORE PUSH1 0x20 ADD SWAP1 DUP2 MSTORE PUSH1 0x20 ADD PUSH0 KECCAK256 PUSH0 DUP5 PUSH20 0xFFFFFFFFFFFFFFFFFFFFFFFFFFFFFFFFFFFFFFFF AND PUSH20 0xFFFFFFFFFFFFFFFFFFFFFFFFFFFFFFFFFFFFFFFF AND DUP2 MSTORE PUSH1 0x20 ADD SWAP1 DUP2 MSTORE PUSH1 0x20 ADD PUSH0 KECCAK256 SLOAD SWAP1 POP SWAP3 SWAP2 POP POP JUMP JUMPDEST PUSH0 PUSH32 0x7965DB0B00000000000000000000000000000000000000000000000000000000 PUSH28 0xFFFFFFFFFFFFFFFFFFFFFFFFFFFFFFFFFFFFFFFFFFFFFFFFFFFFFFFF NOT AND DUP3 PUSH28 0xFFFFFFFFFFFFFFFFFFFFFFFFFFFFFFFFFFFFFFFFFFFFFFFFFFFFFFFF NOT AND EQ DUP1 PUSH2 0x1993 JUMPI POP PUSH2 0x1992 DUP3 PUSH2 0x2827 JUMP JUMPDEST JUMPDEST SWAP1 POP SWAP2 SWAP1 POP JUMP JUMPDEST PUSH2 0x19A2 PUSH2 0xB4F JUMP JUMPDEST ISZERO PUSH2 0x19D9 JUMPI PUSH1 0x40 MLOAD PUSH32 0xD93C066500000000000000000000000000000000000000000000000000000000 DUP2 MSTORE PUSH1 0x4 ADD PUSH1 0x40 MLOAD DUP1 SWAP2 SUB SWAP1 REVERT JUMPDEST JUMP JUMPDEST PUSH0 PUSH9 0x56BC75E2D63100000 PUSH2 0x19EE PUSH2 0x2890 JUMP JUMPDEST DUP4 PUSH2 0x19F9 SWAP2 SWAP1 PUSH2 0x31AE JUMP JUMPDEST PUSH2 0x1A03 SWAP2 SWAP1 PUSH2 0x321C JUMP JUMPDEST SWAP1 POP SWAP2 SWAP1 POP JUMP JUMPDEST DUP2 DUP2 PUSH4 0x3B9ACA00 DUP2 LT ISZERO PUSH2 0x1A55 JUMPI DUP1 PUSH1 0x40 MLOAD PUSH32 0x3254757800000000000000000000000000000000000000000000000000000000 DUP2 MSTORE PUSH1 0x4 ADD PUSH2 0x1A4C SWAP2 SWAP1 PUSH2 0x2DF1 JUMP JUMPDEST PUSH1 0x40 MLOAD DUP1 SWAP2 SUB SWAP1 REVERT JUMPDEST PUSH0 DUP3 SUB PUSH2 0x1A99 JUMPI CALLER PUSH1 0x40 MLOAD PUSH32 0xB2F0923100000000000000000000000000000000000000000000000000000000 DUP2 MSTORE PUSH1 0x4 ADD PUSH2 0x1A90 SWAP2 SWAP1 PUSH2 0x2BCA JUMP JUMPDEST PUSH1 0x40 MLOAD DUP1 SWAP2 SUB SWAP1 REVERT JUMPDEST PUSH32 0x0 PUSH1 0x4 SLOAD DUP4 PUSH2 0x1AC8 SWAP2 SWAP1 PUSH2 0x2FA7 JUMP JUMPDEST GT ISZERO PUSH2 0x1B0B JUMPI DUP2 PUSH1 0x40 MLOAD PUSH32 0x2900B02C00000000000000000000000000000000000000000000000000000000 DUP2 MSTORE PUSH1 0x4 ADD PUSH2 0x1B02 SWAP2 SWAP1 PUSH2 0x2DF1 JUMP JUMPDEST PUSH1 0x40 MLOAD DUP1 SWAP2 SUB SWAP1 REVERT JUMPDEST DUP3 PUSH1 0x6 PUSH0 PUSH0 PUSH20 0xFFFFFFFFFFFFFFFFFFFFFFFFFFFFFFFFFFFFFFFF AND PUSH20 0xFFFFFFFFFFFFFFFFFFFFFFFFFFFFFFFFFFFFFFFF AND DUP2 MSTORE PUSH1 0x20 ADD SWAP1 DUP2 MSTORE PUSH1 0x20 ADD PUSH0 KECCAK256 PUSH0 DUP8 PUSH20 0xFFFFFFFFFFFFFFFFFFFFFFFFFFFFFFFFFFFFFFFF AND PUSH20 0xFFFFFFFFFFFFFFFFFFFFFFFFFFFFFFFFFFFFFFFF AND DUP2 MSTORE PUSH1 0x20 ADD SWAP1 DUP2 MSTORE PUSH1 0x20 ADD PUSH0 KECCAK256 PUSH0 DUP3 DUP3 SLOAD PUSH2 0x1B92 SWAP2 SWAP1 PUSH2 0x2FA7 JUMP JUMPDEST SWAP3 POP POP DUP2 SWAP1 SSTORE POP PUSH1 0x5 PUSH0 DUP2 DUP2 SWAP1 SLOAD SWAP1 PUSH2 0x100 EXP SWAP1 DIV PUSH16 0xFFFFFFFFFFFFFFFFFFFFFFFFFFFFFFFF AND DUP1 SWAP3 SWAP2 SWAP1 PUSH2 0x1BC6 SWAP1 PUSH2 0x305B JUMP JUMPDEST SWAP2 SWAP1 PUSH2 0x100 EXP DUP2 SLOAD DUP2 PUSH16 0xFFFFFFFFFFFFFFFFFFFFFFFFFFFFFFFF MUL NOT AND SWAP1 DUP4 PUSH16 0xFFFFFFFFFFFFFFFFFFFFFFFFFFFFFFFF AND MUL OR SWAP1 SSTORE POP POP DUP4 PUSH1 0x4 PUSH0 DUP3 DUP3 SLOAD PUSH2 0x1C0E SWAP2 SWAP1 PUSH2 0x2FA7 JUMP JUMPDEST SWAP3 POP POP DUP2 SWAP1 SSTORE POP DUP5 PUSH20 0xFFFFFFFFFFFFFFFFFFFFFFFFFFFFFFFFFFFFFFFF AND PUSH32 0x9D15693852BF60DC27BD5AA831D0351359B7D01D428AE1BAAE11F15CBCFEBAFD DUP6 PUSH1 0x40 MLOAD PUSH2 0x1C5B SWAP2 SWAP1 PUSH2 0x2DF1 JUMP JUMPDEST PUSH1 0x40 MLOAD DUP1 SWAP2 SUB SWAP1 LOG2 POP POP POP POP POP JUMP JUMPDEST PUSH2 0x1C72 PUSH2 0x199A JUMP JUMPDEST PUSH1 0x1 DUP1 PUSH1 0x14 PUSH2 0x100 EXP DUP2 SLOAD DUP2 PUSH1 0xFF MUL NOT AND SWAP1 DUP4 ISZERO ISZERO MUL OR SWAP1 SSTORE POP PUSH32 0x62E78CEA01BEE320CD4E420270B5EA74000D11B0C9F74754EBDBFC544B05A258 PUSH2 0x1CB5 PUSH2 0x1DCA JUMP JUMPDEST PUSH1 0x40 MLOAD PUSH2 0x1CC2 SWAP2 SWAP1 PUSH2 0x2BCA JUMP JUMPDEST PUSH1 0x40 MLOAD DUP1 SWAP2 SUB SWAP1 LOG1 JUMP JUMPDEST PUSH2 0x1CDD DUP2 PUSH2 0x1CD8 PUSH2 0x1DCA JUMP JUMPDEST PUSH2 0x29CA JUMP JUMPDEST POP JUMP JUMPDEST PUSH0 PUSH2 0x1CEB DUP4 DUP4 PUSH2 0x1556 JUMP JUMPDEST PUSH2 0x1DC0 JUMPI PUSH1 0x1 PUSH1 0x2 PUSH0 DUP6 DUP2 MSTORE PUSH1 0x20 ADD SWAP1 DUP2 MSTORE PUSH1 0x20 ADD PUSH0 KECCAK256 PUSH0 ADD PUSH0 DUP5 PUSH20 0xFFFFFFFFFFFFFFFFFFFFFFFFFFFFFFFFFFFFFFFF AND PUSH20 0xFFFFFFFFFFFFFFFFFFFFFFFFFFFFFFFFFFFFFFFF AND DUP2 MSTORE PUSH1 0x20 ADD SWAP1 DUP2 MSTORE PUSH1 0x20 ADD PUSH0 KECCAK256 PUSH0 PUSH2 0x100 EXP DUP2 SLOAD DUP2 PUSH1 0xFF MUL NOT AND SWAP1 DUP4 ISZERO ISZERO MUL OR SWAP1 SSTORE POP PUSH2 0x1D5D PUSH2 0x1DCA JUMP JUMPDEST PUSH20 0xFFFFFFFFFFFFFFFFFFFFFFFFFFFFFFFFFFFFFFFF AND DUP3 PUSH20 0xFFFFFFFFFFFFFFFFFFFFFFFFFFFFFFFFFFFFFFFF AND DUP5 PUSH32 0x2F8788117E7EFF1D82E926EC794901D17C78024A50270940304540A733656F0D PUSH1 0x40 MLOAD PUSH1 0x40 MLOAD DUP1 SWAP2 SUB SWAP1 LOG4 PUSH1 0x1 SWAP1 POP PUSH2 0x1DC4 JUMP JUMPDEST PUSH0 SWAP1 POP JUMPDEST SWAP3 SWAP2 POP POP JUMP JUMPDEST PUSH0 CALLER SWAP1 POP SWAP1 JUMP JUMPDEST PUSH0 PUSH2 0x1DDC DUP4 DUP4 PUSH2 0x1556 JUMP JUMPDEST ISZERO PUSH2 0x1EB1 JUMPI PUSH0 PUSH1 0x2 PUSH0 DUP6 DUP2 MSTORE PUSH1 0x20 ADD SWAP1 DUP2 MSTORE PUSH1 0x20 ADD PUSH0 KECCAK256 PUSH0 ADD PUSH0 DUP5 PUSH20 0xFFFFFFFFFFFFFFFFFFFFFFFFFFFFFFFFFFFFFFFF AND PUSH20 0xFFFFFFFFFFFFFFFFFFFFFFFFFFFFFFFFFFFFFFFF AND DUP2 MSTORE PUSH1 0x20 ADD SWAP1 DUP2 MSTORE PUSH1 0x20 ADD PUSH0 KECCAK256 PUSH0 PUSH2 0x100 EXP DUP2 SLOAD DUP2 PUSH1 0xFF MUL NOT AND SWAP1 DUP4 ISZERO ISZERO MUL OR SWAP1 SSTORE POP PUSH2 0x1E4E PUSH2 0x1DCA JUMP JUMPDEST PUSH20 0xFFFFFFFFFFFFFFFFFFFFFFFFFFFFFFFFFFFFFFFF AND DUP3 PUSH20 0xFFFFFFFFFFFFFFFFFFFFFFFFFFFFFFFFFFFFFFFF AND DUP5 PUSH32 0xF6391F5C32D9C69D2A47EA670B442974B53935D1EDC7FD64EB21E047A839171B PUSH1 0x40 MLOAD PUSH1 0x40 MLOAD DUP1 SWAP2 SUB SWAP1 LOG4 PUSH1 0x1 SWAP1 POP PUSH2 0x1EB5 JUMP JUMPDEST PUSH0 SWAP1 POP JUMPDEST SWAP3 SWAP2 POP POP JUMP JUMPDEST PUSH2 0x1EC3 PUSH2 0xB4F JUMP JUMPDEST PUSH2 0x1EF9 JUMPI PUSH1 0x40 MLOAD PUSH32 0x8DFC202B00000000000000000000000000000000000000000000000000000000 DUP2 MSTORE PUSH1 0x4 ADD PUSH1 0x40 MLOAD DUP1 SWAP2 SUB SWAP1 REVERT JUMPDEST JUMP JUMPDEST PUSH2 0x1F03 PUSH2 0x1EBB JUMP JUMPDEST PUSH0 PUSH1 0x1 PUSH1 0x14 PUSH2 0x100 EXP DUP2 SLOAD DUP2 PUSH1 0xFF MUL NOT AND SWAP1 DUP4 ISZERO ISZERO MUL OR SWAP1 SSTORE POP PUSH32 0x5DB9EE0A495BF2E6FF9C91A7834C1BA4FDD244A5E8AA4E537BD38AEAE4B073AA PUSH2 0x1F46 PUSH2 0x1DCA JUMP JUMPDEST PUSH1 0x40 MLOAD PUSH2 0x1F53 SWAP2 SWAP1 PUSH2 0x2BCA JUMP JUMPDEST PUSH1 0x40 MLOAD DUP1 SWAP2 SUB SWAP1 LOG1 JUMP JUMPDEST PUSH2 0x1FD9 DUP5 DUP6 PUSH20 0xFFFFFFFFFFFFFFFFFFFFFFFFFFFFFFFFFFFFFFFF AND PUSH4 0x23B872DD DUP7 DUP7 DUP7 PUSH1 0x40 MLOAD PUSH1 0x24 ADD PUSH2 0x1F92 SWAP4 SWAP3 SWAP2 SWAP1 PUSH2 0x324C JUMP JUMPDEST PUSH1 0x40 MLOAD PUSH1 0x20 DUP2 DUP4 SUB SUB DUP2 MSTORE SWAP1 PUSH1 0x40 MSTORE SWAP2 POP PUSH1 0xE0 SHL PUSH1 0x20 DUP3 ADD DUP1 MLOAD PUSH28 0xFFFFFFFFFFFFFFFFFFFFFFFFFFFFFFFFFFFFFFFFFFFFFFFFFFFFFFFF DUP4 DUP2 DUP4 AND OR DUP4 MSTORE POP POP POP POP PUSH2 0x2A1B JUMP JUMPDEST POP POP POP POP JUMP JUMPDEST PUSH2 0x1FE7 PUSH2 0x1DCA JUMP JUMPDEST PUSH20 0xFFFFFFFFFFFFFFFFFFFFFFFFFFFFFFFFFFFFFFFF AND PUSH2 0x2005 PUSH2 0x152E JUMP JUMPDEST PUSH20 0xFFFFFFFFFFFFFFFFFFFFFFFFFFFFFFFFFFFFFFFF AND EQ PUSH2 0x2064 JUMPI PUSH2 0x2028 PUSH2 0x1DCA JUMP JUMPDEST PUSH1 0x40 MLOAD PUSH32 0x118CDAA700000000000000000000000000000000000000000000000000000000 DUP2 MSTORE PUSH1 0x4 ADD PUSH2 0x205B SWAP2 SWAP1 PUSH2 0x2BCA JUMP JUMPDEST PUSH1 0x40 MLOAD DUP1 SWAP2 SUB SWAP1 REVERT JUMPDEST JUMP JUMPDEST PUSH0 PUSH1 0x1 PUSH0 SWAP1 SLOAD SWAP1 PUSH2 0x100 EXP SWAP1 DIV PUSH20 0xFFFFFFFFFFFFFFFFFFFFFFFFFFFFFFFFFFFFFFFF AND SWAP1 POP DUP2 PUSH1 0x1 PUSH0 PUSH2 0x100 EXP DUP2 SLOAD DUP2 PUSH20 0xFFFFFFFFFFFFFFFFFFFFFFFFFFFFFFFFFFFFFFFF MUL NOT AND SWAP1 DUP4 PUSH20 0xFFFFFFFFFFFFFFFFFFFFFFFFFFFFFFFFFFFFFFFF AND MUL OR SWAP1 SSTORE POP DUP2 PUSH20 0xFFFFFFFFFFFFFFFFFFFFFFFFFFFFFFFFFFFFFFFF AND DUP2 PUSH20 0xFFFFFFFFFFFFFFFFFFFFFFFFFFFFFFFFFFFFFFFF AND PUSH32 0x8BE0079C531659141344CD1FD0A4F28419497F9722A3DAAFE3B4186F6B6457E0 PUSH1 0x40 MLOAD PUSH1 0x40 MLOAD DUP1 SWAP2 SUB SWAP1 LOG3 POP POP JUMP JUMPDEST PUSH2 0x2131 PUSH2 0x2AB6 JUMP JUMPDEST DUP1 PUSH0 PUSH2 0x213C DUP3 PUSH2 0x19DB JUMP JUMPDEST SWAP1 POP PUSH0 DUP2 SUB PUSH2 0x2182 JUMPI CALLER PUSH1 0x40 MLOAD PUSH32 0xB2F0923100000000000000000000000000000000000000000000000000000000 DUP2 MSTORE PUSH1 0x4 ADD PUSH2 0x2179 SWAP2 SWAP1 PUSH2 0x2BCA JUMP JUMPDEST PUSH1 0x40 MLOAD DUP1 SWAP2 SUB SWAP1 REVERT JUMPDEST PUSH32 0x0 DUP2 GT ISZERO PUSH2 0x21E7 JUMPI DUP1 PUSH1 0x40 MLOAD PUSH32 0xC399356500000000000000000000000000000000000000000000000000000000 DUP2 MSTORE PUSH1 0x4 ADD PUSH2 0x21DE SWAP2 SWAP1 PUSH2 0x2DF1 JUMP JUMPDEST PUSH1 0x40 MLOAD DUP1 SWAP2 SUB SWAP1 REVERT JUMPDEST PUSH1 0x6 PUSH0 PUSH0 PUSH20 0xFFFFFFFFFFFFFFFFFFFFFFFFFFFFFFFFFFFFFFFF AND PUSH20 0xFFFFFFFFFFFFFFFFFFFFFFFFFFFFFFFFFFFFFFFF AND DUP2 MSTORE PUSH1 0x20 ADD SWAP1 DUP2 MSTORE PUSH1 0x20 ADD PUSH0 KECCAK256 PUSH0 CALLER PUSH20 0xFFFFFFFFFFFFFFFFFFFFFFFFFFFFFFFFFFFFFFFF AND PUSH20 0xFFFFFFFFFFFFFFFFFFFFFFFFFFFFFFFFFFFFFFFF AND DUP2 MSTORE PUSH1 0x20 ADD SWAP1 DUP2 MSTORE PUSH1 0x20 ADD PUSH0 KECCAK256 SLOAD DUP3 GT ISZERO PUSH2 0x22A6 JUMPI CALLER DUP2 PUSH1 0x40 MLOAD PUSH32 0x51A7314200000000000000000000000000000000000000000000000000000000 DUP2 MSTORE PUSH1 0x4 ADD PUSH2 0x229D SWAP3 SWAP2 SWAP1 PUSH2 0x3281 JUMP JUMPDEST PUSH1 0x40 MLOAD DUP1 SWAP2 SUB SWAP1 REVERT JUMPDEST PUSH0 PUSH2 0x22B0 DUP5 PUSH2 0x19DB JUMP JUMPDEST SWAP1 POP DUP4 PUSH1 0x6 PUSH0 PUSH0 PUSH20 0xFFFFFFFFFFFFFFFFFFFFFFFFFFFFFFFFFFFFFFFF AND PUSH20 0xFFFFFFFFFFFFFFFFFFFFFFFFFFFFFFFFFFFFFFFF AND DUP2 MSTORE PUSH1 0x20 ADD SWAP1 DUP2 MSTORE PUSH1 0x20 ADD PUSH0 KECCAK256 PUSH0 CALLER PUSH20 0xFFFFFFFFFFFFFFFFFFFFFFFFFFFFFFFFFFFFFFFF AND PUSH20 0xFFFFFFFFFFFFFFFFFFFFFFFFFFFFFFFFFFFFFFFF AND DUP2 MSTORE PUSH1 0x20 ADD SWAP1 DUP2 MSTORE PUSH1 0x20 ADD PUSH0 KECCAK256 PUSH0 DUP3 DUP3 SLOAD PUSH2 0x2339 SWAP2 SWAP1 PUSH2 0x317B JUMP JUMPDEST SWAP3 POP POP DUP2 SWAP1 SSTORE POP PUSH1 0x5 PUSH1 0x10 DUP2 DUP2 SWAP1 SLOAD SWAP1 PUSH2 0x100 EXP SWAP1 DIV PUSH16 0xFFFFFFFFFFFFFFFFFFFFFFFFFFFFFFFF AND DUP1 SWAP3 SWAP2 SWAP1 PUSH2 0x236E SWAP1 PUSH2 0x305B JUMP JUMPDEST SWAP2 SWAP1 PUSH2 0x100 EXP DUP2 SLOAD DUP2 PUSH16 0xFFFFFFFFFFFFFFFFFFFFFFFFFFFFFFFF MUL NOT AND SWAP1 DUP4 PUSH16 0xFFFFFFFFFFFFFFFFFFFFFFFFFFFFFFFF AND MUL OR SWAP1 SSTORE POP POP DUP1 PUSH1 0x4 PUSH0 DUP3 DUP3 SLOAD PUSH2 0x23B6 SWAP2 SWAP1 PUSH2 0x317B JUMP JUMPDEST SWAP3 POP POP DUP2 SWAP1 SSTORE POP CALLER PUSH20 0xFFFFFFFFFFFFFFFFFFFFFFFFFFFFFFFFFFFFFFFF AND PUSH32 0x9CDE449504E4972FFDDEC09813E0C252A1462D76BEF1864B9E7520DADB7183E8 DUP3 PUSH1 0x40 MLOAD PUSH2 0x2403 SWAP2 SWAP1 PUSH2 0x2DF1 JUMP JUMPDEST PUSH1 0x40 MLOAD DUP1 SWAP2 SUB SWAP1 LOG2 PUSH0 CALLER PUSH20 0xFFFFFFFFFFFFFFFFFFFFFFFFFFFFFFFFFFFFFFFF AND DUP6 PUSH1 0x40 MLOAD PUSH2 0x2430 SWAP1 PUSH2 0x32D5 JUMP JUMPDEST PUSH0 PUSH1 0x40 MLOAD DUP1 DUP4 SUB DUP2 DUP6 DUP8 GAS CALL SWAP3 POP POP POP RETURNDATASIZE DUP1 PUSH0 DUP2 EQ PUSH2 0x246A JUMPI PUSH1 0x40 MLOAD SWAP2 POP PUSH1 0x1F NOT PUSH1 0x3F RETURNDATASIZE ADD AND DUP3 ADD PUSH1 0x40 MSTORE RETURNDATASIZE DUP3 MSTORE RETURNDATASIZE PUSH0 PUSH1 0x20 DUP5 ADD RETURNDATACOPY PUSH2 0x246F JUMP JUMPDEST PUSH1 0x60 SWAP2 POP JUMPDEST POP POP SWAP1 POP DUP1 PUSH2 0x24B7 JUMPI CALLER DUP6 PUSH1 0x40 MLOAD PUSH32 0x6C5E1A1400000000000000000000000000000000000000000000000000000000 DUP2 MSTORE PUSH1 0x4 ADD PUSH2 0x24AE SWAP3 SWAP2 SWAP1 PUSH2 0x3281 JUMP JUMPDEST PUSH1 0x40 MLOAD DUP1 SWAP2 SUB SWAP1 REVERT JUMPDEST POP POP POP POP PUSH2 0x24C3 PUSH2 0x2B03 JUMP JUMPDEST POP JUMP JUMPDEST PUSH2 0x24CE PUSH2 0x2AB6 JUMP JUMPDEST DUP1 PUSH0 DUP2 SUB PUSH2 0x2513 JUMPI CALLER PUSH1 0x40 MLOAD PUSH32 0xB2F0923100000000000000000000000000000000000000000000000000000000 DUP2 MSTORE PUSH1 0x4 ADD PUSH2 0x250A SWAP2 SWAP1 PUSH2 0x2BCA JUMP JUMPDEST PUSH1 0x40 MLOAD DUP1 SWAP2 SUB SWAP1 REVERT JUMPDEST PUSH32 0x0 DUP2 GT ISZERO PUSH2 0x2578 JUMPI DUP1 PUSH1 0x40 MLOAD PUSH32 0xC399356500000000000000000000000000000000000000000000000000000000 DUP2 MSTORE PUSH1 0x4 ADD PUSH2 0x256F SWAP2 SWAP1 PUSH2 0x2DF1 JUMP JUMPDEST PUSH1 0x40 MLOAD DUP1 SWAP2 SUB SWAP1 REVERT JUMPDEST PUSH1 0x6 PUSH0 PUSH32 0x0 PUSH20 0xFFFFFFFFFFFFFFFFFFFFFFFFFFFFFFFFFFFFFFFF AND PUSH20 0xFFFFFFFFFFFFFFFFFFFFFFFFFFFFFFFFFFFFFFFF AND DUP2 MSTORE PUSH1 0x20 ADD SWAP1 DUP2 MSTORE PUSH1 0x20 ADD PUSH0 KECCAK256 PUSH0 CALLER PUSH20 0xFFFFFFFFFFFFFFFFFFFFFFFFFFFFFFFFFFFFFFFF AND PUSH20 0xFFFFFFFFFFFFFFFFFFFFFFFFFFFFFFFFFFFFFFFF AND DUP2 MSTORE PUSH1 0x20 ADD SWAP1 DUP2 MSTORE PUSH1 0x20 ADD PUSH0 KECCAK256 SLOAD DUP2 GT ISZERO PUSH2 0x2657 JUMPI CALLER DUP2 PUSH1 0x40 MLOAD PUSH32 0x51A7314200000000000000000000000000000000000000000000000000000000 DUP2 MSTORE PUSH1 0x4 ADD PUSH2 0x264E SWAP3 SWAP2 SWAP1 PUSH2 0x3281 JUMP JUMPDEST PUSH1 0x40 MLOAD DUP1 SWAP2 SUB SWAP1 REVERT JUMPDEST DUP2 PUSH1 0x6 PUSH0 PUSH32 0x0 PUSH20 0xFFFFFFFFFFFFFFFFFFFFFFFFFFFFFFFFFFFFFFFF AND PUSH20 0xFFFFFFFFFFFFFFFFFFFFFFFFFFFFFFFFFFFFFFFF AND DUP2 MSTORE PUSH1 0x20 ADD SWAP1 DUP2 MSTORE PUSH1 0x20 ADD PUSH0 KECCAK256 PUSH0 CALLER PUSH20 0xFFFFFFFFFFFFFFFFFFFFFFFFFFFFFFFFFFFFFFFF AND PUSH20 0xFFFFFFFFFFFFFFFFFFFFFFFFFFFFFFFFFFFFFFFF AND DUP2 MSTORE PUSH1 0x20 ADD SWAP1 DUP2 MSTORE PUSH1 0x20 ADD PUSH0 KECCAK256 PUSH0 DUP3 DUP3 SLOAD PUSH2 0x26FE SWAP2 SWAP1 PUSH2 0x317B JUMP JUMPDEST SWAP3 POP POP DUP2 SWAP1 SSTORE POP PUSH1 0x5 PUSH1 0x10 DUP2 DUP2 SWAP1 SLOAD SWAP1 PUSH2 0x100 EXP SWAP1 DIV PUSH16 0xFFFFFFFFFFFFFFFFFFFFFFFFFFFFFFFF AND DUP1 SWAP3 SWAP2 SWAP1 PUSH2 0x2733 SWAP1 PUSH2 0x305B JUMP JUMPDEST SWAP2 SWAP1 PUSH2 0x100 EXP DUP2 SLOAD DUP2 PUSH16 0xFFFFFFFFFFFFFFFFFFFFFFFFFFFFFFFF MUL NOT AND SWAP1 DUP4 PUSH16 0xFFFFFFFFFFFFFFFFFFFFFFFFFFFFFFFF AND MUL OR SWAP1 SSTORE POP POP DUP2 PUSH1 0x4 PUSH0 DUP3 DUP3 SLOAD PUSH2 0x277B SWAP2 SWAP1 PUSH2 0x317B JUMP JUMPDEST SWAP3 POP POP DUP2 SWAP1 SSTORE POP CALLER PUSH20 0xFFFFFFFFFFFFFFFFFFFFFFFFFFFFFFFFFFFFFFFF AND PUSH32 0x9CDE449504E4972FFDDEC09813E0C252A1462D76BEF1864B9E7520DADB7183E8 DUP4 PUSH1 0x40 MLOAD PUSH2 0x27C8 SWAP2 SWAP1 PUSH2 0x2DF1 JUMP JUMPDEST PUSH1 0x40 MLOAD DUP1 SWAP2 SUB SWAP1 LOG2 PUSH2 0x281B CALLER DUP4 PUSH32 0x0 PUSH20 0xFFFFFFFFFFFFFFFFFFFFFFFFFFFFFFFFFFFFFFFF AND PUSH2 0x2B0C SWAP1 SWAP3 SWAP2 SWAP1 PUSH4 0xFFFFFFFF AND JUMP JUMPDEST POP PUSH2 0x2824 PUSH2 0x2B03 JUMP JUMPDEST POP JUMP JUMPDEST PUSH0 PUSH32 0x1FFC9A700000000000000000000000000000000000000000000000000000000 PUSH28 0xFFFFFFFFFFFFFFFFFFFFFFFFFFFFFFFFFFFFFFFFFFFFFFFFFFFFFFFF NOT AND DUP3 PUSH28 0xFFFFFFFFFFFFFFFFFFFFFFFFFFFFFFFFFFFFFFFFFFFFFFFFFFFFFFFF NOT AND EQ SWAP1 POP SWAP2 SWAP1 POP JUMP JUMPDEST PUSH0 PUSH0 PUSH0 PUSH1 0x3 PUSH0 SWAP1 SLOAD SWAP1 PUSH2 0x100 EXP SWAP1 DIV PUSH20 0xFFFFFFFFFFFFFFFFFFFFFFFFFFFFFFFFFFFFFFFF AND PUSH20 0xFFFFFFFFFFFFFFFFFFFFFFFFFFFFFFFFFFFFFFFF AND PUSH4 0xFEAF968C PUSH1 0x40 MLOAD DUP2 PUSH4 0xFFFFFFFF AND PUSH1 0xE0 SHL DUP2 MSTORE PUSH1 0x4 ADD PUSH1 0xA0 PUSH1 0x40 MLOAD DUP1 DUP4 SUB DUP2 DUP7 GAS STATICCALL ISZERO DUP1 ISZERO PUSH2 0x28FD JUMPI RETURNDATASIZE PUSH0 PUSH0 RETURNDATACOPY RETURNDATASIZE PUSH0 REVERT JUMPDEST POP POP POP POP PUSH1 0x40 MLOAD RETURNDATASIZE PUSH1 0x1F NOT PUSH1 0x1F DUP3 ADD AND DUP3 ADD DUP1 PUSH1 0x40 MSTORE POP DUP2 ADD SWAP1 PUSH2 0x2921 SWAP2 SWAP1 PUSH2 0x3104 JUMP JUMPDEST POP SWAP4 POP POP SWAP3 POP POP PUSH0 DUP3 SGT PUSH2 0x296C JUMPI DUP2 PUSH1 0x40 MLOAD PUSH32 0x3654402900000000000000000000000000000000000000000000000000000000 DUP2 MSTORE PUSH1 0x4 ADD PUSH2 0x2963 SWAP2 SWAP1 PUSH2 0x2DF1 JUMP JUMPDEST PUSH1 0x40 MLOAD DUP1 SWAP2 SUB SWAP1 REVERT JUMPDEST PUSH2 0xE10 PUSH2 0xFFFF AND DUP2 TIMESTAMP PUSH2 0x297F SWAP2 SWAP1 PUSH2 0x317B JUMP JUMPDEST GT ISZERO PUSH2 0x29C2 JUMPI DUP2 PUSH1 0x40 MLOAD PUSH32 0x2609A26500000000000000000000000000000000000000000000000000000000 DUP2 MSTORE PUSH1 0x4 ADD PUSH2 0x29B9 SWAP2 SWAP1 PUSH2 0x2DF1 JUMP JUMPDEST PUSH1 0x40 MLOAD DUP1 SWAP2 SUB SWAP1 REVERT JUMPDEST DUP2 SWAP3 POP POP POP SWAP1 JUMP JUMPDEST PUSH2 0x29D4 DUP3 DUP3 PUSH2 0x1556 JUMP JUMPDEST PUSH2 0x2A17 JUMPI DUP1 DUP3 PUSH1 0x40 MLOAD PUSH32 0xE2517D3F00000000000000000000000000000000000000000000000000000000 DUP2 MSTORE PUSH1 0x4 ADD PUSH2 0x2A0E SWAP3 SWAP2 SWAP1 PUSH2 0x32E9 JUMP JUMPDEST PUSH1 0x40 MLOAD DUP1 SWAP2 SUB SWAP1 REVERT JUMPDEST POP POP JUMP JUMPDEST PUSH0 PUSH0 PUSH1 0x20 PUSH0 DUP5 MLOAD PUSH1 0x20 DUP7 ADD PUSH0 DUP9 GAS CALL DUP1 PUSH2 0x2A3A JUMPI PUSH1 0x40 MLOAD RETURNDATASIZE PUSH0 DUP3 RETURNDATACOPY RETURNDATASIZE DUP2 REVERT JUMPDEST RETURNDATASIZE SWAP3 POP PUSH0 MLOAD SWAP2 POP POP PUSH0 DUP3 EQ PUSH2 0x2A53 JUMPI PUSH1 0x1 DUP2 EQ ISZERO PUSH2 0x2A6E JUMP JUMPDEST PUSH0 DUP5 PUSH20 0xFFFFFFFFFFFFFFFFFFFFFFFFFFFFFFFFFFFFFFFF AND EXTCODESIZE EQ JUMPDEST ISZERO PUSH2 0x2AB0 JUMPI DUP4 PUSH1 0x40 MLOAD PUSH32 0x5274AFE700000000000000000000000000000000000000000000000000000000 DUP2 MSTORE PUSH1 0x4 ADD PUSH2 0x2AA7 SWAP2 SWAP1 PUSH2 0x2BCA JUMP JUMPDEST PUSH1 0x40 MLOAD DUP1 SWAP2 SUB SWAP1 REVERT JUMPDEST POP POP POP POP JUMP JUMPDEST PUSH1 0x2 PUSH0 SLOAD SUB PUSH2 0x2AFA JUMPI PUSH1 0x40 MLOAD PUSH32 0x8C379A000000000000000000000000000000000000000000000000000000000 DUP2 MSTORE PUSH1 0x4 ADD PUSH2 0x2AF1 SWAP1 PUSH2 0x336A JUMP JUMPDEST PUSH1 0x40 MLOAD DUP1 SWAP2 SUB SWAP1 REVERT JUMPDEST PUSH1 0x2 PUSH0 DUP2 SWAP1 SSTORE POP JUMP JUMPDEST PUSH1 0x1 PUSH0 DUP2 SWAP1 SSTORE POP JUMP JUMPDEST PUSH2 0x2B86 DUP4 DUP5 PUSH20 0xFFFFFFFFFFFFFFFFFFFFFFFFFFFFFFFFFFFFFFFF AND PUSH4 0xA9059CBB DUP6 DUP6 PUSH1 0x40 MLOAD PUSH1 0x24 ADD PUSH2 0x2B3F SWAP3 SWAP2 SWAP1 PUSH2 0x3281 JUMP JUMPDEST PUSH1 0x40 MLOAD PUSH1 0x20 DUP2 DUP4 SUB SUB DUP2 MSTORE SWAP1 PUSH1 0x40 MSTORE SWAP2 POP PUSH1 0xE0 SHL PUSH1 0x20 DUP3 ADD DUP1 MLOAD PUSH28 0xFFFFFFFFFFFFFFFFFFFFFFFFFFFFFFFFFFFFFFFFFFFFFFFFFFFFFFFF DUP4 DUP2 DUP4 AND OR DUP4 MSTORE POP POP POP POP PUSH2 0x2A1B JUMP JUMPDEST POP POP POP JUMP JUMPDEST PUSH0 PUSH20 0xFFFFFFFFFFFFFFFFFFFFFFFFFFFFFFFFFFFFFFFF DUP3 AND SWAP1 POP SWAP2 SWAP1 POP JUMP JUMPDEST PUSH0 PUSH2 0x2BB4 DUP3 PUSH2 0x2B8B JUMP JUMPDEST SWAP1 POP SWAP2 SWAP1 POP JUMP JUMPDEST PUSH2 0x2BC4 DUP2 PUSH2 0x2BAA JUMP JUMPDEST DUP3 MSTORE POP POP JUMP JUMPDEST PUSH0 PUSH1 0x20 DUP3 ADD SWAP1 POP PUSH2 0x2BDD PUSH0 DUP4 ADD DUP5 PUSH2 0x2BBB JUMP JUMPDEST SWAP3 SWAP2 POP POP JUMP JUMPDEST PUSH0 PUSH0 REVERT JUMPDEST PUSH0 PUSH32 0xFFFFFFFF00000000000000000000000000000000000000000000000000000000 DUP3 AND SWAP1 POP SWAP2 SWAP1 POP JUMP JUMPDEST PUSH2 0x2C1B DUP2 PUSH2 0x2BE7 JUMP JUMPDEST DUP2 EQ PUSH2 0x2C25 JUMPI PUSH0 PUSH0 REVERT JUMPDEST POP JUMP JUMPDEST PUSH0 DUP2 CALLDATALOAD SWAP1 POP PUSH2 0x2C36 DUP2 PUSH2 0x2C12 JUMP JUMPDEST SWAP3 SWAP2 POP POP JUMP JUMPDEST PUSH0 PUSH1 0x20 DUP3 DUP5 SUB SLT ISZERO PUSH2 0x2C51 JUMPI PUSH2 0x2C50 PUSH2 0x2BE3 JUMP JUMPDEST JUMPDEST PUSH0 PUSH2 0x2C5E DUP5 DUP3 DUP6 ADD PUSH2 0x2C28 JUMP JUMPDEST SWAP2 POP POP SWAP3 SWAP2 POP POP JUMP JUMPDEST PUSH0 DUP2 ISZERO ISZERO SWAP1 POP SWAP2 SWAP1 POP JUMP JUMPDEST PUSH2 0x2C7B DUP2 PUSH2 0x2C67 JUMP JUMPDEST DUP3 MSTORE POP POP JUMP JUMPDEST PUSH0 PUSH1 0x20 DUP3 ADD SWAP1 POP PUSH2 0x2C94 PUSH0 DUP4 ADD DUP5 PUSH2 0x2C72 JUMP JUMPDEST SWAP3 SWAP2 POP POP JUMP JUMPDEST PUSH0 DUP2 SWAP1 POP SWAP2 SWAP1 POP JUMP JUMPDEST PUSH2 0x2CAC DUP2 PUSH2 0x2C9A JUMP JUMPDEST DUP3 MSTORE POP POP JUMP JUMPDEST PUSH0 PUSH1 0xA0 DUP3 ADD SWAP1 POP PUSH2 0x2CC5 PUSH0 DUP4 ADD DUP9 PUSH2 0x2C72 JUMP JUMPDEST PUSH2 0x2CD2 PUSH1 0x20 DUP4 ADD DUP8 PUSH2 0x2CA3 JUMP JUMPDEST PUSH2 0x2CDF PUSH1 0x40 DUP4 ADD DUP7 PUSH2 0x2CA3 JUMP JUMPDEST PUSH2 0x2CEC PUSH1 0x60 DUP4 ADD DUP6 PUSH2 0x2CA3 JUMP JUMPDEST PUSH2 0x2CF9 PUSH1 0x80 DUP4 ADD DUP5 PUSH2 0x2BBB JUMP JUMPDEST SWAP7 SWAP6 POP POP POP POP POP POP JUMP JUMPDEST PUSH0 DUP2 SWAP1 POP SWAP2 SWAP1 POP JUMP JUMPDEST PUSH2 0x2D15 DUP2 PUSH2 0x2D03 JUMP JUMPDEST DUP2 EQ PUSH2 0x2D1F JUMPI PUSH0 PUSH0 REVERT JUMPDEST POP JUMP JUMPDEST PUSH0 DUP2 CALLDATALOAD SWAP1 POP PUSH2 0x2D30 DUP2 PUSH2 0x2D0C JUMP JUMPDEST SWAP3 SWAP2 POP POP JUMP JUMPDEST PUSH0 PUSH1 0x20 DUP3 DUP5 SUB SLT ISZERO PUSH2 0x2D4B JUMPI PUSH2 0x2D4A PUSH2 0x2BE3 JUMP JUMPDEST JUMPDEST PUSH0 PUSH2 0x2D58 DUP5 DUP3 DUP6 ADD PUSH2 0x2D22 JUMP JUMPDEST SWAP2 POP POP SWAP3 SWAP2 POP POP JUMP JUMPDEST PUSH2 0x2D6A DUP2 PUSH2 0x2D03 JUMP JUMPDEST DUP3 MSTORE POP POP JUMP JUMPDEST PUSH0 PUSH1 0x20 DUP3 ADD SWAP1 POP PUSH2 0x2D83 PUSH0 DUP4 ADD DUP5 PUSH2 0x2D61 JUMP JUMPDEST SWAP3 SWAP2 POP POP JUMP JUMPDEST PUSH2 0x2D92 DUP2 PUSH2 0x2BAA JUMP JUMPDEST DUP2 EQ PUSH2 0x2D9C JUMPI PUSH0 PUSH0 REVERT JUMPDEST POP JUMP JUMPDEST PUSH0 DUP2 CALLDATALOAD SWAP1 POP PUSH2 0x2DAD DUP2 PUSH2 0x2D89 JUMP JUMPDEST SWAP3 SWAP2 POP POP JUMP JUMPDEST PUSH0 PUSH0 PUSH1 0x40 DUP4 DUP6 SUB SLT ISZERO PUSH2 0x2DC9 JUMPI PUSH2 0x2DC8 PUSH2 0x2BE3 JUMP JUMPDEST JUMPDEST PUSH0 PUSH2 0x2DD6 DUP6 DUP3 DUP7 ADD PUSH2 0x2D22 JUMP JUMPDEST SWAP3 POP POP PUSH1 0x20 PUSH2 0x2DE7 DUP6 DUP3 DUP7 ADD PUSH2 0x2D9F JUMP JUMPDEST SWAP2 POP POP SWAP3 POP SWAP3 SWAP1 POP JUMP JUMPDEST PUSH0 PUSH1 0x20 DUP3 ADD SWAP1 POP PUSH2 0x2E04 PUSH0 DUP4 ADD DUP5 PUSH2 0x2CA3 JUMP JUMPDEST SWAP3 SWAP2 POP POP JUMP JUMPDEST PUSH2 0x2E13 DUP2 PUSH2 0x2C9A JUMP JUMPDEST DUP2 EQ PUSH2 0x2E1D JUMPI PUSH0 PUSH0 REVERT JUMPDEST POP JUMP JUMPDEST PUSH0 DUP2 CALLDATALOAD SWAP1 POP PUSH2 0x2E2E DUP2 PUSH2 0x2E0A JUMP JUMPDEST SWAP3 SWAP2 POP POP JUMP JUMPDEST PUSH0 PUSH1 0x20 DUP3 DUP5 SUB SLT ISZERO PUSH2 0x2E49 JUMPI PUSH2 0x2E48 PUSH2 0x2BE3 JUMP JUMPDEST JUMPDEST PUSH0 PUSH2 0x2E56 DUP5 DUP3 DUP6 ADD PUSH2 0x2E20 JUMP JUMPDEST SWAP2 POP POP SWAP3 SWAP2 POP POP JUMP JUMPDEST PUSH0 DUP2 SWAP1 POP SWAP2 SWAP1 POP JUMP JUMPDEST PUSH0 PUSH2 0x2E82 PUSH2 0x2E7D PUSH2 0x2E78 DUP5 PUSH2 0x2B8B JUMP JUMPDEST PUSH2 0x2E5F JUMP JUMPDEST PUSH2 0x2B8B JUMP JUMPDEST SWAP1 POP SWAP2 SWAP1 POP JUMP JUMPDEST PUSH0 PUSH2 0x2E93 DUP3 PUSH2 0x2E68 JUMP JUMPDEST SWAP1 POP SWAP2 SWAP1 POP JUMP JUMPDEST PUSH0 PUSH2 0x2EA4 DUP3 PUSH2 0x2E89 JUMP JUMPDEST SWAP1 POP SWAP2 SWAP1 POP JUMP JUMPDEST PUSH2 0x2EB4 DUP2 PUSH2 0x2E9A JUMP JUMPDEST DUP3 MSTORE POP POP JUMP JUMPDEST PUSH0 PUSH1 0x20 DUP3 ADD SWAP1 POP PUSH2 0x2ECD PUSH0 DUP4 ADD DUP5 PUSH2 0x2EAB JUMP JUMPDEST SWAP3 SWAP2 POP POP JUMP JUMPDEST PUSH0 PUSH1 0x20 DUP3 DUP5 SUB SLT ISZERO PUSH2 0x2EE8 JUMPI PUSH2 0x2EE7 PUSH2 0x2BE3 JUMP JUMPDEST JUMPDEST PUSH0 PUSH2 0x2EF5 DUP5 DUP3 DUP6 ADD PUSH2 0x2D9F JUMP JUMPDEST SWAP2 POP POP SWAP3 SWAP2 POP POP JUMP JUMPDEST PUSH0 PUSH0 PUSH1 0x40 DUP4 DUP6 SUB SLT ISZERO PUSH2 0x2F14 JUMPI PUSH2 0x2F13 PUSH2 0x2BE3 JUMP JUMPDEST JUMPDEST PUSH0 PUSH2 0x2F21 DUP6 DUP3 DUP7 ADD PUSH2 0x2D9F JUMP JUMPDEST SWAP3 POP POP PUSH1 0x20 PUSH2 0x2F32 DUP6 DUP3 DUP7 ADD PUSH2 0x2D22 JUMP JUMPDEST SWAP2 POP POP SWAP3 POP SWAP3 SWAP1 POP JUMP JUMPDEST PUSH0 PUSH0 PUSH1 0x40 DUP4 DUP6 SUB SLT ISZERO PUSH2 0x2F52 JUMPI PUSH2 0x2F51 PUSH2 0x2BE3 JUMP JUMPDEST JUMPDEST PUSH0 PUSH2 0x2F5F DUP6 DUP3 DUP7 ADD PUSH2 0x2D9F JUMP JUMPDEST SWAP3 POP POP PUSH1 0x20 PUSH2 0x2F70 DUP6 DUP3 DUP7 ADD PUSH2 0x2D9F JUMP JUMPDEST SWAP2 POP POP SWAP3 POP SWAP3 SWAP1 POP JUMP JUMPDEST PUSH32 0x4E487B7100000000000000000000000000000000000000000000000000000000 PUSH0 MSTORE PUSH1 0x11 PUSH1 0x4 MSTORE PUSH1 0x24 PUSH0 REVERT JUMPDEST PUSH0 PUSH2 0x2FB1 DUP3 PUSH2 0x2C9A JUMP JUMPDEST SWAP2 POP PUSH2 0x2FBC DUP4 PUSH2 0x2C9A JUMP JUMPDEST SWAP3 POP DUP3 DUP3 ADD SWAP1 POP DUP1 DUP3 GT ISZERO PUSH2 0x2FD4 JUMPI PUSH2 0x2FD3 PUSH2 0x2F7A JUMP JUMPDEST JUMPDEST SWAP3 SWAP2 POP POP JUMP JUMPDEST PUSH0 PUSH1 0x40 DUP3 ADD SWAP1 POP PUSH2 0x2FED PUSH0 DUP4 ADD DUP6 PUSH2 0x2BBB JUMP JUMPDEST PUSH2 0x2FFA PUSH1 0x20 DUP4 ADD DUP5 PUSH2 0x2BBB JUMP JUMPDEST SWAP4 SWAP3 POP POP POP JUMP JUMPDEST PUSH0 DUP2 MLOAD SWAP1 POP PUSH2 0x300F DUP2 PUSH2 0x2E0A JUMP JUMPDEST SWAP3 SWAP2 POP POP JUMP JUMPDEST PUSH0 PUSH1 0x20 DUP3 DUP5 SUB SLT ISZERO PUSH2 0x302A JUMPI PUSH2 0x3029 PUSH2 0x2BE3 JUMP JUMPDEST JUMPDEST PUSH0 PUSH2 0x3037 DUP5 DUP3 DUP6 ADD PUSH2 0x3001 JUMP JUMPDEST SWAP2 POP POP SWAP3 SWAP2 POP POP JUMP JUMPDEST PUSH0 PUSH16 0xFFFFFFFFFFFFFFFFFFFFFFFFFFFFFFFF DUP3 AND SWAP1 POP SWAP2 SWAP1 POP JUMP JUMPDEST PUSH0 PUSH2 0x3065 DUP3 PUSH2 0x3040 JUMP JUMPDEST SWAP2 POP PUSH16 0xFFFFFFFFFFFFFFFFFFFFFFFFFFFFFFFF DUP3 SUB PUSH2 0x3087 JUMPI PUSH2 0x3086 PUSH2 0x2F7A JUMP JUMPDEST JUMPDEST PUSH1 0x1 DUP3 ADD SWAP1 POP SWAP2 SWAP1 POP JUMP JUMPDEST PUSH0 PUSH10 0xFFFFFFFFFFFFFFFFFFFF DUP3 AND SWAP1 POP SWAP2 SWAP1 POP JUMP JUMPDEST PUSH2 0x30B0 DUP2 PUSH2 0x3092 JUMP JUMPDEST DUP2 EQ PUSH2 0x30BA JUMPI PUSH0 PUSH0 REVERT JUMPDEST POP JUMP JUMPDEST PUSH0 DUP2 MLOAD SWAP1 POP PUSH2 0x30CB DUP2 PUSH2 0x30A7 JUMP JUMPDEST SWAP3 SWAP2 POP POP JUMP JUMPDEST PUSH0 DUP2 SWAP1 POP SWAP2 SWAP1 POP JUMP JUMPDEST PUSH2 0x30E3 DUP2 PUSH2 0x30D1 JUMP JUMPDEST DUP2 EQ PUSH2 0x30ED JUMPI PUSH0 PUSH0 REVERT JUMPDEST POP JUMP JUMPDEST PUSH0 DUP2 MLOAD SWAP1 POP PUSH2 0x30FE DUP2 PUSH2 0x30DA JUMP JUMPDEST SWAP3 SWAP2 POP POP JUMP JUMPDEST PUSH0 PUSH0 PUSH0 PUSH0 PUSH0 PUSH1 0xA0 DUP7 DUP9 SUB SLT ISZERO PUSH2 0x311D JUMPI PUSH2 0x311C PUSH2 0x2BE3 JUMP JUMPDEST JUMPDEST PUSH0 PUSH2 0x312A DUP9 DUP3 DUP10 ADD PUSH2 0x30BD JUMP JUMPDEST SWAP6 POP POP PUSH1 0x20 PUSH2 0x313B DUP9 DUP3 DUP10 ADD PUSH2 0x30F0 JUMP JUMPDEST SWAP5 POP POP PUSH1 0x40 PUSH2 0x314C DUP9 DUP3 DUP10 ADD PUSH2 0x3001 JUMP JUMPDEST SWAP4 POP POP PUSH1 0x60 PUSH2 0x315D DUP9 DUP3 DUP10 ADD PUSH2 0x3001 JUMP JUMPDEST SWAP3 POP POP PUSH1 0x80 PUSH2 0x316E DUP9 DUP3 DUP10 ADD PUSH2 0x30BD JUMP JUMPDEST SWAP2 POP POP SWAP3 SWAP6 POP SWAP3 SWAP6 SWAP1 SWAP4 POP JUMP JUMPDEST PUSH0 PUSH2 0x3185 DUP3 PUSH2 0x2C9A JUMP JUMPDEST SWAP2 POP PUSH2 0x3190 DUP4 PUSH2 0x2C9A JUMP JUMPDEST SWAP3 POP DUP3 DUP3 SUB SWAP1 POP DUP2 DUP2 GT ISZERO PUSH2 0x31A8 JUMPI PUSH2 0x31A7 PUSH2 0x2F7A JUMP JUMPDEST JUMPDEST SWAP3 SWAP2 POP POP JUMP JUMPDEST PUSH0 PUSH2 0x31B8 DUP3 PUSH2 0x2C9A JUMP JUMPDEST SWAP2 POP PUSH2 0x31C3 DUP4 PUSH2 0x2C9A JUMP JUMPDEST SWAP3 POP DUP3 DUP3 MUL PUSH2 0x31D1 DUP2 PUSH2 0x2C9A JUMP JUMPDEST SWAP2 POP DUP3 DUP3 DIV DUP5 EQ DUP4 ISZERO OR PUSH2 0x31E8 JUMPI PUSH2 0x31E7 PUSH2 0x2F7A JUMP JUMPDEST JUMPDEST POP SWAP3 SWAP2 POP POP JUMP JUMPDEST PUSH32 0x4E487B7100000000000000000000000000000000000000000000000000000000 PUSH0 MSTORE PUSH1 0x12 PUSH1 0x4 MSTORE PUSH1 0x24 PUSH0 REVERT JUMPDEST PUSH0 PUSH2 0x3226 DUP3 PUSH2 0x2C9A JUMP JUMPDEST SWAP2 POP PUSH2 0x3231 DUP4 PUSH2 0x2C9A JUMP JUMPDEST SWAP3 POP DUP3 PUSH2 0x3241 JUMPI PUSH2 0x3240 PUSH2 0x31EF JUMP JUMPDEST JUMPDEST DUP3 DUP3 DIV SWAP1 POP SWAP3 SWAP2 POP POP JUMP JUMPDEST PUSH0 PUSH1 0x60 DUP3 ADD SWAP1 POP PUSH2 0x325F PUSH0 DUP4 ADD DUP7 PUSH2 0x2BBB JUMP JUMPDEST PUSH2 0x326C PUSH1 0x20 DUP4 ADD DUP6 PUSH2 0x2BBB JUMP JUMPDEST PUSH2 0x3279 PUSH1 0x40 DUP4 ADD DUP5 PUSH2 0x2CA3 JUMP JUMPDEST SWAP5 SWAP4 POP POP POP POP JUMP JUMPDEST PUSH0 PUSH1 0x40 DUP3 ADD SWAP1 POP PUSH2 0x3294 PUSH0 DUP4 ADD DUP6 PUSH2 0x2BBB JUMP JUMPDEST PUSH2 0x32A1 PUSH1 0x20 DUP4 ADD DUP5 PUSH2 0x2CA3 JUMP JUMPDEST SWAP4 SWAP3 POP POP POP JUMP JUMPDEST PUSH0 DUP2 SWAP1 POP SWAP3 SWAP2 POP POP JUMP JUMPDEST POP JUMP JUMPDEST PUSH0 PUSH2 0x32C0 PUSH0 DUP4 PUSH2 0x32A8 JUMP JUMPDEST SWAP2 POP PUSH2 0x32CB DUP3 PUSH2 0x32B2 JUMP JUMPDEST PUSH0 DUP3 ADD SWAP1 POP SWAP2 SWAP1 POP JUMP JUMPDEST PUSH0 PUSH2 0x32DF DUP3 PUSH2 0x32B5 JUMP JUMPDEST SWAP2 POP DUP2 SWAP1 POP SWAP2 SWAP1 POP JUMP JUMPDEST PUSH0 PUSH1 0x40 DUP3 ADD SWAP1 POP PUSH2 0x32FC PUSH0 DUP4 ADD DUP6 PUSH2 0x2BBB JUMP JUMPDEST PUSH2 0x3309 PUSH1 0x20 DUP4 ADD DUP5 PUSH2 0x2D61 JUMP JUMPDEST SWAP4 SWAP3 POP POP POP JUMP JUMPDEST PUSH0 DUP3 DUP3 MSTORE PUSH1 0x20 DUP3 ADD SWAP1 POP SWAP3 SWAP2 POP POP JUMP JUMPDEST PUSH32 0x5265656E7472616E637947756172643A207265656E7472616E742063616C6C00 PUSH0 DUP3 ADD MSTORE POP JUMP JUMPDEST PUSH0 PUSH2 0x3354 PUSH1 0x1F DUP4 PUSH2 0x3310 JUMP JUMPDEST SWAP2 POP PUSH2 0x335F DUP3 PUSH2 0x3320 JUMP JUMPDEST PUSH1 0x20 DUP3 ADD SWAP1 POP SWAP2 SWAP1 POP JUMP JUMPDEST PUSH0 PUSH1 0x20 DUP3 ADD SWAP1 POP DUP2 DUP2 SUB PUSH0 DUP4 ADD MSTORE PUSH2 0x3381 DUP2 PUSH2 0x3348 JUMP JUMPDEST SWAP1 POP SWAP2 SWAP1 POP JUMP INVALID LOG2 PUSH5 0x6970667358 0x22 SLT KECCAK256 DIV SAR 0xDA ADD PUSH27 0x479ECF9FE98D00358EDD151F2F455C10CE9FF9C45917CBF58CFB85 PUSH5 0x736F6C6343 STOP ADDMOD 0x1E STOP CALLER "
				},
				"gasEstimates": {
					"creation": {
						"codeDepositCost": "2649200",
						"executionCost": "infinite",
						"totalCost": "infinite"
					},
					"external": {
						"": "463",
						"DEFAULT_ADMIN_ROLE()": "440",
						"FEED_MANAGER()": "392",
						"MIN_DEPOSITO()": "371",
						"PAUSER()": "369",
						"balanceOf(address,address)": "infinite",
						"darRol(address,bytes32)": "infinite",
						"depositarETH()": "infinite",
						"depositarUSDC(uint256)": "infinite",
						"despausarContrato()": "infinite",
						"estadoDelContrato()": "infinite",
						"getRoleAdmin(bytes32)": "infinite",
						"grantRole(bytes32,address)": "infinite",
						"hasRole(bytes32,address)": "3233",
						"owner()": "2605",
						"pausarContrato()": "infinite",
						"paused()": "2592",
						"renounceOwnership()": "infinite",
						"renounceRole(bytes32,address)": "infinite",
						"retirarETH(uint256)": "infinite",
						"retirarUSDC(uint256)": "infinite",
						"revocarRol(address,bytes32)": "infinite",
						"revokeRole(bytes32,address)": "infinite",
						"s_feed()": "infinite",
						"setFeeds(address)": "infinite",
						"supportsInterface(bytes4)": "806",
						"transferOwnership(address)": "infinite",
						"transferirOwner(address)": "infinite",
						"verBoveda()": "infinite",
						"verSaldoETH()": "2695",
						"verSaldoUSDC()": "infinite",
						"verTotalContrato()": "2499",
						"verTotalDepositos()": "2583",
						"verTotalRetiros()": "2569"
					},
					"internal": {
						"_depositoETH(address,uint256,uint256)": "infinite",
						"_retirarFondosETH(uint256)": "infinite",
						"_retirarFondosUSDC(uint256)": "infinite",
						"chainLinkFeeds()": "infinite",
						"convertirEthEnUSD(uint256)": "infinite"
					}
				},
				"methodIdentifiers": {
					"DEFAULT_ADMIN_ROLE()": "a217fddf",
					"FEED_MANAGER()": "cb398eb3",
					"MIN_DEPOSITO()": "3fb47470",
					"PAUSER()": "d9dc8694",
					"balanceOf(address,address)": "f7888aec",
					"darRol(address,bytes32)": "ccd6b020",
					"depositarETH()": "16a1930f",
					"depositarUSDC(uint256)": "698b7241",
					"despausarContrato()": "38d5c916",
					"estadoDelContrato()": "0594cc69",
					"getRoleAdmin(bytes32)": "248a9ca3",
					"grantRole(bytes32,address)": "2f2ff15d",
					"hasRole(bytes32,address)": "91d14854",
					"owner()": "8da5cb5b",
					"pausarContrato()": "1a003ecb",
					"paused()": "5c975abb",
					"renounceOwnership()": "715018a6",
					"renounceRole(bytes32,address)": "36568abe",
					"retirarETH(uint256)": "82fe54b5",
					"retirarUSDC(uint256)": "931fb90e",
					"revocarRol(address,bytes32)": "f0e00dc8",
					"revokeRole(bytes32,address)": "d547741f",
					"s_feed()": "6f05c64c",
					"setFeeds(address)": "7dc532c5",
					"supportsInterface(bytes4)": "01ffc9a7",
					"transferOwnership(address)": "f2fde38b",
					"transferirOwner(address)": "8648840a",
					"verBoveda()": "6900670c",
					"verSaldoETH()": "779bb136",
					"verSaldoUSDC()": "939495bd",
					"verTotalContrato()": "93295c1c",
					"verTotalDepositos()": "f39b1809",
					"verTotalRetiros()": "c6aca33c"
				}
			},
			"storageLayout": {
				"storage": [
					{
						"astId": 674,
						"contract": "contracts/KipuBank.sol:KipuBank",
						"label": "_status",
						"offset": 0,
						"slot": "0",
						"type": "t_uint256"
					},
					{
						"astId": 434,
						"contract": "contracts/KipuBank.sol:KipuBank",
						"label": "_owner",
						"offset": 0,
						"slot": "1",
						"type": "t_address"
					},
					{
						"astId": 1309,
						"contract": "contracts/KipuBank.sol:KipuBank",
						"label": "_paused",
						"offset": 20,
						"slot": "1",
						"type": "t_bool"
					},
					{
						"astId": 73,
						"contract": "contracts/KipuBank.sol:KipuBank",
						"label": "_roles",
						"offset": 0,
						"slot": "2",
						"type": "t_mapping(t_bytes32,t_struct(RoleData)68_storage)"
					},
					{
						"astId": 1478,
						"contract": "contracts/KipuBank.sol:KipuBank",
						"label": "s_feed",
						"offset": 0,
						"slot": "3",
						"type": "t_contract(AggregatorV3Interface)45"
					},
					{
						"astId": 1508,
						"contract": "contracts/KipuBank.sol:KipuBank",
						"label": "s_totalContrato",
						"offset": 0,
						"slot": "4",
						"type": "t_uint256"
					},
					{
						"astId": 1516,
						"contract": "contracts/KipuBank.sol:KipuBank",
						"label": "s_depositos",
						"offset": 0,
						"slot": "5",
						"type": "t_uint128"
					},
					{
						"astId": 1520,
						"contract": "contracts/KipuBank.sol:KipuBank",
						"label": "s_retiros",
						"offset": 16,
						"slot": "5",
						"type": "t_uint128"
					},
					{
						"astId": 1527,
						"contract": "contracts/KipuBank.sol:KipuBank",
						"label": "s_cuentasMultiToken",
						"offset": 0,
						"slot": "6",
						"type": "t_mapping(t_address,t_mapping(t_address,t_uint256))"
					}
				],
				"types": {
					"t_address": {
						"encoding": "inplace",
						"label": "address",
						"numberOfBytes": "20"
					},
					"t_bool": {
						"encoding": "inplace",
						"label": "bool",
						"numberOfBytes": "1"
					},
					"t_bytes32": {
						"encoding": "inplace",
						"label": "bytes32",
						"numberOfBytes": "32"
					},
					"t_contract(AggregatorV3Interface)45": {
						"encoding": "inplace",
						"label": "contract AggregatorV3Interface",
						"numberOfBytes": "20"
					},
					"t_mapping(t_address,t_bool)": {
						"encoding": "mapping",
						"key": "t_address",
						"label": "mapping(address => bool)",
						"numberOfBytes": "32",
						"value": "t_bool"
					},
					"t_mapping(t_address,t_mapping(t_address,t_uint256))": {
						"encoding": "mapping",
						"key": "t_address",
						"label": "mapping(address => mapping(address => uint256))",
						"numberOfBytes": "32",
						"value": "t_mapping(t_address,t_uint256)"
					},
					"t_mapping(t_address,t_uint256)": {
						"encoding": "mapping",
						"key": "t_address",
						"label": "mapping(address => uint256)",
						"numberOfBytes": "32",
						"value": "t_uint256"
					},
					"t_mapping(t_bytes32,t_struct(RoleData)68_storage)": {
						"encoding": "mapping",
						"key": "t_bytes32",
						"label": "mapping(bytes32 => struct AccessControl.RoleData)",
						"numberOfBytes": "32",
						"value": "t_struct(RoleData)68_storage"
					},
					"t_struct(RoleData)68_storage": {
						"encoding": "inplace",
						"label": "struct AccessControl.RoleData",
						"members": [
							{
								"astId": 65,
								"contract": "contracts/KipuBank.sol:KipuBank",
								"label": "hasRole",
								"offset": 0,
								"slot": "0",
								"type": "t_mapping(t_address,t_bool)"
							},
							{
								"astId": 67,
								"contract": "contracts/KipuBank.sol:KipuBank",
								"label": "adminRole",
								"offset": 0,
								"slot": "1",
								"type": "t_bytes32"
							}
						],
						"numberOfBytes": "64"
					},
					"t_uint128": {
						"encoding": "inplace",
						"label": "uint128",
						"numberOfBytes": "16"
					},
					"t_uint256": {
						"encoding": "inplace",
						"label": "uint256",
						"numberOfBytes": "32"
					}
				}
			},
			"userdoc": {
				"errors": {
					"KipuBank_DireccionInvalida()": [
						{
							"notice": "Error por querer hacer un \"set\" de una dirección invalida"
						}
					],
					"KipuBank_ExtraccionRechazada(address,uint256)": [
						{
							"notice": "Error de extraccion"
						}
					],
					"KipuBank_FeedInvalido(address)": [
						{
							"notice": "Error por querer ingresar un data feed invalido"
						}
					],
					"KipuBank_InicializacionInvalida(uint256,uint256)": [
						{
							"notice": "Error de umbral mayor al limite"
						}
					],
					"KipuBank_LimiteExcedido(uint256)": [
						{
							"notice": "Error por sobrepasarse del limite"
						}
					],
					"KipuBank_LimiteInvalido(uint256)": [
						{
							"notice": "Error por limite invalido"
						}
					],
					"KipuBank_MontoCero(address)": [
						{
							"notice": "Error monto cero"
						}
					],
					"KipuBank_MontoNoAutorizado(uint256)": [
						{
							"notice": "Error de monto no autorizado a depositar"
						}
					],
					"KipuBank_NoAutorizado(address)": [
						{
							"notice": "Error cuando alguien no autorizado quiere acceder a una función"
						}
					],
					"KipuBank_OperacionNoPermitida(address)": [
						{
							"notice": "Error por operacion no permitida"
						}
					],
					"KipuBank_OraculoComprometido(uint256)": [
						{
							"notice": "Error por óraculo dando un precio equivoco"
						}
					],
					"KipuBank_PrecioDesactualizado(uint256)": [
						{
							"notice": "Error por precio desactualizado"
						}
					],
					"KipuBank_SaldoInsuficiente(address,uint256)": [
						{
							"notice": "Error por saldo insuficiente"
						}
					],
					"KipuBank_UmbralExcedido(uint256)": [
						{
							"notice": "Error por umbral excedido"
						}
					],
					"KipuBank_UmbralInvalido(uint256)": [
						{
							"notice": "Error por umbral invalido"
						}
					]
				},
				"events": {
					"KipuBank_ContratoDespausado(address,uint256)": {
						"notice": "Evento para despausar el contrato"
					},
					"KipuBank_ContratoPausado(address,uint256)": {
						"notice": "Evento para pausar el contrato"
					},
					"KipuBank_DepositoRealizado(address,uint256)": {
						"notice": "Evento para depositos realizado exitosamente"
					},
					"KipuBank_ExtraccionRealizada(address,uint256)": {
						"notice": "Evento para extracciones realizadas exitosamente"
					},
					"KipuBank_FeedActualizado(address,address)": {
						"notice": "Evento para la actualización del feed"
					},
					"KipuBank_OwnerTransferido(address,address)": {
						"notice": "Evento para cuando el owner del contrato es transferido"
					},
					"KipuBank_RolDado(address,bytes32)": {
						"notice": "Evento para cuando un rol es otorgado"
					},
					"KipuBank_RolRevocado(address,bytes32)": {
						"notice": "Evento para cuando un rol es revocado"
					}
				},
				"kind": "user",
				"methods": {
					"FEED_MANAGER()": {
						"notice": "Rol de Manager de los data feeds"
					},
					"MIN_DEPOSITO()": {
						"notice": "Deposito mínimo de Ether en el contrato"
					},
					"PAUSER()": {
						"notice": "Rol de pausador del contrato"
					},
					"balanceOf(address,address)": {
						"notice": "Función para ver el saldo por token del titular"
					},
					"constructor": {
						"notice": "Constructor del contrato"
					},
					"darRol(address,bytes32)": {
						"notice": "Función para dar un rol a una cuenta"
					},
					"depositarETH()": {
						"notice": "Funcion para depositar en la boveda"
					},
					"depositarUSDC(uint256)": {
						"notice": "Funcion para depositar en la boveda"
					},
					"despausarContrato()": {
						"notice": "Función para despausar el contrato"
					},
					"estadoDelContrato()": {
						"notice": "Función para ver el estado del contrato"
					},
					"pausarContrato()": {
						"notice": "Función para pausar el contrato"
					},
					"retirarETH(uint256)": {
						"notice": "Funcion externa para realizar el retiro de saldo en ETH"
					},
					"retirarUSDC(uint256)": {
						"notice": "Funcion externa para realizar el retiro de saldo en USDC"
					},
					"revocarRol(address,bytes32)": {
						"notice": "Función para revocar el rol a una cuenta"
					},
					"s_feed()": {
						"notice": "Interfaz publica del data feed"
					},
					"setFeeds(address)": {
						"notice": "Función para cambiar el data feeds"
					},
					"supportsInterface(bytes4)": {
						"notice": "Override requerido por Solidity para la múltiple herencia"
					},
					"transferirOwner(address)": {
						"notice": "Función para traspasar el contrato a otro dueño"
					},
					"verBoveda()": {
						"notice": "Funcion para ver el saldo total guardado en el boveda en USD"
					},
					"verSaldoETH()": {
						"notice": "Función para el saldo en ETH del titular"
					},
					"verSaldoUSDC()": {
						"notice": "Función para ver el saldo en USDC del titular"
					},
					"verTotalContrato()": {
						"notice": "Funcion para ver el saldo total del contrato en USD"
					},
					"verTotalDepositos()": {
						"notice": "Funcion para ver la cantidad total de los depositos realizados"
					},
					"verTotalRetiros()": {
						"notice": "Funcion para ver la cantidad total de los retiros realizados"
					}
				},
				"version": 1
			}
		}
	}
}