{
	"contracts/KipuBank.sol": {
		"KipuBank": {
			"abi": [
				{
					"inputs": [
						{
							"internalType": "uint256",
							"name": "_limite",
							"type": "uint256"
						},
						{
							"internalType": "uint256",
							"name": "_umbral",
							"type": "uint256"
						},
						{
							"internalType": "address",
							"name": "_owner",
							"type": "address"
						},
						{
							"internalType": "address",
							"name": "_feed",
							"type": "address"
						},
						{
							"internalType": "address",
							"name": "_tokenERC20",
							"type": "address"
						}
					],
					"stateMutability": "nonpayable",
					"type": "constructor"
				},
				{
					"inputs": [
						{
							"internalType": "address",
							"name": "titular",
							"type": "address"
						},
						{
							"internalType": "uint256",
							"name": "monto",
							"type": "uint256"
						}
					],
					"name": "KipuBank_ExtraccionRechazada",
					"type": "error"
				},
				{
					"inputs": [
						{
							"internalType": "uint256",
							"name": "limite",
							"type": "uint256"
						},
						{
							"internalType": "uint256",
							"name": "umbral",
							"type": "uint256"
						}
					],
					"name": "KipuBank_InicializacionInvalida",
					"type": "error"
				},
				{
					"inputs": [
						{
							"internalType": "uint256",
							"name": "monto",
							"type": "uint256"
						}
					],
					"name": "KipuBank_LimiteExcedido",
					"type": "error"
				},
				{
					"inputs": [
						{
							"internalType": "uint256",
							"name": "limite",
							"type": "uint256"
						}
					],
					"name": "KipuBank_LimiteInvalido",
					"type": "error"
				},
				{
					"inputs": [
						{
							"internalType": "address",
							"name": "titular",
							"type": "address"
						}
					],
					"name": "KipuBank_MontoCero",
					"type": "error"
				},
				{
					"inputs": [
						{
							"internalType": "address",
							"name": "titular",
							"type": "address"
						}
					],
					"name": "KipuBank_OperacionNoPermitida",
					"type": "error"
				},
				{
					"inputs": [
						{
							"internalType": "uint256",
							"name": "precio",
							"type": "uint256"
						}
					],
					"name": "KipuBank_OraculoComprometido",
					"type": "error"
				},
				{
					"inputs": [
						{
							"internalType": "uint256",
							"name": "precio",
							"type": "uint256"
						}
					],
					"name": "KipuBank_PrecioDesactualizado",
					"type": "error"
				},
				{
					"inputs": [
						{
							"internalType": "address",
							"name": "titular",
							"type": "address"
						},
						{
							"internalType": "uint256",
							"name": "monto",
							"type": "uint256"
						}
					],
					"name": "KipuBank_SaldoInsuficiente",
					"type": "error"
				},
				{
					"inputs": [
						{
							"internalType": "uint256",
							"name": "monto",
							"type": "uint256"
						}
					],
					"name": "KipuBank_UmbralExcedido",
					"type": "error"
				},
				{
					"inputs": [
						{
							"internalType": "uint256",
							"name": "umbral",
							"type": "uint256"
						}
					],
					"name": "KipuBank_UmbralInvalido",
					"type": "error"
				},
				{
					"inputs": [
						{
							"internalType": "address",
							"name": "owner",
							"type": "address"
						}
					],
					"name": "OwnableInvalidOwner",
					"type": "error"
				},
				{
					"inputs": [
						{
							"internalType": "address",
							"name": "account",
							"type": "address"
						}
					],
					"name": "OwnableUnauthorizedAccount",
					"type": "error"
				},
				{
					"inputs": [
						{
							"internalType": "address",
							"name": "token",
							"type": "address"
						}
					],
					"name": "SafeERC20FailedOperation",
					"type": "error"
				},
				{
					"anonymous": false,
					"inputs": [
						{
							"indexed": false,
							"internalType": "address",
							"name": "titular",
							"type": "address"
						},
						{
							"indexed": false,
							"internalType": "uint256",
							"name": "monto",
							"type": "uint256"
						}
					],
					"name": "KipuBank_DepositoRealizado",
					"type": "event"
				},
				{
					"anonymous": false,
					"inputs": [
						{
							"indexed": false,
							"internalType": "address",
							"name": "titular",
							"type": "address"
						},
						{
							"indexed": false,
							"internalType": "uint256",
							"name": "monto",
							"type": "uint256"
						}
					],
					"name": "KipuBank_ExtraccionRealizada",
					"type": "event"
				},
				{
					"anonymous": false,
					"inputs": [
						{
							"indexed": true,
							"internalType": "address",
							"name": "previousOwner",
							"type": "address"
						},
						{
							"indexed": true,
							"internalType": "address",
							"name": "newOwner",
							"type": "address"
						}
					],
					"name": "OwnershipTransferred",
					"type": "event"
				},
				{
					"stateMutability": "payable",
					"type": "fallback"
				},
				{
					"inputs": [],
					"name": "depositarETH",
					"outputs": [],
					"stateMutability": "payable",
					"type": "function"
				},
				{
					"inputs": [
						{
							"internalType": "uint256",
							"name": "_monto",
							"type": "uint256"
						}
					],
					"name": "depositarUSDC",
					"outputs": [],
					"stateMutability": "nonpayable",
					"type": "function"
				},
				{
					"inputs": [],
					"name": "i_feed",
					"outputs": [
						{
							"internalType": "contract AggregatorV3Interface",
							"name": "",
							"type": "address"
						}
					],
					"stateMutability": "view",
					"type": "function"
				},
				{
					"inputs": [],
					"name": "owner",
					"outputs": [
						{
							"internalType": "address",
							"name": "",
							"type": "address"
						}
					],
					"stateMutability": "view",
					"type": "function"
				},
				{
					"inputs": [],
					"name": "renounceOwnership",
					"outputs": [],
					"stateMutability": "nonpayable",
					"type": "function"
				},
				{
					"inputs": [
						{
							"internalType": "uint256",
							"name": "_monto",
							"type": "uint256"
						}
					],
					"name": "retirarETH",
					"outputs": [],
					"stateMutability": "nonpayable",
					"type": "function"
				},
				{
					"inputs": [
						{
							"internalType": "uint256",
							"name": "_monto",
							"type": "uint256"
						}
					],
					"name": "retirarUSDC",
					"outputs": [],
					"stateMutability": "nonpayable",
					"type": "function"
				},
				{
					"inputs": [
						{
							"internalType": "address",
							"name": "newOwner",
							"type": "address"
						}
					],
					"name": "transferOwnership",
					"outputs": [],
					"stateMutability": "nonpayable",
					"type": "function"
				},
				{
					"inputs": [
						{
							"internalType": "address",
							"name": "_nuevoOwner",
							"type": "address"
						}
					],
					"name": "transferirOwner",
					"outputs": [],
					"stateMutability": "nonpayable",
					"type": "function"
				},
				{
					"inputs": [],
					"name": "verBoveda",
					"outputs": [
						{
							"internalType": "uint256",
							"name": "monto_",
							"type": "uint256"
						}
					],
					"stateMutability": "view",
					"type": "function"
				},
				{
					"inputs": [],
					"name": "verSaldoETH",
					"outputs": [
						{
							"internalType": "uint256",
							"name": "saldo_",
							"type": "uint256"
						}
					],
					"stateMutability": "view",
					"type": "function"
				},
				{
					"inputs": [],
					"name": "verSaldoUSDC",
					"outputs": [
						{
							"internalType": "uint256",
							"name": "saldo_",
							"type": "uint256"
						}
					],
					"stateMutability": "view",
					"type": "function"
				},
				{
					"inputs": [],
					"name": "verTotalContrato",
					"outputs": [
						{
							"internalType": "uint256",
							"name": "",
							"type": "uint256"
						}
					],
					"stateMutability": "view",
					"type": "function"
				},
				{
					"inputs": [],
					"name": "verTotalDepositos",
					"outputs": [
						{
							"internalType": "uint256",
							"name": "",
							"type": "uint256"
						}
					],
					"stateMutability": "view",
					"type": "function"
				},
				{
					"inputs": [],
					"name": "verTotalRetiros",
					"outputs": [
						{
							"internalType": "uint256",
							"name": "",
							"type": "uint256"
						}
					],
					"stateMutability": "view",
					"type": "function"
				},
				{
					"stateMutability": "payable",
					"type": "receive"
				}
			],
			"devdoc": {
				"errors": {
					"KipuBank_ExtraccionRechazada(address,uint256)": [
						{
							"params": {
								"monto": "monto a extraer de la boveda",
								"titular": "titular de la cuenta a realizar la extracción"
							}
						}
					],
					"KipuBank_InicializacionInvalida(uint256,uint256)": [
						{
							"params": {
								"limite": "limite del contrato",
								"umbral": "umbral del contrato"
							}
						}
					],
					"KipuBank_LimiteExcedido(uint256)": [
						{
							"params": {
								"monto": "monto que excede el limite a depositar"
							}
						}
					],
					"KipuBank_LimiteInvalido(uint256)": [
						{
							"params": {
								"limite": "limite que es invalido"
							}
						}
					],
					"KipuBank_MontoCero(address)": [
						{
							"params": {
								"titular": "titular que emite una transaccion con valor nulo"
							}
						}
					],
					"KipuBank_OperacionNoPermitida(address)": [
						{
							"params": {
								"titular": "titular que realizo la operacion no permitida"
							}
						}
					],
					"KipuBank_OraculoComprometido(uint256)": [
						{
							"params": {
								"precio": "Precio que dió el óraculo"
							}
						}
					],
					"KipuBank_PrecioDesactualizado(uint256)": [
						{
							"params": {
								"precio": "Es el precio que quedó desactualizado"
							}
						}
					],
					"KipuBank_SaldoInsuficiente(address,uint256)": [
						{
							"params": {
								"monto": "monto a retirar",
								"titular": "titular con saldo insuficiente"
							}
						}
					],
					"KipuBank_UmbralExcedido(uint256)": [
						{
							"params": {
								"monto": "que excede el umbral establecido"
							}
						}
					],
					"KipuBank_UmbralInvalido(uint256)": [
						{
							"params": {
								"umbral": "umbral que es invalido"
							}
						}
					],
					"OwnableInvalidOwner(address)": [
						{
							"details": "The owner is not a valid owner account. (eg. `address(0)`)"
						}
					],
					"OwnableUnauthorizedAccount(address)": [
						{
							"details": "The caller account is not authorized to perform an operation."
						}
					],
					"SafeERC20FailedOperation(address)": [
						{
							"details": "An operation with an ERC-20 token failed."
						}
					]
				},
				"events": {
					"KipuBank_DepositoRealizado(address,uint256)": {
						"params": {
							"monto": "monto que se desea depositar",
							"titular": "titular que realiza el detposito"
						}
					},
					"KipuBank_ExtraccionRealizada(address,uint256)": {
						"params": {
							"monto": "monto que se desea extraer",
							"titular": "titular que desea realizar la extracción"
						}
					}
				},
				"kind": "dev",
				"methods": {
					"constructor": {
						"details": "Se deben generar el limite, umbral y las direcciones del data feed y el token a utilizar al momento de desplegar el contrato",
						"params": {
							"_feed": "Direccion del data feed a utlizar",
							"_limite": "Limite global que se permite por transaccion",
							"_tokenERC20": "Direccion del token ERC20 a utilizar",
							"_umbral": "Umbral de limite de retiros"
						}
					},
					"depositarETH()": {
						"details": "Es payable y usa el modificador de verificarDepositos"
					},
					"depositarUSDC(uint256)": {
						"details": "Es payable y usa el modificador de verificarDepositosSe utiliza la interfaz SafeIERC20 para realizar la transferencia de token ERC20No se marca como payable ya que es un token ERC20 y no Ether"
					},
					"owner()": {
						"details": "Returns the address of the current owner."
					},
					"renounceOwnership()": {
						"details": "Leaves the contract without owner. It will not be possible to call `onlyOwner` functions. Can only be called by the current owner. NOTE: Renouncing ownership will leave the contract without an owner, thereby disabling any functionality that is only available to the owner."
					},
					"retirarETH(uint256)": {
						"params": {
							"_monto": "es el monto a retirar de la boveda"
						}
					},
					"retirarUSDC(uint256)": {
						"params": {
							"_monto": "es el monto a retirar de la boveda"
						}
					},
					"transferOwnership(address)": {
						"details": "Transfers ownership of the contract to a new account (`newOwner`). Can only be called by the current owner."
					},
					"transferirOwner(address)": {
						"details": "El modificador de onlyOwner es necesario para seguridad",
						"params": {
							"_nuevoOwner": "Será la dirección del nuevo propietario del contrato"
						}
					},
					"verBoveda()": {
						"returns": {
							"monto_": "devuelve el saldo depositado total en USD depositado por cada titular"
						}
					},
					"verSaldoETH()": {
						"returns": {
							"saldo_": "Retornal el saldo en ETH"
						}
					},
					"verSaldoUSDC()": {
						"returns": {
							"saldo_": "Retorna el saldo en USDC"
						}
					},
					"verTotalContrato()": {
						"returns": {
							"_0": "Devuelve el saldo del contrato en USD"
						}
					},
					"verTotalDepositos()": {
						"returns": {
							"_0": "Devuelve la cantidad de depositos"
						}
					},
					"verTotalRetiros()": {
						"returns": {
							"_0": "Devuelve la cantidad de retiros"
						}
					}
				},
				"stateVariables": {
					"DECIMAL_FACTOR": {
						"details": "Se hace la suma de los decimales de ethereum y de los decimales de la conversión de chainlink para restarles los decimales de USDC, nos da la base igualitaria"
					},
					"HEARTBEAT": {
						"details": "Por convención se establece en 3600"
					},
					"_boveda": {
						"details": "El total se calcula en USD"
					},
					"_totalContrato": {
						"details": "El total del contrato es en USD"
					},
					"i_bankCap": {
						"details": "Tener en cuenta que el limite global será en USD"
					},
					"i_feed": {
						"details": "Utilizamos el data feed de Chainlink"
					},
					"i_usdc": {
						"details": "Es especifico para el token USDC"
					}
				},
				"version": 1
			},
			"evm": {
				"assembly": "    /* \"contracts/KipuBank.sol\":736:14092  contract KipuBank is ReentrancyGuard, Ownable {... */\n  mstore(0x40, 0xe0)\n    /* \"contracts/KipuBank.sol\":1855:1856  0 */\n  0x00\n    /* \"contracts/KipuBank.sol\":1829:1856  uint private _depositos = 0 */\n  0x03\n  sstore\n    /* \"contracts/KipuBank.sol\":1936:1937  0 */\n  0x00\n    /* \"contracts/KipuBank.sol\":1912:1937  uint private _retiros = 0 */\n  0x04\n  sstore\n    /* \"contracts/KipuBank.sol\":2076:2077  0 */\n  0x00\n    /* \"contracts/KipuBank.sol\":2046:2077  uint private _totalContrato = 0 */\n  0x05\n  sstore\n    /* \"contracts/KipuBank.sol\":5223:5865  constructor(uint _limite, uint _umbral, address _owner, address _feed, address _tokenERC20) Ownable(_owner) {... */\n  callvalue\n  dup1\n  iszero\n  tag_1\n  jumpi\n  revert(0x00, 0x00)\ntag_1:\n  pop\n  mload(0x40)\n  sub(codesize, bytecodeSize)\n  dup1\n  bytecodeSize\n  dup4\n  codecopy\n  dup2\n  dup2\n  add\n  0x40\n  mstore\n  dup2\n  add\n  swap1\n  tag_2\n  swap2\n  swap1\n  tag_3\n  jump\t// in\ntag_2:\n    /* \"contracts/KipuBank.sol\":5323:5329  _owner */\n  dup3\n    /* \"@openzeppelin/contracts/security/ReentrancyGuard.sol\":1716:1717  1 */\n  0x01\n    /* \"@openzeppelin/contracts/security/ReentrancyGuard.sol\":1821:1828  _status */\n  0x00\n    /* \"@openzeppelin/contracts/security/ReentrancyGuard.sol\":1821:1843  _status = _NOT_ENTERED */\n  dup2\n  swap1\n  sstore\n  pop\n    /* \"@openzeppelin/contracts/access/Ownable.sol\":1297:1298  0 */\n  0x00\n    /* \"@openzeppelin/contracts/access/Ownable.sol\":1273:1299  initialOwner == address(0) */\n  0xffffffffffffffffffffffffffffffffffffffff\n  and\n    /* \"@openzeppelin/contracts/access/Ownable.sol\":1273:1285  initialOwner */\n  dup2\n    /* \"@openzeppelin/contracts/access/Ownable.sol\":1273:1299  initialOwner == address(0) */\n  0xffffffffffffffffffffffffffffffffffffffff\n  and\n  sub\n    /* \"@openzeppelin/contracts/access/Ownable.sol\":1269:1364  if (initialOwner == address(0)) {... */\n  tag_9\n  jumpi\n    /* \"@openzeppelin/contracts/access/Ownable.sol\":1350:1351  0 */\n  0x00\n    /* \"@openzeppelin/contracts/access/Ownable.sol\":1322:1353  OwnableInvalidOwner(address(0)) */\n  mload(0x40)\n  0x1e4fbdf700000000000000000000000000000000000000000000000000000000\n  dup2\n  mstore\n  0x04\n  add\n  tag_10\n  swap2\n  swap1\n  tag_11\n  jump\t// in\ntag_10:\n  mload(0x40)\n  dup1\n  swap2\n  sub\n  swap1\n  revert\n    /* \"@openzeppelin/contracts/access/Ownable.sol\":1269:1364  if (initialOwner == address(0)) {... */\ntag_9:\n    /* \"@openzeppelin/contracts/access/Ownable.sol\":1373:1405  _transferOwnership(initialOwner) */\n  tag_12\n    /* \"@openzeppelin/contracts/access/Ownable.sol\":1392:1404  initialOwner */\n  dup2\n    /* \"@openzeppelin/contracts/access/Ownable.sol\":1373:1391  _transferOwnership */\n  shl(0x20, tag_13)\n    /* \"@openzeppelin/contracts/access/Ownable.sol\":1373:1405  _transferOwnership(initialOwner) */\n  0x20\n  shr\n  jump\t// in\ntag_12:\n    /* \"@openzeppelin/contracts/access/Ownable.sol\":1225:1412  constructor(address initialOwner) {... */\n  pop\n    /* \"contracts/KipuBank.sol\":5355:5356  0 */\n  0x00\n    /* \"contracts/KipuBank.sol\":5344:5351  _limite */\n  dup6\n    /* \"contracts/KipuBank.sol\":5344:5356  _limite == 0 */\n  sub\n    /* \"contracts/KipuBank.sol\":5341:5397  if(_limite == 0) revert KipuBank_LimiteInvalido(_limite) */\n  tag_15\n  jumpi\n    /* \"contracts/KipuBank.sol\":5389:5396  _limite */\n  dup5\n    /* \"contracts/KipuBank.sol\":5365:5397  KipuBank_LimiteInvalido(_limite) */\n  mload(0x40)\n  0xf1fdfd2b00000000000000000000000000000000000000000000000000000000\n  dup2\n  mstore\n  0x04\n  add\n  tag_16\n  swap2\n  swap1\n  tag_17\n  jump\t// in\ntag_16:\n  mload(0x40)\n  dup1\n  swap2\n  sub\n  swap1\n  revert\n    /* \"contracts/KipuBank.sol\":5341:5397  if(_limite == 0) revert KipuBank_LimiteInvalido(_limite) */\ntag_15:\n    /* \"contracts/KipuBank.sol\":5421:5422  0 */\n  0x00\n    /* \"contracts/KipuBank.sol\":5410:5417  _umbral */\n  dup5\n    /* \"contracts/KipuBank.sol\":5410:5422  _umbral == 0 */\n  sub\n    /* \"contracts/KipuBank.sol\":5407:5463  if(_umbral == 0) revert KipuBank_UmbralInvalido(_umbral) */\n  tag_18\n  jumpi\n    /* \"contracts/KipuBank.sol\":5455:5462  _umbral */\n  dup4\n    /* \"contracts/KipuBank.sol\":5431:5463  KipuBank_UmbralInvalido(_umbral) */\n  mload(0x40)\n  0x5052fe8e00000000000000000000000000000000000000000000000000000000\n  dup2\n  mstore\n  0x04\n  add\n  tag_19\n  swap2\n  swap1\n  tag_17\n  jump\t// in\ntag_19:\n  mload(0x40)\n  dup1\n  swap2\n  sub\n  swap1\n  revert\n    /* \"contracts/KipuBank.sol\":5407:5463  if(_umbral == 0) revert KipuBank_UmbralInvalido(_umbral) */\ntag_18:\n    /* \"contracts/KipuBank.sol\":5486:5493  _limite */\n  dup5\n    /* \"contracts/KipuBank.sol\":5476:5483  _umbral */\n  dup5\n    /* \"contracts/KipuBank.sol\":5476:5493  _umbral > _limite */\n  gt\n    /* \"contracts/KipuBank.sol\":5473:5551  if(_umbral > _limite) revert KipuBank_InicializacionInvalida(_limite, _umbral) */\n  iszero\n  tag_20\n  jumpi\n    /* \"contracts/KipuBank.sol\":5534:5541  _limite */\n  dup5\n    /* \"contracts/KipuBank.sol\":5543:5550  _umbral */\n  dup5\n    /* \"contracts/KipuBank.sol\":5502:5551  KipuBank_InicializacionInvalida(_limite, _umbral) */\n  mload(0x40)\n  0x3122626300000000000000000000000000000000000000000000000000000000\n  dup2\n  mstore\n  0x04\n  add\n  tag_21\n  swap3\n  swap2\n  swap1\n  tag_22\n  jump\t// in\ntag_21:\n  mload(0x40)\n  dup1\n  swap2\n  sub\n  swap1\n  revert\n    /* \"contracts/KipuBank.sol\":5473:5551  if(_umbral > _limite) revert KipuBank_InicializacionInvalida(_limite, _umbral) */\ntag_20:\n    /* \"contracts/KipuBank.sol\":5581:5582  0 */\n  0x00\n    /* \"contracts/KipuBank.sol\":5564:5583  _feed == address(0) */\n  0xffffffffffffffffffffffffffffffffffffffff\n  and\n    /* \"contracts/KipuBank.sol\":5564:5569  _feed */\n  dup3\n    /* \"contracts/KipuBank.sol\":5564:5583  _feed == address(0) */\n  0xffffffffffffffffffffffffffffffffffffffff\n  and\n  sub\n    /* \"contracts/KipuBank.sol\":5561:5593  if(_feed == address(0)) revert() */\n  tag_23\n  jumpi\n    /* \"contracts/KipuBank.sol\":5585:5593  revert() */\n  revert(0x00, 0x00)\n    /* \"contracts/KipuBank.sol\":5561:5593  if(_feed == address(0)) revert() */\ntag_23:\n    /* \"contracts/KipuBank.sol\":5667:5668  0 */\n  0x00\n    /* \"contracts/KipuBank.sol\":5644:5669  _tokenERC20 == address(0) */\n  0xffffffffffffffffffffffffffffffffffffffff\n  and\n    /* \"contracts/KipuBank.sol\":5644:5655  _tokenERC20 */\n  dup2\n    /* \"contracts/KipuBank.sol\":5644:5669  _tokenERC20 == address(0) */\n  0xffffffffffffffffffffffffffffffffffffffff\n  and\n  sub\n    /* \"contracts/KipuBank.sol\":5641:5679  if(_tokenERC20 == address(0)) revert() */\n  tag_24\n  jumpi\n    /* \"contracts/KipuBank.sol\":5671:5679  revert() */\n  revert(0x00, 0x00)\n    /* \"contracts/KipuBank.sol\":5641:5679  if(_tokenERC20 == address(0)) revert() */\ntag_24:\n    /* \"contracts/KipuBank.sol\":5742:5753  _tokenERC20 */\n  dup1\n    /* \"contracts/KipuBank.sol\":5726:5754  i_usdc = IERC20(_tokenERC20) */\n  0xffffffffffffffffffffffffffffffffffffffff\n  and\n  0x80\n  dup2\n  0xffffffffffffffffffffffffffffffffffffffff\n  and\n  dup2\n  mstore\n  pop\n  pop\n    /* \"contracts/KipuBank.sol\":5795:5800  _feed */\n  dup2\n    /* \"contracts/KipuBank.sol\":5764:5770  i_feed */\n  0x02\n  0x00\n    /* \"contracts/KipuBank.sol\":5764:5801  i_feed = AggregatorV3Interface(_feed) */\n  0x0100\n  exp\n  dup2\n  sload\n  dup2\n  0xffffffffffffffffffffffffffffffffffffffff\n  mul\n  not\n  and\n  swap1\n  dup4\n  0xffffffffffffffffffffffffffffffffffffffff\n  and\n  mul\n  or\n  swap1\n  sstore\n  pop\n    /* \"contracts/KipuBank.sol\":5823:5830  _limite */\n  dup5\n    /* \"contracts/KipuBank.sol\":5811:5830  i_bankCap = _limite */\n  0xc0\n  dup2\n  dup2\n  mstore\n  pop\n  pop\n    /* \"contracts/KipuBank.sol\":5851:5858  _umbral */\n  dup4\n    /* \"contracts/KipuBank.sol\":5840:5858  i_umbral = _umbral */\n  0xa0\n  dup2\n  dup2\n  mstore\n  pop\n  pop\n    /* \"contracts/KipuBank.sol\":5223:5865  constructor(uint _limite, uint _umbral, address _owner, address _feed, address _tokenERC20) Ownable(_owner) {... */\n  pop\n  pop\n  pop\n  pop\n  pop\n    /* \"contracts/KipuBank.sol\":736:14092  contract KipuBank is ReentrancyGuard, Ownable {... */\n  jump(tag_25)\n    /* \"@openzeppelin/contracts/access/Ownable.sol\":2912:3099  function _transferOwnership(address newOwner) internal virtual {... */\ntag_13:\n    /* \"@openzeppelin/contracts/access/Ownable.sol\":2985:3001  address oldOwner */\n  0x00\n    /* \"@openzeppelin/contracts/access/Ownable.sol\":3004:3010  _owner */\n  0x01\n  0x00\n  swap1\n  sload\n  swap1\n  0x0100\n  exp\n  swap1\n  div\n  0xffffffffffffffffffffffffffffffffffffffff\n  and\n    /* \"@openzeppelin/contracts/access/Ownable.sol\":2985:3010  address oldOwner = _owner */\n  swap1\n  pop\n    /* \"@openzeppelin/contracts/access/Ownable.sol\":3029:3037  newOwner */\n  dup2\n    /* \"@openzeppelin/contracts/access/Ownable.sol\":3020:3026  _owner */\n  0x01\n  0x00\n    /* \"@openzeppelin/contracts/access/Ownable.sol\":3020:3037  _owner = newOwner */\n  0x0100\n  exp\n  dup2\n  sload\n  dup2\n  0xffffffffffffffffffffffffffffffffffffffff\n  mul\n  not\n  and\n  swap1\n  dup4\n  0xffffffffffffffffffffffffffffffffffffffff\n  and\n  mul\n  or\n  swap1\n  sstore\n  pop\n    /* \"@openzeppelin/contracts/access/Ownable.sol\":3083:3091  newOwner */\n  dup2\n    /* \"@openzeppelin/contracts/access/Ownable.sol\":3052:3092  OwnershipTransferred(oldOwner, newOwner) */\n  0xffffffffffffffffffffffffffffffffffffffff\n  and\n    /* \"@openzeppelin/contracts/access/Ownable.sol\":3073:3081  oldOwner */\n  dup2\n    /* \"@openzeppelin/contracts/access/Ownable.sol\":3052:3092  OwnershipTransferred(oldOwner, newOwner) */\n  0xffffffffffffffffffffffffffffffffffffffff\n  and\n  0x8be0079c531659141344cd1fd0a4f28419497f9722a3daafe3b4186f6b6457e0\n  mload(0x40)\n  mload(0x40)\n  dup1\n  swap2\n  sub\n  swap1\n  log3\n    /* \"@openzeppelin/contracts/access/Ownable.sol\":2975:3099  {... */\n  pop\n    /* \"@openzeppelin/contracts/access/Ownable.sol\":2912:3099  function _transferOwnership(address newOwner) internal virtual {... */\n  pop\n  jump\t// out\n    /* \"#utility.yul\":88:205   */\ntag_28:\n    /* \"#utility.yul\":197:198   */\n  0x00\n    /* \"#utility.yul\":194:195   */\n  0x00\n    /* \"#utility.yul\":187:199   */\n  revert\n    /* \"#utility.yul\":334:411   */\ntag_30:\n    /* \"#utility.yul\":371:378   */\n  0x00\n    /* \"#utility.yul\":400:405   */\n  dup2\n    /* \"#utility.yul\":389:405   */\n  swap1\n  pop\n    /* \"#utility.yul\":334:411   */\n  swap2\n  swap1\n  pop\n  jump\t// out\n    /* \"#utility.yul\":417:539   */\ntag_31:\n    /* \"#utility.yul\":490:514   */\n  tag_45\n    /* \"#utility.yul\":508:513   */\n  dup2\n    /* \"#utility.yul\":490:514   */\n  tag_30\n  jump\t// in\ntag_45:\n    /* \"#utility.yul\":483:488   */\n  dup2\n    /* \"#utility.yul\":480:515   */\n  eq\n    /* \"#utility.yul\":470:533   */\n  tag_46\n  jumpi\n    /* \"#utility.yul\":529:530   */\n  0x00\n    /* \"#utility.yul\":526:527   */\n  0x00\n    /* \"#utility.yul\":519:531   */\n  revert\n    /* \"#utility.yul\":470:533   */\ntag_46:\n    /* \"#utility.yul\":417:539   */\n  pop\n  jump\t// out\n    /* \"#utility.yul\":545:688   */\ntag_32:\n    /* \"#utility.yul\":602:607   */\n  0x00\n    /* \"#utility.yul\":633:639   */\n  dup2\n    /* \"#utility.yul\":627:640   */\n  mload\n    /* \"#utility.yul\":618:640   */\n  swap1\n  pop\n    /* \"#utility.yul\":649:682   */\n  tag_48\n    /* \"#utility.yul\":676:681   */\n  dup2\n    /* \"#utility.yul\":649:682   */\n  tag_31\n  jump\t// in\ntag_48:\n    /* \"#utility.yul\":545:688   */\n  swap3\n  swap2\n  pop\n  pop\n  jump\t// out\n    /* \"#utility.yul\":694:820   */\ntag_33:\n    /* \"#utility.yul\":731:738   */\n  0x00\n    /* \"#utility.yul\":771:813   */\n  0xffffffffffffffffffffffffffffffffffffffff\n    /* \"#utility.yul\":764:769   */\n  dup3\n    /* \"#utility.yul\":760:814   */\n  and\n    /* \"#utility.yul\":749:814   */\n  swap1\n  pop\n    /* \"#utility.yul\":694:820   */\n  swap2\n  swap1\n  pop\n  jump\t// out\n    /* \"#utility.yul\":826:922   */\ntag_34:\n    /* \"#utility.yul\":863:870   */\n  0x00\n    /* \"#utility.yul\":892:916   */\n  tag_51\n    /* \"#utility.yul\":910:915   */\n  dup3\n    /* \"#utility.yul\":892:916   */\n  tag_33\n  jump\t// in\ntag_51:\n    /* \"#utility.yul\":881:916   */\n  swap1\n  pop\n    /* \"#utility.yul\":826:922   */\n  swap2\n  swap1\n  pop\n  jump\t// out\n    /* \"#utility.yul\":928:1050   */\ntag_35:\n    /* \"#utility.yul\":1001:1025   */\n  tag_53\n    /* \"#utility.yul\":1019:1024   */\n  dup2\n    /* \"#utility.yul\":1001:1025   */\n  tag_34\n  jump\t// in\ntag_53:\n    /* \"#utility.yul\":994:999   */\n  dup2\n    /* \"#utility.yul\":991:1026   */\n  eq\n    /* \"#utility.yul\":981:1044   */\n  tag_54\n  jumpi\n    /* \"#utility.yul\":1040:1041   */\n  0x00\n    /* \"#utility.yul\":1037:1038   */\n  0x00\n    /* \"#utility.yul\":1030:1042   */\n  revert\n    /* \"#utility.yul\":981:1044   */\ntag_54:\n    /* \"#utility.yul\":928:1050   */\n  pop\n  jump\t// out\n    /* \"#utility.yul\":1056:1199   */\ntag_36:\n    /* \"#utility.yul\":1113:1118   */\n  0x00\n    /* \"#utility.yul\":1144:1150   */\n  dup2\n    /* \"#utility.yul\":1138:1151   */\n  mload\n    /* \"#utility.yul\":1129:1151   */\n  swap1\n  pop\n    /* \"#utility.yul\":1160:1193   */\n  tag_56\n    /* \"#utility.yul\":1187:1192   */\n  dup2\n    /* \"#utility.yul\":1160:1193   */\n  tag_35\n  jump\t// in\ntag_56:\n    /* \"#utility.yul\":1056:1199   */\n  swap3\n  swap2\n  pop\n  pop\n  jump\t// out\n    /* \"#utility.yul\":1205:2182   */\ntag_3:\n    /* \"#utility.yul\":1311:1317   */\n  0x00\n    /* \"#utility.yul\":1319:1325   */\n  0x00\n    /* \"#utility.yul\":1327:1333   */\n  0x00\n    /* \"#utility.yul\":1335:1341   */\n  0x00\n    /* \"#utility.yul\":1343:1349   */\n  0x00\n    /* \"#utility.yul\":1392:1395   */\n  0xa0\n    /* \"#utility.yul\":1380:1389   */\n  dup7\n    /* \"#utility.yul\":1371:1378   */\n  dup9\n    /* \"#utility.yul\":1367:1390   */\n  sub\n    /* \"#utility.yul\":1363:1396   */\n  slt\n    /* \"#utility.yul\":1360:1480   */\n  iszero\n  tag_58\n  jumpi\n    /* \"#utility.yul\":1399:1478   */\n  tag_59\n  tag_28\n  jump\t// in\ntag_59:\n    /* \"#utility.yul\":1360:1480   */\ntag_58:\n    /* \"#utility.yul\":1519:1520   */\n  0x00\n    /* \"#utility.yul\":1544:1608   */\n  tag_60\n    /* \"#utility.yul\":1600:1607   */\n  dup9\n    /* \"#utility.yul\":1591:1597   */\n  dup3\n    /* \"#utility.yul\":1580:1589   */\n  dup10\n    /* \"#utility.yul\":1576:1598   */\n  add\n    /* \"#utility.yul\":1544:1608   */\n  tag_32\n  jump\t// in\ntag_60:\n    /* \"#utility.yul\":1534:1608   */\n  swap6\n  pop\n    /* \"#utility.yul\":1490:1618   */\n  pop\n    /* \"#utility.yul\":1657:1659   */\n  0x20\n    /* \"#utility.yul\":1683:1747   */\n  tag_61\n    /* \"#utility.yul\":1739:1746   */\n  dup9\n    /* \"#utility.yul\":1730:1736   */\n  dup3\n    /* \"#utility.yul\":1719:1728   */\n  dup10\n    /* \"#utility.yul\":1715:1737   */\n  add\n    /* \"#utility.yul\":1683:1747   */\n  tag_32\n  jump\t// in\ntag_61:\n    /* \"#utility.yul\":1673:1747   */\n  swap5\n  pop\n    /* \"#utility.yul\":1628:1757   */\n  pop\n    /* \"#utility.yul\":1796:1798   */\n  0x40\n    /* \"#utility.yul\":1822:1886   */\n  tag_62\n    /* \"#utility.yul\":1878:1885   */\n  dup9\n    /* \"#utility.yul\":1869:1875   */\n  dup3\n    /* \"#utility.yul\":1858:1867   */\n  dup10\n    /* \"#utility.yul\":1854:1876   */\n  add\n    /* \"#utility.yul\":1822:1886   */\n  tag_36\n  jump\t// in\ntag_62:\n    /* \"#utility.yul\":1812:1886   */\n  swap4\n  pop\n    /* \"#utility.yul\":1767:1896   */\n  pop\n    /* \"#utility.yul\":1935:1937   */\n  0x60\n    /* \"#utility.yul\":1961:2025   */\n  tag_63\n    /* \"#utility.yul\":2017:2024   */\n  dup9\n    /* \"#utility.yul\":2008:2014   */\n  dup3\n    /* \"#utility.yul\":1997:2006   */\n  dup10\n    /* \"#utility.yul\":1993:2015   */\n  add\n    /* \"#utility.yul\":1961:2025   */\n  tag_36\n  jump\t// in\ntag_63:\n    /* \"#utility.yul\":1951:2025   */\n  swap3\n  pop\n    /* \"#utility.yul\":1906:2035   */\n  pop\n    /* \"#utility.yul\":2074:2077   */\n  0x80\n    /* \"#utility.yul\":2101:2165   */\n  tag_64\n    /* \"#utility.yul\":2157:2164   */\n  dup9\n    /* \"#utility.yul\":2148:2154   */\n  dup3\n    /* \"#utility.yul\":2137:2146   */\n  dup10\n    /* \"#utility.yul\":2133:2155   */\n  add\n    /* \"#utility.yul\":2101:2165   */\n  tag_36\n  jump\t// in\ntag_64:\n    /* \"#utility.yul\":2091:2165   */\n  swap2\n  pop\n    /* \"#utility.yul\":2045:2175   */\n  pop\n    /* \"#utility.yul\":1205:2182   */\n  swap3\n  swap6\n  pop\n  swap3\n  swap6\n  swap1\n  swap4\n  pop\n  jump\t// out\n    /* \"#utility.yul\":2188:2306   */\ntag_37:\n    /* \"#utility.yul\":2275:2299   */\n  tag_66\n    /* \"#utility.yul\":2293:2298   */\n  dup2\n    /* \"#utility.yul\":2275:2299   */\n  tag_34\n  jump\t// in\ntag_66:\n    /* \"#utility.yul\":2270:2273   */\n  dup3\n    /* \"#utility.yul\":2263:2300   */\n  mstore\n    /* \"#utility.yul\":2188:2306   */\n  pop\n  pop\n  jump\t// out\n    /* \"#utility.yul\":2312:2534   */\ntag_11:\n    /* \"#utility.yul\":2405:2409   */\n  0x00\n    /* \"#utility.yul\":2443:2445   */\n  0x20\n    /* \"#utility.yul\":2432:2441   */\n  dup3\n    /* \"#utility.yul\":2428:2446   */\n  add\n    /* \"#utility.yul\":2420:2446   */\n  swap1\n  pop\n    /* \"#utility.yul\":2456:2527   */\n  tag_68\n    /* \"#utility.yul\":2524:2525   */\n  0x00\n    /* \"#utility.yul\":2513:2522   */\n  dup4\n    /* \"#utility.yul\":2509:2526   */\n  add\n    /* \"#utility.yul\":2500:2506   */\n  dup5\n    /* \"#utility.yul\":2456:2527   */\n  tag_37\n  jump\t// in\ntag_68:\n    /* \"#utility.yul\":2312:2534   */\n  swap3\n  swap2\n  pop\n  pop\n  jump\t// out\n    /* \"#utility.yul\":2540:2658   */\ntag_38:\n    /* \"#utility.yul\":2627:2651   */\n  tag_70\n    /* \"#utility.yul\":2645:2650   */\n  dup2\n    /* \"#utility.yul\":2627:2651   */\n  tag_30\n  jump\t// in\ntag_70:\n    /* \"#utility.yul\":2622:2625   */\n  dup3\n    /* \"#utility.yul\":2615:2652   */\n  mstore\n    /* \"#utility.yul\":2540:2658   */\n  pop\n  pop\n  jump\t// out\n    /* \"#utility.yul\":2664:2886   */\ntag_17:\n    /* \"#utility.yul\":2757:2761   */\n  0x00\n    /* \"#utility.yul\":2795:2797   */\n  0x20\n    /* \"#utility.yul\":2784:2793   */\n  dup3\n    /* \"#utility.yul\":2780:2798   */\n  add\n    /* \"#utility.yul\":2772:2798   */\n  swap1\n  pop\n    /* \"#utility.yul\":2808:2879   */\n  tag_72\n    /* \"#utility.yul\":2876:2877   */\n  0x00\n    /* \"#utility.yul\":2865:2874   */\n  dup4\n    /* \"#utility.yul\":2861:2878   */\n  add\n    /* \"#utility.yul\":2852:2858   */\n  dup5\n    /* \"#utility.yul\":2808:2879   */\n  tag_38\n  jump\t// in\ntag_72:\n    /* \"#utility.yul\":2664:2886   */\n  swap3\n  swap2\n  pop\n  pop\n  jump\t// out\n    /* \"#utility.yul\":2892:3224   */\ntag_22:\n    /* \"#utility.yul\":3013:3017   */\n  0x00\n    /* \"#utility.yul\":3051:3053   */\n  0x40\n    /* \"#utility.yul\":3040:3049   */\n  dup3\n    /* \"#utility.yul\":3036:3054   */\n  add\n    /* \"#utility.yul\":3028:3054   */\n  swap1\n  pop\n    /* \"#utility.yul\":3064:3135   */\n  tag_74\n    /* \"#utility.yul\":3132:3133   */\n  0x00\n    /* \"#utility.yul\":3121:3130   */\n  dup4\n    /* \"#utility.yul\":3117:3134   */\n  add\n    /* \"#utility.yul\":3108:3114   */\n  dup6\n    /* \"#utility.yul\":3064:3135   */\n  tag_38\n  jump\t// in\ntag_74:\n    /* \"#utility.yul\":3145:3217   */\n  tag_75\n    /* \"#utility.yul\":3213:3215   */\n  0x20\n    /* \"#utility.yul\":3202:3211   */\n  dup4\n    /* \"#utility.yul\":3198:3216   */\n  add\n    /* \"#utility.yul\":3189:3195   */\n  dup5\n    /* \"#utility.yul\":3145:3217   */\n  tag_38\n  jump\t// in\ntag_75:\n    /* \"#utility.yul\":2892:3224   */\n  swap4\n  swap3\n  pop\n  pop\n  pop\n  jump\t// out\n    /* \"contracts/KipuBank.sol\":736:14092  contract KipuBank is ReentrancyGuard, Ownable {... */\ntag_25:\n  mload(0x80)\n  mload(0xa0)\n  mload(0xc0)\n  codecopy(0x00, dataOffset(sub_0), dataSize(sub_0))\n  0x00\n  assignImmutable(\"0x7ca83d787e7423cefe91ee9c5de8a7604dac0860c07a3450ac6805c567c8da30\")\n  0x00\n  assignImmutable(\"0x9d8f226131630182c1f71b55fb0ef15c91b8f92e68cddc71ebac73ec7e8b50bb\")\n  0x00\n  assignImmutable(\"0x705a6ef83029e2c8cd72d6aefd2a2bbc4a5113a33398eeb61dd1988b11595ae5\")\n  return(0x00, dataSize(sub_0))\nstop\n\nsub_0: assembly {\n        /* \"contracts/KipuBank.sol\":736:14092  contract KipuBank is ReentrancyGuard, Ownable {... */\n      mstore(0x40, 0x80)\n      jumpi(tag_1, lt(calldatasize, 0x04))\n      shr(0xe0, calldataload(0x00))\n      dup1\n      0x8648840a\n      gt\n      tag_18\n      jumpi\n      dup1\n      0x939495bd\n      gt\n      tag_19\n      jumpi\n      dup1\n      0x939495bd\n      eq\n      tag_14\n      jumpi\n      dup1\n      0xc6aca33c\n      eq\n      tag_15\n      jumpi\n      dup1\n      0xf2fde38b\n      eq\n      tag_16\n      jumpi\n      dup1\n      0xf39b1809\n      eq\n      tag_17\n      jumpi\n      jump(tag_2)\n    tag_19:\n      dup1\n      0x8648840a\n      eq\n      tag_10\n      jumpi\n      dup1\n      0x8da5cb5b\n      eq\n      tag_11\n      jumpi\n      dup1\n      0x931fb90e\n      eq\n      tag_12\n      jumpi\n      dup1\n      0x93295c1c\n      eq\n      tag_13\n      jumpi\n      jump(tag_2)\n    tag_18:\n      dup1\n      0x715018a6\n      gt\n      tag_20\n      jumpi\n      dup1\n      0x715018a6\n      eq\n      tag_6\n      jumpi\n      dup1\n      0x779bb136\n      eq\n      tag_7\n      jumpi\n      dup1\n      0x79a82334\n      eq\n      tag_8\n      jumpi\n      dup1\n      0x82fe54b5\n      eq\n      tag_9\n      jumpi\n      jump(tag_2)\n    tag_20:\n      dup1\n      0x16a1930f\n      eq\n      tag_3\n      jumpi\n      dup1\n      0x6900670c\n      eq\n      tag_4\n      jumpi\n      dup1\n      0x698b7241\n      eq\n      tag_5\n      jumpi\n      jump(tag_2)\n    tag_1:\n      jumpi(tag_2, calldatasize)\n        /* \"contracts/KipuBank.sol\":6041:6051  msg.sender */\n      caller\n        /* \"contracts/KipuBank.sol\":6011:6052  KipuBank_OperacionNoPermitida(msg.sender) */\n      mload(0x40)\n      0xe1d158ff00000000000000000000000000000000000000000000000000000000\n      dup2\n      mstore\n      0x04\n      add\n      tag_23\n      swap2\n      swap1\n      tag_24\n      jump\t// in\n    tag_23:\n      mload(0x40)\n      dup1\n      swap2\n      sub\n      swap1\n      revert\n        /* \"contracts/KipuBank.sol\":736:14092  contract KipuBank is ReentrancyGuard, Ownable {... */\n    tag_2:\n        /* \"contracts/KipuBank.sol\":6246:6256  msg.sender */\n      caller\n        /* \"contracts/KipuBank.sol\":6216:6257  KipuBank_OperacionNoPermitida(msg.sender) */\n      mload(0x40)\n      0xe1d158ff00000000000000000000000000000000000000000000000000000000\n      dup2\n      mstore\n      0x04\n      add\n      tag_27\n      swap2\n      swap1\n      tag_24\n      jump\t// in\n    tag_27:\n      mload(0x40)\n      dup1\n      swap2\n      sub\n      swap1\n      revert\n        /* \"contracts/KipuBank.sol\":10798:11164  function depositarETH() external payable verificarDepositoETH(msg.value) {... */\n    tag_3:\n      tag_28\n      tag_29\n      jump\t// in\n    tag_28:\n      stop\n        /* \"contracts/KipuBank.sol\":12494:12596  function verBoveda() external view returns (uint monto_) {... */\n    tag_4:\n      callvalue\n      dup1\n      iszero\n      tag_30\n      jumpi\n      revert(0x00, 0x00)\n    tag_30:\n      pop\n      tag_31\n      tag_32\n      jump\t// in\n    tag_31:\n      mload(0x40)\n      tag_33\n      swap2\n      swap1\n      tag_34\n      jump\t// in\n    tag_33:\n      mload(0x40)\n      dup1\n      swap2\n      sub\n      swap1\n      return\n        /* \"contracts/KipuBank.sol\":11456:11829  function depositarUSDC(uint _monto) external verificarDepositoUSDC(_monto) {... */\n    tag_5:\n      callvalue\n      dup1\n      iszero\n      tag_35\n      jumpi\n      revert(0x00, 0x00)\n    tag_35:\n      pop\n      tag_36\n      0x04\n      dup1\n      calldatasize\n      sub\n      dup2\n      add\n      swap1\n      tag_37\n      swap2\n      swap1\n      tag_38\n      jump\t// in\n    tag_37:\n      tag_39\n      jump\t// in\n    tag_36:\n      stop\n        /* \"@openzeppelin/contracts/access/Ownable.sol\":2293:2394  function renounceOwnership() public virtual onlyOwner {... */\n    tag_6:\n      callvalue\n      dup1\n      iszero\n      tag_40\n      jumpi\n      revert(0x00, 0x00)\n    tag_40:\n      pop\n      tag_41\n      tag_42\n      jump\t// in\n    tag_41:\n      stop\n        /* \"contracts/KipuBank.sol\":12958:13085  function verSaldoETH() external view returns (uint saldo_) {... */\n    tag_7:\n      callvalue\n      dup1\n      iszero\n      tag_43\n      jumpi\n      revert(0x00, 0x00)\n    tag_43:\n      pop\n      tag_44\n      tag_45\n      jump\t// in\n    tag_44:\n      mload(0x40)\n      tag_46\n      swap2\n      swap1\n      tag_34\n      jump\t// in\n    tag_46:\n      mload(0x40)\n      dup1\n      swap2\n      sub\n      swap1\n      return\n        /* \"contracts/KipuBank.sol\":1091:1126  AggregatorV3Interface public i_feed */\n    tag_8:\n      callvalue\n      dup1\n      iszero\n      tag_47\n      jumpi\n      revert(0x00, 0x00)\n    tag_47:\n      pop\n      tag_48\n      tag_49\n      jump\t// in\n    tag_48:\n      mload(0x40)\n      tag_50\n      swap2\n      swap1\n      tag_51\n      jump\t// in\n    tag_50:\n      mload(0x40)\n      dup1\n      swap2\n      sub\n      swap1\n      return\n        /* \"contracts/KipuBank.sol\":10362:10447  function retirarETH(uint _monto) external  {... */\n    tag_9:\n      callvalue\n      dup1\n      iszero\n      tag_52\n      jumpi\n      revert(0x00, 0x00)\n    tag_52:\n      pop\n      tag_53\n      0x04\n      dup1\n      calldatasize\n      sub\n      dup2\n      add\n      swap1\n      tag_54\n      swap2\n      swap1\n      tag_38\n      jump\t// in\n    tag_54:\n      tag_55\n      jump\t// in\n    tag_53:\n      stop\n        /* \"contracts/KipuBank.sol\":13977:14089  function transferirOwner(address _nuevoOwner) external onlyOwner {... */\n    tag_10:\n      callvalue\n      dup1\n      iszero\n      tag_56\n      jumpi\n      revert(0x00, 0x00)\n    tag_56:\n      pop\n      tag_57\n      0x04\n      dup1\n      calldatasize\n      sub\n      dup2\n      add\n      swap1\n      tag_58\n      swap2\n      swap1\n      tag_59\n      jump\t// in\n    tag_58:\n      tag_60\n      jump\t// in\n    tag_57:\n      stop\n        /* \"@openzeppelin/contracts/access/Ownable.sol\":1638:1723  function owner() public view virtual returns (address) {... */\n    tag_11:\n      callvalue\n      dup1\n      iszero\n      tag_61\n      jumpi\n      revert(0x00, 0x00)\n    tag_61:\n      pop\n      tag_62\n      tag_63\n      jump\t// in\n    tag_62:\n      mload(0x40)\n      tag_64\n      swap2\n      swap1\n      tag_24\n      jump\t// in\n    tag_64:\n      mload(0x40)\n      dup1\n      swap2\n      sub\n      swap1\n      return\n        /* \"contracts/KipuBank.sol\":10583:10669  function retirarUSDC(uint _monto) external {... */\n    tag_12:\n      callvalue\n      dup1\n      iszero\n      tag_65\n      jumpi\n      revert(0x00, 0x00)\n    tag_65:\n      pop\n      tag_66\n      0x04\n      dup1\n      calldatasize\n      sub\n      dup2\n      add\n      swap1\n      tag_67\n      swap2\n      swap1\n      tag_38\n      jump\t// in\n    tag_67:\n      tag_68\n      jump\t// in\n    tag_66:\n      stop\n        /* \"contracts/KipuBank.sol\":13659:13754  function verTotalContrato() external view returns (uint) {... */\n    tag_13:\n      callvalue\n      dup1\n      iszero\n      tag_69\n      jumpi\n      revert(0x00, 0x00)\n    tag_69:\n      pop\n      tag_70\n      tag_71\n      jump\t// in\n    tag_70:\n      mload(0x40)\n      tag_72\n      swap2\n      swap1\n      tag_34\n      jump\t// in\n    tag_72:\n      mload(0x40)\n      dup1\n      swap2\n      sub\n      swap1\n      return\n        /* \"contracts/KipuBank.sol\":12713:12846  function verSaldoUSDC() external view returns (uint saldo_) {... */\n    tag_14:\n      callvalue\n      dup1\n      iszero\n      tag_73\n      jumpi\n      revert(0x00, 0x00)\n    tag_73:\n      pop\n      tag_74\n      tag_75\n      jump\t// in\n    tag_74:\n      mload(0x40)\n      tag_76\n      swap2\n      swap1\n      tag_34\n      jump\t// in\n    tag_76:\n      mload(0x40)\n      dup1\n      swap2\n      sub\n      swap1\n      return\n        /* \"contracts/KipuBank.sol\":13443:13531  function verTotalRetiros() external view returns (uint) {... */\n    tag_15:\n      callvalue\n      dup1\n      iszero\n      tag_77\n      jumpi\n      revert(0x00, 0x00)\n    tag_77:\n      pop\n      tag_78\n      tag_79\n      jump\t// in\n    tag_78:\n      mload(0x40)\n      tag_80\n      swap2\n      swap1\n      tag_34\n      jump\t// in\n    tag_80:\n      mload(0x40)\n      dup1\n      swap2\n      sub\n      swap1\n      return\n        /* \"@openzeppelin/contracts/access/Ownable.sol\":2543:2758  function transferOwnership(address newOwner) public virtual onlyOwner {... */\n    tag_16:\n      callvalue\n      dup1\n      iszero\n      tag_81\n      jumpi\n      revert(0x00, 0x00)\n    tag_81:\n      pop\n      tag_82\n      0x04\n      dup1\n      calldatasize\n      sub\n      dup2\n      add\n      swap1\n      tag_83\n      swap2\n      swap1\n      tag_59\n      jump\t// in\n    tag_83:\n      tag_84\n      jump\t// in\n    tag_82:\n      stop\n        /* \"contracts/KipuBank.sol\":13220:13312  function verTotalDepositos() external view returns (uint) {... */\n    tag_17:\n      callvalue\n      dup1\n      iszero\n      tag_85\n      jumpi\n      revert(0x00, 0x00)\n    tag_85:\n      pop\n      tag_86\n      tag_87\n      jump\t// in\n    tag_86:\n      mload(0x40)\n      tag_88\n      swap2\n      swap1\n      tag_34\n      jump\t// in\n    tag_88:\n      mload(0x40)\n      dup1\n      swap2\n      sub\n      swap1\n      return\n        /* \"contracts/KipuBank.sol\":10798:11164  function depositarETH() external payable verificarDepositoETH(msg.value) {... */\n    tag_29:\n        /* \"contracts/KipuBank.sol\":10860:10869  msg.value */\n      callvalue\n        /* \"contracts/KipuBank.sol\":6991:7005  uint montoUSDC */\n      0x00\n        /* \"contracts/KipuBank.sol\":7008:7034  convertirEthEnUSDC(_monto) */\n      tag_90\n        /* \"contracts/KipuBank.sol\":7027:7033  _monto */\n      dup3\n        /* \"contracts/KipuBank.sol\":7008:7026  convertirEthEnUSDC */\n      tag_91\n        /* \"contracts/KipuBank.sol\":7008:7034  convertirEthEnUSDC(_monto) */\n      jump\t// in\n    tag_90:\n        /* \"contracts/KipuBank.sol\":6991:7034  uint montoUSDC = convertirEthEnUSDC(_monto) */\n      swap1\n      pop\n        /* \"contracts/KipuBank.sol\":7060:7061  0 */\n      0x00\n        /* \"contracts/KipuBank.sol\":7047:7056  montoUSDC */\n      dup2\n        /* \"contracts/KipuBank.sol\":7047:7061  montoUSDC == 0 */\n      sub\n        /* \"contracts/KipuBank.sol\":7044:7100  if(montoUSDC == 0) revert KipuBank_MontoCero(msg.sender) */\n      tag_92\n      jumpi\n        /* \"contracts/KipuBank.sol\":7089:7099  msg.sender */\n      caller\n        /* \"contracts/KipuBank.sol\":7070:7100  KipuBank_MontoCero(msg.sender) */\n      mload(0x40)\n      0xb2f0923100000000000000000000000000000000000000000000000000000000\n      dup2\n      mstore\n      0x04\n      add\n      tag_93\n      swap2\n      swap1\n      tag_24\n      jump\t// in\n    tag_93:\n      mload(0x40)\n      dup1\n      swap2\n      sub\n      swap1\n      revert\n        /* \"contracts/KipuBank.sol\":7044:7100  if(montoUSDC == 0) revert KipuBank_MontoCero(msg.sender) */\n    tag_92:\n        /* \"contracts/KipuBank.sol\":7143:7152  i_bankCap */\n      immutable(\"0x7ca83d787e7423cefe91ee9c5de8a7604dac0860c07a3450ac6805c567c8da30\")\n        /* \"contracts/KipuBank.sol\":7126:7140  _totalContrato */\n      sload(0x05)\n        /* \"contracts/KipuBank.sol\":7114:7123  montoUSDC */\n      dup3\n        /* \"contracts/KipuBank.sol\":7114:7140  montoUSDC + _totalContrato */\n      tag_94\n      swap2\n      swap1\n      tag_95\n      jump\t// in\n    tag_94:\n        /* \"contracts/KipuBank.sol\":7114:7152  montoUSDC + _totalContrato > i_bankCap */\n      gt\n        /* \"contracts/KipuBank.sol\":7110:7195  if (montoUSDC + _totalContrato > i_bankCap) revert KipuBank_LimiteExcedido(montoUSDC) */\n      iszero\n      tag_96\n      jumpi\n        /* \"contracts/KipuBank.sol\":7185:7194  montoUSDC */\n      dup1\n        /* \"contracts/KipuBank.sol\":7161:7195  KipuBank_LimiteExcedido(montoUSDC) */\n      mload(0x40)\n      0x2900b02c00000000000000000000000000000000000000000000000000000000\n      dup2\n      mstore\n      0x04\n      add\n      tag_97\n      swap2\n      swap1\n      tag_34\n      jump\t// in\n    tag_97:\n      mload(0x40)\n      dup1\n      swap2\n      sub\n      swap1\n      revert\n        /* \"contracts/KipuBank.sol\":7110:7195  if (montoUSDC + _totalContrato > i_bankCap) revert KipuBank_LimiteExcedido(montoUSDC) */\n    tag_96:\n        /* \"contracts/KipuBank.sol\":10881:10895  uint montoUSDC */\n      0x00\n        /* \"contracts/KipuBank.sol\":10898:10927  convertirEthEnUSDC(msg.value) */\n      tag_99\n        /* \"contracts/KipuBank.sol\":10917:10926  msg.value */\n      callvalue\n        /* \"contracts/KipuBank.sol\":10898:10916  convertirEthEnUSDC */\n      tag_91\n        /* \"contracts/KipuBank.sol\":10898:10927  convertirEthEnUSDC(msg.value) */\n      jump\t// in\n    tag_99:\n        /* \"contracts/KipuBank.sol\":10881:10927  uint montoUSDC = convertirEthEnUSDC(msg.value) */\n      swap1\n      pop\n        /* \"contracts/KipuBank.sol\":10983:10992  msg.value */\n      callvalue\n        /* \"contracts/KipuBank.sol\":10937:10955  _cuentasMultiToken */\n      0x06\n        /* \"contracts/KipuBank.sol\":10937:10967  _cuentasMultiToken[address(0)] */\n      0x00\n        /* \"contracts/KipuBank.sol\":10964:10965  0 */\n      0x00\n        /* \"contracts/KipuBank.sol\":10937:10967  _cuentasMultiToken[address(0)] */\n      0xffffffffffffffffffffffffffffffffffffffff\n      and\n      0xffffffffffffffffffffffffffffffffffffffff\n      and\n      dup2\n      mstore\n      0x20\n      add\n      swap1\n      dup2\n      mstore\n      0x20\n      add\n      0x00\n      keccak256\n        /* \"contracts/KipuBank.sol\":10937:10979  _cuentasMultiToken[address(0)][msg.sender] */\n      0x00\n        /* \"contracts/KipuBank.sol\":10968:10978  msg.sender */\n      caller\n        /* \"contracts/KipuBank.sol\":10937:10979  _cuentasMultiToken[address(0)][msg.sender] */\n      0xffffffffffffffffffffffffffffffffffffffff\n      and\n      0xffffffffffffffffffffffffffffffffffffffff\n      and\n      dup2\n      mstore\n      0x20\n      add\n      swap1\n      dup2\n      mstore\n      0x20\n      add\n      0x00\n      keccak256\n      0x00\n        /* \"contracts/KipuBank.sol\":10937:10992  _cuentasMultiToken[address(0)][msg.sender] += msg.value */\n      dup3\n      dup3\n      sload\n      tag_100\n      swap2\n      swap1\n      tag_95\n      jump\t// in\n    tag_100:\n      swap3\n      pop\n      pop\n      dup2\n      swap1\n      sstore\n      pop\n        /* \"contracts/KipuBank.sol\":11025:11034  montoUSDC */\n      dup1\n        /* \"contracts/KipuBank.sol\":11002:11009  _boveda */\n      0x07\n        /* \"contracts/KipuBank.sol\":11002:11021  _boveda[msg.sender] */\n      0x00\n        /* \"contracts/KipuBank.sol\":11010:11020  msg.sender */\n      caller\n        /* \"contracts/KipuBank.sol\":11002:11021  _boveda[msg.sender] */\n      0xffffffffffffffffffffffffffffffffffffffff\n      and\n      0xffffffffffffffffffffffffffffffffffffffff\n      and\n      dup2\n      mstore\n      0x20\n      add\n      swap1\n      dup2\n      mstore\n      0x20\n      add\n      0x00\n      keccak256\n      0x00\n        /* \"contracts/KipuBank.sol\":11002:11034  _boveda[msg.sender] += montoUSDC */\n      dup3\n      dup3\n      sload\n      tag_101\n      swap2\n      swap1\n      tag_95\n      jump\t// in\n    tag_101:\n      swap3\n      pop\n      pop\n      dup2\n      swap1\n      sstore\n      pop\n        /* \"contracts/KipuBank.sol\":11044:11054  _depositos */\n      0x03\n      0x00\n        /* \"contracts/KipuBank.sol\":11044:11056  _depositos++ */\n      dup2\n      sload\n      dup1\n      swap3\n      swap2\n      swap1\n      tag_102\n      swap1\n      tag_103\n      jump\t// in\n    tag_102:\n      swap2\n      swap1\n      pop\n      sstore\n      pop\n        /* \"contracts/KipuBank.sol\":11084:11093  montoUSDC */\n      dup1\n        /* \"contracts/KipuBank.sol\":11066:11080  _totalContrato */\n      0x05\n      0x00\n        /* \"contracts/KipuBank.sol\":11066:11093  _totalContrato += montoUSDC */\n      dup3\n      dup3\n      sload\n      tag_104\n      swap2\n      swap1\n      tag_95\n      jump\t// in\n    tag_104:\n      swap3\n      pop\n      pop\n      dup2\n      swap1\n      sstore\n      pop\n        /* \"contracts/KipuBank.sol\":11108:11157  KipuBank_DepositoRealizado(msg.sender, montoUSDC) */\n      0x9d15693852bf60dc27bd5aa831d0351359b7d01d428ae1baae11f15cbcfebafd\n        /* \"contracts/KipuBank.sol\":11135:11145  msg.sender */\n      caller\n        /* \"contracts/KipuBank.sol\":11147:11156  montoUSDC */\n      dup3\n        /* \"contracts/KipuBank.sol\":11108:11157  KipuBank_DepositoRealizado(msg.sender, montoUSDC) */\n      mload(0x40)\n      tag_105\n      swap3\n      swap2\n      swap1\n      tag_106\n      jump\t// in\n    tag_105:\n      mload(0x40)\n      dup1\n      swap2\n      sub\n      swap1\n      log1\n        /* \"contracts/KipuBank.sol\":10871:11164  {... */\n      pop\n        /* \"contracts/KipuBank.sol\":6981:7213  {... */\n      pop\n        /* \"contracts/KipuBank.sol\":10798:11164  function depositarETH() external payable verificarDepositoETH(msg.value) {... */\n      pop\n      jump\t// out\n        /* \"contracts/KipuBank.sol\":12494:12596  function verBoveda() external view returns (uint monto_) {... */\n    tag_32:\n        /* \"contracts/KipuBank.sol\":12538:12549  uint monto_ */\n      0x00\n        /* \"contracts/KipuBank.sol\":12570:12577  _boveda */\n      0x07\n        /* \"contracts/KipuBank.sol\":12570:12589  _boveda[msg.sender] */\n      0x00\n        /* \"contracts/KipuBank.sol\":12578:12588  msg.sender */\n      caller\n        /* \"contracts/KipuBank.sol\":12570:12589  _boveda[msg.sender] */\n      0xffffffffffffffffffffffffffffffffffffffff\n      and\n      0xffffffffffffffffffffffffffffffffffffffff\n      and\n      dup2\n      mstore\n      0x20\n      add\n      swap1\n      dup2\n      mstore\n      0x20\n      add\n      0x00\n      keccak256\n      sload\n        /* \"contracts/KipuBank.sol\":12561:12589  monto_ = _boveda[msg.sender] */\n      swap1\n      pop\n        /* \"contracts/KipuBank.sol\":12494:12596  function verBoveda() external view returns (uint monto_) {... */\n      swap1\n      jump\t// out\n        /* \"contracts/KipuBank.sol\":11456:11829  function depositarUSDC(uint _monto) external verificarDepositoUSDC(_monto) {... */\n    tag_39:\n        /* \"contracts/KipuBank.sol\":11523:11529  _monto */\n      dup1\n        /* \"contracts/KipuBank.sol\":7389:7390  0 */\n      0x00\n        /* \"contracts/KipuBank.sol\":7379:7385  _monto */\n      dup2\n        /* \"contracts/KipuBank.sol\":7379:7390  _monto == 0 */\n      sub\n        /* \"contracts/KipuBank.sol\":7376:7429  if(_monto == 0) revert KipuBank_MontoCero(msg.sender) */\n      tag_109\n      jumpi\n        /* \"contracts/KipuBank.sol\":7418:7428  msg.sender */\n      caller\n        /* \"contracts/KipuBank.sol\":7399:7429  KipuBank_MontoCero(msg.sender) */\n      mload(0x40)\n      0xb2f0923100000000000000000000000000000000000000000000000000000000\n      dup2\n      mstore\n      0x04\n      add\n      tag_110\n      swap2\n      swap1\n      tag_24\n      jump\t// in\n    tag_110:\n      mload(0x40)\n      dup1\n      swap2\n      sub\n      swap1\n      revert\n        /* \"contracts/KipuBank.sol\":7376:7429  if(_monto == 0) revert KipuBank_MontoCero(msg.sender) */\n    tag_109:\n        /* \"contracts/KipuBank.sol\":7469:7478  i_bankCap */\n      immutable(\"0x7ca83d787e7423cefe91ee9c5de8a7604dac0860c07a3450ac6805c567c8da30\")\n        /* \"contracts/KipuBank.sol\":7452:7466  _totalContrato */\n      sload(0x05)\n        /* \"contracts/KipuBank.sol\":7443:7449  _monto */\n      dup3\n        /* \"contracts/KipuBank.sol\":7443:7466  _monto + _totalContrato */\n      tag_111\n      swap2\n      swap1\n      tag_95\n      jump\t// in\n    tag_111:\n        /* \"contracts/KipuBank.sol\":7443:7478  _monto + _totalContrato > i_bankCap */\n      gt\n        /* \"contracts/KipuBank.sol\":7439:7518  if (_monto + _totalContrato > i_bankCap) revert KipuBank_LimiteExcedido(_monto) */\n      iszero\n      tag_112\n      jumpi\n        /* \"contracts/KipuBank.sol\":7511:7517  _monto */\n      dup1\n        /* \"contracts/KipuBank.sol\":7487:7518  KipuBank_LimiteExcedido(_monto) */\n      mload(0x40)\n      0x2900b02c00000000000000000000000000000000000000000000000000000000\n      dup2\n      mstore\n      0x04\n      add\n      tag_113\n      swap2\n      swap1\n      tag_34\n      jump\t// in\n    tag_113:\n      mload(0x40)\n      dup1\n      swap2\n      sub\n      swap1\n      revert\n        /* \"contracts/KipuBank.sol\":7439:7518  if (_monto + _totalContrato > i_bankCap) revert KipuBank_LimiteExcedido(_monto) */\n    tag_112:\n        /* \"contracts/KipuBank.sol\":11592:11598  _monto */\n      dup2\n        /* \"contracts/KipuBank.sol\":11541:11559  _cuentasMultiToken */\n      0x06\n        /* \"contracts/KipuBank.sol\":11541:11576  _cuentasMultiToken[address(i_usdc)] */\n      0x00\n        /* \"contracts/KipuBank.sol\":11568:11574  i_usdc */\n      immutable(\"0x705a6ef83029e2c8cd72d6aefd2a2bbc4a5113a33398eeb61dd1988b11595ae5\")\n        /* \"contracts/KipuBank.sol\":11541:11576  _cuentasMultiToken[address(i_usdc)] */\n      0xffffffffffffffffffffffffffffffffffffffff\n      and\n      0xffffffffffffffffffffffffffffffffffffffff\n      and\n      dup2\n      mstore\n      0x20\n      add\n      swap1\n      dup2\n      mstore\n      0x20\n      add\n      0x00\n      keccak256\n        /* \"contracts/KipuBank.sol\":11541:11588  _cuentasMultiToken[address(i_usdc)][msg.sender] */\n      0x00\n        /* \"contracts/KipuBank.sol\":11577:11587  msg.sender */\n      caller\n        /* \"contracts/KipuBank.sol\":11541:11588  _cuentasMultiToken[address(i_usdc)][msg.sender] */\n      0xffffffffffffffffffffffffffffffffffffffff\n      and\n      0xffffffffffffffffffffffffffffffffffffffff\n      and\n      dup2\n      mstore\n      0x20\n      add\n      swap1\n      dup2\n      mstore\n      0x20\n      add\n      0x00\n      keccak256\n      0x00\n        /* \"contracts/KipuBank.sol\":11541:11598  _cuentasMultiToken[address(i_usdc)][msg.sender] += _monto */\n      dup3\n      dup3\n      sload\n      tag_115\n      swap2\n      swap1\n      tag_95\n      jump\t// in\n    tag_115:\n      swap3\n      pop\n      pop\n      dup2\n      swap1\n      sstore\n      pop\n        /* \"contracts/KipuBank.sol\":11631:11637  _monto */\n      dup2\n        /* \"contracts/KipuBank.sol\":11608:11615  _boveda */\n      0x07\n        /* \"contracts/KipuBank.sol\":11608:11627  _boveda[msg.sender] */\n      0x00\n        /* \"contracts/KipuBank.sol\":11616:11626  msg.sender */\n      caller\n        /* \"contracts/KipuBank.sol\":11608:11627  _boveda[msg.sender] */\n      0xffffffffffffffffffffffffffffffffffffffff\n      and\n      0xffffffffffffffffffffffffffffffffffffffff\n      and\n      dup2\n      mstore\n      0x20\n      add\n      swap1\n      dup2\n      mstore\n      0x20\n      add\n      0x00\n      keccak256\n      0x00\n        /* \"contracts/KipuBank.sol\":11608:11637  _boveda[msg.sender] += _monto */\n      dup3\n      dup3\n      sload\n      tag_116\n      swap2\n      swap1\n      tag_95\n      jump\t// in\n    tag_116:\n      swap3\n      pop\n      pop\n      dup2\n      swap1\n      sstore\n      pop\n        /* \"contracts/KipuBank.sol\":11647:11657  _depositos */\n      0x03\n      0x00\n        /* \"contracts/KipuBank.sol\":11647:11659  _depositos++ */\n      dup2\n      sload\n      dup1\n      swap3\n      swap2\n      swap1\n      tag_117\n      swap1\n      tag_103\n      jump\t// in\n    tag_117:\n      swap2\n      swap1\n      pop\n      sstore\n      pop\n        /* \"contracts/KipuBank.sol\":11687:11693  _monto */\n      dup2\n        /* \"contracts/KipuBank.sol\":11669:11683  _totalContrato */\n      0x05\n      0x00\n        /* \"contracts/KipuBank.sol\":11669:11693  _totalContrato += _monto */\n      dup3\n      dup3\n      sload\n      tag_118\n      swap2\n      swap1\n      tag_95\n      jump\t// in\n    tag_118:\n      swap3\n      pop\n      pop\n      dup2\n      swap1\n      sstore\n      pop\n        /* \"contracts/KipuBank.sol\":11708:11754  KipuBank_DepositoRealizado(msg.sender, _monto) */\n      0x9d15693852bf60dc27bd5aa831d0351359b7d01d428ae1baae11f15cbcfebafd\n        /* \"contracts/KipuBank.sol\":11735:11745  msg.sender */\n      caller\n        /* \"contracts/KipuBank.sol\":11747:11753  _monto */\n      dup4\n        /* \"contracts/KipuBank.sol\":11708:11754  KipuBank_DepositoRealizado(msg.sender, _monto) */\n      mload(0x40)\n      tag_119\n      swap3\n      swap2\n      swap1\n      tag_106\n      jump\t// in\n    tag_119:\n      mload(0x40)\n      dup1\n      swap2\n      sub\n      swap1\n      log1\n        /* \"contracts/KipuBank.sol\":11764:11822  i_usdc.safeTransferFrom(msg.sender, address(this), _monto) */\n      tag_120\n        /* \"contracts/KipuBank.sol\":11788:11798  msg.sender */\n      caller\n        /* \"contracts/KipuBank.sol\":11808:11812  this */\n      address\n        /* \"contracts/KipuBank.sol\":11815:11821  _monto */\n      dup5\n        /* \"contracts/KipuBank.sol\":11764:11770  i_usdc */\n      immutable(\"0x705a6ef83029e2c8cd72d6aefd2a2bbc4a5113a33398eeb61dd1988b11595ae5\")\n        /* \"contracts/KipuBank.sol\":11764:11787  i_usdc.safeTransferFrom */\n      0xffffffffffffffffffffffffffffffffffffffff\n      and\n      tag_121\n      swap1\n        /* \"contracts/KipuBank.sol\":11764:11822  i_usdc.safeTransferFrom(msg.sender, address(this), _monto) */\n      swap4\n      swap3\n      swap2\n      swap1\n      0xffffffff\n      and\n      jump\t// in\n    tag_120:\n        /* \"contracts/KipuBank.sol\":11456:11829  function depositarUSDC(uint _monto) external verificarDepositoUSDC(_monto) {... */\n      pop\n      pop\n      jump\t// out\n        /* \"@openzeppelin/contracts/access/Ownable.sol\":2293:2394  function renounceOwnership() public virtual onlyOwner {... */\n    tag_42:\n        /* \"@openzeppelin/contracts/access/Ownable.sol\":1531:1544  _checkOwner() */\n      tag_123\n        /* \"@openzeppelin/contracts/access/Ownable.sol\":1531:1542  _checkOwner */\n      tag_124\n        /* \"@openzeppelin/contracts/access/Ownable.sol\":1531:1544  _checkOwner() */\n      jump\t// in\n    tag_123:\n        /* \"@openzeppelin/contracts/access/Ownable.sol\":2357:2387  _transferOwnership(address(0)) */\n      tag_126\n        /* \"@openzeppelin/contracts/access/Ownable.sol\":2384:2385  0 */\n      0x00\n        /* \"@openzeppelin/contracts/access/Ownable.sol\":2357:2375  _transferOwnership */\n      tag_127\n        /* \"@openzeppelin/contracts/access/Ownable.sol\":2357:2387  _transferOwnership(address(0)) */\n      jump\t// in\n    tag_126:\n        /* \"@openzeppelin/contracts/access/Ownable.sol\":2293:2394  function renounceOwnership() public virtual onlyOwner {... */\n      jump\t// out\n        /* \"contracts/KipuBank.sol\":12958:13085  function verSaldoETH() external view returns (uint saldo_) {... */\n    tag_45:\n        /* \"contracts/KipuBank.sol\":13004:13015  uint saldo_ */\n      0x00\n        /* \"contracts/KipuBank.sol\":13036:13054  _cuentasMultiToken */\n      0x06\n        /* \"contracts/KipuBank.sol\":13036:13066  _cuentasMultiToken[address(0)] */\n      0x00\n        /* \"contracts/KipuBank.sol\":13063:13064  0 */\n      0x00\n        /* \"contracts/KipuBank.sol\":13036:13066  _cuentasMultiToken[address(0)] */\n      0xffffffffffffffffffffffffffffffffffffffff\n      and\n      0xffffffffffffffffffffffffffffffffffffffff\n      and\n      dup2\n      mstore\n      0x20\n      add\n      swap1\n      dup2\n      mstore\n      0x20\n      add\n      0x00\n      keccak256\n        /* \"contracts/KipuBank.sol\":13036:13078  _cuentasMultiToken[address(0)][msg.sender] */\n      0x00\n        /* \"contracts/KipuBank.sol\":13067:13077  msg.sender */\n      caller\n        /* \"contracts/KipuBank.sol\":13036:13078  _cuentasMultiToken[address(0)][msg.sender] */\n      0xffffffffffffffffffffffffffffffffffffffff\n      and\n      0xffffffffffffffffffffffffffffffffffffffff\n      and\n      dup2\n      mstore\n      0x20\n      add\n      swap1\n      dup2\n      mstore\n      0x20\n      add\n      0x00\n      keccak256\n      sload\n        /* \"contracts/KipuBank.sol\":13027:13078  saldo_ = _cuentasMultiToken[address(0)][msg.sender] */\n      swap1\n      pop\n        /* \"contracts/KipuBank.sol\":12958:13085  function verSaldoETH() external view returns (uint saldo_) {... */\n      swap1\n      jump\t// out\n        /* \"contracts/KipuBank.sol\":1091:1126  AggregatorV3Interface public i_feed */\n    tag_49:\n      0x02\n      0x00\n      swap1\n      sload\n      swap1\n      0x0100\n      exp\n      swap1\n      div\n      0xffffffffffffffffffffffffffffffffffffffff\n      and\n      dup2\n      jump\t// out\n        /* \"contracts/KipuBank.sol\":10362:10447  function retirarETH(uint _monto) external  {... */\n    tag_55:\n        /* \"contracts/KipuBank.sol\":10415:10440  _retirarFondosETH(_monto) */\n      tag_130\n        /* \"contracts/KipuBank.sol\":10433:10439  _monto */\n      dup2\n        /* \"contracts/KipuBank.sol\":10415:10432  _retirarFondosETH */\n      tag_131\n        /* \"contracts/KipuBank.sol\":10415:10440  _retirarFondosETH(_monto) */\n      jump\t// in\n    tag_130:\n        /* \"contracts/KipuBank.sol\":10362:10447  function retirarETH(uint _monto) external  {... */\n      pop\n      jump\t// out\n        /* \"contracts/KipuBank.sol\":13977:14089  function transferirOwner(address _nuevoOwner) external onlyOwner {... */\n    tag_60:\n        /* \"@openzeppelin/contracts/access/Ownable.sol\":1531:1544  _checkOwner() */\n      tag_133\n        /* \"@openzeppelin/contracts/access/Ownable.sol\":1531:1542  _checkOwner */\n      tag_124\n        /* \"@openzeppelin/contracts/access/Ownable.sol\":1531:1544  _checkOwner() */\n      jump\t// in\n    tag_133:\n        /* \"contracts/KipuBank.sol\":14052:14082  transferOwnership(_nuevoOwner) */\n      tag_135\n        /* \"contracts/KipuBank.sol\":14070:14081  _nuevoOwner */\n      dup2\n        /* \"contracts/KipuBank.sol\":14052:14069  transferOwnership */\n      tag_84\n        /* \"contracts/KipuBank.sol\":14052:14082  transferOwnership(_nuevoOwner) */\n      jump\t// in\n    tag_135:\n        /* \"contracts/KipuBank.sol\":13977:14089  function transferirOwner(address _nuevoOwner) external onlyOwner {... */\n      pop\n      jump\t// out\n        /* \"@openzeppelin/contracts/access/Ownable.sol\":1638:1723  function owner() public view virtual returns (address) {... */\n    tag_63:\n        /* \"@openzeppelin/contracts/access/Ownable.sol\":1684:1691  address */\n      0x00\n        /* \"@openzeppelin/contracts/access/Ownable.sol\":1710:1716  _owner */\n      0x01\n      0x00\n      swap1\n      sload\n      swap1\n      0x0100\n      exp\n      swap1\n      div\n      0xffffffffffffffffffffffffffffffffffffffff\n      and\n        /* \"@openzeppelin/contracts/access/Ownable.sol\":1703:1716  return _owner */\n      swap1\n      pop\n        /* \"@openzeppelin/contracts/access/Ownable.sol\":1638:1723  function owner() public view virtual returns (address) {... */\n      swap1\n      jump\t// out\n        /* \"contracts/KipuBank.sol\":10583:10669  function retirarUSDC(uint _monto) external {... */\n    tag_68:\n        /* \"contracts/KipuBank.sol\":10636:10662  _retirarFondosUSDC(_monto) */\n      tag_138\n        /* \"contracts/KipuBank.sol\":10655:10661  _monto */\n      dup2\n        /* \"contracts/KipuBank.sol\":10636:10654  _retirarFondosUSDC */\n      tag_139\n        /* \"contracts/KipuBank.sol\":10636:10662  _retirarFondosUSDC(_monto) */\n      jump\t// in\n    tag_138:\n        /* \"contracts/KipuBank.sol\":10583:10669  function retirarUSDC(uint _monto) external {... */\n      pop\n      jump\t// out\n        /* \"contracts/KipuBank.sol\":13659:13754  function verTotalContrato() external view returns (uint) {... */\n    tag_71:\n        /* \"contracts/KipuBank.sol\":13710:13714  uint */\n      0x00\n        /* \"contracts/KipuBank.sol\":13733:13747  _totalContrato */\n      sload(0x05)\n        /* \"contracts/KipuBank.sol\":13726:13747  return _totalContrato */\n      swap1\n      pop\n        /* \"contracts/KipuBank.sol\":13659:13754  function verTotalContrato() external view returns (uint) {... */\n      swap1\n      jump\t// out\n        /* \"contracts/KipuBank.sol\":12713:12846  function verSaldoUSDC() external view returns (uint saldo_) {... */\n    tag_75:\n        /* \"contracts/KipuBank.sol\":12760:12771  uint saldo_ */\n      0x00\n        /* \"contracts/KipuBank.sol\":12792:12810  _cuentasMultiToken */\n      0x06\n        /* \"contracts/KipuBank.sol\":12792:12827  _cuentasMultiToken[address(i_usdc)] */\n      0x00\n        /* \"contracts/KipuBank.sol\":12819:12825  i_usdc */\n      immutable(\"0x705a6ef83029e2c8cd72d6aefd2a2bbc4a5113a33398eeb61dd1988b11595ae5\")\n        /* \"contracts/KipuBank.sol\":12792:12827  _cuentasMultiToken[address(i_usdc)] */\n      0xffffffffffffffffffffffffffffffffffffffff\n      and\n      0xffffffffffffffffffffffffffffffffffffffff\n      and\n      dup2\n      mstore\n      0x20\n      add\n      swap1\n      dup2\n      mstore\n      0x20\n      add\n      0x00\n      keccak256\n        /* \"contracts/KipuBank.sol\":12792:12839  _cuentasMultiToken[address(i_usdc)][msg.sender] */\n      0x00\n        /* \"contracts/KipuBank.sol\":12828:12838  msg.sender */\n      caller\n        /* \"contracts/KipuBank.sol\":12792:12839  _cuentasMultiToken[address(i_usdc)][msg.sender] */\n      0xffffffffffffffffffffffffffffffffffffffff\n      and\n      0xffffffffffffffffffffffffffffffffffffffff\n      and\n      dup2\n      mstore\n      0x20\n      add\n      swap1\n      dup2\n      mstore\n      0x20\n      add\n      0x00\n      keccak256\n      sload\n        /* \"contracts/KipuBank.sol\":12783:12839  saldo_ = _cuentasMultiToken[address(i_usdc)][msg.sender] */\n      swap1\n      pop\n        /* \"contracts/KipuBank.sol\":12713:12846  function verSaldoUSDC() external view returns (uint saldo_) {... */\n      swap1\n      jump\t// out\n        /* \"contracts/KipuBank.sol\":13443:13531  function verTotalRetiros() external view returns (uint) {... */\n    tag_79:\n        /* \"contracts/KipuBank.sol\":13493:13497  uint */\n      0x00\n        /* \"contracts/KipuBank.sol\":13516:13524  _retiros */\n      sload(0x04)\n        /* \"contracts/KipuBank.sol\":13509:13524  return _retiros */\n      swap1\n      pop\n        /* \"contracts/KipuBank.sol\":13443:13531  function verTotalRetiros() external view returns (uint) {... */\n      swap1\n      jump\t// out\n        /* \"@openzeppelin/contracts/access/Ownable.sol\":2543:2758  function transferOwnership(address newOwner) public virtual onlyOwner {... */\n    tag_84:\n        /* \"@openzeppelin/contracts/access/Ownable.sol\":1531:1544  _checkOwner() */\n      tag_144\n        /* \"@openzeppelin/contracts/access/Ownable.sol\":1531:1542  _checkOwner */\n      tag_124\n        /* \"@openzeppelin/contracts/access/Ownable.sol\":1531:1544  _checkOwner() */\n      jump\t// in\n    tag_144:\n        /* \"@openzeppelin/contracts/access/Ownable.sol\":2647:2648  0 */\n      0x00\n        /* \"@openzeppelin/contracts/access/Ownable.sol\":2627:2649  newOwner == address(0) */\n      0xffffffffffffffffffffffffffffffffffffffff\n      and\n        /* \"@openzeppelin/contracts/access/Ownable.sol\":2627:2635  newOwner */\n      dup2\n        /* \"@openzeppelin/contracts/access/Ownable.sol\":2627:2649  newOwner == address(0) */\n      0xffffffffffffffffffffffffffffffffffffffff\n      and\n      sub\n        /* \"@openzeppelin/contracts/access/Ownable.sol\":2623:2714  if (newOwner == address(0)) {... */\n      tag_146\n      jumpi\n        /* \"@openzeppelin/contracts/access/Ownable.sol\":2700:2701  0 */\n      0x00\n        /* \"@openzeppelin/contracts/access/Ownable.sol\":2672:2703  OwnableInvalidOwner(address(0)) */\n      mload(0x40)\n      0x1e4fbdf700000000000000000000000000000000000000000000000000000000\n      dup2\n      mstore\n      0x04\n      add\n      tag_147\n      swap2\n      swap1\n      tag_24\n      jump\t// in\n    tag_147:\n      mload(0x40)\n      dup1\n      swap2\n      sub\n      swap1\n      revert\n        /* \"@openzeppelin/contracts/access/Ownable.sol\":2623:2714  if (newOwner == address(0)) {... */\n    tag_146:\n        /* \"@openzeppelin/contracts/access/Ownable.sol\":2723:2751  _transferOwnership(newOwner) */\n      tag_148\n        /* \"@openzeppelin/contracts/access/Ownable.sol\":2742:2750  newOwner */\n      dup2\n        /* \"@openzeppelin/contracts/access/Ownable.sol\":2723:2741  _transferOwnership */\n      tag_127\n        /* \"@openzeppelin/contracts/access/Ownable.sol\":2723:2751  _transferOwnership(newOwner) */\n      jump\t// in\n    tag_148:\n        /* \"@openzeppelin/contracts/access/Ownable.sol\":2543:2758  function transferOwnership(address newOwner) public virtual onlyOwner {... */\n      pop\n      jump\t// out\n        /* \"contracts/KipuBank.sol\":13220:13312  function verTotalDepositos() external view returns (uint) {... */\n    tag_87:\n        /* \"contracts/KipuBank.sol\":13272:13276  uint */\n      0x00\n        /* \"contracts/KipuBank.sol\":13295:13305  _depositos */\n      sload(0x03)\n        /* \"contracts/KipuBank.sol\":13288:13305  return _depositos */\n      swap1\n      pop\n        /* \"contracts/KipuBank.sol\":13220:13312  function verTotalDepositos() external view returns (uint) {... */\n      swap1\n      jump\t// out\n        /* \"contracts/KipuBank.sol\":12147:12318  function convertirEthEnUSDC(uint _monto) internal view returns (uint montoConvertido_) {... */\n    tag_91:\n        /* \"contracts/KipuBank.sol\":12211:12232  uint montoConvertido_ */\n      0x00\n        /* \"contracts/KipuBank.sol\":1543:1555  1 * 10 ** 20 */\n      0x056bc75e2d63100000\n        /* \"contracts/KipuBank.sol\":12277:12293  chainLinkFeeds() */\n      tag_151\n        /* \"contracts/KipuBank.sol\":12277:12291  chainLinkFeeds */\n      tag_152\n        /* \"contracts/KipuBank.sol\":12277:12293  chainLinkFeeds() */\n      jump\t// in\n    tag_151:\n        /* \"contracts/KipuBank.sol\":12268:12274  _monto */\n      dup4\n        /* \"contracts/KipuBank.sol\":12268:12293  _monto * chainLinkFeeds() */\n      tag_153\n      swap2\n      swap1\n      tag_154\n      jump\t// in\n    tag_153:\n        /* \"contracts/KipuBank.sol\":12267:12311  (_monto * chainLinkFeeds()) / DECIMAL_FACTOR */\n      tag_155\n      swap2\n      swap1\n      tag_156\n      jump\t// in\n    tag_155:\n        /* \"contracts/KipuBank.sol\":12248:12311  montoConvertido_ = (_monto * chainLinkFeeds()) / DECIMAL_FACTOR */\n      swap1\n      pop\n        /* \"contracts/KipuBank.sol\":12147:12318  function convertirEthEnUSDC(uint _monto) internal view returns (uint montoConvertido_) {... */\n      swap2\n      swap1\n      pop\n      jump\t// out\n        /* \"@openzeppelin/contracts/token/ERC20/utils/SafeERC20.sol\":1618:1806  function safeTransferFrom(IERC20 token, address from, address to, uint256 value) internal {... */\n    tag_121:\n        /* \"@openzeppelin/contracts/token/ERC20/utils/SafeERC20.sol\":1718:1799  _callOptionalReturn(token, abi.encodeCall(token.transferFrom, (from, to, value))) */\n      tag_158\n        /* \"@openzeppelin/contracts/token/ERC20/utils/SafeERC20.sol\":1738:1743  token */\n      dup5\n        /* \"@openzeppelin/contracts/token/ERC20/utils/SafeERC20.sol\":1760:1765  token */\n      dup6\n        /* \"@openzeppelin/contracts/token/ERC20/utils/SafeERC20.sol\":1760:1778  token.transferFrom */\n      0xffffffffffffffffffffffffffffffffffffffff\n      and\n      0x23b872dd\n        /* \"@openzeppelin/contracts/token/ERC20/utils/SafeERC20.sol\":1781:1785  from */\n      dup7\n        /* \"@openzeppelin/contracts/token/ERC20/utils/SafeERC20.sol\":1787:1789  to */\n      dup7\n        /* \"@openzeppelin/contracts/token/ERC20/utils/SafeERC20.sol\":1791:1796  value */\n      dup7\n        /* \"@openzeppelin/contracts/token/ERC20/utils/SafeERC20.sol\":1745:1798  abi.encodeCall(token.transferFrom, (from, to, value)) */\n      add(0x24, mload(0x40))\n      tag_159\n      swap4\n      swap3\n      swap2\n      swap1\n      tag_160\n      jump\t// in\n    tag_159:\n      mload(0x40)\n      0x20\n      dup2\n      dup4\n      sub\n      sub\n      dup2\n      mstore\n      swap1\n      0x40\n      mstore\n      swap2\n      pop\n      0xe0\n      shl\n      0x20\n      dup3\n      add\n      dup1\n      mload\n      0xffffffffffffffffffffffffffffffffffffffffffffffffffffffff\n      dup4\n      dup2\n      dup4\n      and\n      or\n      dup4\n      mstore\n      pop\n      pop\n      pop\n      pop\n        /* \"@openzeppelin/contracts/token/ERC20/utils/SafeERC20.sol\":1718:1737  _callOptionalReturn */\n      tag_161\n        /* \"@openzeppelin/contracts/token/ERC20/utils/SafeERC20.sol\":1718:1799  _callOptionalReturn(token, abi.encodeCall(token.transferFrom, (from, to, value))) */\n      jump\t// in\n    tag_158:\n        /* \"@openzeppelin/contracts/token/ERC20/utils/SafeERC20.sol\":1618:1806  function safeTransferFrom(IERC20 token, address from, address to, uint256 value) internal {... */\n      pop\n      pop\n      pop\n      pop\n      jump\t// out\n        /* \"@openzeppelin/contracts/access/Ownable.sol\":1796:1958  function _checkOwner() internal view virtual {... */\n    tag_124:\n        /* \"@openzeppelin/contracts/access/Ownable.sol\":1866:1878  _msgSender() */\n      tag_163\n        /* \"@openzeppelin/contracts/access/Ownable.sol\":1866:1876  _msgSender */\n      tag_164\n        /* \"@openzeppelin/contracts/access/Ownable.sol\":1866:1878  _msgSender() */\n      jump\t// in\n    tag_163:\n        /* \"@openzeppelin/contracts/access/Ownable.sol\":1855:1878  owner() != _msgSender() */\n      0xffffffffffffffffffffffffffffffffffffffff\n      and\n        /* \"@openzeppelin/contracts/access/Ownable.sol\":1855:1862  owner() */\n      tag_165\n        /* \"@openzeppelin/contracts/access/Ownable.sol\":1855:1860  owner */\n      tag_63\n        /* \"@openzeppelin/contracts/access/Ownable.sol\":1855:1862  owner() */\n      jump\t// in\n    tag_165:\n        /* \"@openzeppelin/contracts/access/Ownable.sol\":1855:1878  owner() != _msgSender() */\n      0xffffffffffffffffffffffffffffffffffffffff\n      and\n      eq\n        /* \"@openzeppelin/contracts/access/Ownable.sol\":1851:1952  if (owner() != _msgSender()) {... */\n      tag_166\n      jumpi\n        /* \"@openzeppelin/contracts/access/Ownable.sol\":1928:1940  _msgSender() */\n      tag_167\n        /* \"@openzeppelin/contracts/access/Ownable.sol\":1928:1938  _msgSender */\n      tag_164\n        /* \"@openzeppelin/contracts/access/Ownable.sol\":1928:1940  _msgSender() */\n      jump\t// in\n    tag_167:\n        /* \"@openzeppelin/contracts/access/Ownable.sol\":1901:1941  OwnableUnauthorizedAccount(_msgSender()) */\n      mload(0x40)\n      0x118cdaa700000000000000000000000000000000000000000000000000000000\n      dup2\n      mstore\n      0x04\n      add\n      tag_168\n      swap2\n      swap1\n      tag_24\n      jump\t// in\n    tag_168:\n      mload(0x40)\n      dup1\n      swap2\n      sub\n      swap1\n      revert\n        /* \"@openzeppelin/contracts/access/Ownable.sol\":1851:1952  if (owner() != _msgSender()) {... */\n    tag_166:\n        /* \"@openzeppelin/contracts/access/Ownable.sol\":1796:1958  function _checkOwner() internal view virtual {... */\n      jump\t// out\n        /* \"@openzeppelin/contracts/access/Ownable.sol\":2912:3099  function _transferOwnership(address newOwner) internal virtual {... */\n    tag_127:\n        /* \"@openzeppelin/contracts/access/Ownable.sol\":2985:3001  address oldOwner */\n      0x00\n        /* \"@openzeppelin/contracts/access/Ownable.sol\":3004:3010  _owner */\n      0x01\n      0x00\n      swap1\n      sload\n      swap1\n      0x0100\n      exp\n      swap1\n      div\n      0xffffffffffffffffffffffffffffffffffffffff\n      and\n        /* \"@openzeppelin/contracts/access/Ownable.sol\":2985:3010  address oldOwner = _owner */\n      swap1\n      pop\n        /* \"@openzeppelin/contracts/access/Ownable.sol\":3029:3037  newOwner */\n      dup2\n        /* \"@openzeppelin/contracts/access/Ownable.sol\":3020:3026  _owner */\n      0x01\n      0x00\n        /* \"@openzeppelin/contracts/access/Ownable.sol\":3020:3037  _owner = newOwner */\n      0x0100\n      exp\n      dup2\n      sload\n      dup2\n      0xffffffffffffffffffffffffffffffffffffffff\n      mul\n      not\n      and\n      swap1\n      dup4\n      0xffffffffffffffffffffffffffffffffffffffff\n      and\n      mul\n      or\n      swap1\n      sstore\n      pop\n        /* \"@openzeppelin/contracts/access/Ownable.sol\":3083:3091  newOwner */\n      dup2\n        /* \"@openzeppelin/contracts/access/Ownable.sol\":3052:3092  OwnershipTransferred(oldOwner, newOwner) */\n      0xffffffffffffffffffffffffffffffffffffffff\n      and\n        /* \"@openzeppelin/contracts/access/Ownable.sol\":3073:3081  oldOwner */\n      dup2\n        /* \"@openzeppelin/contracts/access/Ownable.sol\":3052:3092  OwnershipTransferred(oldOwner, newOwner) */\n      0xffffffffffffffffffffffffffffffffffffffff\n      and\n      0x8be0079c531659141344cd1fd0a4f28419497f9722a3daafe3b4186f6b6457e0\n      mload(0x40)\n      mload(0x40)\n      dup1\n      swap2\n      sub\n      swap1\n      log3\n        /* \"@openzeppelin/contracts/access/Ownable.sol\":2975:3099  {... */\n      pop\n        /* \"@openzeppelin/contracts/access/Ownable.sol\":2912:3099  function _transferOwnership(address newOwner) internal virtual {... */\n      pop\n      jump\t// out\n        /* \"contracts/KipuBank.sol\":8908:9444  function _retirarFondosETH(uint _monto) private nonReentrant verificarRetiroETH(_monto) {... */\n    tag_131:\n        /* \"@openzeppelin/contracts/security/ReentrancyGuard.sol\":2261:2282  _nonReentrantBefore() */\n      tag_171\n        /* \"@openzeppelin/contracts/security/ReentrancyGuard.sol\":2261:2280  _nonReentrantBefore */\n      tag_172\n        /* \"@openzeppelin/contracts/security/ReentrancyGuard.sol\":2261:2282  _nonReentrantBefore() */\n      jump\t// in\n    tag_171:\n        /* \"contracts/KipuBank.sol\":8988:8994  _monto */\n      dup1\n        /* \"contracts/KipuBank.sol\":7769:7783  uint montoUSDC */\n      0x00\n        /* \"contracts/KipuBank.sol\":7786:7812  convertirEthEnUSDC(_monto) */\n      tag_174\n        /* \"contracts/KipuBank.sol\":7805:7811  _monto */\n      dup3\n        /* \"contracts/KipuBank.sol\":7786:7804  convertirEthEnUSDC */\n      tag_91\n        /* \"contracts/KipuBank.sol\":7786:7812  convertirEthEnUSDC(_monto) */\n      jump\t// in\n    tag_174:\n        /* \"contracts/KipuBank.sol\":7769:7812  uint montoUSDC = convertirEthEnUSDC(_monto) */\n      swap1\n      pop\n        /* \"contracts/KipuBank.sol\":7838:7839  0 */\n      0x00\n        /* \"contracts/KipuBank.sol\":7825:7834  montoUSDC */\n      dup2\n        /* \"contracts/KipuBank.sol\":7825:7839  montoUSDC == 0 */\n      sub\n        /* \"contracts/KipuBank.sol\":7822:7878  if(montoUSDC == 0) revert KipuBank_MontoCero(msg.sender) */\n      tag_175\n      jumpi\n        /* \"contracts/KipuBank.sol\":7867:7877  msg.sender */\n      caller\n        /* \"contracts/KipuBank.sol\":7848:7878  KipuBank_MontoCero(msg.sender) */\n      mload(0x40)\n      0xb2f0923100000000000000000000000000000000000000000000000000000000\n      dup2\n      mstore\n      0x04\n      add\n      tag_176\n      swap2\n      swap1\n      tag_24\n      jump\t// in\n    tag_176:\n      mload(0x40)\n      dup1\n      swap2\n      sub\n      swap1\n      revert\n        /* \"contracts/KipuBank.sol\":7822:7878  if(montoUSDC == 0) revert KipuBank_MontoCero(msg.sender) */\n    tag_175:\n        /* \"contracts/KipuBank.sol\":7904:7912  i_umbral */\n      immutable(\"0x9d8f226131630182c1f71b55fb0ef15c91b8f92e68cddc71ebac73ec7e8b50bb\")\n        /* \"contracts/KipuBank.sol\":7892:7901  montoUSDC */\n      dup2\n        /* \"contracts/KipuBank.sol\":7892:7912  montoUSDC > i_umbral */\n      gt\n        /* \"contracts/KipuBank.sol\":7888:7955  if (montoUSDC > i_umbral) revert KipuBank_UmbralExcedido(montoUSDC) */\n      iszero\n      tag_177\n      jumpi\n        /* \"contracts/KipuBank.sol\":7945:7954  montoUSDC */\n      dup1\n        /* \"contracts/KipuBank.sol\":7921:7955  KipuBank_UmbralExcedido(montoUSDC) */\n      mload(0x40)\n      0xc399356500000000000000000000000000000000000000000000000000000000\n      dup2\n      mstore\n      0x04\n      add\n      tag_178\n      swap2\n      swap1\n      tag_34\n      jump\t// in\n    tag_178:\n      mload(0x40)\n      dup1\n      swap2\n      sub\n      swap1\n      revert\n        /* \"contracts/KipuBank.sol\":7888:7955  if (montoUSDC > i_umbral) revert KipuBank_UmbralExcedido(montoUSDC) */\n    tag_177:\n        /* \"contracts/KipuBank.sol\":7978:7996  _cuentasMultiToken */\n      0x06\n        /* \"contracts/KipuBank.sol\":7978:8008  _cuentasMultiToken[address(0)] */\n      0x00\n        /* \"contracts/KipuBank.sol\":8005:8006  0 */\n      0x00\n        /* \"contracts/KipuBank.sol\":7978:8008  _cuentasMultiToken[address(0)] */\n      0xffffffffffffffffffffffffffffffffffffffff\n      and\n      0xffffffffffffffffffffffffffffffffffffffff\n      and\n      dup2\n      mstore\n      0x20\n      add\n      swap1\n      dup2\n      mstore\n      0x20\n      add\n      0x00\n      keccak256\n        /* \"contracts/KipuBank.sol\":7978:8020  _cuentasMultiToken[address(0)][msg.sender] */\n      0x00\n        /* \"contracts/KipuBank.sol\":8009:8019  msg.sender */\n      caller\n        /* \"contracts/KipuBank.sol\":7978:8020  _cuentasMultiToken[address(0)][msg.sender] */\n      0xffffffffffffffffffffffffffffffffffffffff\n      and\n      0xffffffffffffffffffffffffffffffffffffffff\n      and\n      dup2\n      mstore\n      0x20\n      add\n      swap1\n      dup2\n      mstore\n      0x20\n      add\n      0x00\n      keccak256\n      sload\n        /* \"contracts/KipuBank.sol\":7969:7975  _monto */\n      dup3\n        /* \"contracts/KipuBank.sol\":7969:8020  _monto > _cuentasMultiToken[address(0)][msg.sender] */\n      gt\n        /* \"contracts/KipuBank.sol\":7965:8078  if (_monto > _cuentasMultiToken[address(0)][msg.sender]) revert KipuBank_SaldoInsuficiente(msg.sender, montoUSDC) */\n      iszero\n      tag_179\n      jumpi\n        /* \"contracts/KipuBank.sol\":8056:8066  msg.sender */\n      caller\n        /* \"contracts/KipuBank.sol\":8068:8077  montoUSDC */\n      dup2\n        /* \"contracts/KipuBank.sol\":8029:8078  KipuBank_SaldoInsuficiente(msg.sender, montoUSDC) */\n      mload(0x40)\n      0x51a7314200000000000000000000000000000000000000000000000000000000\n      dup2\n      mstore\n      0x04\n      add\n      tag_180\n      swap3\n      swap2\n      swap1\n      tag_106\n      jump\t// in\n    tag_180:\n      mload(0x40)\n      dup1\n      swap2\n      sub\n      swap1\n      revert\n        /* \"contracts/KipuBank.sol\":7965:8078  if (_monto > _cuentasMultiToken[address(0)][msg.sender]) revert KipuBank_SaldoInsuficiente(msg.sender, montoUSDC) */\n    tag_179:\n        /* \"contracts/KipuBank.sol\":9006:9020  uint montoUSDC */\n      0x00\n        /* \"contracts/KipuBank.sol\":9023:9049  convertirEthEnUSDC(_monto) */\n      tag_182\n        /* \"contracts/KipuBank.sol\":9042:9048  _monto */\n      dup5\n        /* \"contracts/KipuBank.sol\":9023:9041  convertirEthEnUSDC */\n      tag_91\n        /* \"contracts/KipuBank.sol\":9023:9049  convertirEthEnUSDC(_monto) */\n      jump\t// in\n    tag_182:\n        /* \"contracts/KipuBank.sol\":9006:9049  uint montoUSDC = convertirEthEnUSDC(_monto) */\n      swap1\n      pop\n        /* \"contracts/KipuBank.sol\":9082:9091  montoUSDC */\n      dup1\n        /* \"contracts/KipuBank.sol\":9059:9066  _boveda */\n      0x07\n        /* \"contracts/KipuBank.sol\":9059:9078  _boveda[msg.sender] */\n      0x00\n        /* \"contracts/KipuBank.sol\":9067:9077  msg.sender */\n      caller\n        /* \"contracts/KipuBank.sol\":9059:9078  _boveda[msg.sender] */\n      0xffffffffffffffffffffffffffffffffffffffff\n      and\n      0xffffffffffffffffffffffffffffffffffffffff\n      and\n      dup2\n      mstore\n      0x20\n      add\n      swap1\n      dup2\n      mstore\n      0x20\n      add\n      0x00\n      keccak256\n      0x00\n        /* \"contracts/KipuBank.sol\":9059:9091  _boveda[msg.sender] -= montoUSDC */\n      dup3\n      dup3\n      sload\n      tag_183\n      swap2\n      swap1\n      tag_184\n      jump\t// in\n    tag_183:\n      swap3\n      pop\n      pop\n      dup2\n      swap1\n      sstore\n      pop\n        /* \"contracts/KipuBank.sol\":9147:9153  _monto */\n      dup4\n        /* \"contracts/KipuBank.sol\":9101:9119  _cuentasMultiToken */\n      0x06\n        /* \"contracts/KipuBank.sol\":9101:9131  _cuentasMultiToken[address(0)] */\n      0x00\n        /* \"contracts/KipuBank.sol\":9128:9129  0 */\n      0x00\n        /* \"contracts/KipuBank.sol\":9101:9131  _cuentasMultiToken[address(0)] */\n      0xffffffffffffffffffffffffffffffffffffffff\n      and\n      0xffffffffffffffffffffffffffffffffffffffff\n      and\n      dup2\n      mstore\n      0x20\n      add\n      swap1\n      dup2\n      mstore\n      0x20\n      add\n      0x00\n      keccak256\n        /* \"contracts/KipuBank.sol\":9101:9143  _cuentasMultiToken[address(0)][msg.sender] */\n      0x00\n        /* \"contracts/KipuBank.sol\":9132:9142  msg.sender */\n      caller\n        /* \"contracts/KipuBank.sol\":9101:9143  _cuentasMultiToken[address(0)][msg.sender] */\n      0xffffffffffffffffffffffffffffffffffffffff\n      and\n      0xffffffffffffffffffffffffffffffffffffffff\n      and\n      dup2\n      mstore\n      0x20\n      add\n      swap1\n      dup2\n      mstore\n      0x20\n      add\n      0x00\n      keccak256\n      0x00\n        /* \"contracts/KipuBank.sol\":9101:9153  _cuentasMultiToken[address(0)][msg.sender] -= _monto */\n      dup3\n      dup3\n      sload\n      tag_185\n      swap2\n      swap1\n      tag_184\n      jump\t// in\n    tag_185:\n      swap3\n      pop\n      pop\n      dup2\n      swap1\n      sstore\n      pop\n        /* \"contracts/KipuBank.sol\":9163:9171  _retiros */\n      0x04\n      0x00\n        /* \"contracts/KipuBank.sol\":9163:9173  _retiros++ */\n      dup2\n      sload\n      dup1\n      swap3\n      swap2\n      swap1\n      tag_186\n      swap1\n      tag_103\n      jump\t// in\n    tag_186:\n      swap2\n      swap1\n      pop\n      sstore\n      pop\n        /* \"contracts/KipuBank.sol\":9201:9210  montoUSDC */\n      dup1\n        /* \"contracts/KipuBank.sol\":9183:9197  _totalContrato */\n      0x05\n      0x00\n        /* \"contracts/KipuBank.sol\":9183:9210  _totalContrato -= montoUSDC */\n      dup3\n      dup3\n      sload\n      tag_187\n      swap2\n      swap1\n      tag_184\n      jump\t// in\n    tag_187:\n      swap3\n      pop\n      pop\n      dup2\n      swap1\n      sstore\n      pop\n        /* \"contracts/KipuBank.sol\":9234:9285  KipuBank_ExtraccionRealizada(msg.sender, montoUSDC) */\n      0x9cde449504e4972ffddec09813e0c252a1462d76bef1864b9e7520dadb7183e8\n        /* \"contracts/KipuBank.sol\":9263:9273  msg.sender */\n      caller\n        /* \"contracts/KipuBank.sol\":9275:9284  montoUSDC */\n      dup3\n        /* \"contracts/KipuBank.sol\":9234:9285  KipuBank_ExtraccionRealizada(msg.sender, montoUSDC) */\n      mload(0x40)\n      tag_188\n      swap3\n      swap2\n      swap1\n      tag_106\n      jump\t// in\n    tag_188:\n      mload(0x40)\n      dup1\n      swap2\n      sub\n      swap1\n      log1\n        /* \"contracts/KipuBank.sol\":9297:9309  bool success */\n      0x00\n        /* \"contracts/KipuBank.sol\":9323:9333  msg.sender */\n      caller\n        /* \"contracts/KipuBank.sol\":9315:9339  payable(msg.sender).call */\n      0xffffffffffffffffffffffffffffffffffffffff\n      and\n        /* \"contracts/KipuBank.sol\":9347:9353  _monto */\n      dup6\n        /* \"contracts/KipuBank.sol\":9315:9358  payable(msg.sender).call{value: _monto}(\"\") */\n      mload(0x40)\n      tag_189\n      swap1\n      tag_190\n      jump\t// in\n    tag_189:\n      0x00\n      mload(0x40)\n      dup1\n      dup4\n      sub\n      dup2\n      dup6\n      dup8\n      gas\n      call\n      swap3\n      pop\n      pop\n      pop\n      returndatasize\n      dup1\n      0x00\n      dup2\n      eq\n      tag_193\n      jumpi\n      mload(0x40)\n      swap2\n      pop\n      and(add(returndatasize, 0x3f), not(0x1f))\n      dup3\n      add\n      0x40\n      mstore\n      returndatasize\n      dup3\n      mstore\n      returndatasize\n      0x00\n      0x20\n      dup5\n      add\n      returndatacopy\n      jump(tag_192)\n    tag_193:\n      0x60\n      swap2\n      pop\n    tag_192:\n      pop\n        /* \"contracts/KipuBank.sol\":9296:9358  (bool success, ) = payable(msg.sender).call{value: _monto}(\"\") */\n      pop\n      swap1\n      pop\n        /* \"contracts/KipuBank.sol\":9373:9380  success */\n      dup1\n        /* \"contracts/KipuBank.sol\":9368:9437  if (!success) revert KipuBank_ExtraccionRechazada(msg.sender, _monto) */\n      tag_194\n      jumpi\n        /* \"contracts/KipuBank.sol\":9418:9428  msg.sender */\n      caller\n        /* \"contracts/KipuBank.sol\":9430:9436  _monto */\n      dup6\n        /* \"contracts/KipuBank.sol\":9389:9437  KipuBank_ExtraccionRechazada(msg.sender, _monto) */\n      mload(0x40)\n      0x6c5e1a1400000000000000000000000000000000000000000000000000000000\n      dup2\n      mstore\n      0x04\n      add\n      tag_195\n      swap3\n      swap2\n      swap1\n      tag_106\n      jump\t// in\n    tag_195:\n      mload(0x40)\n      dup1\n      swap2\n      sub\n      swap1\n      revert\n        /* \"contracts/KipuBank.sol\":9368:9437  if (!success) revert KipuBank_ExtraccionRechazada(msg.sender, _monto) */\n    tag_194:\n        /* \"contracts/KipuBank.sol\":8996:9444  {... */\n      pop\n      pop\n        /* \"contracts/KipuBank.sol\":7759:8096  {... */\n      pop\n        /* \"@openzeppelin/contracts/security/ReentrancyGuard.sol\":2292:2293  _ */\n      pop\n        /* \"@openzeppelin/contracts/security/ReentrancyGuard.sol\":2303:2323  _nonReentrantAfter() */\n      tag_196\n        /* \"@openzeppelin/contracts/security/ReentrancyGuard.sol\":2303:2321  _nonReentrantAfter */\n      tag_197\n        /* \"@openzeppelin/contracts/security/ReentrancyGuard.sol\":2303:2323  _nonReentrantAfter() */\n      jump\t// in\n    tag_196:\n        /* \"contracts/KipuBank.sol\":8908:9444  function _retirarFondosETH(uint _monto) private nonReentrant verificarRetiroETH(_monto) {... */\n      pop\n      jump\t// out\n        /* \"contracts/KipuBank.sol\":9849:10227  function _retirarFondosUSDC(uint _monto) private nonReentrant verificarRetiroUSDC(_monto) {... */\n    tag_139:\n        /* \"@openzeppelin/contracts/security/ReentrancyGuard.sol\":2261:2282  _nonReentrantBefore() */\n      tag_199\n        /* \"@openzeppelin/contracts/security/ReentrancyGuard.sol\":2261:2280  _nonReentrantBefore */\n      tag_172\n        /* \"@openzeppelin/contracts/security/ReentrancyGuard.sol\":2261:2282  _nonReentrantBefore() */\n      jump\t// in\n    tag_199:\n        /* \"contracts/KipuBank.sol\":9931:9937  _monto */\n      dup1\n        /* \"contracts/KipuBank.sol\":8339:8340  0 */\n      0x00\n        /* \"contracts/KipuBank.sol\":8329:8335  _monto */\n      dup2\n        /* \"contracts/KipuBank.sol\":8329:8340  _monto == 0 */\n      sub\n        /* \"contracts/KipuBank.sol\":8326:8379  if(_monto == 0) revert KipuBank_MontoCero(msg.sender) */\n      tag_201\n      jumpi\n        /* \"contracts/KipuBank.sol\":8368:8378  msg.sender */\n      caller\n        /* \"contracts/KipuBank.sol\":8349:8379  KipuBank_MontoCero(msg.sender) */\n      mload(0x40)\n      0xb2f0923100000000000000000000000000000000000000000000000000000000\n      dup2\n      mstore\n      0x04\n      add\n      tag_202\n      swap2\n      swap1\n      tag_24\n      jump\t// in\n    tag_202:\n      mload(0x40)\n      dup1\n      swap2\n      sub\n      swap1\n      revert\n        /* \"contracts/KipuBank.sol\":8326:8379  if(_monto == 0) revert KipuBank_MontoCero(msg.sender) */\n    tag_201:\n        /* \"contracts/KipuBank.sol\":8402:8410  i_umbral */\n      immutable(\"0x9d8f226131630182c1f71b55fb0ef15c91b8f92e68cddc71ebac73ec7e8b50bb\")\n        /* \"contracts/KipuBank.sol\":8393:8399  _monto */\n      dup2\n        /* \"contracts/KipuBank.sol\":8393:8410  _monto > i_umbral */\n      gt\n        /* \"contracts/KipuBank.sol\":8389:8450  if (_monto > i_umbral) revert KipuBank_UmbralExcedido(_monto) */\n      iszero\n      tag_203\n      jumpi\n        /* \"contracts/KipuBank.sol\":8443:8449  _monto */\n      dup1\n        /* \"contracts/KipuBank.sol\":8419:8450  KipuBank_UmbralExcedido(_monto) */\n      mload(0x40)\n      0xc399356500000000000000000000000000000000000000000000000000000000\n      dup2\n      mstore\n      0x04\n      add\n      tag_204\n      swap2\n      swap1\n      tag_34\n      jump\t// in\n    tag_204:\n      mload(0x40)\n      dup1\n      swap2\n      sub\n      swap1\n      revert\n        /* \"contracts/KipuBank.sol\":8389:8450  if (_monto > i_umbral) revert KipuBank_UmbralExcedido(_monto) */\n    tag_203:\n        /* \"contracts/KipuBank.sol\":8473:8491  _cuentasMultiToken */\n      0x06\n        /* \"contracts/KipuBank.sol\":8473:8508  _cuentasMultiToken[address(i_usdc)] */\n      0x00\n        /* \"contracts/KipuBank.sol\":8500:8506  i_usdc */\n      immutable(\"0x705a6ef83029e2c8cd72d6aefd2a2bbc4a5113a33398eeb61dd1988b11595ae5\")\n        /* \"contracts/KipuBank.sol\":8473:8508  _cuentasMultiToken[address(i_usdc)] */\n      0xffffffffffffffffffffffffffffffffffffffff\n      and\n      0xffffffffffffffffffffffffffffffffffffffff\n      and\n      dup2\n      mstore\n      0x20\n      add\n      swap1\n      dup2\n      mstore\n      0x20\n      add\n      0x00\n      keccak256\n        /* \"contracts/KipuBank.sol\":8473:8520  _cuentasMultiToken[address(i_usdc)][msg.sender] */\n      0x00\n        /* \"contracts/KipuBank.sol\":8509:8519  msg.sender */\n      caller\n        /* \"contracts/KipuBank.sol\":8473:8520  _cuentasMultiToken[address(i_usdc)][msg.sender] */\n      0xffffffffffffffffffffffffffffffffffffffff\n      and\n      0xffffffffffffffffffffffffffffffffffffffff\n      and\n      dup2\n      mstore\n      0x20\n      add\n      swap1\n      dup2\n      mstore\n      0x20\n      add\n      0x00\n      keccak256\n      sload\n        /* \"contracts/KipuBank.sol\":8464:8470  _monto */\n      dup2\n        /* \"contracts/KipuBank.sol\":8464:8520  _monto > _cuentasMultiToken[address(i_usdc)][msg.sender] */\n      gt\n        /* \"contracts/KipuBank.sol\":8460:8575  if (_monto > _cuentasMultiToken[address(i_usdc)][msg.sender]) revert KipuBank_SaldoInsuficiente(msg.sender, _monto) */\n      iszero\n      tag_205\n      jumpi\n        /* \"contracts/KipuBank.sol\":8556:8566  msg.sender */\n      caller\n        /* \"contracts/KipuBank.sol\":8568:8574  _monto */\n      dup2\n        /* \"contracts/KipuBank.sol\":8529:8575  KipuBank_SaldoInsuficiente(msg.sender, _monto) */\n      mload(0x40)\n      0x51a7314200000000000000000000000000000000000000000000000000000000\n      dup2\n      mstore\n      0x04\n      add\n      tag_206\n      swap3\n      swap2\n      swap1\n      tag_106\n      jump\t// in\n    tag_206:\n      mload(0x40)\n      dup1\n      swap2\n      sub\n      swap1\n      revert\n        /* \"contracts/KipuBank.sol\":8460:8575  if (_monto > _cuentasMultiToken[address(i_usdc)][msg.sender]) revert KipuBank_SaldoInsuficiente(msg.sender, _monto) */\n    tag_205:\n        /* \"contracts/KipuBank.sol\":9972:9978  _monto */\n      dup2\n        /* \"contracts/KipuBank.sol\":9949:9956  _boveda */\n      0x07\n        /* \"contracts/KipuBank.sol\":9949:9968  _boveda[msg.sender] */\n      0x00\n        /* \"contracts/KipuBank.sol\":9957:9967  msg.sender */\n      caller\n        /* \"contracts/KipuBank.sol\":9949:9968  _boveda[msg.sender] */\n      0xffffffffffffffffffffffffffffffffffffffff\n      and\n      0xffffffffffffffffffffffffffffffffffffffff\n      and\n      dup2\n      mstore\n      0x20\n      add\n      swap1\n      dup2\n      mstore\n      0x20\n      add\n      0x00\n      keccak256\n      0x00\n        /* \"contracts/KipuBank.sol\":9949:9978  _boveda[msg.sender] -= _monto */\n      dup3\n      dup3\n      sload\n      tag_208\n      swap2\n      swap1\n      tag_184\n      jump\t// in\n    tag_208:\n      swap3\n      pop\n      pop\n      dup2\n      swap1\n      sstore\n      pop\n        /* \"contracts/KipuBank.sol\":10039:10045  _monto */\n      dup2\n        /* \"contracts/KipuBank.sol\":9988:10006  _cuentasMultiToken */\n      0x06\n        /* \"contracts/KipuBank.sol\":9988:10023  _cuentasMultiToken[address(i_usdc)] */\n      0x00\n        /* \"contracts/KipuBank.sol\":10015:10021  i_usdc */\n      immutable(\"0x705a6ef83029e2c8cd72d6aefd2a2bbc4a5113a33398eeb61dd1988b11595ae5\")\n        /* \"contracts/KipuBank.sol\":9988:10023  _cuentasMultiToken[address(i_usdc)] */\n      0xffffffffffffffffffffffffffffffffffffffff\n      and\n      0xffffffffffffffffffffffffffffffffffffffff\n      and\n      dup2\n      mstore\n      0x20\n      add\n      swap1\n      dup2\n      mstore\n      0x20\n      add\n      0x00\n      keccak256\n        /* \"contracts/KipuBank.sol\":9988:10035  _cuentasMultiToken[address(i_usdc)][msg.sender] */\n      0x00\n        /* \"contracts/KipuBank.sol\":10024:10034  msg.sender */\n      caller\n        /* \"contracts/KipuBank.sol\":9988:10035  _cuentasMultiToken[address(i_usdc)][msg.sender] */\n      0xffffffffffffffffffffffffffffffffffffffff\n      and\n      0xffffffffffffffffffffffffffffffffffffffff\n      and\n      dup2\n      mstore\n      0x20\n      add\n      swap1\n      dup2\n      mstore\n      0x20\n      add\n      0x00\n      keccak256\n      0x00\n        /* \"contracts/KipuBank.sol\":9988:10045  _cuentasMultiToken[address(i_usdc)][msg.sender] -= _monto */\n      dup3\n      dup3\n      sload\n      tag_209\n      swap2\n      swap1\n      tag_184\n      jump\t// in\n    tag_209:\n      swap3\n      pop\n      pop\n      dup2\n      swap1\n      sstore\n      pop\n        /* \"contracts/KipuBank.sol\":10055:10063  _retiros */\n      0x04\n      0x00\n        /* \"contracts/KipuBank.sol\":10055:10065  _retiros++ */\n      dup2\n      sload\n      dup1\n      swap3\n      swap2\n      swap1\n      tag_210\n      swap1\n      tag_103\n      jump\t// in\n    tag_210:\n      swap2\n      swap1\n      pop\n      sstore\n      pop\n        /* \"contracts/KipuBank.sol\":10093:10099  _monto */\n      dup2\n        /* \"contracts/KipuBank.sol\":10075:10089  _totalContrato */\n      0x05\n      0x00\n        /* \"contracts/KipuBank.sol\":10075:10099  _totalContrato -= _monto */\n      dup3\n      dup3\n      sload\n      tag_211\n      swap2\n      swap1\n      tag_184\n      jump\t// in\n    tag_211:\n      swap3\n      pop\n      pop\n      dup2\n      swap1\n      sstore\n      pop\n        /* \"contracts/KipuBank.sol\":10123:10171  KipuBank_ExtraccionRealizada(msg.sender, _monto) */\n      0x9cde449504e4972ffddec09813e0c252a1462d76bef1864b9e7520dadb7183e8\n        /* \"contracts/KipuBank.sol\":10152:10162  msg.sender */\n      caller\n        /* \"contracts/KipuBank.sol\":10164:10170  _monto */\n      dup4\n        /* \"contracts/KipuBank.sol\":10123:10171  KipuBank_ExtraccionRealizada(msg.sender, _monto) */\n      mload(0x40)\n      tag_212\n      swap3\n      swap2\n      swap1\n      tag_106\n      jump\t// in\n    tag_212:\n      mload(0x40)\n      dup1\n      swap2\n      sub\n      swap1\n      log1\n        /* \"contracts/KipuBank.sol\":10181:10220  i_usdc.safeTransfer(msg.sender, _monto) */\n      tag_213\n        /* \"contracts/KipuBank.sol\":10201:10211  msg.sender */\n      caller\n        /* \"contracts/KipuBank.sol\":10213:10219  _monto */\n      dup4\n        /* \"contracts/KipuBank.sol\":10181:10187  i_usdc */\n      immutable(\"0x705a6ef83029e2c8cd72d6aefd2a2bbc4a5113a33398eeb61dd1988b11595ae5\")\n        /* \"contracts/KipuBank.sol\":10181:10200  i_usdc.safeTransfer */\n      0xffffffffffffffffffffffffffffffffffffffff\n      and\n      tag_214\n      swap1\n        /* \"contracts/KipuBank.sol\":10181:10220  i_usdc.safeTransfer(msg.sender, _monto) */\n      swap3\n      swap2\n      swap1\n      0xffffffff\n      and\n      jump\t// in\n    tag_213:\n        /* \"@openzeppelin/contracts/security/ReentrancyGuard.sol\":2292:2293  _ */\n      pop\n        /* \"@openzeppelin/contracts/security/ReentrancyGuard.sol\":2303:2323  _nonReentrantAfter() */\n      tag_215\n        /* \"@openzeppelin/contracts/security/ReentrancyGuard.sol\":2303:2321  _nonReentrantAfter */\n      tag_197\n        /* \"@openzeppelin/contracts/security/ReentrancyGuard.sol\":2303:2323  _nonReentrantAfter() */\n      jump\t// in\n    tag_215:\n        /* \"contracts/KipuBank.sol\":9849:10227  function _retirarFondosUSDC(uint _monto) private nonReentrant verificarRetiroUSDC(_monto) {... */\n      pop\n      jump\t// out\n        /* \"contracts/KipuBank.sol\":6443:6829  function chainLinkFeeds() internal view returns(uint precioUSD_) {... */\n    tag_152:\n        /* \"contracts/KipuBank.sol\":6491:6506  uint precioUSD_ */\n      0x00\n        /* \"contracts/KipuBank.sol\":6521:6539  int256 ethUSDPrice */\n      0x00\n        /* \"contracts/KipuBank.sol\":6542:6558  uint256 updateAt */\n      0x00\n        /* \"contracts/KipuBank.sol\":6563:6569  i_feed */\n      0x02\n      0x00\n      swap1\n      sload\n      swap1\n      0x0100\n      exp\n      swap1\n      div\n      0xffffffffffffffffffffffffffffffffffffffff\n      and\n        /* \"contracts/KipuBank.sol\":6563:6585  i_feed.latestRoundData */\n      0xffffffffffffffffffffffffffffffffffffffff\n      and\n      0xfeaf968c\n        /* \"contracts/KipuBank.sol\":6563:6587  i_feed.latestRoundData() */\n      mload(0x40)\n      dup2\n      0xffffffff\n      and\n      0xe0\n      shl\n      dup2\n      mstore\n      0x04\n      add\n      0xa0\n      mload(0x40)\n      dup1\n      dup4\n      sub\n      dup2\n      dup7\n      gas\n      staticcall\n      iszero\n      dup1\n      iszero\n      tag_218\n      jumpi\n      returndatacopy(0x00, 0x00, returndatasize)\n      revert(0x00, returndatasize)\n    tag_218:\n      pop\n      pop\n      pop\n      pop\n      mload(0x40)\n      returndatasize\n      not(0x1f)\n      0x1f\n      dup3\n      add\n      and\n      dup3\n      add\n      dup1\n      0x40\n      mstore\n      pop\n      dup2\n      add\n      swap1\n      tag_219\n      swap2\n      swap1\n      tag_220\n      jump\t// in\n    tag_219:\n        /* \"contracts/KipuBank.sol\":6518:6587  (, int256 ethUSDPrice,, uint256 updateAt,) = i_feed.latestRoundData() */\n      pop\n      swap4\n      pop\n      pop\n      swap3\n      pop\n      pop\n        /* \"contracts/KipuBank.sol\":6616:6617  0 */\n      0x00\n        /* \"contracts/KipuBank.sol\":6601:6612  ethUSDPrice */\n      dup3\n        /* \"contracts/KipuBank.sol\":6601:6617  ethUSDPrice == 0 */\n      sub\n        /* \"contracts/KipuBank.sol\":6597:6673  if( ethUSDPrice == 0) revert KipuBank_OraculoComprometido(uint(ethUSDPrice)) */\n      tag_221\n      jumpi\n        /* \"contracts/KipuBank.sol\":6660:6671  ethUSDPrice */\n      dup2\n        /* \"contracts/KipuBank.sol\":6626:6673  KipuBank_OraculoComprometido(uint(ethUSDPrice)) */\n      mload(0x40)\n      0x3654402900000000000000000000000000000000000000000000000000000000\n      dup2\n      mstore\n      0x04\n      add\n      tag_222\n      swap2\n      swap1\n      tag_34\n      jump\t// in\n    tag_222:\n      mload(0x40)\n      dup1\n      swap2\n      sub\n      swap1\n      revert\n        /* \"contracts/KipuBank.sol\":6597:6673  if( ethUSDPrice == 0) revert KipuBank_OraculoComprometido(uint(ethUSDPrice)) */\n    tag_221:\n        /* \"contracts/KipuBank.sol\":1274:1278  3600 */\n      0x0e10\n        /* \"contracts/KipuBank.sol\":6686:6724  block.timestamp - updateAt > HEARTBEAT */\n      0xffff\n      and\n        /* \"contracts/KipuBank.sol\":6704:6712  updateAt */\n      dup2\n        /* \"contracts/KipuBank.sol\":6686:6701  block.timestamp */\n      timestamp\n        /* \"contracts/KipuBank.sol\":6686:6712  block.timestamp - updateAt */\n      tag_223\n      swap2\n      swap1\n      tag_184\n      jump\t// in\n    tag_223:\n        /* \"contracts/KipuBank.sol\":6686:6724  block.timestamp - updateAt > HEARTBEAT */\n      gt\n        /* \"contracts/KipuBank.sol\":6683:6781  if(block.timestamp - updateAt > HEARTBEAT) revert KipuBank_PrecioDesactualizado(uint(ethUSDPrice)) */\n      iszero\n      tag_224\n      jumpi\n        /* \"contracts/KipuBank.sol\":6768:6779  ethUSDPrice */\n      dup2\n        /* \"contracts/KipuBank.sol\":6733:6781  KipuBank_PrecioDesactualizado(uint(ethUSDPrice)) */\n      mload(0x40)\n      0x2609a26500000000000000000000000000000000000000000000000000000000\n      dup2\n      mstore\n      0x04\n      add\n      tag_225\n      swap2\n      swap1\n      tag_34\n      jump\t// in\n    tag_225:\n      mload(0x40)\n      dup1\n      swap2\n      sub\n      swap1\n      revert\n        /* \"contracts/KipuBank.sol\":6683:6781  if(block.timestamp - updateAt > HEARTBEAT) revert KipuBank_PrecioDesactualizado(uint(ethUSDPrice)) */\n    tag_224:\n        /* \"contracts/KipuBank.sol\":6810:6821  ethUSDPrice */\n      dup2\n        /* \"contracts/KipuBank.sol\":6792:6822  precioUSD_ = uint(ethUSDPrice) */\n      swap3\n      pop\n        /* \"contracts/KipuBank.sol\":6508:6829  {... */\n      pop\n      pop\n        /* \"contracts/KipuBank.sol\":6443:6829  function chainLinkFeeds() internal view returns(uint precioUSD_) {... */\n      swap1\n      jump\t// out\n        /* \"@openzeppelin/contracts/token/ERC20/utils/SafeERC20.sol\":8370:9090  function _callOptionalReturn(IERC20 token, bytes memory data) private {... */\n    tag_161:\n        /* \"@openzeppelin/contracts/token/ERC20/utils/SafeERC20.sol\":8450:8468  uint256 returnSize */\n      0x00\n        /* \"@openzeppelin/contracts/token/ERC20/utils/SafeERC20.sol\":8478:8497  uint256 returnValue */\n      0x00\n        /* \"@openzeppelin/contracts/token/ERC20/utils/SafeERC20.sol\":8616:8620  0x20 */\n      0x20\n        /* \"@openzeppelin/contracts/token/ERC20/utils/SafeERC20.sol\":8613:8614  0 */\n      0x00\n        /* \"@openzeppelin/contracts/token/ERC20/utils/SafeERC20.sol\":8606:8610  data */\n      dup5\n        /* \"@openzeppelin/contracts/token/ERC20/utils/SafeERC20.sol\":8600:8611  mload(data) */\n      mload\n        /* \"@openzeppelin/contracts/token/ERC20/utils/SafeERC20.sol\":8593:8597  0x20 */\n      0x20\n        /* \"@openzeppelin/contracts/token/ERC20/utils/SafeERC20.sol\":8587:8591  data */\n      dup7\n        /* \"@openzeppelin/contracts/token/ERC20/utils/SafeERC20.sol\":8583:8598  add(data, 0x20) */\n      add\n        /* \"@openzeppelin/contracts/token/ERC20/utils/SafeERC20.sol\":8580:8581  0 */\n      0x00\n        /* \"@openzeppelin/contracts/token/ERC20/utils/SafeERC20.sol\":8573:8578  token */\n      dup9\n        /* \"@openzeppelin/contracts/token/ERC20/utils/SafeERC20.sol\":8566:8571  gas() */\n      gas\n        /* \"@openzeppelin/contracts/token/ERC20/utils/SafeERC20.sol\":8561:8621  call(gas(), token, 0, add(data, 0x20), mload(data), 0, 0x20) */\n      call\n        /* \"@openzeppelin/contracts/token/ERC20/utils/SafeERC20.sol\":8673:8680  success */\n      dup1\n        /* \"@openzeppelin/contracts/token/ERC20/utils/SafeERC20.sol\":8663:8839  if iszero(success) {... */\n      tag_227\n      jumpi\n        /* \"@openzeppelin/contracts/token/ERC20/utils/SafeERC20.sol\":8717:8721  0x40 */\n      0x40\n        /* \"@openzeppelin/contracts/token/ERC20/utils/SafeERC20.sol\":8711:8722  mload(0x40) */\n      mload\n        /* \"@openzeppelin/contracts/token/ERC20/utils/SafeERC20.sol\":8762:8778  returndatasize() */\n      returndatasize\n        /* \"@openzeppelin/contracts/token/ERC20/utils/SafeERC20.sol\":8759:8760  0 */\n      0x00\n        /* \"@openzeppelin/contracts/token/ERC20/utils/SafeERC20.sol\":8754:8757  ptr */\n      dup3\n        /* \"@openzeppelin/contracts/token/ERC20/utils/SafeERC20.sol\":8739:8779  returndatacopy(ptr, 0, returndatasize()) */\n      returndatacopy\n        /* \"@openzeppelin/contracts/token/ERC20/utils/SafeERC20.sol\":8808:8824  returndatasize() */\n      returndatasize\n        /* \"@openzeppelin/contracts/token/ERC20/utils/SafeERC20.sol\":8803:8806  ptr */\n      dup2\n        /* \"@openzeppelin/contracts/token/ERC20/utils/SafeERC20.sol\":8796:8825  revert(ptr, returndatasize()) */\n      revert\n        /* \"@openzeppelin/contracts/token/ERC20/utils/SafeERC20.sol\":8663:8839  if iszero(success) {... */\n    tag_227:\n        /* \"@openzeppelin/contracts/token/ERC20/utils/SafeERC20.sol\":8866:8882  returndatasize() */\n      returndatasize\n        /* \"@openzeppelin/contracts/token/ERC20/utils/SafeERC20.sol\":8852:8882  returnSize := returndatasize() */\n      swap3\n      pop\n        /* \"@openzeppelin/contracts/token/ERC20/utils/SafeERC20.sol\":8916:8917  0 */\n      0x00\n        /* \"@openzeppelin/contracts/token/ERC20/utils/SafeERC20.sol\":8910:8918  mload(0) */\n      mload\n        /* \"@openzeppelin/contracts/token/ERC20/utils/SafeERC20.sol\":8895:8918  returnValue := mload(0) */\n      swap2\n      pop\n        /* \"@openzeppelin/contracts/token/ERC20/utils/SafeERC20.sol\":8532:8928  {... */\n      pop\n        /* \"@openzeppelin/contracts/token/ERC20/utils/SafeERC20.sol\":8956:8957  0 */\n      0x00\n        /* \"@openzeppelin/contracts/token/ERC20/utils/SafeERC20.sol\":8942:8952  returnSize */\n      dup3\n        /* \"@openzeppelin/contracts/token/ERC20/utils/SafeERC20.sol\":8942:8957  returnSize == 0 */\n      eq\n        /* \"@openzeppelin/contracts/token/ERC20/utils/SafeERC20.sol\":8942:9010  returnSize == 0 ? address(token).code.length == 0 : returnValue != 1 */\n      tag_228\n      jumpi\n        /* \"@openzeppelin/contracts/token/ERC20/utils/SafeERC20.sol\":9009:9010  1 */\n      0x01\n        /* \"@openzeppelin/contracts/token/ERC20/utils/SafeERC20.sol\":8994:9005  returnValue */\n      dup2\n        /* \"@openzeppelin/contracts/token/ERC20/utils/SafeERC20.sol\":8994:9010  returnValue != 1 */\n      eq\n      iszero\n        /* \"@openzeppelin/contracts/token/ERC20/utils/SafeERC20.sol\":8942:9010  returnSize == 0 ? address(token).code.length == 0 : returnValue != 1 */\n      jump(tag_229)\n    tag_228:\n        /* \"@openzeppelin/contracts/token/ERC20/utils/SafeERC20.sol\":8990:8991  0 */\n      0x00\n        /* \"@openzeppelin/contracts/token/ERC20/utils/SafeERC20.sol\":8968:8973  token */\n      dup5\n        /* \"@openzeppelin/contracts/token/ERC20/utils/SafeERC20.sol\":8960:8986  address(token).code.length */\n      0xffffffffffffffffffffffffffffffffffffffff\n      and\n      extcodesize\n        /* \"@openzeppelin/contracts/token/ERC20/utils/SafeERC20.sol\":8960:8991  address(token).code.length == 0 */\n      eq\n        /* \"@openzeppelin/contracts/token/ERC20/utils/SafeERC20.sol\":8942:9010  returnSize == 0 ? address(token).code.length == 0 : returnValue != 1 */\n    tag_229:\n        /* \"@openzeppelin/contracts/token/ERC20/utils/SafeERC20.sol\":8938:9084  if (returnSize == 0 ? address(token).code.length == 0 : returnValue != 1) {... */\n      iszero\n      tag_230\n      jumpi\n        /* \"@openzeppelin/contracts/token/ERC20/utils/SafeERC20.sol\":9066:9071  token */\n      dup4\n        /* \"@openzeppelin/contracts/token/ERC20/utils/SafeERC20.sol\":9033:9073  SafeERC20FailedOperation(address(token)) */\n      mload(0x40)\n      0x5274afe700000000000000000000000000000000000000000000000000000000\n      dup2\n      mstore\n      0x04\n      add\n      tag_231\n      swap2\n      swap1\n      tag_24\n      jump\t// in\n    tag_231:\n      mload(0x40)\n      dup1\n      swap2\n      sub\n      swap1\n      revert\n        /* \"@openzeppelin/contracts/token/ERC20/utils/SafeERC20.sol\":8938:9084  if (returnSize == 0 ? address(token).code.length == 0 : returnValue != 1) {... */\n    tag_230:\n        /* \"@openzeppelin/contracts/token/ERC20/utils/SafeERC20.sol\":8440:9090  {... */\n      pop\n      pop\n        /* \"@openzeppelin/contracts/token/ERC20/utils/SafeERC20.sol\":8370:9090  function _callOptionalReturn(IERC20 token, bytes memory data) private {... */\n      pop\n      pop\n      jump\t// out\n        /* \"@openzeppelin/contracts/utils/Context.sol\":656:752  function _msgSender() internal view virtual returns (address) {... */\n    tag_164:\n        /* \"@openzeppelin/contracts/utils/Context.sol\":709:716  address */\n      0x00\n        /* \"@openzeppelin/contracts/utils/Context.sol\":735:745  msg.sender */\n      caller\n        /* \"@openzeppelin/contracts/utils/Context.sol\":728:745  return msg.sender */\n      swap1\n      pop\n        /* \"@openzeppelin/contracts/utils/Context.sol\":656:752  function _msgSender() internal view virtual returns (address) {... */\n      swap1\n      jump\t// out\n        /* \"@openzeppelin/contracts/security/ReentrancyGuard.sol\":2336:2623  function _nonReentrantBefore() private {... */\n    tag_172:\n        /* \"@openzeppelin/contracts/security/ReentrancyGuard.sol\":1759:1760  2 */\n      0x02\n        /* \"@openzeppelin/contracts/security/ReentrancyGuard.sol\":2468:2475  _status */\n      sload(0x00)\n        /* \"@openzeppelin/contracts/security/ReentrancyGuard.sol\":2468:2487  _status != _ENTERED */\n      sub\n        /* \"@openzeppelin/contracts/security/ReentrancyGuard.sol\":2460:2523  require(_status != _ENTERED, \"ReentrancyGuard: reentrant call\") */\n      tag_234\n      jumpi\n      mload(0x40)\n      0x08c379a000000000000000000000000000000000000000000000000000000000\n      dup2\n      mstore\n      0x04\n      add\n      tag_235\n      swap1\n      tag_236\n      jump\t// in\n    tag_235:\n      mload(0x40)\n      dup1\n      swap2\n      sub\n      swap1\n      revert\n    tag_234:\n        /* \"@openzeppelin/contracts/security/ReentrancyGuard.sol\":1759:1760  2 */\n      0x02\n        /* \"@openzeppelin/contracts/security/ReentrancyGuard.sol\":2598:2605  _status */\n      0x00\n        /* \"@openzeppelin/contracts/security/ReentrancyGuard.sol\":2598:2616  _status = _ENTERED */\n      dup2\n      swap1\n      sstore\n      pop\n        /* \"@openzeppelin/contracts/security/ReentrancyGuard.sol\":2336:2623  function _nonReentrantBefore() private {... */\n      jump\t// out\n        /* \"@openzeppelin/contracts/security/ReentrancyGuard.sol\":2629:2838  function _nonReentrantAfter() private {... */\n    tag_197:\n        /* \"@openzeppelin/contracts/security/ReentrancyGuard.sol\":1716:1717  1 */\n      0x01\n        /* \"@openzeppelin/contracts/security/ReentrancyGuard.sol\":2809:2816  _status */\n      0x00\n        /* \"@openzeppelin/contracts/security/ReentrancyGuard.sol\":2809:2831  _status = _NOT_ENTERED */\n      dup2\n      swap1\n      sstore\n      pop\n        /* \"@openzeppelin/contracts/security/ReentrancyGuard.sol\":2629:2838  function _nonReentrantAfter() private {... */\n      jump\t// out\n        /* \"@openzeppelin/contracts/token/ERC20/utils/SafeERC20.sol\":1219:1379  function safeTransfer(IERC20 token, address to, uint256 value) internal {... */\n    tag_214:\n        /* \"@openzeppelin/contracts/token/ERC20/utils/SafeERC20.sol\":1301:1372  _callOptionalReturn(token, abi.encodeCall(token.transfer, (to, value))) */\n      tag_239\n        /* \"@openzeppelin/contracts/token/ERC20/utils/SafeERC20.sol\":1321:1326  token */\n      dup4\n        /* \"@openzeppelin/contracts/token/ERC20/utils/SafeERC20.sol\":1343:1348  token */\n      dup5\n        /* \"@openzeppelin/contracts/token/ERC20/utils/SafeERC20.sol\":1343:1357  token.transfer */\n      0xffffffffffffffffffffffffffffffffffffffff\n      and\n      0xa9059cbb\n        /* \"@openzeppelin/contracts/token/ERC20/utils/SafeERC20.sol\":1360:1362  to */\n      dup6\n        /* \"@openzeppelin/contracts/token/ERC20/utils/SafeERC20.sol\":1364:1369  value */\n      dup6\n        /* \"@openzeppelin/contracts/token/ERC20/utils/SafeERC20.sol\":1328:1371  abi.encodeCall(token.transfer, (to, value)) */\n      add(0x24, mload(0x40))\n      tag_240\n      swap3\n      swap2\n      swap1\n      tag_106\n      jump\t// in\n    tag_240:\n      mload(0x40)\n      0x20\n      dup2\n      dup4\n      sub\n      sub\n      dup2\n      mstore\n      swap1\n      0x40\n      mstore\n      swap2\n      pop\n      0xe0\n      shl\n      0x20\n      dup3\n      add\n      dup1\n      mload\n      0xffffffffffffffffffffffffffffffffffffffffffffffffffffffff\n      dup4\n      dup2\n      dup4\n      and\n      or\n      dup4\n      mstore\n      pop\n      pop\n      pop\n      pop\n        /* \"@openzeppelin/contracts/token/ERC20/utils/SafeERC20.sol\":1301:1320  _callOptionalReturn */\n      tag_161\n        /* \"@openzeppelin/contracts/token/ERC20/utils/SafeERC20.sol\":1301:1372  _callOptionalReturn(token, abi.encodeCall(token.transfer, (to, value))) */\n      jump\t// in\n    tag_239:\n        /* \"@openzeppelin/contracts/token/ERC20/utils/SafeERC20.sol\":1219:1379  function safeTransfer(IERC20 token, address to, uint256 value) internal {... */\n      pop\n      pop\n      pop\n      jump\t// out\n        /* \"#utility.yul\":7:133   */\n    tag_241:\n        /* \"#utility.yul\":44:51   */\n      0x00\n        /* \"#utility.yul\":84:126   */\n      0xffffffffffffffffffffffffffffffffffffffff\n        /* \"#utility.yul\":77:82   */\n      dup3\n        /* \"#utility.yul\":73:127   */\n      and\n        /* \"#utility.yul\":62:127   */\n      swap1\n      pop\n        /* \"#utility.yul\":7:133   */\n      swap2\n      swap1\n      pop\n      jump\t// out\n        /* \"#utility.yul\":139:235   */\n    tag_242:\n        /* \"#utility.yul\":176:183   */\n      0x00\n        /* \"#utility.yul\":205:229   */\n      tag_276\n        /* \"#utility.yul\":223:228   */\n      dup3\n        /* \"#utility.yul\":205:229   */\n      tag_241\n      jump\t// in\n    tag_276:\n        /* \"#utility.yul\":194:229   */\n      swap1\n      pop\n        /* \"#utility.yul\":139:235   */\n      swap2\n      swap1\n      pop\n      jump\t// out\n        /* \"#utility.yul\":241:359   */\n    tag_243:\n        /* \"#utility.yul\":328:352   */\n      tag_278\n        /* \"#utility.yul\":346:351   */\n      dup2\n        /* \"#utility.yul\":328:352   */\n      tag_242\n      jump\t// in\n    tag_278:\n        /* \"#utility.yul\":323:326   */\n      dup3\n        /* \"#utility.yul\":316:353   */\n      mstore\n        /* \"#utility.yul\":241:359   */\n      pop\n      pop\n      jump\t// out\n        /* \"#utility.yul\":365:587   */\n    tag_24:\n        /* \"#utility.yul\":458:462   */\n      0x00\n        /* \"#utility.yul\":496:498   */\n      0x20\n        /* \"#utility.yul\":485:494   */\n      dup3\n        /* \"#utility.yul\":481:499   */\n      add\n        /* \"#utility.yul\":473:499   */\n      swap1\n      pop\n        /* \"#utility.yul\":509:580   */\n      tag_280\n        /* \"#utility.yul\":577:578   */\n      0x00\n        /* \"#utility.yul\":566:575   */\n      dup4\n        /* \"#utility.yul\":562:579   */\n      add\n        /* \"#utility.yul\":553:559   */\n      dup5\n        /* \"#utility.yul\":509:580   */\n      tag_243\n      jump\t// in\n    tag_280:\n        /* \"#utility.yul\":365:587   */\n      swap3\n      swap2\n      pop\n      pop\n      jump\t// out\n        /* \"#utility.yul\":593:670   */\n    tag_244:\n        /* \"#utility.yul\":630:637   */\n      0x00\n        /* \"#utility.yul\":659:664   */\n      dup2\n        /* \"#utility.yul\":648:664   */\n      swap1\n      pop\n        /* \"#utility.yul\":593:670   */\n      swap2\n      swap1\n      pop\n      jump\t// out\n        /* \"#utility.yul\":676:794   */\n    tag_245:\n        /* \"#utility.yul\":763:787   */\n      tag_283\n        /* \"#utility.yul\":781:786   */\n      dup2\n        /* \"#utility.yul\":763:787   */\n      tag_244\n      jump\t// in\n    tag_283:\n        /* \"#utility.yul\":758:761   */\n      dup3\n        /* \"#utility.yul\":751:788   */\n      mstore\n        /* \"#utility.yul\":676:794   */\n      pop\n      pop\n      jump\t// out\n        /* \"#utility.yul\":800:1022   */\n    tag_34:\n        /* \"#utility.yul\":893:897   */\n      0x00\n        /* \"#utility.yul\":931:933   */\n      0x20\n        /* \"#utility.yul\":920:929   */\n      dup3\n        /* \"#utility.yul\":916:934   */\n      add\n        /* \"#utility.yul\":908:934   */\n      swap1\n      pop\n        /* \"#utility.yul\":944:1015   */\n      tag_285\n        /* \"#utility.yul\":1012:1013   */\n      0x00\n        /* \"#utility.yul\":1001:1010   */\n      dup4\n        /* \"#utility.yul\":997:1014   */\n      add\n        /* \"#utility.yul\":988:994   */\n      dup5\n        /* \"#utility.yul\":944:1015   */\n      tag_245\n      jump\t// in\n    tag_285:\n        /* \"#utility.yul\":800:1022   */\n      swap3\n      swap2\n      pop\n      pop\n      jump\t// out\n        /* \"#utility.yul\":1109:1226   */\n    tag_247:\n        /* \"#utility.yul\":1218:1219   */\n      0x00\n        /* \"#utility.yul\":1215:1216   */\n      0x00\n        /* \"#utility.yul\":1208:1220   */\n      revert\n        /* \"#utility.yul\":1355:1477   */\n    tag_249:\n        /* \"#utility.yul\":1428:1452   */\n      tag_290\n        /* \"#utility.yul\":1446:1451   */\n      dup2\n        /* \"#utility.yul\":1428:1452   */\n      tag_244\n      jump\t// in\n    tag_290:\n        /* \"#utility.yul\":1421:1426   */\n      dup2\n        /* \"#utility.yul\":1418:1453   */\n      eq\n        /* \"#utility.yul\":1408:1471   */\n      tag_291\n      jumpi\n        /* \"#utility.yul\":1467:1468   */\n      0x00\n        /* \"#utility.yul\":1464:1465   */\n      0x00\n        /* \"#utility.yul\":1457:1469   */\n      revert\n        /* \"#utility.yul\":1408:1471   */\n    tag_291:\n        /* \"#utility.yul\":1355:1477   */\n      pop\n      jump\t// out\n        /* \"#utility.yul\":1483:1622   */\n    tag_250:\n        /* \"#utility.yul\":1529:1534   */\n      0x00\n        /* \"#utility.yul\":1567:1573   */\n      dup2\n        /* \"#utility.yul\":1554:1574   */\n      calldataload\n        /* \"#utility.yul\":1545:1574   */\n      swap1\n      pop\n        /* \"#utility.yul\":1583:1616   */\n      tag_293\n        /* \"#utility.yul\":1610:1615   */\n      dup2\n        /* \"#utility.yul\":1583:1616   */\n      tag_249\n      jump\t// in\n    tag_293:\n        /* \"#utility.yul\":1483:1622   */\n      swap3\n      swap2\n      pop\n      pop\n      jump\t// out\n        /* \"#utility.yul\":1628:1957   */\n    tag_38:\n        /* \"#utility.yul\":1687:1693   */\n      0x00\n        /* \"#utility.yul\":1736:1738   */\n      0x20\n        /* \"#utility.yul\":1724:1733   */\n      dup3\n        /* \"#utility.yul\":1715:1722   */\n      dup5\n        /* \"#utility.yul\":1711:1734   */\n      sub\n        /* \"#utility.yul\":1707:1739   */\n      slt\n        /* \"#utility.yul\":1704:1823   */\n      iszero\n      tag_295\n      jumpi\n        /* \"#utility.yul\":1742:1821   */\n      tag_296\n      tag_247\n      jump\t// in\n    tag_296:\n        /* \"#utility.yul\":1704:1823   */\n    tag_295:\n        /* \"#utility.yul\":1862:1863   */\n      0x00\n        /* \"#utility.yul\":1887:1940   */\n      tag_297\n        /* \"#utility.yul\":1932:1939   */\n      dup5\n        /* \"#utility.yul\":1923:1929   */\n      dup3\n        /* \"#utility.yul\":1912:1921   */\n      dup6\n        /* \"#utility.yul\":1908:1930   */\n      add\n        /* \"#utility.yul\":1887:1940   */\n      tag_250\n      jump\t// in\n    tag_297:\n        /* \"#utility.yul\":1877:1940   */\n      swap2\n      pop\n        /* \"#utility.yul\":1833:1950   */\n      pop\n        /* \"#utility.yul\":1628:1957   */\n      swap3\n      swap2\n      pop\n      pop\n      jump\t// out\n        /* \"#utility.yul\":1963:2023   */\n    tag_251:\n        /* \"#utility.yul\":1991:1994   */\n      0x00\n        /* \"#utility.yul\":2012:2017   */\n      dup2\n        /* \"#utility.yul\":2005:2017   */\n      swap1\n      pop\n        /* \"#utility.yul\":1963:2023   */\n      swap2\n      swap1\n      pop\n      jump\t// out\n        /* \"#utility.yul\":2029:2171   */\n    tag_252:\n        /* \"#utility.yul\":2079:2088   */\n      0x00\n        /* \"#utility.yul\":2112:2165   */\n      tag_300\n        /* \"#utility.yul\":2130:2164   */\n      tag_301\n        /* \"#utility.yul\":2139:2163   */\n      tag_302\n        /* \"#utility.yul\":2157:2162   */\n      dup5\n        /* \"#utility.yul\":2139:2163   */\n      tag_241\n      jump\t// in\n    tag_302:\n        /* \"#utility.yul\":2130:2164   */\n      tag_251\n      jump\t// in\n    tag_301:\n        /* \"#utility.yul\":2112:2165   */\n      tag_241\n      jump\t// in\n    tag_300:\n        /* \"#utility.yul\":2099:2165   */\n      swap1\n      pop\n        /* \"#utility.yul\":2029:2171   */\n      swap2\n      swap1\n      pop\n      jump\t// out\n        /* \"#utility.yul\":2177:2303   */\n    tag_253:\n        /* \"#utility.yul\":2227:2236   */\n      0x00\n        /* \"#utility.yul\":2260:2297   */\n      tag_304\n        /* \"#utility.yul\":2291:2296   */\n      dup3\n        /* \"#utility.yul\":2260:2297   */\n      tag_252\n      jump\t// in\n    tag_304:\n        /* \"#utility.yul\":2247:2297   */\n      swap1\n      pop\n        /* \"#utility.yul\":2177:2303   */\n      swap2\n      swap1\n      pop\n      jump\t// out\n        /* \"#utility.yul\":2309:2463   */\n    tag_254:\n        /* \"#utility.yul\":2387:2396   */\n      0x00\n        /* \"#utility.yul\":2420:2457   */\n      tag_306\n        /* \"#utility.yul\":2451:2456   */\n      dup3\n        /* \"#utility.yul\":2420:2457   */\n      tag_253\n      jump\t// in\n    tag_306:\n        /* \"#utility.yul\":2407:2457   */\n      swap1\n      pop\n        /* \"#utility.yul\":2309:2463   */\n      swap2\n      swap1\n      pop\n      jump\t// out\n        /* \"#utility.yul\":2469:2656   */\n    tag_255:\n        /* \"#utility.yul\":2584:2649   */\n      tag_308\n        /* \"#utility.yul\":2643:2648   */\n      dup2\n        /* \"#utility.yul\":2584:2649   */\n      tag_254\n      jump\t// in\n    tag_308:\n        /* \"#utility.yul\":2579:2582   */\n      dup3\n        /* \"#utility.yul\":2572:2650   */\n      mstore\n        /* \"#utility.yul\":2469:2656   */\n      pop\n      pop\n      jump\t// out\n        /* \"#utility.yul\":2662:2940   */\n    tag_51:\n        /* \"#utility.yul\":2783:2787   */\n      0x00\n        /* \"#utility.yul\":2821:2823   */\n      0x20\n        /* \"#utility.yul\":2810:2819   */\n      dup3\n        /* \"#utility.yul\":2806:2824   */\n      add\n        /* \"#utility.yul\":2798:2824   */\n      swap1\n      pop\n        /* \"#utility.yul\":2834:2933   */\n      tag_310\n        /* \"#utility.yul\":2930:2931   */\n      0x00\n        /* \"#utility.yul\":2919:2928   */\n      dup4\n        /* \"#utility.yul\":2915:2932   */\n      add\n        /* \"#utility.yul\":2906:2912   */\n      dup5\n        /* \"#utility.yul\":2834:2933   */\n      tag_255\n      jump\t// in\n    tag_310:\n        /* \"#utility.yul\":2662:2940   */\n      swap3\n      swap2\n      pop\n      pop\n      jump\t// out\n        /* \"#utility.yul\":2946:3068   */\n    tag_256:\n        /* \"#utility.yul\":3019:3043   */\n      tag_312\n        /* \"#utility.yul\":3037:3042   */\n      dup2\n        /* \"#utility.yul\":3019:3043   */\n      tag_242\n      jump\t// in\n    tag_312:\n        /* \"#utility.yul\":3012:3017   */\n      dup2\n        /* \"#utility.yul\":3009:3044   */\n      eq\n        /* \"#utility.yul\":2999:3062   */\n      tag_313\n      jumpi\n        /* \"#utility.yul\":3058:3059   */\n      0x00\n        /* \"#utility.yul\":3055:3056   */\n      0x00\n        /* \"#utility.yul\":3048:3060   */\n      revert\n        /* \"#utility.yul\":2999:3062   */\n    tag_313:\n        /* \"#utility.yul\":2946:3068   */\n      pop\n      jump\t// out\n        /* \"#utility.yul\":3074:3213   */\n    tag_257:\n        /* \"#utility.yul\":3120:3125   */\n      0x00\n        /* \"#utility.yul\":3158:3164   */\n      dup2\n        /* \"#utility.yul\":3145:3165   */\n      calldataload\n        /* \"#utility.yul\":3136:3165   */\n      swap1\n      pop\n        /* \"#utility.yul\":3174:3207   */\n      tag_315\n        /* \"#utility.yul\":3201:3206   */\n      dup2\n        /* \"#utility.yul\":3174:3207   */\n      tag_256\n      jump\t// in\n    tag_315:\n        /* \"#utility.yul\":3074:3213   */\n      swap3\n      swap2\n      pop\n      pop\n      jump\t// out\n        /* \"#utility.yul\":3219:3548   */\n    tag_59:\n        /* \"#utility.yul\":3278:3284   */\n      0x00\n        /* \"#utility.yul\":3327:3329   */\n      0x20\n        /* \"#utility.yul\":3315:3324   */\n      dup3\n        /* \"#utility.yul\":3306:3313   */\n      dup5\n        /* \"#utility.yul\":3302:3325   */\n      sub\n        /* \"#utility.yul\":3298:3330   */\n      slt\n        /* \"#utility.yul\":3295:3414   */\n      iszero\n      tag_317\n      jumpi\n        /* \"#utility.yul\":3333:3412   */\n      tag_318\n      tag_247\n      jump\t// in\n    tag_318:\n        /* \"#utility.yul\":3295:3414   */\n    tag_317:\n        /* \"#utility.yul\":3453:3454   */\n      0x00\n        /* \"#utility.yul\":3478:3531   */\n      tag_319\n        /* \"#utility.yul\":3523:3530   */\n      dup5\n        /* \"#utility.yul\":3514:3520   */\n      dup3\n        /* \"#utility.yul\":3503:3512   */\n      dup6\n        /* \"#utility.yul\":3499:3521   */\n      add\n        /* \"#utility.yul\":3478:3531   */\n      tag_257\n      jump\t// in\n    tag_319:\n        /* \"#utility.yul\":3468:3531   */\n      swap2\n      pop\n        /* \"#utility.yul\":3424:3541   */\n      pop\n        /* \"#utility.yul\":3219:3548   */\n      swap3\n      swap2\n      pop\n      pop\n      jump\t// out\n        /* \"#utility.yul\":3554:3734   */\n    tag_258:\n        /* \"#utility.yul\":3602:3679   */\n      0x4e487b7100000000000000000000000000000000000000000000000000000000\n        /* \"#utility.yul\":3599:3600   */\n      0x00\n        /* \"#utility.yul\":3592:3680   */\n      mstore\n        /* \"#utility.yul\":3699:3703   */\n      0x11\n        /* \"#utility.yul\":3696:3697   */\n      0x04\n        /* \"#utility.yul\":3689:3704   */\n      mstore\n        /* \"#utility.yul\":3723:3727   */\n      0x24\n        /* \"#utility.yul\":3720:3721   */\n      0x00\n        /* \"#utility.yul\":3713:3728   */\n      revert\n        /* \"#utility.yul\":3740:3931   */\n    tag_95:\n        /* \"#utility.yul\":3780:3783   */\n      0x00\n        /* \"#utility.yul\":3799:3819   */\n      tag_322\n        /* \"#utility.yul\":3817:3818   */\n      dup3\n        /* \"#utility.yul\":3799:3819   */\n      tag_244\n      jump\t// in\n    tag_322:\n        /* \"#utility.yul\":3794:3819   */\n      swap2\n      pop\n        /* \"#utility.yul\":3833:3853   */\n      tag_323\n        /* \"#utility.yul\":3851:3852   */\n      dup4\n        /* \"#utility.yul\":3833:3853   */\n      tag_244\n      jump\t// in\n    tag_323:\n        /* \"#utility.yul\":3828:3853   */\n      swap3\n      pop\n        /* \"#utility.yul\":3876:3877   */\n      dup3\n        /* \"#utility.yul\":3873:3874   */\n      dup3\n        /* \"#utility.yul\":3869:3878   */\n      add\n        /* \"#utility.yul\":3862:3878   */\n      swap1\n      pop\n        /* \"#utility.yul\":3897:3900   */\n      dup1\n        /* \"#utility.yul\":3894:3895   */\n      dup3\n        /* \"#utility.yul\":3891:3901   */\n      gt\n        /* \"#utility.yul\":3888:3924   */\n      iszero\n      tag_324\n      jumpi\n        /* \"#utility.yul\":3904:3922   */\n      tag_325\n      tag_258\n      jump\t// in\n    tag_325:\n        /* \"#utility.yul\":3888:3924   */\n    tag_324:\n        /* \"#utility.yul\":3740:3931   */\n      swap3\n      swap2\n      pop\n      pop\n      jump\t// out\n        /* \"#utility.yul\":3937:4170   */\n    tag_103:\n        /* \"#utility.yul\":3976:3979   */\n      0x00\n        /* \"#utility.yul\":3999:4023   */\n      tag_327\n        /* \"#utility.yul\":4017:4022   */\n      dup3\n        /* \"#utility.yul\":3999:4023   */\n      tag_244\n      jump\t// in\n    tag_327:\n        /* \"#utility.yul\":3990:4023   */\n      swap2\n      pop\n        /* \"#utility.yul\":4045:4111   */\n      0xffffffffffffffffffffffffffffffffffffffffffffffffffffffffffffffff\n        /* \"#utility.yul\":4038:4043   */\n      dup3\n        /* \"#utility.yul\":4035:4112   */\n      sub\n        /* \"#utility.yul\":4032:4135   */\n      tag_328\n      jumpi\n        /* \"#utility.yul\":4115:4133   */\n      tag_329\n      tag_258\n      jump\t// in\n    tag_329:\n        /* \"#utility.yul\":4032:4135   */\n    tag_328:\n        /* \"#utility.yul\":4162:4163   */\n      0x01\n        /* \"#utility.yul\":4155:4160   */\n      dup3\n        /* \"#utility.yul\":4151:4164   */\n      add\n        /* \"#utility.yul\":4144:4164   */\n      swap1\n      pop\n        /* \"#utility.yul\":3937:4170   */\n      swap2\n      swap1\n      pop\n      jump\t// out\n        /* \"#utility.yul\":4176:4508   */\n    tag_106:\n        /* \"#utility.yul\":4297:4301   */\n      0x00\n        /* \"#utility.yul\":4335:4337   */\n      0x40\n        /* \"#utility.yul\":4324:4333   */\n      dup3\n        /* \"#utility.yul\":4320:4338   */\n      add\n        /* \"#utility.yul\":4312:4338   */\n      swap1\n      pop\n        /* \"#utility.yul\":4348:4419   */\n      tag_331\n        /* \"#utility.yul\":4416:4417   */\n      0x00\n        /* \"#utility.yul\":4405:4414   */\n      dup4\n        /* \"#utility.yul\":4401:4418   */\n      add\n        /* \"#utility.yul\":4392:4398   */\n      dup6\n        /* \"#utility.yul\":4348:4419   */\n      tag_243\n      jump\t// in\n    tag_331:\n        /* \"#utility.yul\":4429:4501   */\n      tag_332\n        /* \"#utility.yul\":4497:4499   */\n      0x20\n        /* \"#utility.yul\":4486:4495   */\n      dup4\n        /* \"#utility.yul\":4482:4500   */\n      add\n        /* \"#utility.yul\":4473:4479   */\n      dup5\n        /* \"#utility.yul\":4429:4501   */\n      tag_245\n      jump\t// in\n    tag_332:\n        /* \"#utility.yul\":4176:4508   */\n      swap4\n      swap3\n      pop\n      pop\n      pop\n      jump\t// out\n        /* \"#utility.yul\":4514:4924   */\n    tag_154:\n        /* \"#utility.yul\":4554:4561   */\n      0x00\n        /* \"#utility.yul\":4577:4597   */\n      tag_334\n        /* \"#utility.yul\":4595:4596   */\n      dup3\n        /* \"#utility.yul\":4577:4597   */\n      tag_244\n      jump\t// in\n    tag_334:\n        /* \"#utility.yul\":4572:4597   */\n      swap2\n      pop\n        /* \"#utility.yul\":4611:4631   */\n      tag_335\n        /* \"#utility.yul\":4629:4630   */\n      dup4\n        /* \"#utility.yul\":4611:4631   */\n      tag_244\n      jump\t// in\n    tag_335:\n        /* \"#utility.yul\":4606:4631   */\n      swap3\n      pop\n        /* \"#utility.yul\":4666:4667   */\n      dup3\n        /* \"#utility.yul\":4663:4664   */\n      dup3\n        /* \"#utility.yul\":4659:4668   */\n      mul\n        /* \"#utility.yul\":4688:4718   */\n      tag_336\n        /* \"#utility.yul\":4706:4717   */\n      dup2\n        /* \"#utility.yul\":4688:4718   */\n      tag_244\n      jump\t// in\n    tag_336:\n        /* \"#utility.yul\":4677:4718   */\n      swap2\n      pop\n        /* \"#utility.yul\":4867:4868   */\n      dup3\n        /* \"#utility.yul\":4858:4865   */\n      dup3\n        /* \"#utility.yul\":4854:4869   */\n      div\n        /* \"#utility.yul\":4851:4852   */\n      dup5\n        /* \"#utility.yul\":4848:4870   */\n      eq\n        /* \"#utility.yul\":4828:4829   */\n      dup4\n        /* \"#utility.yul\":4821:4830   */\n      iszero\n        /* \"#utility.yul\":4801:4884   */\n      or\n        /* \"#utility.yul\":4778:4917   */\n      tag_337\n      jumpi\n        /* \"#utility.yul\":4897:4915   */\n      tag_338\n      tag_258\n      jump\t// in\n    tag_338:\n        /* \"#utility.yul\":4778:4917   */\n    tag_337:\n        /* \"#utility.yul\":4562:4924   */\n      pop\n        /* \"#utility.yul\":4514:4924   */\n      swap3\n      swap2\n      pop\n      pop\n      jump\t// out\n        /* \"#utility.yul\":4930:5110   */\n    tag_259:\n        /* \"#utility.yul\":4978:5055   */\n      0x4e487b7100000000000000000000000000000000000000000000000000000000\n        /* \"#utility.yul\":4975:4976   */\n      0x00\n        /* \"#utility.yul\":4968:5056   */\n      mstore\n        /* \"#utility.yul\":5075:5079   */\n      0x12\n        /* \"#utility.yul\":5072:5073   */\n      0x04\n        /* \"#utility.yul\":5065:5080   */\n      mstore\n        /* \"#utility.yul\":5099:5103   */\n      0x24\n        /* \"#utility.yul\":5096:5097   */\n      0x00\n        /* \"#utility.yul\":5089:5104   */\n      revert\n        /* \"#utility.yul\":5116:5301   */\n    tag_156:\n        /* \"#utility.yul\":5156:5157   */\n      0x00\n        /* \"#utility.yul\":5173:5193   */\n      tag_341\n        /* \"#utility.yul\":5191:5192   */\n      dup3\n        /* \"#utility.yul\":5173:5193   */\n      tag_244\n      jump\t// in\n    tag_341:\n        /* \"#utility.yul\":5168:5193   */\n      swap2\n      pop\n        /* \"#utility.yul\":5207:5227   */\n      tag_342\n        /* \"#utility.yul\":5225:5226   */\n      dup4\n        /* \"#utility.yul\":5207:5227   */\n      tag_244\n      jump\t// in\n    tag_342:\n        /* \"#utility.yul\":5202:5227   */\n      swap3\n      pop\n        /* \"#utility.yul\":5246:5247   */\n      dup3\n        /* \"#utility.yul\":5236:5271   */\n      tag_343\n      jumpi\n        /* \"#utility.yul\":5251:5269   */\n      tag_344\n      tag_259\n      jump\t// in\n    tag_344:\n        /* \"#utility.yul\":5236:5271   */\n    tag_343:\n        /* \"#utility.yul\":5293:5294   */\n      dup3\n        /* \"#utility.yul\":5290:5291   */\n      dup3\n        /* \"#utility.yul\":5286:5295   */\n      div\n        /* \"#utility.yul\":5281:5295   */\n      swap1\n      pop\n        /* \"#utility.yul\":5116:5301   */\n      swap3\n      swap2\n      pop\n      pop\n      jump\t// out\n        /* \"#utility.yul\":5307:5749   */\n    tag_160:\n        /* \"#utility.yul\":5456:5460   */\n      0x00\n        /* \"#utility.yul\":5494:5496   */\n      0x60\n        /* \"#utility.yul\":5483:5492   */\n      dup3\n        /* \"#utility.yul\":5479:5497   */\n      add\n        /* \"#utility.yul\":5471:5497   */\n      swap1\n      pop\n        /* \"#utility.yul\":5507:5578   */\n      tag_346\n        /* \"#utility.yul\":5575:5576   */\n      0x00\n        /* \"#utility.yul\":5564:5573   */\n      dup4\n        /* \"#utility.yul\":5560:5577   */\n      add\n        /* \"#utility.yul\":5551:5557   */\n      dup7\n        /* \"#utility.yul\":5507:5578   */\n      tag_243\n      jump\t// in\n    tag_346:\n        /* \"#utility.yul\":5588:5660   */\n      tag_347\n        /* \"#utility.yul\":5656:5658   */\n      0x20\n        /* \"#utility.yul\":5645:5654   */\n      dup4\n        /* \"#utility.yul\":5641:5659   */\n      add\n        /* \"#utility.yul\":5632:5638   */\n      dup6\n        /* \"#utility.yul\":5588:5660   */\n      tag_243\n      jump\t// in\n    tag_347:\n        /* \"#utility.yul\":5670:5742   */\n      tag_348\n        /* \"#utility.yul\":5738:5740   */\n      0x40\n        /* \"#utility.yul\":5727:5736   */\n      dup4\n        /* \"#utility.yul\":5723:5741   */\n      add\n        /* \"#utility.yul\":5714:5720   */\n      dup5\n        /* \"#utility.yul\":5670:5742   */\n      tag_245\n      jump\t// in\n    tag_348:\n        /* \"#utility.yul\":5307:5749   */\n      swap5\n      swap4\n      pop\n      pop\n      pop\n      pop\n      jump\t// out\n        /* \"#utility.yul\":5755:5949   */\n    tag_184:\n        /* \"#utility.yul\":5795:5799   */\n      0x00\n        /* \"#utility.yul\":5815:5835   */\n      tag_350\n        /* \"#utility.yul\":5833:5834   */\n      dup3\n        /* \"#utility.yul\":5815:5835   */\n      tag_244\n      jump\t// in\n    tag_350:\n        /* \"#utility.yul\":5810:5835   */\n      swap2\n      pop\n        /* \"#utility.yul\":5849:5869   */\n      tag_351\n        /* \"#utility.yul\":5867:5868   */\n      dup4\n        /* \"#utility.yul\":5849:5869   */\n      tag_244\n      jump\t// in\n    tag_351:\n        /* \"#utility.yul\":5844:5869   */\n      swap3\n      pop\n        /* \"#utility.yul\":5893:5894   */\n      dup3\n        /* \"#utility.yul\":5890:5891   */\n      dup3\n        /* \"#utility.yul\":5886:5895   */\n      sub\n        /* \"#utility.yul\":5878:5895   */\n      swap1\n      pop\n        /* \"#utility.yul\":5917:5918   */\n      dup2\n        /* \"#utility.yul\":5911:5915   */\n      dup2\n        /* \"#utility.yul\":5908:5919   */\n      gt\n        /* \"#utility.yul\":5905:5942   */\n      iszero\n      tag_352\n      jumpi\n        /* \"#utility.yul\":5922:5940   */\n      tag_353\n      tag_258\n      jump\t// in\n    tag_353:\n        /* \"#utility.yul\":5905:5942   */\n    tag_352:\n        /* \"#utility.yul\":5755:5949   */\n      swap3\n      swap2\n      pop\n      pop\n      jump\t// out\n        /* \"#utility.yul\":5955:6102   */\n    tag_260:\n        /* \"#utility.yul\":6056:6067   */\n      0x00\n        /* \"#utility.yul\":6093:6096   */\n      dup2\n        /* \"#utility.yul\":6078:6096   */\n      swap1\n      pop\n        /* \"#utility.yul\":5955:6102   */\n      swap3\n      swap2\n      pop\n      pop\n      jump\t// out\n        /* \"#utility.yul\":6108:6222   */\n    tag_261:\n      pop\n      jump\t// out\n        /* \"#utility.yul\":6228:6626   */\n    tag_262:\n        /* \"#utility.yul\":6387:6390   */\n      0x00\n        /* \"#utility.yul\":6408:6491   */\n      tag_357\n        /* \"#utility.yul\":6489:6490   */\n      0x00\n        /* \"#utility.yul\":6484:6487   */\n      dup4\n        /* \"#utility.yul\":6408:6491   */\n      tag_260\n      jump\t// in\n    tag_357:\n        /* \"#utility.yul\":6401:6491   */\n      swap2\n      pop\n        /* \"#utility.yul\":6500:6593   */\n      tag_358\n        /* \"#utility.yul\":6589:6592   */\n      dup3\n        /* \"#utility.yul\":6500:6593   */\n      tag_261\n      jump\t// in\n    tag_358:\n        /* \"#utility.yul\":6618:6619   */\n      0x00\n        /* \"#utility.yul\":6613:6616   */\n      dup3\n        /* \"#utility.yul\":6609:6620   */\n      add\n        /* \"#utility.yul\":6602:6620   */\n      swap1\n      pop\n        /* \"#utility.yul\":6228:6626   */\n      swap2\n      swap1\n      pop\n      jump\t// out\n        /* \"#utility.yul\":6632:7011   */\n    tag_190:\n        /* \"#utility.yul\":6816:6819   */\n      0x00\n        /* \"#utility.yul\":6838:6985   */\n      tag_360\n        /* \"#utility.yul\":6981:6984   */\n      dup3\n        /* \"#utility.yul\":6838:6985   */\n      tag_262\n      jump\t// in\n    tag_360:\n        /* \"#utility.yul\":6831:6985   */\n      swap2\n      pop\n        /* \"#utility.yul\":7002:7005   */\n      dup2\n        /* \"#utility.yul\":6995:7005   */\n      swap1\n      pop\n        /* \"#utility.yul\":6632:7011   */\n      swap2\n      swap1\n      pop\n      jump\t// out\n        /* \"#utility.yul\":7017:7122   */\n    tag_263:\n        /* \"#utility.yul\":7053:7060   */\n      0x00\n        /* \"#utility.yul\":7093:7115   */\n      0xffffffffffffffffffff\n        /* \"#utility.yul\":7086:7091   */\n      dup3\n        /* \"#utility.yul\":7082:7116   */\n      and\n        /* \"#utility.yul\":7071:7116   */\n      swap1\n      pop\n        /* \"#utility.yul\":7017:7122   */\n      swap2\n      swap1\n      pop\n      jump\t// out\n        /* \"#utility.yul\":7128:7248   */\n    tag_264:\n        /* \"#utility.yul\":7200:7223   */\n      tag_363\n        /* \"#utility.yul\":7217:7222   */\n      dup2\n        /* \"#utility.yul\":7200:7223   */\n      tag_263\n      jump\t// in\n    tag_363:\n        /* \"#utility.yul\":7193:7198   */\n      dup2\n        /* \"#utility.yul\":7190:7224   */\n      eq\n        /* \"#utility.yul\":7180:7242   */\n      tag_364\n      jumpi\n        /* \"#utility.yul\":7238:7239   */\n      0x00\n        /* \"#utility.yul\":7235:7236   */\n      0x00\n        /* \"#utility.yul\":7228:7240   */\n      revert\n        /* \"#utility.yul\":7180:7242   */\n    tag_364:\n        /* \"#utility.yul\":7128:7248   */\n      pop\n      jump\t// out\n        /* \"#utility.yul\":7254:7395   */\n    tag_265:\n        /* \"#utility.yul\":7310:7315   */\n      0x00\n        /* \"#utility.yul\":7341:7347   */\n      dup2\n        /* \"#utility.yul\":7335:7348   */\n      mload\n        /* \"#utility.yul\":7326:7348   */\n      swap1\n      pop\n        /* \"#utility.yul\":7357:7389   */\n      tag_366\n        /* \"#utility.yul\":7383:7388   */\n      dup2\n        /* \"#utility.yul\":7357:7389   */\n      tag_264\n      jump\t// in\n    tag_366:\n        /* \"#utility.yul\":7254:7395   */\n      swap3\n      swap2\n      pop\n      pop\n      jump\t// out\n        /* \"#utility.yul\":7401:7477   */\n    tag_266:\n        /* \"#utility.yul\":7437:7444   */\n      0x00\n        /* \"#utility.yul\":7466:7471   */\n      dup2\n        /* \"#utility.yul\":7455:7471   */\n      swap1\n      pop\n        /* \"#utility.yul\":7401:7477   */\n      swap2\n      swap1\n      pop\n      jump\t// out\n        /* \"#utility.yul\":7483:7603   */\n    tag_267:\n        /* \"#utility.yul\":7555:7578   */\n      tag_369\n        /* \"#utility.yul\":7572:7577   */\n      dup2\n        /* \"#utility.yul\":7555:7578   */\n      tag_266\n      jump\t// in\n    tag_369:\n        /* \"#utility.yul\":7548:7553   */\n      dup2\n        /* \"#utility.yul\":7545:7579   */\n      eq\n        /* \"#utility.yul\":7535:7597   */\n      tag_370\n      jumpi\n        /* \"#utility.yul\":7593:7594   */\n      0x00\n        /* \"#utility.yul\":7590:7591   */\n      0x00\n        /* \"#utility.yul\":7583:7595   */\n      revert\n        /* \"#utility.yul\":7535:7597   */\n    tag_370:\n        /* \"#utility.yul\":7483:7603   */\n      pop\n      jump\t// out\n        /* \"#utility.yul\":7609:7750   */\n    tag_268:\n        /* \"#utility.yul\":7665:7670   */\n      0x00\n        /* \"#utility.yul\":7696:7702   */\n      dup2\n        /* \"#utility.yul\":7690:7703   */\n      mload\n        /* \"#utility.yul\":7681:7703   */\n      swap1\n      pop\n        /* \"#utility.yul\":7712:7744   */\n      tag_372\n        /* \"#utility.yul\":7738:7743   */\n      dup2\n        /* \"#utility.yul\":7712:7744   */\n      tag_267\n      jump\t// in\n    tag_372:\n        /* \"#utility.yul\":7609:7750   */\n      swap3\n      swap2\n      pop\n      pop\n      jump\t// out\n        /* \"#utility.yul\":7756:7899   */\n    tag_269:\n        /* \"#utility.yul\":7813:7818   */\n      0x00\n        /* \"#utility.yul\":7844:7850   */\n      dup2\n        /* \"#utility.yul\":7838:7851   */\n      mload\n        /* \"#utility.yul\":7829:7851   */\n      swap1\n      pop\n        /* \"#utility.yul\":7860:7893   */\n      tag_374\n        /* \"#utility.yul\":7887:7892   */\n      dup2\n        /* \"#utility.yul\":7860:7893   */\n      tag_249\n      jump\t// in\n    tag_374:\n        /* \"#utility.yul\":7756:7899   */\n      swap3\n      swap2\n      pop\n      pop\n      jump\t// out\n        /* \"#utility.yul\":7905:8876   */\n    tag_220:\n        /* \"#utility.yul\":8008:8014   */\n      0x00\n        /* \"#utility.yul\":8016:8022   */\n      0x00\n        /* \"#utility.yul\":8024:8030   */\n      0x00\n        /* \"#utility.yul\":8032:8038   */\n      0x00\n        /* \"#utility.yul\":8040:8046   */\n      0x00\n        /* \"#utility.yul\":8089:8092   */\n      0xa0\n        /* \"#utility.yul\":8077:8086   */\n      dup7\n        /* \"#utility.yul\":8068:8075   */\n      dup9\n        /* \"#utility.yul\":8064:8087   */\n      sub\n        /* \"#utility.yul\":8060:8093   */\n      slt\n        /* \"#utility.yul\":8057:8177   */\n      iszero\n      tag_376\n      jumpi\n        /* \"#utility.yul\":8096:8175   */\n      tag_377\n      tag_247\n      jump\t// in\n    tag_377:\n        /* \"#utility.yul\":8057:8177   */\n    tag_376:\n        /* \"#utility.yul\":8216:8217   */\n      0x00\n        /* \"#utility.yul\":8241:8304   */\n      tag_378\n        /* \"#utility.yul\":8296:8303   */\n      dup9\n        /* \"#utility.yul\":8287:8293   */\n      dup3\n        /* \"#utility.yul\":8276:8285   */\n      dup10\n        /* \"#utility.yul\":8272:8294   */\n      add\n        /* \"#utility.yul\":8241:8304   */\n      tag_265\n      jump\t// in\n    tag_378:\n        /* \"#utility.yul\":8231:8304   */\n      swap6\n      pop\n        /* \"#utility.yul\":8187:8314   */\n      pop\n        /* \"#utility.yul\":8353:8355   */\n      0x20\n        /* \"#utility.yul\":8379:8442   */\n      tag_379\n        /* \"#utility.yul\":8434:8441   */\n      dup9\n        /* \"#utility.yul\":8425:8431   */\n      dup3\n        /* \"#utility.yul\":8414:8423   */\n      dup10\n        /* \"#utility.yul\":8410:8432   */\n      add\n        /* \"#utility.yul\":8379:8442   */\n      tag_268\n      jump\t// in\n    tag_379:\n        /* \"#utility.yul\":8369:8442   */\n      swap5\n      pop\n        /* \"#utility.yul\":8324:8452   */\n      pop\n        /* \"#utility.yul\":8491:8493   */\n      0x40\n        /* \"#utility.yul\":8517:8581   */\n      tag_380\n        /* \"#utility.yul\":8573:8580   */\n      dup9\n        /* \"#utility.yul\":8564:8570   */\n      dup3\n        /* \"#utility.yul\":8553:8562   */\n      dup10\n        /* \"#utility.yul\":8549:8571   */\n      add\n        /* \"#utility.yul\":8517:8581   */\n      tag_269\n      jump\t// in\n    tag_380:\n        /* \"#utility.yul\":8507:8581   */\n      swap4\n      pop\n        /* \"#utility.yul\":8462:8591   */\n      pop\n        /* \"#utility.yul\":8630:8632   */\n      0x60\n        /* \"#utility.yul\":8656:8720   */\n      tag_381\n        /* \"#utility.yul\":8712:8719   */\n      dup9\n        /* \"#utility.yul\":8703:8709   */\n      dup3\n        /* \"#utility.yul\":8692:8701   */\n      dup10\n        /* \"#utility.yul\":8688:8710   */\n      add\n        /* \"#utility.yul\":8656:8720   */\n      tag_269\n      jump\t// in\n    tag_381:\n        /* \"#utility.yul\":8646:8720   */\n      swap3\n      pop\n        /* \"#utility.yul\":8601:8730   */\n      pop\n        /* \"#utility.yul\":8769:8772   */\n      0x80\n        /* \"#utility.yul\":8796:8859   */\n      tag_382\n        /* \"#utility.yul\":8851:8858   */\n      dup9\n        /* \"#utility.yul\":8842:8848   */\n      dup3\n        /* \"#utility.yul\":8831:8840   */\n      dup10\n        /* \"#utility.yul\":8827:8849   */\n      add\n        /* \"#utility.yul\":8796:8859   */\n      tag_265\n      jump\t// in\n    tag_382:\n        /* \"#utility.yul\":8786:8859   */\n      swap2\n      pop\n        /* \"#utility.yul\":8740:8869   */\n      pop\n        /* \"#utility.yul\":7905:8876   */\n      swap3\n      swap6\n      pop\n      swap3\n      swap6\n      swap1\n      swap4\n      pop\n      jump\t// out\n        /* \"#utility.yul\":8882:9051   */\n    tag_270:\n        /* \"#utility.yul\":8966:8977   */\n      0x00\n        /* \"#utility.yul\":9000:9006   */\n      dup3\n        /* \"#utility.yul\":8995:8998   */\n      dup3\n        /* \"#utility.yul\":8988:9007   */\n      mstore\n        /* \"#utility.yul\":9040:9044   */\n      0x20\n        /* \"#utility.yul\":9035:9038   */\n      dup3\n        /* \"#utility.yul\":9031:9045   */\n      add\n        /* \"#utility.yul\":9016:9045   */\n      swap1\n      pop\n        /* \"#utility.yul\":8882:9051   */\n      swap3\n      swap2\n      pop\n      pop\n      jump\t// out\n        /* \"#utility.yul\":9057:9238   */\n    tag_271:\n        /* \"#utility.yul\":9197:9230   */\n      0x5265656e7472616e637947756172643a207265656e7472616e742063616c6c00\n        /* \"#utility.yul\":9193:9194   */\n      0x00\n        /* \"#utility.yul\":9185:9191   */\n      dup3\n        /* \"#utility.yul\":9181:9195   */\n      add\n        /* \"#utility.yul\":9174:9231   */\n      mstore\n        /* \"#utility.yul\":9057:9238   */\n      pop\n      jump\t// out\n        /* \"#utility.yul\":9244:9610   */\n    tag_272:\n        /* \"#utility.yul\":9386:9389   */\n      0x00\n        /* \"#utility.yul\":9407:9474   */\n      tag_386\n        /* \"#utility.yul\":9471:9473   */\n      0x1f\n        /* \"#utility.yul\":9466:9469   */\n      dup4\n        /* \"#utility.yul\":9407:9474   */\n      tag_270\n      jump\t// in\n    tag_386:\n        /* \"#utility.yul\":9400:9474   */\n      swap2\n      pop\n        /* \"#utility.yul\":9483:9576   */\n      tag_387\n        /* \"#utility.yul\":9572:9575   */\n      dup3\n        /* \"#utility.yul\":9483:9576   */\n      tag_271\n      jump\t// in\n    tag_387:\n        /* \"#utility.yul\":9601:9603   */\n      0x20\n        /* \"#utility.yul\":9596:9599   */\n      dup3\n        /* \"#utility.yul\":9592:9604   */\n      add\n        /* \"#utility.yul\":9585:9604   */\n      swap1\n      pop\n        /* \"#utility.yul\":9244:9610   */\n      swap2\n      swap1\n      pop\n      jump\t// out\n        /* \"#utility.yul\":9616:10035   */\n    tag_236:\n        /* \"#utility.yul\":9782:9786   */\n      0x00\n        /* \"#utility.yul\":9820:9822   */\n      0x20\n        /* \"#utility.yul\":9809:9818   */\n      dup3\n        /* \"#utility.yul\":9805:9823   */\n      add\n        /* \"#utility.yul\":9797:9823   */\n      swap1\n      pop\n        /* \"#utility.yul\":9869:9878   */\n      dup2\n        /* \"#utility.yul\":9863:9867   */\n      dup2\n        /* \"#utility.yul\":9859:9879   */\n      sub\n        /* \"#utility.yul\":9855:9856   */\n      0x00\n        /* \"#utility.yul\":9844:9853   */\n      dup4\n        /* \"#utility.yul\":9840:9857   */\n      add\n        /* \"#utility.yul\":9833:9880   */\n      mstore\n        /* \"#utility.yul\":9897:10028   */\n      tag_389\n        /* \"#utility.yul\":10023:10027   */\n      dup2\n        /* \"#utility.yul\":9897:10028   */\n      tag_272\n      jump\t// in\n    tag_389:\n        /* \"#utility.yul\":9889:10028   */\n      swap1\n      pop\n        /* \"#utility.yul\":9616:10035   */\n      swap2\n      swap1\n      pop\n      jump\t// out\n\n    auxdata: 0xa264697066735822122023f117fa363d84db6bc7724cc6d82fed0268488a62bf4255fb354f47110c4bfc64736f6c634300081e0033\n}\n",
				"bytecode": {
					"linkReferences": {},
					"object": "60e06040525f6003555f6004555f60055534801561001b575f5ffd5b506040516120df3803806120df833981810160405281019061003d91906103e4565b8260015f819055505f73ffffffffffffffffffffffffffffffffffffffff168173ffffffffffffffffffffffffffffffffffffffff16036100b5575f6040517f1e4fbdf70000000000000000000000000000000000000000000000000000000081526004016100ac919061046a565b60405180910390fd5b6100c48161029060201b60201c565b505f850361010957846040517ff1fdfd2b0000000000000000000000000000000000000000000000000000000081526004016101009190610492565b60405180910390fd5b5f840361014d57836040517f5052fe8e0000000000000000000000000000000000000000000000000000000081526004016101449190610492565b60405180910390fd5b848411156101945784846040517f3122626300000000000000000000000000000000000000000000000000000000815260040161018b9291906104ab565b60405180910390fd5b5f73ffffffffffffffffffffffffffffffffffffffff168273ffffffffffffffffffffffffffffffffffffffff16036101cb575f5ffd5b5f73ffffffffffffffffffffffffffffffffffffffff168173ffffffffffffffffffffffffffffffffffffffff1603610202575f5ffd5b8073ffffffffffffffffffffffffffffffffffffffff1660808173ffffffffffffffffffffffffffffffffffffffff16815250508160025f6101000a81548173ffffffffffffffffffffffffffffffffffffffff021916908373ffffffffffffffffffffffffffffffffffffffff1602179055508460c081815250508360a0818152505050505050506104d2565b5f60015f9054906101000a900473ffffffffffffffffffffffffffffffffffffffff1690508160015f6101000a81548173ffffffffffffffffffffffffffffffffffffffff021916908373ffffffffffffffffffffffffffffffffffffffff1602179055508173ffffffffffffffffffffffffffffffffffffffff168173ffffffffffffffffffffffffffffffffffffffff167f8be0079c531659141344cd1fd0a4f28419497f9722a3daafe3b4186f6b6457e060405160405180910390a35050565b5f5ffd5b5f819050919050565b61036981610357565b8114610373575f5ffd5b50565b5f8151905061038481610360565b92915050565b5f73ffffffffffffffffffffffffffffffffffffffff82169050919050565b5f6103b38261038a565b9050919050565b6103c3816103a9565b81146103cd575f5ffd5b50565b5f815190506103de816103ba565b92915050565b5f5f5f5f5f60a086880312156103fd576103fc610353565b5b5f61040a88828901610376565b955050602061041b88828901610376565b945050604061042c888289016103d0565b935050606061043d888289016103d0565b925050608061044e888289016103d0565b9150509295509295909350565b610464816103a9565b82525050565b5f60208201905061047d5f83018461045b565b92915050565b61048c81610357565b82525050565b5f6020820190506104a55f830184610483565b92915050565b5f6040820190506104be5f830185610483565b6104cb6020830184610483565b9392505050565b60805160a05160c051611bb261052d5f395f81816103f5015261064a01525f8181610d13015261109401525f81816106c00152818161082b0152818161098e015281816110fc0152818161122f01526113460152611bb25ff3fe6080604052600436106100eb575f3560e01c80638648840a11610089578063939495bd11610058578063939495bd146102fc578063c6aca33c14610326578063f2fde38b14610350578063f39b1809146103785761012d565b80638648840a146102585780638da5cb5b14610280578063931fb90e146102aa57806393295c1c146102d25761012d565b8063715018a6116100c5578063715018a6146101c6578063779bb136146101dc57806379a823341461020657806382fe54b5146102305761012d565b806316a1930f1461016a5780636900670c14610174578063698b72411461019e5761012d565b3661012d57336040517fe1d158ff0000000000000000000000000000000000000000000000000000000081526004016101249190611686565b60405180910390fd5b336040517fe1d158ff0000000000000000000000000000000000000000000000000000000081526004016101619190611686565b60405180910390fd5b6101726103a2565b005b34801561017f575f5ffd5b506101886105bf565b60405161019591906116b7565b60405180910390f35b3480156101a9575f5ffd5b506101c460048036038101906101bf91906116fe565b610603565b005b3480156101d1575f5ffd5b506101da610874565b005b3480156101e7575f5ffd5b506101f0610887565b6040516101fd91906116b7565b60405180910390f35b348015610211575f5ffd5b5061021a610906565b6040516102279190611784565b60405180910390f35b34801561023b575f5ffd5b50610256600480360381019061025191906116fe565b61092b565b005b348015610263575f5ffd5b5061027e600480360381019061027991906117c7565b610937565b005b34801561028b575f5ffd5b5061029461094b565b6040516102a19190611686565b60405180910390f35b3480156102b5575f5ffd5b506102d060048036038101906102cb91906116fe565b610973565b005b3480156102dd575f5ffd5b506102e661097f565b6040516102f391906116b7565b60405180910390f35b348015610307575f5ffd5b50610310610988565b60405161031d91906116b7565b60405180910390f35b348015610331575f5ffd5b5061033a610a27565b60405161034791906116b7565b60405180910390f35b34801561035b575f5ffd5b50610376600480360381019061037191906117c7565b610a30565b005b348015610383575f5ffd5b5061038c610ab4565b60405161039991906116b7565b60405180910390f35b345f6103ad82610abd565b90505f81036103f357336040517fb2f092310000000000000000000000000000000000000000000000000000000081526004016103ea9190611686565b60405180910390fd5b7f000000000000000000000000000000000000000000000000000000000000000060055482610422919061181f565b111561046557806040517f2900b02c00000000000000000000000000000000000000000000000000000000815260040161045c91906116b7565b60405180910390fd5b5f61046f34610abd565b90503460065f5f73ffffffffffffffffffffffffffffffffffffffff1673ffffffffffffffffffffffffffffffffffffffff1681526020019081526020015f205f3373ffffffffffffffffffffffffffffffffffffffff1673ffffffffffffffffffffffffffffffffffffffff1681526020019081526020015f205f8282546104f8919061181f565b925050819055508060075f3373ffffffffffffffffffffffffffffffffffffffff1673ffffffffffffffffffffffffffffffffffffffff1681526020019081526020015f205f82825461054b919061181f565b9250508190555060035f81548092919061056490611852565b91905055508060055f82825461057a919061181f565b925050819055507f9d15693852bf60dc27bd5aa831d0351359b7d01d428ae1baae11f15cbcfebafd33826040516105b2929190611899565b60405180910390a1505050565b5f60075f3373ffffffffffffffffffffffffffffffffffffffff1673ffffffffffffffffffffffffffffffffffffffff1681526020019081526020015f2054905090565b805f810361064857336040517fb2f0923100000000000000000000000000000000000000000000000000000000815260040161063f9190611686565b60405180910390fd5b7f000000000000000000000000000000000000000000000000000000000000000060055482610677919061181f565b11156106ba57806040517f2900b02c0000000000000000000000000000000000000000000000000000000081526004016106b191906116b7565b60405180910390fd5b8160065f7f000000000000000000000000000000000000000000000000000000000000000073ffffffffffffffffffffffffffffffffffffffff1673ffffffffffffffffffffffffffffffffffffffff1681526020019081526020015f205f3373ffffffffffffffffffffffffffffffffffffffff1673ffffffffffffffffffffffffffffffffffffffff1681526020019081526020015f205f828254610761919061181f565b925050819055508160075f3373ffffffffffffffffffffffffffffffffffffffff1673ffffffffffffffffffffffffffffffffffffffff1681526020019081526020015f205f8282546107b4919061181f565b9250508190555060035f8154809291906107cd90611852565b91905055508160055f8282546107e3919061181f565b925050819055507f9d15693852bf60dc27bd5aa831d0351359b7d01d428ae1baae11f15cbcfebafd338360405161081b929190611899565b60405180910390a16108703330847f000000000000000000000000000000000000000000000000000000000000000073ffffffffffffffffffffffffffffffffffffffff16610aec909392919063ffffffff16565b5050565b61087c610b6e565b6108855f610bf5565b565b5f60065f5f73ffffffffffffffffffffffffffffffffffffffff1673ffffffffffffffffffffffffffffffffffffffff1681526020019081526020015f205f3373ffffffffffffffffffffffffffffffffffffffff1673ffffffffffffffffffffffffffffffffffffffff1681526020019081526020015f2054905090565b60025f9054906101000a900473ffffffffffffffffffffffffffffffffffffffff1681565b61093481610cb8565b50565b61093f610b6e565b61094881610a30565b50565b5f60015f9054906101000a900473ffffffffffffffffffffffffffffffffffffffff16905090565b61097c81611045565b50565b5f600554905090565b5f60065f7f000000000000000000000000000000000000000000000000000000000000000073ffffffffffffffffffffffffffffffffffffffff1673ffffffffffffffffffffffffffffffffffffffff1681526020019081526020015f205f3373ffffffffffffffffffffffffffffffffffffffff1673ffffffffffffffffffffffffffffffffffffffff1681526020019081526020015f2054905090565b5f600454905090565b610a38610b6e565b5f73ffffffffffffffffffffffffffffffffffffffff168173ffffffffffffffffffffffffffffffffffffffff1603610aa8575f6040517f1e4fbdf7000000000000000000000000000000000000000000000000000000008152600401610a9f9190611686565b60405180910390fd5b610ab181610bf5565b50565b5f600354905090565b5f68056bc75e2d63100000610ad0611396565b83610adb91906118c0565b610ae5919061192e565b9050919050565b610b68848573ffffffffffffffffffffffffffffffffffffffff166323b872dd868686604051602401610b219392919061195e565b604051602081830303815290604052915060e01b6020820180517bffffffffffffffffffffffffffffffffffffffffffffffffffffffff83818316178352505050506114d0565b50505050565b610b7661156b565b73ffffffffffffffffffffffffffffffffffffffff16610b9461094b565b73ffffffffffffffffffffffffffffffffffffffff1614610bf357610bb761156b565b6040517f118cdaa7000000000000000000000000000000000000000000000000000000008152600401610bea9190611686565b60405180910390fd5b565b5f60015f9054906101000a900473ffffffffffffffffffffffffffffffffffffffff1690508160015f6101000a81548173ffffffffffffffffffffffffffffffffffffffff021916908373ffffffffffffffffffffffffffffffffffffffff1602179055508173ffffffffffffffffffffffffffffffffffffffff168173ffffffffffffffffffffffffffffffffffffffff167f8be0079c531659141344cd1fd0a4f28419497f9722a3daafe3b4186f6b6457e060405160405180910390a35050565b610cc0611572565b805f610ccb82610abd565b90505f8103610d1157336040517fb2f09231000000000000000000000000000000000000000000000000000000008152600401610d089190611686565b60405180910390fd5b7f0000000000000000000000000000000000000000000000000000000000000000811115610d7657806040517fc3993565000000000000000000000000000000000000000000000000000000008152600401610d6d91906116b7565b60405180910390fd5b60065f5f73ffffffffffffffffffffffffffffffffffffffff1673ffffffffffffffffffffffffffffffffffffffff1681526020019081526020015f205f3373ffffffffffffffffffffffffffffffffffffffff1673ffffffffffffffffffffffffffffffffffffffff1681526020019081526020015f2054821115610e355733816040517f51a73142000000000000000000000000000000000000000000000000000000008152600401610e2c929190611899565b60405180910390fd5b5f610e3f84610abd565b90508060075f3373ffffffffffffffffffffffffffffffffffffffff1673ffffffffffffffffffffffffffffffffffffffff1681526020019081526020015f205f828254610e8d9190611993565b925050819055508360065f5f73ffffffffffffffffffffffffffffffffffffffff1673ffffffffffffffffffffffffffffffffffffffff1681526020019081526020015f205f3373ffffffffffffffffffffffffffffffffffffffff1673ffffffffffffffffffffffffffffffffffffffff1681526020019081526020015f205f828254610f1b9190611993565b9250508190555060045f815480929190610f3490611852565b91905055508060055f828254610f4a9190611993565b925050819055507f9cde449504e4972ffddec09813e0c252a1462d76bef1864b9e7520dadb7183e83382604051610f82929190611899565b60405180910390a15f3373ffffffffffffffffffffffffffffffffffffffff1685604051610faf906119f3565b5f6040518083038185875af1925050503d805f8114610fe9576040519150601f19603f3d011682016040523d82523d5f602084013e610fee565b606091505b50509050806110365733856040517f6c5e1a1400000000000000000000000000000000000000000000000000000000815260040161102d929190611899565b60405180910390fd5b505050506110426115bf565b50565b61104d611572565b805f810361109257336040517fb2f092310000000000000000000000000000000000000000000000000000000081526004016110899190611686565b60405180910390fd5b7f00000000000000000000000000000000000000000000000000000000000000008111156110f757806040517fc39935650000000000000000000000000000000000000000000000000000000081526004016110ee91906116b7565b60405180910390fd5b60065f7f000000000000000000000000000000000000000000000000000000000000000073ffffffffffffffffffffffffffffffffffffffff1673ffffffffffffffffffffffffffffffffffffffff1681526020019081526020015f205f3373ffffffffffffffffffffffffffffffffffffffff1673ffffffffffffffffffffffffffffffffffffffff1681526020019081526020015f20548111156111d65733816040517f51a731420000000000000000000000000000000000000000000000000000000081526004016111cd929190611899565b60405180910390fd5b8160075f3373ffffffffffffffffffffffffffffffffffffffff1673ffffffffffffffffffffffffffffffffffffffff1681526020019081526020015f205f8282546112229190611993565b925050819055508160065f7f000000000000000000000000000000000000000000000000000000000000000073ffffffffffffffffffffffffffffffffffffffff1673ffffffffffffffffffffffffffffffffffffffff1681526020019081526020015f205f3373ffffffffffffffffffffffffffffffffffffffff1673ffffffffffffffffffffffffffffffffffffffff1681526020019081526020015f205f8282546112d09190611993565b9250508190555060045f8154809291906112e990611852565b91905055508160055f8282546112ff9190611993565b925050819055507f9cde449504e4972ffddec09813e0c252a1462d76bef1864b9e7520dadb7183e83383604051611337929190611899565b60405180910390a161138a33837f000000000000000000000000000000000000000000000000000000000000000073ffffffffffffffffffffffffffffffffffffffff166115c89092919063ffffffff16565b506113936115bf565b50565b5f5f5f60025f9054906101000a900473ffffffffffffffffffffffffffffffffffffffff1673ffffffffffffffffffffffffffffffffffffffff1663feaf968c6040518163ffffffff1660e01b815260040160a060405180830381865afa158015611403573d5f5f3e3d5ffd5b505050506040513d601f19601f820116820180604052508101906114279190611a8d565b509350509250505f820361147257816040517f3654402900000000000000000000000000000000000000000000000000000000815260040161146991906116b7565b60405180910390fd5b610e1061ffff1681426114859190611993565b11156114c857816040517f2609a2650000000000000000000000000000000000000000000000000000000081526004016114bf91906116b7565b60405180910390fd5b819250505090565b5f5f60205f8451602086015f885af1806114ef576040513d5f823e3d81fd5b3d92505f519150505f8214611508576001811415611523565b5f8473ffffffffffffffffffffffffffffffffffffffff163b145b1561156557836040517f5274afe700000000000000000000000000000000000000000000000000000000815260040161155c9190611686565b60405180910390fd5b50505050565b5f33905090565b60025f54036115b6576040517f08c379a00000000000000000000000000000000000000000000000000000000081526004016115ad90611b5e565b60405180910390fd5b60025f81905550565b60015f81905550565b611642838473ffffffffffffffffffffffffffffffffffffffff1663a9059cbb85856040516024016115fb929190611899565b604051602081830303815290604052915060e01b6020820180517bffffffffffffffffffffffffffffffffffffffffffffffffffffffff83818316178352505050506114d0565b505050565b5f73ffffffffffffffffffffffffffffffffffffffff82169050919050565b5f61167082611647565b9050919050565b61168081611666565b82525050565b5f6020820190506116995f830184611677565b92915050565b5f819050919050565b6116b18161169f565b82525050565b5f6020820190506116ca5f8301846116a8565b92915050565b5f5ffd5b6116dd8161169f565b81146116e7575f5ffd5b50565b5f813590506116f8816116d4565b92915050565b5f60208284031215611713576117126116d0565b5b5f611720848285016116ea565b91505092915050565b5f819050919050565b5f61174c61174761174284611647565b611729565b611647565b9050919050565b5f61175d82611732565b9050919050565b5f61176e82611753565b9050919050565b61177e81611764565b82525050565b5f6020820190506117975f830184611775565b92915050565b6117a681611666565b81146117b0575f5ffd5b50565b5f813590506117c18161179d565b92915050565b5f602082840312156117dc576117db6116d0565b5b5f6117e9848285016117b3565b91505092915050565b7f4e487b71000000000000000000000000000000000000000000000000000000005f52601160045260245ffd5b5f6118298261169f565b91506118348361169f565b925082820190508082111561184c5761184b6117f2565b5b92915050565b5f61185c8261169f565b91507fffffffffffffffffffffffffffffffffffffffffffffffffffffffffffffffff820361188e5761188d6117f2565b5b600182019050919050565b5f6040820190506118ac5f830185611677565b6118b960208301846116a8565b9392505050565b5f6118ca8261169f565b91506118d58361169f565b92508282026118e38161169f565b915082820484148315176118fa576118f96117f2565b5b5092915050565b7f4e487b71000000000000000000000000000000000000000000000000000000005f52601260045260245ffd5b5f6119388261169f565b91506119438361169f565b92508261195357611952611901565b5b828204905092915050565b5f6060820190506119715f830186611677565b61197e6020830185611677565b61198b60408301846116a8565b949350505050565b5f61199d8261169f565b91506119a88361169f565b92508282039050818111156119c0576119bf6117f2565b5b92915050565b5f81905092915050565b50565b5f6119de5f836119c6565b91506119e9826119d0565b5f82019050919050565b5f6119fd826119d3565b9150819050919050565b5f69ffffffffffffffffffff82169050919050565b611a2581611a07565b8114611a2f575f5ffd5b50565b5f81519050611a4081611a1c565b92915050565b5f819050919050565b611a5881611a46565b8114611a62575f5ffd5b50565b5f81519050611a7381611a4f565b92915050565b5f81519050611a87816116d4565b92915050565b5f5f5f5f5f60a08688031215611aa657611aa56116d0565b5b5f611ab388828901611a32565b9550506020611ac488828901611a65565b9450506040611ad588828901611a79565b9350506060611ae688828901611a79565b9250506080611af788828901611a32565b9150509295509295909350565b5f82825260208201905092915050565b7f5265656e7472616e637947756172643a207265656e7472616e742063616c6c005f82015250565b5f611b48601f83611b04565b9150611b5382611b14565b602082019050919050565b5f6020820190508181035f830152611b7581611b3c565b905091905056fea264697066735822122023f117fa363d84db6bc7724cc6d82fed0268488a62bf4255fb354f47110c4bfc64736f6c634300081e0033",
					"opcodes": "PUSH1 0xE0 PUSH1 0x40 MSTORE PUSH0 PUSH1 0x3 SSTORE PUSH0 PUSH1 0x4 SSTORE PUSH0 PUSH1 0x5 SSTORE CALLVALUE DUP1 ISZERO PUSH2 0x1B JUMPI PUSH0 PUSH0 REVERT JUMPDEST POP PUSH1 0x40 MLOAD PUSH2 0x20DF CODESIZE SUB DUP1 PUSH2 0x20DF DUP4 CODECOPY DUP2 DUP2 ADD PUSH1 0x40 MSTORE DUP2 ADD SWAP1 PUSH2 0x3D SWAP2 SWAP1 PUSH2 0x3E4 JUMP JUMPDEST DUP3 PUSH1 0x1 PUSH0 DUP2 SWAP1 SSTORE POP PUSH0 PUSH20 0xFFFFFFFFFFFFFFFFFFFFFFFFFFFFFFFFFFFFFFFF AND DUP2 PUSH20 0xFFFFFFFFFFFFFFFFFFFFFFFFFFFFFFFFFFFFFFFF AND SUB PUSH2 0xB5 JUMPI PUSH0 PUSH1 0x40 MLOAD PUSH32 0x1E4FBDF700000000000000000000000000000000000000000000000000000000 DUP2 MSTORE PUSH1 0x4 ADD PUSH2 0xAC SWAP2 SWAP1 PUSH2 0x46A JUMP JUMPDEST PUSH1 0x40 MLOAD DUP1 SWAP2 SUB SWAP1 REVERT JUMPDEST PUSH2 0xC4 DUP2 PUSH2 0x290 PUSH1 0x20 SHL PUSH1 0x20 SHR JUMP JUMPDEST POP PUSH0 DUP6 SUB PUSH2 0x109 JUMPI DUP5 PUSH1 0x40 MLOAD PUSH32 0xF1FDFD2B00000000000000000000000000000000000000000000000000000000 DUP2 MSTORE PUSH1 0x4 ADD PUSH2 0x100 SWAP2 SWAP1 PUSH2 0x492 JUMP JUMPDEST PUSH1 0x40 MLOAD DUP1 SWAP2 SUB SWAP1 REVERT JUMPDEST PUSH0 DUP5 SUB PUSH2 0x14D JUMPI DUP4 PUSH1 0x40 MLOAD PUSH32 0x5052FE8E00000000000000000000000000000000000000000000000000000000 DUP2 MSTORE PUSH1 0x4 ADD PUSH2 0x144 SWAP2 SWAP1 PUSH2 0x492 JUMP JUMPDEST PUSH1 0x40 MLOAD DUP1 SWAP2 SUB SWAP1 REVERT JUMPDEST DUP5 DUP5 GT ISZERO PUSH2 0x194 JUMPI DUP5 DUP5 PUSH1 0x40 MLOAD PUSH32 0x3122626300000000000000000000000000000000000000000000000000000000 DUP2 MSTORE PUSH1 0x4 ADD PUSH2 0x18B SWAP3 SWAP2 SWAP1 PUSH2 0x4AB JUMP JUMPDEST PUSH1 0x40 MLOAD DUP1 SWAP2 SUB SWAP1 REVERT JUMPDEST PUSH0 PUSH20 0xFFFFFFFFFFFFFFFFFFFFFFFFFFFFFFFFFFFFFFFF AND DUP3 PUSH20 0xFFFFFFFFFFFFFFFFFFFFFFFFFFFFFFFFFFFFFFFF AND SUB PUSH2 0x1CB JUMPI PUSH0 PUSH0 REVERT JUMPDEST PUSH0 PUSH20 0xFFFFFFFFFFFFFFFFFFFFFFFFFFFFFFFFFFFFFFFF AND DUP2 PUSH20 0xFFFFFFFFFFFFFFFFFFFFFFFFFFFFFFFFFFFFFFFF AND SUB PUSH2 0x202 JUMPI PUSH0 PUSH0 REVERT JUMPDEST DUP1 PUSH20 0xFFFFFFFFFFFFFFFFFFFFFFFFFFFFFFFFFFFFFFFF AND PUSH1 0x80 DUP2 PUSH20 0xFFFFFFFFFFFFFFFFFFFFFFFFFFFFFFFFFFFFFFFF AND DUP2 MSTORE POP POP DUP2 PUSH1 0x2 PUSH0 PUSH2 0x100 EXP DUP2 SLOAD DUP2 PUSH20 0xFFFFFFFFFFFFFFFFFFFFFFFFFFFFFFFFFFFFFFFF MUL NOT AND SWAP1 DUP4 PUSH20 0xFFFFFFFFFFFFFFFFFFFFFFFFFFFFFFFFFFFFFFFF AND MUL OR SWAP1 SSTORE POP DUP5 PUSH1 0xC0 DUP2 DUP2 MSTORE POP POP DUP4 PUSH1 0xA0 DUP2 DUP2 MSTORE POP POP POP POP POP POP POP PUSH2 0x4D2 JUMP JUMPDEST PUSH0 PUSH1 0x1 PUSH0 SWAP1 SLOAD SWAP1 PUSH2 0x100 EXP SWAP1 DIV PUSH20 0xFFFFFFFFFFFFFFFFFFFFFFFFFFFFFFFFFFFFFFFF AND SWAP1 POP DUP2 PUSH1 0x1 PUSH0 PUSH2 0x100 EXP DUP2 SLOAD DUP2 PUSH20 0xFFFFFFFFFFFFFFFFFFFFFFFFFFFFFFFFFFFFFFFF MUL NOT AND SWAP1 DUP4 PUSH20 0xFFFFFFFFFFFFFFFFFFFFFFFFFFFFFFFFFFFFFFFF AND MUL OR SWAP1 SSTORE POP DUP2 PUSH20 0xFFFFFFFFFFFFFFFFFFFFFFFFFFFFFFFFFFFFFFFF AND DUP2 PUSH20 0xFFFFFFFFFFFFFFFFFFFFFFFFFFFFFFFFFFFFFFFF AND PUSH32 0x8BE0079C531659141344CD1FD0A4F28419497F9722A3DAAFE3B4186F6B6457E0 PUSH1 0x40 MLOAD PUSH1 0x40 MLOAD DUP1 SWAP2 SUB SWAP1 LOG3 POP POP JUMP JUMPDEST PUSH0 PUSH0 REVERT JUMPDEST PUSH0 DUP2 SWAP1 POP SWAP2 SWAP1 POP JUMP JUMPDEST PUSH2 0x369 DUP2 PUSH2 0x357 JUMP JUMPDEST DUP2 EQ PUSH2 0x373 JUMPI PUSH0 PUSH0 REVERT JUMPDEST POP JUMP JUMPDEST PUSH0 DUP2 MLOAD SWAP1 POP PUSH2 0x384 DUP2 PUSH2 0x360 JUMP JUMPDEST SWAP3 SWAP2 POP POP JUMP JUMPDEST PUSH0 PUSH20 0xFFFFFFFFFFFFFFFFFFFFFFFFFFFFFFFFFFFFFFFF DUP3 AND SWAP1 POP SWAP2 SWAP1 POP JUMP JUMPDEST PUSH0 PUSH2 0x3B3 DUP3 PUSH2 0x38A JUMP JUMPDEST SWAP1 POP SWAP2 SWAP1 POP JUMP JUMPDEST PUSH2 0x3C3 DUP2 PUSH2 0x3A9 JUMP JUMPDEST DUP2 EQ PUSH2 0x3CD JUMPI PUSH0 PUSH0 REVERT JUMPDEST POP JUMP JUMPDEST PUSH0 DUP2 MLOAD SWAP1 POP PUSH2 0x3DE DUP2 PUSH2 0x3BA JUMP JUMPDEST SWAP3 SWAP2 POP POP JUMP JUMPDEST PUSH0 PUSH0 PUSH0 PUSH0 PUSH0 PUSH1 0xA0 DUP7 DUP9 SUB SLT ISZERO PUSH2 0x3FD JUMPI PUSH2 0x3FC PUSH2 0x353 JUMP JUMPDEST JUMPDEST PUSH0 PUSH2 0x40A DUP9 DUP3 DUP10 ADD PUSH2 0x376 JUMP JUMPDEST SWAP6 POP POP PUSH1 0x20 PUSH2 0x41B DUP9 DUP3 DUP10 ADD PUSH2 0x376 JUMP JUMPDEST SWAP5 POP POP PUSH1 0x40 PUSH2 0x42C DUP9 DUP3 DUP10 ADD PUSH2 0x3D0 JUMP JUMPDEST SWAP4 POP POP PUSH1 0x60 PUSH2 0x43D DUP9 DUP3 DUP10 ADD PUSH2 0x3D0 JUMP JUMPDEST SWAP3 POP POP PUSH1 0x80 PUSH2 0x44E DUP9 DUP3 DUP10 ADD PUSH2 0x3D0 JUMP JUMPDEST SWAP2 POP POP SWAP3 SWAP6 POP SWAP3 SWAP6 SWAP1 SWAP4 POP JUMP JUMPDEST PUSH2 0x464 DUP2 PUSH2 0x3A9 JUMP JUMPDEST DUP3 MSTORE POP POP JUMP JUMPDEST PUSH0 PUSH1 0x20 DUP3 ADD SWAP1 POP PUSH2 0x47D PUSH0 DUP4 ADD DUP5 PUSH2 0x45B JUMP JUMPDEST SWAP3 SWAP2 POP POP JUMP JUMPDEST PUSH2 0x48C DUP2 PUSH2 0x357 JUMP JUMPDEST DUP3 MSTORE POP POP JUMP JUMPDEST PUSH0 PUSH1 0x20 DUP3 ADD SWAP1 POP PUSH2 0x4A5 PUSH0 DUP4 ADD DUP5 PUSH2 0x483 JUMP JUMPDEST SWAP3 SWAP2 POP POP JUMP JUMPDEST PUSH0 PUSH1 0x40 DUP3 ADD SWAP1 POP PUSH2 0x4BE PUSH0 DUP4 ADD DUP6 PUSH2 0x483 JUMP JUMPDEST PUSH2 0x4CB PUSH1 0x20 DUP4 ADD DUP5 PUSH2 0x483 JUMP JUMPDEST SWAP4 SWAP3 POP POP POP JUMP JUMPDEST PUSH1 0x80 MLOAD PUSH1 0xA0 MLOAD PUSH1 0xC0 MLOAD PUSH2 0x1BB2 PUSH2 0x52D PUSH0 CODECOPY PUSH0 DUP2 DUP2 PUSH2 0x3F5 ADD MSTORE PUSH2 0x64A ADD MSTORE PUSH0 DUP2 DUP2 PUSH2 0xD13 ADD MSTORE PUSH2 0x1094 ADD MSTORE PUSH0 DUP2 DUP2 PUSH2 0x6C0 ADD MSTORE DUP2 DUP2 PUSH2 0x82B ADD MSTORE DUP2 DUP2 PUSH2 0x98E ADD MSTORE DUP2 DUP2 PUSH2 0x10FC ADD MSTORE DUP2 DUP2 PUSH2 0x122F ADD MSTORE PUSH2 0x1346 ADD MSTORE PUSH2 0x1BB2 PUSH0 RETURN INVALID PUSH1 0x80 PUSH1 0x40 MSTORE PUSH1 0x4 CALLDATASIZE LT PUSH2 0xEB JUMPI PUSH0 CALLDATALOAD PUSH1 0xE0 SHR DUP1 PUSH4 0x8648840A GT PUSH2 0x89 JUMPI DUP1 PUSH4 0x939495BD GT PUSH2 0x58 JUMPI DUP1 PUSH4 0x939495BD EQ PUSH2 0x2FC JUMPI DUP1 PUSH4 0xC6ACA33C EQ PUSH2 0x326 JUMPI DUP1 PUSH4 0xF2FDE38B EQ PUSH2 0x350 JUMPI DUP1 PUSH4 0xF39B1809 EQ PUSH2 0x378 JUMPI PUSH2 0x12D JUMP JUMPDEST DUP1 PUSH4 0x8648840A EQ PUSH2 0x258 JUMPI DUP1 PUSH4 0x8DA5CB5B EQ PUSH2 0x280 JUMPI DUP1 PUSH4 0x931FB90E EQ PUSH2 0x2AA JUMPI DUP1 PUSH4 0x93295C1C EQ PUSH2 0x2D2 JUMPI PUSH2 0x12D JUMP JUMPDEST DUP1 PUSH4 0x715018A6 GT PUSH2 0xC5 JUMPI DUP1 PUSH4 0x715018A6 EQ PUSH2 0x1C6 JUMPI DUP1 PUSH4 0x779BB136 EQ PUSH2 0x1DC JUMPI DUP1 PUSH4 0x79A82334 EQ PUSH2 0x206 JUMPI DUP1 PUSH4 0x82FE54B5 EQ PUSH2 0x230 JUMPI PUSH2 0x12D JUMP JUMPDEST DUP1 PUSH4 0x16A1930F EQ PUSH2 0x16A JUMPI DUP1 PUSH4 0x6900670C EQ PUSH2 0x174 JUMPI DUP1 PUSH4 0x698B7241 EQ PUSH2 0x19E JUMPI PUSH2 0x12D JUMP JUMPDEST CALLDATASIZE PUSH2 0x12D JUMPI CALLER PUSH1 0x40 MLOAD PUSH32 0xE1D158FF00000000000000000000000000000000000000000000000000000000 DUP2 MSTORE PUSH1 0x4 ADD PUSH2 0x124 SWAP2 SWAP1 PUSH2 0x1686 JUMP JUMPDEST PUSH1 0x40 MLOAD DUP1 SWAP2 SUB SWAP1 REVERT JUMPDEST CALLER PUSH1 0x40 MLOAD PUSH32 0xE1D158FF00000000000000000000000000000000000000000000000000000000 DUP2 MSTORE PUSH1 0x4 ADD PUSH2 0x161 SWAP2 SWAP1 PUSH2 0x1686 JUMP JUMPDEST PUSH1 0x40 MLOAD DUP1 SWAP2 SUB SWAP1 REVERT JUMPDEST PUSH2 0x172 PUSH2 0x3A2 JUMP JUMPDEST STOP JUMPDEST CALLVALUE DUP1 ISZERO PUSH2 0x17F JUMPI PUSH0 PUSH0 REVERT JUMPDEST POP PUSH2 0x188 PUSH2 0x5BF JUMP JUMPDEST PUSH1 0x40 MLOAD PUSH2 0x195 SWAP2 SWAP1 PUSH2 0x16B7 JUMP JUMPDEST PUSH1 0x40 MLOAD DUP1 SWAP2 SUB SWAP1 RETURN JUMPDEST CALLVALUE DUP1 ISZERO PUSH2 0x1A9 JUMPI PUSH0 PUSH0 REVERT JUMPDEST POP PUSH2 0x1C4 PUSH1 0x4 DUP1 CALLDATASIZE SUB DUP2 ADD SWAP1 PUSH2 0x1BF SWAP2 SWAP1 PUSH2 0x16FE JUMP JUMPDEST PUSH2 0x603 JUMP JUMPDEST STOP JUMPDEST CALLVALUE DUP1 ISZERO PUSH2 0x1D1 JUMPI PUSH0 PUSH0 REVERT JUMPDEST POP PUSH2 0x1DA PUSH2 0x874 JUMP JUMPDEST STOP JUMPDEST CALLVALUE DUP1 ISZERO PUSH2 0x1E7 JUMPI PUSH0 PUSH0 REVERT JUMPDEST POP PUSH2 0x1F0 PUSH2 0x887 JUMP JUMPDEST PUSH1 0x40 MLOAD PUSH2 0x1FD SWAP2 SWAP1 PUSH2 0x16B7 JUMP JUMPDEST PUSH1 0x40 MLOAD DUP1 SWAP2 SUB SWAP1 RETURN JUMPDEST CALLVALUE DUP1 ISZERO PUSH2 0x211 JUMPI PUSH0 PUSH0 REVERT JUMPDEST POP PUSH2 0x21A PUSH2 0x906 JUMP JUMPDEST PUSH1 0x40 MLOAD PUSH2 0x227 SWAP2 SWAP1 PUSH2 0x1784 JUMP JUMPDEST PUSH1 0x40 MLOAD DUP1 SWAP2 SUB SWAP1 RETURN JUMPDEST CALLVALUE DUP1 ISZERO PUSH2 0x23B JUMPI PUSH0 PUSH0 REVERT JUMPDEST POP PUSH2 0x256 PUSH1 0x4 DUP1 CALLDATASIZE SUB DUP2 ADD SWAP1 PUSH2 0x251 SWAP2 SWAP1 PUSH2 0x16FE JUMP JUMPDEST PUSH2 0x92B JUMP JUMPDEST STOP JUMPDEST CALLVALUE DUP1 ISZERO PUSH2 0x263 JUMPI PUSH0 PUSH0 REVERT JUMPDEST POP PUSH2 0x27E PUSH1 0x4 DUP1 CALLDATASIZE SUB DUP2 ADD SWAP1 PUSH2 0x279 SWAP2 SWAP1 PUSH2 0x17C7 JUMP JUMPDEST PUSH2 0x937 JUMP JUMPDEST STOP JUMPDEST CALLVALUE DUP1 ISZERO PUSH2 0x28B JUMPI PUSH0 PUSH0 REVERT JUMPDEST POP PUSH2 0x294 PUSH2 0x94B JUMP JUMPDEST PUSH1 0x40 MLOAD PUSH2 0x2A1 SWAP2 SWAP1 PUSH2 0x1686 JUMP JUMPDEST PUSH1 0x40 MLOAD DUP1 SWAP2 SUB SWAP1 RETURN JUMPDEST CALLVALUE DUP1 ISZERO PUSH2 0x2B5 JUMPI PUSH0 PUSH0 REVERT JUMPDEST POP PUSH2 0x2D0 PUSH1 0x4 DUP1 CALLDATASIZE SUB DUP2 ADD SWAP1 PUSH2 0x2CB SWAP2 SWAP1 PUSH2 0x16FE JUMP JUMPDEST PUSH2 0x973 JUMP JUMPDEST STOP JUMPDEST CALLVALUE DUP1 ISZERO PUSH2 0x2DD JUMPI PUSH0 PUSH0 REVERT JUMPDEST POP PUSH2 0x2E6 PUSH2 0x97F JUMP JUMPDEST PUSH1 0x40 MLOAD PUSH2 0x2F3 SWAP2 SWAP1 PUSH2 0x16B7 JUMP JUMPDEST PUSH1 0x40 MLOAD DUP1 SWAP2 SUB SWAP1 RETURN JUMPDEST CALLVALUE DUP1 ISZERO PUSH2 0x307 JUMPI PUSH0 PUSH0 REVERT JUMPDEST POP PUSH2 0x310 PUSH2 0x988 JUMP JUMPDEST PUSH1 0x40 MLOAD PUSH2 0x31D SWAP2 SWAP1 PUSH2 0x16B7 JUMP JUMPDEST PUSH1 0x40 MLOAD DUP1 SWAP2 SUB SWAP1 RETURN JUMPDEST CALLVALUE DUP1 ISZERO PUSH2 0x331 JUMPI PUSH0 PUSH0 REVERT JUMPDEST POP PUSH2 0x33A PUSH2 0xA27 JUMP JUMPDEST PUSH1 0x40 MLOAD PUSH2 0x347 SWAP2 SWAP1 PUSH2 0x16B7 JUMP JUMPDEST PUSH1 0x40 MLOAD DUP1 SWAP2 SUB SWAP1 RETURN JUMPDEST CALLVALUE DUP1 ISZERO PUSH2 0x35B JUMPI PUSH0 PUSH0 REVERT JUMPDEST POP PUSH2 0x376 PUSH1 0x4 DUP1 CALLDATASIZE SUB DUP2 ADD SWAP1 PUSH2 0x371 SWAP2 SWAP1 PUSH2 0x17C7 JUMP JUMPDEST PUSH2 0xA30 JUMP JUMPDEST STOP JUMPDEST CALLVALUE DUP1 ISZERO PUSH2 0x383 JUMPI PUSH0 PUSH0 REVERT JUMPDEST POP PUSH2 0x38C PUSH2 0xAB4 JUMP JUMPDEST PUSH1 0x40 MLOAD PUSH2 0x399 SWAP2 SWAP1 PUSH2 0x16B7 JUMP JUMPDEST PUSH1 0x40 MLOAD DUP1 SWAP2 SUB SWAP1 RETURN JUMPDEST CALLVALUE PUSH0 PUSH2 0x3AD DUP3 PUSH2 0xABD JUMP JUMPDEST SWAP1 POP PUSH0 DUP2 SUB PUSH2 0x3F3 JUMPI CALLER PUSH1 0x40 MLOAD PUSH32 0xB2F0923100000000000000000000000000000000000000000000000000000000 DUP2 MSTORE PUSH1 0x4 ADD PUSH2 0x3EA SWAP2 SWAP1 PUSH2 0x1686 JUMP JUMPDEST PUSH1 0x40 MLOAD DUP1 SWAP2 SUB SWAP1 REVERT JUMPDEST PUSH32 0x0 PUSH1 0x5 SLOAD DUP3 PUSH2 0x422 SWAP2 SWAP1 PUSH2 0x181F JUMP JUMPDEST GT ISZERO PUSH2 0x465 JUMPI DUP1 PUSH1 0x40 MLOAD PUSH32 0x2900B02C00000000000000000000000000000000000000000000000000000000 DUP2 MSTORE PUSH1 0x4 ADD PUSH2 0x45C SWAP2 SWAP1 PUSH2 0x16B7 JUMP JUMPDEST PUSH1 0x40 MLOAD DUP1 SWAP2 SUB SWAP1 REVERT JUMPDEST PUSH0 PUSH2 0x46F CALLVALUE PUSH2 0xABD JUMP JUMPDEST SWAP1 POP CALLVALUE PUSH1 0x6 PUSH0 PUSH0 PUSH20 0xFFFFFFFFFFFFFFFFFFFFFFFFFFFFFFFFFFFFFFFF AND PUSH20 0xFFFFFFFFFFFFFFFFFFFFFFFFFFFFFFFFFFFFFFFF AND DUP2 MSTORE PUSH1 0x20 ADD SWAP1 DUP2 MSTORE PUSH1 0x20 ADD PUSH0 KECCAK256 PUSH0 CALLER PUSH20 0xFFFFFFFFFFFFFFFFFFFFFFFFFFFFFFFFFFFFFFFF AND PUSH20 0xFFFFFFFFFFFFFFFFFFFFFFFFFFFFFFFFFFFFFFFF AND DUP2 MSTORE PUSH1 0x20 ADD SWAP1 DUP2 MSTORE PUSH1 0x20 ADD PUSH0 KECCAK256 PUSH0 DUP3 DUP3 SLOAD PUSH2 0x4F8 SWAP2 SWAP1 PUSH2 0x181F JUMP JUMPDEST SWAP3 POP POP DUP2 SWAP1 SSTORE POP DUP1 PUSH1 0x7 PUSH0 CALLER PUSH20 0xFFFFFFFFFFFFFFFFFFFFFFFFFFFFFFFFFFFFFFFF AND PUSH20 0xFFFFFFFFFFFFFFFFFFFFFFFFFFFFFFFFFFFFFFFF AND DUP2 MSTORE PUSH1 0x20 ADD SWAP1 DUP2 MSTORE PUSH1 0x20 ADD PUSH0 KECCAK256 PUSH0 DUP3 DUP3 SLOAD PUSH2 0x54B SWAP2 SWAP1 PUSH2 0x181F JUMP JUMPDEST SWAP3 POP POP DUP2 SWAP1 SSTORE POP PUSH1 0x3 PUSH0 DUP2 SLOAD DUP1 SWAP3 SWAP2 SWAP1 PUSH2 0x564 SWAP1 PUSH2 0x1852 JUMP JUMPDEST SWAP2 SWAP1 POP SSTORE POP DUP1 PUSH1 0x5 PUSH0 DUP3 DUP3 SLOAD PUSH2 0x57A SWAP2 SWAP1 PUSH2 0x181F JUMP JUMPDEST SWAP3 POP POP DUP2 SWAP1 SSTORE POP PUSH32 0x9D15693852BF60DC27BD5AA831D0351359B7D01D428AE1BAAE11F15CBCFEBAFD CALLER DUP3 PUSH1 0x40 MLOAD PUSH2 0x5B2 SWAP3 SWAP2 SWAP1 PUSH2 0x1899 JUMP JUMPDEST PUSH1 0x40 MLOAD DUP1 SWAP2 SUB SWAP1 LOG1 POP POP POP JUMP JUMPDEST PUSH0 PUSH1 0x7 PUSH0 CALLER PUSH20 0xFFFFFFFFFFFFFFFFFFFFFFFFFFFFFFFFFFFFFFFF AND PUSH20 0xFFFFFFFFFFFFFFFFFFFFFFFFFFFFFFFFFFFFFFFF AND DUP2 MSTORE PUSH1 0x20 ADD SWAP1 DUP2 MSTORE PUSH1 0x20 ADD PUSH0 KECCAK256 SLOAD SWAP1 POP SWAP1 JUMP JUMPDEST DUP1 PUSH0 DUP2 SUB PUSH2 0x648 JUMPI CALLER PUSH1 0x40 MLOAD PUSH32 0xB2F0923100000000000000000000000000000000000000000000000000000000 DUP2 MSTORE PUSH1 0x4 ADD PUSH2 0x63F SWAP2 SWAP1 PUSH2 0x1686 JUMP JUMPDEST PUSH1 0x40 MLOAD DUP1 SWAP2 SUB SWAP1 REVERT JUMPDEST PUSH32 0x0 PUSH1 0x5 SLOAD DUP3 PUSH2 0x677 SWAP2 SWAP1 PUSH2 0x181F JUMP JUMPDEST GT ISZERO PUSH2 0x6BA JUMPI DUP1 PUSH1 0x40 MLOAD PUSH32 0x2900B02C00000000000000000000000000000000000000000000000000000000 DUP2 MSTORE PUSH1 0x4 ADD PUSH2 0x6B1 SWAP2 SWAP1 PUSH2 0x16B7 JUMP JUMPDEST PUSH1 0x40 MLOAD DUP1 SWAP2 SUB SWAP1 REVERT JUMPDEST DUP2 PUSH1 0x6 PUSH0 PUSH32 0x0 PUSH20 0xFFFFFFFFFFFFFFFFFFFFFFFFFFFFFFFFFFFFFFFF AND PUSH20 0xFFFFFFFFFFFFFFFFFFFFFFFFFFFFFFFFFFFFFFFF AND DUP2 MSTORE PUSH1 0x20 ADD SWAP1 DUP2 MSTORE PUSH1 0x20 ADD PUSH0 KECCAK256 PUSH0 CALLER PUSH20 0xFFFFFFFFFFFFFFFFFFFFFFFFFFFFFFFFFFFFFFFF AND PUSH20 0xFFFFFFFFFFFFFFFFFFFFFFFFFFFFFFFFFFFFFFFF AND DUP2 MSTORE PUSH1 0x20 ADD SWAP1 DUP2 MSTORE PUSH1 0x20 ADD PUSH0 KECCAK256 PUSH0 DUP3 DUP3 SLOAD PUSH2 0x761 SWAP2 SWAP1 PUSH2 0x181F JUMP JUMPDEST SWAP3 POP POP DUP2 SWAP1 SSTORE POP DUP2 PUSH1 0x7 PUSH0 CALLER PUSH20 0xFFFFFFFFFFFFFFFFFFFFFFFFFFFFFFFFFFFFFFFF AND PUSH20 0xFFFFFFFFFFFFFFFFFFFFFFFFFFFFFFFFFFFFFFFF AND DUP2 MSTORE PUSH1 0x20 ADD SWAP1 DUP2 MSTORE PUSH1 0x20 ADD PUSH0 KECCAK256 PUSH0 DUP3 DUP3 SLOAD PUSH2 0x7B4 SWAP2 SWAP1 PUSH2 0x181F JUMP JUMPDEST SWAP3 POP POP DUP2 SWAP1 SSTORE POP PUSH1 0x3 PUSH0 DUP2 SLOAD DUP1 SWAP3 SWAP2 SWAP1 PUSH2 0x7CD SWAP1 PUSH2 0x1852 JUMP JUMPDEST SWAP2 SWAP1 POP SSTORE POP DUP2 PUSH1 0x5 PUSH0 DUP3 DUP3 SLOAD PUSH2 0x7E3 SWAP2 SWAP1 PUSH2 0x181F JUMP JUMPDEST SWAP3 POP POP DUP2 SWAP1 SSTORE POP PUSH32 0x9D15693852BF60DC27BD5AA831D0351359B7D01D428AE1BAAE11F15CBCFEBAFD CALLER DUP4 PUSH1 0x40 MLOAD PUSH2 0x81B SWAP3 SWAP2 SWAP1 PUSH2 0x1899 JUMP JUMPDEST PUSH1 0x40 MLOAD DUP1 SWAP2 SUB SWAP1 LOG1 PUSH2 0x870 CALLER ADDRESS DUP5 PUSH32 0x0 PUSH20 0xFFFFFFFFFFFFFFFFFFFFFFFFFFFFFFFFFFFFFFFF AND PUSH2 0xAEC SWAP1 SWAP4 SWAP3 SWAP2 SWAP1 PUSH4 0xFFFFFFFF AND JUMP JUMPDEST POP POP JUMP JUMPDEST PUSH2 0x87C PUSH2 0xB6E JUMP JUMPDEST PUSH2 0x885 PUSH0 PUSH2 0xBF5 JUMP JUMPDEST JUMP JUMPDEST PUSH0 PUSH1 0x6 PUSH0 PUSH0 PUSH20 0xFFFFFFFFFFFFFFFFFFFFFFFFFFFFFFFFFFFFFFFF AND PUSH20 0xFFFFFFFFFFFFFFFFFFFFFFFFFFFFFFFFFFFFFFFF AND DUP2 MSTORE PUSH1 0x20 ADD SWAP1 DUP2 MSTORE PUSH1 0x20 ADD PUSH0 KECCAK256 PUSH0 CALLER PUSH20 0xFFFFFFFFFFFFFFFFFFFFFFFFFFFFFFFFFFFFFFFF AND PUSH20 0xFFFFFFFFFFFFFFFFFFFFFFFFFFFFFFFFFFFFFFFF AND DUP2 MSTORE PUSH1 0x20 ADD SWAP1 DUP2 MSTORE PUSH1 0x20 ADD PUSH0 KECCAK256 SLOAD SWAP1 POP SWAP1 JUMP JUMPDEST PUSH1 0x2 PUSH0 SWAP1 SLOAD SWAP1 PUSH2 0x100 EXP SWAP1 DIV PUSH20 0xFFFFFFFFFFFFFFFFFFFFFFFFFFFFFFFFFFFFFFFF AND DUP2 JUMP JUMPDEST PUSH2 0x934 DUP2 PUSH2 0xCB8 JUMP JUMPDEST POP JUMP JUMPDEST PUSH2 0x93F PUSH2 0xB6E JUMP JUMPDEST PUSH2 0x948 DUP2 PUSH2 0xA30 JUMP JUMPDEST POP JUMP JUMPDEST PUSH0 PUSH1 0x1 PUSH0 SWAP1 SLOAD SWAP1 PUSH2 0x100 EXP SWAP1 DIV PUSH20 0xFFFFFFFFFFFFFFFFFFFFFFFFFFFFFFFFFFFFFFFF AND SWAP1 POP SWAP1 JUMP JUMPDEST PUSH2 0x97C DUP2 PUSH2 0x1045 JUMP JUMPDEST POP JUMP JUMPDEST PUSH0 PUSH1 0x5 SLOAD SWAP1 POP SWAP1 JUMP JUMPDEST PUSH0 PUSH1 0x6 PUSH0 PUSH32 0x0 PUSH20 0xFFFFFFFFFFFFFFFFFFFFFFFFFFFFFFFFFFFFFFFF AND PUSH20 0xFFFFFFFFFFFFFFFFFFFFFFFFFFFFFFFFFFFFFFFF AND DUP2 MSTORE PUSH1 0x20 ADD SWAP1 DUP2 MSTORE PUSH1 0x20 ADD PUSH0 KECCAK256 PUSH0 CALLER PUSH20 0xFFFFFFFFFFFFFFFFFFFFFFFFFFFFFFFFFFFFFFFF AND PUSH20 0xFFFFFFFFFFFFFFFFFFFFFFFFFFFFFFFFFFFFFFFF AND DUP2 MSTORE PUSH1 0x20 ADD SWAP1 DUP2 MSTORE PUSH1 0x20 ADD PUSH0 KECCAK256 SLOAD SWAP1 POP SWAP1 JUMP JUMPDEST PUSH0 PUSH1 0x4 SLOAD SWAP1 POP SWAP1 JUMP JUMPDEST PUSH2 0xA38 PUSH2 0xB6E JUMP JUMPDEST PUSH0 PUSH20 0xFFFFFFFFFFFFFFFFFFFFFFFFFFFFFFFFFFFFFFFF AND DUP2 PUSH20 0xFFFFFFFFFFFFFFFFFFFFFFFFFFFFFFFFFFFFFFFF AND SUB PUSH2 0xAA8 JUMPI PUSH0 PUSH1 0x40 MLOAD PUSH32 0x1E4FBDF700000000000000000000000000000000000000000000000000000000 DUP2 MSTORE PUSH1 0x4 ADD PUSH2 0xA9F SWAP2 SWAP1 PUSH2 0x1686 JUMP JUMPDEST PUSH1 0x40 MLOAD DUP1 SWAP2 SUB SWAP1 REVERT JUMPDEST PUSH2 0xAB1 DUP2 PUSH2 0xBF5 JUMP JUMPDEST POP JUMP JUMPDEST PUSH0 PUSH1 0x3 SLOAD SWAP1 POP SWAP1 JUMP JUMPDEST PUSH0 PUSH9 0x56BC75E2D63100000 PUSH2 0xAD0 PUSH2 0x1396 JUMP JUMPDEST DUP4 PUSH2 0xADB SWAP2 SWAP1 PUSH2 0x18C0 JUMP JUMPDEST PUSH2 0xAE5 SWAP2 SWAP1 PUSH2 0x192E JUMP JUMPDEST SWAP1 POP SWAP2 SWAP1 POP JUMP JUMPDEST PUSH2 0xB68 DUP5 DUP6 PUSH20 0xFFFFFFFFFFFFFFFFFFFFFFFFFFFFFFFFFFFFFFFF AND PUSH4 0x23B872DD DUP7 DUP7 DUP7 PUSH1 0x40 MLOAD PUSH1 0x24 ADD PUSH2 0xB21 SWAP4 SWAP3 SWAP2 SWAP1 PUSH2 0x195E JUMP JUMPDEST PUSH1 0x40 MLOAD PUSH1 0x20 DUP2 DUP4 SUB SUB DUP2 MSTORE SWAP1 PUSH1 0x40 MSTORE SWAP2 POP PUSH1 0xE0 SHL PUSH1 0x20 DUP3 ADD DUP1 MLOAD PUSH28 0xFFFFFFFFFFFFFFFFFFFFFFFFFFFFFFFFFFFFFFFFFFFFFFFFFFFFFFFF DUP4 DUP2 DUP4 AND OR DUP4 MSTORE POP POP POP POP PUSH2 0x14D0 JUMP JUMPDEST POP POP POP POP JUMP JUMPDEST PUSH2 0xB76 PUSH2 0x156B JUMP JUMPDEST PUSH20 0xFFFFFFFFFFFFFFFFFFFFFFFFFFFFFFFFFFFFFFFF AND PUSH2 0xB94 PUSH2 0x94B JUMP JUMPDEST PUSH20 0xFFFFFFFFFFFFFFFFFFFFFFFFFFFFFFFFFFFFFFFF AND EQ PUSH2 0xBF3 JUMPI PUSH2 0xBB7 PUSH2 0x156B JUMP JUMPDEST PUSH1 0x40 MLOAD PUSH32 0x118CDAA700000000000000000000000000000000000000000000000000000000 DUP2 MSTORE PUSH1 0x4 ADD PUSH2 0xBEA SWAP2 SWAP1 PUSH2 0x1686 JUMP JUMPDEST PUSH1 0x40 MLOAD DUP1 SWAP2 SUB SWAP1 REVERT JUMPDEST JUMP JUMPDEST PUSH0 PUSH1 0x1 PUSH0 SWAP1 SLOAD SWAP1 PUSH2 0x100 EXP SWAP1 DIV PUSH20 0xFFFFFFFFFFFFFFFFFFFFFFFFFFFFFFFFFFFFFFFF AND SWAP1 POP DUP2 PUSH1 0x1 PUSH0 PUSH2 0x100 EXP DUP2 SLOAD DUP2 PUSH20 0xFFFFFFFFFFFFFFFFFFFFFFFFFFFFFFFFFFFFFFFF MUL NOT AND SWAP1 DUP4 PUSH20 0xFFFFFFFFFFFFFFFFFFFFFFFFFFFFFFFFFFFFFFFF AND MUL OR SWAP1 SSTORE POP DUP2 PUSH20 0xFFFFFFFFFFFFFFFFFFFFFFFFFFFFFFFFFFFFFFFF AND DUP2 PUSH20 0xFFFFFFFFFFFFFFFFFFFFFFFFFFFFFFFFFFFFFFFF AND PUSH32 0x8BE0079C531659141344CD1FD0A4F28419497F9722A3DAAFE3B4186F6B6457E0 PUSH1 0x40 MLOAD PUSH1 0x40 MLOAD DUP1 SWAP2 SUB SWAP1 LOG3 POP POP JUMP JUMPDEST PUSH2 0xCC0 PUSH2 0x1572 JUMP JUMPDEST DUP1 PUSH0 PUSH2 0xCCB DUP3 PUSH2 0xABD JUMP JUMPDEST SWAP1 POP PUSH0 DUP2 SUB PUSH2 0xD11 JUMPI CALLER PUSH1 0x40 MLOAD PUSH32 0xB2F0923100000000000000000000000000000000000000000000000000000000 DUP2 MSTORE PUSH1 0x4 ADD PUSH2 0xD08 SWAP2 SWAP1 PUSH2 0x1686 JUMP JUMPDEST PUSH1 0x40 MLOAD DUP1 SWAP2 SUB SWAP1 REVERT JUMPDEST PUSH32 0x0 DUP2 GT ISZERO PUSH2 0xD76 JUMPI DUP1 PUSH1 0x40 MLOAD PUSH32 0xC399356500000000000000000000000000000000000000000000000000000000 DUP2 MSTORE PUSH1 0x4 ADD PUSH2 0xD6D SWAP2 SWAP1 PUSH2 0x16B7 JUMP JUMPDEST PUSH1 0x40 MLOAD DUP1 SWAP2 SUB SWAP1 REVERT JUMPDEST PUSH1 0x6 PUSH0 PUSH0 PUSH20 0xFFFFFFFFFFFFFFFFFFFFFFFFFFFFFFFFFFFFFFFF AND PUSH20 0xFFFFFFFFFFFFFFFFFFFFFFFFFFFFFFFFFFFFFFFF AND DUP2 MSTORE PUSH1 0x20 ADD SWAP1 DUP2 MSTORE PUSH1 0x20 ADD PUSH0 KECCAK256 PUSH0 CALLER PUSH20 0xFFFFFFFFFFFFFFFFFFFFFFFFFFFFFFFFFFFFFFFF AND PUSH20 0xFFFFFFFFFFFFFFFFFFFFFFFFFFFFFFFFFFFFFFFF AND DUP2 MSTORE PUSH1 0x20 ADD SWAP1 DUP2 MSTORE PUSH1 0x20 ADD PUSH0 KECCAK256 SLOAD DUP3 GT ISZERO PUSH2 0xE35 JUMPI CALLER DUP2 PUSH1 0x40 MLOAD PUSH32 0x51A7314200000000000000000000000000000000000000000000000000000000 DUP2 MSTORE PUSH1 0x4 ADD PUSH2 0xE2C SWAP3 SWAP2 SWAP1 PUSH2 0x1899 JUMP JUMPDEST PUSH1 0x40 MLOAD DUP1 SWAP2 SUB SWAP1 REVERT JUMPDEST PUSH0 PUSH2 0xE3F DUP5 PUSH2 0xABD JUMP JUMPDEST SWAP1 POP DUP1 PUSH1 0x7 PUSH0 CALLER PUSH20 0xFFFFFFFFFFFFFFFFFFFFFFFFFFFFFFFFFFFFFFFF AND PUSH20 0xFFFFFFFFFFFFFFFFFFFFFFFFFFFFFFFFFFFFFFFF AND DUP2 MSTORE PUSH1 0x20 ADD SWAP1 DUP2 MSTORE PUSH1 0x20 ADD PUSH0 KECCAK256 PUSH0 DUP3 DUP3 SLOAD PUSH2 0xE8D SWAP2 SWAP1 PUSH2 0x1993 JUMP JUMPDEST SWAP3 POP POP DUP2 SWAP1 SSTORE POP DUP4 PUSH1 0x6 PUSH0 PUSH0 PUSH20 0xFFFFFFFFFFFFFFFFFFFFFFFFFFFFFFFFFFFFFFFF AND PUSH20 0xFFFFFFFFFFFFFFFFFFFFFFFFFFFFFFFFFFFFFFFF AND DUP2 MSTORE PUSH1 0x20 ADD SWAP1 DUP2 MSTORE PUSH1 0x20 ADD PUSH0 KECCAK256 PUSH0 CALLER PUSH20 0xFFFFFFFFFFFFFFFFFFFFFFFFFFFFFFFFFFFFFFFF AND PUSH20 0xFFFFFFFFFFFFFFFFFFFFFFFFFFFFFFFFFFFFFFFF AND DUP2 MSTORE PUSH1 0x20 ADD SWAP1 DUP2 MSTORE PUSH1 0x20 ADD PUSH0 KECCAK256 PUSH0 DUP3 DUP3 SLOAD PUSH2 0xF1B SWAP2 SWAP1 PUSH2 0x1993 JUMP JUMPDEST SWAP3 POP POP DUP2 SWAP1 SSTORE POP PUSH1 0x4 PUSH0 DUP2 SLOAD DUP1 SWAP3 SWAP2 SWAP1 PUSH2 0xF34 SWAP1 PUSH2 0x1852 JUMP JUMPDEST SWAP2 SWAP1 POP SSTORE POP DUP1 PUSH1 0x5 PUSH0 DUP3 DUP3 SLOAD PUSH2 0xF4A SWAP2 SWAP1 PUSH2 0x1993 JUMP JUMPDEST SWAP3 POP POP DUP2 SWAP1 SSTORE POP PUSH32 0x9CDE449504E4972FFDDEC09813E0C252A1462D76BEF1864B9E7520DADB7183E8 CALLER DUP3 PUSH1 0x40 MLOAD PUSH2 0xF82 SWAP3 SWAP2 SWAP1 PUSH2 0x1899 JUMP JUMPDEST PUSH1 0x40 MLOAD DUP1 SWAP2 SUB SWAP1 LOG1 PUSH0 CALLER PUSH20 0xFFFFFFFFFFFFFFFFFFFFFFFFFFFFFFFFFFFFFFFF AND DUP6 PUSH1 0x40 MLOAD PUSH2 0xFAF SWAP1 PUSH2 0x19F3 JUMP JUMPDEST PUSH0 PUSH1 0x40 MLOAD DUP1 DUP4 SUB DUP2 DUP6 DUP8 GAS CALL SWAP3 POP POP POP RETURNDATASIZE DUP1 PUSH0 DUP2 EQ PUSH2 0xFE9 JUMPI PUSH1 0x40 MLOAD SWAP2 POP PUSH1 0x1F NOT PUSH1 0x3F RETURNDATASIZE ADD AND DUP3 ADD PUSH1 0x40 MSTORE RETURNDATASIZE DUP3 MSTORE RETURNDATASIZE PUSH0 PUSH1 0x20 DUP5 ADD RETURNDATACOPY PUSH2 0xFEE JUMP JUMPDEST PUSH1 0x60 SWAP2 POP JUMPDEST POP POP SWAP1 POP DUP1 PUSH2 0x1036 JUMPI CALLER DUP6 PUSH1 0x40 MLOAD PUSH32 0x6C5E1A1400000000000000000000000000000000000000000000000000000000 DUP2 MSTORE PUSH1 0x4 ADD PUSH2 0x102D SWAP3 SWAP2 SWAP1 PUSH2 0x1899 JUMP JUMPDEST PUSH1 0x40 MLOAD DUP1 SWAP2 SUB SWAP1 REVERT JUMPDEST POP POP POP POP PUSH2 0x1042 PUSH2 0x15BF JUMP JUMPDEST POP JUMP JUMPDEST PUSH2 0x104D PUSH2 0x1572 JUMP JUMPDEST DUP1 PUSH0 DUP2 SUB PUSH2 0x1092 JUMPI CALLER PUSH1 0x40 MLOAD PUSH32 0xB2F0923100000000000000000000000000000000000000000000000000000000 DUP2 MSTORE PUSH1 0x4 ADD PUSH2 0x1089 SWAP2 SWAP1 PUSH2 0x1686 JUMP JUMPDEST PUSH1 0x40 MLOAD DUP1 SWAP2 SUB SWAP1 REVERT JUMPDEST PUSH32 0x0 DUP2 GT ISZERO PUSH2 0x10F7 JUMPI DUP1 PUSH1 0x40 MLOAD PUSH32 0xC399356500000000000000000000000000000000000000000000000000000000 DUP2 MSTORE PUSH1 0x4 ADD PUSH2 0x10EE SWAP2 SWAP1 PUSH2 0x16B7 JUMP JUMPDEST PUSH1 0x40 MLOAD DUP1 SWAP2 SUB SWAP1 REVERT JUMPDEST PUSH1 0x6 PUSH0 PUSH32 0x0 PUSH20 0xFFFFFFFFFFFFFFFFFFFFFFFFFFFFFFFFFFFFFFFF AND PUSH20 0xFFFFFFFFFFFFFFFFFFFFFFFFFFFFFFFFFFFFFFFF AND DUP2 MSTORE PUSH1 0x20 ADD SWAP1 DUP2 MSTORE PUSH1 0x20 ADD PUSH0 KECCAK256 PUSH0 CALLER PUSH20 0xFFFFFFFFFFFFFFFFFFFFFFFFFFFFFFFFFFFFFFFF AND PUSH20 0xFFFFFFFFFFFFFFFFFFFFFFFFFFFFFFFFFFFFFFFF AND DUP2 MSTORE PUSH1 0x20 ADD SWAP1 DUP2 MSTORE PUSH1 0x20 ADD PUSH0 KECCAK256 SLOAD DUP2 GT ISZERO PUSH2 0x11D6 JUMPI CALLER DUP2 PUSH1 0x40 MLOAD PUSH32 0x51A7314200000000000000000000000000000000000000000000000000000000 DUP2 MSTORE PUSH1 0x4 ADD PUSH2 0x11CD SWAP3 SWAP2 SWAP1 PUSH2 0x1899 JUMP JUMPDEST PUSH1 0x40 MLOAD DUP1 SWAP2 SUB SWAP1 REVERT JUMPDEST DUP2 PUSH1 0x7 PUSH0 CALLER PUSH20 0xFFFFFFFFFFFFFFFFFFFFFFFFFFFFFFFFFFFFFFFF AND PUSH20 0xFFFFFFFFFFFFFFFFFFFFFFFFFFFFFFFFFFFFFFFF AND DUP2 MSTORE PUSH1 0x20 ADD SWAP1 DUP2 MSTORE PUSH1 0x20 ADD PUSH0 KECCAK256 PUSH0 DUP3 DUP3 SLOAD PUSH2 0x1222 SWAP2 SWAP1 PUSH2 0x1993 JUMP JUMPDEST SWAP3 POP POP DUP2 SWAP1 SSTORE POP DUP2 PUSH1 0x6 PUSH0 PUSH32 0x0 PUSH20 0xFFFFFFFFFFFFFFFFFFFFFFFFFFFFFFFFFFFFFFFF AND PUSH20 0xFFFFFFFFFFFFFFFFFFFFFFFFFFFFFFFFFFFFFFFF AND DUP2 MSTORE PUSH1 0x20 ADD SWAP1 DUP2 MSTORE PUSH1 0x20 ADD PUSH0 KECCAK256 PUSH0 CALLER PUSH20 0xFFFFFFFFFFFFFFFFFFFFFFFFFFFFFFFFFFFFFFFF AND PUSH20 0xFFFFFFFFFFFFFFFFFFFFFFFFFFFFFFFFFFFFFFFF AND DUP2 MSTORE PUSH1 0x20 ADD SWAP1 DUP2 MSTORE PUSH1 0x20 ADD PUSH0 KECCAK256 PUSH0 DUP3 DUP3 SLOAD PUSH2 0x12D0 SWAP2 SWAP1 PUSH2 0x1993 JUMP JUMPDEST SWAP3 POP POP DUP2 SWAP1 SSTORE POP PUSH1 0x4 PUSH0 DUP2 SLOAD DUP1 SWAP3 SWAP2 SWAP1 PUSH2 0x12E9 SWAP1 PUSH2 0x1852 JUMP JUMPDEST SWAP2 SWAP1 POP SSTORE POP DUP2 PUSH1 0x5 PUSH0 DUP3 DUP3 SLOAD PUSH2 0x12FF SWAP2 SWAP1 PUSH2 0x1993 JUMP JUMPDEST SWAP3 POP POP DUP2 SWAP1 SSTORE POP PUSH32 0x9CDE449504E4972FFDDEC09813E0C252A1462D76BEF1864B9E7520DADB7183E8 CALLER DUP4 PUSH1 0x40 MLOAD PUSH2 0x1337 SWAP3 SWAP2 SWAP1 PUSH2 0x1899 JUMP JUMPDEST PUSH1 0x40 MLOAD DUP1 SWAP2 SUB SWAP1 LOG1 PUSH2 0x138A CALLER DUP4 PUSH32 0x0 PUSH20 0xFFFFFFFFFFFFFFFFFFFFFFFFFFFFFFFFFFFFFFFF AND PUSH2 0x15C8 SWAP1 SWAP3 SWAP2 SWAP1 PUSH4 0xFFFFFFFF AND JUMP JUMPDEST POP PUSH2 0x1393 PUSH2 0x15BF JUMP JUMPDEST POP JUMP JUMPDEST PUSH0 PUSH0 PUSH0 PUSH1 0x2 PUSH0 SWAP1 SLOAD SWAP1 PUSH2 0x100 EXP SWAP1 DIV PUSH20 0xFFFFFFFFFFFFFFFFFFFFFFFFFFFFFFFFFFFFFFFF AND PUSH20 0xFFFFFFFFFFFFFFFFFFFFFFFFFFFFFFFFFFFFFFFF AND PUSH4 0xFEAF968C PUSH1 0x40 MLOAD DUP2 PUSH4 0xFFFFFFFF AND PUSH1 0xE0 SHL DUP2 MSTORE PUSH1 0x4 ADD PUSH1 0xA0 PUSH1 0x40 MLOAD DUP1 DUP4 SUB DUP2 DUP7 GAS STATICCALL ISZERO DUP1 ISZERO PUSH2 0x1403 JUMPI RETURNDATASIZE PUSH0 PUSH0 RETURNDATACOPY RETURNDATASIZE PUSH0 REVERT JUMPDEST POP POP POP POP PUSH1 0x40 MLOAD RETURNDATASIZE PUSH1 0x1F NOT PUSH1 0x1F DUP3 ADD AND DUP3 ADD DUP1 PUSH1 0x40 MSTORE POP DUP2 ADD SWAP1 PUSH2 0x1427 SWAP2 SWAP1 PUSH2 0x1A8D JUMP JUMPDEST POP SWAP4 POP POP SWAP3 POP POP PUSH0 DUP3 SUB PUSH2 0x1472 JUMPI DUP2 PUSH1 0x40 MLOAD PUSH32 0x3654402900000000000000000000000000000000000000000000000000000000 DUP2 MSTORE PUSH1 0x4 ADD PUSH2 0x1469 SWAP2 SWAP1 PUSH2 0x16B7 JUMP JUMPDEST PUSH1 0x40 MLOAD DUP1 SWAP2 SUB SWAP1 REVERT JUMPDEST PUSH2 0xE10 PUSH2 0xFFFF AND DUP2 TIMESTAMP PUSH2 0x1485 SWAP2 SWAP1 PUSH2 0x1993 JUMP JUMPDEST GT ISZERO PUSH2 0x14C8 JUMPI DUP2 PUSH1 0x40 MLOAD PUSH32 0x2609A26500000000000000000000000000000000000000000000000000000000 DUP2 MSTORE PUSH1 0x4 ADD PUSH2 0x14BF SWAP2 SWAP1 PUSH2 0x16B7 JUMP JUMPDEST PUSH1 0x40 MLOAD DUP1 SWAP2 SUB SWAP1 REVERT JUMPDEST DUP2 SWAP3 POP POP POP SWAP1 JUMP JUMPDEST PUSH0 PUSH0 PUSH1 0x20 PUSH0 DUP5 MLOAD PUSH1 0x20 DUP7 ADD PUSH0 DUP9 GAS CALL DUP1 PUSH2 0x14EF JUMPI PUSH1 0x40 MLOAD RETURNDATASIZE PUSH0 DUP3 RETURNDATACOPY RETURNDATASIZE DUP2 REVERT JUMPDEST RETURNDATASIZE SWAP3 POP PUSH0 MLOAD SWAP2 POP POP PUSH0 DUP3 EQ PUSH2 0x1508 JUMPI PUSH1 0x1 DUP2 EQ ISZERO PUSH2 0x1523 JUMP JUMPDEST PUSH0 DUP5 PUSH20 0xFFFFFFFFFFFFFFFFFFFFFFFFFFFFFFFFFFFFFFFF AND EXTCODESIZE EQ JUMPDEST ISZERO PUSH2 0x1565 JUMPI DUP4 PUSH1 0x40 MLOAD PUSH32 0x5274AFE700000000000000000000000000000000000000000000000000000000 DUP2 MSTORE PUSH1 0x4 ADD PUSH2 0x155C SWAP2 SWAP1 PUSH2 0x1686 JUMP JUMPDEST PUSH1 0x40 MLOAD DUP1 SWAP2 SUB SWAP1 REVERT JUMPDEST POP POP POP POP JUMP JUMPDEST PUSH0 CALLER SWAP1 POP SWAP1 JUMP JUMPDEST PUSH1 0x2 PUSH0 SLOAD SUB PUSH2 0x15B6 JUMPI PUSH1 0x40 MLOAD PUSH32 0x8C379A000000000000000000000000000000000000000000000000000000000 DUP2 MSTORE PUSH1 0x4 ADD PUSH2 0x15AD SWAP1 PUSH2 0x1B5E JUMP JUMPDEST PUSH1 0x40 MLOAD DUP1 SWAP2 SUB SWAP1 REVERT JUMPDEST PUSH1 0x2 PUSH0 DUP2 SWAP1 SSTORE POP JUMP JUMPDEST PUSH1 0x1 PUSH0 DUP2 SWAP1 SSTORE POP JUMP JUMPDEST PUSH2 0x1642 DUP4 DUP5 PUSH20 0xFFFFFFFFFFFFFFFFFFFFFFFFFFFFFFFFFFFFFFFF AND PUSH4 0xA9059CBB DUP6 DUP6 PUSH1 0x40 MLOAD PUSH1 0x24 ADD PUSH2 0x15FB SWAP3 SWAP2 SWAP1 PUSH2 0x1899 JUMP JUMPDEST PUSH1 0x40 MLOAD PUSH1 0x20 DUP2 DUP4 SUB SUB DUP2 MSTORE SWAP1 PUSH1 0x40 MSTORE SWAP2 POP PUSH1 0xE0 SHL PUSH1 0x20 DUP3 ADD DUP1 MLOAD PUSH28 0xFFFFFFFFFFFFFFFFFFFFFFFFFFFFFFFFFFFFFFFFFFFFFFFFFFFFFFFF DUP4 DUP2 DUP4 AND OR DUP4 MSTORE POP POP POP POP PUSH2 0x14D0 JUMP JUMPDEST POP POP POP JUMP JUMPDEST PUSH0 PUSH20 0xFFFFFFFFFFFFFFFFFFFFFFFFFFFFFFFFFFFFFFFF DUP3 AND SWAP1 POP SWAP2 SWAP1 POP JUMP JUMPDEST PUSH0 PUSH2 0x1670 DUP3 PUSH2 0x1647 JUMP JUMPDEST SWAP1 POP SWAP2 SWAP1 POP JUMP JUMPDEST PUSH2 0x1680 DUP2 PUSH2 0x1666 JUMP JUMPDEST DUP3 MSTORE POP POP JUMP JUMPDEST PUSH0 PUSH1 0x20 DUP3 ADD SWAP1 POP PUSH2 0x1699 PUSH0 DUP4 ADD DUP5 PUSH2 0x1677 JUMP JUMPDEST SWAP3 SWAP2 POP POP JUMP JUMPDEST PUSH0 DUP2 SWAP1 POP SWAP2 SWAP1 POP JUMP JUMPDEST PUSH2 0x16B1 DUP2 PUSH2 0x169F JUMP JUMPDEST DUP3 MSTORE POP POP JUMP JUMPDEST PUSH0 PUSH1 0x20 DUP3 ADD SWAP1 POP PUSH2 0x16CA PUSH0 DUP4 ADD DUP5 PUSH2 0x16A8 JUMP JUMPDEST SWAP3 SWAP2 POP POP JUMP JUMPDEST PUSH0 PUSH0 REVERT JUMPDEST PUSH2 0x16DD DUP2 PUSH2 0x169F JUMP JUMPDEST DUP2 EQ PUSH2 0x16E7 JUMPI PUSH0 PUSH0 REVERT JUMPDEST POP JUMP JUMPDEST PUSH0 DUP2 CALLDATALOAD SWAP1 POP PUSH2 0x16F8 DUP2 PUSH2 0x16D4 JUMP JUMPDEST SWAP3 SWAP2 POP POP JUMP JUMPDEST PUSH0 PUSH1 0x20 DUP3 DUP5 SUB SLT ISZERO PUSH2 0x1713 JUMPI PUSH2 0x1712 PUSH2 0x16D0 JUMP JUMPDEST JUMPDEST PUSH0 PUSH2 0x1720 DUP5 DUP3 DUP6 ADD PUSH2 0x16EA JUMP JUMPDEST SWAP2 POP POP SWAP3 SWAP2 POP POP JUMP JUMPDEST PUSH0 DUP2 SWAP1 POP SWAP2 SWAP1 POP JUMP JUMPDEST PUSH0 PUSH2 0x174C PUSH2 0x1747 PUSH2 0x1742 DUP5 PUSH2 0x1647 JUMP JUMPDEST PUSH2 0x1729 JUMP JUMPDEST PUSH2 0x1647 JUMP JUMPDEST SWAP1 POP SWAP2 SWAP1 POP JUMP JUMPDEST PUSH0 PUSH2 0x175D DUP3 PUSH2 0x1732 JUMP JUMPDEST SWAP1 POP SWAP2 SWAP1 POP JUMP JUMPDEST PUSH0 PUSH2 0x176E DUP3 PUSH2 0x1753 JUMP JUMPDEST SWAP1 POP SWAP2 SWAP1 POP JUMP JUMPDEST PUSH2 0x177E DUP2 PUSH2 0x1764 JUMP JUMPDEST DUP3 MSTORE POP POP JUMP JUMPDEST PUSH0 PUSH1 0x20 DUP3 ADD SWAP1 POP PUSH2 0x1797 PUSH0 DUP4 ADD DUP5 PUSH2 0x1775 JUMP JUMPDEST SWAP3 SWAP2 POP POP JUMP JUMPDEST PUSH2 0x17A6 DUP2 PUSH2 0x1666 JUMP JUMPDEST DUP2 EQ PUSH2 0x17B0 JUMPI PUSH0 PUSH0 REVERT JUMPDEST POP JUMP JUMPDEST PUSH0 DUP2 CALLDATALOAD SWAP1 POP PUSH2 0x17C1 DUP2 PUSH2 0x179D JUMP JUMPDEST SWAP3 SWAP2 POP POP JUMP JUMPDEST PUSH0 PUSH1 0x20 DUP3 DUP5 SUB SLT ISZERO PUSH2 0x17DC JUMPI PUSH2 0x17DB PUSH2 0x16D0 JUMP JUMPDEST JUMPDEST PUSH0 PUSH2 0x17E9 DUP5 DUP3 DUP6 ADD PUSH2 0x17B3 JUMP JUMPDEST SWAP2 POP POP SWAP3 SWAP2 POP POP JUMP JUMPDEST PUSH32 0x4E487B7100000000000000000000000000000000000000000000000000000000 PUSH0 MSTORE PUSH1 0x11 PUSH1 0x4 MSTORE PUSH1 0x24 PUSH0 REVERT JUMPDEST PUSH0 PUSH2 0x1829 DUP3 PUSH2 0x169F JUMP JUMPDEST SWAP2 POP PUSH2 0x1834 DUP4 PUSH2 0x169F JUMP JUMPDEST SWAP3 POP DUP3 DUP3 ADD SWAP1 POP DUP1 DUP3 GT ISZERO PUSH2 0x184C JUMPI PUSH2 0x184B PUSH2 0x17F2 JUMP JUMPDEST JUMPDEST SWAP3 SWAP2 POP POP JUMP JUMPDEST PUSH0 PUSH2 0x185C DUP3 PUSH2 0x169F JUMP JUMPDEST SWAP2 POP PUSH32 0xFFFFFFFFFFFFFFFFFFFFFFFFFFFFFFFFFFFFFFFFFFFFFFFFFFFFFFFFFFFFFFFF DUP3 SUB PUSH2 0x188E JUMPI PUSH2 0x188D PUSH2 0x17F2 JUMP JUMPDEST JUMPDEST PUSH1 0x1 DUP3 ADD SWAP1 POP SWAP2 SWAP1 POP JUMP JUMPDEST PUSH0 PUSH1 0x40 DUP3 ADD SWAP1 POP PUSH2 0x18AC PUSH0 DUP4 ADD DUP6 PUSH2 0x1677 JUMP JUMPDEST PUSH2 0x18B9 PUSH1 0x20 DUP4 ADD DUP5 PUSH2 0x16A8 JUMP JUMPDEST SWAP4 SWAP3 POP POP POP JUMP JUMPDEST PUSH0 PUSH2 0x18CA DUP3 PUSH2 0x169F JUMP JUMPDEST SWAP2 POP PUSH2 0x18D5 DUP4 PUSH2 0x169F JUMP JUMPDEST SWAP3 POP DUP3 DUP3 MUL PUSH2 0x18E3 DUP2 PUSH2 0x169F JUMP JUMPDEST SWAP2 POP DUP3 DUP3 DIV DUP5 EQ DUP4 ISZERO OR PUSH2 0x18FA JUMPI PUSH2 0x18F9 PUSH2 0x17F2 JUMP JUMPDEST JUMPDEST POP SWAP3 SWAP2 POP POP JUMP JUMPDEST PUSH32 0x4E487B7100000000000000000000000000000000000000000000000000000000 PUSH0 MSTORE PUSH1 0x12 PUSH1 0x4 MSTORE PUSH1 0x24 PUSH0 REVERT JUMPDEST PUSH0 PUSH2 0x1938 DUP3 PUSH2 0x169F JUMP JUMPDEST SWAP2 POP PUSH2 0x1943 DUP4 PUSH2 0x169F JUMP JUMPDEST SWAP3 POP DUP3 PUSH2 0x1953 JUMPI PUSH2 0x1952 PUSH2 0x1901 JUMP JUMPDEST JUMPDEST DUP3 DUP3 DIV SWAP1 POP SWAP3 SWAP2 POP POP JUMP JUMPDEST PUSH0 PUSH1 0x60 DUP3 ADD SWAP1 POP PUSH2 0x1971 PUSH0 DUP4 ADD DUP7 PUSH2 0x1677 JUMP JUMPDEST PUSH2 0x197E PUSH1 0x20 DUP4 ADD DUP6 PUSH2 0x1677 JUMP JUMPDEST PUSH2 0x198B PUSH1 0x40 DUP4 ADD DUP5 PUSH2 0x16A8 JUMP JUMPDEST SWAP5 SWAP4 POP POP POP POP JUMP JUMPDEST PUSH0 PUSH2 0x199D DUP3 PUSH2 0x169F JUMP JUMPDEST SWAP2 POP PUSH2 0x19A8 DUP4 PUSH2 0x169F JUMP JUMPDEST SWAP3 POP DUP3 DUP3 SUB SWAP1 POP DUP2 DUP2 GT ISZERO PUSH2 0x19C0 JUMPI PUSH2 0x19BF PUSH2 0x17F2 JUMP JUMPDEST JUMPDEST SWAP3 SWAP2 POP POP JUMP JUMPDEST PUSH0 DUP2 SWAP1 POP SWAP3 SWAP2 POP POP JUMP JUMPDEST POP JUMP JUMPDEST PUSH0 PUSH2 0x19DE PUSH0 DUP4 PUSH2 0x19C6 JUMP JUMPDEST SWAP2 POP PUSH2 0x19E9 DUP3 PUSH2 0x19D0 JUMP JUMPDEST PUSH0 DUP3 ADD SWAP1 POP SWAP2 SWAP1 POP JUMP JUMPDEST PUSH0 PUSH2 0x19FD DUP3 PUSH2 0x19D3 JUMP JUMPDEST SWAP2 POP DUP2 SWAP1 POP SWAP2 SWAP1 POP JUMP JUMPDEST PUSH0 PUSH10 0xFFFFFFFFFFFFFFFFFFFF DUP3 AND SWAP1 POP SWAP2 SWAP1 POP JUMP JUMPDEST PUSH2 0x1A25 DUP2 PUSH2 0x1A07 JUMP JUMPDEST DUP2 EQ PUSH2 0x1A2F JUMPI PUSH0 PUSH0 REVERT JUMPDEST POP JUMP JUMPDEST PUSH0 DUP2 MLOAD SWAP1 POP PUSH2 0x1A40 DUP2 PUSH2 0x1A1C JUMP JUMPDEST SWAP3 SWAP2 POP POP JUMP JUMPDEST PUSH0 DUP2 SWAP1 POP SWAP2 SWAP1 POP JUMP JUMPDEST PUSH2 0x1A58 DUP2 PUSH2 0x1A46 JUMP JUMPDEST DUP2 EQ PUSH2 0x1A62 JUMPI PUSH0 PUSH0 REVERT JUMPDEST POP JUMP JUMPDEST PUSH0 DUP2 MLOAD SWAP1 POP PUSH2 0x1A73 DUP2 PUSH2 0x1A4F JUMP JUMPDEST SWAP3 SWAP2 POP POP JUMP JUMPDEST PUSH0 DUP2 MLOAD SWAP1 POP PUSH2 0x1A87 DUP2 PUSH2 0x16D4 JUMP JUMPDEST SWAP3 SWAP2 POP POP JUMP JUMPDEST PUSH0 PUSH0 PUSH0 PUSH0 PUSH0 PUSH1 0xA0 DUP7 DUP9 SUB SLT ISZERO PUSH2 0x1AA6 JUMPI PUSH2 0x1AA5 PUSH2 0x16D0 JUMP JUMPDEST JUMPDEST PUSH0 PUSH2 0x1AB3 DUP9 DUP3 DUP10 ADD PUSH2 0x1A32 JUMP JUMPDEST SWAP6 POP POP PUSH1 0x20 PUSH2 0x1AC4 DUP9 DUP3 DUP10 ADD PUSH2 0x1A65 JUMP JUMPDEST SWAP5 POP POP PUSH1 0x40 PUSH2 0x1AD5 DUP9 DUP3 DUP10 ADD PUSH2 0x1A79 JUMP JUMPDEST SWAP4 POP POP PUSH1 0x60 PUSH2 0x1AE6 DUP9 DUP3 DUP10 ADD PUSH2 0x1A79 JUMP JUMPDEST SWAP3 POP POP PUSH1 0x80 PUSH2 0x1AF7 DUP9 DUP3 DUP10 ADD PUSH2 0x1A32 JUMP JUMPDEST SWAP2 POP POP SWAP3 SWAP6 POP SWAP3 SWAP6 SWAP1 SWAP4 POP JUMP JUMPDEST PUSH0 DUP3 DUP3 MSTORE PUSH1 0x20 DUP3 ADD SWAP1 POP SWAP3 SWAP2 POP POP JUMP JUMPDEST PUSH32 0x5265656E7472616E637947756172643A207265656E7472616E742063616C6C00 PUSH0 DUP3 ADD MSTORE POP JUMP JUMPDEST PUSH0 PUSH2 0x1B48 PUSH1 0x1F DUP4 PUSH2 0x1B04 JUMP JUMPDEST SWAP2 POP PUSH2 0x1B53 DUP3 PUSH2 0x1B14 JUMP JUMPDEST PUSH1 0x20 DUP3 ADD SWAP1 POP SWAP2 SWAP1 POP JUMP JUMPDEST PUSH0 PUSH1 0x20 DUP3 ADD SWAP1 POP DUP2 DUP2 SUB PUSH0 DUP4 ADD MSTORE PUSH2 0x1B75 DUP2 PUSH2 0x1B3C JUMP JUMPDEST SWAP1 POP SWAP2 SWAP1 POP JUMP INVALID LOG2 PUSH5 0x6970667358 0x22 SLT KECCAK256 0x23 CALL OR STATICCALL CALLDATASIZE RETURNDATASIZE DUP5 0xDB PUSH12 0xC7724CC6D82FED0268488A62 0xBF TIMESTAMP SSTORE EXTSTATICCALL CALLDATALOAD 0x4F SELFBALANCE GT 0xC 0x4B 0xFC PUSH5 0x736F6C6343 STOP ADDMOD 0x1E STOP CALLER "
				},
				"gasEstimates": {
					"creation": {
						"codeDepositCost": "1418000",
						"executionCost": "infinite",
						"totalCost": "infinite"
					},
					"external": {
						"": "418",
						"depositarETH()": "infinite",
						"depositarUSDC(uint256)": "infinite",
						"i_feed()": "infinite",
						"owner()": "2560",
						"renounceOwnership()": "infinite",
						"retirarETH(uint256)": "infinite",
						"retirarUSDC(uint256)": "infinite",
						"transferOwnership(address)": "infinite",
						"transferirOwner(address)": "infinite",
						"verBoveda()": "2565",
						"verSaldoETH()": "2651",
						"verSaldoUSDC()": "infinite",
						"verTotalContrato()": "2521",
						"verTotalDepositos()": "2520",
						"verTotalRetiros()": "2476"
					},
					"internal": {
						"_retirarFondosETH(uint256)": "infinite",
						"_retirarFondosUSDC(uint256)": "infinite",
						"chainLinkFeeds()": "infinite",
						"convertirEthEnUSDC(uint256)": "infinite"
					}
				},
				"methodIdentifiers": {
					"depositarETH()": "16a1930f",
					"depositarUSDC(uint256)": "698b7241",
					"i_feed()": "79a82334",
					"owner()": "8da5cb5b",
					"renounceOwnership()": "715018a6",
					"retirarETH(uint256)": "82fe54b5",
					"retirarUSDC(uint256)": "931fb90e",
					"transferOwnership(address)": "f2fde38b",
					"transferirOwner(address)": "8648840a",
					"verBoveda()": "6900670c",
					"verSaldoETH()": "779bb136",
					"verSaldoUSDC()": "939495bd",
					"verTotalContrato()": "93295c1c",
					"verTotalDepositos()": "f39b1809",
					"verTotalRetiros()": "c6aca33c"
				}
			},
			"storageLayout": {
				"storage": [
					{
						"astId": 294,
						"contract": "contracts/KipuBank.sol:KipuBank",
						"label": "_status",
						"offset": 0,
						"slot": "0",
						"type": "t_uint256"
					},
					{
						"astId": 54,
						"contract": "contracts/KipuBank.sol:KipuBank",
						"label": "_owner",
						"offset": 0,
						"slot": "1",
						"type": "t_address"
					},
					{
						"astId": 956,
						"contract": "contracts/KipuBank.sol:KipuBank",
						"label": "i_feed",
						"offset": 0,
						"slot": "2",
						"type": "t_contract(AggregatorV3Interface)45"
					},
					{
						"astId": 978,
						"contract": "contracts/KipuBank.sol:KipuBank",
						"label": "_depositos",
						"offset": 0,
						"slot": "3",
						"type": "t_uint256"
					},
					{
						"astId": 982,
						"contract": "contracts/KipuBank.sol:KipuBank",
						"label": "_retiros",
						"offset": 0,
						"slot": "4",
						"type": "t_uint256"
					},
					{
						"astId": 986,
						"contract": "contracts/KipuBank.sol:KipuBank",
						"label": "_totalContrato",
						"offset": 0,
						"slot": "5",
						"type": "t_uint256"
					},
					{
						"astId": 993,
						"contract": "contracts/KipuBank.sol:KipuBank",
						"label": "_cuentasMultiToken",
						"offset": 0,
						"slot": "6",
						"type": "t_mapping(t_address,t_mapping(t_address,t_uint256))"
					},
					{
						"astId": 998,
						"contract": "contracts/KipuBank.sol:KipuBank",
						"label": "_boveda",
						"offset": 0,
						"slot": "7",
						"type": "t_mapping(t_address,t_uint256)"
					}
				],
				"types": {
					"t_address": {
						"encoding": "inplace",
						"label": "address",
						"numberOfBytes": "20"
					},
					"t_contract(AggregatorV3Interface)45": {
						"encoding": "inplace",
						"label": "contract AggregatorV3Interface",
						"numberOfBytes": "20"
					},
					"t_mapping(t_address,t_mapping(t_address,t_uint256))": {
						"encoding": "mapping",
						"key": "t_address",
						"label": "mapping(address => mapping(address => uint256))",
						"numberOfBytes": "32",
						"value": "t_mapping(t_address,t_uint256)"
					},
					"t_mapping(t_address,t_uint256)": {
						"encoding": "mapping",
						"key": "t_address",
						"label": "mapping(address => uint256)",
						"numberOfBytes": "32",
						"value": "t_uint256"
					},
					"t_uint256": {
						"encoding": "inplace",
						"label": "uint256",
						"numberOfBytes": "32"
					}
				}
			},
			"userdoc": {
				"errors": {
					"KipuBank_ExtraccionRechazada(address,uint256)": [
						{
							"notice": "Error de extraccion"
						}
					],
					"KipuBank_InicializacionInvalida(uint256,uint256)": [
						{
							"notice": "Error de umbral mayor al limite"
						}
					],
					"KipuBank_LimiteExcedido(uint256)": [
						{
							"notice": "Error por sobrepasarse del limite"
						}
					],
					"KipuBank_LimiteInvalido(uint256)": [
						{
							"notice": "Error por limite invalido"
						}
					],
					"KipuBank_MontoCero(address)": [
						{
							"notice": "Error monto cero"
						}
					],
					"KipuBank_OperacionNoPermitida(address)": [
						{
							"notice": "Error por operacion no permitida"
						}
					],
					"KipuBank_OraculoComprometido(uint256)": [
						{
							"notice": "Error por óraculo dando un precio equivoco"
						}
					],
					"KipuBank_PrecioDesactualizado(uint256)": [
						{
							"notice": "Error por precio desactualizado"
						}
					],
					"KipuBank_SaldoInsuficiente(address,uint256)": [
						{
							"notice": "Error por saldo insuficiente"
						}
					],
					"KipuBank_UmbralExcedido(uint256)": [
						{
							"notice": "Error por umbral excedido"
						}
					],
					"KipuBank_UmbralInvalido(uint256)": [
						{
							"notice": "Error por umbral invalido"
						}
					]
				},
				"events": {
					"KipuBank_DepositoRealizado(address,uint256)": {
						"notice": "Evento para depositos realizado exitosamente"
					},
					"KipuBank_ExtraccionRealizada(address,uint256)": {
						"notice": "Evento para extracciones realizadas exitosamente"
					}
				},
				"kind": "user",
				"methods": {
					"constructor": {
						"notice": "Constructor del contrato"
					},
					"depositarETH()": {
						"notice": "Funcion para depositar en la boveda"
					},
					"depositarUSDC(uint256)": {
						"notice": "Funcion para depositar en la boveda"
					},
					"i_feed()": {
						"notice": "Interfaz publica del data feed"
					},
					"retirarETH(uint256)": {
						"notice": "Funcion externa para realizar el retiro de saldo en ETH"
					},
					"retirarUSDC(uint256)": {
						"notice": "Funcion externa para realizar el retiro de saldo en USDC"
					},
					"transferirOwner(address)": {
						"notice": "Función para traspasar el contrato a otro dueño"
					},
					"verBoveda()": {
						"notice": "Funcion para ver el saldo total guardado en el boveda en USD"
					},
					"verSaldoETH()": {
						"notice": "Función para el saldo en ETH del titular"
					},
					"verSaldoUSDC()": {
						"notice": "Función para ver el saldo en USDC del titular"
					},
					"verTotalContrato()": {
						"notice": "Funcion para ver el saldo total del contrato en USD"
					},
					"verTotalDepositos()": {
						"notice": "Funcion para ver la cantidad total de los depositos realizados"
					},
					"verTotalRetiros()": {
						"notice": "Funcion para ver la cantidad total de los retiros realizados"
					}
				},
				"version": 1
			}
		}
	}
}