{
	"data": {
		"bytecode": {
			"linkReferences": {},
			"object": "60e06040525f6004555f60055f6101000a8154816fffffffffffffffffffffffffffffffff02191690836fffffffffffffffffffffffffffffffff1602179055505f600560106101000a8154816fffffffffffffffffffffffffffffffff02191690836fffffffffffffffffffffffffffffffff160217905550348015610084575f5ffd5b5060405161396f38038061396f83398181016040528101906100a6919061067f565b8260015f819055505f73ffffffffffffffffffffffffffffffffffffffff168173ffffffffffffffffffffffffffffffffffffffff160361011e575f6040517f1e4fbdf70000000000000000000000000000000000000000000000000000000081526004016101159190610705565b60405180910390fd5b61012d816103ca60201b60201c565b505f850361017257846040517f7fa42be2000000000000000000000000000000000000000000000000000000008152600401610169919061072d565b60405180910390fd5b5f84036101b657836040517fd71fe66c0000000000000000000000000000000000000000000000000000000081526004016101ad919061072d565b60405180910390fd5b848411156101fd5784846040517f359f62ab0000000000000000000000000000000000000000000000000000000081526004016101f4929190610746565b60405180910390fd5b5f73ffffffffffffffffffffffffffffffffffffffff168273ffffffffffffffffffffffffffffffffffffffff1603610262576040517f4ab4914300000000000000000000000000000000000000000000000000000000815260040160405180910390fd5b5f73ffffffffffffffffffffffffffffffffffffffff168173ffffffffffffffffffffffffffffffffffffffff16036102c7576040517f4ab4914300000000000000000000000000000000000000000000000000000000815260040160405180910390fd5b6102d95f5f1b8461048d60201b60201c565b5061030a7f539440820030c4994db4e31b6b800deafd503688728f932addfe7a410515c14c8461048d60201b60201c565b5061033b7f9bbb3ee3bdfbe971682b08854a620ca4bf696f8e0c269e5c5b129a18e64d29df8461048d60201b60201c565b508073ffffffffffffffffffffffffffffffffffffffff1660808173ffffffffffffffffffffffffffffffffffffffff16815250508160035f6101000a81548173ffffffffffffffffffffffffffffffffffffffff021916908373ffffffffffffffffffffffffffffffffffffffff1602179055508460c081815250508360a08181525050505050505061076d565b5f60015f9054906101000a900473ffffffffffffffffffffffffffffffffffffffff1690508160015f6101000a81548173ffffffffffffffffffffffffffffffffffffffff021916908373ffffffffffffffffffffffffffffffffffffffff1602179055508173ffffffffffffffffffffffffffffffffffffffff168173ffffffffffffffffffffffffffffffffffffffff167f8be0079c531659141344cd1fd0a4f28419497f9722a3daafe3b4186f6b6457e060405160405180910390a35050565b5f61049e838361058360201b60201c565b61057957600160025f8581526020019081526020015f205f015f8473ffffffffffffffffffffffffffffffffffffffff1673ffffffffffffffffffffffffffffffffffffffff1681526020019081526020015f205f6101000a81548160ff0219169083151502179055506105166105e760201b60201c565b73ffffffffffffffffffffffffffffffffffffffff168273ffffffffffffffffffffffffffffffffffffffff16847f2f8788117e7eff1d82e926ec794901d17c78024a50270940304540a733656f0d60405160405180910390a46001905061057d565b5f90505b92915050565b5f60025f8481526020019081526020015f205f015f8373ffffffffffffffffffffffffffffffffffffffff1673ffffffffffffffffffffffffffffffffffffffff1681526020019081526020015f205f9054906101000a900460ff16905092915050565b5f33905090565b5f5ffd5b5f819050919050565b610604816105f2565b811461060e575f5ffd5b50565b5f8151905061061f816105fb565b92915050565b5f73ffffffffffffffffffffffffffffffffffffffff82169050919050565b5f61064e82610625565b9050919050565b61065e81610644565b8114610668575f5ffd5b50565b5f8151905061067981610655565b92915050565b5f5f5f5f5f60a08688031215610698576106976105ee565b5b5f6106a588828901610611565b95505060206106b688828901610611565b94505060406106c78882890161066b565b93505060606106d88882890161066b565b92505060806106e98882890161066b565b9150509295509295909350565b6106ff81610644565b82525050565b5f6020820190506107185f8301846106f6565b92915050565b610727816105f2565b82525050565b5f6020820190506107405f83018461071e565b92915050565b5f6040820190506107595f83018561071e565b610766602083018461071e565b9392505050565b60805160a05160c0516131926107dd5f395f818161099c015281816114fb015261245601525f818161151c01528181611d16015261208301525f8181610a1701528181610af801528181610c72015281816111f501528181611d7e01528181611e5e0152611fd801526131925ff3fe6080604052600436106101c5575f3560e01c8063977ae0d1116100f6578063d6cb9ec211610094578063f14210a611610063578063f14210a61461064e578063f2fde38b14610676578063f6326fb31461069e578063f7888aec146106a857610207565b8063d6cb9ec2146105a4578063d9dc8694146105d2578063db81f99b146105fc578063e1e158a51461062457610207565b8063c70a94e2116100d0578063c70a94e214610500578063cb14228a1461052a578063cb398eb314610552578063d547741f1461057c57610207565b8063977ae0d114610496578063a217fddf146104c0578063b33712c5146104ea57610207565b80635c975abb11610163578063715018a61161013d578063715018a6146103f25780637dc532c5146104085780638da5cb5b1461043057806391d148541461045a57610207565b80635c975abb14610376578063698b7241146103a05780636f05c64c146103c857610207565b80632f2ff15d1161019f5780632f2ff15d146102e657806336568abe1461030e578063439766ce146103365780635c8de34c1461034c57610207565b806301ffc9a7146102445780630d3c6b3414610280578063248a9ca3146102aa57610207565b3661020757336040517f9f71e9160000000000000000000000000000000000000000000000000000000081526004016101fe91906129dc565b60405180910390fd5b336040517f9f71e91600000000000000000000000000000000000000000000000000000000815260040161023b91906129dc565b60405180910390fd5b34801561024f575f5ffd5b5061026a60048036038101906102659190612a4e565b6106e4565b6040516102779190612a93565b60405180910390f35b34801561028b575f5ffd5b506102946106f5565b6040516102a19190612ac4565b60405180910390f35b3480156102b5575f5ffd5b506102d060048036038101906102cb9190612b10565b61072c565b6040516102dd9190612b4a565b60405180910390f35b3480156102f1575f5ffd5b5061030c60048036038101906103079190612b8d565b610749565b005b348015610319575f5ffd5b50610334600480360381019061032f9190612b8d565b6107ad565b005b348015610341575f5ffd5b5061034a610828565b005b348015610357575f5ffd5b50610360610936565b60405161036d9190612ac4565b60405180910390f35b348015610381575f5ffd5b5061038a61093f565b6040516103979190612a93565b60405180910390f35b3480156103ab575f5ffd5b506103c660048036038101906103c19190612bf5565b610955565b005b3480156103d3575f5ffd5b506103dc610cbb565b6040516103e99190612c7b565b60405180910390f35b3480156103fd575f5ffd5b50610406610ce0565b005b348015610413575f5ffd5b5061042e60048036038101906104299190612c94565b610cf3565b005b34801561043b575f5ffd5b50610444611019565b60405161045191906129dc565b60405180910390f35b348015610465575f5ffd5b50610480600480360381019061047b9190612b8d565b611041565b60405161048d9190612a93565b60405180910390f35b3480156104a1575f5ffd5b506104aa6110a5565b6040516104b79190612ac4565b60405180910390f35b3480156104cb575f5ffd5b506104d46110db565b6040516104e19190612b4a565b60405180910390f35b3480156104f5575f5ffd5b506104fe6110e1565b005b34801561050b575f5ffd5b506105146111ef565b6040516105219190612ac4565b60405180910390f35b348015610535575f5ffd5b50610550600480360381019061054b9190612c94565b611319565b005b34801561055d575f5ffd5b50610566611461565b6040516105739190612b4a565b60405180910390f35b348015610587575f5ffd5b506105a2600480360381019061059d9190612b8d565b611485565b005b3480156105af575f5ffd5b506105b86114e9565b6040516105c9959493929190612cbf565b60405180910390f35b3480156105dd575f5ffd5b506105e661156e565b6040516105f39190612b4a565b60405180910390f35b348015610607575f5ffd5b50610622600480360381019061061d9190612bf5565b611592565b005b34801561062f575f5ffd5b506106386115a6565b6040516106459190612ac4565b60405180910390f35b348015610659575f5ffd5b50610674600480360381019061066f9190612bf5565b6115ae565b005b348015610681575f5ffd5b5061069c60048036038101906106979190612c94565b6115c2565b005b6106a6611646565b005b3480156106b3575f5ffd5b506106ce60048036038101906106c99190612d10565b61166d565b6040516106db9190612ac4565b60405180910390f35b5f6106ee826116ef565b9050919050565b5f600560109054906101000a90046fffffffffffffffffffffffffffffffff166fffffffffffffffffffffffffffffffff16905090565b5f60025f8381526020019081526020015f20600101549050919050565b610751611768565b61075b82826117ef565b8073ffffffffffffffffffffffffffffffffffffffff167fbb64af0934ea050e4d96a052dd96271eb1b4c71f5677a4af06d78b20d9dd30cf836040516107a19190612b4a565b60405180910390a25050565b6107b5611811565b73ffffffffffffffffffffffffffffffffffffffff168173ffffffffffffffffffffffffffffffffffffffff1614610819576040517f6697b23200000000000000000000000000000000000000000000000000000000815260040160405180910390fd5b6108238282611818565b505050565b7f539440820030c4994db4e31b6b800deafd503688728f932addfe7a410515c14c3373ffffffffffffffffffffffffffffffffffffffff16610868611019565b73ffffffffffffffffffffffffffffffffffffffff161415801561089357506108918133611041565b155b156108d557336040517f943fb0780000000000000000000000000000000000000000000000000000000081526004016108cc91906129dc565b60405180910390fd5b6108dd611902565b6108e5611943565b3373ffffffffffffffffffffffffffffffffffffffff167f46d2a254c0536d2a30fdfa06db40b28b09743afe6f05aeb9f03a56c4cec0ef084260405161092b9190612ac4565b60405180910390a250565b5f600454905090565b5f600160149054906101000a900460ff16905090565b805f810361099a57336040517f1b8b1c9100000000000000000000000000000000000000000000000000000000815260040161099191906129dc565b60405180910390fd5b7f0000000000000000000000000000000000000000000000000000000000000000600454826109c99190612d7b565b1115610a0c57806040517ff367fd73000000000000000000000000000000000000000000000000000000008152600401610a039190612ac4565b60405180910390fd5b610a14611902565b817f000000000000000000000000000000000000000000000000000000000000000073ffffffffffffffffffffffffffffffffffffffff1663dd62ed3e33306040518363ffffffff1660e01b8152600401610a70929190612dae565b602060405180830381865afa158015610a8b573d5f5f3e3d5ffd5b505050506040513d601f19601f82011682018060405250810190610aaf9190612de9565b1015610af257816040517faa9a0a9d000000000000000000000000000000000000000000000000000000008152600401610ae99190612ac4565b60405180910390fd5b8160065f7f000000000000000000000000000000000000000000000000000000000000000073ffffffffffffffffffffffffffffffffffffffff1673ffffffffffffffffffffffffffffffffffffffff1681526020019081526020015f205f3373ffffffffffffffffffffffffffffffffffffffff1673ffffffffffffffffffffffffffffffffffffffff1681526020019081526020015f205f828254610b999190612d7b565b9250508190555060055f81819054906101000a90046fffffffffffffffffffffffffffffffff1680929190610bcd90612e2f565b91906101000a8154816fffffffffffffffffffffffffffffffff02191690836fffffffffffffffffffffffffffffffff160217905550508160045f828254610c159190612d7b565b925050819055503373ffffffffffffffffffffffffffffffffffffffff167f7b7cd0ddbbea241880e825e1eb51c30752cb96dd7efeb4be691ec55dfa4d896383604051610c629190612ac4565b60405180910390a2610cb73330847f000000000000000000000000000000000000000000000000000000000000000073ffffffffffffffffffffffffffffffffffffffff166119a5909392919063ffffffff16565b5050565b60035f9054906101000a900473ffffffffffffffffffffffffffffffffffffffff1681565b610ce8611768565b610cf15f611a27565b565b7f9bbb3ee3bdfbe971682b08854a620ca4bf696f8e0c269e5c5b129a18e64d29df3373ffffffffffffffffffffffffffffffffffffffff16610d33611019565b73ffffffffffffffffffffffffffffffffffffffff1614158015610d5e5750610d5c8133611041565b155b15610da057336040517f943fb078000000000000000000000000000000000000000000000000000000008152600401610d9791906129dc565b60405180910390fd5b610da8611aea565b5f73ffffffffffffffffffffffffffffffffffffffff168273ffffffffffffffffffffffffffffffffffffffff1603610e0d576040517f4ab4914300000000000000000000000000000000000000000000000000000000815260040160405180910390fd5b8173ffffffffffffffffffffffffffffffffffffffff1663feaf968c6040518163ffffffff1660e01b815260040160a060405180830381865afa925050508015610e7557506040513d601f19601f82011682018060405250810190610e729190612ed8565b60015b610eb657816040517f83f68e89000000000000000000000000000000000000000000000000000000008152600401610ead91906129dc565b60405180910390fd5b5f8413610efa57866040517f83f68e89000000000000000000000000000000000000000000000000000000008152600401610ef191906129dc565b60405180910390fd5b610e1061ffff168242610f0d9190612f4f565b1115610f5057836040517f02f8429d000000000000000000000000000000000000000000000000000000008152600401610f479190612ac4565b60405180910390fd5b5f60035f9054906101000a900473ffffffffffffffffffffffffffffffffffffffff1690508760035f6101000a81548173ffffffffffffffffffffffffffffffffffffffff021916908373ffffffffffffffffffffffffffffffffffffffff1602179055508773ffffffffffffffffffffffffffffffffffffffff168173ffffffffffffffffffffffffffffffffffffffff167f076732c6a675470899fcb32bd34014d244a2b780f6812f8f818b26f893f79cdd60405160405180910390a35050505050505050565b5f60015f9054906101000a900473ffffffffffffffffffffffffffffffffffffffff16905090565b5f60025f8481526020019081526020015f205f015f8373ffffffffffffffffffffffffffffffffffffffff1673ffffffffffffffffffffffffffffffffffffffff1681526020019081526020015f205f9054906101000a900460ff16905092915050565b5f60055f9054906101000a90046fffffffffffffffffffffffffffffffff166fffffffffffffffffffffffffffffffff16905090565b5f5f1b81565b7f539440820030c4994db4e31b6b800deafd503688728f932addfe7a410515c14c3373ffffffffffffffffffffffffffffffffffffffff16611121611019565b73ffffffffffffffffffffffffffffffffffffffff161415801561114c575061114a8133611041565b155b1561118e57336040517f943fb07800000000000000000000000000000000000000000000000000000000815260040161118591906129dc565b60405180910390fd5b611196611aea565b61119e611b2a565b3373ffffffffffffffffffffffffffffffffffffffff167fe27d6b7b96c20e997f5082ff560410b815a1ecd7464e0ded63e7688e45d9b573426040516111e49190612ac4565b60405180910390a250565b5f60065f7f000000000000000000000000000000000000000000000000000000000000000073ffffffffffffffffffffffffffffffffffffffff1673ffffffffffffffffffffffffffffffffffffffff1681526020019081526020015f205f3373ffffffffffffffffffffffffffffffffffffffff1673ffffffffffffffffffffffffffffffffffffffff1681526020019081526020015f205461130a60065f5f73ffffffffffffffffffffffffffffffffffffffff1673ffffffffffffffffffffffffffffffffffffffff1681526020019081526020015f205f3373ffffffffffffffffffffffffffffffffffffffff1673ffffffffffffffffffffffffffffffffffffffff1681526020019081526020015f2054611b8c565b6113149190612d7b565b905090565b611321611768565b611329611aea565b5f611332611019565b90506113405f5f1b82611818565b5061136b7f539440820030c4994db4e31b6b800deafd503688728f932addfe7a410515c14c82611818565b506113967f9bbb3ee3bdfbe971682b08854a620ca4bf696f8e0c269e5c5b129a18e64d29df82611818565b506113a082611a27565b6113ac5f5f1b83611bbb565b506113d77f9bbb3ee3bdfbe971682b08854a620ca4bf696f8e0c269e5c5b129a18e64d29df83611bbb565b506114027f539440820030c4994db4e31b6b800deafd503688728f932addfe7a410515c14c83611bbb565b508173ffffffffffffffffffffffffffffffffffffffff168173ffffffffffffffffffffffffffffffffffffffff167f8bfdc1921679312be467b7979ccd28dc2bc1d122f99c6123d976f0bf50a3b43560405160405180910390a35050565b7f9bbb3ee3bdfbe971682b08854a620ca4bf696f8e0c269e5c5b129a18e64d29df81565b61148d611768565b6114978282611ca5565b8073ffffffffffffffffffffffffffffffffffffffff167f28005222cf9fd144f6f3a53f9517fd413afe5d9b67fd4cf81ddd013486721702836040516114dd9190612b4a565b60405180910390a25050565b5f5f5f5f5f6114f661093f565b6004547f00000000000000000000000000000000000000000000000000000000000000007f000000000000000000000000000000000000000000000000000000000000000060035f9054906101000a900473ffffffffffffffffffffffffffffffffffffffff16945094509450945094509091929394565b7f539440820030c4994db4e31b6b800deafd503688728f932addfe7a410515c14c81565b61159a611902565b6115a381611cc7565b50565b633b9aca0081565b6115b6611902565b6115bf81612028565b50565b6115ca611768565b5f73ffffffffffffffffffffffffffffffffffffffff168173ffffffffffffffffffffffffffffffffffffffff160361163a575f6040517f1e4fbdf700000000000000000000000000000000000000000000000000000000815260040161163191906129dc565b60405180910390fd5b61164381611a27565b50565b61164e611902565b5f3490505f61165c82611b8c565b90506116693382846123c5565b5050565b5f60065f8373ffffffffffffffffffffffffffffffffffffffff1673ffffffffffffffffffffffffffffffffffffffff1681526020019081526020015f205f8473ffffffffffffffffffffffffffffffffffffffff1673ffffffffffffffffffffffffffffffffffffffff1681526020019081526020015f2054905092915050565b5f7f7965db0b000000000000000000000000000000000000000000000000000000007bffffffffffffffffffffffffffffffffffffffffffffffffffffffff1916827bffffffffffffffffffffffffffffffffffffffffffffffffffffffff19161480611761575061176082612625565b5b9050919050565b611770611811565b73ffffffffffffffffffffffffffffffffffffffff1661178e611019565b73ffffffffffffffffffffffffffffffffffffffff16146117ed576117b1611811565b6040517f118cdaa70000000000000000000000000000000000000000000000000000000081526004016117e491906129dc565b60405180910390fd5b565b6117f88261072c565b6118018161268e565b61180b8383611bbb565b50505050565b5f33905090565b5f6118238383611041565b156118f8575f60025f8581526020019081526020015f205f015f8473ffffffffffffffffffffffffffffffffffffffff1673ffffffffffffffffffffffffffffffffffffffff1681526020019081526020015f205f6101000a81548160ff021916908315150217905550611895611811565b73ffffffffffffffffffffffffffffffffffffffff168273ffffffffffffffffffffffffffffffffffffffff16847ff6391f5c32d9c69d2a47ea670b442974b53935d1edc7fd64eb21e047a839171b60405160405180910390a4600190506118fc565b5f90505b92915050565b61190a61093f565b15611941576040517fd93c066500000000000000000000000000000000000000000000000000000000815260040160405180910390fd5b565b61194b611902565b60018060146101000a81548160ff0219169083151502179055507f62e78cea01bee320cd4e420270b5ea74000d11b0c9f74754ebdbfc544b05a25861198e611811565b60405161199b91906129dc565b60405180910390a1565b611a21848573ffffffffffffffffffffffffffffffffffffffff166323b872dd8686866040516024016119da93929190612f82565b604051602081830303815290604052915060e01b6020820180517bffffffffffffffffffffffffffffffffffffffffffffffffffffffff83818316178352505050506126a2565b50505050565b5f60015f9054906101000a900473ffffffffffffffffffffffffffffffffffffffff1690508160015f6101000a81548173ffffffffffffffffffffffffffffffffffffffff021916908373ffffffffffffffffffffffffffffffffffffffff1602179055508173ffffffffffffffffffffffffffffffffffffffff168173ffffffffffffffffffffffffffffffffffffffff167f8be0079c531659141344cd1fd0a4f28419497f9722a3daafe3b4186f6b6457e060405160405180910390a35050565b611af261093f565b611b28576040517f8dfc202b00000000000000000000000000000000000000000000000000000000815260040160405180910390fd5b565b611b32611aea565b5f600160146101000a81548160ff0219169083151502179055507f5db9ee0a495bf2e6ff9c91a7834c1ba4fdd244a5e8aa4e537bd38aeae4b073aa611b75611811565b604051611b8291906129dc565b60405180910390a1565b5f68056bc75e2d63100000611b9f61273d565b83611baa9190612fb7565b611bb49190613025565b9050919050565b5f611bc68383611041565b611c9b57600160025f8581526020019081526020015f205f015f8473ffffffffffffffffffffffffffffffffffffffff1673ffffffffffffffffffffffffffffffffffffffff1681526020019081526020015f205f6101000a81548160ff021916908315150217905550611c38611811565b73ffffffffffffffffffffffffffffffffffffffff168273ffffffffffffffffffffffffffffffffffffffff16847f2f8788117e7eff1d82e926ec794901d17c78024a50270940304540a733656f0d60405160405180910390a460019050611c9f565b5f90505b92915050565b611cae8261072c565b611cb78161268e565b611cc18383611818565b50505050565b611ccf612877565b805f8103611d1457336040517f1b8b1c91000000000000000000000000000000000000000000000000000000008152600401611d0b91906129dc565b60405180910390fd5b7f0000000000000000000000000000000000000000000000000000000000000000811115611d7957806040517f764e5de2000000000000000000000000000000000000000000000000000000008152600401611d709190612ac4565b60405180910390fd5b60065f7f000000000000000000000000000000000000000000000000000000000000000073ffffffffffffffffffffffffffffffffffffffff1673ffffffffffffffffffffffffffffffffffffffff1681526020019081526020015f205f3373ffffffffffffffffffffffffffffffffffffffff1673ffffffffffffffffffffffffffffffffffffffff1681526020019081526020015f2054811115611e585733816040517fbaa7a165000000000000000000000000000000000000000000000000000000008152600401611e4f929190613055565b60405180910390fd5b8160065f7f000000000000000000000000000000000000000000000000000000000000000073ffffffffffffffffffffffffffffffffffffffff1673ffffffffffffffffffffffffffffffffffffffff1681526020019081526020015f205f3373ffffffffffffffffffffffffffffffffffffffff1673ffffffffffffffffffffffffffffffffffffffff1681526020019081526020015f205f828254611eff9190612f4f565b925050819055506005601081819054906101000a90046fffffffffffffffffffffffffffffffff1680929190611f3490612e2f565b91906101000a8154816fffffffffffffffffffffffffffffffff02191690836fffffffffffffffffffffffffffffffff160217905550508160045f828254611f7c9190612f4f565b925050819055503373ffffffffffffffffffffffffffffffffffffffff167f1ff21e81cff87fccbac096ad565f52cb1b358db04a736a6a137cceb4a287a70283604051611fc99190612ac4565b60405180910390a261201c33837f000000000000000000000000000000000000000000000000000000000000000073ffffffffffffffffffffffffffffffffffffffff166128c49092919063ffffffff16565b50612025612943565b50565b612030612877565b805f61203b82611b8c565b90505f810361208157336040517f1b8b1c9100000000000000000000000000000000000000000000000000000000815260040161207891906129dc565b60405180910390fd5b7f00000000000000000000000000000000000000000000000000000000000000008111156120e657806040517f764e5de20000000000000000000000000000000000000000000000000000000081526004016120dd9190612ac4565b60405180910390fd5b60065f5f73ffffffffffffffffffffffffffffffffffffffff1673ffffffffffffffffffffffffffffffffffffffff1681526020019081526020015f205f3373ffffffffffffffffffffffffffffffffffffffff1673ffffffffffffffffffffffffffffffffffffffff1681526020019081526020015f20548211156121a55733816040517fbaa7a16500000000000000000000000000000000000000000000000000000000815260040161219c929190613055565b60405180910390fd5b5f6121af84611b8c565b90508360065f5f73ffffffffffffffffffffffffffffffffffffffff1673ffffffffffffffffffffffffffffffffffffffff1681526020019081526020015f205f3373ffffffffffffffffffffffffffffffffffffffff1673ffffffffffffffffffffffffffffffffffffffff1681526020019081526020015f205f8282546122389190612f4f565b925050819055506005601081819054906101000a90046fffffffffffffffffffffffffffffffff168092919061226d90612e2f565b91906101000a8154816fffffffffffffffffffffffffffffffff02191690836fffffffffffffffffffffffffffffffff160217905550508060045f8282546122b59190612f4f565b925050819055503373ffffffffffffffffffffffffffffffffffffffff167f1ff21e81cff87fccbac096ad565f52cb1b358db04a736a6a137cceb4a287a702826040516123029190612ac4565b60405180910390a25f3373ffffffffffffffffffffffffffffffffffffffff168560405161232f906130a9565b5f6040518083038185875af1925050503d805f8114612369576040519150601f19603f3d011682016040523d82523d5f602084013e61236e565b606091505b50509050806123b65733856040517f616624370000000000000000000000000000000000000000000000000000000081526004016123ad929190613055565b60405180910390fd5b505050506123c2612943565b50565b8181633b9aca0081101561241057806040517fd3c36e3a0000000000000000000000000000000000000000000000000000000081526004016124079190612ac4565b60405180910390fd5b5f820361245457336040517f1b8b1c9100000000000000000000000000000000000000000000000000000000815260040161244b91906129dc565b60405180910390fd5b7f0000000000000000000000000000000000000000000000000000000000000000600454836124839190612d7b565b11156124c657816040517ff367fd730000000000000000000000000000000000000000000000000000000081526004016124bd9190612ac4565b60405180910390fd5b8260065f5f73ffffffffffffffffffffffffffffffffffffffff1673ffffffffffffffffffffffffffffffffffffffff1681526020019081526020015f205f8773ffffffffffffffffffffffffffffffffffffffff1673ffffffffffffffffffffffffffffffffffffffff1681526020019081526020015f205f82825461254d9190612d7b565b9250508190555060055f81819054906101000a90046fffffffffffffffffffffffffffffffff168092919061258190612e2f565b91906101000a8154816fffffffffffffffffffffffffffffffff02191690836fffffffffffffffffffffffffffffffff160217905550508360045f8282546125c99190612d7b565b925050819055508473ffffffffffffffffffffffffffffffffffffffff167f7b7cd0ddbbea241880e825e1eb51c30752cb96dd7efeb4be691ec55dfa4d8963856040516126169190612ac4565b60405180910390a25050505050565b5f7f01ffc9a7000000000000000000000000000000000000000000000000000000007bffffffffffffffffffffffffffffffffffffffffffffffffffffffff1916827bffffffffffffffffffffffffffffffffffffffffffffffffffffffff1916149050919050565b61269f8161269a611811565b61294c565b50565b5f5f60205f8451602086015f885af1806126c1576040513d5f823e3d81fd5b3d92505f519150505f82146126da5760018114156126f5565b5f8473ffffffffffffffffffffffffffffffffffffffff163b145b1561273757836040517f5274afe700000000000000000000000000000000000000000000000000000000815260040161272e91906129dc565b60405180910390fd5b50505050565b5f5f5f60035f9054906101000a900473ffffffffffffffffffffffffffffffffffffffff1673ffffffffffffffffffffffffffffffffffffffff1663feaf968c6040518163ffffffff1660e01b815260040160a060405180830381865afa1580156127aa573d5f5f3e3d5ffd5b505050506040513d601f19601f820116820180604052508101906127ce9190612ed8565b509350509250505f821361281957816040517ffe7373760000000000000000000000000000000000000000000000000000000081526004016128109190612ac4565b60405180910390fd5b610e1061ffff16814261282c9190612f4f565b111561286f57816040517f02f8429d0000000000000000000000000000000000000000000000000000000081526004016128669190612ac4565b60405180910390fd5b819250505090565b60025f54036128bb576040517f08c379a00000000000000000000000000000000000000000000000000000000081526004016128b290613117565b60405180910390fd5b60025f81905550565b61293e838473ffffffffffffffffffffffffffffffffffffffff1663a9059cbb85856040516024016128f7929190613055565b604051602081830303815290604052915060e01b6020820180517bffffffffffffffffffffffffffffffffffffffffffffffffffffffff83818316178352505050506126a2565b505050565b60015f81905550565b6129568282611041565b6129995780826040517fe2517d3f000000000000000000000000000000000000000000000000000000008152600401612990929190613135565b60405180910390fd5b5050565b5f73ffffffffffffffffffffffffffffffffffffffff82169050919050565b5f6129c68261299d565b9050919050565b6129d6816129bc565b82525050565b5f6020820190506129ef5f8301846129cd565b92915050565b5f5ffd5b5f7fffffffff0000000000000000000000000000000000000000000000000000000082169050919050565b612a2d816129f9565b8114612a37575f5ffd5b50565b5f81359050612a4881612a24565b92915050565b5f60208284031215612a6357612a626129f5565b5b5f612a7084828501612a3a565b91505092915050565b5f8115159050919050565b612a8d81612a79565b82525050565b5f602082019050612aa65f830184612a84565b92915050565b5f819050919050565b612abe81612aac565b82525050565b5f602082019050612ad75f830184612ab5565b92915050565b5f819050919050565b612aef81612add565b8114612af9575f5ffd5b50565b5f81359050612b0a81612ae6565b92915050565b5f60208284031215612b2557612b246129f5565b5b5f612b3284828501612afc565b91505092915050565b612b4481612add565b82525050565b5f602082019050612b5d5f830184612b3b565b92915050565b612b6c816129bc565b8114612b76575f5ffd5b50565b5f81359050612b8781612b63565b92915050565b5f5f60408385031215612ba357612ba26129f5565b5b5f612bb085828601612afc565b9250506020612bc185828601612b79565b9150509250929050565b612bd481612aac565b8114612bde575f5ffd5b50565b5f81359050612bef81612bcb565b92915050565b5f60208284031215612c0a57612c096129f5565b5b5f612c1784828501612be1565b91505092915050565b5f819050919050565b5f612c43612c3e612c398461299d565b612c20565b61299d565b9050919050565b5f612c5482612c29565b9050919050565b5f612c6582612c4a565b9050919050565b612c7581612c5b565b82525050565b5f602082019050612c8e5f830184612c6c565b92915050565b5f60208284031215612ca957612ca86129f5565b5b5f612cb684828501612b79565b91505092915050565b5f60a082019050612cd25f830188612a84565b612cdf6020830187612ab5565b612cec6040830186612ab5565b612cf96060830185612ab5565b612d0660808301846129cd565b9695505050505050565b5f5f60408385031215612d2657612d256129f5565b5b5f612d3385828601612b79565b9250506020612d4485828601612b79565b9150509250929050565b7f4e487b71000000000000000000000000000000000000000000000000000000005f52601160045260245ffd5b5f612d8582612aac565b9150612d9083612aac565b9250828201905080821115612da857612da7612d4e565b5b92915050565b5f604082019050612dc15f8301856129cd565b612dce60208301846129cd565b9392505050565b5f81519050612de381612bcb565b92915050565b5f60208284031215612dfe57612dfd6129f5565b5b5f612e0b84828501612dd5565b91505092915050565b5f6fffffffffffffffffffffffffffffffff82169050919050565b5f612e3982612e14565b91506fffffffffffffffffffffffffffffffff8203612e5b57612e5a612d4e565b5b600182019050919050565b5f69ffffffffffffffffffff82169050919050565b612e8481612e66565b8114612e8e575f5ffd5b50565b5f81519050612e9f81612e7b565b92915050565b5f819050919050565b612eb781612ea5565b8114612ec1575f5ffd5b50565b5f81519050612ed281612eae565b92915050565b5f5f5f5f5f60a08688031215612ef157612ef06129f5565b5b5f612efe88828901612e91565b9550506020612f0f88828901612ec4565b9450506040612f2088828901612dd5565b9350506060612f3188828901612dd5565b9250506080612f4288828901612e91565b9150509295509295909350565b5f612f5982612aac565b9150612f6483612aac565b9250828203905081811115612f7c57612f7b612d4e565b5b92915050565b5f606082019050612f955f8301866129cd565b612fa260208301856129cd565b612faf6040830184612ab5565b949350505050565b5f612fc182612aac565b9150612fcc83612aac565b9250828202612fda81612aac565b91508282048414831517612ff157612ff0612d4e565b5b5092915050565b7f4e487b71000000000000000000000000000000000000000000000000000000005f52601260045260245ffd5b5f61302f82612aac565b915061303a83612aac565b92508261304a57613049612ff8565b5b828204905092915050565b5f6040820190506130685f8301856129cd565b6130756020830184612ab5565b9392505050565b5f81905092915050565b50565b5f6130945f8361307c565b915061309f82613086565b5f82019050919050565b5f6130b382613089565b9150819050919050565b5f82825260208201905092915050565b7f5265656e7472616e637947756172643a207265656e7472616e742063616c6c005f82015250565b5f613101601f836130bd565b915061310c826130cd565b602082019050919050565b5f6020820190508181035f83015261312e816130f5565b9050919050565b5f6040820190506131485f8301856129cd565b6131556020830184612b3b565b939250505056fea26469706673582212205cb6e67262bc923e2d39b74a667e0d6ce4c886d95e6e0f3b1f76d50666b498f764736f6c634300081e0033",
			"opcodes": "PUSH1 0xE0 PUSH1 0x40 MSTORE PUSH0 PUSH1 0x4 SSTORE PUSH0 PUSH1 0x5 PUSH0 PUSH2 0x100 EXP DUP2 SLOAD DUP2 PUSH16 0xFFFFFFFFFFFFFFFFFFFFFFFFFFFFFFFF MUL NOT AND SWAP1 DUP4 PUSH16 0xFFFFFFFFFFFFFFFFFFFFFFFFFFFFFFFF AND MUL OR SWAP1 SSTORE POP PUSH0 PUSH1 0x5 PUSH1 0x10 PUSH2 0x100 EXP DUP2 SLOAD DUP2 PUSH16 0xFFFFFFFFFFFFFFFFFFFFFFFFFFFFFFFF MUL NOT AND SWAP1 DUP4 PUSH16 0xFFFFFFFFFFFFFFFFFFFFFFFFFFFFFFFF AND MUL OR SWAP1 SSTORE POP CALLVALUE DUP1 ISZERO PUSH2 0x84 JUMPI PUSH0 PUSH0 REVERT JUMPDEST POP PUSH1 0x40 MLOAD PUSH2 0x396F CODESIZE SUB DUP1 PUSH2 0x396F DUP4 CODECOPY DUP2 DUP2 ADD PUSH1 0x40 MSTORE DUP2 ADD SWAP1 PUSH2 0xA6 SWAP2 SWAP1 PUSH2 0x67F JUMP JUMPDEST DUP3 PUSH1 0x1 PUSH0 DUP2 SWAP1 SSTORE POP PUSH0 PUSH20 0xFFFFFFFFFFFFFFFFFFFFFFFFFFFFFFFFFFFFFFFF AND DUP2 PUSH20 0xFFFFFFFFFFFFFFFFFFFFFFFFFFFFFFFFFFFFFFFF AND SUB PUSH2 0x11E JUMPI PUSH0 PUSH1 0x40 MLOAD PUSH32 0x1E4FBDF700000000000000000000000000000000000000000000000000000000 DUP2 MSTORE PUSH1 0x4 ADD PUSH2 0x115 SWAP2 SWAP1 PUSH2 0x705 JUMP JUMPDEST PUSH1 0x40 MLOAD DUP1 SWAP2 SUB SWAP1 REVERT JUMPDEST PUSH2 0x12D DUP2 PUSH2 0x3CA PUSH1 0x20 SHL PUSH1 0x20 SHR JUMP JUMPDEST POP PUSH0 DUP6 SUB PUSH2 0x172 JUMPI DUP5 PUSH1 0x40 MLOAD PUSH32 0x7FA42BE200000000000000000000000000000000000000000000000000000000 DUP2 MSTORE PUSH1 0x4 ADD PUSH2 0x169 SWAP2 SWAP1 PUSH2 0x72D JUMP JUMPDEST PUSH1 0x40 MLOAD DUP1 SWAP2 SUB SWAP1 REVERT JUMPDEST PUSH0 DUP5 SUB PUSH2 0x1B6 JUMPI DUP4 PUSH1 0x40 MLOAD PUSH32 0xD71FE66C00000000000000000000000000000000000000000000000000000000 DUP2 MSTORE PUSH1 0x4 ADD PUSH2 0x1AD SWAP2 SWAP1 PUSH2 0x72D JUMP JUMPDEST PUSH1 0x40 MLOAD DUP1 SWAP2 SUB SWAP1 REVERT JUMPDEST DUP5 DUP5 GT ISZERO PUSH2 0x1FD JUMPI DUP5 DUP5 PUSH1 0x40 MLOAD PUSH32 0x359F62AB00000000000000000000000000000000000000000000000000000000 DUP2 MSTORE PUSH1 0x4 ADD PUSH2 0x1F4 SWAP3 SWAP2 SWAP1 PUSH2 0x746 JUMP JUMPDEST PUSH1 0x40 MLOAD DUP1 SWAP2 SUB SWAP1 REVERT JUMPDEST PUSH0 PUSH20 0xFFFFFFFFFFFFFFFFFFFFFFFFFFFFFFFFFFFFFFFF AND DUP3 PUSH20 0xFFFFFFFFFFFFFFFFFFFFFFFFFFFFFFFFFFFFFFFF AND SUB PUSH2 0x262 JUMPI PUSH1 0x40 MLOAD PUSH32 0x4AB4914300000000000000000000000000000000000000000000000000000000 DUP2 MSTORE PUSH1 0x4 ADD PUSH1 0x40 MLOAD DUP1 SWAP2 SUB SWAP1 REVERT JUMPDEST PUSH0 PUSH20 0xFFFFFFFFFFFFFFFFFFFFFFFFFFFFFFFFFFFFFFFF AND DUP2 PUSH20 0xFFFFFFFFFFFFFFFFFFFFFFFFFFFFFFFFFFFFFFFF AND SUB PUSH2 0x2C7 JUMPI PUSH1 0x40 MLOAD PUSH32 0x4AB4914300000000000000000000000000000000000000000000000000000000 DUP2 MSTORE PUSH1 0x4 ADD PUSH1 0x40 MLOAD DUP1 SWAP2 SUB SWAP1 REVERT JUMPDEST PUSH2 0x2D9 PUSH0 PUSH0 SHL DUP5 PUSH2 0x48D PUSH1 0x20 SHL PUSH1 0x20 SHR JUMP JUMPDEST POP PUSH2 0x30A PUSH32 0x539440820030C4994DB4E31B6B800DEAFD503688728F932ADDFE7A410515C14C DUP5 PUSH2 0x48D PUSH1 0x20 SHL PUSH1 0x20 SHR JUMP JUMPDEST POP PUSH2 0x33B PUSH32 0x9BBB3EE3BDFBE971682B08854A620CA4BF696F8E0C269E5C5B129A18E64D29DF DUP5 PUSH2 0x48D PUSH1 0x20 SHL PUSH1 0x20 SHR JUMP JUMPDEST POP DUP1 PUSH20 0xFFFFFFFFFFFFFFFFFFFFFFFFFFFFFFFFFFFFFFFF AND PUSH1 0x80 DUP2 PUSH20 0xFFFFFFFFFFFFFFFFFFFFFFFFFFFFFFFFFFFFFFFF AND DUP2 MSTORE POP POP DUP2 PUSH1 0x3 PUSH0 PUSH2 0x100 EXP DUP2 SLOAD DUP2 PUSH20 0xFFFFFFFFFFFFFFFFFFFFFFFFFFFFFFFFFFFFFFFF MUL NOT AND SWAP1 DUP4 PUSH20 0xFFFFFFFFFFFFFFFFFFFFFFFFFFFFFFFFFFFFFFFF AND MUL OR SWAP1 SSTORE POP DUP5 PUSH1 0xC0 DUP2 DUP2 MSTORE POP POP DUP4 PUSH1 0xA0 DUP2 DUP2 MSTORE POP POP POP POP POP POP POP PUSH2 0x76D JUMP JUMPDEST PUSH0 PUSH1 0x1 PUSH0 SWAP1 SLOAD SWAP1 PUSH2 0x100 EXP SWAP1 DIV PUSH20 0xFFFFFFFFFFFFFFFFFFFFFFFFFFFFFFFFFFFFFFFF AND SWAP1 POP DUP2 PUSH1 0x1 PUSH0 PUSH2 0x100 EXP DUP2 SLOAD DUP2 PUSH20 0xFFFFFFFFFFFFFFFFFFFFFFFFFFFFFFFFFFFFFFFF MUL NOT AND SWAP1 DUP4 PUSH20 0xFFFFFFFFFFFFFFFFFFFFFFFFFFFFFFFFFFFFFFFF AND MUL OR SWAP1 SSTORE POP DUP2 PUSH20 0xFFFFFFFFFFFFFFFFFFFFFFFFFFFFFFFFFFFFFFFF AND DUP2 PUSH20 0xFFFFFFFFFFFFFFFFFFFFFFFFFFFFFFFFFFFFFFFF AND PUSH32 0x8BE0079C531659141344CD1FD0A4F28419497F9722A3DAAFE3B4186F6B6457E0 PUSH1 0x40 MLOAD PUSH1 0x40 MLOAD DUP1 SWAP2 SUB SWAP1 LOG3 POP POP JUMP JUMPDEST PUSH0 PUSH2 0x49E DUP4 DUP4 PUSH2 0x583 PUSH1 0x20 SHL PUSH1 0x20 SHR JUMP JUMPDEST PUSH2 0x579 JUMPI PUSH1 0x1 PUSH1 0x2 PUSH0 DUP6 DUP2 MSTORE PUSH1 0x20 ADD SWAP1 DUP2 MSTORE PUSH1 0x20 ADD PUSH0 KECCAK256 PUSH0 ADD PUSH0 DUP5 PUSH20 0xFFFFFFFFFFFFFFFFFFFFFFFFFFFFFFFFFFFFFFFF AND PUSH20 0xFFFFFFFFFFFFFFFFFFFFFFFFFFFFFFFFFFFFFFFF AND DUP2 MSTORE PUSH1 0x20 ADD SWAP1 DUP2 MSTORE PUSH1 0x20 ADD PUSH0 KECCAK256 PUSH0 PUSH2 0x100 EXP DUP2 SLOAD DUP2 PUSH1 0xFF MUL NOT AND SWAP1 DUP4 ISZERO ISZERO MUL OR SWAP1 SSTORE POP PUSH2 0x516 PUSH2 0x5E7 PUSH1 0x20 SHL PUSH1 0x20 SHR JUMP JUMPDEST PUSH20 0xFFFFFFFFFFFFFFFFFFFFFFFFFFFFFFFFFFFFFFFF AND DUP3 PUSH20 0xFFFFFFFFFFFFFFFFFFFFFFFFFFFFFFFFFFFFFFFF AND DUP5 PUSH32 0x2F8788117E7EFF1D82E926EC794901D17C78024A50270940304540A733656F0D PUSH1 0x40 MLOAD PUSH1 0x40 MLOAD DUP1 SWAP2 SUB SWAP1 LOG4 PUSH1 0x1 SWAP1 POP PUSH2 0x57D JUMP JUMPDEST PUSH0 SWAP1 POP JUMPDEST SWAP3 SWAP2 POP POP JUMP JUMPDEST PUSH0 PUSH1 0x2 PUSH0 DUP5 DUP2 MSTORE PUSH1 0x20 ADD SWAP1 DUP2 MSTORE PUSH1 0x20 ADD PUSH0 KECCAK256 PUSH0 ADD PUSH0 DUP4 PUSH20 0xFFFFFFFFFFFFFFFFFFFFFFFFFFFFFFFFFFFFFFFF AND PUSH20 0xFFFFFFFFFFFFFFFFFFFFFFFFFFFFFFFFFFFFFFFF AND DUP2 MSTORE PUSH1 0x20 ADD SWAP1 DUP2 MSTORE PUSH1 0x20 ADD PUSH0 KECCAK256 PUSH0 SWAP1 SLOAD SWAP1 PUSH2 0x100 EXP SWAP1 DIV PUSH1 0xFF AND SWAP1 POP SWAP3 SWAP2 POP POP JUMP JUMPDEST PUSH0 CALLER SWAP1 POP SWAP1 JUMP JUMPDEST PUSH0 PUSH0 REVERT JUMPDEST PUSH0 DUP2 SWAP1 POP SWAP2 SWAP1 POP JUMP JUMPDEST PUSH2 0x604 DUP2 PUSH2 0x5F2 JUMP JUMPDEST DUP2 EQ PUSH2 0x60E JUMPI PUSH0 PUSH0 REVERT JUMPDEST POP JUMP JUMPDEST PUSH0 DUP2 MLOAD SWAP1 POP PUSH2 0x61F DUP2 PUSH2 0x5FB JUMP JUMPDEST SWAP3 SWAP2 POP POP JUMP JUMPDEST PUSH0 PUSH20 0xFFFFFFFFFFFFFFFFFFFFFFFFFFFFFFFFFFFFFFFF DUP3 AND SWAP1 POP SWAP2 SWAP1 POP JUMP JUMPDEST PUSH0 PUSH2 0x64E DUP3 PUSH2 0x625 JUMP JUMPDEST SWAP1 POP SWAP2 SWAP1 POP JUMP JUMPDEST PUSH2 0x65E DUP2 PUSH2 0x644 JUMP JUMPDEST DUP2 EQ PUSH2 0x668 JUMPI PUSH0 PUSH0 REVERT JUMPDEST POP JUMP JUMPDEST PUSH0 DUP2 MLOAD SWAP1 POP PUSH2 0x679 DUP2 PUSH2 0x655 JUMP JUMPDEST SWAP3 SWAP2 POP POP JUMP JUMPDEST PUSH0 PUSH0 PUSH0 PUSH0 PUSH0 PUSH1 0xA0 DUP7 DUP9 SUB SLT ISZERO PUSH2 0x698 JUMPI PUSH2 0x697 PUSH2 0x5EE JUMP JUMPDEST JUMPDEST PUSH0 PUSH2 0x6A5 DUP9 DUP3 DUP10 ADD PUSH2 0x611 JUMP JUMPDEST SWAP6 POP POP PUSH1 0x20 PUSH2 0x6B6 DUP9 DUP3 DUP10 ADD PUSH2 0x611 JUMP JUMPDEST SWAP5 POP POP PUSH1 0x40 PUSH2 0x6C7 DUP9 DUP3 DUP10 ADD PUSH2 0x66B JUMP JUMPDEST SWAP4 POP POP PUSH1 0x60 PUSH2 0x6D8 DUP9 DUP3 DUP10 ADD PUSH2 0x66B JUMP JUMPDEST SWAP3 POP POP PUSH1 0x80 PUSH2 0x6E9 DUP9 DUP3 DUP10 ADD PUSH2 0x66B JUMP JUMPDEST SWAP2 POP POP SWAP3 SWAP6 POP SWAP3 SWAP6 SWAP1 SWAP4 POP JUMP JUMPDEST PUSH2 0x6FF DUP2 PUSH2 0x644 JUMP JUMPDEST DUP3 MSTORE POP POP JUMP JUMPDEST PUSH0 PUSH1 0x20 DUP3 ADD SWAP1 POP PUSH2 0x718 PUSH0 DUP4 ADD DUP5 PUSH2 0x6F6 JUMP JUMPDEST SWAP3 SWAP2 POP POP JUMP JUMPDEST PUSH2 0x727 DUP2 PUSH2 0x5F2 JUMP JUMPDEST DUP3 MSTORE POP POP JUMP JUMPDEST PUSH0 PUSH1 0x20 DUP3 ADD SWAP1 POP PUSH2 0x740 PUSH0 DUP4 ADD DUP5 PUSH2 0x71E JUMP JUMPDEST SWAP3 SWAP2 POP POP JUMP JUMPDEST PUSH0 PUSH1 0x40 DUP3 ADD SWAP1 POP PUSH2 0x759 PUSH0 DUP4 ADD DUP6 PUSH2 0x71E JUMP JUMPDEST PUSH2 0x766 PUSH1 0x20 DUP4 ADD DUP5 PUSH2 0x71E JUMP JUMPDEST SWAP4 SWAP3 POP POP POP JUMP JUMPDEST PUSH1 0x80 MLOAD PUSH1 0xA0 MLOAD PUSH1 0xC0 MLOAD PUSH2 0x3192 PUSH2 0x7DD PUSH0 CODECOPY PUSH0 DUP2 DUP2 PUSH2 0x99C ADD MSTORE DUP2 DUP2 PUSH2 0x14FB ADD MSTORE PUSH2 0x2456 ADD MSTORE PUSH0 DUP2 DUP2 PUSH2 0x151C ADD MSTORE DUP2 DUP2 PUSH2 0x1D16 ADD MSTORE PUSH2 0x2083 ADD MSTORE PUSH0 DUP2 DUP2 PUSH2 0xA17 ADD MSTORE DUP2 DUP2 PUSH2 0xAF8 ADD MSTORE DUP2 DUP2 PUSH2 0xC72 ADD MSTORE DUP2 DUP2 PUSH2 0x11F5 ADD MSTORE DUP2 DUP2 PUSH2 0x1D7E ADD MSTORE DUP2 DUP2 PUSH2 0x1E5E ADD MSTORE PUSH2 0x1FD8 ADD MSTORE PUSH2 0x3192 PUSH0 RETURN INVALID PUSH1 0x80 PUSH1 0x40 MSTORE PUSH1 0x4 CALLDATASIZE LT PUSH2 0x1C5 JUMPI PUSH0 CALLDATALOAD PUSH1 0xE0 SHR DUP1 PUSH4 0x977AE0D1 GT PUSH2 0xF6 JUMPI DUP1 PUSH4 0xD6CB9EC2 GT PUSH2 0x94 JUMPI DUP1 PUSH4 0xF14210A6 GT PUSH2 0x63 JUMPI DUP1 PUSH4 0xF14210A6 EQ PUSH2 0x64E JUMPI DUP1 PUSH4 0xF2FDE38B EQ PUSH2 0x676 JUMPI DUP1 PUSH4 0xF6326FB3 EQ PUSH2 0x69E JUMPI DUP1 PUSH4 0xF7888AEC EQ PUSH2 0x6A8 JUMPI PUSH2 0x207 JUMP JUMPDEST DUP1 PUSH4 0xD6CB9EC2 EQ PUSH2 0x5A4 JUMPI DUP1 PUSH4 0xD9DC8694 EQ PUSH2 0x5D2 JUMPI DUP1 PUSH4 0xDB81F99B EQ PUSH2 0x5FC JUMPI DUP1 PUSH4 0xE1E158A5 EQ PUSH2 0x624 JUMPI PUSH2 0x207 JUMP JUMPDEST DUP1 PUSH4 0xC70A94E2 GT PUSH2 0xD0 JUMPI DUP1 PUSH4 0xC70A94E2 EQ PUSH2 0x500 JUMPI DUP1 PUSH4 0xCB14228A EQ PUSH2 0x52A JUMPI DUP1 PUSH4 0xCB398EB3 EQ PUSH2 0x552 JUMPI DUP1 PUSH4 0xD547741F EQ PUSH2 0x57C JUMPI PUSH2 0x207 JUMP JUMPDEST DUP1 PUSH4 0x977AE0D1 EQ PUSH2 0x496 JUMPI DUP1 PUSH4 0xA217FDDF EQ PUSH2 0x4C0 JUMPI DUP1 PUSH4 0xB33712C5 EQ PUSH2 0x4EA JUMPI PUSH2 0x207 JUMP JUMPDEST DUP1 PUSH4 0x5C975ABB GT PUSH2 0x163 JUMPI DUP1 PUSH4 0x715018A6 GT PUSH2 0x13D JUMPI DUP1 PUSH4 0x715018A6 EQ PUSH2 0x3F2 JUMPI DUP1 PUSH4 0x7DC532C5 EQ PUSH2 0x408 JUMPI DUP1 PUSH4 0x8DA5CB5B EQ PUSH2 0x430 JUMPI DUP1 PUSH4 0x91D14854 EQ PUSH2 0x45A JUMPI PUSH2 0x207 JUMP JUMPDEST DUP1 PUSH4 0x5C975ABB EQ PUSH2 0x376 JUMPI DUP1 PUSH4 0x698B7241 EQ PUSH2 0x3A0 JUMPI DUP1 PUSH4 0x6F05C64C EQ PUSH2 0x3C8 JUMPI PUSH2 0x207 JUMP JUMPDEST DUP1 PUSH4 0x2F2FF15D GT PUSH2 0x19F JUMPI DUP1 PUSH4 0x2F2FF15D EQ PUSH2 0x2E6 JUMPI DUP1 PUSH4 0x36568ABE EQ PUSH2 0x30E JUMPI DUP1 PUSH4 0x439766CE EQ PUSH2 0x336 JUMPI DUP1 PUSH4 0x5C8DE34C EQ PUSH2 0x34C JUMPI PUSH2 0x207 JUMP JUMPDEST DUP1 PUSH4 0x1FFC9A7 EQ PUSH2 0x244 JUMPI DUP1 PUSH4 0xD3C6B34 EQ PUSH2 0x280 JUMPI DUP1 PUSH4 0x248A9CA3 EQ PUSH2 0x2AA JUMPI PUSH2 0x207 JUMP JUMPDEST CALLDATASIZE PUSH2 0x207 JUMPI CALLER PUSH1 0x40 MLOAD PUSH32 0x9F71E91600000000000000000000000000000000000000000000000000000000 DUP2 MSTORE PUSH1 0x4 ADD PUSH2 0x1FE SWAP2 SWAP1 PUSH2 0x29DC JUMP JUMPDEST PUSH1 0x40 MLOAD DUP1 SWAP2 SUB SWAP1 REVERT JUMPDEST CALLER PUSH1 0x40 MLOAD PUSH32 0x9F71E91600000000000000000000000000000000000000000000000000000000 DUP2 MSTORE PUSH1 0x4 ADD PUSH2 0x23B SWAP2 SWAP1 PUSH2 0x29DC JUMP JUMPDEST PUSH1 0x40 MLOAD DUP1 SWAP2 SUB SWAP1 REVERT JUMPDEST CALLVALUE DUP1 ISZERO PUSH2 0x24F JUMPI PUSH0 PUSH0 REVERT JUMPDEST POP PUSH2 0x26A PUSH1 0x4 DUP1 CALLDATASIZE SUB DUP2 ADD SWAP1 PUSH2 0x265 SWAP2 SWAP1 PUSH2 0x2A4E JUMP JUMPDEST PUSH2 0x6E4 JUMP JUMPDEST PUSH1 0x40 MLOAD PUSH2 0x277 SWAP2 SWAP1 PUSH2 0x2A93 JUMP JUMPDEST PUSH1 0x40 MLOAD DUP1 SWAP2 SUB SWAP1 RETURN JUMPDEST CALLVALUE DUP1 ISZERO PUSH2 0x28B JUMPI PUSH0 PUSH0 REVERT JUMPDEST POP PUSH2 0x294 PUSH2 0x6F5 JUMP JUMPDEST PUSH1 0x40 MLOAD PUSH2 0x2A1 SWAP2 SWAP1 PUSH2 0x2AC4 JUMP JUMPDEST PUSH1 0x40 MLOAD DUP1 SWAP2 SUB SWAP1 RETURN JUMPDEST CALLVALUE DUP1 ISZERO PUSH2 0x2B5 JUMPI PUSH0 PUSH0 REVERT JUMPDEST POP PUSH2 0x2D0 PUSH1 0x4 DUP1 CALLDATASIZE SUB DUP2 ADD SWAP1 PUSH2 0x2CB SWAP2 SWAP1 PUSH2 0x2B10 JUMP JUMPDEST PUSH2 0x72C JUMP JUMPDEST PUSH1 0x40 MLOAD PUSH2 0x2DD SWAP2 SWAP1 PUSH2 0x2B4A JUMP JUMPDEST PUSH1 0x40 MLOAD DUP1 SWAP2 SUB SWAP1 RETURN JUMPDEST CALLVALUE DUP1 ISZERO PUSH2 0x2F1 JUMPI PUSH0 PUSH0 REVERT JUMPDEST POP PUSH2 0x30C PUSH1 0x4 DUP1 CALLDATASIZE SUB DUP2 ADD SWAP1 PUSH2 0x307 SWAP2 SWAP1 PUSH2 0x2B8D JUMP JUMPDEST PUSH2 0x749 JUMP JUMPDEST STOP JUMPDEST CALLVALUE DUP1 ISZERO PUSH2 0x319 JUMPI PUSH0 PUSH0 REVERT JUMPDEST POP PUSH2 0x334 PUSH1 0x4 DUP1 CALLDATASIZE SUB DUP2 ADD SWAP1 PUSH2 0x32F SWAP2 SWAP1 PUSH2 0x2B8D JUMP JUMPDEST PUSH2 0x7AD JUMP JUMPDEST STOP JUMPDEST CALLVALUE DUP1 ISZERO PUSH2 0x341 JUMPI PUSH0 PUSH0 REVERT JUMPDEST POP PUSH2 0x34A PUSH2 0x828 JUMP JUMPDEST STOP JUMPDEST CALLVALUE DUP1 ISZERO PUSH2 0x357 JUMPI PUSH0 PUSH0 REVERT JUMPDEST POP PUSH2 0x360 PUSH2 0x936 JUMP JUMPDEST PUSH1 0x40 MLOAD PUSH2 0x36D SWAP2 SWAP1 PUSH2 0x2AC4 JUMP JUMPDEST PUSH1 0x40 MLOAD DUP1 SWAP2 SUB SWAP1 RETURN JUMPDEST CALLVALUE DUP1 ISZERO PUSH2 0x381 JUMPI PUSH0 PUSH0 REVERT JUMPDEST POP PUSH2 0x38A PUSH2 0x93F JUMP JUMPDEST PUSH1 0x40 MLOAD PUSH2 0x397 SWAP2 SWAP1 PUSH2 0x2A93 JUMP JUMPDEST PUSH1 0x40 MLOAD DUP1 SWAP2 SUB SWAP1 RETURN JUMPDEST CALLVALUE DUP1 ISZERO PUSH2 0x3AB JUMPI PUSH0 PUSH0 REVERT JUMPDEST POP PUSH2 0x3C6 PUSH1 0x4 DUP1 CALLDATASIZE SUB DUP2 ADD SWAP1 PUSH2 0x3C1 SWAP2 SWAP1 PUSH2 0x2BF5 JUMP JUMPDEST PUSH2 0x955 JUMP JUMPDEST STOP JUMPDEST CALLVALUE DUP1 ISZERO PUSH2 0x3D3 JUMPI PUSH0 PUSH0 REVERT JUMPDEST POP PUSH2 0x3DC PUSH2 0xCBB JUMP JUMPDEST PUSH1 0x40 MLOAD PUSH2 0x3E9 SWAP2 SWAP1 PUSH2 0x2C7B JUMP JUMPDEST PUSH1 0x40 MLOAD DUP1 SWAP2 SUB SWAP1 RETURN JUMPDEST CALLVALUE DUP1 ISZERO PUSH2 0x3FD JUMPI PUSH0 PUSH0 REVERT JUMPDEST POP PUSH2 0x406 PUSH2 0xCE0 JUMP JUMPDEST STOP JUMPDEST CALLVALUE DUP1 ISZERO PUSH2 0x413 JUMPI PUSH0 PUSH0 REVERT JUMPDEST POP PUSH2 0x42E PUSH1 0x4 DUP1 CALLDATASIZE SUB DUP2 ADD SWAP1 PUSH2 0x429 SWAP2 SWAP1 PUSH2 0x2C94 JUMP JUMPDEST PUSH2 0xCF3 JUMP JUMPDEST STOP JUMPDEST CALLVALUE DUP1 ISZERO PUSH2 0x43B JUMPI PUSH0 PUSH0 REVERT JUMPDEST POP PUSH2 0x444 PUSH2 0x1019 JUMP JUMPDEST PUSH1 0x40 MLOAD PUSH2 0x451 SWAP2 SWAP1 PUSH2 0x29DC JUMP JUMPDEST PUSH1 0x40 MLOAD DUP1 SWAP2 SUB SWAP1 RETURN JUMPDEST CALLVALUE DUP1 ISZERO PUSH2 0x465 JUMPI PUSH0 PUSH0 REVERT JUMPDEST POP PUSH2 0x480 PUSH1 0x4 DUP1 CALLDATASIZE SUB DUP2 ADD SWAP1 PUSH2 0x47B SWAP2 SWAP1 PUSH2 0x2B8D JUMP JUMPDEST PUSH2 0x1041 JUMP JUMPDEST PUSH1 0x40 MLOAD PUSH2 0x48D SWAP2 SWAP1 PUSH2 0x2A93 JUMP JUMPDEST PUSH1 0x40 MLOAD DUP1 SWAP2 SUB SWAP1 RETURN JUMPDEST CALLVALUE DUP1 ISZERO PUSH2 0x4A1 JUMPI PUSH0 PUSH0 REVERT JUMPDEST POP PUSH2 0x4AA PUSH2 0x10A5 JUMP JUMPDEST PUSH1 0x40 MLOAD PUSH2 0x4B7 SWAP2 SWAP1 PUSH2 0x2AC4 JUMP JUMPDEST PUSH1 0x40 MLOAD DUP1 SWAP2 SUB SWAP1 RETURN JUMPDEST CALLVALUE DUP1 ISZERO PUSH2 0x4CB JUMPI PUSH0 PUSH0 REVERT JUMPDEST POP PUSH2 0x4D4 PUSH2 0x10DB JUMP JUMPDEST PUSH1 0x40 MLOAD PUSH2 0x4E1 SWAP2 SWAP1 PUSH2 0x2B4A JUMP JUMPDEST PUSH1 0x40 MLOAD DUP1 SWAP2 SUB SWAP1 RETURN JUMPDEST CALLVALUE DUP1 ISZERO PUSH2 0x4F5 JUMPI PUSH0 PUSH0 REVERT JUMPDEST POP PUSH2 0x4FE PUSH2 0x10E1 JUMP JUMPDEST STOP JUMPDEST CALLVALUE DUP1 ISZERO PUSH2 0x50B JUMPI PUSH0 PUSH0 REVERT JUMPDEST POP PUSH2 0x514 PUSH2 0x11EF JUMP JUMPDEST PUSH1 0x40 MLOAD PUSH2 0x521 SWAP2 SWAP1 PUSH2 0x2AC4 JUMP JUMPDEST PUSH1 0x40 MLOAD DUP1 SWAP2 SUB SWAP1 RETURN JUMPDEST CALLVALUE DUP1 ISZERO PUSH2 0x535 JUMPI PUSH0 PUSH0 REVERT JUMPDEST POP PUSH2 0x550 PUSH1 0x4 DUP1 CALLDATASIZE SUB DUP2 ADD SWAP1 PUSH2 0x54B SWAP2 SWAP1 PUSH2 0x2C94 JUMP JUMPDEST PUSH2 0x1319 JUMP JUMPDEST STOP JUMPDEST CALLVALUE DUP1 ISZERO PUSH2 0x55D JUMPI PUSH0 PUSH0 REVERT JUMPDEST POP PUSH2 0x566 PUSH2 0x1461 JUMP JUMPDEST PUSH1 0x40 MLOAD PUSH2 0x573 SWAP2 SWAP1 PUSH2 0x2B4A JUMP JUMPDEST PUSH1 0x40 MLOAD DUP1 SWAP2 SUB SWAP1 RETURN JUMPDEST CALLVALUE DUP1 ISZERO PUSH2 0x587 JUMPI PUSH0 PUSH0 REVERT JUMPDEST POP PUSH2 0x5A2 PUSH1 0x4 DUP1 CALLDATASIZE SUB DUP2 ADD SWAP1 PUSH2 0x59D SWAP2 SWAP1 PUSH2 0x2B8D JUMP JUMPDEST PUSH2 0x1485 JUMP JUMPDEST STOP JUMPDEST CALLVALUE DUP1 ISZERO PUSH2 0x5AF JUMPI PUSH0 PUSH0 REVERT JUMPDEST POP PUSH2 0x5B8 PUSH2 0x14E9 JUMP JUMPDEST PUSH1 0x40 MLOAD PUSH2 0x5C9 SWAP6 SWAP5 SWAP4 SWAP3 SWAP2 SWAP1 PUSH2 0x2CBF JUMP JUMPDEST PUSH1 0x40 MLOAD DUP1 SWAP2 SUB SWAP1 RETURN JUMPDEST CALLVALUE DUP1 ISZERO PUSH2 0x5DD JUMPI PUSH0 PUSH0 REVERT JUMPDEST POP PUSH2 0x5E6 PUSH2 0x156E JUMP JUMPDEST PUSH1 0x40 MLOAD PUSH2 0x5F3 SWAP2 SWAP1 PUSH2 0x2B4A JUMP JUMPDEST PUSH1 0x40 MLOAD DUP1 SWAP2 SUB SWAP1 RETURN JUMPDEST CALLVALUE DUP1 ISZERO PUSH2 0x607 JUMPI PUSH0 PUSH0 REVERT JUMPDEST POP PUSH2 0x622 PUSH1 0x4 DUP1 CALLDATASIZE SUB DUP2 ADD SWAP1 PUSH2 0x61D SWAP2 SWAP1 PUSH2 0x2BF5 JUMP JUMPDEST PUSH2 0x1592 JUMP JUMPDEST STOP JUMPDEST CALLVALUE DUP1 ISZERO PUSH2 0x62F JUMPI PUSH0 PUSH0 REVERT JUMPDEST POP PUSH2 0x638 PUSH2 0x15A6 JUMP JUMPDEST PUSH1 0x40 MLOAD PUSH2 0x645 SWAP2 SWAP1 PUSH2 0x2AC4 JUMP JUMPDEST PUSH1 0x40 MLOAD DUP1 SWAP2 SUB SWAP1 RETURN JUMPDEST CALLVALUE DUP1 ISZERO PUSH2 0x659 JUMPI PUSH0 PUSH0 REVERT JUMPDEST POP PUSH2 0x674 PUSH1 0x4 DUP1 CALLDATASIZE SUB DUP2 ADD SWAP1 PUSH2 0x66F SWAP2 SWAP1 PUSH2 0x2BF5 JUMP JUMPDEST PUSH2 0x15AE JUMP JUMPDEST STOP JUMPDEST CALLVALUE DUP1 ISZERO PUSH2 0x681 JUMPI PUSH0 PUSH0 REVERT JUMPDEST POP PUSH2 0x69C PUSH1 0x4 DUP1 CALLDATASIZE SUB DUP2 ADD SWAP1 PUSH2 0x697 SWAP2 SWAP1 PUSH2 0x2C94 JUMP JUMPDEST PUSH2 0x15C2 JUMP JUMPDEST STOP JUMPDEST PUSH2 0x6A6 PUSH2 0x1646 JUMP JUMPDEST STOP JUMPDEST CALLVALUE DUP1 ISZERO PUSH2 0x6B3 JUMPI PUSH0 PUSH0 REVERT JUMPDEST POP PUSH2 0x6CE PUSH1 0x4 DUP1 CALLDATASIZE SUB DUP2 ADD SWAP1 PUSH2 0x6C9 SWAP2 SWAP1 PUSH2 0x2D10 JUMP JUMPDEST PUSH2 0x166D JUMP JUMPDEST PUSH1 0x40 MLOAD PUSH2 0x6DB SWAP2 SWAP1 PUSH2 0x2AC4 JUMP JUMPDEST PUSH1 0x40 MLOAD DUP1 SWAP2 SUB SWAP1 RETURN JUMPDEST PUSH0 PUSH2 0x6EE DUP3 PUSH2 0x16EF JUMP JUMPDEST SWAP1 POP SWAP2 SWAP1 POP JUMP JUMPDEST PUSH0 PUSH1 0x5 PUSH1 0x10 SWAP1 SLOAD SWAP1 PUSH2 0x100 EXP SWAP1 DIV PUSH16 0xFFFFFFFFFFFFFFFFFFFFFFFFFFFFFFFF AND PUSH16 0xFFFFFFFFFFFFFFFFFFFFFFFFFFFFFFFF AND SWAP1 POP SWAP1 JUMP JUMPDEST PUSH0 PUSH1 0x2 PUSH0 DUP4 DUP2 MSTORE PUSH1 0x20 ADD SWAP1 DUP2 MSTORE PUSH1 0x20 ADD PUSH0 KECCAK256 PUSH1 0x1 ADD SLOAD SWAP1 POP SWAP2 SWAP1 POP JUMP JUMPDEST PUSH2 0x751 PUSH2 0x1768 JUMP JUMPDEST PUSH2 0x75B DUP3 DUP3 PUSH2 0x17EF JUMP JUMPDEST DUP1 PUSH20 0xFFFFFFFFFFFFFFFFFFFFFFFFFFFFFFFFFFFFFFFF AND PUSH32 0xBB64AF0934EA050E4D96A052DD96271EB1B4C71F5677A4AF06D78B20D9DD30CF DUP4 PUSH1 0x40 MLOAD PUSH2 0x7A1 SWAP2 SWAP1 PUSH2 0x2B4A JUMP JUMPDEST PUSH1 0x40 MLOAD DUP1 SWAP2 SUB SWAP1 LOG2 POP POP JUMP JUMPDEST PUSH2 0x7B5 PUSH2 0x1811 JUMP JUMPDEST PUSH20 0xFFFFFFFFFFFFFFFFFFFFFFFFFFFFFFFFFFFFFFFF AND DUP2 PUSH20 0xFFFFFFFFFFFFFFFFFFFFFFFFFFFFFFFFFFFFFFFF AND EQ PUSH2 0x819 JUMPI PUSH1 0x40 MLOAD PUSH32 0x6697B23200000000000000000000000000000000000000000000000000000000 DUP2 MSTORE PUSH1 0x4 ADD PUSH1 0x40 MLOAD DUP1 SWAP2 SUB SWAP1 REVERT JUMPDEST PUSH2 0x823 DUP3 DUP3 PUSH2 0x1818 JUMP JUMPDEST POP POP POP JUMP JUMPDEST PUSH32 0x539440820030C4994DB4E31B6B800DEAFD503688728F932ADDFE7A410515C14C CALLER PUSH20 0xFFFFFFFFFFFFFFFFFFFFFFFFFFFFFFFFFFFFFFFF AND PUSH2 0x868 PUSH2 0x1019 JUMP JUMPDEST PUSH20 0xFFFFFFFFFFFFFFFFFFFFFFFFFFFFFFFFFFFFFFFF AND EQ ISZERO DUP1 ISZERO PUSH2 0x893 JUMPI POP PUSH2 0x891 DUP2 CALLER PUSH2 0x1041 JUMP JUMPDEST ISZERO JUMPDEST ISZERO PUSH2 0x8D5 JUMPI CALLER PUSH1 0x40 MLOAD PUSH32 0x943FB07800000000000000000000000000000000000000000000000000000000 DUP2 MSTORE PUSH1 0x4 ADD PUSH2 0x8CC SWAP2 SWAP1 PUSH2 0x29DC JUMP JUMPDEST PUSH1 0x40 MLOAD DUP1 SWAP2 SUB SWAP1 REVERT JUMPDEST PUSH2 0x8DD PUSH2 0x1902 JUMP JUMPDEST PUSH2 0x8E5 PUSH2 0x1943 JUMP JUMPDEST CALLER PUSH20 0xFFFFFFFFFFFFFFFFFFFFFFFFFFFFFFFFFFFFFFFF AND PUSH32 0x46D2A254C0536D2A30FDFA06DB40B28B09743AFE6F05AEB9F03A56C4CEC0EF08 TIMESTAMP PUSH1 0x40 MLOAD PUSH2 0x92B SWAP2 SWAP1 PUSH2 0x2AC4 JUMP JUMPDEST PUSH1 0x40 MLOAD DUP1 SWAP2 SUB SWAP1 LOG2 POP JUMP JUMPDEST PUSH0 PUSH1 0x4 SLOAD SWAP1 POP SWAP1 JUMP JUMPDEST PUSH0 PUSH1 0x1 PUSH1 0x14 SWAP1 SLOAD SWAP1 PUSH2 0x100 EXP SWAP1 DIV PUSH1 0xFF AND SWAP1 POP SWAP1 JUMP JUMPDEST DUP1 PUSH0 DUP2 SUB PUSH2 0x99A JUMPI CALLER PUSH1 0x40 MLOAD PUSH32 0x1B8B1C9100000000000000000000000000000000000000000000000000000000 DUP2 MSTORE PUSH1 0x4 ADD PUSH2 0x991 SWAP2 SWAP1 PUSH2 0x29DC JUMP JUMPDEST PUSH1 0x40 MLOAD DUP1 SWAP2 SUB SWAP1 REVERT JUMPDEST PUSH32 0x0 PUSH1 0x4 SLOAD DUP3 PUSH2 0x9C9 SWAP2 SWAP1 PUSH2 0x2D7B JUMP JUMPDEST GT ISZERO PUSH2 0xA0C JUMPI DUP1 PUSH1 0x40 MLOAD PUSH32 0xF367FD7300000000000000000000000000000000000000000000000000000000 DUP2 MSTORE PUSH1 0x4 ADD PUSH2 0xA03 SWAP2 SWAP1 PUSH2 0x2AC4 JUMP JUMPDEST PUSH1 0x40 MLOAD DUP1 SWAP2 SUB SWAP1 REVERT JUMPDEST PUSH2 0xA14 PUSH2 0x1902 JUMP JUMPDEST DUP2 PUSH32 0x0 PUSH20 0xFFFFFFFFFFFFFFFFFFFFFFFFFFFFFFFFFFFFFFFF AND PUSH4 0xDD62ED3E CALLER ADDRESS PUSH1 0x40 MLOAD DUP4 PUSH4 0xFFFFFFFF AND PUSH1 0xE0 SHL DUP2 MSTORE PUSH1 0x4 ADD PUSH2 0xA70 SWAP3 SWAP2 SWAP1 PUSH2 0x2DAE JUMP JUMPDEST PUSH1 0x20 PUSH1 0x40 MLOAD DUP1 DUP4 SUB DUP2 DUP7 GAS STATICCALL ISZERO DUP1 ISZERO PUSH2 0xA8B JUMPI RETURNDATASIZE PUSH0 PUSH0 RETURNDATACOPY RETURNDATASIZE PUSH0 REVERT JUMPDEST POP POP POP POP PUSH1 0x40 MLOAD RETURNDATASIZE PUSH1 0x1F NOT PUSH1 0x1F DUP3 ADD AND DUP3 ADD DUP1 PUSH1 0x40 MSTORE POP DUP2 ADD SWAP1 PUSH2 0xAAF SWAP2 SWAP1 PUSH2 0x2DE9 JUMP JUMPDEST LT ISZERO PUSH2 0xAF2 JUMPI DUP2 PUSH1 0x40 MLOAD PUSH32 0xAA9A0A9D00000000000000000000000000000000000000000000000000000000 DUP2 MSTORE PUSH1 0x4 ADD PUSH2 0xAE9 SWAP2 SWAP1 PUSH2 0x2AC4 JUMP JUMPDEST PUSH1 0x40 MLOAD DUP1 SWAP2 SUB SWAP1 REVERT JUMPDEST DUP2 PUSH1 0x6 PUSH0 PUSH32 0x0 PUSH20 0xFFFFFFFFFFFFFFFFFFFFFFFFFFFFFFFFFFFFFFFF AND PUSH20 0xFFFFFFFFFFFFFFFFFFFFFFFFFFFFFFFFFFFFFFFF AND DUP2 MSTORE PUSH1 0x20 ADD SWAP1 DUP2 MSTORE PUSH1 0x20 ADD PUSH0 KECCAK256 PUSH0 CALLER PUSH20 0xFFFFFFFFFFFFFFFFFFFFFFFFFFFFFFFFFFFFFFFF AND PUSH20 0xFFFFFFFFFFFFFFFFFFFFFFFFFFFFFFFFFFFFFFFF AND DUP2 MSTORE PUSH1 0x20 ADD SWAP1 DUP2 MSTORE PUSH1 0x20 ADD PUSH0 KECCAK256 PUSH0 DUP3 DUP3 SLOAD PUSH2 0xB99 SWAP2 SWAP1 PUSH2 0x2D7B JUMP JUMPDEST SWAP3 POP POP DUP2 SWAP1 SSTORE POP PUSH1 0x5 PUSH0 DUP2 DUP2 SWAP1 SLOAD SWAP1 PUSH2 0x100 EXP SWAP1 DIV PUSH16 0xFFFFFFFFFFFFFFFFFFFFFFFFFFFFFFFF AND DUP1 SWAP3 SWAP2 SWAP1 PUSH2 0xBCD SWAP1 PUSH2 0x2E2F JUMP JUMPDEST SWAP2 SWAP1 PUSH2 0x100 EXP DUP2 SLOAD DUP2 PUSH16 0xFFFFFFFFFFFFFFFFFFFFFFFFFFFFFFFF MUL NOT AND SWAP1 DUP4 PUSH16 0xFFFFFFFFFFFFFFFFFFFFFFFFFFFFFFFF AND MUL OR SWAP1 SSTORE POP POP DUP2 PUSH1 0x4 PUSH0 DUP3 DUP3 SLOAD PUSH2 0xC15 SWAP2 SWAP1 PUSH2 0x2D7B JUMP JUMPDEST SWAP3 POP POP DUP2 SWAP1 SSTORE POP CALLER PUSH20 0xFFFFFFFFFFFFFFFFFFFFFFFFFFFFFFFFFFFFFFFF AND PUSH32 0x7B7CD0DDBBEA241880E825E1EB51C30752CB96DD7EFEB4BE691EC55DFA4D8963 DUP4 PUSH1 0x40 MLOAD PUSH2 0xC62 SWAP2 SWAP1 PUSH2 0x2AC4 JUMP JUMPDEST PUSH1 0x40 MLOAD DUP1 SWAP2 SUB SWAP1 LOG2 PUSH2 0xCB7 CALLER ADDRESS DUP5 PUSH32 0x0 PUSH20 0xFFFFFFFFFFFFFFFFFFFFFFFFFFFFFFFFFFFFFFFF AND PUSH2 0x19A5 SWAP1 SWAP4 SWAP3 SWAP2 SWAP1 PUSH4 0xFFFFFFFF AND JUMP JUMPDEST POP POP JUMP JUMPDEST PUSH1 0x3 PUSH0 SWAP1 SLOAD SWAP1 PUSH2 0x100 EXP SWAP1 DIV PUSH20 0xFFFFFFFFFFFFFFFFFFFFFFFFFFFFFFFFFFFFFFFF AND DUP2 JUMP JUMPDEST PUSH2 0xCE8 PUSH2 0x1768 JUMP JUMPDEST PUSH2 0xCF1 PUSH0 PUSH2 0x1A27 JUMP JUMPDEST JUMP JUMPDEST PUSH32 0x9BBB3EE3BDFBE971682B08854A620CA4BF696F8E0C269E5C5B129A18E64D29DF CALLER PUSH20 0xFFFFFFFFFFFFFFFFFFFFFFFFFFFFFFFFFFFFFFFF AND PUSH2 0xD33 PUSH2 0x1019 JUMP JUMPDEST PUSH20 0xFFFFFFFFFFFFFFFFFFFFFFFFFFFFFFFFFFFFFFFF AND EQ ISZERO DUP1 ISZERO PUSH2 0xD5E JUMPI POP PUSH2 0xD5C DUP2 CALLER PUSH2 0x1041 JUMP JUMPDEST ISZERO JUMPDEST ISZERO PUSH2 0xDA0 JUMPI CALLER PUSH1 0x40 MLOAD PUSH32 0x943FB07800000000000000000000000000000000000000000000000000000000 DUP2 MSTORE PUSH1 0x4 ADD PUSH2 0xD97 SWAP2 SWAP1 PUSH2 0x29DC JUMP JUMPDEST PUSH1 0x40 MLOAD DUP1 SWAP2 SUB SWAP1 REVERT JUMPDEST PUSH2 0xDA8 PUSH2 0x1AEA JUMP JUMPDEST PUSH0 PUSH20 0xFFFFFFFFFFFFFFFFFFFFFFFFFFFFFFFFFFFFFFFF AND DUP3 PUSH20 0xFFFFFFFFFFFFFFFFFFFFFFFFFFFFFFFFFFFFFFFF AND SUB PUSH2 0xE0D JUMPI PUSH1 0x40 MLOAD PUSH32 0x4AB4914300000000000000000000000000000000000000000000000000000000 DUP2 MSTORE PUSH1 0x4 ADD PUSH1 0x40 MLOAD DUP1 SWAP2 SUB SWAP1 REVERT JUMPDEST DUP2 PUSH20 0xFFFFFFFFFFFFFFFFFFFFFFFFFFFFFFFFFFFFFFFF AND PUSH4 0xFEAF968C PUSH1 0x40 MLOAD DUP2 PUSH4 0xFFFFFFFF AND PUSH1 0xE0 SHL DUP2 MSTORE PUSH1 0x4 ADD PUSH1 0xA0 PUSH1 0x40 MLOAD DUP1 DUP4 SUB DUP2 DUP7 GAS STATICCALL SWAP3 POP POP POP DUP1 ISZERO PUSH2 0xE75 JUMPI POP PUSH1 0x40 MLOAD RETURNDATASIZE PUSH1 0x1F NOT PUSH1 0x1F DUP3 ADD AND DUP3 ADD DUP1 PUSH1 0x40 MSTORE POP DUP2 ADD SWAP1 PUSH2 0xE72 SWAP2 SWAP1 PUSH2 0x2ED8 JUMP JUMPDEST PUSH1 0x1 JUMPDEST PUSH2 0xEB6 JUMPI DUP2 PUSH1 0x40 MLOAD PUSH32 0x83F68E8900000000000000000000000000000000000000000000000000000000 DUP2 MSTORE PUSH1 0x4 ADD PUSH2 0xEAD SWAP2 SWAP1 PUSH2 0x29DC JUMP JUMPDEST PUSH1 0x40 MLOAD DUP1 SWAP2 SUB SWAP1 REVERT JUMPDEST PUSH0 DUP5 SGT PUSH2 0xEFA JUMPI DUP7 PUSH1 0x40 MLOAD PUSH32 0x83F68E8900000000000000000000000000000000000000000000000000000000 DUP2 MSTORE PUSH1 0x4 ADD PUSH2 0xEF1 SWAP2 SWAP1 PUSH2 0x29DC JUMP JUMPDEST PUSH1 0x40 MLOAD DUP1 SWAP2 SUB SWAP1 REVERT JUMPDEST PUSH2 0xE10 PUSH2 0xFFFF AND DUP3 TIMESTAMP PUSH2 0xF0D SWAP2 SWAP1 PUSH2 0x2F4F JUMP JUMPDEST GT ISZERO PUSH2 0xF50 JUMPI DUP4 PUSH1 0x40 MLOAD PUSH32 0x2F8429D00000000000000000000000000000000000000000000000000000000 DUP2 MSTORE PUSH1 0x4 ADD PUSH2 0xF47 SWAP2 SWAP1 PUSH2 0x2AC4 JUMP JUMPDEST PUSH1 0x40 MLOAD DUP1 SWAP2 SUB SWAP1 REVERT JUMPDEST PUSH0 PUSH1 0x3 PUSH0 SWAP1 SLOAD SWAP1 PUSH2 0x100 EXP SWAP1 DIV PUSH20 0xFFFFFFFFFFFFFFFFFFFFFFFFFFFFFFFFFFFFFFFF AND SWAP1 POP DUP8 PUSH1 0x3 PUSH0 PUSH2 0x100 EXP DUP2 SLOAD DUP2 PUSH20 0xFFFFFFFFFFFFFFFFFFFFFFFFFFFFFFFFFFFFFFFF MUL NOT AND SWAP1 DUP4 PUSH20 0xFFFFFFFFFFFFFFFFFFFFFFFFFFFFFFFFFFFFFFFF AND MUL OR SWAP1 SSTORE POP DUP8 PUSH20 0xFFFFFFFFFFFFFFFFFFFFFFFFFFFFFFFFFFFFFFFF AND DUP2 PUSH20 0xFFFFFFFFFFFFFFFFFFFFFFFFFFFFFFFFFFFFFFFF AND PUSH32 0x76732C6A675470899FCB32BD34014D244A2B780F6812F8F818B26F893F79CDD PUSH1 0x40 MLOAD PUSH1 0x40 MLOAD DUP1 SWAP2 SUB SWAP1 LOG3 POP POP POP POP POP POP POP POP JUMP JUMPDEST PUSH0 PUSH1 0x1 PUSH0 SWAP1 SLOAD SWAP1 PUSH2 0x100 EXP SWAP1 DIV PUSH20 0xFFFFFFFFFFFFFFFFFFFFFFFFFFFFFFFFFFFFFFFF AND SWAP1 POP SWAP1 JUMP JUMPDEST PUSH0 PUSH1 0x2 PUSH0 DUP5 DUP2 MSTORE PUSH1 0x20 ADD SWAP1 DUP2 MSTORE PUSH1 0x20 ADD PUSH0 KECCAK256 PUSH0 ADD PUSH0 DUP4 PUSH20 0xFFFFFFFFFFFFFFFFFFFFFFFFFFFFFFFFFFFFFFFF AND PUSH20 0xFFFFFFFFFFFFFFFFFFFFFFFFFFFFFFFFFFFFFFFF AND DUP2 MSTORE PUSH1 0x20 ADD SWAP1 DUP2 MSTORE PUSH1 0x20 ADD PUSH0 KECCAK256 PUSH0 SWAP1 SLOAD SWAP1 PUSH2 0x100 EXP SWAP1 DIV PUSH1 0xFF AND SWAP1 POP SWAP3 SWAP2 POP POP JUMP JUMPDEST PUSH0 PUSH1 0x5 PUSH0 SWAP1 SLOAD SWAP1 PUSH2 0x100 EXP SWAP1 DIV PUSH16 0xFFFFFFFFFFFFFFFFFFFFFFFFFFFFFFFF AND PUSH16 0xFFFFFFFFFFFFFFFFFFFFFFFFFFFFFFFF AND SWAP1 POP SWAP1 JUMP JUMPDEST PUSH0 PUSH0 SHL DUP2 JUMP JUMPDEST PUSH32 0x539440820030C4994DB4E31B6B800DEAFD503688728F932ADDFE7A410515C14C CALLER PUSH20 0xFFFFFFFFFFFFFFFFFFFFFFFFFFFFFFFFFFFFFFFF AND PUSH2 0x1121 PUSH2 0x1019 JUMP JUMPDEST PUSH20 0xFFFFFFFFFFFFFFFFFFFFFFFFFFFFFFFFFFFFFFFF AND EQ ISZERO DUP1 ISZERO PUSH2 0x114C JUMPI POP PUSH2 0x114A DUP2 CALLER PUSH2 0x1041 JUMP JUMPDEST ISZERO JUMPDEST ISZERO PUSH2 0x118E JUMPI CALLER PUSH1 0x40 MLOAD PUSH32 0x943FB07800000000000000000000000000000000000000000000000000000000 DUP2 MSTORE PUSH1 0x4 ADD PUSH2 0x1185 SWAP2 SWAP1 PUSH2 0x29DC JUMP JUMPDEST PUSH1 0x40 MLOAD DUP1 SWAP2 SUB SWAP1 REVERT JUMPDEST PUSH2 0x1196 PUSH2 0x1AEA JUMP JUMPDEST PUSH2 0x119E PUSH2 0x1B2A JUMP JUMPDEST CALLER PUSH20 0xFFFFFFFFFFFFFFFFFFFFFFFFFFFFFFFFFFFFFFFF AND PUSH32 0xE27D6B7B96C20E997F5082FF560410B815A1ECD7464E0DED63E7688E45D9B573 TIMESTAMP PUSH1 0x40 MLOAD PUSH2 0x11E4 SWAP2 SWAP1 PUSH2 0x2AC4 JUMP JUMPDEST PUSH1 0x40 MLOAD DUP1 SWAP2 SUB SWAP1 LOG2 POP JUMP JUMPDEST PUSH0 PUSH1 0x6 PUSH0 PUSH32 0x0 PUSH20 0xFFFFFFFFFFFFFFFFFFFFFFFFFFFFFFFFFFFFFFFF AND PUSH20 0xFFFFFFFFFFFFFFFFFFFFFFFFFFFFFFFFFFFFFFFF AND DUP2 MSTORE PUSH1 0x20 ADD SWAP1 DUP2 MSTORE PUSH1 0x20 ADD PUSH0 KECCAK256 PUSH0 CALLER PUSH20 0xFFFFFFFFFFFFFFFFFFFFFFFFFFFFFFFFFFFFFFFF AND PUSH20 0xFFFFFFFFFFFFFFFFFFFFFFFFFFFFFFFFFFFFFFFF AND DUP2 MSTORE PUSH1 0x20 ADD SWAP1 DUP2 MSTORE PUSH1 0x20 ADD PUSH0 KECCAK256 SLOAD PUSH2 0x130A PUSH1 0x6 PUSH0 PUSH0 PUSH20 0xFFFFFFFFFFFFFFFFFFFFFFFFFFFFFFFFFFFFFFFF AND PUSH20 0xFFFFFFFFFFFFFFFFFFFFFFFFFFFFFFFFFFFFFFFF AND DUP2 MSTORE PUSH1 0x20 ADD SWAP1 DUP2 MSTORE PUSH1 0x20 ADD PUSH0 KECCAK256 PUSH0 CALLER PUSH20 0xFFFFFFFFFFFFFFFFFFFFFFFFFFFFFFFFFFFFFFFF AND PUSH20 0xFFFFFFFFFFFFFFFFFFFFFFFFFFFFFFFFFFFFFFFF AND DUP2 MSTORE PUSH1 0x20 ADD SWAP1 DUP2 MSTORE PUSH1 0x20 ADD PUSH0 KECCAK256 SLOAD PUSH2 0x1B8C JUMP JUMPDEST PUSH2 0x1314 SWAP2 SWAP1 PUSH2 0x2D7B JUMP JUMPDEST SWAP1 POP SWAP1 JUMP JUMPDEST PUSH2 0x1321 PUSH2 0x1768 JUMP JUMPDEST PUSH2 0x1329 PUSH2 0x1AEA JUMP JUMPDEST PUSH0 PUSH2 0x1332 PUSH2 0x1019 JUMP JUMPDEST SWAP1 POP PUSH2 0x1340 PUSH0 PUSH0 SHL DUP3 PUSH2 0x1818 JUMP JUMPDEST POP PUSH2 0x136B PUSH32 0x539440820030C4994DB4E31B6B800DEAFD503688728F932ADDFE7A410515C14C DUP3 PUSH2 0x1818 JUMP JUMPDEST POP PUSH2 0x1396 PUSH32 0x9BBB3EE3BDFBE971682B08854A620CA4BF696F8E0C269E5C5B129A18E64D29DF DUP3 PUSH2 0x1818 JUMP JUMPDEST POP PUSH2 0x13A0 DUP3 PUSH2 0x1A27 JUMP JUMPDEST PUSH2 0x13AC PUSH0 PUSH0 SHL DUP4 PUSH2 0x1BBB JUMP JUMPDEST POP PUSH2 0x13D7 PUSH32 0x9BBB3EE3BDFBE971682B08854A620CA4BF696F8E0C269E5C5B129A18E64D29DF DUP4 PUSH2 0x1BBB JUMP JUMPDEST POP PUSH2 0x1402 PUSH32 0x539440820030C4994DB4E31B6B800DEAFD503688728F932ADDFE7A410515C14C DUP4 PUSH2 0x1BBB JUMP JUMPDEST POP DUP2 PUSH20 0xFFFFFFFFFFFFFFFFFFFFFFFFFFFFFFFFFFFFFFFF AND DUP2 PUSH20 0xFFFFFFFFFFFFFFFFFFFFFFFFFFFFFFFFFFFFFFFF AND PUSH32 0x8BFDC1921679312BE467B7979CCD28DC2BC1D122F99C6123D976F0BF50A3B435 PUSH1 0x40 MLOAD PUSH1 0x40 MLOAD DUP1 SWAP2 SUB SWAP1 LOG3 POP POP JUMP JUMPDEST PUSH32 0x9BBB3EE3BDFBE971682B08854A620CA4BF696F8E0C269E5C5B129A18E64D29DF DUP2 JUMP JUMPDEST PUSH2 0x148D PUSH2 0x1768 JUMP JUMPDEST PUSH2 0x1497 DUP3 DUP3 PUSH2 0x1CA5 JUMP JUMPDEST DUP1 PUSH20 0xFFFFFFFFFFFFFFFFFFFFFFFFFFFFFFFFFFFFFFFF AND PUSH32 0x28005222CF9FD144F6F3A53F9517FD413AFE5D9B67FD4CF81DDD013486721702 DUP4 PUSH1 0x40 MLOAD PUSH2 0x14DD SWAP2 SWAP1 PUSH2 0x2B4A JUMP JUMPDEST PUSH1 0x40 MLOAD DUP1 SWAP2 SUB SWAP1 LOG2 POP POP JUMP JUMPDEST PUSH0 PUSH0 PUSH0 PUSH0 PUSH0 PUSH2 0x14F6 PUSH2 0x93F JUMP JUMPDEST PUSH1 0x4 SLOAD PUSH32 0x0 PUSH32 0x0 PUSH1 0x3 PUSH0 SWAP1 SLOAD SWAP1 PUSH2 0x100 EXP SWAP1 DIV PUSH20 0xFFFFFFFFFFFFFFFFFFFFFFFFFFFFFFFFFFFFFFFF AND SWAP5 POP SWAP5 POP SWAP5 POP SWAP5 POP SWAP5 POP SWAP1 SWAP2 SWAP3 SWAP4 SWAP5 JUMP JUMPDEST PUSH32 0x539440820030C4994DB4E31B6B800DEAFD503688728F932ADDFE7A410515C14C DUP2 JUMP JUMPDEST PUSH2 0x159A PUSH2 0x1902 JUMP JUMPDEST PUSH2 0x15A3 DUP2 PUSH2 0x1CC7 JUMP JUMPDEST POP JUMP JUMPDEST PUSH4 0x3B9ACA00 DUP2 JUMP JUMPDEST PUSH2 0x15B6 PUSH2 0x1902 JUMP JUMPDEST PUSH2 0x15BF DUP2 PUSH2 0x2028 JUMP JUMPDEST POP JUMP JUMPDEST PUSH2 0x15CA PUSH2 0x1768 JUMP JUMPDEST PUSH0 PUSH20 0xFFFFFFFFFFFFFFFFFFFFFFFFFFFFFFFFFFFFFFFF AND DUP2 PUSH20 0xFFFFFFFFFFFFFFFFFFFFFFFFFFFFFFFFFFFFFFFF AND SUB PUSH2 0x163A JUMPI PUSH0 PUSH1 0x40 MLOAD PUSH32 0x1E4FBDF700000000000000000000000000000000000000000000000000000000 DUP2 MSTORE PUSH1 0x4 ADD PUSH2 0x1631 SWAP2 SWAP1 PUSH2 0x29DC JUMP JUMPDEST PUSH1 0x40 MLOAD DUP1 SWAP2 SUB SWAP1 REVERT JUMPDEST PUSH2 0x1643 DUP2 PUSH2 0x1A27 JUMP JUMPDEST POP JUMP JUMPDEST PUSH2 0x164E PUSH2 0x1902 JUMP JUMPDEST PUSH0 CALLVALUE SWAP1 POP PUSH0 PUSH2 0x165C DUP3 PUSH2 0x1B8C JUMP JUMPDEST SWAP1 POP PUSH2 0x1669 CALLER DUP3 DUP5 PUSH2 0x23C5 JUMP JUMPDEST POP POP JUMP JUMPDEST PUSH0 PUSH1 0x6 PUSH0 DUP4 PUSH20 0xFFFFFFFFFFFFFFFFFFFFFFFFFFFFFFFFFFFFFFFF AND PUSH20 0xFFFFFFFFFFFFFFFFFFFFFFFFFFFFFFFFFFFFFFFF AND DUP2 MSTORE PUSH1 0x20 ADD SWAP1 DUP2 MSTORE PUSH1 0x20 ADD PUSH0 KECCAK256 PUSH0 DUP5 PUSH20 0xFFFFFFFFFFFFFFFFFFFFFFFFFFFFFFFFFFFFFFFF AND PUSH20 0xFFFFFFFFFFFFFFFFFFFFFFFFFFFFFFFFFFFFFFFF AND DUP2 MSTORE PUSH1 0x20 ADD SWAP1 DUP2 MSTORE PUSH1 0x20 ADD PUSH0 KECCAK256 SLOAD SWAP1 POP SWAP3 SWAP2 POP POP JUMP JUMPDEST PUSH0 PUSH32 0x7965DB0B00000000000000000000000000000000000000000000000000000000 PUSH28 0xFFFFFFFFFFFFFFFFFFFFFFFFFFFFFFFFFFFFFFFFFFFFFFFFFFFFFFFF NOT AND DUP3 PUSH28 0xFFFFFFFFFFFFFFFFFFFFFFFFFFFFFFFFFFFFFFFFFFFFFFFFFFFFFFFF NOT AND EQ DUP1 PUSH2 0x1761 JUMPI POP PUSH2 0x1760 DUP3 PUSH2 0x2625 JUMP JUMPDEST JUMPDEST SWAP1 POP SWAP2 SWAP1 POP JUMP JUMPDEST PUSH2 0x1770 PUSH2 0x1811 JUMP JUMPDEST PUSH20 0xFFFFFFFFFFFFFFFFFFFFFFFFFFFFFFFFFFFFFFFF AND PUSH2 0x178E PUSH2 0x1019 JUMP JUMPDEST PUSH20 0xFFFFFFFFFFFFFFFFFFFFFFFFFFFFFFFFFFFFFFFF AND EQ PUSH2 0x17ED JUMPI PUSH2 0x17B1 PUSH2 0x1811 JUMP JUMPDEST PUSH1 0x40 MLOAD PUSH32 0x118CDAA700000000000000000000000000000000000000000000000000000000 DUP2 MSTORE PUSH1 0x4 ADD PUSH2 0x17E4 SWAP2 SWAP1 PUSH2 0x29DC JUMP JUMPDEST PUSH1 0x40 MLOAD DUP1 SWAP2 SUB SWAP1 REVERT JUMPDEST JUMP JUMPDEST PUSH2 0x17F8 DUP3 PUSH2 0x72C JUMP JUMPDEST PUSH2 0x1801 DUP2 PUSH2 0x268E JUMP JUMPDEST PUSH2 0x180B DUP4 DUP4 PUSH2 0x1BBB JUMP JUMPDEST POP POP POP POP JUMP JUMPDEST PUSH0 CALLER SWAP1 POP SWAP1 JUMP JUMPDEST PUSH0 PUSH2 0x1823 DUP4 DUP4 PUSH2 0x1041 JUMP JUMPDEST ISZERO PUSH2 0x18F8 JUMPI PUSH0 PUSH1 0x2 PUSH0 DUP6 DUP2 MSTORE PUSH1 0x20 ADD SWAP1 DUP2 MSTORE PUSH1 0x20 ADD PUSH0 KECCAK256 PUSH0 ADD PUSH0 DUP5 PUSH20 0xFFFFFFFFFFFFFFFFFFFFFFFFFFFFFFFFFFFFFFFF AND PUSH20 0xFFFFFFFFFFFFFFFFFFFFFFFFFFFFFFFFFFFFFFFF AND DUP2 MSTORE PUSH1 0x20 ADD SWAP1 DUP2 MSTORE PUSH1 0x20 ADD PUSH0 KECCAK256 PUSH0 PUSH2 0x100 EXP DUP2 SLOAD DUP2 PUSH1 0xFF MUL NOT AND SWAP1 DUP4 ISZERO ISZERO MUL OR SWAP1 SSTORE POP PUSH2 0x1895 PUSH2 0x1811 JUMP JUMPDEST PUSH20 0xFFFFFFFFFFFFFFFFFFFFFFFFFFFFFFFFFFFFFFFF AND DUP3 PUSH20 0xFFFFFFFFFFFFFFFFFFFFFFFFFFFFFFFFFFFFFFFF AND DUP5 PUSH32 0xF6391F5C32D9C69D2A47EA670B442974B53935D1EDC7FD64EB21E047A839171B PUSH1 0x40 MLOAD PUSH1 0x40 MLOAD DUP1 SWAP2 SUB SWAP1 LOG4 PUSH1 0x1 SWAP1 POP PUSH2 0x18FC JUMP JUMPDEST PUSH0 SWAP1 POP JUMPDEST SWAP3 SWAP2 POP POP JUMP JUMPDEST PUSH2 0x190A PUSH2 0x93F JUMP JUMPDEST ISZERO PUSH2 0x1941 JUMPI PUSH1 0x40 MLOAD PUSH32 0xD93C066500000000000000000000000000000000000000000000000000000000 DUP2 MSTORE PUSH1 0x4 ADD PUSH1 0x40 MLOAD DUP1 SWAP2 SUB SWAP1 REVERT JUMPDEST JUMP JUMPDEST PUSH2 0x194B PUSH2 0x1902 JUMP JUMPDEST PUSH1 0x1 DUP1 PUSH1 0x14 PUSH2 0x100 EXP DUP2 SLOAD DUP2 PUSH1 0xFF MUL NOT AND SWAP1 DUP4 ISZERO ISZERO MUL OR SWAP1 SSTORE POP PUSH32 0x62E78CEA01BEE320CD4E420270B5EA74000D11B0C9F74754EBDBFC544B05A258 PUSH2 0x198E PUSH2 0x1811 JUMP JUMPDEST PUSH1 0x40 MLOAD PUSH2 0x199B SWAP2 SWAP1 PUSH2 0x29DC JUMP JUMPDEST PUSH1 0x40 MLOAD DUP1 SWAP2 SUB SWAP1 LOG1 JUMP JUMPDEST PUSH2 0x1A21 DUP5 DUP6 PUSH20 0xFFFFFFFFFFFFFFFFFFFFFFFFFFFFFFFFFFFFFFFF AND PUSH4 0x23B872DD DUP7 DUP7 DUP7 PUSH1 0x40 MLOAD PUSH1 0x24 ADD PUSH2 0x19DA SWAP4 SWAP3 SWAP2 SWAP1 PUSH2 0x2F82 JUMP JUMPDEST PUSH1 0x40 MLOAD PUSH1 0x20 DUP2 DUP4 SUB SUB DUP2 MSTORE SWAP1 PUSH1 0x40 MSTORE SWAP2 POP PUSH1 0xE0 SHL PUSH1 0x20 DUP3 ADD DUP1 MLOAD PUSH28 0xFFFFFFFFFFFFFFFFFFFFFFFFFFFFFFFFFFFFFFFFFFFFFFFFFFFFFFFF DUP4 DUP2 DUP4 AND OR DUP4 MSTORE POP POP POP POP PUSH2 0x26A2 JUMP JUMPDEST POP POP POP POP JUMP JUMPDEST PUSH0 PUSH1 0x1 PUSH0 SWAP1 SLOAD SWAP1 PUSH2 0x100 EXP SWAP1 DIV PUSH20 0xFFFFFFFFFFFFFFFFFFFFFFFFFFFFFFFFFFFFFFFF AND SWAP1 POP DUP2 PUSH1 0x1 PUSH0 PUSH2 0x100 EXP DUP2 SLOAD DUP2 PUSH20 0xFFFFFFFFFFFFFFFFFFFFFFFFFFFFFFFFFFFFFFFF MUL NOT AND SWAP1 DUP4 PUSH20 0xFFFFFFFFFFFFFFFFFFFFFFFFFFFFFFFFFFFFFFFF AND MUL OR SWAP1 SSTORE POP DUP2 PUSH20 0xFFFFFFFFFFFFFFFFFFFFFFFFFFFFFFFFFFFFFFFF AND DUP2 PUSH20 0xFFFFFFFFFFFFFFFFFFFFFFFFFFFFFFFFFFFFFFFF AND PUSH32 0x8BE0079C531659141344CD1FD0A4F28419497F9722A3DAAFE3B4186F6B6457E0 PUSH1 0x40 MLOAD PUSH1 0x40 MLOAD DUP1 SWAP2 SUB SWAP1 LOG3 POP POP JUMP JUMPDEST PUSH2 0x1AF2 PUSH2 0x93F JUMP JUMPDEST PUSH2 0x1B28 JUMPI PUSH1 0x40 MLOAD PUSH32 0x8DFC202B00000000000000000000000000000000000000000000000000000000 DUP2 MSTORE PUSH1 0x4 ADD PUSH1 0x40 MLOAD DUP1 SWAP2 SUB SWAP1 REVERT JUMPDEST JUMP JUMPDEST PUSH2 0x1B32 PUSH2 0x1AEA JUMP JUMPDEST PUSH0 PUSH1 0x1 PUSH1 0x14 PUSH2 0x100 EXP DUP2 SLOAD DUP2 PUSH1 0xFF MUL NOT AND SWAP1 DUP4 ISZERO ISZERO MUL OR SWAP1 SSTORE POP PUSH32 0x5DB9EE0A495BF2E6FF9C91A7834C1BA4FDD244A5E8AA4E537BD38AEAE4B073AA PUSH2 0x1B75 PUSH2 0x1811 JUMP JUMPDEST PUSH1 0x40 MLOAD PUSH2 0x1B82 SWAP2 SWAP1 PUSH2 0x29DC JUMP JUMPDEST PUSH1 0x40 MLOAD DUP1 SWAP2 SUB SWAP1 LOG1 JUMP JUMPDEST PUSH0 PUSH9 0x56BC75E2D63100000 PUSH2 0x1B9F PUSH2 0x273D JUMP JUMPDEST DUP4 PUSH2 0x1BAA SWAP2 SWAP1 PUSH2 0x2FB7 JUMP JUMPDEST PUSH2 0x1BB4 SWAP2 SWAP1 PUSH2 0x3025 JUMP JUMPDEST SWAP1 POP SWAP2 SWAP1 POP JUMP JUMPDEST PUSH0 PUSH2 0x1BC6 DUP4 DUP4 PUSH2 0x1041 JUMP JUMPDEST PUSH2 0x1C9B JUMPI PUSH1 0x1 PUSH1 0x2 PUSH0 DUP6 DUP2 MSTORE PUSH1 0x20 ADD SWAP1 DUP2 MSTORE PUSH1 0x20 ADD PUSH0 KECCAK256 PUSH0 ADD PUSH0 DUP5 PUSH20 0xFFFFFFFFFFFFFFFFFFFFFFFFFFFFFFFFFFFFFFFF AND PUSH20 0xFFFFFFFFFFFFFFFFFFFFFFFFFFFFFFFFFFFFFFFF AND DUP2 MSTORE PUSH1 0x20 ADD SWAP1 DUP2 MSTORE PUSH1 0x20 ADD PUSH0 KECCAK256 PUSH0 PUSH2 0x100 EXP DUP2 SLOAD DUP2 PUSH1 0xFF MUL NOT AND SWAP1 DUP4 ISZERO ISZERO MUL OR SWAP1 SSTORE POP PUSH2 0x1C38 PUSH2 0x1811 JUMP JUMPDEST PUSH20 0xFFFFFFFFFFFFFFFFFFFFFFFFFFFFFFFFFFFFFFFF AND DUP3 PUSH20 0xFFFFFFFFFFFFFFFFFFFFFFFFFFFFFFFFFFFFFFFF AND DUP5 PUSH32 0x2F8788117E7EFF1D82E926EC794901D17C78024A50270940304540A733656F0D PUSH1 0x40 MLOAD PUSH1 0x40 MLOAD DUP1 SWAP2 SUB SWAP1 LOG4 PUSH1 0x1 SWAP1 POP PUSH2 0x1C9F JUMP JUMPDEST PUSH0 SWAP1 POP JUMPDEST SWAP3 SWAP2 POP POP JUMP JUMPDEST PUSH2 0x1CAE DUP3 PUSH2 0x72C JUMP JUMPDEST PUSH2 0x1CB7 DUP2 PUSH2 0x268E JUMP JUMPDEST PUSH2 0x1CC1 DUP4 DUP4 PUSH2 0x1818 JUMP JUMPDEST POP POP POP POP JUMP JUMPDEST PUSH2 0x1CCF PUSH2 0x2877 JUMP JUMPDEST DUP1 PUSH0 DUP2 SUB PUSH2 0x1D14 JUMPI CALLER PUSH1 0x40 MLOAD PUSH32 0x1B8B1C9100000000000000000000000000000000000000000000000000000000 DUP2 MSTORE PUSH1 0x4 ADD PUSH2 0x1D0B SWAP2 SWAP1 PUSH2 0x29DC JUMP JUMPDEST PUSH1 0x40 MLOAD DUP1 SWAP2 SUB SWAP1 REVERT JUMPDEST PUSH32 0x0 DUP2 GT ISZERO PUSH2 0x1D79 JUMPI DUP1 PUSH1 0x40 MLOAD PUSH32 0x764E5DE200000000000000000000000000000000000000000000000000000000 DUP2 MSTORE PUSH1 0x4 ADD PUSH2 0x1D70 SWAP2 SWAP1 PUSH2 0x2AC4 JUMP JUMPDEST PUSH1 0x40 MLOAD DUP1 SWAP2 SUB SWAP1 REVERT JUMPDEST PUSH1 0x6 PUSH0 PUSH32 0x0 PUSH20 0xFFFFFFFFFFFFFFFFFFFFFFFFFFFFFFFFFFFFFFFF AND PUSH20 0xFFFFFFFFFFFFFFFFFFFFFFFFFFFFFFFFFFFFFFFF AND DUP2 MSTORE PUSH1 0x20 ADD SWAP1 DUP2 MSTORE PUSH1 0x20 ADD PUSH0 KECCAK256 PUSH0 CALLER PUSH20 0xFFFFFFFFFFFFFFFFFFFFFFFFFFFFFFFFFFFFFFFF AND PUSH20 0xFFFFFFFFFFFFFFFFFFFFFFFFFFFFFFFFFFFFFFFF AND DUP2 MSTORE PUSH1 0x20 ADD SWAP1 DUP2 MSTORE PUSH1 0x20 ADD PUSH0 KECCAK256 SLOAD DUP2 GT ISZERO PUSH2 0x1E58 JUMPI CALLER DUP2 PUSH1 0x40 MLOAD PUSH32 0xBAA7A16500000000000000000000000000000000000000000000000000000000 DUP2 MSTORE PUSH1 0x4 ADD PUSH2 0x1E4F SWAP3 SWAP2 SWAP1 PUSH2 0x3055 JUMP JUMPDEST PUSH1 0x40 MLOAD DUP1 SWAP2 SUB SWAP1 REVERT JUMPDEST DUP2 PUSH1 0x6 PUSH0 PUSH32 0x0 PUSH20 0xFFFFFFFFFFFFFFFFFFFFFFFFFFFFFFFFFFFFFFFF AND PUSH20 0xFFFFFFFFFFFFFFFFFFFFFFFFFFFFFFFFFFFFFFFF AND DUP2 MSTORE PUSH1 0x20 ADD SWAP1 DUP2 MSTORE PUSH1 0x20 ADD PUSH0 KECCAK256 PUSH0 CALLER PUSH20 0xFFFFFFFFFFFFFFFFFFFFFFFFFFFFFFFFFFFFFFFF AND PUSH20 0xFFFFFFFFFFFFFFFFFFFFFFFFFFFFFFFFFFFFFFFF AND DUP2 MSTORE PUSH1 0x20 ADD SWAP1 DUP2 MSTORE PUSH1 0x20 ADD PUSH0 KECCAK256 PUSH0 DUP3 DUP3 SLOAD PUSH2 0x1EFF SWAP2 SWAP1 PUSH2 0x2F4F JUMP JUMPDEST SWAP3 POP POP DUP2 SWAP1 SSTORE POP PUSH1 0x5 PUSH1 0x10 DUP2 DUP2 SWAP1 SLOAD SWAP1 PUSH2 0x100 EXP SWAP1 DIV PUSH16 0xFFFFFFFFFFFFFFFFFFFFFFFFFFFFFFFF AND DUP1 SWAP3 SWAP2 SWAP1 PUSH2 0x1F34 SWAP1 PUSH2 0x2E2F JUMP JUMPDEST SWAP2 SWAP1 PUSH2 0x100 EXP DUP2 SLOAD DUP2 PUSH16 0xFFFFFFFFFFFFFFFFFFFFFFFFFFFFFFFF MUL NOT AND SWAP1 DUP4 PUSH16 0xFFFFFFFFFFFFFFFFFFFFFFFFFFFFFFFF AND MUL OR SWAP1 SSTORE POP POP DUP2 PUSH1 0x4 PUSH0 DUP3 DUP3 SLOAD PUSH2 0x1F7C SWAP2 SWAP1 PUSH2 0x2F4F JUMP JUMPDEST SWAP3 POP POP DUP2 SWAP1 SSTORE POP CALLER PUSH20 0xFFFFFFFFFFFFFFFFFFFFFFFFFFFFFFFFFFFFFFFF AND PUSH32 0x1FF21E81CFF87FCCBAC096AD565F52CB1B358DB04A736A6A137CCEB4A287A702 DUP4 PUSH1 0x40 MLOAD PUSH2 0x1FC9 SWAP2 SWAP1 PUSH2 0x2AC4 JUMP JUMPDEST PUSH1 0x40 MLOAD DUP1 SWAP2 SUB SWAP1 LOG2 PUSH2 0x201C CALLER DUP4 PUSH32 0x0 PUSH20 0xFFFFFFFFFFFFFFFFFFFFFFFFFFFFFFFFFFFFFFFF AND PUSH2 0x28C4 SWAP1 SWAP3 SWAP2 SWAP1 PUSH4 0xFFFFFFFF AND JUMP JUMPDEST POP PUSH2 0x2025 PUSH2 0x2943 JUMP JUMPDEST POP JUMP JUMPDEST PUSH2 0x2030 PUSH2 0x2877 JUMP JUMPDEST DUP1 PUSH0 PUSH2 0x203B DUP3 PUSH2 0x1B8C JUMP JUMPDEST SWAP1 POP PUSH0 DUP2 SUB PUSH2 0x2081 JUMPI CALLER PUSH1 0x40 MLOAD PUSH32 0x1B8B1C9100000000000000000000000000000000000000000000000000000000 DUP2 MSTORE PUSH1 0x4 ADD PUSH2 0x2078 SWAP2 SWAP1 PUSH2 0x29DC JUMP JUMPDEST PUSH1 0x40 MLOAD DUP1 SWAP2 SUB SWAP1 REVERT JUMPDEST PUSH32 0x0 DUP2 GT ISZERO PUSH2 0x20E6 JUMPI DUP1 PUSH1 0x40 MLOAD PUSH32 0x764E5DE200000000000000000000000000000000000000000000000000000000 DUP2 MSTORE PUSH1 0x4 ADD PUSH2 0x20DD SWAP2 SWAP1 PUSH2 0x2AC4 JUMP JUMPDEST PUSH1 0x40 MLOAD DUP1 SWAP2 SUB SWAP1 REVERT JUMPDEST PUSH1 0x6 PUSH0 PUSH0 PUSH20 0xFFFFFFFFFFFFFFFFFFFFFFFFFFFFFFFFFFFFFFFF AND PUSH20 0xFFFFFFFFFFFFFFFFFFFFFFFFFFFFFFFFFFFFFFFF AND DUP2 MSTORE PUSH1 0x20 ADD SWAP1 DUP2 MSTORE PUSH1 0x20 ADD PUSH0 KECCAK256 PUSH0 CALLER PUSH20 0xFFFFFFFFFFFFFFFFFFFFFFFFFFFFFFFFFFFFFFFF AND PUSH20 0xFFFFFFFFFFFFFFFFFFFFFFFFFFFFFFFFFFFFFFFF AND DUP2 MSTORE PUSH1 0x20 ADD SWAP1 DUP2 MSTORE PUSH1 0x20 ADD PUSH0 KECCAK256 SLOAD DUP3 GT ISZERO PUSH2 0x21A5 JUMPI CALLER DUP2 PUSH1 0x40 MLOAD PUSH32 0xBAA7A16500000000000000000000000000000000000000000000000000000000 DUP2 MSTORE PUSH1 0x4 ADD PUSH2 0x219C SWAP3 SWAP2 SWAP1 PUSH2 0x3055 JUMP JUMPDEST PUSH1 0x40 MLOAD DUP1 SWAP2 SUB SWAP1 REVERT JUMPDEST PUSH0 PUSH2 0x21AF DUP5 PUSH2 0x1B8C JUMP JUMPDEST SWAP1 POP DUP4 PUSH1 0x6 PUSH0 PUSH0 PUSH20 0xFFFFFFFFFFFFFFFFFFFFFFFFFFFFFFFFFFFFFFFF AND PUSH20 0xFFFFFFFFFFFFFFFFFFFFFFFFFFFFFFFFFFFFFFFF AND DUP2 MSTORE PUSH1 0x20 ADD SWAP1 DUP2 MSTORE PUSH1 0x20 ADD PUSH0 KECCAK256 PUSH0 CALLER PUSH20 0xFFFFFFFFFFFFFFFFFFFFFFFFFFFFFFFFFFFFFFFF AND PUSH20 0xFFFFFFFFFFFFFFFFFFFFFFFFFFFFFFFFFFFFFFFF AND DUP2 MSTORE PUSH1 0x20 ADD SWAP1 DUP2 MSTORE PUSH1 0x20 ADD PUSH0 KECCAK256 PUSH0 DUP3 DUP3 SLOAD PUSH2 0x2238 SWAP2 SWAP1 PUSH2 0x2F4F JUMP JUMPDEST SWAP3 POP POP DUP2 SWAP1 SSTORE POP PUSH1 0x5 PUSH1 0x10 DUP2 DUP2 SWAP1 SLOAD SWAP1 PUSH2 0x100 EXP SWAP1 DIV PUSH16 0xFFFFFFFFFFFFFFFFFFFFFFFFFFFFFFFF AND DUP1 SWAP3 SWAP2 SWAP1 PUSH2 0x226D SWAP1 PUSH2 0x2E2F JUMP JUMPDEST SWAP2 SWAP1 PUSH2 0x100 EXP DUP2 SLOAD DUP2 PUSH16 0xFFFFFFFFFFFFFFFFFFFFFFFFFFFFFFFF MUL NOT AND SWAP1 DUP4 PUSH16 0xFFFFFFFFFFFFFFFFFFFFFFFFFFFFFFFF AND MUL OR SWAP1 SSTORE POP POP DUP1 PUSH1 0x4 PUSH0 DUP3 DUP3 SLOAD PUSH2 0x22B5 SWAP2 SWAP1 PUSH2 0x2F4F JUMP JUMPDEST SWAP3 POP POP DUP2 SWAP1 SSTORE POP CALLER PUSH20 0xFFFFFFFFFFFFFFFFFFFFFFFFFFFFFFFFFFFFFFFF AND PUSH32 0x1FF21E81CFF87FCCBAC096AD565F52CB1B358DB04A736A6A137CCEB4A287A702 DUP3 PUSH1 0x40 MLOAD PUSH2 0x2302 SWAP2 SWAP1 PUSH2 0x2AC4 JUMP JUMPDEST PUSH1 0x40 MLOAD DUP1 SWAP2 SUB SWAP1 LOG2 PUSH0 CALLER PUSH20 0xFFFFFFFFFFFFFFFFFFFFFFFFFFFFFFFFFFFFFFFF AND DUP6 PUSH1 0x40 MLOAD PUSH2 0x232F SWAP1 PUSH2 0x30A9 JUMP JUMPDEST PUSH0 PUSH1 0x40 MLOAD DUP1 DUP4 SUB DUP2 DUP6 DUP8 GAS CALL SWAP3 POP POP POP RETURNDATASIZE DUP1 PUSH0 DUP2 EQ PUSH2 0x2369 JUMPI PUSH1 0x40 MLOAD SWAP2 POP PUSH1 0x1F NOT PUSH1 0x3F RETURNDATASIZE ADD AND DUP3 ADD PUSH1 0x40 MSTORE RETURNDATASIZE DUP3 MSTORE RETURNDATASIZE PUSH0 PUSH1 0x20 DUP5 ADD RETURNDATACOPY PUSH2 0x236E JUMP JUMPDEST PUSH1 0x60 SWAP2 POP JUMPDEST POP POP SWAP1 POP DUP1 PUSH2 0x23B6 JUMPI CALLER DUP6 PUSH1 0x40 MLOAD PUSH32 0x6166243700000000000000000000000000000000000000000000000000000000 DUP2 MSTORE PUSH1 0x4 ADD PUSH2 0x23AD SWAP3 SWAP2 SWAP1 PUSH2 0x3055 JUMP JUMPDEST PUSH1 0x40 MLOAD DUP1 SWAP2 SUB SWAP1 REVERT JUMPDEST POP POP POP POP PUSH2 0x23C2 PUSH2 0x2943 JUMP JUMPDEST POP JUMP JUMPDEST DUP2 DUP2 PUSH4 0x3B9ACA00 DUP2 LT ISZERO PUSH2 0x2410 JUMPI DUP1 PUSH1 0x40 MLOAD PUSH32 0xD3C36E3A00000000000000000000000000000000000000000000000000000000 DUP2 MSTORE PUSH1 0x4 ADD PUSH2 0x2407 SWAP2 SWAP1 PUSH2 0x2AC4 JUMP JUMPDEST PUSH1 0x40 MLOAD DUP1 SWAP2 SUB SWAP1 REVERT JUMPDEST PUSH0 DUP3 SUB PUSH2 0x2454 JUMPI CALLER PUSH1 0x40 MLOAD PUSH32 0x1B8B1C9100000000000000000000000000000000000000000000000000000000 DUP2 MSTORE PUSH1 0x4 ADD PUSH2 0x244B SWAP2 SWAP1 PUSH2 0x29DC JUMP JUMPDEST PUSH1 0x40 MLOAD DUP1 SWAP2 SUB SWAP1 REVERT JUMPDEST PUSH32 0x0 PUSH1 0x4 SLOAD DUP4 PUSH2 0x2483 SWAP2 SWAP1 PUSH2 0x2D7B JUMP JUMPDEST GT ISZERO PUSH2 0x24C6 JUMPI DUP2 PUSH1 0x40 MLOAD PUSH32 0xF367FD7300000000000000000000000000000000000000000000000000000000 DUP2 MSTORE PUSH1 0x4 ADD PUSH2 0x24BD SWAP2 SWAP1 PUSH2 0x2AC4 JUMP JUMPDEST PUSH1 0x40 MLOAD DUP1 SWAP2 SUB SWAP1 REVERT JUMPDEST DUP3 PUSH1 0x6 PUSH0 PUSH0 PUSH20 0xFFFFFFFFFFFFFFFFFFFFFFFFFFFFFFFFFFFFFFFF AND PUSH20 0xFFFFFFFFFFFFFFFFFFFFFFFFFFFFFFFFFFFFFFFF AND DUP2 MSTORE PUSH1 0x20 ADD SWAP1 DUP2 MSTORE PUSH1 0x20 ADD PUSH0 KECCAK256 PUSH0 DUP8 PUSH20 0xFFFFFFFFFFFFFFFFFFFFFFFFFFFFFFFFFFFFFFFF AND PUSH20 0xFFFFFFFFFFFFFFFFFFFFFFFFFFFFFFFFFFFFFFFF AND DUP2 MSTORE PUSH1 0x20 ADD SWAP1 DUP2 MSTORE PUSH1 0x20 ADD PUSH0 KECCAK256 PUSH0 DUP3 DUP3 SLOAD PUSH2 0x254D SWAP2 SWAP1 PUSH2 0x2D7B JUMP JUMPDEST SWAP3 POP POP DUP2 SWAP1 SSTORE POP PUSH1 0x5 PUSH0 DUP2 DUP2 SWAP1 SLOAD SWAP1 PUSH2 0x100 EXP SWAP1 DIV PUSH16 0xFFFFFFFFFFFFFFFFFFFFFFFFFFFFFFFF AND DUP1 SWAP3 SWAP2 SWAP1 PUSH2 0x2581 SWAP1 PUSH2 0x2E2F JUMP JUMPDEST SWAP2 SWAP1 PUSH2 0x100 EXP DUP2 SLOAD DUP2 PUSH16 0xFFFFFFFFFFFFFFFFFFFFFFFFFFFFFFFF MUL NOT AND SWAP1 DUP4 PUSH16 0xFFFFFFFFFFFFFFFFFFFFFFFFFFFFFFFF AND MUL OR SWAP1 SSTORE POP POP DUP4 PUSH1 0x4 PUSH0 DUP3 DUP3 SLOAD PUSH2 0x25C9 SWAP2 SWAP1 PUSH2 0x2D7B JUMP JUMPDEST SWAP3 POP POP DUP2 SWAP1 SSTORE POP DUP5 PUSH20 0xFFFFFFFFFFFFFFFFFFFFFFFFFFFFFFFFFFFFFFFF AND PUSH32 0x7B7CD0DDBBEA241880E825E1EB51C30752CB96DD7EFEB4BE691EC55DFA4D8963 DUP6 PUSH1 0x40 MLOAD PUSH2 0x2616 SWAP2 SWAP1 PUSH2 0x2AC4 JUMP JUMPDEST PUSH1 0x40 MLOAD DUP1 SWAP2 SUB SWAP1 LOG2 POP POP POP POP POP JUMP JUMPDEST PUSH0 PUSH32 0x1FFC9A700000000000000000000000000000000000000000000000000000000 PUSH28 0xFFFFFFFFFFFFFFFFFFFFFFFFFFFFFFFFFFFFFFFFFFFFFFFFFFFFFFFF NOT AND DUP3 PUSH28 0xFFFFFFFFFFFFFFFFFFFFFFFFFFFFFFFFFFFFFFFFFFFFFFFFFFFFFFFF NOT AND EQ SWAP1 POP SWAP2 SWAP1 POP JUMP JUMPDEST PUSH2 0x269F DUP2 PUSH2 0x269A PUSH2 0x1811 JUMP JUMPDEST PUSH2 0x294C JUMP JUMPDEST POP JUMP JUMPDEST PUSH0 PUSH0 PUSH1 0x20 PUSH0 DUP5 MLOAD PUSH1 0x20 DUP7 ADD PUSH0 DUP9 GAS CALL DUP1 PUSH2 0x26C1 JUMPI PUSH1 0x40 MLOAD RETURNDATASIZE PUSH0 DUP3 RETURNDATACOPY RETURNDATASIZE DUP2 REVERT JUMPDEST RETURNDATASIZE SWAP3 POP PUSH0 MLOAD SWAP2 POP POP PUSH0 DUP3 EQ PUSH2 0x26DA JUMPI PUSH1 0x1 DUP2 EQ ISZERO PUSH2 0x26F5 JUMP JUMPDEST PUSH0 DUP5 PUSH20 0xFFFFFFFFFFFFFFFFFFFFFFFFFFFFFFFFFFFFFFFF AND EXTCODESIZE EQ JUMPDEST ISZERO PUSH2 0x2737 JUMPI DUP4 PUSH1 0x40 MLOAD PUSH32 0x5274AFE700000000000000000000000000000000000000000000000000000000 DUP2 MSTORE PUSH1 0x4 ADD PUSH2 0x272E SWAP2 SWAP1 PUSH2 0x29DC JUMP JUMPDEST PUSH1 0x40 MLOAD DUP1 SWAP2 SUB SWAP1 REVERT JUMPDEST POP POP POP POP JUMP JUMPDEST PUSH0 PUSH0 PUSH0 PUSH1 0x3 PUSH0 SWAP1 SLOAD SWAP1 PUSH2 0x100 EXP SWAP1 DIV PUSH20 0xFFFFFFFFFFFFFFFFFFFFFFFFFFFFFFFFFFFFFFFF AND PUSH20 0xFFFFFFFFFFFFFFFFFFFFFFFFFFFFFFFFFFFFFFFF AND PUSH4 0xFEAF968C PUSH1 0x40 MLOAD DUP2 PUSH4 0xFFFFFFFF AND PUSH1 0xE0 SHL DUP2 MSTORE PUSH1 0x4 ADD PUSH1 0xA0 PUSH1 0x40 MLOAD DUP1 DUP4 SUB DUP2 DUP7 GAS STATICCALL ISZERO DUP1 ISZERO PUSH2 0x27AA JUMPI RETURNDATASIZE PUSH0 PUSH0 RETURNDATACOPY RETURNDATASIZE PUSH0 REVERT JUMPDEST POP POP POP POP PUSH1 0x40 MLOAD RETURNDATASIZE PUSH1 0x1F NOT PUSH1 0x1F DUP3 ADD AND DUP3 ADD DUP1 PUSH1 0x40 MSTORE POP DUP2 ADD SWAP1 PUSH2 0x27CE SWAP2 SWAP1 PUSH2 0x2ED8 JUMP JUMPDEST POP SWAP4 POP POP SWAP3 POP POP PUSH0 DUP3 SGT PUSH2 0x2819 JUMPI DUP2 PUSH1 0x40 MLOAD PUSH32 0xFE73737600000000000000000000000000000000000000000000000000000000 DUP2 MSTORE PUSH1 0x4 ADD PUSH2 0x2810 SWAP2 SWAP1 PUSH2 0x2AC4 JUMP JUMPDEST PUSH1 0x40 MLOAD DUP1 SWAP2 SUB SWAP1 REVERT JUMPDEST PUSH2 0xE10 PUSH2 0xFFFF AND DUP2 TIMESTAMP PUSH2 0x282C SWAP2 SWAP1 PUSH2 0x2F4F JUMP JUMPDEST GT ISZERO PUSH2 0x286F JUMPI DUP2 PUSH1 0x40 MLOAD PUSH32 0x2F8429D00000000000000000000000000000000000000000000000000000000 DUP2 MSTORE PUSH1 0x4 ADD PUSH2 0x2866 SWAP2 SWAP1 PUSH2 0x2AC4 JUMP JUMPDEST PUSH1 0x40 MLOAD DUP1 SWAP2 SUB SWAP1 REVERT JUMPDEST DUP2 SWAP3 POP POP POP SWAP1 JUMP JUMPDEST PUSH1 0x2 PUSH0 SLOAD SUB PUSH2 0x28BB JUMPI PUSH1 0x40 MLOAD PUSH32 0x8C379A000000000000000000000000000000000000000000000000000000000 DUP2 MSTORE PUSH1 0x4 ADD PUSH2 0x28B2 SWAP1 PUSH2 0x3117 JUMP JUMPDEST PUSH1 0x40 MLOAD DUP1 SWAP2 SUB SWAP1 REVERT JUMPDEST PUSH1 0x2 PUSH0 DUP2 SWAP1 SSTORE POP JUMP JUMPDEST PUSH2 0x293E DUP4 DUP5 PUSH20 0xFFFFFFFFFFFFFFFFFFFFFFFFFFFFFFFFFFFFFFFF AND PUSH4 0xA9059CBB DUP6 DUP6 PUSH1 0x40 MLOAD PUSH1 0x24 ADD PUSH2 0x28F7 SWAP3 SWAP2 SWAP1 PUSH2 0x3055 JUMP JUMPDEST PUSH1 0x40 MLOAD PUSH1 0x20 DUP2 DUP4 SUB SUB DUP2 MSTORE SWAP1 PUSH1 0x40 MSTORE SWAP2 POP PUSH1 0xE0 SHL PUSH1 0x20 DUP3 ADD DUP1 MLOAD PUSH28 0xFFFFFFFFFFFFFFFFFFFFFFFFFFFFFFFFFFFFFFFFFFFFFFFFFFFFFFFF DUP4 DUP2 DUP4 AND OR DUP4 MSTORE POP POP POP POP PUSH2 0x26A2 JUMP JUMPDEST POP POP POP JUMP JUMPDEST PUSH1 0x1 PUSH0 DUP2 SWAP1 SSTORE POP JUMP JUMPDEST PUSH2 0x2956 DUP3 DUP3 PUSH2 0x1041 JUMP JUMPDEST PUSH2 0x2999 JUMPI DUP1 DUP3 PUSH1 0x40 MLOAD PUSH32 0xE2517D3F00000000000000000000000000000000000000000000000000000000 DUP2 MSTORE PUSH1 0x4 ADD PUSH2 0x2990 SWAP3 SWAP2 SWAP1 PUSH2 0x3135 JUMP JUMPDEST PUSH1 0x40 MLOAD DUP1 SWAP2 SUB SWAP1 REVERT JUMPDEST POP POP JUMP JUMPDEST PUSH0 PUSH20 0xFFFFFFFFFFFFFFFFFFFFFFFFFFFFFFFFFFFFFFFF DUP3 AND SWAP1 POP SWAP2 SWAP1 POP JUMP JUMPDEST PUSH0 PUSH2 0x29C6 DUP3 PUSH2 0x299D JUMP JUMPDEST SWAP1 POP SWAP2 SWAP1 POP JUMP JUMPDEST PUSH2 0x29D6 DUP2 PUSH2 0x29BC JUMP JUMPDEST DUP3 MSTORE POP POP JUMP JUMPDEST PUSH0 PUSH1 0x20 DUP3 ADD SWAP1 POP PUSH2 0x29EF PUSH0 DUP4 ADD DUP5 PUSH2 0x29CD JUMP JUMPDEST SWAP3 SWAP2 POP POP JUMP JUMPDEST PUSH0 PUSH0 REVERT JUMPDEST PUSH0 PUSH32 0xFFFFFFFF00000000000000000000000000000000000000000000000000000000 DUP3 AND SWAP1 POP SWAP2 SWAP1 POP JUMP JUMPDEST PUSH2 0x2A2D DUP2 PUSH2 0x29F9 JUMP JUMPDEST DUP2 EQ PUSH2 0x2A37 JUMPI PUSH0 PUSH0 REVERT JUMPDEST POP JUMP JUMPDEST PUSH0 DUP2 CALLDATALOAD SWAP1 POP PUSH2 0x2A48 DUP2 PUSH2 0x2A24 JUMP JUMPDEST SWAP3 SWAP2 POP POP JUMP JUMPDEST PUSH0 PUSH1 0x20 DUP3 DUP5 SUB SLT ISZERO PUSH2 0x2A63 JUMPI PUSH2 0x2A62 PUSH2 0x29F5 JUMP JUMPDEST JUMPDEST PUSH0 PUSH2 0x2A70 DUP5 DUP3 DUP6 ADD PUSH2 0x2A3A JUMP JUMPDEST SWAP2 POP POP SWAP3 SWAP2 POP POP JUMP JUMPDEST PUSH0 DUP2 ISZERO ISZERO SWAP1 POP SWAP2 SWAP1 POP JUMP JUMPDEST PUSH2 0x2A8D DUP2 PUSH2 0x2A79 JUMP JUMPDEST DUP3 MSTORE POP POP JUMP JUMPDEST PUSH0 PUSH1 0x20 DUP3 ADD SWAP1 POP PUSH2 0x2AA6 PUSH0 DUP4 ADD DUP5 PUSH2 0x2A84 JUMP JUMPDEST SWAP3 SWAP2 POP POP JUMP JUMPDEST PUSH0 DUP2 SWAP1 POP SWAP2 SWAP1 POP JUMP JUMPDEST PUSH2 0x2ABE DUP2 PUSH2 0x2AAC JUMP JUMPDEST DUP3 MSTORE POP POP JUMP JUMPDEST PUSH0 PUSH1 0x20 DUP3 ADD SWAP1 POP PUSH2 0x2AD7 PUSH0 DUP4 ADD DUP5 PUSH2 0x2AB5 JUMP JUMPDEST SWAP3 SWAP2 POP POP JUMP JUMPDEST PUSH0 DUP2 SWAP1 POP SWAP2 SWAP1 POP JUMP JUMPDEST PUSH2 0x2AEF DUP2 PUSH2 0x2ADD JUMP JUMPDEST DUP2 EQ PUSH2 0x2AF9 JUMPI PUSH0 PUSH0 REVERT JUMPDEST POP JUMP JUMPDEST PUSH0 DUP2 CALLDATALOAD SWAP1 POP PUSH2 0x2B0A DUP2 PUSH2 0x2AE6 JUMP JUMPDEST SWAP3 SWAP2 POP POP JUMP JUMPDEST PUSH0 PUSH1 0x20 DUP3 DUP5 SUB SLT ISZERO PUSH2 0x2B25 JUMPI PUSH2 0x2B24 PUSH2 0x29F5 JUMP JUMPDEST JUMPDEST PUSH0 PUSH2 0x2B32 DUP5 DUP3 DUP6 ADD PUSH2 0x2AFC JUMP JUMPDEST SWAP2 POP POP SWAP3 SWAP2 POP POP JUMP JUMPDEST PUSH2 0x2B44 DUP2 PUSH2 0x2ADD JUMP JUMPDEST DUP3 MSTORE POP POP JUMP JUMPDEST PUSH0 PUSH1 0x20 DUP3 ADD SWAP1 POP PUSH2 0x2B5D PUSH0 DUP4 ADD DUP5 PUSH2 0x2B3B JUMP JUMPDEST SWAP3 SWAP2 POP POP JUMP JUMPDEST PUSH2 0x2B6C DUP2 PUSH2 0x29BC JUMP JUMPDEST DUP2 EQ PUSH2 0x2B76 JUMPI PUSH0 PUSH0 REVERT JUMPDEST POP JUMP JUMPDEST PUSH0 DUP2 CALLDATALOAD SWAP1 POP PUSH2 0x2B87 DUP2 PUSH2 0x2B63 JUMP JUMPDEST SWAP3 SWAP2 POP POP JUMP JUMPDEST PUSH0 PUSH0 PUSH1 0x40 DUP4 DUP6 SUB SLT ISZERO PUSH2 0x2BA3 JUMPI PUSH2 0x2BA2 PUSH2 0x29F5 JUMP JUMPDEST JUMPDEST PUSH0 PUSH2 0x2BB0 DUP6 DUP3 DUP7 ADD PUSH2 0x2AFC JUMP JUMPDEST SWAP3 POP POP PUSH1 0x20 PUSH2 0x2BC1 DUP6 DUP3 DUP7 ADD PUSH2 0x2B79 JUMP JUMPDEST SWAP2 POP POP SWAP3 POP SWAP3 SWAP1 POP JUMP JUMPDEST PUSH2 0x2BD4 DUP2 PUSH2 0x2AAC JUMP JUMPDEST DUP2 EQ PUSH2 0x2BDE JUMPI PUSH0 PUSH0 REVERT JUMPDEST POP JUMP JUMPDEST PUSH0 DUP2 CALLDATALOAD SWAP1 POP PUSH2 0x2BEF DUP2 PUSH2 0x2BCB JUMP JUMPDEST SWAP3 SWAP2 POP POP JUMP JUMPDEST PUSH0 PUSH1 0x20 DUP3 DUP5 SUB SLT ISZERO PUSH2 0x2C0A JUMPI PUSH2 0x2C09 PUSH2 0x29F5 JUMP JUMPDEST JUMPDEST PUSH0 PUSH2 0x2C17 DUP5 DUP3 DUP6 ADD PUSH2 0x2BE1 JUMP JUMPDEST SWAP2 POP POP SWAP3 SWAP2 POP POP JUMP JUMPDEST PUSH0 DUP2 SWAP1 POP SWAP2 SWAP1 POP JUMP JUMPDEST PUSH0 PUSH2 0x2C43 PUSH2 0x2C3E PUSH2 0x2C39 DUP5 PUSH2 0x299D JUMP JUMPDEST PUSH2 0x2C20 JUMP JUMPDEST PUSH2 0x299D JUMP JUMPDEST SWAP1 POP SWAP2 SWAP1 POP JUMP JUMPDEST PUSH0 PUSH2 0x2C54 DUP3 PUSH2 0x2C29 JUMP JUMPDEST SWAP1 POP SWAP2 SWAP1 POP JUMP JUMPDEST PUSH0 PUSH2 0x2C65 DUP3 PUSH2 0x2C4A JUMP JUMPDEST SWAP1 POP SWAP2 SWAP1 POP JUMP JUMPDEST PUSH2 0x2C75 DUP2 PUSH2 0x2C5B JUMP JUMPDEST DUP3 MSTORE POP POP JUMP JUMPDEST PUSH0 PUSH1 0x20 DUP3 ADD SWAP1 POP PUSH2 0x2C8E PUSH0 DUP4 ADD DUP5 PUSH2 0x2C6C JUMP JUMPDEST SWAP3 SWAP2 POP POP JUMP JUMPDEST PUSH0 PUSH1 0x20 DUP3 DUP5 SUB SLT ISZERO PUSH2 0x2CA9 JUMPI PUSH2 0x2CA8 PUSH2 0x29F5 JUMP JUMPDEST JUMPDEST PUSH0 PUSH2 0x2CB6 DUP5 DUP3 DUP6 ADD PUSH2 0x2B79 JUMP JUMPDEST SWAP2 POP POP SWAP3 SWAP2 POP POP JUMP JUMPDEST PUSH0 PUSH1 0xA0 DUP3 ADD SWAP1 POP PUSH2 0x2CD2 PUSH0 DUP4 ADD DUP9 PUSH2 0x2A84 JUMP JUMPDEST PUSH2 0x2CDF PUSH1 0x20 DUP4 ADD DUP8 PUSH2 0x2AB5 JUMP JUMPDEST PUSH2 0x2CEC PUSH1 0x40 DUP4 ADD DUP7 PUSH2 0x2AB5 JUMP JUMPDEST PUSH2 0x2CF9 PUSH1 0x60 DUP4 ADD DUP6 PUSH2 0x2AB5 JUMP JUMPDEST PUSH2 0x2D06 PUSH1 0x80 DUP4 ADD DUP5 PUSH2 0x29CD JUMP JUMPDEST SWAP7 SWAP6 POP POP POP POP POP POP JUMP JUMPDEST PUSH0 PUSH0 PUSH1 0x40 DUP4 DUP6 SUB SLT ISZERO PUSH2 0x2D26 JUMPI PUSH2 0x2D25 PUSH2 0x29F5 JUMP JUMPDEST JUMPDEST PUSH0 PUSH2 0x2D33 DUP6 DUP3 DUP7 ADD PUSH2 0x2B79 JUMP JUMPDEST SWAP3 POP POP PUSH1 0x20 PUSH2 0x2D44 DUP6 DUP3 DUP7 ADD PUSH2 0x2B79 JUMP JUMPDEST SWAP2 POP POP SWAP3 POP SWAP3 SWAP1 POP JUMP JUMPDEST PUSH32 0x4E487B7100000000000000000000000000000000000000000000000000000000 PUSH0 MSTORE PUSH1 0x11 PUSH1 0x4 MSTORE PUSH1 0x24 PUSH0 REVERT JUMPDEST PUSH0 PUSH2 0x2D85 DUP3 PUSH2 0x2AAC JUMP JUMPDEST SWAP2 POP PUSH2 0x2D90 DUP4 PUSH2 0x2AAC JUMP JUMPDEST SWAP3 POP DUP3 DUP3 ADD SWAP1 POP DUP1 DUP3 GT ISZERO PUSH2 0x2DA8 JUMPI PUSH2 0x2DA7 PUSH2 0x2D4E JUMP JUMPDEST JUMPDEST SWAP3 SWAP2 POP POP JUMP JUMPDEST PUSH0 PUSH1 0x40 DUP3 ADD SWAP1 POP PUSH2 0x2DC1 PUSH0 DUP4 ADD DUP6 PUSH2 0x29CD JUMP JUMPDEST PUSH2 0x2DCE PUSH1 0x20 DUP4 ADD DUP5 PUSH2 0x29CD JUMP JUMPDEST SWAP4 SWAP3 POP POP POP JUMP JUMPDEST PUSH0 DUP2 MLOAD SWAP1 POP PUSH2 0x2DE3 DUP2 PUSH2 0x2BCB JUMP JUMPDEST SWAP3 SWAP2 POP POP JUMP JUMPDEST PUSH0 PUSH1 0x20 DUP3 DUP5 SUB SLT ISZERO PUSH2 0x2DFE JUMPI PUSH2 0x2DFD PUSH2 0x29F5 JUMP JUMPDEST JUMPDEST PUSH0 PUSH2 0x2E0B DUP5 DUP3 DUP6 ADD PUSH2 0x2DD5 JUMP JUMPDEST SWAP2 POP POP SWAP3 SWAP2 POP POP JUMP JUMPDEST PUSH0 PUSH16 0xFFFFFFFFFFFFFFFFFFFFFFFFFFFFFFFF DUP3 AND SWAP1 POP SWAP2 SWAP1 POP JUMP JUMPDEST PUSH0 PUSH2 0x2E39 DUP3 PUSH2 0x2E14 JUMP JUMPDEST SWAP2 POP PUSH16 0xFFFFFFFFFFFFFFFFFFFFFFFFFFFFFFFF DUP3 SUB PUSH2 0x2E5B JUMPI PUSH2 0x2E5A PUSH2 0x2D4E JUMP JUMPDEST JUMPDEST PUSH1 0x1 DUP3 ADD SWAP1 POP SWAP2 SWAP1 POP JUMP JUMPDEST PUSH0 PUSH10 0xFFFFFFFFFFFFFFFFFFFF DUP3 AND SWAP1 POP SWAP2 SWAP1 POP JUMP JUMPDEST PUSH2 0x2E84 DUP2 PUSH2 0x2E66 JUMP JUMPDEST DUP2 EQ PUSH2 0x2E8E JUMPI PUSH0 PUSH0 REVERT JUMPDEST POP JUMP JUMPDEST PUSH0 DUP2 MLOAD SWAP1 POP PUSH2 0x2E9F DUP2 PUSH2 0x2E7B JUMP JUMPDEST SWAP3 SWAP2 POP POP JUMP JUMPDEST PUSH0 DUP2 SWAP1 POP SWAP2 SWAP1 POP JUMP JUMPDEST PUSH2 0x2EB7 DUP2 PUSH2 0x2EA5 JUMP JUMPDEST DUP2 EQ PUSH2 0x2EC1 JUMPI PUSH0 PUSH0 REVERT JUMPDEST POP JUMP JUMPDEST PUSH0 DUP2 MLOAD SWAP1 POP PUSH2 0x2ED2 DUP2 PUSH2 0x2EAE JUMP JUMPDEST SWAP3 SWAP2 POP POP JUMP JUMPDEST PUSH0 PUSH0 PUSH0 PUSH0 PUSH0 PUSH1 0xA0 DUP7 DUP9 SUB SLT ISZERO PUSH2 0x2EF1 JUMPI PUSH2 0x2EF0 PUSH2 0x29F5 JUMP JUMPDEST JUMPDEST PUSH0 PUSH2 0x2EFE DUP9 DUP3 DUP10 ADD PUSH2 0x2E91 JUMP JUMPDEST SWAP6 POP POP PUSH1 0x20 PUSH2 0x2F0F DUP9 DUP3 DUP10 ADD PUSH2 0x2EC4 JUMP JUMPDEST SWAP5 POP POP PUSH1 0x40 PUSH2 0x2F20 DUP9 DUP3 DUP10 ADD PUSH2 0x2DD5 JUMP JUMPDEST SWAP4 POP POP PUSH1 0x60 PUSH2 0x2F31 DUP9 DUP3 DUP10 ADD PUSH2 0x2DD5 JUMP JUMPDEST SWAP3 POP POP PUSH1 0x80 PUSH2 0x2F42 DUP9 DUP3 DUP10 ADD PUSH2 0x2E91 JUMP JUMPDEST SWAP2 POP POP SWAP3 SWAP6 POP SWAP3 SWAP6 SWAP1 SWAP4 POP JUMP JUMPDEST PUSH0 PUSH2 0x2F59 DUP3 PUSH2 0x2AAC JUMP JUMPDEST SWAP2 POP PUSH2 0x2F64 DUP4 PUSH2 0x2AAC JUMP JUMPDEST SWAP3 POP DUP3 DUP3 SUB SWAP1 POP DUP2 DUP2 GT ISZERO PUSH2 0x2F7C JUMPI PUSH2 0x2F7B PUSH2 0x2D4E JUMP JUMPDEST JUMPDEST SWAP3 SWAP2 POP POP JUMP JUMPDEST PUSH0 PUSH1 0x60 DUP3 ADD SWAP1 POP PUSH2 0x2F95 PUSH0 DUP4 ADD DUP7 PUSH2 0x29CD JUMP JUMPDEST PUSH2 0x2FA2 PUSH1 0x20 DUP4 ADD DUP6 PUSH2 0x29CD JUMP JUMPDEST PUSH2 0x2FAF PUSH1 0x40 DUP4 ADD DUP5 PUSH2 0x2AB5 JUMP JUMPDEST SWAP5 SWAP4 POP POP POP POP JUMP JUMPDEST PUSH0 PUSH2 0x2FC1 DUP3 PUSH2 0x2AAC JUMP JUMPDEST SWAP2 POP PUSH2 0x2FCC DUP4 PUSH2 0x2AAC JUMP JUMPDEST SWAP3 POP DUP3 DUP3 MUL PUSH2 0x2FDA DUP2 PUSH2 0x2AAC JUMP JUMPDEST SWAP2 POP DUP3 DUP3 DIV DUP5 EQ DUP4 ISZERO OR PUSH2 0x2FF1 JUMPI PUSH2 0x2FF0 PUSH2 0x2D4E JUMP JUMPDEST JUMPDEST POP SWAP3 SWAP2 POP POP JUMP JUMPDEST PUSH32 0x4E487B7100000000000000000000000000000000000000000000000000000000 PUSH0 MSTORE PUSH1 0x12 PUSH1 0x4 MSTORE PUSH1 0x24 PUSH0 REVERT JUMPDEST PUSH0 PUSH2 0x302F DUP3 PUSH2 0x2AAC JUMP JUMPDEST SWAP2 POP PUSH2 0x303A DUP4 PUSH2 0x2AAC JUMP JUMPDEST SWAP3 POP DUP3 PUSH2 0x304A JUMPI PUSH2 0x3049 PUSH2 0x2FF8 JUMP JUMPDEST JUMPDEST DUP3 DUP3 DIV SWAP1 POP SWAP3 SWAP2 POP POP JUMP JUMPDEST PUSH0 PUSH1 0x40 DUP3 ADD SWAP1 POP PUSH2 0x3068 PUSH0 DUP4 ADD DUP6 PUSH2 0x29CD JUMP JUMPDEST PUSH2 0x3075 PUSH1 0x20 DUP4 ADD DUP5 PUSH2 0x2AB5 JUMP JUMPDEST SWAP4 SWAP3 POP POP POP JUMP JUMPDEST PUSH0 DUP2 SWAP1 POP SWAP3 SWAP2 POP POP JUMP JUMPDEST POP JUMP JUMPDEST PUSH0 PUSH2 0x3094 PUSH0 DUP4 PUSH2 0x307C JUMP JUMPDEST SWAP2 POP PUSH2 0x309F DUP3 PUSH2 0x3086 JUMP JUMPDEST PUSH0 DUP3 ADD SWAP1 POP SWAP2 SWAP1 POP JUMP JUMPDEST PUSH0 PUSH2 0x30B3 DUP3 PUSH2 0x3089 JUMP JUMPDEST SWAP2 POP DUP2 SWAP1 POP SWAP2 SWAP1 POP JUMP JUMPDEST PUSH0 DUP3 DUP3 MSTORE PUSH1 0x20 DUP3 ADD SWAP1 POP SWAP3 SWAP2 POP POP JUMP JUMPDEST PUSH32 0x5265656E7472616E637947756172643A207265656E7472616E742063616C6C00 PUSH0 DUP3 ADD MSTORE POP JUMP JUMPDEST PUSH0 PUSH2 0x3101 PUSH1 0x1F DUP4 PUSH2 0x30BD JUMP JUMPDEST SWAP2 POP PUSH2 0x310C DUP3 PUSH2 0x30CD JUMP JUMPDEST PUSH1 0x20 DUP3 ADD SWAP1 POP SWAP2 SWAP1 POP JUMP JUMPDEST PUSH0 PUSH1 0x20 DUP3 ADD SWAP1 POP DUP2 DUP2 SUB PUSH0 DUP4 ADD MSTORE PUSH2 0x312E DUP2 PUSH2 0x30F5 JUMP JUMPDEST SWAP1 POP SWAP2 SWAP1 POP JUMP JUMPDEST PUSH0 PUSH1 0x40 DUP3 ADD SWAP1 POP PUSH2 0x3148 PUSH0 DUP4 ADD DUP6 PUSH2 0x29CD JUMP JUMPDEST PUSH2 0x3155 PUSH1 0x20 DUP4 ADD DUP5 PUSH2 0x2B3B JUMP JUMPDEST SWAP4 SWAP3 POP POP POP JUMP INVALID LOG2 PUSH5 0x6970667358 0x22 SLT KECCAK256 TLOAD 0xB6 DUPN 0x72 PUSH3 0xBC923E 0x2D CODECOPY 0xB7 BLOBBASEFEE PUSH7 0x7E0D6CE4C886D9 MCOPY PUSH15 0xF3B1F76D50666B498F764736F6C63 NUMBER STOP ADDMOD 0x1E STOP CALLER "
		},
		"gasEstimates": {
			"creation": {
				"codeDepositCost": "2538000",
				"executionCost": "infinite",
				"totalCost": "infinite"
			},
			"external": {
				"": "441",
				"DEFAULT_ADMIN_ROLE()": "397",
				"FEED_MANAGER()": "414",
				"MIN_DEPOSIT()": "436",
				"PAUSER()": "392",
				"balanceOf(address,address)": "infinite",
				"depositETH()": "infinite",
				"depositarUSDC(uint256)": "infinite",
				"getRoleAdmin(bytes32)": "infinite",
				"grantRole(bytes32,address)": "infinite",
				"hasRole(bytes32,address)": "3232",
				"owner()": "2604",
				"pauseContract()": "infinite",
				"paused()": "2570",
				"renounceOwnership()": "infinite",
				"renounceRole(bytes32,address)": "infinite",
				"revokeRole(bytes32,address)": "infinite",
				"s_feed()": "infinite",
				"setFeeds(address)": "infinite",
				"supportsInterface(bytes4)": "806",
				"transferOwnership(address)": "infinite",
				"transferTheOwnership(address)": "infinite",
				"unpauseContract()": "infinite",
				"viewAccountTotalBalance()": "infinite",
				"viewContractBalance()": "2544",
				"viewContractState()": "infinite",
				"viewDepositsCount()": "2519",
				"viewWithdrawCount()": "2593",
				"withdrawETH(uint256)": "infinite",
				"withdrawUSDC(uint256)": "infinite"
			},
			"internal": {
				"_depositETH(address,uint256,uint256)": "infinite",
				"_withdrawETH(uint256)": "infinite",
				"_withdrawUSDC(uint256)": "infinite",
				"chainLinkFeeds()": "infinite",
				"convertEthInUSD(uint256)": "infinite"
			}
		},
		"methodIdentifiers": {
			"DEFAULT_ADMIN_ROLE()": "a217fddf",
			"FEED_MANAGER()": "cb398eb3",
			"MIN_DEPOSIT()": "e1e158a5",
			"PAUSER()": "d9dc8694",
			"balanceOf(address,address)": "f7888aec",
			"depositETH()": "f6326fb3",
			"depositarUSDC(uint256)": "698b7241",
			"getRoleAdmin(bytes32)": "248a9ca3",
			"grantRole(bytes32,address)": "2f2ff15d",
			"hasRole(bytes32,address)": "91d14854",
			"owner()": "8da5cb5b",
			"pauseContract()": "439766ce",
			"paused()": "5c975abb",
			"renounceOwnership()": "715018a6",
			"renounceRole(bytes32,address)": "36568abe",
			"revokeRole(bytes32,address)": "d547741f",
			"s_feed()": "6f05c64c",
			"setFeeds(address)": "7dc532c5",
			"supportsInterface(bytes4)": "01ffc9a7",
			"transferOwnership(address)": "f2fde38b",
			"transferTheOwnership(address)": "cb14228a",
			"unpauseContract()": "b33712c5",
			"viewAccountTotalBalance()": "c70a94e2",
			"viewContractBalance()": "5c8de34c",
			"viewContractState()": "d6cb9ec2",
			"viewDepositsCount()": "977ae0d1",
			"viewWithdrawCount()": "0d3c6b34",
			"withdrawETH(uint256)": "f14210a6",
			"withdrawUSDC(uint256)": "db81f99b"
		}
	},
	"abi": [
		{
			"inputs": [
				{
					"internalType": "uint256",
					"name": "_limit",
					"type": "uint256"
				},
				{
					"internalType": "uint256",
					"name": "_threshold",
					"type": "uint256"
				},
				{
					"internalType": "address",
					"name": "_owner",
					"type": "address"
				},
				{
					"internalType": "address",
					"name": "_feed",
					"type": "address"
				},
				{
					"internalType": "address",
					"name": "_tokenERC20",
					"type": "address"
				}
			],
			"stateMutability": "nonpayable",
			"type": "constructor"
		},
		{
			"inputs": [],
			"name": "AccessControlBadConfirmation",
			"type": "error"
		},
		{
			"inputs": [
				{
					"internalType": "address",
					"name": "account",
					"type": "address"
				},
				{
					"internalType": "bytes32",
					"name": "neededRole",
					"type": "bytes32"
				}
			],
			"name": "AccessControlUnauthorizedAccount",
			"type": "error"
		},
		{
			"inputs": [],
			"name": "EnforcedPause",
			"type": "error"
		},
		{
			"inputs": [],
			"name": "ExpectedPause",
			"type": "error"
		},
		{
			"inputs": [
				{
					"internalType": "uint256",
					"name": "price",
					"type": "uint256"
				}
			],
			"name": "KipuBank_CommittedOracle",
			"type": "error"
		},
		{
			"inputs": [
				{
					"internalType": "uint256",
					"name": "amount",
					"type": "uint256"
				}
			],
			"name": "KipuBank_ExceededLimit",
			"type": "error"
		},
		{
			"inputs": [
				{
					"internalType": "uint256",
					"name": "amount",
					"type": "uint256"
				}
			],
			"name": "KipuBank_ExceededThreshold",
			"type": "error"
		},
		{
			"inputs": [
				{
					"internalType": "address",
					"name": "holder",
					"type": "address"
				},
				{
					"internalType": "uint256",
					"name": "amount",
					"type": "uint256"
				}
			],
			"name": "KipuBank_InsufficientsFunds",
			"type": "error"
		},
		{
			"inputs": [],
			"name": "KipuBank_InvalidAddress",
			"type": "error"
		},
		{
			"inputs": [
				{
					"internalType": "address",
					"name": "newFeed",
					"type": "address"
				}
			],
			"name": "KipuBank_InvalidFeed",
			"type": "error"
		},
		{
			"inputs": [
				{
					"internalType": "uint256",
					"name": "limit",
					"type": "uint256"
				},
				{
					"internalType": "uint256",
					"name": "threshold",
					"type": "uint256"
				}
			],
			"name": "KipuBank_InvalidInit",
			"type": "error"
		},
		{
			"inputs": [
				{
					"internalType": "uint256",
					"name": "limit",
					"type": "uint256"
				}
			],
			"name": "KipuBank_InvalidLimit",
			"type": "error"
		},
		{
			"inputs": [
				{
					"internalType": "uint256",
					"name": "threshold",
					"type": "uint256"
				}
			],
			"name": "KipuBank_InvalidThreshold",
			"type": "error"
		},
		{
			"inputs": [
				{
					"internalType": "uint256",
					"name": "amount",
					"type": "uint256"
				}
			],
			"name": "KipuBank_LowerMinimumAmount",
			"type": "error"
		},
		{
			"inputs": [
				{
					"internalType": "address",
					"name": "account",
					"type": "address"
				}
			],
			"name": "KipuBank_NonPermittedAccess",
			"type": "error"
		},
		{
			"inputs": [
				{
					"internalType": "uint256",
					"name": "amount",
					"type": "uint256"
				}
			],
			"name": "KipuBank_NonPermittedAmount",
			"type": "error"
		},
		{
			"inputs": [
				{
					"internalType": "address",
					"name": "holder",
					"type": "address"
				}
			],
			"name": "KipuBank_NonPermittedOperation",
			"type": "error"
		},
		{
			"inputs": [
				{
					"internalType": "uint256",
					"name": "price",
					"type": "uint256"
				}
			],
			"name": "KipuBank_OutdatedPrice",
			"type": "error"
		},
		{
			"inputs": [
				{
					"internalType": "address",
					"name": "holder",
					"type": "address"
				},
				{
					"internalType": "uint256",
					"name": "amount",
					"type": "uint256"
				}
			],
			"name": "KipuBank_RejectedWithdraw",
			"type": "error"
		},
		{
			"inputs": [
				{
					"internalType": "address",
					"name": "holder",
					"type": "address"
				}
			],
			"name": "KipuBank_ZeroAmount",
			"type": "error"
		},
		{
			"inputs": [
				{
					"internalType": "address",
					"name": "owner",
					"type": "address"
				}
			],
			"name": "OwnableInvalidOwner",
			"type": "error"
		},
		{
			"inputs": [
				{
					"internalType": "address",
					"name": "account",
					"type": "address"
				}
			],
			"name": "OwnableUnauthorizedAccount",
			"type": "error"
		},
		{
			"inputs": [
				{
					"internalType": "address",
					"name": "token",
					"type": "address"
				}
			],
			"name": "SafeERC20FailedOperation",
			"type": "error"
		},
		{
			"anonymous": false,
			"inputs": [
				{
					"indexed": true,
					"internalType": "address",
					"name": "pauser",
					"type": "address"
				},
				{
					"indexed": false,
					"internalType": "uint256",
					"name": "time",
					"type": "uint256"
				}
			],
			"name": "KipuBank_ContractPaused",
			"type": "event"
		},
		{
			"anonymous": false,
			"inputs": [
				{
					"indexed": true,
					"internalType": "address",
					"name": "unpauser",
					"type": "address"
				},
				{
					"indexed": false,
					"internalType": "uint256",
					"name": "time",
					"type": "uint256"
				}
			],
			"name": "KipuBank_ContractUnpaused",
			"type": "event"
		},
		{
			"anonymous": false,
			"inputs": [
				{
					"indexed": true,
					"internalType": "address",
					"name": "previousFeed",
					"type": "address"
				},
				{
					"indexed": true,
					"internalType": "address",
					"name": "newFeed",
					"type": "address"
				}
			],
			"name": "KipuBank_FeedUpdated",
			"type": "event"
		},
		{
			"anonymous": false,
			"inputs": [
				{
					"indexed": true,
					"internalType": "address",
					"name": "account",
					"type": "address"
				},
				{
					"indexed": false,
					"internalType": "bytes32",
					"name": "role",
					"type": "bytes32"
				}
			],
			"name": "KipuBank_GrantedRole",
			"type": "event"
		},
		{
			"anonymous": false,
			"inputs": [
				{
					"indexed": true,
					"internalType": "address",
					"name": "account",
					"type": "address"
				},
				{
					"indexed": false,
					"internalType": "bytes32",
					"name": "role",
					"type": "bytes32"
				}
			],
			"name": "KipuBank_RoleRevoked",
			"type": "event"
		},
		{
			"anonymous": false,
			"inputs": [
				{
					"indexed": true,
					"internalType": "address",
					"name": "holder",
					"type": "address"
				},
				{
					"indexed": false,
					"internalType": "uint256",
					"name": "amount",
					"type": "uint256"
				}
			],
			"name": "KipuBank_SuccessfulDeposit",
			"type": "event"
		},
		{
			"anonymous": false,
			"inputs": [
				{
					"indexed": true,
					"internalType": "address",
					"name": "holder",
					"type": "address"
				},
				{
					"indexed": false,
					"internalType": "uint256",
					"name": "amount",
					"type": "uint256"
				}
			],
			"name": "KipuBank_SuccessfulWithdrawal",
			"type": "event"
		},
		{
			"anonymous": false,
			"inputs": [
				{
					"indexed": true,
					"internalType": "address",
					"name": "previousOwner",
					"type": "address"
				},
				{
					"indexed": true,
					"internalType": "address",
					"name": "newOwner",
					"type": "address"
				}
			],
			"name": "KipuBank_TransferredOwner",
			"type": "event"
		},
		{
			"anonymous": false,
			"inputs": [
				{
					"indexed": true,
					"internalType": "address",
					"name": "previousOwner",
					"type": "address"
				},
				{
					"indexed": true,
					"internalType": "address",
					"name": "newOwner",
					"type": "address"
				}
			],
			"name": "OwnershipTransferred",
			"type": "event"
		},
		{
			"anonymous": false,
			"inputs": [
				{
					"indexed": false,
					"internalType": "address",
					"name": "account",
					"type": "address"
				}
			],
			"name": "Paused",
			"type": "event"
		},
		{
			"anonymous": false,
			"inputs": [
				{
					"indexed": true,
					"internalType": "bytes32",
					"name": "role",
					"type": "bytes32"
				},
				{
					"indexed": true,
					"internalType": "bytes32",
					"name": "previousAdminRole",
					"type": "bytes32"
				},
				{
					"indexed": true,
					"internalType": "bytes32",
					"name": "newAdminRole",
					"type": "bytes32"
				}
			],
			"name": "RoleAdminChanged",
			"type": "event"
		},
		{
			"anonymous": false,
			"inputs": [
				{
					"indexed": true,
					"internalType": "bytes32",
					"name": "role",
					"type": "bytes32"
				},
				{
					"indexed": true,
					"internalType": "address",
					"name": "account",
					"type": "address"
				},
				{
					"indexed": true,
					"internalType": "address",
					"name": "sender",
					"type": "address"
				}
			],
			"name": "RoleGranted",
			"type": "event"
		},
		{
			"anonymous": false,
			"inputs": [
				{
					"indexed": true,
					"internalType": "bytes32",
					"name": "role",
					"type": "bytes32"
				},
				{
					"indexed": true,
					"internalType": "address",
					"name": "account",
					"type": "address"
				},
				{
					"indexed": true,
					"internalType": "address",
					"name": "sender",
					"type": "address"
				}
			],
			"name": "RoleRevoked",
			"type": "event"
		},
		{
			"anonymous": false,
			"inputs": [
				{
					"indexed": false,
					"internalType": "address",
					"name": "account",
					"type": "address"
				}
			],
			"name": "Unpaused",
			"type": "event"
		},
		{
			"stateMutability": "payable",
			"type": "fallback"
		},
		{
			"inputs": [],
			"name": "DEFAULT_ADMIN_ROLE",
			"outputs": [
				{
					"internalType": "bytes32",
					"name": "",
					"type": "bytes32"
				}
			],
			"stateMutability": "view",
			"type": "function"
		},
		{
			"inputs": [],
			"name": "FEED_MANAGER",
			"outputs": [
				{
					"internalType": "bytes32",
					"name": "",
					"type": "bytes32"
				}
			],
			"stateMutability": "view",
			"type": "function"
		},
		{
			"inputs": [],
			"name": "MIN_DEPOSIT",
			"outputs": [
				{
					"internalType": "uint256",
					"name": "",
					"type": "uint256"
				}
			],
			"stateMutability": "view",
			"type": "function"
		},
		{
			"inputs": [],
			"name": "PAUSER",
			"outputs": [
				{
					"internalType": "bytes32",
					"name": "",
					"type": "bytes32"
				}
			],
			"stateMutability": "view",
			"type": "function"
		},
		{
			"inputs": [
				{
					"internalType": "address",
					"name": "_holder",
					"type": "address"
				},
				{
					"internalType": "address",
					"name": "_token",
					"type": "address"
				}
			],
			"name": "balanceOf",
			"outputs": [
				{
					"internalType": "uint256",
					"name": "",
					"type": "uint256"
				}
			],
			"stateMutability": "view",
			"type": "function"
		},
		{
			"inputs": [],
			"name": "depositETH",
			"outputs": [],
			"stateMutability": "payable",
			"type": "function"
		},
		{
			"inputs": [
				{
					"internalType": "uint256",
					"name": "_amount",
					"type": "uint256"
				}
			],
			"name": "depositarUSDC",
			"outputs": [],
			"stateMutability": "nonpayable",
			"type": "function"
		},
		{
			"inputs": [
				{
					"internalType": "bytes32",
					"name": "role",
					"type": "bytes32"
				}
			],
			"name": "getRoleAdmin",
			"outputs": [
				{
					"internalType": "bytes32",
					"name": "",
					"type": "bytes32"
				}
			],
			"stateMutability": "view",
			"type": "function"
		},
		{
			"inputs": [
				{
					"internalType": "bytes32",
					"name": "role",
					"type": "bytes32"
				},
				{
					"internalType": "address",
					"name": "account",
					"type": "address"
				}
			],
			"name": "grantRole",
			"outputs": [],
			"stateMutability": "nonpayable",
			"type": "function"
		},
		{
			"inputs": [
				{
					"internalType": "bytes32",
					"name": "role",
					"type": "bytes32"
				},
				{
					"internalType": "address",
					"name": "account",
					"type": "address"
				}
			],
			"name": "hasRole",
			"outputs": [
				{
					"internalType": "bool",
					"name": "",
					"type": "bool"
				}
			],
			"stateMutability": "view",
			"type": "function"
		},
		{
			"inputs": [],
			"name": "owner",
			"outputs": [
				{
					"internalType": "address",
					"name": "",
					"type": "address"
				}
			],
			"stateMutability": "view",
			"type": "function"
		},
		{
			"inputs": [],
			"name": "pauseContract",
			"outputs": [],
			"stateMutability": "nonpayable",
			"type": "function"
		},
		{
			"inputs": [],
			"name": "paused",
			"outputs": [
				{
					"internalType": "bool",
					"name": "",
					"type": "bool"
				}
			],
			"stateMutability": "view",
			"type": "function"
		},
		{
			"inputs": [],
			"name": "renounceOwnership",
			"outputs": [],
			"stateMutability": "nonpayable",
			"type": "function"
		},
		{
			"inputs": [
				{
					"internalType": "bytes32",
					"name": "role",
					"type": "bytes32"
				},
				{
					"internalType": "address",
					"name": "callerConfirmation",
					"type": "address"
				}
			],
			"name": "renounceRole",
			"outputs": [],
			"stateMutability": "nonpayable",
			"type": "function"
		},
		{
			"inputs": [
				{
					"internalType": "bytes32",
					"name": "role",
					"type": "bytes32"
				},
				{
					"internalType": "address",
					"name": "account",
					"type": "address"
				}
			],
			"name": "revokeRole",
			"outputs": [],
			"stateMutability": "nonpayable",
			"type": "function"
		},
		{
			"inputs": [],
			"name": "s_feed",
			"outputs": [
				{
					"internalType": "contract AggregatorV3Interface",
					"name": "",
					"type": "address"
				}
			],
			"stateMutability": "view",
			"type": "function"
		},
		{
			"inputs": [
				{
					"internalType": "address",
					"name": "_newFeed",
					"type": "address"
				}
			],
			"name": "setFeeds",
			"outputs": [],
			"stateMutability": "nonpayable",
			"type": "function"
		},
		{
			"inputs": [
				{
					"internalType": "bytes4",
					"name": "interfaceId",
					"type": "bytes4"
				}
			],
			"name": "supportsInterface",
			"outputs": [
				{
					"internalType": "bool",
					"name": "",
					"type": "bool"
				}
			],
			"stateMutability": "view",
			"type": "function"
		},
		{
			"inputs": [
				{
					"internalType": "address",
					"name": "newOwner",
					"type": "address"
				}
			],
			"name": "transferOwnership",
			"outputs": [],
			"stateMutability": "nonpayable",
			"type": "function"
		},
		{
			"inputs": [
				{
					"internalType": "address",
					"name": "_newOwner",
					"type": "address"
				}
			],
			"name": "transferTheOwnership",
			"outputs": [],
			"stateMutability": "nonpayable",
			"type": "function"
		},
		{
			"inputs": [],
			"name": "unpauseContract",
			"outputs": [],
			"stateMutability": "nonpayable",
			"type": "function"
		},
		{
			"inputs": [],
			"name": "viewAccountTotalBalance",
			"outputs": [
				{
					"internalType": "uint256",
					"name": "amount_",
					"type": "uint256"
				}
			],
			"stateMutability": "view",
			"type": "function"
		},
		{
			"inputs": [],
			"name": "viewContractBalance",
			"outputs": [
				{
					"internalType": "uint256",
					"name": "",
					"type": "uint256"
				}
			],
			"stateMutability": "view",
			"type": "function"
		},
		{
			"inputs": [],
			"name": "viewContractState",
			"outputs": [
				{
					"internalType": "bool",
					"name": "isPaused",
					"type": "bool"
				},
				{
					"internalType": "uint256",
					"name": "totalContract",
					"type": "uint256"
				},
				{
					"internalType": "uint256",
					"name": "limit",
					"type": "uint256"
				},
				{
					"internalType": "uint256",
					"name": "threshold",
					"type": "uint256"
				},
				{
					"internalType": "address",
					"name": "actualFeed",
					"type": "address"
				}
			],
			"stateMutability": "view",
			"type": "function"
		},
		{
			"inputs": [],
			"name": "viewDepositsCount",
			"outputs": [
				{
					"internalType": "uint256",
					"name": "",
					"type": "uint256"
				}
			],
			"stateMutability": "view",
			"type": "function"
		},
		{
			"inputs": [],
			"name": "viewWithdrawCount",
			"outputs": [
				{
					"internalType": "uint256",
					"name": "",
					"type": "uint256"
				}
			],
			"stateMutability": "view",
			"type": "function"
		},
		{
			"inputs": [
				{
					"internalType": "uint256",
					"name": "_amount",
					"type": "uint256"
				}
			],
			"name": "withdrawETH",
			"outputs": [],
			"stateMutability": "nonpayable",
			"type": "function"
		},
		{
			"inputs": [
				{
					"internalType": "uint256",
					"name": "_amount",
					"type": "uint256"
				}
			],
			"name": "withdrawUSDC",
			"outputs": [],
			"stateMutability": "nonpayable",
			"type": "function"
		},
		{
			"stateMutability": "payable",
			"type": "receive"
		}
	]
}