{
	"data": {
		"bytecode": {
			"linkReferences": {},
			"object": "60e06040525f6004555f6005555f60065534801561001b575f5ffd5b506040516139bf3803806139bf833981810160405281019061003d9190610616565b8260015f819055505f73ffffffffffffffffffffffffffffffffffffffff168173ffffffffffffffffffffffffffffffffffffffff16036100b5575f6040517f1e4fbdf70000000000000000000000000000000000000000000000000000000081526004016100ac919061069c565b60405180910390fd5b6100c48161036160201b60201c565b505f850361010957846040517ff1fdfd2b00000000000000000000000000000000000000000000000000000000815260040161010091906106c4565b60405180910390fd5b5f840361014d57836040517f5052fe8e00000000000000000000000000000000000000000000000000000000815260040161014491906106c4565b60405180910390fd5b848411156101945784846040517f3122626300000000000000000000000000000000000000000000000000000000815260040161018b9291906106dd565b60405180910390fd5b5f73ffffffffffffffffffffffffffffffffffffffff168273ffffffffffffffffffffffffffffffffffffffff16036101f9576040517f463858d600000000000000000000000000000000000000000000000000000000815260040160405180910390fd5b5f73ffffffffffffffffffffffffffffffffffffffff168173ffffffffffffffffffffffffffffffffffffffff160361025e576040517f463858d600000000000000000000000000000000000000000000000000000000815260040160405180910390fd5b6102705f5f1b8461042460201b60201c565b506102a17f539440820030c4994db4e31b6b800deafd503688728f932addfe7a410515c14c8461042460201b60201c565b506102d27f9bbb3ee3bdfbe971682b08854a620ca4bf696f8e0c269e5c5b129a18e64d29df8461042460201b60201c565b508073ffffffffffffffffffffffffffffffffffffffff1660808173ffffffffffffffffffffffffffffffffffffffff16815250508160035f6101000a81548173ffffffffffffffffffffffffffffffffffffffff021916908373ffffffffffffffffffffffffffffffffffffffff1602179055508460c081815250508360a081815250505050505050610704565b5f60015f9054906101000a900473ffffffffffffffffffffffffffffffffffffffff1690508160015f6101000a81548173ffffffffffffffffffffffffffffffffffffffff021916908373ffffffffffffffffffffffffffffffffffffffff1602179055508173ffffffffffffffffffffffffffffffffffffffff168173ffffffffffffffffffffffffffffffffffffffff167f8be0079c531659141344cd1fd0a4f28419497f9722a3daafe3b4186f6b6457e060405160405180910390a35050565b5f610435838361051a60201b60201c565b61051057600160025f8581526020019081526020015f205f015f8473ffffffffffffffffffffffffffffffffffffffff1673ffffffffffffffffffffffffffffffffffffffff1681526020019081526020015f205f6101000a81548160ff0219169083151502179055506104ad61057e60201b60201c565b73ffffffffffffffffffffffffffffffffffffffff168273ffffffffffffffffffffffffffffffffffffffff16847f2f8788117e7eff1d82e926ec794901d17c78024a50270940304540a733656f0d60405160405180910390a460019050610514565b5f90505b92915050565b5f60025f8481526020019081526020015f205f015f8373ffffffffffffffffffffffffffffffffffffffff1673ffffffffffffffffffffffffffffffffffffffff1681526020019081526020015f205f9054906101000a900460ff16905092915050565b5f33905090565b5f5ffd5b5f819050919050565b61059b81610589565b81146105a5575f5ffd5b50565b5f815190506105b681610592565b92915050565b5f73ffffffffffffffffffffffffffffffffffffffff82169050919050565b5f6105e5826105bc565b9050919050565b6105f5816105db565b81146105ff575f5ffd5b50565b5f81519050610610816105ec565b92915050565b5f5f5f5f5f60a0868803121561062f5761062e610585565b5b5f61063c888289016105a8565b955050602061064d888289016105a8565b945050604061065e88828901610602565b935050606061066f88828901610602565b925050608061068088828901610602565b9150509295509295909350565b610696816105db565b82525050565b5f6020820190506106af5f83018461068d565b92915050565b6106be81610589565b82525050565b5f6020820190506106d75f8301846106b5565b92915050565b5f6040820190506106f05f8301856106b5565b6106fd60208301846106b5565b9392505050565b60805160a05160c05161323d6107825f395f81816107a2015281816108680152610e5701525f81816107c301528181612055015261239801525f8181610cec01528181610ed101528181610f6d0152818161100c015281816111390152818161176901528181612400015281816124e0015261260c015261323d5ff3fe6080604052600436106101e6575f3560e01c80638648840a11610101578063cb398eb311610094578063f0e00dc811610063578063f0e00dc8146106c9578063f2fde38b146106f1578063f39b180914610719578063f7888aec1461074357610228565b8063cb398eb314610625578063ccd6b0201461064f578063d547741f14610677578063d9dc86941461069f57610228565b806393295c1c116100d057806393295c1c1461057d578063939495bd146105a7578063a217fddf146105d1578063c6aca33c146105fb57610228565b80638648840a146104c75780638da5cb5b146104ef57806391d1485414610519578063931fb90e1461055557610228565b80635c975abb11610179578063715018a611610148578063715018a614610437578063779bb1361461044d5780637dc532c51461047757806382fe54b51461049f57610228565b80635c975abb146103915780636900670c146103bb578063698b7241146103e55780636f05c64c1461040d57610228565b8063248a9ca3116101b5578063248a9ca3146102ef5780632f2ff15d1461032b57806336568abe1461035357806338d5c9161461037b57610228565b806301ffc9a7146102655780630594cc69146102a157806316a1930f146102cf5780631a003ecb146102d957610228565b3661022857336040517fe1d158ff00000000000000000000000000000000000000000000000000000000815260040161021f91906129ff565b60405180910390fd5b336040517fe1d158ff00000000000000000000000000000000000000000000000000000000815260040161025c91906129ff565b60405180910390fd5b348015610270575f5ffd5b5061028b60048036038101906102869190612a71565b61077f565b6040516102989190612ab6565b60405180910390f35b3480156102ac575f5ffd5b506102b5610790565b6040516102c6959493929190612ae7565b60405180910390f35b6102d7610815565b005b3480156102e4575f5ffd5b506102ed6109fc565b005b3480156102fa575f5ffd5b5061031560048036038101906103109190612b6b565b610b09565b6040516103229190612ba5565b60405180910390f35b348015610336575f5ffd5b50610351600480360381019061034c9190612be8565b610b26565b005b34801561035e575f5ffd5b5061037960048036038101906103749190612be8565b610b48565b005b348015610386575f5ffd5b5061038f610bc3565b005b34801561039c575f5ffd5b506103a5610cd0565b6040516103b29190612ab6565b60405180910390f35b3480156103c6575f5ffd5b506103cf610ce6565b6040516103dc9190612c26565b60405180910390f35b3480156103f0575f5ffd5b5061040b60048036038101906104069190612c69565b610e10565b005b348015610418575f5ffd5b50610421611182565b60405161042e9190612cef565b60405180910390f35b348015610442575f5ffd5b5061044b6111a7565b005b348015610458575f5ffd5b506104616111ba565b60405161046e9190612c26565b60405180910390f35b348015610482575f5ffd5b5061049d60048036038101906104989190612d08565b611239565b005b3480156104aa575f5ffd5b506104c560048036038101906104c09190612c69565b61155e565b005b3480156104d2575f5ffd5b506104ed60048036038101906104e89190612d08565b611572565b005b3480156104fa575f5ffd5b506105036116ba565b60405161051091906129ff565b60405180910390f35b348015610524575f5ffd5b5061053f600480360381019061053a9190612be8565b6116e2565b60405161054c9190612ab6565b60405180910390f35b348015610560575f5ffd5b5061057b60048036038101906105769190612c69565b611746565b005b348015610588575f5ffd5b5061059161175a565b60405161059e9190612c26565b60405180910390f35b3480156105b2575f5ffd5b506105bb611763565b6040516105c89190612c26565b60405180910390f35b3480156105dc575f5ffd5b506105e5611802565b6040516105f29190612ba5565b60405180910390f35b348015610606575f5ffd5b5061060f611808565b60405161061c9190612c26565b60405180910390f35b348015610630575f5ffd5b50610639611811565b6040516106469190612ba5565b60405180910390f35b34801561065a575f5ffd5b5061067560048036038101906106709190612d33565b611835565b005b348015610682575f5ffd5b5061069d60048036038101906106989190612be8565b611899565b005b3480156106aa575f5ffd5b506106b36118bb565b6040516106c09190612ba5565b60405180910390f35b3480156106d4575f5ffd5b506106ef60048036038101906106ea9190612d33565b6118df565b005b3480156106fc575f5ffd5b5061071760048036038101906107129190612d08565b611943565b005b348015610724575f5ffd5b5061072d6119c7565b60405161073a9190612c26565b60405180910390f35b34801561074e575f5ffd5b5061076960048036038101906107649190612d71565b6119d0565b6040516107769190612c26565b60405180910390f35b5f61078982611a52565b9050919050565b5f5f5f5f5f61079d610cd0565b6006547f00000000000000000000000000000000000000000000000000000000000000007f000000000000000000000000000000000000000000000000000000000000000060035f9054906101000a900473ffffffffffffffffffffffffffffffffffffffff16945094509450945094509091929394565b345f61082082611acb565b90505f810361086657336040517fb2f0923100000000000000000000000000000000000000000000000000000000815260040161085d91906129ff565b60405180910390fd5b7f0000000000000000000000000000000000000000000000000000000000000000600654826108959190612ddc565b11156108d857806040517f2900b02c0000000000000000000000000000000000000000000000000000000081526004016108cf9190612c26565b60405180910390fd5b6108e0611afa565b5f6108ea34611acb565b90503460075f5f73ffffffffffffffffffffffffffffffffffffffff1673ffffffffffffffffffffffffffffffffffffffff1681526020019081526020015f205f3373ffffffffffffffffffffffffffffffffffffffff1673ffffffffffffffffffffffffffffffffffffffff1681526020019081526020015f205f8282546109739190612ddc565b9250508190555060045f81548092919061098c90612e0f565b91905055508060065f8282546109a29190612ddc565b925050819055503373ffffffffffffffffffffffffffffffffffffffff167f9d15693852bf60dc27bd5aa831d0351359b7d01d428ae1baae11f15cbcfebafd826040516109ef9190612c26565b60405180910390a2505050565b7f539440820030c4994db4e31b6b800deafd503688728f932addfe7a410515c14c3373ffffffffffffffffffffffffffffffffffffffff16610a3c6116ba565b73ffffffffffffffffffffffffffffffffffffffff16141580610a665750610a6481336116e2565b155b15610aa857336040517f06286eaa000000000000000000000000000000000000000000000000000000008152600401610a9f91906129ff565b60405180910390fd5b610ab0611afa565b610ab8611b3b565b3373ffffffffffffffffffffffffffffffffffffffff167f65ab6adc87722a7acd973ffed16cba7cfdf07b5329157a7192434753ba9dac1342604051610afe9190612c26565b60405180910390a250565b5f60025f8381526020019081526020015f20600101549050919050565b610b2f82610b09565b610b3881611b9d565b610b428383611bb1565b50505050565b610b50611c9b565b73ffffffffffffffffffffffffffffffffffffffff168173ffffffffffffffffffffffffffffffffffffffff1614610bb4576040517f6697b23200000000000000000000000000000000000000000000000000000000815260040160405180910390fd5b610bbe8282611ca2565b505050565b7f539440820030c4994db4e31b6b800deafd503688728f932addfe7a410515c14c3373ffffffffffffffffffffffffffffffffffffffff16610c036116ba565b73ffffffffffffffffffffffffffffffffffffffff16141580610c2d5750610c2b81336116e2565b155b15610c6f57336040517f06286eaa000000000000000000000000000000000000000000000000000000008152600401610c6691906129ff565b60405180910390fd5b610c77611d8c565b610c7f611dcc565b3373ffffffffffffffffffffffffffffffffffffffff167f08af9cf236f4b3afb8d03262d5bef5d95db4da02aa57892cd6474e8097f4f2b742604051610cc59190612c26565b60405180910390a250565b5f600160149054906101000a900460ff16905090565b5f60075f7f000000000000000000000000000000000000000000000000000000000000000073ffffffffffffffffffffffffffffffffffffffff1673ffffffffffffffffffffffffffffffffffffffff1681526020019081526020015f205f3373ffffffffffffffffffffffffffffffffffffffff1673ffffffffffffffffffffffffffffffffffffffff1681526020019081526020015f2054610e0160075f5f73ffffffffffffffffffffffffffffffffffffffff1673ffffffffffffffffffffffffffffffffffffffff1681526020019081526020015f205f3373ffffffffffffffffffffffffffffffffffffffff1673ffffffffffffffffffffffffffffffffffffffff1681526020019081526020015f2054611acb565b610e0b9190612ddc565b905090565b805f8103610e5557336040517fb2f09231000000000000000000000000000000000000000000000000000000008152600401610e4c91906129ff565b60405180910390fd5b7f000000000000000000000000000000000000000000000000000000000000000060065482610e849190612ddc565b1115610ec757806040517f2900b02c000000000000000000000000000000000000000000000000000000008152600401610ebe9190612c26565b60405180910390fd5b610ecf611afa565b7f000000000000000000000000000000000000000000000000000000000000000073ffffffffffffffffffffffffffffffffffffffff1663095ea7b330846040518363ffffffff1660e01b8152600401610f2a929190612e56565b6020604051808303815f875af1158015610f46573d5f5f3e3d5ffd5b505050506040513d601f19601f82011682018060405250810190610f6a9190612ea7565b507f000000000000000000000000000000000000000000000000000000000000000073ffffffffffffffffffffffffffffffffffffffff1663dd62ed3e33306040518363ffffffff1660e01b8152600401610fc6929190612ed2565b602060405180830381865afa158015610fe1573d5f5f3e3d5ffd5b505050506040513d601f19601f820116820180604052508101906110059190612f0d565b508160075f7f000000000000000000000000000000000000000000000000000000000000000073ffffffffffffffffffffffffffffffffffffffff1673ffffffffffffffffffffffffffffffffffffffff1681526020019081526020015f205f3373ffffffffffffffffffffffffffffffffffffffff1673ffffffffffffffffffffffffffffffffffffffff1681526020019081526020015f205f8282546110ad9190612ddc565b9250508190555060045f8154809291906110c690612e0f565b91905055508160065f8282546110dc9190612ddc565b925050819055503373ffffffffffffffffffffffffffffffffffffffff167f9d15693852bf60dc27bd5aa831d0351359b7d01d428ae1baae11f15cbcfebafd836040516111299190612c26565b60405180910390a261117e3330847f000000000000000000000000000000000000000000000000000000000000000073ffffffffffffffffffffffffffffffffffffffff16611e2e909392919063ffffffff16565b5050565b60035f9054906101000a900473ffffffffffffffffffffffffffffffffffffffff1681565b6111af611eb0565b6111b85f611f37565b565b5f60075f5f73ffffffffffffffffffffffffffffffffffffffff1673ffffffffffffffffffffffffffffffffffffffff1681526020019081526020015f205f3373ffffffffffffffffffffffffffffffffffffffff1673ffffffffffffffffffffffffffffffffffffffff1681526020019081526020015f2054905090565b7f9bbb3ee3bdfbe971682b08854a620ca4bf696f8e0c269e5c5b129a18e64d29df3373ffffffffffffffffffffffffffffffffffffffff166112796116ba565b73ffffffffffffffffffffffffffffffffffffffff161415806112a357506112a181336116e2565b155b156112e557336040517f06286eaa0000000000000000000000000000000000000000000000000000000081526004016112dc91906129ff565b60405180910390fd5b6112ed611d8c565b5f73ffffffffffffffffffffffffffffffffffffffff168273ffffffffffffffffffffffffffffffffffffffff1603611352576040517f463858d600000000000000000000000000000000000000000000000000000000815260040160405180910390fd5b8173ffffffffffffffffffffffffffffffffffffffff1663feaf968c6040518163ffffffff1660e01b815260040160a060405180830381865afa9250505080156113ba57506040513d601f19601f820116820180604052508101906113b79190612faa565b60015b6113fb57816040517f59eea3150000000000000000000000000000000000000000000000000000000081526004016113f291906129ff565b60405180910390fd5b5f841361143f57866040517f59eea31500000000000000000000000000000000000000000000000000000000815260040161143691906129ff565b60405180910390fd5b610e1061ffff1682426114529190613021565b111561149557836040517f2609a26500000000000000000000000000000000000000000000000000000000815260040161148c9190612c26565b60405180910390fd5b5f60035f9054906101000a900473ffffffffffffffffffffffffffffffffffffffff1690508760035f6101000a81548173ffffffffffffffffffffffffffffffffffffffff021916908373ffffffffffffffffffffffffffffffffffffffff1602179055508773ffffffffffffffffffffffffffffffffffffffff168173ffffffffffffffffffffffffffffffffffffffff167f03028d95bd98a5ec8c81b55c2b61e734dde89bb773697b429bd195fd00582b3060405160405180910390a35050505050505050565b611566611afa565b61156f81611ffa565b50565b61157a611eb0565b611582611d8c565b5f61158b6116ba565b90506115995f5f1b82611ca2565b506115c47f539440820030c4994db4e31b6b800deafd503688728f932addfe7a410515c14c82611ca2565b506115ef7f9bbb3ee3bdfbe971682b08854a620ca4bf696f8e0c269e5c5b129a18e64d29df82611ca2565b506115f982611f37565b6116055f5f1b83611bb1565b506116307f9bbb3ee3bdfbe971682b08854a620ca4bf696f8e0c269e5c5b129a18e64d29df83611bb1565b5061165b7f539440820030c4994db4e31b6b800deafd503688728f932addfe7a410515c14c83611bb1565b508173ffffffffffffffffffffffffffffffffffffffff168173ffffffffffffffffffffffffffffffffffffffff167f2ed8931cd5c0d36856a21c6245bf2e305f989a55c31be2b6cb7ec0a4da43c31960405160405180910390a35050565b5f60015f9054906101000a900473ffffffffffffffffffffffffffffffffffffffff16905090565b5f60025f8481526020019081526020015f205f015f8373ffffffffffffffffffffffffffffffffffffffff1673ffffffffffffffffffffffffffffffffffffffff1681526020019081526020015f205f9054906101000a900460ff16905092915050565b61174e611afa565b61175781612349565b50565b5f600654905090565b5f60075f7f000000000000000000000000000000000000000000000000000000000000000073ffffffffffffffffffffffffffffffffffffffff1673ffffffffffffffffffffffffffffffffffffffff1681526020019081526020015f205f3373ffffffffffffffffffffffffffffffffffffffff1673ffffffffffffffffffffffffffffffffffffffff1681526020019081526020015f2054905090565b5f5f1b81565b5f600554905090565b7f9bbb3ee3bdfbe971682b08854a620ca4bf696f8e0c269e5c5b129a18e64d29df81565b61183d611eb0565b6118478183610b26565b8173ffffffffffffffffffffffffffffffffffffffff167f56a39044e0e7ad5c8db0abdb4925f3d610d0f66ab2d22536712afd06e6aa60328260405161188d9190612ba5565b60405180910390a25050565b6118a282610b09565b6118ab81611b9d565b6118b58383611ca2565b50505050565b7f539440820030c4994db4e31b6b800deafd503688728f932addfe7a410515c14c81565b6118e7611eb0565b6118f18183611899565b8173ffffffffffffffffffffffffffffffffffffffff167f2a235e73fbdf449db29391f00a41fd53e24c96816320a25a710415e2c05370f0826040516119379190612ba5565b60405180910390a25050565b61194b611eb0565b5f73ffffffffffffffffffffffffffffffffffffffff168173ffffffffffffffffffffffffffffffffffffffff16036119bb575f6040517f1e4fbdf70000000000000000000000000000000000000000000000000000000081526004016119b291906129ff565b60405180910390fd5b6119c481611f37565b50565b5f600454905090565b5f60075f8373ffffffffffffffffffffffffffffffffffffffff1673ffffffffffffffffffffffffffffffffffffffff1681526020019081526020015f205f8473ffffffffffffffffffffffffffffffffffffffff1673ffffffffffffffffffffffffffffffffffffffff1681526020019081526020015f2054905092915050565b5f7f7965db0b000000000000000000000000000000000000000000000000000000007bffffffffffffffffffffffffffffffffffffffffffffffffffffffff1916827bffffffffffffffffffffffffffffffffffffffffffffffffffffffff19161480611ac45750611ac38261265c565b5b9050919050565b5f68056bc75e2d63100000611ade6126c5565b83611ae99190613054565b611af391906130c2565b9050919050565b611b02610cd0565b15611b39576040517fd93c066500000000000000000000000000000000000000000000000000000000815260040160405180910390fd5b565b611b43611afa565b60018060146101000a81548160ff0219169083151502179055507f62e78cea01bee320cd4e420270b5ea74000d11b0c9f74754ebdbfc544b05a258611b86611c9b565b604051611b9391906129ff565b60405180910390a1565b611bae81611ba9611c9b565b6127ff565b50565b5f611bbc83836116e2565b611c9157600160025f8581526020019081526020015f205f015f8473ffffffffffffffffffffffffffffffffffffffff1673ffffffffffffffffffffffffffffffffffffffff1681526020019081526020015f205f6101000a81548160ff021916908315150217905550611c2e611c9b565b73ffffffffffffffffffffffffffffffffffffffff168273ffffffffffffffffffffffffffffffffffffffff16847f2f8788117e7eff1d82e926ec794901d17c78024a50270940304540a733656f0d60405160405180910390a460019050611c95565b5f90505b92915050565b5f33905090565b5f611cad83836116e2565b15611d82575f60025f8581526020019081526020015f205f015f8473ffffffffffffffffffffffffffffffffffffffff1673ffffffffffffffffffffffffffffffffffffffff1681526020019081526020015f205f6101000a81548160ff021916908315150217905550611d1f611c9b565b73ffffffffffffffffffffffffffffffffffffffff168273ffffffffffffffffffffffffffffffffffffffff16847ff6391f5c32d9c69d2a47ea670b442974b53935d1edc7fd64eb21e047a839171b60405160405180910390a460019050611d86565b5f90505b92915050565b611d94610cd0565b611dca576040517f8dfc202b00000000000000000000000000000000000000000000000000000000815260040160405180910390fd5b565b611dd4611d8c565b5f600160146101000a81548160ff0219169083151502179055507f5db9ee0a495bf2e6ff9c91a7834c1ba4fdd244a5e8aa4e537bd38aeae4b073aa611e17611c9b565b604051611e2491906129ff565b60405180910390a1565b611eaa848573ffffffffffffffffffffffffffffffffffffffff166323b872dd868686604051602401611e63939291906130f2565b604051602081830303815290604052915060e01b6020820180517bffffffffffffffffffffffffffffffffffffffffffffffffffffffff8381831617835250505050612850565b50505050565b611eb8611c9b565b73ffffffffffffffffffffffffffffffffffffffff16611ed66116ba565b73ffffffffffffffffffffffffffffffffffffffff1614611f3557611ef9611c9b565b6040517f118cdaa7000000000000000000000000000000000000000000000000000000008152600401611f2c91906129ff565b60405180910390fd5b565b5f60015f9054906101000a900473ffffffffffffffffffffffffffffffffffffffff1690508160015f6101000a81548173ffffffffffffffffffffffffffffffffffffffff021916908373ffffffffffffffffffffffffffffffffffffffff1602179055508173ffffffffffffffffffffffffffffffffffffffff168173ffffffffffffffffffffffffffffffffffffffff167f8be0079c531659141344cd1fd0a4f28419497f9722a3daafe3b4186f6b6457e060405160405180910390a35050565b6120026128eb565b805f61200d82611acb565b90505f810361205357336040517fb2f0923100000000000000000000000000000000000000000000000000000000815260040161204a91906129ff565b60405180910390fd5b7f00000000000000000000000000000000000000000000000000000000000000008111156120b857806040517fc39935650000000000000000000000000000000000000000000000000000000081526004016120af9190612c26565b60405180910390fd5b60075f5f73ffffffffffffffffffffffffffffffffffffffff1673ffffffffffffffffffffffffffffffffffffffff1681526020019081526020015f205f3373ffffffffffffffffffffffffffffffffffffffff1673ffffffffffffffffffffffffffffffffffffffff1681526020019081526020015f20548211156121775733816040517f51a7314200000000000000000000000000000000000000000000000000000000815260040161216e929190612e56565b60405180910390fd5b5f61218184611acb565b90508360075f5f73ffffffffffffffffffffffffffffffffffffffff1673ffffffffffffffffffffffffffffffffffffffff1681526020019081526020015f205f3373ffffffffffffffffffffffffffffffffffffffff1673ffffffffffffffffffffffffffffffffffffffff1681526020019081526020015f205f82825461220a9190613021565b9250508190555060055f81548092919061222390612e0f565b91905055508060065f8282546122399190613021565b925050819055503373ffffffffffffffffffffffffffffffffffffffff167f9cde449504e4972ffddec09813e0c252a1462d76bef1864b9e7520dadb7183e8826040516122869190612c26565b60405180910390a25f3373ffffffffffffffffffffffffffffffffffffffff16856040516122b390613154565b5f6040518083038185875af1925050503d805f81146122ed576040519150601f19603f3d011682016040523d82523d5f602084013e6122f2565b606091505b505090508061233a5733856040517f6c5e1a14000000000000000000000000000000000000000000000000000000008152600401612331929190612e56565b60405180910390fd5b50505050612346612938565b50565b6123516128eb565b805f810361239657336040517fb2f0923100000000000000000000000000000000000000000000000000000000815260040161238d91906129ff565b60405180910390fd5b7f00000000000000000000000000000000000000000000000000000000000000008111156123fb57806040517fc39935650000000000000000000000000000000000000000000000000000000081526004016123f29190612c26565b60405180910390fd5b60075f7f000000000000000000000000000000000000000000000000000000000000000073ffffffffffffffffffffffffffffffffffffffff1673ffffffffffffffffffffffffffffffffffffffff1681526020019081526020015f205f3373ffffffffffffffffffffffffffffffffffffffff1673ffffffffffffffffffffffffffffffffffffffff1681526020019081526020015f20548111156124da5733816040517f51a731420000000000000000000000000000000000000000000000000000000081526004016124d1929190612e56565b60405180910390fd5b8160075f7f000000000000000000000000000000000000000000000000000000000000000073ffffffffffffffffffffffffffffffffffffffff1673ffffffffffffffffffffffffffffffffffffffff1681526020019081526020015f205f3373ffffffffffffffffffffffffffffffffffffffff1673ffffffffffffffffffffffffffffffffffffffff1681526020019081526020015f205f8282546125819190613021565b9250508190555060055f81548092919061259a90612e0f565b91905055508160065f8282546125b09190613021565b925050819055503373ffffffffffffffffffffffffffffffffffffffff167f9cde449504e4972ffddec09813e0c252a1462d76bef1864b9e7520dadb7183e8836040516125fd9190612c26565b60405180910390a261265033837f000000000000000000000000000000000000000000000000000000000000000073ffffffffffffffffffffffffffffffffffffffff166129419092919063ffffffff16565b50612659612938565b50565b5f7f01ffc9a7000000000000000000000000000000000000000000000000000000007bffffffffffffffffffffffffffffffffffffffffffffffffffffffff1916827bffffffffffffffffffffffffffffffffffffffffffffffffffffffff1916149050919050565b5f5f5f60035f9054906101000a900473ffffffffffffffffffffffffffffffffffffffff1673ffffffffffffffffffffffffffffffffffffffff1663feaf968c6040518163ffffffff1660e01b815260040160a060405180830381865afa158015612732573d5f5f3e3d5ffd5b505050506040513d601f19601f820116820180604052508101906127569190612faa565b509350509250505f82136127a157816040517f365440290000000000000000000000000000000000000000000000000000000081526004016127989190612c26565b60405180910390fd5b610e1061ffff1681426127b49190613021565b11156127f757816040517f2609a2650000000000000000000000000000000000000000000000000000000081526004016127ee9190612c26565b60405180910390fd5b819250505090565b61280982826116e2565b61284c5780826040517fe2517d3f000000000000000000000000000000000000000000000000000000008152600401612843929190613168565b60405180910390fd5b5050565b5f5f60205f8451602086015f885af18061286f576040513d5f823e3d81fd5b3d92505f519150505f82146128885760018114156128a3565b5f8473ffffffffffffffffffffffffffffffffffffffff163b145b156128e557836040517f5274afe70000000000000000000000000000000000000000000000000000000081526004016128dc91906129ff565b60405180910390fd5b50505050565b60025f540361292f576040517f08c379a0000000000000000000000000000000000000000000000000000000008152600401612926906131e9565b60405180910390fd5b60025f81905550565b60015f81905550565b6129bb838473ffffffffffffffffffffffffffffffffffffffff1663a9059cbb8585604051602401612974929190612e56565b604051602081830303815290604052915060e01b6020820180517bffffffffffffffffffffffffffffffffffffffffffffffffffffffff8381831617835250505050612850565b505050565b5f73ffffffffffffffffffffffffffffffffffffffff82169050919050565b5f6129e9826129c0565b9050919050565b6129f9816129df565b82525050565b5f602082019050612a125f8301846129f0565b92915050565b5f5ffd5b5f7fffffffff0000000000000000000000000000000000000000000000000000000082169050919050565b612a5081612a1c565b8114612a5a575f5ffd5b50565b5f81359050612a6b81612a47565b92915050565b5f60208284031215612a8657612a85612a18565b5b5f612a9384828501612a5d565b91505092915050565b5f8115159050919050565b612ab081612a9c565b82525050565b5f602082019050612ac95f830184612aa7565b92915050565b5f819050919050565b612ae181612acf565b82525050565b5f60a082019050612afa5f830188612aa7565b612b076020830187612ad8565b612b146040830186612ad8565b612b216060830185612ad8565b612b2e60808301846129f0565b9695505050505050565b5f819050919050565b612b4a81612b38565b8114612b54575f5ffd5b50565b5f81359050612b6581612b41565b92915050565b5f60208284031215612b8057612b7f612a18565b5b5f612b8d84828501612b57565b91505092915050565b612b9f81612b38565b82525050565b5f602082019050612bb85f830184612b96565b92915050565b612bc7816129df565b8114612bd1575f5ffd5b50565b5f81359050612be281612bbe565b92915050565b5f5f60408385031215612bfe57612bfd612a18565b5b5f612c0b85828601612b57565b9250506020612c1c85828601612bd4565b9150509250929050565b5f602082019050612c395f830184612ad8565b92915050565b612c4881612acf565b8114612c52575f5ffd5b50565b5f81359050612c6381612c3f565b92915050565b5f60208284031215612c7e57612c7d612a18565b5b5f612c8b84828501612c55565b91505092915050565b5f819050919050565b5f612cb7612cb2612cad846129c0565b612c94565b6129c0565b9050919050565b5f612cc882612c9d565b9050919050565b5f612cd982612cbe565b9050919050565b612ce981612ccf565b82525050565b5f602082019050612d025f830184612ce0565b92915050565b5f60208284031215612d1d57612d1c612a18565b5b5f612d2a84828501612bd4565b91505092915050565b5f5f60408385031215612d4957612d48612a18565b5b5f612d5685828601612bd4565b9250506020612d6785828601612b57565b9150509250929050565b5f5f60408385031215612d8757612d86612a18565b5b5f612d9485828601612bd4565b9250506020612da585828601612bd4565b9150509250929050565b7f4e487b71000000000000000000000000000000000000000000000000000000005f52601160045260245ffd5b5f612de682612acf565b9150612df183612acf565b9250828201905080821115612e0957612e08612daf565b5b92915050565b5f612e1982612acf565b91507fffffffffffffffffffffffffffffffffffffffffffffffffffffffffffffffff8203612e4b57612e4a612daf565b5b600182019050919050565b5f604082019050612e695f8301856129f0565b612e766020830184612ad8565b9392505050565b612e8681612a9c565b8114612e90575f5ffd5b50565b5f81519050612ea181612e7d565b92915050565b5f60208284031215612ebc57612ebb612a18565b5b5f612ec984828501612e93565b91505092915050565b5f604082019050612ee55f8301856129f0565b612ef260208301846129f0565b9392505050565b5f81519050612f0781612c3f565b92915050565b5f60208284031215612f2257612f21612a18565b5b5f612f2f84828501612ef9565b91505092915050565b5f69ffffffffffffffffffff82169050919050565b612f5681612f38565b8114612f60575f5ffd5b50565b5f81519050612f7181612f4d565b92915050565b5f819050919050565b612f8981612f77565b8114612f93575f5ffd5b50565b5f81519050612fa481612f80565b92915050565b5f5f5f5f5f60a08688031215612fc357612fc2612a18565b5b5f612fd088828901612f63565b9550506020612fe188828901612f96565b9450506040612ff288828901612ef9565b935050606061300388828901612ef9565b925050608061301488828901612f63565b9150509295509295909350565b5f61302b82612acf565b915061303683612acf565b925082820390508181111561304e5761304d612daf565b5b92915050565b5f61305e82612acf565b915061306983612acf565b925082820261307781612acf565b9150828204841483151761308e5761308d612daf565b5b5092915050565b7f4e487b71000000000000000000000000000000000000000000000000000000005f52601260045260245ffd5b5f6130cc82612acf565b91506130d783612acf565b9250826130e7576130e6613095565b5b828204905092915050565b5f6060820190506131055f8301866129f0565b61311260208301856129f0565b61311f6040830184612ad8565b949350505050565b5f81905092915050565b50565b5f61313f5f83613127565b915061314a82613131565b5f82019050919050565b5f61315e82613134565b9150819050919050565b5f60408201905061317b5f8301856129f0565b6131886020830184612b96565b9392505050565b5f82825260208201905092915050565b7f5265656e7472616e637947756172643a207265656e7472616e742063616c6c005f82015250565b5f6131d3601f8361318f565b91506131de8261319f565b602082019050919050565b5f6020820190508181035f830152613200816131c7565b905091905056fea2646970667358221220201d60410ba2bab6ea02ae8866bbe39653171a7984e9180b7fbd9088e2fa5a8c64736f6c634300081e0033",
			"opcodes": "PUSH1 0xE0 PUSH1 0x40 MSTORE PUSH0 PUSH1 0x4 SSTORE PUSH0 PUSH1 0x5 SSTORE PUSH0 PUSH1 0x6 SSTORE CALLVALUE DUP1 ISZERO PUSH2 0x1B JUMPI PUSH0 PUSH0 REVERT JUMPDEST POP PUSH1 0x40 MLOAD PUSH2 0x39BF CODESIZE SUB DUP1 PUSH2 0x39BF DUP4 CODECOPY DUP2 DUP2 ADD PUSH1 0x40 MSTORE DUP2 ADD SWAP1 PUSH2 0x3D SWAP2 SWAP1 PUSH2 0x616 JUMP JUMPDEST DUP3 PUSH1 0x1 PUSH0 DUP2 SWAP1 SSTORE POP PUSH0 PUSH20 0xFFFFFFFFFFFFFFFFFFFFFFFFFFFFFFFFFFFFFFFF AND DUP2 PUSH20 0xFFFFFFFFFFFFFFFFFFFFFFFFFFFFFFFFFFFFFFFF AND SUB PUSH2 0xB5 JUMPI PUSH0 PUSH1 0x40 MLOAD PUSH32 0x1E4FBDF700000000000000000000000000000000000000000000000000000000 DUP2 MSTORE PUSH1 0x4 ADD PUSH2 0xAC SWAP2 SWAP1 PUSH2 0x69C JUMP JUMPDEST PUSH1 0x40 MLOAD DUP1 SWAP2 SUB SWAP1 REVERT JUMPDEST PUSH2 0xC4 DUP2 PUSH2 0x361 PUSH1 0x20 SHL PUSH1 0x20 SHR JUMP JUMPDEST POP PUSH0 DUP6 SUB PUSH2 0x109 JUMPI DUP5 PUSH1 0x40 MLOAD PUSH32 0xF1FDFD2B00000000000000000000000000000000000000000000000000000000 DUP2 MSTORE PUSH1 0x4 ADD PUSH2 0x100 SWAP2 SWAP1 PUSH2 0x6C4 JUMP JUMPDEST PUSH1 0x40 MLOAD DUP1 SWAP2 SUB SWAP1 REVERT JUMPDEST PUSH0 DUP5 SUB PUSH2 0x14D JUMPI DUP4 PUSH1 0x40 MLOAD PUSH32 0x5052FE8E00000000000000000000000000000000000000000000000000000000 DUP2 MSTORE PUSH1 0x4 ADD PUSH2 0x144 SWAP2 SWAP1 PUSH2 0x6C4 JUMP JUMPDEST PUSH1 0x40 MLOAD DUP1 SWAP2 SUB SWAP1 REVERT JUMPDEST DUP5 DUP5 GT ISZERO PUSH2 0x194 JUMPI DUP5 DUP5 PUSH1 0x40 MLOAD PUSH32 0x3122626300000000000000000000000000000000000000000000000000000000 DUP2 MSTORE PUSH1 0x4 ADD PUSH2 0x18B SWAP3 SWAP2 SWAP1 PUSH2 0x6DD JUMP JUMPDEST PUSH1 0x40 MLOAD DUP1 SWAP2 SUB SWAP1 REVERT JUMPDEST PUSH0 PUSH20 0xFFFFFFFFFFFFFFFFFFFFFFFFFFFFFFFFFFFFFFFF AND DUP3 PUSH20 0xFFFFFFFFFFFFFFFFFFFFFFFFFFFFFFFFFFFFFFFF AND SUB PUSH2 0x1F9 JUMPI PUSH1 0x40 MLOAD PUSH32 0x463858D600000000000000000000000000000000000000000000000000000000 DUP2 MSTORE PUSH1 0x4 ADD PUSH1 0x40 MLOAD DUP1 SWAP2 SUB SWAP1 REVERT JUMPDEST PUSH0 PUSH20 0xFFFFFFFFFFFFFFFFFFFFFFFFFFFFFFFFFFFFFFFF AND DUP2 PUSH20 0xFFFFFFFFFFFFFFFFFFFFFFFFFFFFFFFFFFFFFFFF AND SUB PUSH2 0x25E JUMPI PUSH1 0x40 MLOAD PUSH32 0x463858D600000000000000000000000000000000000000000000000000000000 DUP2 MSTORE PUSH1 0x4 ADD PUSH1 0x40 MLOAD DUP1 SWAP2 SUB SWAP1 REVERT JUMPDEST PUSH2 0x270 PUSH0 PUSH0 SHL DUP5 PUSH2 0x424 PUSH1 0x20 SHL PUSH1 0x20 SHR JUMP JUMPDEST POP PUSH2 0x2A1 PUSH32 0x539440820030C4994DB4E31B6B800DEAFD503688728F932ADDFE7A410515C14C DUP5 PUSH2 0x424 PUSH1 0x20 SHL PUSH1 0x20 SHR JUMP JUMPDEST POP PUSH2 0x2D2 PUSH32 0x9BBB3EE3BDFBE971682B08854A620CA4BF696F8E0C269E5C5B129A18E64D29DF DUP5 PUSH2 0x424 PUSH1 0x20 SHL PUSH1 0x20 SHR JUMP JUMPDEST POP DUP1 PUSH20 0xFFFFFFFFFFFFFFFFFFFFFFFFFFFFFFFFFFFFFFFF AND PUSH1 0x80 DUP2 PUSH20 0xFFFFFFFFFFFFFFFFFFFFFFFFFFFFFFFFFFFFFFFF AND DUP2 MSTORE POP POP DUP2 PUSH1 0x3 PUSH0 PUSH2 0x100 EXP DUP2 SLOAD DUP2 PUSH20 0xFFFFFFFFFFFFFFFFFFFFFFFFFFFFFFFFFFFFFFFF MUL NOT AND SWAP1 DUP4 PUSH20 0xFFFFFFFFFFFFFFFFFFFFFFFFFFFFFFFFFFFFFFFF AND MUL OR SWAP1 SSTORE POP DUP5 PUSH1 0xC0 DUP2 DUP2 MSTORE POP POP DUP4 PUSH1 0xA0 DUP2 DUP2 MSTORE POP POP POP POP POP POP POP PUSH2 0x704 JUMP JUMPDEST PUSH0 PUSH1 0x1 PUSH0 SWAP1 SLOAD SWAP1 PUSH2 0x100 EXP SWAP1 DIV PUSH20 0xFFFFFFFFFFFFFFFFFFFFFFFFFFFFFFFFFFFFFFFF AND SWAP1 POP DUP2 PUSH1 0x1 PUSH0 PUSH2 0x100 EXP DUP2 SLOAD DUP2 PUSH20 0xFFFFFFFFFFFFFFFFFFFFFFFFFFFFFFFFFFFFFFFF MUL NOT AND SWAP1 DUP4 PUSH20 0xFFFFFFFFFFFFFFFFFFFFFFFFFFFFFFFFFFFFFFFF AND MUL OR SWAP1 SSTORE POP DUP2 PUSH20 0xFFFFFFFFFFFFFFFFFFFFFFFFFFFFFFFFFFFFFFFF AND DUP2 PUSH20 0xFFFFFFFFFFFFFFFFFFFFFFFFFFFFFFFFFFFFFFFF AND PUSH32 0x8BE0079C531659141344CD1FD0A4F28419497F9722A3DAAFE3B4186F6B6457E0 PUSH1 0x40 MLOAD PUSH1 0x40 MLOAD DUP1 SWAP2 SUB SWAP1 LOG3 POP POP JUMP JUMPDEST PUSH0 PUSH2 0x435 DUP4 DUP4 PUSH2 0x51A PUSH1 0x20 SHL PUSH1 0x20 SHR JUMP JUMPDEST PUSH2 0x510 JUMPI PUSH1 0x1 PUSH1 0x2 PUSH0 DUP6 DUP2 MSTORE PUSH1 0x20 ADD SWAP1 DUP2 MSTORE PUSH1 0x20 ADD PUSH0 KECCAK256 PUSH0 ADD PUSH0 DUP5 PUSH20 0xFFFFFFFFFFFFFFFFFFFFFFFFFFFFFFFFFFFFFFFF AND PUSH20 0xFFFFFFFFFFFFFFFFFFFFFFFFFFFFFFFFFFFFFFFF AND DUP2 MSTORE PUSH1 0x20 ADD SWAP1 DUP2 MSTORE PUSH1 0x20 ADD PUSH0 KECCAK256 PUSH0 PUSH2 0x100 EXP DUP2 SLOAD DUP2 PUSH1 0xFF MUL NOT AND SWAP1 DUP4 ISZERO ISZERO MUL OR SWAP1 SSTORE POP PUSH2 0x4AD PUSH2 0x57E PUSH1 0x20 SHL PUSH1 0x20 SHR JUMP JUMPDEST PUSH20 0xFFFFFFFFFFFFFFFFFFFFFFFFFFFFFFFFFFFFFFFF AND DUP3 PUSH20 0xFFFFFFFFFFFFFFFFFFFFFFFFFFFFFFFFFFFFFFFF AND DUP5 PUSH32 0x2F8788117E7EFF1D82E926EC794901D17C78024A50270940304540A733656F0D PUSH1 0x40 MLOAD PUSH1 0x40 MLOAD DUP1 SWAP2 SUB SWAP1 LOG4 PUSH1 0x1 SWAP1 POP PUSH2 0x514 JUMP JUMPDEST PUSH0 SWAP1 POP JUMPDEST SWAP3 SWAP2 POP POP JUMP JUMPDEST PUSH0 PUSH1 0x2 PUSH0 DUP5 DUP2 MSTORE PUSH1 0x20 ADD SWAP1 DUP2 MSTORE PUSH1 0x20 ADD PUSH0 KECCAK256 PUSH0 ADD PUSH0 DUP4 PUSH20 0xFFFFFFFFFFFFFFFFFFFFFFFFFFFFFFFFFFFFFFFF AND PUSH20 0xFFFFFFFFFFFFFFFFFFFFFFFFFFFFFFFFFFFFFFFF AND DUP2 MSTORE PUSH1 0x20 ADD SWAP1 DUP2 MSTORE PUSH1 0x20 ADD PUSH0 KECCAK256 PUSH0 SWAP1 SLOAD SWAP1 PUSH2 0x100 EXP SWAP1 DIV PUSH1 0xFF AND SWAP1 POP SWAP3 SWAP2 POP POP JUMP JUMPDEST PUSH0 CALLER SWAP1 POP SWAP1 JUMP JUMPDEST PUSH0 PUSH0 REVERT JUMPDEST PUSH0 DUP2 SWAP1 POP SWAP2 SWAP1 POP JUMP JUMPDEST PUSH2 0x59B DUP2 PUSH2 0x589 JUMP JUMPDEST DUP2 EQ PUSH2 0x5A5 JUMPI PUSH0 PUSH0 REVERT JUMPDEST POP JUMP JUMPDEST PUSH0 DUP2 MLOAD SWAP1 POP PUSH2 0x5B6 DUP2 PUSH2 0x592 JUMP JUMPDEST SWAP3 SWAP2 POP POP JUMP JUMPDEST PUSH0 PUSH20 0xFFFFFFFFFFFFFFFFFFFFFFFFFFFFFFFFFFFFFFFF DUP3 AND SWAP1 POP SWAP2 SWAP1 POP JUMP JUMPDEST PUSH0 PUSH2 0x5E5 DUP3 PUSH2 0x5BC JUMP JUMPDEST SWAP1 POP SWAP2 SWAP1 POP JUMP JUMPDEST PUSH2 0x5F5 DUP2 PUSH2 0x5DB JUMP JUMPDEST DUP2 EQ PUSH2 0x5FF JUMPI PUSH0 PUSH0 REVERT JUMPDEST POP JUMP JUMPDEST PUSH0 DUP2 MLOAD SWAP1 POP PUSH2 0x610 DUP2 PUSH2 0x5EC JUMP JUMPDEST SWAP3 SWAP2 POP POP JUMP JUMPDEST PUSH0 PUSH0 PUSH0 PUSH0 PUSH0 PUSH1 0xA0 DUP7 DUP9 SUB SLT ISZERO PUSH2 0x62F JUMPI PUSH2 0x62E PUSH2 0x585 JUMP JUMPDEST JUMPDEST PUSH0 PUSH2 0x63C DUP9 DUP3 DUP10 ADD PUSH2 0x5A8 JUMP JUMPDEST SWAP6 POP POP PUSH1 0x20 PUSH2 0x64D DUP9 DUP3 DUP10 ADD PUSH2 0x5A8 JUMP JUMPDEST SWAP5 POP POP PUSH1 0x40 PUSH2 0x65E DUP9 DUP3 DUP10 ADD PUSH2 0x602 JUMP JUMPDEST SWAP4 POP POP PUSH1 0x60 PUSH2 0x66F DUP9 DUP3 DUP10 ADD PUSH2 0x602 JUMP JUMPDEST SWAP3 POP POP PUSH1 0x80 PUSH2 0x680 DUP9 DUP3 DUP10 ADD PUSH2 0x602 JUMP JUMPDEST SWAP2 POP POP SWAP3 SWAP6 POP SWAP3 SWAP6 SWAP1 SWAP4 POP JUMP JUMPDEST PUSH2 0x696 DUP2 PUSH2 0x5DB JUMP JUMPDEST DUP3 MSTORE POP POP JUMP JUMPDEST PUSH0 PUSH1 0x20 DUP3 ADD SWAP1 POP PUSH2 0x6AF PUSH0 DUP4 ADD DUP5 PUSH2 0x68D JUMP JUMPDEST SWAP3 SWAP2 POP POP JUMP JUMPDEST PUSH2 0x6BE DUP2 PUSH2 0x589 JUMP JUMPDEST DUP3 MSTORE POP POP JUMP JUMPDEST PUSH0 PUSH1 0x20 DUP3 ADD SWAP1 POP PUSH2 0x6D7 PUSH0 DUP4 ADD DUP5 PUSH2 0x6B5 JUMP JUMPDEST SWAP3 SWAP2 POP POP JUMP JUMPDEST PUSH0 PUSH1 0x40 DUP3 ADD SWAP1 POP PUSH2 0x6F0 PUSH0 DUP4 ADD DUP6 PUSH2 0x6B5 JUMP JUMPDEST PUSH2 0x6FD PUSH1 0x20 DUP4 ADD DUP5 PUSH2 0x6B5 JUMP JUMPDEST SWAP4 SWAP3 POP POP POP JUMP JUMPDEST PUSH1 0x80 MLOAD PUSH1 0xA0 MLOAD PUSH1 0xC0 MLOAD PUSH2 0x323D PUSH2 0x782 PUSH0 CODECOPY PUSH0 DUP2 DUP2 PUSH2 0x7A2 ADD MSTORE DUP2 DUP2 PUSH2 0x868 ADD MSTORE PUSH2 0xE57 ADD MSTORE PUSH0 DUP2 DUP2 PUSH2 0x7C3 ADD MSTORE DUP2 DUP2 PUSH2 0x2055 ADD MSTORE PUSH2 0x2398 ADD MSTORE PUSH0 DUP2 DUP2 PUSH2 0xCEC ADD MSTORE DUP2 DUP2 PUSH2 0xED1 ADD MSTORE DUP2 DUP2 PUSH2 0xF6D ADD MSTORE DUP2 DUP2 PUSH2 0x100C ADD MSTORE DUP2 DUP2 PUSH2 0x1139 ADD MSTORE DUP2 DUP2 PUSH2 0x1769 ADD MSTORE DUP2 DUP2 PUSH2 0x2400 ADD MSTORE DUP2 DUP2 PUSH2 0x24E0 ADD MSTORE PUSH2 0x260C ADD MSTORE PUSH2 0x323D PUSH0 RETURN INVALID PUSH1 0x80 PUSH1 0x40 MSTORE PUSH1 0x4 CALLDATASIZE LT PUSH2 0x1E6 JUMPI PUSH0 CALLDATALOAD PUSH1 0xE0 SHR DUP1 PUSH4 0x8648840A GT PUSH2 0x101 JUMPI DUP1 PUSH4 0xCB398EB3 GT PUSH2 0x94 JUMPI DUP1 PUSH4 0xF0E00DC8 GT PUSH2 0x63 JUMPI DUP1 PUSH4 0xF0E00DC8 EQ PUSH2 0x6C9 JUMPI DUP1 PUSH4 0xF2FDE38B EQ PUSH2 0x6F1 JUMPI DUP1 PUSH4 0xF39B1809 EQ PUSH2 0x719 JUMPI DUP1 PUSH4 0xF7888AEC EQ PUSH2 0x743 JUMPI PUSH2 0x228 JUMP JUMPDEST DUP1 PUSH4 0xCB398EB3 EQ PUSH2 0x625 JUMPI DUP1 PUSH4 0xCCD6B020 EQ PUSH2 0x64F JUMPI DUP1 PUSH4 0xD547741F EQ PUSH2 0x677 JUMPI DUP1 PUSH4 0xD9DC8694 EQ PUSH2 0x69F JUMPI PUSH2 0x228 JUMP JUMPDEST DUP1 PUSH4 0x93295C1C GT PUSH2 0xD0 JUMPI DUP1 PUSH4 0x93295C1C EQ PUSH2 0x57D JUMPI DUP1 PUSH4 0x939495BD EQ PUSH2 0x5A7 JUMPI DUP1 PUSH4 0xA217FDDF EQ PUSH2 0x5D1 JUMPI DUP1 PUSH4 0xC6ACA33C EQ PUSH2 0x5FB JUMPI PUSH2 0x228 JUMP JUMPDEST DUP1 PUSH4 0x8648840A EQ PUSH2 0x4C7 JUMPI DUP1 PUSH4 0x8DA5CB5B EQ PUSH2 0x4EF JUMPI DUP1 PUSH4 0x91D14854 EQ PUSH2 0x519 JUMPI DUP1 PUSH4 0x931FB90E EQ PUSH2 0x555 JUMPI PUSH2 0x228 JUMP JUMPDEST DUP1 PUSH4 0x5C975ABB GT PUSH2 0x179 JUMPI DUP1 PUSH4 0x715018A6 GT PUSH2 0x148 JUMPI DUP1 PUSH4 0x715018A6 EQ PUSH2 0x437 JUMPI DUP1 PUSH4 0x779BB136 EQ PUSH2 0x44D JUMPI DUP1 PUSH4 0x7DC532C5 EQ PUSH2 0x477 JUMPI DUP1 PUSH4 0x82FE54B5 EQ PUSH2 0x49F JUMPI PUSH2 0x228 JUMP JUMPDEST DUP1 PUSH4 0x5C975ABB EQ PUSH2 0x391 JUMPI DUP1 PUSH4 0x6900670C EQ PUSH2 0x3BB JUMPI DUP1 PUSH4 0x698B7241 EQ PUSH2 0x3E5 JUMPI DUP1 PUSH4 0x6F05C64C EQ PUSH2 0x40D JUMPI PUSH2 0x228 JUMP JUMPDEST DUP1 PUSH4 0x248A9CA3 GT PUSH2 0x1B5 JUMPI DUP1 PUSH4 0x248A9CA3 EQ PUSH2 0x2EF JUMPI DUP1 PUSH4 0x2F2FF15D EQ PUSH2 0x32B JUMPI DUP1 PUSH4 0x36568ABE EQ PUSH2 0x353 JUMPI DUP1 PUSH4 0x38D5C916 EQ PUSH2 0x37B JUMPI PUSH2 0x228 JUMP JUMPDEST DUP1 PUSH4 0x1FFC9A7 EQ PUSH2 0x265 JUMPI DUP1 PUSH4 0x594CC69 EQ PUSH2 0x2A1 JUMPI DUP1 PUSH4 0x16A1930F EQ PUSH2 0x2CF JUMPI DUP1 PUSH4 0x1A003ECB EQ PUSH2 0x2D9 JUMPI PUSH2 0x228 JUMP JUMPDEST CALLDATASIZE PUSH2 0x228 JUMPI CALLER PUSH1 0x40 MLOAD PUSH32 0xE1D158FF00000000000000000000000000000000000000000000000000000000 DUP2 MSTORE PUSH1 0x4 ADD PUSH2 0x21F SWAP2 SWAP1 PUSH2 0x29FF JUMP JUMPDEST PUSH1 0x40 MLOAD DUP1 SWAP2 SUB SWAP1 REVERT JUMPDEST CALLER PUSH1 0x40 MLOAD PUSH32 0xE1D158FF00000000000000000000000000000000000000000000000000000000 DUP2 MSTORE PUSH1 0x4 ADD PUSH2 0x25C SWAP2 SWAP1 PUSH2 0x29FF JUMP JUMPDEST PUSH1 0x40 MLOAD DUP1 SWAP2 SUB SWAP1 REVERT JUMPDEST CALLVALUE DUP1 ISZERO PUSH2 0x270 JUMPI PUSH0 PUSH0 REVERT JUMPDEST POP PUSH2 0x28B PUSH1 0x4 DUP1 CALLDATASIZE SUB DUP2 ADD SWAP1 PUSH2 0x286 SWAP2 SWAP1 PUSH2 0x2A71 JUMP JUMPDEST PUSH2 0x77F JUMP JUMPDEST PUSH1 0x40 MLOAD PUSH2 0x298 SWAP2 SWAP1 PUSH2 0x2AB6 JUMP JUMPDEST PUSH1 0x40 MLOAD DUP1 SWAP2 SUB SWAP1 RETURN JUMPDEST CALLVALUE DUP1 ISZERO PUSH2 0x2AC JUMPI PUSH0 PUSH0 REVERT JUMPDEST POP PUSH2 0x2B5 PUSH2 0x790 JUMP JUMPDEST PUSH1 0x40 MLOAD PUSH2 0x2C6 SWAP6 SWAP5 SWAP4 SWAP3 SWAP2 SWAP1 PUSH2 0x2AE7 JUMP JUMPDEST PUSH1 0x40 MLOAD DUP1 SWAP2 SUB SWAP1 RETURN JUMPDEST PUSH2 0x2D7 PUSH2 0x815 JUMP JUMPDEST STOP JUMPDEST CALLVALUE DUP1 ISZERO PUSH2 0x2E4 JUMPI PUSH0 PUSH0 REVERT JUMPDEST POP PUSH2 0x2ED PUSH2 0x9FC JUMP JUMPDEST STOP JUMPDEST CALLVALUE DUP1 ISZERO PUSH2 0x2FA JUMPI PUSH0 PUSH0 REVERT JUMPDEST POP PUSH2 0x315 PUSH1 0x4 DUP1 CALLDATASIZE SUB DUP2 ADD SWAP1 PUSH2 0x310 SWAP2 SWAP1 PUSH2 0x2B6B JUMP JUMPDEST PUSH2 0xB09 JUMP JUMPDEST PUSH1 0x40 MLOAD PUSH2 0x322 SWAP2 SWAP1 PUSH2 0x2BA5 JUMP JUMPDEST PUSH1 0x40 MLOAD DUP1 SWAP2 SUB SWAP1 RETURN JUMPDEST CALLVALUE DUP1 ISZERO PUSH2 0x336 JUMPI PUSH0 PUSH0 REVERT JUMPDEST POP PUSH2 0x351 PUSH1 0x4 DUP1 CALLDATASIZE SUB DUP2 ADD SWAP1 PUSH2 0x34C SWAP2 SWAP1 PUSH2 0x2BE8 JUMP JUMPDEST PUSH2 0xB26 JUMP JUMPDEST STOP JUMPDEST CALLVALUE DUP1 ISZERO PUSH2 0x35E JUMPI PUSH0 PUSH0 REVERT JUMPDEST POP PUSH2 0x379 PUSH1 0x4 DUP1 CALLDATASIZE SUB DUP2 ADD SWAP1 PUSH2 0x374 SWAP2 SWAP1 PUSH2 0x2BE8 JUMP JUMPDEST PUSH2 0xB48 JUMP JUMPDEST STOP JUMPDEST CALLVALUE DUP1 ISZERO PUSH2 0x386 JUMPI PUSH0 PUSH0 REVERT JUMPDEST POP PUSH2 0x38F PUSH2 0xBC3 JUMP JUMPDEST STOP JUMPDEST CALLVALUE DUP1 ISZERO PUSH2 0x39C JUMPI PUSH0 PUSH0 REVERT JUMPDEST POP PUSH2 0x3A5 PUSH2 0xCD0 JUMP JUMPDEST PUSH1 0x40 MLOAD PUSH2 0x3B2 SWAP2 SWAP1 PUSH2 0x2AB6 JUMP JUMPDEST PUSH1 0x40 MLOAD DUP1 SWAP2 SUB SWAP1 RETURN JUMPDEST CALLVALUE DUP1 ISZERO PUSH2 0x3C6 JUMPI PUSH0 PUSH0 REVERT JUMPDEST POP PUSH2 0x3CF PUSH2 0xCE6 JUMP JUMPDEST PUSH1 0x40 MLOAD PUSH2 0x3DC SWAP2 SWAP1 PUSH2 0x2C26 JUMP JUMPDEST PUSH1 0x40 MLOAD DUP1 SWAP2 SUB SWAP1 RETURN JUMPDEST CALLVALUE DUP1 ISZERO PUSH2 0x3F0 JUMPI PUSH0 PUSH0 REVERT JUMPDEST POP PUSH2 0x40B PUSH1 0x4 DUP1 CALLDATASIZE SUB DUP2 ADD SWAP1 PUSH2 0x406 SWAP2 SWAP1 PUSH2 0x2C69 JUMP JUMPDEST PUSH2 0xE10 JUMP JUMPDEST STOP JUMPDEST CALLVALUE DUP1 ISZERO PUSH2 0x418 JUMPI PUSH0 PUSH0 REVERT JUMPDEST POP PUSH2 0x421 PUSH2 0x1182 JUMP JUMPDEST PUSH1 0x40 MLOAD PUSH2 0x42E SWAP2 SWAP1 PUSH2 0x2CEF JUMP JUMPDEST PUSH1 0x40 MLOAD DUP1 SWAP2 SUB SWAP1 RETURN JUMPDEST CALLVALUE DUP1 ISZERO PUSH2 0x442 JUMPI PUSH0 PUSH0 REVERT JUMPDEST POP PUSH2 0x44B PUSH2 0x11A7 JUMP JUMPDEST STOP JUMPDEST CALLVALUE DUP1 ISZERO PUSH2 0x458 JUMPI PUSH0 PUSH0 REVERT JUMPDEST POP PUSH2 0x461 PUSH2 0x11BA JUMP JUMPDEST PUSH1 0x40 MLOAD PUSH2 0x46E SWAP2 SWAP1 PUSH2 0x2C26 JUMP JUMPDEST PUSH1 0x40 MLOAD DUP1 SWAP2 SUB SWAP1 RETURN JUMPDEST CALLVALUE DUP1 ISZERO PUSH2 0x482 JUMPI PUSH0 PUSH0 REVERT JUMPDEST POP PUSH2 0x49D PUSH1 0x4 DUP1 CALLDATASIZE SUB DUP2 ADD SWAP1 PUSH2 0x498 SWAP2 SWAP1 PUSH2 0x2D08 JUMP JUMPDEST PUSH2 0x1239 JUMP JUMPDEST STOP JUMPDEST CALLVALUE DUP1 ISZERO PUSH2 0x4AA JUMPI PUSH0 PUSH0 REVERT JUMPDEST POP PUSH2 0x4C5 PUSH1 0x4 DUP1 CALLDATASIZE SUB DUP2 ADD SWAP1 PUSH2 0x4C0 SWAP2 SWAP1 PUSH2 0x2C69 JUMP JUMPDEST PUSH2 0x155E JUMP JUMPDEST STOP JUMPDEST CALLVALUE DUP1 ISZERO PUSH2 0x4D2 JUMPI PUSH0 PUSH0 REVERT JUMPDEST POP PUSH2 0x4ED PUSH1 0x4 DUP1 CALLDATASIZE SUB DUP2 ADD SWAP1 PUSH2 0x4E8 SWAP2 SWAP1 PUSH2 0x2D08 JUMP JUMPDEST PUSH2 0x1572 JUMP JUMPDEST STOP JUMPDEST CALLVALUE DUP1 ISZERO PUSH2 0x4FA JUMPI PUSH0 PUSH0 REVERT JUMPDEST POP PUSH2 0x503 PUSH2 0x16BA JUMP JUMPDEST PUSH1 0x40 MLOAD PUSH2 0x510 SWAP2 SWAP1 PUSH2 0x29FF JUMP JUMPDEST PUSH1 0x40 MLOAD DUP1 SWAP2 SUB SWAP1 RETURN JUMPDEST CALLVALUE DUP1 ISZERO PUSH2 0x524 JUMPI PUSH0 PUSH0 REVERT JUMPDEST POP PUSH2 0x53F PUSH1 0x4 DUP1 CALLDATASIZE SUB DUP2 ADD SWAP1 PUSH2 0x53A SWAP2 SWAP1 PUSH2 0x2BE8 JUMP JUMPDEST PUSH2 0x16E2 JUMP JUMPDEST PUSH1 0x40 MLOAD PUSH2 0x54C SWAP2 SWAP1 PUSH2 0x2AB6 JUMP JUMPDEST PUSH1 0x40 MLOAD DUP1 SWAP2 SUB SWAP1 RETURN JUMPDEST CALLVALUE DUP1 ISZERO PUSH2 0x560 JUMPI PUSH0 PUSH0 REVERT JUMPDEST POP PUSH2 0x57B PUSH1 0x4 DUP1 CALLDATASIZE SUB DUP2 ADD SWAP1 PUSH2 0x576 SWAP2 SWAP1 PUSH2 0x2C69 JUMP JUMPDEST PUSH2 0x1746 JUMP JUMPDEST STOP JUMPDEST CALLVALUE DUP1 ISZERO PUSH2 0x588 JUMPI PUSH0 PUSH0 REVERT JUMPDEST POP PUSH2 0x591 PUSH2 0x175A JUMP JUMPDEST PUSH1 0x40 MLOAD PUSH2 0x59E SWAP2 SWAP1 PUSH2 0x2C26 JUMP JUMPDEST PUSH1 0x40 MLOAD DUP1 SWAP2 SUB SWAP1 RETURN JUMPDEST CALLVALUE DUP1 ISZERO PUSH2 0x5B2 JUMPI PUSH0 PUSH0 REVERT JUMPDEST POP PUSH2 0x5BB PUSH2 0x1763 JUMP JUMPDEST PUSH1 0x40 MLOAD PUSH2 0x5C8 SWAP2 SWAP1 PUSH2 0x2C26 JUMP JUMPDEST PUSH1 0x40 MLOAD DUP1 SWAP2 SUB SWAP1 RETURN JUMPDEST CALLVALUE DUP1 ISZERO PUSH2 0x5DC JUMPI PUSH0 PUSH0 REVERT JUMPDEST POP PUSH2 0x5E5 PUSH2 0x1802 JUMP JUMPDEST PUSH1 0x40 MLOAD PUSH2 0x5F2 SWAP2 SWAP1 PUSH2 0x2BA5 JUMP JUMPDEST PUSH1 0x40 MLOAD DUP1 SWAP2 SUB SWAP1 RETURN JUMPDEST CALLVALUE DUP1 ISZERO PUSH2 0x606 JUMPI PUSH0 PUSH0 REVERT JUMPDEST POP PUSH2 0x60F PUSH2 0x1808 JUMP JUMPDEST PUSH1 0x40 MLOAD PUSH2 0x61C SWAP2 SWAP1 PUSH2 0x2C26 JUMP JUMPDEST PUSH1 0x40 MLOAD DUP1 SWAP2 SUB SWAP1 RETURN JUMPDEST CALLVALUE DUP1 ISZERO PUSH2 0x630 JUMPI PUSH0 PUSH0 REVERT JUMPDEST POP PUSH2 0x639 PUSH2 0x1811 JUMP JUMPDEST PUSH1 0x40 MLOAD PUSH2 0x646 SWAP2 SWAP1 PUSH2 0x2BA5 JUMP JUMPDEST PUSH1 0x40 MLOAD DUP1 SWAP2 SUB SWAP1 RETURN JUMPDEST CALLVALUE DUP1 ISZERO PUSH2 0x65A JUMPI PUSH0 PUSH0 REVERT JUMPDEST POP PUSH2 0x675 PUSH1 0x4 DUP1 CALLDATASIZE SUB DUP2 ADD SWAP1 PUSH2 0x670 SWAP2 SWAP1 PUSH2 0x2D33 JUMP JUMPDEST PUSH2 0x1835 JUMP JUMPDEST STOP JUMPDEST CALLVALUE DUP1 ISZERO PUSH2 0x682 JUMPI PUSH0 PUSH0 REVERT JUMPDEST POP PUSH2 0x69D PUSH1 0x4 DUP1 CALLDATASIZE SUB DUP2 ADD SWAP1 PUSH2 0x698 SWAP2 SWAP1 PUSH2 0x2BE8 JUMP JUMPDEST PUSH2 0x1899 JUMP JUMPDEST STOP JUMPDEST CALLVALUE DUP1 ISZERO PUSH2 0x6AA JUMPI PUSH0 PUSH0 REVERT JUMPDEST POP PUSH2 0x6B3 PUSH2 0x18BB JUMP JUMPDEST PUSH1 0x40 MLOAD PUSH2 0x6C0 SWAP2 SWAP1 PUSH2 0x2BA5 JUMP JUMPDEST PUSH1 0x40 MLOAD DUP1 SWAP2 SUB SWAP1 RETURN JUMPDEST CALLVALUE DUP1 ISZERO PUSH2 0x6D4 JUMPI PUSH0 PUSH0 REVERT JUMPDEST POP PUSH2 0x6EF PUSH1 0x4 DUP1 CALLDATASIZE SUB DUP2 ADD SWAP1 PUSH2 0x6EA SWAP2 SWAP1 PUSH2 0x2D33 JUMP JUMPDEST PUSH2 0x18DF JUMP JUMPDEST STOP JUMPDEST CALLVALUE DUP1 ISZERO PUSH2 0x6FC JUMPI PUSH0 PUSH0 REVERT JUMPDEST POP PUSH2 0x717 PUSH1 0x4 DUP1 CALLDATASIZE SUB DUP2 ADD SWAP1 PUSH2 0x712 SWAP2 SWAP1 PUSH2 0x2D08 JUMP JUMPDEST PUSH2 0x1943 JUMP JUMPDEST STOP JUMPDEST CALLVALUE DUP1 ISZERO PUSH2 0x724 JUMPI PUSH0 PUSH0 REVERT JUMPDEST POP PUSH2 0x72D PUSH2 0x19C7 JUMP JUMPDEST PUSH1 0x40 MLOAD PUSH2 0x73A SWAP2 SWAP1 PUSH2 0x2C26 JUMP JUMPDEST PUSH1 0x40 MLOAD DUP1 SWAP2 SUB SWAP1 RETURN JUMPDEST CALLVALUE DUP1 ISZERO PUSH2 0x74E JUMPI PUSH0 PUSH0 REVERT JUMPDEST POP PUSH2 0x769 PUSH1 0x4 DUP1 CALLDATASIZE SUB DUP2 ADD SWAP1 PUSH2 0x764 SWAP2 SWAP1 PUSH2 0x2D71 JUMP JUMPDEST PUSH2 0x19D0 JUMP JUMPDEST PUSH1 0x40 MLOAD PUSH2 0x776 SWAP2 SWAP1 PUSH2 0x2C26 JUMP JUMPDEST PUSH1 0x40 MLOAD DUP1 SWAP2 SUB SWAP1 RETURN JUMPDEST PUSH0 PUSH2 0x789 DUP3 PUSH2 0x1A52 JUMP JUMPDEST SWAP1 POP SWAP2 SWAP1 POP JUMP JUMPDEST PUSH0 PUSH0 PUSH0 PUSH0 PUSH0 PUSH2 0x79D PUSH2 0xCD0 JUMP JUMPDEST PUSH1 0x6 SLOAD PUSH32 0x0 PUSH32 0x0 PUSH1 0x3 PUSH0 SWAP1 SLOAD SWAP1 PUSH2 0x100 EXP SWAP1 DIV PUSH20 0xFFFFFFFFFFFFFFFFFFFFFFFFFFFFFFFFFFFFFFFF AND SWAP5 POP SWAP5 POP SWAP5 POP SWAP5 POP SWAP5 POP SWAP1 SWAP2 SWAP3 SWAP4 SWAP5 JUMP JUMPDEST CALLVALUE PUSH0 PUSH2 0x820 DUP3 PUSH2 0x1ACB JUMP JUMPDEST SWAP1 POP PUSH0 DUP2 SUB PUSH2 0x866 JUMPI CALLER PUSH1 0x40 MLOAD PUSH32 0xB2F0923100000000000000000000000000000000000000000000000000000000 DUP2 MSTORE PUSH1 0x4 ADD PUSH2 0x85D SWAP2 SWAP1 PUSH2 0x29FF JUMP JUMPDEST PUSH1 0x40 MLOAD DUP1 SWAP2 SUB SWAP1 REVERT JUMPDEST PUSH32 0x0 PUSH1 0x6 SLOAD DUP3 PUSH2 0x895 SWAP2 SWAP1 PUSH2 0x2DDC JUMP JUMPDEST GT ISZERO PUSH2 0x8D8 JUMPI DUP1 PUSH1 0x40 MLOAD PUSH32 0x2900B02C00000000000000000000000000000000000000000000000000000000 DUP2 MSTORE PUSH1 0x4 ADD PUSH2 0x8CF SWAP2 SWAP1 PUSH2 0x2C26 JUMP JUMPDEST PUSH1 0x40 MLOAD DUP1 SWAP2 SUB SWAP1 REVERT JUMPDEST PUSH2 0x8E0 PUSH2 0x1AFA JUMP JUMPDEST PUSH0 PUSH2 0x8EA CALLVALUE PUSH2 0x1ACB JUMP JUMPDEST SWAP1 POP CALLVALUE PUSH1 0x7 PUSH0 PUSH0 PUSH20 0xFFFFFFFFFFFFFFFFFFFFFFFFFFFFFFFFFFFFFFFF AND PUSH20 0xFFFFFFFFFFFFFFFFFFFFFFFFFFFFFFFFFFFFFFFF AND DUP2 MSTORE PUSH1 0x20 ADD SWAP1 DUP2 MSTORE PUSH1 0x20 ADD PUSH0 KECCAK256 PUSH0 CALLER PUSH20 0xFFFFFFFFFFFFFFFFFFFFFFFFFFFFFFFFFFFFFFFF AND PUSH20 0xFFFFFFFFFFFFFFFFFFFFFFFFFFFFFFFFFFFFFFFF AND DUP2 MSTORE PUSH1 0x20 ADD SWAP1 DUP2 MSTORE PUSH1 0x20 ADD PUSH0 KECCAK256 PUSH0 DUP3 DUP3 SLOAD PUSH2 0x973 SWAP2 SWAP1 PUSH2 0x2DDC JUMP JUMPDEST SWAP3 POP POP DUP2 SWAP1 SSTORE POP PUSH1 0x4 PUSH0 DUP2 SLOAD DUP1 SWAP3 SWAP2 SWAP1 PUSH2 0x98C SWAP1 PUSH2 0x2E0F JUMP JUMPDEST SWAP2 SWAP1 POP SSTORE POP DUP1 PUSH1 0x6 PUSH0 DUP3 DUP3 SLOAD PUSH2 0x9A2 SWAP2 SWAP1 PUSH2 0x2DDC JUMP JUMPDEST SWAP3 POP POP DUP2 SWAP1 SSTORE POP CALLER PUSH20 0xFFFFFFFFFFFFFFFFFFFFFFFFFFFFFFFFFFFFFFFF AND PUSH32 0x9D15693852BF60DC27BD5AA831D0351359B7D01D428AE1BAAE11F15CBCFEBAFD DUP3 PUSH1 0x40 MLOAD PUSH2 0x9EF SWAP2 SWAP1 PUSH2 0x2C26 JUMP JUMPDEST PUSH1 0x40 MLOAD DUP1 SWAP2 SUB SWAP1 LOG2 POP POP POP JUMP JUMPDEST PUSH32 0x539440820030C4994DB4E31B6B800DEAFD503688728F932ADDFE7A410515C14C CALLER PUSH20 0xFFFFFFFFFFFFFFFFFFFFFFFFFFFFFFFFFFFFFFFF AND PUSH2 0xA3C PUSH2 0x16BA JUMP JUMPDEST PUSH20 0xFFFFFFFFFFFFFFFFFFFFFFFFFFFFFFFFFFFFFFFF AND EQ ISZERO DUP1 PUSH2 0xA66 JUMPI POP PUSH2 0xA64 DUP2 CALLER PUSH2 0x16E2 JUMP JUMPDEST ISZERO JUMPDEST ISZERO PUSH2 0xAA8 JUMPI CALLER PUSH1 0x40 MLOAD PUSH32 0x6286EAA00000000000000000000000000000000000000000000000000000000 DUP2 MSTORE PUSH1 0x4 ADD PUSH2 0xA9F SWAP2 SWAP1 PUSH2 0x29FF JUMP JUMPDEST PUSH1 0x40 MLOAD DUP1 SWAP2 SUB SWAP1 REVERT JUMPDEST PUSH2 0xAB0 PUSH2 0x1AFA JUMP JUMPDEST PUSH2 0xAB8 PUSH2 0x1B3B JUMP JUMPDEST CALLER PUSH20 0xFFFFFFFFFFFFFFFFFFFFFFFFFFFFFFFFFFFFFFFF AND PUSH32 0x65AB6ADC87722A7ACD973FFED16CBA7CFDF07B5329157A7192434753BA9DAC13 TIMESTAMP PUSH1 0x40 MLOAD PUSH2 0xAFE SWAP2 SWAP1 PUSH2 0x2C26 JUMP JUMPDEST PUSH1 0x40 MLOAD DUP1 SWAP2 SUB SWAP1 LOG2 POP JUMP JUMPDEST PUSH0 PUSH1 0x2 PUSH0 DUP4 DUP2 MSTORE PUSH1 0x20 ADD SWAP1 DUP2 MSTORE PUSH1 0x20 ADD PUSH0 KECCAK256 PUSH1 0x1 ADD SLOAD SWAP1 POP SWAP2 SWAP1 POP JUMP JUMPDEST PUSH2 0xB2F DUP3 PUSH2 0xB09 JUMP JUMPDEST PUSH2 0xB38 DUP2 PUSH2 0x1B9D JUMP JUMPDEST PUSH2 0xB42 DUP4 DUP4 PUSH2 0x1BB1 JUMP JUMPDEST POP POP POP POP JUMP JUMPDEST PUSH2 0xB50 PUSH2 0x1C9B JUMP JUMPDEST PUSH20 0xFFFFFFFFFFFFFFFFFFFFFFFFFFFFFFFFFFFFFFFF AND DUP2 PUSH20 0xFFFFFFFFFFFFFFFFFFFFFFFFFFFFFFFFFFFFFFFF AND EQ PUSH2 0xBB4 JUMPI PUSH1 0x40 MLOAD PUSH32 0x6697B23200000000000000000000000000000000000000000000000000000000 DUP2 MSTORE PUSH1 0x4 ADD PUSH1 0x40 MLOAD DUP1 SWAP2 SUB SWAP1 REVERT JUMPDEST PUSH2 0xBBE DUP3 DUP3 PUSH2 0x1CA2 JUMP JUMPDEST POP POP POP JUMP JUMPDEST PUSH32 0x539440820030C4994DB4E31B6B800DEAFD503688728F932ADDFE7A410515C14C CALLER PUSH20 0xFFFFFFFFFFFFFFFFFFFFFFFFFFFFFFFFFFFFFFFF AND PUSH2 0xC03 PUSH2 0x16BA JUMP JUMPDEST PUSH20 0xFFFFFFFFFFFFFFFFFFFFFFFFFFFFFFFFFFFFFFFF AND EQ ISZERO DUP1 PUSH2 0xC2D JUMPI POP PUSH2 0xC2B DUP2 CALLER PUSH2 0x16E2 JUMP JUMPDEST ISZERO JUMPDEST ISZERO PUSH2 0xC6F JUMPI CALLER PUSH1 0x40 MLOAD PUSH32 0x6286EAA00000000000000000000000000000000000000000000000000000000 DUP2 MSTORE PUSH1 0x4 ADD PUSH2 0xC66 SWAP2 SWAP1 PUSH2 0x29FF JUMP JUMPDEST PUSH1 0x40 MLOAD DUP1 SWAP2 SUB SWAP1 REVERT JUMPDEST PUSH2 0xC77 PUSH2 0x1D8C JUMP JUMPDEST PUSH2 0xC7F PUSH2 0x1DCC JUMP JUMPDEST CALLER PUSH20 0xFFFFFFFFFFFFFFFFFFFFFFFFFFFFFFFFFFFFFFFF AND PUSH32 0x8AF9CF236F4B3AFB8D03262D5BEF5D95DB4DA02AA57892CD6474E8097F4F2B7 TIMESTAMP PUSH1 0x40 MLOAD PUSH2 0xCC5 SWAP2 SWAP1 PUSH2 0x2C26 JUMP JUMPDEST PUSH1 0x40 MLOAD DUP1 SWAP2 SUB SWAP1 LOG2 POP JUMP JUMPDEST PUSH0 PUSH1 0x1 PUSH1 0x14 SWAP1 SLOAD SWAP1 PUSH2 0x100 EXP SWAP1 DIV PUSH1 0xFF AND SWAP1 POP SWAP1 JUMP JUMPDEST PUSH0 PUSH1 0x7 PUSH0 PUSH32 0x0 PUSH20 0xFFFFFFFFFFFFFFFFFFFFFFFFFFFFFFFFFFFFFFFF AND PUSH20 0xFFFFFFFFFFFFFFFFFFFFFFFFFFFFFFFFFFFFFFFF AND DUP2 MSTORE PUSH1 0x20 ADD SWAP1 DUP2 MSTORE PUSH1 0x20 ADD PUSH0 KECCAK256 PUSH0 CALLER PUSH20 0xFFFFFFFFFFFFFFFFFFFFFFFFFFFFFFFFFFFFFFFF AND PUSH20 0xFFFFFFFFFFFFFFFFFFFFFFFFFFFFFFFFFFFFFFFF AND DUP2 MSTORE PUSH1 0x20 ADD SWAP1 DUP2 MSTORE PUSH1 0x20 ADD PUSH0 KECCAK256 SLOAD PUSH2 0xE01 PUSH1 0x7 PUSH0 PUSH0 PUSH20 0xFFFFFFFFFFFFFFFFFFFFFFFFFFFFFFFFFFFFFFFF AND PUSH20 0xFFFFFFFFFFFFFFFFFFFFFFFFFFFFFFFFFFFFFFFF AND DUP2 MSTORE PUSH1 0x20 ADD SWAP1 DUP2 MSTORE PUSH1 0x20 ADD PUSH0 KECCAK256 PUSH0 CALLER PUSH20 0xFFFFFFFFFFFFFFFFFFFFFFFFFFFFFFFFFFFFFFFF AND PUSH20 0xFFFFFFFFFFFFFFFFFFFFFFFFFFFFFFFFFFFFFFFF AND DUP2 MSTORE PUSH1 0x20 ADD SWAP1 DUP2 MSTORE PUSH1 0x20 ADD PUSH0 KECCAK256 SLOAD PUSH2 0x1ACB JUMP JUMPDEST PUSH2 0xE0B SWAP2 SWAP1 PUSH2 0x2DDC JUMP JUMPDEST SWAP1 POP SWAP1 JUMP JUMPDEST DUP1 PUSH0 DUP2 SUB PUSH2 0xE55 JUMPI CALLER PUSH1 0x40 MLOAD PUSH32 0xB2F0923100000000000000000000000000000000000000000000000000000000 DUP2 MSTORE PUSH1 0x4 ADD PUSH2 0xE4C SWAP2 SWAP1 PUSH2 0x29FF JUMP JUMPDEST PUSH1 0x40 MLOAD DUP1 SWAP2 SUB SWAP1 REVERT JUMPDEST PUSH32 0x0 PUSH1 0x6 SLOAD DUP3 PUSH2 0xE84 SWAP2 SWAP1 PUSH2 0x2DDC JUMP JUMPDEST GT ISZERO PUSH2 0xEC7 JUMPI DUP1 PUSH1 0x40 MLOAD PUSH32 0x2900B02C00000000000000000000000000000000000000000000000000000000 DUP2 MSTORE PUSH1 0x4 ADD PUSH2 0xEBE SWAP2 SWAP1 PUSH2 0x2C26 JUMP JUMPDEST PUSH1 0x40 MLOAD DUP1 SWAP2 SUB SWAP1 REVERT JUMPDEST PUSH2 0xECF PUSH2 0x1AFA JUMP JUMPDEST PUSH32 0x0 PUSH20 0xFFFFFFFFFFFFFFFFFFFFFFFFFFFFFFFFFFFFFFFF AND PUSH4 0x95EA7B3 ADDRESS DUP5 PUSH1 0x40 MLOAD DUP4 PUSH4 0xFFFFFFFF AND PUSH1 0xE0 SHL DUP2 MSTORE PUSH1 0x4 ADD PUSH2 0xF2A SWAP3 SWAP2 SWAP1 PUSH2 0x2E56 JUMP JUMPDEST PUSH1 0x20 PUSH1 0x40 MLOAD DUP1 DUP4 SUB DUP2 PUSH0 DUP8 GAS CALL ISZERO DUP1 ISZERO PUSH2 0xF46 JUMPI RETURNDATASIZE PUSH0 PUSH0 RETURNDATACOPY RETURNDATASIZE PUSH0 REVERT JUMPDEST POP POP POP POP PUSH1 0x40 MLOAD RETURNDATASIZE PUSH1 0x1F NOT PUSH1 0x1F DUP3 ADD AND DUP3 ADD DUP1 PUSH1 0x40 MSTORE POP DUP2 ADD SWAP1 PUSH2 0xF6A SWAP2 SWAP1 PUSH2 0x2EA7 JUMP JUMPDEST POP PUSH32 0x0 PUSH20 0xFFFFFFFFFFFFFFFFFFFFFFFFFFFFFFFFFFFFFFFF AND PUSH4 0xDD62ED3E CALLER ADDRESS PUSH1 0x40 MLOAD DUP4 PUSH4 0xFFFFFFFF AND PUSH1 0xE0 SHL DUP2 MSTORE PUSH1 0x4 ADD PUSH2 0xFC6 SWAP3 SWAP2 SWAP1 PUSH2 0x2ED2 JUMP JUMPDEST PUSH1 0x20 PUSH1 0x40 MLOAD DUP1 DUP4 SUB DUP2 DUP7 GAS STATICCALL ISZERO DUP1 ISZERO PUSH2 0xFE1 JUMPI RETURNDATASIZE PUSH0 PUSH0 RETURNDATACOPY RETURNDATASIZE PUSH0 REVERT JUMPDEST POP POP POP POP PUSH1 0x40 MLOAD RETURNDATASIZE PUSH1 0x1F NOT PUSH1 0x1F DUP3 ADD AND DUP3 ADD DUP1 PUSH1 0x40 MSTORE POP DUP2 ADD SWAP1 PUSH2 0x1005 SWAP2 SWAP1 PUSH2 0x2F0D JUMP JUMPDEST POP DUP2 PUSH1 0x7 PUSH0 PUSH32 0x0 PUSH20 0xFFFFFFFFFFFFFFFFFFFFFFFFFFFFFFFFFFFFFFFF AND PUSH20 0xFFFFFFFFFFFFFFFFFFFFFFFFFFFFFFFFFFFFFFFF AND DUP2 MSTORE PUSH1 0x20 ADD SWAP1 DUP2 MSTORE PUSH1 0x20 ADD PUSH0 KECCAK256 PUSH0 CALLER PUSH20 0xFFFFFFFFFFFFFFFFFFFFFFFFFFFFFFFFFFFFFFFF AND PUSH20 0xFFFFFFFFFFFFFFFFFFFFFFFFFFFFFFFFFFFFFFFF AND DUP2 MSTORE PUSH1 0x20 ADD SWAP1 DUP2 MSTORE PUSH1 0x20 ADD PUSH0 KECCAK256 PUSH0 DUP3 DUP3 SLOAD PUSH2 0x10AD SWAP2 SWAP1 PUSH2 0x2DDC JUMP JUMPDEST SWAP3 POP POP DUP2 SWAP1 SSTORE POP PUSH1 0x4 PUSH0 DUP2 SLOAD DUP1 SWAP3 SWAP2 SWAP1 PUSH2 0x10C6 SWAP1 PUSH2 0x2E0F JUMP JUMPDEST SWAP2 SWAP1 POP SSTORE POP DUP2 PUSH1 0x6 PUSH0 DUP3 DUP3 SLOAD PUSH2 0x10DC SWAP2 SWAP1 PUSH2 0x2DDC JUMP JUMPDEST SWAP3 POP POP DUP2 SWAP1 SSTORE POP CALLER PUSH20 0xFFFFFFFFFFFFFFFFFFFFFFFFFFFFFFFFFFFFFFFF AND PUSH32 0x9D15693852BF60DC27BD5AA831D0351359B7D01D428AE1BAAE11F15CBCFEBAFD DUP4 PUSH1 0x40 MLOAD PUSH2 0x1129 SWAP2 SWAP1 PUSH2 0x2C26 JUMP JUMPDEST PUSH1 0x40 MLOAD DUP1 SWAP2 SUB SWAP1 LOG2 PUSH2 0x117E CALLER ADDRESS DUP5 PUSH32 0x0 PUSH20 0xFFFFFFFFFFFFFFFFFFFFFFFFFFFFFFFFFFFFFFFF AND PUSH2 0x1E2E SWAP1 SWAP4 SWAP3 SWAP2 SWAP1 PUSH4 0xFFFFFFFF AND JUMP JUMPDEST POP POP JUMP JUMPDEST PUSH1 0x3 PUSH0 SWAP1 SLOAD SWAP1 PUSH2 0x100 EXP SWAP1 DIV PUSH20 0xFFFFFFFFFFFFFFFFFFFFFFFFFFFFFFFFFFFFFFFF AND DUP2 JUMP JUMPDEST PUSH2 0x11AF PUSH2 0x1EB0 JUMP JUMPDEST PUSH2 0x11B8 PUSH0 PUSH2 0x1F37 JUMP JUMPDEST JUMP JUMPDEST PUSH0 PUSH1 0x7 PUSH0 PUSH0 PUSH20 0xFFFFFFFFFFFFFFFFFFFFFFFFFFFFFFFFFFFFFFFF AND PUSH20 0xFFFFFFFFFFFFFFFFFFFFFFFFFFFFFFFFFFFFFFFF AND DUP2 MSTORE PUSH1 0x20 ADD SWAP1 DUP2 MSTORE PUSH1 0x20 ADD PUSH0 KECCAK256 PUSH0 CALLER PUSH20 0xFFFFFFFFFFFFFFFFFFFFFFFFFFFFFFFFFFFFFFFF AND PUSH20 0xFFFFFFFFFFFFFFFFFFFFFFFFFFFFFFFFFFFFFFFF AND DUP2 MSTORE PUSH1 0x20 ADD SWAP1 DUP2 MSTORE PUSH1 0x20 ADD PUSH0 KECCAK256 SLOAD SWAP1 POP SWAP1 JUMP JUMPDEST PUSH32 0x9BBB3EE3BDFBE971682B08854A620CA4BF696F8E0C269E5C5B129A18E64D29DF CALLER PUSH20 0xFFFFFFFFFFFFFFFFFFFFFFFFFFFFFFFFFFFFFFFF AND PUSH2 0x1279 PUSH2 0x16BA JUMP JUMPDEST PUSH20 0xFFFFFFFFFFFFFFFFFFFFFFFFFFFFFFFFFFFFFFFF AND EQ ISZERO DUP1 PUSH2 0x12A3 JUMPI POP PUSH2 0x12A1 DUP2 CALLER PUSH2 0x16E2 JUMP JUMPDEST ISZERO JUMPDEST ISZERO PUSH2 0x12E5 JUMPI CALLER PUSH1 0x40 MLOAD PUSH32 0x6286EAA00000000000000000000000000000000000000000000000000000000 DUP2 MSTORE PUSH1 0x4 ADD PUSH2 0x12DC SWAP2 SWAP1 PUSH2 0x29FF JUMP JUMPDEST PUSH1 0x40 MLOAD DUP1 SWAP2 SUB SWAP1 REVERT JUMPDEST PUSH2 0x12ED PUSH2 0x1D8C JUMP JUMPDEST PUSH0 PUSH20 0xFFFFFFFFFFFFFFFFFFFFFFFFFFFFFFFFFFFFFFFF AND DUP3 PUSH20 0xFFFFFFFFFFFFFFFFFFFFFFFFFFFFFFFFFFFFFFFF AND SUB PUSH2 0x1352 JUMPI PUSH1 0x40 MLOAD PUSH32 0x463858D600000000000000000000000000000000000000000000000000000000 DUP2 MSTORE PUSH1 0x4 ADD PUSH1 0x40 MLOAD DUP1 SWAP2 SUB SWAP1 REVERT JUMPDEST DUP2 PUSH20 0xFFFFFFFFFFFFFFFFFFFFFFFFFFFFFFFFFFFFFFFF AND PUSH4 0xFEAF968C PUSH1 0x40 MLOAD DUP2 PUSH4 0xFFFFFFFF AND PUSH1 0xE0 SHL DUP2 MSTORE PUSH1 0x4 ADD PUSH1 0xA0 PUSH1 0x40 MLOAD DUP1 DUP4 SUB DUP2 DUP7 GAS STATICCALL SWAP3 POP POP POP DUP1 ISZERO PUSH2 0x13BA JUMPI POP PUSH1 0x40 MLOAD RETURNDATASIZE PUSH1 0x1F NOT PUSH1 0x1F DUP3 ADD AND DUP3 ADD DUP1 PUSH1 0x40 MSTORE POP DUP2 ADD SWAP1 PUSH2 0x13B7 SWAP2 SWAP1 PUSH2 0x2FAA JUMP JUMPDEST PUSH1 0x1 JUMPDEST PUSH2 0x13FB JUMPI DUP2 PUSH1 0x40 MLOAD PUSH32 0x59EEA31500000000000000000000000000000000000000000000000000000000 DUP2 MSTORE PUSH1 0x4 ADD PUSH2 0x13F2 SWAP2 SWAP1 PUSH2 0x29FF JUMP JUMPDEST PUSH1 0x40 MLOAD DUP1 SWAP2 SUB SWAP1 REVERT JUMPDEST PUSH0 DUP5 SGT PUSH2 0x143F JUMPI DUP7 PUSH1 0x40 MLOAD PUSH32 0x59EEA31500000000000000000000000000000000000000000000000000000000 DUP2 MSTORE PUSH1 0x4 ADD PUSH2 0x1436 SWAP2 SWAP1 PUSH2 0x29FF JUMP JUMPDEST PUSH1 0x40 MLOAD DUP1 SWAP2 SUB SWAP1 REVERT JUMPDEST PUSH2 0xE10 PUSH2 0xFFFF AND DUP3 TIMESTAMP PUSH2 0x1452 SWAP2 SWAP1 PUSH2 0x3021 JUMP JUMPDEST GT ISZERO PUSH2 0x1495 JUMPI DUP4 PUSH1 0x40 MLOAD PUSH32 0x2609A26500000000000000000000000000000000000000000000000000000000 DUP2 MSTORE PUSH1 0x4 ADD PUSH2 0x148C SWAP2 SWAP1 PUSH2 0x2C26 JUMP JUMPDEST PUSH1 0x40 MLOAD DUP1 SWAP2 SUB SWAP1 REVERT JUMPDEST PUSH0 PUSH1 0x3 PUSH0 SWAP1 SLOAD SWAP1 PUSH2 0x100 EXP SWAP1 DIV PUSH20 0xFFFFFFFFFFFFFFFFFFFFFFFFFFFFFFFFFFFFFFFF AND SWAP1 POP DUP8 PUSH1 0x3 PUSH0 PUSH2 0x100 EXP DUP2 SLOAD DUP2 PUSH20 0xFFFFFFFFFFFFFFFFFFFFFFFFFFFFFFFFFFFFFFFF MUL NOT AND SWAP1 DUP4 PUSH20 0xFFFFFFFFFFFFFFFFFFFFFFFFFFFFFFFFFFFFFFFF AND MUL OR SWAP1 SSTORE POP DUP8 PUSH20 0xFFFFFFFFFFFFFFFFFFFFFFFFFFFFFFFFFFFFFFFF AND DUP2 PUSH20 0xFFFFFFFFFFFFFFFFFFFFFFFFFFFFFFFFFFFFFFFF AND PUSH32 0x3028D95BD98A5EC8C81B55C2B61E734DDE89BB773697B429BD195FD00582B30 PUSH1 0x40 MLOAD PUSH1 0x40 MLOAD DUP1 SWAP2 SUB SWAP1 LOG3 POP POP POP POP POP POP POP POP JUMP JUMPDEST PUSH2 0x1566 PUSH2 0x1AFA JUMP JUMPDEST PUSH2 0x156F DUP2 PUSH2 0x1FFA JUMP JUMPDEST POP JUMP JUMPDEST PUSH2 0x157A PUSH2 0x1EB0 JUMP JUMPDEST PUSH2 0x1582 PUSH2 0x1D8C JUMP JUMPDEST PUSH0 PUSH2 0x158B PUSH2 0x16BA JUMP JUMPDEST SWAP1 POP PUSH2 0x1599 PUSH0 PUSH0 SHL DUP3 PUSH2 0x1CA2 JUMP JUMPDEST POP PUSH2 0x15C4 PUSH32 0x539440820030C4994DB4E31B6B800DEAFD503688728F932ADDFE7A410515C14C DUP3 PUSH2 0x1CA2 JUMP JUMPDEST POP PUSH2 0x15EF PUSH32 0x9BBB3EE3BDFBE971682B08854A620CA4BF696F8E0C269E5C5B129A18E64D29DF DUP3 PUSH2 0x1CA2 JUMP JUMPDEST POP PUSH2 0x15F9 DUP3 PUSH2 0x1F37 JUMP JUMPDEST PUSH2 0x1605 PUSH0 PUSH0 SHL DUP4 PUSH2 0x1BB1 JUMP JUMPDEST POP PUSH2 0x1630 PUSH32 0x9BBB3EE3BDFBE971682B08854A620CA4BF696F8E0C269E5C5B129A18E64D29DF DUP4 PUSH2 0x1BB1 JUMP JUMPDEST POP PUSH2 0x165B PUSH32 0x539440820030C4994DB4E31B6B800DEAFD503688728F932ADDFE7A410515C14C DUP4 PUSH2 0x1BB1 JUMP JUMPDEST POP DUP2 PUSH20 0xFFFFFFFFFFFFFFFFFFFFFFFFFFFFFFFFFFFFFFFF AND DUP2 PUSH20 0xFFFFFFFFFFFFFFFFFFFFFFFFFFFFFFFFFFFFFFFF AND PUSH32 0x2ED8931CD5C0D36856A21C6245BF2E305F989A55C31BE2B6CB7EC0A4DA43C319 PUSH1 0x40 MLOAD PUSH1 0x40 MLOAD DUP1 SWAP2 SUB SWAP1 LOG3 POP POP JUMP JUMPDEST PUSH0 PUSH1 0x1 PUSH0 SWAP1 SLOAD SWAP1 PUSH2 0x100 EXP SWAP1 DIV PUSH20 0xFFFFFFFFFFFFFFFFFFFFFFFFFFFFFFFFFFFFFFFF AND SWAP1 POP SWAP1 JUMP JUMPDEST PUSH0 PUSH1 0x2 PUSH0 DUP5 DUP2 MSTORE PUSH1 0x20 ADD SWAP1 DUP2 MSTORE PUSH1 0x20 ADD PUSH0 KECCAK256 PUSH0 ADD PUSH0 DUP4 PUSH20 0xFFFFFFFFFFFFFFFFFFFFFFFFFFFFFFFFFFFFFFFF AND PUSH20 0xFFFFFFFFFFFFFFFFFFFFFFFFFFFFFFFFFFFFFFFF AND DUP2 MSTORE PUSH1 0x20 ADD SWAP1 DUP2 MSTORE PUSH1 0x20 ADD PUSH0 KECCAK256 PUSH0 SWAP1 SLOAD SWAP1 PUSH2 0x100 EXP SWAP1 DIV PUSH1 0xFF AND SWAP1 POP SWAP3 SWAP2 POP POP JUMP JUMPDEST PUSH2 0x174E PUSH2 0x1AFA JUMP JUMPDEST PUSH2 0x1757 DUP2 PUSH2 0x2349 JUMP JUMPDEST POP JUMP JUMPDEST PUSH0 PUSH1 0x6 SLOAD SWAP1 POP SWAP1 JUMP JUMPDEST PUSH0 PUSH1 0x7 PUSH0 PUSH32 0x0 PUSH20 0xFFFFFFFFFFFFFFFFFFFFFFFFFFFFFFFFFFFFFFFF AND PUSH20 0xFFFFFFFFFFFFFFFFFFFFFFFFFFFFFFFFFFFFFFFF AND DUP2 MSTORE PUSH1 0x20 ADD SWAP1 DUP2 MSTORE PUSH1 0x20 ADD PUSH0 KECCAK256 PUSH0 CALLER PUSH20 0xFFFFFFFFFFFFFFFFFFFFFFFFFFFFFFFFFFFFFFFF AND PUSH20 0xFFFFFFFFFFFFFFFFFFFFFFFFFFFFFFFFFFFFFFFF AND DUP2 MSTORE PUSH1 0x20 ADD SWAP1 DUP2 MSTORE PUSH1 0x20 ADD PUSH0 KECCAK256 SLOAD SWAP1 POP SWAP1 JUMP JUMPDEST PUSH0 PUSH0 SHL DUP2 JUMP JUMPDEST PUSH0 PUSH1 0x5 SLOAD SWAP1 POP SWAP1 JUMP JUMPDEST PUSH32 0x9BBB3EE3BDFBE971682B08854A620CA4BF696F8E0C269E5C5B129A18E64D29DF DUP2 JUMP JUMPDEST PUSH2 0x183D PUSH2 0x1EB0 JUMP JUMPDEST PUSH2 0x1847 DUP2 DUP4 PUSH2 0xB26 JUMP JUMPDEST DUP2 PUSH20 0xFFFFFFFFFFFFFFFFFFFFFFFFFFFFFFFFFFFFFFFF AND PUSH32 0x56A39044E0E7AD5C8DB0ABDB4925F3D610D0F66AB2D22536712AFD06E6AA6032 DUP3 PUSH1 0x40 MLOAD PUSH2 0x188D SWAP2 SWAP1 PUSH2 0x2BA5 JUMP JUMPDEST PUSH1 0x40 MLOAD DUP1 SWAP2 SUB SWAP1 LOG2 POP POP JUMP JUMPDEST PUSH2 0x18A2 DUP3 PUSH2 0xB09 JUMP JUMPDEST PUSH2 0x18AB DUP2 PUSH2 0x1B9D JUMP JUMPDEST PUSH2 0x18B5 DUP4 DUP4 PUSH2 0x1CA2 JUMP JUMPDEST POP POP POP POP JUMP JUMPDEST PUSH32 0x539440820030C4994DB4E31B6B800DEAFD503688728F932ADDFE7A410515C14C DUP2 JUMP JUMPDEST PUSH2 0x18E7 PUSH2 0x1EB0 JUMP JUMPDEST PUSH2 0x18F1 DUP2 DUP4 PUSH2 0x1899 JUMP JUMPDEST DUP2 PUSH20 0xFFFFFFFFFFFFFFFFFFFFFFFFFFFFFFFFFFFFFFFF AND PUSH32 0x2A235E73FBDF449DB29391F00A41FD53E24C96816320A25A710415E2C05370F0 DUP3 PUSH1 0x40 MLOAD PUSH2 0x1937 SWAP2 SWAP1 PUSH2 0x2BA5 JUMP JUMPDEST PUSH1 0x40 MLOAD DUP1 SWAP2 SUB SWAP1 LOG2 POP POP JUMP JUMPDEST PUSH2 0x194B PUSH2 0x1EB0 JUMP JUMPDEST PUSH0 PUSH20 0xFFFFFFFFFFFFFFFFFFFFFFFFFFFFFFFFFFFFFFFF AND DUP2 PUSH20 0xFFFFFFFFFFFFFFFFFFFFFFFFFFFFFFFFFFFFFFFF AND SUB PUSH2 0x19BB JUMPI PUSH0 PUSH1 0x40 MLOAD PUSH32 0x1E4FBDF700000000000000000000000000000000000000000000000000000000 DUP2 MSTORE PUSH1 0x4 ADD PUSH2 0x19B2 SWAP2 SWAP1 PUSH2 0x29FF JUMP JUMPDEST PUSH1 0x40 MLOAD DUP1 SWAP2 SUB SWAP1 REVERT JUMPDEST PUSH2 0x19C4 DUP2 PUSH2 0x1F37 JUMP JUMPDEST POP JUMP JUMPDEST PUSH0 PUSH1 0x4 SLOAD SWAP1 POP SWAP1 JUMP JUMPDEST PUSH0 PUSH1 0x7 PUSH0 DUP4 PUSH20 0xFFFFFFFFFFFFFFFFFFFFFFFFFFFFFFFFFFFFFFFF AND PUSH20 0xFFFFFFFFFFFFFFFFFFFFFFFFFFFFFFFFFFFFFFFF AND DUP2 MSTORE PUSH1 0x20 ADD SWAP1 DUP2 MSTORE PUSH1 0x20 ADD PUSH0 KECCAK256 PUSH0 DUP5 PUSH20 0xFFFFFFFFFFFFFFFFFFFFFFFFFFFFFFFFFFFFFFFF AND PUSH20 0xFFFFFFFFFFFFFFFFFFFFFFFFFFFFFFFFFFFFFFFF AND DUP2 MSTORE PUSH1 0x20 ADD SWAP1 DUP2 MSTORE PUSH1 0x20 ADD PUSH0 KECCAK256 SLOAD SWAP1 POP SWAP3 SWAP2 POP POP JUMP JUMPDEST PUSH0 PUSH32 0x7965DB0B00000000000000000000000000000000000000000000000000000000 PUSH28 0xFFFFFFFFFFFFFFFFFFFFFFFFFFFFFFFFFFFFFFFFFFFFFFFFFFFFFFFF NOT AND DUP3 PUSH28 0xFFFFFFFFFFFFFFFFFFFFFFFFFFFFFFFFFFFFFFFFFFFFFFFFFFFFFFFF NOT AND EQ DUP1 PUSH2 0x1AC4 JUMPI POP PUSH2 0x1AC3 DUP3 PUSH2 0x265C JUMP JUMPDEST JUMPDEST SWAP1 POP SWAP2 SWAP1 POP JUMP JUMPDEST PUSH0 PUSH9 0x56BC75E2D63100000 PUSH2 0x1ADE PUSH2 0x26C5 JUMP JUMPDEST DUP4 PUSH2 0x1AE9 SWAP2 SWAP1 PUSH2 0x3054 JUMP JUMPDEST PUSH2 0x1AF3 SWAP2 SWAP1 PUSH2 0x30C2 JUMP JUMPDEST SWAP1 POP SWAP2 SWAP1 POP JUMP JUMPDEST PUSH2 0x1B02 PUSH2 0xCD0 JUMP JUMPDEST ISZERO PUSH2 0x1B39 JUMPI PUSH1 0x40 MLOAD PUSH32 0xD93C066500000000000000000000000000000000000000000000000000000000 DUP2 MSTORE PUSH1 0x4 ADD PUSH1 0x40 MLOAD DUP1 SWAP2 SUB SWAP1 REVERT JUMPDEST JUMP JUMPDEST PUSH2 0x1B43 PUSH2 0x1AFA JUMP JUMPDEST PUSH1 0x1 DUP1 PUSH1 0x14 PUSH2 0x100 EXP DUP2 SLOAD DUP2 PUSH1 0xFF MUL NOT AND SWAP1 DUP4 ISZERO ISZERO MUL OR SWAP1 SSTORE POP PUSH32 0x62E78CEA01BEE320CD4E420270B5EA74000D11B0C9F74754EBDBFC544B05A258 PUSH2 0x1B86 PUSH2 0x1C9B JUMP JUMPDEST PUSH1 0x40 MLOAD PUSH2 0x1B93 SWAP2 SWAP1 PUSH2 0x29FF JUMP JUMPDEST PUSH1 0x40 MLOAD DUP1 SWAP2 SUB SWAP1 LOG1 JUMP JUMPDEST PUSH2 0x1BAE DUP2 PUSH2 0x1BA9 PUSH2 0x1C9B JUMP JUMPDEST PUSH2 0x27FF JUMP JUMPDEST POP JUMP JUMPDEST PUSH0 PUSH2 0x1BBC DUP4 DUP4 PUSH2 0x16E2 JUMP JUMPDEST PUSH2 0x1C91 JUMPI PUSH1 0x1 PUSH1 0x2 PUSH0 DUP6 DUP2 MSTORE PUSH1 0x20 ADD SWAP1 DUP2 MSTORE PUSH1 0x20 ADD PUSH0 KECCAK256 PUSH0 ADD PUSH0 DUP5 PUSH20 0xFFFFFFFFFFFFFFFFFFFFFFFFFFFFFFFFFFFFFFFF AND PUSH20 0xFFFFFFFFFFFFFFFFFFFFFFFFFFFFFFFFFFFFFFFF AND DUP2 MSTORE PUSH1 0x20 ADD SWAP1 DUP2 MSTORE PUSH1 0x20 ADD PUSH0 KECCAK256 PUSH0 PUSH2 0x100 EXP DUP2 SLOAD DUP2 PUSH1 0xFF MUL NOT AND SWAP1 DUP4 ISZERO ISZERO MUL OR SWAP1 SSTORE POP PUSH2 0x1C2E PUSH2 0x1C9B JUMP JUMPDEST PUSH20 0xFFFFFFFFFFFFFFFFFFFFFFFFFFFFFFFFFFFFFFFF AND DUP3 PUSH20 0xFFFFFFFFFFFFFFFFFFFFFFFFFFFFFFFFFFFFFFFF AND DUP5 PUSH32 0x2F8788117E7EFF1D82E926EC794901D17C78024A50270940304540A733656F0D PUSH1 0x40 MLOAD PUSH1 0x40 MLOAD DUP1 SWAP2 SUB SWAP1 LOG4 PUSH1 0x1 SWAP1 POP PUSH2 0x1C95 JUMP JUMPDEST PUSH0 SWAP1 POP JUMPDEST SWAP3 SWAP2 POP POP JUMP JUMPDEST PUSH0 CALLER SWAP1 POP SWAP1 JUMP JUMPDEST PUSH0 PUSH2 0x1CAD DUP4 DUP4 PUSH2 0x16E2 JUMP JUMPDEST ISZERO PUSH2 0x1D82 JUMPI PUSH0 PUSH1 0x2 PUSH0 DUP6 DUP2 MSTORE PUSH1 0x20 ADD SWAP1 DUP2 MSTORE PUSH1 0x20 ADD PUSH0 KECCAK256 PUSH0 ADD PUSH0 DUP5 PUSH20 0xFFFFFFFFFFFFFFFFFFFFFFFFFFFFFFFFFFFFFFFF AND PUSH20 0xFFFFFFFFFFFFFFFFFFFFFFFFFFFFFFFFFFFFFFFF AND DUP2 MSTORE PUSH1 0x20 ADD SWAP1 DUP2 MSTORE PUSH1 0x20 ADD PUSH0 KECCAK256 PUSH0 PUSH2 0x100 EXP DUP2 SLOAD DUP2 PUSH1 0xFF MUL NOT AND SWAP1 DUP4 ISZERO ISZERO MUL OR SWAP1 SSTORE POP PUSH2 0x1D1F PUSH2 0x1C9B JUMP JUMPDEST PUSH20 0xFFFFFFFFFFFFFFFFFFFFFFFFFFFFFFFFFFFFFFFF AND DUP3 PUSH20 0xFFFFFFFFFFFFFFFFFFFFFFFFFFFFFFFFFFFFFFFF AND DUP5 PUSH32 0xF6391F5C32D9C69D2A47EA670B442974B53935D1EDC7FD64EB21E047A839171B PUSH1 0x40 MLOAD PUSH1 0x40 MLOAD DUP1 SWAP2 SUB SWAP1 LOG4 PUSH1 0x1 SWAP1 POP PUSH2 0x1D86 JUMP JUMPDEST PUSH0 SWAP1 POP JUMPDEST SWAP3 SWAP2 POP POP JUMP JUMPDEST PUSH2 0x1D94 PUSH2 0xCD0 JUMP JUMPDEST PUSH2 0x1DCA JUMPI PUSH1 0x40 MLOAD PUSH32 0x8DFC202B00000000000000000000000000000000000000000000000000000000 DUP2 MSTORE PUSH1 0x4 ADD PUSH1 0x40 MLOAD DUP1 SWAP2 SUB SWAP1 REVERT JUMPDEST JUMP JUMPDEST PUSH2 0x1DD4 PUSH2 0x1D8C JUMP JUMPDEST PUSH0 PUSH1 0x1 PUSH1 0x14 PUSH2 0x100 EXP DUP2 SLOAD DUP2 PUSH1 0xFF MUL NOT AND SWAP1 DUP4 ISZERO ISZERO MUL OR SWAP1 SSTORE POP PUSH32 0x5DB9EE0A495BF2E6FF9C91A7834C1BA4FDD244A5E8AA4E537BD38AEAE4B073AA PUSH2 0x1E17 PUSH2 0x1C9B JUMP JUMPDEST PUSH1 0x40 MLOAD PUSH2 0x1E24 SWAP2 SWAP1 PUSH2 0x29FF JUMP JUMPDEST PUSH1 0x40 MLOAD DUP1 SWAP2 SUB SWAP1 LOG1 JUMP JUMPDEST PUSH2 0x1EAA DUP5 DUP6 PUSH20 0xFFFFFFFFFFFFFFFFFFFFFFFFFFFFFFFFFFFFFFFF AND PUSH4 0x23B872DD DUP7 DUP7 DUP7 PUSH1 0x40 MLOAD PUSH1 0x24 ADD PUSH2 0x1E63 SWAP4 SWAP3 SWAP2 SWAP1 PUSH2 0x30F2 JUMP JUMPDEST PUSH1 0x40 MLOAD PUSH1 0x20 DUP2 DUP4 SUB SUB DUP2 MSTORE SWAP1 PUSH1 0x40 MSTORE SWAP2 POP PUSH1 0xE0 SHL PUSH1 0x20 DUP3 ADD DUP1 MLOAD PUSH28 0xFFFFFFFFFFFFFFFFFFFFFFFFFFFFFFFFFFFFFFFFFFFFFFFFFFFFFFFF DUP4 DUP2 DUP4 AND OR DUP4 MSTORE POP POP POP POP PUSH2 0x2850 JUMP JUMPDEST POP POP POP POP JUMP JUMPDEST PUSH2 0x1EB8 PUSH2 0x1C9B JUMP JUMPDEST PUSH20 0xFFFFFFFFFFFFFFFFFFFFFFFFFFFFFFFFFFFFFFFF AND PUSH2 0x1ED6 PUSH2 0x16BA JUMP JUMPDEST PUSH20 0xFFFFFFFFFFFFFFFFFFFFFFFFFFFFFFFFFFFFFFFF AND EQ PUSH2 0x1F35 JUMPI PUSH2 0x1EF9 PUSH2 0x1C9B JUMP JUMPDEST PUSH1 0x40 MLOAD PUSH32 0x118CDAA700000000000000000000000000000000000000000000000000000000 DUP2 MSTORE PUSH1 0x4 ADD PUSH2 0x1F2C SWAP2 SWAP1 PUSH2 0x29FF JUMP JUMPDEST PUSH1 0x40 MLOAD DUP1 SWAP2 SUB SWAP1 REVERT JUMPDEST JUMP JUMPDEST PUSH0 PUSH1 0x1 PUSH0 SWAP1 SLOAD SWAP1 PUSH2 0x100 EXP SWAP1 DIV PUSH20 0xFFFFFFFFFFFFFFFFFFFFFFFFFFFFFFFFFFFFFFFF AND SWAP1 POP DUP2 PUSH1 0x1 PUSH0 PUSH2 0x100 EXP DUP2 SLOAD DUP2 PUSH20 0xFFFFFFFFFFFFFFFFFFFFFFFFFFFFFFFFFFFFFFFF MUL NOT AND SWAP1 DUP4 PUSH20 0xFFFFFFFFFFFFFFFFFFFFFFFFFFFFFFFFFFFFFFFF AND MUL OR SWAP1 SSTORE POP DUP2 PUSH20 0xFFFFFFFFFFFFFFFFFFFFFFFFFFFFFFFFFFFFFFFF AND DUP2 PUSH20 0xFFFFFFFFFFFFFFFFFFFFFFFFFFFFFFFFFFFFFFFF AND PUSH32 0x8BE0079C531659141344CD1FD0A4F28419497F9722A3DAAFE3B4186F6B6457E0 PUSH1 0x40 MLOAD PUSH1 0x40 MLOAD DUP1 SWAP2 SUB SWAP1 LOG3 POP POP JUMP JUMPDEST PUSH2 0x2002 PUSH2 0x28EB JUMP JUMPDEST DUP1 PUSH0 PUSH2 0x200D DUP3 PUSH2 0x1ACB JUMP JUMPDEST SWAP1 POP PUSH0 DUP2 SUB PUSH2 0x2053 JUMPI CALLER PUSH1 0x40 MLOAD PUSH32 0xB2F0923100000000000000000000000000000000000000000000000000000000 DUP2 MSTORE PUSH1 0x4 ADD PUSH2 0x204A SWAP2 SWAP1 PUSH2 0x29FF JUMP JUMPDEST PUSH1 0x40 MLOAD DUP1 SWAP2 SUB SWAP1 REVERT JUMPDEST PUSH32 0x0 DUP2 GT ISZERO PUSH2 0x20B8 JUMPI DUP1 PUSH1 0x40 MLOAD PUSH32 0xC399356500000000000000000000000000000000000000000000000000000000 DUP2 MSTORE PUSH1 0x4 ADD PUSH2 0x20AF SWAP2 SWAP1 PUSH2 0x2C26 JUMP JUMPDEST PUSH1 0x40 MLOAD DUP1 SWAP2 SUB SWAP1 REVERT JUMPDEST PUSH1 0x7 PUSH0 PUSH0 PUSH20 0xFFFFFFFFFFFFFFFFFFFFFFFFFFFFFFFFFFFFFFFF AND PUSH20 0xFFFFFFFFFFFFFFFFFFFFFFFFFFFFFFFFFFFFFFFF AND DUP2 MSTORE PUSH1 0x20 ADD SWAP1 DUP2 MSTORE PUSH1 0x20 ADD PUSH0 KECCAK256 PUSH0 CALLER PUSH20 0xFFFFFFFFFFFFFFFFFFFFFFFFFFFFFFFFFFFFFFFF AND PUSH20 0xFFFFFFFFFFFFFFFFFFFFFFFFFFFFFFFFFFFFFFFF AND DUP2 MSTORE PUSH1 0x20 ADD SWAP1 DUP2 MSTORE PUSH1 0x20 ADD PUSH0 KECCAK256 SLOAD DUP3 GT ISZERO PUSH2 0x2177 JUMPI CALLER DUP2 PUSH1 0x40 MLOAD PUSH32 0x51A7314200000000000000000000000000000000000000000000000000000000 DUP2 MSTORE PUSH1 0x4 ADD PUSH2 0x216E SWAP3 SWAP2 SWAP1 PUSH2 0x2E56 JUMP JUMPDEST PUSH1 0x40 MLOAD DUP1 SWAP2 SUB SWAP1 REVERT JUMPDEST PUSH0 PUSH2 0x2181 DUP5 PUSH2 0x1ACB JUMP JUMPDEST SWAP1 POP DUP4 PUSH1 0x7 PUSH0 PUSH0 PUSH20 0xFFFFFFFFFFFFFFFFFFFFFFFFFFFFFFFFFFFFFFFF AND PUSH20 0xFFFFFFFFFFFFFFFFFFFFFFFFFFFFFFFFFFFFFFFF AND DUP2 MSTORE PUSH1 0x20 ADD SWAP1 DUP2 MSTORE PUSH1 0x20 ADD PUSH0 KECCAK256 PUSH0 CALLER PUSH20 0xFFFFFFFFFFFFFFFFFFFFFFFFFFFFFFFFFFFFFFFF AND PUSH20 0xFFFFFFFFFFFFFFFFFFFFFFFFFFFFFFFFFFFFFFFF AND DUP2 MSTORE PUSH1 0x20 ADD SWAP1 DUP2 MSTORE PUSH1 0x20 ADD PUSH0 KECCAK256 PUSH0 DUP3 DUP3 SLOAD PUSH2 0x220A SWAP2 SWAP1 PUSH2 0x3021 JUMP JUMPDEST SWAP3 POP POP DUP2 SWAP1 SSTORE POP PUSH1 0x5 PUSH0 DUP2 SLOAD DUP1 SWAP3 SWAP2 SWAP1 PUSH2 0x2223 SWAP1 PUSH2 0x2E0F JUMP JUMPDEST SWAP2 SWAP1 POP SSTORE POP DUP1 PUSH1 0x6 PUSH0 DUP3 DUP3 SLOAD PUSH2 0x2239 SWAP2 SWAP1 PUSH2 0x3021 JUMP JUMPDEST SWAP3 POP POP DUP2 SWAP1 SSTORE POP CALLER PUSH20 0xFFFFFFFFFFFFFFFFFFFFFFFFFFFFFFFFFFFFFFFF AND PUSH32 0x9CDE449504E4972FFDDEC09813E0C252A1462D76BEF1864B9E7520DADB7183E8 DUP3 PUSH1 0x40 MLOAD PUSH2 0x2286 SWAP2 SWAP1 PUSH2 0x2C26 JUMP JUMPDEST PUSH1 0x40 MLOAD DUP1 SWAP2 SUB SWAP1 LOG2 PUSH0 CALLER PUSH20 0xFFFFFFFFFFFFFFFFFFFFFFFFFFFFFFFFFFFFFFFF AND DUP6 PUSH1 0x40 MLOAD PUSH2 0x22B3 SWAP1 PUSH2 0x3154 JUMP JUMPDEST PUSH0 PUSH1 0x40 MLOAD DUP1 DUP4 SUB DUP2 DUP6 DUP8 GAS CALL SWAP3 POP POP POP RETURNDATASIZE DUP1 PUSH0 DUP2 EQ PUSH2 0x22ED JUMPI PUSH1 0x40 MLOAD SWAP2 POP PUSH1 0x1F NOT PUSH1 0x3F RETURNDATASIZE ADD AND DUP3 ADD PUSH1 0x40 MSTORE RETURNDATASIZE DUP3 MSTORE RETURNDATASIZE PUSH0 PUSH1 0x20 DUP5 ADD RETURNDATACOPY PUSH2 0x22F2 JUMP JUMPDEST PUSH1 0x60 SWAP2 POP JUMPDEST POP POP SWAP1 POP DUP1 PUSH2 0x233A JUMPI CALLER DUP6 PUSH1 0x40 MLOAD PUSH32 0x6C5E1A1400000000000000000000000000000000000000000000000000000000 DUP2 MSTORE PUSH1 0x4 ADD PUSH2 0x2331 SWAP3 SWAP2 SWAP1 PUSH2 0x2E56 JUMP JUMPDEST PUSH1 0x40 MLOAD DUP1 SWAP2 SUB SWAP1 REVERT JUMPDEST POP POP POP POP PUSH2 0x2346 PUSH2 0x2938 JUMP JUMPDEST POP JUMP JUMPDEST PUSH2 0x2351 PUSH2 0x28EB JUMP JUMPDEST DUP1 PUSH0 DUP2 SUB PUSH2 0x2396 JUMPI CALLER PUSH1 0x40 MLOAD PUSH32 0xB2F0923100000000000000000000000000000000000000000000000000000000 DUP2 MSTORE PUSH1 0x4 ADD PUSH2 0x238D SWAP2 SWAP1 PUSH2 0x29FF JUMP JUMPDEST PUSH1 0x40 MLOAD DUP1 SWAP2 SUB SWAP1 REVERT JUMPDEST PUSH32 0x0 DUP2 GT ISZERO PUSH2 0x23FB JUMPI DUP1 PUSH1 0x40 MLOAD PUSH32 0xC399356500000000000000000000000000000000000000000000000000000000 DUP2 MSTORE PUSH1 0x4 ADD PUSH2 0x23F2 SWAP2 SWAP1 PUSH2 0x2C26 JUMP JUMPDEST PUSH1 0x40 MLOAD DUP1 SWAP2 SUB SWAP1 REVERT JUMPDEST PUSH1 0x7 PUSH0 PUSH32 0x0 PUSH20 0xFFFFFFFFFFFFFFFFFFFFFFFFFFFFFFFFFFFFFFFF AND PUSH20 0xFFFFFFFFFFFFFFFFFFFFFFFFFFFFFFFFFFFFFFFF AND DUP2 MSTORE PUSH1 0x20 ADD SWAP1 DUP2 MSTORE PUSH1 0x20 ADD PUSH0 KECCAK256 PUSH0 CALLER PUSH20 0xFFFFFFFFFFFFFFFFFFFFFFFFFFFFFFFFFFFFFFFF AND PUSH20 0xFFFFFFFFFFFFFFFFFFFFFFFFFFFFFFFFFFFFFFFF AND DUP2 MSTORE PUSH1 0x20 ADD SWAP1 DUP2 MSTORE PUSH1 0x20 ADD PUSH0 KECCAK256 SLOAD DUP2 GT ISZERO PUSH2 0x24DA JUMPI CALLER DUP2 PUSH1 0x40 MLOAD PUSH32 0x51A7314200000000000000000000000000000000000000000000000000000000 DUP2 MSTORE PUSH1 0x4 ADD PUSH2 0x24D1 SWAP3 SWAP2 SWAP1 PUSH2 0x2E56 JUMP JUMPDEST PUSH1 0x40 MLOAD DUP1 SWAP2 SUB SWAP1 REVERT JUMPDEST DUP2 PUSH1 0x7 PUSH0 PUSH32 0x0 PUSH20 0xFFFFFFFFFFFFFFFFFFFFFFFFFFFFFFFFFFFFFFFF AND PUSH20 0xFFFFFFFFFFFFFFFFFFFFFFFFFFFFFFFFFFFFFFFF AND DUP2 MSTORE PUSH1 0x20 ADD SWAP1 DUP2 MSTORE PUSH1 0x20 ADD PUSH0 KECCAK256 PUSH0 CALLER PUSH20 0xFFFFFFFFFFFFFFFFFFFFFFFFFFFFFFFFFFFFFFFF AND PUSH20 0xFFFFFFFFFFFFFFFFFFFFFFFFFFFFFFFFFFFFFFFF AND DUP2 MSTORE PUSH1 0x20 ADD SWAP1 DUP2 MSTORE PUSH1 0x20 ADD PUSH0 KECCAK256 PUSH0 DUP3 DUP3 SLOAD PUSH2 0x2581 SWAP2 SWAP1 PUSH2 0x3021 JUMP JUMPDEST SWAP3 POP POP DUP2 SWAP1 SSTORE POP PUSH1 0x5 PUSH0 DUP2 SLOAD DUP1 SWAP3 SWAP2 SWAP1 PUSH2 0x259A SWAP1 PUSH2 0x2E0F JUMP JUMPDEST SWAP2 SWAP1 POP SSTORE POP DUP2 PUSH1 0x6 PUSH0 DUP3 DUP3 SLOAD PUSH2 0x25B0 SWAP2 SWAP1 PUSH2 0x3021 JUMP JUMPDEST SWAP3 POP POP DUP2 SWAP1 SSTORE POP CALLER PUSH20 0xFFFFFFFFFFFFFFFFFFFFFFFFFFFFFFFFFFFFFFFF AND PUSH32 0x9CDE449504E4972FFDDEC09813E0C252A1462D76BEF1864B9E7520DADB7183E8 DUP4 PUSH1 0x40 MLOAD PUSH2 0x25FD SWAP2 SWAP1 PUSH2 0x2C26 JUMP JUMPDEST PUSH1 0x40 MLOAD DUP1 SWAP2 SUB SWAP1 LOG2 PUSH2 0x2650 CALLER DUP4 PUSH32 0x0 PUSH20 0xFFFFFFFFFFFFFFFFFFFFFFFFFFFFFFFFFFFFFFFF AND PUSH2 0x2941 SWAP1 SWAP3 SWAP2 SWAP1 PUSH4 0xFFFFFFFF AND JUMP JUMPDEST POP PUSH2 0x2659 PUSH2 0x2938 JUMP JUMPDEST POP JUMP JUMPDEST PUSH0 PUSH32 0x1FFC9A700000000000000000000000000000000000000000000000000000000 PUSH28 0xFFFFFFFFFFFFFFFFFFFFFFFFFFFFFFFFFFFFFFFFFFFFFFFFFFFFFFFF NOT AND DUP3 PUSH28 0xFFFFFFFFFFFFFFFFFFFFFFFFFFFFFFFFFFFFFFFFFFFFFFFFFFFFFFFF NOT AND EQ SWAP1 POP SWAP2 SWAP1 POP JUMP JUMPDEST PUSH0 PUSH0 PUSH0 PUSH1 0x3 PUSH0 SWAP1 SLOAD SWAP1 PUSH2 0x100 EXP SWAP1 DIV PUSH20 0xFFFFFFFFFFFFFFFFFFFFFFFFFFFFFFFFFFFFFFFF AND PUSH20 0xFFFFFFFFFFFFFFFFFFFFFFFFFFFFFFFFFFFFFFFF AND PUSH4 0xFEAF968C PUSH1 0x40 MLOAD DUP2 PUSH4 0xFFFFFFFF AND PUSH1 0xE0 SHL DUP2 MSTORE PUSH1 0x4 ADD PUSH1 0xA0 PUSH1 0x40 MLOAD DUP1 DUP4 SUB DUP2 DUP7 GAS STATICCALL ISZERO DUP1 ISZERO PUSH2 0x2732 JUMPI RETURNDATASIZE PUSH0 PUSH0 RETURNDATACOPY RETURNDATASIZE PUSH0 REVERT JUMPDEST POP POP POP POP PUSH1 0x40 MLOAD RETURNDATASIZE PUSH1 0x1F NOT PUSH1 0x1F DUP3 ADD AND DUP3 ADD DUP1 PUSH1 0x40 MSTORE POP DUP2 ADD SWAP1 PUSH2 0x2756 SWAP2 SWAP1 PUSH2 0x2FAA JUMP JUMPDEST POP SWAP4 POP POP SWAP3 POP POP PUSH0 DUP3 SGT PUSH2 0x27A1 JUMPI DUP2 PUSH1 0x40 MLOAD PUSH32 0x3654402900000000000000000000000000000000000000000000000000000000 DUP2 MSTORE PUSH1 0x4 ADD PUSH2 0x2798 SWAP2 SWAP1 PUSH2 0x2C26 JUMP JUMPDEST PUSH1 0x40 MLOAD DUP1 SWAP2 SUB SWAP1 REVERT JUMPDEST PUSH2 0xE10 PUSH2 0xFFFF AND DUP2 TIMESTAMP PUSH2 0x27B4 SWAP2 SWAP1 PUSH2 0x3021 JUMP JUMPDEST GT ISZERO PUSH2 0x27F7 JUMPI DUP2 PUSH1 0x40 MLOAD PUSH32 0x2609A26500000000000000000000000000000000000000000000000000000000 DUP2 MSTORE PUSH1 0x4 ADD PUSH2 0x27EE SWAP2 SWAP1 PUSH2 0x2C26 JUMP JUMPDEST PUSH1 0x40 MLOAD DUP1 SWAP2 SUB SWAP1 REVERT JUMPDEST DUP2 SWAP3 POP POP POP SWAP1 JUMP JUMPDEST PUSH2 0x2809 DUP3 DUP3 PUSH2 0x16E2 JUMP JUMPDEST PUSH2 0x284C JUMPI DUP1 DUP3 PUSH1 0x40 MLOAD PUSH32 0xE2517D3F00000000000000000000000000000000000000000000000000000000 DUP2 MSTORE PUSH1 0x4 ADD PUSH2 0x2843 SWAP3 SWAP2 SWAP1 PUSH2 0x3168 JUMP JUMPDEST PUSH1 0x40 MLOAD DUP1 SWAP2 SUB SWAP1 REVERT JUMPDEST POP POP JUMP JUMPDEST PUSH0 PUSH0 PUSH1 0x20 PUSH0 DUP5 MLOAD PUSH1 0x20 DUP7 ADD PUSH0 DUP9 GAS CALL DUP1 PUSH2 0x286F JUMPI PUSH1 0x40 MLOAD RETURNDATASIZE PUSH0 DUP3 RETURNDATACOPY RETURNDATASIZE DUP2 REVERT JUMPDEST RETURNDATASIZE SWAP3 POP PUSH0 MLOAD SWAP2 POP POP PUSH0 DUP3 EQ PUSH2 0x2888 JUMPI PUSH1 0x1 DUP2 EQ ISZERO PUSH2 0x28A3 JUMP JUMPDEST PUSH0 DUP5 PUSH20 0xFFFFFFFFFFFFFFFFFFFFFFFFFFFFFFFFFFFFFFFF AND EXTCODESIZE EQ JUMPDEST ISZERO PUSH2 0x28E5 JUMPI DUP4 PUSH1 0x40 MLOAD PUSH32 0x5274AFE700000000000000000000000000000000000000000000000000000000 DUP2 MSTORE PUSH1 0x4 ADD PUSH2 0x28DC SWAP2 SWAP1 PUSH2 0x29FF JUMP JUMPDEST PUSH1 0x40 MLOAD DUP1 SWAP2 SUB SWAP1 REVERT JUMPDEST POP POP POP POP JUMP JUMPDEST PUSH1 0x2 PUSH0 SLOAD SUB PUSH2 0x292F JUMPI PUSH1 0x40 MLOAD PUSH32 0x8C379A000000000000000000000000000000000000000000000000000000000 DUP2 MSTORE PUSH1 0x4 ADD PUSH2 0x2926 SWAP1 PUSH2 0x31E9 JUMP JUMPDEST PUSH1 0x40 MLOAD DUP1 SWAP2 SUB SWAP1 REVERT JUMPDEST PUSH1 0x2 PUSH0 DUP2 SWAP1 SSTORE POP JUMP JUMPDEST PUSH1 0x1 PUSH0 DUP2 SWAP1 SSTORE POP JUMP JUMPDEST PUSH2 0x29BB DUP4 DUP5 PUSH20 0xFFFFFFFFFFFFFFFFFFFFFFFFFFFFFFFFFFFFFFFF AND PUSH4 0xA9059CBB DUP6 DUP6 PUSH1 0x40 MLOAD PUSH1 0x24 ADD PUSH2 0x2974 SWAP3 SWAP2 SWAP1 PUSH2 0x2E56 JUMP JUMPDEST PUSH1 0x40 MLOAD PUSH1 0x20 DUP2 DUP4 SUB SUB DUP2 MSTORE SWAP1 PUSH1 0x40 MSTORE SWAP2 POP PUSH1 0xE0 SHL PUSH1 0x20 DUP3 ADD DUP1 MLOAD PUSH28 0xFFFFFFFFFFFFFFFFFFFFFFFFFFFFFFFFFFFFFFFFFFFFFFFFFFFFFFFF DUP4 DUP2 DUP4 AND OR DUP4 MSTORE POP POP POP POP PUSH2 0x2850 JUMP JUMPDEST POP POP POP JUMP JUMPDEST PUSH0 PUSH20 0xFFFFFFFFFFFFFFFFFFFFFFFFFFFFFFFFFFFFFFFF DUP3 AND SWAP1 POP SWAP2 SWAP1 POP JUMP JUMPDEST PUSH0 PUSH2 0x29E9 DUP3 PUSH2 0x29C0 JUMP JUMPDEST SWAP1 POP SWAP2 SWAP1 POP JUMP JUMPDEST PUSH2 0x29F9 DUP2 PUSH2 0x29DF JUMP JUMPDEST DUP3 MSTORE POP POP JUMP JUMPDEST PUSH0 PUSH1 0x20 DUP3 ADD SWAP1 POP PUSH2 0x2A12 PUSH0 DUP4 ADD DUP5 PUSH2 0x29F0 JUMP JUMPDEST SWAP3 SWAP2 POP POP JUMP JUMPDEST PUSH0 PUSH0 REVERT JUMPDEST PUSH0 PUSH32 0xFFFFFFFF00000000000000000000000000000000000000000000000000000000 DUP3 AND SWAP1 POP SWAP2 SWAP1 POP JUMP JUMPDEST PUSH2 0x2A50 DUP2 PUSH2 0x2A1C JUMP JUMPDEST DUP2 EQ PUSH2 0x2A5A JUMPI PUSH0 PUSH0 REVERT JUMPDEST POP JUMP JUMPDEST PUSH0 DUP2 CALLDATALOAD SWAP1 POP PUSH2 0x2A6B DUP2 PUSH2 0x2A47 JUMP JUMPDEST SWAP3 SWAP2 POP POP JUMP JUMPDEST PUSH0 PUSH1 0x20 DUP3 DUP5 SUB SLT ISZERO PUSH2 0x2A86 JUMPI PUSH2 0x2A85 PUSH2 0x2A18 JUMP JUMPDEST JUMPDEST PUSH0 PUSH2 0x2A93 DUP5 DUP3 DUP6 ADD PUSH2 0x2A5D JUMP JUMPDEST SWAP2 POP POP SWAP3 SWAP2 POP POP JUMP JUMPDEST PUSH0 DUP2 ISZERO ISZERO SWAP1 POP SWAP2 SWAP1 POP JUMP JUMPDEST PUSH2 0x2AB0 DUP2 PUSH2 0x2A9C JUMP JUMPDEST DUP3 MSTORE POP POP JUMP JUMPDEST PUSH0 PUSH1 0x20 DUP3 ADD SWAP1 POP PUSH2 0x2AC9 PUSH0 DUP4 ADD DUP5 PUSH2 0x2AA7 JUMP JUMPDEST SWAP3 SWAP2 POP POP JUMP JUMPDEST PUSH0 DUP2 SWAP1 POP SWAP2 SWAP1 POP JUMP JUMPDEST PUSH2 0x2AE1 DUP2 PUSH2 0x2ACF JUMP JUMPDEST DUP3 MSTORE POP POP JUMP JUMPDEST PUSH0 PUSH1 0xA0 DUP3 ADD SWAP1 POP PUSH2 0x2AFA PUSH0 DUP4 ADD DUP9 PUSH2 0x2AA7 JUMP JUMPDEST PUSH2 0x2B07 PUSH1 0x20 DUP4 ADD DUP8 PUSH2 0x2AD8 JUMP JUMPDEST PUSH2 0x2B14 PUSH1 0x40 DUP4 ADD DUP7 PUSH2 0x2AD8 JUMP JUMPDEST PUSH2 0x2B21 PUSH1 0x60 DUP4 ADD DUP6 PUSH2 0x2AD8 JUMP JUMPDEST PUSH2 0x2B2E PUSH1 0x80 DUP4 ADD DUP5 PUSH2 0x29F0 JUMP JUMPDEST SWAP7 SWAP6 POP POP POP POP POP POP JUMP JUMPDEST PUSH0 DUP2 SWAP1 POP SWAP2 SWAP1 POP JUMP JUMPDEST PUSH2 0x2B4A DUP2 PUSH2 0x2B38 JUMP JUMPDEST DUP2 EQ PUSH2 0x2B54 JUMPI PUSH0 PUSH0 REVERT JUMPDEST POP JUMP JUMPDEST PUSH0 DUP2 CALLDATALOAD SWAP1 POP PUSH2 0x2B65 DUP2 PUSH2 0x2B41 JUMP JUMPDEST SWAP3 SWAP2 POP POP JUMP JUMPDEST PUSH0 PUSH1 0x20 DUP3 DUP5 SUB SLT ISZERO PUSH2 0x2B80 JUMPI PUSH2 0x2B7F PUSH2 0x2A18 JUMP JUMPDEST JUMPDEST PUSH0 PUSH2 0x2B8D DUP5 DUP3 DUP6 ADD PUSH2 0x2B57 JUMP JUMPDEST SWAP2 POP POP SWAP3 SWAP2 POP POP JUMP JUMPDEST PUSH2 0x2B9F DUP2 PUSH2 0x2B38 JUMP JUMPDEST DUP3 MSTORE POP POP JUMP JUMPDEST PUSH0 PUSH1 0x20 DUP3 ADD SWAP1 POP PUSH2 0x2BB8 PUSH0 DUP4 ADD DUP5 PUSH2 0x2B96 JUMP JUMPDEST SWAP3 SWAP2 POP POP JUMP JUMPDEST PUSH2 0x2BC7 DUP2 PUSH2 0x29DF JUMP JUMPDEST DUP2 EQ PUSH2 0x2BD1 JUMPI PUSH0 PUSH0 REVERT JUMPDEST POP JUMP JUMPDEST PUSH0 DUP2 CALLDATALOAD SWAP1 POP PUSH2 0x2BE2 DUP2 PUSH2 0x2BBE JUMP JUMPDEST SWAP3 SWAP2 POP POP JUMP JUMPDEST PUSH0 PUSH0 PUSH1 0x40 DUP4 DUP6 SUB SLT ISZERO PUSH2 0x2BFE JUMPI PUSH2 0x2BFD PUSH2 0x2A18 JUMP JUMPDEST JUMPDEST PUSH0 PUSH2 0x2C0B DUP6 DUP3 DUP7 ADD PUSH2 0x2B57 JUMP JUMPDEST SWAP3 POP POP PUSH1 0x20 PUSH2 0x2C1C DUP6 DUP3 DUP7 ADD PUSH2 0x2BD4 JUMP JUMPDEST SWAP2 POP POP SWAP3 POP SWAP3 SWAP1 POP JUMP JUMPDEST PUSH0 PUSH1 0x20 DUP3 ADD SWAP1 POP PUSH2 0x2C39 PUSH0 DUP4 ADD DUP5 PUSH2 0x2AD8 JUMP JUMPDEST SWAP3 SWAP2 POP POP JUMP JUMPDEST PUSH2 0x2C48 DUP2 PUSH2 0x2ACF JUMP JUMPDEST DUP2 EQ PUSH2 0x2C52 JUMPI PUSH0 PUSH0 REVERT JUMPDEST POP JUMP JUMPDEST PUSH0 DUP2 CALLDATALOAD SWAP1 POP PUSH2 0x2C63 DUP2 PUSH2 0x2C3F JUMP JUMPDEST SWAP3 SWAP2 POP POP JUMP JUMPDEST PUSH0 PUSH1 0x20 DUP3 DUP5 SUB SLT ISZERO PUSH2 0x2C7E JUMPI PUSH2 0x2C7D PUSH2 0x2A18 JUMP JUMPDEST JUMPDEST PUSH0 PUSH2 0x2C8B DUP5 DUP3 DUP6 ADD PUSH2 0x2C55 JUMP JUMPDEST SWAP2 POP POP SWAP3 SWAP2 POP POP JUMP JUMPDEST PUSH0 DUP2 SWAP1 POP SWAP2 SWAP1 POP JUMP JUMPDEST PUSH0 PUSH2 0x2CB7 PUSH2 0x2CB2 PUSH2 0x2CAD DUP5 PUSH2 0x29C0 JUMP JUMPDEST PUSH2 0x2C94 JUMP JUMPDEST PUSH2 0x29C0 JUMP JUMPDEST SWAP1 POP SWAP2 SWAP1 POP JUMP JUMPDEST PUSH0 PUSH2 0x2CC8 DUP3 PUSH2 0x2C9D JUMP JUMPDEST SWAP1 POP SWAP2 SWAP1 POP JUMP JUMPDEST PUSH0 PUSH2 0x2CD9 DUP3 PUSH2 0x2CBE JUMP JUMPDEST SWAP1 POP SWAP2 SWAP1 POP JUMP JUMPDEST PUSH2 0x2CE9 DUP2 PUSH2 0x2CCF JUMP JUMPDEST DUP3 MSTORE POP POP JUMP JUMPDEST PUSH0 PUSH1 0x20 DUP3 ADD SWAP1 POP PUSH2 0x2D02 PUSH0 DUP4 ADD DUP5 PUSH2 0x2CE0 JUMP JUMPDEST SWAP3 SWAP2 POP POP JUMP JUMPDEST PUSH0 PUSH1 0x20 DUP3 DUP5 SUB SLT ISZERO PUSH2 0x2D1D JUMPI PUSH2 0x2D1C PUSH2 0x2A18 JUMP JUMPDEST JUMPDEST PUSH0 PUSH2 0x2D2A DUP5 DUP3 DUP6 ADD PUSH2 0x2BD4 JUMP JUMPDEST SWAP2 POP POP SWAP3 SWAP2 POP POP JUMP JUMPDEST PUSH0 PUSH0 PUSH1 0x40 DUP4 DUP6 SUB SLT ISZERO PUSH2 0x2D49 JUMPI PUSH2 0x2D48 PUSH2 0x2A18 JUMP JUMPDEST JUMPDEST PUSH0 PUSH2 0x2D56 DUP6 DUP3 DUP7 ADD PUSH2 0x2BD4 JUMP JUMPDEST SWAP3 POP POP PUSH1 0x20 PUSH2 0x2D67 DUP6 DUP3 DUP7 ADD PUSH2 0x2B57 JUMP JUMPDEST SWAP2 POP POP SWAP3 POP SWAP3 SWAP1 POP JUMP JUMPDEST PUSH0 PUSH0 PUSH1 0x40 DUP4 DUP6 SUB SLT ISZERO PUSH2 0x2D87 JUMPI PUSH2 0x2D86 PUSH2 0x2A18 JUMP JUMPDEST JUMPDEST PUSH0 PUSH2 0x2D94 DUP6 DUP3 DUP7 ADD PUSH2 0x2BD4 JUMP JUMPDEST SWAP3 POP POP PUSH1 0x20 PUSH2 0x2DA5 DUP6 DUP3 DUP7 ADD PUSH2 0x2BD4 JUMP JUMPDEST SWAP2 POP POP SWAP3 POP SWAP3 SWAP1 POP JUMP JUMPDEST PUSH32 0x4E487B7100000000000000000000000000000000000000000000000000000000 PUSH0 MSTORE PUSH1 0x11 PUSH1 0x4 MSTORE PUSH1 0x24 PUSH0 REVERT JUMPDEST PUSH0 PUSH2 0x2DE6 DUP3 PUSH2 0x2ACF JUMP JUMPDEST SWAP2 POP PUSH2 0x2DF1 DUP4 PUSH2 0x2ACF JUMP JUMPDEST SWAP3 POP DUP3 DUP3 ADD SWAP1 POP DUP1 DUP3 GT ISZERO PUSH2 0x2E09 JUMPI PUSH2 0x2E08 PUSH2 0x2DAF JUMP JUMPDEST JUMPDEST SWAP3 SWAP2 POP POP JUMP JUMPDEST PUSH0 PUSH2 0x2E19 DUP3 PUSH2 0x2ACF JUMP JUMPDEST SWAP2 POP PUSH32 0xFFFFFFFFFFFFFFFFFFFFFFFFFFFFFFFFFFFFFFFFFFFFFFFFFFFFFFFFFFFFFFFF DUP3 SUB PUSH2 0x2E4B JUMPI PUSH2 0x2E4A PUSH2 0x2DAF JUMP JUMPDEST JUMPDEST PUSH1 0x1 DUP3 ADD SWAP1 POP SWAP2 SWAP1 POP JUMP JUMPDEST PUSH0 PUSH1 0x40 DUP3 ADD SWAP1 POP PUSH2 0x2E69 PUSH0 DUP4 ADD DUP6 PUSH2 0x29F0 JUMP JUMPDEST PUSH2 0x2E76 PUSH1 0x20 DUP4 ADD DUP5 PUSH2 0x2AD8 JUMP JUMPDEST SWAP4 SWAP3 POP POP POP JUMP JUMPDEST PUSH2 0x2E86 DUP2 PUSH2 0x2A9C JUMP JUMPDEST DUP2 EQ PUSH2 0x2E90 JUMPI PUSH0 PUSH0 REVERT JUMPDEST POP JUMP JUMPDEST PUSH0 DUP2 MLOAD SWAP1 POP PUSH2 0x2EA1 DUP2 PUSH2 0x2E7D JUMP JUMPDEST SWAP3 SWAP2 POP POP JUMP JUMPDEST PUSH0 PUSH1 0x20 DUP3 DUP5 SUB SLT ISZERO PUSH2 0x2EBC JUMPI PUSH2 0x2EBB PUSH2 0x2A18 JUMP JUMPDEST JUMPDEST PUSH0 PUSH2 0x2EC9 DUP5 DUP3 DUP6 ADD PUSH2 0x2E93 JUMP JUMPDEST SWAP2 POP POP SWAP3 SWAP2 POP POP JUMP JUMPDEST PUSH0 PUSH1 0x40 DUP3 ADD SWAP1 POP PUSH2 0x2EE5 PUSH0 DUP4 ADD DUP6 PUSH2 0x29F0 JUMP JUMPDEST PUSH2 0x2EF2 PUSH1 0x20 DUP4 ADD DUP5 PUSH2 0x29F0 JUMP JUMPDEST SWAP4 SWAP3 POP POP POP JUMP JUMPDEST PUSH0 DUP2 MLOAD SWAP1 POP PUSH2 0x2F07 DUP2 PUSH2 0x2C3F JUMP JUMPDEST SWAP3 SWAP2 POP POP JUMP JUMPDEST PUSH0 PUSH1 0x20 DUP3 DUP5 SUB SLT ISZERO PUSH2 0x2F22 JUMPI PUSH2 0x2F21 PUSH2 0x2A18 JUMP JUMPDEST JUMPDEST PUSH0 PUSH2 0x2F2F DUP5 DUP3 DUP6 ADD PUSH2 0x2EF9 JUMP JUMPDEST SWAP2 POP POP SWAP3 SWAP2 POP POP JUMP JUMPDEST PUSH0 PUSH10 0xFFFFFFFFFFFFFFFFFFFF DUP3 AND SWAP1 POP SWAP2 SWAP1 POP JUMP JUMPDEST PUSH2 0x2F56 DUP2 PUSH2 0x2F38 JUMP JUMPDEST DUP2 EQ PUSH2 0x2F60 JUMPI PUSH0 PUSH0 REVERT JUMPDEST POP JUMP JUMPDEST PUSH0 DUP2 MLOAD SWAP1 POP PUSH2 0x2F71 DUP2 PUSH2 0x2F4D JUMP JUMPDEST SWAP3 SWAP2 POP POP JUMP JUMPDEST PUSH0 DUP2 SWAP1 POP SWAP2 SWAP1 POP JUMP JUMPDEST PUSH2 0x2F89 DUP2 PUSH2 0x2F77 JUMP JUMPDEST DUP2 EQ PUSH2 0x2F93 JUMPI PUSH0 PUSH0 REVERT JUMPDEST POP JUMP JUMPDEST PUSH0 DUP2 MLOAD SWAP1 POP PUSH2 0x2FA4 DUP2 PUSH2 0x2F80 JUMP JUMPDEST SWAP3 SWAP2 POP POP JUMP JUMPDEST PUSH0 PUSH0 PUSH0 PUSH0 PUSH0 PUSH1 0xA0 DUP7 DUP9 SUB SLT ISZERO PUSH2 0x2FC3 JUMPI PUSH2 0x2FC2 PUSH2 0x2A18 JUMP JUMPDEST JUMPDEST PUSH0 PUSH2 0x2FD0 DUP9 DUP3 DUP10 ADD PUSH2 0x2F63 JUMP JUMPDEST SWAP6 POP POP PUSH1 0x20 PUSH2 0x2FE1 DUP9 DUP3 DUP10 ADD PUSH2 0x2F96 JUMP JUMPDEST SWAP5 POP POP PUSH1 0x40 PUSH2 0x2FF2 DUP9 DUP3 DUP10 ADD PUSH2 0x2EF9 JUMP JUMPDEST SWAP4 POP POP PUSH1 0x60 PUSH2 0x3003 DUP9 DUP3 DUP10 ADD PUSH2 0x2EF9 JUMP JUMPDEST SWAP3 POP POP PUSH1 0x80 PUSH2 0x3014 DUP9 DUP3 DUP10 ADD PUSH2 0x2F63 JUMP JUMPDEST SWAP2 POP POP SWAP3 SWAP6 POP SWAP3 SWAP6 SWAP1 SWAP4 POP JUMP JUMPDEST PUSH0 PUSH2 0x302B DUP3 PUSH2 0x2ACF JUMP JUMPDEST SWAP2 POP PUSH2 0x3036 DUP4 PUSH2 0x2ACF JUMP JUMPDEST SWAP3 POP DUP3 DUP3 SUB SWAP1 POP DUP2 DUP2 GT ISZERO PUSH2 0x304E JUMPI PUSH2 0x304D PUSH2 0x2DAF JUMP JUMPDEST JUMPDEST SWAP3 SWAP2 POP POP JUMP JUMPDEST PUSH0 PUSH2 0x305E DUP3 PUSH2 0x2ACF JUMP JUMPDEST SWAP2 POP PUSH2 0x3069 DUP4 PUSH2 0x2ACF JUMP JUMPDEST SWAP3 POP DUP3 DUP3 MUL PUSH2 0x3077 DUP2 PUSH2 0x2ACF JUMP JUMPDEST SWAP2 POP DUP3 DUP3 DIV DUP5 EQ DUP4 ISZERO OR PUSH2 0x308E JUMPI PUSH2 0x308D PUSH2 0x2DAF JUMP JUMPDEST JUMPDEST POP SWAP3 SWAP2 POP POP JUMP JUMPDEST PUSH32 0x4E487B7100000000000000000000000000000000000000000000000000000000 PUSH0 MSTORE PUSH1 0x12 PUSH1 0x4 MSTORE PUSH1 0x24 PUSH0 REVERT JUMPDEST PUSH0 PUSH2 0x30CC DUP3 PUSH2 0x2ACF JUMP JUMPDEST SWAP2 POP PUSH2 0x30D7 DUP4 PUSH2 0x2ACF JUMP JUMPDEST SWAP3 POP DUP3 PUSH2 0x30E7 JUMPI PUSH2 0x30E6 PUSH2 0x3095 JUMP JUMPDEST JUMPDEST DUP3 DUP3 DIV SWAP1 POP SWAP3 SWAP2 POP POP JUMP JUMPDEST PUSH0 PUSH1 0x60 DUP3 ADD SWAP1 POP PUSH2 0x3105 PUSH0 DUP4 ADD DUP7 PUSH2 0x29F0 JUMP JUMPDEST PUSH2 0x3112 PUSH1 0x20 DUP4 ADD DUP6 PUSH2 0x29F0 JUMP JUMPDEST PUSH2 0x311F PUSH1 0x40 DUP4 ADD DUP5 PUSH2 0x2AD8 JUMP JUMPDEST SWAP5 SWAP4 POP POP POP POP JUMP JUMPDEST PUSH0 DUP2 SWAP1 POP SWAP3 SWAP2 POP POP JUMP JUMPDEST POP JUMP JUMPDEST PUSH0 PUSH2 0x313F PUSH0 DUP4 PUSH2 0x3127 JUMP JUMPDEST SWAP2 POP PUSH2 0x314A DUP3 PUSH2 0x3131 JUMP JUMPDEST PUSH0 DUP3 ADD SWAP1 POP SWAP2 SWAP1 POP JUMP JUMPDEST PUSH0 PUSH2 0x315E DUP3 PUSH2 0x3134 JUMP JUMPDEST SWAP2 POP DUP2 SWAP1 POP SWAP2 SWAP1 POP JUMP JUMPDEST PUSH0 PUSH1 0x40 DUP3 ADD SWAP1 POP PUSH2 0x317B PUSH0 DUP4 ADD DUP6 PUSH2 0x29F0 JUMP JUMPDEST PUSH2 0x3188 PUSH1 0x20 DUP4 ADD DUP5 PUSH2 0x2B96 JUMP JUMPDEST SWAP4 SWAP3 POP POP POP JUMP JUMPDEST PUSH0 DUP3 DUP3 MSTORE PUSH1 0x20 DUP3 ADD SWAP1 POP SWAP3 SWAP2 POP POP JUMP JUMPDEST PUSH32 0x5265656E7472616E637947756172643A207265656E7472616E742063616C6C00 PUSH0 DUP3 ADD MSTORE POP JUMP JUMPDEST PUSH0 PUSH2 0x31D3 PUSH1 0x1F DUP4 PUSH2 0x318F JUMP JUMPDEST SWAP2 POP PUSH2 0x31DE DUP3 PUSH2 0x319F JUMP JUMPDEST PUSH1 0x20 DUP3 ADD SWAP1 POP SWAP2 SWAP1 POP JUMP JUMPDEST PUSH0 PUSH1 0x20 DUP3 ADD SWAP1 POP DUP2 DUP2 SUB PUSH0 DUP4 ADD MSTORE PUSH2 0x3200 DUP2 PUSH2 0x31C7 JUMP JUMPDEST SWAP1 POP SWAP2 SWAP1 POP JUMP INVALID LOG2 PUSH5 0x6970667358 0x22 SLT KECCAK256 KECCAK256 SAR PUSH1 0x41 SIGNEXTEND LOG2 0xBA 0xB6 0xEA MUL 0xAE DUP9 PUSH7 0xBBE39653171A79 DUP5 0xE9 XOR SIGNEXTEND PUSH32 0xBD9088E2FA5A8C64736F6C634300081E00330000000000000000000000000000 "
		},
		"gasEstimates": {
			"creation": {
				"codeDepositCost": "2572200",
				"executionCost": "infinite",
				"totalCost": "infinite"
			},
			"external": {
				"": "463",
				"DEFAULT_ADMIN_ROLE()": "418",
				"FEED_MANAGER()": "370",
				"PAUSER()": "436",
				"balanceOf(address,address)": "infinite",
				"darRol(address,bytes32)": "infinite",
				"depositarETH()": "infinite",
				"depositarUSDC(uint256)": "infinite",
				"despausarContrato()": "infinite",
				"estadoDelContrato()": "infinite",
				"getRoleAdmin(bytes32)": "infinite",
				"grantRole(bytes32,address)": "infinite",
				"hasRole(bytes32,address)": "3211",
				"owner()": "2583",
				"pausarContrato()": "infinite",
				"paused()": "2570",
				"renounceOwnership()": "infinite",
				"renounceRole(bytes32,address)": "infinite",
				"retirarETH(uint256)": "infinite",
				"retirarUSDC(uint256)": "infinite",
				"revocarRol(address,bytes32)": "infinite",
				"revokeRole(bytes32,address)": "infinite",
				"s_feed()": "infinite",
				"setFeeds(address)": "infinite",
				"supportsInterface(bytes4)": "806",
				"transferOwnership(address)": "infinite",
				"transferirOwner(address)": "infinite",
				"verBoveda()": "infinite",
				"verSaldoETH()": "2673",
				"verSaldoUSDC()": "infinite",
				"verTotalContrato()": "2477",
				"verTotalDepositos()": "2520",
				"verTotalRetiros()": "2543"
			},
			"internal": {
				"_retirarFondosETH(uint256)": "infinite",
				"_retirarFondosUSDC(uint256)": "infinite",
				"chainLinkFeeds()": "infinite",
				"convertirEthEnUSD(uint256)": "infinite"
			}
		},
		"methodIdentifiers": {
			"DEFAULT_ADMIN_ROLE()": "a217fddf",
			"FEED_MANAGER()": "cb398eb3",
			"PAUSER()": "d9dc8694",
			"balanceOf(address,address)": "f7888aec",
			"darRol(address,bytes32)": "ccd6b020",
			"depositarETH()": "16a1930f",
			"depositarUSDC(uint256)": "698b7241",
			"despausarContrato()": "38d5c916",
			"estadoDelContrato()": "0594cc69",
			"getRoleAdmin(bytes32)": "248a9ca3",
			"grantRole(bytes32,address)": "2f2ff15d",
			"hasRole(bytes32,address)": "91d14854",
			"owner()": "8da5cb5b",
			"pausarContrato()": "1a003ecb",
			"paused()": "5c975abb",
			"renounceOwnership()": "715018a6",
			"renounceRole(bytes32,address)": "36568abe",
			"retirarETH(uint256)": "82fe54b5",
			"retirarUSDC(uint256)": "931fb90e",
			"revocarRol(address,bytes32)": "f0e00dc8",
			"revokeRole(bytes32,address)": "d547741f",
			"s_feed()": "6f05c64c",
			"setFeeds(address)": "7dc532c5",
			"supportsInterface(bytes4)": "01ffc9a7",
			"transferOwnership(address)": "f2fde38b",
			"transferirOwner(address)": "8648840a",
			"verBoveda()": "6900670c",
			"verSaldoETH()": "779bb136",
			"verSaldoUSDC()": "939495bd",
			"verTotalContrato()": "93295c1c",
			"verTotalDepositos()": "f39b1809",
			"verTotalRetiros()": "c6aca33c"
		}
	},
	"abi": [
		{
			"inputs": [
				{
					"internalType": "uint256",
					"name": "_limite",
					"type": "uint256"
				},
				{
					"internalType": "uint256",
					"name": "_umbral",
					"type": "uint256"
				},
				{
					"internalType": "address",
					"name": "_owner",
					"type": "address"
				},
				{
					"internalType": "address",
					"name": "_feed",
					"type": "address"
				},
				{
					"internalType": "address",
					"name": "_tokenERC20",
					"type": "address"
				}
			],
			"stateMutability": "nonpayable",
			"type": "constructor"
		},
		{
			"inputs": [],
			"name": "AccessControlBadConfirmation",
			"type": "error"
		},
		{
			"inputs": [
				{
					"internalType": "address",
					"name": "account",
					"type": "address"
				},
				{
					"internalType": "bytes32",
					"name": "neededRole",
					"type": "bytes32"
				}
			],
			"name": "AccessControlUnauthorizedAccount",
			"type": "error"
		},
		{
			"inputs": [],
			"name": "EnforcedPause",
			"type": "error"
		},
		{
			"inputs": [],
			"name": "ExpectedPause",
			"type": "error"
		},
		{
			"inputs": [],
			"name": "KipuBank_DireccionInvalida",
			"type": "error"
		},
		{
			"inputs": [
				{
					"internalType": "address",
					"name": "titular",
					"type": "address"
				},
				{
					"internalType": "uint256",
					"name": "monto",
					"type": "uint256"
				}
			],
			"name": "KipuBank_ExtraccionRechazada",
			"type": "error"
		},
		{
			"inputs": [
				{
					"internalType": "address",
					"name": "nuevoFeed",
					"type": "address"
				}
			],
			"name": "KipuBank_FeedInvalido",
			"type": "error"
		},
		{
			"inputs": [
				{
					"internalType": "uint256",
					"name": "limite",
					"type": "uint256"
				},
				{
					"internalType": "uint256",
					"name": "umbral",
					"type": "uint256"
				}
			],
			"name": "KipuBank_InicializacionInvalida",
			"type": "error"
		},
		{
			"inputs": [
				{
					"internalType": "uint256",
					"name": "monto",
					"type": "uint256"
				}
			],
			"name": "KipuBank_LimiteExcedido",
			"type": "error"
		},
		{
			"inputs": [
				{
					"internalType": "uint256",
					"name": "limite",
					"type": "uint256"
				}
			],
			"name": "KipuBank_LimiteInvalido",
			"type": "error"
		},
		{
			"inputs": [
				{
					"internalType": "address",
					"name": "titular",
					"type": "address"
				}
			],
			"name": "KipuBank_MontoCero",
			"type": "error"
		},
		{
			"inputs": [
				{
					"internalType": "address",
					"name": "sender",
					"type": "address"
				}
			],
			"name": "KipuBank_NoAutorizado",
			"type": "error"
		},
		{
			"inputs": [
				{
					"internalType": "address",
					"name": "titular",
					"type": "address"
				}
			],
			"name": "KipuBank_OperacionNoPermitida",
			"type": "error"
		},
		{
			"inputs": [
				{
					"internalType": "uint256",
					"name": "precio",
					"type": "uint256"
				}
			],
			"name": "KipuBank_OraculoComprometido",
			"type": "error"
		},
		{
			"inputs": [
				{
					"internalType": "uint256",
					"name": "precio",
					"type": "uint256"
				}
			],
			"name": "KipuBank_PrecioDesactualizado",
			"type": "error"
		},
		{
			"inputs": [
				{
					"internalType": "address",
					"name": "titular",
					"type": "address"
				},
				{
					"internalType": "uint256",
					"name": "monto",
					"type": "uint256"
				}
			],
			"name": "KipuBank_SaldoInsuficiente",
			"type": "error"
		},
		{
			"inputs": [
				{
					"internalType": "uint256",
					"name": "monto",
					"type": "uint256"
				}
			],
			"name": "KipuBank_UmbralExcedido",
			"type": "error"
		},
		{
			"inputs": [
				{
					"internalType": "uint256",
					"name": "umbral",
					"type": "uint256"
				}
			],
			"name": "KipuBank_UmbralInvalido",
			"type": "error"
		},
		{
			"inputs": [
				{
					"internalType": "address",
					"name": "owner",
					"type": "address"
				}
			],
			"name": "OwnableInvalidOwner",
			"type": "error"
		},
		{
			"inputs": [
				{
					"internalType": "address",
					"name": "account",
					"type": "address"
				}
			],
			"name": "OwnableUnauthorizedAccount",
			"type": "error"
		},
		{
			"inputs": [
				{
					"internalType": "address",
					"name": "token",
					"type": "address"
				}
			],
			"name": "SafeERC20FailedOperation",
			"type": "error"
		},
		{
			"anonymous": false,
			"inputs": [
				{
					"indexed": true,
					"internalType": "address",
					"name": "sender",
					"type": "address"
				},
				{
					"indexed": false,
					"internalType": "uint256",
					"name": "tiempo",
					"type": "uint256"
				}
			],
			"name": "KipuBank_ContratoDespausado",
			"type": "event"
		},
		{
			"anonymous": false,
			"inputs": [
				{
					"indexed": true,
					"internalType": "address",
					"name": "sender",
					"type": "address"
				},
				{
					"indexed": false,
					"internalType": "uint256",
					"name": "tiempo",
					"type": "uint256"
				}
			],
			"name": "KipuBank_ContratoPausado",
			"type": "event"
		},
		{
			"anonymous": false,
			"inputs": [
				{
					"indexed": true,
					"internalType": "address",
					"name": "titular",
					"type": "address"
				},
				{
					"indexed": false,
					"internalType": "uint256",
					"name": "monto",
					"type": "uint256"
				}
			],
			"name": "KipuBank_DepositoRealizado",
			"type": "event"
		},
		{
			"anonymous": false,
			"inputs": [
				{
					"indexed": true,
					"internalType": "address",
					"name": "titular",
					"type": "address"
				},
				{
					"indexed": false,
					"internalType": "uint256",
					"name": "monto",
					"type": "uint256"
				}
			],
			"name": "KipuBank_ExtraccionRealizada",
			"type": "event"
		},
		{
			"anonymous": false,
			"inputs": [
				{
					"indexed": true,
					"internalType": "address",
					"name": "antiguoFeed",
					"type": "address"
				},
				{
					"indexed": true,
					"internalType": "address",
					"name": "nuevoFeed",
					"type": "address"
				}
			],
			"name": "KipuBank_FeedActualizado",
			"type": "event"
		},
		{
			"anonymous": false,
			"inputs": [
				{
					"indexed": true,
					"internalType": "address",
					"name": "ownerViejo",
					"type": "address"
				},
				{
					"indexed": true,
					"internalType": "address",
					"name": "ownerNuevo",
					"type": "address"
				}
			],
			"name": "KipuBank_OwnerTransferido",
			"type": "event"
		},
		{
			"anonymous": false,
			"inputs": [
				{
					"indexed": true,
					"internalType": "address",
					"name": "cuenta",
					"type": "address"
				},
				{
					"indexed": false,
					"internalType": "bytes32",
					"name": "rol",
					"type": "bytes32"
				}
			],
			"name": "KipuBank_RolDado",
			"type": "event"
		},
		{
			"anonymous": false,
			"inputs": [
				{
					"indexed": true,
					"internalType": "address",
					"name": "cuenta",
					"type": "address"
				},
				{
					"indexed": false,
					"internalType": "bytes32",
					"name": "rol",
					"type": "bytes32"
				}
			],
			"name": "KipuBank_RolRevocado",
			"type": "event"
		},
		{
			"anonymous": false,
			"inputs": [
				{
					"indexed": true,
					"internalType": "address",
					"name": "previousOwner",
					"type": "address"
				},
				{
					"indexed": true,
					"internalType": "address",
					"name": "newOwner",
					"type": "address"
				}
			],
			"name": "OwnershipTransferred",
			"type": "event"
		},
		{
			"anonymous": false,
			"inputs": [
				{
					"indexed": false,
					"internalType": "address",
					"name": "account",
					"type": "address"
				}
			],
			"name": "Paused",
			"type": "event"
		},
		{
			"anonymous": false,
			"inputs": [
				{
					"indexed": true,
					"internalType": "bytes32",
					"name": "role",
					"type": "bytes32"
				},
				{
					"indexed": true,
					"internalType": "bytes32",
					"name": "previousAdminRole",
					"type": "bytes32"
				},
				{
					"indexed": true,
					"internalType": "bytes32",
					"name": "newAdminRole",
					"type": "bytes32"
				}
			],
			"name": "RoleAdminChanged",
			"type": "event"
		},
		{
			"anonymous": false,
			"inputs": [
				{
					"indexed": true,
					"internalType": "bytes32",
					"name": "role",
					"type": "bytes32"
				},
				{
					"indexed": true,
					"internalType": "address",
					"name": "account",
					"type": "address"
				},
				{
					"indexed": true,
					"internalType": "address",
					"name": "sender",
					"type": "address"
				}
			],
			"name": "RoleGranted",
			"type": "event"
		},
		{
			"anonymous": false,
			"inputs": [
				{
					"indexed": true,
					"internalType": "bytes32",
					"name": "role",
					"type": "bytes32"
				},
				{
					"indexed": true,
					"internalType": "address",
					"name": "account",
					"type": "address"
				},
				{
					"indexed": true,
					"internalType": "address",
					"name": "sender",
					"type": "address"
				}
			],
			"name": "RoleRevoked",
			"type": "event"
		},
		{
			"anonymous": false,
			"inputs": [
				{
					"indexed": false,
					"internalType": "address",
					"name": "account",
					"type": "address"
				}
			],
			"name": "Unpaused",
			"type": "event"
		},
		{
			"stateMutability": "payable",
			"type": "fallback"
		},
		{
			"inputs": [],
			"name": "DEFAULT_ADMIN_ROLE",
			"outputs": [
				{
					"internalType": "bytes32",
					"name": "",
					"type": "bytes32"
				}
			],
			"stateMutability": "view",
			"type": "function"
		},
		{
			"inputs": [],
			"name": "FEED_MANAGER",
			"outputs": [
				{
					"internalType": "bytes32",
					"name": "",
					"type": "bytes32"
				}
			],
			"stateMutability": "view",
			"type": "function"
		},
		{
			"inputs": [],
			"name": "PAUSER",
			"outputs": [
				{
					"internalType": "bytes32",
					"name": "",
					"type": "bytes32"
				}
			],
			"stateMutability": "view",
			"type": "function"
		},
		{
			"inputs": [
				{
					"internalType": "address",
					"name": "titular",
					"type": "address"
				},
				{
					"internalType": "address",
					"name": "token",
					"type": "address"
				}
			],
			"name": "balanceOf",
			"outputs": [
				{
					"internalType": "uint256",
					"name": "",
					"type": "uint256"
				}
			],
			"stateMutability": "view",
			"type": "function"
		},
		{
			"inputs": [
				{
					"internalType": "address",
					"name": "cuenta",
					"type": "address"
				},
				{
					"internalType": "bytes32",
					"name": "rol",
					"type": "bytes32"
				}
			],
			"name": "darRol",
			"outputs": [],
			"stateMutability": "nonpayable",
			"type": "function"
		},
		{
			"inputs": [],
			"name": "depositarETH",
			"outputs": [],
			"stateMutability": "payable",
			"type": "function"
		},
		{
			"inputs": [
				{
					"internalType": "uint256",
					"name": "_monto",
					"type": "uint256"
				}
			],
			"name": "depositarUSDC",
			"outputs": [],
			"stateMutability": "nonpayable",
			"type": "function"
		},
		{
			"inputs": [],
			"name": "despausarContrato",
			"outputs": [],
			"stateMutability": "nonpayable",
			"type": "function"
		},
		{
			"inputs": [],
			"name": "estadoDelContrato",
			"outputs": [
				{
					"internalType": "bool",
					"name": "pausado",
					"type": "bool"
				},
				{
					"internalType": "uint256",
					"name": "totalContrato",
					"type": "uint256"
				},
				{
					"internalType": "uint256",
					"name": "limite",
					"type": "uint256"
				},
				{
					"internalType": "uint256",
					"name": "umbral",
					"type": "uint256"
				},
				{
					"internalType": "address",
					"name": "feedActual",
					"type": "address"
				}
			],
			"stateMutability": "view",
			"type": "function"
		},
		{
			"inputs": [
				{
					"internalType": "bytes32",
					"name": "role",
					"type": "bytes32"
				}
			],
			"name": "getRoleAdmin",
			"outputs": [
				{
					"internalType": "bytes32",
					"name": "",
					"type": "bytes32"
				}
			],
			"stateMutability": "view",
			"type": "function"
		},
		{
			"inputs": [
				{
					"internalType": "bytes32",
					"name": "role",
					"type": "bytes32"
				},
				{
					"internalType": "address",
					"name": "account",
					"type": "address"
				}
			],
			"name": "grantRole",
			"outputs": [],
			"stateMutability": "nonpayable",
			"type": "function"
		},
		{
			"inputs": [
				{
					"internalType": "bytes32",
					"name": "role",
					"type": "bytes32"
				},
				{
					"internalType": "address",
					"name": "account",
					"type": "address"
				}
			],
			"name": "hasRole",
			"outputs": [
				{
					"internalType": "bool",
					"name": "",
					"type": "bool"
				}
			],
			"stateMutability": "view",
			"type": "function"
		},
		{
			"inputs": [],
			"name": "owner",
			"outputs": [
				{
					"internalType": "address",
					"name": "",
					"type": "address"
				}
			],
			"stateMutability": "view",
			"type": "function"
		},
		{
			"inputs": [],
			"name": "pausarContrato",
			"outputs": [],
			"stateMutability": "nonpayable",
			"type": "function"
		},
		{
			"inputs": [],
			"name": "paused",
			"outputs": [
				{
					"internalType": "bool",
					"name": "",
					"type": "bool"
				}
			],
			"stateMutability": "view",
			"type": "function"
		},
		{
			"inputs": [],
			"name": "renounceOwnership",
			"outputs": [],
			"stateMutability": "nonpayable",
			"type": "function"
		},
		{
			"inputs": [
				{
					"internalType": "bytes32",
					"name": "role",
					"type": "bytes32"
				},
				{
					"internalType": "address",
					"name": "callerConfirmation",
					"type": "address"
				}
			],
			"name": "renounceRole",
			"outputs": [],
			"stateMutability": "nonpayable",
			"type": "function"
		},
		{
			"inputs": [
				{
					"internalType": "uint256",
					"name": "_monto",
					"type": "uint256"
				}
			],
			"name": "retirarETH",
			"outputs": [],
			"stateMutability": "nonpayable",
			"type": "function"
		},
		{
			"inputs": [
				{
					"internalType": "uint256",
					"name": "_monto",
					"type": "uint256"
				}
			],
			"name": "retirarUSDC",
			"outputs": [],
			"stateMutability": "nonpayable",
			"type": "function"
		},
		{
			"inputs": [
				{
					"internalType": "address",
					"name": "cuenta",
					"type": "address"
				},
				{
					"internalType": "bytes32",
					"name": "rol",
					"type": "bytes32"
				}
			],
			"name": "revocarRol",
			"outputs": [],
			"stateMutability": "nonpayable",
			"type": "function"
		},
		{
			"inputs": [
				{
					"internalType": "bytes32",
					"name": "role",
					"type": "bytes32"
				},
				{
					"internalType": "address",
					"name": "account",
					"type": "address"
				}
			],
			"name": "revokeRole",
			"outputs": [],
			"stateMutability": "nonpayable",
			"type": "function"
		},
		{
			"inputs": [],
			"name": "s_feed",
			"outputs": [
				{
					"internalType": "contract AggregatorV3Interface",
					"name": "",
					"type": "address"
				}
			],
			"stateMutability": "view",
			"type": "function"
		},
		{
			"inputs": [
				{
					"internalType": "address",
					"name": "_nuevoFeed",
					"type": "address"
				}
			],
			"name": "setFeeds",
			"outputs": [],
			"stateMutability": "nonpayable",
			"type": "function"
		},
		{
			"inputs": [
				{
					"internalType": "bytes4",
					"name": "interfaceId",
					"type": "bytes4"
				}
			],
			"name": "supportsInterface",
			"outputs": [
				{
					"internalType": "bool",
					"name": "",
					"type": "bool"
				}
			],
			"stateMutability": "view",
			"type": "function"
		},
		{
			"inputs": [
				{
					"internalType": "address",
					"name": "newOwner",
					"type": "address"
				}
			],
			"name": "transferOwnership",
			"outputs": [],
			"stateMutability": "nonpayable",
			"type": "function"
		},
		{
			"inputs": [
				{
					"internalType": "address",
					"name": "_nuevoOwner",
					"type": "address"
				}
			],
			"name": "transferirOwner",
			"outputs": [],
			"stateMutability": "nonpayable",
			"type": "function"
		},
		{
			"inputs": [],
			"name": "verBoveda",
			"outputs": [
				{
					"internalType": "uint256",
					"name": "monto_",
					"type": "uint256"
				}
			],
			"stateMutability": "view",
			"type": "function"
		},
		{
			"inputs": [],
			"name": "verSaldoETH",
			"outputs": [
				{
					"internalType": "uint256",
					"name": "saldo_",
					"type": "uint256"
				}
			],
			"stateMutability": "view",
			"type": "function"
		},
		{
			"inputs": [],
			"name": "verSaldoUSDC",
			"outputs": [
				{
					"internalType": "uint256",
					"name": "saldo_",
					"type": "uint256"
				}
			],
			"stateMutability": "view",
			"type": "function"
		},
		{
			"inputs": [],
			"name": "verTotalContrato",
			"outputs": [
				{
					"internalType": "uint256",
					"name": "",
					"type": "uint256"
				}
			],
			"stateMutability": "view",
			"type": "function"
		},
		{
			"inputs": [],
			"name": "verTotalDepositos",
			"outputs": [
				{
					"internalType": "uint256",
					"name": "",
					"type": "uint256"
				}
			],
			"stateMutability": "view",
			"type": "function"
		},
		{
			"inputs": [],
			"name": "verTotalRetiros",
			"outputs": [
				{
					"internalType": "uint256",
					"name": "",
					"type": "uint256"
				}
			],
			"stateMutability": "view",
			"type": "function"
		},
		{
			"stateMutability": "payable",
			"type": "receive"
		}
	]
}